{
	"wwcc-contracts/contracts/wwccPool.sol": {
		"WCPOOL": {
			"abi": [
				{
					"inputs": [
						{
							"internalType": "address",
							"name": "holder",
							"type": "address"
						},
						{
							"internalType": "uint256",
							"name": "firstBasal",
							"type": "uint256"
						}
					],
					"stateMutability": "nonpayable",
					"type": "constructor"
				},
				{
					"anonymous": false,
					"inputs": [
						{
							"indexed": false,
							"internalType": "address",
							"name": "",
							"type": "address"
						},
						{
							"indexed": false,
							"internalType": "uint256",
							"name": "",
							"type": "uint256"
						}
					],
					"name": "Received",
					"type": "event"
				},
				{
					"inputs": [
						{
							"internalType": "bytes32",
							"name": "poolKey",
							"type": "bytes32"
						},
						{
							"internalType": "uint256",
							"name": "homeScore",
							"type": "uint256"
						},
						{
							"internalType": "uint256",
							"name": "visitScore",
							"type": "uint256"
						},
						{
							"internalType": "uint256",
							"name": "result",
							"type": "uint256"
						}
					],
					"name": "Award",
					"outputs": [
						{
							"internalType": "bool",
							"name": "",
							"type": "bool"
						}
					],
					"stateMutability": "payable",
					"type": "function"
				},
				{
					"inputs": [],
					"name": "CheckBasal",
					"outputs": [
						{
							"internalType": "uint256",
							"name": "",
							"type": "uint256"
						}
					],
					"stateMutability": "view",
					"type": "function"
				},
				{
					"inputs": [
						{
							"internalType": "bytes32",
							"name": "poolKey",
							"type": "bytes32"
						}
					],
					"name": "CheckExpect",
					"outputs": [
						{
							"internalType": "uint256",
							"name": "",
							"type": "uint256"
						}
					],
					"stateMutability": "view",
					"type": "function"
				},
				{
					"inputs": [],
					"name": "CheckVoteTickets",
					"outputs": [
						{
							"internalType": "uint256",
							"name": "",
							"type": "uint256"
						}
					],
					"stateMutability": "view",
					"type": "function"
				},
				{
					"inputs": [
						{
							"internalType": "address",
							"name": "joiner",
							"type": "address"
						},
						{
							"internalType": "uint256",
							"name": "weight",
							"type": "uint256"
						},
						{
							"internalType": "bytes32",
							"name": "poolKey",
							"type": "bytes32"
						},
						{
							"internalType": "uint256",
							"name": "homeScore",
							"type": "uint256"
						},
						{
							"internalType": "uint256",
							"name": "visitScore",
							"type": "uint256"
						},
						{
							"internalType": "uint256",
							"name": "kind",
							"type": "uint256"
						}
					],
					"name": "Picking",
					"outputs": [
						{
							"internalType": "bool",
							"name": "",
							"type": "bool"
						}
					],
					"stateMutability": "nonpayable",
					"type": "function"
				},
				{
					"inputs": [
						{
							"internalType": "string",
							"name": "home",
							"type": "string"
						},
						{
							"internalType": "string",
							"name": "visit",
							"type": "string"
						},
						{
							"internalType": "string",
							"name": "rounds",
							"type": "string"
						},
						{
							"internalType": "bool",
							"name": "decided",
							"type": "bool"
						}
					],
					"name": "Set_Pool",
					"outputs": [
						{
							"internalType": "bytes32",
							"name": "",
							"type": "bytes32"
						}
					],
					"stateMutability": "nonpayable",
					"type": "function"
				},
				{
					"inputs": [
						{
							"internalType": "address",
							"name": "joiner",
							"type": "address"
						},
						{
							"internalType": "uint256",
							"name": "weight",
							"type": "uint256"
						},
						{
							"internalType": "bytes32",
							"name": "poolKey",
							"type": "bytes32"
						},
						{
							"internalType": "uint256",
							"name": "homeScore",
							"type": "uint256"
						},
						{
							"internalType": "uint256",
							"name": "visitScore",
							"type": "uint256"
						},
						{
							"internalType": "uint256",
							"name": "kind",
							"type": "uint256"
						}
					],
					"name": "Test",
					"outputs": [
						{
							"internalType": "bool",
							"name": "",
							"type": "bool"
						}
					],
					"stateMutability": "nonpayable",
					"type": "function"
				},
				{
					"inputs": [
						{
							"internalType": "address",
							"name": "toAddress",
							"type": "address"
						},
						{
							"internalType": "bytes32",
							"name": "poolKey",
							"type": "bytes32"
						}
					],
					"name": "Withdrawal",
					"outputs": [
						{
							"internalType": "bool",
							"name": "",
							"type": "bool"
						}
					],
					"stateMutability": "payable",
					"type": "function"
				},
				{
					"inputs": [],
					"name": "getAllPoolKeys",
					"outputs": [
						{
							"internalType": "bytes32[]",
							"name": "",
							"type": "bytes32[]"
						}
					],
					"stateMutability": "view",
					"type": "function"
				},
				{
					"inputs": [],
					"name": "getLastBNB",
					"outputs": [
						{
							"internalType": "uint256",
							"name": "",
							"type": "uint256"
						}
					],
					"stateMutability": "view",
					"type": "function"
				},
				{
					"inputs": [
						{
							"internalType": "bytes32",
							"name": "poolKey",
							"type": "bytes32"
						}
					],
					"name": "getPool",
					"outputs": [
						{
							"internalType": "string",
							"name": "vs",
							"type": "string"
						},
						{
							"internalType": "string",
							"name": "rounds",
							"type": "string"
						},
						{
							"components": [
								{
									"internalType": "uint256",
									"name": "wPool",
									"type": "uint256"
								},
								{
									"internalType": "uint256",
									"name": "dPool",
									"type": "uint256"
								},
								{
									"internalType": "uint256",
									"name": "lPool",
									"type": "uint256"
								},
								{
									"internalType": "uint256",
									"name": "sPool",
									"type": "uint256"
								},
								{
									"internalType": "uint256",
									"name": "basal",
									"type": "uint256"
								}
							],
							"internalType": "struct WCPOOL.PoolViewInfo",
							"name": "viewInfo",
							"type": "tuple"
						}
					],
					"stateMutability": "view",
					"type": "function"
				},
				{
					"inputs": [
						{
							"internalType": "address",
							"name": "joiner",
							"type": "address"
						},
						{
							"internalType": "uint256",
							"name": "amount",
							"type": "uint256"
						}
					],
					"name": "voteWithdrawal",
					"outputs": [
						{
							"internalType": "bool",
							"name": "",
							"type": "bool"
						}
					],
					"stateMutability": "payable",
					"type": "function"
				},
				{
					"inputs": [
						{
							"internalType": "address",
							"name": "toAddress",
							"type": "address"
						}
					],
					"name": "withdrawBNBInContract",
					"outputs": [
						{
							"internalType": "bool",
							"name": "",
							"type": "bool"
						}
					],
					"stateMutability": "payable",
					"type": "function"
				},
				{
					"stateMutability": "payable",
					"type": "receive"
				}
			],
			"devdoc": {
				"kind": "dev",
				"methods": {},
				"version": 1
			},
			"evm": {
				"assembly": "    /* \"wwcc-contracts/contracts/wwccPool.sol\":96:14743  contract WCPOOL {... */\n  mstore(0x40, 0x80)\n    /* \"wwcc-contracts/contracts/wwccPool.sol\":1776:1997  constructor(... */\n  callvalue\n  dup1\n  iszero\n  tag_1\n  jumpi\n  0x00\n  dup1\n  revert\ntag_1:\n  pop\n  mload(0x40)\n  sub(codesize, bytecodeSize)\n  dup1\n  bytecodeSize\n  dup4\n  codecopy\n  dup2\n  dup2\n  add\n  0x40\n  mstore\n  dup2\n  add\n  swap1\n  tag_2\n  swap2\n  swap1\n  tag_3\n  jump\t// in\ntag_2:\n    /* \"wwcc-contracts/contracts/wwccPool.sol\":1857:1863  holder */\n  dup2\n    /* \"wwcc-contracts/contracts/wwccPool.sol\":1849:1854  owner */\n  0x00\n  dup1\n    /* \"wwcc-contracts/contracts/wwccPool.sol\":1849:1863  owner = holder */\n  0x0100\n  exp\n  dup2\n  sload\n  dup2\n  0xffffffffffffffffffffffffffffffffffffffff\n  mul\n  not\n  and\n  swap1\n  dup4\n  0xffffffffffffffffffffffffffffffffffffffff\n  and\n  mul\n  or\n  swap1\n  sstore\n  pop\n    /* \"wwcc-contracts/contracts/wwccPool.sol\":1883:1884  0 */\n  0x00\n    /* \"wwcc-contracts/contracts/wwccPool.sol\":1873:1880  lastBNB */\n  0x03\n    /* \"wwcc-contracts/contracts/wwccPool.sol\":1873:1884  lastBNB = 0 */\n  dup2\n  swap1\n  sstore\n  pop\n    /* \"wwcc-contracts/contracts/wwccPool.sol\":1910:1920  firstBasal */\n  dup1\n    /* \"wwcc-contracts/contracts/wwccPool.sol\":1894:1907  nextBasalLast */\n  0x01\n    /* \"wwcc-contracts/contracts/wwccPool.sol\":1894:1920  nextBasalLast = firstBasal */\n  dup2\n  swap1\n  sstore\n  pop\n    /* \"wwcc-contracts/contracts/wwccPool.sol\":1776:1997  constructor(... */\n  pop\n  pop\n    /* \"wwcc-contracts/contracts/wwccPool.sol\":96:14743  contract WCPOOL {... */\n  jump(tag_6)\n    /* \"#utility.yul\":7:150   */\ntag_8:\n    /* \"#utility.yul\":64:69   */\n  0x00\n    /* \"#utility.yul\":95:101   */\n  dup2\n    /* \"#utility.yul\":89:102   */\n  mload\n    /* \"#utility.yul\":80:102   */\n  swap1\n  pop\n    /* \"#utility.yul\":111:144   */\n  tag_10\n    /* \"#utility.yul\":138:143   */\n  dup2\n    /* \"#utility.yul\":111:144   */\n  tag_11\n  jump\t// in\ntag_10:\n    /* \"#utility.yul\":7:150   */\n  swap3\n  swap2\n  pop\n  pop\n  jump\t// out\n    /* \"#utility.yul\":156:299   */\ntag_12:\n    /* \"#utility.yul\":213:218   */\n  0x00\n    /* \"#utility.yul\":244:250   */\n  dup2\n    /* \"#utility.yul\":238:251   */\n  mload\n    /* \"#utility.yul\":229:251   */\n  swap1\n  pop\n    /* \"#utility.yul\":260:293   */\n  tag_14\n    /* \"#utility.yul\":287:292   */\n  dup2\n    /* \"#utility.yul\":260:293   */\n  tag_15\n  jump\t// in\ntag_14:\n    /* \"#utility.yul\":156:299   */\n  swap3\n  swap2\n  pop\n  pop\n  jump\t// out\n    /* \"#utility.yul\":305:812   */\ntag_3:\n    /* \"#utility.yul\":384:390   */\n  0x00\n    /* \"#utility.yul\":392:398   */\n  dup1\n    /* \"#utility.yul\":441:443   */\n  0x40\n    /* \"#utility.yul\":429:438   */\n  dup4\n    /* \"#utility.yul\":420:427   */\n  dup6\n    /* \"#utility.yul\":416:439   */\n  sub\n    /* \"#utility.yul\":412:444   */\n  slt\n    /* \"#utility.yul\":409:528   */\n  iszero\n  tag_17\n  jumpi\n    /* \"#utility.yul\":447:526   */\n  tag_18\n  tag_19\n  jump\t// in\ntag_18:\n    /* \"#utility.yul\":409:528   */\ntag_17:\n    /* \"#utility.yul\":567:568   */\n  0x00\n    /* \"#utility.yul\":592:656   */\n  tag_20\n    /* \"#utility.yul\":648:655   */\n  dup6\n    /* \"#utility.yul\":639:645   */\n  dup3\n    /* \"#utility.yul\":628:637   */\n  dup7\n    /* \"#utility.yul\":624:646   */\n  add\n    /* \"#utility.yul\":592:656   */\n  tag_8\n  jump\t// in\ntag_20:\n    /* \"#utility.yul\":582:656   */\n  swap3\n  pop\n    /* \"#utility.yul\":538:666   */\n  pop\n    /* \"#utility.yul\":705:707   */\n  0x20\n    /* \"#utility.yul\":731:795   */\n  tag_21\n    /* \"#utility.yul\":787:794   */\n  dup6\n    /* \"#utility.yul\":778:784   */\n  dup3\n    /* \"#utility.yul\":767:776   */\n  dup7\n    /* \"#utility.yul\":763:785   */\n  add\n    /* \"#utility.yul\":731:795   */\n  tag_12\n  jump\t// in\ntag_21:\n    /* \"#utility.yul\":721:795   */\n  swap2\n  pop\n    /* \"#utility.yul\":676:805   */\n  pop\n    /* \"#utility.yul\":305:812   */\n  swap3\n  pop\n  swap3\n  swap1\n  pop\n  jump\t// out\n    /* \"#utility.yul\":899:995   */\ntag_24:\n    /* \"#utility.yul\":936:943   */\n  0x00\n    /* \"#utility.yul\":965:989   */\n  tag_26\n    /* \"#utility.yul\":983:988   */\n  dup3\n    /* \"#utility.yul\":965:989   */\n  tag_27\n  jump\t// in\ntag_26:\n    /* \"#utility.yul\":954:989   */\n  swap1\n  pop\n    /* \"#utility.yul\":899:995   */\n  swap2\n  swap1\n  pop\n  jump\t// out\n    /* \"#utility.yul\":1001:1127   */\ntag_27:\n    /* \"#utility.yul\":1038:1045   */\n  0x00\n    /* \"#utility.yul\":1078:1120   */\n  0xffffffffffffffffffffffffffffffffffffffff\n    /* \"#utility.yul\":1071:1076   */\n  dup3\n    /* \"#utility.yul\":1067:1121   */\n  and\n    /* \"#utility.yul\":1056:1121   */\n  swap1\n  pop\n    /* \"#utility.yul\":1001:1127   */\n  swap2\n  swap1\n  pop\n  jump\t// out\n    /* \"#utility.yul\":1133:1210   */\ntag_29:\n    /* \"#utility.yul\":1170:1177   */\n  0x00\n    /* \"#utility.yul\":1199:1204   */\n  dup2\n    /* \"#utility.yul\":1188:1204   */\n  swap1\n  pop\n    /* \"#utility.yul\":1133:1210   */\n  swap2\n  swap1\n  pop\n  jump\t// out\n    /* \"#utility.yul\":1339:1456   */\ntag_19:\n    /* \"#utility.yul\":1448:1449   */\n  0x00\n    /* \"#utility.yul\":1445:1446   */\n  dup1\n    /* \"#utility.yul\":1438:1450   */\n  revert\n    /* \"#utility.yul\":1462:1584   */\ntag_11:\n    /* \"#utility.yul\":1535:1559   */\n  tag_35\n    /* \"#utility.yul\":1553:1558   */\n  dup2\n    /* \"#utility.yul\":1535:1559   */\n  tag_24\n  jump\t// in\ntag_35:\n    /* \"#utility.yul\":1528:1533   */\n  dup2\n    /* \"#utility.yul\":1525:1560   */\n  eq\n    /* \"#utility.yul\":1515:1578   */\n  tag_36\n  jumpi\n    /* \"#utility.yul\":1574:1575   */\n  0x00\n    /* \"#utility.yul\":1571:1572   */\n  dup1\n    /* \"#utility.yul\":1564:1576   */\n  revert\n    /* \"#utility.yul\":1515:1578   */\ntag_36:\n    /* \"#utility.yul\":1462:1584   */\n  pop\n  jump\t// out\n    /* \"#utility.yul\":1590:1712   */\ntag_15:\n    /* \"#utility.yul\":1663:1687   */\n  tag_38\n    /* \"#utility.yul\":1681:1686   */\n  dup2\n    /* \"#utility.yul\":1663:1687   */\n  tag_29\n  jump\t// in\ntag_38:\n    /* \"#utility.yul\":1656:1661   */\n  dup2\n    /* \"#utility.yul\":1653:1688   */\n  eq\n    /* \"#utility.yul\":1643:1706   */\n  tag_39\n  jumpi\n    /* \"#utility.yul\":1702:1703   */\n  0x00\n    /* \"#utility.yul\":1699:1700   */\n  dup1\n    /* \"#utility.yul\":1692:1704   */\n  revert\n    /* \"#utility.yul\":1643:1706   */\ntag_39:\n    /* \"#utility.yul\":1590:1712   */\n  pop\n  jump\t// out\n    /* \"wwcc-contracts/contracts/wwccPool.sol\":96:14743  contract WCPOOL {... */\ntag_6:\n  dataSize(sub_0)\n  dup1\n  dataOffset(sub_0)\n  0x00\n  codecopy\n  0x00\n  return\nstop\n\nsub_0: assembly {\n        /* \"wwcc-contracts/contracts/wwccPool.sol\":96:14743  contract WCPOOL {... */\n      mstore(0x40, 0x80)\n      jumpi(tag_1, lt(calldatasize, 0x04))\n      shr(0xe0, calldataload(0x00))\n      dup1\n      0x4121855f\n      gt\n      tag_16\n      jumpi\n      dup1\n      0x9bd0abf1\n      gt\n      tag_17\n      jumpi\n      dup1\n      0x9bd0abf1\n      eq\n      tag_12\n      jumpi\n      dup1\n      0xbaf41269\n      eq\n      tag_13\n      jumpi\n      dup1\n      0xea8870c0\n      eq\n      tag_14\n      jumpi\n      dup1\n      0xf6c00927\n      eq\n      tag_15\n      jumpi\n      jump(tag_2)\n    tag_17:\n      dup1\n      0x4121855f\n      eq\n      tag_9\n      jumpi\n      dup1\n      0x47e4dd27\n      eq\n      tag_10\n      jumpi\n      dup1\n      0x74fe9bc2\n      eq\n      tag_11\n      jumpi\n      jump(tag_2)\n    tag_16:\n      dup1\n      0x0c66b373\n      eq\n      tag_3\n      jumpi\n      dup1\n      0x0ce49053\n      eq\n      tag_4\n      jumpi\n      dup1\n      0x22d8325c\n      eq\n      tag_5\n      jumpi\n      dup1\n      0x2775e02c\n      eq\n      tag_6\n      jumpi\n      dup1\n      0x357965ba\n      eq\n      tag_7\n      jumpi\n      dup1\n      0x3e6ff1a2\n      eq\n      tag_8\n      jumpi\n      jump(tag_2)\n    tag_1:\n      jumpi(tag_2, calldatasize)\n        /* \"wwcc-contracts/contracts/wwccPool.sol\":14548:14553  owner */\n      0x00\n      dup1\n      sload\n      swap1\n      0x0100\n      exp\n      swap1\n      div\n      0xffffffffffffffffffffffffffffffffffffffff\n      and\n        /* \"wwcc-contracts/contracts/wwccPool.sol\":14534:14553  msg.sender != owner */\n      0xffffffffffffffffffffffffffffffffffffffff\n      and\n        /* \"wwcc-contracts/contracts/wwccPool.sol\":14534:14544  msg.sender */\n      caller\n        /* \"wwcc-contracts/contracts/wwccPool.sol\":14534:14553  msg.sender != owner */\n      0xffffffffffffffffffffffffffffffffffffffff\n      and\n      eq\n        /* \"wwcc-contracts/contracts/wwccPool.sol\":14531:14736  if(msg.sender != owner){... */\n      tag_20\n      jumpi\n        /* \"wwcc-contracts/contracts/wwccPool.sol\":14593:14625  msg.value.div(10000000000000000) */\n      tag_21\n        /* \"wwcc-contracts/contracts/wwccPool.sol\":14607:14624  10000000000000000 */\n      0x2386f26fc10000\n        /* \"wwcc-contracts/contracts/wwccPool.sol\":14593:14602  msg.value */\n      callvalue\n        /* \"wwcc-contracts/contracts/wwccPool.sol\":14593:14606  msg.value.div */\n      tag_22\n      swap1\n        /* \"wwcc-contracts/contracts/wwccPool.sol\":14593:14625  msg.value.div(10000000000000000) */\n      swap2\n      swap1\n      0xffffffff\n      and\n      jump\t// in\n    tag_21:\n        /* \"wwcc-contracts/contracts/wwccPool.sol\":14567:14577  voteAmount */\n      0x04\n        /* \"wwcc-contracts/contracts/wwccPool.sol\":14567:14589  voteAmount[msg.sender] */\n      0x00\n        /* \"wwcc-contracts/contracts/wwccPool.sol\":14578:14588  msg.sender */\n      caller\n        /* \"wwcc-contracts/contracts/wwccPool.sol\":14567:14589  voteAmount[msg.sender] */\n      0xffffffffffffffffffffffffffffffffffffffff\n      and\n      0xffffffffffffffffffffffffffffffffffffffff\n      and\n      dup2\n      mstore\n      0x20\n      add\n      swap1\n      dup2\n      mstore\n      0x20\n      add\n      0x00\n      keccak256\n      0x00\n        /* \"wwcc-contracts/contracts/wwccPool.sol\":14567:14625  voteAmount[msg.sender] += msg.value.div(10000000000000000) */\n      dup3\n      dup3\n      sload\n      tag_23\n      swap2\n      swap1\n      tag_24\n      jump\t// in\n    tag_23:\n      swap3\n      pop\n      pop\n      dup2\n      swap1\n      sstore\n      pop\n        /* \"wwcc-contracts/contracts/wwccPool.sol\":14649:14658  msg.value */\n      callvalue\n        /* \"wwcc-contracts/contracts/wwccPool.sol\":14638:14645  lastBNB */\n      0x03\n      0x00\n        /* \"wwcc-contracts/contracts/wwccPool.sol\":14638:14658  lastBNB += msg.value */\n      dup3\n      dup3\n      sload\n      tag_25\n      swap2\n      swap1\n      tag_24\n      jump\t// in\n    tag_25:\n      swap3\n      pop\n      pop\n      dup2\n      swap1\n      sstore\n      pop\n        /* \"wwcc-contracts/contracts/wwccPool.sol\":14676:14707  Received(msg.sender, msg.value) */\n      0x88a5966d370b9919b20f3e2c13ff65706f196a4e32cc2c12bf57088f88525874\n        /* \"wwcc-contracts/contracts/wwccPool.sol\":14685:14695  msg.sender */\n      caller\n        /* \"wwcc-contracts/contracts/wwccPool.sol\":14697:14706  msg.value */\n      callvalue\n        /* \"wwcc-contracts/contracts/wwccPool.sol\":14676:14707  Received(msg.sender, msg.value) */\n      mload(0x40)\n      tag_26\n      swap3\n      swap2\n      swap1\n      tag_27\n      jump\t// in\n    tag_26:\n      mload(0x40)\n      dup1\n      swap2\n      sub\n      swap1\n      log1\n        /* \"wwcc-contracts/contracts/wwccPool.sol\":14531:14736  if(msg.sender != owner){... */\n      jump(tag_28)\n    tag_20:\n    tag_28:\n        /* \"wwcc-contracts/contracts/wwccPool.sol\":96:14743  contract WCPOOL {... */\n      stop\n    tag_2:\n      0x00\n      dup1\n      revert\n        /* \"wwcc-contracts/contracts/wwccPool.sol\":7428:7524  function getLastBNB() external onlyManager view returns (uint256){... */\n    tag_3:\n      callvalue\n      dup1\n      iszero\n      tag_29\n      jumpi\n      0x00\n      dup1\n      revert\n    tag_29:\n      pop\n      tag_30\n      tag_31\n      jump\t// in\n    tag_30:\n      mload(0x40)\n      tag_32\n      swap2\n      swap1\n      tag_33\n      jump\t// in\n    tag_32:\n      mload(0x40)\n      dup1\n      swap2\n      sub\n      swap1\n      return\n        /* \"wwcc-contracts/contracts/wwccPool.sol\":5730:6409  function Withdrawal(address toAddress,bytes32 poolKey) external onlyManager payable returns (bool){... */\n    tag_4:\n      tag_34\n      0x04\n      dup1\n      calldatasize\n      sub\n      dup2\n      add\n      swap1\n      tag_35\n      swap2\n      swap1\n      tag_36\n      jump\t// in\n    tag_35:\n      tag_37\n      jump\t// in\n    tag_34:\n      mload(0x40)\n      tag_38\n      swap2\n      swap1\n      tag_39\n      jump\t// in\n    tag_38:\n      mload(0x40)\n      dup1\n      swap2\n      sub\n      swap1\n      return\n        /* \"wwcc-contracts/contracts/wwccPool.sol\":4960:5687  function Test(address joiner,uint256 weight,bytes32 poolKey,uint256 homeScore,uint256 visitScore,uint256 kind) external returns(bool){... */\n    tag_5:\n      callvalue\n      dup1\n      iszero\n      tag_40\n      jumpi\n      0x00\n      dup1\n      revert\n    tag_40:\n      pop\n      tag_41\n      0x04\n      dup1\n      calldatasize\n      sub\n      dup2\n      add\n      swap1\n      tag_42\n      swap2\n      swap1\n      tag_43\n      jump\t// in\n    tag_42:\n      tag_44\n      jump\t// in\n    tag_41:\n      mload(0x40)\n      tag_45\n      swap2\n      swap1\n      tag_39\n      jump\t// in\n    tag_45:\n      mload(0x40)\n      dup1\n      swap2\n      sub\n      swap1\n      return\n        /* \"wwcc-contracts/contracts/wwccPool.sol\":11372:11616  function withdrawBNBInContract(address toAddress)external onlyManager payable returns(bool){... */\n    tag_6:\n      tag_46\n      0x04\n      dup1\n      calldatasize\n      sub\n      dup2\n      add\n      swap1\n      tag_47\n      swap2\n      swap1\n      tag_48\n      jump\t// in\n    tag_47:\n      tag_49\n      jump\t// in\n    tag_46:\n      mload(0x40)\n      tag_50\n      swap2\n      swap1\n      tag_39\n      jump\t// in\n    tag_50:\n      mload(0x40)\n      dup1\n      swap2\n      sub\n      swap1\n      return\n        /* \"wwcc-contracts/contracts/wwccPool.sol\":2039:3161  function Set_Pool(... */\n    tag_7:\n      callvalue\n      dup1\n      iszero\n      tag_51\n      jumpi\n      0x00\n      dup1\n      revert\n    tag_51:\n      pop\n      tag_52\n      0x04\n      dup1\n      calldatasize\n      sub\n      dup2\n      add\n      swap1\n      tag_53\n      swap2\n      swap1\n      tag_54\n      jump\t// in\n    tag_53:\n      tag_55\n      jump\t// in\n    tag_52:\n      mload(0x40)\n      tag_56\n      swap2\n      swap1\n      tag_57\n      jump\t// in\n    tag_56:\n      mload(0x40)\n      dup1\n      swap2\n      sub\n      swap1\n      return\n        /* \"wwcc-contracts/contracts/wwccPool.sol\":7586:7692  function CheckBasal() external onlyManager view  returns (uint256){... */\n    tag_8:\n      callvalue\n      dup1\n      iszero\n      tag_58\n      jumpi\n      0x00\n      dup1\n      revert\n    tag_58:\n      pop\n      tag_59\n      tag_60\n      jump\t// in\n    tag_59:\n      mload(0x40)\n      tag_61\n      swap2\n      swap1\n      tag_33\n      jump\t// in\n    tag_61:\n      mload(0x40)\n      dup1\n      swap2\n      sub\n      swap1\n      return\n        /* \"wwcc-contracts/contracts/wwccPool.sol\":6948:7320  function CheckExpect(bytes32 poolKey) external onlyManager view  returns (uint256){... */\n    tag_9:\n      callvalue\n      dup1\n      iszero\n      tag_62\n      jumpi\n      0x00\n      dup1\n      revert\n    tag_62:\n      pop\n      tag_63\n      0x04\n      dup1\n      calldatasize\n      sub\n      dup2\n      add\n      swap1\n      tag_64\n      swap2\n      swap1\n      tag_65\n      jump\t// in\n    tag_64:\n      tag_66\n      jump\t// in\n    tag_63:\n      mload(0x40)\n      tag_67\n      swap2\n      swap1\n      tag_33\n      jump\t// in\n    tag_67:\n      mload(0x40)\n      dup1\n      swap2\n      sub\n      swap1\n      return\n        /* \"wwcc-contracts/contracts/wwccPool.sol\":3184:4954  function Picking(address joiner,uint256 weight,bytes32 poolKey,uint256 homeScore,uint256 visitScore,uint256 kind) external returns(bool){... */\n    tag_10:\n      callvalue\n      dup1\n      iszero\n      tag_68\n      jumpi\n      0x00\n      dup1\n      revert\n    tag_68:\n      pop\n      tag_69\n      0x04\n      dup1\n      calldatasize\n      sub\n      dup2\n      add\n      swap1\n      tag_70\n      swap2\n      swap1\n      tag_43\n      jump\t// in\n    tag_70:\n      tag_71\n      jump\t// in\n    tag_69:\n      mload(0x40)\n      tag_72\n      swap2\n      swap1\n      tag_39\n      jump\t// in\n    tag_72:\n      mload(0x40)\n      dup1\n      swap2\n      sub\n      swap1\n      return\n        /* \"wwcc-contracts/contracts/wwccPool.sol\":7910:11367  function Award(bytes32 poolKey,uint256 homeScore,uint256 visitScore,uint256 result)  external onlyManager  payable returns(bool){... */\n    tag_11:\n      tag_73\n      0x04\n      dup1\n      calldatasize\n      sub\n      dup2\n      add\n      swap1\n      tag_74\n      swap2\n      swap1\n      tag_75\n      jump\t// in\n    tag_74:\n      tag_76\n      jump\t// in\n    tag_73:\n      mload(0x40)\n      tag_77\n      swap2\n      swap1\n      tag_39\n      jump\t// in\n    tag_77:\n      mload(0x40)\n      dup1\n      swap2\n      sub\n      swap1\n      return\n        /* \"wwcc-contracts/contracts/wwccPool.sol\":6470:6883  function voteWithdrawal(address joiner,uint256 amount) external onlyManager payable returns (bool){... */\n    tag_12:\n      tag_78\n      0x04\n      dup1\n      calldatasize\n      sub\n      dup2\n      add\n      swap1\n      tag_79\n      swap2\n      swap1\n      tag_80\n      jump\t// in\n    tag_79:\n      tag_81\n      jump\t// in\n    tag_78:\n      mload(0x40)\n      tag_82\n      swap2\n      swap1\n      tag_39\n      jump\t// in\n    tag_82:\n      mload(0x40)\n      dup1\n      swap2\n      sub\n      swap1\n      return\n        /* \"wwcc-contracts/contracts/wwccPool.sol\":7734:7839  function CheckVoteTickets() external view returns (uint256){... */\n    tag_13:\n      callvalue\n      dup1\n      iszero\n      tag_83\n      jumpi\n      0x00\n      dup1\n      revert\n    tag_83:\n      pop\n      tag_84\n      tag_85\n      jump\t// in\n    tag_84:\n      mload(0x40)\n      tag_86\n      swap2\n      swap1\n      tag_33\n      jump\t// in\n    tag_86:\n      mload(0x40)\n      dup1\n      swap2\n      sub\n      swap1\n      return\n        /* \"wwcc-contracts/contracts/wwccPool.sol\":7325:7423  function getAllPoolKeys() external view returns (bytes32[] memory){... */\n    tag_14:\n      callvalue\n      dup1\n      iszero\n      tag_87\n      jumpi\n      0x00\n      dup1\n      revert\n    tag_87:\n      pop\n      tag_88\n      tag_89\n      jump\t// in\n    tag_88:\n      mload(0x40)\n      tag_90\n      swap2\n      swap1\n      tag_91\n      jump\t// in\n    tag_90:\n      mload(0x40)\n      dup1\n      swap2\n      sub\n      swap1\n      return\n        /* \"wwcc-contracts/contracts/wwccPool.sol\":11666:12314  function getPool(bytes32 poolKey) external view returns (string memory vs,string memory rounds,PoolViewInfo memory viewInfo){... */\n    tag_15:\n      callvalue\n      dup1\n      iszero\n      tag_92\n      jumpi\n      0x00\n      dup1\n      revert\n    tag_92:\n      pop\n      tag_93\n      0x04\n      dup1\n      calldatasize\n      sub\n      dup2\n      add\n      swap1\n      tag_94\n      swap2\n      swap1\n      tag_65\n      jump\t// in\n    tag_94:\n      tag_95\n      jump\t// in\n    tag_93:\n      mload(0x40)\n      tag_96\n      swap4\n      swap3\n      swap2\n      swap1\n      tag_97\n      jump\t// in\n    tag_96:\n      mload(0x40)\n      dup1\n      swap2\n      sub\n      swap1\n      return\n        /* \"wwcc-contracts/contracts/safemath.sol\":274:417  function div(uint256 a, uint256 b) internal pure returns (uint256) {... */\n    tag_22:\n        /* \"wwcc-contracts/contracts/safemath.sol\":332:339  uint256 */\n      0x00\n        /* \"wwcc-contracts/contracts/safemath.sol\":363:364  0 */\n      dup1\n        /* \"wwcc-contracts/contracts/safemath.sol\":359:360  b */\n      dup3\n        /* \"wwcc-contracts/contracts/safemath.sol\":359:364  b > 0 */\n      gt\n        /* \"wwcc-contracts/contracts/safemath.sol\":351:365  require(b > 0) */\n      tag_99\n      jumpi\n      0x00\n      dup1\n      revert\n    tag_99:\n        /* \"wwcc-contracts/contracts/safemath.sol\":375:384  uint256 c */\n      0x00\n        /* \"wwcc-contracts/contracts/safemath.sol\":391:392  b */\n      dup3\n        /* \"wwcc-contracts/contracts/safemath.sol\":387:388  a */\n      dup5\n        /* \"wwcc-contracts/contracts/safemath.sol\":387:392  a / b */\n      tag_100\n      swap2\n      swap1\n      tag_101\n      jump\t// in\n    tag_100:\n        /* \"wwcc-contracts/contracts/safemath.sol\":375:392  uint256 c = a / b */\n      swap1\n      pop\n        /* \"wwcc-contracts/contracts/safemath.sol\":409:410  c */\n      dup1\n        /* \"wwcc-contracts/contracts/safemath.sol\":402:410  return c */\n      swap2\n      pop\n      pop\n        /* \"wwcc-contracts/contracts/safemath.sol\":274:417  function div(uint256 a, uint256 b) internal pure returns (uint256) {... */\n      swap3\n      swap2\n      pop\n      pop\n      jump\t// out\n        /* \"wwcc-contracts/contracts/wwccPool.sol\":7428:7524  function getLastBNB() external onlyManager view returns (uint256){... */\n    tag_31:\n        /* \"wwcc-contracts/contracts/wwccPool.sol\":7485:7492  uint256 */\n      0x00\n        /* \"wwcc-contracts/contracts/wwccPool.sol\":14364:14369  owner */\n      dup1\n      0x00\n      swap1\n      sload\n      swap1\n      0x0100\n      exp\n      swap1\n      div\n      0xffffffffffffffffffffffffffffffffffffffff\n      and\n        /* \"wwcc-contracts/contracts/wwccPool.sol\":14350:14369  msg.sender == owner */\n      0xffffffffffffffffffffffffffffffffffffffff\n      and\n        /* \"wwcc-contracts/contracts/wwccPool.sol\":14350:14360  msg.sender */\n      caller\n        /* \"wwcc-contracts/contracts/wwccPool.sol\":14350:14369  msg.sender == owner */\n      0xffffffffffffffffffffffffffffffffffffffff\n      and\n      eq\n        /* \"wwcc-contracts/contracts/wwccPool.sol\":14329:14420  require(... */\n      tag_103\n      jumpi\n      mload(0x40)\n      0x08c379a000000000000000000000000000000000000000000000000000000000\n      dup2\n      mstore\n      0x04\n      add\n      tag_104\n      swap1\n      tag_105\n      jump\t// in\n    tag_104:\n      mload(0x40)\n      dup1\n      swap2\n      sub\n      swap1\n      revert\n    tag_103:\n        /* \"wwcc-contracts/contracts/wwccPool.sol\":7510:7517  lastBNB */\n      sload(0x03)\n        /* \"wwcc-contracts/contracts/wwccPool.sol\":7503:7517  return lastBNB */\n      swap1\n      pop\n        /* \"wwcc-contracts/contracts/wwccPool.sol\":7428:7524  function getLastBNB() external onlyManager view returns (uint256){... */\n      swap1\n      jump\t// out\n        /* \"wwcc-contracts/contracts/wwccPool.sol\":5730:6409  function Withdrawal(address toAddress,bytes32 poolKey) external onlyManager payable returns (bool){... */\n    tag_37:\n        /* \"wwcc-contracts/contracts/wwccPool.sol\":5823:5827  bool */\n      0x00\n        /* \"wwcc-contracts/contracts/wwccPool.sol\":14364:14369  owner */\n      dup1\n      0x00\n      swap1\n      sload\n      swap1\n      0x0100\n      exp\n      swap1\n      div\n      0xffffffffffffffffffffffffffffffffffffffff\n      and\n        /* \"wwcc-contracts/contracts/wwccPool.sol\":14350:14369  msg.sender == owner */\n      0xffffffffffffffffffffffffffffffffffffffff\n      and\n        /* \"wwcc-contracts/contracts/wwccPool.sol\":14350:14360  msg.sender */\n      caller\n        /* \"wwcc-contracts/contracts/wwccPool.sol\":14350:14369  msg.sender == owner */\n      0xffffffffffffffffffffffffffffffffffffffff\n      and\n      eq\n        /* \"wwcc-contracts/contracts/wwccPool.sol\":14329:14420  require(... */\n      tag_108\n      jumpi\n      mload(0x40)\n      0x08c379a000000000000000000000000000000000000000000000000000000000\n      dup2\n      mstore\n      0x04\n      add\n      tag_109\n      swap1\n      tag_105\n      jump\t// in\n    tag_109:\n      mload(0x40)\n      dup1\n      swap2\n      sub\n      swap1\n      revert\n    tag_108:\n        /* \"wwcc-contracts/contracts/wwccPool.sol\":5845:5862  contains(poolKey) */\n      tag_111\n        /* \"wwcc-contracts/contracts/wwccPool.sol\":5854:5861  poolKey */\n      dup3\n        /* \"wwcc-contracts/contracts/wwccPool.sol\":5845:5853  contains */\n      tag_112\n        /* \"wwcc-contracts/contracts/wwccPool.sol\":5845:5862  contains(poolKey) */\n      jump\t// in\n    tag_111:\n        /* \"wwcc-contracts/contracts/wwccPool.sol\":5841:6379  if(!contains(poolKey)) { ... */\n      tag_113\n      jumpi\n        /* \"wwcc-contracts/contracts/wwccPool.sol\":5883:5907  revert(\"pool not exist\") */\n      mload(0x40)\n      0x08c379a000000000000000000000000000000000000000000000000000000000\n      dup2\n      mstore\n      0x04\n      add\n      tag_114\n      swap1\n      tag_115\n      jump\t// in\n    tag_114:\n      mload(0x40)\n      dup1\n      swap2\n      sub\n      swap1\n      revert\n        /* \"wwcc-contracts/contracts/wwccPool.sol\":5841:6379  if(!contains(poolKey)) { ... */\n    tag_113:\n        /* \"wwcc-contracts/contracts/wwccPool.sol\":5943:5961  WcPool memory pool */\n      0x00\n        /* \"wwcc-contracts/contracts/wwccPool.sol\":5964:5971  WcPools */\n      0x05\n        /* \"wwcc-contracts/contracts/wwccPool.sol\":5964:5980  WcPools[poolKey] */\n      0x00\n        /* \"wwcc-contracts/contracts/wwccPool.sol\":5972:5979  poolKey */\n      dup5\n        /* \"wwcc-contracts/contracts/wwccPool.sol\":5964:5980  WcPools[poolKey] */\n      dup2\n      mstore\n      0x20\n      add\n      swap1\n      dup2\n      mstore\n      0x20\n      add\n      0x00\n      keccak256\n        /* \"wwcc-contracts/contracts/wwccPool.sol\":5943:5980  WcPool memory pool = WcPools[poolKey] */\n      mload(0x40)\n      dup1\n      0x0160\n      add\n      0x40\n      mstore\n      swap1\n      dup2\n      0x00\n      dup3\n      add\n      dup1\n      sload\n      tag_117\n      swap1\n      tag_118\n      jump\t// in\n    tag_117:\n      dup1\n      0x1f\n      add\n      0x20\n      dup1\n      swap2\n      div\n      mul\n      0x20\n      add\n      mload(0x40)\n      swap1\n      dup2\n      add\n      0x40\n      mstore\n      dup1\n      swap3\n      swap2\n      swap1\n      dup2\n      dup2\n      mstore\n      0x20\n      add\n      dup3\n      dup1\n      sload\n      tag_119\n      swap1\n      tag_118\n      jump\t// in\n    tag_119:\n      dup1\n      iszero\n      tag_120\n      jumpi\n      dup1\n      0x1f\n      lt\n      tag_121\n      jumpi\n      0x0100\n      dup1\n      dup4\n      sload\n      div\n      mul\n      dup4\n      mstore\n      swap2\n      0x20\n      add\n      swap2\n      jump(tag_120)\n    tag_121:\n      dup3\n      add\n      swap2\n      swap1\n      0x00\n      mstore\n      keccak256(0x00, 0x20)\n      swap1\n    tag_122:\n      dup2\n      sload\n      dup2\n      mstore\n      swap1\n      0x01\n      add\n      swap1\n      0x20\n      add\n      dup1\n      dup4\n      gt\n      tag_122\n      jumpi\n      dup3\n      swap1\n      sub\n      0x1f\n      and\n      dup3\n      add\n      swap2\n    tag_120:\n      pop\n      pop\n      pop\n      pop\n      pop\n      dup2\n      mstore\n      0x20\n      add\n      0x01\n      dup3\n      add\n      dup1\n      sload\n      tag_123\n      swap1\n      tag_118\n      jump\t// in\n    tag_123:\n      dup1\n      0x1f\n      add\n      0x20\n      dup1\n      swap2\n      div\n      mul\n      0x20\n      add\n      mload(0x40)\n      swap1\n      dup2\n      add\n      0x40\n      mstore\n      dup1\n      swap3\n      swap2\n      swap1\n      dup2\n      dup2\n      mstore\n      0x20\n      add\n      dup3\n      dup1\n      sload\n      tag_124\n      swap1\n      tag_118\n      jump\t// in\n    tag_124:\n      dup1\n      iszero\n      tag_125\n      jumpi\n      dup1\n      0x1f\n      lt\n      tag_126\n      jumpi\n      0x0100\n      dup1\n      dup4\n      sload\n      div\n      mul\n      dup4\n      mstore\n      swap2\n      0x20\n      add\n      swap2\n      jump(tag_125)\n    tag_126:\n      dup3\n      add\n      swap2\n      swap1\n      0x00\n      mstore\n      keccak256(0x00, 0x20)\n      swap1\n    tag_127:\n      dup2\n      sload\n      dup2\n      mstore\n      swap1\n      0x01\n      add\n      swap1\n      0x20\n      add\n      dup1\n      dup4\n      gt\n      tag_127\n      jumpi\n      dup3\n      swap1\n      sub\n      0x1f\n      and\n      dup3\n      add\n      swap2\n    tag_125:\n      pop\n      pop\n      pop\n      pop\n      pop\n      dup2\n      mstore\n      0x20\n      add\n      0x02\n      dup3\n      add\n      dup1\n      sload\n      tag_128\n      swap1\n      tag_118\n      jump\t// in\n    tag_128:\n      dup1\n      0x1f\n      add\n      0x20\n      dup1\n      swap2\n      div\n      mul\n      0x20\n      add\n      mload(0x40)\n      swap1\n      dup2\n      add\n      0x40\n      mstore\n      dup1\n      swap3\n      swap2\n      swap1\n      dup2\n      dup2\n      mstore\n      0x20\n      add\n      dup3\n      dup1\n      sload\n      tag_129\n      swap1\n      tag_118\n      jump\t// in\n    tag_129:\n      dup1\n      iszero\n      tag_130\n      jumpi\n      dup1\n      0x1f\n      lt\n      tag_131\n      jumpi\n      0x0100\n      dup1\n      dup4\n      sload\n      div\n      mul\n      dup4\n      mstore\n      swap2\n      0x20\n      add\n      swap2\n      jump(tag_130)\n    tag_131:\n      dup3\n      add\n      swap2\n      swap1\n      0x00\n      mstore\n      keccak256(0x00, 0x20)\n      swap1\n    tag_132:\n      dup2\n      sload\n      dup2\n      mstore\n      swap1\n      0x01\n      add\n      swap1\n      0x20\n      add\n      dup1\n      dup4\n      gt\n      tag_132\n      jumpi\n      dup3\n      swap1\n      sub\n      0x1f\n      and\n      dup3\n      add\n      swap2\n    tag_130:\n      pop\n      pop\n      pop\n      pop\n      pop\n      dup2\n      mstore\n      0x20\n      add\n      0x03\n      dup3\n      add\n      sload\n      dup2\n      mstore\n      0x20\n      add\n      0x04\n      dup3\n      add\n      sload\n      dup2\n      mstore\n      0x20\n      add\n      0x05\n      dup3\n      add\n      sload\n      dup2\n      mstore\n      0x20\n      add\n      0x06\n      dup3\n      add\n      sload\n      dup2\n      mstore\n      0x20\n      add\n      0x07\n      dup3\n      add\n      sload\n      dup2\n      mstore\n      0x20\n      add\n      0x08\n      dup3\n      add\n      0x00\n      swap1\n      sload\n      swap1\n      0x0100\n      exp\n      swap1\n      div\n      0xff\n      and\n      iszero\n      iszero\n      iszero\n      iszero\n      dup2\n      mstore\n      0x20\n      add\n      0x08\n      dup3\n      add\n      0x01\n      swap1\n      sload\n      swap1\n      0x0100\n      exp\n      swap1\n      div\n      0xff\n      and\n      iszero\n      iszero\n      iszero\n      iszero\n      dup2\n      mstore\n      0x20\n      add\n      0x08\n      dup3\n      add\n      0x02\n      swap1\n      sload\n      swap1\n      0x0100\n      exp\n      swap1\n      div\n      0xff\n      and\n      iszero\n      iszero\n      iszero\n      iszero\n      dup2\n      mstore\n      pop\n      pop\n      swap1\n      pop\n        /* \"wwcc-contracts/contracts/wwccPool.sol\":5998:6012  uint256 expect */\n      0x00\n        /* \"wwcc-contracts/contracts/wwccPool.sol\":6015:6081  (pool.wPool+pool.lPool+pool.dPool+pool.sPool + pool.basal).div(10) */\n      tag_133\n        /* \"wwcc-contracts/contracts/wwccPool.sol\":6078:6080  10 */\n      0x0a\n        /* \"wwcc-contracts/contracts/wwccPool.sol\":6062:6066  pool */\n      dup4\n        /* \"wwcc-contracts/contracts/wwccPool.sol\":6062:6072  pool.basal */\n      0xe0\n      add\n      mload\n        /* \"wwcc-contracts/contracts/wwccPool.sol\":6049:6053  pool */\n      dup5\n        /* \"wwcc-contracts/contracts/wwccPool.sol\":6049:6059  pool.sPool */\n      0xc0\n      add\n      mload\n        /* \"wwcc-contracts/contracts/wwccPool.sol\":6038:6042  pool */\n      dup6\n        /* \"wwcc-contracts/contracts/wwccPool.sol\":6038:6048  pool.dPool */\n      0x80\n      add\n      mload\n        /* \"wwcc-contracts/contracts/wwccPool.sol\":6027:6031  pool */\n      dup7\n        /* \"wwcc-contracts/contracts/wwccPool.sol\":6027:6037  pool.lPool */\n      0xa0\n      add\n      mload\n        /* \"wwcc-contracts/contracts/wwccPool.sol\":6016:6020  pool */\n      dup8\n        /* \"wwcc-contracts/contracts/wwccPool.sol\":6016:6026  pool.wPool */\n      0x60\n      add\n      mload\n        /* \"wwcc-contracts/contracts/wwccPool.sol\":6016:6037  pool.wPool+pool.lPool */\n      tag_134\n      swap2\n      swap1\n      tag_24\n      jump\t// in\n    tag_134:\n        /* \"wwcc-contracts/contracts/wwccPool.sol\":6016:6048  pool.wPool+pool.lPool+pool.dPool */\n      tag_135\n      swap2\n      swap1\n      tag_24\n      jump\t// in\n    tag_135:\n        /* \"wwcc-contracts/contracts/wwccPool.sol\":6016:6059  pool.wPool+pool.lPool+pool.dPool+pool.sPool */\n      tag_136\n      swap2\n      swap1\n      tag_24\n      jump\t// in\n    tag_136:\n        /* \"wwcc-contracts/contracts/wwccPool.sol\":6016:6072  pool.wPool+pool.lPool+pool.dPool+pool.sPool + pool.basal */\n      tag_137\n      swap2\n      swap1\n      tag_24\n      jump\t// in\n    tag_137:\n        /* \"wwcc-contracts/contracts/wwccPool.sol\":6015:6077  (pool.wPool+pool.lPool+pool.dPool+pool.sPool + pool.basal).div */\n      tag_22\n      swap1\n        /* \"wwcc-contracts/contracts/wwccPool.sol\":6015:6081  (pool.wPool+pool.lPool+pool.dPool+pool.sPool + pool.basal).div(10) */\n      swap2\n      swap1\n      0xffffffff\n      and\n      jump\t// in\n    tag_133:\n        /* \"wwcc-contracts/contracts/wwccPool.sol\":5998:6081  uint256 expect = (pool.wPool+pool.lPool+pool.dPool+pool.sPool + pool.basal).div(10) */\n      swap1\n      pop\n        /* \"wwcc-contracts/contracts/wwccPool.sol\":6119:6123  true */\n      0x01\n        /* \"wwcc-contracts/contracts/wwccPool.sol\":6103:6107  pool */\n      dup3\n        /* \"wwcc-contracts/contracts/wwccPool.sol\":6103:6116  pool.finished */\n      0x0140\n      add\n        /* \"wwcc-contracts/contracts/wwccPool.sol\":6103:6123  pool.finished = true */\n      swap1\n      iszero\n      iszero\n      swap1\n      dup2\n      iszero\n      iszero\n      dup2\n      mstore\n      pop\n        /* \"wwcc-contracts/contracts/wwccPool.sol\":6099:6351  if (pool.finished = true){... */\n      iszero\n      tag_138\n      jumpi\n        /* \"wwcc-contracts/contracts/wwccPool.sol\":6146:6179  address payable toAddress_address */\n      0x00\n        /* \"wwcc-contracts/contracts/wwccPool.sol\":6190:6199  toAddress */\n      dup6\n        /* \"wwcc-contracts/contracts/wwccPool.sol\":6146:6200  address payable toAddress_address = payable(toAddress) */\n      swap1\n      pop\n        /* \"wwcc-contracts/contracts/wwccPool.sol\":6222:6239  toAddress_address */\n      dup1\n        /* \"wwcc-contracts/contracts/wwccPool.sol\":6222:6248  toAddress_address.transfer */\n      0xffffffffffffffffffffffffffffffffffffffff\n      and\n        /* \"wwcc-contracts/contracts/wwccPool.sol\":6222:6256  toAddress_address.transfer(expect) */\n      0x08fc\n        /* \"wwcc-contracts/contracts/wwccPool.sol\":6249:6255  expect */\n      dup4\n        /* \"wwcc-contracts/contracts/wwccPool.sol\":6222:6256  toAddress_address.transfer(expect) */\n      swap1\n      dup2\n      iszero\n      mul\n      swap1\n      mload(0x40)\n      0x00\n      mload(0x40)\n      dup1\n      dup4\n      sub\n      dup2\n      dup6\n      dup9\n      dup9\n      call\n      swap4\n      pop\n      pop\n      pop\n      pop\n      iszero\n      dup1\n      iszero\n      tag_140\n      jumpi\n      returndatasize\n      0x00\n      dup1\n      returndatacopy\n      revert(0x00, returndatasize)\n    tag_140:\n      pop\n        /* \"wwcc-contracts/contracts/wwccPool.sol\":6124:6275  {... */\n      pop\n        /* \"wwcc-contracts/contracts/wwccPool.sol\":6099:6351  if (pool.finished = true){... */\n      jump(tag_141)\n    tag_138:\n        /* \"wwcc-contracts/contracts/wwccPool.sol\":6301:6332  revert(\"pool has not finished\") */\n      mload(0x40)\n      0x08c379a000000000000000000000000000000000000000000000000000000000\n      dup2\n      mstore\n      0x04\n      add\n      tag_142\n      swap1\n      tag_143\n      jump\t// in\n    tag_142:\n      mload(0x40)\n      dup1\n      swap2\n      sub\n      swap1\n      revert\n        /* \"wwcc-contracts/contracts/wwccPool.sol\":6099:6351  if (pool.finished = true){... */\n    tag_141:\n        /* \"wwcc-contracts/contracts/wwccPool.sol\":5925:6379  {... */\n      pop\n      pop\n        /* \"wwcc-contracts/contracts/wwccPool.sol\":6398:6402  true */\n      0x01\n        /* \"wwcc-contracts/contracts/wwccPool.sol\":6391:6402  return true */\n      swap1\n      pop\n        /* \"wwcc-contracts/contracts/wwccPool.sol\":5730:6409  function Withdrawal(address toAddress,bytes32 poolKey) external onlyManager payable returns (bool){... */\n      swap3\n      swap2\n      pop\n      pop\n      jump\t// out\n        /* \"wwcc-contracts/contracts/wwccPool.sol\":4960:5687  function Test(address joiner,uint256 weight,bytes32 poolKey,uint256 homeScore,uint256 visitScore,uint256 kind) external returns(bool){... */\n    tag_44:\n        /* \"wwcc-contracts/contracts/wwccPool.sol\":5088:5092  bool */\n      0x00\n        /* \"wwcc-contracts/contracts/wwccPool.sol\":5107:5124  contains(poolKey) */\n      tag_145\n        /* \"wwcc-contracts/contracts/wwccPool.sol\":5116:5123  poolKey */\n      dup6\n        /* \"wwcc-contracts/contracts/wwccPool.sol\":5107:5115  contains */\n      tag_112\n        /* \"wwcc-contracts/contracts/wwccPool.sol\":5107:5124  contains(poolKey) */\n      jump\t// in\n    tag_145:\n        /* \"wwcc-contracts/contracts/wwccPool.sol\":5103:5661  if(!contains(poolKey)) { ... */\n      tag_146\n      jumpi\n        /* \"wwcc-contracts/contracts/wwccPool.sol\":5141:5165  revert(\"pool not exist\") */\n      mload(0x40)\n      0x08c379a000000000000000000000000000000000000000000000000000000000\n      dup2\n      mstore\n      0x04\n      add\n      tag_147\n      swap1\n      tag_115\n      jump\t// in\n    tag_147:\n      mload(0x40)\n      dup1\n      swap2\n      sub\n      swap1\n      revert\n        /* \"wwcc-contracts/contracts/wwccPool.sol\":5103:5661  if(!contains(poolKey)) { ... */\n    tag_146:\n        /* \"wwcc-contracts/contracts/wwccPool.sol\":5214:5220  weight */\n      dup6\n        /* \"wwcc-contracts/contracts/wwccPool.sol\":5195:5205  voteAmount */\n      0x04\n        /* \"wwcc-contracts/contracts/wwccPool.sol\":5195:5213  voteAmount[joiner] */\n      0x00\n        /* \"wwcc-contracts/contracts/wwccPool.sol\":5206:5212  joiner */\n      dup10\n        /* \"wwcc-contracts/contracts/wwccPool.sol\":5195:5213  voteAmount[joiner] */\n      0xffffffffffffffffffffffffffffffffffffffff\n      and\n      0xffffffffffffffffffffffffffffffffffffffff\n      and\n      dup2\n      mstore\n      0x20\n      add\n      swap1\n      dup2\n      mstore\n      0x20\n      add\n      0x00\n      keccak256\n      sload\n        /* \"wwcc-contracts/contracts/wwccPool.sol\":5195:5220  voteAmount[joiner]<weight */\n      lt\n        /* \"wwcc-contracts/contracts/wwccPool.sol\":5192:5283  if(voteAmount[joiner]<weight){... */\n      iszero\n      tag_149\n      jumpi\n        /* \"wwcc-contracts/contracts/wwccPool.sol\":5238:5269  revert(\"not enough voteAmount\") */\n      mload(0x40)\n      0x08c379a000000000000000000000000000000000000000000000000000000000\n      dup2\n      mstore\n      0x04\n      add\n      tag_150\n      swap1\n      tag_151\n      jump\t// in\n    tag_150:\n      mload(0x40)\n      dup1\n      swap2\n      sub\n      swap1\n      revert\n        /* \"wwcc-contracts/contracts/wwccPool.sol\":5192:5283  if(voteAmount[joiner]<weight){... */\n    tag_149:\n        /* \"wwcc-contracts/contracts/wwccPool.sol\":5295:5313  WcPool memory pool */\n      0x00\n        /* \"wwcc-contracts/contracts/wwccPool.sol\":5316:5323  WcPools */\n      0x05\n        /* \"wwcc-contracts/contracts/wwccPool.sol\":5316:5332  WcPools[poolKey] */\n      0x00\n        /* \"wwcc-contracts/contracts/wwccPool.sol\":5324:5331  poolKey */\n      dup8\n        /* \"wwcc-contracts/contracts/wwccPool.sol\":5316:5332  WcPools[poolKey] */\n      dup2\n      mstore\n      0x20\n      add\n      swap1\n      dup2\n      mstore\n      0x20\n      add\n      0x00\n      keccak256\n        /* \"wwcc-contracts/contracts/wwccPool.sol\":5295:5332  WcPool memory pool = WcPools[poolKey] */\n      mload(0x40)\n      dup1\n      0x0160\n      add\n      0x40\n      mstore\n      swap1\n      dup2\n      0x00\n      dup3\n      add\n      dup1\n      sload\n      tag_152\n      swap1\n      tag_118\n      jump\t// in\n    tag_152:\n      dup1\n      0x1f\n      add\n      0x20\n      dup1\n      swap2\n      div\n      mul\n      0x20\n      add\n      mload(0x40)\n      swap1\n      dup2\n      add\n      0x40\n      mstore\n      dup1\n      swap3\n      swap2\n      swap1\n      dup2\n      dup2\n      mstore\n      0x20\n      add\n      dup3\n      dup1\n      sload\n      tag_153\n      swap1\n      tag_118\n      jump\t// in\n    tag_153:\n      dup1\n      iszero\n      tag_154\n      jumpi\n      dup1\n      0x1f\n      lt\n      tag_155\n      jumpi\n      0x0100\n      dup1\n      dup4\n      sload\n      div\n      mul\n      dup4\n      mstore\n      swap2\n      0x20\n      add\n      swap2\n      jump(tag_154)\n    tag_155:\n      dup3\n      add\n      swap2\n      swap1\n      0x00\n      mstore\n      keccak256(0x00, 0x20)\n      swap1\n    tag_156:\n      dup2\n      sload\n      dup2\n      mstore\n      swap1\n      0x01\n      add\n      swap1\n      0x20\n      add\n      dup1\n      dup4\n      gt\n      tag_156\n      jumpi\n      dup3\n      swap1\n      sub\n      0x1f\n      and\n      dup3\n      add\n      swap2\n    tag_154:\n      pop\n      pop\n      pop\n      pop\n      pop\n      dup2\n      mstore\n      0x20\n      add\n      0x01\n      dup3\n      add\n      dup1\n      sload\n      tag_157\n      swap1\n      tag_118\n      jump\t// in\n    tag_157:\n      dup1\n      0x1f\n      add\n      0x20\n      dup1\n      swap2\n      div\n      mul\n      0x20\n      add\n      mload(0x40)\n      swap1\n      dup2\n      add\n      0x40\n      mstore\n      dup1\n      swap3\n      swap2\n      swap1\n      dup2\n      dup2\n      mstore\n      0x20\n      add\n      dup3\n      dup1\n      sload\n      tag_158\n      swap1\n      tag_118\n      jump\t// in\n    tag_158:\n      dup1\n      iszero\n      tag_159\n      jumpi\n      dup1\n      0x1f\n      lt\n      tag_160\n      jumpi\n      0x0100\n      dup1\n      dup4\n      sload\n      div\n      mul\n      dup4\n      mstore\n      swap2\n      0x20\n      add\n      swap2\n      jump(tag_159)\n    tag_160:\n      dup3\n      add\n      swap2\n      swap1\n      0x00\n      mstore\n      keccak256(0x00, 0x20)\n      swap1\n    tag_161:\n      dup2\n      sload\n      dup2\n      mstore\n      swap1\n      0x01\n      add\n      swap1\n      0x20\n      add\n      dup1\n      dup4\n      gt\n      tag_161\n      jumpi\n      dup3\n      swap1\n      sub\n      0x1f\n      and\n      dup3\n      add\n      swap2\n    tag_159:\n      pop\n      pop\n      pop\n      pop\n      pop\n      dup2\n      mstore\n      0x20\n      add\n      0x02\n      dup3\n      add\n      dup1\n      sload\n      tag_162\n      swap1\n      tag_118\n      jump\t// in\n    tag_162:\n      dup1\n      0x1f\n      add\n      0x20\n      dup1\n      swap2\n      div\n      mul\n      0x20\n      add\n      mload(0x40)\n      swap1\n      dup2\n      add\n      0x40\n      mstore\n      dup1\n      swap3\n      swap2\n      swap1\n      dup2\n      dup2\n      mstore\n      0x20\n      add\n      dup3\n      dup1\n      sload\n      tag_163\n      swap1\n      tag_118\n      jump\t// in\n    tag_163:\n      dup1\n      iszero\n      tag_164\n      jumpi\n      dup1\n      0x1f\n      lt\n      tag_165\n      jumpi\n      0x0100\n      dup1\n      dup4\n      sload\n      div\n      mul\n      dup4\n      mstore\n      swap2\n      0x20\n      add\n      swap2\n      jump(tag_164)\n    tag_165:\n      dup3\n      add\n      swap2\n      swap1\n      0x00\n      mstore\n      keccak256(0x00, 0x20)\n      swap1\n    tag_166:\n      dup2\n      sload\n      dup2\n      mstore\n      swap1\n      0x01\n      add\n      swap1\n      0x20\n      add\n      dup1\n      dup4\n      gt\n      tag_166\n      jumpi\n      dup3\n      swap1\n      sub\n      0x1f\n      and\n      dup3\n      add\n      swap2\n    tag_164:\n      pop\n      pop\n      pop\n      pop\n      pop\n      dup2\n      mstore\n      0x20\n      add\n      0x03\n      dup3\n      add\n      sload\n      dup2\n      mstore\n      0x20\n      add\n      0x04\n      dup3\n      add\n      sload\n      dup2\n      mstore\n      0x20\n      add\n      0x05\n      dup3\n      add\n      sload\n      dup2\n      mstore\n      0x20\n      add\n      0x06\n      dup3\n      add\n      sload\n      dup2\n      mstore\n      0x20\n      add\n      0x07\n      dup3\n      add\n      sload\n      dup2\n      mstore\n      0x20\n      add\n      0x08\n      dup3\n      add\n      0x00\n      swap1\n      sload\n      swap1\n      0x0100\n      exp\n      swap1\n      div\n      0xff\n      and\n      iszero\n      iszero\n      iszero\n      iszero\n      dup2\n      mstore\n      0x20\n      add\n      0x08\n      dup3\n      add\n      0x01\n      swap1\n      sload\n      swap1\n      0x0100\n      exp\n      swap1\n      div\n      0xff\n      and\n      iszero\n      iszero\n      iszero\n      iszero\n      dup2\n      mstore\n      0x20\n      add\n      0x08\n      dup3\n      add\n      0x02\n      swap1\n      sload\n      swap1\n      0x0100\n      exp\n      swap1\n      div\n      0xff\n      and\n      iszero\n      iszero\n      iszero\n      iszero\n      dup2\n      mstore\n      pop\n      pop\n      swap1\n      pop\n        /* \"wwcc-contracts/contracts/wwccPool.sol\":5345:5370  string  memory pickingKey */\n      0x60\n        /* \"wwcc-contracts/contracts/wwccPool.sol\":5383:5399  string memory s1 */\n      0x00\n        /* \"wwcc-contracts/contracts/wwccPool.sol\":5402:5456  strConcat(strConcat(pool.home,pool.visit),pool.rounds) */\n      tag_167\n        /* \"wwcc-contracts/contracts/wwccPool.sol\":5412:5443  strConcat(pool.home,pool.visit) */\n      tag_168\n        /* \"wwcc-contracts/contracts/wwccPool.sol\":5422:5426  pool */\n      dup5\n        /* \"wwcc-contracts/contracts/wwccPool.sol\":5422:5431  pool.home */\n      0x00\n      add\n      mload\n        /* \"wwcc-contracts/contracts/wwccPool.sol\":5432:5436  pool */\n      dup6\n        /* \"wwcc-contracts/contracts/wwccPool.sol\":5432:5442  pool.visit */\n      0x20\n      add\n      mload\n        /* \"wwcc-contracts/contracts/wwccPool.sol\":5412:5421  strConcat */\n      tag_169\n        /* \"wwcc-contracts/contracts/wwccPool.sol\":5412:5443  strConcat(pool.home,pool.visit) */\n      jump\t// in\n    tag_168:\n        /* \"wwcc-contracts/contracts/wwccPool.sol\":5444:5448  pool */\n      dup5\n        /* \"wwcc-contracts/contracts/wwccPool.sol\":5444:5455  pool.rounds */\n      0x40\n      add\n      mload\n        /* \"wwcc-contracts/contracts/wwccPool.sol\":5402:5411  strConcat */\n      tag_169\n        /* \"wwcc-contracts/contracts/wwccPool.sol\":5402:5456  strConcat(strConcat(pool.home,pool.visit),pool.rounds) */\n      jump\t// in\n    tag_167:\n        /* \"wwcc-contracts/contracts/wwccPool.sol\":5383:5456  string memory s1 = strConcat(strConcat(pool.home,pool.visit),pool.rounds) */\n      swap1\n      pop\n        /* \"wwcc-contracts/contracts/wwccPool.sol\":5489:5493  true */\n      0x01\n        /* \"wwcc-contracts/contracts/wwccPool.sol\":5473:5493  pool.decided == true */\n      iszero\n      iszero\n        /* \"wwcc-contracts/contracts/wwccPool.sol\":5473:5477  pool */\n      dup4\n        /* \"wwcc-contracts/contracts/wwccPool.sol\":5473:5485  pool.decided */\n      0x0100\n      add\n      mload\n        /* \"wwcc-contracts/contracts/wwccPool.sol\":5473:5493  pool.decided == true */\n      iszero\n      iszero\n      eq\n        /* \"wwcc-contracts/contracts/wwccPool.sol\":5469:5651  if (pool.decided == true){... */\n      iszero\n      tag_170\n      jumpi\n        /* \"wwcc-contracts/contracts/wwccPool.sol\":5521:5556  strConcat(strConcat(s1,\"true\"),\"1\") */\n      tag_171\n        /* \"wwcc-contracts/contracts/wwccPool.sol\":5531:5551  strConcat(s1,\"true\") */\n      tag_172\n        /* \"wwcc-contracts/contracts/wwccPool.sol\":5541:5543  s1 */\n      dup3\n        /* \"wwcc-contracts/contracts/wwccPool.sol\":5531:5551  strConcat(s1,\"true\") */\n      mload(0x40)\n      dup1\n      0x40\n      add\n      0x40\n      mstore\n      dup1\n      0x04\n      dup2\n      mstore\n      0x20\n      add\n      0x7472756500000000000000000000000000000000000000000000000000000000\n      dup2\n      mstore\n      pop\n        /* \"wwcc-contracts/contracts/wwccPool.sol\":5531:5540  strConcat */\n      tag_169\n        /* \"wwcc-contracts/contracts/wwccPool.sol\":5531:5551  strConcat(s1,\"true\") */\n      jump\t// in\n    tag_172:\n        /* \"wwcc-contracts/contracts/wwccPool.sol\":5521:5556  strConcat(strConcat(s1,\"true\"),\"1\") */\n      mload(0x40)\n      dup1\n      0x40\n      add\n      0x40\n      mstore\n      dup1\n      0x01\n      dup2\n      mstore\n      0x20\n      add\n      0x3100000000000000000000000000000000000000000000000000000000000000\n      dup2\n      mstore\n      pop\n        /* \"wwcc-contracts/contracts/wwccPool.sol\":5521:5530  strConcat */\n      tag_169\n        /* \"wwcc-contracts/contracts/wwccPool.sol\":5521:5556  strConcat(strConcat(s1,\"true\"),\"1\") */\n      jump\t// in\n    tag_171:\n        /* \"wwcc-contracts/contracts/wwccPool.sol\":5508:5556  pickingKey = strConcat(strConcat(s1,\"true\"),\"1\") */\n      swap2\n      pop\n        /* \"wwcc-contracts/contracts/wwccPool.sol\":5469:5651  if (pool.decided == true){... */\n      jump(tag_173)\n    tag_170:\n        /* \"wwcc-contracts/contracts/wwccPool.sol\":5601:5637  strConcat(strConcat(s1,\"false\"),\"2\") */\n      tag_174\n        /* \"wwcc-contracts/contracts/wwccPool.sol\":5611:5632  strConcat(s1,\"false\") */\n      tag_175\n        /* \"wwcc-contracts/contracts/wwccPool.sol\":5621:5623  s1 */\n      dup3\n        /* \"wwcc-contracts/contracts/wwccPool.sol\":5611:5632  strConcat(s1,\"false\") */\n      mload(0x40)\n      dup1\n      0x40\n      add\n      0x40\n      mstore\n      dup1\n      0x05\n      dup2\n      mstore\n      0x20\n      add\n      0x66616c7365000000000000000000000000000000000000000000000000000000\n      dup2\n      mstore\n      pop\n        /* \"wwcc-contracts/contracts/wwccPool.sol\":5611:5620  strConcat */\n      tag_169\n        /* \"wwcc-contracts/contracts/wwccPool.sol\":5611:5632  strConcat(s1,\"false\") */\n      jump\t// in\n    tag_175:\n        /* \"wwcc-contracts/contracts/wwccPool.sol\":5601:5637  strConcat(strConcat(s1,\"false\"),\"2\") */\n      mload(0x40)\n      dup1\n      0x40\n      add\n      0x40\n      mstore\n      dup1\n      0x01\n      dup2\n      mstore\n      0x20\n      add\n      0x3200000000000000000000000000000000000000000000000000000000000000\n      dup2\n      mstore\n      pop\n        /* \"wwcc-contracts/contracts/wwccPool.sol\":5601:5610  strConcat */\n      tag_169\n        /* \"wwcc-contracts/contracts/wwccPool.sol\":5601:5637  strConcat(strConcat(s1,\"false\"),\"2\") */\n      jump\t// in\n    tag_174:\n        /* \"wwcc-contracts/contracts/wwccPool.sol\":5588:5637  pickingKey = strConcat(strConcat(s1,\"false\"),\"2\") */\n      swap2\n      pop\n        /* \"wwcc-contracts/contracts/wwccPool.sol\":5469:5651  if (pool.decided == true){... */\n    tag_173:\n        /* \"wwcc-contracts/contracts/wwccPool.sol\":5179:5661  {... */\n      pop\n      pop\n      pop\n        /* \"wwcc-contracts/contracts/wwccPool.sol\":5676:5680  true */\n      0x01\n        /* \"wwcc-contracts/contracts/wwccPool.sol\":5669:5680  return true */\n      swap1\n      pop\n        /* \"wwcc-contracts/contracts/wwccPool.sol\":4960:5687  function Test(address joiner,uint256 weight,bytes32 poolKey,uint256 homeScore,uint256 visitScore,uint256 kind) external returns(bool){... */\n      swap7\n      swap6\n      pop\n      pop\n      pop\n      pop\n      pop\n      pop\n      jump\t// out\n        /* \"wwcc-contracts/contracts/wwccPool.sol\":11372:11616  function withdrawBNBInContract(address toAddress)external onlyManager payable returns(bool){... */\n    tag_49:\n        /* \"wwcc-contracts/contracts/wwccPool.sol\":11458:11462  bool */\n      0x00\n        /* \"wwcc-contracts/contracts/wwccPool.sol\":14364:14369  owner */\n      dup1\n      0x00\n      swap1\n      sload\n      swap1\n      0x0100\n      exp\n      swap1\n      div\n      0xffffffffffffffffffffffffffffffffffffffff\n      and\n        /* \"wwcc-contracts/contracts/wwccPool.sol\":14350:14369  msg.sender == owner */\n      0xffffffffffffffffffffffffffffffffffffffff\n      and\n        /* \"wwcc-contracts/contracts/wwccPool.sol\":14350:14360  msg.sender */\n      caller\n        /* \"wwcc-contracts/contracts/wwccPool.sol\":14350:14369  msg.sender == owner */\n      0xffffffffffffffffffffffffffffffffffffffff\n      and\n      eq\n        /* \"wwcc-contracts/contracts/wwccPool.sol\":14329:14420  require(... */\n      tag_177\n      jumpi\n      mload(0x40)\n      0x08c379a000000000000000000000000000000000000000000000000000000000\n      dup2\n      mstore\n      0x04\n      add\n      tag_178\n      swap1\n      tag_105\n      jump\t// in\n    tag_178:\n      mload(0x40)\n      dup1\n      swap2\n      sub\n      swap1\n      revert\n    tag_177:\n        /* \"wwcc-contracts/contracts/wwccPool.sol\":11477:11510  address payable toAddress_address */\n      0x00\n        /* \"wwcc-contracts/contracts/wwccPool.sol\":11521:11530  toAddress */\n      dup3\n        /* \"wwcc-contracts/contracts/wwccPool.sol\":11477:11531  address payable toAddress_address = payable(toAddress) */\n      swap1\n      pop\n        /* \"wwcc-contracts/contracts/wwccPool.sol\":11545:11562  toAddress_address */\n      dup1\n        /* \"wwcc-contracts/contracts/wwccPool.sol\":11545:11571  toAddress_address.transfer */\n      0xffffffffffffffffffffffffffffffffffffffff\n      and\n        /* \"wwcc-contracts/contracts/wwccPool.sol\":11545:11584  toAddress_address.transfer(lastBNB - 1) */\n      0x08fc\n        /* \"wwcc-contracts/contracts/wwccPool.sol\":11582:11583  1 */\n      0x01\n        /* \"wwcc-contracts/contracts/wwccPool.sol\":11572:11579  lastBNB */\n      sload(0x03)\n        /* \"wwcc-contracts/contracts/wwccPool.sol\":11572:11583  lastBNB - 1 */\n      tag_180\n      swap2\n      swap1\n      tag_181\n      jump\t// in\n    tag_180:\n        /* \"wwcc-contracts/contracts/wwccPool.sol\":11545:11584  toAddress_address.transfer(lastBNB - 1) */\n      swap1\n      dup2\n      iszero\n      mul\n      swap1\n      mload(0x40)\n      0x00\n      mload(0x40)\n      dup1\n      dup4\n      sub\n      dup2\n      dup6\n      dup9\n      dup9\n      call\n      swap4\n      pop\n      pop\n      pop\n      pop\n      iszero\n      dup1\n      iszero\n      tag_183\n      jumpi\n      returndatasize\n      0x00\n      dup1\n      returndatacopy\n      revert(0x00, returndatasize)\n    tag_183:\n      pop\n        /* \"wwcc-contracts/contracts/wwccPool.sol\":11605:11609  true */\n      0x01\n        /* \"wwcc-contracts/contracts/wwccPool.sol\":11598:11609  return true */\n      swap2\n      pop\n      pop\n        /* \"wwcc-contracts/contracts/wwccPool.sol\":11372:11616  function withdrawBNBInContract(address toAddress)external onlyManager payable returns(bool){... */\n      swap2\n      swap1\n      pop\n      jump\t// out\n        /* \"wwcc-contracts/contracts/wwccPool.sol\":2039:3161  function Set_Pool(... */\n    tag_55:\n        /* \"wwcc-contracts/contracts/wwccPool.sol\":2186:2193  bytes32 */\n      0x00\n        /* \"wwcc-contracts/contracts/wwccPool.sol\":14364:14369  owner */\n      dup1\n      0x00\n      swap1\n      sload\n      swap1\n      0x0100\n      exp\n      swap1\n      div\n      0xffffffffffffffffffffffffffffffffffffffff\n      and\n        /* \"wwcc-contracts/contracts/wwccPool.sol\":14350:14369  msg.sender == owner */\n      0xffffffffffffffffffffffffffffffffffffffff\n      and\n        /* \"wwcc-contracts/contracts/wwccPool.sol\":14350:14360  msg.sender */\n      caller\n        /* \"wwcc-contracts/contracts/wwccPool.sol\":14350:14369  msg.sender == owner */\n      0xffffffffffffffffffffffffffffffffffffffff\n      and\n      eq\n        /* \"wwcc-contracts/contracts/wwccPool.sol\":14329:14420  require(... */\n      tag_185\n      jumpi\n      mload(0x40)\n      0x08c379a000000000000000000000000000000000000000000000000000000000\n      dup2\n      mstore\n      0x04\n      add\n      tag_186\n      swap1\n      tag_105\n      jump\t// in\n    tag_186:\n      mload(0x40)\n      dup1\n      swap2\n      sub\n      swap1\n      revert\n    tag_185:\n        /* \"wwcc-contracts/contracts/wwccPool.sol\":2204:2220  string memory s1 */\n      0x00\n        /* \"wwcc-contracts/contracts/wwccPool.sol\":2223:2244  strConcat(home,visit) */\n      tag_188\n        /* \"wwcc-contracts/contracts/wwccPool.sol\":2233:2237  home */\n      dup7\n        /* \"wwcc-contracts/contracts/wwccPool.sol\":2238:2243  visit */\n      dup7\n        /* \"wwcc-contracts/contracts/wwccPool.sol\":2223:2232  strConcat */\n      tag_169\n        /* \"wwcc-contracts/contracts/wwccPool.sol\":2223:2244  strConcat(home,visit) */\n      jump\t// in\n    tag_188:\n        /* \"wwcc-contracts/contracts/wwccPool.sol\":2204:2244  string memory s1 = strConcat(home,visit) */\n      swap1\n      pop\n        /* \"wwcc-contracts/contracts/wwccPool.sol\":2253:2269  string memory s2 */\n      0x00\n        /* \"wwcc-contracts/contracts/wwccPool.sol\":2272:2292  strConcat(s1,rounds) */\n      tag_189\n        /* \"wwcc-contracts/contracts/wwccPool.sol\":2282:2284  s1 */\n      dup3\n        /* \"wwcc-contracts/contracts/wwccPool.sol\":2285:2291  rounds */\n      dup7\n        /* \"wwcc-contracts/contracts/wwccPool.sol\":2272:2281  strConcat */\n      tag_169\n        /* \"wwcc-contracts/contracts/wwccPool.sol\":2272:2292  strConcat(s1,rounds) */\n      jump\t// in\n    tag_189:\n        /* \"wwcc-contracts/contracts/wwccPool.sol\":2253:2292  string memory s2 = strConcat(s1,rounds) */\n      swap1\n      pop\n        /* \"wwcc-contracts/contracts/wwccPool.sol\":2301:2325  string memory decidedStr */\n      0x60\n        /* \"wwcc-contracts/contracts/wwccPool.sol\":2349:2353  true */\n      0x01\n        /* \"wwcc-contracts/contracts/wwccPool.sol\":2338:2353  decided == true */\n      iszero\n      iszero\n        /* \"wwcc-contracts/contracts/wwccPool.sol\":2338:2345  decided */\n      dup6\n        /* \"wwcc-contracts/contracts/wwccPool.sol\":2338:2353  decided == true */\n      iszero\n      iszero\n      eq\n        /* \"wwcc-contracts/contracts/wwccPool.sol\":2334:2443  if (decided == true){... */\n      iszero\n      tag_190\n      jumpi\n        /* \"wwcc-contracts/contracts/wwccPool.sol\":2367:2386  decidedStr = \"true\" */\n      mload(0x40)\n      dup1\n      0x40\n      add\n      0x40\n      mstore\n      dup1\n      0x04\n      dup2\n      mstore\n      0x20\n      add\n      0x7472756500000000000000000000000000000000000000000000000000000000\n      dup2\n      mstore\n      pop\n      swap1\n      pop\n        /* \"wwcc-contracts/contracts/wwccPool.sol\":2334:2443  if (decided == true){... */\n      jump(tag_191)\n    tag_190:\n        /* \"wwcc-contracts/contracts/wwccPool.sol\":2413:2433  decidedStr = \"false\" */\n      mload(0x40)\n      dup1\n      0x40\n      add\n      0x40\n      mstore\n      dup1\n      0x05\n      dup2\n      mstore\n      0x20\n      add\n      0x66616c7365000000000000000000000000000000000000000000000000000000\n      dup2\n      mstore\n      pop\n      swap1\n      pop\n        /* \"wwcc-contracts/contracts/wwccPool.sol\":2334:2443  if (decided == true){... */\n    tag_191:\n        /* \"wwcc-contracts/contracts/wwccPool.sol\":2451:2467  string memory s3 */\n      0x00\n        /* \"wwcc-contracts/contracts/wwccPool.sol\":2470:2494  strConcat(s2,decidedStr) */\n      tag_192\n        /* \"wwcc-contracts/contracts/wwccPool.sol\":2480:2482  s2 */\n      dup4\n        /* \"wwcc-contracts/contracts/wwccPool.sol\":2483:2493  decidedStr */\n      dup4\n        /* \"wwcc-contracts/contracts/wwccPool.sol\":2470:2479  strConcat */\n      tag_169\n        /* \"wwcc-contracts/contracts/wwccPool.sol\":2470:2494  strConcat(s2,decidedStr) */\n      jump\t// in\n    tag_192:\n        /* \"wwcc-contracts/contracts/wwccPool.sol\":2451:2494  string memory s3 = strConcat(s2,decidedStr) */\n      swap1\n      pop\n        /* \"wwcc-contracts/contracts/wwccPool.sol\":2503:2518  bytes32 poolKey */\n      0x00\n        /* \"wwcc-contracts/contracts/wwccPool.sol\":2548:2550  s3 */\n      dup2\n        /* \"wwcc-contracts/contracts/wwccPool.sol\":2531:2551  abi.encodePacked(s3) */\n      add(0x20, mload(0x40))\n      tag_193\n      swap2\n      swap1\n      tag_194\n      jump\t// in\n    tag_193:\n      mload(0x40)\n      0x20\n      dup2\n      dup4\n      sub\n      sub\n      dup2\n      mstore\n      swap1\n      0x40\n      mstore\n        /* \"wwcc-contracts/contracts/wwccPool.sol\":2521:2552  keccak256(abi.encodePacked(s3)) */\n      dup1\n      mload\n      swap1\n      0x20\n      add\n      keccak256\n        /* \"wwcc-contracts/contracts/wwccPool.sol\":2503:2552  bytes32 poolKey = keccak256(abi.encodePacked(s3)) */\n      swap1\n      pop\n        /* \"wwcc-contracts/contracts/wwccPool.sol\":2564:2581  contains(poolKey) */\n      tag_195\n        /* \"wwcc-contracts/contracts/wwccPool.sol\":2573:2580  poolKey */\n      dup2\n        /* \"wwcc-contracts/contracts/wwccPool.sol\":2564:2572  contains */\n      tag_112\n        /* \"wwcc-contracts/contracts/wwccPool.sol\":2564:2581  contains(poolKey) */\n      jump\t// in\n    tag_195:\n        /* \"wwcc-contracts/contracts/wwccPool.sol\":2561:3101  if(contains(poolKey)) { ... */\n      iszero\n      tag_196\n      jumpi\n        /* \"wwcc-contracts/contracts/wwccPool.sol\":2598:2618  revert(\"pair exist\") */\n      mload(0x40)\n      0x08c379a000000000000000000000000000000000000000000000000000000000\n      dup2\n      mstore\n      0x04\n      add\n      tag_197\n      swap1\n      tag_198\n      jump\t// in\n    tag_197:\n      mload(0x40)\n      dup1\n      swap2\n      sub\n      swap1\n      revert\n        /* \"wwcc-contracts/contracts/wwccPool.sol\":2561:3101  if(contains(poolKey)) { ... */\n    tag_196:\n        /* \"wwcc-contracts/contracts/wwccPool.sol\":2669:2673  true */\n      0x01\n        /* \"wwcc-contracts/contracts/wwccPool.sol\":2645:2652  WcPools */\n      0x05\n        /* \"wwcc-contracts/contracts/wwccPool.sol\":2645:2661  WcPools[poolKey] */\n      0x00\n        /* \"wwcc-contracts/contracts/wwccPool.sol\":2653:2660  poolKey */\n      dup4\n        /* \"wwcc-contracts/contracts/wwccPool.sol\":2645:2661  WcPools[poolKey] */\n      dup2\n      mstore\n      0x20\n      add\n      swap1\n      dup2\n      mstore\n      0x20\n      add\n      0x00\n      keccak256\n        /* \"wwcc-contracts/contracts/wwccPool.sol\":2645:2666  WcPools[poolKey].used */\n      0x08\n      add\n      0x01\n        /* \"wwcc-contracts/contracts/wwccPool.sol\":2645:2673  WcPools[poolKey].used = true */\n      0x0100\n      exp\n      dup2\n      sload\n      dup2\n      0xff\n      mul\n      not\n      and\n      swap1\n      dup4\n      iszero\n      iszero\n      mul\n      or\n      swap1\n      sstore\n      pop\n        /* \"wwcc-contracts/contracts/wwccPool.sol\":2710:2714  home */\n      dup10\n        /* \"wwcc-contracts/contracts/wwccPool.sol\":2686:2693  WcPools */\n      0x05\n        /* \"wwcc-contracts/contracts/wwccPool.sol\":2686:2702  WcPools[poolKey] */\n      0x00\n        /* \"wwcc-contracts/contracts/wwccPool.sol\":2694:2701  poolKey */\n      dup4\n        /* \"wwcc-contracts/contracts/wwccPool.sol\":2686:2702  WcPools[poolKey] */\n      dup2\n      mstore\n      0x20\n      add\n      swap1\n      dup2\n      mstore\n      0x20\n      add\n      0x00\n      keccak256\n        /* \"wwcc-contracts/contracts/wwccPool.sol\":2686:2707  WcPools[poolKey].home */\n      0x00\n      add\n        /* \"wwcc-contracts/contracts/wwccPool.sol\":2686:2714  WcPools[poolKey].home = home */\n      swap1\n      dup1\n      mload\n      swap1\n      0x20\n      add\n      swap1\n      tag_200\n      swap3\n      swap2\n      swap1\n      tag_201\n      jump\t// in\n    tag_200:\n      pop\n        /* \"wwcc-contracts/contracts/wwccPool.sol\":2752:2757  visit */\n      dup9\n        /* \"wwcc-contracts/contracts/wwccPool.sol\":2727:2734  WcPools */\n      0x05\n        /* \"wwcc-contracts/contracts/wwccPool.sol\":2727:2743  WcPools[poolKey] */\n      0x00\n        /* \"wwcc-contracts/contracts/wwccPool.sol\":2735:2742  poolKey */\n      dup4\n        /* \"wwcc-contracts/contracts/wwccPool.sol\":2727:2743  WcPools[poolKey] */\n      dup2\n      mstore\n      0x20\n      add\n      swap1\n      dup2\n      mstore\n      0x20\n      add\n      0x00\n      keccak256\n        /* \"wwcc-contracts/contracts/wwccPool.sol\":2727:2749  WcPools[poolKey].visit */\n      0x01\n      add\n        /* \"wwcc-contracts/contracts/wwccPool.sol\":2727:2757  WcPools[poolKey].visit = visit */\n      swap1\n      dup1\n      mload\n      swap1\n      0x20\n      add\n      swap1\n      tag_202\n      swap3\n      swap2\n      swap1\n      tag_201\n      jump\t// in\n    tag_202:\n      pop\n        /* \"wwcc-contracts/contracts/wwccPool.sol\":2796:2802  rounds */\n      dup8\n        /* \"wwcc-contracts/contracts/wwccPool.sol\":2770:2777  WcPools */\n      0x05\n        /* \"wwcc-contracts/contracts/wwccPool.sol\":2770:2786  WcPools[poolKey] */\n      0x00\n        /* \"wwcc-contracts/contracts/wwccPool.sol\":2778:2785  poolKey */\n      dup4\n        /* \"wwcc-contracts/contracts/wwccPool.sol\":2770:2786  WcPools[poolKey] */\n      dup2\n      mstore\n      0x20\n      add\n      swap1\n      dup2\n      mstore\n      0x20\n      add\n      0x00\n      keccak256\n        /* \"wwcc-contracts/contracts/wwccPool.sol\":2770:2793  WcPools[poolKey].rounds */\n      0x02\n      add\n        /* \"wwcc-contracts/contracts/wwccPool.sol\":2770:2802  WcPools[poolKey].rounds = rounds */\n      swap1\n      dup1\n      mload\n      swap1\n      0x20\n      add\n      swap1\n      tag_203\n      swap3\n      swap2\n      swap1\n      tag_201\n      jump\t// in\n    tag_203:\n      pop\n        /* \"wwcc-contracts/contracts/wwccPool.sol\":2840:2841  0 */\n      0x00\n        /* \"wwcc-contracts/contracts/wwccPool.sol\":2815:2822  WcPools */\n      0x05\n        /* \"wwcc-contracts/contracts/wwccPool.sol\":2815:2831  WcPools[poolKey] */\n      0x00\n        /* \"wwcc-contracts/contracts/wwccPool.sol\":2823:2830  poolKey */\n      dup4\n        /* \"wwcc-contracts/contracts/wwccPool.sol\":2815:2831  WcPools[poolKey] */\n      dup2\n      mstore\n      0x20\n      add\n      swap1\n      dup2\n      mstore\n      0x20\n      add\n      0x00\n      keccak256\n        /* \"wwcc-contracts/contracts/wwccPool.sol\":2815:2837  WcPools[poolKey].wPool */\n      0x03\n      add\n        /* \"wwcc-contracts/contracts/wwccPool.sol\":2815:2841  WcPools[poolKey].wPool = 0 */\n      dup2\n      swap1\n      sstore\n      pop\n        /* \"wwcc-contracts/contracts/wwccPool.sol\":2879:2880  0 */\n      0x00\n        /* \"wwcc-contracts/contracts/wwccPool.sol\":2854:2861  WcPools */\n      0x05\n        /* \"wwcc-contracts/contracts/wwccPool.sol\":2854:2870  WcPools[poolKey] */\n      0x00\n        /* \"wwcc-contracts/contracts/wwccPool.sol\":2862:2869  poolKey */\n      dup4\n        /* \"wwcc-contracts/contracts/wwccPool.sol\":2854:2870  WcPools[poolKey] */\n      dup2\n      mstore\n      0x20\n      add\n      swap1\n      dup2\n      mstore\n      0x20\n      add\n      0x00\n      keccak256\n        /* \"wwcc-contracts/contracts/wwccPool.sol\":2854:2876  WcPools[poolKey].dPool */\n      0x04\n      add\n        /* \"wwcc-contracts/contracts/wwccPool.sol\":2854:2880  WcPools[poolKey].dPool = 0 */\n      dup2\n      swap1\n      sstore\n      pop\n        /* \"wwcc-contracts/contracts/wwccPool.sol\":2918:2919  0 */\n      0x00\n        /* \"wwcc-contracts/contracts/wwccPool.sol\":2893:2900  WcPools */\n      0x05\n        /* \"wwcc-contracts/contracts/wwccPool.sol\":2893:2909  WcPools[poolKey] */\n      0x00\n        /* \"wwcc-contracts/contracts/wwccPool.sol\":2901:2908  poolKey */\n      dup4\n        /* \"wwcc-contracts/contracts/wwccPool.sol\":2893:2909  WcPools[poolKey] */\n      dup2\n      mstore\n      0x20\n      add\n      swap1\n      dup2\n      mstore\n      0x20\n      add\n      0x00\n      keccak256\n        /* \"wwcc-contracts/contracts/wwccPool.sol\":2893:2915  WcPools[poolKey].lPool */\n      0x05\n      add\n        /* \"wwcc-contracts/contracts/wwccPool.sol\":2893:2919  WcPools[poolKey].lPool = 0 */\n      dup2\n      swap1\n      sstore\n      pop\n        /* \"wwcc-contracts/contracts/wwccPool.sol\":2957:2958  0 */\n      0x00\n        /* \"wwcc-contracts/contracts/wwccPool.sol\":2932:2939  WcPools */\n      0x05\n        /* \"wwcc-contracts/contracts/wwccPool.sol\":2932:2948  WcPools[poolKey] */\n      0x00\n        /* \"wwcc-contracts/contracts/wwccPool.sol\":2940:2947  poolKey */\n      dup4\n        /* \"wwcc-contracts/contracts/wwccPool.sol\":2932:2948  WcPools[poolKey] */\n      dup2\n      mstore\n      0x20\n      add\n      swap1\n      dup2\n      mstore\n      0x20\n      add\n      0x00\n      keccak256\n        /* \"wwcc-contracts/contracts/wwccPool.sol\":2932:2954  WcPools[poolKey].sPool */\n      0x06\n      add\n        /* \"wwcc-contracts/contracts/wwccPool.sol\":2932:2958  WcPools[poolKey].sPool = 0 */\n      dup2\n      swap1\n      sstore\n      pop\n        /* \"wwcc-contracts/contracts/wwccPool.sol\":2996:2997  0 */\n      0x00\n        /* \"wwcc-contracts/contracts/wwccPool.sol\":2971:2978  WcPools */\n      0x05\n        /* \"wwcc-contracts/contracts/wwccPool.sol\":2971:2987  WcPools[poolKey] */\n      0x00\n        /* \"wwcc-contracts/contracts/wwccPool.sol\":2979:2986  poolKey */\n      dup4\n        /* \"wwcc-contracts/contracts/wwccPool.sol\":2971:2987  WcPools[poolKey] */\n      dup2\n      mstore\n      0x20\n      add\n      swap1\n      dup2\n      mstore\n      0x20\n      add\n      0x00\n      keccak256\n        /* \"wwcc-contracts/contracts/wwccPool.sol\":2971:2993  WcPools[poolKey].basal */\n      0x07\n      add\n        /* \"wwcc-contracts/contracts/wwccPool.sol\":2971:2997  WcPools[poolKey].basal = 0 */\n      dup2\n      swap1\n      sstore\n      pop\n        /* \"wwcc-contracts/contracts/wwccPool.sol\":3037:3044  decided */\n      dup7\n        /* \"wwcc-contracts/contracts/wwccPool.sol\":3010:3017  WcPools */\n      0x05\n        /* \"wwcc-contracts/contracts/wwccPool.sol\":3010:3026  WcPools[poolKey] */\n      0x00\n        /* \"wwcc-contracts/contracts/wwccPool.sol\":3018:3025  poolKey */\n      dup4\n        /* \"wwcc-contracts/contracts/wwccPool.sol\":3010:3026  WcPools[poolKey] */\n      dup2\n      mstore\n      0x20\n      add\n      swap1\n      dup2\n      mstore\n      0x20\n      add\n      0x00\n      keccak256\n        /* \"wwcc-contracts/contracts/wwccPool.sol\":3010:3034  WcPools[poolKey].decided */\n      0x08\n      add\n      0x00\n        /* \"wwcc-contracts/contracts/wwccPool.sol\":3010:3044  WcPools[poolKey].decided = decided */\n      0x0100\n      exp\n      dup2\n      sload\n      dup2\n      0xff\n      mul\n      not\n      and\n      swap1\n      dup4\n      iszero\n      iszero\n      mul\n      or\n      swap1\n      sstore\n      pop\n        /* \"wwcc-contracts/contracts/wwccPool.sol\":3085:3090  false */\n      0x00\n        /* \"wwcc-contracts/contracts/wwccPool.sol\":3057:3064  WcPools */\n      0x05\n        /* \"wwcc-contracts/contracts/wwccPool.sol\":3057:3073  WcPools[poolKey] */\n      0x00\n        /* \"wwcc-contracts/contracts/wwccPool.sol\":3065:3072  poolKey */\n      dup4\n        /* \"wwcc-contracts/contracts/wwccPool.sol\":3057:3073  WcPools[poolKey] */\n      dup2\n      mstore\n      0x20\n      add\n      swap1\n      dup2\n      mstore\n      0x20\n      add\n      0x00\n      keccak256\n        /* \"wwcc-contracts/contracts/wwccPool.sol\":3057:3082  WcPools[poolKey].finished */\n      0x08\n      add\n      0x02\n        /* \"wwcc-contracts/contracts/wwccPool.sol\":3057:3090  WcPools[poolKey].finished = false */\n      0x0100\n      exp\n      dup2\n      sload\n      dup2\n      0xff\n      mul\n      not\n      and\n      swap1\n      dup4\n      iszero\n      iszero\n      mul\n      or\n      swap1\n      sstore\n      pop\n        /* \"wwcc-contracts/contracts/wwccPool.sol\":3109:3117  poolKeys */\n      0x02\n        /* \"wwcc-contracts/contracts/wwccPool.sol\":3123:3130  poolKey */\n      dup2\n        /* \"wwcc-contracts/contracts/wwccPool.sol\":3109:3131  poolKeys.push(poolKey) */\n      swap1\n      dup1\n      0x01\n      dup2\n      sload\n      add\n      dup1\n      dup3\n      sstore\n      dup1\n      swap2\n      pop\n      pop\n      0x01\n      swap1\n      sub\n      swap1\n      0x00\n      mstore\n      keccak256(0x00, 0x20)\n      add\n      0x00\n      swap1\n      swap2\n      swap1\n      swap2\n      swap1\n      swap2\n      pop\n      sstore\n        /* \"wwcc-contracts/contracts/wwccPool.sol\":3147:3154  poolKey */\n      dup1\n        /* \"wwcc-contracts/contracts/wwccPool.sol\":3140:3154  return poolKey */\n      swap6\n      pop\n      pop\n      pop\n      pop\n      pop\n      pop\n        /* \"wwcc-contracts/contracts/wwccPool.sol\":2039:3161  function Set_Pool(... */\n      swap5\n      swap4\n      pop\n      pop\n      pop\n      pop\n      jump\t// out\n        /* \"wwcc-contracts/contracts/wwccPool.sol\":7586:7692  function CheckBasal() external onlyManager view  returns (uint256){... */\n    tag_60:\n        /* \"wwcc-contracts/contracts/wwccPool.sol\":7644:7651  uint256 */\n      0x00\n        /* \"wwcc-contracts/contracts/wwccPool.sol\":14364:14369  owner */\n      dup1\n      0x00\n      swap1\n      sload\n      swap1\n      0x0100\n      exp\n      swap1\n      div\n      0xffffffffffffffffffffffffffffffffffffffff\n      and\n        /* \"wwcc-contracts/contracts/wwccPool.sol\":14350:14369  msg.sender == owner */\n      0xffffffffffffffffffffffffffffffffffffffff\n      and\n        /* \"wwcc-contracts/contracts/wwccPool.sol\":14350:14360  msg.sender */\n      caller\n        /* \"wwcc-contracts/contracts/wwccPool.sol\":14350:14369  msg.sender == owner */\n      0xffffffffffffffffffffffffffffffffffffffff\n      and\n      eq\n        /* \"wwcc-contracts/contracts/wwccPool.sol\":14329:14420  require(... */\n      tag_206\n      jumpi\n      mload(0x40)\n      0x08c379a000000000000000000000000000000000000000000000000000000000\n      dup2\n      mstore\n      0x04\n      add\n      tag_207\n      swap1\n      tag_105\n      jump\t// in\n    tag_207:\n      mload(0x40)\n      dup1\n      swap2\n      sub\n      swap1\n      revert\n    tag_206:\n        /* \"wwcc-contracts/contracts/wwccPool.sol\":7672:7685  nextBasalLast */\n      sload(0x01)\n        /* \"wwcc-contracts/contracts/wwccPool.sol\":7665:7685  return nextBasalLast */\n      swap1\n      pop\n        /* \"wwcc-contracts/contracts/wwccPool.sol\":7586:7692  function CheckBasal() external onlyManager view  returns (uint256){... */\n      swap1\n      jump\t// out\n        /* \"wwcc-contracts/contracts/wwccPool.sol\":6948:7320  function CheckExpect(bytes32 poolKey) external onlyManager view  returns (uint256){... */\n    tag_66:\n        /* \"wwcc-contracts/contracts/wwccPool.sol\":7022:7029  uint256 */\n      0x00\n        /* \"wwcc-contracts/contracts/wwccPool.sol\":14364:14369  owner */\n      dup1\n      0x00\n      swap1\n      sload\n      swap1\n      0x0100\n      exp\n      swap1\n      div\n      0xffffffffffffffffffffffffffffffffffffffff\n      and\n        /* \"wwcc-contracts/contracts/wwccPool.sol\":14350:14369  msg.sender == owner */\n      0xffffffffffffffffffffffffffffffffffffffff\n      and\n        /* \"wwcc-contracts/contracts/wwccPool.sol\":14350:14360  msg.sender */\n      caller\n        /* \"wwcc-contracts/contracts/wwccPool.sol\":14350:14369  msg.sender == owner */\n      0xffffffffffffffffffffffffffffffffffffffff\n      and\n      eq\n        /* \"wwcc-contracts/contracts/wwccPool.sol\":14329:14420  require(... */\n      tag_210\n      jumpi\n      mload(0x40)\n      0x08c379a000000000000000000000000000000000000000000000000000000000\n      dup2\n      mstore\n      0x04\n      add\n      tag_211\n      swap1\n      tag_105\n      jump\t// in\n    tag_211:\n      mload(0x40)\n      dup1\n      swap2\n      sub\n      swap1\n      revert\n    tag_210:\n        /* \"wwcc-contracts/contracts/wwccPool.sol\":7044:7061  contains(poolKey) */\n      tag_213\n        /* \"wwcc-contracts/contracts/wwccPool.sol\":7053:7060  poolKey */\n      dup3\n        /* \"wwcc-contracts/contracts/wwccPool.sol\":7044:7052  contains */\n      tag_112\n        /* \"wwcc-contracts/contracts/wwccPool.sol\":7044:7061  contains(poolKey) */\n      jump\t// in\n    tag_213:\n        /* \"wwcc-contracts/contracts/wwccPool.sol\":7040:7314  if(!contains(poolKey)) { ... */\n      tag_214\n      jumpi\n        /* \"wwcc-contracts/contracts/wwccPool.sol\":7078:7102  revert(\"pool not exist\") */\n      mload(0x40)\n      0x08c379a000000000000000000000000000000000000000000000000000000000\n      dup2\n      mstore\n      0x04\n      add\n      tag_215\n      swap1\n      tag_115\n      jump\t// in\n    tag_215:\n      mload(0x40)\n      dup1\n      swap2\n      sub\n      swap1\n      revert\n        /* \"wwcc-contracts/contracts/wwccPool.sol\":7040:7314  if(!contains(poolKey)) { ... */\n    tag_214:\n        /* \"wwcc-contracts/contracts/wwccPool.sol\":7130:7148  WcPool memory pool */\n      0x00\n        /* \"wwcc-contracts/contracts/wwccPool.sol\":7151:7158  WcPools */\n      0x05\n        /* \"wwcc-contracts/contracts/wwccPool.sol\":7151:7167  WcPools[poolKey] */\n      0x00\n        /* \"wwcc-contracts/contracts/wwccPool.sol\":7159:7166  poolKey */\n      dup5\n        /* \"wwcc-contracts/contracts/wwccPool.sol\":7151:7167  WcPools[poolKey] */\n      dup2\n      mstore\n      0x20\n      add\n      swap1\n      dup2\n      mstore\n      0x20\n      add\n      0x00\n      keccak256\n        /* \"wwcc-contracts/contracts/wwccPool.sol\":7130:7167  WcPool memory pool = WcPools[poolKey] */\n      mload(0x40)\n      dup1\n      0x0160\n      add\n      0x40\n      mstore\n      swap1\n      dup2\n      0x00\n      dup3\n      add\n      dup1\n      sload\n      tag_217\n      swap1\n      tag_118\n      jump\t// in\n    tag_217:\n      dup1\n      0x1f\n      add\n      0x20\n      dup1\n      swap2\n      div\n      mul\n      0x20\n      add\n      mload(0x40)\n      swap1\n      dup2\n      add\n      0x40\n      mstore\n      dup1\n      swap3\n      swap2\n      swap1\n      dup2\n      dup2\n      mstore\n      0x20\n      add\n      dup3\n      dup1\n      sload\n      tag_218\n      swap1\n      tag_118\n      jump\t// in\n    tag_218:\n      dup1\n      iszero\n      tag_219\n      jumpi\n      dup1\n      0x1f\n      lt\n      tag_220\n      jumpi\n      0x0100\n      dup1\n      dup4\n      sload\n      div\n      mul\n      dup4\n      mstore\n      swap2\n      0x20\n      add\n      swap2\n      jump(tag_219)\n    tag_220:\n      dup3\n      add\n      swap2\n      swap1\n      0x00\n      mstore\n      keccak256(0x00, 0x20)\n      swap1\n    tag_221:\n      dup2\n      sload\n      dup2\n      mstore\n      swap1\n      0x01\n      add\n      swap1\n      0x20\n      add\n      dup1\n      dup4\n      gt\n      tag_221\n      jumpi\n      dup3\n      swap1\n      sub\n      0x1f\n      and\n      dup3\n      add\n      swap2\n    tag_219:\n      pop\n      pop\n      pop\n      pop\n      pop\n      dup2\n      mstore\n      0x20\n      add\n      0x01\n      dup3\n      add\n      dup1\n      sload\n      tag_222\n      swap1\n      tag_118\n      jump\t// in\n    tag_222:\n      dup1\n      0x1f\n      add\n      0x20\n      dup1\n      swap2\n      div\n      mul\n      0x20\n      add\n      mload(0x40)\n      swap1\n      dup2\n      add\n      0x40\n      mstore\n      dup1\n      swap3\n      swap2\n      swap1\n      dup2\n      dup2\n      mstore\n      0x20\n      add\n      dup3\n      dup1\n      sload\n      tag_223\n      swap1\n      tag_118\n      jump\t// in\n    tag_223:\n      dup1\n      iszero\n      tag_224\n      jumpi\n      dup1\n      0x1f\n      lt\n      tag_225\n      jumpi\n      0x0100\n      dup1\n      dup4\n      sload\n      div\n      mul\n      dup4\n      mstore\n      swap2\n      0x20\n      add\n      swap2\n      jump(tag_224)\n    tag_225:\n      dup3\n      add\n      swap2\n      swap1\n      0x00\n      mstore\n      keccak256(0x00, 0x20)\n      swap1\n    tag_226:\n      dup2\n      sload\n      dup2\n      mstore\n      swap1\n      0x01\n      add\n      swap1\n      0x20\n      add\n      dup1\n      dup4\n      gt\n      tag_226\n      jumpi\n      dup3\n      swap1\n      sub\n      0x1f\n      and\n      dup3\n      add\n      swap2\n    tag_224:\n      pop\n      pop\n      pop\n      pop\n      pop\n      dup2\n      mstore\n      0x20\n      add\n      0x02\n      dup3\n      add\n      dup1\n      sload\n      tag_227\n      swap1\n      tag_118\n      jump\t// in\n    tag_227:\n      dup1\n      0x1f\n      add\n      0x20\n      dup1\n      swap2\n      div\n      mul\n      0x20\n      add\n      mload(0x40)\n      swap1\n      dup2\n      add\n      0x40\n      mstore\n      dup1\n      swap3\n      swap2\n      swap1\n      dup2\n      dup2\n      mstore\n      0x20\n      add\n      dup3\n      dup1\n      sload\n      tag_228\n      swap1\n      tag_118\n      jump\t// in\n    tag_228:\n      dup1\n      iszero\n      tag_229\n      jumpi\n      dup1\n      0x1f\n      lt\n      tag_230\n      jumpi\n      0x0100\n      dup1\n      dup4\n      sload\n      div\n      mul\n      dup4\n      mstore\n      swap2\n      0x20\n      add\n      swap2\n      jump(tag_229)\n    tag_230:\n      dup3\n      add\n      swap2\n      swap1\n      0x00\n      mstore\n      keccak256(0x00, 0x20)\n      swap1\n    tag_231:\n      dup2\n      sload\n      dup2\n      mstore\n      swap1\n      0x01\n      add\n      swap1\n      0x20\n      add\n      dup1\n      dup4\n      gt\n      tag_231\n      jumpi\n      dup3\n      swap1\n      sub\n      0x1f\n      and\n      dup3\n      add\n      swap2\n    tag_229:\n      pop\n      pop\n      pop\n      pop\n      pop\n      dup2\n      mstore\n      0x20\n      add\n      0x03\n      dup3\n      add\n      sload\n      dup2\n      mstore\n      0x20\n      add\n      0x04\n      dup3\n      add\n      sload\n      dup2\n      mstore\n      0x20\n      add\n      0x05\n      dup3\n      add\n      sload\n      dup2\n      mstore\n      0x20\n      add\n      0x06\n      dup3\n      add\n      sload\n      dup2\n      mstore\n      0x20\n      add\n      0x07\n      dup3\n      add\n      sload\n      dup2\n      mstore\n      0x20\n      add\n      0x08\n      dup3\n      add\n      0x00\n      swap1\n      sload\n      swap1\n      0x0100\n      exp\n      swap1\n      div\n      0xff\n      and\n      iszero\n      iszero\n      iszero\n      iszero\n      dup2\n      mstore\n      0x20\n      add\n      0x08\n      dup3\n      add\n      0x01\n      swap1\n      sload\n      swap1\n      0x0100\n      exp\n      swap1\n      div\n      0xff\n      and\n      iszero\n      iszero\n      iszero\n      iszero\n      dup2\n      mstore\n      0x20\n      add\n      0x08\n      dup3\n      add\n      0x02\n      swap1\n      sload\n      swap1\n      0x0100\n      exp\n      swap1\n      div\n      0xff\n      and\n      iszero\n      iszero\n      iszero\n      iszero\n      dup2\n      mstore\n      pop\n      pop\n      swap1\n      pop\n        /* \"wwcc-contracts/contracts/wwccPool.sol\":7180:7194  uint256 expect */\n      0x00\n        /* \"wwcc-contracts/contracts/wwccPool.sol\":7197:7277  (pool.wPool+pool.lPool+pool.dPool+pool.sPool + pool.basal).mul(1000000000000000) */\n      tag_232\n        /* \"wwcc-contracts/contracts/wwccPool.sol\":7260:7276  1000000000000000 */\n      0x038d7ea4c68000\n        /* \"wwcc-contracts/contracts/wwccPool.sol\":7244:7248  pool */\n      dup4\n        /* \"wwcc-contracts/contracts/wwccPool.sol\":7244:7254  pool.basal */\n      0xe0\n      add\n      mload\n        /* \"wwcc-contracts/contracts/wwccPool.sol\":7231:7235  pool */\n      dup5\n        /* \"wwcc-contracts/contracts/wwccPool.sol\":7231:7241  pool.sPool */\n      0xc0\n      add\n      mload\n        /* \"wwcc-contracts/contracts/wwccPool.sol\":7220:7224  pool */\n      dup6\n        /* \"wwcc-contracts/contracts/wwccPool.sol\":7220:7230  pool.dPool */\n      0x80\n      add\n      mload\n        /* \"wwcc-contracts/contracts/wwccPool.sol\":7209:7213  pool */\n      dup7\n        /* \"wwcc-contracts/contracts/wwccPool.sol\":7209:7219  pool.lPool */\n      0xa0\n      add\n      mload\n        /* \"wwcc-contracts/contracts/wwccPool.sol\":7198:7202  pool */\n      dup8\n        /* \"wwcc-contracts/contracts/wwccPool.sol\":7198:7208  pool.wPool */\n      0x60\n      add\n      mload\n        /* \"wwcc-contracts/contracts/wwccPool.sol\":7198:7219  pool.wPool+pool.lPool */\n      tag_233\n      swap2\n      swap1\n      tag_24\n      jump\t// in\n    tag_233:\n        /* \"wwcc-contracts/contracts/wwccPool.sol\":7198:7230  pool.wPool+pool.lPool+pool.dPool */\n      tag_234\n      swap2\n      swap1\n      tag_24\n      jump\t// in\n    tag_234:\n        /* \"wwcc-contracts/contracts/wwccPool.sol\":7198:7241  pool.wPool+pool.lPool+pool.dPool+pool.sPool */\n      tag_235\n      swap2\n      swap1\n      tag_24\n      jump\t// in\n    tag_235:\n        /* \"wwcc-contracts/contracts/wwccPool.sol\":7198:7254  pool.wPool+pool.lPool+pool.dPool+pool.sPool + pool.basal */\n      tag_236\n      swap2\n      swap1\n      tag_24\n      jump\t// in\n    tag_236:\n        /* \"wwcc-contracts/contracts/wwccPool.sol\":7197:7259  (pool.wPool+pool.lPool+pool.dPool+pool.sPool + pool.basal).mul */\n      tag_237\n      swap1\n        /* \"wwcc-contracts/contracts/wwccPool.sol\":7197:7277  (pool.wPool+pool.lPool+pool.dPool+pool.sPool + pool.basal).mul(1000000000000000) */\n      swap2\n      swap1\n      0xffffffff\n      and\n      jump\t// in\n    tag_232:\n        /* \"wwcc-contracts/contracts/wwccPool.sol\":7180:7277  uint256 expect = (pool.wPool+pool.lPool+pool.dPool+pool.sPool + pool.basal).mul(1000000000000000) */\n      swap1\n      pop\n        /* \"wwcc-contracts/contracts/wwccPool.sol\":7297:7303  expect */\n      dup1\n        /* \"wwcc-contracts/contracts/wwccPool.sol\":7290:7303  return expect */\n      swap3\n      pop\n      pop\n      pop\n        /* \"wwcc-contracts/contracts/wwccPool.sol\":6948:7320  function CheckExpect(bytes32 poolKey) external onlyManager view  returns (uint256){... */\n      swap2\n      swap1\n      pop\n      jump\t// out\n        /* \"wwcc-contracts/contracts/wwccPool.sol\":3184:4954  function Picking(address joiner,uint256 weight,bytes32 poolKey,uint256 homeScore,uint256 visitScore,uint256 kind) external returns(bool){... */\n    tag_71:\n        /* \"wwcc-contracts/contracts/wwccPool.sol\":3315:3319  bool */\n      0x00\n        /* \"wwcc-contracts/contracts/wwccPool.sol\":3334:3351  contains(poolKey) */\n      tag_239\n        /* \"wwcc-contracts/contracts/wwccPool.sol\":3343:3350  poolKey */\n      dup6\n        /* \"wwcc-contracts/contracts/wwccPool.sol\":3334:3342  contains */\n      tag_112\n        /* \"wwcc-contracts/contracts/wwccPool.sol\":3334:3351  contains(poolKey) */\n      jump\t// in\n    tag_239:\n        /* \"wwcc-contracts/contracts/wwccPool.sol\":3330:4928  if(!contains(poolKey)) { ... */\n      tag_240\n      jumpi\n        /* \"wwcc-contracts/contracts/wwccPool.sol\":3368:3392  revert(\"pool not exist\") */\n      mload(0x40)\n      0x08c379a000000000000000000000000000000000000000000000000000000000\n      dup2\n      mstore\n      0x04\n      add\n      tag_241\n      swap1\n      tag_115\n      jump\t// in\n    tag_241:\n      mload(0x40)\n      dup1\n      swap2\n      sub\n      swap1\n      revert\n        /* \"wwcc-contracts/contracts/wwccPool.sol\":3330:4928  if(!contains(poolKey)) { ... */\n    tag_240:\n        /* \"wwcc-contracts/contracts/wwccPool.sol\":3441:3447  weight */\n      dup6\n        /* \"wwcc-contracts/contracts/wwccPool.sol\":3422:3432  voteAmount */\n      0x04\n        /* \"wwcc-contracts/contracts/wwccPool.sol\":3422:3440  voteAmount[joiner] */\n      0x00\n        /* \"wwcc-contracts/contracts/wwccPool.sol\":3433:3439  joiner */\n      dup10\n        /* \"wwcc-contracts/contracts/wwccPool.sol\":3422:3440  voteAmount[joiner] */\n      0xffffffffffffffffffffffffffffffffffffffff\n      and\n      0xffffffffffffffffffffffffffffffffffffffff\n      and\n      dup2\n      mstore\n      0x20\n      add\n      swap1\n      dup2\n      mstore\n      0x20\n      add\n      0x00\n      keccak256\n      sload\n        /* \"wwcc-contracts/contracts/wwccPool.sol\":3422:3447  voteAmount[joiner]<weight */\n      lt\n        /* \"wwcc-contracts/contracts/wwccPool.sol\":3419:3510  if(voteAmount[joiner]<weight){... */\n      iszero\n      tag_243\n      jumpi\n        /* \"wwcc-contracts/contracts/wwccPool.sol\":3465:3496  revert(\"not enough voteAmount\") */\n      mload(0x40)\n      0x08c379a000000000000000000000000000000000000000000000000000000000\n      dup2\n      mstore\n      0x04\n      add\n      tag_244\n      swap1\n      tag_151\n      jump\t// in\n    tag_244:\n      mload(0x40)\n      dup1\n      swap2\n      sub\n      swap1\n      revert\n        /* \"wwcc-contracts/contracts/wwccPool.sol\":3419:3510  if(voteAmount[joiner]<weight){... */\n    tag_243:\n        /* \"wwcc-contracts/contracts/wwccPool.sol\":3522:3540  WcPool memory pool */\n      0x00\n        /* \"wwcc-contracts/contracts/wwccPool.sol\":3543:3550  WcPools */\n      0x05\n        /* \"wwcc-contracts/contracts/wwccPool.sol\":3543:3559  WcPools[poolKey] */\n      0x00\n        /* \"wwcc-contracts/contracts/wwccPool.sol\":3551:3558  poolKey */\n      dup8\n        /* \"wwcc-contracts/contracts/wwccPool.sol\":3543:3559  WcPools[poolKey] */\n      dup2\n      mstore\n      0x20\n      add\n      swap1\n      dup2\n      mstore\n      0x20\n      add\n      0x00\n      keccak256\n        /* \"wwcc-contracts/contracts/wwccPool.sol\":3522:3559  WcPool memory pool = WcPools[poolKey] */\n      mload(0x40)\n      dup1\n      0x0160\n      add\n      0x40\n      mstore\n      swap1\n      dup2\n      0x00\n      dup3\n      add\n      dup1\n      sload\n      tag_245\n      swap1\n      tag_118\n      jump\t// in\n    tag_245:\n      dup1\n      0x1f\n      add\n      0x20\n      dup1\n      swap2\n      div\n      mul\n      0x20\n      add\n      mload(0x40)\n      swap1\n      dup2\n      add\n      0x40\n      mstore\n      dup1\n      swap3\n      swap2\n      swap1\n      dup2\n      dup2\n      mstore\n      0x20\n      add\n      dup3\n      dup1\n      sload\n      tag_246\n      swap1\n      tag_118\n      jump\t// in\n    tag_246:\n      dup1\n      iszero\n      tag_247\n      jumpi\n      dup1\n      0x1f\n      lt\n      tag_248\n      jumpi\n      0x0100\n      dup1\n      dup4\n      sload\n      div\n      mul\n      dup4\n      mstore\n      swap2\n      0x20\n      add\n      swap2\n      jump(tag_247)\n    tag_248:\n      dup3\n      add\n      swap2\n      swap1\n      0x00\n      mstore\n      keccak256(0x00, 0x20)\n      swap1\n    tag_249:\n      dup2\n      sload\n      dup2\n      mstore\n      swap1\n      0x01\n      add\n      swap1\n      0x20\n      add\n      dup1\n      dup4\n      gt\n      tag_249\n      jumpi\n      dup3\n      swap1\n      sub\n      0x1f\n      and\n      dup3\n      add\n      swap2\n    tag_247:\n      pop\n      pop\n      pop\n      pop\n      pop\n      dup2\n      mstore\n      0x20\n      add\n      0x01\n      dup3\n      add\n      dup1\n      sload\n      tag_250\n      swap1\n      tag_118\n      jump\t// in\n    tag_250:\n      dup1\n      0x1f\n      add\n      0x20\n      dup1\n      swap2\n      div\n      mul\n      0x20\n      add\n      mload(0x40)\n      swap1\n      dup2\n      add\n      0x40\n      mstore\n      dup1\n      swap3\n      swap2\n      swap1\n      dup2\n      dup2\n      mstore\n      0x20\n      add\n      dup3\n      dup1\n      sload\n      tag_251\n      swap1\n      tag_118\n      jump\t// in\n    tag_251:\n      dup1\n      iszero\n      tag_252\n      jumpi\n      dup1\n      0x1f\n      lt\n      tag_253\n      jumpi\n      0x0100\n      dup1\n      dup4\n      sload\n      div\n      mul\n      dup4\n      mstore\n      swap2\n      0x20\n      add\n      swap2\n      jump(tag_252)\n    tag_253:\n      dup3\n      add\n      swap2\n      swap1\n      0x00\n      mstore\n      keccak256(0x00, 0x20)\n      swap1\n    tag_254:\n      dup2\n      sload\n      dup2\n      mstore\n      swap1\n      0x01\n      add\n      swap1\n      0x20\n      add\n      dup1\n      dup4\n      gt\n      tag_254\n      jumpi\n      dup3\n      swap1\n      sub\n      0x1f\n      and\n      dup3\n      add\n      swap2\n    tag_252:\n      pop\n      pop\n      pop\n      pop\n      pop\n      dup2\n      mstore\n      0x20\n      add\n      0x02\n      dup3\n      add\n      dup1\n      sload\n      tag_255\n      swap1\n      tag_118\n      jump\t// in\n    tag_255:\n      dup1\n      0x1f\n      add\n      0x20\n      dup1\n      swap2\n      div\n      mul\n      0x20\n      add\n      mload(0x40)\n      swap1\n      dup2\n      add\n      0x40\n      mstore\n      dup1\n      swap3\n      swap2\n      swap1\n      dup2\n      dup2\n      mstore\n      0x20\n      add\n      dup3\n      dup1\n      sload\n      tag_256\n      swap1\n      tag_118\n      jump\t// in\n    tag_256:\n      dup1\n      iszero\n      tag_257\n      jumpi\n      dup1\n      0x1f\n      lt\n      tag_258\n      jumpi\n      0x0100\n      dup1\n      dup4\n      sload\n      div\n      mul\n      dup4\n      mstore\n      swap2\n      0x20\n      add\n      swap2\n      jump(tag_257)\n    tag_258:\n      dup3\n      add\n      swap2\n      swap1\n      0x00\n      mstore\n      keccak256(0x00, 0x20)\n      swap1\n    tag_259:\n      dup2\n      sload\n      dup2\n      mstore\n      swap1\n      0x01\n      add\n      swap1\n      0x20\n      add\n      dup1\n      dup4\n      gt\n      tag_259\n      jumpi\n      dup3\n      swap1\n      sub\n      0x1f\n      and\n      dup3\n      add\n      swap2\n    tag_257:\n      pop\n      pop\n      pop\n      pop\n      pop\n      dup2\n      mstore\n      0x20\n      add\n      0x03\n      dup3\n      add\n      sload\n      dup2\n      mstore\n      0x20\n      add\n      0x04\n      dup3\n      add\n      sload\n      dup2\n      mstore\n      0x20\n      add\n      0x05\n      dup3\n      add\n      sload\n      dup2\n      mstore\n      0x20\n      add\n      0x06\n      dup3\n      add\n      sload\n      dup2\n      mstore\n      0x20\n      add\n      0x07\n      dup3\n      add\n      sload\n      dup2\n      mstore\n      0x20\n      add\n      0x08\n      dup3\n      add\n      0x00\n      swap1\n      sload\n      swap1\n      0x0100\n      exp\n      swap1\n      div\n      0xff\n      and\n      iszero\n      iszero\n      iszero\n      iszero\n      dup2\n      mstore\n      0x20\n      add\n      0x08\n      dup3\n      add\n      0x01\n      swap1\n      sload\n      swap1\n      0x0100\n      exp\n      swap1\n      div\n      0xff\n      and\n      iszero\n      iszero\n      iszero\n      iszero\n      dup2\n      mstore\n      0x20\n      add\n      0x08\n      dup3\n      add\n      0x02\n      swap1\n      sload\n      swap1\n      0x0100\n      exp\n      swap1\n      div\n      0xff\n      and\n      iszero\n      iszero\n      iszero\n      iszero\n      dup2\n      mstore\n      pop\n      pop\n      swap1\n      pop\n        /* \"wwcc-contracts/contracts/wwccPool.sol\":3572:3597  string  memory pickingKey */\n      0x60\n        /* \"wwcc-contracts/contracts/wwccPool.sol\":3630:3634  true */\n      0x01\n        /* \"wwcc-contracts/contracts/wwccPool.sol\":3614:3634  pool.decided == true */\n      iszero\n      iszero\n        /* \"wwcc-contracts/contracts/wwccPool.sol\":3614:3618  pool */\n      dup3\n        /* \"wwcc-contracts/contracts/wwccPool.sol\":3614:3626  pool.decided */\n      0x0100\n      add\n      mload\n        /* \"wwcc-contracts/contracts/wwccPool.sol\":3614:3634  pool.decided == true */\n      iszero\n      iszero\n      eq\n        /* \"wwcc-contracts/contracts/wwccPool.sol\":3610:4020  if (pool.decided == true){... */\n      iszero\n      tag_260\n      jumpi\n        /* \"wwcc-contracts/contracts/wwccPool.sol\":3662:3811  strConcat(strConcat(strConcat(strConcat(pool.home,pool.visit),pool.rounds),\"true\"),strConcat(uint256ToString(homeScore),uint256ToString(visitScore))) */\n      tag_261\n        /* \"wwcc-contracts/contracts/wwccPool.sol\":3672:3744  strConcat(strConcat(strConcat(pool.home,pool.visit),pool.rounds),\"true\") */\n      tag_262\n        /* \"wwcc-contracts/contracts/wwccPool.sol\":3682:3736  strConcat(strConcat(pool.home,pool.visit),pool.rounds) */\n      tag_263\n        /* \"wwcc-contracts/contracts/wwccPool.sol\":3692:3723  strConcat(pool.home,pool.visit) */\n      tag_264\n        /* \"wwcc-contracts/contracts/wwccPool.sol\":3702:3706  pool */\n      dup6\n        /* \"wwcc-contracts/contracts/wwccPool.sol\":3702:3711  pool.home */\n      0x00\n      add\n      mload\n        /* \"wwcc-contracts/contracts/wwccPool.sol\":3712:3716  pool */\n      dup7\n        /* \"wwcc-contracts/contracts/wwccPool.sol\":3712:3722  pool.visit */\n      0x20\n      add\n      mload\n        /* \"wwcc-contracts/contracts/wwccPool.sol\":3692:3701  strConcat */\n      tag_169\n        /* \"wwcc-contracts/contracts/wwccPool.sol\":3692:3723  strConcat(pool.home,pool.visit) */\n      jump\t// in\n    tag_264:\n        /* \"wwcc-contracts/contracts/wwccPool.sol\":3724:3728  pool */\n      dup6\n        /* \"wwcc-contracts/contracts/wwccPool.sol\":3724:3735  pool.rounds */\n      0x40\n      add\n      mload\n        /* \"wwcc-contracts/contracts/wwccPool.sol\":3682:3691  strConcat */\n      tag_169\n        /* \"wwcc-contracts/contracts/wwccPool.sol\":3682:3736  strConcat(strConcat(pool.home,pool.visit),pool.rounds) */\n      jump\t// in\n    tag_263:\n        /* \"wwcc-contracts/contracts/wwccPool.sol\":3672:3744  strConcat(strConcat(strConcat(pool.home,pool.visit),pool.rounds),\"true\") */\n      mload(0x40)\n      dup1\n      0x40\n      add\n      0x40\n      mstore\n      dup1\n      0x04\n      dup2\n      mstore\n      0x20\n      add\n      0x7472756500000000000000000000000000000000000000000000000000000000\n      dup2\n      mstore\n      pop\n        /* \"wwcc-contracts/contracts/wwccPool.sol\":3672:3681  strConcat */\n      tag_169\n        /* \"wwcc-contracts/contracts/wwccPool.sol\":3672:3744  strConcat(strConcat(strConcat(pool.home,pool.visit),pool.rounds),\"true\") */\n      jump\t// in\n    tag_262:\n        /* \"wwcc-contracts/contracts/wwccPool.sol\":3745:3810  strConcat(uint256ToString(homeScore),uint256ToString(visitScore)) */\n      tag_265\n        /* \"wwcc-contracts/contracts/wwccPool.sol\":3755:3781  uint256ToString(homeScore) */\n      tag_266\n        /* \"wwcc-contracts/contracts/wwccPool.sol\":3771:3780  homeScore */\n      dup10\n        /* \"wwcc-contracts/contracts/wwccPool.sol\":3755:3770  uint256ToString */\n      tag_267\n        /* \"wwcc-contracts/contracts/wwccPool.sol\":3755:3781  uint256ToString(homeScore) */\n      jump\t// in\n    tag_266:\n        /* \"wwcc-contracts/contracts/wwccPool.sol\":3782:3809  uint256ToString(visitScore) */\n      tag_268\n        /* \"wwcc-contracts/contracts/wwccPool.sol\":3798:3808  visitScore */\n      dup10\n        /* \"wwcc-contracts/contracts/wwccPool.sol\":3782:3797  uint256ToString */\n      tag_267\n        /* \"wwcc-contracts/contracts/wwccPool.sol\":3782:3809  uint256ToString(visitScore) */\n      jump\t// in\n    tag_268:\n        /* \"wwcc-contracts/contracts/wwccPool.sol\":3745:3754  strConcat */\n      tag_169\n        /* \"wwcc-contracts/contracts/wwccPool.sol\":3745:3810  strConcat(uint256ToString(homeScore),uint256ToString(visitScore)) */\n      jump\t// in\n    tag_265:\n        /* \"wwcc-contracts/contracts/wwccPool.sol\":3662:3671  strConcat */\n      tag_169\n        /* \"wwcc-contracts/contracts/wwccPool.sol\":3662:3811  strConcat(strConcat(strConcat(strConcat(pool.home,pool.visit),pool.rounds),\"true\"),strConcat(uint256ToString(homeScore),uint256ToString(visitScore))) */\n      jump\t// in\n    tag_261:\n        /* \"wwcc-contracts/contracts/wwccPool.sol\":3649:3811  pickingKey = strConcat(strConcat(strConcat(strConcat(pool.home,pool.visit),pool.rounds),\"true\"),strConcat(uint256ToString(homeScore),uint256ToString(visitScore))) */\n      swap1\n      pop\n        /* \"wwcc-contracts/contracts/wwccPool.sol\":3610:4020  if (pool.decided == true){... */\n      jump(tag_269)\n    tag_260:\n        /* \"wwcc-contracts/contracts/wwccPool.sol\":3856:4006  strConcat(strConcat(strConcat(strConcat(pool.home,pool.visit),pool.rounds),\"false\"),strConcat(uint256ToString(homeScore),uint256ToString(visitScore))) */\n      tag_270\n        /* \"wwcc-contracts/contracts/wwccPool.sol\":3866:3939  strConcat(strConcat(strConcat(pool.home,pool.visit),pool.rounds),\"false\") */\n      tag_271\n        /* \"wwcc-contracts/contracts/wwccPool.sol\":3876:3930  strConcat(strConcat(pool.home,pool.visit),pool.rounds) */\n      tag_272\n        /* \"wwcc-contracts/contracts/wwccPool.sol\":3886:3917  strConcat(pool.home,pool.visit) */\n      tag_273\n        /* \"wwcc-contracts/contracts/wwccPool.sol\":3896:3900  pool */\n      dup6\n        /* \"wwcc-contracts/contracts/wwccPool.sol\":3896:3905  pool.home */\n      0x00\n      add\n      mload\n        /* \"wwcc-contracts/contracts/wwccPool.sol\":3906:3910  pool */\n      dup7\n        /* \"wwcc-contracts/contracts/wwccPool.sol\":3906:3916  pool.visit */\n      0x20\n      add\n      mload\n        /* \"wwcc-contracts/contracts/wwccPool.sol\":3886:3895  strConcat */\n      tag_169\n        /* \"wwcc-contracts/contracts/wwccPool.sol\":3886:3917  strConcat(pool.home,pool.visit) */\n      jump\t// in\n    tag_273:\n        /* \"wwcc-contracts/contracts/wwccPool.sol\":3918:3922  pool */\n      dup6\n        /* \"wwcc-contracts/contracts/wwccPool.sol\":3918:3929  pool.rounds */\n      0x40\n      add\n      mload\n        /* \"wwcc-contracts/contracts/wwccPool.sol\":3876:3885  strConcat */\n      tag_169\n        /* \"wwcc-contracts/contracts/wwccPool.sol\":3876:3930  strConcat(strConcat(pool.home,pool.visit),pool.rounds) */\n      jump\t// in\n    tag_272:\n        /* \"wwcc-contracts/contracts/wwccPool.sol\":3866:3939  strConcat(strConcat(strConcat(pool.home,pool.visit),pool.rounds),\"false\") */\n      mload(0x40)\n      dup1\n      0x40\n      add\n      0x40\n      mstore\n      dup1\n      0x05\n      dup2\n      mstore\n      0x20\n      add\n      0x66616c7365000000000000000000000000000000000000000000000000000000\n      dup2\n      mstore\n      pop\n        /* \"wwcc-contracts/contracts/wwccPool.sol\":3866:3875  strConcat */\n      tag_169\n        /* \"wwcc-contracts/contracts/wwccPool.sol\":3866:3939  strConcat(strConcat(strConcat(pool.home,pool.visit),pool.rounds),\"false\") */\n      jump\t// in\n    tag_271:\n        /* \"wwcc-contracts/contracts/wwccPool.sol\":3940:4005  strConcat(uint256ToString(homeScore),uint256ToString(visitScore)) */\n      tag_274\n        /* \"wwcc-contracts/contracts/wwccPool.sol\":3950:3976  uint256ToString(homeScore) */\n      tag_275\n        /* \"wwcc-contracts/contracts/wwccPool.sol\":3966:3975  homeScore */\n      dup10\n        /* \"wwcc-contracts/contracts/wwccPool.sol\":3950:3965  uint256ToString */\n      tag_267\n        /* \"wwcc-contracts/contracts/wwccPool.sol\":3950:3976  uint256ToString(homeScore) */\n      jump\t// in\n    tag_275:\n        /* \"wwcc-contracts/contracts/wwccPool.sol\":3977:4004  uint256ToString(visitScore) */\n      tag_276\n        /* \"wwcc-contracts/contracts/wwccPool.sol\":3993:4003  visitScore */\n      dup10\n        /* \"wwcc-contracts/contracts/wwccPool.sol\":3977:3992  uint256ToString */\n      tag_267\n        /* \"wwcc-contracts/contracts/wwccPool.sol\":3977:4004  uint256ToString(visitScore) */\n      jump\t// in\n    tag_276:\n        /* \"wwcc-contracts/contracts/wwccPool.sol\":3940:3949  strConcat */\n      tag_169\n        /* \"wwcc-contracts/contracts/wwccPool.sol\":3940:4005  strConcat(uint256ToString(homeScore),uint256ToString(visitScore)) */\n      jump\t// in\n    tag_274:\n        /* \"wwcc-contracts/contracts/wwccPool.sol\":3856:3865  strConcat */\n      tag_169\n        /* \"wwcc-contracts/contracts/wwccPool.sol\":3856:4006  strConcat(strConcat(strConcat(strConcat(pool.home,pool.visit),pool.rounds),\"false\"),strConcat(uint256ToString(homeScore),uint256ToString(visitScore))) */\n      jump\t// in\n    tag_270:\n        /* \"wwcc-contracts/contracts/wwccPool.sol\":3843:4006  pickingKey = strConcat(strConcat(strConcat(strConcat(pool.home,pool.visit),pool.rounds),\"false\"),strConcat(uint256ToString(homeScore),uint256ToString(visitScore))) */\n      swap1\n      pop\n        /* \"wwcc-contracts/contracts/wwccPool.sol\":3610:4020  if (pool.decided == true){... */\n    tag_269:\n        /* \"wwcc-contracts/contracts/wwccPool.sol\":4032:4055  JoinerPicking memory jp */\n      tag_277\n      tag_278\n      jump\t// in\n    tag_277:\n        /* \"wwcc-contracts/contracts/wwccPool.sol\":4080:4086  weight */\n      dup9\n        /* \"wwcc-contracts/contracts/wwccPool.sol\":4068:4070  jp */\n      dup2\n        /* \"wwcc-contracts/contracts/wwccPool.sol\":4068:4077  jp.weight */\n      0x00\n      add\n        /* \"wwcc-contracts/contracts/wwccPool.sol\":4068:4086  jp.weight = weight */\n      dup2\n      dup2\n      mstore\n      pop\n      pop\n        /* \"wwcc-contracts/contracts/wwccPool.sol\":4109:4113  kind */\n      dup5\n        /* \"wwcc-contracts/contracts/wwccPool.sol\":4099:4101  jp */\n      dup2\n        /* \"wwcc-contracts/contracts/wwccPool.sol\":4099:4106  jp.kind */\n      0x20\n      add\n        /* \"wwcc-contracts/contracts/wwccPool.sol\":4099:4113  jp.kind = kind */\n      dup2\n      dup2\n      mstore\n      pop\n      pop\n        /* \"wwcc-contracts/contracts/wwccPool.sol\":4141:4150  homeScore */\n      dup7\n        /* \"wwcc-contracts/contracts/wwccPool.sol\":4126:4128  jp */\n      dup2\n        /* \"wwcc-contracts/contracts/wwccPool.sol\":4126:4138  jp.homeScore */\n      0x40\n      add\n        /* \"wwcc-contracts/contracts/wwccPool.sol\":4126:4150  jp.homeScore = homeScore */\n      dup2\n      dup2\n      mstore\n      pop\n      pop\n        /* \"wwcc-contracts/contracts/wwccPool.sol\":4179:4189  visitScore */\n      dup6\n        /* \"wwcc-contracts/contracts/wwccPool.sol\":4163:4165  jp */\n      dup2\n        /* \"wwcc-contracts/contracts/wwccPool.sol\":4163:4176  jp.visitScore */\n      0x60\n      add\n        /* \"wwcc-contracts/contracts/wwccPool.sol\":4163:4189  jp.visitScore = visitScore */\n      dup2\n      dup2\n      mstore\n      pop\n      pop\n        /* \"wwcc-contracts/contracts/wwccPool.sol\":4214:4220  joiner */\n      dup10\n        /* \"wwcc-contracts/contracts/wwccPool.sol\":4202:4204  jp */\n      dup2\n        /* \"wwcc-contracts/contracts/wwccPool.sol\":4202:4211  jp.joiner */\n      0x80\n      add\n        /* \"wwcc-contracts/contracts/wwccPool.sol\":4202:4220  jp.joiner = joiner */\n      swap1\n      0xffffffffffffffffffffffffffffffffffffffff\n      and\n      swap1\n      dup2\n      0xffffffffffffffffffffffffffffffffffffffff\n      and\n      dup2\n      mstore\n      pop\n      pop\n        /* \"wwcc-contracts/contracts/wwccPool.sol\":4249:4259  pickingKey */\n      dup2\n        /* \"wwcc-contracts/contracts/wwccPool.sol\":4233:4235  jp */\n      dup2\n        /* \"wwcc-contracts/contracts/wwccPool.sol\":4233:4246  jp.pickingKey */\n      0xa0\n      add\n        /* \"wwcc-contracts/contracts/wwccPool.sol\":4233:4259  jp.pickingKey = pickingKey */\n      dup2\n      swap1\n      mstore\n      pop\n        /* \"wwcc-contracts/contracts/wwccPool.sol\":4286:4291  false */\n      0x00\n        /* \"wwcc-contracts/contracts/wwccPool.sol\":4272:4274  jp */\n      dup2\n        /* \"wwcc-contracts/contracts/wwccPool.sol\":4272:4283  jp.finished */\n      0xc0\n      add\n        /* \"wwcc-contracts/contracts/wwccPool.sol\":4272:4291  jp.finished = false */\n      swap1\n      iszero\n      iszero\n      swap1\n      dup2\n      iszero\n      iszero\n      dup2\n      mstore\n      pop\n      pop\n        /* \"wwcc-contracts/contracts/wwccPool.sol\":4340:4347  poolKey */\n      dup8\n        /* \"wwcc-contracts/contracts/wwccPool.sol\":4304:4320  allScorePoolInfo */\n      0x06\n        /* \"wwcc-contracts/contracts/wwccPool.sol\":4304:4329  allScorePoolInfo[poolKey] */\n      0x00\n        /* \"wwcc-contracts/contracts/wwccPool.sol\":4321:4328  poolKey */\n      dup11\n        /* \"wwcc-contracts/contracts/wwccPool.sol\":4304:4329  allScorePoolInfo[poolKey] */\n      dup2\n      mstore\n      0x20\n      add\n      swap1\n      dup2\n      mstore\n      0x20\n      add\n      0x00\n      keccak256\n        /* \"wwcc-contracts/contracts/wwccPool.sol\":4304:4337  allScorePoolInfo[poolKey].poolKey */\n      0x01\n      add\n        /* \"wwcc-contracts/contracts/wwccPool.sol\":4304:4347  allScorePoolInfo[poolKey].poolKey = poolKey */\n      dup2\n      swap1\n      sstore\n      pop\n        /* \"wwcc-contracts/contracts/wwccPool.sol\":4360:4376  allScorePoolInfo */\n      0x06\n        /* \"wwcc-contracts/contracts/wwccPool.sol\":4360:4385  allScorePoolInfo[poolKey] */\n      0x00\n        /* \"wwcc-contracts/contracts/wwccPool.sol\":4377:4384  poolKey */\n      dup10\n        /* \"wwcc-contracts/contracts/wwccPool.sol\":4360:4385  allScorePoolInfo[poolKey] */\n      dup2\n      mstore\n      0x20\n      add\n      swap1\n      dup2\n      mstore\n      0x20\n      add\n      0x00\n      keccak256\n        /* \"wwcc-contracts/contracts/wwccPool.sol\":4360:4397  allScorePoolInfo[poolKey].separateBet */\n      0x00\n      add\n        /* \"wwcc-contracts/contracts/wwccPool.sol\":4403:4405  jp */\n      dup2\n        /* \"wwcc-contracts/contracts/wwccPool.sol\":4360:4406  allScorePoolInfo[poolKey].separateBet.push(jp) */\n      swap1\n      dup1\n      0x01\n      dup2\n      sload\n      add\n      dup1\n      dup3\n      sstore\n      dup1\n      swap2\n      pop\n      pop\n      0x01\n      swap1\n      sub\n      swap1\n      0x00\n      mstore\n      keccak256(0x00, 0x20)\n      swap1\n      0x07\n      mul\n      add\n      0x00\n      swap1\n      swap2\n      swap1\n      swap2\n      swap1\n      swap2\n      pop\n      0x00\n      dup3\n      add\n      mload\n      dup2\n      0x00\n      add\n      sstore\n      0x20\n      dup3\n      add\n      mload\n      dup2\n      0x01\n      add\n      sstore\n      0x40\n      dup3\n      add\n      mload\n      dup2\n      0x02\n      add\n      sstore\n      0x60\n      dup3\n      add\n      mload\n      dup2\n      0x03\n      add\n      sstore\n      0x80\n      dup3\n      add\n      mload\n      dup2\n      0x04\n      add\n      exp(0x0100, 0x00)\n      dup2\n      sload\n      dup2\n      0xffffffffffffffffffffffffffffffffffffffff\n      mul\n      not\n      and\n      swap1\n      dup4\n      0xffffffffffffffffffffffffffffffffffffffff\n      and\n      mul\n      or\n      swap1\n      sstore\n      pop\n      0xa0\n      dup3\n      add\n      mload\n      dup2\n      0x05\n      add\n      swap1\n      dup1\n      mload\n      swap1\n      0x20\n      add\n      swap1\n      tag_280\n      swap3\n      swap2\n      swap1\n      tag_201\n      jump\t// in\n    tag_280:\n      pop\n      0xc0\n      dup3\n      add\n      mload\n      dup2\n      0x06\n      add\n      exp(0x0100, 0x00)\n      dup2\n      sload\n      dup2\n      0xff\n      mul\n      not\n      and\n      swap1\n      dup4\n      iszero\n      iszero\n      mul\n      or\n      swap1\n      sstore\n      pop\n      pop\n      pop\n        /* \"wwcc-contracts/contracts/wwccPool.sol\":4454:4460  joiner */\n      dup10\n        /* \"wwcc-contracts/contracts/wwccPool.sol\":4420:4436  joinerAllPicking */\n      0x08\n        /* \"wwcc-contracts/contracts/wwccPool.sol\":4420:4444  joinerAllPicking[joiner] */\n      0x00\n        /* \"wwcc-contracts/contracts/wwccPool.sol\":4437:4443  joiner */\n      dup13\n        /* \"wwcc-contracts/contracts/wwccPool.sol\":4420:4444  joinerAllPicking[joiner] */\n      0xffffffffffffffffffffffffffffffffffffffff\n      and\n      0xffffffffffffffffffffffffffffffffffffffff\n      and\n      dup2\n      mstore\n      0x20\n      add\n      swap1\n      dup2\n      mstore\n      0x20\n      add\n      0x00\n      keccak256\n        /* \"wwcc-contracts/contracts/wwccPool.sol\":4420:4451  joinerAllPicking[joiner].joiner */\n      0x01\n      add\n      0x00\n        /* \"wwcc-contracts/contracts/wwccPool.sol\":4420:4460  joinerAllPicking[joiner].joiner = joiner */\n      0x0100\n      exp\n      dup2\n      sload\n      dup2\n      0xffffffffffffffffffffffffffffffffffffffff\n      mul\n      not\n      and\n      swap1\n      dup4\n      0xffffffffffffffffffffffffffffffffffffffff\n      and\n      mul\n      or\n      swap1\n      sstore\n      pop\n        /* \"wwcc-contracts/contracts/wwccPool.sol\":4473:4489  joinerAllPicking */\n      0x08\n        /* \"wwcc-contracts/contracts/wwccPool.sol\":4473:4497  joinerAllPicking[joiner] */\n      0x00\n        /* \"wwcc-contracts/contracts/wwccPool.sol\":4490:4496  joiner */\n      dup12\n        /* \"wwcc-contracts/contracts/wwccPool.sol\":4473:4497  joinerAllPicking[joiner] */\n      0xffffffffffffffffffffffffffffffffffffffff\n      and\n      0xffffffffffffffffffffffffffffffffffffffff\n      and\n      dup2\n      mstore\n      0x20\n      add\n      swap1\n      dup2\n      mstore\n      0x20\n      add\n      0x00\n      keccak256\n        /* \"wwcc-contracts/contracts/wwccPool.sol\":4473:4509  joinerAllPicking[joiner].separateBet */\n      0x00\n      add\n        /* \"wwcc-contracts/contracts/wwccPool.sol\":4515:4517  jp */\n      dup2\n        /* \"wwcc-contracts/contracts/wwccPool.sol\":4473:4518  joinerAllPicking[joiner].separateBet.push(jp) */\n      swap1\n      dup1\n      0x01\n      dup2\n      sload\n      add\n      dup1\n      dup3\n      sstore\n      dup1\n      swap2\n      pop\n      pop\n      0x01\n      swap1\n      sub\n      swap1\n      0x00\n      mstore\n      keccak256(0x00, 0x20)\n      swap1\n      0x07\n      mul\n      add\n      0x00\n      swap1\n      swap2\n      swap1\n      swap2\n      swap1\n      swap2\n      pop\n      0x00\n      dup3\n      add\n      mload\n      dup2\n      0x00\n      add\n      sstore\n      0x20\n      dup3\n      add\n      mload\n      dup2\n      0x01\n      add\n      sstore\n      0x40\n      dup3\n      add\n      mload\n      dup2\n      0x02\n      add\n      sstore\n      0x60\n      dup3\n      add\n      mload\n      dup2\n      0x03\n      add\n      sstore\n      0x80\n      dup3\n      add\n      mload\n      dup2\n      0x04\n      add\n      exp(0x0100, 0x00)\n      dup2\n      sload\n      dup2\n      0xffffffffffffffffffffffffffffffffffffffff\n      mul\n      not\n      and\n      swap1\n      dup4\n      0xffffffffffffffffffffffffffffffffffffffff\n      and\n      mul\n      or\n      swap1\n      sstore\n      pop\n      0xa0\n      dup3\n      add\n      mload\n      dup2\n      0x05\n      add\n      swap1\n      dup1\n      mload\n      swap1\n      0x20\n      add\n      swap1\n      tag_282\n      swap3\n      swap2\n      swap1\n      tag_201\n      jump\t// in\n    tag_282:\n      pop\n      0xc0\n      dup3\n      add\n      mload\n      dup2\n      0x06\n      add\n      exp(0x0100, 0x00)\n      dup2\n      sload\n      dup2\n      0xff\n      mul\n      not\n      and\n      swap1\n      dup4\n      iszero\n      iszero\n      mul\n      or\n      swap1\n      sstore\n      pop\n      pop\n      pop\n        /* \"wwcc-contracts/contracts/wwccPool.sol\":4545:4546  2 */\n      0x02\n        /* \"wwcc-contracts/contracts/wwccPool.sol\":4537:4541  kind */\n      dup6\n        /* \"wwcc-contracts/contracts/wwccPool.sol\":4537:4546  kind == 2 */\n      eq\n        /* \"wwcc-contracts/contracts/wwccPool.sol\":4533:4865  if (kind == 2){... */\n      iszero\n      tag_283\n      jumpi\n        /* \"wwcc-contracts/contracts/wwccPool.sol\":4577:4583  weight */\n      dup9\n        /* \"wwcc-contracts/contracts/wwccPool.sol\":4563:4567  pool */\n      dup4\n        /* \"wwcc-contracts/contracts/wwccPool.sol\":4563:4573  pool.sPool */\n      0xc0\n      add\n        /* \"wwcc-contracts/contracts/wwccPool.sol\":4563:4583  pool.sPool += weight */\n      dup2\n      dup2\n      mload\n      tag_284\n      swap2\n      swap1\n      tag_24\n      jump\t// in\n    tag_284:\n      swap2\n      pop\n      dup2\n      dup2\n      mstore\n      pop\n      pop\n        /* \"wwcc-contracts/contracts/wwccPool.sol\":4630:4636  weight */\n      dup9\n        /* \"wwcc-contracts/contracts/wwccPool.sol\":4599:4614  singleScorePool */\n      0x07\n        /* \"wwcc-contracts/contracts/wwccPool.sol\":4615:4625  pickingKey */\n      dup4\n        /* \"wwcc-contracts/contracts/wwccPool.sol\":4599:4626  singleScorePool[pickingKey] */\n      mload(0x40)\n      tag_285\n      swap2\n      swap1\n      tag_194\n      jump\t// in\n    tag_285:\n      swap1\n      dup2\n      mstore\n      0x20\n      add\n      mload(0x40)\n      dup1\n      swap2\n      sub\n      swap1\n      keccak256\n      0x00\n        /* \"wwcc-contracts/contracts/wwccPool.sol\":4599:4636  singleScorePool[pickingKey] += weight */\n      dup3\n      dup3\n      sload\n      tag_286\n      swap2\n      swap1\n      tag_24\n      jump\t// in\n    tag_286:\n      swap3\n      pop\n      pop\n      dup2\n      swap1\n      sstore\n      pop\n        /* \"wwcc-contracts/contracts/wwccPool.sol\":4533:4865  if (kind == 2){... */\n      jump(tag_287)\n    tag_283:\n        /* \"wwcc-contracts/contracts/wwccPool.sol\":4680:4681  3 */\n      0x03\n        /* \"wwcc-contracts/contracts/wwccPool.sol\":4672:4676  kind */\n      dup6\n        /* \"wwcc-contracts/contracts/wwccPool.sol\":4672:4681  kind == 3 */\n      eq\n        /* \"wwcc-contracts/contracts/wwccPool.sol\":4669:4865  if(kind == 3){... */\n      iszero\n      tag_288\n      jumpi\n        /* \"wwcc-contracts/contracts/wwccPool.sol\":4714:4720  weight */\n      dup9\n        /* \"wwcc-contracts/contracts/wwccPool.sol\":4700:4704  pool */\n      dup4\n        /* \"wwcc-contracts/contracts/wwccPool.sol\":4700:4710  pool.wPool */\n      0x60\n      add\n        /* \"wwcc-contracts/contracts/wwccPool.sol\":4700:4720  pool.wPool += weight */\n      dup2\n      dup2\n      mload\n      tag_289\n      swap2\n      swap1\n      tag_24\n      jump\t// in\n    tag_289:\n      swap2\n      pop\n      dup2\n      dup2\n      mstore\n      pop\n      pop\n        /* \"wwcc-contracts/contracts/wwccPool.sol\":4669:4865  if(kind == 3){... */\n      jump(tag_290)\n    tag_288:\n        /* \"wwcc-contracts/contracts/wwccPool.sol\":4752:4753  1 */\n      0x01\n        /* \"wwcc-contracts/contracts/wwccPool.sol\":4744:4748  kind */\n      dup6\n        /* \"wwcc-contracts/contracts/wwccPool.sol\":4744:4753  kind == 1 */\n      eq\n        /* \"wwcc-contracts/contracts/wwccPool.sol\":4740:4865  if (kind == 1){... */\n      iszero\n      tag_291\n      jumpi\n        /* \"wwcc-contracts/contracts/wwccPool.sol\":4786:4792  weight */\n      dup9\n        /* \"wwcc-contracts/contracts/wwccPool.sol\":4772:4776  pool */\n      dup4\n        /* \"wwcc-contracts/contracts/wwccPool.sol\":4772:4782  pool.dPool */\n      0x80\n      add\n        /* \"wwcc-contracts/contracts/wwccPool.sol\":4772:4792  pool.dPool += weight */\n      dup2\n      dup2\n      mload\n      tag_292\n      swap2\n      swap1\n      tag_24\n      jump\t// in\n    tag_292:\n      swap2\n      pop\n      dup2\n      dup2\n      mstore\n      pop\n      pop\n        /* \"wwcc-contracts/contracts/wwccPool.sol\":4740:4865  if (kind == 1){... */\n      jump(tag_293)\n    tag_291:\n        /* \"wwcc-contracts/contracts/wwccPool.sol\":4844:4850  weight */\n      dup9\n        /* \"wwcc-contracts/contracts/wwccPool.sol\":4830:4834  pool */\n      dup4\n        /* \"wwcc-contracts/contracts/wwccPool.sol\":4830:4840  pool.lPool */\n      0xa0\n      add\n        /* \"wwcc-contracts/contracts/wwccPool.sol\":4830:4850  pool.lPool += weight */\n      dup2\n      dup2\n      mload\n      tag_294\n      swap2\n      swap1\n      tag_24\n      jump\t// in\n    tag_294:\n      swap2\n      pop\n      dup2\n      dup2\n      mstore\n      pop\n      pop\n        /* \"wwcc-contracts/contracts/wwccPool.sol\":4740:4865  if (kind == 1){... */\n    tag_293:\n        /* \"wwcc-contracts/contracts/wwccPool.sol\":4669:4865  if(kind == 3){... */\n    tag_290:\n        /* \"wwcc-contracts/contracts/wwccPool.sol\":4533:4865  if (kind == 2){... */\n    tag_287:\n        /* \"wwcc-contracts/contracts/wwccPool.sol\":4900:4906  weight */\n      dup9\n        /* \"wwcc-contracts/contracts/wwccPool.sol\":4878:4888  voteAmount */\n      0x04\n        /* \"wwcc-contracts/contracts/wwccPool.sol\":4878:4896  voteAmount[joiner] */\n      0x00\n        /* \"wwcc-contracts/contracts/wwccPool.sol\":4889:4895  joiner */\n      dup13\n        /* \"wwcc-contracts/contracts/wwccPool.sol\":4878:4896  voteAmount[joiner] */\n      0xffffffffffffffffffffffffffffffffffffffff\n      and\n      0xffffffffffffffffffffffffffffffffffffffff\n      and\n      dup2\n      mstore\n      0x20\n      add\n      swap1\n      dup2\n      mstore\n      0x20\n      add\n      0x00\n      keccak256\n      0x00\n        /* \"wwcc-contracts/contracts/wwccPool.sol\":4878:4906  voteAmount[joiner] -= weight */\n      dup3\n      dup3\n      sload\n      tag_295\n      swap2\n      swap1\n      tag_181\n      jump\t// in\n    tag_295:\n      swap3\n      pop\n      pop\n      dup2\n      swap1\n      sstore\n      pop\n        /* \"wwcc-contracts/contracts/wwccPool.sol\":3406:4928  {... */\n      pop\n      pop\n      pop\n        /* \"wwcc-contracts/contracts/wwccPool.sol\":4943:4947  true */\n      0x01\n        /* \"wwcc-contracts/contracts/wwccPool.sol\":4936:4947  return true */\n      swap1\n      pop\n        /* \"wwcc-contracts/contracts/wwccPool.sol\":3184:4954  function Picking(address joiner,uint256 weight,bytes32 poolKey,uint256 homeScore,uint256 visitScore,uint256 kind) external returns(bool){... */\n      swap7\n      swap6\n      pop\n      pop\n      pop\n      pop\n      pop\n      pop\n      jump\t// out\n        /* \"wwcc-contracts/contracts/wwccPool.sol\":7910:11367  function Award(bytes32 poolKey,uint256 homeScore,uint256 visitScore,uint256 result)  external onlyManager  payable returns(bool){... */\n    tag_76:\n        /* \"wwcc-contracts/contracts/wwccPool.sol\":8033:8037  bool */\n      0x00\n        /* \"wwcc-contracts/contracts/wwccPool.sol\":14364:14369  owner */\n      dup1\n      0x00\n      swap1\n      sload\n      swap1\n      0x0100\n      exp\n      swap1\n      div\n      0xffffffffffffffffffffffffffffffffffffffff\n      and\n        /* \"wwcc-contracts/contracts/wwccPool.sol\":14350:14369  msg.sender == owner */\n      0xffffffffffffffffffffffffffffffffffffffff\n      and\n        /* \"wwcc-contracts/contracts/wwccPool.sol\":14350:14360  msg.sender */\n      caller\n        /* \"wwcc-contracts/contracts/wwccPool.sol\":14350:14369  msg.sender == owner */\n      0xffffffffffffffffffffffffffffffffffffffff\n      and\n      eq\n        /* \"wwcc-contracts/contracts/wwccPool.sol\":14329:14420  require(... */\n      tag_297\n      jumpi\n      mload(0x40)\n      0x08c379a000000000000000000000000000000000000000000000000000000000\n      dup2\n      mstore\n      0x04\n      add\n      tag_298\n      swap1\n      tag_105\n      jump\t// in\n    tag_298:\n      mload(0x40)\n      dup1\n      swap2\n      sub\n      swap1\n      revert\n    tag_297:\n        /* \"wwcc-contracts/contracts/wwccPool.sol\":8052:8069  contains(poolKey) */\n      tag_300\n        /* \"wwcc-contracts/contracts/wwccPool.sol\":8061:8068  poolKey */\n      dup6\n        /* \"wwcc-contracts/contracts/wwccPool.sol\":8052:8060  contains */\n      tag_112\n        /* \"wwcc-contracts/contracts/wwccPool.sol\":8052:8069  contains(poolKey) */\n      jump\t// in\n    tag_300:\n        /* \"wwcc-contracts/contracts/wwccPool.sol\":8048:11341  if(!contains(poolKey)) { ... */\n      tag_301\n      jumpi\n        /* \"wwcc-contracts/contracts/wwccPool.sol\":8086:8110  revert(\"pool not exist\") */\n      mload(0x40)\n      0x08c379a000000000000000000000000000000000000000000000000000000000\n      dup2\n      mstore\n      0x04\n      add\n      tag_302\n      swap1\n      tag_115\n      jump\t// in\n    tag_302:\n      mload(0x40)\n      dup1\n      swap2\n      sub\n      swap1\n      revert\n        /* \"wwcc-contracts/contracts/wwccPool.sol\":8048:11341  if(!contains(poolKey)) { ... */\n    tag_301:\n        /* \"wwcc-contracts/contracts/wwccPool.sol\":8137:8155  WcPool memory pool */\n      0x00\n        /* \"wwcc-contracts/contracts/wwccPool.sol\":8158:8165  WcPools */\n      0x05\n        /* \"wwcc-contracts/contracts/wwccPool.sol\":8158:8174  WcPools[poolKey] */\n      0x00\n        /* \"wwcc-contracts/contracts/wwccPool.sol\":8166:8173  poolKey */\n      dup8\n        /* \"wwcc-contracts/contracts/wwccPool.sol\":8158:8174  WcPools[poolKey] */\n      dup2\n      mstore\n      0x20\n      add\n      swap1\n      dup2\n      mstore\n      0x20\n      add\n      0x00\n      keccak256\n        /* \"wwcc-contracts/contracts/wwccPool.sol\":8137:8174  WcPool memory pool = WcPools[poolKey] */\n      mload(0x40)\n      dup1\n      0x0160\n      add\n      0x40\n      mstore\n      swap1\n      dup2\n      0x00\n      dup3\n      add\n      dup1\n      sload\n      tag_304\n      swap1\n      tag_118\n      jump\t// in\n    tag_304:\n      dup1\n      0x1f\n      add\n      0x20\n      dup1\n      swap2\n      div\n      mul\n      0x20\n      add\n      mload(0x40)\n      swap1\n      dup2\n      add\n      0x40\n      mstore\n      dup1\n      swap3\n      swap2\n      swap1\n      dup2\n      dup2\n      mstore\n      0x20\n      add\n      dup3\n      dup1\n      sload\n      tag_305\n      swap1\n      tag_118\n      jump\t// in\n    tag_305:\n      dup1\n      iszero\n      tag_306\n      jumpi\n      dup1\n      0x1f\n      lt\n      tag_307\n      jumpi\n      0x0100\n      dup1\n      dup4\n      sload\n      div\n      mul\n      dup4\n      mstore\n      swap2\n      0x20\n      add\n      swap2\n      jump(tag_306)\n    tag_307:\n      dup3\n      add\n      swap2\n      swap1\n      0x00\n      mstore\n      keccak256(0x00, 0x20)\n      swap1\n    tag_308:\n      dup2\n      sload\n      dup2\n      mstore\n      swap1\n      0x01\n      add\n      swap1\n      0x20\n      add\n      dup1\n      dup4\n      gt\n      tag_308\n      jumpi\n      dup3\n      swap1\n      sub\n      0x1f\n      and\n      dup3\n      add\n      swap2\n    tag_306:\n      pop\n      pop\n      pop\n      pop\n      pop\n      dup2\n      mstore\n      0x20\n      add\n      0x01\n      dup3\n      add\n      dup1\n      sload\n      tag_309\n      swap1\n      tag_118\n      jump\t// in\n    tag_309:\n      dup1\n      0x1f\n      add\n      0x20\n      dup1\n      swap2\n      div\n      mul\n      0x20\n      add\n      mload(0x40)\n      swap1\n      dup2\n      add\n      0x40\n      mstore\n      dup1\n      swap3\n      swap2\n      swap1\n      dup2\n      dup2\n      mstore\n      0x20\n      add\n      dup3\n      dup1\n      sload\n      tag_310\n      swap1\n      tag_118\n      jump\t// in\n    tag_310:\n      dup1\n      iszero\n      tag_311\n      jumpi\n      dup1\n      0x1f\n      lt\n      tag_312\n      jumpi\n      0x0100\n      dup1\n      dup4\n      sload\n      div\n      mul\n      dup4\n      mstore\n      swap2\n      0x20\n      add\n      swap2\n      jump(tag_311)\n    tag_312:\n      dup3\n      add\n      swap2\n      swap1\n      0x00\n      mstore\n      keccak256(0x00, 0x20)\n      swap1\n    tag_313:\n      dup2\n      sload\n      dup2\n      mstore\n      swap1\n      0x01\n      add\n      swap1\n      0x20\n      add\n      dup1\n      dup4\n      gt\n      tag_313\n      jumpi\n      dup3\n      swap1\n      sub\n      0x1f\n      and\n      dup3\n      add\n      swap2\n    tag_311:\n      pop\n      pop\n      pop\n      pop\n      pop\n      dup2\n      mstore\n      0x20\n      add\n      0x02\n      dup3\n      add\n      dup1\n      sload\n      tag_314\n      swap1\n      tag_118\n      jump\t// in\n    tag_314:\n      dup1\n      0x1f\n      add\n      0x20\n      dup1\n      swap2\n      div\n      mul\n      0x20\n      add\n      mload(0x40)\n      swap1\n      dup2\n      add\n      0x40\n      mstore\n      dup1\n      swap3\n      swap2\n      swap1\n      dup2\n      dup2\n      mstore\n      0x20\n      add\n      dup3\n      dup1\n      sload\n      tag_315\n      swap1\n      tag_118\n      jump\t// in\n    tag_315:\n      dup1\n      iszero\n      tag_316\n      jumpi\n      dup1\n      0x1f\n      lt\n      tag_317\n      jumpi\n      0x0100\n      dup1\n      dup4\n      sload\n      div\n      mul\n      dup4\n      mstore\n      swap2\n      0x20\n      add\n      swap2\n      jump(tag_316)\n    tag_317:\n      dup3\n      add\n      swap2\n      swap1\n      0x00\n      mstore\n      keccak256(0x00, 0x20)\n      swap1\n    tag_318:\n      dup2\n      sload\n      dup2\n      mstore\n      swap1\n      0x01\n      add\n      swap1\n      0x20\n      add\n      dup1\n      dup4\n      gt\n      tag_318\n      jumpi\n      dup3\n      swap1\n      sub\n      0x1f\n      and\n      dup3\n      add\n      swap2\n    tag_316:\n      pop\n      pop\n      pop\n      pop\n      pop\n      dup2\n      mstore\n      0x20\n      add\n      0x03\n      dup3\n      add\n      sload\n      dup2\n      mstore\n      0x20\n      add\n      0x04\n      dup3\n      add\n      sload\n      dup2\n      mstore\n      0x20\n      add\n      0x05\n      dup3\n      add\n      sload\n      dup2\n      mstore\n      0x20\n      add\n      0x06\n      dup3\n      add\n      sload\n      dup2\n      mstore\n      0x20\n      add\n      0x07\n      dup3\n      add\n      sload\n      dup2\n      mstore\n      0x20\n      add\n      0x08\n      dup3\n      add\n      0x00\n      swap1\n      sload\n      swap1\n      0x0100\n      exp\n      swap1\n      div\n      0xff\n      and\n      iszero\n      iszero\n      iszero\n      iszero\n      dup2\n      mstore\n      0x20\n      add\n      0x08\n      dup3\n      add\n      0x01\n      swap1\n      sload\n      swap1\n      0x0100\n      exp\n      swap1\n      div\n      0xff\n      and\n      iszero\n      iszero\n      iszero\n      iszero\n      dup2\n      mstore\n      0x20\n      add\n      0x08\n      dup3\n      add\n      0x02\n      swap1\n      sload\n      swap1\n      0x0100\n      exp\n      swap1\n      div\n      0xff\n      and\n      iszero\n      iszero\n      iszero\n      iszero\n      dup2\n      mstore\n      pop\n      pop\n      swap1\n      pop\n        /* \"wwcc-contracts/contracts/wwccPool.sol\":8205:8209  true */\n      0x01\n        /* \"wwcc-contracts/contracts/wwccPool.sol\":8191:8195  pool */\n      dup2\n        /* \"wwcc-contracts/contracts/wwccPool.sol\":8191:8204  pool.finished */\n      0x0140\n      add\n        /* \"wwcc-contracts/contracts/wwccPool.sol\":8191:8209  pool.finished=true */\n      swap1\n      iszero\n      iszero\n      swap1\n      dup2\n      iszero\n      iszero\n      dup2\n      mstore\n      pop\n        /* \"wwcc-contracts/contracts/wwccPool.sol\":8187:8268  if (pool.finished=true){... */\n      iszero\n      tag_319\n      jumpi\n        /* \"wwcc-contracts/contracts/wwccPool.sol\":8227:8254  revert(\"pool has finished\") */\n      mload(0x40)\n      0x08c379a000000000000000000000000000000000000000000000000000000000\n      dup2\n      mstore\n      0x04\n      add\n      tag_320\n      swap1\n      tag_321\n      jump\t// in\n    tag_320:\n      mload(0x40)\n      dup1\n      swap2\n      sub\n      swap1\n      revert\n        /* \"wwcc-contracts/contracts/wwccPool.sol\":8187:8268  if (pool.finished=true){... */\n    tag_319:\n        /* \"wwcc-contracts/contracts/wwccPool.sol\":8280:8315  JoinerPicking[] memory separateBets */\n      0x00\n        /* \"wwcc-contracts/contracts/wwccPool.sol\":8318:8334  allScorePoolInfo */\n      0x06\n        /* \"wwcc-contracts/contracts/wwccPool.sol\":8318:8343  allScorePoolInfo[poolKey] */\n      0x00\n        /* \"wwcc-contracts/contracts/wwccPool.sol\":8335:8342  poolKey */\n      dup9\n        /* \"wwcc-contracts/contracts/wwccPool.sol\":8318:8343  allScorePoolInfo[poolKey] */\n      dup2\n      mstore\n      0x20\n      add\n      swap1\n      dup2\n      mstore\n      0x20\n      add\n      0x00\n      keccak256\n        /* \"wwcc-contracts/contracts/wwccPool.sol\":8318:8355  allScorePoolInfo[poolKey].separateBet */\n      0x00\n      add\n        /* \"wwcc-contracts/contracts/wwccPool.sol\":8280:8355  JoinerPicking[] memory separateBets = allScorePoolInfo[poolKey].separateBet */\n      dup1\n      sload\n      dup1\n      0x20\n      mul\n      0x20\n      add\n      mload(0x40)\n      swap1\n      dup2\n      add\n      0x40\n      mstore\n      dup1\n      swap3\n      swap2\n      swap1\n      dup2\n      dup2\n      mstore\n      0x20\n      add\n      0x00\n      swap1\n    tag_322:\n      dup3\n      dup3\n      lt\n      iszero\n      tag_323\n      jumpi\n      dup4\n      dup3\n      swap1\n      0x00\n      mstore\n      keccak256(0x00, 0x20)\n      swap1\n      0x07\n      mul\n      add\n      mload(0x40)\n      dup1\n      0xe0\n      add\n      0x40\n      mstore\n      swap1\n      dup2\n      0x00\n      dup3\n      add\n      sload\n      dup2\n      mstore\n      0x20\n      add\n      0x01\n      dup3\n      add\n      sload\n      dup2\n      mstore\n      0x20\n      add\n      0x02\n      dup3\n      add\n      sload\n      dup2\n      mstore\n      0x20\n      add\n      0x03\n      dup3\n      add\n      sload\n      dup2\n      mstore\n      0x20\n      add\n      0x04\n      dup3\n      add\n      0x00\n      swap1\n      sload\n      swap1\n      0x0100\n      exp\n      swap1\n      div\n      0xffffffffffffffffffffffffffffffffffffffff\n      and\n      0xffffffffffffffffffffffffffffffffffffffff\n      and\n      0xffffffffffffffffffffffffffffffffffffffff\n      and\n      dup2\n      mstore\n      0x20\n      add\n      0x05\n      dup3\n      add\n      dup1\n      sload\n      tag_325\n      swap1\n      tag_118\n      jump\t// in\n    tag_325:\n      dup1\n      0x1f\n      add\n      0x20\n      dup1\n      swap2\n      div\n      mul\n      0x20\n      add\n      mload(0x40)\n      swap1\n      dup2\n      add\n      0x40\n      mstore\n      dup1\n      swap3\n      swap2\n      swap1\n      dup2\n      dup2\n      mstore\n      0x20\n      add\n      dup3\n      dup1\n      sload\n      tag_326\n      swap1\n      tag_118\n      jump\t// in\n    tag_326:\n      dup1\n      iszero\n      tag_327\n      jumpi\n      dup1\n      0x1f\n      lt\n      tag_328\n      jumpi\n      0x0100\n      dup1\n      dup4\n      sload\n      div\n      mul\n      dup4\n      mstore\n      swap2\n      0x20\n      add\n      swap2\n      jump(tag_327)\n    tag_328:\n      dup3\n      add\n      swap2\n      swap1\n      0x00\n      mstore\n      keccak256(0x00, 0x20)\n      swap1\n    tag_329:\n      dup2\n      sload\n      dup2\n      mstore\n      swap1\n      0x01\n      add\n      swap1\n      0x20\n      add\n      dup1\n      dup4\n      gt\n      tag_329\n      jumpi\n      dup3\n      swap1\n      sub\n      0x1f\n      and\n      dup3\n      add\n      swap2\n    tag_327:\n      pop\n      pop\n      pop\n      pop\n      pop\n      dup2\n      mstore\n      0x20\n      add\n      0x06\n      dup3\n      add\n      0x00\n      swap1\n      sload\n      swap1\n      0x0100\n      exp\n      swap1\n      div\n      0xff\n      and\n      iszero\n      iszero\n      iszero\n      iszero\n      dup2\n      mstore\n      pop\n      pop\n      dup2\n      mstore\n      0x20\n      add\n      swap1\n      0x01\n      add\n      swap1\n      jump(tag_322)\n    tag_323:\n      pop\n      pop\n      pop\n      pop\n      swap1\n      pop\n        /* \"wwcc-contracts/contracts/wwccPool.sol\":8368:8391  uint256 allRewardAmount */\n      0x00\n        /* \"wwcc-contracts/contracts/wwccPool.sol\":8425:8500  (pool.sPool + pool.wPool+pool.lPool+pool.dPool + pool.basal.div(2)).div(20) */\n      tag_330\n        /* \"wwcc-contracts/contracts/wwccPool.sol\":8497:8499  20 */\n      0x14\n        /* \"wwcc-contracts/contracts/wwccPool.sol\":8474:8491  pool.basal.div(2) */\n      tag_331\n        /* \"wwcc-contracts/contracts/wwccPool.sol\":8489:8490  2 */\n      0x02\n        /* \"wwcc-contracts/contracts/wwccPool.sol\":8474:8478  pool */\n      dup7\n        /* \"wwcc-contracts/contracts/wwccPool.sol\":8474:8484  pool.basal */\n      0xe0\n      add\n      mload\n        /* \"wwcc-contracts/contracts/wwccPool.sol\":8474:8488  pool.basal.div */\n      tag_22\n      swap1\n        /* \"wwcc-contracts/contracts/wwccPool.sol\":8474:8491  pool.basal.div(2) */\n      swap2\n      swap1\n      0xffffffff\n      and\n      jump\t// in\n    tag_331:\n        /* \"wwcc-contracts/contracts/wwccPool.sol\":8461:8465  pool */\n      dup6\n        /* \"wwcc-contracts/contracts/wwccPool.sol\":8461:8471  pool.dPool */\n      0x80\n      add\n      mload\n        /* \"wwcc-contracts/contracts/wwccPool.sol\":8450:8454  pool */\n      dup7\n        /* \"wwcc-contracts/contracts/wwccPool.sol\":8450:8460  pool.lPool */\n      0xa0\n      add\n      mload\n        /* \"wwcc-contracts/contracts/wwccPool.sol\":8439:8443  pool */\n      dup8\n        /* \"wwcc-contracts/contracts/wwccPool.sol\":8439:8449  pool.wPool */\n      0x60\n      add\n      mload\n        /* \"wwcc-contracts/contracts/wwccPool.sol\":8426:8430  pool */\n      dup9\n        /* \"wwcc-contracts/contracts/wwccPool.sol\":8426:8436  pool.sPool */\n      0xc0\n      add\n      mload\n        /* \"wwcc-contracts/contracts/wwccPool.sol\":8426:8449  pool.sPool + pool.wPool */\n      tag_332\n      swap2\n      swap1\n      tag_24\n      jump\t// in\n    tag_332:\n        /* \"wwcc-contracts/contracts/wwccPool.sol\":8426:8460  pool.sPool + pool.wPool+pool.lPool */\n      tag_333\n      swap2\n      swap1\n      tag_24\n      jump\t// in\n    tag_333:\n        /* \"wwcc-contracts/contracts/wwccPool.sol\":8426:8471  pool.sPool + pool.wPool+pool.lPool+pool.dPool */\n      tag_334\n      swap2\n      swap1\n      tag_24\n      jump\t// in\n    tag_334:\n        /* \"wwcc-contracts/contracts/wwccPool.sol\":8426:8491  pool.sPool + pool.wPool+pool.lPool+pool.dPool + pool.basal.div(2) */\n      tag_335\n      swap2\n      swap1\n      tag_24\n      jump\t// in\n    tag_335:\n        /* \"wwcc-contracts/contracts/wwccPool.sol\":8425:8496  (pool.sPool + pool.wPool+pool.lPool+pool.dPool + pool.basal.div(2)).div */\n      tag_22\n      swap1\n        /* \"wwcc-contracts/contracts/wwccPool.sol\":8425:8500  (pool.sPool + pool.wPool+pool.lPool+pool.dPool + pool.basal.div(2)).div(20) */\n      swap2\n      swap1\n      0xffffffff\n      and\n      jump\t// in\n    tag_330:\n        /* \"wwcc-contracts/contracts/wwccPool.sol\":8408:8421  nextBasalLast */\n      0x01\n      0x00\n        /* \"wwcc-contracts/contracts/wwccPool.sol\":8408:8500  nextBasalLast += (pool.sPool + pool.wPool+pool.lPool+pool.dPool + pool.basal.div(2)).div(20) */\n      dup3\n      dup3\n      sload\n      tag_336\n      swap2\n      swap1\n      tag_24\n      jump\t// in\n    tag_336:\n      swap3\n      pop\n      pop\n      dup2\n      swap1\n      sstore\n      pop\n        /* \"wwcc-contracts/contracts/wwccPool.sol\":8674:8680  uint j */\n      0x00\n        /* \"wwcc-contracts/contracts/wwccPool.sol\":8652:11169  for (... */\n    tag_337:\n        /* \"wwcc-contracts/contracts/wwccPool.sol\":8727:8728  1 */\n      0x01\n        /* \"wwcc-contracts/contracts/wwccPool.sol\":8707:8719  separateBets */\n      dup4\n        /* \"wwcc-contracts/contracts/wwccPool.sol\":8707:8726  separateBets.length */\n      mload\n        /* \"wwcc-contracts/contracts/wwccPool.sol\":8707:8728  separateBets.length-1 */\n      tag_340\n      swap2\n      swap1\n      tag_181\n      jump\t// in\n    tag_340:\n        /* \"wwcc-contracts/contracts/wwccPool.sol\":8702:8703  j */\n      dup2\n        /* \"wwcc-contracts/contracts/wwccPool.sol\":8702:8728  j <= separateBets.length-1 */\n      gt\n        /* \"wwcc-contracts/contracts/wwccPool.sol\":8652:11169  for (... */\n      tag_338\n      jumpi\n        /* \"wwcc-contracts/contracts/wwccPool.sol\":8818:8823  false */\n      0x00\n        /* \"wwcc-contracts/contracts/wwccPool.sol\":8791:8803  separateBets */\n      dup4\n        /* \"wwcc-contracts/contracts/wwccPool.sol\":8804:8805  j */\n      dup3\n        /* \"wwcc-contracts/contracts/wwccPool.sol\":8791:8806  separateBets[j] */\n      dup2\n      mload\n      dup2\n      lt\n      tag_341\n      jumpi\n      tag_342\n      tag_343\n      jump\t// in\n    tag_342:\n    tag_341:\n      0x20\n      mul\n      0x20\n      add\n      add\n      mload\n        /* \"wwcc-contracts/contracts/wwccPool.sol\":8791:8815  separateBets[j].finished */\n      0xc0\n      add\n        /* \"wwcc-contracts/contracts/wwccPool.sol\":8791:8823  separateBets[j].finished = false */\n      swap1\n      iszero\n      iszero\n      swap1\n      dup2\n      iszero\n      iszero\n      dup2\n      mstore\n      pop\n        /* \"wwcc-contracts/contracts/wwccPool.sol\":8788:11149  if(separateBets[j].finished = false){... */\n      iszero\n      tag_344\n      jumpi\n        /* \"wwcc-contracts/contracts/wwccPool.sol\":8873:8874  2 */\n      0x02\n        /* \"wwcc-contracts/contracts/wwccPool.sol\":8851:8863  separateBets */\n      dup4\n        /* \"wwcc-contracts/contracts/wwccPool.sol\":8864:8865  j */\n      dup3\n        /* \"wwcc-contracts/contracts/wwccPool.sol\":8851:8866  separateBets[j] */\n      dup2\n      mload\n      dup2\n      lt\n      tag_345\n      jumpi\n      tag_346\n      tag_343\n      jump\t// in\n    tag_346:\n    tag_345:\n      0x20\n      mul\n      0x20\n      add\n      add\n      mload\n        /* \"wwcc-contracts/contracts/wwccPool.sol\":8851:8871  separateBets[j].kind */\n      0x20\n      add\n      mload\n        /* \"wwcc-contracts/contracts/wwccPool.sol\":8851:8874  separateBets[j].kind==2 */\n      eq\n        /* \"wwcc-contracts/contracts/wwccPool.sol\":8848:11129  if(separateBets[j].kind==2){... */\n      iszero\n      tag_347\n      jumpi\n        /* \"wwcc-contracts/contracts/wwccPool.sol\":8921:8970  (pool.sPool + pool.basal.div(2)).mul(85).div(100) */\n      tag_348\n        /* \"wwcc-contracts/contracts/wwccPool.sol\":8966:8969  100 */\n      0x64\n        /* \"wwcc-contracts/contracts/wwccPool.sol\":8921:8961  (pool.sPool + pool.basal.div(2)).mul(85) */\n      tag_349\n        /* \"wwcc-contracts/contracts/wwccPool.sol\":8958:8960  85 */\n      0x55\n        /* \"wwcc-contracts/contracts/wwccPool.sol\":8935:8952  pool.basal.div(2) */\n      tag_350\n        /* \"wwcc-contracts/contracts/wwccPool.sol\":8950:8951  2 */\n      0x02\n        /* \"wwcc-contracts/contracts/wwccPool.sol\":8935:8939  pool */\n      dup10\n        /* \"wwcc-contracts/contracts/wwccPool.sol\":8935:8945  pool.basal */\n      0xe0\n      add\n      mload\n        /* \"wwcc-contracts/contracts/wwccPool.sol\":8935:8949  pool.basal.div */\n      tag_22\n      swap1\n        /* \"wwcc-contracts/contracts/wwccPool.sol\":8935:8952  pool.basal.div(2) */\n      swap2\n      swap1\n      0xffffffff\n      and\n      jump\t// in\n    tag_350:\n        /* \"wwcc-contracts/contracts/wwccPool.sol\":8922:8926  pool */\n      dup9\n        /* \"wwcc-contracts/contracts/wwccPool.sol\":8922:8932  pool.sPool */\n      0xc0\n      add\n      mload\n        /* \"wwcc-contracts/contracts/wwccPool.sol\":8922:8952  pool.sPool + pool.basal.div(2) */\n      tag_351\n      swap2\n      swap1\n      tag_24\n      jump\t// in\n    tag_351:\n        /* \"wwcc-contracts/contracts/wwccPool.sol\":8921:8957  (pool.sPool + pool.basal.div(2)).mul */\n      tag_237\n      swap1\n        /* \"wwcc-contracts/contracts/wwccPool.sol\":8921:8961  (pool.sPool + pool.basal.div(2)).mul(85) */\n      swap2\n      swap1\n      0xffffffff\n      and\n      jump\t// in\n    tag_349:\n        /* \"wwcc-contracts/contracts/wwccPool.sol\":8921:8965  (pool.sPool + pool.basal.div(2)).mul(85).div */\n      tag_22\n      swap1\n        /* \"wwcc-contracts/contracts/wwccPool.sol\":8921:8970  (pool.sPool + pool.basal.div(2)).mul(85).div(100) */\n      swap2\n      swap1\n      0xffffffff\n      and\n      jump\t// in\n    tag_348:\n        /* \"wwcc-contracts/contracts/wwccPool.sol\":8903:8970  allRewardAmount = (pool.sPool + pool.basal.div(2)).mul(85).div(100) */\n      swap2\n      pop\n        /* \"wwcc-contracts/contracts/wwccPool.sol\":9025:9034  homeScore */\n      dup8\n        /* \"wwcc-contracts/contracts/wwccPool.sol\":8998:9010  separateBets */\n      dup4\n        /* \"wwcc-contracts/contracts/wwccPool.sol\":9011:9012  j */\n      dup3\n        /* \"wwcc-contracts/contracts/wwccPool.sol\":8998:9013  separateBets[j] */\n      dup2\n      mload\n      dup2\n      lt\n      tag_352\n      jumpi\n      tag_353\n      tag_343\n      jump\t// in\n    tag_353:\n    tag_352:\n      0x20\n      mul\n      0x20\n      add\n      add\n      mload\n        /* \"wwcc-contracts/contracts/wwccPool.sol\":8998:9023  separateBets[j].homeScore */\n      0x40\n      add\n      mload\n        /* \"wwcc-contracts/contracts/wwccPool.sol\":8998:9034  separateBets[j].homeScore==homeScore */\n      eq\n        /* \"wwcc-contracts/contracts/wwccPool.sol\":8998:9076  separateBets[j].homeScore==homeScore && separateBets[j].visitScore==visitScore */\n      dup1\n      iszero\n      tag_354\n      jumpi\n      pop\n        /* \"wwcc-contracts/contracts/wwccPool.sol\":9066:9076  visitScore */\n      dup7\n        /* \"wwcc-contracts/contracts/wwccPool.sol\":9038:9050  separateBets */\n      dup4\n        /* \"wwcc-contracts/contracts/wwccPool.sol\":9051:9052  j */\n      dup3\n        /* \"wwcc-contracts/contracts/wwccPool.sol\":9038:9053  separateBets[j] */\n      dup2\n      mload\n      dup2\n      lt\n      tag_355\n      jumpi\n      tag_356\n      tag_343\n      jump\t// in\n    tag_356:\n    tag_355:\n      0x20\n      mul\n      0x20\n      add\n      add\n      mload\n        /* \"wwcc-contracts/contracts/wwccPool.sol\":9038:9064  separateBets[j].visitScore */\n      0x60\n      add\n      mload\n        /* \"wwcc-contracts/contracts/wwccPool.sol\":9038:9076  separateBets[j].visitScore==visitScore */\n      eq\n        /* \"wwcc-contracts/contracts/wwccPool.sol\":8998:9076  separateBets[j].homeScore==homeScore && separateBets[j].visitScore==visitScore */\n    tag_354:\n        /* \"wwcc-contracts/contracts/wwccPool.sol\":8994:9792  if (separateBets[j].homeScore==homeScore && separateBets[j].visitScore==visitScore){... */\n      iszero\n      tag_357\n      jumpi\n        /* \"wwcc-contracts/contracts/wwccPool.sol\":9105:9134  uint256 singleScorePoolAmount */\n      0x00\n        /* \"wwcc-contracts/contracts/wwccPool.sol\":9137:9152  singleScorePool */\n      0x07\n        /* \"wwcc-contracts/contracts/wwccPool.sol\":9153:9165  separateBets */\n      dup5\n        /* \"wwcc-contracts/contracts/wwccPool.sol\":9166:9167  j */\n      dup4\n        /* \"wwcc-contracts/contracts/wwccPool.sol\":9153:9168  separateBets[j] */\n      dup2\n      mload\n      dup2\n      lt\n      tag_358\n      jumpi\n      tag_359\n      tag_343\n      jump\t// in\n    tag_359:\n    tag_358:\n      0x20\n      mul\n      0x20\n      add\n      add\n      mload\n        /* \"wwcc-contracts/contracts/wwccPool.sol\":9153:9179  separateBets[j].pickingKey */\n      0xa0\n      add\n      mload\n        /* \"wwcc-contracts/contracts/wwccPool.sol\":9137:9180  singleScorePool[separateBets[j].pickingKey] */\n      mload(0x40)\n      tag_360\n      swap2\n      swap1\n      tag_194\n      jump\t// in\n    tag_360:\n      swap1\n      dup2\n      mstore\n      0x20\n      add\n      mload(0x40)\n      dup1\n      swap2\n      sub\n      swap1\n      keccak256\n      sload\n        /* \"wwcc-contracts/contracts/wwccPool.sol\":9105:9180  uint256 singleScorePoolAmount = singleScorePool[separateBets[j].pickingKey] */\n      swap1\n      pop\n        /* \"wwcc-contracts/contracts/wwccPool.sol\":9208:9228  uint256 rewardAmount */\n      0x00\n        /* \"wwcc-contracts/contracts/wwccPool.sol\":9275:9296  singleScorePoolAmount */\n      dup2\n        /* \"wwcc-contracts/contracts/wwccPool.sol\":9249:9261  separateBets */\n      dup6\n        /* \"wwcc-contracts/contracts/wwccPool.sol\":9262:9263  j */\n      dup5\n        /* \"wwcc-contracts/contracts/wwccPool.sol\":9249:9264  separateBets[j] */\n      dup2\n      mload\n      dup2\n      lt\n      tag_361\n      jumpi\n      tag_362\n      tag_343\n      jump\t// in\n    tag_362:\n    tag_361:\n      0x20\n      mul\n      0x20\n      add\n      add\n      mload\n        /* \"wwcc-contracts/contracts/wwccPool.sol\":9249:9271  separateBets[j].weight */\n      0x00\n      add\n      mload\n        /* \"wwcc-contracts/contracts/wwccPool.sol\":9231:9246  allRewardAmount */\n      dup6\n        /* \"wwcc-contracts/contracts/wwccPool.sol\":9231:9271  allRewardAmount * separateBets[j].weight */\n      tag_363\n      swap2\n      swap1\n      tag_364\n      jump\t// in\n    tag_363:\n        /* \"wwcc-contracts/contracts/wwccPool.sol\":9231:9296  allRewardAmount * separateBets[j].weight /  singleScorePoolAmount */\n      tag_365\n      swap2\n      swap1\n      tag_101\n      jump\t// in\n    tag_365:\n        /* \"wwcc-contracts/contracts/wwccPool.sol\":9208:9296  uint256 rewardAmount = allRewardAmount * separateBets[j].weight /  singleScorePoolAmount */\n      swap1\n      pop\n        /* \"wwcc-contracts/contracts/wwccPool.sol\":9668:9680  rewardAmount */\n      dup1\n        /* \"wwcc-contracts/contracts/wwccPool.sol\":9630:9640  voteAmount */\n      0x04\n        /* \"wwcc-contracts/contracts/wwccPool.sol\":9630:9664  voteAmount[separateBets[j].joiner] */\n      0x00\n        /* \"wwcc-contracts/contracts/wwccPool.sol\":9641:9653  separateBets */\n      dup8\n        /* \"wwcc-contracts/contracts/wwccPool.sol\":9654:9655  j */\n      dup7\n        /* \"wwcc-contracts/contracts/wwccPool.sol\":9641:9656  separateBets[j] */\n      dup2\n      mload\n      dup2\n      lt\n      tag_366\n      jumpi\n      tag_367\n      tag_343\n      jump\t// in\n    tag_367:\n    tag_366:\n      0x20\n      mul\n      0x20\n      add\n      add\n      mload\n        /* \"wwcc-contracts/contracts/wwccPool.sol\":9641:9663  separateBets[j].joiner */\n      0x80\n      add\n      mload\n        /* \"wwcc-contracts/contracts/wwccPool.sol\":9630:9664  voteAmount[separateBets[j].joiner] */\n      0xffffffffffffffffffffffffffffffffffffffff\n      and\n      0xffffffffffffffffffffffffffffffffffffffff\n      and\n      dup2\n      mstore\n      0x20\n      add\n      swap1\n      dup2\n      mstore\n      0x20\n      add\n      0x00\n      keccak256\n      0x00\n        /* \"wwcc-contracts/contracts/wwccPool.sol\":9630:9680  voteAmount[separateBets[j].joiner] += rewardAmount */\n      dup3\n      dup3\n      sload\n      tag_368\n      swap2\n      swap1\n      tag_24\n      jump\t// in\n    tag_368:\n      swap3\n      pop\n      pop\n      dup2\n      swap1\n      sstore\n      pop\n        /* \"wwcc-contracts/contracts/wwccPool.sol\":9735:9739  true */\n      0x01\n        /* \"wwcc-contracts/contracts/wwccPool.sol\":9708:9720  separateBets */\n      dup6\n        /* \"wwcc-contracts/contracts/wwccPool.sol\":9721:9722  j */\n      dup5\n        /* \"wwcc-contracts/contracts/wwccPool.sol\":9708:9723  separateBets[j] */\n      dup2\n      mload\n      dup2\n      lt\n      tag_369\n      jumpi\n      tag_370\n      tag_343\n      jump\t// in\n    tag_370:\n    tag_369:\n      0x20\n      mul\n      0x20\n      add\n      add\n      mload\n        /* \"wwcc-contracts/contracts/wwccPool.sol\":9708:9732  separateBets[j].finished */\n      0xc0\n      add\n        /* \"wwcc-contracts/contracts/wwccPool.sol\":9708:9739  separateBets[j].finished = true */\n      swap1\n      iszero\n      iszero\n      swap1\n      dup2\n      iszero\n      iszero\n      dup2\n      mstore\n      pop\n      pop\n        /* \"wwcc-contracts/contracts/wwccPool.sol\":9077:9792  {... */\n      pop\n      pop\n        /* \"wwcc-contracts/contracts/wwccPool.sol\":8994:9792  if (separateBets[j].homeScore==homeScore && separateBets[j].visitScore==visitScore){... */\n    tag_357:\n        /* \"wwcc-contracts/contracts/wwccPool.sol\":8848:11129  if(separateBets[j].kind==2){... */\n      jump(tag_371)\n    tag_347:\n        /* \"wwcc-contracts/contracts/wwccPool.sol\":9867:9873  result */\n      dup6\n        /* \"wwcc-contracts/contracts/wwccPool.sol\":9845:9857  separateBets */\n      dup4\n        /* \"wwcc-contracts/contracts/wwccPool.sol\":9858:9859  j */\n      dup3\n        /* \"wwcc-contracts/contracts/wwccPool.sol\":9845:9860  separateBets[j] */\n      dup2\n      mload\n      dup2\n      lt\n      tag_372\n      jumpi\n      tag_373\n      tag_343\n      jump\t// in\n    tag_373:\n    tag_372:\n      0x20\n      mul\n      0x20\n      add\n      add\n      mload\n        /* \"wwcc-contracts/contracts/wwccPool.sol\":9845:9865  separateBets[j].kind */\n      0x20\n      add\n      mload\n        /* \"wwcc-contracts/contracts/wwccPool.sol\":9845:9873  separateBets[j].kind==result */\n      eq\n        /* \"wwcc-contracts/contracts/wwccPool.sol\":9842:11107  if(separateBets[j].kind==result){... */\n      iszero\n      tag_374\n      jumpi\n        /* \"wwcc-contracts/contracts/wwccPool.sol\":9920:9990  (pool.wPool+pool.lPool+pool.dPool+ pool.basal.div(2)).mul(85).div(100) */\n      tag_375\n        /* \"wwcc-contracts/contracts/wwccPool.sol\":9986:9989  100 */\n      0x64\n        /* \"wwcc-contracts/contracts/wwccPool.sol\":9920:9981  (pool.wPool+pool.lPool+pool.dPool+ pool.basal.div(2)).mul(85) */\n      tag_376\n        /* \"wwcc-contracts/contracts/wwccPool.sol\":9978:9980  85 */\n      0x55\n        /* \"wwcc-contracts/contracts/wwccPool.sol\":9955:9972  pool.basal.div(2) */\n      tag_377\n        /* \"wwcc-contracts/contracts/wwccPool.sol\":9970:9971  2 */\n      0x02\n        /* \"wwcc-contracts/contracts/wwccPool.sol\":9955:9959  pool */\n      dup10\n        /* \"wwcc-contracts/contracts/wwccPool.sol\":9955:9965  pool.basal */\n      0xe0\n      add\n      mload\n        /* \"wwcc-contracts/contracts/wwccPool.sol\":9955:9969  pool.basal.div */\n      tag_22\n      swap1\n        /* \"wwcc-contracts/contracts/wwccPool.sol\":9955:9972  pool.basal.div(2) */\n      swap2\n      swap1\n      0xffffffff\n      and\n      jump\t// in\n    tag_377:\n        /* \"wwcc-contracts/contracts/wwccPool.sol\":9943:9947  pool */\n      dup9\n        /* \"wwcc-contracts/contracts/wwccPool.sol\":9943:9953  pool.dPool */\n      0x80\n      add\n      mload\n        /* \"wwcc-contracts/contracts/wwccPool.sol\":9932:9936  pool */\n      dup10\n        /* \"wwcc-contracts/contracts/wwccPool.sol\":9932:9942  pool.lPool */\n      0xa0\n      add\n      mload\n        /* \"wwcc-contracts/contracts/wwccPool.sol\":9921:9925  pool */\n      dup11\n        /* \"wwcc-contracts/contracts/wwccPool.sol\":9921:9931  pool.wPool */\n      0x60\n      add\n      mload\n        /* \"wwcc-contracts/contracts/wwccPool.sol\":9921:9942  pool.wPool+pool.lPool */\n      tag_378\n      swap2\n      swap1\n      tag_24\n      jump\t// in\n    tag_378:\n        /* \"wwcc-contracts/contracts/wwccPool.sol\":9921:9953  pool.wPool+pool.lPool+pool.dPool */\n      tag_379\n      swap2\n      swap1\n      tag_24\n      jump\t// in\n    tag_379:\n        /* \"wwcc-contracts/contracts/wwccPool.sol\":9921:9972  pool.wPool+pool.lPool+pool.dPool+ pool.basal.div(2) */\n      tag_380\n      swap2\n      swap1\n      tag_24\n      jump\t// in\n    tag_380:\n        /* \"wwcc-contracts/contracts/wwccPool.sol\":9920:9977  (pool.wPool+pool.lPool+pool.dPool+ pool.basal.div(2)).mul */\n      tag_237\n      swap1\n        /* \"wwcc-contracts/contracts/wwccPool.sol\":9920:9981  (pool.wPool+pool.lPool+pool.dPool+ pool.basal.div(2)).mul(85) */\n      swap2\n      swap1\n      0xffffffff\n      and\n      jump\t// in\n    tag_376:\n        /* \"wwcc-contracts/contracts/wwccPool.sol\":9920:9985  (pool.wPool+pool.lPool+pool.dPool+ pool.basal.div(2)).mul(85).div */\n      tag_22\n      swap1\n        /* \"wwcc-contracts/contracts/wwccPool.sol\":9920:9990  (pool.wPool+pool.lPool+pool.dPool+ pool.basal.div(2)).mul(85).div(100) */\n      swap2\n      swap1\n      0xffffffff\n      and\n      jump\t// in\n    tag_375:\n        /* \"wwcc-contracts/contracts/wwccPool.sol\":9902:9990  allRewardAmount = (pool.wPool+pool.lPool+pool.dPool+ pool.basal.div(2)).mul(85).div(100) */\n      swap2\n      pop\n        /* \"wwcc-contracts/contracts/wwccPool.sol\":10018:10040  uint256 pickPoolAmount */\n      0x00\n        /* \"wwcc-contracts/contracts/wwccPool.sol\":10100:10101  0 */\n      dup1\n        /* \"wwcc-contracts/contracts/wwccPool.sol\":10076:10088  separateBets */\n      dup5\n        /* \"wwcc-contracts/contracts/wwccPool.sol\":10089:10090  j */\n      dup4\n        /* \"wwcc-contracts/contracts/wwccPool.sol\":10076:10091  separateBets[j] */\n      dup2\n      mload\n      dup2\n      lt\n      tag_381\n      jumpi\n      tag_382\n      tag_343\n      jump\t// in\n    tag_382:\n    tag_381:\n      0x20\n      mul\n      0x20\n      add\n      add\n      mload\n        /* \"wwcc-contracts/contracts/wwccPool.sol\":10076:10096  separateBets[j].kind */\n      0x20\n      add\n      mload\n        /* \"wwcc-contracts/contracts/wwccPool.sol\":10076:10101  separateBets[j].kind == 0 */\n      eq\n        /* \"wwcc-contracts/contracts/wwccPool.sol\":10072:10207  if (separateBets[j].kind == 0){... */\n      iszero\n      tag_383\n      jumpi\n        /* \"wwcc-contracts/contracts/wwccPool.sol\":10151:10178  pool.lPool.mul(85).div(100) */\n      tag_384\n        /* \"wwcc-contracts/contracts/wwccPool.sol\":10174:10177  100 */\n      0x64\n        /* \"wwcc-contracts/contracts/wwccPool.sol\":10151:10169  pool.lPool.mul(85) */\n      tag_385\n        /* \"wwcc-contracts/contracts/wwccPool.sol\":10166:10168  85 */\n      0x55\n        /* \"wwcc-contracts/contracts/wwccPool.sol\":10151:10155  pool */\n      dup9\n        /* \"wwcc-contracts/contracts/wwccPool.sol\":10151:10161  pool.lPool */\n      0xa0\n      add\n      mload\n        /* \"wwcc-contracts/contracts/wwccPool.sol\":10151:10165  pool.lPool.mul */\n      tag_237\n      swap1\n        /* \"wwcc-contracts/contracts/wwccPool.sol\":10151:10169  pool.lPool.mul(85) */\n      swap2\n      swap1\n      0xffffffff\n      and\n      jump\t// in\n    tag_385:\n        /* \"wwcc-contracts/contracts/wwccPool.sol\":10151:10173  pool.lPool.mul(85).div */\n      tag_22\n      swap1\n        /* \"wwcc-contracts/contracts/wwccPool.sol\":10151:10178  pool.lPool.mul(85).div(100) */\n      swap2\n      swap1\n      0xffffffff\n      and\n      jump\t// in\n    tag_384:\n        /* \"wwcc-contracts/contracts/wwccPool.sol\":10134:10178  pickPoolAmount = pool.lPool.mul(85).div(100) */\n      swap1\n      pop\n        /* \"wwcc-contracts/contracts/wwccPool.sol\":10072:10207  if (separateBets[j].kind == 0){... */\n    tag_383:\n        /* \"wwcc-contracts/contracts/wwccPool.sol\":10262:10263  1 */\n      0x01\n        /* \"wwcc-contracts/contracts/wwccPool.sol\":10238:10250  separateBets */\n      dup5\n        /* \"wwcc-contracts/contracts/wwccPool.sol\":10251:10252  j */\n      dup4\n        /* \"wwcc-contracts/contracts/wwccPool.sol\":10238:10253  separateBets[j] */\n      dup2\n      mload\n      dup2\n      lt\n      tag_386\n      jumpi\n      tag_387\n      tag_343\n      jump\t// in\n    tag_387:\n    tag_386:\n      0x20\n      mul\n      0x20\n      add\n      add\n      mload\n        /* \"wwcc-contracts/contracts/wwccPool.sol\":10238:10258  separateBets[j].kind */\n      0x20\n      add\n      mload\n        /* \"wwcc-contracts/contracts/wwccPool.sol\":10238:10263  separateBets[j].kind == 1 */\n      eq\n        /* \"wwcc-contracts/contracts/wwccPool.sol\":10234:10369  if (separateBets[j].kind == 1){... */\n      iszero\n      tag_388\n      jumpi\n        /* \"wwcc-contracts/contracts/wwccPool.sol\":10313:10340  pool.dPool.mul(85).div(100) */\n      tag_389\n        /* \"wwcc-contracts/contracts/wwccPool.sol\":10336:10339  100 */\n      0x64\n        /* \"wwcc-contracts/contracts/wwccPool.sol\":10313:10331  pool.dPool.mul(85) */\n      tag_390\n        /* \"wwcc-contracts/contracts/wwccPool.sol\":10328:10330  85 */\n      0x55\n        /* \"wwcc-contracts/contracts/wwccPool.sol\":10313:10317  pool */\n      dup9\n        /* \"wwcc-contracts/contracts/wwccPool.sol\":10313:10323  pool.dPool */\n      0x80\n      add\n      mload\n        /* \"wwcc-contracts/contracts/wwccPool.sol\":10313:10327  pool.dPool.mul */\n      tag_237\n      swap1\n        /* \"wwcc-contracts/contracts/wwccPool.sol\":10313:10331  pool.dPool.mul(85) */\n      swap2\n      swap1\n      0xffffffff\n      and\n      jump\t// in\n    tag_390:\n        /* \"wwcc-contracts/contracts/wwccPool.sol\":10313:10335  pool.dPool.mul(85).div */\n      tag_22\n      swap1\n        /* \"wwcc-contracts/contracts/wwccPool.sol\":10313:10340  pool.dPool.mul(85).div(100) */\n      swap2\n      swap1\n      0xffffffff\n      and\n      jump\t// in\n    tag_389:\n        /* \"wwcc-contracts/contracts/wwccPool.sol\":10296:10340  pickPoolAmount = pool.dPool.mul(85).div(100) */\n      swap1\n      pop\n        /* \"wwcc-contracts/contracts/wwccPool.sol\":10234:10369  if (separateBets[j].kind == 1){... */\n    tag_388:\n        /* \"wwcc-contracts/contracts/wwccPool.sol\":10424:10425  3 */\n      0x03\n        /* \"wwcc-contracts/contracts/wwccPool.sol\":10400:10412  separateBets */\n      dup5\n        /* \"wwcc-contracts/contracts/wwccPool.sol\":10413:10414  j */\n      dup4\n        /* \"wwcc-contracts/contracts/wwccPool.sol\":10400:10415  separateBets[j] */\n      dup2\n      mload\n      dup2\n      lt\n      tag_391\n      jumpi\n      tag_392\n      tag_343\n      jump\t// in\n    tag_392:\n    tag_391:\n      0x20\n      mul\n      0x20\n      add\n      add\n      mload\n        /* \"wwcc-contracts/contracts/wwccPool.sol\":10400:10420  separateBets[j].kind */\n      0x20\n      add\n      mload\n        /* \"wwcc-contracts/contracts/wwccPool.sol\":10400:10425  separateBets[j].kind == 3 */\n      eq\n        /* \"wwcc-contracts/contracts/wwccPool.sol\":10396:10531  if (separateBets[j].kind == 3){... */\n      iszero\n      tag_393\n      jumpi\n        /* \"wwcc-contracts/contracts/wwccPool.sol\":10475:10502  pool.wPool.mul(85).div(100) */\n      tag_394\n        /* \"wwcc-contracts/contracts/wwccPool.sol\":10498:10501  100 */\n      0x64\n        /* \"wwcc-contracts/contracts/wwccPool.sol\":10475:10493  pool.wPool.mul(85) */\n      tag_395\n        /* \"wwcc-contracts/contracts/wwccPool.sol\":10490:10492  85 */\n      0x55\n        /* \"wwcc-contracts/contracts/wwccPool.sol\":10475:10479  pool */\n      dup9\n        /* \"wwcc-contracts/contracts/wwccPool.sol\":10475:10485  pool.wPool */\n      0x60\n      add\n      mload\n        /* \"wwcc-contracts/contracts/wwccPool.sol\":10475:10489  pool.wPool.mul */\n      tag_237\n      swap1\n        /* \"wwcc-contracts/contracts/wwccPool.sol\":10475:10493  pool.wPool.mul(85) */\n      swap2\n      swap1\n      0xffffffff\n      and\n      jump\t// in\n    tag_395:\n        /* \"wwcc-contracts/contracts/wwccPool.sol\":10475:10497  pool.wPool.mul(85).div */\n      tag_22\n      swap1\n        /* \"wwcc-contracts/contracts/wwccPool.sol\":10475:10502  pool.wPool.mul(85).div(100) */\n      swap2\n      swap1\n      0xffffffff\n      and\n      jump\t// in\n    tag_394:\n        /* \"wwcc-contracts/contracts/wwccPool.sol\":10458:10502  pickPoolAmount = pool.wPool.mul(85).div(100) */\n      swap1\n      pop\n        /* \"wwcc-contracts/contracts/wwccPool.sol\":10396:10531  if (separateBets[j].kind == 3){... */\n    tag_393:\n        /* \"wwcc-contracts/contracts/wwccPool.sol\":10558:10578  uint256 rewardAmount */\n      0x00\n        /* \"wwcc-contracts/contracts/wwccPool.sol\":10625:10639  pickPoolAmount */\n      dup2\n        /* \"wwcc-contracts/contracts/wwccPool.sol\":10599:10611  separateBets */\n      dup6\n        /* \"wwcc-contracts/contracts/wwccPool.sol\":10612:10613  j */\n      dup5\n        /* \"wwcc-contracts/contracts/wwccPool.sol\":10599:10614  separateBets[j] */\n      dup2\n      mload\n      dup2\n      lt\n      tag_396\n      jumpi\n      tag_397\n      tag_343\n      jump\t// in\n    tag_397:\n    tag_396:\n      0x20\n      mul\n      0x20\n      add\n      add\n      mload\n        /* \"wwcc-contracts/contracts/wwccPool.sol\":10599:10621  separateBets[j].weight */\n      0x00\n      add\n      mload\n        /* \"wwcc-contracts/contracts/wwccPool.sol\":10581:10596  allRewardAmount */\n      dup6\n        /* \"wwcc-contracts/contracts/wwccPool.sol\":10581:10621  allRewardAmount * separateBets[j].weight */\n      tag_398\n      swap2\n      swap1\n      tag_364\n      jump\t// in\n    tag_398:\n        /* \"wwcc-contracts/contracts/wwccPool.sol\":10581:10639  allRewardAmount * separateBets[j].weight /  pickPoolAmount */\n      tag_399\n      swap2\n      swap1\n      tag_101\n      jump\t// in\n    tag_399:\n        /* \"wwcc-contracts/contracts/wwccPool.sol\":10558:10639  uint256 rewardAmount = allRewardAmount * separateBets[j].weight /  pickPoolAmount */\n      swap1\n      pop\n        /* \"wwcc-contracts/contracts/wwccPool.sol\":11011:11023  rewardAmount */\n      dup1\n        /* \"wwcc-contracts/contracts/wwccPool.sol\":10973:10983  voteAmount */\n      0x04\n        /* \"wwcc-contracts/contracts/wwccPool.sol\":10973:11007  voteAmount[separateBets[j].joiner] */\n      0x00\n        /* \"wwcc-contracts/contracts/wwccPool.sol\":10984:10996  separateBets */\n      dup8\n        /* \"wwcc-contracts/contracts/wwccPool.sol\":10997:10998  j */\n      dup7\n        /* \"wwcc-contracts/contracts/wwccPool.sol\":10984:10999  separateBets[j] */\n      dup2\n      mload\n      dup2\n      lt\n      tag_400\n      jumpi\n      tag_401\n      tag_343\n      jump\t// in\n    tag_401:\n    tag_400:\n      0x20\n      mul\n      0x20\n      add\n      add\n      mload\n        /* \"wwcc-contracts/contracts/wwccPool.sol\":10984:11006  separateBets[j].joiner */\n      0x80\n      add\n      mload\n        /* \"wwcc-contracts/contracts/wwccPool.sol\":10973:11007  voteAmount[separateBets[j].joiner] */\n      0xffffffffffffffffffffffffffffffffffffffff\n      and\n      0xffffffffffffffffffffffffffffffffffffffff\n      and\n      dup2\n      mstore\n      0x20\n      add\n      swap1\n      dup2\n      mstore\n      0x20\n      add\n      0x00\n      keccak256\n      0x00\n        /* \"wwcc-contracts/contracts/wwccPool.sol\":10973:11023  voteAmount[separateBets[j].joiner] += rewardAmount */\n      dup3\n      dup3\n      sload\n      tag_402\n      swap2\n      swap1\n      tag_24\n      jump\t// in\n    tag_402:\n      swap3\n      pop\n      pop\n      dup2\n      swap1\n      sstore\n      pop\n        /* \"wwcc-contracts/contracts/wwccPool.sol\":11078:11082  true */\n      0x01\n        /* \"wwcc-contracts/contracts/wwccPool.sol\":11051:11063  separateBets */\n      dup6\n        /* \"wwcc-contracts/contracts/wwccPool.sol\":11064:11065  j */\n      dup5\n        /* \"wwcc-contracts/contracts/wwccPool.sol\":11051:11066  separateBets[j] */\n      dup2\n      mload\n      dup2\n      lt\n      tag_403\n      jumpi\n      tag_404\n      tag_343\n      jump\t// in\n    tag_404:\n    tag_403:\n      0x20\n      mul\n      0x20\n      add\n      add\n      mload\n        /* \"wwcc-contracts/contracts/wwccPool.sol\":11051:11075  separateBets[j].finished */\n      0xc0\n      add\n        /* \"wwcc-contracts/contracts/wwccPool.sol\":11051:11082  separateBets[j].finished = true */\n      swap1\n      iszero\n      iszero\n      swap1\n      dup2\n      iszero\n      iszero\n      dup2\n      mstore\n      pop\n      pop\n        /* \"wwcc-contracts/contracts/wwccPool.sol\":9874:11107  {... */\n      pop\n      pop\n        /* \"wwcc-contracts/contracts/wwccPool.sol\":9842:11107  if(separateBets[j].kind==result){... */\n    tag_374:\n        /* \"wwcc-contracts/contracts/wwccPool.sol\":8848:11129  if(separateBets[j].kind==2){... */\n    tag_371:\n        /* \"wwcc-contracts/contracts/wwccPool.sol\":8788:11149  if(separateBets[j].finished = false){... */\n    tag_344:\n        /* \"wwcc-contracts/contracts/wwccPool.sol\":8746:8750  j ++ */\n      dup1\n      dup1\n      tag_405\n      swap1\n      tag_406\n      jump\t// in\n    tag_405:\n      swap2\n      pop\n      pop\n        /* \"wwcc-contracts/contracts/wwccPool.sol\":8652:11169  for (... */\n      jump(tag_337)\n    tag_338:\n      pop\n        /* \"wwcc-contracts/contracts/wwccPool.sol\":11202:11206  true */\n      0x01\n        /* \"wwcc-contracts/contracts/wwccPool.sol\":11186:11190  pool */\n      dup4\n        /* \"wwcc-contracts/contracts/wwccPool.sol\":11186:11199  pool.finished */\n      0x0140\n      add\n        /* \"wwcc-contracts/contracts/wwccPool.sol\":11186:11206  pool.finished = true */\n      swap1\n      iszero\n      iszero\n      swap1\n      dup2\n      iszero\n      iszero\n      dup2\n      mstore\n      pop\n      pop\n        /* \"wwcc-contracts/contracts/wwccPool.sol\":8124:11341  {... */\n      pop\n      pop\n      pop\n        /* \"wwcc-contracts/contracts/wwccPool.sol\":11356:11360  true */\n      0x01\n        /* \"wwcc-contracts/contracts/wwccPool.sol\":11349:11360  return true */\n      swap1\n      pop\n        /* \"wwcc-contracts/contracts/wwccPool.sol\":7910:11367  function Award(bytes32 poolKey,uint256 homeScore,uint256 visitScore,uint256 result)  external onlyManager  payable returns(bool){... */\n      swap5\n      swap4\n      pop\n      pop\n      pop\n      pop\n      jump\t// out\n        /* \"wwcc-contracts/contracts/wwccPool.sol\":6470:6883  function voteWithdrawal(address joiner,uint256 amount) external onlyManager payable returns (bool){... */\n    tag_81:\n        /* \"wwcc-contracts/contracts/wwccPool.sol\":6563:6567  bool */\n      0x00\n        /* \"wwcc-contracts/contracts/wwccPool.sol\":14364:14369  owner */\n      dup1\n      0x00\n      swap1\n      sload\n      swap1\n      0x0100\n      exp\n      swap1\n      div\n      0xffffffffffffffffffffffffffffffffffffffff\n      and\n        /* \"wwcc-contracts/contracts/wwccPool.sol\":14350:14369  msg.sender == owner */\n      0xffffffffffffffffffffffffffffffffffffffff\n      and\n        /* \"wwcc-contracts/contracts/wwccPool.sol\":14350:14360  msg.sender */\n      caller\n        /* \"wwcc-contracts/contracts/wwccPool.sol\":14350:14369  msg.sender == owner */\n      0xffffffffffffffffffffffffffffffffffffffff\n      and\n      eq\n        /* \"wwcc-contracts/contracts/wwccPool.sol\":14329:14420  require(... */\n      tag_408\n      jumpi\n      mload(0x40)\n      0x08c379a000000000000000000000000000000000000000000000000000000000\n      dup2\n      mstore\n      0x04\n      add\n      tag_409\n      swap1\n      tag_105\n      jump\t// in\n    tag_409:\n      mload(0x40)\n      dup1\n      swap2\n      sub\n      swap1\n      revert\n    tag_408:\n        /* \"wwcc-contracts/contracts/wwccPool.sol\":6603:6609  amount */\n      dup2\n        /* \"wwcc-contracts/contracts/wwccPool.sol\":6581:6591  voteAmount */\n      0x04\n        /* \"wwcc-contracts/contracts/wwccPool.sol\":6581:6599  voteAmount[joiner] */\n      0x00\n        /* \"wwcc-contracts/contracts/wwccPool.sol\":6592:6598  joiner */\n      dup6\n        /* \"wwcc-contracts/contracts/wwccPool.sol\":6581:6599  voteAmount[joiner] */\n      0xffffffffffffffffffffffffffffffffffffffff\n      and\n      0xffffffffffffffffffffffffffffffffffffffff\n      and\n      dup2\n      mstore\n      0x20\n      add\n      swap1\n      dup2\n      mstore\n      0x20\n      add\n      0x00\n      keccak256\n      sload\n        /* \"wwcc-contracts/contracts/wwccPool.sol\":6581:6609  voteAmount[joiner] >= amount */\n      lt\n      iszero\n        /* \"wwcc-contracts/contracts/wwccPool.sol\":6581:6636  voteAmount[joiner] >= amount && voteAmount[joiner] >= 0 */\n      dup1\n      iszero\n      tag_411\n      jumpi\n      pop\n        /* \"wwcc-contracts/contracts/wwccPool.sol\":6635:6636  0 */\n      0x00\n        /* \"wwcc-contracts/contracts/wwccPool.sol\":6613:6623  voteAmount */\n      0x04\n        /* \"wwcc-contracts/contracts/wwccPool.sol\":6613:6631  voteAmount[joiner] */\n      0x00\n        /* \"wwcc-contracts/contracts/wwccPool.sol\":6624:6630  joiner */\n      dup6\n        /* \"wwcc-contracts/contracts/wwccPool.sol\":6613:6631  voteAmount[joiner] */\n      0xffffffffffffffffffffffffffffffffffffffff\n      and\n      0xffffffffffffffffffffffffffffffffffffffff\n      and\n      dup2\n      mstore\n      0x20\n      add\n      swap1\n      dup2\n      mstore\n      0x20\n      add\n      0x00\n      keccak256\n      sload\n        /* \"wwcc-contracts/contracts/wwccPool.sol\":6613:6636  voteAmount[joiner] >= 0 */\n      lt\n      iszero\n        /* \"wwcc-contracts/contracts/wwccPool.sol\":6581:6636  voteAmount[joiner] >= amount && voteAmount[joiner] >= 0 */\n    tag_411:\n        /* \"wwcc-contracts/contracts/wwccPool.sol\":6578:6856  if(voteAmount[joiner] >= amount && voteAmount[joiner] >= 0){... */\n      iszero\n      tag_412\n      jumpi\n        /* \"wwcc-contracts/contracts/wwccPool.sol\":6651:6684  address payable toAddress_address */\n      0x00\n        /* \"wwcc-contracts/contracts/wwccPool.sol\":6695:6701  joiner */\n      dup4\n        /* \"wwcc-contracts/contracts/wwccPool.sol\":6651:6702  address payable toAddress_address = payable(joiner) */\n      swap1\n      pop\n        /* \"wwcc-contracts/contracts/wwccPool.sol\":6716:6733  toAddress_address */\n      dup1\n        /* \"wwcc-contracts/contracts/wwccPool.sol\":6716:6742  toAddress_address.transfer */\n      0xffffffffffffffffffffffffffffffffffffffff\n      and\n        /* \"wwcc-contracts/contracts/wwccPool.sol\":6716:6785  toAddress_address.transfer(voteAmount[joiner].mul(10000000000000000)) */\n      0x08fc\n        /* \"wwcc-contracts/contracts/wwccPool.sol\":6743:6784  voteAmount[joiner].mul(10000000000000000) */\n      tag_413\n        /* \"wwcc-contracts/contracts/wwccPool.sol\":6766:6783  10000000000000000 */\n      0x2386f26fc10000\n        /* \"wwcc-contracts/contracts/wwccPool.sol\":6743:6753  voteAmount */\n      0x04\n        /* \"wwcc-contracts/contracts/wwccPool.sol\":6743:6761  voteAmount[joiner] */\n      0x00\n        /* \"wwcc-contracts/contracts/wwccPool.sol\":6754:6760  joiner */\n      dup10\n        /* \"wwcc-contracts/contracts/wwccPool.sol\":6743:6761  voteAmount[joiner] */\n      0xffffffffffffffffffffffffffffffffffffffff\n      and\n      0xffffffffffffffffffffffffffffffffffffffff\n      and\n      dup2\n      mstore\n      0x20\n      add\n      swap1\n      dup2\n      mstore\n      0x20\n      add\n      0x00\n      keccak256\n      sload\n        /* \"wwcc-contracts/contracts/wwccPool.sol\":6743:6765  voteAmount[joiner].mul */\n      tag_237\n      swap1\n        /* \"wwcc-contracts/contracts/wwccPool.sol\":6743:6784  voteAmount[joiner].mul(10000000000000000) */\n      swap2\n      swap1\n      0xffffffff\n      and\n      jump\t// in\n    tag_413:\n        /* \"wwcc-contracts/contracts/wwccPool.sol\":6716:6785  toAddress_address.transfer(voteAmount[joiner].mul(10000000000000000)) */\n      swap1\n      dup2\n      iszero\n      mul\n      swap1\n      mload(0x40)\n      0x00\n      mload(0x40)\n      dup1\n      dup4\n      sub\n      dup2\n      dup6\n      dup9\n      dup9\n      call\n      swap4\n      pop\n      pop\n      pop\n      pop\n      iszero\n      dup1\n      iszero\n      tag_415\n      jumpi\n      returndatasize\n      0x00\n      dup1\n      returndatacopy\n      revert(0x00, returndatasize)\n    tag_415:\n      pop\n        /* \"wwcc-contracts/contracts/wwccPool.sol\":6637:6796  {... */\n      pop\n        /* \"wwcc-contracts/contracts/wwccPool.sol\":6578:6856  if(voteAmount[joiner] >= amount && voteAmount[joiner] >= 0){... */\n      jump(tag_416)\n    tag_412:\n        /* \"wwcc-contracts/contracts/wwccPool.sol\":6814:6845  revert(\"not enough voteAmount\") */\n      mload(0x40)\n      0x08c379a000000000000000000000000000000000000000000000000000000000\n      dup2\n      mstore\n      0x04\n      add\n      tag_417\n      swap1\n      tag_151\n      jump\t// in\n    tag_417:\n      mload(0x40)\n      dup1\n      swap2\n      sub\n      swap1\n      revert\n        /* \"wwcc-contracts/contracts/wwccPool.sol\":6578:6856  if(voteAmount[joiner] >= amount && voteAmount[joiner] >= 0){... */\n    tag_416:\n        /* \"wwcc-contracts/contracts/wwccPool.sol\":6872:6876  true */\n      0x01\n        /* \"wwcc-contracts/contracts/wwccPool.sol\":6865:6876  return true */\n      swap1\n      pop\n        /* \"wwcc-contracts/contracts/wwccPool.sol\":6470:6883  function voteWithdrawal(address joiner,uint256 amount) external onlyManager payable returns (bool){... */\n      swap3\n      swap2\n      pop\n      pop\n      jump\t// out\n        /* \"wwcc-contracts/contracts/wwccPool.sol\":7734:7839  function CheckVoteTickets() external view returns (uint256){... */\n    tag_85:\n        /* \"wwcc-contracts/contracts/wwccPool.sol\":7785:7792  uint256 */\n      0x00\n        /* \"wwcc-contracts/contracts/wwccPool.sol\":7810:7820  voteAmount */\n      0x04\n        /* \"wwcc-contracts/contracts/wwccPool.sol\":7810:7832  voteAmount[msg.sender] */\n      0x00\n        /* \"wwcc-contracts/contracts/wwccPool.sol\":7821:7831  msg.sender */\n      caller\n        /* \"wwcc-contracts/contracts/wwccPool.sol\":7810:7832  voteAmount[msg.sender] */\n      0xffffffffffffffffffffffffffffffffffffffff\n      and\n      0xffffffffffffffffffffffffffffffffffffffff\n      and\n      dup2\n      mstore\n      0x20\n      add\n      swap1\n      dup2\n      mstore\n      0x20\n      add\n      0x00\n      keccak256\n      sload\n        /* \"wwcc-contracts/contracts/wwccPool.sol\":7803:7832  return voteAmount[msg.sender] */\n      swap1\n      pop\n        /* \"wwcc-contracts/contracts/wwccPool.sol\":7734:7839  function CheckVoteTickets() external view returns (uint256){... */\n      swap1\n      jump\t// out\n        /* \"wwcc-contracts/contracts/wwccPool.sol\":7325:7423  function getAllPoolKeys() external view returns (bytes32[] memory){... */\n    tag_89:\n        /* \"wwcc-contracts/contracts/wwccPool.sol\":7374:7390  bytes32[] memory */\n      0x60\n        /* \"wwcc-contracts/contracts/wwccPool.sol\":7408:7416  poolKeys */\n      0x02\n        /* \"wwcc-contracts/contracts/wwccPool.sol\":7401:7416  return poolKeys */\n      dup1\n      sload\n      dup1\n      0x20\n      mul\n      0x20\n      add\n      mload(0x40)\n      swap1\n      dup2\n      add\n      0x40\n      mstore\n      dup1\n      swap3\n      swap2\n      swap1\n      dup2\n      dup2\n      mstore\n      0x20\n      add\n      dup3\n      dup1\n      sload\n      dup1\n      iszero\n      tag_420\n      jumpi\n      0x20\n      mul\n      dup3\n      add\n      swap2\n      swap1\n      0x00\n      mstore\n      keccak256(0x00, 0x20)\n      swap1\n    tag_421:\n      dup2\n      sload\n      dup2\n      mstore\n      0x20\n      add\n      swap1\n      0x01\n      add\n      swap1\n      dup1\n      dup4\n      gt\n      tag_421\n      jumpi\n    tag_420:\n      pop\n      pop\n      pop\n      pop\n      pop\n      swap1\n      pop\n        /* \"wwcc-contracts/contracts/wwccPool.sol\":7325:7423  function getAllPoolKeys() external view returns (bytes32[] memory){... */\n      swap1\n      jump\t// out\n        /* \"wwcc-contracts/contracts/wwccPool.sol\":11666:12314  function getPool(bytes32 poolKey) external view returns (string memory vs,string memory rounds,PoolViewInfo memory viewInfo){... */\n    tag_95:\n        /* \"wwcc-contracts/contracts/wwccPool.sol\":11723:11739  string memory vs */\n      0x60\n        /* \"wwcc-contracts/contracts/wwccPool.sol\":11740:11760  string memory rounds */\n      dup1\n        /* \"wwcc-contracts/contracts/wwccPool.sol\":11761:11789  PoolViewInfo memory viewInfo */\n      tag_422\n      tag_423\n      jump\t// in\n    tag_422:\n        /* \"wwcc-contracts/contracts/wwccPool.sol\":11804:11821  contains(poolKey) */\n      tag_425\n        /* \"wwcc-contracts/contracts/wwccPool.sol\":11813:11820  poolKey */\n      dup5\n        /* \"wwcc-contracts/contracts/wwccPool.sol\":11804:11812  contains */\n      tag_112\n        /* \"wwcc-contracts/contracts/wwccPool.sol\":11804:11821  contains(poolKey) */\n      jump\t// in\n    tag_425:\n        /* \"wwcc-contracts/contracts/wwccPool.sol\":11800:12308  if(!contains(poolKey)) { ... */\n      tag_426\n      jumpi\n        /* \"wwcc-contracts/contracts/wwccPool.sol\":11838:11857  revert(\"not exist\") */\n      mload(0x40)\n      0x08c379a000000000000000000000000000000000000000000000000000000000\n      dup2\n      mstore\n      0x04\n      add\n      tag_427\n      swap1\n      tag_428\n      jump\t// in\n    tag_427:\n      mload(0x40)\n      dup1\n      swap2\n      sub\n      swap1\n      revert\n        /* \"wwcc-contracts/contracts/wwccPool.sol\":11800:12308  if(!contains(poolKey)) { ... */\n    tag_426:\n        /* \"wwcc-contracts/contracts/wwccPool.sol\":11886:11903  string  memory hv */\n      0x00\n        /* \"wwcc-contracts/contracts/wwccPool.sol\":11906:11945  strConcat(WcPools[poolKey].home,\" vs \") */\n      tag_430\n        /* \"wwcc-contracts/contracts/wwccPool.sol\":11916:11923  WcPools */\n      0x05\n        /* \"wwcc-contracts/contracts/wwccPool.sol\":11916:11932  WcPools[poolKey] */\n      0x00\n        /* \"wwcc-contracts/contracts/wwccPool.sol\":11924:11931  poolKey */\n      dup8\n        /* \"wwcc-contracts/contracts/wwccPool.sol\":11916:11932  WcPools[poolKey] */\n      dup2\n      mstore\n      0x20\n      add\n      swap1\n      dup2\n      mstore\n      0x20\n      add\n      0x00\n      keccak256\n        /* \"wwcc-contracts/contracts/wwccPool.sol\":11916:11937  WcPools[poolKey].home */\n      0x00\n      add\n        /* \"wwcc-contracts/contracts/wwccPool.sol\":11906:11945  strConcat(WcPools[poolKey].home,\" vs \") */\n      dup1\n      sload\n      tag_431\n      swap1\n      tag_118\n      jump\t// in\n    tag_431:\n      dup1\n      0x1f\n      add\n      0x20\n      dup1\n      swap2\n      div\n      mul\n      0x20\n      add\n      mload(0x40)\n      swap1\n      dup2\n      add\n      0x40\n      mstore\n      dup1\n      swap3\n      swap2\n      swap1\n      dup2\n      dup2\n      mstore\n      0x20\n      add\n      dup3\n      dup1\n      sload\n      tag_432\n      swap1\n      tag_118\n      jump\t// in\n    tag_432:\n      dup1\n      iszero\n      tag_433\n      jumpi\n      dup1\n      0x1f\n      lt\n      tag_434\n      jumpi\n      0x0100\n      dup1\n      dup4\n      sload\n      div\n      mul\n      dup4\n      mstore\n      swap2\n      0x20\n      add\n      swap2\n      jump(tag_433)\n    tag_434:\n      dup3\n      add\n      swap2\n      swap1\n      0x00\n      mstore\n      keccak256(0x00, 0x20)\n      swap1\n    tag_435:\n      dup2\n      sload\n      dup2\n      mstore\n      swap1\n      0x01\n      add\n      swap1\n      0x20\n      add\n      dup1\n      dup4\n      gt\n      tag_435\n      jumpi\n      dup3\n      swap1\n      sub\n      0x1f\n      and\n      dup3\n      add\n      swap2\n    tag_433:\n      pop\n      pop\n      pop\n      pop\n      pop\n      mload(0x40)\n      dup1\n      0x40\n      add\n      0x40\n      mstore\n      dup1\n      0x04\n      dup2\n      mstore\n      0x20\n      add\n      0x2076732000000000000000000000000000000000000000000000000000000000\n      dup2\n      mstore\n      pop\n        /* \"wwcc-contracts/contracts/wwccPool.sol\":11906:11915  strConcat */\n      tag_169\n        /* \"wwcc-contracts/contracts/wwccPool.sol\":11906:11945  strConcat(WcPools[poolKey].home,\" vs \") */\n      jump\t// in\n    tag_430:\n        /* \"wwcc-contracts/contracts/wwccPool.sol\":11886:11945  string  memory hv = strConcat(WcPools[poolKey].home,\" vs \") */\n      swap1\n      pop\n        /* \"wwcc-contracts/contracts/wwccPool.sol\":11964:12000  strConcat(hv,WcPools[poolKey].visit) */\n      tag_436\n        /* \"wwcc-contracts/contracts/wwccPool.sol\":11974:11976  hv */\n      dup2\n        /* \"wwcc-contracts/contracts/wwccPool.sol\":11977:11984  WcPools */\n      0x05\n        /* \"wwcc-contracts/contracts/wwccPool.sol\":11977:11993  WcPools[poolKey] */\n      0x00\n        /* \"wwcc-contracts/contracts/wwccPool.sol\":11985:11992  poolKey */\n      dup9\n        /* \"wwcc-contracts/contracts/wwccPool.sol\":11977:11993  WcPools[poolKey] */\n      dup2\n      mstore\n      0x20\n      add\n      swap1\n      dup2\n      mstore\n      0x20\n      add\n      0x00\n      keccak256\n        /* \"wwcc-contracts/contracts/wwccPool.sol\":11977:11999  WcPools[poolKey].visit */\n      0x01\n      add\n        /* \"wwcc-contracts/contracts/wwccPool.sol\":11964:12000  strConcat(hv,WcPools[poolKey].visit) */\n      dup1\n      sload\n      tag_437\n      swap1\n      tag_118\n      jump\t// in\n    tag_437:\n      dup1\n      0x1f\n      add\n      0x20\n      dup1\n      swap2\n      div\n      mul\n      0x20\n      add\n      mload(0x40)\n      swap1\n      dup2\n      add\n      0x40\n      mstore\n      dup1\n      swap3\n      swap2\n      swap1\n      dup2\n      dup2\n      mstore\n      0x20\n      add\n      dup3\n      dup1\n      sload\n      tag_438\n      swap1\n      tag_118\n      jump\t// in\n    tag_438:\n      dup1\n      iszero\n      tag_439\n      jumpi\n      dup1\n      0x1f\n      lt\n      tag_440\n      jumpi\n      0x0100\n      dup1\n      dup4\n      sload\n      div\n      mul\n      dup4\n      mstore\n      swap2\n      0x20\n      add\n      swap2\n      jump(tag_439)\n    tag_440:\n      dup3\n      add\n      swap2\n      swap1\n      0x00\n      mstore\n      keccak256(0x00, 0x20)\n      swap1\n    tag_441:\n      dup2\n      sload\n      dup2\n      mstore\n      swap1\n      0x01\n      add\n      swap1\n      0x20\n      add\n      dup1\n      dup4\n      gt\n      tag_441\n      jumpi\n      dup3\n      swap1\n      sub\n      0x1f\n      and\n      dup3\n      add\n      swap2\n    tag_439:\n      pop\n      pop\n      pop\n      pop\n      pop\n        /* \"wwcc-contracts/contracts/wwccPool.sol\":11964:11973  strConcat */\n      tag_169\n        /* \"wwcc-contracts/contracts/wwccPool.sol\":11964:12000  strConcat(hv,WcPools[poolKey].visit) */\n      jump\t// in\n    tag_436:\n        /* \"wwcc-contracts/contracts/wwccPool.sol\":11959:12000  vs = strConcat(hv,WcPools[poolKey].visit) */\n      swap4\n      pop\n        /* \"wwcc-contracts/contracts/wwccPool.sol\":12014:12036  PoolViewInfo memory vi */\n      0x00\n        /* \"wwcc-contracts/contracts/wwccPool.sol\":12039:12219  PoolViewInfo(WcPools[poolKey].wPool,... */\n      mload(0x40)\n      dup1\n      0xa0\n      add\n      0x40\n      mstore\n      dup1\n        /* \"wwcc-contracts/contracts/wwccPool.sol\":12052:12059  WcPools */\n      0x05\n        /* \"wwcc-contracts/contracts/wwccPool.sol\":12052:12068  WcPools[poolKey] */\n      0x00\n        /* \"wwcc-contracts/contracts/wwccPool.sol\":12060:12067  poolKey */\n      dup10\n        /* \"wwcc-contracts/contracts/wwccPool.sol\":12052:12068  WcPools[poolKey] */\n      dup2\n      mstore\n      0x20\n      add\n      swap1\n      dup2\n      mstore\n      0x20\n      add\n      0x00\n      keccak256\n        /* \"wwcc-contracts/contracts/wwccPool.sol\":12052:12074  WcPools[poolKey].wPool */\n      0x03\n      add\n      sload\n        /* \"wwcc-contracts/contracts/wwccPool.sol\":12039:12219  PoolViewInfo(WcPools[poolKey].wPool,... */\n      dup2\n      mstore\n      0x20\n      add\n        /* \"wwcc-contracts/contracts/wwccPool.sol\":12088:12095  WcPools */\n      0x05\n        /* \"wwcc-contracts/contracts/wwccPool.sol\":12088:12104  WcPools[poolKey] */\n      0x00\n        /* \"wwcc-contracts/contracts/wwccPool.sol\":12096:12103  poolKey */\n      dup10\n        /* \"wwcc-contracts/contracts/wwccPool.sol\":12088:12104  WcPools[poolKey] */\n      dup2\n      mstore\n      0x20\n      add\n      swap1\n      dup2\n      mstore\n      0x20\n      add\n      0x00\n      keccak256\n        /* \"wwcc-contracts/contracts/wwccPool.sol\":12088:12110  WcPools[poolKey].dPool */\n      0x04\n      add\n      sload\n        /* \"wwcc-contracts/contracts/wwccPool.sol\":12039:12219  PoolViewInfo(WcPools[poolKey].wPool,... */\n      dup2\n      mstore\n      0x20\n      add\n        /* \"wwcc-contracts/contracts/wwccPool.sol\":12124:12131  WcPools */\n      0x05\n        /* \"wwcc-contracts/contracts/wwccPool.sol\":12124:12140  WcPools[poolKey] */\n      0x00\n        /* \"wwcc-contracts/contracts/wwccPool.sol\":12132:12139  poolKey */\n      dup10\n        /* \"wwcc-contracts/contracts/wwccPool.sol\":12124:12140  WcPools[poolKey] */\n      dup2\n      mstore\n      0x20\n      add\n      swap1\n      dup2\n      mstore\n      0x20\n      add\n      0x00\n      keccak256\n        /* \"wwcc-contracts/contracts/wwccPool.sol\":12124:12146  WcPools[poolKey].lPool */\n      0x05\n      add\n      sload\n        /* \"wwcc-contracts/contracts/wwccPool.sol\":12039:12219  PoolViewInfo(WcPools[poolKey].wPool,... */\n      dup2\n      mstore\n      0x20\n      add\n        /* \"wwcc-contracts/contracts/wwccPool.sol\":12160:12167  WcPools */\n      0x05\n        /* \"wwcc-contracts/contracts/wwccPool.sol\":12160:12176  WcPools[poolKey] */\n      0x00\n        /* \"wwcc-contracts/contracts/wwccPool.sol\":12168:12175  poolKey */\n      dup10\n        /* \"wwcc-contracts/contracts/wwccPool.sol\":12160:12176  WcPools[poolKey] */\n      dup2\n      mstore\n      0x20\n      add\n      swap1\n      dup2\n      mstore\n      0x20\n      add\n      0x00\n      keccak256\n        /* \"wwcc-contracts/contracts/wwccPool.sol\":12160:12182  WcPools[poolKey].sPool */\n      0x06\n      add\n      sload\n        /* \"wwcc-contracts/contracts/wwccPool.sol\":12039:12219  PoolViewInfo(WcPools[poolKey].wPool,... */\n      dup2\n      mstore\n      0x20\n      add\n        /* \"wwcc-contracts/contracts/wwccPool.sol\":12196:12203  WcPools */\n      0x05\n        /* \"wwcc-contracts/contracts/wwccPool.sol\":12196:12212  WcPools[poolKey] */\n      0x00\n        /* \"wwcc-contracts/contracts/wwccPool.sol\":12204:12211  poolKey */\n      dup10\n        /* \"wwcc-contracts/contracts/wwccPool.sol\":12196:12212  WcPools[poolKey] */\n      dup2\n      mstore\n      0x20\n      add\n      swap1\n      dup2\n      mstore\n      0x20\n      add\n      0x00\n      keccak256\n        /* \"wwcc-contracts/contracts/wwccPool.sol\":12196:12218  WcPools[poolKey].basal */\n      0x07\n      add\n      sload\n        /* \"wwcc-contracts/contracts/wwccPool.sol\":12039:12219  PoolViewInfo(WcPools[poolKey].wPool,... */\n      dup2\n      mstore\n      pop\n        /* \"wwcc-contracts/contracts/wwccPool.sol\":12014:12219  PoolViewInfo memory vi = PoolViewInfo(WcPools[poolKey].wPool,... */\n      swap1\n      pop\n        /* \"wwcc-contracts/contracts/wwccPool.sol\":12241:12243  vs */\n      dup5\n        /* \"wwcc-contracts/contracts/wwccPool.sol\":12257:12264  WcPools */\n      0x05\n        /* \"wwcc-contracts/contracts/wwccPool.sol\":12257:12273  WcPools[poolKey] */\n      0x00\n        /* \"wwcc-contracts/contracts/wwccPool.sol\":12265:12272  poolKey */\n      dup9\n        /* \"wwcc-contracts/contracts/wwccPool.sol\":12257:12273  WcPools[poolKey] */\n      dup2\n      mstore\n      0x20\n      add\n      swap1\n      dup2\n      mstore\n      0x20\n      add\n      0x00\n      keccak256\n        /* \"wwcc-contracts/contracts/wwccPool.sol\":12257:12280  WcPools[poolKey].rounds */\n      0x02\n      add\n        /* \"wwcc-contracts/contracts/wwccPool.sol\":12294:12296  vi */\n      dup3\n        /* \"wwcc-contracts/contracts/wwccPool.sol\":12233:12297  return (vs,... */\n      dup2\n      dup1\n      sload\n      tag_442\n      swap1\n      tag_118\n      jump\t// in\n    tag_442:\n      dup1\n      0x1f\n      add\n      0x20\n      dup1\n      swap2\n      div\n      mul\n      0x20\n      add\n      mload(0x40)\n      swap1\n      dup2\n      add\n      0x40\n      mstore\n      dup1\n      swap3\n      swap2\n      swap1\n      dup2\n      dup2\n      mstore\n      0x20\n      add\n      dup3\n      dup1\n      sload\n      tag_443\n      swap1\n      tag_118\n      jump\t// in\n    tag_443:\n      dup1\n      iszero\n      tag_444\n      jumpi\n      dup1\n      0x1f\n      lt\n      tag_445\n      jumpi\n      0x0100\n      dup1\n      dup4\n      sload\n      div\n      mul\n      dup4\n      mstore\n      swap2\n      0x20\n      add\n      swap2\n      jump(tag_444)\n    tag_445:\n      dup3\n      add\n      swap2\n      swap1\n      0x00\n      mstore\n      keccak256(0x00, 0x20)\n      swap1\n    tag_446:\n      dup2\n      sload\n      dup2\n      mstore\n      swap1\n      0x01\n      add\n      swap1\n      0x20\n      add\n      dup1\n      dup4\n      gt\n      tag_446\n      jumpi\n      dup3\n      swap1\n      sub\n      0x1f\n      and\n      dup3\n      add\n      swap2\n    tag_444:\n      pop\n      pop\n      pop\n      pop\n      pop\n      swap2\n      pop\n      swap5\n      pop\n      swap5\n      pop\n      swap5\n      pop\n      pop\n      pop\n        /* \"wwcc-contracts/contracts/wwccPool.sol\":11666:12314  function getPool(bytes32 poolKey) external view returns (string memory vs,string memory rounds,PoolViewInfo memory viewInfo){... */\n      swap2\n      swap4\n      swap1\n      swap3\n      pop\n      jump\t// out\n        /* \"wwcc-contracts/contracts/wwccPool.sol\":12378:12491  function contains(bytes32 poolKey) internal view returns (bool) {... */\n    tag_112:\n        /* \"wwcc-contracts/contracts/wwccPool.sol\":12436:12440  bool */\n      0x00\n        /* \"wwcc-contracts/contracts/wwccPool.sol\":12463:12470  WcPools */\n      0x05\n        /* \"wwcc-contracts/contracts/wwccPool.sol\":12463:12479  WcPools[poolKey] */\n      0x00\n        /* \"wwcc-contracts/contracts/wwccPool.sol\":12471:12478  poolKey */\n      dup4\n        /* \"wwcc-contracts/contracts/wwccPool.sol\":12463:12479  WcPools[poolKey] */\n      dup2\n      mstore\n      0x20\n      add\n      swap1\n      dup2\n      mstore\n      0x20\n      add\n      0x00\n      keccak256\n        /* \"wwcc-contracts/contracts/wwccPool.sol\":12463:12484  WcPools[poolKey].used */\n      0x08\n      add\n      0x01\n      swap1\n      sload\n      swap1\n      0x0100\n      exp\n      swap1\n      div\n      0xff\n      and\n        /* \"wwcc-contracts/contracts/wwccPool.sol\":12456:12484  return WcPools[poolKey].used */\n      swap1\n      pop\n        /* \"wwcc-contracts/contracts/wwccPool.sol\":12378:12491  function contains(bytes32 poolKey) internal view returns (bool) {... */\n      swap2\n      swap1\n      pop\n      jump\t// out\n        /* \"wwcc-contracts/contracts/wwccPool.sol\":12521:13010  function strConcat(string memory _a,string memory _b) internal pure returns (string memory){... */\n    tag_169:\n        /* \"wwcc-contracts/contracts/wwccPool.sol\":12598:12611  string memory */\n      0x60\n        /* \"wwcc-contracts/contracts/wwccPool.sol\":12626:12642  bytes memory _ba */\n      0x00\n        /* \"wwcc-contracts/contracts/wwccPool.sol\":12651:12653  _a */\n      dup4\n        /* \"wwcc-contracts/contracts/wwccPool.sol\":12626:12654  bytes memory _ba = bytes(_a) */\n      swap1\n      pop\n        /* \"wwcc-contracts/contracts/wwccPool.sol\":12668:12684  bytes memory _bb */\n      0x00\n        /* \"wwcc-contracts/contracts/wwccPool.sol\":12693:12695  _b */\n      dup4\n        /* \"wwcc-contracts/contracts/wwccPool.sol\":12668:12696  bytes memory _bb = bytes(_b) */\n      swap1\n      pop\n        /* \"wwcc-contracts/contracts/wwccPool.sol\":12710:12727  string memory ret */\n      0x00\n        /* \"wwcc-contracts/contracts/wwccPool.sol\":12754:12757  _bb */\n      dup2\n        /* \"wwcc-contracts/contracts/wwccPool.sol\":12754:12764  _bb.length */\n      mload\n        /* \"wwcc-contracts/contracts/wwccPool.sol\":12741:12744  _ba */\n      dup4\n        /* \"wwcc-contracts/contracts/wwccPool.sol\":12741:12751  _ba.length */\n      mload\n        /* \"wwcc-contracts/contracts/wwccPool.sol\":12741:12764  _ba.length + _bb.length */\n      tag_449\n      swap2\n      swap1\n      tag_24\n      jump\t// in\n    tag_449:\n        /* \"wwcc-contracts/contracts/wwccPool.sol\":12730:12765  new string(_ba.length + _bb.length) */\n      0xffffffffffffffff\n      dup2\n      gt\n      iszero\n      tag_450\n      jumpi\n      tag_451\n      tag_452\n      jump\t// in\n    tag_451:\n    tag_450:\n      mload(0x40)\n      swap1\n      dup1\n      dup3\n      mstore\n      dup1\n      0x1f\n      add\n      not(0x1f)\n      and\n      0x20\n      add\n      dup3\n      add\n      0x40\n      mstore\n      dup1\n      iszero\n      tag_453\n      jumpi\n      dup2\n      0x20\n      add\n      0x01\n      dup3\n      mul\n      dup1\n      calldatasize\n      dup4\n      calldatacopy\n      dup1\n      dup3\n      add\n      swap2\n      pop\n      pop\n      swap1\n      pop\n    tag_453:\n      pop\n        /* \"wwcc-contracts/contracts/wwccPool.sol\":12710:12765  string memory ret = new string(_ba.length + _bb.length) */\n      swap1\n      pop\n        /* \"wwcc-contracts/contracts/wwccPool.sol\":12779:12796  bytes memory bret */\n      0x00\n        /* \"wwcc-contracts/contracts/wwccPool.sol\":12805:12808  ret */\n      dup2\n        /* \"wwcc-contracts/contracts/wwccPool.sol\":12779:12809  bytes memory bret = bytes(ret) */\n      swap1\n      pop\n        /* \"wwcc-contracts/contracts/wwccPool.sol\":12823:12829  uint k */\n      0x00\n        /* \"wwcc-contracts/contracts/wwccPool.sol\":12851:12857  uint i */\n      dup1\n        /* \"wwcc-contracts/contracts/wwccPool.sol\":12847:12900  for(uint i = 0;i < _ba.length;i++) bret[k++] = _ba[i] */\n    tag_454:\n        /* \"wwcc-contracts/contracts/wwccPool.sol\":12866:12869  _ba */\n      dup6\n        /* \"wwcc-contracts/contracts/wwccPool.sol\":12866:12876  _ba.length */\n      mload\n        /* \"wwcc-contracts/contracts/wwccPool.sol\":12862:12863  i */\n      dup2\n        /* \"wwcc-contracts/contracts/wwccPool.sol\":12862:12876  i < _ba.length */\n      lt\n        /* \"wwcc-contracts/contracts/wwccPool.sol\":12847:12900  for(uint i = 0;i < _ba.length;i++) bret[k++] = _ba[i] */\n      iszero\n      tag_455\n      jumpi\n        /* \"wwcc-contracts/contracts/wwccPool.sol\":12894:12897  _ba */\n      dup6\n        /* \"wwcc-contracts/contracts/wwccPool.sol\":12898:12899  i */\n      dup2\n        /* \"wwcc-contracts/contracts/wwccPool.sol\":12894:12900  _ba[i] */\n      dup2\n      mload\n      dup2\n      lt\n      tag_457\n      jumpi\n      tag_458\n      tag_343\n      jump\t// in\n    tag_458:\n    tag_457:\n      0x20\n      add\n      add\n      mload\n      0xf8\n      shr\n      0xf8\n      shl\n        /* \"wwcc-contracts/contracts/wwccPool.sol\":12882:12886  bret */\n      dup4\n        /* \"wwcc-contracts/contracts/wwccPool.sol\":12887:12890  k++ */\n      dup4\n      dup1\n      tag_459\n      swap1\n      tag_406\n      jump\t// in\n    tag_459:\n      swap5\n      pop\n        /* \"wwcc-contracts/contracts/wwccPool.sol\":12882:12891  bret[k++] */\n      dup2\n      mload\n      dup2\n      lt\n      tag_460\n      jumpi\n      tag_461\n      tag_343\n      jump\t// in\n    tag_461:\n    tag_460:\n      0x20\n      add\n      add\n        /* \"wwcc-contracts/contracts/wwccPool.sol\":12882:12900  bret[k++] = _ba[i] */\n      swap1\n      not(0xffffffffffffffffffffffffffffffffffffffffffffffffffffffffffffff)\n      and\n      swap1\n      dup2\n      0x00\n      byte\n      swap1\n      mstore8\n      pop\n        /* \"wwcc-contracts/contracts/wwccPool.sol\":12877:12880  i++ */\n      dup1\n      dup1\n      tag_462\n      swap1\n      tag_406\n      jump\t// in\n    tag_462:\n      swap2\n      pop\n      pop\n        /* \"wwcc-contracts/contracts/wwccPool.sol\":12847:12900  for(uint i = 0;i < _ba.length;i++) bret[k++] = _ba[i] */\n      jump(tag_454)\n    tag_455:\n      pop\n        /* \"wwcc-contracts/contracts/wwccPool.sol\":12918:12924  uint i */\n      0x00\n        /* \"wwcc-contracts/contracts/wwccPool.sol\":12914:12967  for(uint i = 0;i < _bb.length;i++) bret[k++] = _bb[i] */\n    tag_463:\n        /* \"wwcc-contracts/contracts/wwccPool.sol\":12933:12936  _bb */\n      dup5\n        /* \"wwcc-contracts/contracts/wwccPool.sol\":12933:12943  _bb.length */\n      mload\n        /* \"wwcc-contracts/contracts/wwccPool.sol\":12929:12930  i */\n      dup2\n        /* \"wwcc-contracts/contracts/wwccPool.sol\":12929:12943  i < _bb.length */\n      lt\n        /* \"wwcc-contracts/contracts/wwccPool.sol\":12914:12967  for(uint i = 0;i < _bb.length;i++) bret[k++] = _bb[i] */\n      iszero\n      tag_464\n      jumpi\n        /* \"wwcc-contracts/contracts/wwccPool.sol\":12961:12964  _bb */\n      dup5\n        /* \"wwcc-contracts/contracts/wwccPool.sol\":12965:12966  i */\n      dup2\n        /* \"wwcc-contracts/contracts/wwccPool.sol\":12961:12967  _bb[i] */\n      dup2\n      mload\n      dup2\n      lt\n      tag_466\n      jumpi\n      tag_467\n      tag_343\n      jump\t// in\n    tag_467:\n    tag_466:\n      0x20\n      add\n      add\n      mload\n      0xf8\n      shr\n      0xf8\n      shl\n        /* \"wwcc-contracts/contracts/wwccPool.sol\":12949:12953  bret */\n      dup4\n        /* \"wwcc-contracts/contracts/wwccPool.sol\":12954:12957  k++ */\n      dup4\n      dup1\n      tag_468\n      swap1\n      tag_406\n      jump\t// in\n    tag_468:\n      swap5\n      pop\n        /* \"wwcc-contracts/contracts/wwccPool.sol\":12949:12958  bret[k++] */\n      dup2\n      mload\n      dup2\n      lt\n      tag_469\n      jumpi\n      tag_470\n      tag_343\n      jump\t// in\n    tag_470:\n    tag_469:\n      0x20\n      add\n      add\n        /* \"wwcc-contracts/contracts/wwccPool.sol\":12949:12967  bret[k++] = _bb[i] */\n      swap1\n      not(0xffffffffffffffffffffffffffffffffffffffffffffffffffffffffffffff)\n      and\n      swap1\n      dup2\n      0x00\n      byte\n      swap1\n      mstore8\n      pop\n        /* \"wwcc-contracts/contracts/wwccPool.sol\":12944:12947  i++ */\n      dup1\n      dup1\n      tag_471\n      swap1\n      tag_406\n      jump\t// in\n    tag_471:\n      swap2\n      pop\n      pop\n        /* \"wwcc-contracts/contracts/wwccPool.sol\":12914:12967  for(uint i = 0;i < _bb.length;i++) bret[k++] = _bb[i] */\n      jump(tag_463)\n    tag_464:\n      pop\n        /* \"wwcc-contracts/contracts/wwccPool.sol\":12995:12998  ret */\n      dup3\n        /* \"wwcc-contracts/contracts/wwccPool.sol\":12981:12999  return string(ret) */\n      swap6\n      pop\n      pop\n      pop\n      pop\n      pop\n      pop\n        /* \"wwcc-contracts/contracts/wwccPool.sol\":12521:13010  function strConcat(string memory _a,string memory _b) internal pure returns (string memory){... */\n      swap3\n      swap2\n      pop\n      pop\n      jump\t// out\n        /* \"wwcc-contracts/contracts/safemath.sol\":62:266  function mul(uint256 a, uint256 b) internal pure returns (uint256) {... */\n    tag_237:\n        /* \"wwcc-contracts/contracts/safemath.sol\":120:127  uint256 */\n      0x00\n        /* \"wwcc-contracts/contracts/safemath.sol\":148:149  0 */\n      dup1\n        /* \"wwcc-contracts/contracts/safemath.sol\":143:144  a */\n      dup4\n        /* \"wwcc-contracts/contracts/safemath.sol\":143:149  a == 0 */\n      eq\n        /* \"wwcc-contracts/contracts/safemath.sol\":139:184  if (a == 0) {... */\n      iszero\n      tag_473\n      jumpi\n        /* \"wwcc-contracts/contracts/safemath.sol\":172:173  0 */\n      0x00\n        /* \"wwcc-contracts/contracts/safemath.sol\":165:173  return 0 */\n      swap1\n      pop\n      jump(tag_472)\n        /* \"wwcc-contracts/contracts/safemath.sol\":139:184  if (a == 0) {... */\n    tag_473:\n        /* \"wwcc-contracts/contracts/safemath.sol\":195:204  uint256 c */\n      0x00\n        /* \"wwcc-contracts/contracts/safemath.sol\":211:212  b */\n      dup3\n        /* \"wwcc-contracts/contracts/safemath.sol\":207:208  a */\n      dup5\n        /* \"wwcc-contracts/contracts/safemath.sol\":207:212  a * b */\n      tag_474\n      swap2\n      swap1\n      tag_364\n      jump\t// in\n    tag_474:\n        /* \"wwcc-contracts/contracts/safemath.sol\":195:212  uint256 c = a * b */\n      swap1\n      pop\n        /* \"wwcc-contracts/contracts/safemath.sol\":239:240  b */\n      dup3\n        /* \"wwcc-contracts/contracts/safemath.sol\":234:235  a */\n      dup5\n        /* \"wwcc-contracts/contracts/safemath.sol\":230:231  c */\n      dup3\n        /* \"wwcc-contracts/contracts/safemath.sol\":230:235  c / a */\n      tag_475\n      swap2\n      swap1\n      tag_101\n      jump\t// in\n    tag_475:\n        /* \"wwcc-contracts/contracts/safemath.sol\":230:240  c / a == b */\n      eq\n        /* \"wwcc-contracts/contracts/safemath.sol\":222:241  require(c / a == b) */\n      tag_476\n      jumpi\n      0x00\n      dup1\n      revert\n    tag_476:\n        /* \"wwcc-contracts/contracts/safemath.sol\":258:259  c */\n      dup1\n        /* \"wwcc-contracts/contracts/safemath.sol\":251:259  return c */\n      swap2\n      pop\n      pop\n        /* \"wwcc-contracts/contracts/safemath.sol\":62:266  function mul(uint256 a, uint256 b) internal pure returns (uint256) {... */\n    tag_472:\n      swap3\n      swap2\n      pop\n      pop\n      jump\t// out\n        /* \"wwcc-contracts/contracts/wwccPool.sol\":13174:13303  function uint256ToString(uint256 u) internal pure returns(string memory){... */\n    tag_267:\n        /* \"wwcc-contracts/contracts/wwccPool.sol\":13232:13245  string memory */\n      0x60\n        /* \"wwcc-contracts/contracts/wwccPool.sol\":13267:13296  toString(abi.encodePacked(u)) */\n      tag_478\n        /* \"wwcc-contracts/contracts/wwccPool.sol\":13293:13294  u */\n      dup3\n        /* \"wwcc-contracts/contracts/wwccPool.sol\":13276:13295  abi.encodePacked(u) */\n      add(0x20, mload(0x40))\n      tag_479\n      swap2\n      swap1\n      tag_480\n      jump\t// in\n    tag_479:\n      mload(0x40)\n      0x20\n      dup2\n      dup4\n      sub\n      sub\n      dup2\n      mstore\n      swap1\n      0x40\n      mstore\n        /* \"wwcc-contracts/contracts/wwccPool.sol\":13267:13275  toString */\n      tag_481\n        /* \"wwcc-contracts/contracts/wwccPool.sol\":13267:13296  toString(abi.encodePacked(u)) */\n      jump\t// in\n    tag_478:\n        /* \"wwcc-contracts/contracts/wwccPool.sol\":13260:13296  return toString(abi.encodePacked(u)) */\n      swap1\n      pop\n        /* \"wwcc-contracts/contracts/wwccPool.sol\":13174:13303  function uint256ToString(uint256 u) internal pure returns(string memory){... */\n      swap2\n      swap1\n      pop\n      jump\t// out\n        /* \"wwcc-contracts/contracts/wwccPool.sol\":13442:13929  function toString(bytes memory data) internal pure returns(string memory){... */\n    tag_481:\n        /* \"wwcc-contracts/contracts/wwccPool.sol\":13501:13514  string memory */\n      0x60\n        /* \"wwcc-contracts/contracts/wwccPool.sol\":13529:13550  bytes memory alphabet */\n      0x00\n        /* \"wwcc-contracts/contracts/wwccPool.sol\":13529:13571  bytes memory alphabet = \"0123456789abcdef\" */\n      mload(0x40)\n      dup1\n      0x40\n      add\n      0x40\n      mstore\n      dup1\n      0x10\n      dup2\n      mstore\n      0x20\n      add\n      0x3031323334353637383961626364656600000000000000000000000000000000\n      dup2\n      mstore\n      pop\n      swap1\n      pop\n        /* \"wwcc-contracts/contracts/wwccPool.sol\":13585:13601  bytes memory str */\n      0x00\n        /* \"wwcc-contracts/contracts/wwccPool.sol\":13632:13633  2 */\n      0x02\n        /* \"wwcc-contracts/contracts/wwccPool.sol\":13618:13622  data */\n      dup5\n        /* \"wwcc-contracts/contracts/wwccPool.sol\":13618:13629  data.length */\n      mload\n        /* \"wwcc-contracts/contracts/wwccPool.sol\":13618:13633  data.length * 2 */\n      tag_483\n      swap2\n      swap1\n      tag_364\n      jump\t// in\n    tag_483:\n        /* \"wwcc-contracts/contracts/wwccPool.sol\":13614:13615  2 */\n      0x02\n        /* \"wwcc-contracts/contracts/wwccPool.sol\":13614:13633  2 + data.length * 2 */\n      tag_484\n      swap2\n      swap1\n      tag_24\n      jump\t// in\n    tag_484:\n        /* \"wwcc-contracts/contracts/wwccPool.sol\":13604:13634  new bytes(2 + data.length * 2) */\n      0xffffffffffffffff\n      dup2\n      gt\n      iszero\n      tag_485\n      jumpi\n      tag_486\n      tag_452\n      jump\t// in\n    tag_486:\n    tag_485:\n      mload(0x40)\n      swap1\n      dup1\n      dup3\n      mstore\n      dup1\n      0x1f\n      add\n      not(0x1f)\n      and\n      0x20\n      add\n      dup3\n      add\n      0x40\n      mstore\n      dup1\n      iszero\n      tag_487\n      jumpi\n      dup2\n      0x20\n      add\n      0x01\n      dup3\n      mul\n      dup1\n      calldatasize\n      dup4\n      calldatacopy\n      dup1\n      dup3\n      add\n      swap2\n      pop\n      pop\n      swap1\n      pop\n    tag_487:\n      pop\n        /* \"wwcc-contracts/contracts/wwccPool.sol\":13585:13634  bytes memory str = new bytes(2 + data.length * 2) */\n      swap1\n      pop\n        /* \"wwcc-contracts/contracts/wwccPool.sol\":13648:13660  str[0] = \"0\" */\n      0x3000000000000000000000000000000000000000000000000000000000000000\n        /* \"wwcc-contracts/contracts/wwccPool.sol\":13648:13651  str */\n      dup2\n        /* \"wwcc-contracts/contracts/wwccPool.sol\":13652:13653  0 */\n      0x00\n        /* \"wwcc-contracts/contracts/wwccPool.sol\":13648:13654  str[0] */\n      dup2\n      mload\n      dup2\n      lt\n      tag_488\n      jumpi\n      tag_489\n      tag_343\n      jump\t// in\n    tag_489:\n    tag_488:\n      0x20\n      add\n      add\n        /* \"wwcc-contracts/contracts/wwccPool.sol\":13648:13660  str[0] = \"0\" */\n      swap1\n      not(0xffffffffffffffffffffffffffffffffffffffffffffffffffffffffffffff)\n      and\n      swap1\n      dup2\n      0x00\n      byte\n      swap1\n      mstore8\n      pop\n        /* \"wwcc-contracts/contracts/wwccPool.sol\":13674:13686  str[1] = \"x\" */\n      0x7800000000000000000000000000000000000000000000000000000000000000\n        /* \"wwcc-contracts/contracts/wwccPool.sol\":13674:13677  str */\n      dup2\n        /* \"wwcc-contracts/contracts/wwccPool.sol\":13678:13679  1 */\n      0x01\n        /* \"wwcc-contracts/contracts/wwccPool.sol\":13674:13680  str[1] */\n      dup2\n      mload\n      dup2\n      lt\n      tag_490\n      jumpi\n      tag_491\n      tag_343\n      jump\t// in\n    tag_491:\n    tag_490:\n      0x20\n      add\n      add\n        /* \"wwcc-contracts/contracts/wwccPool.sol\":13674:13686  str[1] = \"x\" */\n      swap1\n      not(0xffffffffffffffffffffffffffffffffffffffffffffffffffffffffffffff)\n      and\n      swap1\n      dup2\n      0x00\n      byte\n      swap1\n      mstore8\n      pop\n        /* \"wwcc-contracts/contracts/wwccPool.sol\":13704:13710  uint i */\n      0x00\n        /* \"wwcc-contracts/contracts/wwccPool.sol\":13700:13891  for(uint i =0;i < data.length;i++){... */\n    tag_492:\n        /* \"wwcc-contracts/contracts/wwccPool.sol\":13718:13722  data */\n      dup5\n        /* \"wwcc-contracts/contracts/wwccPool.sol\":13718:13729  data.length */\n      mload\n        /* \"wwcc-contracts/contracts/wwccPool.sol\":13714:13715  i */\n      dup2\n        /* \"wwcc-contracts/contracts/wwccPool.sol\":13714:13729  i < data.length */\n      lt\n        /* \"wwcc-contracts/contracts/wwccPool.sol\":13700:13891  for(uint i =0;i < data.length;i++){... */\n      iszero\n      tag_493\n      jumpi\n        /* \"wwcc-contracts/contracts/wwccPool.sol\":13769:13777  alphabet */\n      dup3\n        /* \"wwcc-contracts/contracts/wwccPool.sol\":13800:13801  4 */\n      0x04\n        /* \"wwcc-contracts/contracts/wwccPool.sol\":13789:13793  data */\n      dup7\n        /* \"wwcc-contracts/contracts/wwccPool.sol\":13794:13795  i */\n      dup4\n        /* \"wwcc-contracts/contracts/wwccPool.sol\":13789:13796  data[i] */\n      dup2\n      mload\n      dup2\n      lt\n      tag_495\n      jumpi\n      tag_496\n      tag_343\n      jump\t// in\n    tag_496:\n    tag_495:\n      0x20\n      add\n      add\n      mload\n      0xf8\n      shr\n      0xf8\n      shl\n        /* \"wwcc-contracts/contracts/wwccPool.sol\":13789:13801  data[i] >> 4 */\n      not(0xffffffffffffffffffffffffffffffffffffffffffffffffffffffffffffff)\n      and\n      swap1\n      shr\n        /* \"wwcc-contracts/contracts/wwccPool.sol\":13783:13802  uint8(data[i] >> 4) */\n      0xf8\n      shr\n        /* \"wwcc-contracts/contracts/wwccPool.sol\":13778:13803  uint(uint8(data[i] >> 4)) */\n      0xff\n      and\n        /* \"wwcc-contracts/contracts/wwccPool.sol\":13769:13804  alphabet[uint(uint8(data[i] >> 4))] */\n      dup2\n      mload\n      dup2\n      lt\n      tag_497\n      jumpi\n      tag_498\n      tag_343\n      jump\t// in\n    tag_498:\n    tag_497:\n      0x20\n      add\n      add\n      mload\n      0xf8\n      shr\n      0xf8\n      shl\n        /* \"wwcc-contracts/contracts/wwccPool.sol\":13752:13755  str */\n      dup3\n        /* \"wwcc-contracts/contracts/wwccPool.sol\":13764:13765  2 */\n      0x02\n        /* \"wwcc-contracts/contracts/wwccPool.sol\":13760:13761  i */\n      dup4\n        /* \"wwcc-contracts/contracts/wwccPool.sol\":13760:13765  i * 2 */\n      tag_499\n      swap2\n      swap1\n      tag_364\n      jump\t// in\n    tag_499:\n        /* \"wwcc-contracts/contracts/wwccPool.sol\":13756:13757  2 */\n      0x02\n        /* \"wwcc-contracts/contracts/wwccPool.sol\":13756:13765  2 + i * 2 */\n      tag_500\n      swap2\n      swap1\n      tag_24\n      jump\t// in\n    tag_500:\n        /* \"wwcc-contracts/contracts/wwccPool.sol\":13752:13766  str[2 + i * 2] */\n      dup2\n      mload\n      dup2\n      lt\n      tag_501\n      jumpi\n      tag_502\n      tag_343\n      jump\t// in\n    tag_502:\n    tag_501:\n      0x20\n      add\n      add\n        /* \"wwcc-contracts/contracts/wwccPool.sol\":13752:13804  str[2 + i * 2] = alphabet[uint(uint8(data[i] >> 4))] */\n      swap1\n      not(0xffffffffffffffffffffffffffffffffffffffffffffffffffffffffffffff)\n      and\n      swap1\n      dup2\n      0x00\n      byte\n      swap1\n      mstore8\n      pop\n        /* \"wwcc-contracts/contracts/wwccPool.sol\":13839:13847  alphabet */\n      dup3\n        /* \"wwcc-contracts/contracts/wwccPool.sol\":13869:13873  0x0f */\n      0x0f\n        /* \"wwcc-contracts/contracts/wwccPool.sol\":13859:13873  data[i] & 0x0f */\n      0xf8\n      shl\n        /* \"wwcc-contracts/contracts/wwccPool.sol\":13859:13863  data */\n      dup7\n        /* \"wwcc-contracts/contracts/wwccPool.sol\":13864:13865  i */\n      dup4\n        /* \"wwcc-contracts/contracts/wwccPool.sol\":13859:13866  data[i] */\n      dup2\n      mload\n      dup2\n      lt\n      tag_503\n      jumpi\n      tag_504\n      tag_343\n      jump\t// in\n    tag_504:\n    tag_503:\n      0x20\n      add\n      add\n      mload\n      0xf8\n      shr\n      0xf8\n      shl\n        /* \"wwcc-contracts/contracts/wwccPool.sol\":13859:13873  data[i] & 0x0f */\n      and\n        /* \"wwcc-contracts/contracts/wwccPool.sol\":13853:13874  uint8(data[i] & 0x0f) */\n      0xf8\n      shr\n        /* \"wwcc-contracts/contracts/wwccPool.sol\":13848:13875  uint(uint8(data[i] & 0x0f)) */\n      0xff\n      and\n        /* \"wwcc-contracts/contracts/wwccPool.sol\":13839:13876  alphabet[uint(uint8(data[i] & 0x0f))] */\n      dup2\n      mload\n      dup2\n      lt\n      tag_505\n      jumpi\n      tag_506\n      tag_343\n      jump\t// in\n    tag_506:\n    tag_505:\n      0x20\n      add\n      add\n      mload\n      0xf8\n      shr\n      0xf8\n      shl\n        /* \"wwcc-contracts/contracts/wwccPool.sol\":13822:13825  str */\n      dup3\n        /* \"wwcc-contracts/contracts/wwccPool.sol\":13834:13835  2 */\n      0x02\n        /* \"wwcc-contracts/contracts/wwccPool.sol\":13830:13831  i */\n      dup4\n        /* \"wwcc-contracts/contracts/wwccPool.sol\":13830:13835  i * 2 */\n      tag_507\n      swap2\n      swap1\n      tag_364\n      jump\t// in\n    tag_507:\n        /* \"wwcc-contracts/contracts/wwccPool.sol\":13826:13827  3 */\n      0x03\n        /* \"wwcc-contracts/contracts/wwccPool.sol\":13826:13835  3 + i * 2 */\n      tag_508\n      swap2\n      swap1\n      tag_24\n      jump\t// in\n    tag_508:\n        /* \"wwcc-contracts/contracts/wwccPool.sol\":13822:13836  str[3 + i * 2] */\n      dup2\n      mload\n      dup2\n      lt\n      tag_509\n      jumpi\n      tag_510\n      tag_343\n      jump\t// in\n    tag_510:\n    tag_509:\n      0x20\n      add\n      add\n        /* \"wwcc-contracts/contracts/wwccPool.sol\":13822:13876  str[3 + i * 2] = alphabet[uint(uint8(data[i] & 0x0f))] */\n      swap1\n      not(0xffffffffffffffffffffffffffffffffffffffffffffffffffffffffffffff)\n      and\n      swap1\n      dup2\n      0x00\n      byte\n      swap1\n      mstore8\n      pop\n        /* \"wwcc-contracts/contracts/wwccPool.sol\":13730:13733  i++ */\n      dup1\n      dup1\n      tag_511\n      swap1\n      tag_406\n      jump\t// in\n    tag_511:\n      swap2\n      pop\n      pop\n        /* \"wwcc-contracts/contracts/wwccPool.sol\":13700:13891  for(uint i =0;i < data.length;i++){... */\n      jump(tag_492)\n    tag_493:\n      pop\n        /* \"wwcc-contracts/contracts/wwccPool.sol\":13918:13921  str */\n      dup1\n        /* \"wwcc-contracts/contracts/wwccPool.sol\":13904:13922  return string(str) */\n      swap3\n      pop\n      pop\n      pop\n        /* \"wwcc-contracts/contracts/wwccPool.sol\":13442:13929  function toString(bytes memory data) internal pure returns(string memory){... */\n      swap2\n      swap1\n      pop\n      jump\t// out\n    tag_201:\n      dup3\n      dup1\n      sload\n      tag_512\n      swap1\n      tag_118\n      jump\t// in\n    tag_512:\n      swap1\n      0x00\n      mstore\n      keccak256(0x00, 0x20)\n      swap1\n      0x1f\n      add\n      0x20\n      swap1\n      div\n      dup2\n      add\n      swap3\n      dup3\n      tag_514\n      jumpi\n      0x00\n      dup6\n      sstore\n      jump(tag_513)\n    tag_514:\n      dup3\n      0x1f\n      lt\n      tag_515\n      jumpi\n      dup1\n      mload\n      not(0xff)\n      and\n      dup4\n      dup1\n      add\n      or\n      dup6\n      sstore\n      jump(tag_513)\n    tag_515:\n      dup3\n      dup1\n      add\n      0x01\n      add\n      dup6\n      sstore\n      dup3\n      iszero\n      tag_513\n      jumpi\n      swap2\n      dup3\n      add\n    tag_516:\n      dup3\n      dup2\n      gt\n      iszero\n      tag_517\n      jumpi\n      dup3\n      mload\n      dup3\n      sstore\n      swap2\n      0x20\n      add\n      swap2\n      swap1\n      0x01\n      add\n      swap1\n      jump(tag_516)\n    tag_517:\n    tag_513:\n      pop\n      swap1\n      pop\n      tag_518\n      swap2\n      swap1\n      tag_519\n      jump\t// in\n    tag_518:\n      pop\n      swap1\n      jump\t// out\n    tag_278:\n      mload(0x40)\n      dup1\n      0xe0\n      add\n      0x40\n      mstore\n      dup1\n      0x00\n      dup2\n      mstore\n      0x20\n      add\n      0x00\n      dup2\n      mstore\n      0x20\n      add\n      0x00\n      dup2\n      mstore\n      0x20\n      add\n      0x00\n      dup2\n      mstore\n      0x20\n      add\n      and(0xffffffffffffffffffffffffffffffffffffffff, 0x00)\n      dup2\n      mstore\n      0x20\n      add\n      0x60\n      dup2\n      mstore\n      0x20\n      add\n      iszero(iszero(0x00))\n      dup2\n      mstore\n      pop\n      swap1\n      jump\t// out\n    tag_423:\n      mload(0x40)\n      dup1\n      0xa0\n      add\n      0x40\n      mstore\n      dup1\n      0x00\n      dup2\n      mstore\n      0x20\n      add\n      0x00\n      dup2\n      mstore\n      0x20\n      add\n      0x00\n      dup2\n      mstore\n      0x20\n      add\n      0x00\n      dup2\n      mstore\n      0x20\n      add\n      0x00\n      dup2\n      mstore\n      pop\n      swap1\n      jump\t// out\n    tag_519:\n    tag_520:\n      dup1\n      dup3\n      gt\n      iszero\n      tag_521\n      jumpi\n      0x00\n      dup2\n      0x00\n      swap1\n      sstore\n      pop\n      0x01\n      add\n      jump(tag_520)\n    tag_521:\n      pop\n      swap1\n      jump\t// out\n        /* \"#utility.yul\":7:419   */\n    tag_523:\n        /* \"#utility.yul\":85:90   */\n      0x00\n        /* \"#utility.yul\":110:176   */\n      tag_525\n        /* \"#utility.yul\":126:175   */\n      tag_526\n        /* \"#utility.yul\":168:174   */\n      dup5\n        /* \"#utility.yul\":126:175   */\n      tag_527\n      jump\t// in\n    tag_526:\n        /* \"#utility.yul\":110:176   */\n      tag_528\n      jump\t// in\n    tag_525:\n        /* \"#utility.yul\":101:176   */\n      swap1\n      pop\n        /* \"#utility.yul\":199:205   */\n      dup3\n        /* \"#utility.yul\":192:197   */\n      dup2\n        /* \"#utility.yul\":185:206   */\n      mstore\n        /* \"#utility.yul\":237:241   */\n      0x20\n        /* \"#utility.yul\":230:235   */\n      dup2\n        /* \"#utility.yul\":226:242   */\n      add\n        /* \"#utility.yul\":275:278   */\n      dup5\n        /* \"#utility.yul\":266:272   */\n      dup5\n        /* \"#utility.yul\":261:264   */\n      dup5\n        /* \"#utility.yul\":257:273   */\n      add\n        /* \"#utility.yul\":254:279   */\n      gt\n        /* \"#utility.yul\":251:363   */\n      iszero\n      tag_529\n      jumpi\n        /* \"#utility.yul\":282:361   */\n      tag_530\n      tag_531\n      jump\t// in\n    tag_530:\n        /* \"#utility.yul\":251:363   */\n    tag_529:\n        /* \"#utility.yul\":372:413   */\n      tag_532\n        /* \"#utility.yul\":406:412   */\n      dup5\n        /* \"#utility.yul\":401:404   */\n      dup3\n        /* \"#utility.yul\":396:399   */\n      dup6\n        /* \"#utility.yul\":372:413   */\n      tag_533\n      jump\t// in\n    tag_532:\n        /* \"#utility.yul\":91:419   */\n      pop\n        /* \"#utility.yul\":7:419   */\n      swap4\n      swap3\n      pop\n      pop\n      pop\n      jump\t// out\n        /* \"#utility.yul\":425:564   */\n    tag_534:\n        /* \"#utility.yul\":471:476   */\n      0x00\n        /* \"#utility.yul\":509:515   */\n      dup2\n        /* \"#utility.yul\":496:516   */\n      calldataload\n        /* \"#utility.yul\":487:516   */\n      swap1\n      pop\n        /* \"#utility.yul\":525:558   */\n      tag_536\n        /* \"#utility.yul\":552:557   */\n      dup2\n        /* \"#utility.yul\":525:558   */\n      tag_537\n      jump\t// in\n    tag_536:\n        /* \"#utility.yul\":425:564   */\n      swap3\n      swap2\n      pop\n      pop\n      jump\t// out\n        /* \"#utility.yul\":570:703   */\n    tag_538:\n        /* \"#utility.yul\":613:618   */\n      0x00\n        /* \"#utility.yul\":651:657   */\n      dup2\n        /* \"#utility.yul\":638:658   */\n      calldataload\n        /* \"#utility.yul\":629:658   */\n      swap1\n      pop\n        /* \"#utility.yul\":667:697   */\n      tag_540\n        /* \"#utility.yul\":691:696   */\n      dup2\n        /* \"#utility.yul\":667:697   */\n      tag_541\n      jump\t// in\n    tag_540:\n        /* \"#utility.yul\":570:703   */\n      swap3\n      swap2\n      pop\n      pop\n      jump\t// out\n        /* \"#utility.yul\":709:848   */\n    tag_542:\n        /* \"#utility.yul\":755:760   */\n      0x00\n        /* \"#utility.yul\":793:799   */\n      dup2\n        /* \"#utility.yul\":780:800   */\n      calldataload\n        /* \"#utility.yul\":771:800   */\n      swap1\n      pop\n        /* \"#utility.yul\":809:842   */\n      tag_544\n        /* \"#utility.yul\":836:841   */\n      dup2\n        /* \"#utility.yul\":809:842   */\n      tag_545\n      jump\t// in\n    tag_544:\n        /* \"#utility.yul\":709:848   */\n      swap3\n      swap2\n      pop\n      pop\n      jump\t// out\n        /* \"#utility.yul\":868:1208   */\n    tag_546:\n        /* \"#utility.yul\":924:929   */\n      0x00\n        /* \"#utility.yul\":973:976   */\n      dup3\n        /* \"#utility.yul\":966:970   */\n      0x1f\n        /* \"#utility.yul\":958:964   */\n      dup4\n        /* \"#utility.yul\":954:971   */\n      add\n        /* \"#utility.yul\":950:977   */\n      slt\n        /* \"#utility.yul\":940:1062   */\n      tag_548\n      jumpi\n        /* \"#utility.yul\":981:1060   */\n      tag_549\n      tag_550\n      jump\t// in\n    tag_549:\n        /* \"#utility.yul\":940:1062   */\n    tag_548:\n        /* \"#utility.yul\":1098:1104   */\n      dup2\n        /* \"#utility.yul\":1085:1105   */\n      calldataload\n        /* \"#utility.yul\":1123:1202   */\n      tag_551\n        /* \"#utility.yul\":1198:1201   */\n      dup5\n        /* \"#utility.yul\":1190:1196   */\n      dup3\n        /* \"#utility.yul\":1183:1187   */\n      0x20\n        /* \"#utility.yul\":1175:1181   */\n      dup7\n        /* \"#utility.yul\":1171:1188   */\n      add\n        /* \"#utility.yul\":1123:1202   */\n      tag_523\n      jump\t// in\n    tag_551:\n        /* \"#utility.yul\":1114:1202   */\n      swap2\n      pop\n        /* \"#utility.yul\":930:1208   */\n      pop\n        /* \"#utility.yul\":868:1208   */\n      swap3\n      swap2\n      pop\n      pop\n      jump\t// out\n        /* \"#utility.yul\":1214:1353   */\n    tag_552:\n        /* \"#utility.yul\":1260:1265   */\n      0x00\n        /* \"#utility.yul\":1298:1304   */\n      dup2\n        /* \"#utility.yul\":1285:1305   */\n      calldataload\n        /* \"#utility.yul\":1276:1305   */\n      swap1\n      pop\n        /* \"#utility.yul\":1314:1347   */\n      tag_554\n        /* \"#utility.yul\":1341:1346   */\n      dup2\n        /* \"#utility.yul\":1314:1347   */\n      tag_555\n      jump\t// in\n    tag_554:\n        /* \"#utility.yul\":1214:1353   */\n      swap3\n      swap2\n      pop\n      pop\n      jump\t// out\n        /* \"#utility.yul\":1359:1688   */\n    tag_48:\n        /* \"#utility.yul\":1418:1424   */\n      0x00\n        /* \"#utility.yul\":1467:1469   */\n      0x20\n        /* \"#utility.yul\":1455:1464   */\n      dup3\n        /* \"#utility.yul\":1446:1453   */\n      dup5\n        /* \"#utility.yul\":1442:1465   */\n      sub\n        /* \"#utility.yul\":1438:1470   */\n      slt\n        /* \"#utility.yul\":1435:1554   */\n      iszero\n      tag_557\n      jumpi\n        /* \"#utility.yul\":1473:1552   */\n      tag_558\n      tag_559\n      jump\t// in\n    tag_558:\n        /* \"#utility.yul\":1435:1554   */\n    tag_557:\n        /* \"#utility.yul\":1593:1594   */\n      0x00\n        /* \"#utility.yul\":1618:1671   */\n      tag_560\n        /* \"#utility.yul\":1663:1670   */\n      dup5\n        /* \"#utility.yul\":1654:1660   */\n      dup3\n        /* \"#utility.yul\":1643:1652   */\n      dup6\n        /* \"#utility.yul\":1639:1661   */\n      add\n        /* \"#utility.yul\":1618:1671   */\n      tag_534\n      jump\t// in\n    tag_560:\n        /* \"#utility.yul\":1608:1671   */\n      swap2\n      pop\n        /* \"#utility.yul\":1564:1681   */\n      pop\n        /* \"#utility.yul\":1359:1688   */\n      swap3\n      swap2\n      pop\n      pop\n      jump\t// out\n        /* \"#utility.yul\":1694:2168   */\n    tag_36:\n        /* \"#utility.yul\":1762:1768   */\n      0x00\n        /* \"#utility.yul\":1770:1776   */\n      dup1\n        /* \"#utility.yul\":1819:1821   */\n      0x40\n        /* \"#utility.yul\":1807:1816   */\n      dup4\n        /* \"#utility.yul\":1798:1805   */\n      dup6\n        /* \"#utility.yul\":1794:1817   */\n      sub\n        /* \"#utility.yul\":1790:1822   */\n      slt\n        /* \"#utility.yul\":1787:1906   */\n      iszero\n      tag_562\n      jumpi\n        /* \"#utility.yul\":1825:1904   */\n      tag_563\n      tag_559\n      jump\t// in\n    tag_563:\n        /* \"#utility.yul\":1787:1906   */\n    tag_562:\n        /* \"#utility.yul\":1945:1946   */\n      0x00\n        /* \"#utility.yul\":1970:2023   */\n      tag_564\n        /* \"#utility.yul\":2015:2022   */\n      dup6\n        /* \"#utility.yul\":2006:2012   */\n      dup3\n        /* \"#utility.yul\":1995:2004   */\n      dup7\n        /* \"#utility.yul\":1991:2013   */\n      add\n        /* \"#utility.yul\":1970:2023   */\n      tag_534\n      jump\t// in\n    tag_564:\n        /* \"#utility.yul\":1960:2023   */\n      swap3\n      pop\n        /* \"#utility.yul\":1916:2033   */\n      pop\n        /* \"#utility.yul\":2072:2074   */\n      0x20\n        /* \"#utility.yul\":2098:2151   */\n      tag_565\n        /* \"#utility.yul\":2143:2150   */\n      dup6\n        /* \"#utility.yul\":2134:2140   */\n      dup3\n        /* \"#utility.yul\":2123:2132   */\n      dup7\n        /* \"#utility.yul\":2119:2141   */\n      add\n        /* \"#utility.yul\":2098:2151   */\n      tag_542\n      jump\t// in\n    tag_565:\n        /* \"#utility.yul\":2088:2151   */\n      swap2\n      pop\n        /* \"#utility.yul\":2043:2161   */\n      pop\n        /* \"#utility.yul\":1694:2168   */\n      swap3\n      pop\n      swap3\n      swap1\n      pop\n      jump\t// out\n        /* \"#utility.yul\":2174:2648   */\n    tag_80:\n        /* \"#utility.yul\":2242:2248   */\n      0x00\n        /* \"#utility.yul\":2250:2256   */\n      dup1\n        /* \"#utility.yul\":2299:2301   */\n      0x40\n        /* \"#utility.yul\":2287:2296   */\n      dup4\n        /* \"#utility.yul\":2278:2285   */\n      dup6\n        /* \"#utility.yul\":2274:2297   */\n      sub\n        /* \"#utility.yul\":2270:2302   */\n      slt\n        /* \"#utility.yul\":2267:2386   */\n      iszero\n      tag_567\n      jumpi\n        /* \"#utility.yul\":2305:2384   */\n      tag_568\n      tag_559\n      jump\t// in\n    tag_568:\n        /* \"#utility.yul\":2267:2386   */\n    tag_567:\n        /* \"#utility.yul\":2425:2426   */\n      0x00\n        /* \"#utility.yul\":2450:2503   */\n      tag_569\n        /* \"#utility.yul\":2495:2502   */\n      dup6\n        /* \"#utility.yul\":2486:2492   */\n      dup3\n        /* \"#utility.yul\":2475:2484   */\n      dup7\n        /* \"#utility.yul\":2471:2493   */\n      add\n        /* \"#utility.yul\":2450:2503   */\n      tag_534\n      jump\t// in\n    tag_569:\n        /* \"#utility.yul\":2440:2503   */\n      swap3\n      pop\n        /* \"#utility.yul\":2396:2513   */\n      pop\n        /* \"#utility.yul\":2552:2554   */\n      0x20\n        /* \"#utility.yul\":2578:2631   */\n      tag_570\n        /* \"#utility.yul\":2623:2630   */\n      dup6\n        /* \"#utility.yul\":2614:2620   */\n      dup3\n        /* \"#utility.yul\":2603:2612   */\n      dup7\n        /* \"#utility.yul\":2599:2621   */\n      add\n        /* \"#utility.yul\":2578:2631   */\n      tag_552\n      jump\t// in\n    tag_570:\n        /* \"#utility.yul\":2568:2631   */\n      swap2\n      pop\n        /* \"#utility.yul\":2523:2641   */\n      pop\n        /* \"#utility.yul\":2174:2648   */\n      swap3\n      pop\n      swap3\n      swap1\n      pop\n      jump\t// out\n        /* \"#utility.yul\":2654:3711   */\n    tag_43:\n        /* \"#utility.yul\":2758:2764   */\n      0x00\n        /* \"#utility.yul\":2766:2772   */\n      dup1\n        /* \"#utility.yul\":2774:2780   */\n      0x00\n        /* \"#utility.yul\":2782:2788   */\n      dup1\n        /* \"#utility.yul\":2790:2796   */\n      0x00\n        /* \"#utility.yul\":2798:2804   */\n      dup1\n        /* \"#utility.yul\":2847:2850   */\n      0xc0\n        /* \"#utility.yul\":2835:2844   */\n      dup8\n        /* \"#utility.yul\":2826:2833   */\n      dup10\n        /* \"#utility.yul\":2822:2845   */\n      sub\n        /* \"#utility.yul\":2818:2851   */\n      slt\n        /* \"#utility.yul\":2815:2935   */\n      iszero\n      tag_572\n      jumpi\n        /* \"#utility.yul\":2854:2933   */\n      tag_573\n      tag_559\n      jump\t// in\n    tag_573:\n        /* \"#utility.yul\":2815:2935   */\n    tag_572:\n        /* \"#utility.yul\":2974:2975   */\n      0x00\n        /* \"#utility.yul\":2999:3052   */\n      tag_574\n        /* \"#utility.yul\":3044:3051   */\n      dup10\n        /* \"#utility.yul\":3035:3041   */\n      dup3\n        /* \"#utility.yul\":3024:3033   */\n      dup11\n        /* \"#utility.yul\":3020:3042   */\n      add\n        /* \"#utility.yul\":2999:3052   */\n      tag_534\n      jump\t// in\n    tag_574:\n        /* \"#utility.yul\":2989:3052   */\n      swap7\n      pop\n        /* \"#utility.yul\":2945:3062   */\n      pop\n        /* \"#utility.yul\":3101:3103   */\n      0x20\n        /* \"#utility.yul\":3127:3180   */\n      tag_575\n        /* \"#utility.yul\":3172:3179   */\n      dup10\n        /* \"#utility.yul\":3163:3169   */\n      dup3\n        /* \"#utility.yul\":3152:3161   */\n      dup11\n        /* \"#utility.yul\":3148:3170   */\n      add\n        /* \"#utility.yul\":3127:3180   */\n      tag_552\n      jump\t// in\n    tag_575:\n        /* \"#utility.yul\":3117:3180   */\n      swap6\n      pop\n        /* \"#utility.yul\":3072:3190   */\n      pop\n        /* \"#utility.yul\":3229:3231   */\n      0x40\n        /* \"#utility.yul\":3255:3308   */\n      tag_576\n        /* \"#utility.yul\":3300:3307   */\n      dup10\n        /* \"#utility.yul\":3291:3297   */\n      dup3\n        /* \"#utility.yul\":3280:3289   */\n      dup11\n        /* \"#utility.yul\":3276:3298   */\n      add\n        /* \"#utility.yul\":3255:3308   */\n      tag_542\n      jump\t// in\n    tag_576:\n        /* \"#utility.yul\":3245:3308   */\n      swap5\n      pop\n        /* \"#utility.yul\":3200:3318   */\n      pop\n        /* \"#utility.yul\":3357:3359   */\n      0x60\n        /* \"#utility.yul\":3383:3436   */\n      tag_577\n        /* \"#utility.yul\":3428:3435   */\n      dup10\n        /* \"#utility.yul\":3419:3425   */\n      dup3\n        /* \"#utility.yul\":3408:3417   */\n      dup11\n        /* \"#utility.yul\":3404:3426   */\n      add\n        /* \"#utility.yul\":3383:3436   */\n      tag_552\n      jump\t// in\n    tag_577:\n        /* \"#utility.yul\":3373:3436   */\n      swap4\n      pop\n        /* \"#utility.yul\":3328:3446   */\n      pop\n        /* \"#utility.yul\":3485:3488   */\n      0x80\n        /* \"#utility.yul\":3512:3565   */\n      tag_578\n        /* \"#utility.yul\":3557:3564   */\n      dup10\n        /* \"#utility.yul\":3548:3554   */\n      dup3\n        /* \"#utility.yul\":3537:3546   */\n      dup11\n        /* \"#utility.yul\":3533:3555   */\n      add\n        /* \"#utility.yul\":3512:3565   */\n      tag_552\n      jump\t// in\n    tag_578:\n        /* \"#utility.yul\":3502:3565   */\n      swap3\n      pop\n        /* \"#utility.yul\":3456:3575   */\n      pop\n        /* \"#utility.yul\":3614:3617   */\n      0xa0\n        /* \"#utility.yul\":3641:3694   */\n      tag_579\n        /* \"#utility.yul\":3686:3693   */\n      dup10\n        /* \"#utility.yul\":3677:3683   */\n      dup3\n        /* \"#utility.yul\":3666:3675   */\n      dup11\n        /* \"#utility.yul\":3662:3684   */\n      add\n        /* \"#utility.yul\":3641:3694   */\n      tag_552\n      jump\t// in\n    tag_579:\n        /* \"#utility.yul\":3631:3694   */\n      swap2\n      pop\n        /* \"#utility.yul\":3585:3704   */\n      pop\n        /* \"#utility.yul\":2654:3711   */\n      swap3\n      swap6\n      pop\n      swap3\n      swap6\n      pop\n      swap3\n      swap6\n      jump\t// out\n        /* \"#utility.yul\":3717:4046   */\n    tag_65:\n        /* \"#utility.yul\":3776:3782   */\n      0x00\n        /* \"#utility.yul\":3825:3827   */\n      0x20\n        /* \"#utility.yul\":3813:3822   */\n      dup3\n        /* \"#utility.yul\":3804:3811   */\n      dup5\n        /* \"#utility.yul\":3800:3823   */\n      sub\n        /* \"#utility.yul\":3796:3828   */\n      slt\n        /* \"#utility.yul\":3793:3912   */\n      iszero\n      tag_581\n      jumpi\n        /* \"#utility.yul\":3831:3910   */\n      tag_582\n      tag_559\n      jump\t// in\n    tag_582:\n        /* \"#utility.yul\":3793:3912   */\n    tag_581:\n        /* \"#utility.yul\":3951:3952   */\n      0x00\n        /* \"#utility.yul\":3976:4029   */\n      tag_583\n        /* \"#utility.yul\":4021:4028   */\n      dup5\n        /* \"#utility.yul\":4012:4018   */\n      dup3\n        /* \"#utility.yul\":4001:4010   */\n      dup6\n        /* \"#utility.yul\":3997:4019   */\n      add\n        /* \"#utility.yul\":3976:4029   */\n      tag_542\n      jump\t// in\n    tag_583:\n        /* \"#utility.yul\":3966:4029   */\n      swap2\n      pop\n        /* \"#utility.yul\":3922:4039   */\n      pop\n        /* \"#utility.yul\":3717:4046   */\n      swap3\n      swap2\n      pop\n      pop\n      jump\t// out\n        /* \"#utility.yul\":4052:4817   */\n    tag_75:\n        /* \"#utility.yul\":4138:4144   */\n      0x00\n        /* \"#utility.yul\":4146:4152   */\n      dup1\n        /* \"#utility.yul\":4154:4160   */\n      0x00\n        /* \"#utility.yul\":4162:4168   */\n      dup1\n        /* \"#utility.yul\":4211:4214   */\n      0x80\n        /* \"#utility.yul\":4199:4208   */\n      dup6\n        /* \"#utility.yul\":4190:4197   */\n      dup8\n        /* \"#utility.yul\":4186:4209   */\n      sub\n        /* \"#utility.yul\":4182:4215   */\n      slt\n        /* \"#utility.yul\":4179:4299   */\n      iszero\n      tag_585\n      jumpi\n        /* \"#utility.yul\":4218:4297   */\n      tag_586\n      tag_559\n      jump\t// in\n    tag_586:\n        /* \"#utility.yul\":4179:4299   */\n    tag_585:\n        /* \"#utility.yul\":4338:4339   */\n      0x00\n        /* \"#utility.yul\":4363:4416   */\n      tag_587\n        /* \"#utility.yul\":4408:4415   */\n      dup8\n        /* \"#utility.yul\":4399:4405   */\n      dup3\n        /* \"#utility.yul\":4388:4397   */\n      dup9\n        /* \"#utility.yul\":4384:4406   */\n      add\n        /* \"#utility.yul\":4363:4416   */\n      tag_542\n      jump\t// in\n    tag_587:\n        /* \"#utility.yul\":4353:4416   */\n      swap5\n      pop\n        /* \"#utility.yul\":4309:4426   */\n      pop\n        /* \"#utility.yul\":4465:4467   */\n      0x20\n        /* \"#utility.yul\":4491:4544   */\n      tag_588\n        /* \"#utility.yul\":4536:4543   */\n      dup8\n        /* \"#utility.yul\":4527:4533   */\n      dup3\n        /* \"#utility.yul\":4516:4525   */\n      dup9\n        /* \"#utility.yul\":4512:4534   */\n      add\n        /* \"#utility.yul\":4491:4544   */\n      tag_552\n      jump\t// in\n    tag_588:\n        /* \"#utility.yul\":4481:4544   */\n      swap4\n      pop\n        /* \"#utility.yul\":4436:4554   */\n      pop\n        /* \"#utility.yul\":4593:4595   */\n      0x40\n        /* \"#utility.yul\":4619:4672   */\n      tag_589\n        /* \"#utility.yul\":4664:4671   */\n      dup8\n        /* \"#utility.yul\":4655:4661   */\n      dup3\n        /* \"#utility.yul\":4644:4653   */\n      dup9\n        /* \"#utility.yul\":4640:4662   */\n      add\n        /* \"#utility.yul\":4619:4672   */\n      tag_552\n      jump\t// in\n    tag_589:\n        /* \"#utility.yul\":4609:4672   */\n      swap3\n      pop\n        /* \"#utility.yul\":4564:4682   */\n      pop\n        /* \"#utility.yul\":4721:4723   */\n      0x60\n        /* \"#utility.yul\":4747:4800   */\n      tag_590\n        /* \"#utility.yul\":4792:4799   */\n      dup8\n        /* \"#utility.yul\":4783:4789   */\n      dup3\n        /* \"#utility.yul\":4772:4781   */\n      dup9\n        /* \"#utility.yul\":4768:4790   */\n      add\n        /* \"#utility.yul\":4747:4800   */\n      tag_552\n      jump\t// in\n    tag_590:\n        /* \"#utility.yul\":4737:4800   */\n      swap2\n      pop\n        /* \"#utility.yul\":4692:4810   */\n      pop\n        /* \"#utility.yul\":4052:4817   */\n      swap3\n      swap6\n      swap2\n      swap5\n      pop\n      swap3\n      pop\n      jump\t// out\n        /* \"#utility.yul\":4823:6122   */\n    tag_54:\n        /* \"#utility.yul\":4936:4942   */\n      0x00\n        /* \"#utility.yul\":4944:4950   */\n      dup1\n        /* \"#utility.yul\":4952:4958   */\n      0x00\n        /* \"#utility.yul\":4960:4966   */\n      dup1\n        /* \"#utility.yul\":5009:5012   */\n      0x80\n        /* \"#utility.yul\":4997:5006   */\n      dup6\n        /* \"#utility.yul\":4988:4995   */\n      dup8\n        /* \"#utility.yul\":4984:5007   */\n      sub\n        /* \"#utility.yul\":4980:5013   */\n      slt\n        /* \"#utility.yul\":4977:5097   */\n      iszero\n      tag_592\n      jumpi\n        /* \"#utility.yul\":5016:5095   */\n      tag_593\n      tag_559\n      jump\t// in\n    tag_593:\n        /* \"#utility.yul\":4977:5097   */\n    tag_592:\n        /* \"#utility.yul\":5164:5165   */\n      0x00\n        /* \"#utility.yul\":5153:5162   */\n      dup6\n        /* \"#utility.yul\":5149:5166   */\n      add\n        /* \"#utility.yul\":5136:5167   */\n      calldataload\n        /* \"#utility.yul\":5194:5212   */\n      0xffffffffffffffff\n        /* \"#utility.yul\":5186:5192   */\n      dup2\n        /* \"#utility.yul\":5183:5213   */\n      gt\n        /* \"#utility.yul\":5180:5297   */\n      iszero\n      tag_594\n      jumpi\n        /* \"#utility.yul\":5216:5295   */\n      tag_595\n      tag_596\n      jump\t// in\n    tag_595:\n        /* \"#utility.yul\":5180:5297   */\n    tag_594:\n        /* \"#utility.yul\":5321:5384   */\n      tag_597\n        /* \"#utility.yul\":5376:5383   */\n      dup8\n        /* \"#utility.yul\":5367:5373   */\n      dup3\n        /* \"#utility.yul\":5356:5365   */\n      dup9\n        /* \"#utility.yul\":5352:5374   */\n      add\n        /* \"#utility.yul\":5321:5384   */\n      tag_546\n      jump\t// in\n    tag_597:\n        /* \"#utility.yul\":5311:5384   */\n      swap5\n      pop\n        /* \"#utility.yul\":5107:5394   */\n      pop\n        /* \"#utility.yul\":5461:5463   */\n      0x20\n        /* \"#utility.yul\":5450:5459   */\n      dup6\n        /* \"#utility.yul\":5446:5464   */\n      add\n        /* \"#utility.yul\":5433:5465   */\n      calldataload\n        /* \"#utility.yul\":5492:5510   */\n      0xffffffffffffffff\n        /* \"#utility.yul\":5484:5490   */\n      dup2\n        /* \"#utility.yul\":5481:5511   */\n      gt\n        /* \"#utility.yul\":5478:5595   */\n      iszero\n      tag_598\n      jumpi\n        /* \"#utility.yul\":5514:5593   */\n      tag_599\n      tag_596\n      jump\t// in\n    tag_599:\n        /* \"#utility.yul\":5478:5595   */\n    tag_598:\n        /* \"#utility.yul\":5619:5682   */\n      tag_600\n        /* \"#utility.yul\":5674:5681   */\n      dup8\n        /* \"#utility.yul\":5665:5671   */\n      dup3\n        /* \"#utility.yul\":5654:5663   */\n      dup9\n        /* \"#utility.yul\":5650:5672   */\n      add\n        /* \"#utility.yul\":5619:5682   */\n      tag_546\n      jump\t// in\n    tag_600:\n        /* \"#utility.yul\":5609:5682   */\n      swap4\n      pop\n        /* \"#utility.yul\":5404:5692   */\n      pop\n        /* \"#utility.yul\":5759:5761   */\n      0x40\n        /* \"#utility.yul\":5748:5757   */\n      dup6\n        /* \"#utility.yul\":5744:5762   */\n      add\n        /* \"#utility.yul\":5731:5763   */\n      calldataload\n        /* \"#utility.yul\":5790:5808   */\n      0xffffffffffffffff\n        /* \"#utility.yul\":5782:5788   */\n      dup2\n        /* \"#utility.yul\":5779:5809   */\n      gt\n        /* \"#utility.yul\":5776:5893   */\n      iszero\n      tag_601\n      jumpi\n        /* \"#utility.yul\":5812:5891   */\n      tag_602\n      tag_596\n      jump\t// in\n    tag_602:\n        /* \"#utility.yul\":5776:5893   */\n    tag_601:\n        /* \"#utility.yul\":5917:5980   */\n      tag_603\n        /* \"#utility.yul\":5972:5979   */\n      dup8\n        /* \"#utility.yul\":5963:5969   */\n      dup3\n        /* \"#utility.yul\":5952:5961   */\n      dup9\n        /* \"#utility.yul\":5948:5970   */\n      add\n        /* \"#utility.yul\":5917:5980   */\n      tag_546\n      jump\t// in\n    tag_603:\n        /* \"#utility.yul\":5907:5980   */\n      swap3\n      pop\n        /* \"#utility.yul\":5702:5990   */\n      pop\n        /* \"#utility.yul\":6029:6031   */\n      0x60\n        /* \"#utility.yul\":6055:6105   */\n      tag_604\n        /* \"#utility.yul\":6097:6104   */\n      dup8\n        /* \"#utility.yul\":6088:6094   */\n      dup3\n        /* \"#utility.yul\":6077:6086   */\n      dup9\n        /* \"#utility.yul\":6073:6095   */\n      add\n        /* \"#utility.yul\":6055:6105   */\n      tag_538\n      jump\t// in\n    tag_604:\n        /* \"#utility.yul\":6045:6105   */\n      swap2\n      pop\n        /* \"#utility.yul\":6000:6115   */\n      pop\n        /* \"#utility.yul\":4823:6122   */\n      swap3\n      swap6\n      swap2\n      swap5\n      pop\n      swap3\n      pop\n      jump\t// out\n        /* \"#utility.yul\":6128:6307   */\n    tag_605:\n        /* \"#utility.yul\":6197:6207   */\n      0x00\n        /* \"#utility.yul\":6218:6264   */\n      tag_607\n        /* \"#utility.yul\":6260:6263   */\n      dup4\n        /* \"#utility.yul\":6252:6258   */\n      dup4\n        /* \"#utility.yul\":6218:6264   */\n      tag_608\n      jump\t// in\n    tag_607:\n        /* \"#utility.yul\":6296:6300   */\n      0x20\n        /* \"#utility.yul\":6291:6294   */\n      dup4\n        /* \"#utility.yul\":6287:6301   */\n      add\n        /* \"#utility.yul\":6273:6301   */\n      swap1\n      pop\n        /* \"#utility.yul\":6128:6307   */\n      swap3\n      swap2\n      pop\n      pop\n      jump\t// out\n        /* \"#utility.yul\":6313:6431   */\n    tag_609:\n        /* \"#utility.yul\":6400:6424   */\n      tag_611\n        /* \"#utility.yul\":6418:6423   */\n      dup2\n        /* \"#utility.yul\":6400:6424   */\n      tag_612\n      jump\t// in\n    tag_611:\n        /* \"#utility.yul\":6395:6398   */\n      dup3\n        /* \"#utility.yul\":6388:6425   */\n      mstore\n        /* \"#utility.yul\":6313:6431   */\n      pop\n      pop\n      jump\t// out\n        /* \"#utility.yul\":6467:7199   */\n    tag_613:\n        /* \"#utility.yul\":6586:6589   */\n      0x00\n        /* \"#utility.yul\":6615:6669   */\n      tag_615\n        /* \"#utility.yul\":6663:6668   */\n      dup3\n        /* \"#utility.yul\":6615:6669   */\n      tag_616\n      jump\t// in\n    tag_615:\n        /* \"#utility.yul\":6685:6771   */\n      tag_617\n        /* \"#utility.yul\":6764:6770   */\n      dup2\n        /* \"#utility.yul\":6759:6762   */\n      dup6\n        /* \"#utility.yul\":6685:6771   */\n      tag_618\n      jump\t// in\n    tag_617:\n        /* \"#utility.yul\":6678:6771   */\n      swap4\n      pop\n        /* \"#utility.yul\":6795:6851   */\n      tag_619\n        /* \"#utility.yul\":6845:6850   */\n      dup4\n        /* \"#utility.yul\":6795:6851   */\n      tag_620\n      jump\t// in\n    tag_619:\n        /* \"#utility.yul\":6874:6881   */\n      dup1\n        /* \"#utility.yul\":6905:6906   */\n      0x00\n        /* \"#utility.yul\":6890:7174   */\n    tag_621:\n        /* \"#utility.yul\":6915:6921   */\n      dup4\n        /* \"#utility.yul\":6912:6913   */\n      dup2\n        /* \"#utility.yul\":6909:6922   */\n      lt\n        /* \"#utility.yul\":6890:7174   */\n      iszero\n      tag_623\n      jumpi\n        /* \"#utility.yul\":6991:6997   */\n      dup2\n        /* \"#utility.yul\":6985:6998   */\n      mload\n        /* \"#utility.yul\":7018:7081   */\n      tag_624\n        /* \"#utility.yul\":7077:7080   */\n      dup9\n        /* \"#utility.yul\":7062:7075   */\n      dup3\n        /* \"#utility.yul\":7018:7081   */\n      tag_605\n      jump\t// in\n    tag_624:\n        /* \"#utility.yul\":7011:7081   */\n      swap8\n      pop\n        /* \"#utility.yul\":7104:7164   */\n      tag_625\n        /* \"#utility.yul\":7157:7163   */\n      dup4\n        /* \"#utility.yul\":7104:7164   */\n      tag_626\n      jump\t// in\n    tag_625:\n        /* \"#utility.yul\":7094:7164   */\n      swap3\n      pop\n        /* \"#utility.yul\":6950:7174   */\n      pop\n        /* \"#utility.yul\":6937:6938   */\n      0x01\n        /* \"#utility.yul\":6934:6935   */\n      dup2\n        /* \"#utility.yul\":6930:6939   */\n      add\n        /* \"#utility.yul\":6925:6939   */\n      swap1\n      pop\n        /* \"#utility.yul\":6890:7174   */\n      jump(tag_621)\n    tag_623:\n        /* \"#utility.yul\":6894:6908   */\n      pop\n        /* \"#utility.yul\":7190:7193   */\n      dup6\n        /* \"#utility.yul\":7183:7193   */\n      swap4\n      pop\n        /* \"#utility.yul\":6591:7199   */\n      pop\n      pop\n      pop\n        /* \"#utility.yul\":6467:7199   */\n      swap3\n      swap2\n      pop\n      pop\n      jump\t// out\n        /* \"#utility.yul\":7205:7314   */\n    tag_627:\n        /* \"#utility.yul\":7286:7307   */\n      tag_629\n        /* \"#utility.yul\":7301:7306   */\n      dup2\n        /* \"#utility.yul\":7286:7307   */\n      tag_630\n      jump\t// in\n    tag_629:\n        /* \"#utility.yul\":7281:7284   */\n      dup3\n        /* \"#utility.yul\":7274:7308   */\n      mstore\n        /* \"#utility.yul\":7205:7314   */\n      pop\n      pop\n      jump\t// out\n        /* \"#utility.yul\":7320:7428   */\n    tag_608:\n        /* \"#utility.yul\":7397:7421   */\n      tag_632\n        /* \"#utility.yul\":7415:7420   */\n      dup2\n        /* \"#utility.yul\":7397:7421   */\n      tag_633\n      jump\t// in\n    tag_632:\n        /* \"#utility.yul\":7392:7395   */\n      dup3\n        /* \"#utility.yul\":7385:7422   */\n      mstore\n        /* \"#utility.yul\":7320:7428   */\n      pop\n      pop\n      jump\t// out\n        /* \"#utility.yul\":7434:7552   */\n    tag_634:\n        /* \"#utility.yul\":7521:7545   */\n      tag_636\n        /* \"#utility.yul\":7539:7544   */\n      dup2\n        /* \"#utility.yul\":7521:7545   */\n      tag_633\n      jump\t// in\n    tag_636:\n        /* \"#utility.yul\":7516:7519   */\n      dup3\n        /* \"#utility.yul\":7509:7546   */\n      mstore\n        /* \"#utility.yul\":7434:7552   */\n      pop\n      pop\n      jump\t// out\n        /* \"#utility.yul\":7558:7922   */\n    tag_637:\n        /* \"#utility.yul\":7646:7649   */\n      0x00\n        /* \"#utility.yul\":7674:7713   */\n      tag_639\n        /* \"#utility.yul\":7707:7712   */\n      dup3\n        /* \"#utility.yul\":7674:7713   */\n      tag_640\n      jump\t// in\n    tag_639:\n        /* \"#utility.yul\":7729:7800   */\n      tag_641\n        /* \"#utility.yul\":7793:7799   */\n      dup2\n        /* \"#utility.yul\":7788:7791   */\n      dup6\n        /* \"#utility.yul\":7729:7800   */\n      tag_642\n      jump\t// in\n    tag_641:\n        /* \"#utility.yul\":7722:7800   */\n      swap4\n      pop\n        /* \"#utility.yul\":7809:7861   */\n      tag_643\n        /* \"#utility.yul\":7854:7860   */\n      dup2\n        /* \"#utility.yul\":7849:7852   */\n      dup6\n        /* \"#utility.yul\":7842:7846   */\n      0x20\n        /* \"#utility.yul\":7835:7840   */\n      dup7\n        /* \"#utility.yul\":7831:7847   */\n      add\n        /* \"#utility.yul\":7809:7861   */\n      tag_644\n      jump\t// in\n    tag_643:\n        /* \"#utility.yul\":7886:7915   */\n      tag_645\n        /* \"#utility.yul\":7908:7914   */\n      dup2\n        /* \"#utility.yul\":7886:7915   */\n      tag_646\n      jump\t// in\n    tag_645:\n        /* \"#utility.yul\":7881:7884   */\n      dup5\n        /* \"#utility.yul\":7877:7916   */\n      add\n        /* \"#utility.yul\":7870:7916   */\n      swap2\n      pop\n        /* \"#utility.yul\":7650:7922   */\n      pop\n        /* \"#utility.yul\":7558:7922   */\n      swap3\n      swap2\n      pop\n      pop\n      jump\t// out\n        /* \"#utility.yul\":7928:8305   */\n    tag_647:\n        /* \"#utility.yul\":8034:8037   */\n      0x00\n        /* \"#utility.yul\":8062:8101   */\n      tag_649\n        /* \"#utility.yul\":8095:8100   */\n      dup3\n        /* \"#utility.yul\":8062:8101   */\n      tag_640\n      jump\t// in\n    tag_649:\n        /* \"#utility.yul\":8117:8206   */\n      tag_650\n        /* \"#utility.yul\":8199:8205   */\n      dup2\n        /* \"#utility.yul\":8194:8197   */\n      dup6\n        /* \"#utility.yul\":8117:8206   */\n      tag_651\n      jump\t// in\n    tag_650:\n        /* \"#utility.yul\":8110:8206   */\n      swap4\n      pop\n        /* \"#utility.yul\":8215:8267   */\n      tag_652\n        /* \"#utility.yul\":8260:8266   */\n      dup2\n        /* \"#utility.yul\":8255:8258   */\n      dup6\n        /* \"#utility.yul\":8248:8252   */\n      0x20\n        /* \"#utility.yul\":8241:8246   */\n      dup7\n        /* \"#utility.yul\":8237:8253   */\n      add\n        /* \"#utility.yul\":8215:8267   */\n      tag_644\n      jump\t// in\n    tag_652:\n        /* \"#utility.yul\":8292:8298   */\n      dup1\n        /* \"#utility.yul\":8287:8290   */\n      dup5\n        /* \"#utility.yul\":8283:8299   */\n      add\n        /* \"#utility.yul\":8276:8299   */\n      swap2\n      pop\n        /* \"#utility.yul\":8038:8305   */\n      pop\n        /* \"#utility.yul\":7928:8305   */\n      swap3\n      swap2\n      pop\n      pop\n      jump\t// out\n        /* \"#utility.yul\":8311:8677   */\n    tag_653:\n        /* \"#utility.yul\":8453:8456   */\n      0x00\n        /* \"#utility.yul\":8474:8541   */\n      tag_655\n        /* \"#utility.yul\":8538:8540   */\n      0x19\n        /* \"#utility.yul\":8533:8536   */\n      dup4\n        /* \"#utility.yul\":8474:8541   */\n      tag_642\n      jump\t// in\n    tag_655:\n        /* \"#utility.yul\":8467:8541   */\n      swap2\n      pop\n        /* \"#utility.yul\":8550:8643   */\n      tag_656\n        /* \"#utility.yul\":8639:8642   */\n      dup3\n        /* \"#utility.yul\":8550:8643   */\n      tag_657\n      jump\t// in\n    tag_656:\n        /* \"#utility.yul\":8668:8670   */\n      0x20\n        /* \"#utility.yul\":8663:8666   */\n      dup3\n        /* \"#utility.yul\":8659:8671   */\n      add\n        /* \"#utility.yul\":8652:8671   */\n      swap1\n      pop\n        /* \"#utility.yul\":8311:8677   */\n      swap2\n      swap1\n      pop\n      jump\t// out\n        /* \"#utility.yul\":8683:9048   */\n    tag_658:\n        /* \"#utility.yul\":8825:8828   */\n      0x00\n        /* \"#utility.yul\":8846:8912   */\n      tag_660\n        /* \"#utility.yul\":8910:8911   */\n      0x09\n        /* \"#utility.yul\":8905:8908   */\n      dup4\n        /* \"#utility.yul\":8846:8912   */\n      tag_642\n      jump\t// in\n    tag_660:\n        /* \"#utility.yul\":8839:8912   */\n      swap2\n      pop\n        /* \"#utility.yul\":8921:9014   */\n      tag_661\n        /* \"#utility.yul\":9010:9013   */\n      dup3\n        /* \"#utility.yul\":8921:9014   */\n      tag_662\n      jump\t// in\n    tag_661:\n        /* \"#utility.yul\":9039:9041   */\n      0x20\n        /* \"#utility.yul\":9034:9037   */\n      dup3\n        /* \"#utility.yul\":9030:9042   */\n      add\n        /* \"#utility.yul\":9023:9042   */\n      swap1\n      pop\n        /* \"#utility.yul\":8683:9048   */\n      swap2\n      swap1\n      pop\n      jump\t// out\n        /* \"#utility.yul\":9054:9420   */\n    tag_663:\n        /* \"#utility.yul\":9196:9199   */\n      0x00\n        /* \"#utility.yul\":9217:9284   */\n      tag_665\n        /* \"#utility.yul\":9281:9283   */\n      0x0e\n        /* \"#utility.yul\":9276:9279   */\n      dup4\n        /* \"#utility.yul\":9217:9284   */\n      tag_642\n      jump\t// in\n    tag_665:\n        /* \"#utility.yul\":9210:9284   */\n      swap2\n      pop\n        /* \"#utility.yul\":9293:9386   */\n      tag_666\n        /* \"#utility.yul\":9382:9385   */\n      dup3\n        /* \"#utility.yul\":9293:9386   */\n      tag_667\n      jump\t// in\n    tag_666:\n        /* \"#utility.yul\":9411:9413   */\n      0x20\n        /* \"#utility.yul\":9406:9409   */\n      dup3\n        /* \"#utility.yul\":9402:9414   */\n      add\n        /* \"#utility.yul\":9395:9414   */\n      swap1\n      pop\n        /* \"#utility.yul\":9054:9420   */\n      swap2\n      swap1\n      pop\n      jump\t// out\n        /* \"#utility.yul\":9426:9792   */\n    tag_668:\n        /* \"#utility.yul\":9568:9571   */\n      0x00\n        /* \"#utility.yul\":9589:9656   */\n      tag_670\n        /* \"#utility.yul\":9653:9655   */\n      0x0a\n        /* \"#utility.yul\":9648:9651   */\n      dup4\n        /* \"#utility.yul\":9589:9656   */\n      tag_642\n      jump\t// in\n    tag_670:\n        /* \"#utility.yul\":9582:9656   */\n      swap2\n      pop\n        /* \"#utility.yul\":9665:9758   */\n      tag_671\n        /* \"#utility.yul\":9754:9757   */\n      dup3\n        /* \"#utility.yul\":9665:9758   */\n      tag_672\n      jump\t// in\n    tag_671:\n        /* \"#utility.yul\":9783:9785   */\n      0x20\n        /* \"#utility.yul\":9778:9781   */\n      dup3\n        /* \"#utility.yul\":9774:9786   */\n      add\n        /* \"#utility.yul\":9767:9786   */\n      swap1\n      pop\n        /* \"#utility.yul\":9426:9792   */\n      swap2\n      swap1\n      pop\n      jump\t// out\n        /* \"#utility.yul\":9798:10164   */\n    tag_673:\n        /* \"#utility.yul\":9940:9943   */\n      0x00\n        /* \"#utility.yul\":9961:10028   */\n      tag_675\n        /* \"#utility.yul\":10025:10027   */\n      0x15\n        /* \"#utility.yul\":10020:10023   */\n      dup4\n        /* \"#utility.yul\":9961:10028   */\n      tag_642\n      jump\t// in\n    tag_675:\n        /* \"#utility.yul\":9954:10028   */\n      swap2\n      pop\n        /* \"#utility.yul\":10037:10130   */\n      tag_676\n        /* \"#utility.yul\":10126:10129   */\n      dup3\n        /* \"#utility.yul\":10037:10130   */\n      tag_677\n      jump\t// in\n    tag_676:\n        /* \"#utility.yul\":10155:10157   */\n      0x20\n        /* \"#utility.yul\":10150:10153   */\n      dup3\n        /* \"#utility.yul\":10146:10158   */\n      add\n        /* \"#utility.yul\":10139:10158   */\n      swap1\n      pop\n        /* \"#utility.yul\":9798:10164   */\n      swap2\n      swap1\n      pop\n      jump\t// out\n        /* \"#utility.yul\":10170:10536   */\n    tag_678:\n        /* \"#utility.yul\":10312:10315   */\n      0x00\n        /* \"#utility.yul\":10333:10400   */\n      tag_680\n        /* \"#utility.yul\":10397:10399   */\n      0x15\n        /* \"#utility.yul\":10392:10395   */\n      dup4\n        /* \"#utility.yul\":10333:10400   */\n      tag_642\n      jump\t// in\n    tag_680:\n        /* \"#utility.yul\":10326:10400   */\n      swap2\n      pop\n        /* \"#utility.yul\":10409:10502   */\n      tag_681\n        /* \"#utility.yul\":10498:10501   */\n      dup3\n        /* \"#utility.yul\":10409:10502   */\n      tag_682\n      jump\t// in\n    tag_681:\n        /* \"#utility.yul\":10527:10529   */\n      0x20\n        /* \"#utility.yul\":10522:10525   */\n      dup3\n        /* \"#utility.yul\":10518:10530   */\n      add\n        /* \"#utility.yul\":10511:10530   */\n      swap1\n      pop\n        /* \"#utility.yul\":10170:10536   */\n      swap2\n      swap1\n      pop\n      jump\t// out\n        /* \"#utility.yul\":10542:10908   */\n    tag_683:\n        /* \"#utility.yul\":10684:10687   */\n      0x00\n        /* \"#utility.yul\":10705:10772   */\n      tag_685\n        /* \"#utility.yul\":10769:10771   */\n      0x11\n        /* \"#utility.yul\":10764:10767   */\n      dup4\n        /* \"#utility.yul\":10705:10772   */\n      tag_642\n      jump\t// in\n    tag_685:\n        /* \"#utility.yul\":10698:10772   */\n      swap2\n      pop\n        /* \"#utility.yul\":10781:10874   */\n      tag_686\n        /* \"#utility.yul\":10870:10873   */\n      dup3\n        /* \"#utility.yul\":10781:10874   */\n      tag_687\n      jump\t// in\n    tag_686:\n        /* \"#utility.yul\":10899:10901   */\n      0x20\n        /* \"#utility.yul\":10894:10897   */\n      dup3\n        /* \"#utility.yul\":10890:10902   */\n      add\n        /* \"#utility.yul\":10883:10902   */\n      swap1\n      pop\n        /* \"#utility.yul\":10542:10908   */\n      swap2\n      swap1\n      pop\n      jump\t// out\n        /* \"#utility.yul\":10978:12020   */\n    tag_688:\n        /* \"#utility.yul\":11133:11137   */\n      0xa0\n        /* \"#utility.yul\":11128:11131   */\n      dup3\n        /* \"#utility.yul\":11124:11138   */\n      add\n        /* \"#utility.yul\":11221:11225   */\n      0x00\n        /* \"#utility.yul\":11214:11219   */\n      dup3\n        /* \"#utility.yul\":11210:11226   */\n      add\n        /* \"#utility.yul\":11204:11227   */\n      mload\n        /* \"#utility.yul\":11240:11303   */\n      tag_690\n        /* \"#utility.yul\":11297:11301   */\n      0x00\n        /* \"#utility.yul\":11292:11295   */\n      dup6\n        /* \"#utility.yul\":11288:11302   */\n      add\n        /* \"#utility.yul\":11274:11286   */\n      dup3\n        /* \"#utility.yul\":11240:11303   */\n      tag_691\n      jump\t// in\n    tag_690:\n        /* \"#utility.yul\":11148:11313   */\n      pop\n        /* \"#utility.yul\":11396:11400   */\n      0x20\n        /* \"#utility.yul\":11389:11394   */\n      dup3\n        /* \"#utility.yul\":11385:11401   */\n      add\n        /* \"#utility.yul\":11379:11402   */\n      mload\n        /* \"#utility.yul\":11415:11478   */\n      tag_692\n        /* \"#utility.yul\":11472:11476   */\n      0x20\n        /* \"#utility.yul\":11467:11470   */\n      dup6\n        /* \"#utility.yul\":11463:11477   */\n      add\n        /* \"#utility.yul\":11449:11461   */\n      dup3\n        /* \"#utility.yul\":11415:11478   */\n      tag_691\n      jump\t// in\n    tag_692:\n        /* \"#utility.yul\":11323:11488   */\n      pop\n        /* \"#utility.yul\":11571:11575   */\n      0x40\n        /* \"#utility.yul\":11564:11569   */\n      dup3\n        /* \"#utility.yul\":11560:11576   */\n      add\n        /* \"#utility.yul\":11554:11577   */\n      mload\n        /* \"#utility.yul\":11590:11653   */\n      tag_693\n        /* \"#utility.yul\":11647:11651   */\n      0x40\n        /* \"#utility.yul\":11642:11645   */\n      dup6\n        /* \"#utility.yul\":11638:11652   */\n      add\n        /* \"#utility.yul\":11624:11636   */\n      dup3\n        /* \"#utility.yul\":11590:11653   */\n      tag_691\n      jump\t// in\n    tag_693:\n        /* \"#utility.yul\":11498:11663   */\n      pop\n        /* \"#utility.yul\":11746:11750   */\n      0x60\n        /* \"#utility.yul\":11739:11744   */\n      dup3\n        /* \"#utility.yul\":11735:11751   */\n      add\n        /* \"#utility.yul\":11729:11752   */\n      mload\n        /* \"#utility.yul\":11765:11828   */\n      tag_694\n        /* \"#utility.yul\":11822:11826   */\n      0x60\n        /* \"#utility.yul\":11817:11820   */\n      dup6\n        /* \"#utility.yul\":11813:11827   */\n      add\n        /* \"#utility.yul\":11799:11811   */\n      dup3\n        /* \"#utility.yul\":11765:11828   */\n      tag_691\n      jump\t// in\n    tag_694:\n        /* \"#utility.yul\":11673:11838   */\n      pop\n        /* \"#utility.yul\":11921:11925   */\n      0x80\n        /* \"#utility.yul\":11914:11919   */\n      dup3\n        /* \"#utility.yul\":11910:11926   */\n      add\n        /* \"#utility.yul\":11904:11927   */\n      mload\n        /* \"#utility.yul\":11940:12003   */\n      tag_695\n        /* \"#utility.yul\":11997:12001   */\n      0x80\n        /* \"#utility.yul\":11992:11995   */\n      dup6\n        /* \"#utility.yul\":11988:12002   */\n      add\n        /* \"#utility.yul\":11974:11986   */\n      dup3\n        /* \"#utility.yul\":11940:12003   */\n      tag_691\n      jump\t// in\n    tag_695:\n        /* \"#utility.yul\":11848:12013   */\n      pop\n        /* \"#utility.yul\":11102:12020   */\n      pop\n        /* \"#utility.yul\":10978:12020   */\n      pop\n      pop\n      jump\t// out\n        /* \"#utility.yul\":12026:12134   */\n    tag_691:\n        /* \"#utility.yul\":12103:12127   */\n      tag_697\n        /* \"#utility.yul\":12121:12126   */\n      dup2\n        /* \"#utility.yul\":12103:12127   */\n      tag_698\n      jump\t// in\n    tag_697:\n        /* \"#utility.yul\":12098:12101   */\n      dup3\n        /* \"#utility.yul\":12091:12128   */\n      mstore\n        /* \"#utility.yul\":12026:12134   */\n      pop\n      pop\n      jump\t// out\n        /* \"#utility.yul\":12140:12258   */\n    tag_699:\n        /* \"#utility.yul\":12227:12251   */\n      tag_701\n        /* \"#utility.yul\":12245:12250   */\n      dup2\n        /* \"#utility.yul\":12227:12251   */\n      tag_698\n      jump\t// in\n    tag_701:\n        /* \"#utility.yul\":12222:12225   */\n      dup3\n        /* \"#utility.yul\":12215:12252   */\n      mstore\n        /* \"#utility.yul\":12140:12258   */\n      pop\n      pop\n      jump\t// out\n        /* \"#utility.yul\":12264:12421   */\n    tag_702:\n        /* \"#utility.yul\":12369:12414   */\n      tag_704\n        /* \"#utility.yul\":12389:12413   */\n      tag_705\n        /* \"#utility.yul\":12407:12412   */\n      dup3\n        /* \"#utility.yul\":12389:12413   */\n      tag_698\n      jump\t// in\n    tag_705:\n        /* \"#utility.yul\":12369:12414   */\n      tag_706\n      jump\t// in\n    tag_704:\n        /* \"#utility.yul\":12364:12367   */\n      dup3\n        /* \"#utility.yul\":12357:12415   */\n      mstore\n        /* \"#utility.yul\":12264:12421   */\n      pop\n      pop\n      jump\t// out\n        /* \"#utility.yul\":12427:12702   */\n    tag_194:\n        /* \"#utility.yul\":12559:12562   */\n      0x00\n        /* \"#utility.yul\":12581:12676   */\n      tag_708\n        /* \"#utility.yul\":12672:12675   */\n      dup3\n        /* \"#utility.yul\":12663:12669   */\n      dup5\n        /* \"#utility.yul\":12581:12676   */\n      tag_647\n      jump\t// in\n    tag_708:\n        /* \"#utility.yul\":12574:12676   */\n      swap2\n      pop\n        /* \"#utility.yul\":12693:12696   */\n      dup2\n        /* \"#utility.yul\":12686:12696   */\n      swap1\n      pop\n        /* \"#utility.yul\":12427:12702   */\n      swap3\n      swap2\n      pop\n      pop\n      jump\t// out\n        /* \"#utility.yul\":12708:12964   */\n    tag_480:\n        /* \"#utility.yul\":12820:12823   */\n      0x00\n        /* \"#utility.yul\":12835:12910   */\n      tag_710\n        /* \"#utility.yul\":12906:12909   */\n      dup3\n        /* \"#utility.yul\":12897:12903   */\n      dup5\n        /* \"#utility.yul\":12835:12910   */\n      tag_702\n      jump\t// in\n    tag_710:\n        /* \"#utility.yul\":12935:12937   */\n      0x20\n        /* \"#utility.yul\":12930:12933   */\n      dup3\n        /* \"#utility.yul\":12926:12938   */\n      add\n        /* \"#utility.yul\":12919:12938   */\n      swap2\n      pop\n        /* \"#utility.yul\":12955:12958   */\n      dup2\n        /* \"#utility.yul\":12948:12958   */\n      swap1\n      pop\n        /* \"#utility.yul\":12708:12964   */\n      swap3\n      swap2\n      pop\n      pop\n      jump\t// out\n        /* \"#utility.yul\":12970:13302   */\n    tag_27:\n        /* \"#utility.yul\":13091:13095   */\n      0x00\n        /* \"#utility.yul\":13129:13131   */\n      0x40\n        /* \"#utility.yul\":13118:13127   */\n      dup3\n        /* \"#utility.yul\":13114:13132   */\n      add\n        /* \"#utility.yul\":13106:13132   */\n      swap1\n      pop\n        /* \"#utility.yul\":13142:13213   */\n      tag_712\n        /* \"#utility.yul\":13210:13211   */\n      0x00\n        /* \"#utility.yul\":13199:13208   */\n      dup4\n        /* \"#utility.yul\":13195:13212   */\n      add\n        /* \"#utility.yul\":13186:13192   */\n      dup6\n        /* \"#utility.yul\":13142:13213   */\n      tag_609\n      jump\t// in\n    tag_712:\n        /* \"#utility.yul\":13223:13295   */\n      tag_713\n        /* \"#utility.yul\":13291:13293   */\n      0x20\n        /* \"#utility.yul\":13280:13289   */\n      dup4\n        /* \"#utility.yul\":13276:13294   */\n      add\n        /* \"#utility.yul\":13267:13273   */\n      dup5\n        /* \"#utility.yul\":13223:13295   */\n      tag_699\n      jump\t// in\n    tag_713:\n        /* \"#utility.yul\":12970:13302   */\n      swap4\n      swap3\n      pop\n      pop\n      pop\n      jump\t// out\n        /* \"#utility.yul\":13308:13681   */\n    tag_91:\n        /* \"#utility.yul\":13451:13455   */\n      0x00\n        /* \"#utility.yul\":13489:13491   */\n      0x20\n        /* \"#utility.yul\":13478:13487   */\n      dup3\n        /* \"#utility.yul\":13474:13492   */\n      add\n        /* \"#utility.yul\":13466:13492   */\n      swap1\n      pop\n        /* \"#utility.yul\":13538:13547   */\n      dup2\n        /* \"#utility.yul\":13532:13536   */\n      dup2\n        /* \"#utility.yul\":13528:13548   */\n      sub\n        /* \"#utility.yul\":13524:13525   */\n      0x00\n        /* \"#utility.yul\":13513:13522   */\n      dup4\n        /* \"#utility.yul\":13509:13526   */\n      add\n        /* \"#utility.yul\":13502:13549   */\n      mstore\n        /* \"#utility.yul\":13566:13674   */\n      tag_715\n        /* \"#utility.yul\":13669:13673   */\n      dup2\n        /* \"#utility.yul\":13660:13666   */\n      dup5\n        /* \"#utility.yul\":13566:13674   */\n      tag_613\n      jump\t// in\n    tag_715:\n        /* \"#utility.yul\":13558:13674   */\n      swap1\n      pop\n        /* \"#utility.yul\":13308:13681   */\n      swap3\n      swap2\n      pop\n      pop\n      jump\t// out\n        /* \"#utility.yul\":13687:13897   */\n    tag_39:\n        /* \"#utility.yul\":13774:13778   */\n      0x00\n        /* \"#utility.yul\":13812:13814   */\n      0x20\n        /* \"#utility.yul\":13801:13810   */\n      dup3\n        /* \"#utility.yul\":13797:13815   */\n      add\n        /* \"#utility.yul\":13789:13815   */\n      swap1\n      pop\n        /* \"#utility.yul\":13825:13890   */\n      tag_717\n        /* \"#utility.yul\":13887:13888   */\n      0x00\n        /* \"#utility.yul\":13876:13885   */\n      dup4\n        /* \"#utility.yul\":13872:13889   */\n      add\n        /* \"#utility.yul\":13863:13869   */\n      dup5\n        /* \"#utility.yul\":13825:13890   */\n      tag_627\n      jump\t// in\n    tag_717:\n        /* \"#utility.yul\":13687:13897   */\n      swap3\n      swap2\n      pop\n      pop\n      jump\t// out\n        /* \"#utility.yul\":13903:14125   */\n    tag_57:\n        /* \"#utility.yul\":13996:14000   */\n      0x00\n        /* \"#utility.yul\":14034:14036   */\n      0x20\n        /* \"#utility.yul\":14023:14032   */\n      dup3\n        /* \"#utility.yul\":14019:14037   */\n      add\n        /* \"#utility.yul\":14011:14037   */\n      swap1\n      pop\n        /* \"#utility.yul\":14047:14118   */\n      tag_719\n        /* \"#utility.yul\":14115:14116   */\n      0x00\n        /* \"#utility.yul\":14104:14113   */\n      dup4\n        /* \"#utility.yul\":14100:14117   */\n      add\n        /* \"#utility.yul\":14091:14097   */\n      dup5\n        /* \"#utility.yul\":14047:14118   */\n      tag_634\n      jump\t// in\n    tag_719:\n        /* \"#utility.yul\":13903:14125   */\n      swap3\n      swap2\n      pop\n      pop\n      jump\t// out\n        /* \"#utility.yul\":14131:14872   */\n    tag_97:\n        /* \"#utility.yul\":14378:14382   */\n      0x00\n        /* \"#utility.yul\":14416:14419   */\n      0xe0\n        /* \"#utility.yul\":14405:14414   */\n      dup3\n        /* \"#utility.yul\":14401:14420   */\n      add\n        /* \"#utility.yul\":14393:14420   */\n      swap1\n      pop\n        /* \"#utility.yul\":14466:14475   */\n      dup2\n        /* \"#utility.yul\":14460:14464   */\n      dup2\n        /* \"#utility.yul\":14456:14476   */\n      sub\n        /* \"#utility.yul\":14452:14453   */\n      0x00\n        /* \"#utility.yul\":14441:14450   */\n      dup4\n        /* \"#utility.yul\":14437:14454   */\n      add\n        /* \"#utility.yul\":14430:14477   */\n      mstore\n        /* \"#utility.yul\":14494:14572   */\n      tag_721\n        /* \"#utility.yul\":14567:14571   */\n      dup2\n        /* \"#utility.yul\":14558:14564   */\n      dup7\n        /* \"#utility.yul\":14494:14572   */\n      tag_637\n      jump\t// in\n    tag_721:\n        /* \"#utility.yul\":14486:14572   */\n      swap1\n      pop\n        /* \"#utility.yul\":14619:14628   */\n      dup2\n        /* \"#utility.yul\":14613:14617   */\n      dup2\n        /* \"#utility.yul\":14609:14629   */\n      sub\n        /* \"#utility.yul\":14604:14606   */\n      0x20\n        /* \"#utility.yul\":14593:14602   */\n      dup4\n        /* \"#utility.yul\":14589:14607   */\n      add\n        /* \"#utility.yul\":14582:14630   */\n      mstore\n        /* \"#utility.yul\":14647:14725   */\n      tag_722\n        /* \"#utility.yul\":14720:14724   */\n      dup2\n        /* \"#utility.yul\":14711:14717   */\n      dup6\n        /* \"#utility.yul\":14647:14725   */\n      tag_637\n      jump\t// in\n    tag_722:\n        /* \"#utility.yul\":14639:14725   */\n      swap1\n      pop\n        /* \"#utility.yul\":14735:14865   */\n      tag_723\n        /* \"#utility.yul\":14861:14863   */\n      0x40\n        /* \"#utility.yul\":14850:14859   */\n      dup4\n        /* \"#utility.yul\":14846:14864   */\n      add\n        /* \"#utility.yul\":14837:14843   */\n      dup5\n        /* \"#utility.yul\":14735:14865   */\n      tag_688\n      jump\t// in\n    tag_723:\n        /* \"#utility.yul\":14131:14872   */\n      swap5\n      swap4\n      pop\n      pop\n      pop\n      pop\n      jump\t// out\n        /* \"#utility.yul\":14878:15297   */\n    tag_105:\n        /* \"#utility.yul\":15044:15048   */\n      0x00\n        /* \"#utility.yul\":15082:15084   */\n      0x20\n        /* \"#utility.yul\":15071:15080   */\n      dup3\n        /* \"#utility.yul\":15067:15085   */\n      add\n        /* \"#utility.yul\":15059:15085   */\n      swap1\n      pop\n        /* \"#utility.yul\":15131:15140   */\n      dup2\n        /* \"#utility.yul\":15125:15129   */\n      dup2\n        /* \"#utility.yul\":15121:15141   */\n      sub\n        /* \"#utility.yul\":15117:15118   */\n      0x00\n        /* \"#utility.yul\":15106:15115   */\n      dup4\n        /* \"#utility.yul\":15102:15119   */\n      add\n        /* \"#utility.yul\":15095:15142   */\n      mstore\n        /* \"#utility.yul\":15159:15290   */\n      tag_725\n        /* \"#utility.yul\":15285:15289   */\n      dup2\n        /* \"#utility.yul\":15159:15290   */\n      tag_653\n      jump\t// in\n    tag_725:\n        /* \"#utility.yul\":15151:15290   */\n      swap1\n      pop\n        /* \"#utility.yul\":14878:15297   */\n      swap2\n      swap1\n      pop\n      jump\t// out\n        /* \"#utility.yul\":15303:15722   */\n    tag_428:\n        /* \"#utility.yul\":15469:15473   */\n      0x00\n        /* \"#utility.yul\":15507:15509   */\n      0x20\n        /* \"#utility.yul\":15496:15505   */\n      dup3\n        /* \"#utility.yul\":15492:15510   */\n      add\n        /* \"#utility.yul\":15484:15510   */\n      swap1\n      pop\n        /* \"#utility.yul\":15556:15565   */\n      dup2\n        /* \"#utility.yul\":15550:15554   */\n      dup2\n        /* \"#utility.yul\":15546:15566   */\n      sub\n        /* \"#utility.yul\":15542:15543   */\n      0x00\n        /* \"#utility.yul\":15531:15540   */\n      dup4\n        /* \"#utility.yul\":15527:15544   */\n      add\n        /* \"#utility.yul\":15520:15567   */\n      mstore\n        /* \"#utility.yul\":15584:15715   */\n      tag_727\n        /* \"#utility.yul\":15710:15714   */\n      dup2\n        /* \"#utility.yul\":15584:15715   */\n      tag_658\n      jump\t// in\n    tag_727:\n        /* \"#utility.yul\":15576:15715   */\n      swap1\n      pop\n        /* \"#utility.yul\":15303:15722   */\n      swap2\n      swap1\n      pop\n      jump\t// out\n        /* \"#utility.yul\":15728:16147   */\n    tag_115:\n        /* \"#utility.yul\":15894:15898   */\n      0x00\n        /* \"#utility.yul\":15932:15934   */\n      0x20\n        /* \"#utility.yul\":15921:15930   */\n      dup3\n        /* \"#utility.yul\":15917:15935   */\n      add\n        /* \"#utility.yul\":15909:15935   */\n      swap1\n      pop\n        /* \"#utility.yul\":15981:15990   */\n      dup2\n        /* \"#utility.yul\":15975:15979   */\n      dup2\n        /* \"#utility.yul\":15971:15991   */\n      sub\n        /* \"#utility.yul\":15967:15968   */\n      0x00\n        /* \"#utility.yul\":15956:15965   */\n      dup4\n        /* \"#utility.yul\":15952:15969   */\n      add\n        /* \"#utility.yul\":15945:15992   */\n      mstore\n        /* \"#utility.yul\":16009:16140   */\n      tag_729\n        /* \"#utility.yul\":16135:16139   */\n      dup2\n        /* \"#utility.yul\":16009:16140   */\n      tag_663\n      jump\t// in\n    tag_729:\n        /* \"#utility.yul\":16001:16140   */\n      swap1\n      pop\n        /* \"#utility.yul\":15728:16147   */\n      swap2\n      swap1\n      pop\n      jump\t// out\n        /* \"#utility.yul\":16153:16572   */\n    tag_198:\n        /* \"#utility.yul\":16319:16323   */\n      0x00\n        /* \"#utility.yul\":16357:16359   */\n      0x20\n        /* \"#utility.yul\":16346:16355   */\n      dup3\n        /* \"#utility.yul\":16342:16360   */\n      add\n        /* \"#utility.yul\":16334:16360   */\n      swap1\n      pop\n        /* \"#utility.yul\":16406:16415   */\n      dup2\n        /* \"#utility.yul\":16400:16404   */\n      dup2\n        /* \"#utility.yul\":16396:16416   */\n      sub\n        /* \"#utility.yul\":16392:16393   */\n      0x00\n        /* \"#utility.yul\":16381:16390   */\n      dup4\n        /* \"#utility.yul\":16377:16394   */\n      add\n        /* \"#utility.yul\":16370:16417   */\n      mstore\n        /* \"#utility.yul\":16434:16565   */\n      tag_731\n        /* \"#utility.yul\":16560:16564   */\n      dup2\n        /* \"#utility.yul\":16434:16565   */\n      tag_668\n      jump\t// in\n    tag_731:\n        /* \"#utility.yul\":16426:16565   */\n      swap1\n      pop\n        /* \"#utility.yul\":16153:16572   */\n      swap2\n      swap1\n      pop\n      jump\t// out\n        /* \"#utility.yul\":16578:16997   */\n    tag_143:\n        /* \"#utility.yul\":16744:16748   */\n      0x00\n        /* \"#utility.yul\":16782:16784   */\n      0x20\n        /* \"#utility.yul\":16771:16780   */\n      dup3\n        /* \"#utility.yul\":16767:16785   */\n      add\n        /* \"#utility.yul\":16759:16785   */\n      swap1\n      pop\n        /* \"#utility.yul\":16831:16840   */\n      dup2\n        /* \"#utility.yul\":16825:16829   */\n      dup2\n        /* \"#utility.yul\":16821:16841   */\n      sub\n        /* \"#utility.yul\":16817:16818   */\n      0x00\n        /* \"#utility.yul\":16806:16815   */\n      dup4\n        /* \"#utility.yul\":16802:16819   */\n      add\n        /* \"#utility.yul\":16795:16842   */\n      mstore\n        /* \"#utility.yul\":16859:16990   */\n      tag_733\n        /* \"#utility.yul\":16985:16989   */\n      dup2\n        /* \"#utility.yul\":16859:16990   */\n      tag_673\n      jump\t// in\n    tag_733:\n        /* \"#utility.yul\":16851:16990   */\n      swap1\n      pop\n        /* \"#utility.yul\":16578:16997   */\n      swap2\n      swap1\n      pop\n      jump\t// out\n        /* \"#utility.yul\":17003:17422   */\n    tag_151:\n        /* \"#utility.yul\":17169:17173   */\n      0x00\n        /* \"#utility.yul\":17207:17209   */\n      0x20\n        /* \"#utility.yul\":17196:17205   */\n      dup3\n        /* \"#utility.yul\":17192:17210   */\n      add\n        /* \"#utility.yul\":17184:17210   */\n      swap1\n      pop\n        /* \"#utility.yul\":17256:17265   */\n      dup2\n        /* \"#utility.yul\":17250:17254   */\n      dup2\n        /* \"#utility.yul\":17246:17266   */\n      sub\n        /* \"#utility.yul\":17242:17243   */\n      0x00\n        /* \"#utility.yul\":17231:17240   */\n      dup4\n        /* \"#utility.yul\":17227:17244   */\n      add\n        /* \"#utility.yul\":17220:17267   */\n      mstore\n        /* \"#utility.yul\":17284:17415   */\n      tag_735\n        /* \"#utility.yul\":17410:17414   */\n      dup2\n        /* \"#utility.yul\":17284:17415   */\n      tag_678\n      jump\t// in\n    tag_735:\n        /* \"#utility.yul\":17276:17415   */\n      swap1\n      pop\n        /* \"#utility.yul\":17003:17422   */\n      swap2\n      swap1\n      pop\n      jump\t// out\n        /* \"#utility.yul\":17428:17847   */\n    tag_321:\n        /* \"#utility.yul\":17594:17598   */\n      0x00\n        /* \"#utility.yul\":17632:17634   */\n      0x20\n        /* \"#utility.yul\":17621:17630   */\n      dup3\n        /* \"#utility.yul\":17617:17635   */\n      add\n        /* \"#utility.yul\":17609:17635   */\n      swap1\n      pop\n        /* \"#utility.yul\":17681:17690   */\n      dup2\n        /* \"#utility.yul\":17675:17679   */\n      dup2\n        /* \"#utility.yul\":17671:17691   */\n      sub\n        /* \"#utility.yul\":17667:17668   */\n      0x00\n        /* \"#utility.yul\":17656:17665   */\n      dup4\n        /* \"#utility.yul\":17652:17669   */\n      add\n        /* \"#utility.yul\":17645:17692   */\n      mstore\n        /* \"#utility.yul\":17709:17840   */\n      tag_737\n        /* \"#utility.yul\":17835:17839   */\n      dup2\n        /* \"#utility.yul\":17709:17840   */\n      tag_683\n      jump\t// in\n    tag_737:\n        /* \"#utility.yul\":17701:17840   */\n      swap1\n      pop\n        /* \"#utility.yul\":17428:17847   */\n      swap2\n      swap1\n      pop\n      jump\t// out\n        /* \"#utility.yul\":17853:18075   */\n    tag_33:\n        /* \"#utility.yul\":17946:17950   */\n      0x00\n        /* \"#utility.yul\":17984:17986   */\n      0x20\n        /* \"#utility.yul\":17973:17982   */\n      dup3\n        /* \"#utility.yul\":17969:17987   */\n      add\n        /* \"#utility.yul\":17961:17987   */\n      swap1\n      pop\n        /* \"#utility.yul\":17997:18068   */\n      tag_739\n        /* \"#utility.yul\":18065:18066   */\n      0x00\n        /* \"#utility.yul\":18054:18063   */\n      dup4\n        /* \"#utility.yul\":18050:18067   */\n      add\n        /* \"#utility.yul\":18041:18047   */\n      dup5\n        /* \"#utility.yul\":17997:18068   */\n      tag_699\n      jump\t// in\n    tag_739:\n        /* \"#utility.yul\":17853:18075   */\n      swap3\n      swap2\n      pop\n      pop\n      jump\t// out\n        /* \"#utility.yul\":18081:18210   */\n    tag_528:\n        /* \"#utility.yul\":18115:18121   */\n      0x00\n        /* \"#utility.yul\":18142:18162   */\n      tag_741\n      tag_742\n      jump\t// in\n    tag_741:\n        /* \"#utility.yul\":18132:18162   */\n      swap1\n      pop\n        /* \"#utility.yul\":18171:18204   */\n      tag_743\n        /* \"#utility.yul\":18199:18203   */\n      dup3\n        /* \"#utility.yul\":18191:18197   */\n      dup3\n        /* \"#utility.yul\":18171:18204   */\n      tag_744\n      jump\t// in\n    tag_743:\n        /* \"#utility.yul\":18081:18210   */\n      swap2\n      swap1\n      pop\n      jump\t// out\n        /* \"#utility.yul\":18216:18291   */\n    tag_742:\n        /* \"#utility.yul\":18249:18255   */\n      0x00\n        /* \"#utility.yul\":18282:18284   */\n      0x40\n        /* \"#utility.yul\":18276:18285   */\n      mload\n        /* \"#utility.yul\":18266:18285   */\n      swap1\n      pop\n        /* \"#utility.yul\":18216:18291   */\n      swap1\n      jump\t// out\n        /* \"#utility.yul\":18297:18605   */\n    tag_527:\n        /* \"#utility.yul\":18359:18363   */\n      0x00\n        /* \"#utility.yul\":18449:18467   */\n      0xffffffffffffffff\n        /* \"#utility.yul\":18441:18447   */\n      dup3\n        /* \"#utility.yul\":18438:18468   */\n      gt\n        /* \"#utility.yul\":18435:18491   */\n      iszero\n      tag_747\n      jumpi\n        /* \"#utility.yul\":18471:18489   */\n      tag_748\n      tag_452\n      jump\t// in\n    tag_748:\n        /* \"#utility.yul\":18435:18491   */\n    tag_747:\n        /* \"#utility.yul\":18509:18538   */\n      tag_749\n        /* \"#utility.yul\":18531:18537   */\n      dup3\n        /* \"#utility.yul\":18509:18538   */\n      tag_646\n      jump\t// in\n    tag_749:\n        /* \"#utility.yul\":18501:18538   */\n      swap1\n      pop\n        /* \"#utility.yul\":18593:18597   */\n      0x20\n        /* \"#utility.yul\":18587:18591   */\n      dup2\n        /* \"#utility.yul\":18583:18598   */\n      add\n        /* \"#utility.yul\":18575:18598   */\n      swap1\n      pop\n        /* \"#utility.yul\":18297:18605   */\n      swap2\n      swap1\n      pop\n      jump\t// out\n        /* \"#utility.yul\":18611:18743   */\n    tag_620:\n        /* \"#utility.yul\":18678:18682   */\n      0x00\n        /* \"#utility.yul\":18701:18704   */\n      dup2\n        /* \"#utility.yul\":18693:18704   */\n      swap1\n      pop\n        /* \"#utility.yul\":18731:18735   */\n      0x20\n        /* \"#utility.yul\":18726:18729   */\n      dup3\n        /* \"#utility.yul\":18722:18736   */\n      add\n        /* \"#utility.yul\":18714:18736   */\n      swap1\n      pop\n        /* \"#utility.yul\":18611:18743   */\n      swap2\n      swap1\n      pop\n      jump\t// out\n        /* \"#utility.yul\":18749:18863   */\n    tag_616:\n        /* \"#utility.yul\":18816:18822   */\n      0x00\n        /* \"#utility.yul\":18850:18855   */\n      dup2\n        /* \"#utility.yul\":18844:18856   */\n      mload\n        /* \"#utility.yul\":18834:18856   */\n      swap1\n      pop\n        /* \"#utility.yul\":18749:18863   */\n      swap2\n      swap1\n      pop\n      jump\t// out\n        /* \"#utility.yul\":18869:18968   */\n    tag_640:\n        /* \"#utility.yul\":18921:18927   */\n      0x00\n        /* \"#utility.yul\":18955:18960   */\n      dup2\n        /* \"#utility.yul\":18949:18961   */\n      mload\n        /* \"#utility.yul\":18939:18961   */\n      swap1\n      pop\n        /* \"#utility.yul\":18869:18968   */\n      swap2\n      swap1\n      pop\n      jump\t// out\n        /* \"#utility.yul\":18974:19087   */\n    tag_626:\n        /* \"#utility.yul\":19044:19048   */\n      0x00\n        /* \"#utility.yul\":19076:19080   */\n      0x20\n        /* \"#utility.yul\":19071:19074   */\n      dup3\n        /* \"#utility.yul\":19067:19081   */\n      add\n        /* \"#utility.yul\":19059:19081   */\n      swap1\n      pop\n        /* \"#utility.yul\":18974:19087   */\n      swap2\n      swap1\n      pop\n      jump\t// out\n        /* \"#utility.yul\":19093:19277   */\n    tag_618:\n        /* \"#utility.yul\":19192:19203   */\n      0x00\n        /* \"#utility.yul\":19226:19232   */\n      dup3\n        /* \"#utility.yul\":19221:19224   */\n      dup3\n        /* \"#utility.yul\":19214:19233   */\n      mstore\n        /* \"#utility.yul\":19266:19270   */\n      0x20\n        /* \"#utility.yul\":19261:19264   */\n      dup3\n        /* \"#utility.yul\":19257:19271   */\n      add\n        /* \"#utility.yul\":19242:19271   */\n      swap1\n      pop\n        /* \"#utility.yul\":19093:19277   */\n      swap3\n      swap2\n      pop\n      pop\n      jump\t// out\n        /* \"#utility.yul\":19283:19452   */\n    tag_642:\n        /* \"#utility.yul\":19367:19378   */\n      0x00\n        /* \"#utility.yul\":19401:19407   */\n      dup3\n        /* \"#utility.yul\":19396:19399   */\n      dup3\n        /* \"#utility.yul\":19389:19408   */\n      mstore\n        /* \"#utility.yul\":19441:19445   */\n      0x20\n        /* \"#utility.yul\":19436:19439   */\n      dup3\n        /* \"#utility.yul\":19432:19446   */\n      add\n        /* \"#utility.yul\":19417:19446   */\n      swap1\n      pop\n        /* \"#utility.yul\":19283:19452   */\n      swap3\n      swap2\n      pop\n      pop\n      jump\t// out\n        /* \"#utility.yul\":19458:19606   */\n    tag_651:\n        /* \"#utility.yul\":19560:19571   */\n      0x00\n        /* \"#utility.yul\":19597:19600   */\n      dup2\n        /* \"#utility.yul\":19582:19600   */\n      swap1\n      pop\n        /* \"#utility.yul\":19458:19606   */\n      swap3\n      swap2\n      pop\n      pop\n      jump\t// out\n        /* \"#utility.yul\":19612:19917   */\n    tag_24:\n        /* \"#utility.yul\":19652:19655   */\n      0x00\n        /* \"#utility.yul\":19671:19691   */\n      tag_758\n        /* \"#utility.yul\":19689:19690   */\n      dup3\n        /* \"#utility.yul\":19671:19691   */\n      tag_698\n      jump\t// in\n    tag_758:\n        /* \"#utility.yul\":19666:19691   */\n      swap2\n      pop\n        /* \"#utility.yul\":19705:19725   */\n      tag_759\n        /* \"#utility.yul\":19723:19724   */\n      dup4\n        /* \"#utility.yul\":19705:19725   */\n      tag_698\n      jump\t// in\n    tag_759:\n        /* \"#utility.yul\":19700:19725   */\n      swap3\n      pop\n        /* \"#utility.yul\":19859:19860   */\n      dup3\n        /* \"#utility.yul\":19791:19857   */\n      0xffffffffffffffffffffffffffffffffffffffffffffffffffffffffffffffff\n        /* \"#utility.yul\":19787:19861   */\n      sub\n        /* \"#utility.yul\":19784:19785   */\n      dup3\n        /* \"#utility.yul\":19781:19862   */\n      gt\n        /* \"#utility.yul\":19778:19885   */\n      iszero\n      tag_760\n      jumpi\n        /* \"#utility.yul\":19865:19883   */\n      tag_761\n      tag_762\n      jump\t// in\n    tag_761:\n        /* \"#utility.yul\":19778:19885   */\n    tag_760:\n        /* \"#utility.yul\":19909:19910   */\n      dup3\n        /* \"#utility.yul\":19906:19907   */\n      dup3\n        /* \"#utility.yul\":19902:19911   */\n      add\n        /* \"#utility.yul\":19895:19911   */\n      swap1\n      pop\n        /* \"#utility.yul\":19612:19917   */\n      swap3\n      swap2\n      pop\n      pop\n      jump\t// out\n        /* \"#utility.yul\":19923:20108   */\n    tag_101:\n        /* \"#utility.yul\":19963:19964   */\n      0x00\n        /* \"#utility.yul\":19980:20000   */\n      tag_764\n        /* \"#utility.yul\":19998:19999   */\n      dup3\n        /* \"#utility.yul\":19980:20000   */\n      tag_698\n      jump\t// in\n    tag_764:\n        /* \"#utility.yul\":19975:20000   */\n      swap2\n      pop\n        /* \"#utility.yul\":20014:20034   */\n      tag_765\n        /* \"#utility.yul\":20032:20033   */\n      dup4\n        /* \"#utility.yul\":20014:20034   */\n      tag_698\n      jump\t// in\n    tag_765:\n        /* \"#utility.yul\":20009:20034   */\n      swap3\n      pop\n        /* \"#utility.yul\":20053:20054   */\n      dup3\n        /* \"#utility.yul\":20043:20078   */\n      tag_766\n      jumpi\n        /* \"#utility.yul\":20058:20076   */\n      tag_767\n      tag_768\n      jump\t// in\n    tag_767:\n        /* \"#utility.yul\":20043:20078   */\n    tag_766:\n        /* \"#utility.yul\":20100:20101   */\n      dup3\n        /* \"#utility.yul\":20097:20098   */\n      dup3\n        /* \"#utility.yul\":20093:20102   */\n      div\n        /* \"#utility.yul\":20088:20102   */\n      swap1\n      pop\n        /* \"#utility.yul\":19923:20108   */\n      swap3\n      swap2\n      pop\n      pop\n      jump\t// out\n        /* \"#utility.yul\":20114:20462   */\n    tag_364:\n        /* \"#utility.yul\":20154:20161   */\n      0x00\n        /* \"#utility.yul\":20177:20197   */\n      tag_770\n        /* \"#utility.yul\":20195:20196   */\n      dup3\n        /* \"#utility.yul\":20177:20197   */\n      tag_698\n      jump\t// in\n    tag_770:\n        /* \"#utility.yul\":20172:20197   */\n      swap2\n      pop\n        /* \"#utility.yul\":20211:20231   */\n      tag_771\n        /* \"#utility.yul\":20229:20230   */\n      dup4\n        /* \"#utility.yul\":20211:20231   */\n      tag_698\n      jump\t// in\n    tag_771:\n        /* \"#utility.yul\":20206:20231   */\n      swap3\n      pop\n        /* \"#utility.yul\":20399:20400   */\n      dup2\n        /* \"#utility.yul\":20331:20397   */\n      0xffffffffffffffffffffffffffffffffffffffffffffffffffffffffffffffff\n        /* \"#utility.yul\":20327:20401   */\n      div\n        /* \"#utility.yul\":20324:20325   */\n      dup4\n        /* \"#utility.yul\":20321:20402   */\n      gt\n        /* \"#utility.yul\":20316:20317   */\n      dup3\n        /* \"#utility.yul\":20309:20318   */\n      iszero\n        /* \"#utility.yul\":20302:20319   */\n      iszero\n        /* \"#utility.yul\":20298:20403   */\n      and\n        /* \"#utility.yul\":20295:20426   */\n      iszero\n      tag_772\n      jumpi\n        /* \"#utility.yul\":20406:20424   */\n      tag_773\n      tag_762\n      jump\t// in\n    tag_773:\n        /* \"#utility.yul\":20295:20426   */\n    tag_772:\n        /* \"#utility.yul\":20454:20455   */\n      dup3\n        /* \"#utility.yul\":20451:20452   */\n      dup3\n        /* \"#utility.yul\":20447:20456   */\n      mul\n        /* \"#utility.yul\":20436:20456   */\n      swap1\n      pop\n        /* \"#utility.yul\":20114:20462   */\n      swap3\n      swap2\n      pop\n      pop\n      jump\t// out\n        /* \"#utility.yul\":20468:20659   */\n    tag_181:\n        /* \"#utility.yul\":20508:20512   */\n      0x00\n        /* \"#utility.yul\":20528:20548   */\n      tag_775\n        /* \"#utility.yul\":20546:20547   */\n      dup3\n        /* \"#utility.yul\":20528:20548   */\n      tag_698\n      jump\t// in\n    tag_775:\n        /* \"#utility.yul\":20523:20548   */\n      swap2\n      pop\n        /* \"#utility.yul\":20562:20582   */\n      tag_776\n        /* \"#utility.yul\":20580:20581   */\n      dup4\n        /* \"#utility.yul\":20562:20582   */\n      tag_698\n      jump\t// in\n    tag_776:\n        /* \"#utility.yul\":20557:20582   */\n      swap3\n      pop\n        /* \"#utility.yul\":20601:20602   */\n      dup3\n        /* \"#utility.yul\":20598:20599   */\n      dup3\n        /* \"#utility.yul\":20595:20603   */\n      lt\n        /* \"#utility.yul\":20592:20626   */\n      iszero\n      tag_777\n      jumpi\n        /* \"#utility.yul\":20606:20624   */\n      tag_778\n      tag_762\n      jump\t// in\n    tag_778:\n        /* \"#utility.yul\":20592:20626   */\n    tag_777:\n        /* \"#utility.yul\":20651:20652   */\n      dup3\n        /* \"#utility.yul\":20648:20649   */\n      dup3\n        /* \"#utility.yul\":20644:20653   */\n      sub\n        /* \"#utility.yul\":20636:20653   */\n      swap1\n      pop\n        /* \"#utility.yul\":20468:20659   */\n      swap3\n      swap2\n      pop\n      pop\n      jump\t// out\n        /* \"#utility.yul\":20665:20761   */\n    tag_612:\n        /* \"#utility.yul\":20702:20709   */\n      0x00\n        /* \"#utility.yul\":20731:20755   */\n      tag_780\n        /* \"#utility.yul\":20749:20754   */\n      dup3\n        /* \"#utility.yul\":20731:20755   */\n      tag_781\n      jump\t// in\n    tag_780:\n        /* \"#utility.yul\":20720:20755   */\n      swap1\n      pop\n        /* \"#utility.yul\":20665:20761   */\n      swap2\n      swap1\n      pop\n      jump\t// out\n        /* \"#utility.yul\":20767:20857   */\n    tag_630:\n        /* \"#utility.yul\":20801:20808   */\n      0x00\n        /* \"#utility.yul\":20844:20849   */\n      dup2\n        /* \"#utility.yul\":20837:20850   */\n      iszero\n        /* \"#utility.yul\":20830:20851   */\n      iszero\n        /* \"#utility.yul\":20819:20851   */\n      swap1\n      pop\n        /* \"#utility.yul\":20767:20857   */\n      swap2\n      swap1\n      pop\n      jump\t// out\n        /* \"#utility.yul\":20863:20940   */\n    tag_633:\n        /* \"#utility.yul\":20900:20907   */\n      0x00\n        /* \"#utility.yul\":20929:20934   */\n      dup2\n        /* \"#utility.yul\":20918:20934   */\n      swap1\n      pop\n        /* \"#utility.yul\":20863:20940   */\n      swap2\n      swap1\n      pop\n      jump\t// out\n        /* \"#utility.yul\":20946:21072   */\n    tag_781:\n        /* \"#utility.yul\":20983:20990   */\n      0x00\n        /* \"#utility.yul\":21023:21065   */\n      0xffffffffffffffffffffffffffffffffffffffff\n        /* \"#utility.yul\":21016:21021   */\n      dup3\n        /* \"#utility.yul\":21012:21066   */\n      and\n        /* \"#utility.yul\":21001:21066   */\n      swap1\n      pop\n        /* \"#utility.yul\":20946:21072   */\n      swap2\n      swap1\n      pop\n      jump\t// out\n        /* \"#utility.yul\":21078:21155   */\n    tag_698:\n        /* \"#utility.yul\":21115:21122   */\n      0x00\n        /* \"#utility.yul\":21144:21149   */\n      dup2\n        /* \"#utility.yul\":21133:21149   */\n      swap1\n      pop\n        /* \"#utility.yul\":21078:21155   */\n      swap2\n      swap1\n      pop\n      jump\t// out\n        /* \"#utility.yul\":21161:21315   */\n    tag_533:\n        /* \"#utility.yul\":21245:21251   */\n      dup3\n        /* \"#utility.yul\":21240:21243   */\n      dup2\n        /* \"#utility.yul\":21235:21238   */\n      dup4\n        /* \"#utility.yul\":21222:21252   */\n      calldatacopy\n        /* \"#utility.yul\":21307:21308   */\n      0x00\n        /* \"#utility.yul\":21298:21304   */\n      dup4\n        /* \"#utility.yul\":21293:21296   */\n      dup4\n        /* \"#utility.yul\":21289:21305   */\n      add\n        /* \"#utility.yul\":21282:21309   */\n      mstore\n        /* \"#utility.yul\":21161:21315   */\n      pop\n      pop\n      pop\n      jump\t// out\n        /* \"#utility.yul\":21321:21628   */\n    tag_644:\n        /* \"#utility.yul\":21389:21390   */\n      0x00\n        /* \"#utility.yul\":21399:21512   */\n    tag_788:\n        /* \"#utility.yul\":21413:21419   */\n      dup4\n        /* \"#utility.yul\":21410:21411   */\n      dup2\n        /* \"#utility.yul\":21407:21420   */\n      lt\n        /* \"#utility.yul\":21399:21512   */\n      iszero\n      tag_790\n      jumpi\n        /* \"#utility.yul\":21498:21499   */\n      dup1\n        /* \"#utility.yul\":21493:21496   */\n      dup3\n        /* \"#utility.yul\":21489:21500   */\n      add\n        /* \"#utility.yul\":21483:21501   */\n      mload\n        /* \"#utility.yul\":21479:21480   */\n      dup2\n        /* \"#utility.yul\":21474:21477   */\n      dup5\n        /* \"#utility.yul\":21470:21481   */\n      add\n        /* \"#utility.yul\":21463:21502   */\n      mstore\n        /* \"#utility.yul\":21435:21437   */\n      0x20\n        /* \"#utility.yul\":21432:21433   */\n      dup2\n        /* \"#utility.yul\":21428:21438   */\n      add\n        /* \"#utility.yul\":21423:21438   */\n      swap1\n      pop\n        /* \"#utility.yul\":21399:21512   */\n      jump(tag_788)\n    tag_790:\n        /* \"#utility.yul\":21530:21536   */\n      dup4\n        /* \"#utility.yul\":21527:21528   */\n      dup2\n        /* \"#utility.yul\":21524:21537   */\n      gt\n        /* \"#utility.yul\":21521:21622   */\n      iszero\n      tag_791\n      jumpi\n        /* \"#utility.yul\":21610:21611   */\n      0x00\n        /* \"#utility.yul\":21601:21607   */\n      dup5\n        /* \"#utility.yul\":21596:21599   */\n      dup5\n        /* \"#utility.yul\":21592:21608   */\n      add\n        /* \"#utility.yul\":21585:21612   */\n      mstore\n        /* \"#utility.yul\":21521:21622   */\n    tag_791:\n        /* \"#utility.yul\":21370:21628   */\n      pop\n        /* \"#utility.yul\":21321:21628   */\n      pop\n      pop\n      pop\n      jump\t// out\n        /* \"#utility.yul\":21634:21954   */\n    tag_118:\n        /* \"#utility.yul\":21678:21684   */\n      0x00\n        /* \"#utility.yul\":21715:21716   */\n      0x02\n        /* \"#utility.yul\":21709:21713   */\n      dup3\n        /* \"#utility.yul\":21705:21717   */\n      div\n        /* \"#utility.yul\":21695:21717   */\n      swap1\n      pop\n        /* \"#utility.yul\":21762:21763   */\n      0x01\n        /* \"#utility.yul\":21756:21760   */\n      dup3\n        /* \"#utility.yul\":21752:21764   */\n      and\n        /* \"#utility.yul\":21783:21801   */\n      dup1\n        /* \"#utility.yul\":21773:21854   */\n      tag_793\n      jumpi\n        /* \"#utility.yul\":21839:21843   */\n      0x7f\n        /* \"#utility.yul\":21831:21837   */\n      dup3\n        /* \"#utility.yul\":21827:21844   */\n      and\n        /* \"#utility.yul\":21817:21844   */\n      swap2\n      pop\n        /* \"#utility.yul\":21773:21854   */\n    tag_793:\n        /* \"#utility.yul\":21901:21903   */\n      0x20\n        /* \"#utility.yul\":21893:21899   */\n      dup3\n        /* \"#utility.yul\":21890:21904   */\n      lt\n        /* \"#utility.yul\":21870:21888   */\n      dup2\n        /* \"#utility.yul\":21867:21905   */\n      eq\n        /* \"#utility.yul\":21864:21948   */\n      iszero\n      tag_794\n      jumpi\n        /* \"#utility.yul\":21920:21938   */\n      tag_795\n      tag_796\n      jump\t// in\n    tag_795:\n        /* \"#utility.yul\":21864:21948   */\n    tag_794:\n        /* \"#utility.yul\":21685:21954   */\n      pop\n        /* \"#utility.yul\":21634:21954   */\n      swap2\n      swap1\n      pop\n      jump\t// out\n        /* \"#utility.yul\":21960:22241   */\n    tag_744:\n        /* \"#utility.yul\":22043:22070   */\n      tag_798\n        /* \"#utility.yul\":22065:22069   */\n      dup3\n        /* \"#utility.yul\":22043:22070   */\n      tag_646\n      jump\t// in\n    tag_798:\n        /* \"#utility.yul\":22035:22041   */\n      dup2\n        /* \"#utility.yul\":22031:22071   */\n      add\n        /* \"#utility.yul\":22173:22179   */\n      dup2\n        /* \"#utility.yul\":22161:22171   */\n      dup2\n        /* \"#utility.yul\":22158:22180   */\n      lt\n        /* \"#utility.yul\":22137:22155   */\n      0xffffffffffffffff\n        /* \"#utility.yul\":22125:22135   */\n      dup3\n        /* \"#utility.yul\":22122:22156   */\n      gt\n        /* \"#utility.yul\":22119:22181   */\n      or\n        /* \"#utility.yul\":22116:22204   */\n      iszero\n      tag_799\n      jumpi\n        /* \"#utility.yul\":22184:22202   */\n      tag_800\n      tag_452\n      jump\t// in\n    tag_800:\n        /* \"#utility.yul\":22116:22204   */\n    tag_799:\n        /* \"#utility.yul\":22224:22234   */\n      dup1\n        /* \"#utility.yul\":22220:22222   */\n      0x40\n        /* \"#utility.yul\":22213:22235   */\n      mstore\n        /* \"#utility.yul\":22003:22241   */\n      pop\n        /* \"#utility.yul\":21960:22241   */\n      pop\n      pop\n      jump\t// out\n        /* \"#utility.yul\":22247:22480   */\n    tag_406:\n        /* \"#utility.yul\":22286:22289   */\n      0x00\n        /* \"#utility.yul\":22309:22333   */\n      tag_802\n        /* \"#utility.yul\":22327:22332   */\n      dup3\n        /* \"#utility.yul\":22309:22333   */\n      tag_698\n      jump\t// in\n    tag_802:\n        /* \"#utility.yul\":22300:22333   */\n      swap2\n      pop\n        /* \"#utility.yul\":22355:22421   */\n      0xffffffffffffffffffffffffffffffffffffffffffffffffffffffffffffffff\n        /* \"#utility.yul\":22348:22353   */\n      dup3\n        /* \"#utility.yul\":22345:22422   */\n      eq\n        /* \"#utility.yul\":22342:22445   */\n      iszero\n      tag_803\n      jumpi\n        /* \"#utility.yul\":22425:22443   */\n      tag_804\n      tag_762\n      jump\t// in\n    tag_804:\n        /* \"#utility.yul\":22342:22445   */\n    tag_803:\n        /* \"#utility.yul\":22472:22473   */\n      0x01\n        /* \"#utility.yul\":22465:22470   */\n      dup3\n        /* \"#utility.yul\":22461:22474   */\n      add\n        /* \"#utility.yul\":22454:22474   */\n      swap1\n      pop\n        /* \"#utility.yul\":22247:22480   */\n      swap2\n      swap1\n      pop\n      jump\t// out\n        /* \"#utility.yul\":22486:22565   */\n    tag_706:\n        /* \"#utility.yul\":22525:22532   */\n      0x00\n        /* \"#utility.yul\":22554:22559   */\n      dup2\n        /* \"#utility.yul\":22543:22559   */\n      swap1\n      pop\n        /* \"#utility.yul\":22486:22565   */\n      swap2\n      swap1\n      pop\n      jump\t// out\n        /* \"#utility.yul\":22571:22751   */\n    tag_762:\n        /* \"#utility.yul\":22619:22696   */\n      0x4e487b7100000000000000000000000000000000000000000000000000000000\n        /* \"#utility.yul\":22616:22617   */\n      0x00\n        /* \"#utility.yul\":22609:22697   */\n      mstore\n        /* \"#utility.yul\":22716:22720   */\n      0x11\n        /* \"#utility.yul\":22713:22714   */\n      0x04\n        /* \"#utility.yul\":22706:22721   */\n      mstore\n        /* \"#utility.yul\":22740:22744   */\n      0x24\n        /* \"#utility.yul\":22737:22738   */\n      0x00\n        /* \"#utility.yul\":22730:22745   */\n      revert\n        /* \"#utility.yul\":22757:22937   */\n    tag_768:\n        /* \"#utility.yul\":22805:22882   */\n      0x4e487b7100000000000000000000000000000000000000000000000000000000\n        /* \"#utility.yul\":22802:22803   */\n      0x00\n        /* \"#utility.yul\":22795:22883   */\n      mstore\n        /* \"#utility.yul\":22902:22906   */\n      0x12\n        /* \"#utility.yul\":22899:22900   */\n      0x04\n        /* \"#utility.yul\":22892:22907   */\n      mstore\n        /* \"#utility.yul\":22926:22930   */\n      0x24\n        /* \"#utility.yul\":22923:22924   */\n      0x00\n        /* \"#utility.yul\":22916:22931   */\n      revert\n        /* \"#utility.yul\":22943:23123   */\n    tag_796:\n        /* \"#utility.yul\":22991:23068   */\n      0x4e487b7100000000000000000000000000000000000000000000000000000000\n        /* \"#utility.yul\":22988:22989   */\n      0x00\n        /* \"#utility.yul\":22981:23069   */\n      mstore\n        /* \"#utility.yul\":23088:23092   */\n      0x22\n        /* \"#utility.yul\":23085:23086   */\n      0x04\n        /* \"#utility.yul\":23078:23093   */\n      mstore\n        /* \"#utility.yul\":23112:23116   */\n      0x24\n        /* \"#utility.yul\":23109:23110   */\n      0x00\n        /* \"#utility.yul\":23102:23117   */\n      revert\n        /* \"#utility.yul\":23129:23309   */\n    tag_343:\n        /* \"#utility.yul\":23177:23254   */\n      0x4e487b7100000000000000000000000000000000000000000000000000000000\n        /* \"#utility.yul\":23174:23175   */\n      0x00\n        /* \"#utility.yul\":23167:23255   */\n      mstore\n        /* \"#utility.yul\":23274:23278   */\n      0x32\n        /* \"#utility.yul\":23271:23272   */\n      0x04\n        /* \"#utility.yul\":23264:23279   */\n      mstore\n        /* \"#utility.yul\":23298:23302   */\n      0x24\n        /* \"#utility.yul\":23295:23296   */\n      0x00\n        /* \"#utility.yul\":23288:23303   */\n      revert\n        /* \"#utility.yul\":23315:23495   */\n    tag_452:\n        /* \"#utility.yul\":23363:23440   */\n      0x4e487b7100000000000000000000000000000000000000000000000000000000\n        /* \"#utility.yul\":23360:23361   */\n      0x00\n        /* \"#utility.yul\":23353:23441   */\n      mstore\n        /* \"#utility.yul\":23460:23464   */\n      0x41\n        /* \"#utility.yul\":23457:23458   */\n      0x04\n        /* \"#utility.yul\":23450:23465   */\n      mstore\n        /* \"#utility.yul\":23484:23488   */\n      0x24\n        /* \"#utility.yul\":23481:23482   */\n      0x00\n        /* \"#utility.yul\":23474:23489   */\n      revert\n        /* \"#utility.yul\":23501:23618   */\n    tag_550:\n        /* \"#utility.yul\":23610:23611   */\n      0x00\n        /* \"#utility.yul\":23607:23608   */\n      dup1\n        /* \"#utility.yul\":23600:23612   */\n      revert\n        /* \"#utility.yul\":23624:23741   */\n    tag_531:\n        /* \"#utility.yul\":23733:23734   */\n      0x00\n        /* \"#utility.yul\":23730:23731   */\n      dup1\n        /* \"#utility.yul\":23723:23735   */\n      revert\n        /* \"#utility.yul\":23747:23864   */\n    tag_596:\n        /* \"#utility.yul\":23856:23857   */\n      0x00\n        /* \"#utility.yul\":23853:23854   */\n      dup1\n        /* \"#utility.yul\":23846:23858   */\n      revert\n        /* \"#utility.yul\":23870:23987   */\n    tag_559:\n        /* \"#utility.yul\":23979:23980   */\n      0x00\n        /* \"#utility.yul\":23976:23977   */\n      dup1\n        /* \"#utility.yul\":23969:23981   */\n      revert\n        /* \"#utility.yul\":23993:24095   */\n    tag_646:\n        /* \"#utility.yul\":24034:24040   */\n      0x00\n        /* \"#utility.yul\":24085:24087   */\n      0x1f\n        /* \"#utility.yul\":24081:24088   */\n      not\n        /* \"#utility.yul\":24076:24078   */\n      0x1f\n        /* \"#utility.yul\":24069:24074   */\n      dup4\n        /* \"#utility.yul\":24065:24079   */\n      add\n        /* \"#utility.yul\":24061:24089   */\n      and\n        /* \"#utility.yul\":24051:24089   */\n      swap1\n      pop\n        /* \"#utility.yul\":23993:24095   */\n      swap2\n      swap1\n      pop\n      jump\t// out\n        /* \"#utility.yul\":24101:24276   */\n    tag_657:\n        /* \"#utility.yul\":24241:24268   */\n      0x4f6e6c79206f776e65722063616e2063616c6c20746869732e00000000000000\n        /* \"#utility.yul\":24237:24238   */\n      0x00\n        /* \"#utility.yul\":24229:24235   */\n      dup3\n        /* \"#utility.yul\":24225:24239   */\n      add\n        /* \"#utility.yul\":24218:24269   */\n      mstore\n        /* \"#utility.yul\":24101:24276   */\n      pop\n      jump\t// out\n        /* \"#utility.yul\":24282:24441   */\n    tag_662:\n        /* \"#utility.yul\":24422:24433   */\n      0x6e6f742065786973740000000000000000000000000000000000000000000000\n        /* \"#utility.yul\":24418:24419   */\n      0x00\n        /* \"#utility.yul\":24410:24416   */\n      dup3\n        /* \"#utility.yul\":24406:24420   */\n      add\n        /* \"#utility.yul\":24399:24434   */\n      mstore\n        /* \"#utility.yul\":24282:24441   */\n      pop\n      jump\t// out\n        /* \"#utility.yul\":24447:24611   */\n    tag_667:\n        /* \"#utility.yul\":24587:24603   */\n      0x706f6f6c206e6f74206578697374000000000000000000000000000000000000\n        /* \"#utility.yul\":24583:24584   */\n      0x00\n        /* \"#utility.yul\":24575:24581   */\n      dup3\n        /* \"#utility.yul\":24571:24585   */\n      add\n        /* \"#utility.yul\":24564:24604   */\n      mstore\n        /* \"#utility.yul\":24447:24611   */\n      pop\n      jump\t// out\n        /* \"#utility.yul\":24617:24777   */\n    tag_672:\n        /* \"#utility.yul\":24757:24769   */\n      0x7061697220657869737400000000000000000000000000000000000000000000\n        /* \"#utility.yul\":24753:24754   */\n      0x00\n        /* \"#utility.yul\":24745:24751   */\n      dup3\n        /* \"#utility.yul\":24741:24755   */\n      add\n        /* \"#utility.yul\":24734:24770   */\n      mstore\n        /* \"#utility.yul\":24617:24777   */\n      pop\n      jump\t// out\n        /* \"#utility.yul\":24783:24954   */\n    tag_677:\n        /* \"#utility.yul\":24923:24946   */\n      0x706f6f6c20686173206e6f742066696e69736865640000000000000000000000\n        /* \"#utility.yul\":24919:24920   */\n      0x00\n        /* \"#utility.yul\":24911:24917   */\n      dup3\n        /* \"#utility.yul\":24907:24921   */\n      add\n        /* \"#utility.yul\":24900:24947   */\n      mstore\n        /* \"#utility.yul\":24783:24954   */\n      pop\n      jump\t// out\n        /* \"#utility.yul\":24960:25131   */\n    tag_682:\n        /* \"#utility.yul\":25100:25123   */\n      0x6e6f7420656e6f75676820766f7465416d6f756e740000000000000000000000\n        /* \"#utility.yul\":25096:25097   */\n      0x00\n        /* \"#utility.yul\":25088:25094   */\n      dup3\n        /* \"#utility.yul\":25084:25098   */\n      add\n        /* \"#utility.yul\":25077:25124   */\n      mstore\n        /* \"#utility.yul\":24960:25131   */\n      pop\n      jump\t// out\n        /* \"#utility.yul\":25137:25304   */\n    tag_687:\n        /* \"#utility.yul\":25277:25296   */\n      0x706f6f6c206861732066696e6973686564000000000000000000000000000000\n        /* \"#utility.yul\":25273:25274   */\n      0x00\n        /* \"#utility.yul\":25265:25271   */\n      dup3\n        /* \"#utility.yul\":25261:25275   */\n      add\n        /* \"#utility.yul\":25254:25297   */\n      mstore\n        /* \"#utility.yul\":25137:25304   */\n      pop\n      jump\t// out\n        /* \"#utility.yul\":25310:25432   */\n    tag_537:\n        /* \"#utility.yul\":25383:25407   */\n      tag_824\n        /* \"#utility.yul\":25401:25406   */\n      dup2\n        /* \"#utility.yul\":25383:25407   */\n      tag_612\n      jump\t// in\n    tag_824:\n        /* \"#utility.yul\":25376:25381   */\n      dup2\n        /* \"#utility.yul\":25373:25408   */\n      eq\n        /* \"#utility.yul\":25363:25426   */\n      tag_825\n      jumpi\n        /* \"#utility.yul\":25422:25423   */\n      0x00\n        /* \"#utility.yul\":25419:25420   */\n      dup1\n        /* \"#utility.yul\":25412:25424   */\n      revert\n        /* \"#utility.yul\":25363:25426   */\n    tag_825:\n        /* \"#utility.yul\":25310:25432   */\n      pop\n      jump\t// out\n        /* \"#utility.yul\":25438:25554   */\n    tag_541:\n        /* \"#utility.yul\":25508:25529   */\n      tag_827\n        /* \"#utility.yul\":25523:25528   */\n      dup2\n        /* \"#utility.yul\":25508:25529   */\n      tag_630\n      jump\t// in\n    tag_827:\n        /* \"#utility.yul\":25501:25506   */\n      dup2\n        /* \"#utility.yul\":25498:25530   */\n      eq\n        /* \"#utility.yul\":25488:25548   */\n      tag_828\n      jumpi\n        /* \"#utility.yul\":25544:25545   */\n      0x00\n        /* \"#utility.yul\":25541:25542   */\n      dup1\n        /* \"#utility.yul\":25534:25546   */\n      revert\n        /* \"#utility.yul\":25488:25548   */\n    tag_828:\n        /* \"#utility.yul\":25438:25554   */\n      pop\n      jump\t// out\n        /* \"#utility.yul\":25560:25682   */\n    tag_545:\n        /* \"#utility.yul\":25633:25657   */\n      tag_830\n        /* \"#utility.yul\":25651:25656   */\n      dup2\n        /* \"#utility.yul\":25633:25657   */\n      tag_633\n      jump\t// in\n    tag_830:\n        /* \"#utility.yul\":25626:25631   */\n      dup2\n        /* \"#utility.yul\":25623:25658   */\n      eq\n        /* \"#utility.yul\":25613:25676   */\n      tag_831\n      jumpi\n        /* \"#utility.yul\":25672:25673   */\n      0x00\n        /* \"#utility.yul\":25669:25670   */\n      dup1\n        /* \"#utility.yul\":25662:25674   */\n      revert\n        /* \"#utility.yul\":25613:25676   */\n    tag_831:\n        /* \"#utility.yul\":25560:25682   */\n      pop\n      jump\t// out\n        /* \"#utility.yul\":25688:25810   */\n    tag_555:\n        /* \"#utility.yul\":25761:25785   */\n      tag_833\n        /* \"#utility.yul\":25779:25784   */\n      dup2\n        /* \"#utility.yul\":25761:25785   */\n      tag_698\n      jump\t// in\n    tag_833:\n        /* \"#utility.yul\":25754:25759   */\n      dup2\n        /* \"#utility.yul\":25751:25786   */\n      eq\n        /* \"#utility.yul\":25741:25804   */\n      tag_834\n      jumpi\n        /* \"#utility.yul\":25800:25801   */\n      0x00\n        /* \"#utility.yul\":25797:25798   */\n      dup1\n        /* \"#utility.yul\":25790:25802   */\n      revert\n        /* \"#utility.yul\":25741:25804   */\n    tag_834:\n        /* \"#utility.yul\":25688:25810   */\n      pop\n      jump\t// out\n\n    auxdata: 0xa26469706673582212206efb2802cf5e888b685ac814a93966a5ffc60169d381e8b558e7b2565bfdcf3064736f6c63430008070033\n}\n",
				"bytecode": {
					"linkReferences": {},
					"object": "60806040523480156200001157600080fd5b506040516200453c3803806200453c8339818101604052810190620000379190620000bc565b816000806101000a81548173ffffffffffffffffffffffffffffffffffffffff021916908373ffffffffffffffffffffffffffffffffffffffff16021790555060006003819055508060018190555050506200017a565b6000815190506200009f8162000146565b92915050565b600081519050620000b68162000160565b92915050565b60008060408385031215620000d657620000d562000141565b5b6000620000e6858286016200008e565b9250506020620000f985828601620000a5565b9150509250929050565b6000620001108262000117565b9050919050565b600073ffffffffffffffffffffffffffffffffffffffff82169050919050565b6000819050919050565b600080fd5b620001518162000103565b81146200015d57600080fd5b50565b6200016b8162000137565b81146200017757600080fd5b50565b6143b2806200018a6000396000f3fe6080604052600436106100c65760003560e01c80634121855f1161007f5780639bd0abf1116100595780639bd0abf1146103c6578063baf41269146103f6578063ea8870c014610421578063f6c009271461044c576101e7565b80634121855f1461031c57806347e4dd271461035957806374fe9bc214610396576101e7565b80630c66b373146101ec5780630ce490531461021757806322d8325c146102475780632775e02c14610284578063357965ba146102b45780633e6ff1a2146102f1576101e7565b366101e75760008054906101000a900473ffffffffffffffffffffffffffffffffffffffff1673ffffffffffffffffffffffffffffffffffffffff163373ffffffffffffffffffffffffffffffffffffffff16146101e457610138662386f26fc100003461048b90919063ffffffff16565b600460003373ffffffffffffffffffffffffffffffffffffffff1673ffffffffffffffffffffffffffffffffffffffff16815260200190815260200160002060008282546101869190613e92565b92505081905550346003600082825461019f9190613e92565b925050819055507f88a5966d370b9919b20f3e2c13ff65706f196a4e32cc2c12bf57088f8852587433346040516101d7929190613c1b565b60405180910390a16101e5565b5b005b600080fd5b3480156101f857600080fd5b506102016104b3565b60405161020e9190613dc1565b60405180910390f35b610231600480360381019061022c91906136df565b61054c565b60405161023e9190613c66565b60405180910390f35b34801561025357600080fd5b5061026e6004803603810190610269919061375f565b610988565b60405161027b9190613c66565b60405180910390f35b61029e600480360381019061029991906136b2565b610dfc565b6040516102ab9190613c66565b60405180910390f35b3480156102c057600080fd5b506102db60048036038101906102d69190613880565b610ef1565b6040516102e89190613c81565b60405180910390f35b3480156102fd57600080fd5b50610306611277565b6040516103139190613dc1565b60405180910390f35b34801561032857600080fd5b50610343600480360381019061033e91906137ec565b611310565b6040516103509190613dc1565b60405180910390f35b34801561036557600080fd5b50610380600480360381019061037b919061375f565b6116ad565b60405161038d9190613c66565b60405180910390f35b6103b060048036038101906103ab9190613819565b611f44565b6040516103bd9190613c66565b60405180910390f35b6103e060048036038101906103db919061371f565b6129b7565b6040516103ed9190613c66565b60405180910390f35b34801561040257600080fd5b5061040b612bcb565b6040516104189190613dc1565b60405180910390f35b34801561042d57600080fd5b50610436612c12565b6040516104439190613c44565b60405180910390f35b34801561045857600080fd5b50610473600480360381019061046e91906137ec565b612c6a565b60405161048293929190613c9c565b60405180910390f35b600080821161049957600080fd5b600082846104a79190613ee8565b90508091505092915050565b60008060009054906101000a900473ffffffffffffffffffffffffffffffffffffffff1673ffffffffffffffffffffffffffffffffffffffff163373ffffffffffffffffffffffffffffffffffffffff1614610544576040517f08c379a000000000000000000000000000000000000000000000000000000000815260040161053b90613ce1565b60405180910390fd5b600354905090565b60008060009054906101000a900473ffffffffffffffffffffffffffffffffffffffff1673ffffffffffffffffffffffffffffffffffffffff163373ffffffffffffffffffffffffffffffffffffffff16146105dd576040517f08c379a00000000000000000000000000000000000000000000000000000000081526004016105d490613ce1565b60405180910390fd5b6105e682612f94565b610625576040517f08c379a000000000000000000000000000000000000000000000000000000000815260040161061c90613d21565b60405180910390fd5b600060056000848152602001908152602001600020604051806101600160405290816000820180546106569061403b565b80601f01602080910402602001604051908101604052809291908181526020018280546106829061403b565b80156106cf5780601f106106a4576101008083540402835291602001916106cf565b820191906000526020600020905b8154815290600101906020018083116106b257829003601f168201915b505050505081526020016001820180546106e89061403b565b80601f01602080910402602001604051908101604052809291908181526020018280546107149061403b565b80156107615780601f1061073657610100808354040283529160200191610761565b820191906000526020600020905b81548152906001019060200180831161074457829003601f168201915b5050505050815260200160028201805461077a9061403b565b80601f01602080910402602001604051908101604052809291908181526020018280546107a69061403b565b80156107f35780601f106107c8576101008083540402835291602001916107f3565b820191906000526020600020905b8154815290600101906020018083116107d657829003601f168201915b5050505050815260200160038201548152602001600482015481526020016005820154815260200160068201548152602001600782015481526020016008820160009054906101000a900460ff161515151581526020016008820160019054906101000a900460ff161515151581526020016008820160029054906101000a900460ff161515151581525050905060006108d7600a8360e001518460c0015185608001518660a0015187606001516108ab9190613e92565b6108b59190613e92565b6108bf9190613e92565b6108c99190613e92565b61048b90919063ffffffff16565b90506001826101400190151590811515815250156109415760008590508073ffffffffffffffffffffffffffffffffffffffff166108fc839081150290604051600060405180830381858888f1935050505015801561093a573d6000803e3d6000fd5b505061097c565b6040517f08c379a000000000000000000000000000000000000000000000000000000000815260040161097390613d61565b60405180910390fd5b50506001905092915050565b600061099385612f94565b6109d2576040517f08c379a00000000000000000000000000000000000000000000000000000000081526004016109c990613d21565b60405180910390fd5b85600460008973ffffffffffffffffffffffffffffffffffffffff1673ffffffffffffffffffffffffffffffffffffffff168152602001908152602001600020541015610a54576040517f08c379a0000000000000000000000000000000000000000000000000000000008152600401610a4b90613d81565b60405180910390fd5b60006005600087815260200190815260200160002060405180610160016040529081600082018054610a859061403b565b80601f0160208091040260200160405190810160405280929190818152602001828054610ab19061403b565b8015610afe5780601f10610ad357610100808354040283529160200191610afe565b820191906000526020600020905b815481529060010190602001808311610ae157829003601f168201915b50505050508152602001600182018054610b179061403b565b80601f0160208091040260200160405190810160405280929190818152602001828054610b439061403b565b8015610b905780601f10610b6557610100808354040283529160200191610b90565b820191906000526020600020905b815481529060010190602001808311610b7357829003601f168201915b50505050508152602001600282018054610ba99061403b565b80601f0160208091040260200160405190810160405280929190818152602001828054610bd59061403b565b8015610c225780601f10610bf757610100808354040283529160200191610c22565b820191906000526020600020905b815481529060010190602001808311610c0557829003601f168201915b5050505050815260200160038201548152602001600482015481526020016005820154815260200160068201548152602001600782015481526020016008820160009054906101000a900460ff161515151581526020016008820160019054906101000a900460ff161515151581526020016008820160029054906101000a900460ff161515151581525050905060606000610cd3610cc984600001518560200151612fc1565b8460400151612fc1565b90506001151583610100015115151415610d6b57610d64610d29826040518060400160405280600481526020017f7472756500000000000000000000000000000000000000000000000000000000815250612fc1565b6040518060400160405280600181526020017f3100000000000000000000000000000000000000000000000000000000000000815250612fc1565b9150610deb565b610de8610dad826040518060400160405280600581526020017f66616c7365000000000000000000000000000000000000000000000000000000815250612fc1565b6040518060400160405280600181526020017f3200000000000000000000000000000000000000000000000000000000000000815250612fc1565b91505b505050600190509695505050505050565b60008060009054906101000a900473ffffffffffffffffffffffffffffffffffffffff1673ffffffffffffffffffffffffffffffffffffffff163373ffffffffffffffffffffffffffffffffffffffff1614610e8d576040517f08c379a0000000000000000000000000000000000000000000000000000000008152600401610e8490613ce1565b60405180910390fd5b60008290508073ffffffffffffffffffffffffffffffffffffffff166108fc6001600354610ebb9190613f73565b9081150290604051600060405180830381858888f19350505050158015610ee6573d6000803e3d6000fd5b506001915050919050565b60008060009054906101000a900473ffffffffffffffffffffffffffffffffffffffff1673ffffffffffffffffffffffffffffffffffffffff163373ffffffffffffffffffffffffffffffffffffffff1614610f82576040517f08c379a0000000000000000000000000000000000000000000000000000000008152600401610f7990613ce1565b60405180910390fd5b6000610f8e8686612fc1565b90506000610f9c8286612fc1565b90506060600115158515151415610fea576040518060400160405280600481526020017f74727565000000000000000000000000000000000000000000000000000000008152509050611023565b6040518060400160405280600581526020017f66616c736500000000000000000000000000000000000000000000000000000081525090505b600061102f8383612fc1565b90506000816040516020016110449190613be9565b60405160208183030381529060405280519060200120905061106581612f94565b156110a5576040517f08c379a000000000000000000000000000000000000000000000000000000000815260040161109c90613d41565b60405180910390fd5b60016005600083815260200190815260200160002060080160016101000a81548160ff021916908315150217905550896005600083815260200190815260200160002060000190805190602001906110fe9291906134c7565b50886005600083815260200190815260200160002060010190805190602001906111299291906134c7565b50876005600083815260200190815260200160002060020190805190602001906111549291906134c7565b506000600560008381526020019081526020016000206003018190555060006005600083815260200190815260200160002060040181905550600060056000838152602001908152602001600020600501819055506000600560008381526020019081526020016000206006018190555060006005600083815260200190815260200160002060070181905550866005600083815260200190815260200160002060080160006101000a81548160ff02191690831515021790555060006005600083815260200190815260200160002060080160026101000a81548160ff02191690831515021790555060028190806001815401808255809150506001900390600052602060002001600090919091909150558095505050505050949350505050565b60008060009054906101000a900473ffffffffffffffffffffffffffffffffffffffff1673ffffffffffffffffffffffffffffffffffffffff163373ffffffffffffffffffffffffffffffffffffffff1614611308576040517f08c379a00000000000000000000000000000000000000000000000000000000081526004016112ff90613ce1565b60405180910390fd5b600154905090565b60008060009054906101000a900473ffffffffffffffffffffffffffffffffffffffff1673ffffffffffffffffffffffffffffffffffffffff163373ffffffffffffffffffffffffffffffffffffffff16146113a1576040517f08c379a000000000000000000000000000000000000000000000000000000000815260040161139890613ce1565b60405180910390fd5b6113aa82612f94565b6113e9576040517f08c379a00000000000000000000000000000000000000000000000000000000081526004016113e090613d21565b60405180910390fd5b6000600560008481526020019081526020016000206040518061016001604052908160008201805461141a9061403b565b80601f01602080910402602001604051908101604052809291908181526020018280546114469061403b565b80156114935780601f1061146857610100808354040283529160200191611493565b820191906000526020600020905b81548152906001019060200180831161147657829003601f168201915b505050505081526020016001820180546114ac9061403b565b80601f01602080910402602001604051908101604052809291908181526020018280546114d89061403b565b80156115255780601f106114fa57610100808354040283529160200191611525565b820191906000526020600020905b81548152906001019060200180831161150857829003601f168201915b5050505050815260200160028201805461153e9061403b565b80601f016020809104026020016040519081016040528092919081815260200182805461156a9061403b565b80156115b75780601f1061158c576101008083540402835291602001916115b7565b820191906000526020600020905b81548152906001019060200180831161159a57829003601f168201915b5050505050815260200160038201548152602001600482015481526020016005820154815260200160068201548152602001600782015481526020016008820160009054906101000a900460ff161515151581526020016008820160019054906101000a900460ff161515151581526020016008820160029054906101000a900460ff161515151581525050905060006116a166038d7ea4c680008360e001518460c0015185608001518660a0015187606001516116759190613e92565b61167f9190613e92565b6116899190613e92565b6116939190613e92565b61315790919063ffffffff16565b90508092505050919050565b60006116b885612f94565b6116f7576040517f08c379a00000000000000000000000000000000000000000000000000000000081526004016116ee90613d21565b60405180910390fd5b85600460008973ffffffffffffffffffffffffffffffffffffffff1673ffffffffffffffffffffffffffffffffffffffff168152602001908152602001600020541015611779576040517f08c379a000000000000000000000000000000000000000000000000000000000815260040161177090613d81565b60405180910390fd5b600060056000878152602001908152602001600020604051806101600160405290816000820180546117aa9061403b565b80601f01602080910402602001604051908101604052809291908181526020018280546117d69061403b565b80156118235780601f106117f857610100808354040283529160200191611823565b820191906000526020600020905b81548152906001019060200180831161180657829003601f168201915b5050505050815260200160018201805461183c9061403b565b80601f01602080910402602001604051908101604052809291908181526020018280546118689061403b565b80156118b55780601f1061188a576101008083540402835291602001916118b5565b820191906000526020600020905b81548152906001019060200180831161189857829003601f168201915b505050505081526020016002820180546118ce9061403b565b80601f01602080910402602001604051908101604052809291908181526020018280546118fa9061403b565b80156119475780601f1061191c57610100808354040283529160200191611947565b820191906000526020600020905b81548152906001019060200180831161192a57829003601f168201915b5050505050815260200160038201548152602001600482015481526020016005820154815260200160068201548152602001600782015481526020016008820160009054906101000a900460ff161515151581526020016008820160019054906101000a900460ff161515151581526020016008820160029054906101000a900460ff161515151581525050905060606001151582610100015115151415611a6f57611a68611a49611a0e611a0485600001518660200151612fc1565b8560400151612fc1565b6040518060400160405280600481526020017f7472756500000000000000000000000000000000000000000000000000000000815250612fc1565b611a63611a558961319c565b611a5e8961319c565b612fc1565b612fc1565b9050611af1565b611aee611acf611a94611a8a85600001518660200151612fc1565b8560400151612fc1565b6040518060400160405280600581526020017f66616c7365000000000000000000000000000000000000000000000000000000815250612fc1565b611ae9611adb8961319c565b611ae48961319c565b612fc1565b612fc1565b90505b611af961354d565b8881600001818152505084816020018181525050868160400181815250508581606001818152505089816080019073ffffffffffffffffffffffffffffffffffffffff16908173ffffffffffffffffffffffffffffffffffffffff1681525050818160a0018190525060008160c001901515908115158152505087600660008a815260200190815260200160002060010181905550600660008981526020019081526020016000206000018190806001815401808255809150506001900390600052602060002090600702016000909190919091506000820151816000015560208201518160010155604082015181600201556060820151816003015560808201518160040160006101000a81548173ffffffffffffffffffffffffffffffffffffffff021916908373ffffffffffffffffffffffffffffffffffffffff16021790555060a0820151816005019080519060200190611c599291906134c7565b5060c08201518160060160006101000a81548160ff021916908315150217905550505089600860008c73ffffffffffffffffffffffffffffffffffffffff1673ffffffffffffffffffffffffffffffffffffffff16815260200190815260200160002060010160006101000a81548173ffffffffffffffffffffffffffffffffffffffff021916908373ffffffffffffffffffffffffffffffffffffffff160217905550600860008b73ffffffffffffffffffffffffffffffffffffffff1673ffffffffffffffffffffffffffffffffffffffff1681526020019081526020016000206000018190806001815401808255809150506001900390600052602060002090600702016000909190919091506000820151816000015560208201518160010155604082015181600201556060820151816003015560808201518160040160006101000a81548173ffffffffffffffffffffffffffffffffffffffff021916908373ffffffffffffffffffffffffffffffffffffffff16021790555060a0820151816005019080519060200190611df49291906134c7565b5060c08201518160060160006101000a81548160ff02191690831515021790555050506002851415611e7357888360c001818151611e329190613e92565b9150818152505088600783604051611e4a9190613be9565b90815260200160405180910390206000828254611e679190613e92565b92505081905550611edd565b6003851415611e9a578883606001818151611e8e9190613e92565b91508181525050611edc565b6001851415611ec1578883608001818151611eb59190613e92565b91508181525050611edb565b888360a001818151611ed39190613e92565b915081815250505b5b5b88600460008c73ffffffffffffffffffffffffffffffffffffffff1673ffffffffffffffffffffffffffffffffffffffff1681526020019081526020016000206000828254611f2c9190613f73565b92505081905550505050600190509695505050505050565b60008060009054906101000a900473ffffffffffffffffffffffffffffffffffffffff1673ffffffffffffffffffffffffffffffffffffffff163373ffffffffffffffffffffffffffffffffffffffff1614611fd5576040517f08c379a0000000000000000000000000000000000000000000000000000000008152600401611fcc90613ce1565b60405180910390fd5b611fde85612f94565b61201d576040517f08c379a000000000000000000000000000000000000000000000000000000000815260040161201490613d21565b60405180910390fd5b6000600560008781526020019081526020016000206040518061016001604052908160008201805461204e9061403b565b80601f016020809104026020016040519081016040528092919081815260200182805461207a9061403b565b80156120c75780601f1061209c576101008083540402835291602001916120c7565b820191906000526020600020905b8154815290600101906020018083116120aa57829003601f168201915b505050505081526020016001820180546120e09061403b565b80601f016020809104026020016040519081016040528092919081815260200182805461210c9061403b565b80156121595780601f1061212e57610100808354040283529160200191612159565b820191906000526020600020905b81548152906001019060200180831161213c57829003601f168201915b505050505081526020016002820180546121729061403b565b80601f016020809104026020016040519081016040528092919081815260200182805461219e9061403b565b80156121eb5780601f106121c0576101008083540402835291602001916121eb565b820191906000526020600020905b8154815290600101906020018083116121ce57829003601f168201915b5050505050815260200160038201548152602001600482015481526020016005820154815260200160068201548152602001600782015481526020016008820160009054906101000a900460ff161515151581526020016008820160019054906101000a900460ff161515151581526020016008820160029054906101000a900460ff16151515158152505090506001816101400190151590811515815250156122ca576040517f08c379a00000000000000000000000000000000000000000000000000000000081526004016122c190613da1565b60405180910390fd5b600060066000888152602001908152602001600020600001805480602002602001604051908101604052809291908181526020016000905b8282101561245f57838290600052602060002090600702016040518060e0016040529081600082015481526020016001820154815260200160028201548152602001600382015481526020016004820160009054906101000a900473ffffffffffffffffffffffffffffffffffffffff1673ffffffffffffffffffffffffffffffffffffffff1673ffffffffffffffffffffffffffffffffffffffff1681526020016005820180546123b39061403b565b80601f01602080910402602001604051908101604052809291908181526020018280546123df9061403b565b801561242c5780601f106124015761010080835404028352916020019161242c565b820191906000526020600020905b81548152906001019060200180831161240f57829003601f168201915b505050505081526020016006820160009054906101000a900460ff16151515158152505081526020019060010190612302565b50505050905060006124ce601461248460028660e0015161048b90919063ffffffff16565b85608001518660a0015187606001518860c001516124a29190613e92565b6124ac9190613e92565b6124b69190613e92565b6124c09190613e92565b61048b90919063ffffffff16565b600160008282546124df9190613e92565b9250508190555060005b600183516124f79190613f73565b81116129955760008382815181106125125761251161417e565b5b602002602001015160c00190151590811515815250156129825760028382815181106125415761254061417e565b5b6020026020010151602001511415612712576125a06064612592605561257560028960e0015161048b90919063ffffffff16565b8860c001516125849190613e92565b61315790919063ffffffff16565b61048b90919063ffffffff16565b9150878382815181106125b6576125b561417e565b5b6020026020010151604001511480156125ec5750868382815181106125de576125dd61417e565b5b602002602001015160600151145b1561270d57600060078483815181106126085761260761417e565b5b602002602001015160a001516040516126219190613be9565b90815260200160405180910390205490506000818584815181106126485761264761417e565b5b6020026020010151600001518561265f9190613f19565b6126699190613ee8565b905080600460008786815181106126835761268261417e565b5b60200260200101516080015173ffffffffffffffffffffffffffffffffffffffff1673ffffffffffffffffffffffffffffffffffffffff16815260200190815260200160002060008282546126d89190613e92565b9250508190555060018584815181106126f4576126f361417e565b5b602002602001015160c001901515908115158152505050505b612981565b858382815181106127265761272561417e565b5b6020026020010151602001511415612980576127a36064612795605561275a60028960e0015161048b90919063ffffffff16565b88608001518960a001518a606001516127739190613e92565b61277d9190613e92565b6127879190613e92565b61315790919063ffffffff16565b61048b90919063ffffffff16565b91506000808483815181106127bb576127ba61417e565b5b60200260200101516020015114156127fb576127f860646127ea60558860a0015161315790919063ffffffff16565b61048b90919063ffffffff16565b90505b60018483815181106128105761280f61417e565b5b60200260200101516020015114156128505761284d606461283f6055886080015161315790919063ffffffff16565b61048b90919063ffffffff16565b90505b60038483815181106128655761286461417e565b5b60200260200101516020015114156128a5576128a260646128946055886060015161315790919063ffffffff16565b61048b90919063ffffffff16565b90505b6000818584815181106128bb576128ba61417e565b5b602002602001015160000151856128d29190613f19565b6128dc9190613ee8565b905080600460008786815181106128f6576128f561417e565b5b60200260200101516080015173ffffffffffffffffffffffffffffffffffffffff1673ffffffffffffffffffffffffffffffffffffffff168152602001908152602001600020600082825461294b9190613e92565b9250508190555060018584815181106129675761296661417e565b5b602002602001015160c001901515908115158152505050505b5b5b808061298d9061409e565b9150506124e9565b5060018361014001901515908115158152505050505060019050949350505050565b60008060009054906101000a900473ffffffffffffffffffffffffffffffffffffffff1673ffffffffffffffffffffffffffffffffffffffff163373ffffffffffffffffffffffffffffffffffffffff1614612a48576040517f08c379a0000000000000000000000000000000000000000000000000000000008152600401612a3f90613ce1565b60405180910390fd5b81600460008573ffffffffffffffffffffffffffffffffffffffff1673ffffffffffffffffffffffffffffffffffffffff1681526020019081526020016000205410158015612ad757506000600460008573ffffffffffffffffffffffffffffffffffffffff1673ffffffffffffffffffffffffffffffffffffffff1681526020019081526020016000205410155b15612b865760008390508073ffffffffffffffffffffffffffffffffffffffff166108fc612b54662386f26fc10000600460008973ffffffffffffffffffffffffffffffffffffffff1673ffffffffffffffffffffffffffffffffffffffff1681526020019081526020016000205461315790919063ffffffff16565b9081150290604051600060405180830381858888f19350505050158015612b7f573d6000803e3d6000fd5b5050612bc1565b6040517f08c379a0000000000000000000000000000000000000000000000000000000008152600401612bb890613d81565b60405180910390fd5b6001905092915050565b6000600460003373ffffffffffffffffffffffffffffffffffffffff1673ffffffffffffffffffffffffffffffffffffffff16815260200190815260200160002054905090565b60606002805480602002602001604051908101604052809291908181526020018280548015612c6057602002820191906000526020600020905b815481526020019060010190808311612c4c575b5050505050905090565b606080612c756135a2565b612c7e84612f94565b612cbd576040517f08c379a0000000000000000000000000000000000000000000000000000000008152600401612cb490613d01565b60405180910390fd5b6000612d9c600560008781526020019081526020016000206000018054612ce39061403b565b80601f0160208091040260200160405190810160405280929190818152602001828054612d0f9061403b565b8015612d5c5780601f10612d3157610100808354040283529160200191612d5c565b820191906000526020600020905b815481529060010190602001808311612d3f57829003601f168201915b50505050506040518060400160405280600481526020017f2076732000000000000000000000000000000000000000000000000000000000815250612fc1565b9050612e4681600560008881526020019081526020016000206001018054612dc39061403b565b80601f0160208091040260200160405190810160405280929190818152602001828054612def9061403b565b8015612e3c5780601f10612e1157610100808354040283529160200191612e3c565b820191906000526020600020905b815481529060010190602001808311612e1f57829003601f168201915b5050505050612fc1565b935060006040518060a001604052806005600089815260200190815260200160002060030154815260200160056000898152602001908152602001600020600401548152602001600560008981526020019081526020016000206005015481526020016005600089815260200190815260200160002060060154815260200160056000898152602001908152602001600020600701548152509050846005600088815260200190815260200160002060020182818054612f059061403b565b80601f0160208091040260200160405190810160405280929190818152602001828054612f319061403b565b8015612f7e5780601f10612f5357610100808354040283529160200191612f7e565b820191906000526020600020905b815481529060010190602001808311612f6157829003601f168201915b5050505050915094509450945050509193909250565b60006005600083815260200190815260200160002060080160019054906101000a900460ff169050919050565b606060008390506000839050600081518351612fdd9190613e92565b67ffffffffffffffff811115612ff657612ff56141ad565b5b6040519080825280601f01601f1916602001820160405280156130285781602001600182028036833780820191505090505b50905060008190506000805b85518110156130bc578581815181106130505761304f61417e565b5b602001015160f81c60f81b8383806130679061409e565b94508151811061307a5761307961417e565b5b60200101907effffffffffffffffffffffffffffffffffffffffffffffffffffffffffffff1916908160001a90535080806130b49061409e565b915050613034565b5060005b8451811015613148578481815181106130dc576130db61417e565b5b602001015160f81c60f81b8383806130f39061409e565b9450815181106131065761310561417e565b5b60200101907effffffffffffffffffffffffffffffffffffffffffffffffffffffffffffff1916908160001a90535080806131409061409e565b9150506130c0565b50829550505050505092915050565b60008083141561316a5760009050613196565b600082846131789190613f19565b90508284826131879190613ee8565b1461319157600080fd5b809150505b92915050565b60606131c6826040516020016131b29190613c00565b6040516020818303038152906040526131cd565b9050919050565b606060006040518060400160405280601081526020017f303132333435363738396162636465660000000000000000000000000000000081525090506000600284516132199190613f19565b60026132259190613e92565b67ffffffffffffffff81111561323e5761323d6141ad565b5b6040519080825280601f01601f1916602001820160405280156132705781602001600182028036833780820191505090505b5090507f3000000000000000000000000000000000000000000000000000000000000000816000815181106132a8576132a761417e565b5b60200101907effffffffffffffffffffffffffffffffffffffffffffffffffffffffffffff1916908160001a9053507f78000000000000000000000000000000000000000000000000000000000000008160018151811061330c5761330b61417e565b5b60200101907effffffffffffffffffffffffffffffffffffffffffffffffffffffffffffff1916908160001a90535060005b84518110156134bc5782600486838151811061335d5761335c61417e565b5b602001015160f81c60f81b7effffffffffffffffffffffffffffffffffffffffffffffffffffffffffffff1916901c60f81c60ff16815181106133a3576133a261417e565b5b602001015160f81c60f81b826002836133bc9190613f19565b60026133c89190613e92565b815181106133d9576133d861417e565b5b60200101907effffffffffffffffffffffffffffffffffffffffffffffffffffffffffffff1916908160001a90535082600f60f81b8683815181106134215761342061417e565b5b602001015160f81c60f81b1660f81c60ff16815181106134445761344361417e565b5b602001015160f81c60f81b8260028361345d9190613f19565b60036134699190613e92565b8151811061347a5761347961417e565b5b60200101907effffffffffffffffffffffffffffffffffffffffffffffffffffffffffffff1916908160001a90535080806134b49061409e565b91505061333e565b508092505050919050565b8280546134d39061403b565b90600052602060002090601f0160209004810192826134f5576000855561353c565b82601f1061350e57805160ff191683800117855561353c565b8280016001018555821561353c579182015b8281111561353b578251825591602001919060010190613520565b5b50905061354991906135d1565b5090565b6040518060e0016040528060008152602001600081526020016000815260200160008152602001600073ffffffffffffffffffffffffffffffffffffffff168152602001606081526020016000151581525090565b6040518060a0016040528060008152602001600081526020016000815260200160008152602001600081525090565b5b808211156135ea5760008160009055506001016135d2565b5090565b60006136016135fc84613e01565b613ddc565b90508281526020810184848401111561361d5761361c6141e1565b5b613628848285613ff9565b509392505050565b60008135905061363f81614320565b92915050565b60008135905061365481614337565b92915050565b6000813590506136698161434e565b92915050565b600082601f830112613684576136836141dc565b5b81356136948482602086016135ee565b91505092915050565b6000813590506136ac81614365565b92915050565b6000602082840312156136c8576136c76141eb565b5b60006136d684828501613630565b91505092915050565b600080604083850312156136f6576136f56141eb565b5b600061370485828601613630565b92505060206137158582860161365a565b9150509250929050565b60008060408385031215613736576137356141eb565b5b600061374485828601613630565b92505060206137558582860161369d565b9150509250929050565b60008060008060008060c0878903121561377c5761377b6141eb565b5b600061378a89828a01613630565b965050602061379b89828a0161369d565b95505060406137ac89828a0161365a565b94505060606137bd89828a0161369d565b93505060806137ce89828a0161369d565b92505060a06137df89828a0161369d565b9150509295509295509295565b600060208284031215613802576138016141eb565b5b60006138108482850161365a565b91505092915050565b60008060008060808587031215613833576138326141eb565b5b60006138418782880161365a565b94505060206138528782880161369d565b93505060406138638782880161369d565b92505060606138748782880161369d565b91505092959194509250565b6000806000806080858703121561389a576138996141eb565b5b600085013567ffffffffffffffff8111156138b8576138b76141e6565b5b6138c48782880161366f565b945050602085013567ffffffffffffffff8111156138e5576138e46141e6565b5b6138f18782880161366f565b935050604085013567ffffffffffffffff811115613912576139116141e6565b5b61391e8782880161366f565b925050606061392f87828801613645565b91505092959194509250565b600061394783836139cf565b60208301905092915050565b61395c81613fa7565b82525050565b600061396d82613e42565b6139778185613e65565b935061398283613e32565b8060005b838110156139b357815161399a888261393b565b97506139a583613e58565b925050600181019050613986565b5085935050505092915050565b6139c981613fb9565b82525050565b6139d881613fc5565b82525050565b6139e781613fc5565b82525050565b60006139f882613e4d565b613a028185613e76565b9350613a12818560208601614008565b613a1b816141f0565b840191505092915050565b6000613a3182613e4d565b613a3b8185613e87565b9350613a4b818560208601614008565b80840191505092915050565b6000613a64601983613e76565b9150613a6f82614201565b602082019050919050565b6000613a87600983613e76565b9150613a928261422a565b602082019050919050565b6000613aaa600e83613e76565b9150613ab582614253565b602082019050919050565b6000613acd600a83613e76565b9150613ad88261427c565b602082019050919050565b6000613af0601583613e76565b9150613afb826142a5565b602082019050919050565b6000613b13601583613e76565b9150613b1e826142ce565b602082019050919050565b6000613b36601183613e76565b9150613b41826142f7565b602082019050919050565b60a082016000820151613b626000850182613bb4565b506020820151613b756020850182613bb4565b506040820151613b886040850182613bb4565b506060820151613b9b6060850182613bb4565b506080820151613bae6080850182613bb4565b50505050565b613bbd81613fef565b82525050565b613bcc81613fef565b82525050565b613be3613bde82613fef565b6140e7565b82525050565b6000613bf58284613a26565b915081905092915050565b6000613c0c8284613bd2565b60208201915081905092915050565b6000604082019050613c306000830185613953565b613c3d6020830184613bc3565b9392505050565b60006020820190508181036000830152613c5e8184613962565b905092915050565b6000602082019050613c7b60008301846139c0565b92915050565b6000602082019050613c9660008301846139de565b92915050565b600060e0820190508181036000830152613cb681866139ed565b90508181036020830152613cca81856139ed565b9050613cd96040830184613b4c565b949350505050565b60006020820190508181036000830152613cfa81613a57565b9050919050565b60006020820190508181036000830152613d1a81613a7a565b9050919050565b60006020820190508181036000830152613d3a81613a9d565b9050919050565b60006020820190508181036000830152613d5a81613ac0565b9050919050565b60006020820190508181036000830152613d7a81613ae3565b9050919050565b60006020820190508181036000830152613d9a81613b06565b9050919050565b60006020820190508181036000830152613dba81613b29565b9050919050565b6000602082019050613dd66000830184613bc3565b92915050565b6000613de6613df7565b9050613df2828261406d565b919050565b6000604051905090565b600067ffffffffffffffff821115613e1c57613e1b6141ad565b5b613e25826141f0565b9050602081019050919050565b6000819050602082019050919050565b600081519050919050565b600081519050919050565b6000602082019050919050565b600082825260208201905092915050565b600082825260208201905092915050565b600081905092915050565b6000613e9d82613fef565b9150613ea883613fef565b9250827fffffffffffffffffffffffffffffffffffffffffffffffffffffffffffffffff03821115613edd57613edc6140f1565b5b828201905092915050565b6000613ef382613fef565b9150613efe83613fef565b925082613f0e57613f0d614120565b5b828204905092915050565b6000613f2482613fef565b9150613f2f83613fef565b9250817fffffffffffffffffffffffffffffffffffffffffffffffffffffffffffffffff0483118215151615613f6857613f676140f1565b5b828202905092915050565b6000613f7e82613fef565b9150613f8983613fef565b925082821015613f9c57613f9b6140f1565b5b828203905092915050565b6000613fb282613fcf565b9050919050565b60008115159050919050565b6000819050919050565b600073ffffffffffffffffffffffffffffffffffffffff82169050919050565b6000819050919050565b82818337600083830152505050565b60005b8381101561402657808201518184015260208101905061400b565b83811115614035576000848401525b50505050565b6000600282049050600182168061405357607f821691505b602082108114156140675761406661414f565b5b50919050565b614076826141f0565b810181811067ffffffffffffffff82111715614095576140946141ad565b5b80604052505050565b60006140a982613fef565b91507fffffffffffffffffffffffffffffffffffffffffffffffffffffffffffffffff8214156140dc576140db6140f1565b5b600182019050919050565b6000819050919050565b7f4e487b7100000000000000000000000000000000000000000000000000000000600052601160045260246000fd5b7f4e487b7100000000000000000000000000000000000000000000000000000000600052601260045260246000fd5b7f4e487b7100000000000000000000000000000000000000000000000000000000600052602260045260246000fd5b7f4e487b7100000000000000000000000000000000000000000000000000000000600052603260045260246000fd5b7f4e487b7100000000000000000000000000000000000000000000000000000000600052604160045260246000fd5b600080fd5b600080fd5b600080fd5b600080fd5b6000601f19601f8301169050919050565b7f4f6e6c79206f776e65722063616e2063616c6c20746869732e00000000000000600082015250565b7f6e6f742065786973740000000000000000000000000000000000000000000000600082015250565b7f706f6f6c206e6f74206578697374000000000000000000000000000000000000600082015250565b7f7061697220657869737400000000000000000000000000000000000000000000600082015250565b7f706f6f6c20686173206e6f742066696e69736865640000000000000000000000600082015250565b7f6e6f7420656e6f75676820766f7465416d6f756e740000000000000000000000600082015250565b7f706f6f6c206861732066696e6973686564000000000000000000000000000000600082015250565b61432981613fa7565b811461433457600080fd5b50565b61434081613fb9565b811461434b57600080fd5b50565b61435781613fc5565b811461436257600080fd5b50565b61436e81613fef565b811461437957600080fd5b5056fea26469706673582212206efb2802cf5e888b685ac814a93966a5ffc60169d381e8b558e7b2565bfdcf3064736f6c63430008070033",
					"opcodes": "PUSH1 0x80 PUSH1 0x40 MSTORE CALLVALUE DUP1 ISZERO PUSH3 0x11 JUMPI PUSH1 0x0 DUP1 REVERT JUMPDEST POP PUSH1 0x40 MLOAD PUSH3 0x453C CODESIZE SUB DUP1 PUSH3 0x453C DUP4 CODECOPY DUP2 DUP2 ADD PUSH1 0x40 MSTORE DUP2 ADD SWAP1 PUSH3 0x37 SWAP2 SWAP1 PUSH3 0xBC JUMP JUMPDEST DUP2 PUSH1 0x0 DUP1 PUSH2 0x100 EXP DUP2 SLOAD DUP2 PUSH20 0xFFFFFFFFFFFFFFFFFFFFFFFFFFFFFFFFFFFFFFFF MUL NOT AND SWAP1 DUP4 PUSH20 0xFFFFFFFFFFFFFFFFFFFFFFFFFFFFFFFFFFFFFFFF AND MUL OR SWAP1 SSTORE POP PUSH1 0x0 PUSH1 0x3 DUP2 SWAP1 SSTORE POP DUP1 PUSH1 0x1 DUP2 SWAP1 SSTORE POP POP POP PUSH3 0x17A JUMP JUMPDEST PUSH1 0x0 DUP2 MLOAD SWAP1 POP PUSH3 0x9F DUP2 PUSH3 0x146 JUMP JUMPDEST SWAP3 SWAP2 POP POP JUMP JUMPDEST PUSH1 0x0 DUP2 MLOAD SWAP1 POP PUSH3 0xB6 DUP2 PUSH3 0x160 JUMP JUMPDEST SWAP3 SWAP2 POP POP JUMP JUMPDEST PUSH1 0x0 DUP1 PUSH1 0x40 DUP4 DUP6 SUB SLT ISZERO PUSH3 0xD6 JUMPI PUSH3 0xD5 PUSH3 0x141 JUMP JUMPDEST JUMPDEST PUSH1 0x0 PUSH3 0xE6 DUP6 DUP3 DUP7 ADD PUSH3 0x8E JUMP JUMPDEST SWAP3 POP POP PUSH1 0x20 PUSH3 0xF9 DUP6 DUP3 DUP7 ADD PUSH3 0xA5 JUMP JUMPDEST SWAP2 POP POP SWAP3 POP SWAP3 SWAP1 POP JUMP JUMPDEST PUSH1 0x0 PUSH3 0x110 DUP3 PUSH3 0x117 JUMP JUMPDEST SWAP1 POP SWAP2 SWAP1 POP JUMP JUMPDEST PUSH1 0x0 PUSH20 0xFFFFFFFFFFFFFFFFFFFFFFFFFFFFFFFFFFFFFFFF DUP3 AND SWAP1 POP SWAP2 SWAP1 POP JUMP JUMPDEST PUSH1 0x0 DUP2 SWAP1 POP SWAP2 SWAP1 POP JUMP JUMPDEST PUSH1 0x0 DUP1 REVERT JUMPDEST PUSH3 0x151 DUP2 PUSH3 0x103 JUMP JUMPDEST DUP2 EQ PUSH3 0x15D JUMPI PUSH1 0x0 DUP1 REVERT JUMPDEST POP JUMP JUMPDEST PUSH3 0x16B DUP2 PUSH3 0x137 JUMP JUMPDEST DUP2 EQ PUSH3 0x177 JUMPI PUSH1 0x0 DUP1 REVERT JUMPDEST POP JUMP JUMPDEST PUSH2 0x43B2 DUP1 PUSH3 0x18A PUSH1 0x0 CODECOPY PUSH1 0x0 RETURN INVALID PUSH1 0x80 PUSH1 0x40 MSTORE PUSH1 0x4 CALLDATASIZE LT PUSH2 0xC6 JUMPI PUSH1 0x0 CALLDATALOAD PUSH1 0xE0 SHR DUP1 PUSH4 0x4121855F GT PUSH2 0x7F JUMPI DUP1 PUSH4 0x9BD0ABF1 GT PUSH2 0x59 JUMPI DUP1 PUSH4 0x9BD0ABF1 EQ PUSH2 0x3C6 JUMPI DUP1 PUSH4 0xBAF41269 EQ PUSH2 0x3F6 JUMPI DUP1 PUSH4 0xEA8870C0 EQ PUSH2 0x421 JUMPI DUP1 PUSH4 0xF6C00927 EQ PUSH2 0x44C JUMPI PUSH2 0x1E7 JUMP JUMPDEST DUP1 PUSH4 0x4121855F EQ PUSH2 0x31C JUMPI DUP1 PUSH4 0x47E4DD27 EQ PUSH2 0x359 JUMPI DUP1 PUSH4 0x74FE9BC2 EQ PUSH2 0x396 JUMPI PUSH2 0x1E7 JUMP JUMPDEST DUP1 PUSH4 0xC66B373 EQ PUSH2 0x1EC JUMPI DUP1 PUSH4 0xCE49053 EQ PUSH2 0x217 JUMPI DUP1 PUSH4 0x22D8325C EQ PUSH2 0x247 JUMPI DUP1 PUSH4 0x2775E02C EQ PUSH2 0x284 JUMPI DUP1 PUSH4 0x357965BA EQ PUSH2 0x2B4 JUMPI DUP1 PUSH4 0x3E6FF1A2 EQ PUSH2 0x2F1 JUMPI PUSH2 0x1E7 JUMP JUMPDEST CALLDATASIZE PUSH2 0x1E7 JUMPI PUSH1 0x0 DUP1 SLOAD SWAP1 PUSH2 0x100 EXP SWAP1 DIV PUSH20 0xFFFFFFFFFFFFFFFFFFFFFFFFFFFFFFFFFFFFFFFF AND PUSH20 0xFFFFFFFFFFFFFFFFFFFFFFFFFFFFFFFFFFFFFFFF AND CALLER PUSH20 0xFFFFFFFFFFFFFFFFFFFFFFFFFFFFFFFFFFFFFFFF AND EQ PUSH2 0x1E4 JUMPI PUSH2 0x138 PUSH7 0x2386F26FC10000 CALLVALUE PUSH2 0x48B SWAP1 SWAP2 SWAP1 PUSH4 0xFFFFFFFF AND JUMP JUMPDEST PUSH1 0x4 PUSH1 0x0 CALLER PUSH20 0xFFFFFFFFFFFFFFFFFFFFFFFFFFFFFFFFFFFFFFFF AND PUSH20 0xFFFFFFFFFFFFFFFFFFFFFFFFFFFFFFFFFFFFFFFF AND DUP2 MSTORE PUSH1 0x20 ADD SWAP1 DUP2 MSTORE PUSH1 0x20 ADD PUSH1 0x0 KECCAK256 PUSH1 0x0 DUP3 DUP3 SLOAD PUSH2 0x186 SWAP2 SWAP1 PUSH2 0x3E92 JUMP JUMPDEST SWAP3 POP POP DUP2 SWAP1 SSTORE POP CALLVALUE PUSH1 0x3 PUSH1 0x0 DUP3 DUP3 SLOAD PUSH2 0x19F SWAP2 SWAP1 PUSH2 0x3E92 JUMP JUMPDEST SWAP3 POP POP DUP2 SWAP1 SSTORE POP PUSH32 0x88A5966D370B9919B20F3E2C13FF65706F196A4E32CC2C12BF57088F88525874 CALLER CALLVALUE PUSH1 0x40 MLOAD PUSH2 0x1D7 SWAP3 SWAP2 SWAP1 PUSH2 0x3C1B JUMP JUMPDEST PUSH1 0x40 MLOAD DUP1 SWAP2 SUB SWAP1 LOG1 PUSH2 0x1E5 JUMP JUMPDEST JUMPDEST STOP JUMPDEST PUSH1 0x0 DUP1 REVERT JUMPDEST CALLVALUE DUP1 ISZERO PUSH2 0x1F8 JUMPI PUSH1 0x0 DUP1 REVERT JUMPDEST POP PUSH2 0x201 PUSH2 0x4B3 JUMP JUMPDEST PUSH1 0x40 MLOAD PUSH2 0x20E SWAP2 SWAP1 PUSH2 0x3DC1 JUMP JUMPDEST PUSH1 0x40 MLOAD DUP1 SWAP2 SUB SWAP1 RETURN JUMPDEST PUSH2 0x231 PUSH1 0x4 DUP1 CALLDATASIZE SUB DUP2 ADD SWAP1 PUSH2 0x22C SWAP2 SWAP1 PUSH2 0x36DF JUMP JUMPDEST PUSH2 0x54C JUMP JUMPDEST PUSH1 0x40 MLOAD PUSH2 0x23E SWAP2 SWAP1 PUSH2 0x3C66 JUMP JUMPDEST PUSH1 0x40 MLOAD DUP1 SWAP2 SUB SWAP1 RETURN JUMPDEST CALLVALUE DUP1 ISZERO PUSH2 0x253 JUMPI PUSH1 0x0 DUP1 REVERT JUMPDEST POP PUSH2 0x26E PUSH1 0x4 DUP1 CALLDATASIZE SUB DUP2 ADD SWAP1 PUSH2 0x269 SWAP2 SWAP1 PUSH2 0x375F JUMP JUMPDEST PUSH2 0x988 JUMP JUMPDEST PUSH1 0x40 MLOAD PUSH2 0x27B SWAP2 SWAP1 PUSH2 0x3C66 JUMP JUMPDEST PUSH1 0x40 MLOAD DUP1 SWAP2 SUB SWAP1 RETURN JUMPDEST PUSH2 0x29E PUSH1 0x4 DUP1 CALLDATASIZE SUB DUP2 ADD SWAP1 PUSH2 0x299 SWAP2 SWAP1 PUSH2 0x36B2 JUMP JUMPDEST PUSH2 0xDFC JUMP JUMPDEST PUSH1 0x40 MLOAD PUSH2 0x2AB SWAP2 SWAP1 PUSH2 0x3C66 JUMP JUMPDEST PUSH1 0x40 MLOAD DUP1 SWAP2 SUB SWAP1 RETURN JUMPDEST CALLVALUE DUP1 ISZERO PUSH2 0x2C0 JUMPI PUSH1 0x0 DUP1 REVERT JUMPDEST POP PUSH2 0x2DB PUSH1 0x4 DUP1 CALLDATASIZE SUB DUP2 ADD SWAP1 PUSH2 0x2D6 SWAP2 SWAP1 PUSH2 0x3880 JUMP JUMPDEST PUSH2 0xEF1 JUMP JUMPDEST PUSH1 0x40 MLOAD PUSH2 0x2E8 SWAP2 SWAP1 PUSH2 0x3C81 JUMP JUMPDEST PUSH1 0x40 MLOAD DUP1 SWAP2 SUB SWAP1 RETURN JUMPDEST CALLVALUE DUP1 ISZERO PUSH2 0x2FD JUMPI PUSH1 0x0 DUP1 REVERT JUMPDEST POP PUSH2 0x306 PUSH2 0x1277 JUMP JUMPDEST PUSH1 0x40 MLOAD PUSH2 0x313 SWAP2 SWAP1 PUSH2 0x3DC1 JUMP JUMPDEST PUSH1 0x40 MLOAD DUP1 SWAP2 SUB SWAP1 RETURN JUMPDEST CALLVALUE DUP1 ISZERO PUSH2 0x328 JUMPI PUSH1 0x0 DUP1 REVERT JUMPDEST POP PUSH2 0x343 PUSH1 0x4 DUP1 CALLDATASIZE SUB DUP2 ADD SWAP1 PUSH2 0x33E SWAP2 SWAP1 PUSH2 0x37EC JUMP JUMPDEST PUSH2 0x1310 JUMP JUMPDEST PUSH1 0x40 MLOAD PUSH2 0x350 SWAP2 SWAP1 PUSH2 0x3DC1 JUMP JUMPDEST PUSH1 0x40 MLOAD DUP1 SWAP2 SUB SWAP1 RETURN JUMPDEST CALLVALUE DUP1 ISZERO PUSH2 0x365 JUMPI PUSH1 0x0 DUP1 REVERT JUMPDEST POP PUSH2 0x380 PUSH1 0x4 DUP1 CALLDATASIZE SUB DUP2 ADD SWAP1 PUSH2 0x37B SWAP2 SWAP1 PUSH2 0x375F JUMP JUMPDEST PUSH2 0x16AD JUMP JUMPDEST PUSH1 0x40 MLOAD PUSH2 0x38D SWAP2 SWAP1 PUSH2 0x3C66 JUMP JUMPDEST PUSH1 0x40 MLOAD DUP1 SWAP2 SUB SWAP1 RETURN JUMPDEST PUSH2 0x3B0 PUSH1 0x4 DUP1 CALLDATASIZE SUB DUP2 ADD SWAP1 PUSH2 0x3AB SWAP2 SWAP1 PUSH2 0x3819 JUMP JUMPDEST PUSH2 0x1F44 JUMP JUMPDEST PUSH1 0x40 MLOAD PUSH2 0x3BD SWAP2 SWAP1 PUSH2 0x3C66 JUMP JUMPDEST PUSH1 0x40 MLOAD DUP1 SWAP2 SUB SWAP1 RETURN JUMPDEST PUSH2 0x3E0 PUSH1 0x4 DUP1 CALLDATASIZE SUB DUP2 ADD SWAP1 PUSH2 0x3DB SWAP2 SWAP1 PUSH2 0x371F JUMP JUMPDEST PUSH2 0x29B7 JUMP JUMPDEST PUSH1 0x40 MLOAD PUSH2 0x3ED SWAP2 SWAP1 PUSH2 0x3C66 JUMP JUMPDEST PUSH1 0x40 MLOAD DUP1 SWAP2 SUB SWAP1 RETURN JUMPDEST CALLVALUE DUP1 ISZERO PUSH2 0x402 JUMPI PUSH1 0x0 DUP1 REVERT JUMPDEST POP PUSH2 0x40B PUSH2 0x2BCB JUMP JUMPDEST PUSH1 0x40 MLOAD PUSH2 0x418 SWAP2 SWAP1 PUSH2 0x3DC1 JUMP JUMPDEST PUSH1 0x40 MLOAD DUP1 SWAP2 SUB SWAP1 RETURN JUMPDEST CALLVALUE DUP1 ISZERO PUSH2 0x42D JUMPI PUSH1 0x0 DUP1 REVERT JUMPDEST POP PUSH2 0x436 PUSH2 0x2C12 JUMP JUMPDEST PUSH1 0x40 MLOAD PUSH2 0x443 SWAP2 SWAP1 PUSH2 0x3C44 JUMP JUMPDEST PUSH1 0x40 MLOAD DUP1 SWAP2 SUB SWAP1 RETURN JUMPDEST CALLVALUE DUP1 ISZERO PUSH2 0x458 JUMPI PUSH1 0x0 DUP1 REVERT JUMPDEST POP PUSH2 0x473 PUSH1 0x4 DUP1 CALLDATASIZE SUB DUP2 ADD SWAP1 PUSH2 0x46E SWAP2 SWAP1 PUSH2 0x37EC JUMP JUMPDEST PUSH2 0x2C6A JUMP JUMPDEST PUSH1 0x40 MLOAD PUSH2 0x482 SWAP4 SWAP3 SWAP2 SWAP1 PUSH2 0x3C9C JUMP JUMPDEST PUSH1 0x40 MLOAD DUP1 SWAP2 SUB SWAP1 RETURN JUMPDEST PUSH1 0x0 DUP1 DUP3 GT PUSH2 0x499 JUMPI PUSH1 0x0 DUP1 REVERT JUMPDEST PUSH1 0x0 DUP3 DUP5 PUSH2 0x4A7 SWAP2 SWAP1 PUSH2 0x3EE8 JUMP JUMPDEST SWAP1 POP DUP1 SWAP2 POP POP SWAP3 SWAP2 POP POP JUMP JUMPDEST PUSH1 0x0 DUP1 PUSH1 0x0 SWAP1 SLOAD SWAP1 PUSH2 0x100 EXP SWAP1 DIV PUSH20 0xFFFFFFFFFFFFFFFFFFFFFFFFFFFFFFFFFFFFFFFF AND PUSH20 0xFFFFFFFFFFFFFFFFFFFFFFFFFFFFFFFFFFFFFFFF AND CALLER PUSH20 0xFFFFFFFFFFFFFFFFFFFFFFFFFFFFFFFFFFFFFFFF AND EQ PUSH2 0x544 JUMPI PUSH1 0x40 MLOAD PUSH32 0x8C379A000000000000000000000000000000000000000000000000000000000 DUP2 MSTORE PUSH1 0x4 ADD PUSH2 0x53B SWAP1 PUSH2 0x3CE1 JUMP JUMPDEST PUSH1 0x40 MLOAD DUP1 SWAP2 SUB SWAP1 REVERT JUMPDEST PUSH1 0x3 SLOAD SWAP1 POP SWAP1 JUMP JUMPDEST PUSH1 0x0 DUP1 PUSH1 0x0 SWAP1 SLOAD SWAP1 PUSH2 0x100 EXP SWAP1 DIV PUSH20 0xFFFFFFFFFFFFFFFFFFFFFFFFFFFFFFFFFFFFFFFF AND PUSH20 0xFFFFFFFFFFFFFFFFFFFFFFFFFFFFFFFFFFFFFFFF AND CALLER PUSH20 0xFFFFFFFFFFFFFFFFFFFFFFFFFFFFFFFFFFFFFFFF AND EQ PUSH2 0x5DD JUMPI PUSH1 0x40 MLOAD PUSH32 0x8C379A000000000000000000000000000000000000000000000000000000000 DUP2 MSTORE PUSH1 0x4 ADD PUSH2 0x5D4 SWAP1 PUSH2 0x3CE1 JUMP JUMPDEST PUSH1 0x40 MLOAD DUP1 SWAP2 SUB SWAP1 REVERT JUMPDEST PUSH2 0x5E6 DUP3 PUSH2 0x2F94 JUMP JUMPDEST PUSH2 0x625 JUMPI PUSH1 0x40 MLOAD PUSH32 0x8C379A000000000000000000000000000000000000000000000000000000000 DUP2 MSTORE PUSH1 0x4 ADD PUSH2 0x61C SWAP1 PUSH2 0x3D21 JUMP JUMPDEST PUSH1 0x40 MLOAD DUP1 SWAP2 SUB SWAP1 REVERT JUMPDEST PUSH1 0x0 PUSH1 0x5 PUSH1 0x0 DUP5 DUP2 MSTORE PUSH1 0x20 ADD SWAP1 DUP2 MSTORE PUSH1 0x20 ADD PUSH1 0x0 KECCAK256 PUSH1 0x40 MLOAD DUP1 PUSH2 0x160 ADD PUSH1 0x40 MSTORE SWAP1 DUP2 PUSH1 0x0 DUP3 ADD DUP1 SLOAD PUSH2 0x656 SWAP1 PUSH2 0x403B JUMP JUMPDEST DUP1 PUSH1 0x1F ADD PUSH1 0x20 DUP1 SWAP2 DIV MUL PUSH1 0x20 ADD PUSH1 0x40 MLOAD SWAP1 DUP2 ADD PUSH1 0x40 MSTORE DUP1 SWAP3 SWAP2 SWAP1 DUP2 DUP2 MSTORE PUSH1 0x20 ADD DUP3 DUP1 SLOAD PUSH2 0x682 SWAP1 PUSH2 0x403B JUMP JUMPDEST DUP1 ISZERO PUSH2 0x6CF JUMPI DUP1 PUSH1 0x1F LT PUSH2 0x6A4 JUMPI PUSH2 0x100 DUP1 DUP4 SLOAD DIV MUL DUP4 MSTORE SWAP2 PUSH1 0x20 ADD SWAP2 PUSH2 0x6CF JUMP JUMPDEST DUP3 ADD SWAP2 SWAP1 PUSH1 0x0 MSTORE PUSH1 0x20 PUSH1 0x0 KECCAK256 SWAP1 JUMPDEST DUP2 SLOAD DUP2 MSTORE SWAP1 PUSH1 0x1 ADD SWAP1 PUSH1 0x20 ADD DUP1 DUP4 GT PUSH2 0x6B2 JUMPI DUP3 SWAP1 SUB PUSH1 0x1F AND DUP3 ADD SWAP2 JUMPDEST POP POP POP POP POP DUP2 MSTORE PUSH1 0x20 ADD PUSH1 0x1 DUP3 ADD DUP1 SLOAD PUSH2 0x6E8 SWAP1 PUSH2 0x403B JUMP JUMPDEST DUP1 PUSH1 0x1F ADD PUSH1 0x20 DUP1 SWAP2 DIV MUL PUSH1 0x20 ADD PUSH1 0x40 MLOAD SWAP1 DUP2 ADD PUSH1 0x40 MSTORE DUP1 SWAP3 SWAP2 SWAP1 DUP2 DUP2 MSTORE PUSH1 0x20 ADD DUP3 DUP1 SLOAD PUSH2 0x714 SWAP1 PUSH2 0x403B JUMP JUMPDEST DUP1 ISZERO PUSH2 0x761 JUMPI DUP1 PUSH1 0x1F LT PUSH2 0x736 JUMPI PUSH2 0x100 DUP1 DUP4 SLOAD DIV MUL DUP4 MSTORE SWAP2 PUSH1 0x20 ADD SWAP2 PUSH2 0x761 JUMP JUMPDEST DUP3 ADD SWAP2 SWAP1 PUSH1 0x0 MSTORE PUSH1 0x20 PUSH1 0x0 KECCAK256 SWAP1 JUMPDEST DUP2 SLOAD DUP2 MSTORE SWAP1 PUSH1 0x1 ADD SWAP1 PUSH1 0x20 ADD DUP1 DUP4 GT PUSH2 0x744 JUMPI DUP3 SWAP1 SUB PUSH1 0x1F AND DUP3 ADD SWAP2 JUMPDEST POP POP POP POP POP DUP2 MSTORE PUSH1 0x20 ADD PUSH1 0x2 DUP3 ADD DUP1 SLOAD PUSH2 0x77A SWAP1 PUSH2 0x403B JUMP JUMPDEST DUP1 PUSH1 0x1F ADD PUSH1 0x20 DUP1 SWAP2 DIV MUL PUSH1 0x20 ADD PUSH1 0x40 MLOAD SWAP1 DUP2 ADD PUSH1 0x40 MSTORE DUP1 SWAP3 SWAP2 SWAP1 DUP2 DUP2 MSTORE PUSH1 0x20 ADD DUP3 DUP1 SLOAD PUSH2 0x7A6 SWAP1 PUSH2 0x403B JUMP JUMPDEST DUP1 ISZERO PUSH2 0x7F3 JUMPI DUP1 PUSH1 0x1F LT PUSH2 0x7C8 JUMPI PUSH2 0x100 DUP1 DUP4 SLOAD DIV MUL DUP4 MSTORE SWAP2 PUSH1 0x20 ADD SWAP2 PUSH2 0x7F3 JUMP JUMPDEST DUP3 ADD SWAP2 SWAP1 PUSH1 0x0 MSTORE PUSH1 0x20 PUSH1 0x0 KECCAK256 SWAP1 JUMPDEST DUP2 SLOAD DUP2 MSTORE SWAP1 PUSH1 0x1 ADD SWAP1 PUSH1 0x20 ADD DUP1 DUP4 GT PUSH2 0x7D6 JUMPI DUP3 SWAP1 SUB PUSH1 0x1F AND DUP3 ADD SWAP2 JUMPDEST POP POP POP POP POP DUP2 MSTORE PUSH1 0x20 ADD PUSH1 0x3 DUP3 ADD SLOAD DUP2 MSTORE PUSH1 0x20 ADD PUSH1 0x4 DUP3 ADD SLOAD DUP2 MSTORE PUSH1 0x20 ADD PUSH1 0x5 DUP3 ADD SLOAD DUP2 MSTORE PUSH1 0x20 ADD PUSH1 0x6 DUP3 ADD SLOAD DUP2 MSTORE PUSH1 0x20 ADD PUSH1 0x7 DUP3 ADD SLOAD DUP2 MSTORE PUSH1 0x20 ADD PUSH1 0x8 DUP3 ADD PUSH1 0x0 SWAP1 SLOAD SWAP1 PUSH2 0x100 EXP SWAP1 DIV PUSH1 0xFF AND ISZERO ISZERO ISZERO ISZERO DUP2 MSTORE PUSH1 0x20 ADD PUSH1 0x8 DUP3 ADD PUSH1 0x1 SWAP1 SLOAD SWAP1 PUSH2 0x100 EXP SWAP1 DIV PUSH1 0xFF AND ISZERO ISZERO ISZERO ISZERO DUP2 MSTORE PUSH1 0x20 ADD PUSH1 0x8 DUP3 ADD PUSH1 0x2 SWAP1 SLOAD SWAP1 PUSH2 0x100 EXP SWAP1 DIV PUSH1 0xFF AND ISZERO ISZERO ISZERO ISZERO DUP2 MSTORE POP POP SWAP1 POP PUSH1 0x0 PUSH2 0x8D7 PUSH1 0xA DUP4 PUSH1 0xE0 ADD MLOAD DUP5 PUSH1 0xC0 ADD MLOAD DUP6 PUSH1 0x80 ADD MLOAD DUP7 PUSH1 0xA0 ADD MLOAD DUP8 PUSH1 0x60 ADD MLOAD PUSH2 0x8AB SWAP2 SWAP1 PUSH2 0x3E92 JUMP JUMPDEST PUSH2 0x8B5 SWAP2 SWAP1 PUSH2 0x3E92 JUMP JUMPDEST PUSH2 0x8BF SWAP2 SWAP1 PUSH2 0x3E92 JUMP JUMPDEST PUSH2 0x8C9 SWAP2 SWAP1 PUSH2 0x3E92 JUMP JUMPDEST PUSH2 0x48B SWAP1 SWAP2 SWAP1 PUSH4 0xFFFFFFFF AND JUMP JUMPDEST SWAP1 POP PUSH1 0x1 DUP3 PUSH2 0x140 ADD SWAP1 ISZERO ISZERO SWAP1 DUP2 ISZERO ISZERO DUP2 MSTORE POP ISZERO PUSH2 0x941 JUMPI PUSH1 0x0 DUP6 SWAP1 POP DUP1 PUSH20 0xFFFFFFFFFFFFFFFFFFFFFFFFFFFFFFFFFFFFFFFF AND PUSH2 0x8FC DUP4 SWAP1 DUP2 ISZERO MUL SWAP1 PUSH1 0x40 MLOAD PUSH1 0x0 PUSH1 0x40 MLOAD DUP1 DUP4 SUB DUP2 DUP6 DUP9 DUP9 CALL SWAP4 POP POP POP POP ISZERO DUP1 ISZERO PUSH2 0x93A JUMPI RETURNDATASIZE PUSH1 0x0 DUP1 RETURNDATACOPY RETURNDATASIZE PUSH1 0x0 REVERT JUMPDEST POP POP PUSH2 0x97C JUMP JUMPDEST PUSH1 0x40 MLOAD PUSH32 0x8C379A000000000000000000000000000000000000000000000000000000000 DUP2 MSTORE PUSH1 0x4 ADD PUSH2 0x973 SWAP1 PUSH2 0x3D61 JUMP JUMPDEST PUSH1 0x40 MLOAD DUP1 SWAP2 SUB SWAP1 REVERT JUMPDEST POP POP PUSH1 0x1 SWAP1 POP SWAP3 SWAP2 POP POP JUMP JUMPDEST PUSH1 0x0 PUSH2 0x993 DUP6 PUSH2 0x2F94 JUMP JUMPDEST PUSH2 0x9D2 JUMPI PUSH1 0x40 MLOAD PUSH32 0x8C379A000000000000000000000000000000000000000000000000000000000 DUP2 MSTORE PUSH1 0x4 ADD PUSH2 0x9C9 SWAP1 PUSH2 0x3D21 JUMP JUMPDEST PUSH1 0x40 MLOAD DUP1 SWAP2 SUB SWAP1 REVERT JUMPDEST DUP6 PUSH1 0x4 PUSH1 0x0 DUP10 PUSH20 0xFFFFFFFFFFFFFFFFFFFFFFFFFFFFFFFFFFFFFFFF AND PUSH20 0xFFFFFFFFFFFFFFFFFFFFFFFFFFFFFFFFFFFFFFFF AND DUP2 MSTORE PUSH1 0x20 ADD SWAP1 DUP2 MSTORE PUSH1 0x20 ADD PUSH1 0x0 KECCAK256 SLOAD LT ISZERO PUSH2 0xA54 JUMPI PUSH1 0x40 MLOAD PUSH32 0x8C379A000000000000000000000000000000000000000000000000000000000 DUP2 MSTORE PUSH1 0x4 ADD PUSH2 0xA4B SWAP1 PUSH2 0x3D81 JUMP JUMPDEST PUSH1 0x40 MLOAD DUP1 SWAP2 SUB SWAP1 REVERT JUMPDEST PUSH1 0x0 PUSH1 0x5 PUSH1 0x0 DUP8 DUP2 MSTORE PUSH1 0x20 ADD SWAP1 DUP2 MSTORE PUSH1 0x20 ADD PUSH1 0x0 KECCAK256 PUSH1 0x40 MLOAD DUP1 PUSH2 0x160 ADD PUSH1 0x40 MSTORE SWAP1 DUP2 PUSH1 0x0 DUP3 ADD DUP1 SLOAD PUSH2 0xA85 SWAP1 PUSH2 0x403B JUMP JUMPDEST DUP1 PUSH1 0x1F ADD PUSH1 0x20 DUP1 SWAP2 DIV MUL PUSH1 0x20 ADD PUSH1 0x40 MLOAD SWAP1 DUP2 ADD PUSH1 0x40 MSTORE DUP1 SWAP3 SWAP2 SWAP1 DUP2 DUP2 MSTORE PUSH1 0x20 ADD DUP3 DUP1 SLOAD PUSH2 0xAB1 SWAP1 PUSH2 0x403B JUMP JUMPDEST DUP1 ISZERO PUSH2 0xAFE JUMPI DUP1 PUSH1 0x1F LT PUSH2 0xAD3 JUMPI PUSH2 0x100 DUP1 DUP4 SLOAD DIV MUL DUP4 MSTORE SWAP2 PUSH1 0x20 ADD SWAP2 PUSH2 0xAFE JUMP JUMPDEST DUP3 ADD SWAP2 SWAP1 PUSH1 0x0 MSTORE PUSH1 0x20 PUSH1 0x0 KECCAK256 SWAP1 JUMPDEST DUP2 SLOAD DUP2 MSTORE SWAP1 PUSH1 0x1 ADD SWAP1 PUSH1 0x20 ADD DUP1 DUP4 GT PUSH2 0xAE1 JUMPI DUP3 SWAP1 SUB PUSH1 0x1F AND DUP3 ADD SWAP2 JUMPDEST POP POP POP POP POP DUP2 MSTORE PUSH1 0x20 ADD PUSH1 0x1 DUP3 ADD DUP1 SLOAD PUSH2 0xB17 SWAP1 PUSH2 0x403B JUMP JUMPDEST DUP1 PUSH1 0x1F ADD PUSH1 0x20 DUP1 SWAP2 DIV MUL PUSH1 0x20 ADD PUSH1 0x40 MLOAD SWAP1 DUP2 ADD PUSH1 0x40 MSTORE DUP1 SWAP3 SWAP2 SWAP1 DUP2 DUP2 MSTORE PUSH1 0x20 ADD DUP3 DUP1 SLOAD PUSH2 0xB43 SWAP1 PUSH2 0x403B JUMP JUMPDEST DUP1 ISZERO PUSH2 0xB90 JUMPI DUP1 PUSH1 0x1F LT PUSH2 0xB65 JUMPI PUSH2 0x100 DUP1 DUP4 SLOAD DIV MUL DUP4 MSTORE SWAP2 PUSH1 0x20 ADD SWAP2 PUSH2 0xB90 JUMP JUMPDEST DUP3 ADD SWAP2 SWAP1 PUSH1 0x0 MSTORE PUSH1 0x20 PUSH1 0x0 KECCAK256 SWAP1 JUMPDEST DUP2 SLOAD DUP2 MSTORE SWAP1 PUSH1 0x1 ADD SWAP1 PUSH1 0x20 ADD DUP1 DUP4 GT PUSH2 0xB73 JUMPI DUP3 SWAP1 SUB PUSH1 0x1F AND DUP3 ADD SWAP2 JUMPDEST POP POP POP POP POP DUP2 MSTORE PUSH1 0x20 ADD PUSH1 0x2 DUP3 ADD DUP1 SLOAD PUSH2 0xBA9 SWAP1 PUSH2 0x403B JUMP JUMPDEST DUP1 PUSH1 0x1F ADD PUSH1 0x20 DUP1 SWAP2 DIV MUL PUSH1 0x20 ADD PUSH1 0x40 MLOAD SWAP1 DUP2 ADD PUSH1 0x40 MSTORE DUP1 SWAP3 SWAP2 SWAP1 DUP2 DUP2 MSTORE PUSH1 0x20 ADD DUP3 DUP1 SLOAD PUSH2 0xBD5 SWAP1 PUSH2 0x403B JUMP JUMPDEST DUP1 ISZERO PUSH2 0xC22 JUMPI DUP1 PUSH1 0x1F LT PUSH2 0xBF7 JUMPI PUSH2 0x100 DUP1 DUP4 SLOAD DIV MUL DUP4 MSTORE SWAP2 PUSH1 0x20 ADD SWAP2 PUSH2 0xC22 JUMP JUMPDEST DUP3 ADD SWAP2 SWAP1 PUSH1 0x0 MSTORE PUSH1 0x20 PUSH1 0x0 KECCAK256 SWAP1 JUMPDEST DUP2 SLOAD DUP2 MSTORE SWAP1 PUSH1 0x1 ADD SWAP1 PUSH1 0x20 ADD DUP1 DUP4 GT PUSH2 0xC05 JUMPI DUP3 SWAP1 SUB PUSH1 0x1F AND DUP3 ADD SWAP2 JUMPDEST POP POP POP POP POP DUP2 MSTORE PUSH1 0x20 ADD PUSH1 0x3 DUP3 ADD SLOAD DUP2 MSTORE PUSH1 0x20 ADD PUSH1 0x4 DUP3 ADD SLOAD DUP2 MSTORE PUSH1 0x20 ADD PUSH1 0x5 DUP3 ADD SLOAD DUP2 MSTORE PUSH1 0x20 ADD PUSH1 0x6 DUP3 ADD SLOAD DUP2 MSTORE PUSH1 0x20 ADD PUSH1 0x7 DUP3 ADD SLOAD DUP2 MSTORE PUSH1 0x20 ADD PUSH1 0x8 DUP3 ADD PUSH1 0x0 SWAP1 SLOAD SWAP1 PUSH2 0x100 EXP SWAP1 DIV PUSH1 0xFF AND ISZERO ISZERO ISZERO ISZERO DUP2 MSTORE PUSH1 0x20 ADD PUSH1 0x8 DUP3 ADD PUSH1 0x1 SWAP1 SLOAD SWAP1 PUSH2 0x100 EXP SWAP1 DIV PUSH1 0xFF AND ISZERO ISZERO ISZERO ISZERO DUP2 MSTORE PUSH1 0x20 ADD PUSH1 0x8 DUP3 ADD PUSH1 0x2 SWAP1 SLOAD SWAP1 PUSH2 0x100 EXP SWAP1 DIV PUSH1 0xFF AND ISZERO ISZERO ISZERO ISZERO DUP2 MSTORE POP POP SWAP1 POP PUSH1 0x60 PUSH1 0x0 PUSH2 0xCD3 PUSH2 0xCC9 DUP5 PUSH1 0x0 ADD MLOAD DUP6 PUSH1 0x20 ADD MLOAD PUSH2 0x2FC1 JUMP JUMPDEST DUP5 PUSH1 0x40 ADD MLOAD PUSH2 0x2FC1 JUMP JUMPDEST SWAP1 POP PUSH1 0x1 ISZERO ISZERO DUP4 PUSH2 0x100 ADD MLOAD ISZERO ISZERO EQ ISZERO PUSH2 0xD6B JUMPI PUSH2 0xD64 PUSH2 0xD29 DUP3 PUSH1 0x40 MLOAD DUP1 PUSH1 0x40 ADD PUSH1 0x40 MSTORE DUP1 PUSH1 0x4 DUP2 MSTORE PUSH1 0x20 ADD PUSH32 0x7472756500000000000000000000000000000000000000000000000000000000 DUP2 MSTORE POP PUSH2 0x2FC1 JUMP JUMPDEST PUSH1 0x40 MLOAD DUP1 PUSH1 0x40 ADD PUSH1 0x40 MSTORE DUP1 PUSH1 0x1 DUP2 MSTORE PUSH1 0x20 ADD PUSH32 0x3100000000000000000000000000000000000000000000000000000000000000 DUP2 MSTORE POP PUSH2 0x2FC1 JUMP JUMPDEST SWAP2 POP PUSH2 0xDEB JUMP JUMPDEST PUSH2 0xDE8 PUSH2 0xDAD DUP3 PUSH1 0x40 MLOAD DUP1 PUSH1 0x40 ADD PUSH1 0x40 MSTORE DUP1 PUSH1 0x5 DUP2 MSTORE PUSH1 0x20 ADD PUSH32 0x66616C7365000000000000000000000000000000000000000000000000000000 DUP2 MSTORE POP PUSH2 0x2FC1 JUMP JUMPDEST PUSH1 0x40 MLOAD DUP1 PUSH1 0x40 ADD PUSH1 0x40 MSTORE DUP1 PUSH1 0x1 DUP2 MSTORE PUSH1 0x20 ADD PUSH32 0x3200000000000000000000000000000000000000000000000000000000000000 DUP2 MSTORE POP PUSH2 0x2FC1 JUMP JUMPDEST SWAP2 POP JUMPDEST POP POP POP PUSH1 0x1 SWAP1 POP SWAP7 SWAP6 POP POP POP POP POP POP JUMP JUMPDEST PUSH1 0x0 DUP1 PUSH1 0x0 SWAP1 SLOAD SWAP1 PUSH2 0x100 EXP SWAP1 DIV PUSH20 0xFFFFFFFFFFFFFFFFFFFFFFFFFFFFFFFFFFFFFFFF AND PUSH20 0xFFFFFFFFFFFFFFFFFFFFFFFFFFFFFFFFFFFFFFFF AND CALLER PUSH20 0xFFFFFFFFFFFFFFFFFFFFFFFFFFFFFFFFFFFFFFFF AND EQ PUSH2 0xE8D JUMPI PUSH1 0x40 MLOAD PUSH32 0x8C379A000000000000000000000000000000000000000000000000000000000 DUP2 MSTORE PUSH1 0x4 ADD PUSH2 0xE84 SWAP1 PUSH2 0x3CE1 JUMP JUMPDEST PUSH1 0x40 MLOAD DUP1 SWAP2 SUB SWAP1 REVERT JUMPDEST PUSH1 0x0 DUP3 SWAP1 POP DUP1 PUSH20 0xFFFFFFFFFFFFFFFFFFFFFFFFFFFFFFFFFFFFFFFF AND PUSH2 0x8FC PUSH1 0x1 PUSH1 0x3 SLOAD PUSH2 0xEBB SWAP2 SWAP1 PUSH2 0x3F73 JUMP JUMPDEST SWAP1 DUP2 ISZERO MUL SWAP1 PUSH1 0x40 MLOAD PUSH1 0x0 PUSH1 0x40 MLOAD DUP1 DUP4 SUB DUP2 DUP6 DUP9 DUP9 CALL SWAP4 POP POP POP POP ISZERO DUP1 ISZERO PUSH2 0xEE6 JUMPI RETURNDATASIZE PUSH1 0x0 DUP1 RETURNDATACOPY RETURNDATASIZE PUSH1 0x0 REVERT JUMPDEST POP PUSH1 0x1 SWAP2 POP POP SWAP2 SWAP1 POP JUMP JUMPDEST PUSH1 0x0 DUP1 PUSH1 0x0 SWAP1 SLOAD SWAP1 PUSH2 0x100 EXP SWAP1 DIV PUSH20 0xFFFFFFFFFFFFFFFFFFFFFFFFFFFFFFFFFFFFFFFF AND PUSH20 0xFFFFFFFFFFFFFFFFFFFFFFFFFFFFFFFFFFFFFFFF AND CALLER PUSH20 0xFFFFFFFFFFFFFFFFFFFFFFFFFFFFFFFFFFFFFFFF AND EQ PUSH2 0xF82 JUMPI PUSH1 0x40 MLOAD PUSH32 0x8C379A000000000000000000000000000000000000000000000000000000000 DUP2 MSTORE PUSH1 0x4 ADD PUSH2 0xF79 SWAP1 PUSH2 0x3CE1 JUMP JUMPDEST PUSH1 0x40 MLOAD DUP1 SWAP2 SUB SWAP1 REVERT JUMPDEST PUSH1 0x0 PUSH2 0xF8E DUP7 DUP7 PUSH2 0x2FC1 JUMP JUMPDEST SWAP1 POP PUSH1 0x0 PUSH2 0xF9C DUP3 DUP7 PUSH2 0x2FC1 JUMP JUMPDEST SWAP1 POP PUSH1 0x60 PUSH1 0x1 ISZERO ISZERO DUP6 ISZERO ISZERO EQ ISZERO PUSH2 0xFEA JUMPI PUSH1 0x40 MLOAD DUP1 PUSH1 0x40 ADD PUSH1 0x40 MSTORE DUP1 PUSH1 0x4 DUP2 MSTORE PUSH1 0x20 ADD PUSH32 0x7472756500000000000000000000000000000000000000000000000000000000 DUP2 MSTORE POP SWAP1 POP PUSH2 0x1023 JUMP JUMPDEST PUSH1 0x40 MLOAD DUP1 PUSH1 0x40 ADD PUSH1 0x40 MSTORE DUP1 PUSH1 0x5 DUP2 MSTORE PUSH1 0x20 ADD PUSH32 0x66616C7365000000000000000000000000000000000000000000000000000000 DUP2 MSTORE POP SWAP1 POP JUMPDEST PUSH1 0x0 PUSH2 0x102F DUP4 DUP4 PUSH2 0x2FC1 JUMP JUMPDEST SWAP1 POP PUSH1 0x0 DUP2 PUSH1 0x40 MLOAD PUSH1 0x20 ADD PUSH2 0x1044 SWAP2 SWAP1 PUSH2 0x3BE9 JUMP JUMPDEST PUSH1 0x40 MLOAD PUSH1 0x20 DUP2 DUP4 SUB SUB DUP2 MSTORE SWAP1 PUSH1 0x40 MSTORE DUP1 MLOAD SWAP1 PUSH1 0x20 ADD KECCAK256 SWAP1 POP PUSH2 0x1065 DUP2 PUSH2 0x2F94 JUMP JUMPDEST ISZERO PUSH2 0x10A5 JUMPI PUSH1 0x40 MLOAD PUSH32 0x8C379A000000000000000000000000000000000000000000000000000000000 DUP2 MSTORE PUSH1 0x4 ADD PUSH2 0x109C SWAP1 PUSH2 0x3D41 JUMP JUMPDEST PUSH1 0x40 MLOAD DUP1 SWAP2 SUB SWAP1 REVERT JUMPDEST PUSH1 0x1 PUSH1 0x5 PUSH1 0x0 DUP4 DUP2 MSTORE PUSH1 0x20 ADD SWAP1 DUP2 MSTORE PUSH1 0x20 ADD PUSH1 0x0 KECCAK256 PUSH1 0x8 ADD PUSH1 0x1 PUSH2 0x100 EXP DUP2 SLOAD DUP2 PUSH1 0xFF MUL NOT AND SWAP1 DUP4 ISZERO ISZERO MUL OR SWAP1 SSTORE POP DUP10 PUSH1 0x5 PUSH1 0x0 DUP4 DUP2 MSTORE PUSH1 0x20 ADD SWAP1 DUP2 MSTORE PUSH1 0x20 ADD PUSH1 0x0 KECCAK256 PUSH1 0x0 ADD SWAP1 DUP1 MLOAD SWAP1 PUSH1 0x20 ADD SWAP1 PUSH2 0x10FE SWAP3 SWAP2 SWAP1 PUSH2 0x34C7 JUMP JUMPDEST POP DUP9 PUSH1 0x5 PUSH1 0x0 DUP4 DUP2 MSTORE PUSH1 0x20 ADD SWAP1 DUP2 MSTORE PUSH1 0x20 ADD PUSH1 0x0 KECCAK256 PUSH1 0x1 ADD SWAP1 DUP1 MLOAD SWAP1 PUSH1 0x20 ADD SWAP1 PUSH2 0x1129 SWAP3 SWAP2 SWAP1 PUSH2 0x34C7 JUMP JUMPDEST POP DUP8 PUSH1 0x5 PUSH1 0x0 DUP4 DUP2 MSTORE PUSH1 0x20 ADD SWAP1 DUP2 MSTORE PUSH1 0x20 ADD PUSH1 0x0 KECCAK256 PUSH1 0x2 ADD SWAP1 DUP1 MLOAD SWAP1 PUSH1 0x20 ADD SWAP1 PUSH2 0x1154 SWAP3 SWAP2 SWAP1 PUSH2 0x34C7 JUMP JUMPDEST POP PUSH1 0x0 PUSH1 0x5 PUSH1 0x0 DUP4 DUP2 MSTORE PUSH1 0x20 ADD SWAP1 DUP2 MSTORE PUSH1 0x20 ADD PUSH1 0x0 KECCAK256 PUSH1 0x3 ADD DUP2 SWAP1 SSTORE POP PUSH1 0x0 PUSH1 0x5 PUSH1 0x0 DUP4 DUP2 MSTORE PUSH1 0x20 ADD SWAP1 DUP2 MSTORE PUSH1 0x20 ADD PUSH1 0x0 KECCAK256 PUSH1 0x4 ADD DUP2 SWAP1 SSTORE POP PUSH1 0x0 PUSH1 0x5 PUSH1 0x0 DUP4 DUP2 MSTORE PUSH1 0x20 ADD SWAP1 DUP2 MSTORE PUSH1 0x20 ADD PUSH1 0x0 KECCAK256 PUSH1 0x5 ADD DUP2 SWAP1 SSTORE POP PUSH1 0x0 PUSH1 0x5 PUSH1 0x0 DUP4 DUP2 MSTORE PUSH1 0x20 ADD SWAP1 DUP2 MSTORE PUSH1 0x20 ADD PUSH1 0x0 KECCAK256 PUSH1 0x6 ADD DUP2 SWAP1 SSTORE POP PUSH1 0x0 PUSH1 0x5 PUSH1 0x0 DUP4 DUP2 MSTORE PUSH1 0x20 ADD SWAP1 DUP2 MSTORE PUSH1 0x20 ADD PUSH1 0x0 KECCAK256 PUSH1 0x7 ADD DUP2 SWAP1 SSTORE POP DUP7 PUSH1 0x5 PUSH1 0x0 DUP4 DUP2 MSTORE PUSH1 0x20 ADD SWAP1 DUP2 MSTORE PUSH1 0x20 ADD PUSH1 0x0 KECCAK256 PUSH1 0x8 ADD PUSH1 0x0 PUSH2 0x100 EXP DUP2 SLOAD DUP2 PUSH1 0xFF MUL NOT AND SWAP1 DUP4 ISZERO ISZERO MUL OR SWAP1 SSTORE POP PUSH1 0x0 PUSH1 0x5 PUSH1 0x0 DUP4 DUP2 MSTORE PUSH1 0x20 ADD SWAP1 DUP2 MSTORE PUSH1 0x20 ADD PUSH1 0x0 KECCAK256 PUSH1 0x8 ADD PUSH1 0x2 PUSH2 0x100 EXP DUP2 SLOAD DUP2 PUSH1 0xFF MUL NOT AND SWAP1 DUP4 ISZERO ISZERO MUL OR SWAP1 SSTORE POP PUSH1 0x2 DUP2 SWAP1 DUP1 PUSH1 0x1 DUP2 SLOAD ADD DUP1 DUP3 SSTORE DUP1 SWAP2 POP POP PUSH1 0x1 SWAP1 SUB SWAP1 PUSH1 0x0 MSTORE PUSH1 0x20 PUSH1 0x0 KECCAK256 ADD PUSH1 0x0 SWAP1 SWAP2 SWAP1 SWAP2 SWAP1 SWAP2 POP SSTORE DUP1 SWAP6 POP POP POP POP POP POP SWAP5 SWAP4 POP POP POP POP JUMP JUMPDEST PUSH1 0x0 DUP1 PUSH1 0x0 SWAP1 SLOAD SWAP1 PUSH2 0x100 EXP SWAP1 DIV PUSH20 0xFFFFFFFFFFFFFFFFFFFFFFFFFFFFFFFFFFFFFFFF AND PUSH20 0xFFFFFFFFFFFFFFFFFFFFFFFFFFFFFFFFFFFFFFFF AND CALLER PUSH20 0xFFFFFFFFFFFFFFFFFFFFFFFFFFFFFFFFFFFFFFFF AND EQ PUSH2 0x1308 JUMPI PUSH1 0x40 MLOAD PUSH32 0x8C379A000000000000000000000000000000000000000000000000000000000 DUP2 MSTORE PUSH1 0x4 ADD PUSH2 0x12FF SWAP1 PUSH2 0x3CE1 JUMP JUMPDEST PUSH1 0x40 MLOAD DUP1 SWAP2 SUB SWAP1 REVERT JUMPDEST PUSH1 0x1 SLOAD SWAP1 POP SWAP1 JUMP JUMPDEST PUSH1 0x0 DUP1 PUSH1 0x0 SWAP1 SLOAD SWAP1 PUSH2 0x100 EXP SWAP1 DIV PUSH20 0xFFFFFFFFFFFFFFFFFFFFFFFFFFFFFFFFFFFFFFFF AND PUSH20 0xFFFFFFFFFFFFFFFFFFFFFFFFFFFFFFFFFFFFFFFF AND CALLER PUSH20 0xFFFFFFFFFFFFFFFFFFFFFFFFFFFFFFFFFFFFFFFF AND EQ PUSH2 0x13A1 JUMPI PUSH1 0x40 MLOAD PUSH32 0x8C379A000000000000000000000000000000000000000000000000000000000 DUP2 MSTORE PUSH1 0x4 ADD PUSH2 0x1398 SWAP1 PUSH2 0x3CE1 JUMP JUMPDEST PUSH1 0x40 MLOAD DUP1 SWAP2 SUB SWAP1 REVERT JUMPDEST PUSH2 0x13AA DUP3 PUSH2 0x2F94 JUMP JUMPDEST PUSH2 0x13E9 JUMPI PUSH1 0x40 MLOAD PUSH32 0x8C379A000000000000000000000000000000000000000000000000000000000 DUP2 MSTORE PUSH1 0x4 ADD PUSH2 0x13E0 SWAP1 PUSH2 0x3D21 JUMP JUMPDEST PUSH1 0x40 MLOAD DUP1 SWAP2 SUB SWAP1 REVERT JUMPDEST PUSH1 0x0 PUSH1 0x5 PUSH1 0x0 DUP5 DUP2 MSTORE PUSH1 0x20 ADD SWAP1 DUP2 MSTORE PUSH1 0x20 ADD PUSH1 0x0 KECCAK256 PUSH1 0x40 MLOAD DUP1 PUSH2 0x160 ADD PUSH1 0x40 MSTORE SWAP1 DUP2 PUSH1 0x0 DUP3 ADD DUP1 SLOAD PUSH2 0x141A SWAP1 PUSH2 0x403B JUMP JUMPDEST DUP1 PUSH1 0x1F ADD PUSH1 0x20 DUP1 SWAP2 DIV MUL PUSH1 0x20 ADD PUSH1 0x40 MLOAD SWAP1 DUP2 ADD PUSH1 0x40 MSTORE DUP1 SWAP3 SWAP2 SWAP1 DUP2 DUP2 MSTORE PUSH1 0x20 ADD DUP3 DUP1 SLOAD PUSH2 0x1446 SWAP1 PUSH2 0x403B JUMP JUMPDEST DUP1 ISZERO PUSH2 0x1493 JUMPI DUP1 PUSH1 0x1F LT PUSH2 0x1468 JUMPI PUSH2 0x100 DUP1 DUP4 SLOAD DIV MUL DUP4 MSTORE SWAP2 PUSH1 0x20 ADD SWAP2 PUSH2 0x1493 JUMP JUMPDEST DUP3 ADD SWAP2 SWAP1 PUSH1 0x0 MSTORE PUSH1 0x20 PUSH1 0x0 KECCAK256 SWAP1 JUMPDEST DUP2 SLOAD DUP2 MSTORE SWAP1 PUSH1 0x1 ADD SWAP1 PUSH1 0x20 ADD DUP1 DUP4 GT PUSH2 0x1476 JUMPI DUP3 SWAP1 SUB PUSH1 0x1F AND DUP3 ADD SWAP2 JUMPDEST POP POP POP POP POP DUP2 MSTORE PUSH1 0x20 ADD PUSH1 0x1 DUP3 ADD DUP1 SLOAD PUSH2 0x14AC SWAP1 PUSH2 0x403B JUMP JUMPDEST DUP1 PUSH1 0x1F ADD PUSH1 0x20 DUP1 SWAP2 DIV MUL PUSH1 0x20 ADD PUSH1 0x40 MLOAD SWAP1 DUP2 ADD PUSH1 0x40 MSTORE DUP1 SWAP3 SWAP2 SWAP1 DUP2 DUP2 MSTORE PUSH1 0x20 ADD DUP3 DUP1 SLOAD PUSH2 0x14D8 SWAP1 PUSH2 0x403B JUMP JUMPDEST DUP1 ISZERO PUSH2 0x1525 JUMPI DUP1 PUSH1 0x1F LT PUSH2 0x14FA JUMPI PUSH2 0x100 DUP1 DUP4 SLOAD DIV MUL DUP4 MSTORE SWAP2 PUSH1 0x20 ADD SWAP2 PUSH2 0x1525 JUMP JUMPDEST DUP3 ADD SWAP2 SWAP1 PUSH1 0x0 MSTORE PUSH1 0x20 PUSH1 0x0 KECCAK256 SWAP1 JUMPDEST DUP2 SLOAD DUP2 MSTORE SWAP1 PUSH1 0x1 ADD SWAP1 PUSH1 0x20 ADD DUP1 DUP4 GT PUSH2 0x1508 JUMPI DUP3 SWAP1 SUB PUSH1 0x1F AND DUP3 ADD SWAP2 JUMPDEST POP POP POP POP POP DUP2 MSTORE PUSH1 0x20 ADD PUSH1 0x2 DUP3 ADD DUP1 SLOAD PUSH2 0x153E SWAP1 PUSH2 0x403B JUMP JUMPDEST DUP1 PUSH1 0x1F ADD PUSH1 0x20 DUP1 SWAP2 DIV MUL PUSH1 0x20 ADD PUSH1 0x40 MLOAD SWAP1 DUP2 ADD PUSH1 0x40 MSTORE DUP1 SWAP3 SWAP2 SWAP1 DUP2 DUP2 MSTORE PUSH1 0x20 ADD DUP3 DUP1 SLOAD PUSH2 0x156A SWAP1 PUSH2 0x403B JUMP JUMPDEST DUP1 ISZERO PUSH2 0x15B7 JUMPI DUP1 PUSH1 0x1F LT PUSH2 0x158C JUMPI PUSH2 0x100 DUP1 DUP4 SLOAD DIV MUL DUP4 MSTORE SWAP2 PUSH1 0x20 ADD SWAP2 PUSH2 0x15B7 JUMP JUMPDEST DUP3 ADD SWAP2 SWAP1 PUSH1 0x0 MSTORE PUSH1 0x20 PUSH1 0x0 KECCAK256 SWAP1 JUMPDEST DUP2 SLOAD DUP2 MSTORE SWAP1 PUSH1 0x1 ADD SWAP1 PUSH1 0x20 ADD DUP1 DUP4 GT PUSH2 0x159A JUMPI DUP3 SWAP1 SUB PUSH1 0x1F AND DUP3 ADD SWAP2 JUMPDEST POP POP POP POP POP DUP2 MSTORE PUSH1 0x20 ADD PUSH1 0x3 DUP3 ADD SLOAD DUP2 MSTORE PUSH1 0x20 ADD PUSH1 0x4 DUP3 ADD SLOAD DUP2 MSTORE PUSH1 0x20 ADD PUSH1 0x5 DUP3 ADD SLOAD DUP2 MSTORE PUSH1 0x20 ADD PUSH1 0x6 DUP3 ADD SLOAD DUP2 MSTORE PUSH1 0x20 ADD PUSH1 0x7 DUP3 ADD SLOAD DUP2 MSTORE PUSH1 0x20 ADD PUSH1 0x8 DUP3 ADD PUSH1 0x0 SWAP1 SLOAD SWAP1 PUSH2 0x100 EXP SWAP1 DIV PUSH1 0xFF AND ISZERO ISZERO ISZERO ISZERO DUP2 MSTORE PUSH1 0x20 ADD PUSH1 0x8 DUP3 ADD PUSH1 0x1 SWAP1 SLOAD SWAP1 PUSH2 0x100 EXP SWAP1 DIV PUSH1 0xFF AND ISZERO ISZERO ISZERO ISZERO DUP2 MSTORE PUSH1 0x20 ADD PUSH1 0x8 DUP3 ADD PUSH1 0x2 SWAP1 SLOAD SWAP1 PUSH2 0x100 EXP SWAP1 DIV PUSH1 0xFF AND ISZERO ISZERO ISZERO ISZERO DUP2 MSTORE POP POP SWAP1 POP PUSH1 0x0 PUSH2 0x16A1 PUSH7 0x38D7EA4C68000 DUP4 PUSH1 0xE0 ADD MLOAD DUP5 PUSH1 0xC0 ADD MLOAD DUP6 PUSH1 0x80 ADD MLOAD DUP7 PUSH1 0xA0 ADD MLOAD DUP8 PUSH1 0x60 ADD MLOAD PUSH2 0x1675 SWAP2 SWAP1 PUSH2 0x3E92 JUMP JUMPDEST PUSH2 0x167F SWAP2 SWAP1 PUSH2 0x3E92 JUMP JUMPDEST PUSH2 0x1689 SWAP2 SWAP1 PUSH2 0x3E92 JUMP JUMPDEST PUSH2 0x1693 SWAP2 SWAP1 PUSH2 0x3E92 JUMP JUMPDEST PUSH2 0x3157 SWAP1 SWAP2 SWAP1 PUSH4 0xFFFFFFFF AND JUMP JUMPDEST SWAP1 POP DUP1 SWAP3 POP POP POP SWAP2 SWAP1 POP JUMP JUMPDEST PUSH1 0x0 PUSH2 0x16B8 DUP6 PUSH2 0x2F94 JUMP JUMPDEST PUSH2 0x16F7 JUMPI PUSH1 0x40 MLOAD PUSH32 0x8C379A000000000000000000000000000000000000000000000000000000000 DUP2 MSTORE PUSH1 0x4 ADD PUSH2 0x16EE SWAP1 PUSH2 0x3D21 JUMP JUMPDEST PUSH1 0x40 MLOAD DUP1 SWAP2 SUB SWAP1 REVERT JUMPDEST DUP6 PUSH1 0x4 PUSH1 0x0 DUP10 PUSH20 0xFFFFFFFFFFFFFFFFFFFFFFFFFFFFFFFFFFFFFFFF AND PUSH20 0xFFFFFFFFFFFFFFFFFFFFFFFFFFFFFFFFFFFFFFFF AND DUP2 MSTORE PUSH1 0x20 ADD SWAP1 DUP2 MSTORE PUSH1 0x20 ADD PUSH1 0x0 KECCAK256 SLOAD LT ISZERO PUSH2 0x1779 JUMPI PUSH1 0x40 MLOAD PUSH32 0x8C379A000000000000000000000000000000000000000000000000000000000 DUP2 MSTORE PUSH1 0x4 ADD PUSH2 0x1770 SWAP1 PUSH2 0x3D81 JUMP JUMPDEST PUSH1 0x40 MLOAD DUP1 SWAP2 SUB SWAP1 REVERT JUMPDEST PUSH1 0x0 PUSH1 0x5 PUSH1 0x0 DUP8 DUP2 MSTORE PUSH1 0x20 ADD SWAP1 DUP2 MSTORE PUSH1 0x20 ADD PUSH1 0x0 KECCAK256 PUSH1 0x40 MLOAD DUP1 PUSH2 0x160 ADD PUSH1 0x40 MSTORE SWAP1 DUP2 PUSH1 0x0 DUP3 ADD DUP1 SLOAD PUSH2 0x17AA SWAP1 PUSH2 0x403B JUMP JUMPDEST DUP1 PUSH1 0x1F ADD PUSH1 0x20 DUP1 SWAP2 DIV MUL PUSH1 0x20 ADD PUSH1 0x40 MLOAD SWAP1 DUP2 ADD PUSH1 0x40 MSTORE DUP1 SWAP3 SWAP2 SWAP1 DUP2 DUP2 MSTORE PUSH1 0x20 ADD DUP3 DUP1 SLOAD PUSH2 0x17D6 SWAP1 PUSH2 0x403B JUMP JUMPDEST DUP1 ISZERO PUSH2 0x1823 JUMPI DUP1 PUSH1 0x1F LT PUSH2 0x17F8 JUMPI PUSH2 0x100 DUP1 DUP4 SLOAD DIV MUL DUP4 MSTORE SWAP2 PUSH1 0x20 ADD SWAP2 PUSH2 0x1823 JUMP JUMPDEST DUP3 ADD SWAP2 SWAP1 PUSH1 0x0 MSTORE PUSH1 0x20 PUSH1 0x0 KECCAK256 SWAP1 JUMPDEST DUP2 SLOAD DUP2 MSTORE SWAP1 PUSH1 0x1 ADD SWAP1 PUSH1 0x20 ADD DUP1 DUP4 GT PUSH2 0x1806 JUMPI DUP3 SWAP1 SUB PUSH1 0x1F AND DUP3 ADD SWAP2 JUMPDEST POP POP POP POP POP DUP2 MSTORE PUSH1 0x20 ADD PUSH1 0x1 DUP3 ADD DUP1 SLOAD PUSH2 0x183C SWAP1 PUSH2 0x403B JUMP JUMPDEST DUP1 PUSH1 0x1F ADD PUSH1 0x20 DUP1 SWAP2 DIV MUL PUSH1 0x20 ADD PUSH1 0x40 MLOAD SWAP1 DUP2 ADD PUSH1 0x40 MSTORE DUP1 SWAP3 SWAP2 SWAP1 DUP2 DUP2 MSTORE PUSH1 0x20 ADD DUP3 DUP1 SLOAD PUSH2 0x1868 SWAP1 PUSH2 0x403B JUMP JUMPDEST DUP1 ISZERO PUSH2 0x18B5 JUMPI DUP1 PUSH1 0x1F LT PUSH2 0x188A JUMPI PUSH2 0x100 DUP1 DUP4 SLOAD DIV MUL DUP4 MSTORE SWAP2 PUSH1 0x20 ADD SWAP2 PUSH2 0x18B5 JUMP JUMPDEST DUP3 ADD SWAP2 SWAP1 PUSH1 0x0 MSTORE PUSH1 0x20 PUSH1 0x0 KECCAK256 SWAP1 JUMPDEST DUP2 SLOAD DUP2 MSTORE SWAP1 PUSH1 0x1 ADD SWAP1 PUSH1 0x20 ADD DUP1 DUP4 GT PUSH2 0x1898 JUMPI DUP3 SWAP1 SUB PUSH1 0x1F AND DUP3 ADD SWAP2 JUMPDEST POP POP POP POP POP DUP2 MSTORE PUSH1 0x20 ADD PUSH1 0x2 DUP3 ADD DUP1 SLOAD PUSH2 0x18CE SWAP1 PUSH2 0x403B JUMP JUMPDEST DUP1 PUSH1 0x1F ADD PUSH1 0x20 DUP1 SWAP2 DIV MUL PUSH1 0x20 ADD PUSH1 0x40 MLOAD SWAP1 DUP2 ADD PUSH1 0x40 MSTORE DUP1 SWAP3 SWAP2 SWAP1 DUP2 DUP2 MSTORE PUSH1 0x20 ADD DUP3 DUP1 SLOAD PUSH2 0x18FA SWAP1 PUSH2 0x403B JUMP JUMPDEST DUP1 ISZERO PUSH2 0x1947 JUMPI DUP1 PUSH1 0x1F LT PUSH2 0x191C JUMPI PUSH2 0x100 DUP1 DUP4 SLOAD DIV MUL DUP4 MSTORE SWAP2 PUSH1 0x20 ADD SWAP2 PUSH2 0x1947 JUMP JUMPDEST DUP3 ADD SWAP2 SWAP1 PUSH1 0x0 MSTORE PUSH1 0x20 PUSH1 0x0 KECCAK256 SWAP1 JUMPDEST DUP2 SLOAD DUP2 MSTORE SWAP1 PUSH1 0x1 ADD SWAP1 PUSH1 0x20 ADD DUP1 DUP4 GT PUSH2 0x192A JUMPI DUP3 SWAP1 SUB PUSH1 0x1F AND DUP3 ADD SWAP2 JUMPDEST POP POP POP POP POP DUP2 MSTORE PUSH1 0x20 ADD PUSH1 0x3 DUP3 ADD SLOAD DUP2 MSTORE PUSH1 0x20 ADD PUSH1 0x4 DUP3 ADD SLOAD DUP2 MSTORE PUSH1 0x20 ADD PUSH1 0x5 DUP3 ADD SLOAD DUP2 MSTORE PUSH1 0x20 ADD PUSH1 0x6 DUP3 ADD SLOAD DUP2 MSTORE PUSH1 0x20 ADD PUSH1 0x7 DUP3 ADD SLOAD DUP2 MSTORE PUSH1 0x20 ADD PUSH1 0x8 DUP3 ADD PUSH1 0x0 SWAP1 SLOAD SWAP1 PUSH2 0x100 EXP SWAP1 DIV PUSH1 0xFF AND ISZERO ISZERO ISZERO ISZERO DUP2 MSTORE PUSH1 0x20 ADD PUSH1 0x8 DUP3 ADD PUSH1 0x1 SWAP1 SLOAD SWAP1 PUSH2 0x100 EXP SWAP1 DIV PUSH1 0xFF AND ISZERO ISZERO ISZERO ISZERO DUP2 MSTORE PUSH1 0x20 ADD PUSH1 0x8 DUP3 ADD PUSH1 0x2 SWAP1 SLOAD SWAP1 PUSH2 0x100 EXP SWAP1 DIV PUSH1 0xFF AND ISZERO ISZERO ISZERO ISZERO DUP2 MSTORE POP POP SWAP1 POP PUSH1 0x60 PUSH1 0x1 ISZERO ISZERO DUP3 PUSH2 0x100 ADD MLOAD ISZERO ISZERO EQ ISZERO PUSH2 0x1A6F JUMPI PUSH2 0x1A68 PUSH2 0x1A49 PUSH2 0x1A0E PUSH2 0x1A04 DUP6 PUSH1 0x0 ADD MLOAD DUP7 PUSH1 0x20 ADD MLOAD PUSH2 0x2FC1 JUMP JUMPDEST DUP6 PUSH1 0x40 ADD MLOAD PUSH2 0x2FC1 JUMP JUMPDEST PUSH1 0x40 MLOAD DUP1 PUSH1 0x40 ADD PUSH1 0x40 MSTORE DUP1 PUSH1 0x4 DUP2 MSTORE PUSH1 0x20 ADD PUSH32 0x7472756500000000000000000000000000000000000000000000000000000000 DUP2 MSTORE POP PUSH2 0x2FC1 JUMP JUMPDEST PUSH2 0x1A63 PUSH2 0x1A55 DUP10 PUSH2 0x319C JUMP JUMPDEST PUSH2 0x1A5E DUP10 PUSH2 0x319C JUMP JUMPDEST PUSH2 0x2FC1 JUMP JUMPDEST PUSH2 0x2FC1 JUMP JUMPDEST SWAP1 POP PUSH2 0x1AF1 JUMP JUMPDEST PUSH2 0x1AEE PUSH2 0x1ACF PUSH2 0x1A94 PUSH2 0x1A8A DUP6 PUSH1 0x0 ADD MLOAD DUP7 PUSH1 0x20 ADD MLOAD PUSH2 0x2FC1 JUMP JUMPDEST DUP6 PUSH1 0x40 ADD MLOAD PUSH2 0x2FC1 JUMP JUMPDEST PUSH1 0x40 MLOAD DUP1 PUSH1 0x40 ADD PUSH1 0x40 MSTORE DUP1 PUSH1 0x5 DUP2 MSTORE PUSH1 0x20 ADD PUSH32 0x66616C7365000000000000000000000000000000000000000000000000000000 DUP2 MSTORE POP PUSH2 0x2FC1 JUMP JUMPDEST PUSH2 0x1AE9 PUSH2 0x1ADB DUP10 PUSH2 0x319C JUMP JUMPDEST PUSH2 0x1AE4 DUP10 PUSH2 0x319C JUMP JUMPDEST PUSH2 0x2FC1 JUMP JUMPDEST PUSH2 0x2FC1 JUMP JUMPDEST SWAP1 POP JUMPDEST PUSH2 0x1AF9 PUSH2 0x354D JUMP JUMPDEST DUP9 DUP2 PUSH1 0x0 ADD DUP2 DUP2 MSTORE POP POP DUP5 DUP2 PUSH1 0x20 ADD DUP2 DUP2 MSTORE POP POP DUP7 DUP2 PUSH1 0x40 ADD DUP2 DUP2 MSTORE POP POP DUP6 DUP2 PUSH1 0x60 ADD DUP2 DUP2 MSTORE POP POP DUP10 DUP2 PUSH1 0x80 ADD SWAP1 PUSH20 0xFFFFFFFFFFFFFFFFFFFFFFFFFFFFFFFFFFFFFFFF AND SWAP1 DUP2 PUSH20 0xFFFFFFFFFFFFFFFFFFFFFFFFFFFFFFFFFFFFFFFF AND DUP2 MSTORE POP POP DUP2 DUP2 PUSH1 0xA0 ADD DUP2 SWAP1 MSTORE POP PUSH1 0x0 DUP2 PUSH1 0xC0 ADD SWAP1 ISZERO ISZERO SWAP1 DUP2 ISZERO ISZERO DUP2 MSTORE POP POP DUP8 PUSH1 0x6 PUSH1 0x0 DUP11 DUP2 MSTORE PUSH1 0x20 ADD SWAP1 DUP2 MSTORE PUSH1 0x20 ADD PUSH1 0x0 KECCAK256 PUSH1 0x1 ADD DUP2 SWAP1 SSTORE POP PUSH1 0x6 PUSH1 0x0 DUP10 DUP2 MSTORE PUSH1 0x20 ADD SWAP1 DUP2 MSTORE PUSH1 0x20 ADD PUSH1 0x0 KECCAK256 PUSH1 0x0 ADD DUP2 SWAP1 DUP1 PUSH1 0x1 DUP2 SLOAD ADD DUP1 DUP3 SSTORE DUP1 SWAP2 POP POP PUSH1 0x1 SWAP1 SUB SWAP1 PUSH1 0x0 MSTORE PUSH1 0x20 PUSH1 0x0 KECCAK256 SWAP1 PUSH1 0x7 MUL ADD PUSH1 0x0 SWAP1 SWAP2 SWAP1 SWAP2 SWAP1 SWAP2 POP PUSH1 0x0 DUP3 ADD MLOAD DUP2 PUSH1 0x0 ADD SSTORE PUSH1 0x20 DUP3 ADD MLOAD DUP2 PUSH1 0x1 ADD SSTORE PUSH1 0x40 DUP3 ADD MLOAD DUP2 PUSH1 0x2 ADD SSTORE PUSH1 0x60 DUP3 ADD MLOAD DUP2 PUSH1 0x3 ADD SSTORE PUSH1 0x80 DUP3 ADD MLOAD DUP2 PUSH1 0x4 ADD PUSH1 0x0 PUSH2 0x100 EXP DUP2 SLOAD DUP2 PUSH20 0xFFFFFFFFFFFFFFFFFFFFFFFFFFFFFFFFFFFFFFFF MUL NOT AND SWAP1 DUP4 PUSH20 0xFFFFFFFFFFFFFFFFFFFFFFFFFFFFFFFFFFFFFFFF AND MUL OR SWAP1 SSTORE POP PUSH1 0xA0 DUP3 ADD MLOAD DUP2 PUSH1 0x5 ADD SWAP1 DUP1 MLOAD SWAP1 PUSH1 0x20 ADD SWAP1 PUSH2 0x1C59 SWAP3 SWAP2 SWAP1 PUSH2 0x34C7 JUMP JUMPDEST POP PUSH1 0xC0 DUP3 ADD MLOAD DUP2 PUSH1 0x6 ADD PUSH1 0x0 PUSH2 0x100 EXP DUP2 SLOAD DUP2 PUSH1 0xFF MUL NOT AND SWAP1 DUP4 ISZERO ISZERO MUL OR SWAP1 SSTORE POP POP POP DUP10 PUSH1 0x8 PUSH1 0x0 DUP13 PUSH20 0xFFFFFFFFFFFFFFFFFFFFFFFFFFFFFFFFFFFFFFFF AND PUSH20 0xFFFFFFFFFFFFFFFFFFFFFFFFFFFFFFFFFFFFFFFF AND DUP2 MSTORE PUSH1 0x20 ADD SWAP1 DUP2 MSTORE PUSH1 0x20 ADD PUSH1 0x0 KECCAK256 PUSH1 0x1 ADD PUSH1 0x0 PUSH2 0x100 EXP DUP2 SLOAD DUP2 PUSH20 0xFFFFFFFFFFFFFFFFFFFFFFFFFFFFFFFFFFFFFFFF MUL NOT AND SWAP1 DUP4 PUSH20 0xFFFFFFFFFFFFFFFFFFFFFFFFFFFFFFFFFFFFFFFF AND MUL OR SWAP1 SSTORE POP PUSH1 0x8 PUSH1 0x0 DUP12 PUSH20 0xFFFFFFFFFFFFFFFFFFFFFFFFFFFFFFFFFFFFFFFF AND PUSH20 0xFFFFFFFFFFFFFFFFFFFFFFFFFFFFFFFFFFFFFFFF AND DUP2 MSTORE PUSH1 0x20 ADD SWAP1 DUP2 MSTORE PUSH1 0x20 ADD PUSH1 0x0 KECCAK256 PUSH1 0x0 ADD DUP2 SWAP1 DUP1 PUSH1 0x1 DUP2 SLOAD ADD DUP1 DUP3 SSTORE DUP1 SWAP2 POP POP PUSH1 0x1 SWAP1 SUB SWAP1 PUSH1 0x0 MSTORE PUSH1 0x20 PUSH1 0x0 KECCAK256 SWAP1 PUSH1 0x7 MUL ADD PUSH1 0x0 SWAP1 SWAP2 SWAP1 SWAP2 SWAP1 SWAP2 POP PUSH1 0x0 DUP3 ADD MLOAD DUP2 PUSH1 0x0 ADD SSTORE PUSH1 0x20 DUP3 ADD MLOAD DUP2 PUSH1 0x1 ADD SSTORE PUSH1 0x40 DUP3 ADD MLOAD DUP2 PUSH1 0x2 ADD SSTORE PUSH1 0x60 DUP3 ADD MLOAD DUP2 PUSH1 0x3 ADD SSTORE PUSH1 0x80 DUP3 ADD MLOAD DUP2 PUSH1 0x4 ADD PUSH1 0x0 PUSH2 0x100 EXP DUP2 SLOAD DUP2 PUSH20 0xFFFFFFFFFFFFFFFFFFFFFFFFFFFFFFFFFFFFFFFF MUL NOT AND SWAP1 DUP4 PUSH20 0xFFFFFFFFFFFFFFFFFFFFFFFFFFFFFFFFFFFFFFFF AND MUL OR SWAP1 SSTORE POP PUSH1 0xA0 DUP3 ADD MLOAD DUP2 PUSH1 0x5 ADD SWAP1 DUP1 MLOAD SWAP1 PUSH1 0x20 ADD SWAP1 PUSH2 0x1DF4 SWAP3 SWAP2 SWAP1 PUSH2 0x34C7 JUMP JUMPDEST POP PUSH1 0xC0 DUP3 ADD MLOAD DUP2 PUSH1 0x6 ADD PUSH1 0x0 PUSH2 0x100 EXP DUP2 SLOAD DUP2 PUSH1 0xFF MUL NOT AND SWAP1 DUP4 ISZERO ISZERO MUL OR SWAP1 SSTORE POP POP POP PUSH1 0x2 DUP6 EQ ISZERO PUSH2 0x1E73 JUMPI DUP9 DUP4 PUSH1 0xC0 ADD DUP2 DUP2 MLOAD PUSH2 0x1E32 SWAP2 SWAP1 PUSH2 0x3E92 JUMP JUMPDEST SWAP2 POP DUP2 DUP2 MSTORE POP POP DUP9 PUSH1 0x7 DUP4 PUSH1 0x40 MLOAD PUSH2 0x1E4A SWAP2 SWAP1 PUSH2 0x3BE9 JUMP JUMPDEST SWAP1 DUP2 MSTORE PUSH1 0x20 ADD PUSH1 0x40 MLOAD DUP1 SWAP2 SUB SWAP1 KECCAK256 PUSH1 0x0 DUP3 DUP3 SLOAD PUSH2 0x1E67 SWAP2 SWAP1 PUSH2 0x3E92 JUMP JUMPDEST SWAP3 POP POP DUP2 SWAP1 SSTORE POP PUSH2 0x1EDD JUMP JUMPDEST PUSH1 0x3 DUP6 EQ ISZERO PUSH2 0x1E9A JUMPI DUP9 DUP4 PUSH1 0x60 ADD DUP2 DUP2 MLOAD PUSH2 0x1E8E SWAP2 SWAP1 PUSH2 0x3E92 JUMP JUMPDEST SWAP2 POP DUP2 DUP2 MSTORE POP POP PUSH2 0x1EDC JUMP JUMPDEST PUSH1 0x1 DUP6 EQ ISZERO PUSH2 0x1EC1 JUMPI DUP9 DUP4 PUSH1 0x80 ADD DUP2 DUP2 MLOAD PUSH2 0x1EB5 SWAP2 SWAP1 PUSH2 0x3E92 JUMP JUMPDEST SWAP2 POP DUP2 DUP2 MSTORE POP POP PUSH2 0x1EDB JUMP JUMPDEST DUP9 DUP4 PUSH1 0xA0 ADD DUP2 DUP2 MLOAD PUSH2 0x1ED3 SWAP2 SWAP1 PUSH2 0x3E92 JUMP JUMPDEST SWAP2 POP DUP2 DUP2 MSTORE POP POP JUMPDEST JUMPDEST JUMPDEST DUP9 PUSH1 0x4 PUSH1 0x0 DUP13 PUSH20 0xFFFFFFFFFFFFFFFFFFFFFFFFFFFFFFFFFFFFFFFF AND PUSH20 0xFFFFFFFFFFFFFFFFFFFFFFFFFFFFFFFFFFFFFFFF AND DUP2 MSTORE PUSH1 0x20 ADD SWAP1 DUP2 MSTORE PUSH1 0x20 ADD PUSH1 0x0 KECCAK256 PUSH1 0x0 DUP3 DUP3 SLOAD PUSH2 0x1F2C SWAP2 SWAP1 PUSH2 0x3F73 JUMP JUMPDEST SWAP3 POP POP DUP2 SWAP1 SSTORE POP POP POP POP PUSH1 0x1 SWAP1 POP SWAP7 SWAP6 POP POP POP POP POP POP JUMP JUMPDEST PUSH1 0x0 DUP1 PUSH1 0x0 SWAP1 SLOAD SWAP1 PUSH2 0x100 EXP SWAP1 DIV PUSH20 0xFFFFFFFFFFFFFFFFFFFFFFFFFFFFFFFFFFFFFFFF AND PUSH20 0xFFFFFFFFFFFFFFFFFFFFFFFFFFFFFFFFFFFFFFFF AND CALLER PUSH20 0xFFFFFFFFFFFFFFFFFFFFFFFFFFFFFFFFFFFFFFFF AND EQ PUSH2 0x1FD5 JUMPI PUSH1 0x40 MLOAD PUSH32 0x8C379A000000000000000000000000000000000000000000000000000000000 DUP2 MSTORE PUSH1 0x4 ADD PUSH2 0x1FCC SWAP1 PUSH2 0x3CE1 JUMP JUMPDEST PUSH1 0x40 MLOAD DUP1 SWAP2 SUB SWAP1 REVERT JUMPDEST PUSH2 0x1FDE DUP6 PUSH2 0x2F94 JUMP JUMPDEST PUSH2 0x201D JUMPI PUSH1 0x40 MLOAD PUSH32 0x8C379A000000000000000000000000000000000000000000000000000000000 DUP2 MSTORE PUSH1 0x4 ADD PUSH2 0x2014 SWAP1 PUSH2 0x3D21 JUMP JUMPDEST PUSH1 0x40 MLOAD DUP1 SWAP2 SUB SWAP1 REVERT JUMPDEST PUSH1 0x0 PUSH1 0x5 PUSH1 0x0 DUP8 DUP2 MSTORE PUSH1 0x20 ADD SWAP1 DUP2 MSTORE PUSH1 0x20 ADD PUSH1 0x0 KECCAK256 PUSH1 0x40 MLOAD DUP1 PUSH2 0x160 ADD PUSH1 0x40 MSTORE SWAP1 DUP2 PUSH1 0x0 DUP3 ADD DUP1 SLOAD PUSH2 0x204E SWAP1 PUSH2 0x403B JUMP JUMPDEST DUP1 PUSH1 0x1F ADD PUSH1 0x20 DUP1 SWAP2 DIV MUL PUSH1 0x20 ADD PUSH1 0x40 MLOAD SWAP1 DUP2 ADD PUSH1 0x40 MSTORE DUP1 SWAP3 SWAP2 SWAP1 DUP2 DUP2 MSTORE PUSH1 0x20 ADD DUP3 DUP1 SLOAD PUSH2 0x207A SWAP1 PUSH2 0x403B JUMP JUMPDEST DUP1 ISZERO PUSH2 0x20C7 JUMPI DUP1 PUSH1 0x1F LT PUSH2 0x209C JUMPI PUSH2 0x100 DUP1 DUP4 SLOAD DIV MUL DUP4 MSTORE SWAP2 PUSH1 0x20 ADD SWAP2 PUSH2 0x20C7 JUMP JUMPDEST DUP3 ADD SWAP2 SWAP1 PUSH1 0x0 MSTORE PUSH1 0x20 PUSH1 0x0 KECCAK256 SWAP1 JUMPDEST DUP2 SLOAD DUP2 MSTORE SWAP1 PUSH1 0x1 ADD SWAP1 PUSH1 0x20 ADD DUP1 DUP4 GT PUSH2 0x20AA JUMPI DUP3 SWAP1 SUB PUSH1 0x1F AND DUP3 ADD SWAP2 JUMPDEST POP POP POP POP POP DUP2 MSTORE PUSH1 0x20 ADD PUSH1 0x1 DUP3 ADD DUP1 SLOAD PUSH2 0x20E0 SWAP1 PUSH2 0x403B JUMP JUMPDEST DUP1 PUSH1 0x1F ADD PUSH1 0x20 DUP1 SWAP2 DIV MUL PUSH1 0x20 ADD PUSH1 0x40 MLOAD SWAP1 DUP2 ADD PUSH1 0x40 MSTORE DUP1 SWAP3 SWAP2 SWAP1 DUP2 DUP2 MSTORE PUSH1 0x20 ADD DUP3 DUP1 SLOAD PUSH2 0x210C SWAP1 PUSH2 0x403B JUMP JUMPDEST DUP1 ISZERO PUSH2 0x2159 JUMPI DUP1 PUSH1 0x1F LT PUSH2 0x212E JUMPI PUSH2 0x100 DUP1 DUP4 SLOAD DIV MUL DUP4 MSTORE SWAP2 PUSH1 0x20 ADD SWAP2 PUSH2 0x2159 JUMP JUMPDEST DUP3 ADD SWAP2 SWAP1 PUSH1 0x0 MSTORE PUSH1 0x20 PUSH1 0x0 KECCAK256 SWAP1 JUMPDEST DUP2 SLOAD DUP2 MSTORE SWAP1 PUSH1 0x1 ADD SWAP1 PUSH1 0x20 ADD DUP1 DUP4 GT PUSH2 0x213C JUMPI DUP3 SWAP1 SUB PUSH1 0x1F AND DUP3 ADD SWAP2 JUMPDEST POP POP POP POP POP DUP2 MSTORE PUSH1 0x20 ADD PUSH1 0x2 DUP3 ADD DUP1 SLOAD PUSH2 0x2172 SWAP1 PUSH2 0x403B JUMP JUMPDEST DUP1 PUSH1 0x1F ADD PUSH1 0x20 DUP1 SWAP2 DIV MUL PUSH1 0x20 ADD PUSH1 0x40 MLOAD SWAP1 DUP2 ADD PUSH1 0x40 MSTORE DUP1 SWAP3 SWAP2 SWAP1 DUP2 DUP2 MSTORE PUSH1 0x20 ADD DUP3 DUP1 SLOAD PUSH2 0x219E SWAP1 PUSH2 0x403B JUMP JUMPDEST DUP1 ISZERO PUSH2 0x21EB JUMPI DUP1 PUSH1 0x1F LT PUSH2 0x21C0 JUMPI PUSH2 0x100 DUP1 DUP4 SLOAD DIV MUL DUP4 MSTORE SWAP2 PUSH1 0x20 ADD SWAP2 PUSH2 0x21EB JUMP JUMPDEST DUP3 ADD SWAP2 SWAP1 PUSH1 0x0 MSTORE PUSH1 0x20 PUSH1 0x0 KECCAK256 SWAP1 JUMPDEST DUP2 SLOAD DUP2 MSTORE SWAP1 PUSH1 0x1 ADD SWAP1 PUSH1 0x20 ADD DUP1 DUP4 GT PUSH2 0x21CE JUMPI DUP3 SWAP1 SUB PUSH1 0x1F AND DUP3 ADD SWAP2 JUMPDEST POP POP POP POP POP DUP2 MSTORE PUSH1 0x20 ADD PUSH1 0x3 DUP3 ADD SLOAD DUP2 MSTORE PUSH1 0x20 ADD PUSH1 0x4 DUP3 ADD SLOAD DUP2 MSTORE PUSH1 0x20 ADD PUSH1 0x5 DUP3 ADD SLOAD DUP2 MSTORE PUSH1 0x20 ADD PUSH1 0x6 DUP3 ADD SLOAD DUP2 MSTORE PUSH1 0x20 ADD PUSH1 0x7 DUP3 ADD SLOAD DUP2 MSTORE PUSH1 0x20 ADD PUSH1 0x8 DUP3 ADD PUSH1 0x0 SWAP1 SLOAD SWAP1 PUSH2 0x100 EXP SWAP1 DIV PUSH1 0xFF AND ISZERO ISZERO ISZERO ISZERO DUP2 MSTORE PUSH1 0x20 ADD PUSH1 0x8 DUP3 ADD PUSH1 0x1 SWAP1 SLOAD SWAP1 PUSH2 0x100 EXP SWAP1 DIV PUSH1 0xFF AND ISZERO ISZERO ISZERO ISZERO DUP2 MSTORE PUSH1 0x20 ADD PUSH1 0x8 DUP3 ADD PUSH1 0x2 SWAP1 SLOAD SWAP1 PUSH2 0x100 EXP SWAP1 DIV PUSH1 0xFF AND ISZERO ISZERO ISZERO ISZERO DUP2 MSTORE POP POP SWAP1 POP PUSH1 0x1 DUP2 PUSH2 0x140 ADD SWAP1 ISZERO ISZERO SWAP1 DUP2 ISZERO ISZERO DUP2 MSTORE POP ISZERO PUSH2 0x22CA JUMPI PUSH1 0x40 MLOAD PUSH32 0x8C379A000000000000000000000000000000000000000000000000000000000 DUP2 MSTORE PUSH1 0x4 ADD PUSH2 0x22C1 SWAP1 PUSH2 0x3DA1 JUMP JUMPDEST PUSH1 0x40 MLOAD DUP1 SWAP2 SUB SWAP1 REVERT JUMPDEST PUSH1 0x0 PUSH1 0x6 PUSH1 0x0 DUP9 DUP2 MSTORE PUSH1 0x20 ADD SWAP1 DUP2 MSTORE PUSH1 0x20 ADD PUSH1 0x0 KECCAK256 PUSH1 0x0 ADD DUP1 SLOAD DUP1 PUSH1 0x20 MUL PUSH1 0x20 ADD PUSH1 0x40 MLOAD SWAP1 DUP2 ADD PUSH1 0x40 MSTORE DUP1 SWAP3 SWAP2 SWAP1 DUP2 DUP2 MSTORE PUSH1 0x20 ADD PUSH1 0x0 SWAP1 JUMPDEST DUP3 DUP3 LT ISZERO PUSH2 0x245F JUMPI DUP4 DUP3 SWAP1 PUSH1 0x0 MSTORE PUSH1 0x20 PUSH1 0x0 KECCAK256 SWAP1 PUSH1 0x7 MUL ADD PUSH1 0x40 MLOAD DUP1 PUSH1 0xE0 ADD PUSH1 0x40 MSTORE SWAP1 DUP2 PUSH1 0x0 DUP3 ADD SLOAD DUP2 MSTORE PUSH1 0x20 ADD PUSH1 0x1 DUP3 ADD SLOAD DUP2 MSTORE PUSH1 0x20 ADD PUSH1 0x2 DUP3 ADD SLOAD DUP2 MSTORE PUSH1 0x20 ADD PUSH1 0x3 DUP3 ADD SLOAD DUP2 MSTORE PUSH1 0x20 ADD PUSH1 0x4 DUP3 ADD PUSH1 0x0 SWAP1 SLOAD SWAP1 PUSH2 0x100 EXP SWAP1 DIV PUSH20 0xFFFFFFFFFFFFFFFFFFFFFFFFFFFFFFFFFFFFFFFF AND PUSH20 0xFFFFFFFFFFFFFFFFFFFFFFFFFFFFFFFFFFFFFFFF AND PUSH20 0xFFFFFFFFFFFFFFFFFFFFFFFFFFFFFFFFFFFFFFFF AND DUP2 MSTORE PUSH1 0x20 ADD PUSH1 0x5 DUP3 ADD DUP1 SLOAD PUSH2 0x23B3 SWAP1 PUSH2 0x403B JUMP JUMPDEST DUP1 PUSH1 0x1F ADD PUSH1 0x20 DUP1 SWAP2 DIV MUL PUSH1 0x20 ADD PUSH1 0x40 MLOAD SWAP1 DUP2 ADD PUSH1 0x40 MSTORE DUP1 SWAP3 SWAP2 SWAP1 DUP2 DUP2 MSTORE PUSH1 0x20 ADD DUP3 DUP1 SLOAD PUSH2 0x23DF SWAP1 PUSH2 0x403B JUMP JUMPDEST DUP1 ISZERO PUSH2 0x242C JUMPI DUP1 PUSH1 0x1F LT PUSH2 0x2401 JUMPI PUSH2 0x100 DUP1 DUP4 SLOAD DIV MUL DUP4 MSTORE SWAP2 PUSH1 0x20 ADD SWAP2 PUSH2 0x242C JUMP JUMPDEST DUP3 ADD SWAP2 SWAP1 PUSH1 0x0 MSTORE PUSH1 0x20 PUSH1 0x0 KECCAK256 SWAP1 JUMPDEST DUP2 SLOAD DUP2 MSTORE SWAP1 PUSH1 0x1 ADD SWAP1 PUSH1 0x20 ADD DUP1 DUP4 GT PUSH2 0x240F JUMPI DUP3 SWAP1 SUB PUSH1 0x1F AND DUP3 ADD SWAP2 JUMPDEST POP POP POP POP POP DUP2 MSTORE PUSH1 0x20 ADD PUSH1 0x6 DUP3 ADD PUSH1 0x0 SWAP1 SLOAD SWAP1 PUSH2 0x100 EXP SWAP1 DIV PUSH1 0xFF AND ISZERO ISZERO ISZERO ISZERO DUP2 MSTORE POP POP DUP2 MSTORE PUSH1 0x20 ADD SWAP1 PUSH1 0x1 ADD SWAP1 PUSH2 0x2302 JUMP JUMPDEST POP POP POP POP SWAP1 POP PUSH1 0x0 PUSH2 0x24CE PUSH1 0x14 PUSH2 0x2484 PUSH1 0x2 DUP7 PUSH1 0xE0 ADD MLOAD PUSH2 0x48B SWAP1 SWAP2 SWAP1 PUSH4 0xFFFFFFFF AND JUMP JUMPDEST DUP6 PUSH1 0x80 ADD MLOAD DUP7 PUSH1 0xA0 ADD MLOAD DUP8 PUSH1 0x60 ADD MLOAD DUP9 PUSH1 0xC0 ADD MLOAD PUSH2 0x24A2 SWAP2 SWAP1 PUSH2 0x3E92 JUMP JUMPDEST PUSH2 0x24AC SWAP2 SWAP1 PUSH2 0x3E92 JUMP JUMPDEST PUSH2 0x24B6 SWAP2 SWAP1 PUSH2 0x3E92 JUMP JUMPDEST PUSH2 0x24C0 SWAP2 SWAP1 PUSH2 0x3E92 JUMP JUMPDEST PUSH2 0x48B SWAP1 SWAP2 SWAP1 PUSH4 0xFFFFFFFF AND JUMP JUMPDEST PUSH1 0x1 PUSH1 0x0 DUP3 DUP3 SLOAD PUSH2 0x24DF SWAP2 SWAP1 PUSH2 0x3E92 JUMP JUMPDEST SWAP3 POP POP DUP2 SWAP1 SSTORE POP PUSH1 0x0 JUMPDEST PUSH1 0x1 DUP4 MLOAD PUSH2 0x24F7 SWAP2 SWAP1 PUSH2 0x3F73 JUMP JUMPDEST DUP2 GT PUSH2 0x2995 JUMPI PUSH1 0x0 DUP4 DUP3 DUP2 MLOAD DUP2 LT PUSH2 0x2512 JUMPI PUSH2 0x2511 PUSH2 0x417E JUMP JUMPDEST JUMPDEST PUSH1 0x20 MUL PUSH1 0x20 ADD ADD MLOAD PUSH1 0xC0 ADD SWAP1 ISZERO ISZERO SWAP1 DUP2 ISZERO ISZERO DUP2 MSTORE POP ISZERO PUSH2 0x2982 JUMPI PUSH1 0x2 DUP4 DUP3 DUP2 MLOAD DUP2 LT PUSH2 0x2541 JUMPI PUSH2 0x2540 PUSH2 0x417E JUMP JUMPDEST JUMPDEST PUSH1 0x20 MUL PUSH1 0x20 ADD ADD MLOAD PUSH1 0x20 ADD MLOAD EQ ISZERO PUSH2 0x2712 JUMPI PUSH2 0x25A0 PUSH1 0x64 PUSH2 0x2592 PUSH1 0x55 PUSH2 0x2575 PUSH1 0x2 DUP10 PUSH1 0xE0 ADD MLOAD PUSH2 0x48B SWAP1 SWAP2 SWAP1 PUSH4 0xFFFFFFFF AND JUMP JUMPDEST DUP9 PUSH1 0xC0 ADD MLOAD PUSH2 0x2584 SWAP2 SWAP1 PUSH2 0x3E92 JUMP JUMPDEST PUSH2 0x3157 SWAP1 SWAP2 SWAP1 PUSH4 0xFFFFFFFF AND JUMP JUMPDEST PUSH2 0x48B SWAP1 SWAP2 SWAP1 PUSH4 0xFFFFFFFF AND JUMP JUMPDEST SWAP2 POP DUP8 DUP4 DUP3 DUP2 MLOAD DUP2 LT PUSH2 0x25B6 JUMPI PUSH2 0x25B5 PUSH2 0x417E JUMP JUMPDEST JUMPDEST PUSH1 0x20 MUL PUSH1 0x20 ADD ADD MLOAD PUSH1 0x40 ADD MLOAD EQ DUP1 ISZERO PUSH2 0x25EC JUMPI POP DUP7 DUP4 DUP3 DUP2 MLOAD DUP2 LT PUSH2 0x25DE JUMPI PUSH2 0x25DD PUSH2 0x417E JUMP JUMPDEST JUMPDEST PUSH1 0x20 MUL PUSH1 0x20 ADD ADD MLOAD PUSH1 0x60 ADD MLOAD EQ JUMPDEST ISZERO PUSH2 0x270D JUMPI PUSH1 0x0 PUSH1 0x7 DUP5 DUP4 DUP2 MLOAD DUP2 LT PUSH2 0x2608 JUMPI PUSH2 0x2607 PUSH2 0x417E JUMP JUMPDEST JUMPDEST PUSH1 0x20 MUL PUSH1 0x20 ADD ADD MLOAD PUSH1 0xA0 ADD MLOAD PUSH1 0x40 MLOAD PUSH2 0x2621 SWAP2 SWAP1 PUSH2 0x3BE9 JUMP JUMPDEST SWAP1 DUP2 MSTORE PUSH1 0x20 ADD PUSH1 0x40 MLOAD DUP1 SWAP2 SUB SWAP1 KECCAK256 SLOAD SWAP1 POP PUSH1 0x0 DUP2 DUP6 DUP5 DUP2 MLOAD DUP2 LT PUSH2 0x2648 JUMPI PUSH2 0x2647 PUSH2 0x417E JUMP JUMPDEST JUMPDEST PUSH1 0x20 MUL PUSH1 0x20 ADD ADD MLOAD PUSH1 0x0 ADD MLOAD DUP6 PUSH2 0x265F SWAP2 SWAP1 PUSH2 0x3F19 JUMP JUMPDEST PUSH2 0x2669 SWAP2 SWAP1 PUSH2 0x3EE8 JUMP JUMPDEST SWAP1 POP DUP1 PUSH1 0x4 PUSH1 0x0 DUP8 DUP7 DUP2 MLOAD DUP2 LT PUSH2 0x2683 JUMPI PUSH2 0x2682 PUSH2 0x417E JUMP JUMPDEST JUMPDEST PUSH1 0x20 MUL PUSH1 0x20 ADD ADD MLOAD PUSH1 0x80 ADD MLOAD PUSH20 0xFFFFFFFFFFFFFFFFFFFFFFFFFFFFFFFFFFFFFFFF AND PUSH20 0xFFFFFFFFFFFFFFFFFFFFFFFFFFFFFFFFFFFFFFFF AND DUP2 MSTORE PUSH1 0x20 ADD SWAP1 DUP2 MSTORE PUSH1 0x20 ADD PUSH1 0x0 KECCAK256 PUSH1 0x0 DUP3 DUP3 SLOAD PUSH2 0x26D8 SWAP2 SWAP1 PUSH2 0x3E92 JUMP JUMPDEST SWAP3 POP POP DUP2 SWAP1 SSTORE POP PUSH1 0x1 DUP6 DUP5 DUP2 MLOAD DUP2 LT PUSH2 0x26F4 JUMPI PUSH2 0x26F3 PUSH2 0x417E JUMP JUMPDEST JUMPDEST PUSH1 0x20 MUL PUSH1 0x20 ADD ADD MLOAD PUSH1 0xC0 ADD SWAP1 ISZERO ISZERO SWAP1 DUP2 ISZERO ISZERO DUP2 MSTORE POP POP POP POP JUMPDEST PUSH2 0x2981 JUMP JUMPDEST DUP6 DUP4 DUP3 DUP2 MLOAD DUP2 LT PUSH2 0x2726 JUMPI PUSH2 0x2725 PUSH2 0x417E JUMP JUMPDEST JUMPDEST PUSH1 0x20 MUL PUSH1 0x20 ADD ADD MLOAD PUSH1 0x20 ADD MLOAD EQ ISZERO PUSH2 0x2980 JUMPI PUSH2 0x27A3 PUSH1 0x64 PUSH2 0x2795 PUSH1 0x55 PUSH2 0x275A PUSH1 0x2 DUP10 PUSH1 0xE0 ADD MLOAD PUSH2 0x48B SWAP1 SWAP2 SWAP1 PUSH4 0xFFFFFFFF AND JUMP JUMPDEST DUP9 PUSH1 0x80 ADD MLOAD DUP10 PUSH1 0xA0 ADD MLOAD DUP11 PUSH1 0x60 ADD MLOAD PUSH2 0x2773 SWAP2 SWAP1 PUSH2 0x3E92 JUMP JUMPDEST PUSH2 0x277D SWAP2 SWAP1 PUSH2 0x3E92 JUMP JUMPDEST PUSH2 0x2787 SWAP2 SWAP1 PUSH2 0x3E92 JUMP JUMPDEST PUSH2 0x3157 SWAP1 SWAP2 SWAP1 PUSH4 0xFFFFFFFF AND JUMP JUMPDEST PUSH2 0x48B SWAP1 SWAP2 SWAP1 PUSH4 0xFFFFFFFF AND JUMP JUMPDEST SWAP2 POP PUSH1 0x0 DUP1 DUP5 DUP4 DUP2 MLOAD DUP2 LT PUSH2 0x27BB JUMPI PUSH2 0x27BA PUSH2 0x417E JUMP JUMPDEST JUMPDEST PUSH1 0x20 MUL PUSH1 0x20 ADD ADD MLOAD PUSH1 0x20 ADD MLOAD EQ ISZERO PUSH2 0x27FB JUMPI PUSH2 0x27F8 PUSH1 0x64 PUSH2 0x27EA PUSH1 0x55 DUP9 PUSH1 0xA0 ADD MLOAD PUSH2 0x3157 SWAP1 SWAP2 SWAP1 PUSH4 0xFFFFFFFF AND JUMP JUMPDEST PUSH2 0x48B SWAP1 SWAP2 SWAP1 PUSH4 0xFFFFFFFF AND JUMP JUMPDEST SWAP1 POP JUMPDEST PUSH1 0x1 DUP5 DUP4 DUP2 MLOAD DUP2 LT PUSH2 0x2810 JUMPI PUSH2 0x280F PUSH2 0x417E JUMP JUMPDEST JUMPDEST PUSH1 0x20 MUL PUSH1 0x20 ADD ADD MLOAD PUSH1 0x20 ADD MLOAD EQ ISZERO PUSH2 0x2850 JUMPI PUSH2 0x284D PUSH1 0x64 PUSH2 0x283F PUSH1 0x55 DUP9 PUSH1 0x80 ADD MLOAD PUSH2 0x3157 SWAP1 SWAP2 SWAP1 PUSH4 0xFFFFFFFF AND JUMP JUMPDEST PUSH2 0x48B SWAP1 SWAP2 SWAP1 PUSH4 0xFFFFFFFF AND JUMP JUMPDEST SWAP1 POP JUMPDEST PUSH1 0x3 DUP5 DUP4 DUP2 MLOAD DUP2 LT PUSH2 0x2865 JUMPI PUSH2 0x2864 PUSH2 0x417E JUMP JUMPDEST JUMPDEST PUSH1 0x20 MUL PUSH1 0x20 ADD ADD MLOAD PUSH1 0x20 ADD MLOAD EQ ISZERO PUSH2 0x28A5 JUMPI PUSH2 0x28A2 PUSH1 0x64 PUSH2 0x2894 PUSH1 0x55 DUP9 PUSH1 0x60 ADD MLOAD PUSH2 0x3157 SWAP1 SWAP2 SWAP1 PUSH4 0xFFFFFFFF AND JUMP JUMPDEST PUSH2 0x48B SWAP1 SWAP2 SWAP1 PUSH4 0xFFFFFFFF AND JUMP JUMPDEST SWAP1 POP JUMPDEST PUSH1 0x0 DUP2 DUP6 DUP5 DUP2 MLOAD DUP2 LT PUSH2 0x28BB JUMPI PUSH2 0x28BA PUSH2 0x417E JUMP JUMPDEST JUMPDEST PUSH1 0x20 MUL PUSH1 0x20 ADD ADD MLOAD PUSH1 0x0 ADD MLOAD DUP6 PUSH2 0x28D2 SWAP2 SWAP1 PUSH2 0x3F19 JUMP JUMPDEST PUSH2 0x28DC SWAP2 SWAP1 PUSH2 0x3EE8 JUMP JUMPDEST SWAP1 POP DUP1 PUSH1 0x4 PUSH1 0x0 DUP8 DUP7 DUP2 MLOAD DUP2 LT PUSH2 0x28F6 JUMPI PUSH2 0x28F5 PUSH2 0x417E JUMP JUMPDEST JUMPDEST PUSH1 0x20 MUL PUSH1 0x20 ADD ADD MLOAD PUSH1 0x80 ADD MLOAD PUSH20 0xFFFFFFFFFFFFFFFFFFFFFFFFFFFFFFFFFFFFFFFF AND PUSH20 0xFFFFFFFFFFFFFFFFFFFFFFFFFFFFFFFFFFFFFFFF AND DUP2 MSTORE PUSH1 0x20 ADD SWAP1 DUP2 MSTORE PUSH1 0x20 ADD PUSH1 0x0 KECCAK256 PUSH1 0x0 DUP3 DUP3 SLOAD PUSH2 0x294B SWAP2 SWAP1 PUSH2 0x3E92 JUMP JUMPDEST SWAP3 POP POP DUP2 SWAP1 SSTORE POP PUSH1 0x1 DUP6 DUP5 DUP2 MLOAD DUP2 LT PUSH2 0x2967 JUMPI PUSH2 0x2966 PUSH2 0x417E JUMP JUMPDEST JUMPDEST PUSH1 0x20 MUL PUSH1 0x20 ADD ADD MLOAD PUSH1 0xC0 ADD SWAP1 ISZERO ISZERO SWAP1 DUP2 ISZERO ISZERO DUP2 MSTORE POP POP POP POP JUMPDEST JUMPDEST JUMPDEST DUP1 DUP1 PUSH2 0x298D SWAP1 PUSH2 0x409E JUMP JUMPDEST SWAP2 POP POP PUSH2 0x24E9 JUMP JUMPDEST POP PUSH1 0x1 DUP4 PUSH2 0x140 ADD SWAP1 ISZERO ISZERO SWAP1 DUP2 ISZERO ISZERO DUP2 MSTORE POP POP POP POP POP PUSH1 0x1 SWAP1 POP SWAP5 SWAP4 POP POP POP POP JUMP JUMPDEST PUSH1 0x0 DUP1 PUSH1 0x0 SWAP1 SLOAD SWAP1 PUSH2 0x100 EXP SWAP1 DIV PUSH20 0xFFFFFFFFFFFFFFFFFFFFFFFFFFFFFFFFFFFFFFFF AND PUSH20 0xFFFFFFFFFFFFFFFFFFFFFFFFFFFFFFFFFFFFFFFF AND CALLER PUSH20 0xFFFFFFFFFFFFFFFFFFFFFFFFFFFFFFFFFFFFFFFF AND EQ PUSH2 0x2A48 JUMPI PUSH1 0x40 MLOAD PUSH32 0x8C379A000000000000000000000000000000000000000000000000000000000 DUP2 MSTORE PUSH1 0x4 ADD PUSH2 0x2A3F SWAP1 PUSH2 0x3CE1 JUMP JUMPDEST PUSH1 0x40 MLOAD DUP1 SWAP2 SUB SWAP1 REVERT JUMPDEST DUP2 PUSH1 0x4 PUSH1 0x0 DUP6 PUSH20 0xFFFFFFFFFFFFFFFFFFFFFFFFFFFFFFFFFFFFFFFF AND PUSH20 0xFFFFFFFFFFFFFFFFFFFFFFFFFFFFFFFFFFFFFFFF AND DUP2 MSTORE PUSH1 0x20 ADD SWAP1 DUP2 MSTORE PUSH1 0x20 ADD PUSH1 0x0 KECCAK256 SLOAD LT ISZERO DUP1 ISZERO PUSH2 0x2AD7 JUMPI POP PUSH1 0x0 PUSH1 0x4 PUSH1 0x0 DUP6 PUSH20 0xFFFFFFFFFFFFFFFFFFFFFFFFFFFFFFFFFFFFFFFF AND PUSH20 0xFFFFFFFFFFFFFFFFFFFFFFFFFFFFFFFFFFFFFFFF AND DUP2 MSTORE PUSH1 0x20 ADD SWAP1 DUP2 MSTORE PUSH1 0x20 ADD PUSH1 0x0 KECCAK256 SLOAD LT ISZERO JUMPDEST ISZERO PUSH2 0x2B86 JUMPI PUSH1 0x0 DUP4 SWAP1 POP DUP1 PUSH20 0xFFFFFFFFFFFFFFFFFFFFFFFFFFFFFFFFFFFFFFFF AND PUSH2 0x8FC PUSH2 0x2B54 PUSH7 0x2386F26FC10000 PUSH1 0x4 PUSH1 0x0 DUP10 PUSH20 0xFFFFFFFFFFFFFFFFFFFFFFFFFFFFFFFFFFFFFFFF AND PUSH20 0xFFFFFFFFFFFFFFFFFFFFFFFFFFFFFFFFFFFFFFFF AND DUP2 MSTORE PUSH1 0x20 ADD SWAP1 DUP2 MSTORE PUSH1 0x20 ADD PUSH1 0x0 KECCAK256 SLOAD PUSH2 0x3157 SWAP1 SWAP2 SWAP1 PUSH4 0xFFFFFFFF AND JUMP JUMPDEST SWAP1 DUP2 ISZERO MUL SWAP1 PUSH1 0x40 MLOAD PUSH1 0x0 PUSH1 0x40 MLOAD DUP1 DUP4 SUB DUP2 DUP6 DUP9 DUP9 CALL SWAP4 POP POP POP POP ISZERO DUP1 ISZERO PUSH2 0x2B7F JUMPI RETURNDATASIZE PUSH1 0x0 DUP1 RETURNDATACOPY RETURNDATASIZE PUSH1 0x0 REVERT JUMPDEST POP POP PUSH2 0x2BC1 JUMP JUMPDEST PUSH1 0x40 MLOAD PUSH32 0x8C379A000000000000000000000000000000000000000000000000000000000 DUP2 MSTORE PUSH1 0x4 ADD PUSH2 0x2BB8 SWAP1 PUSH2 0x3D81 JUMP JUMPDEST PUSH1 0x40 MLOAD DUP1 SWAP2 SUB SWAP1 REVERT JUMPDEST PUSH1 0x1 SWAP1 POP SWAP3 SWAP2 POP POP JUMP JUMPDEST PUSH1 0x0 PUSH1 0x4 PUSH1 0x0 CALLER PUSH20 0xFFFFFFFFFFFFFFFFFFFFFFFFFFFFFFFFFFFFFFFF AND PUSH20 0xFFFFFFFFFFFFFFFFFFFFFFFFFFFFFFFFFFFFFFFF AND DUP2 MSTORE PUSH1 0x20 ADD SWAP1 DUP2 MSTORE PUSH1 0x20 ADD PUSH1 0x0 KECCAK256 SLOAD SWAP1 POP SWAP1 JUMP JUMPDEST PUSH1 0x60 PUSH1 0x2 DUP1 SLOAD DUP1 PUSH1 0x20 MUL PUSH1 0x20 ADD PUSH1 0x40 MLOAD SWAP1 DUP2 ADD PUSH1 0x40 MSTORE DUP1 SWAP3 SWAP2 SWAP1 DUP2 DUP2 MSTORE PUSH1 0x20 ADD DUP3 DUP1 SLOAD DUP1 ISZERO PUSH2 0x2C60 JUMPI PUSH1 0x20 MUL DUP3 ADD SWAP2 SWAP1 PUSH1 0x0 MSTORE PUSH1 0x20 PUSH1 0x0 KECCAK256 SWAP1 JUMPDEST DUP2 SLOAD DUP2 MSTORE PUSH1 0x20 ADD SWAP1 PUSH1 0x1 ADD SWAP1 DUP1 DUP4 GT PUSH2 0x2C4C JUMPI JUMPDEST POP POP POP POP POP SWAP1 POP SWAP1 JUMP JUMPDEST PUSH1 0x60 DUP1 PUSH2 0x2C75 PUSH2 0x35A2 JUMP JUMPDEST PUSH2 0x2C7E DUP5 PUSH2 0x2F94 JUMP JUMPDEST PUSH2 0x2CBD JUMPI PUSH1 0x40 MLOAD PUSH32 0x8C379A000000000000000000000000000000000000000000000000000000000 DUP2 MSTORE PUSH1 0x4 ADD PUSH2 0x2CB4 SWAP1 PUSH2 0x3D01 JUMP JUMPDEST PUSH1 0x40 MLOAD DUP1 SWAP2 SUB SWAP1 REVERT JUMPDEST PUSH1 0x0 PUSH2 0x2D9C PUSH1 0x5 PUSH1 0x0 DUP8 DUP2 MSTORE PUSH1 0x20 ADD SWAP1 DUP2 MSTORE PUSH1 0x20 ADD PUSH1 0x0 KECCAK256 PUSH1 0x0 ADD DUP1 SLOAD PUSH2 0x2CE3 SWAP1 PUSH2 0x403B JUMP JUMPDEST DUP1 PUSH1 0x1F ADD PUSH1 0x20 DUP1 SWAP2 DIV MUL PUSH1 0x20 ADD PUSH1 0x40 MLOAD SWAP1 DUP2 ADD PUSH1 0x40 MSTORE DUP1 SWAP3 SWAP2 SWAP1 DUP2 DUP2 MSTORE PUSH1 0x20 ADD DUP3 DUP1 SLOAD PUSH2 0x2D0F SWAP1 PUSH2 0x403B JUMP JUMPDEST DUP1 ISZERO PUSH2 0x2D5C JUMPI DUP1 PUSH1 0x1F LT PUSH2 0x2D31 JUMPI PUSH2 0x100 DUP1 DUP4 SLOAD DIV MUL DUP4 MSTORE SWAP2 PUSH1 0x20 ADD SWAP2 PUSH2 0x2D5C JUMP JUMPDEST DUP3 ADD SWAP2 SWAP1 PUSH1 0x0 MSTORE PUSH1 0x20 PUSH1 0x0 KECCAK256 SWAP1 JUMPDEST DUP2 SLOAD DUP2 MSTORE SWAP1 PUSH1 0x1 ADD SWAP1 PUSH1 0x20 ADD DUP1 DUP4 GT PUSH2 0x2D3F JUMPI DUP3 SWAP1 SUB PUSH1 0x1F AND DUP3 ADD SWAP2 JUMPDEST POP POP POP POP POP PUSH1 0x40 MLOAD DUP1 PUSH1 0x40 ADD PUSH1 0x40 MSTORE DUP1 PUSH1 0x4 DUP2 MSTORE PUSH1 0x20 ADD PUSH32 0x2076732000000000000000000000000000000000000000000000000000000000 DUP2 MSTORE POP PUSH2 0x2FC1 JUMP JUMPDEST SWAP1 POP PUSH2 0x2E46 DUP2 PUSH1 0x5 PUSH1 0x0 DUP9 DUP2 MSTORE PUSH1 0x20 ADD SWAP1 DUP2 MSTORE PUSH1 0x20 ADD PUSH1 0x0 KECCAK256 PUSH1 0x1 ADD DUP1 SLOAD PUSH2 0x2DC3 SWAP1 PUSH2 0x403B JUMP JUMPDEST DUP1 PUSH1 0x1F ADD PUSH1 0x20 DUP1 SWAP2 DIV MUL PUSH1 0x20 ADD PUSH1 0x40 MLOAD SWAP1 DUP2 ADD PUSH1 0x40 MSTORE DUP1 SWAP3 SWAP2 SWAP1 DUP2 DUP2 MSTORE PUSH1 0x20 ADD DUP3 DUP1 SLOAD PUSH2 0x2DEF SWAP1 PUSH2 0x403B JUMP JUMPDEST DUP1 ISZERO PUSH2 0x2E3C JUMPI DUP1 PUSH1 0x1F LT PUSH2 0x2E11 JUMPI PUSH2 0x100 DUP1 DUP4 SLOAD DIV MUL DUP4 MSTORE SWAP2 PUSH1 0x20 ADD SWAP2 PUSH2 0x2E3C JUMP JUMPDEST DUP3 ADD SWAP2 SWAP1 PUSH1 0x0 MSTORE PUSH1 0x20 PUSH1 0x0 KECCAK256 SWAP1 JUMPDEST DUP2 SLOAD DUP2 MSTORE SWAP1 PUSH1 0x1 ADD SWAP1 PUSH1 0x20 ADD DUP1 DUP4 GT PUSH2 0x2E1F JUMPI DUP3 SWAP1 SUB PUSH1 0x1F AND DUP3 ADD SWAP2 JUMPDEST POP POP POP POP POP PUSH2 0x2FC1 JUMP JUMPDEST SWAP4 POP PUSH1 0x0 PUSH1 0x40 MLOAD DUP1 PUSH1 0xA0 ADD PUSH1 0x40 MSTORE DUP1 PUSH1 0x5 PUSH1 0x0 DUP10 DUP2 MSTORE PUSH1 0x20 ADD SWAP1 DUP2 MSTORE PUSH1 0x20 ADD PUSH1 0x0 KECCAK256 PUSH1 0x3 ADD SLOAD DUP2 MSTORE PUSH1 0x20 ADD PUSH1 0x5 PUSH1 0x0 DUP10 DUP2 MSTORE PUSH1 0x20 ADD SWAP1 DUP2 MSTORE PUSH1 0x20 ADD PUSH1 0x0 KECCAK256 PUSH1 0x4 ADD SLOAD DUP2 MSTORE PUSH1 0x20 ADD PUSH1 0x5 PUSH1 0x0 DUP10 DUP2 MSTORE PUSH1 0x20 ADD SWAP1 DUP2 MSTORE PUSH1 0x20 ADD PUSH1 0x0 KECCAK256 PUSH1 0x5 ADD SLOAD DUP2 MSTORE PUSH1 0x20 ADD PUSH1 0x5 PUSH1 0x0 DUP10 DUP2 MSTORE PUSH1 0x20 ADD SWAP1 DUP2 MSTORE PUSH1 0x20 ADD PUSH1 0x0 KECCAK256 PUSH1 0x6 ADD SLOAD DUP2 MSTORE PUSH1 0x20 ADD PUSH1 0x5 PUSH1 0x0 DUP10 DUP2 MSTORE PUSH1 0x20 ADD SWAP1 DUP2 MSTORE PUSH1 0x20 ADD PUSH1 0x0 KECCAK256 PUSH1 0x7 ADD SLOAD DUP2 MSTORE POP SWAP1 POP DUP5 PUSH1 0x5 PUSH1 0x0 DUP9 DUP2 MSTORE PUSH1 0x20 ADD SWAP1 DUP2 MSTORE PUSH1 0x20 ADD PUSH1 0x0 KECCAK256 PUSH1 0x2 ADD DUP3 DUP2 DUP1 SLOAD PUSH2 0x2F05 SWAP1 PUSH2 0x403B JUMP JUMPDEST DUP1 PUSH1 0x1F ADD PUSH1 0x20 DUP1 SWAP2 DIV MUL PUSH1 0x20 ADD PUSH1 0x40 MLOAD SWAP1 DUP2 ADD PUSH1 0x40 MSTORE DUP1 SWAP3 SWAP2 SWAP1 DUP2 DUP2 MSTORE PUSH1 0x20 ADD DUP3 DUP1 SLOAD PUSH2 0x2F31 SWAP1 PUSH2 0x403B JUMP JUMPDEST DUP1 ISZERO PUSH2 0x2F7E JUMPI DUP1 PUSH1 0x1F LT PUSH2 0x2F53 JUMPI PUSH2 0x100 DUP1 DUP4 SLOAD DIV MUL DUP4 MSTORE SWAP2 PUSH1 0x20 ADD SWAP2 PUSH2 0x2F7E JUMP JUMPDEST DUP3 ADD SWAP2 SWAP1 PUSH1 0x0 MSTORE PUSH1 0x20 PUSH1 0x0 KECCAK256 SWAP1 JUMPDEST DUP2 SLOAD DUP2 MSTORE SWAP1 PUSH1 0x1 ADD SWAP1 PUSH1 0x20 ADD DUP1 DUP4 GT PUSH2 0x2F61 JUMPI DUP3 SWAP1 SUB PUSH1 0x1F AND DUP3 ADD SWAP2 JUMPDEST POP POP POP POP POP SWAP2 POP SWAP5 POP SWAP5 POP SWAP5 POP POP POP SWAP2 SWAP4 SWAP1 SWAP3 POP JUMP JUMPDEST PUSH1 0x0 PUSH1 0x5 PUSH1 0x0 DUP4 DUP2 MSTORE PUSH1 0x20 ADD SWAP1 DUP2 MSTORE PUSH1 0x20 ADD PUSH1 0x0 KECCAK256 PUSH1 0x8 ADD PUSH1 0x1 SWAP1 SLOAD SWAP1 PUSH2 0x100 EXP SWAP1 DIV PUSH1 0xFF AND SWAP1 POP SWAP2 SWAP1 POP JUMP JUMPDEST PUSH1 0x60 PUSH1 0x0 DUP4 SWAP1 POP PUSH1 0x0 DUP4 SWAP1 POP PUSH1 0x0 DUP2 MLOAD DUP4 MLOAD PUSH2 0x2FDD SWAP2 SWAP1 PUSH2 0x3E92 JUMP JUMPDEST PUSH8 0xFFFFFFFFFFFFFFFF DUP2 GT ISZERO PUSH2 0x2FF6 JUMPI PUSH2 0x2FF5 PUSH2 0x41AD JUMP JUMPDEST JUMPDEST PUSH1 0x40 MLOAD SWAP1 DUP1 DUP3 MSTORE DUP1 PUSH1 0x1F ADD PUSH1 0x1F NOT AND PUSH1 0x20 ADD DUP3 ADD PUSH1 0x40 MSTORE DUP1 ISZERO PUSH2 0x3028 JUMPI DUP2 PUSH1 0x20 ADD PUSH1 0x1 DUP3 MUL DUP1 CALLDATASIZE DUP4 CALLDATACOPY DUP1 DUP3 ADD SWAP2 POP POP SWAP1 POP JUMPDEST POP SWAP1 POP PUSH1 0x0 DUP2 SWAP1 POP PUSH1 0x0 DUP1 JUMPDEST DUP6 MLOAD DUP2 LT ISZERO PUSH2 0x30BC JUMPI DUP6 DUP2 DUP2 MLOAD DUP2 LT PUSH2 0x3050 JUMPI PUSH2 0x304F PUSH2 0x417E JUMP JUMPDEST JUMPDEST PUSH1 0x20 ADD ADD MLOAD PUSH1 0xF8 SHR PUSH1 0xF8 SHL DUP4 DUP4 DUP1 PUSH2 0x3067 SWAP1 PUSH2 0x409E JUMP JUMPDEST SWAP5 POP DUP2 MLOAD DUP2 LT PUSH2 0x307A JUMPI PUSH2 0x3079 PUSH2 0x417E JUMP JUMPDEST JUMPDEST PUSH1 0x20 ADD ADD SWAP1 PUSH31 0xFFFFFFFFFFFFFFFFFFFFFFFFFFFFFFFFFFFFFFFFFFFFFFFFFFFFFFFFFFFFFF NOT AND SWAP1 DUP2 PUSH1 0x0 BYTE SWAP1 MSTORE8 POP DUP1 DUP1 PUSH2 0x30B4 SWAP1 PUSH2 0x409E JUMP JUMPDEST SWAP2 POP POP PUSH2 0x3034 JUMP JUMPDEST POP PUSH1 0x0 JUMPDEST DUP5 MLOAD DUP2 LT ISZERO PUSH2 0x3148 JUMPI DUP5 DUP2 DUP2 MLOAD DUP2 LT PUSH2 0x30DC JUMPI PUSH2 0x30DB PUSH2 0x417E JUMP JUMPDEST JUMPDEST PUSH1 0x20 ADD ADD MLOAD PUSH1 0xF8 SHR PUSH1 0xF8 SHL DUP4 DUP4 DUP1 PUSH2 0x30F3 SWAP1 PUSH2 0x409E JUMP JUMPDEST SWAP5 POP DUP2 MLOAD DUP2 LT PUSH2 0x3106 JUMPI PUSH2 0x3105 PUSH2 0x417E JUMP JUMPDEST JUMPDEST PUSH1 0x20 ADD ADD SWAP1 PUSH31 0xFFFFFFFFFFFFFFFFFFFFFFFFFFFFFFFFFFFFFFFFFFFFFFFFFFFFFFFFFFFFFF NOT AND SWAP1 DUP2 PUSH1 0x0 BYTE SWAP1 MSTORE8 POP DUP1 DUP1 PUSH2 0x3140 SWAP1 PUSH2 0x409E JUMP JUMPDEST SWAP2 POP POP PUSH2 0x30C0 JUMP JUMPDEST POP DUP3 SWAP6 POP POP POP POP POP POP SWAP3 SWAP2 POP POP JUMP JUMPDEST PUSH1 0x0 DUP1 DUP4 EQ ISZERO PUSH2 0x316A JUMPI PUSH1 0x0 SWAP1 POP PUSH2 0x3196 JUMP JUMPDEST PUSH1 0x0 DUP3 DUP5 PUSH2 0x3178 SWAP2 SWAP1 PUSH2 0x3F19 JUMP JUMPDEST SWAP1 POP DUP3 DUP5 DUP3 PUSH2 0x3187 SWAP2 SWAP1 PUSH2 0x3EE8 JUMP JUMPDEST EQ PUSH2 0x3191 JUMPI PUSH1 0x0 DUP1 REVERT JUMPDEST DUP1 SWAP2 POP POP JUMPDEST SWAP3 SWAP2 POP POP JUMP JUMPDEST PUSH1 0x60 PUSH2 0x31C6 DUP3 PUSH1 0x40 MLOAD PUSH1 0x20 ADD PUSH2 0x31B2 SWAP2 SWAP1 PUSH2 0x3C00 JUMP JUMPDEST PUSH1 0x40 MLOAD PUSH1 0x20 DUP2 DUP4 SUB SUB DUP2 MSTORE SWAP1 PUSH1 0x40 MSTORE PUSH2 0x31CD JUMP JUMPDEST SWAP1 POP SWAP2 SWAP1 POP JUMP JUMPDEST PUSH1 0x60 PUSH1 0x0 PUSH1 0x40 MLOAD DUP1 PUSH1 0x40 ADD PUSH1 0x40 MSTORE DUP1 PUSH1 0x10 DUP2 MSTORE PUSH1 0x20 ADD PUSH32 0x3031323334353637383961626364656600000000000000000000000000000000 DUP2 MSTORE POP SWAP1 POP PUSH1 0x0 PUSH1 0x2 DUP5 MLOAD PUSH2 0x3219 SWAP2 SWAP1 PUSH2 0x3F19 JUMP JUMPDEST PUSH1 0x2 PUSH2 0x3225 SWAP2 SWAP1 PUSH2 0x3E92 JUMP JUMPDEST PUSH8 0xFFFFFFFFFFFFFFFF DUP2 GT ISZERO PUSH2 0x323E JUMPI PUSH2 0x323D PUSH2 0x41AD JUMP JUMPDEST JUMPDEST PUSH1 0x40 MLOAD SWAP1 DUP1 DUP3 MSTORE DUP1 PUSH1 0x1F ADD PUSH1 0x1F NOT AND PUSH1 0x20 ADD DUP3 ADD PUSH1 0x40 MSTORE DUP1 ISZERO PUSH2 0x3270 JUMPI DUP2 PUSH1 0x20 ADD PUSH1 0x1 DUP3 MUL DUP1 CALLDATASIZE DUP4 CALLDATACOPY DUP1 DUP3 ADD SWAP2 POP POP SWAP1 POP JUMPDEST POP SWAP1 POP PUSH32 0x3000000000000000000000000000000000000000000000000000000000000000 DUP2 PUSH1 0x0 DUP2 MLOAD DUP2 LT PUSH2 0x32A8 JUMPI PUSH2 0x32A7 PUSH2 0x417E JUMP JUMPDEST JUMPDEST PUSH1 0x20 ADD ADD SWAP1 PUSH31 0xFFFFFFFFFFFFFFFFFFFFFFFFFFFFFFFFFFFFFFFFFFFFFFFFFFFFFFFFFFFFFF NOT AND SWAP1 DUP2 PUSH1 0x0 BYTE SWAP1 MSTORE8 POP PUSH32 0x7800000000000000000000000000000000000000000000000000000000000000 DUP2 PUSH1 0x1 DUP2 MLOAD DUP2 LT PUSH2 0x330C JUMPI PUSH2 0x330B PUSH2 0x417E JUMP JUMPDEST JUMPDEST PUSH1 0x20 ADD ADD SWAP1 PUSH31 0xFFFFFFFFFFFFFFFFFFFFFFFFFFFFFFFFFFFFFFFFFFFFFFFFFFFFFFFFFFFFFF NOT AND SWAP1 DUP2 PUSH1 0x0 BYTE SWAP1 MSTORE8 POP PUSH1 0x0 JUMPDEST DUP5 MLOAD DUP2 LT ISZERO PUSH2 0x34BC JUMPI DUP3 PUSH1 0x4 DUP7 DUP4 DUP2 MLOAD DUP2 LT PUSH2 0x335D JUMPI PUSH2 0x335C PUSH2 0x417E JUMP JUMPDEST JUMPDEST PUSH1 0x20 ADD ADD MLOAD PUSH1 0xF8 SHR PUSH1 0xF8 SHL PUSH31 0xFFFFFFFFFFFFFFFFFFFFFFFFFFFFFFFFFFFFFFFFFFFFFFFFFFFFFFFFFFFFFF NOT AND SWAP1 SHR PUSH1 0xF8 SHR PUSH1 0xFF AND DUP2 MLOAD DUP2 LT PUSH2 0x33A3 JUMPI PUSH2 0x33A2 PUSH2 0x417E JUMP JUMPDEST JUMPDEST PUSH1 0x20 ADD ADD MLOAD PUSH1 0xF8 SHR PUSH1 0xF8 SHL DUP3 PUSH1 0x2 DUP4 PUSH2 0x33BC SWAP2 SWAP1 PUSH2 0x3F19 JUMP JUMPDEST PUSH1 0x2 PUSH2 0x33C8 SWAP2 SWAP1 PUSH2 0x3E92 JUMP JUMPDEST DUP2 MLOAD DUP2 LT PUSH2 0x33D9 JUMPI PUSH2 0x33D8 PUSH2 0x417E JUMP JUMPDEST JUMPDEST PUSH1 0x20 ADD ADD SWAP1 PUSH31 0xFFFFFFFFFFFFFFFFFFFFFFFFFFFFFFFFFFFFFFFFFFFFFFFFFFFFFFFFFFFFFF NOT AND SWAP1 DUP2 PUSH1 0x0 BYTE SWAP1 MSTORE8 POP DUP3 PUSH1 0xF PUSH1 0xF8 SHL DUP7 DUP4 DUP2 MLOAD DUP2 LT PUSH2 0x3421 JUMPI PUSH2 0x3420 PUSH2 0x417E JUMP JUMPDEST JUMPDEST PUSH1 0x20 ADD ADD MLOAD PUSH1 0xF8 SHR PUSH1 0xF8 SHL AND PUSH1 0xF8 SHR PUSH1 0xFF AND DUP2 MLOAD DUP2 LT PUSH2 0x3444 JUMPI PUSH2 0x3443 PUSH2 0x417E JUMP JUMPDEST JUMPDEST PUSH1 0x20 ADD ADD MLOAD PUSH1 0xF8 SHR PUSH1 0xF8 SHL DUP3 PUSH1 0x2 DUP4 PUSH2 0x345D SWAP2 SWAP1 PUSH2 0x3F19 JUMP JUMPDEST PUSH1 0x3 PUSH2 0x3469 SWAP2 SWAP1 PUSH2 0x3E92 JUMP JUMPDEST DUP2 MLOAD DUP2 LT PUSH2 0x347A JUMPI PUSH2 0x3479 PUSH2 0x417E JUMP JUMPDEST JUMPDEST PUSH1 0x20 ADD ADD SWAP1 PUSH31 0xFFFFFFFFFFFFFFFFFFFFFFFFFFFFFFFFFFFFFFFFFFFFFFFFFFFFFFFFFFFFFF NOT AND SWAP1 DUP2 PUSH1 0x0 BYTE SWAP1 MSTORE8 POP DUP1 DUP1 PUSH2 0x34B4 SWAP1 PUSH2 0x409E JUMP JUMPDEST SWAP2 POP POP PUSH2 0x333E JUMP JUMPDEST POP DUP1 SWAP3 POP POP POP SWAP2 SWAP1 POP JUMP JUMPDEST DUP3 DUP1 SLOAD PUSH2 0x34D3 SWAP1 PUSH2 0x403B JUMP JUMPDEST SWAP1 PUSH1 0x0 MSTORE PUSH1 0x20 PUSH1 0x0 KECCAK256 SWAP1 PUSH1 0x1F ADD PUSH1 0x20 SWAP1 DIV DUP2 ADD SWAP3 DUP3 PUSH2 0x34F5 JUMPI PUSH1 0x0 DUP6 SSTORE PUSH2 0x353C JUMP JUMPDEST DUP3 PUSH1 0x1F LT PUSH2 0x350E JUMPI DUP1 MLOAD PUSH1 0xFF NOT AND DUP4 DUP1 ADD OR DUP6 SSTORE PUSH2 0x353C JUMP JUMPDEST DUP3 DUP1 ADD PUSH1 0x1 ADD DUP6 SSTORE DUP3 ISZERO PUSH2 0x353C JUMPI SWAP2 DUP3 ADD JUMPDEST DUP3 DUP2 GT ISZERO PUSH2 0x353B JUMPI DUP3 MLOAD DUP3 SSTORE SWAP2 PUSH1 0x20 ADD SWAP2 SWAP1 PUSH1 0x1 ADD SWAP1 PUSH2 0x3520 JUMP JUMPDEST JUMPDEST POP SWAP1 POP PUSH2 0x3549 SWAP2 SWAP1 PUSH2 0x35D1 JUMP JUMPDEST POP SWAP1 JUMP JUMPDEST PUSH1 0x40 MLOAD DUP1 PUSH1 0xE0 ADD PUSH1 0x40 MSTORE DUP1 PUSH1 0x0 DUP2 MSTORE PUSH1 0x20 ADD PUSH1 0x0 DUP2 MSTORE PUSH1 0x20 ADD PUSH1 0x0 DUP2 MSTORE PUSH1 0x20 ADD PUSH1 0x0 DUP2 MSTORE PUSH1 0x20 ADD PUSH1 0x0 PUSH20 0xFFFFFFFFFFFFFFFFFFFFFFFFFFFFFFFFFFFFFFFF AND DUP2 MSTORE PUSH1 0x20 ADD PUSH1 0x60 DUP2 MSTORE PUSH1 0x20 ADD PUSH1 0x0 ISZERO ISZERO DUP2 MSTORE POP SWAP1 JUMP JUMPDEST PUSH1 0x40 MLOAD DUP1 PUSH1 0xA0 ADD PUSH1 0x40 MSTORE DUP1 PUSH1 0x0 DUP2 MSTORE PUSH1 0x20 ADD PUSH1 0x0 DUP2 MSTORE PUSH1 0x20 ADD PUSH1 0x0 DUP2 MSTORE PUSH1 0x20 ADD PUSH1 0x0 DUP2 MSTORE PUSH1 0x20 ADD PUSH1 0x0 DUP2 MSTORE POP SWAP1 JUMP JUMPDEST JUMPDEST DUP1 DUP3 GT ISZERO PUSH2 0x35EA JUMPI PUSH1 0x0 DUP2 PUSH1 0x0 SWAP1 SSTORE POP PUSH1 0x1 ADD PUSH2 0x35D2 JUMP JUMPDEST POP SWAP1 JUMP JUMPDEST PUSH1 0x0 PUSH2 0x3601 PUSH2 0x35FC DUP5 PUSH2 0x3E01 JUMP JUMPDEST PUSH2 0x3DDC JUMP JUMPDEST SWAP1 POP DUP3 DUP2 MSTORE PUSH1 0x20 DUP2 ADD DUP5 DUP5 DUP5 ADD GT ISZERO PUSH2 0x361D JUMPI PUSH2 0x361C PUSH2 0x41E1 JUMP JUMPDEST JUMPDEST PUSH2 0x3628 DUP5 DUP3 DUP6 PUSH2 0x3FF9 JUMP JUMPDEST POP SWAP4 SWAP3 POP POP POP JUMP JUMPDEST PUSH1 0x0 DUP2 CALLDATALOAD SWAP1 POP PUSH2 0x363F DUP2 PUSH2 0x4320 JUMP JUMPDEST SWAP3 SWAP2 POP POP JUMP JUMPDEST PUSH1 0x0 DUP2 CALLDATALOAD SWAP1 POP PUSH2 0x3654 DUP2 PUSH2 0x4337 JUMP JUMPDEST SWAP3 SWAP2 POP POP JUMP JUMPDEST PUSH1 0x0 DUP2 CALLDATALOAD SWAP1 POP PUSH2 0x3669 DUP2 PUSH2 0x434E JUMP JUMPDEST SWAP3 SWAP2 POP POP JUMP JUMPDEST PUSH1 0x0 DUP3 PUSH1 0x1F DUP4 ADD SLT PUSH2 0x3684 JUMPI PUSH2 0x3683 PUSH2 0x41DC JUMP JUMPDEST JUMPDEST DUP2 CALLDATALOAD PUSH2 0x3694 DUP5 DUP3 PUSH1 0x20 DUP7 ADD PUSH2 0x35EE JUMP JUMPDEST SWAP2 POP POP SWAP3 SWAP2 POP POP JUMP JUMPDEST PUSH1 0x0 DUP2 CALLDATALOAD SWAP1 POP PUSH2 0x36AC DUP2 PUSH2 0x4365 JUMP JUMPDEST SWAP3 SWAP2 POP POP JUMP JUMPDEST PUSH1 0x0 PUSH1 0x20 DUP3 DUP5 SUB SLT ISZERO PUSH2 0x36C8 JUMPI PUSH2 0x36C7 PUSH2 0x41EB JUMP JUMPDEST JUMPDEST PUSH1 0x0 PUSH2 0x36D6 DUP5 DUP3 DUP6 ADD PUSH2 0x3630 JUMP JUMPDEST SWAP2 POP POP SWAP3 SWAP2 POP POP JUMP JUMPDEST PUSH1 0x0 DUP1 PUSH1 0x40 DUP4 DUP6 SUB SLT ISZERO PUSH2 0x36F6 JUMPI PUSH2 0x36F5 PUSH2 0x41EB JUMP JUMPDEST JUMPDEST PUSH1 0x0 PUSH2 0x3704 DUP6 DUP3 DUP7 ADD PUSH2 0x3630 JUMP JUMPDEST SWAP3 POP POP PUSH1 0x20 PUSH2 0x3715 DUP6 DUP3 DUP7 ADD PUSH2 0x365A JUMP JUMPDEST SWAP2 POP POP SWAP3 POP SWAP3 SWAP1 POP JUMP JUMPDEST PUSH1 0x0 DUP1 PUSH1 0x40 DUP4 DUP6 SUB SLT ISZERO PUSH2 0x3736 JUMPI PUSH2 0x3735 PUSH2 0x41EB JUMP JUMPDEST JUMPDEST PUSH1 0x0 PUSH2 0x3744 DUP6 DUP3 DUP7 ADD PUSH2 0x3630 JUMP JUMPDEST SWAP3 POP POP PUSH1 0x20 PUSH2 0x3755 DUP6 DUP3 DUP7 ADD PUSH2 0x369D JUMP JUMPDEST SWAP2 POP POP SWAP3 POP SWAP3 SWAP1 POP JUMP JUMPDEST PUSH1 0x0 DUP1 PUSH1 0x0 DUP1 PUSH1 0x0 DUP1 PUSH1 0xC0 DUP8 DUP10 SUB SLT ISZERO PUSH2 0x377C JUMPI PUSH2 0x377B PUSH2 0x41EB JUMP JUMPDEST JUMPDEST PUSH1 0x0 PUSH2 0x378A DUP10 DUP3 DUP11 ADD PUSH2 0x3630 JUMP JUMPDEST SWAP7 POP POP PUSH1 0x20 PUSH2 0x379B DUP10 DUP3 DUP11 ADD PUSH2 0x369D JUMP JUMPDEST SWAP6 POP POP PUSH1 0x40 PUSH2 0x37AC DUP10 DUP3 DUP11 ADD PUSH2 0x365A JUMP JUMPDEST SWAP5 POP POP PUSH1 0x60 PUSH2 0x37BD DUP10 DUP3 DUP11 ADD PUSH2 0x369D JUMP JUMPDEST SWAP4 POP POP PUSH1 0x80 PUSH2 0x37CE DUP10 DUP3 DUP11 ADD PUSH2 0x369D JUMP JUMPDEST SWAP3 POP POP PUSH1 0xA0 PUSH2 0x37DF DUP10 DUP3 DUP11 ADD PUSH2 0x369D JUMP JUMPDEST SWAP2 POP POP SWAP3 SWAP6 POP SWAP3 SWAP6 POP SWAP3 SWAP6 JUMP JUMPDEST PUSH1 0x0 PUSH1 0x20 DUP3 DUP5 SUB SLT ISZERO PUSH2 0x3802 JUMPI PUSH2 0x3801 PUSH2 0x41EB JUMP JUMPDEST JUMPDEST PUSH1 0x0 PUSH2 0x3810 DUP5 DUP3 DUP6 ADD PUSH2 0x365A JUMP JUMPDEST SWAP2 POP POP SWAP3 SWAP2 POP POP JUMP JUMPDEST PUSH1 0x0 DUP1 PUSH1 0x0 DUP1 PUSH1 0x80 DUP6 DUP8 SUB SLT ISZERO PUSH2 0x3833 JUMPI PUSH2 0x3832 PUSH2 0x41EB JUMP JUMPDEST JUMPDEST PUSH1 0x0 PUSH2 0x3841 DUP8 DUP3 DUP9 ADD PUSH2 0x365A JUMP JUMPDEST SWAP5 POP POP PUSH1 0x20 PUSH2 0x3852 DUP8 DUP3 DUP9 ADD PUSH2 0x369D JUMP JUMPDEST SWAP4 POP POP PUSH1 0x40 PUSH2 0x3863 DUP8 DUP3 DUP9 ADD PUSH2 0x369D JUMP JUMPDEST SWAP3 POP POP PUSH1 0x60 PUSH2 0x3874 DUP8 DUP3 DUP9 ADD PUSH2 0x369D JUMP JUMPDEST SWAP2 POP POP SWAP3 SWAP6 SWAP2 SWAP5 POP SWAP3 POP JUMP JUMPDEST PUSH1 0x0 DUP1 PUSH1 0x0 DUP1 PUSH1 0x80 DUP6 DUP8 SUB SLT ISZERO PUSH2 0x389A JUMPI PUSH2 0x3899 PUSH2 0x41EB JUMP JUMPDEST JUMPDEST PUSH1 0x0 DUP6 ADD CALLDATALOAD PUSH8 0xFFFFFFFFFFFFFFFF DUP2 GT ISZERO PUSH2 0x38B8 JUMPI PUSH2 0x38B7 PUSH2 0x41E6 JUMP JUMPDEST JUMPDEST PUSH2 0x38C4 DUP8 DUP3 DUP9 ADD PUSH2 0x366F JUMP JUMPDEST SWAP5 POP POP PUSH1 0x20 DUP6 ADD CALLDATALOAD PUSH8 0xFFFFFFFFFFFFFFFF DUP2 GT ISZERO PUSH2 0x38E5 JUMPI PUSH2 0x38E4 PUSH2 0x41E6 JUMP JUMPDEST JUMPDEST PUSH2 0x38F1 DUP8 DUP3 DUP9 ADD PUSH2 0x366F JUMP JUMPDEST SWAP4 POP POP PUSH1 0x40 DUP6 ADD CALLDATALOAD PUSH8 0xFFFFFFFFFFFFFFFF DUP2 GT ISZERO PUSH2 0x3912 JUMPI PUSH2 0x3911 PUSH2 0x41E6 JUMP JUMPDEST JUMPDEST PUSH2 0x391E DUP8 DUP3 DUP9 ADD PUSH2 0x366F JUMP JUMPDEST SWAP3 POP POP PUSH1 0x60 PUSH2 0x392F DUP8 DUP3 DUP9 ADD PUSH2 0x3645 JUMP JUMPDEST SWAP2 POP POP SWAP3 SWAP6 SWAP2 SWAP5 POP SWAP3 POP JUMP JUMPDEST PUSH1 0x0 PUSH2 0x3947 DUP4 DUP4 PUSH2 0x39CF JUMP JUMPDEST PUSH1 0x20 DUP4 ADD SWAP1 POP SWAP3 SWAP2 POP POP JUMP JUMPDEST PUSH2 0x395C DUP2 PUSH2 0x3FA7 JUMP JUMPDEST DUP3 MSTORE POP POP JUMP JUMPDEST PUSH1 0x0 PUSH2 0x396D DUP3 PUSH2 0x3E42 JUMP JUMPDEST PUSH2 0x3977 DUP2 DUP6 PUSH2 0x3E65 JUMP JUMPDEST SWAP4 POP PUSH2 0x3982 DUP4 PUSH2 0x3E32 JUMP JUMPDEST DUP1 PUSH1 0x0 JUMPDEST DUP4 DUP2 LT ISZERO PUSH2 0x39B3 JUMPI DUP2 MLOAD PUSH2 0x399A DUP9 DUP3 PUSH2 0x393B JUMP JUMPDEST SWAP8 POP PUSH2 0x39A5 DUP4 PUSH2 0x3E58 JUMP JUMPDEST SWAP3 POP POP PUSH1 0x1 DUP2 ADD SWAP1 POP PUSH2 0x3986 JUMP JUMPDEST POP DUP6 SWAP4 POP POP POP POP SWAP3 SWAP2 POP POP JUMP JUMPDEST PUSH2 0x39C9 DUP2 PUSH2 0x3FB9 JUMP JUMPDEST DUP3 MSTORE POP POP JUMP JUMPDEST PUSH2 0x39D8 DUP2 PUSH2 0x3FC5 JUMP JUMPDEST DUP3 MSTORE POP POP JUMP JUMPDEST PUSH2 0x39E7 DUP2 PUSH2 0x3FC5 JUMP JUMPDEST DUP3 MSTORE POP POP JUMP JUMPDEST PUSH1 0x0 PUSH2 0x39F8 DUP3 PUSH2 0x3E4D JUMP JUMPDEST PUSH2 0x3A02 DUP2 DUP6 PUSH2 0x3E76 JUMP JUMPDEST SWAP4 POP PUSH2 0x3A12 DUP2 DUP6 PUSH1 0x20 DUP7 ADD PUSH2 0x4008 JUMP JUMPDEST PUSH2 0x3A1B DUP2 PUSH2 0x41F0 JUMP JUMPDEST DUP5 ADD SWAP2 POP POP SWAP3 SWAP2 POP POP JUMP JUMPDEST PUSH1 0x0 PUSH2 0x3A31 DUP3 PUSH2 0x3E4D JUMP JUMPDEST PUSH2 0x3A3B DUP2 DUP6 PUSH2 0x3E87 JUMP JUMPDEST SWAP4 POP PUSH2 0x3A4B DUP2 DUP6 PUSH1 0x20 DUP7 ADD PUSH2 0x4008 JUMP JUMPDEST DUP1 DUP5 ADD SWAP2 POP POP SWAP3 SWAP2 POP POP JUMP JUMPDEST PUSH1 0x0 PUSH2 0x3A64 PUSH1 0x19 DUP4 PUSH2 0x3E76 JUMP JUMPDEST SWAP2 POP PUSH2 0x3A6F DUP3 PUSH2 0x4201 JUMP JUMPDEST PUSH1 0x20 DUP3 ADD SWAP1 POP SWAP2 SWAP1 POP JUMP JUMPDEST PUSH1 0x0 PUSH2 0x3A87 PUSH1 0x9 DUP4 PUSH2 0x3E76 JUMP JUMPDEST SWAP2 POP PUSH2 0x3A92 DUP3 PUSH2 0x422A JUMP JUMPDEST PUSH1 0x20 DUP3 ADD SWAP1 POP SWAP2 SWAP1 POP JUMP JUMPDEST PUSH1 0x0 PUSH2 0x3AAA PUSH1 0xE DUP4 PUSH2 0x3E76 JUMP JUMPDEST SWAP2 POP PUSH2 0x3AB5 DUP3 PUSH2 0x4253 JUMP JUMPDEST PUSH1 0x20 DUP3 ADD SWAP1 POP SWAP2 SWAP1 POP JUMP JUMPDEST PUSH1 0x0 PUSH2 0x3ACD PUSH1 0xA DUP4 PUSH2 0x3E76 JUMP JUMPDEST SWAP2 POP PUSH2 0x3AD8 DUP3 PUSH2 0x427C JUMP JUMPDEST PUSH1 0x20 DUP3 ADD SWAP1 POP SWAP2 SWAP1 POP JUMP JUMPDEST PUSH1 0x0 PUSH2 0x3AF0 PUSH1 0x15 DUP4 PUSH2 0x3E76 JUMP JUMPDEST SWAP2 POP PUSH2 0x3AFB DUP3 PUSH2 0x42A5 JUMP JUMPDEST PUSH1 0x20 DUP3 ADD SWAP1 POP SWAP2 SWAP1 POP JUMP JUMPDEST PUSH1 0x0 PUSH2 0x3B13 PUSH1 0x15 DUP4 PUSH2 0x3E76 JUMP JUMPDEST SWAP2 POP PUSH2 0x3B1E DUP3 PUSH2 0x42CE JUMP JUMPDEST PUSH1 0x20 DUP3 ADD SWAP1 POP SWAP2 SWAP1 POP JUMP JUMPDEST PUSH1 0x0 PUSH2 0x3B36 PUSH1 0x11 DUP4 PUSH2 0x3E76 JUMP JUMPDEST SWAP2 POP PUSH2 0x3B41 DUP3 PUSH2 0x42F7 JUMP JUMPDEST PUSH1 0x20 DUP3 ADD SWAP1 POP SWAP2 SWAP1 POP JUMP JUMPDEST PUSH1 0xA0 DUP3 ADD PUSH1 0x0 DUP3 ADD MLOAD PUSH2 0x3B62 PUSH1 0x0 DUP6 ADD DUP3 PUSH2 0x3BB4 JUMP JUMPDEST POP PUSH1 0x20 DUP3 ADD MLOAD PUSH2 0x3B75 PUSH1 0x20 DUP6 ADD DUP3 PUSH2 0x3BB4 JUMP JUMPDEST POP PUSH1 0x40 DUP3 ADD MLOAD PUSH2 0x3B88 PUSH1 0x40 DUP6 ADD DUP3 PUSH2 0x3BB4 JUMP JUMPDEST POP PUSH1 0x60 DUP3 ADD MLOAD PUSH2 0x3B9B PUSH1 0x60 DUP6 ADD DUP3 PUSH2 0x3BB4 JUMP JUMPDEST POP PUSH1 0x80 DUP3 ADD MLOAD PUSH2 0x3BAE PUSH1 0x80 DUP6 ADD DUP3 PUSH2 0x3BB4 JUMP JUMPDEST POP POP POP POP JUMP JUMPDEST PUSH2 0x3BBD DUP2 PUSH2 0x3FEF JUMP JUMPDEST DUP3 MSTORE POP POP JUMP JUMPDEST PUSH2 0x3BCC DUP2 PUSH2 0x3FEF JUMP JUMPDEST DUP3 MSTORE POP POP JUMP JUMPDEST PUSH2 0x3BE3 PUSH2 0x3BDE DUP3 PUSH2 0x3FEF JUMP JUMPDEST PUSH2 0x40E7 JUMP JUMPDEST DUP3 MSTORE POP POP JUMP JUMPDEST PUSH1 0x0 PUSH2 0x3BF5 DUP3 DUP5 PUSH2 0x3A26 JUMP JUMPDEST SWAP2 POP DUP2 SWAP1 POP SWAP3 SWAP2 POP POP JUMP JUMPDEST PUSH1 0x0 PUSH2 0x3C0C DUP3 DUP5 PUSH2 0x3BD2 JUMP JUMPDEST PUSH1 0x20 DUP3 ADD SWAP2 POP DUP2 SWAP1 POP SWAP3 SWAP2 POP POP JUMP JUMPDEST PUSH1 0x0 PUSH1 0x40 DUP3 ADD SWAP1 POP PUSH2 0x3C30 PUSH1 0x0 DUP4 ADD DUP6 PUSH2 0x3953 JUMP JUMPDEST PUSH2 0x3C3D PUSH1 0x20 DUP4 ADD DUP5 PUSH2 0x3BC3 JUMP JUMPDEST SWAP4 SWAP3 POP POP POP JUMP JUMPDEST PUSH1 0x0 PUSH1 0x20 DUP3 ADD SWAP1 POP DUP2 DUP2 SUB PUSH1 0x0 DUP4 ADD MSTORE PUSH2 0x3C5E DUP2 DUP5 PUSH2 0x3962 JUMP JUMPDEST SWAP1 POP SWAP3 SWAP2 POP POP JUMP JUMPDEST PUSH1 0x0 PUSH1 0x20 DUP3 ADD SWAP1 POP PUSH2 0x3C7B PUSH1 0x0 DUP4 ADD DUP5 PUSH2 0x39C0 JUMP JUMPDEST SWAP3 SWAP2 POP POP JUMP JUMPDEST PUSH1 0x0 PUSH1 0x20 DUP3 ADD SWAP1 POP PUSH2 0x3C96 PUSH1 0x0 DUP4 ADD DUP5 PUSH2 0x39DE JUMP JUMPDEST SWAP3 SWAP2 POP POP JUMP JUMPDEST PUSH1 0x0 PUSH1 0xE0 DUP3 ADD SWAP1 POP DUP2 DUP2 SUB PUSH1 0x0 DUP4 ADD MSTORE PUSH2 0x3CB6 DUP2 DUP7 PUSH2 0x39ED JUMP JUMPDEST SWAP1 POP DUP2 DUP2 SUB PUSH1 0x20 DUP4 ADD MSTORE PUSH2 0x3CCA DUP2 DUP6 PUSH2 0x39ED JUMP JUMPDEST SWAP1 POP PUSH2 0x3CD9 PUSH1 0x40 DUP4 ADD DUP5 PUSH2 0x3B4C JUMP JUMPDEST SWAP5 SWAP4 POP POP POP POP JUMP JUMPDEST PUSH1 0x0 PUSH1 0x20 DUP3 ADD SWAP1 POP DUP2 DUP2 SUB PUSH1 0x0 DUP4 ADD MSTORE PUSH2 0x3CFA DUP2 PUSH2 0x3A57 JUMP JUMPDEST SWAP1 POP SWAP2 SWAP1 POP JUMP JUMPDEST PUSH1 0x0 PUSH1 0x20 DUP3 ADD SWAP1 POP DUP2 DUP2 SUB PUSH1 0x0 DUP4 ADD MSTORE PUSH2 0x3D1A DUP2 PUSH2 0x3A7A JUMP JUMPDEST SWAP1 POP SWAP2 SWAP1 POP JUMP JUMPDEST PUSH1 0x0 PUSH1 0x20 DUP3 ADD SWAP1 POP DUP2 DUP2 SUB PUSH1 0x0 DUP4 ADD MSTORE PUSH2 0x3D3A DUP2 PUSH2 0x3A9D JUMP JUMPDEST SWAP1 POP SWAP2 SWAP1 POP JUMP JUMPDEST PUSH1 0x0 PUSH1 0x20 DUP3 ADD SWAP1 POP DUP2 DUP2 SUB PUSH1 0x0 DUP4 ADD MSTORE PUSH2 0x3D5A DUP2 PUSH2 0x3AC0 JUMP JUMPDEST SWAP1 POP SWAP2 SWAP1 POP JUMP JUMPDEST PUSH1 0x0 PUSH1 0x20 DUP3 ADD SWAP1 POP DUP2 DUP2 SUB PUSH1 0x0 DUP4 ADD MSTORE PUSH2 0x3D7A DUP2 PUSH2 0x3AE3 JUMP JUMPDEST SWAP1 POP SWAP2 SWAP1 POP JUMP JUMPDEST PUSH1 0x0 PUSH1 0x20 DUP3 ADD SWAP1 POP DUP2 DUP2 SUB PUSH1 0x0 DUP4 ADD MSTORE PUSH2 0x3D9A DUP2 PUSH2 0x3B06 JUMP JUMPDEST SWAP1 POP SWAP2 SWAP1 POP JUMP JUMPDEST PUSH1 0x0 PUSH1 0x20 DUP3 ADD SWAP1 POP DUP2 DUP2 SUB PUSH1 0x0 DUP4 ADD MSTORE PUSH2 0x3DBA DUP2 PUSH2 0x3B29 JUMP JUMPDEST SWAP1 POP SWAP2 SWAP1 POP JUMP JUMPDEST PUSH1 0x0 PUSH1 0x20 DUP3 ADD SWAP1 POP PUSH2 0x3DD6 PUSH1 0x0 DUP4 ADD DUP5 PUSH2 0x3BC3 JUMP JUMPDEST SWAP3 SWAP2 POP POP JUMP JUMPDEST PUSH1 0x0 PUSH2 0x3DE6 PUSH2 0x3DF7 JUMP JUMPDEST SWAP1 POP PUSH2 0x3DF2 DUP3 DUP3 PUSH2 0x406D JUMP JUMPDEST SWAP2 SWAP1 POP JUMP JUMPDEST PUSH1 0x0 PUSH1 0x40 MLOAD SWAP1 POP SWAP1 JUMP JUMPDEST PUSH1 0x0 PUSH8 0xFFFFFFFFFFFFFFFF DUP3 GT ISZERO PUSH2 0x3E1C JUMPI PUSH2 0x3E1B PUSH2 0x41AD JUMP JUMPDEST JUMPDEST PUSH2 0x3E25 DUP3 PUSH2 0x41F0 JUMP JUMPDEST SWAP1 POP PUSH1 0x20 DUP2 ADD SWAP1 POP SWAP2 SWAP1 POP JUMP JUMPDEST PUSH1 0x0 DUP2 SWAP1 POP PUSH1 0x20 DUP3 ADD SWAP1 POP SWAP2 SWAP1 POP JUMP JUMPDEST PUSH1 0x0 DUP2 MLOAD SWAP1 POP SWAP2 SWAP1 POP JUMP JUMPDEST PUSH1 0x0 DUP2 MLOAD SWAP1 POP SWAP2 SWAP1 POP JUMP JUMPDEST PUSH1 0x0 PUSH1 0x20 DUP3 ADD SWAP1 POP SWAP2 SWAP1 POP JUMP JUMPDEST PUSH1 0x0 DUP3 DUP3 MSTORE PUSH1 0x20 DUP3 ADD SWAP1 POP SWAP3 SWAP2 POP POP JUMP JUMPDEST PUSH1 0x0 DUP3 DUP3 MSTORE PUSH1 0x20 DUP3 ADD SWAP1 POP SWAP3 SWAP2 POP POP JUMP JUMPDEST PUSH1 0x0 DUP2 SWAP1 POP SWAP3 SWAP2 POP POP JUMP JUMPDEST PUSH1 0x0 PUSH2 0x3E9D DUP3 PUSH2 0x3FEF JUMP JUMPDEST SWAP2 POP PUSH2 0x3EA8 DUP4 PUSH2 0x3FEF JUMP JUMPDEST SWAP3 POP DUP3 PUSH32 0xFFFFFFFFFFFFFFFFFFFFFFFFFFFFFFFFFFFFFFFFFFFFFFFFFFFFFFFFFFFFFFFF SUB DUP3 GT ISZERO PUSH2 0x3EDD JUMPI PUSH2 0x3EDC PUSH2 0x40F1 JUMP JUMPDEST JUMPDEST DUP3 DUP3 ADD SWAP1 POP SWAP3 SWAP2 POP POP JUMP JUMPDEST PUSH1 0x0 PUSH2 0x3EF3 DUP3 PUSH2 0x3FEF JUMP JUMPDEST SWAP2 POP PUSH2 0x3EFE DUP4 PUSH2 0x3FEF JUMP JUMPDEST SWAP3 POP DUP3 PUSH2 0x3F0E JUMPI PUSH2 0x3F0D PUSH2 0x4120 JUMP JUMPDEST JUMPDEST DUP3 DUP3 DIV SWAP1 POP SWAP3 SWAP2 POP POP JUMP JUMPDEST PUSH1 0x0 PUSH2 0x3F24 DUP3 PUSH2 0x3FEF JUMP JUMPDEST SWAP2 POP PUSH2 0x3F2F DUP4 PUSH2 0x3FEF JUMP JUMPDEST SWAP3 POP DUP2 PUSH32 0xFFFFFFFFFFFFFFFFFFFFFFFFFFFFFFFFFFFFFFFFFFFFFFFFFFFFFFFFFFFFFFFF DIV DUP4 GT DUP3 ISZERO ISZERO AND ISZERO PUSH2 0x3F68 JUMPI PUSH2 0x3F67 PUSH2 0x40F1 JUMP JUMPDEST JUMPDEST DUP3 DUP3 MUL SWAP1 POP SWAP3 SWAP2 POP POP JUMP JUMPDEST PUSH1 0x0 PUSH2 0x3F7E DUP3 PUSH2 0x3FEF JUMP JUMPDEST SWAP2 POP PUSH2 0x3F89 DUP4 PUSH2 0x3FEF JUMP JUMPDEST SWAP3 POP DUP3 DUP3 LT ISZERO PUSH2 0x3F9C JUMPI PUSH2 0x3F9B PUSH2 0x40F1 JUMP JUMPDEST JUMPDEST DUP3 DUP3 SUB SWAP1 POP SWAP3 SWAP2 POP POP JUMP JUMPDEST PUSH1 0x0 PUSH2 0x3FB2 DUP3 PUSH2 0x3FCF JUMP JUMPDEST SWAP1 POP SWAP2 SWAP1 POP JUMP JUMPDEST PUSH1 0x0 DUP2 ISZERO ISZERO SWAP1 POP SWAP2 SWAP1 POP JUMP JUMPDEST PUSH1 0x0 DUP2 SWAP1 POP SWAP2 SWAP1 POP JUMP JUMPDEST PUSH1 0x0 PUSH20 0xFFFFFFFFFFFFFFFFFFFFFFFFFFFFFFFFFFFFFFFF DUP3 AND SWAP1 POP SWAP2 SWAP1 POP JUMP JUMPDEST PUSH1 0x0 DUP2 SWAP1 POP SWAP2 SWAP1 POP JUMP JUMPDEST DUP3 DUP2 DUP4 CALLDATACOPY PUSH1 0x0 DUP4 DUP4 ADD MSTORE POP POP POP JUMP JUMPDEST PUSH1 0x0 JUMPDEST DUP4 DUP2 LT ISZERO PUSH2 0x4026 JUMPI DUP1 DUP3 ADD MLOAD DUP2 DUP5 ADD MSTORE PUSH1 0x20 DUP2 ADD SWAP1 POP PUSH2 0x400B JUMP JUMPDEST DUP4 DUP2 GT ISZERO PUSH2 0x4035 JUMPI PUSH1 0x0 DUP5 DUP5 ADD MSTORE JUMPDEST POP POP POP POP JUMP JUMPDEST PUSH1 0x0 PUSH1 0x2 DUP3 DIV SWAP1 POP PUSH1 0x1 DUP3 AND DUP1 PUSH2 0x4053 JUMPI PUSH1 0x7F DUP3 AND SWAP2 POP JUMPDEST PUSH1 0x20 DUP3 LT DUP2 EQ ISZERO PUSH2 0x4067 JUMPI PUSH2 0x4066 PUSH2 0x414F JUMP JUMPDEST JUMPDEST POP SWAP2 SWAP1 POP JUMP JUMPDEST PUSH2 0x4076 DUP3 PUSH2 0x41F0 JUMP JUMPDEST DUP2 ADD DUP2 DUP2 LT PUSH8 0xFFFFFFFFFFFFFFFF DUP3 GT OR ISZERO PUSH2 0x4095 JUMPI PUSH2 0x4094 PUSH2 0x41AD JUMP JUMPDEST JUMPDEST DUP1 PUSH1 0x40 MSTORE POP POP POP JUMP JUMPDEST PUSH1 0x0 PUSH2 0x40A9 DUP3 PUSH2 0x3FEF JUMP JUMPDEST SWAP2 POP PUSH32 0xFFFFFFFFFFFFFFFFFFFFFFFFFFFFFFFFFFFFFFFFFFFFFFFFFFFFFFFFFFFFFFFF DUP3 EQ ISZERO PUSH2 0x40DC JUMPI PUSH2 0x40DB PUSH2 0x40F1 JUMP JUMPDEST JUMPDEST PUSH1 0x1 DUP3 ADD SWAP1 POP SWAP2 SWAP1 POP JUMP JUMPDEST PUSH1 0x0 DUP2 SWAP1 POP SWAP2 SWAP1 POP JUMP JUMPDEST PUSH32 0x4E487B7100000000000000000000000000000000000000000000000000000000 PUSH1 0x0 MSTORE PUSH1 0x11 PUSH1 0x4 MSTORE PUSH1 0x24 PUSH1 0x0 REVERT JUMPDEST PUSH32 0x4E487B7100000000000000000000000000000000000000000000000000000000 PUSH1 0x0 MSTORE PUSH1 0x12 PUSH1 0x4 MSTORE PUSH1 0x24 PUSH1 0x0 REVERT JUMPDEST PUSH32 0x4E487B7100000000000000000000000000000000000000000000000000000000 PUSH1 0x0 MSTORE PUSH1 0x22 PUSH1 0x4 MSTORE PUSH1 0x24 PUSH1 0x0 REVERT JUMPDEST PUSH32 0x4E487B7100000000000000000000000000000000000000000000000000000000 PUSH1 0x0 MSTORE PUSH1 0x32 PUSH1 0x4 MSTORE PUSH1 0x24 PUSH1 0x0 REVERT JUMPDEST PUSH32 0x4E487B7100000000000000000000000000000000000000000000000000000000 PUSH1 0x0 MSTORE PUSH1 0x41 PUSH1 0x4 MSTORE PUSH1 0x24 PUSH1 0x0 REVERT JUMPDEST PUSH1 0x0 DUP1 REVERT JUMPDEST PUSH1 0x0 DUP1 REVERT JUMPDEST PUSH1 0x0 DUP1 REVERT JUMPDEST PUSH1 0x0 DUP1 REVERT JUMPDEST PUSH1 0x0 PUSH1 0x1F NOT PUSH1 0x1F DUP4 ADD AND SWAP1 POP SWAP2 SWAP1 POP JUMP JUMPDEST PUSH32 0x4F6E6C79206F776E65722063616E2063616C6C20746869732E00000000000000 PUSH1 0x0 DUP3 ADD MSTORE POP JUMP JUMPDEST PUSH32 0x6E6F742065786973740000000000000000000000000000000000000000000000 PUSH1 0x0 DUP3 ADD MSTORE POP JUMP JUMPDEST PUSH32 0x706F6F6C206E6F74206578697374000000000000000000000000000000000000 PUSH1 0x0 DUP3 ADD MSTORE POP JUMP JUMPDEST PUSH32 0x7061697220657869737400000000000000000000000000000000000000000000 PUSH1 0x0 DUP3 ADD MSTORE POP JUMP JUMPDEST PUSH32 0x706F6F6C20686173206E6F742066696E69736865640000000000000000000000 PUSH1 0x0 DUP3 ADD MSTORE POP JUMP JUMPDEST PUSH32 0x6E6F7420656E6F75676820766F7465416D6F756E740000000000000000000000 PUSH1 0x0 DUP3 ADD MSTORE POP JUMP JUMPDEST PUSH32 0x706F6F6C206861732066696E6973686564000000000000000000000000000000 PUSH1 0x0 DUP3 ADD MSTORE POP JUMP JUMPDEST PUSH2 0x4329 DUP2 PUSH2 0x3FA7 JUMP JUMPDEST DUP2 EQ PUSH2 0x4334 JUMPI PUSH1 0x0 DUP1 REVERT JUMPDEST POP JUMP JUMPDEST PUSH2 0x4340 DUP2 PUSH2 0x3FB9 JUMP JUMPDEST DUP2 EQ PUSH2 0x434B JUMPI PUSH1 0x0 DUP1 REVERT JUMPDEST POP JUMP JUMPDEST PUSH2 0x4357 DUP2 PUSH2 0x3FC5 JUMP JUMPDEST DUP2 EQ PUSH2 0x4362 JUMPI PUSH1 0x0 DUP1 REVERT JUMPDEST POP JUMP JUMPDEST PUSH2 0x436E DUP2 PUSH2 0x3FEF JUMP JUMPDEST DUP2 EQ PUSH2 0x4379 JUMPI PUSH1 0x0 DUP1 REVERT JUMPDEST POP JUMP INVALID LOG2 PUSH5 0x6970667358 0x22 SLT KECCAK256 PUSH15 0xFB2802CF5E888B685AC814A93966A5 SELFDESTRUCT 0xC6 ADD PUSH10 0xD381E8B558E7B2565BFD 0xCF ADDRESS PUSH5 0x736F6C6343 STOP ADDMOD SMOD STOP CALLER "
				},
				"gasEstimates": {
					"creation": {
						"codeDepositCost": "3466000",
						"executionCost": "infinite",
						"totalCost": "infinite"
					},
					"external": {
						"Award(bytes32,uint256,uint256,uint256)": "infinite",
						"CheckBasal()": "4718",
						"CheckExpect(bytes32)": "infinite",
						"CheckVoteTickets()": "2570",
						"Picking(address,uint256,bytes32,uint256,uint256,uint256)": "infinite",
						"Set_Pool(string,string,string,bool)": "infinite",
						"Test(address,uint256,bytes32,uint256,uint256,uint256)": "infinite",
						"Withdrawal(address,bytes32)": "infinite",
						"getAllPoolKeys()": "infinite",
						"getLastBNB()": "4608",
						"getPool(bytes32)": "infinite",
						"voteWithdrawal(address,uint256)": "infinite",
						"withdrawBNBInContract(address)": "infinite"
					},
					"internal": {
						"addressToString(address)": "infinite",
						"bytes32ToString(bytes32)": "infinite",
						"contains(bytes32)": "2304",
						"strConcat(string memory,string memory)": "infinite",
						"stringCompare(string memory,string memory)": "infinite",
						"toString(bytes memory)": "infinite",
						"uint256ToString(uint256)": "infinite"
					}
				},
				"methodIdentifiers": {
					"Award(bytes32,uint256,uint256,uint256)": "74fe9bc2",
					"CheckBasal()": "3e6ff1a2",
					"CheckExpect(bytes32)": "4121855f",
					"CheckVoteTickets()": "baf41269",
					"Picking(address,uint256,bytes32,uint256,uint256,uint256)": "47e4dd27",
					"Set_Pool(string,string,string,bool)": "357965ba",
					"Test(address,uint256,bytes32,uint256,uint256,uint256)": "22d8325c",
					"Withdrawal(address,bytes32)": "0ce49053",
					"getAllPoolKeys()": "ea8870c0",
					"getLastBNB()": "0c66b373",
					"getPool(bytes32)": "f6c00927",
					"voteWithdrawal(address,uint256)": "9bd0abf1",
					"withdrawBNBInContract(address)": "2775e02c"
				}
			},
			"storageLayout": {
				"storage": [
					{
						"astId": 198,
						"contract": "wwcc-contracts/contracts/wwccPool.sol:WCPOOL",
						"label": "owner",
						"offset": 0,
						"slot": "0",
						"type": "t_address"
					},
					{
						"astId": 200,
						"contract": "wwcc-contracts/contracts/wwccPool.sol:WCPOOL",
						"label": "nextBasalLast",
						"offset": 0,
						"slot": "1",
						"type": "t_uint256"
					},
					{
						"astId": 203,
						"contract": "wwcc-contracts/contracts/wwccPool.sol:WCPOOL",
						"label": "poolKeys",
						"offset": 0,
						"slot": "2",
						"type": "t_array(t_bytes32)dyn_storage"
					},
					{
						"astId": 205,
						"contract": "wwcc-contracts/contracts/wwccPool.sol:WCPOOL",
						"label": "lastBNB",
						"offset": 0,
						"slot": "3",
						"type": "t_uint256"
					},
					{
						"astId": 209,
						"contract": "wwcc-contracts/contracts/wwccPool.sol:WCPOOL",
						"label": "voteAmount",
						"offset": 0,
						"slot": "4",
						"type": "t_mapping(t_address,t_uint256)"
					},
					{
						"astId": 214,
						"contract": "wwcc-contracts/contracts/wwccPool.sol:WCPOOL",
						"label": "WcPools",
						"offset": 0,
						"slot": "5",
						"type": "t_mapping(t_bytes32,t_struct(WcPool)153_storage)"
					},
					{
						"astId": 219,
						"contract": "wwcc-contracts/contracts/wwccPool.sol:WCPOOL",
						"label": "allScorePoolInfo",
						"offset": 0,
						"slot": "6",
						"type": "t_mapping(t_bytes32,t_struct(AllScorePool)171_storage)"
					},
					{
						"astId": 223,
						"contract": "wwcc-contracts/contracts/wwccPool.sol:WCPOOL",
						"label": "singleScorePool",
						"offset": 0,
						"slot": "7",
						"type": "t_mapping(t_string_memory_ptr,t_uint256)"
					},
					{
						"astId": 228,
						"contract": "wwcc-contracts/contracts/wwccPool.sol:WCPOOL",
						"label": "joinerAllPicking",
						"offset": 0,
						"slot": "8",
						"type": "t_mapping(t_address,t_struct(JoinerAllPicking)178_storage)"
					}
				],
				"types": {
					"t_address": {
						"encoding": "inplace",
						"label": "address",
						"numberOfBytes": "20"
					},
					"t_array(t_bytes32)dyn_storage": {
						"base": "t_bytes32",
						"encoding": "dynamic_array",
						"label": "bytes32[]",
						"numberOfBytes": "32"
					},
					"t_array(t_struct(JoinerPicking)193_storage)dyn_storage": {
						"base": "t_struct(JoinerPicking)193_storage",
						"encoding": "dynamic_array",
						"label": "struct WCPOOL.JoinerPicking[]",
						"numberOfBytes": "32"
					},
					"t_bool": {
						"encoding": "inplace",
						"label": "bool",
						"numberOfBytes": "1"
					},
					"t_bytes32": {
						"encoding": "inplace",
						"label": "bytes32",
						"numberOfBytes": "32"
					},
					"t_mapping(t_address,t_struct(JoinerAllPicking)178_storage)": {
						"encoding": "mapping",
						"key": "t_address",
						"label": "mapping(address => struct WCPOOL.JoinerAllPicking)",
						"numberOfBytes": "32",
						"value": "t_struct(JoinerAllPicking)178_storage"
					},
					"t_mapping(t_address,t_uint256)": {
						"encoding": "mapping",
						"key": "t_address",
						"label": "mapping(address => uint256)",
						"numberOfBytes": "32",
						"value": "t_uint256"
					},
					"t_mapping(t_bytes32,t_struct(AllScorePool)171_storage)": {
						"encoding": "mapping",
						"key": "t_bytes32",
						"label": "mapping(bytes32 => struct WCPOOL.AllScorePool)",
						"numberOfBytes": "32",
						"value": "t_struct(AllScorePool)171_storage"
					},
					"t_mapping(t_bytes32,t_struct(WcPool)153_storage)": {
						"encoding": "mapping",
						"key": "t_bytes32",
						"label": "mapping(bytes32 => struct WCPOOL.WcPool)",
						"numberOfBytes": "32",
						"value": "t_struct(WcPool)153_storage"
					},
					"t_mapping(t_string_memory_ptr,t_uint256)": {
						"encoding": "mapping",
						"key": "t_string_memory_ptr",
						"label": "mapping(string => uint256)",
						"numberOfBytes": "32",
						"value": "t_uint256"
					},
					"t_string_memory_ptr": {
						"encoding": "bytes",
						"label": "string",
						"numberOfBytes": "32"
					},
					"t_string_storage": {
						"encoding": "bytes",
						"label": "string",
						"numberOfBytes": "32"
					},
					"t_struct(AllScorePool)171_storage": {
						"encoding": "inplace",
						"label": "struct WCPOOL.AllScorePool",
						"members": [
							{
								"astId": 168,
								"contract": "wwcc-contracts/contracts/wwccPool.sol:WCPOOL",
								"label": "separateBet",
								"offset": 0,
								"slot": "0",
								"type": "t_array(t_struct(JoinerPicking)193_storage)dyn_storage"
							},
							{
								"astId": 170,
								"contract": "wwcc-contracts/contracts/wwccPool.sol:WCPOOL",
								"label": "poolKey",
								"offset": 0,
								"slot": "1",
								"type": "t_bytes32"
							}
						],
						"numberOfBytes": "64"
					},
					"t_struct(JoinerAllPicking)178_storage": {
						"encoding": "inplace",
						"label": "struct WCPOOL.JoinerAllPicking",
						"members": [
							{
								"astId": 175,
								"contract": "wwcc-contracts/contracts/wwccPool.sol:WCPOOL",
								"label": "separateBet",
								"offset": 0,
								"slot": "0",
								"type": "t_array(t_struct(JoinerPicking)193_storage)dyn_storage"
							},
							{
								"astId": 177,
								"contract": "wwcc-contracts/contracts/wwccPool.sol:WCPOOL",
								"label": "joiner",
								"offset": 0,
								"slot": "1",
								"type": "t_address"
							}
						],
						"numberOfBytes": "64"
					},
					"t_struct(JoinerPicking)193_storage": {
						"encoding": "inplace",
						"label": "struct WCPOOL.JoinerPicking",
						"members": [
							{
								"astId": 180,
								"contract": "wwcc-contracts/contracts/wwccPool.sol:WCPOOL",
								"label": "weight",
								"offset": 0,
								"slot": "0",
								"type": "t_uint256"
							},
							{
								"astId": 182,
								"contract": "wwcc-contracts/contracts/wwccPool.sol:WCPOOL",
								"label": "kind",
								"offset": 0,
								"slot": "1",
								"type": "t_uint256"
							},
							{
								"astId": 184,
								"contract": "wwcc-contracts/contracts/wwccPool.sol:WCPOOL",
								"label": "homeScore",
								"offset": 0,
								"slot": "2",
								"type": "t_uint256"
							},
							{
								"astId": 186,
								"contract": "wwcc-contracts/contracts/wwccPool.sol:WCPOOL",
								"label": "visitScore",
								"offset": 0,
								"slot": "3",
								"type": "t_uint256"
							},
							{
								"astId": 188,
								"contract": "wwcc-contracts/contracts/wwccPool.sol:WCPOOL",
								"label": "joiner",
								"offset": 0,
								"slot": "4",
								"type": "t_address"
							},
							{
								"astId": 190,
								"contract": "wwcc-contracts/contracts/wwccPool.sol:WCPOOL",
								"label": "pickingKey",
								"offset": 0,
								"slot": "5",
								"type": "t_string_storage"
							},
							{
								"astId": 192,
								"contract": "wwcc-contracts/contracts/wwccPool.sol:WCPOOL",
								"label": "finished",
								"offset": 0,
								"slot": "6",
								"type": "t_bool"
							}
						],
						"numberOfBytes": "224"
					},
					"t_struct(WcPool)153_storage": {
						"encoding": "inplace",
						"label": "struct WCPOOL.WcPool",
						"members": [
							{
								"astId": 132,
								"contract": "wwcc-contracts/contracts/wwccPool.sol:WCPOOL",
								"label": "home",
								"offset": 0,
								"slot": "0",
								"type": "t_string_storage"
							},
							{
								"astId": 134,
								"contract": "wwcc-contracts/contracts/wwccPool.sol:WCPOOL",
								"label": "visit",
								"offset": 0,
								"slot": "1",
								"type": "t_string_storage"
							},
							{
								"astId": 136,
								"contract": "wwcc-contracts/contracts/wwccPool.sol:WCPOOL",
								"label": "rounds",
								"offset": 0,
								"slot": "2",
								"type": "t_string_storage"
							},
							{
								"astId": 138,
								"contract": "wwcc-contracts/contracts/wwccPool.sol:WCPOOL",
								"label": "wPool",
								"offset": 0,
								"slot": "3",
								"type": "t_uint256"
							},
							{
								"astId": 140,
								"contract": "wwcc-contracts/contracts/wwccPool.sol:WCPOOL",
								"label": "dPool",
								"offset": 0,
								"slot": "4",
								"type": "t_uint256"
							},
							{
								"astId": 142,
								"contract": "wwcc-contracts/contracts/wwccPool.sol:WCPOOL",
								"label": "lPool",
								"offset": 0,
								"slot": "5",
								"type": "t_uint256"
							},
							{
								"astId": 144,
								"contract": "wwcc-contracts/contracts/wwccPool.sol:WCPOOL",
								"label": "sPool",
								"offset": 0,
								"slot": "6",
								"type": "t_uint256"
							},
							{
								"astId": 146,
								"contract": "wwcc-contracts/contracts/wwccPool.sol:WCPOOL",
								"label": "basal",
								"offset": 0,
								"slot": "7",
								"type": "t_uint256"
							},
							{
								"astId": 148,
								"contract": "wwcc-contracts/contracts/wwccPool.sol:WCPOOL",
								"label": "decided",
								"offset": 0,
								"slot": "8",
								"type": "t_bool"
							},
							{
								"astId": 150,
								"contract": "wwcc-contracts/contracts/wwccPool.sol:WCPOOL",
								"label": "used",
								"offset": 1,
								"slot": "8",
								"type": "t_bool"
							},
							{
								"astId": 152,
								"contract": "wwcc-contracts/contracts/wwccPool.sol:WCPOOL",
								"label": "finished",
								"offset": 2,
								"slot": "8",
								"type": "t_bool"
							}
						],
						"numberOfBytes": "288"
					},
					"t_uint256": {
						"encoding": "inplace",
						"label": "uint256",
						"numberOfBytes": "32"
					}
				}
			},
			"userdoc": {
				"kind": "user",
				"methods": {},
				"version": 1
			}
		}
	}
}