{
	"wwcc-contracts/contracts/wwccPool.sol": {
		"WCPOOL": {
			"abi": [
				{
					"inputs": [
						{
							"internalType": "address",
							"name": "holder",
							"type": "address"
						},
						{
							"internalType": "uint256",
							"name": "firstBasal",
							"type": "uint256"
						}
					],
					"stateMutability": "nonpayable",
					"type": "constructor"
				},
				{
					"anonymous": false,
					"inputs": [
						{
							"indexed": false,
							"internalType": "address",
							"name": "",
							"type": "address"
						},
						{
							"indexed": false,
							"internalType": "uint256",
							"name": "",
							"type": "uint256"
						}
					],
					"name": "Received",
					"type": "event"
				},
				{
					"inputs": [
						{
							"internalType": "bytes32",
							"name": "poolKey",
							"type": "bytes32"
						},
						{
							"internalType": "uint256",
							"name": "homeScore",
							"type": "uint256"
						},
						{
							"internalType": "uint256",
							"name": "visitScore",
							"type": "uint256"
						},
						{
							"internalType": "uint256",
							"name": "result",
							"type": "uint256"
						}
					],
					"name": "Award",
					"outputs": [
						{
							"internalType": "bool",
							"name": "",
							"type": "bool"
						}
					],
					"stateMutability": "payable",
					"type": "function"
				},
				{
					"inputs": [],
					"name": "CheckBasal",
					"outputs": [
						{
							"internalType": "uint256",
							"name": "",
							"type": "uint256"
						}
					],
					"stateMutability": "view",
					"type": "function"
				},
				{
					"inputs": [
						{
							"internalType": "bytes32",
							"name": "poolKey",
							"type": "bytes32"
						}
					],
					"name": "CheckExpect",
					"outputs": [
						{
							"internalType": "uint256",
							"name": "",
							"type": "uint256"
						}
					],
					"stateMutability": "view",
					"type": "function"
				},
				{
					"inputs": [],
					"name": "CheckVoteTickets",
					"outputs": [
						{
							"internalType": "uint256",
							"name": "",
							"type": "uint256"
						}
					],
					"stateMutability": "view",
					"type": "function"
				},
				{
					"inputs": [
						{
							"internalType": "address",
							"name": "joiner",
							"type": "address"
						},
						{
							"internalType": "uint256",
							"name": "weight",
							"type": "uint256"
						},
						{
							"internalType": "bytes32",
							"name": "poolKey",
							"type": "bytes32"
						},
						{
							"internalType": "uint256",
							"name": "homeScore",
							"type": "uint256"
						},
						{
							"internalType": "uint256",
							"name": "visitScore",
							"type": "uint256"
						},
						{
							"internalType": "uint256",
							"name": "kind",
							"type": "uint256"
						}
					],
					"name": "Picking",
					"outputs": [
						{
							"internalType": "bool",
							"name": "",
							"type": "bool"
						}
					],
					"stateMutability": "nonpayable",
					"type": "function"
				},
				{
					"inputs": [
						{
							"internalType": "bytes32",
							"name": "poolKey",
							"type": "bytes32"
						},
						{
							"internalType": "uint256",
							"name": "basal",
							"type": "uint256"
						}
					],
					"name": "Set_Basal",
					"outputs": [
						{
							"internalType": "bool",
							"name": "",
							"type": "bool"
						}
					],
					"stateMutability": "nonpayable",
					"type": "function"
				},
				{
					"inputs": [
						{
							"internalType": "string",
							"name": "home",
							"type": "string"
						},
						{
							"internalType": "string",
							"name": "visit",
							"type": "string"
						},
						{
							"internalType": "string",
							"name": "rounds",
							"type": "string"
						},
						{
							"internalType": "bool",
							"name": "decided",
							"type": "bool"
						}
					],
					"name": "Set_Pool",
					"outputs": [
						{
							"internalType": "bytes32",
							"name": "",
							"type": "bytes32"
						}
					],
					"stateMutability": "nonpayable",
					"type": "function"
				},
				{
					"inputs": [
						{
							"internalType": "address",
							"name": "toAddress",
							"type": "address"
						},
						{
							"internalType": "bytes32",
							"name": "poolKey",
							"type": "bytes32"
						}
					],
					"name": "Withdrawal",
					"outputs": [
						{
							"internalType": "bool",
							"name": "",
							"type": "bool"
						}
					],
					"stateMutability": "payable",
					"type": "function"
				},
				{
					"inputs": [],
					"name": "getAllPool",
					"outputs": [
						{
							"internalType": "bytes32[]",
							"name": "",
							"type": "bytes32[]"
						}
					],
					"stateMutability": "view",
					"type": "function"
				},
				{
					"inputs": [
						{
							"internalType": "bytes32",
							"name": "poolKey",
							"type": "bytes32"
						}
					],
					"name": "getPool",
					"outputs": [
						{
							"internalType": "string",
							"name": "vs",
							"type": "string"
						},
						{
							"internalType": "string",
							"name": "rounds",
							"type": "string"
						},
						{
							"components": [
								{
									"internalType": "uint256",
									"name": "wPool",
									"type": "uint256"
								},
								{
									"internalType": "uint256",
									"name": "dPool",
									"type": "uint256"
								},
								{
									"internalType": "uint256",
									"name": "lPool",
									"type": "uint256"
								},
								{
									"internalType": "uint256",
									"name": "sPool",
									"type": "uint256"
								},
								{
									"internalType": "uint256",
									"name": "basal",
									"type": "uint256"
								}
							],
							"internalType": "struct WCPOOL.PoolViewInfo",
							"name": "viewInfo",
							"type": "tuple"
						}
					],
					"stateMutability": "view",
					"type": "function"
				},
				{
					"inputs": [
						{
							"internalType": "address",
							"name": "joiner",
							"type": "address"
						},
						{
							"internalType": "uint256",
							"name": "amount",
							"type": "uint256"
						}
					],
					"name": "voteWithdrawal",
					"outputs": [
						{
							"internalType": "bool",
							"name": "",
							"type": "bool"
						}
					],
					"stateMutability": "payable",
					"type": "function"
				},
				{
					"inputs": [
						{
							"internalType": "address",
							"name": "toAddress",
							"type": "address"
						}
					],
					"name": "withdrawBNBInContract",
					"outputs": [
						{
							"internalType": "bool",
							"name": "",
							"type": "bool"
						}
					],
					"stateMutability": "payable",
					"type": "function"
				},
				{
					"stateMutability": "payable",
					"type": "receive"
				}
			],
			"devdoc": {
				"kind": "dev",
				"methods": {},
				"version": 1
			},
			"evm": {
				"assembly": "    /* \"wwcc-contracts/contracts/wwccPool.sol\":96:13799  contract WCPOOL {... */\n  mstore(0x40, 0x80)\n    /* \"wwcc-contracts/contracts/wwccPool.sol\":1776:1997  constructor(... */\n  callvalue\n  dup1\n  iszero\n  tag_1\n  jumpi\n  0x00\n  dup1\n  revert\ntag_1:\n  pop\n  mload(0x40)\n  sub(codesize, bytecodeSize)\n  dup1\n  bytecodeSize\n  dup4\n  codecopy\n  dup2\n  dup2\n  add\n  0x40\n  mstore\n  dup2\n  add\n  swap1\n  tag_2\n  swap2\n  swap1\n  tag_3\n  jump\t// in\ntag_2:\n    /* \"wwcc-contracts/contracts/wwccPool.sol\":1857:1863  holder */\n  dup2\n    /* \"wwcc-contracts/contracts/wwccPool.sol\":1849:1854  owner */\n  0x00\n  dup1\n    /* \"wwcc-contracts/contracts/wwccPool.sol\":1849:1863  owner = holder */\n  0x0100\n  exp\n  dup2\n  sload\n  dup2\n  0xffffffffffffffffffffffffffffffffffffffff\n  mul\n  not\n  and\n  swap1\n  dup4\n  0xffffffffffffffffffffffffffffffffffffffff\n  and\n  mul\n  or\n  swap1\n  sstore\n  pop\n    /* \"wwcc-contracts/contracts/wwccPool.sol\":1883:1884  0 */\n  0x00\n    /* \"wwcc-contracts/contracts/wwccPool.sol\":1873:1880  lastBNB */\n  0x03\n    /* \"wwcc-contracts/contracts/wwccPool.sol\":1873:1884  lastBNB = 0 */\n  dup2\n  swap1\n  sstore\n  pop\n    /* \"wwcc-contracts/contracts/wwccPool.sol\":1910:1920  firstBasal */\n  dup1\n    /* \"wwcc-contracts/contracts/wwccPool.sol\":1894:1907  nextBasalLast */\n  0x01\n    /* \"wwcc-contracts/contracts/wwccPool.sol\":1894:1920  nextBasalLast = firstBasal */\n  dup2\n  swap1\n  sstore\n  pop\n    /* \"wwcc-contracts/contracts/wwccPool.sol\":1776:1997  constructor(... */\n  pop\n  pop\n    /* \"wwcc-contracts/contracts/wwccPool.sol\":96:13799  contract WCPOOL {... */\n  jump(tag_6)\n    /* \"#utility.yul\":7:150   */\ntag_8:\n    /* \"#utility.yul\":64:69   */\n  0x00\n    /* \"#utility.yul\":95:101   */\n  dup2\n    /* \"#utility.yul\":89:102   */\n  mload\n    /* \"#utility.yul\":80:102   */\n  swap1\n  pop\n    /* \"#utility.yul\":111:144   */\n  tag_10\n    /* \"#utility.yul\":138:143   */\n  dup2\n    /* \"#utility.yul\":111:144   */\n  tag_11\n  jump\t// in\ntag_10:\n    /* \"#utility.yul\":7:150   */\n  swap3\n  swap2\n  pop\n  pop\n  jump\t// out\n    /* \"#utility.yul\":156:299   */\ntag_12:\n    /* \"#utility.yul\":213:218   */\n  0x00\n    /* \"#utility.yul\":244:250   */\n  dup2\n    /* \"#utility.yul\":238:251   */\n  mload\n    /* \"#utility.yul\":229:251   */\n  swap1\n  pop\n    /* \"#utility.yul\":260:293   */\n  tag_14\n    /* \"#utility.yul\":287:292   */\n  dup2\n    /* \"#utility.yul\":260:293   */\n  tag_15\n  jump\t// in\ntag_14:\n    /* \"#utility.yul\":156:299   */\n  swap3\n  swap2\n  pop\n  pop\n  jump\t// out\n    /* \"#utility.yul\":305:812   */\ntag_3:\n    /* \"#utility.yul\":384:390   */\n  0x00\n    /* \"#utility.yul\":392:398   */\n  dup1\n    /* \"#utility.yul\":441:443   */\n  0x40\n    /* \"#utility.yul\":429:438   */\n  dup4\n    /* \"#utility.yul\":420:427   */\n  dup6\n    /* \"#utility.yul\":416:439   */\n  sub\n    /* \"#utility.yul\":412:444   */\n  slt\n    /* \"#utility.yul\":409:528   */\n  iszero\n  tag_17\n  jumpi\n    /* \"#utility.yul\":447:526   */\n  tag_18\n  tag_19\n  jump\t// in\ntag_18:\n    /* \"#utility.yul\":409:528   */\ntag_17:\n    /* \"#utility.yul\":567:568   */\n  0x00\n    /* \"#utility.yul\":592:656   */\n  tag_20\n    /* \"#utility.yul\":648:655   */\n  dup6\n    /* \"#utility.yul\":639:645   */\n  dup3\n    /* \"#utility.yul\":628:637   */\n  dup7\n    /* \"#utility.yul\":624:646   */\n  add\n    /* \"#utility.yul\":592:656   */\n  tag_8\n  jump\t// in\ntag_20:\n    /* \"#utility.yul\":582:656   */\n  swap3\n  pop\n    /* \"#utility.yul\":538:666   */\n  pop\n    /* \"#utility.yul\":705:707   */\n  0x20\n    /* \"#utility.yul\":731:795   */\n  tag_21\n    /* \"#utility.yul\":787:794   */\n  dup6\n    /* \"#utility.yul\":778:784   */\n  dup3\n    /* \"#utility.yul\":767:776   */\n  dup7\n    /* \"#utility.yul\":763:785   */\n  add\n    /* \"#utility.yul\":731:795   */\n  tag_12\n  jump\t// in\ntag_21:\n    /* \"#utility.yul\":721:795   */\n  swap2\n  pop\n    /* \"#utility.yul\":676:805   */\n  pop\n    /* \"#utility.yul\":305:812   */\n  swap3\n  pop\n  swap3\n  swap1\n  pop\n  jump\t// out\n    /* \"#utility.yul\":899:995   */\ntag_24:\n    /* \"#utility.yul\":936:943   */\n  0x00\n    /* \"#utility.yul\":965:989   */\n  tag_26\n    /* \"#utility.yul\":983:988   */\n  dup3\n    /* \"#utility.yul\":965:989   */\n  tag_27\n  jump\t// in\ntag_26:\n    /* \"#utility.yul\":954:989   */\n  swap1\n  pop\n    /* \"#utility.yul\":899:995   */\n  swap2\n  swap1\n  pop\n  jump\t// out\n    /* \"#utility.yul\":1001:1127   */\ntag_27:\n    /* \"#utility.yul\":1038:1045   */\n  0x00\n    /* \"#utility.yul\":1078:1120   */\n  0xffffffffffffffffffffffffffffffffffffffff\n    /* \"#utility.yul\":1071:1076   */\n  dup3\n    /* \"#utility.yul\":1067:1121   */\n  and\n    /* \"#utility.yul\":1056:1121   */\n  swap1\n  pop\n    /* \"#utility.yul\":1001:1127   */\n  swap2\n  swap1\n  pop\n  jump\t// out\n    /* \"#utility.yul\":1133:1210   */\ntag_29:\n    /* \"#utility.yul\":1170:1177   */\n  0x00\n    /* \"#utility.yul\":1199:1204   */\n  dup2\n    /* \"#utility.yul\":1188:1204   */\n  swap1\n  pop\n    /* \"#utility.yul\":1133:1210   */\n  swap2\n  swap1\n  pop\n  jump\t// out\n    /* \"#utility.yul\":1339:1456   */\ntag_19:\n    /* \"#utility.yul\":1448:1449   */\n  0x00\n    /* \"#utility.yul\":1445:1446   */\n  dup1\n    /* \"#utility.yul\":1438:1450   */\n  revert\n    /* \"#utility.yul\":1462:1584   */\ntag_11:\n    /* \"#utility.yul\":1535:1559   */\n  tag_35\n    /* \"#utility.yul\":1553:1558   */\n  dup2\n    /* \"#utility.yul\":1535:1559   */\n  tag_24\n  jump\t// in\ntag_35:\n    /* \"#utility.yul\":1528:1533   */\n  dup2\n    /* \"#utility.yul\":1525:1560   */\n  eq\n    /* \"#utility.yul\":1515:1578   */\n  tag_36\n  jumpi\n    /* \"#utility.yul\":1574:1575   */\n  0x00\n    /* \"#utility.yul\":1571:1572   */\n  dup1\n    /* \"#utility.yul\":1564:1576   */\n  revert\n    /* \"#utility.yul\":1515:1578   */\ntag_36:\n    /* \"#utility.yul\":1462:1584   */\n  pop\n  jump\t// out\n    /* \"#utility.yul\":1590:1712   */\ntag_15:\n    /* \"#utility.yul\":1663:1687   */\n  tag_38\n    /* \"#utility.yul\":1681:1686   */\n  dup2\n    /* \"#utility.yul\":1663:1687   */\n  tag_29\n  jump\t// in\ntag_38:\n    /* \"#utility.yul\":1656:1661   */\n  dup2\n    /* \"#utility.yul\":1653:1688   */\n  eq\n    /* \"#utility.yul\":1643:1706   */\n  tag_39\n  jumpi\n    /* \"#utility.yul\":1702:1703   */\n  0x00\n    /* \"#utility.yul\":1699:1700   */\n  dup1\n    /* \"#utility.yul\":1692:1704   */\n  revert\n    /* \"#utility.yul\":1643:1706   */\ntag_39:\n    /* \"#utility.yul\":1590:1712   */\n  pop\n  jump\t// out\n    /* \"wwcc-contracts/contracts/wwccPool.sol\":96:13799  contract WCPOOL {... */\ntag_6:\n  dataSize(sub_0)\n  dup1\n  dataOffset(sub_0)\n  0x00\n  codecopy\n  0x00\n  return\nstop\n\nsub_0: assembly {\n        /* \"wwcc-contracts/contracts/wwccPool.sol\":96:13799  contract WCPOOL {... */\n      mstore(0x40, 0x80)\n      jumpi(tag_1, lt(calldatasize, 0x04))\n      shr(0xe0, calldataload(0x00))\n      dup1\n      0x47e4dd27\n      gt\n      tag_15\n      jumpi\n      dup1\n      0x47e4dd27\n      eq\n      tag_9\n      jumpi\n      dup1\n      0x74fe9bc2\n      eq\n      tag_10\n      jumpi\n      dup1\n      0x9bd0abf1\n      eq\n      tag_11\n      jumpi\n      dup1\n      0xa20a4cb4\n      eq\n      tag_12\n      jumpi\n      dup1\n      0xbaf41269\n      eq\n      tag_13\n      jumpi\n      dup1\n      0xf6c00927\n      eq\n      tag_14\n      jumpi\n      jump(tag_2)\n    tag_15:\n      dup1\n      0x0ce49053\n      eq\n      tag_3\n      jumpi\n      dup1\n      0x2775e02c\n      eq\n      tag_4\n      jumpi\n      dup1\n      0x2bf21ecc\n      eq\n      tag_5\n      jumpi\n      dup1\n      0x357965ba\n      eq\n      tag_6\n      jumpi\n      dup1\n      0x3e6ff1a2\n      eq\n      tag_7\n      jumpi\n      dup1\n      0x4121855f\n      eq\n      tag_8\n      jumpi\n      jump(tag_2)\n    tag_1:\n      jumpi(tag_2, calldatasize)\n        /* \"wwcc-contracts/contracts/wwccPool.sol\":13604:13609  owner */\n      0x00\n      dup1\n      sload\n      swap1\n      0x0100\n      exp\n      swap1\n      div\n      0xffffffffffffffffffffffffffffffffffffffff\n      and\n        /* \"wwcc-contracts/contracts/wwccPool.sol\":13590:13609  msg.sender != owner */\n      0xffffffffffffffffffffffffffffffffffffffff\n      and\n        /* \"wwcc-contracts/contracts/wwccPool.sol\":13590:13600  msg.sender */\n      caller\n        /* \"wwcc-contracts/contracts/wwccPool.sol\":13590:13609  msg.sender != owner */\n      0xffffffffffffffffffffffffffffffffffffffff\n      and\n      eq\n        /* \"wwcc-contracts/contracts/wwccPool.sol\":13587:13792  if(msg.sender != owner){... */\n      tag_18\n      jumpi\n        /* \"wwcc-contracts/contracts/wwccPool.sol\":13649:13681  msg.value.div(10000000000000000) */\n      tag_19\n        /* \"wwcc-contracts/contracts/wwccPool.sol\":13663:13680  10000000000000000 */\n      0x2386f26fc10000\n        /* \"wwcc-contracts/contracts/wwccPool.sol\":13649:13658  msg.value */\n      callvalue\n        /* \"wwcc-contracts/contracts/wwccPool.sol\":13649:13662  msg.value.div */\n      tag_20\n      swap1\n        /* \"wwcc-contracts/contracts/wwccPool.sol\":13649:13681  msg.value.div(10000000000000000) */\n      swap2\n      swap1\n      0xffffffff\n      and\n      jump\t// in\n    tag_19:\n        /* \"wwcc-contracts/contracts/wwccPool.sol\":13623:13633  voteAmount */\n      0x04\n        /* \"wwcc-contracts/contracts/wwccPool.sol\":13623:13645  voteAmount[msg.sender] */\n      0x00\n        /* \"wwcc-contracts/contracts/wwccPool.sol\":13634:13644  msg.sender */\n      caller\n        /* \"wwcc-contracts/contracts/wwccPool.sol\":13623:13645  voteAmount[msg.sender] */\n      0xffffffffffffffffffffffffffffffffffffffff\n      and\n      0xffffffffffffffffffffffffffffffffffffffff\n      and\n      dup2\n      mstore\n      0x20\n      add\n      swap1\n      dup2\n      mstore\n      0x20\n      add\n      0x00\n      keccak256\n      0x00\n        /* \"wwcc-contracts/contracts/wwccPool.sol\":13623:13681  voteAmount[msg.sender] += msg.value.div(10000000000000000) */\n      dup3\n      dup3\n      sload\n      tag_21\n      swap2\n      swap1\n      tag_22\n      jump\t// in\n    tag_21:\n      swap3\n      pop\n      pop\n      dup2\n      swap1\n      sstore\n      pop\n        /* \"wwcc-contracts/contracts/wwccPool.sol\":13705:13714  msg.value */\n      callvalue\n        /* \"wwcc-contracts/contracts/wwccPool.sol\":13694:13701  lastBNB */\n      0x03\n      0x00\n        /* \"wwcc-contracts/contracts/wwccPool.sol\":13694:13714  lastBNB += msg.value */\n      dup3\n      dup3\n      sload\n      tag_23\n      swap2\n      swap1\n      tag_22\n      jump\t// in\n    tag_23:\n      swap3\n      pop\n      pop\n      dup2\n      swap1\n      sstore\n      pop\n        /* \"wwcc-contracts/contracts/wwccPool.sol\":13732:13763  Received(msg.sender, msg.value) */\n      0x88a5966d370b9919b20f3e2c13ff65706f196a4e32cc2c12bf57088f88525874\n        /* \"wwcc-contracts/contracts/wwccPool.sol\":13741:13751  msg.sender */\n      caller\n        /* \"wwcc-contracts/contracts/wwccPool.sol\":13753:13762  msg.value */\n      callvalue\n        /* \"wwcc-contracts/contracts/wwccPool.sol\":13732:13763  Received(msg.sender, msg.value) */\n      mload(0x40)\n      tag_24\n      swap3\n      swap2\n      swap1\n      tag_25\n      jump\t// in\n    tag_24:\n      mload(0x40)\n      dup1\n      swap2\n      sub\n      swap1\n      log1\n        /* \"wwcc-contracts/contracts/wwccPool.sol\":13587:13792  if(msg.sender != owner){... */\n      jump(tag_26)\n    tag_18:\n    tag_26:\n        /* \"wwcc-contracts/contracts/wwccPool.sol\":96:13799  contract WCPOOL {... */\n      stop\n    tag_2:\n      0x00\n      dup1\n      revert\n        /* \"wwcc-contracts/contracts/wwccPool.sol\":4928:5607  function Withdrawal(address toAddress,bytes32 poolKey) external onlyManager payable returns (bool){... */\n    tag_3:\n      tag_27\n      0x04\n      dup1\n      calldatasize\n      sub\n      dup2\n      add\n      swap1\n      tag_28\n      swap2\n      swap1\n      tag_29\n      jump\t// in\n    tag_28:\n      tag_30\n      jump\t// in\n    tag_27:\n      mload(0x40)\n      tag_31\n      swap2\n      swap1\n      tag_32\n      jump\t// in\n    tag_31:\n      mload(0x40)\n      dup1\n      swap2\n      sub\n      swap1\n      return\n        /* \"wwcc-contracts/contracts/wwccPool.sol\":10428:10672  function withdrawBNBInContract(address toAddress)external onlyManager payable returns(bool){... */\n    tag_4:\n      tag_33\n      0x04\n      dup1\n      calldatasize\n      sub\n      dup2\n      add\n      swap1\n      tag_34\n      swap2\n      swap1\n      tag_35\n      jump\t// in\n    tag_34:\n      tag_36\n      jump\t// in\n    tag_33:\n      mload(0x40)\n      tag_37\n      swap2\n      swap1\n      tag_32\n      jump\t// in\n    tag_37:\n      mload(0x40)\n      dup1\n      swap2\n      sub\n      swap1\n      return\n        /* \"wwcc-contracts/contracts/wwccPool.sol\":4363:4885  function Set_Basal(bytes32 poolKey,uint256 basal) external onlyManager  returns (bool){... */\n    tag_5:\n      callvalue\n      dup1\n      iszero\n      tag_38\n      jumpi\n      0x00\n      dup1\n      revert\n    tag_38:\n      pop\n      tag_39\n      0x04\n      dup1\n      calldatasize\n      sub\n      dup2\n      add\n      swap1\n      tag_40\n      swap2\n      swap1\n      tag_41\n      jump\t// in\n    tag_40:\n      tag_42\n      jump\t// in\n    tag_39:\n      mload(0x40)\n      tag_43\n      swap2\n      swap1\n      tag_32\n      jump\t// in\n    tag_43:\n      mload(0x40)\n      dup1\n      swap2\n      sub\n      swap1\n      return\n        /* \"wwcc-contracts/contracts/wwccPool.sol\":2039:2959  function Set_Pool(... */\n    tag_6:\n      callvalue\n      dup1\n      iszero\n      tag_44\n      jumpi\n      0x00\n      dup1\n      revert\n    tag_44:\n      pop\n      tag_45\n      0x04\n      dup1\n      calldatasize\n      sub\n      dup2\n      add\n      swap1\n      tag_46\n      swap2\n      swap1\n      tag_47\n      jump\t// in\n    tag_46:\n      tag_48\n      jump\t// in\n    tag_45:\n      mload(0x40)\n      tag_49\n      swap2\n      swap1\n      tag_50\n      jump\t// in\n    tag_49:\n      mload(0x40)\n      dup1\n      swap2\n      sub\n      swap1\n      return\n        /* \"wwcc-contracts/contracts/wwccPool.sol\":6642:6748  function CheckBasal() external onlyManager view  returns (uint256){... */\n    tag_7:\n      callvalue\n      dup1\n      iszero\n      tag_51\n      jumpi\n      0x00\n      dup1\n      revert\n    tag_51:\n      pop\n      tag_52\n      tag_53\n      jump\t// in\n    tag_52:\n      mload(0x40)\n      tag_54\n      swap2\n      swap1\n      tag_55\n      jump\t// in\n    tag_54:\n      mload(0x40)\n      dup1\n      swap2\n      sub\n      swap1\n      return\n        /* \"wwcc-contracts/contracts/wwccPool.sol\":6123:6481  function CheckExpect(bytes32 poolKey) external onlyManager view  returns (uint256){... */\n    tag_8:\n      callvalue\n      dup1\n      iszero\n      tag_56\n      jumpi\n      0x00\n      dup1\n      revert\n    tag_56:\n      pop\n      tag_57\n      0x04\n      dup1\n      calldatasize\n      sub\n      dup2\n      add\n      swap1\n      tag_58\n      swap2\n      swap1\n      tag_59\n      jump\t// in\n    tag_58:\n      tag_60\n      jump\t// in\n    tag_57:\n      mload(0x40)\n      tag_61\n      swap2\n      swap1\n      tag_55\n      jump\t// in\n    tag_61:\n      mload(0x40)\n      dup1\n      swap2\n      sub\n      swap1\n      return\n        /* \"wwcc-contracts/contracts/wwccPool.sol\":2982:4308  function Picking(address joiner,uint256 weight,bytes32 poolKey,uint256 homeScore,uint256 visitScore,uint256 kind) external returns(bool){... */\n    tag_9:\n      callvalue\n      dup1\n      iszero\n      tag_62\n      jumpi\n      0x00\n      dup1\n      revert\n    tag_62:\n      pop\n      tag_63\n      0x04\n      dup1\n      calldatasize\n      sub\n      dup2\n      add\n      swap1\n      tag_64\n      swap2\n      swap1\n      tag_65\n      jump\t// in\n    tag_64:\n      tag_66\n      jump\t// in\n    tag_63:\n      mload(0x40)\n      tag_67\n      swap2\n      swap1\n      tag_32\n      jump\t// in\n    tag_67:\n      mload(0x40)\n      dup1\n      swap2\n      sub\n      swap1\n      return\n        /* \"wwcc-contracts/contracts/wwccPool.sol\":6966:10423  function Award(bytes32 poolKey,uint256 homeScore,uint256 visitScore,uint256 result)  external onlyManager  payable returns(bool){... */\n    tag_10:\n      tag_68\n      0x04\n      dup1\n      calldatasize\n      sub\n      dup2\n      add\n      swap1\n      tag_69\n      swap2\n      swap1\n      tag_70\n      jump\t// in\n    tag_69:\n      tag_71\n      jump\t// in\n    tag_68:\n      mload(0x40)\n      tag_72\n      swap2\n      swap1\n      tag_32\n      jump\t// in\n    tag_72:\n      mload(0x40)\n      dup1\n      swap2\n      sub\n      swap1\n      return\n        /* \"wwcc-contracts/contracts/wwccPool.sol\":5668:6058  function voteWithdrawal(address joiner,uint256 amount) external onlyManager payable returns (bool){... */\n    tag_11:\n      tag_73\n      0x04\n      dup1\n      calldatasize\n      sub\n      dup2\n      add\n      swap1\n      tag_74\n      swap2\n      swap1\n      tag_75\n      jump\t// in\n    tag_74:\n      tag_76\n      jump\t// in\n    tag_73:\n      mload(0x40)\n      tag_77\n      swap2\n      swap1\n      tag_32\n      jump\t// in\n    tag_77:\n      mload(0x40)\n      dup1\n      swap2\n      sub\n      swap1\n      return\n        /* \"wwcc-contracts/contracts/wwccPool.sol\":6486:6580  function getAllPool() external view returns (bytes32[] memory){... */\n    tag_12:\n      callvalue\n      dup1\n      iszero\n      tag_78\n      jumpi\n      0x00\n      dup1\n      revert\n    tag_78:\n      pop\n      tag_79\n      tag_80\n      jump\t// in\n    tag_79:\n      mload(0x40)\n      tag_81\n      swap2\n      swap1\n      tag_82\n      jump\t// in\n    tag_81:\n      mload(0x40)\n      dup1\n      swap2\n      sub\n      swap1\n      return\n        /* \"wwcc-contracts/contracts/wwccPool.sol\":6790:6895  function CheckVoteTickets() external view returns (uint256){... */\n    tag_13:\n      callvalue\n      dup1\n      iszero\n      tag_83\n      jumpi\n      0x00\n      dup1\n      revert\n    tag_83:\n      pop\n      tag_84\n      tag_85\n      jump\t// in\n    tag_84:\n      mload(0x40)\n      tag_86\n      swap2\n      swap1\n      tag_55\n      jump\t// in\n    tag_86:\n      mload(0x40)\n      dup1\n      swap2\n      sub\n      swap1\n      return\n        /* \"wwcc-contracts/contracts/wwccPool.sol\":10722:11370  function getPool(bytes32 poolKey) external view returns (string memory vs,string memory rounds,PoolViewInfo memory viewInfo){... */\n    tag_14:\n      callvalue\n      dup1\n      iszero\n      tag_87\n      jumpi\n      0x00\n      dup1\n      revert\n    tag_87:\n      pop\n      tag_88\n      0x04\n      dup1\n      calldatasize\n      sub\n      dup2\n      add\n      swap1\n      tag_89\n      swap2\n      swap1\n      tag_59\n      jump\t// in\n    tag_89:\n      tag_90\n      jump\t// in\n    tag_88:\n      mload(0x40)\n      tag_91\n      swap4\n      swap3\n      swap2\n      swap1\n      tag_92\n      jump\t// in\n    tag_91:\n      mload(0x40)\n      dup1\n      swap2\n      sub\n      swap1\n      return\n        /* \"wwcc-contracts/contracts/safemath.sol\":274:417  function div(uint256 a, uint256 b) internal pure returns (uint256) {... */\n    tag_20:\n        /* \"wwcc-contracts/contracts/safemath.sol\":332:339  uint256 */\n      0x00\n        /* \"wwcc-contracts/contracts/safemath.sol\":363:364  0 */\n      dup1\n        /* \"wwcc-contracts/contracts/safemath.sol\":359:360  b */\n      dup3\n        /* \"wwcc-contracts/contracts/safemath.sol\":359:364  b > 0 */\n      gt\n        /* \"wwcc-contracts/contracts/safemath.sol\":351:365  require(b > 0) */\n      tag_94\n      jumpi\n      0x00\n      dup1\n      revert\n    tag_94:\n        /* \"wwcc-contracts/contracts/safemath.sol\":375:384  uint256 c */\n      0x00\n        /* \"wwcc-contracts/contracts/safemath.sol\":391:392  b */\n      dup3\n        /* \"wwcc-contracts/contracts/safemath.sol\":387:388  a */\n      dup5\n        /* \"wwcc-contracts/contracts/safemath.sol\":387:392  a / b */\n      tag_95\n      swap2\n      swap1\n      tag_96\n      jump\t// in\n    tag_95:\n        /* \"wwcc-contracts/contracts/safemath.sol\":375:392  uint256 c = a / b */\n      swap1\n      pop\n        /* \"wwcc-contracts/contracts/safemath.sol\":409:410  c */\n      dup1\n        /* \"wwcc-contracts/contracts/safemath.sol\":402:410  return c */\n      swap2\n      pop\n      pop\n        /* \"wwcc-contracts/contracts/safemath.sol\":274:417  function div(uint256 a, uint256 b) internal pure returns (uint256) {... */\n      swap3\n      swap2\n      pop\n      pop\n      jump\t// out\n        /* \"wwcc-contracts/contracts/wwccPool.sol\":4928:5607  function Withdrawal(address toAddress,bytes32 poolKey) external onlyManager payable returns (bool){... */\n    tag_30:\n        /* \"wwcc-contracts/contracts/wwccPool.sol\":5021:5025  bool */\n      0x00\n        /* \"wwcc-contracts/contracts/wwccPool.sol\":13420:13425  owner */\n      dup1\n      0x00\n      swap1\n      sload\n      swap1\n      0x0100\n      exp\n      swap1\n      div\n      0xffffffffffffffffffffffffffffffffffffffff\n      and\n        /* \"wwcc-contracts/contracts/wwccPool.sol\":13406:13425  msg.sender == owner */\n      0xffffffffffffffffffffffffffffffffffffffff\n      and\n        /* \"wwcc-contracts/contracts/wwccPool.sol\":13406:13416  msg.sender */\n      caller\n        /* \"wwcc-contracts/contracts/wwccPool.sol\":13406:13425  msg.sender == owner */\n      0xffffffffffffffffffffffffffffffffffffffff\n      and\n      eq\n        /* \"wwcc-contracts/contracts/wwccPool.sol\":13385:13476  require(... */\n      tag_98\n      jumpi\n      mload(0x40)\n      0x08c379a000000000000000000000000000000000000000000000000000000000\n      dup2\n      mstore\n      0x04\n      add\n      tag_99\n      swap1\n      tag_100\n      jump\t// in\n    tag_99:\n      mload(0x40)\n      dup1\n      swap2\n      sub\n      swap1\n      revert\n    tag_98:\n        /* \"wwcc-contracts/contracts/wwccPool.sol\":5043:5060  contains(poolKey) */\n      tag_102\n        /* \"wwcc-contracts/contracts/wwccPool.sol\":5052:5059  poolKey */\n      dup3\n        /* \"wwcc-contracts/contracts/wwccPool.sol\":5043:5051  contains */\n      tag_103\n        /* \"wwcc-contracts/contracts/wwccPool.sol\":5043:5060  contains(poolKey) */\n      jump\t// in\n    tag_102:\n        /* \"wwcc-contracts/contracts/wwccPool.sol\":5039:5577  if(!contains(poolKey)) { ... */\n      tag_104\n      jumpi\n        /* \"wwcc-contracts/contracts/wwccPool.sol\":5081:5105  revert(\"pool not exist\") */\n      mload(0x40)\n      0x08c379a000000000000000000000000000000000000000000000000000000000\n      dup2\n      mstore\n      0x04\n      add\n      tag_105\n      swap1\n      tag_106\n      jump\t// in\n    tag_105:\n      mload(0x40)\n      dup1\n      swap2\n      sub\n      swap1\n      revert\n        /* \"wwcc-contracts/contracts/wwccPool.sol\":5039:5577  if(!contains(poolKey)) { ... */\n    tag_104:\n        /* \"wwcc-contracts/contracts/wwccPool.sol\":5141:5159  WcPool memory pool */\n      0x00\n        /* \"wwcc-contracts/contracts/wwccPool.sol\":5162:5169  WcPools */\n      0x05\n        /* \"wwcc-contracts/contracts/wwccPool.sol\":5162:5178  WcPools[poolKey] */\n      0x00\n        /* \"wwcc-contracts/contracts/wwccPool.sol\":5170:5177  poolKey */\n      dup5\n        /* \"wwcc-contracts/contracts/wwccPool.sol\":5162:5178  WcPools[poolKey] */\n      dup2\n      mstore\n      0x20\n      add\n      swap1\n      dup2\n      mstore\n      0x20\n      add\n      0x00\n      keccak256\n        /* \"wwcc-contracts/contracts/wwccPool.sol\":5141:5178  WcPool memory pool = WcPools[poolKey] */\n      mload(0x40)\n      dup1\n      0x0160\n      add\n      0x40\n      mstore\n      swap1\n      dup2\n      0x00\n      dup3\n      add\n      dup1\n      sload\n      tag_108\n      swap1\n      tag_109\n      jump\t// in\n    tag_108:\n      dup1\n      0x1f\n      add\n      0x20\n      dup1\n      swap2\n      div\n      mul\n      0x20\n      add\n      mload(0x40)\n      swap1\n      dup2\n      add\n      0x40\n      mstore\n      dup1\n      swap3\n      swap2\n      swap1\n      dup2\n      dup2\n      mstore\n      0x20\n      add\n      dup3\n      dup1\n      sload\n      tag_110\n      swap1\n      tag_109\n      jump\t// in\n    tag_110:\n      dup1\n      iszero\n      tag_111\n      jumpi\n      dup1\n      0x1f\n      lt\n      tag_112\n      jumpi\n      0x0100\n      dup1\n      dup4\n      sload\n      div\n      mul\n      dup4\n      mstore\n      swap2\n      0x20\n      add\n      swap2\n      jump(tag_111)\n    tag_112:\n      dup3\n      add\n      swap2\n      swap1\n      0x00\n      mstore\n      keccak256(0x00, 0x20)\n      swap1\n    tag_113:\n      dup2\n      sload\n      dup2\n      mstore\n      swap1\n      0x01\n      add\n      swap1\n      0x20\n      add\n      dup1\n      dup4\n      gt\n      tag_113\n      jumpi\n      dup3\n      swap1\n      sub\n      0x1f\n      and\n      dup3\n      add\n      swap2\n    tag_111:\n      pop\n      pop\n      pop\n      pop\n      pop\n      dup2\n      mstore\n      0x20\n      add\n      0x01\n      dup3\n      add\n      dup1\n      sload\n      tag_114\n      swap1\n      tag_109\n      jump\t// in\n    tag_114:\n      dup1\n      0x1f\n      add\n      0x20\n      dup1\n      swap2\n      div\n      mul\n      0x20\n      add\n      mload(0x40)\n      swap1\n      dup2\n      add\n      0x40\n      mstore\n      dup1\n      swap3\n      swap2\n      swap1\n      dup2\n      dup2\n      mstore\n      0x20\n      add\n      dup3\n      dup1\n      sload\n      tag_115\n      swap1\n      tag_109\n      jump\t// in\n    tag_115:\n      dup1\n      iszero\n      tag_116\n      jumpi\n      dup1\n      0x1f\n      lt\n      tag_117\n      jumpi\n      0x0100\n      dup1\n      dup4\n      sload\n      div\n      mul\n      dup4\n      mstore\n      swap2\n      0x20\n      add\n      swap2\n      jump(tag_116)\n    tag_117:\n      dup3\n      add\n      swap2\n      swap1\n      0x00\n      mstore\n      keccak256(0x00, 0x20)\n      swap1\n    tag_118:\n      dup2\n      sload\n      dup2\n      mstore\n      swap1\n      0x01\n      add\n      swap1\n      0x20\n      add\n      dup1\n      dup4\n      gt\n      tag_118\n      jumpi\n      dup3\n      swap1\n      sub\n      0x1f\n      and\n      dup3\n      add\n      swap2\n    tag_116:\n      pop\n      pop\n      pop\n      pop\n      pop\n      dup2\n      mstore\n      0x20\n      add\n      0x02\n      dup3\n      add\n      dup1\n      sload\n      tag_119\n      swap1\n      tag_109\n      jump\t// in\n    tag_119:\n      dup1\n      0x1f\n      add\n      0x20\n      dup1\n      swap2\n      div\n      mul\n      0x20\n      add\n      mload(0x40)\n      swap1\n      dup2\n      add\n      0x40\n      mstore\n      dup1\n      swap3\n      swap2\n      swap1\n      dup2\n      dup2\n      mstore\n      0x20\n      add\n      dup3\n      dup1\n      sload\n      tag_120\n      swap1\n      tag_109\n      jump\t// in\n    tag_120:\n      dup1\n      iszero\n      tag_121\n      jumpi\n      dup1\n      0x1f\n      lt\n      tag_122\n      jumpi\n      0x0100\n      dup1\n      dup4\n      sload\n      div\n      mul\n      dup4\n      mstore\n      swap2\n      0x20\n      add\n      swap2\n      jump(tag_121)\n    tag_122:\n      dup3\n      add\n      swap2\n      swap1\n      0x00\n      mstore\n      keccak256(0x00, 0x20)\n      swap1\n    tag_123:\n      dup2\n      sload\n      dup2\n      mstore\n      swap1\n      0x01\n      add\n      swap1\n      0x20\n      add\n      dup1\n      dup4\n      gt\n      tag_123\n      jumpi\n      dup3\n      swap1\n      sub\n      0x1f\n      and\n      dup3\n      add\n      swap2\n    tag_121:\n      pop\n      pop\n      pop\n      pop\n      pop\n      dup2\n      mstore\n      0x20\n      add\n      0x03\n      dup3\n      add\n      sload\n      dup2\n      mstore\n      0x20\n      add\n      0x04\n      dup3\n      add\n      sload\n      dup2\n      mstore\n      0x20\n      add\n      0x05\n      dup3\n      add\n      sload\n      dup2\n      mstore\n      0x20\n      add\n      0x06\n      dup3\n      add\n      sload\n      dup2\n      mstore\n      0x20\n      add\n      0x07\n      dup3\n      add\n      sload\n      dup2\n      mstore\n      0x20\n      add\n      0x08\n      dup3\n      add\n      0x00\n      swap1\n      sload\n      swap1\n      0x0100\n      exp\n      swap1\n      div\n      0xff\n      and\n      iszero\n      iszero\n      iszero\n      iszero\n      dup2\n      mstore\n      0x20\n      add\n      0x08\n      dup3\n      add\n      0x01\n      swap1\n      sload\n      swap1\n      0x0100\n      exp\n      swap1\n      div\n      0xff\n      and\n      iszero\n      iszero\n      iszero\n      iszero\n      dup2\n      mstore\n      0x20\n      add\n      0x08\n      dup3\n      add\n      0x02\n      swap1\n      sload\n      swap1\n      0x0100\n      exp\n      swap1\n      div\n      0xff\n      and\n      iszero\n      iszero\n      iszero\n      iszero\n      dup2\n      mstore\n      pop\n      pop\n      swap1\n      pop\n        /* \"wwcc-contracts/contracts/wwccPool.sol\":5196:5210  uint256 expect */\n      0x00\n        /* \"wwcc-contracts/contracts/wwccPool.sol\":5213:5279  (pool.wPool+pool.lPool+pool.dPool+pool.sPool + pool.basal).div(10) */\n      tag_124\n        /* \"wwcc-contracts/contracts/wwccPool.sol\":5276:5278  10 */\n      0x0a\n        /* \"wwcc-contracts/contracts/wwccPool.sol\":5260:5264  pool */\n      dup4\n        /* \"wwcc-contracts/contracts/wwccPool.sol\":5260:5270  pool.basal */\n      0xe0\n      add\n      mload\n        /* \"wwcc-contracts/contracts/wwccPool.sol\":5247:5251  pool */\n      dup5\n        /* \"wwcc-contracts/contracts/wwccPool.sol\":5247:5257  pool.sPool */\n      0xc0\n      add\n      mload\n        /* \"wwcc-contracts/contracts/wwccPool.sol\":5236:5240  pool */\n      dup6\n        /* \"wwcc-contracts/contracts/wwccPool.sol\":5236:5246  pool.dPool */\n      0x80\n      add\n      mload\n        /* \"wwcc-contracts/contracts/wwccPool.sol\":5225:5229  pool */\n      dup7\n        /* \"wwcc-contracts/contracts/wwccPool.sol\":5225:5235  pool.lPool */\n      0xa0\n      add\n      mload\n        /* \"wwcc-contracts/contracts/wwccPool.sol\":5214:5218  pool */\n      dup8\n        /* \"wwcc-contracts/contracts/wwccPool.sol\":5214:5224  pool.wPool */\n      0x60\n      add\n      mload\n        /* \"wwcc-contracts/contracts/wwccPool.sol\":5214:5235  pool.wPool+pool.lPool */\n      tag_125\n      swap2\n      swap1\n      tag_22\n      jump\t// in\n    tag_125:\n        /* \"wwcc-contracts/contracts/wwccPool.sol\":5214:5246  pool.wPool+pool.lPool+pool.dPool */\n      tag_126\n      swap2\n      swap1\n      tag_22\n      jump\t// in\n    tag_126:\n        /* \"wwcc-contracts/contracts/wwccPool.sol\":5214:5257  pool.wPool+pool.lPool+pool.dPool+pool.sPool */\n      tag_127\n      swap2\n      swap1\n      tag_22\n      jump\t// in\n    tag_127:\n        /* \"wwcc-contracts/contracts/wwccPool.sol\":5214:5270  pool.wPool+pool.lPool+pool.dPool+pool.sPool + pool.basal */\n      tag_128\n      swap2\n      swap1\n      tag_22\n      jump\t// in\n    tag_128:\n        /* \"wwcc-contracts/contracts/wwccPool.sol\":5213:5275  (pool.wPool+pool.lPool+pool.dPool+pool.sPool + pool.basal).div */\n      tag_20\n      swap1\n        /* \"wwcc-contracts/contracts/wwccPool.sol\":5213:5279  (pool.wPool+pool.lPool+pool.dPool+pool.sPool + pool.basal).div(10) */\n      swap2\n      swap1\n      0xffffffff\n      and\n      jump\t// in\n    tag_124:\n        /* \"wwcc-contracts/contracts/wwccPool.sol\":5196:5279  uint256 expect = (pool.wPool+pool.lPool+pool.dPool+pool.sPool + pool.basal).div(10) */\n      swap1\n      pop\n        /* \"wwcc-contracts/contracts/wwccPool.sol\":5317:5321  true */\n      0x01\n        /* \"wwcc-contracts/contracts/wwccPool.sol\":5301:5305  pool */\n      dup3\n        /* \"wwcc-contracts/contracts/wwccPool.sol\":5301:5314  pool.finished */\n      0x0140\n      add\n        /* \"wwcc-contracts/contracts/wwccPool.sol\":5301:5321  pool.finished = true */\n      swap1\n      iszero\n      iszero\n      swap1\n      dup2\n      iszero\n      iszero\n      dup2\n      mstore\n      pop\n        /* \"wwcc-contracts/contracts/wwccPool.sol\":5297:5549  if (pool.finished = true){... */\n      iszero\n      tag_129\n      jumpi\n        /* \"wwcc-contracts/contracts/wwccPool.sol\":5344:5377  address payable toAddress_address */\n      0x00\n        /* \"wwcc-contracts/contracts/wwccPool.sol\":5388:5397  toAddress */\n      dup6\n        /* \"wwcc-contracts/contracts/wwccPool.sol\":5344:5398  address payable toAddress_address = payable(toAddress) */\n      swap1\n      pop\n        /* \"wwcc-contracts/contracts/wwccPool.sol\":5420:5437  toAddress_address */\n      dup1\n        /* \"wwcc-contracts/contracts/wwccPool.sol\":5420:5446  toAddress_address.transfer */\n      0xffffffffffffffffffffffffffffffffffffffff\n      and\n        /* \"wwcc-contracts/contracts/wwccPool.sol\":5420:5454  toAddress_address.transfer(expect) */\n      0x08fc\n        /* \"wwcc-contracts/contracts/wwccPool.sol\":5447:5453  expect */\n      dup4\n        /* \"wwcc-contracts/contracts/wwccPool.sol\":5420:5454  toAddress_address.transfer(expect) */\n      swap1\n      dup2\n      iszero\n      mul\n      swap1\n      mload(0x40)\n      0x00\n      mload(0x40)\n      dup1\n      dup4\n      sub\n      dup2\n      dup6\n      dup9\n      dup9\n      call\n      swap4\n      pop\n      pop\n      pop\n      pop\n      iszero\n      dup1\n      iszero\n      tag_131\n      jumpi\n      returndatasize\n      0x00\n      dup1\n      returndatacopy\n      revert(0x00, returndatasize)\n    tag_131:\n      pop\n        /* \"wwcc-contracts/contracts/wwccPool.sol\":5322:5473  {... */\n      pop\n        /* \"wwcc-contracts/contracts/wwccPool.sol\":5297:5549  if (pool.finished = true){... */\n      jump(tag_132)\n    tag_129:\n        /* \"wwcc-contracts/contracts/wwccPool.sol\":5499:5530  revert(\"pool has not finished\") */\n      mload(0x40)\n      0x08c379a000000000000000000000000000000000000000000000000000000000\n      dup2\n      mstore\n      0x04\n      add\n      tag_133\n      swap1\n      tag_134\n      jump\t// in\n    tag_133:\n      mload(0x40)\n      dup1\n      swap2\n      sub\n      swap1\n      revert\n        /* \"wwcc-contracts/contracts/wwccPool.sol\":5297:5549  if (pool.finished = true){... */\n    tag_132:\n        /* \"wwcc-contracts/contracts/wwccPool.sol\":5123:5577  {... */\n      pop\n      pop\n        /* \"wwcc-contracts/contracts/wwccPool.sol\":5596:5600  true */\n      0x01\n        /* \"wwcc-contracts/contracts/wwccPool.sol\":5589:5600  return true */\n      swap1\n      pop\n        /* \"wwcc-contracts/contracts/wwccPool.sol\":4928:5607  function Withdrawal(address toAddress,bytes32 poolKey) external onlyManager payable returns (bool){... */\n      swap3\n      swap2\n      pop\n      pop\n      jump\t// out\n        /* \"wwcc-contracts/contracts/wwccPool.sol\":10428:10672  function withdrawBNBInContract(address toAddress)external onlyManager payable returns(bool){... */\n    tag_36:\n        /* \"wwcc-contracts/contracts/wwccPool.sol\":10514:10518  bool */\n      0x00\n        /* \"wwcc-contracts/contracts/wwccPool.sol\":13420:13425  owner */\n      dup1\n      0x00\n      swap1\n      sload\n      swap1\n      0x0100\n      exp\n      swap1\n      div\n      0xffffffffffffffffffffffffffffffffffffffff\n      and\n        /* \"wwcc-contracts/contracts/wwccPool.sol\":13406:13425  msg.sender == owner */\n      0xffffffffffffffffffffffffffffffffffffffff\n      and\n        /* \"wwcc-contracts/contracts/wwccPool.sol\":13406:13416  msg.sender */\n      caller\n        /* \"wwcc-contracts/contracts/wwccPool.sol\":13406:13425  msg.sender == owner */\n      0xffffffffffffffffffffffffffffffffffffffff\n      and\n      eq\n        /* \"wwcc-contracts/contracts/wwccPool.sol\":13385:13476  require(... */\n      tag_136\n      jumpi\n      mload(0x40)\n      0x08c379a000000000000000000000000000000000000000000000000000000000\n      dup2\n      mstore\n      0x04\n      add\n      tag_137\n      swap1\n      tag_100\n      jump\t// in\n    tag_137:\n      mload(0x40)\n      dup1\n      swap2\n      sub\n      swap1\n      revert\n    tag_136:\n        /* \"wwcc-contracts/contracts/wwccPool.sol\":10533:10566  address payable toAddress_address */\n      0x00\n        /* \"wwcc-contracts/contracts/wwccPool.sol\":10577:10586  toAddress */\n      dup3\n        /* \"wwcc-contracts/contracts/wwccPool.sol\":10533:10587  address payable toAddress_address = payable(toAddress) */\n      swap1\n      pop\n        /* \"wwcc-contracts/contracts/wwccPool.sol\":10601:10618  toAddress_address */\n      dup1\n        /* \"wwcc-contracts/contracts/wwccPool.sol\":10601:10627  toAddress_address.transfer */\n      0xffffffffffffffffffffffffffffffffffffffff\n      and\n        /* \"wwcc-contracts/contracts/wwccPool.sol\":10601:10640  toAddress_address.transfer(lastBNB - 1) */\n      0x08fc\n        /* \"wwcc-contracts/contracts/wwccPool.sol\":10638:10639  1 */\n      0x01\n        /* \"wwcc-contracts/contracts/wwccPool.sol\":10628:10635  lastBNB */\n      sload(0x03)\n        /* \"wwcc-contracts/contracts/wwccPool.sol\":10628:10639  lastBNB - 1 */\n      tag_139\n      swap2\n      swap1\n      tag_140\n      jump\t// in\n    tag_139:\n        /* \"wwcc-contracts/contracts/wwccPool.sol\":10601:10640  toAddress_address.transfer(lastBNB - 1) */\n      swap1\n      dup2\n      iszero\n      mul\n      swap1\n      mload(0x40)\n      0x00\n      mload(0x40)\n      dup1\n      dup4\n      sub\n      dup2\n      dup6\n      dup9\n      dup9\n      call\n      swap4\n      pop\n      pop\n      pop\n      pop\n      iszero\n      dup1\n      iszero\n      tag_142\n      jumpi\n      returndatasize\n      0x00\n      dup1\n      returndatacopy\n      revert(0x00, returndatasize)\n    tag_142:\n      pop\n        /* \"wwcc-contracts/contracts/wwccPool.sol\":10661:10665  true */\n      0x01\n        /* \"wwcc-contracts/contracts/wwccPool.sol\":10654:10665  return true */\n      swap2\n      pop\n      pop\n        /* \"wwcc-contracts/contracts/wwccPool.sol\":10428:10672  function withdrawBNBInContract(address toAddress)external onlyManager payable returns(bool){... */\n      swap2\n      swap1\n      pop\n      jump\t// out\n        /* \"wwcc-contracts/contracts/wwccPool.sol\":4363:4885  function Set_Basal(bytes32 poolKey,uint256 basal) external onlyManager  returns (bool){... */\n    tag_42:\n        /* \"wwcc-contracts/contracts/wwccPool.sol\":4444:4448  bool */\n      0x00\n        /* \"wwcc-contracts/contracts/wwccPool.sol\":13420:13425  owner */\n      dup1\n      0x00\n      swap1\n      sload\n      swap1\n      0x0100\n      exp\n      swap1\n      div\n      0xffffffffffffffffffffffffffffffffffffffff\n      and\n        /* \"wwcc-contracts/contracts/wwccPool.sol\":13406:13425  msg.sender == owner */\n      0xffffffffffffffffffffffffffffffffffffffff\n      and\n        /* \"wwcc-contracts/contracts/wwccPool.sol\":13406:13416  msg.sender */\n      caller\n        /* \"wwcc-contracts/contracts/wwccPool.sol\":13406:13425  msg.sender == owner */\n      0xffffffffffffffffffffffffffffffffffffffff\n      and\n      eq\n        /* \"wwcc-contracts/contracts/wwccPool.sol\":13385:13476  require(... */\n      tag_144\n      jumpi\n      mload(0x40)\n      0x08c379a000000000000000000000000000000000000000000000000000000000\n      dup2\n      mstore\n      0x04\n      add\n      tag_145\n      swap1\n      tag_100\n      jump\t// in\n    tag_145:\n      mload(0x40)\n      dup1\n      swap2\n      sub\n      swap1\n      revert\n    tag_144:\n        /* \"wwcc-contracts/contracts/wwccPool.sol\":4463:4480  contains(poolKey) */\n      tag_147\n        /* \"wwcc-contracts/contracts/wwccPool.sol\":4472:4479  poolKey */\n      dup4\n        /* \"wwcc-contracts/contracts/wwccPool.sol\":4463:4471  contains */\n      tag_103\n        /* \"wwcc-contracts/contracts/wwccPool.sol\":4463:4480  contains(poolKey) */\n      jump\t// in\n    tag_147:\n        /* \"wwcc-contracts/contracts/wwccPool.sol\":4459:4879  if(!contains(poolKey)) { ... */\n      tag_148\n      jumpi\n        /* \"wwcc-contracts/contracts/wwccPool.sol\":4497:4521  revert(\"pool not exist\") */\n      mload(0x40)\n      0x08c379a000000000000000000000000000000000000000000000000000000000\n      dup2\n      mstore\n      0x04\n      add\n      tag_149\n      swap1\n      tag_106\n      jump\t// in\n    tag_149:\n      mload(0x40)\n      dup1\n      swap2\n      sub\n      swap1\n      revert\n        /* \"wwcc-contracts/contracts/wwccPool.sol\":4459:4879  if(!contains(poolKey)) { ... */\n    tag_148:\n        /* \"wwcc-contracts/contracts/wwccPool.sol\":4549:4567  WcPool memory pool */\n      0x00\n        /* \"wwcc-contracts/contracts/wwccPool.sol\":4570:4577  WcPools */\n      0x05\n        /* \"wwcc-contracts/contracts/wwccPool.sol\":4570:4586  WcPools[poolKey] */\n      0x00\n        /* \"wwcc-contracts/contracts/wwccPool.sol\":4578:4585  poolKey */\n      dup6\n        /* \"wwcc-contracts/contracts/wwccPool.sol\":4570:4586  WcPools[poolKey] */\n      dup2\n      mstore\n      0x20\n      add\n      swap1\n      dup2\n      mstore\n      0x20\n      add\n      0x00\n      keccak256\n        /* \"wwcc-contracts/contracts/wwccPool.sol\":4549:4586  WcPool memory pool = WcPools[poolKey] */\n      mload(0x40)\n      dup1\n      0x0160\n      add\n      0x40\n      mstore\n      swap1\n      dup2\n      0x00\n      dup3\n      add\n      dup1\n      sload\n      tag_151\n      swap1\n      tag_109\n      jump\t// in\n    tag_151:\n      dup1\n      0x1f\n      add\n      0x20\n      dup1\n      swap2\n      div\n      mul\n      0x20\n      add\n      mload(0x40)\n      swap1\n      dup2\n      add\n      0x40\n      mstore\n      dup1\n      swap3\n      swap2\n      swap1\n      dup2\n      dup2\n      mstore\n      0x20\n      add\n      dup3\n      dup1\n      sload\n      tag_152\n      swap1\n      tag_109\n      jump\t// in\n    tag_152:\n      dup1\n      iszero\n      tag_153\n      jumpi\n      dup1\n      0x1f\n      lt\n      tag_154\n      jumpi\n      0x0100\n      dup1\n      dup4\n      sload\n      div\n      mul\n      dup4\n      mstore\n      swap2\n      0x20\n      add\n      swap2\n      jump(tag_153)\n    tag_154:\n      dup3\n      add\n      swap2\n      swap1\n      0x00\n      mstore\n      keccak256(0x00, 0x20)\n      swap1\n    tag_155:\n      dup2\n      sload\n      dup2\n      mstore\n      swap1\n      0x01\n      add\n      swap1\n      0x20\n      add\n      dup1\n      dup4\n      gt\n      tag_155\n      jumpi\n      dup3\n      swap1\n      sub\n      0x1f\n      and\n      dup3\n      add\n      swap2\n    tag_153:\n      pop\n      pop\n      pop\n      pop\n      pop\n      dup2\n      mstore\n      0x20\n      add\n      0x01\n      dup3\n      add\n      dup1\n      sload\n      tag_156\n      swap1\n      tag_109\n      jump\t// in\n    tag_156:\n      dup1\n      0x1f\n      add\n      0x20\n      dup1\n      swap2\n      div\n      mul\n      0x20\n      add\n      mload(0x40)\n      swap1\n      dup2\n      add\n      0x40\n      mstore\n      dup1\n      swap3\n      swap2\n      swap1\n      dup2\n      dup2\n      mstore\n      0x20\n      add\n      dup3\n      dup1\n      sload\n      tag_157\n      swap1\n      tag_109\n      jump\t// in\n    tag_157:\n      dup1\n      iszero\n      tag_158\n      jumpi\n      dup1\n      0x1f\n      lt\n      tag_159\n      jumpi\n      0x0100\n      dup1\n      dup4\n      sload\n      div\n      mul\n      dup4\n      mstore\n      swap2\n      0x20\n      add\n      swap2\n      jump(tag_158)\n    tag_159:\n      dup3\n      add\n      swap2\n      swap1\n      0x00\n      mstore\n      keccak256(0x00, 0x20)\n      swap1\n    tag_160:\n      dup2\n      sload\n      dup2\n      mstore\n      swap1\n      0x01\n      add\n      swap1\n      0x20\n      add\n      dup1\n      dup4\n      gt\n      tag_160\n      jumpi\n      dup3\n      swap1\n      sub\n      0x1f\n      and\n      dup3\n      add\n      swap2\n    tag_158:\n      pop\n      pop\n      pop\n      pop\n      pop\n      dup2\n      mstore\n      0x20\n      add\n      0x02\n      dup3\n      add\n      dup1\n      sload\n      tag_161\n      swap1\n      tag_109\n      jump\t// in\n    tag_161:\n      dup1\n      0x1f\n      add\n      0x20\n      dup1\n      swap2\n      div\n      mul\n      0x20\n      add\n      mload(0x40)\n      swap1\n      dup2\n      add\n      0x40\n      mstore\n      dup1\n      swap3\n      swap2\n      swap1\n      dup2\n      dup2\n      mstore\n      0x20\n      add\n      dup3\n      dup1\n      sload\n      tag_162\n      swap1\n      tag_109\n      jump\t// in\n    tag_162:\n      dup1\n      iszero\n      tag_163\n      jumpi\n      dup1\n      0x1f\n      lt\n      tag_164\n      jumpi\n      0x0100\n      dup1\n      dup4\n      sload\n      div\n      mul\n      dup4\n      mstore\n      swap2\n      0x20\n      add\n      swap2\n      jump(tag_163)\n    tag_164:\n      dup3\n      add\n      swap2\n      swap1\n      0x00\n      mstore\n      keccak256(0x00, 0x20)\n      swap1\n    tag_165:\n      dup2\n      sload\n      dup2\n      mstore\n      swap1\n      0x01\n      add\n      swap1\n      0x20\n      add\n      dup1\n      dup4\n      gt\n      tag_165\n      jumpi\n      dup3\n      swap1\n      sub\n      0x1f\n      and\n      dup3\n      add\n      swap2\n    tag_163:\n      pop\n      pop\n      pop\n      pop\n      pop\n      dup2\n      mstore\n      0x20\n      add\n      0x03\n      dup3\n      add\n      sload\n      dup2\n      mstore\n      0x20\n      add\n      0x04\n      dup3\n      add\n      sload\n      dup2\n      mstore\n      0x20\n      add\n      0x05\n      dup3\n      add\n      sload\n      dup2\n      mstore\n      0x20\n      add\n      0x06\n      dup3\n      add\n      sload\n      dup2\n      mstore\n      0x20\n      add\n      0x07\n      dup3\n      add\n      sload\n      dup2\n      mstore\n      0x20\n      add\n      0x08\n      dup3\n      add\n      0x00\n      swap1\n      sload\n      swap1\n      0x0100\n      exp\n      swap1\n      div\n      0xff\n      and\n      iszero\n      iszero\n      iszero\n      iszero\n      dup2\n      mstore\n      0x20\n      add\n      0x08\n      dup3\n      add\n      0x01\n      swap1\n      sload\n      swap1\n      0x0100\n      exp\n      swap1\n      div\n      0xff\n      and\n      iszero\n      iszero\n      iszero\n      iszero\n      dup2\n      mstore\n      0x20\n      add\n      0x08\n      dup3\n      add\n      0x02\n      swap1\n      sload\n      swap1\n      0x0100\n      exp\n      swap1\n      div\n      0xff\n      and\n      iszero\n      iszero\n      iszero\n      iszero\n      dup2\n      mstore\n      pop\n      pop\n      swap1\n      pop\n        /* \"wwcc-contracts/contracts/wwccPool.sol\":4616:4617  0 */\n      0x00\n        /* \"wwcc-contracts/contracts/wwccPool.sol\":4603:4607  pool */\n      dup2\n        /* \"wwcc-contracts/contracts/wwccPool.sol\":4603:4613  pool.basal */\n      0xe0\n      add\n      mload\n        /* \"wwcc-contracts/contracts/wwccPool.sol\":4603:4617  pool.basal > 0 */\n      gt\n        /* \"wwcc-contracts/contracts/wwccPool.sol\":4599:4682  if (pool.basal > 0){... */\n      iszero\n      tag_166\n      jumpi\n        /* \"wwcc-contracts/contracts/wwccPool.sol\":4635:4668  revert(\"pool basal has been set\") */\n      mload(0x40)\n      0x08c379a000000000000000000000000000000000000000000000000000000000\n      dup2\n      mstore\n      0x04\n      add\n      tag_167\n      swap1\n      tag_168\n      jump\t// in\n    tag_167:\n      mload(0x40)\n      dup1\n      swap2\n      sub\n      swap1\n      revert\n        /* \"wwcc-contracts/contracts/wwccPool.sol\":4599:4682  if (pool.basal > 0){... */\n    tag_166:\n        /* \"wwcc-contracts/contracts/wwccPool.sol\":4714:4719  basal */\n      dup3\n        /* \"wwcc-contracts/contracts/wwccPool.sol\":4698:4711  nextBasalLast */\n      sload(0x01)\n        /* \"wwcc-contracts/contracts/wwccPool.sol\":4698:4719  nextBasalLast > basal */\n      gt\n        /* \"wwcc-contracts/contracts/wwccPool.sol\":4694:4777  if (nextBasalLast > basal){... */\n      iszero\n      tag_169\n      jumpi\n        /* \"wwcc-contracts/contracts/wwccPool.sol\":4737:4763  revert(\"not enough basal\") */\n      mload(0x40)\n      0x08c379a000000000000000000000000000000000000000000000000000000000\n      dup2\n      mstore\n      0x04\n      add\n      tag_170\n      swap1\n      tag_171\n      jump\t// in\n    tag_170:\n      mload(0x40)\n      dup1\n      swap2\n      sub\n      swap1\n      revert\n        /* \"wwcc-contracts/contracts/wwccPool.sol\":4694:4777  if (nextBasalLast > basal){... */\n    tag_169:\n        /* \"wwcc-contracts/contracts/wwccPool.sol\":4803:4808  basal */\n      dup3\n        /* \"wwcc-contracts/contracts/wwccPool.sol\":4789:4793  pool */\n      dup2\n        /* \"wwcc-contracts/contracts/wwccPool.sol\":4789:4799  pool.basal */\n      0xe0\n      add\n        /* \"wwcc-contracts/contracts/wwccPool.sol\":4789:4808  pool.basal += basal */\n      dup2\n      dup2\n      mload\n      tag_172\n      swap2\n      swap1\n      tag_22\n      jump\t// in\n    tag_172:\n      swap2\n      pop\n      dup2\n      dup2\n      mstore\n      pop\n      pop\n        /* \"wwcc-contracts/contracts/wwccPool.sol\":4839:4844  basal */\n      dup3\n        /* \"wwcc-contracts/contracts/wwccPool.sol\":4821:4834  nextBasalLast */\n      0x01\n      0x00\n        /* \"wwcc-contracts/contracts/wwccPool.sol\":4821:4844  nextBasalLast -=  basal */\n      dup3\n      dup3\n      sload\n      tag_173\n      swap2\n      swap1\n      tag_140\n      jump\t// in\n    tag_173:\n      swap3\n      pop\n      pop\n      dup2\n      swap1\n      sstore\n      pop\n        /* \"wwcc-contracts/contracts/wwccPool.sol\":4864:4868  true */\n      0x01\n        /* \"wwcc-contracts/contracts/wwccPool.sol\":4857:4868  return true */\n      swap2\n      pop\n      pop\n        /* \"wwcc-contracts/contracts/wwccPool.sol\":4363:4885  function Set_Basal(bytes32 poolKey,uint256 basal) external onlyManager  returns (bool){... */\n      swap3\n      swap2\n      pop\n      pop\n      jump\t// out\n        /* \"wwcc-contracts/contracts/wwccPool.sol\":2039:2959  function Set_Pool(... */\n    tag_48:\n        /* \"wwcc-contracts/contracts/wwccPool.sol\":2186:2193  bytes32 */\n      0x00\n        /* \"wwcc-contracts/contracts/wwccPool.sol\":13420:13425  owner */\n      dup1\n      0x00\n      swap1\n      sload\n      swap1\n      0x0100\n      exp\n      swap1\n      div\n      0xffffffffffffffffffffffffffffffffffffffff\n      and\n        /* \"wwcc-contracts/contracts/wwccPool.sol\":13406:13425  msg.sender == owner */\n      0xffffffffffffffffffffffffffffffffffffffff\n      and\n        /* \"wwcc-contracts/contracts/wwccPool.sol\":13406:13416  msg.sender */\n      caller\n        /* \"wwcc-contracts/contracts/wwccPool.sol\":13406:13425  msg.sender == owner */\n      0xffffffffffffffffffffffffffffffffffffffff\n      and\n      eq\n        /* \"wwcc-contracts/contracts/wwccPool.sol\":13385:13476  require(... */\n      tag_175\n      jumpi\n      mload(0x40)\n      0x08c379a000000000000000000000000000000000000000000000000000000000\n      dup2\n      mstore\n      0x04\n      add\n      tag_176\n      swap1\n      tag_100\n      jump\t// in\n    tag_176:\n      mload(0x40)\n      dup1\n      swap2\n      sub\n      swap1\n      revert\n    tag_175:\n        /* \"wwcc-contracts/contracts/wwccPool.sol\":2204:2220  string memory s1 */\n      0x00\n        /* \"wwcc-contracts/contracts/wwccPool.sol\":2223:2244  strConcat(home,visit) */\n      tag_178\n        /* \"wwcc-contracts/contracts/wwccPool.sol\":2233:2237  home */\n      dup7\n        /* \"wwcc-contracts/contracts/wwccPool.sol\":2238:2243  visit */\n      dup7\n        /* \"wwcc-contracts/contracts/wwccPool.sol\":2223:2232  strConcat */\n      tag_179\n        /* \"wwcc-contracts/contracts/wwccPool.sol\":2223:2244  strConcat(home,visit) */\n      jump\t// in\n    tag_178:\n        /* \"wwcc-contracts/contracts/wwccPool.sol\":2204:2244  string memory s1 = strConcat(home,visit) */\n      swap1\n      pop\n        /* \"wwcc-contracts/contracts/wwccPool.sol\":2253:2269  string memory s2 */\n      0x00\n        /* \"wwcc-contracts/contracts/wwccPool.sol\":2272:2292  strConcat(s1,rounds) */\n      tag_180\n        /* \"wwcc-contracts/contracts/wwccPool.sol\":2282:2284  s1 */\n      dup3\n        /* \"wwcc-contracts/contracts/wwccPool.sol\":2285:2291  rounds */\n      dup7\n        /* \"wwcc-contracts/contracts/wwccPool.sol\":2272:2281  strConcat */\n      tag_179\n        /* \"wwcc-contracts/contracts/wwccPool.sol\":2272:2292  strConcat(s1,rounds) */\n      jump\t// in\n    tag_180:\n        /* \"wwcc-contracts/contracts/wwccPool.sol\":2253:2292  string memory s2 = strConcat(s1,rounds) */\n      swap1\n      pop\n        /* \"wwcc-contracts/contracts/wwccPool.sol\":2301:2316  bytes32 poolKey */\n      0x00\n        /* \"wwcc-contracts/contracts/wwccPool.sol\":2346:2348  s2 */\n      dup2\n        /* \"wwcc-contracts/contracts/wwccPool.sol\":2329:2349  abi.encodePacked(s2) */\n      add(0x20, mload(0x40))\n      tag_181\n      swap2\n      swap1\n      tag_182\n      jump\t// in\n    tag_181:\n      mload(0x40)\n      0x20\n      dup2\n      dup4\n      sub\n      sub\n      dup2\n      mstore\n      swap1\n      0x40\n      mstore\n        /* \"wwcc-contracts/contracts/wwccPool.sol\":2319:2350  keccak256(abi.encodePacked(s2)) */\n      dup1\n      mload\n      swap1\n      0x20\n      add\n      keccak256\n        /* \"wwcc-contracts/contracts/wwccPool.sol\":2301:2350  bytes32 poolKey = keccak256(abi.encodePacked(s2)) */\n      swap1\n      pop\n        /* \"wwcc-contracts/contracts/wwccPool.sol\":2362:2379  contains(poolKey) */\n      tag_183\n        /* \"wwcc-contracts/contracts/wwccPool.sol\":2371:2378  poolKey */\n      dup2\n        /* \"wwcc-contracts/contracts/wwccPool.sol\":2362:2370  contains */\n      tag_103\n        /* \"wwcc-contracts/contracts/wwccPool.sol\":2362:2379  contains(poolKey) */\n      jump\t// in\n    tag_183:\n        /* \"wwcc-contracts/contracts/wwccPool.sol\":2359:2899  if(contains(poolKey)) { ... */\n      iszero\n      tag_184\n      jumpi\n        /* \"wwcc-contracts/contracts/wwccPool.sol\":2396:2416  revert(\"pair exist\") */\n      mload(0x40)\n      0x08c379a000000000000000000000000000000000000000000000000000000000\n      dup2\n      mstore\n      0x04\n      add\n      tag_185\n      swap1\n      tag_186\n      jump\t// in\n    tag_185:\n      mload(0x40)\n      dup1\n      swap2\n      sub\n      swap1\n      revert\n        /* \"wwcc-contracts/contracts/wwccPool.sol\":2359:2899  if(contains(poolKey)) { ... */\n    tag_184:\n        /* \"wwcc-contracts/contracts/wwccPool.sol\":2467:2471  true */\n      0x01\n        /* \"wwcc-contracts/contracts/wwccPool.sol\":2443:2450  WcPools */\n      0x05\n        /* \"wwcc-contracts/contracts/wwccPool.sol\":2443:2459  WcPools[poolKey] */\n      0x00\n        /* \"wwcc-contracts/contracts/wwccPool.sol\":2451:2458  poolKey */\n      dup4\n        /* \"wwcc-contracts/contracts/wwccPool.sol\":2443:2459  WcPools[poolKey] */\n      dup2\n      mstore\n      0x20\n      add\n      swap1\n      dup2\n      mstore\n      0x20\n      add\n      0x00\n      keccak256\n        /* \"wwcc-contracts/contracts/wwccPool.sol\":2443:2464  WcPools[poolKey].used */\n      0x08\n      add\n      0x01\n        /* \"wwcc-contracts/contracts/wwccPool.sol\":2443:2471  WcPools[poolKey].used = true */\n      0x0100\n      exp\n      dup2\n      sload\n      dup2\n      0xff\n      mul\n      not\n      and\n      swap1\n      dup4\n      iszero\n      iszero\n      mul\n      or\n      swap1\n      sstore\n      pop\n        /* \"wwcc-contracts/contracts/wwccPool.sol\":2508:2512  home */\n      dup8\n        /* \"wwcc-contracts/contracts/wwccPool.sol\":2484:2491  WcPools */\n      0x05\n        /* \"wwcc-contracts/contracts/wwccPool.sol\":2484:2500  WcPools[poolKey] */\n      0x00\n        /* \"wwcc-contracts/contracts/wwccPool.sol\":2492:2499  poolKey */\n      dup4\n        /* \"wwcc-contracts/contracts/wwccPool.sol\":2484:2500  WcPools[poolKey] */\n      dup2\n      mstore\n      0x20\n      add\n      swap1\n      dup2\n      mstore\n      0x20\n      add\n      0x00\n      keccak256\n        /* \"wwcc-contracts/contracts/wwccPool.sol\":2484:2505  WcPools[poolKey].home */\n      0x00\n      add\n        /* \"wwcc-contracts/contracts/wwccPool.sol\":2484:2512  WcPools[poolKey].home = home */\n      swap1\n      dup1\n      mload\n      swap1\n      0x20\n      add\n      swap1\n      tag_188\n      swap3\n      swap2\n      swap1\n      tag_189\n      jump\t// in\n    tag_188:\n      pop\n        /* \"wwcc-contracts/contracts/wwccPool.sol\":2550:2555  visit */\n      dup7\n        /* \"wwcc-contracts/contracts/wwccPool.sol\":2525:2532  WcPools */\n      0x05\n        /* \"wwcc-contracts/contracts/wwccPool.sol\":2525:2541  WcPools[poolKey] */\n      0x00\n        /* \"wwcc-contracts/contracts/wwccPool.sol\":2533:2540  poolKey */\n      dup4\n        /* \"wwcc-contracts/contracts/wwccPool.sol\":2525:2541  WcPools[poolKey] */\n      dup2\n      mstore\n      0x20\n      add\n      swap1\n      dup2\n      mstore\n      0x20\n      add\n      0x00\n      keccak256\n        /* \"wwcc-contracts/contracts/wwccPool.sol\":2525:2547  WcPools[poolKey].visit */\n      0x01\n      add\n        /* \"wwcc-contracts/contracts/wwccPool.sol\":2525:2555  WcPools[poolKey].visit = visit */\n      swap1\n      dup1\n      mload\n      swap1\n      0x20\n      add\n      swap1\n      tag_190\n      swap3\n      swap2\n      swap1\n      tag_189\n      jump\t// in\n    tag_190:\n      pop\n        /* \"wwcc-contracts/contracts/wwccPool.sol\":2594:2600  rounds */\n      dup6\n        /* \"wwcc-contracts/contracts/wwccPool.sol\":2568:2575  WcPools */\n      0x05\n        /* \"wwcc-contracts/contracts/wwccPool.sol\":2568:2584  WcPools[poolKey] */\n      0x00\n        /* \"wwcc-contracts/contracts/wwccPool.sol\":2576:2583  poolKey */\n      dup4\n        /* \"wwcc-contracts/contracts/wwccPool.sol\":2568:2584  WcPools[poolKey] */\n      dup2\n      mstore\n      0x20\n      add\n      swap1\n      dup2\n      mstore\n      0x20\n      add\n      0x00\n      keccak256\n        /* \"wwcc-contracts/contracts/wwccPool.sol\":2568:2591  WcPools[poolKey].rounds */\n      0x02\n      add\n        /* \"wwcc-contracts/contracts/wwccPool.sol\":2568:2600  WcPools[poolKey].rounds = rounds */\n      swap1\n      dup1\n      mload\n      swap1\n      0x20\n      add\n      swap1\n      tag_191\n      swap3\n      swap2\n      swap1\n      tag_189\n      jump\t// in\n    tag_191:\n      pop\n        /* \"wwcc-contracts/contracts/wwccPool.sol\":2638:2639  0 */\n      0x00\n        /* \"wwcc-contracts/contracts/wwccPool.sol\":2613:2620  WcPools */\n      0x05\n        /* \"wwcc-contracts/contracts/wwccPool.sol\":2613:2629  WcPools[poolKey] */\n      0x00\n        /* \"wwcc-contracts/contracts/wwccPool.sol\":2621:2628  poolKey */\n      dup4\n        /* \"wwcc-contracts/contracts/wwccPool.sol\":2613:2629  WcPools[poolKey] */\n      dup2\n      mstore\n      0x20\n      add\n      swap1\n      dup2\n      mstore\n      0x20\n      add\n      0x00\n      keccak256\n        /* \"wwcc-contracts/contracts/wwccPool.sol\":2613:2635  WcPools[poolKey].wPool */\n      0x03\n      add\n        /* \"wwcc-contracts/contracts/wwccPool.sol\":2613:2639  WcPools[poolKey].wPool = 0 */\n      dup2\n      swap1\n      sstore\n      pop\n        /* \"wwcc-contracts/contracts/wwccPool.sol\":2677:2678  0 */\n      0x00\n        /* \"wwcc-contracts/contracts/wwccPool.sol\":2652:2659  WcPools */\n      0x05\n        /* \"wwcc-contracts/contracts/wwccPool.sol\":2652:2668  WcPools[poolKey] */\n      0x00\n        /* \"wwcc-contracts/contracts/wwccPool.sol\":2660:2667  poolKey */\n      dup4\n        /* \"wwcc-contracts/contracts/wwccPool.sol\":2652:2668  WcPools[poolKey] */\n      dup2\n      mstore\n      0x20\n      add\n      swap1\n      dup2\n      mstore\n      0x20\n      add\n      0x00\n      keccak256\n        /* \"wwcc-contracts/contracts/wwccPool.sol\":2652:2674  WcPools[poolKey].dPool */\n      0x04\n      add\n        /* \"wwcc-contracts/contracts/wwccPool.sol\":2652:2678  WcPools[poolKey].dPool = 0 */\n      dup2\n      swap1\n      sstore\n      pop\n        /* \"wwcc-contracts/contracts/wwccPool.sol\":2716:2717  0 */\n      0x00\n        /* \"wwcc-contracts/contracts/wwccPool.sol\":2691:2698  WcPools */\n      0x05\n        /* \"wwcc-contracts/contracts/wwccPool.sol\":2691:2707  WcPools[poolKey] */\n      0x00\n        /* \"wwcc-contracts/contracts/wwccPool.sol\":2699:2706  poolKey */\n      dup4\n        /* \"wwcc-contracts/contracts/wwccPool.sol\":2691:2707  WcPools[poolKey] */\n      dup2\n      mstore\n      0x20\n      add\n      swap1\n      dup2\n      mstore\n      0x20\n      add\n      0x00\n      keccak256\n        /* \"wwcc-contracts/contracts/wwccPool.sol\":2691:2713  WcPools[poolKey].lPool */\n      0x05\n      add\n        /* \"wwcc-contracts/contracts/wwccPool.sol\":2691:2717  WcPools[poolKey].lPool = 0 */\n      dup2\n      swap1\n      sstore\n      pop\n        /* \"wwcc-contracts/contracts/wwccPool.sol\":2755:2756  0 */\n      0x00\n        /* \"wwcc-contracts/contracts/wwccPool.sol\":2730:2737  WcPools */\n      0x05\n        /* \"wwcc-contracts/contracts/wwccPool.sol\":2730:2746  WcPools[poolKey] */\n      0x00\n        /* \"wwcc-contracts/contracts/wwccPool.sol\":2738:2745  poolKey */\n      dup4\n        /* \"wwcc-contracts/contracts/wwccPool.sol\":2730:2746  WcPools[poolKey] */\n      dup2\n      mstore\n      0x20\n      add\n      swap1\n      dup2\n      mstore\n      0x20\n      add\n      0x00\n      keccak256\n        /* \"wwcc-contracts/contracts/wwccPool.sol\":2730:2752  WcPools[poolKey].sPool */\n      0x06\n      add\n        /* \"wwcc-contracts/contracts/wwccPool.sol\":2730:2756  WcPools[poolKey].sPool = 0 */\n      dup2\n      swap1\n      sstore\n      pop\n        /* \"wwcc-contracts/contracts/wwccPool.sol\":2794:2795  0 */\n      0x00\n        /* \"wwcc-contracts/contracts/wwccPool.sol\":2769:2776  WcPools */\n      0x05\n        /* \"wwcc-contracts/contracts/wwccPool.sol\":2769:2785  WcPools[poolKey] */\n      0x00\n        /* \"wwcc-contracts/contracts/wwccPool.sol\":2777:2784  poolKey */\n      dup4\n        /* \"wwcc-contracts/contracts/wwccPool.sol\":2769:2785  WcPools[poolKey] */\n      dup2\n      mstore\n      0x20\n      add\n      swap1\n      dup2\n      mstore\n      0x20\n      add\n      0x00\n      keccak256\n        /* \"wwcc-contracts/contracts/wwccPool.sol\":2769:2791  WcPools[poolKey].basal */\n      0x07\n      add\n        /* \"wwcc-contracts/contracts/wwccPool.sol\":2769:2795  WcPools[poolKey].basal = 0 */\n      dup2\n      swap1\n      sstore\n      pop\n        /* \"wwcc-contracts/contracts/wwccPool.sol\":2835:2842  decided */\n      dup5\n        /* \"wwcc-contracts/contracts/wwccPool.sol\":2808:2815  WcPools */\n      0x05\n        /* \"wwcc-contracts/contracts/wwccPool.sol\":2808:2824  WcPools[poolKey] */\n      0x00\n        /* \"wwcc-contracts/contracts/wwccPool.sol\":2816:2823  poolKey */\n      dup4\n        /* \"wwcc-contracts/contracts/wwccPool.sol\":2808:2824  WcPools[poolKey] */\n      dup2\n      mstore\n      0x20\n      add\n      swap1\n      dup2\n      mstore\n      0x20\n      add\n      0x00\n      keccak256\n        /* \"wwcc-contracts/contracts/wwccPool.sol\":2808:2832  WcPools[poolKey].decided */\n      0x08\n      add\n      0x00\n        /* \"wwcc-contracts/contracts/wwccPool.sol\":2808:2842  WcPools[poolKey].decided = decided */\n      0x0100\n      exp\n      dup2\n      sload\n      dup2\n      0xff\n      mul\n      not\n      and\n      swap1\n      dup4\n      iszero\n      iszero\n      mul\n      or\n      swap1\n      sstore\n      pop\n        /* \"wwcc-contracts/contracts/wwccPool.sol\":2883:2888  false */\n      0x00\n        /* \"wwcc-contracts/contracts/wwccPool.sol\":2855:2862  WcPools */\n      0x05\n        /* \"wwcc-contracts/contracts/wwccPool.sol\":2855:2871  WcPools[poolKey] */\n      0x00\n        /* \"wwcc-contracts/contracts/wwccPool.sol\":2863:2870  poolKey */\n      dup4\n        /* \"wwcc-contracts/contracts/wwccPool.sol\":2855:2871  WcPools[poolKey] */\n      dup2\n      mstore\n      0x20\n      add\n      swap1\n      dup2\n      mstore\n      0x20\n      add\n      0x00\n      keccak256\n        /* \"wwcc-contracts/contracts/wwccPool.sol\":2855:2880  WcPools[poolKey].finished */\n      0x08\n      add\n      0x02\n        /* \"wwcc-contracts/contracts/wwccPool.sol\":2855:2888  WcPools[poolKey].finished = false */\n      0x0100\n      exp\n      dup2\n      sload\n      dup2\n      0xff\n      mul\n      not\n      and\n      swap1\n      dup4\n      iszero\n      iszero\n      mul\n      or\n      swap1\n      sstore\n      pop\n        /* \"wwcc-contracts/contracts/wwccPool.sol\":2907:2915  poolKeys */\n      0x02\n        /* \"wwcc-contracts/contracts/wwccPool.sol\":2921:2928  poolKey */\n      dup2\n        /* \"wwcc-contracts/contracts/wwccPool.sol\":2907:2929  poolKeys.push(poolKey) */\n      swap1\n      dup1\n      0x01\n      dup2\n      sload\n      add\n      dup1\n      dup3\n      sstore\n      dup1\n      swap2\n      pop\n      pop\n      0x01\n      swap1\n      sub\n      swap1\n      0x00\n      mstore\n      keccak256(0x00, 0x20)\n      add\n      0x00\n      swap1\n      swap2\n      swap1\n      swap2\n      swap1\n      swap2\n      pop\n      sstore\n        /* \"wwcc-contracts/contracts/wwccPool.sol\":2945:2952  poolKey */\n      dup1\n        /* \"wwcc-contracts/contracts/wwccPool.sol\":2938:2952  return poolKey */\n      swap4\n      pop\n      pop\n      pop\n      pop\n        /* \"wwcc-contracts/contracts/wwccPool.sol\":2039:2959  function Set_Pool(... */\n      swap5\n      swap4\n      pop\n      pop\n      pop\n      pop\n      jump\t// out\n        /* \"wwcc-contracts/contracts/wwccPool.sol\":6642:6748  function CheckBasal() external onlyManager view  returns (uint256){... */\n    tag_53:\n        /* \"wwcc-contracts/contracts/wwccPool.sol\":6700:6707  uint256 */\n      0x00\n        /* \"wwcc-contracts/contracts/wwccPool.sol\":13420:13425  owner */\n      dup1\n      0x00\n      swap1\n      sload\n      swap1\n      0x0100\n      exp\n      swap1\n      div\n      0xffffffffffffffffffffffffffffffffffffffff\n      and\n        /* \"wwcc-contracts/contracts/wwccPool.sol\":13406:13425  msg.sender == owner */\n      0xffffffffffffffffffffffffffffffffffffffff\n      and\n        /* \"wwcc-contracts/contracts/wwccPool.sol\":13406:13416  msg.sender */\n      caller\n        /* \"wwcc-contracts/contracts/wwccPool.sol\":13406:13425  msg.sender == owner */\n      0xffffffffffffffffffffffffffffffffffffffff\n      and\n      eq\n        /* \"wwcc-contracts/contracts/wwccPool.sol\":13385:13476  require(... */\n      tag_194\n      jumpi\n      mload(0x40)\n      0x08c379a000000000000000000000000000000000000000000000000000000000\n      dup2\n      mstore\n      0x04\n      add\n      tag_195\n      swap1\n      tag_100\n      jump\t// in\n    tag_195:\n      mload(0x40)\n      dup1\n      swap2\n      sub\n      swap1\n      revert\n    tag_194:\n        /* \"wwcc-contracts/contracts/wwccPool.sol\":6728:6741  nextBasalLast */\n      sload(0x01)\n        /* \"wwcc-contracts/contracts/wwccPool.sol\":6721:6741  return nextBasalLast */\n      swap1\n      pop\n        /* \"wwcc-contracts/contracts/wwccPool.sol\":6642:6748  function CheckBasal() external onlyManager view  returns (uint256){... */\n      swap1\n      jump\t// out\n        /* \"wwcc-contracts/contracts/wwccPool.sol\":6123:6481  function CheckExpect(bytes32 poolKey) external onlyManager view  returns (uint256){... */\n    tag_60:\n        /* \"wwcc-contracts/contracts/wwccPool.sol\":6197:6204  uint256 */\n      0x00\n        /* \"wwcc-contracts/contracts/wwccPool.sol\":13420:13425  owner */\n      dup1\n      0x00\n      swap1\n      sload\n      swap1\n      0x0100\n      exp\n      swap1\n      div\n      0xffffffffffffffffffffffffffffffffffffffff\n      and\n        /* \"wwcc-contracts/contracts/wwccPool.sol\":13406:13425  msg.sender == owner */\n      0xffffffffffffffffffffffffffffffffffffffff\n      and\n        /* \"wwcc-contracts/contracts/wwccPool.sol\":13406:13416  msg.sender */\n      caller\n        /* \"wwcc-contracts/contracts/wwccPool.sol\":13406:13425  msg.sender == owner */\n      0xffffffffffffffffffffffffffffffffffffffff\n      and\n      eq\n        /* \"wwcc-contracts/contracts/wwccPool.sol\":13385:13476  require(... */\n      tag_198\n      jumpi\n      mload(0x40)\n      0x08c379a000000000000000000000000000000000000000000000000000000000\n      dup2\n      mstore\n      0x04\n      add\n      tag_199\n      swap1\n      tag_100\n      jump\t// in\n    tag_199:\n      mload(0x40)\n      dup1\n      swap2\n      sub\n      swap1\n      revert\n    tag_198:\n        /* \"wwcc-contracts/contracts/wwccPool.sol\":6219:6236  contains(poolKey) */\n      tag_201\n        /* \"wwcc-contracts/contracts/wwccPool.sol\":6228:6235  poolKey */\n      dup3\n        /* \"wwcc-contracts/contracts/wwccPool.sol\":6219:6227  contains */\n      tag_103\n        /* \"wwcc-contracts/contracts/wwccPool.sol\":6219:6236  contains(poolKey) */\n      jump\t// in\n    tag_201:\n        /* \"wwcc-contracts/contracts/wwccPool.sol\":6215:6475  if(!contains(poolKey)) { ... */\n      tag_202\n      jumpi\n        /* \"wwcc-contracts/contracts/wwccPool.sol\":6253:6277  revert(\"pool not exist\") */\n      mload(0x40)\n      0x08c379a000000000000000000000000000000000000000000000000000000000\n      dup2\n      mstore\n      0x04\n      add\n      tag_203\n      swap1\n      tag_106\n      jump\t// in\n    tag_203:\n      mload(0x40)\n      dup1\n      swap2\n      sub\n      swap1\n      revert\n        /* \"wwcc-contracts/contracts/wwccPool.sol\":6215:6475  if(!contains(poolKey)) { ... */\n    tag_202:\n        /* \"wwcc-contracts/contracts/wwccPool.sol\":6305:6323  WcPool memory pool */\n      0x00\n        /* \"wwcc-contracts/contracts/wwccPool.sol\":6326:6333  WcPools */\n      0x05\n        /* \"wwcc-contracts/contracts/wwccPool.sol\":6326:6342  WcPools[poolKey] */\n      0x00\n        /* \"wwcc-contracts/contracts/wwccPool.sol\":6334:6341  poolKey */\n      dup5\n        /* \"wwcc-contracts/contracts/wwccPool.sol\":6326:6342  WcPools[poolKey] */\n      dup2\n      mstore\n      0x20\n      add\n      swap1\n      dup2\n      mstore\n      0x20\n      add\n      0x00\n      keccak256\n        /* \"wwcc-contracts/contracts/wwccPool.sol\":6305:6342  WcPool memory pool = WcPools[poolKey] */\n      mload(0x40)\n      dup1\n      0x0160\n      add\n      0x40\n      mstore\n      swap1\n      dup2\n      0x00\n      dup3\n      add\n      dup1\n      sload\n      tag_205\n      swap1\n      tag_109\n      jump\t// in\n    tag_205:\n      dup1\n      0x1f\n      add\n      0x20\n      dup1\n      swap2\n      div\n      mul\n      0x20\n      add\n      mload(0x40)\n      swap1\n      dup2\n      add\n      0x40\n      mstore\n      dup1\n      swap3\n      swap2\n      swap1\n      dup2\n      dup2\n      mstore\n      0x20\n      add\n      dup3\n      dup1\n      sload\n      tag_206\n      swap1\n      tag_109\n      jump\t// in\n    tag_206:\n      dup1\n      iszero\n      tag_207\n      jumpi\n      dup1\n      0x1f\n      lt\n      tag_208\n      jumpi\n      0x0100\n      dup1\n      dup4\n      sload\n      div\n      mul\n      dup4\n      mstore\n      swap2\n      0x20\n      add\n      swap2\n      jump(tag_207)\n    tag_208:\n      dup3\n      add\n      swap2\n      swap1\n      0x00\n      mstore\n      keccak256(0x00, 0x20)\n      swap1\n    tag_209:\n      dup2\n      sload\n      dup2\n      mstore\n      swap1\n      0x01\n      add\n      swap1\n      0x20\n      add\n      dup1\n      dup4\n      gt\n      tag_209\n      jumpi\n      dup3\n      swap1\n      sub\n      0x1f\n      and\n      dup3\n      add\n      swap2\n    tag_207:\n      pop\n      pop\n      pop\n      pop\n      pop\n      dup2\n      mstore\n      0x20\n      add\n      0x01\n      dup3\n      add\n      dup1\n      sload\n      tag_210\n      swap1\n      tag_109\n      jump\t// in\n    tag_210:\n      dup1\n      0x1f\n      add\n      0x20\n      dup1\n      swap2\n      div\n      mul\n      0x20\n      add\n      mload(0x40)\n      swap1\n      dup2\n      add\n      0x40\n      mstore\n      dup1\n      swap3\n      swap2\n      swap1\n      dup2\n      dup2\n      mstore\n      0x20\n      add\n      dup3\n      dup1\n      sload\n      tag_211\n      swap1\n      tag_109\n      jump\t// in\n    tag_211:\n      dup1\n      iszero\n      tag_212\n      jumpi\n      dup1\n      0x1f\n      lt\n      tag_213\n      jumpi\n      0x0100\n      dup1\n      dup4\n      sload\n      div\n      mul\n      dup4\n      mstore\n      swap2\n      0x20\n      add\n      swap2\n      jump(tag_212)\n    tag_213:\n      dup3\n      add\n      swap2\n      swap1\n      0x00\n      mstore\n      keccak256(0x00, 0x20)\n      swap1\n    tag_214:\n      dup2\n      sload\n      dup2\n      mstore\n      swap1\n      0x01\n      add\n      swap1\n      0x20\n      add\n      dup1\n      dup4\n      gt\n      tag_214\n      jumpi\n      dup3\n      swap1\n      sub\n      0x1f\n      and\n      dup3\n      add\n      swap2\n    tag_212:\n      pop\n      pop\n      pop\n      pop\n      pop\n      dup2\n      mstore\n      0x20\n      add\n      0x02\n      dup3\n      add\n      dup1\n      sload\n      tag_215\n      swap1\n      tag_109\n      jump\t// in\n    tag_215:\n      dup1\n      0x1f\n      add\n      0x20\n      dup1\n      swap2\n      div\n      mul\n      0x20\n      add\n      mload(0x40)\n      swap1\n      dup2\n      add\n      0x40\n      mstore\n      dup1\n      swap3\n      swap2\n      swap1\n      dup2\n      dup2\n      mstore\n      0x20\n      add\n      dup3\n      dup1\n      sload\n      tag_216\n      swap1\n      tag_109\n      jump\t// in\n    tag_216:\n      dup1\n      iszero\n      tag_217\n      jumpi\n      dup1\n      0x1f\n      lt\n      tag_218\n      jumpi\n      0x0100\n      dup1\n      dup4\n      sload\n      div\n      mul\n      dup4\n      mstore\n      swap2\n      0x20\n      add\n      swap2\n      jump(tag_217)\n    tag_218:\n      dup3\n      add\n      swap2\n      swap1\n      0x00\n      mstore\n      keccak256(0x00, 0x20)\n      swap1\n    tag_219:\n      dup2\n      sload\n      dup2\n      mstore\n      swap1\n      0x01\n      add\n      swap1\n      0x20\n      add\n      dup1\n      dup4\n      gt\n      tag_219\n      jumpi\n      dup3\n      swap1\n      sub\n      0x1f\n      and\n      dup3\n      add\n      swap2\n    tag_217:\n      pop\n      pop\n      pop\n      pop\n      pop\n      dup2\n      mstore\n      0x20\n      add\n      0x03\n      dup3\n      add\n      sload\n      dup2\n      mstore\n      0x20\n      add\n      0x04\n      dup3\n      add\n      sload\n      dup2\n      mstore\n      0x20\n      add\n      0x05\n      dup3\n      add\n      sload\n      dup2\n      mstore\n      0x20\n      add\n      0x06\n      dup3\n      add\n      sload\n      dup2\n      mstore\n      0x20\n      add\n      0x07\n      dup3\n      add\n      sload\n      dup2\n      mstore\n      0x20\n      add\n      0x08\n      dup3\n      add\n      0x00\n      swap1\n      sload\n      swap1\n      0x0100\n      exp\n      swap1\n      div\n      0xff\n      and\n      iszero\n      iszero\n      iszero\n      iszero\n      dup2\n      mstore\n      0x20\n      add\n      0x08\n      dup3\n      add\n      0x01\n      swap1\n      sload\n      swap1\n      0x0100\n      exp\n      swap1\n      div\n      0xff\n      and\n      iszero\n      iszero\n      iszero\n      iszero\n      dup2\n      mstore\n      0x20\n      add\n      0x08\n      dup3\n      add\n      0x02\n      swap1\n      sload\n      swap1\n      0x0100\n      exp\n      swap1\n      div\n      0xff\n      and\n      iszero\n      iszero\n      iszero\n      iszero\n      dup2\n      mstore\n      pop\n      pop\n      swap1\n      pop\n        /* \"wwcc-contracts/contracts/wwccPool.sol\":6355:6369  uint256 expect */\n      0x00\n        /* \"wwcc-contracts/contracts/wwccPool.sol\":6372:6438  (pool.wPool+pool.lPool+pool.dPool+pool.sPool + pool.basal).div(10) */\n      tag_220\n        /* \"wwcc-contracts/contracts/wwccPool.sol\":6435:6437  10 */\n      0x0a\n        /* \"wwcc-contracts/contracts/wwccPool.sol\":6419:6423  pool */\n      dup4\n        /* \"wwcc-contracts/contracts/wwccPool.sol\":6419:6429  pool.basal */\n      0xe0\n      add\n      mload\n        /* \"wwcc-contracts/contracts/wwccPool.sol\":6406:6410  pool */\n      dup5\n        /* \"wwcc-contracts/contracts/wwccPool.sol\":6406:6416  pool.sPool */\n      0xc0\n      add\n      mload\n        /* \"wwcc-contracts/contracts/wwccPool.sol\":6395:6399  pool */\n      dup6\n        /* \"wwcc-contracts/contracts/wwccPool.sol\":6395:6405  pool.dPool */\n      0x80\n      add\n      mload\n        /* \"wwcc-contracts/contracts/wwccPool.sol\":6384:6388  pool */\n      dup7\n        /* \"wwcc-contracts/contracts/wwccPool.sol\":6384:6394  pool.lPool */\n      0xa0\n      add\n      mload\n        /* \"wwcc-contracts/contracts/wwccPool.sol\":6373:6377  pool */\n      dup8\n        /* \"wwcc-contracts/contracts/wwccPool.sol\":6373:6383  pool.wPool */\n      0x60\n      add\n      mload\n        /* \"wwcc-contracts/contracts/wwccPool.sol\":6373:6394  pool.wPool+pool.lPool */\n      tag_221\n      swap2\n      swap1\n      tag_22\n      jump\t// in\n    tag_221:\n        /* \"wwcc-contracts/contracts/wwccPool.sol\":6373:6405  pool.wPool+pool.lPool+pool.dPool */\n      tag_222\n      swap2\n      swap1\n      tag_22\n      jump\t// in\n    tag_222:\n        /* \"wwcc-contracts/contracts/wwccPool.sol\":6373:6416  pool.wPool+pool.lPool+pool.dPool+pool.sPool */\n      tag_223\n      swap2\n      swap1\n      tag_22\n      jump\t// in\n    tag_223:\n        /* \"wwcc-contracts/contracts/wwccPool.sol\":6373:6429  pool.wPool+pool.lPool+pool.dPool+pool.sPool + pool.basal */\n      tag_224\n      swap2\n      swap1\n      tag_22\n      jump\t// in\n    tag_224:\n        /* \"wwcc-contracts/contracts/wwccPool.sol\":6372:6434  (pool.wPool+pool.lPool+pool.dPool+pool.sPool + pool.basal).div */\n      tag_20\n      swap1\n        /* \"wwcc-contracts/contracts/wwccPool.sol\":6372:6438  (pool.wPool+pool.lPool+pool.dPool+pool.sPool + pool.basal).div(10) */\n      swap2\n      swap1\n      0xffffffff\n      and\n      jump\t// in\n    tag_220:\n        /* \"wwcc-contracts/contracts/wwccPool.sol\":6355:6438  uint256 expect = (pool.wPool+pool.lPool+pool.dPool+pool.sPool + pool.basal).div(10) */\n      swap1\n      pop\n        /* \"wwcc-contracts/contracts/wwccPool.sol\":6458:6464  expect */\n      dup1\n        /* \"wwcc-contracts/contracts/wwccPool.sol\":6451:6464  return expect */\n      swap3\n      pop\n      pop\n      pop\n        /* \"wwcc-contracts/contracts/wwccPool.sol\":6123:6481  function CheckExpect(bytes32 poolKey) external onlyManager view  returns (uint256){... */\n      swap2\n      swap1\n      pop\n      jump\t// out\n        /* \"wwcc-contracts/contracts/wwccPool.sol\":2982:4308  function Picking(address joiner,uint256 weight,bytes32 poolKey,uint256 homeScore,uint256 visitScore,uint256 kind) external returns(bool){... */\n    tag_66:\n        /* \"wwcc-contracts/contracts/wwccPool.sol\":3113:3117  bool */\n      0x00\n        /* \"wwcc-contracts/contracts/wwccPool.sol\":3132:3149  contains(poolKey) */\n      tag_226\n        /* \"wwcc-contracts/contracts/wwccPool.sol\":3141:3148  poolKey */\n      dup6\n        /* \"wwcc-contracts/contracts/wwccPool.sol\":3132:3140  contains */\n      tag_103\n        /* \"wwcc-contracts/contracts/wwccPool.sol\":3132:3149  contains(poolKey) */\n      jump\t// in\n    tag_226:\n        /* \"wwcc-contracts/contracts/wwccPool.sol\":3128:4282  if(!contains(poolKey)) { ... */\n      tag_227\n      jumpi\n        /* \"wwcc-contracts/contracts/wwccPool.sol\":3166:3190  revert(\"pool not exist\") */\n      mload(0x40)\n      0x08c379a000000000000000000000000000000000000000000000000000000000\n      dup2\n      mstore\n      0x04\n      add\n      tag_228\n      swap1\n      tag_106\n      jump\t// in\n    tag_228:\n      mload(0x40)\n      dup1\n      swap2\n      sub\n      swap1\n      revert\n        /* \"wwcc-contracts/contracts/wwccPool.sol\":3128:4282  if(!contains(poolKey)) { ... */\n    tag_227:\n        /* \"wwcc-contracts/contracts/wwccPool.sol\":3239:3245  weight */\n      dup6\n        /* \"wwcc-contracts/contracts/wwccPool.sol\":3220:3230  voteAmount */\n      0x04\n        /* \"wwcc-contracts/contracts/wwccPool.sol\":3220:3238  voteAmount[joiner] */\n      0x00\n        /* \"wwcc-contracts/contracts/wwccPool.sol\":3231:3237  joiner */\n      dup10\n        /* \"wwcc-contracts/contracts/wwccPool.sol\":3220:3238  voteAmount[joiner] */\n      0xffffffffffffffffffffffffffffffffffffffff\n      and\n      0xffffffffffffffffffffffffffffffffffffffff\n      and\n      dup2\n      mstore\n      0x20\n      add\n      swap1\n      dup2\n      mstore\n      0x20\n      add\n      0x00\n      keccak256\n      sload\n        /* \"wwcc-contracts/contracts/wwccPool.sol\":3220:3245  voteAmount[joiner]<weight */\n      lt\n        /* \"wwcc-contracts/contracts/wwccPool.sol\":3217:3308  if(voteAmount[joiner]<weight){... */\n      iszero\n      tag_230\n      jumpi\n        /* \"wwcc-contracts/contracts/wwccPool.sol\":3263:3294  revert(\"not enough voteAmount\") */\n      mload(0x40)\n      0x08c379a000000000000000000000000000000000000000000000000000000000\n      dup2\n      mstore\n      0x04\n      add\n      tag_231\n      swap1\n      tag_232\n      jump\t// in\n    tag_231:\n      mload(0x40)\n      dup1\n      swap2\n      sub\n      swap1\n      revert\n        /* \"wwcc-contracts/contracts/wwccPool.sol\":3217:3308  if(voteAmount[joiner]<weight){... */\n    tag_230:\n        /* \"wwcc-contracts/contracts/wwccPool.sol\":3320:3338  WcPool memory pool */\n      0x00\n        /* \"wwcc-contracts/contracts/wwccPool.sol\":3341:3348  WcPools */\n      0x05\n        /* \"wwcc-contracts/contracts/wwccPool.sol\":3341:3357  WcPools[poolKey] */\n      0x00\n        /* \"wwcc-contracts/contracts/wwccPool.sol\":3349:3356  poolKey */\n      dup8\n        /* \"wwcc-contracts/contracts/wwccPool.sol\":3341:3357  WcPools[poolKey] */\n      dup2\n      mstore\n      0x20\n      add\n      swap1\n      dup2\n      mstore\n      0x20\n      add\n      0x00\n      keccak256\n        /* \"wwcc-contracts/contracts/wwccPool.sol\":3320:3357  WcPool memory pool = WcPools[poolKey] */\n      mload(0x40)\n      dup1\n      0x0160\n      add\n      0x40\n      mstore\n      swap1\n      dup2\n      0x00\n      dup3\n      add\n      dup1\n      sload\n      tag_233\n      swap1\n      tag_109\n      jump\t// in\n    tag_233:\n      dup1\n      0x1f\n      add\n      0x20\n      dup1\n      swap2\n      div\n      mul\n      0x20\n      add\n      mload(0x40)\n      swap1\n      dup2\n      add\n      0x40\n      mstore\n      dup1\n      swap3\n      swap2\n      swap1\n      dup2\n      dup2\n      mstore\n      0x20\n      add\n      dup3\n      dup1\n      sload\n      tag_234\n      swap1\n      tag_109\n      jump\t// in\n    tag_234:\n      dup1\n      iszero\n      tag_235\n      jumpi\n      dup1\n      0x1f\n      lt\n      tag_236\n      jumpi\n      0x0100\n      dup1\n      dup4\n      sload\n      div\n      mul\n      dup4\n      mstore\n      swap2\n      0x20\n      add\n      swap2\n      jump(tag_235)\n    tag_236:\n      dup3\n      add\n      swap2\n      swap1\n      0x00\n      mstore\n      keccak256(0x00, 0x20)\n      swap1\n    tag_237:\n      dup2\n      sload\n      dup2\n      mstore\n      swap1\n      0x01\n      add\n      swap1\n      0x20\n      add\n      dup1\n      dup4\n      gt\n      tag_237\n      jumpi\n      dup3\n      swap1\n      sub\n      0x1f\n      and\n      dup3\n      add\n      swap2\n    tag_235:\n      pop\n      pop\n      pop\n      pop\n      pop\n      dup2\n      mstore\n      0x20\n      add\n      0x01\n      dup3\n      add\n      dup1\n      sload\n      tag_238\n      swap1\n      tag_109\n      jump\t// in\n    tag_238:\n      dup1\n      0x1f\n      add\n      0x20\n      dup1\n      swap2\n      div\n      mul\n      0x20\n      add\n      mload(0x40)\n      swap1\n      dup2\n      add\n      0x40\n      mstore\n      dup1\n      swap3\n      swap2\n      swap1\n      dup2\n      dup2\n      mstore\n      0x20\n      add\n      dup3\n      dup1\n      sload\n      tag_239\n      swap1\n      tag_109\n      jump\t// in\n    tag_239:\n      dup1\n      iszero\n      tag_240\n      jumpi\n      dup1\n      0x1f\n      lt\n      tag_241\n      jumpi\n      0x0100\n      dup1\n      dup4\n      sload\n      div\n      mul\n      dup4\n      mstore\n      swap2\n      0x20\n      add\n      swap2\n      jump(tag_240)\n    tag_241:\n      dup3\n      add\n      swap2\n      swap1\n      0x00\n      mstore\n      keccak256(0x00, 0x20)\n      swap1\n    tag_242:\n      dup2\n      sload\n      dup2\n      mstore\n      swap1\n      0x01\n      add\n      swap1\n      0x20\n      add\n      dup1\n      dup4\n      gt\n      tag_242\n      jumpi\n      dup3\n      swap1\n      sub\n      0x1f\n      and\n      dup3\n      add\n      swap2\n    tag_240:\n      pop\n      pop\n      pop\n      pop\n      pop\n      dup2\n      mstore\n      0x20\n      add\n      0x02\n      dup3\n      add\n      dup1\n      sload\n      tag_243\n      swap1\n      tag_109\n      jump\t// in\n    tag_243:\n      dup1\n      0x1f\n      add\n      0x20\n      dup1\n      swap2\n      div\n      mul\n      0x20\n      add\n      mload(0x40)\n      swap1\n      dup2\n      add\n      0x40\n      mstore\n      dup1\n      swap3\n      swap2\n      swap1\n      dup2\n      dup2\n      mstore\n      0x20\n      add\n      dup3\n      dup1\n      sload\n      tag_244\n      swap1\n      tag_109\n      jump\t// in\n    tag_244:\n      dup1\n      iszero\n      tag_245\n      jumpi\n      dup1\n      0x1f\n      lt\n      tag_246\n      jumpi\n      0x0100\n      dup1\n      dup4\n      sload\n      div\n      mul\n      dup4\n      mstore\n      swap2\n      0x20\n      add\n      swap2\n      jump(tag_245)\n    tag_246:\n      dup3\n      add\n      swap2\n      swap1\n      0x00\n      mstore\n      keccak256(0x00, 0x20)\n      swap1\n    tag_247:\n      dup2\n      sload\n      dup2\n      mstore\n      swap1\n      0x01\n      add\n      swap1\n      0x20\n      add\n      dup1\n      dup4\n      gt\n      tag_247\n      jumpi\n      dup3\n      swap1\n      sub\n      0x1f\n      and\n      dup3\n      add\n      swap2\n    tag_245:\n      pop\n      pop\n      pop\n      pop\n      pop\n      dup2\n      mstore\n      0x20\n      add\n      0x03\n      dup3\n      add\n      sload\n      dup2\n      mstore\n      0x20\n      add\n      0x04\n      dup3\n      add\n      sload\n      dup2\n      mstore\n      0x20\n      add\n      0x05\n      dup3\n      add\n      sload\n      dup2\n      mstore\n      0x20\n      add\n      0x06\n      dup3\n      add\n      sload\n      dup2\n      mstore\n      0x20\n      add\n      0x07\n      dup3\n      add\n      sload\n      dup2\n      mstore\n      0x20\n      add\n      0x08\n      dup3\n      add\n      0x00\n      swap1\n      sload\n      swap1\n      0x0100\n      exp\n      swap1\n      div\n      0xff\n      and\n      iszero\n      iszero\n      iszero\n      iszero\n      dup2\n      mstore\n      0x20\n      add\n      0x08\n      dup3\n      add\n      0x01\n      swap1\n      sload\n      swap1\n      0x0100\n      exp\n      swap1\n      div\n      0xff\n      and\n      iszero\n      iszero\n      iszero\n      iszero\n      dup2\n      mstore\n      0x20\n      add\n      0x08\n      dup3\n      add\n      0x02\n      swap1\n      sload\n      swap1\n      0x0100\n      exp\n      swap1\n      div\n      0xff\n      and\n      iszero\n      iszero\n      iszero\n      iszero\n      dup2\n      mstore\n      pop\n      pop\n      swap1\n      pop\n        /* \"wwcc-contracts/contracts/wwccPool.sol\":3370:3387  string  memory si */\n      0x00\n        /* \"wwcc-contracts/contracts/wwccPool.sol\":3390:3455  strConcat(uint256ToString(homeScore),uint256ToString(visitScore)) */\n      tag_248\n        /* \"wwcc-contracts/contracts/wwccPool.sol\":3400:3426  uint256ToString(homeScore) */\n      tag_249\n        /* \"wwcc-contracts/contracts/wwccPool.sol\":3416:3425  homeScore */\n      dup8\n        /* \"wwcc-contracts/contracts/wwccPool.sol\":3400:3415  uint256ToString */\n      tag_250\n        /* \"wwcc-contracts/contracts/wwccPool.sol\":3400:3426  uint256ToString(homeScore) */\n      jump\t// in\n    tag_249:\n        /* \"wwcc-contracts/contracts/wwccPool.sol\":3427:3454  uint256ToString(visitScore) */\n      tag_251\n        /* \"wwcc-contracts/contracts/wwccPool.sol\":3443:3453  visitScore */\n      dup8\n        /* \"wwcc-contracts/contracts/wwccPool.sol\":3427:3442  uint256ToString */\n      tag_250\n        /* \"wwcc-contracts/contracts/wwccPool.sol\":3427:3454  uint256ToString(visitScore) */\n      jump\t// in\n    tag_251:\n        /* \"wwcc-contracts/contracts/wwccPool.sol\":3390:3399  strConcat */\n      tag_179\n        /* \"wwcc-contracts/contracts/wwccPool.sol\":3390:3455  strConcat(uint256ToString(homeScore),uint256ToString(visitScore)) */\n      jump\t// in\n    tag_248:\n        /* \"wwcc-contracts/contracts/wwccPool.sol\":3370:3455  string  memory si = strConcat(uint256ToString(homeScore),uint256ToString(visitScore)) */\n      swap1\n      pop\n        /* \"wwcc-contracts/contracts/wwccPool.sol\":3468:3493  string  memory pickingKey */\n      0x00\n        /* \"wwcc-contracts/contracts/wwccPool.sol\":3496:3534  strConcat(bytes32ToString(poolKey),si) */\n      tag_252\n        /* \"wwcc-contracts/contracts/wwccPool.sol\":3506:3530  bytes32ToString(poolKey) */\n      tag_253\n        /* \"wwcc-contracts/contracts/wwccPool.sol\":3522:3529  poolKey */\n      dup10\n        /* \"wwcc-contracts/contracts/wwccPool.sol\":3506:3521  bytes32ToString */\n      tag_254\n        /* \"wwcc-contracts/contracts/wwccPool.sol\":3506:3530  bytes32ToString(poolKey) */\n      jump\t// in\n    tag_253:\n        /* \"wwcc-contracts/contracts/wwccPool.sol\":3531:3533  si */\n      dup4\n        /* \"wwcc-contracts/contracts/wwccPool.sol\":3496:3505  strConcat */\n      tag_179\n        /* \"wwcc-contracts/contracts/wwccPool.sol\":3496:3534  strConcat(bytes32ToString(poolKey),si) */\n      jump\t// in\n    tag_252:\n        /* \"wwcc-contracts/contracts/wwccPool.sol\":3468:3534  string  memory pickingKey = strConcat(bytes32ToString(poolKey),si) */\n      swap1\n      pop\n        /* \"wwcc-contracts/contracts/wwccPool.sol\":3547:3570  JoinerPicking memory jp */\n      0x00\n        /* \"wwcc-contracts/contracts/wwccPool.sol\":3573:3644  JoinerPicking(weight,kind,homeScore,visitScore,joiner,pickingKey,false) */\n      mload(0x40)\n      dup1\n      0xe0\n      add\n      0x40\n      mstore\n      dup1\n        /* \"wwcc-contracts/contracts/wwccPool.sol\":3587:3593  weight */\n      dup12\n        /* \"wwcc-contracts/contracts/wwccPool.sol\":3573:3644  JoinerPicking(weight,kind,homeScore,visitScore,joiner,pickingKey,false) */\n      dup2\n      mstore\n      0x20\n      add\n        /* \"wwcc-contracts/contracts/wwccPool.sol\":3594:3598  kind */\n      dup8\n        /* \"wwcc-contracts/contracts/wwccPool.sol\":3573:3644  JoinerPicking(weight,kind,homeScore,visitScore,joiner,pickingKey,false) */\n      dup2\n      mstore\n      0x20\n      add\n        /* \"wwcc-contracts/contracts/wwccPool.sol\":3599:3608  homeScore */\n      dup10\n        /* \"wwcc-contracts/contracts/wwccPool.sol\":3573:3644  JoinerPicking(weight,kind,homeScore,visitScore,joiner,pickingKey,false) */\n      dup2\n      mstore\n      0x20\n      add\n        /* \"wwcc-contracts/contracts/wwccPool.sol\":3609:3619  visitScore */\n      dup9\n        /* \"wwcc-contracts/contracts/wwccPool.sol\":3573:3644  JoinerPicking(weight,kind,homeScore,visitScore,joiner,pickingKey,false) */\n      dup2\n      mstore\n      0x20\n      add\n        /* \"wwcc-contracts/contracts/wwccPool.sol\":3620:3626  joiner */\n      dup13\n        /* \"wwcc-contracts/contracts/wwccPool.sol\":3573:3644  JoinerPicking(weight,kind,homeScore,visitScore,joiner,pickingKey,false) */\n      0xffffffffffffffffffffffffffffffffffffffff\n      and\n      dup2\n      mstore\n      0x20\n      add\n        /* \"wwcc-contracts/contracts/wwccPool.sol\":3627:3637  pickingKey */\n      dup4\n        /* \"wwcc-contracts/contracts/wwccPool.sol\":3573:3644  JoinerPicking(weight,kind,homeScore,visitScore,joiner,pickingKey,false) */\n      dup2\n      mstore\n      0x20\n      add\n        /* \"wwcc-contracts/contracts/wwccPool.sol\":3638:3643  false */\n      0x00\n        /* \"wwcc-contracts/contracts/wwccPool.sol\":3573:3644  JoinerPicking(weight,kind,homeScore,visitScore,joiner,pickingKey,false) */\n      iszero\n      iszero\n      dup2\n      mstore\n      pop\n        /* \"wwcc-contracts/contracts/wwccPool.sol\":3547:3644  JoinerPicking memory jp = JoinerPicking(weight,kind,homeScore,visitScore,joiner,pickingKey,false) */\n      swap1\n      pop\n        /* \"wwcc-contracts/contracts/wwccPool.sol\":3693:3700  poolKey */\n      dup9\n        /* \"wwcc-contracts/contracts/wwccPool.sol\":3657:3673  allScorePoolInfo */\n      0x06\n        /* \"wwcc-contracts/contracts/wwccPool.sol\":3657:3682  allScorePoolInfo[poolKey] */\n      0x00\n        /* \"wwcc-contracts/contracts/wwccPool.sol\":3674:3681  poolKey */\n      dup12\n        /* \"wwcc-contracts/contracts/wwccPool.sol\":3657:3682  allScorePoolInfo[poolKey] */\n      dup2\n      mstore\n      0x20\n      add\n      swap1\n      dup2\n      mstore\n      0x20\n      add\n      0x00\n      keccak256\n        /* \"wwcc-contracts/contracts/wwccPool.sol\":3657:3690  allScorePoolInfo[poolKey].poolKey */\n      0x01\n      add\n        /* \"wwcc-contracts/contracts/wwccPool.sol\":3657:3700  allScorePoolInfo[poolKey].poolKey = poolKey */\n      dup2\n      swap1\n      sstore\n      pop\n        /* \"wwcc-contracts/contracts/wwccPool.sol\":3713:3729  allScorePoolInfo */\n      0x06\n        /* \"wwcc-contracts/contracts/wwccPool.sol\":3713:3738  allScorePoolInfo[poolKey] */\n      0x00\n        /* \"wwcc-contracts/contracts/wwccPool.sol\":3730:3737  poolKey */\n      dup11\n        /* \"wwcc-contracts/contracts/wwccPool.sol\":3713:3738  allScorePoolInfo[poolKey] */\n      dup2\n      mstore\n      0x20\n      add\n      swap1\n      dup2\n      mstore\n      0x20\n      add\n      0x00\n      keccak256\n        /* \"wwcc-contracts/contracts/wwccPool.sol\":3713:3750  allScorePoolInfo[poolKey].separateBet */\n      0x00\n      add\n        /* \"wwcc-contracts/contracts/wwccPool.sol\":3756:3758  jp */\n      dup2\n        /* \"wwcc-contracts/contracts/wwccPool.sol\":3713:3759  allScorePoolInfo[poolKey].separateBet.push(jp) */\n      swap1\n      dup1\n      0x01\n      dup2\n      sload\n      add\n      dup1\n      dup3\n      sstore\n      dup1\n      swap2\n      pop\n      pop\n      0x01\n      swap1\n      sub\n      swap1\n      0x00\n      mstore\n      keccak256(0x00, 0x20)\n      swap1\n      0x07\n      mul\n      add\n      0x00\n      swap1\n      swap2\n      swap1\n      swap2\n      swap1\n      swap2\n      pop\n      0x00\n      dup3\n      add\n      mload\n      dup2\n      0x00\n      add\n      sstore\n      0x20\n      dup3\n      add\n      mload\n      dup2\n      0x01\n      add\n      sstore\n      0x40\n      dup3\n      add\n      mload\n      dup2\n      0x02\n      add\n      sstore\n      0x60\n      dup3\n      add\n      mload\n      dup2\n      0x03\n      add\n      sstore\n      0x80\n      dup3\n      add\n      mload\n      dup2\n      0x04\n      add\n      exp(0x0100, 0x00)\n      dup2\n      sload\n      dup2\n      0xffffffffffffffffffffffffffffffffffffffff\n      mul\n      not\n      and\n      swap1\n      dup4\n      0xffffffffffffffffffffffffffffffffffffffff\n      and\n      mul\n      or\n      swap1\n      sstore\n      pop\n      0xa0\n      dup3\n      add\n      mload\n      dup2\n      0x05\n      add\n      swap1\n      dup1\n      mload\n      swap1\n      0x20\n      add\n      swap1\n      tag_256\n      swap3\n      swap2\n      swap1\n      tag_189\n      jump\t// in\n    tag_256:\n      pop\n      0xc0\n      dup3\n      add\n      mload\n      dup2\n      0x06\n      add\n      exp(0x0100, 0x00)\n      dup2\n      sload\n      dup2\n      0xff\n      mul\n      not\n      and\n      swap1\n      dup4\n      iszero\n      iszero\n      mul\n      or\n      swap1\n      sstore\n      pop\n      pop\n      pop\n        /* \"wwcc-contracts/contracts/wwccPool.sol\":3807:3813  joiner */\n      dup11\n        /* \"wwcc-contracts/contracts/wwccPool.sol\":3773:3789  joinerAllPicking */\n      0x08\n        /* \"wwcc-contracts/contracts/wwccPool.sol\":3773:3797  joinerAllPicking[joiner] */\n      0x00\n        /* \"wwcc-contracts/contracts/wwccPool.sol\":3790:3796  joiner */\n      dup14\n        /* \"wwcc-contracts/contracts/wwccPool.sol\":3773:3797  joinerAllPicking[joiner] */\n      0xffffffffffffffffffffffffffffffffffffffff\n      and\n      0xffffffffffffffffffffffffffffffffffffffff\n      and\n      dup2\n      mstore\n      0x20\n      add\n      swap1\n      dup2\n      mstore\n      0x20\n      add\n      0x00\n      keccak256\n        /* \"wwcc-contracts/contracts/wwccPool.sol\":3773:3804  joinerAllPicking[joiner].joiner */\n      0x01\n      add\n      0x00\n        /* \"wwcc-contracts/contracts/wwccPool.sol\":3773:3813  joinerAllPicking[joiner].joiner = joiner */\n      0x0100\n      exp\n      dup2\n      sload\n      dup2\n      0xffffffffffffffffffffffffffffffffffffffff\n      mul\n      not\n      and\n      swap1\n      dup4\n      0xffffffffffffffffffffffffffffffffffffffff\n      and\n      mul\n      or\n      swap1\n      sstore\n      pop\n        /* \"wwcc-contracts/contracts/wwccPool.sol\":3826:3842  allScorePoolInfo */\n      0x06\n        /* \"wwcc-contracts/contracts/wwccPool.sol\":3826:3851  allScorePoolInfo[poolKey] */\n      0x00\n        /* \"wwcc-contracts/contracts/wwccPool.sol\":3843:3850  poolKey */\n      dup11\n        /* \"wwcc-contracts/contracts/wwccPool.sol\":3826:3851  allScorePoolInfo[poolKey] */\n      dup2\n      mstore\n      0x20\n      add\n      swap1\n      dup2\n      mstore\n      0x20\n      add\n      0x00\n      keccak256\n        /* \"wwcc-contracts/contracts/wwccPool.sol\":3826:3863  allScorePoolInfo[poolKey].separateBet */\n      0x00\n      add\n        /* \"wwcc-contracts/contracts/wwccPool.sol\":3869:3871  jp */\n      dup2\n        /* \"wwcc-contracts/contracts/wwccPool.sol\":3826:3872  allScorePoolInfo[poolKey].separateBet.push(jp) */\n      swap1\n      dup1\n      0x01\n      dup2\n      sload\n      add\n      dup1\n      dup3\n      sstore\n      dup1\n      swap2\n      pop\n      pop\n      0x01\n      swap1\n      sub\n      swap1\n      0x00\n      mstore\n      keccak256(0x00, 0x20)\n      swap1\n      0x07\n      mul\n      add\n      0x00\n      swap1\n      swap2\n      swap1\n      swap2\n      swap1\n      swap2\n      pop\n      0x00\n      dup3\n      add\n      mload\n      dup2\n      0x00\n      add\n      sstore\n      0x20\n      dup3\n      add\n      mload\n      dup2\n      0x01\n      add\n      sstore\n      0x40\n      dup3\n      add\n      mload\n      dup2\n      0x02\n      add\n      sstore\n      0x60\n      dup3\n      add\n      mload\n      dup2\n      0x03\n      add\n      sstore\n      0x80\n      dup3\n      add\n      mload\n      dup2\n      0x04\n      add\n      exp(0x0100, 0x00)\n      dup2\n      sload\n      dup2\n      0xffffffffffffffffffffffffffffffffffffffff\n      mul\n      not\n      and\n      swap1\n      dup4\n      0xffffffffffffffffffffffffffffffffffffffff\n      and\n      mul\n      or\n      swap1\n      sstore\n      pop\n      0xa0\n      dup3\n      add\n      mload\n      dup2\n      0x05\n      add\n      swap1\n      dup1\n      mload\n      swap1\n      0x20\n      add\n      swap1\n      tag_258\n      swap3\n      swap2\n      swap1\n      tag_189\n      jump\t// in\n    tag_258:\n      pop\n      0xc0\n      dup3\n      add\n      mload\n      dup2\n      0x06\n      add\n      exp(0x0100, 0x00)\n      dup2\n      sload\n      dup2\n      0xff\n      mul\n      not\n      and\n      swap1\n      dup4\n      iszero\n      iszero\n      mul\n      or\n      swap1\n      sstore\n      pop\n      pop\n      pop\n        /* \"wwcc-contracts/contracts/wwccPool.sol\":3899:3900  2 */\n      0x02\n        /* \"wwcc-contracts/contracts/wwccPool.sol\":3891:3895  kind */\n      dup7\n        /* \"wwcc-contracts/contracts/wwccPool.sol\":3891:3900  kind == 2 */\n      eq\n        /* \"wwcc-contracts/contracts/wwccPool.sol\":3887:4219  if (kind == 2){... */\n      iszero\n      tag_259\n      jumpi\n        /* \"wwcc-contracts/contracts/wwccPool.sol\":3931:3937  weight */\n      dup10\n        /* \"wwcc-contracts/contracts/wwccPool.sol\":3917:3921  pool */\n      dup5\n        /* \"wwcc-contracts/contracts/wwccPool.sol\":3917:3927  pool.sPool */\n      0xc0\n      add\n        /* \"wwcc-contracts/contracts/wwccPool.sol\":3917:3937  pool.sPool += weight */\n      dup2\n      dup2\n      mload\n      tag_260\n      swap2\n      swap1\n      tag_22\n      jump\t// in\n    tag_260:\n      swap2\n      pop\n      dup2\n      dup2\n      mstore\n      pop\n      pop\n        /* \"wwcc-contracts/contracts/wwccPool.sol\":3984:3990  weight */\n      dup10\n        /* \"wwcc-contracts/contracts/wwccPool.sol\":3953:3968  singleScorePool */\n      0x07\n        /* \"wwcc-contracts/contracts/wwccPool.sol\":3969:3979  pickingKey */\n      dup4\n        /* \"wwcc-contracts/contracts/wwccPool.sol\":3953:3980  singleScorePool[pickingKey] */\n      mload(0x40)\n      tag_261\n      swap2\n      swap1\n      tag_182\n      jump\t// in\n    tag_261:\n      swap1\n      dup2\n      mstore\n      0x20\n      add\n      mload(0x40)\n      dup1\n      swap2\n      sub\n      swap1\n      keccak256\n      0x00\n        /* \"wwcc-contracts/contracts/wwccPool.sol\":3953:3990  singleScorePool[pickingKey] += weight */\n      dup3\n      dup3\n      sload\n      tag_262\n      swap2\n      swap1\n      tag_22\n      jump\t// in\n    tag_262:\n      swap3\n      pop\n      pop\n      dup2\n      swap1\n      sstore\n      pop\n        /* \"wwcc-contracts/contracts/wwccPool.sol\":3887:4219  if (kind == 2){... */\n      jump(tag_263)\n    tag_259:\n        /* \"wwcc-contracts/contracts/wwccPool.sol\":4034:4035  3 */\n      0x03\n        /* \"wwcc-contracts/contracts/wwccPool.sol\":4026:4030  kind */\n      dup7\n        /* \"wwcc-contracts/contracts/wwccPool.sol\":4026:4035  kind == 3 */\n      eq\n        /* \"wwcc-contracts/contracts/wwccPool.sol\":4023:4219  if(kind == 3){... */\n      iszero\n      tag_264\n      jumpi\n        /* \"wwcc-contracts/contracts/wwccPool.sol\":4068:4074  weight */\n      dup10\n        /* \"wwcc-contracts/contracts/wwccPool.sol\":4054:4058  pool */\n      dup5\n        /* \"wwcc-contracts/contracts/wwccPool.sol\":4054:4064  pool.wPool */\n      0x60\n      add\n        /* \"wwcc-contracts/contracts/wwccPool.sol\":4054:4074  pool.wPool += weight */\n      dup2\n      dup2\n      mload\n      tag_265\n      swap2\n      swap1\n      tag_22\n      jump\t// in\n    tag_265:\n      swap2\n      pop\n      dup2\n      dup2\n      mstore\n      pop\n      pop\n        /* \"wwcc-contracts/contracts/wwccPool.sol\":4023:4219  if(kind == 3){... */\n      jump(tag_266)\n    tag_264:\n        /* \"wwcc-contracts/contracts/wwccPool.sol\":4106:4107  1 */\n      0x01\n        /* \"wwcc-contracts/contracts/wwccPool.sol\":4098:4102  kind */\n      dup7\n        /* \"wwcc-contracts/contracts/wwccPool.sol\":4098:4107  kind == 1 */\n      eq\n        /* \"wwcc-contracts/contracts/wwccPool.sol\":4094:4219  if (kind == 1){... */\n      iszero\n      tag_267\n      jumpi\n        /* \"wwcc-contracts/contracts/wwccPool.sol\":4140:4146  weight */\n      dup10\n        /* \"wwcc-contracts/contracts/wwccPool.sol\":4126:4130  pool */\n      dup5\n        /* \"wwcc-contracts/contracts/wwccPool.sol\":4126:4136  pool.dPool */\n      0x80\n      add\n        /* \"wwcc-contracts/contracts/wwccPool.sol\":4126:4146  pool.dPool += weight */\n      dup2\n      dup2\n      mload\n      tag_268\n      swap2\n      swap1\n      tag_22\n      jump\t// in\n    tag_268:\n      swap2\n      pop\n      dup2\n      dup2\n      mstore\n      pop\n      pop\n        /* \"wwcc-contracts/contracts/wwccPool.sol\":4094:4219  if (kind == 1){... */\n      jump(tag_269)\n    tag_267:\n        /* \"wwcc-contracts/contracts/wwccPool.sol\":4198:4204  weight */\n      dup10\n        /* \"wwcc-contracts/contracts/wwccPool.sol\":4184:4188  pool */\n      dup5\n        /* \"wwcc-contracts/contracts/wwccPool.sol\":4184:4194  pool.lPool */\n      0xa0\n      add\n        /* \"wwcc-contracts/contracts/wwccPool.sol\":4184:4204  pool.lPool += weight */\n      dup2\n      dup2\n      mload\n      tag_270\n      swap2\n      swap1\n      tag_22\n      jump\t// in\n    tag_270:\n      swap2\n      pop\n      dup2\n      dup2\n      mstore\n      pop\n      pop\n        /* \"wwcc-contracts/contracts/wwccPool.sol\":4094:4219  if (kind == 1){... */\n    tag_269:\n        /* \"wwcc-contracts/contracts/wwccPool.sol\":4023:4219  if(kind == 3){... */\n    tag_266:\n        /* \"wwcc-contracts/contracts/wwccPool.sol\":3887:4219  if (kind == 2){... */\n    tag_263:\n        /* \"wwcc-contracts/contracts/wwccPool.sol\":4254:4260  weight */\n      dup10\n        /* \"wwcc-contracts/contracts/wwccPool.sol\":4232:4242  voteAmount */\n      0x04\n        /* \"wwcc-contracts/contracts/wwccPool.sol\":4232:4250  voteAmount[joiner] */\n      0x00\n        /* \"wwcc-contracts/contracts/wwccPool.sol\":4243:4249  joiner */\n      dup14\n        /* \"wwcc-contracts/contracts/wwccPool.sol\":4232:4250  voteAmount[joiner] */\n      0xffffffffffffffffffffffffffffffffffffffff\n      and\n      0xffffffffffffffffffffffffffffffffffffffff\n      and\n      dup2\n      mstore\n      0x20\n      add\n      swap1\n      dup2\n      mstore\n      0x20\n      add\n      0x00\n      keccak256\n      0x00\n        /* \"wwcc-contracts/contracts/wwccPool.sol\":4232:4260  voteAmount[joiner] -= weight */\n      dup3\n      dup3\n      sload\n      tag_271\n      swap2\n      swap1\n      tag_140\n      jump\t// in\n    tag_271:\n      swap3\n      pop\n      pop\n      dup2\n      swap1\n      sstore\n      pop\n        /* \"wwcc-contracts/contracts/wwccPool.sol\":3204:4282  {... */\n      pop\n      pop\n      pop\n      pop\n        /* \"wwcc-contracts/contracts/wwccPool.sol\":4297:4301  true */\n      0x01\n        /* \"wwcc-contracts/contracts/wwccPool.sol\":4290:4301  return true */\n      swap1\n      pop\n        /* \"wwcc-contracts/contracts/wwccPool.sol\":2982:4308  function Picking(address joiner,uint256 weight,bytes32 poolKey,uint256 homeScore,uint256 visitScore,uint256 kind) external returns(bool){... */\n      swap7\n      swap6\n      pop\n      pop\n      pop\n      pop\n      pop\n      pop\n      jump\t// out\n        /* \"wwcc-contracts/contracts/wwccPool.sol\":6966:10423  function Award(bytes32 poolKey,uint256 homeScore,uint256 visitScore,uint256 result)  external onlyManager  payable returns(bool){... */\n    tag_71:\n        /* \"wwcc-contracts/contracts/wwccPool.sol\":7089:7093  bool */\n      0x00\n        /* \"wwcc-contracts/contracts/wwccPool.sol\":13420:13425  owner */\n      dup1\n      0x00\n      swap1\n      sload\n      swap1\n      0x0100\n      exp\n      swap1\n      div\n      0xffffffffffffffffffffffffffffffffffffffff\n      and\n        /* \"wwcc-contracts/contracts/wwccPool.sol\":13406:13425  msg.sender == owner */\n      0xffffffffffffffffffffffffffffffffffffffff\n      and\n        /* \"wwcc-contracts/contracts/wwccPool.sol\":13406:13416  msg.sender */\n      caller\n        /* \"wwcc-contracts/contracts/wwccPool.sol\":13406:13425  msg.sender == owner */\n      0xffffffffffffffffffffffffffffffffffffffff\n      and\n      eq\n        /* \"wwcc-contracts/contracts/wwccPool.sol\":13385:13476  require(... */\n      tag_273\n      jumpi\n      mload(0x40)\n      0x08c379a000000000000000000000000000000000000000000000000000000000\n      dup2\n      mstore\n      0x04\n      add\n      tag_274\n      swap1\n      tag_100\n      jump\t// in\n    tag_274:\n      mload(0x40)\n      dup1\n      swap2\n      sub\n      swap1\n      revert\n    tag_273:\n        /* \"wwcc-contracts/contracts/wwccPool.sol\":7108:7125  contains(poolKey) */\n      tag_276\n        /* \"wwcc-contracts/contracts/wwccPool.sol\":7117:7124  poolKey */\n      dup6\n        /* \"wwcc-contracts/contracts/wwccPool.sol\":7108:7116  contains */\n      tag_103\n        /* \"wwcc-contracts/contracts/wwccPool.sol\":7108:7125  contains(poolKey) */\n      jump\t// in\n    tag_276:\n        /* \"wwcc-contracts/contracts/wwccPool.sol\":7104:10397  if(!contains(poolKey)) { ... */\n      tag_277\n      jumpi\n        /* \"wwcc-contracts/contracts/wwccPool.sol\":7142:7166  revert(\"pool not exist\") */\n      mload(0x40)\n      0x08c379a000000000000000000000000000000000000000000000000000000000\n      dup2\n      mstore\n      0x04\n      add\n      tag_278\n      swap1\n      tag_106\n      jump\t// in\n    tag_278:\n      mload(0x40)\n      dup1\n      swap2\n      sub\n      swap1\n      revert\n        /* \"wwcc-contracts/contracts/wwccPool.sol\":7104:10397  if(!contains(poolKey)) { ... */\n    tag_277:\n        /* \"wwcc-contracts/contracts/wwccPool.sol\":7193:7211  WcPool memory pool */\n      0x00\n        /* \"wwcc-contracts/contracts/wwccPool.sol\":7214:7221  WcPools */\n      0x05\n        /* \"wwcc-contracts/contracts/wwccPool.sol\":7214:7230  WcPools[poolKey] */\n      0x00\n        /* \"wwcc-contracts/contracts/wwccPool.sol\":7222:7229  poolKey */\n      dup8\n        /* \"wwcc-contracts/contracts/wwccPool.sol\":7214:7230  WcPools[poolKey] */\n      dup2\n      mstore\n      0x20\n      add\n      swap1\n      dup2\n      mstore\n      0x20\n      add\n      0x00\n      keccak256\n        /* \"wwcc-contracts/contracts/wwccPool.sol\":7193:7230  WcPool memory pool = WcPools[poolKey] */\n      mload(0x40)\n      dup1\n      0x0160\n      add\n      0x40\n      mstore\n      swap1\n      dup2\n      0x00\n      dup3\n      add\n      dup1\n      sload\n      tag_280\n      swap1\n      tag_109\n      jump\t// in\n    tag_280:\n      dup1\n      0x1f\n      add\n      0x20\n      dup1\n      swap2\n      div\n      mul\n      0x20\n      add\n      mload(0x40)\n      swap1\n      dup2\n      add\n      0x40\n      mstore\n      dup1\n      swap3\n      swap2\n      swap1\n      dup2\n      dup2\n      mstore\n      0x20\n      add\n      dup3\n      dup1\n      sload\n      tag_281\n      swap1\n      tag_109\n      jump\t// in\n    tag_281:\n      dup1\n      iszero\n      tag_282\n      jumpi\n      dup1\n      0x1f\n      lt\n      tag_283\n      jumpi\n      0x0100\n      dup1\n      dup4\n      sload\n      div\n      mul\n      dup4\n      mstore\n      swap2\n      0x20\n      add\n      swap2\n      jump(tag_282)\n    tag_283:\n      dup3\n      add\n      swap2\n      swap1\n      0x00\n      mstore\n      keccak256(0x00, 0x20)\n      swap1\n    tag_284:\n      dup2\n      sload\n      dup2\n      mstore\n      swap1\n      0x01\n      add\n      swap1\n      0x20\n      add\n      dup1\n      dup4\n      gt\n      tag_284\n      jumpi\n      dup3\n      swap1\n      sub\n      0x1f\n      and\n      dup3\n      add\n      swap2\n    tag_282:\n      pop\n      pop\n      pop\n      pop\n      pop\n      dup2\n      mstore\n      0x20\n      add\n      0x01\n      dup3\n      add\n      dup1\n      sload\n      tag_285\n      swap1\n      tag_109\n      jump\t// in\n    tag_285:\n      dup1\n      0x1f\n      add\n      0x20\n      dup1\n      swap2\n      div\n      mul\n      0x20\n      add\n      mload(0x40)\n      swap1\n      dup2\n      add\n      0x40\n      mstore\n      dup1\n      swap3\n      swap2\n      swap1\n      dup2\n      dup2\n      mstore\n      0x20\n      add\n      dup3\n      dup1\n      sload\n      tag_286\n      swap1\n      tag_109\n      jump\t// in\n    tag_286:\n      dup1\n      iszero\n      tag_287\n      jumpi\n      dup1\n      0x1f\n      lt\n      tag_288\n      jumpi\n      0x0100\n      dup1\n      dup4\n      sload\n      div\n      mul\n      dup4\n      mstore\n      swap2\n      0x20\n      add\n      swap2\n      jump(tag_287)\n    tag_288:\n      dup3\n      add\n      swap2\n      swap1\n      0x00\n      mstore\n      keccak256(0x00, 0x20)\n      swap1\n    tag_289:\n      dup2\n      sload\n      dup2\n      mstore\n      swap1\n      0x01\n      add\n      swap1\n      0x20\n      add\n      dup1\n      dup4\n      gt\n      tag_289\n      jumpi\n      dup3\n      swap1\n      sub\n      0x1f\n      and\n      dup3\n      add\n      swap2\n    tag_287:\n      pop\n      pop\n      pop\n      pop\n      pop\n      dup2\n      mstore\n      0x20\n      add\n      0x02\n      dup3\n      add\n      dup1\n      sload\n      tag_290\n      swap1\n      tag_109\n      jump\t// in\n    tag_290:\n      dup1\n      0x1f\n      add\n      0x20\n      dup1\n      swap2\n      div\n      mul\n      0x20\n      add\n      mload(0x40)\n      swap1\n      dup2\n      add\n      0x40\n      mstore\n      dup1\n      swap3\n      swap2\n      swap1\n      dup2\n      dup2\n      mstore\n      0x20\n      add\n      dup3\n      dup1\n      sload\n      tag_291\n      swap1\n      tag_109\n      jump\t// in\n    tag_291:\n      dup1\n      iszero\n      tag_292\n      jumpi\n      dup1\n      0x1f\n      lt\n      tag_293\n      jumpi\n      0x0100\n      dup1\n      dup4\n      sload\n      div\n      mul\n      dup4\n      mstore\n      swap2\n      0x20\n      add\n      swap2\n      jump(tag_292)\n    tag_293:\n      dup3\n      add\n      swap2\n      swap1\n      0x00\n      mstore\n      keccak256(0x00, 0x20)\n      swap1\n    tag_294:\n      dup2\n      sload\n      dup2\n      mstore\n      swap1\n      0x01\n      add\n      swap1\n      0x20\n      add\n      dup1\n      dup4\n      gt\n      tag_294\n      jumpi\n      dup3\n      swap1\n      sub\n      0x1f\n      and\n      dup3\n      add\n      swap2\n    tag_292:\n      pop\n      pop\n      pop\n      pop\n      pop\n      dup2\n      mstore\n      0x20\n      add\n      0x03\n      dup3\n      add\n      sload\n      dup2\n      mstore\n      0x20\n      add\n      0x04\n      dup3\n      add\n      sload\n      dup2\n      mstore\n      0x20\n      add\n      0x05\n      dup3\n      add\n      sload\n      dup2\n      mstore\n      0x20\n      add\n      0x06\n      dup3\n      add\n      sload\n      dup2\n      mstore\n      0x20\n      add\n      0x07\n      dup3\n      add\n      sload\n      dup2\n      mstore\n      0x20\n      add\n      0x08\n      dup3\n      add\n      0x00\n      swap1\n      sload\n      swap1\n      0x0100\n      exp\n      swap1\n      div\n      0xff\n      and\n      iszero\n      iszero\n      iszero\n      iszero\n      dup2\n      mstore\n      0x20\n      add\n      0x08\n      dup3\n      add\n      0x01\n      swap1\n      sload\n      swap1\n      0x0100\n      exp\n      swap1\n      div\n      0xff\n      and\n      iszero\n      iszero\n      iszero\n      iszero\n      dup2\n      mstore\n      0x20\n      add\n      0x08\n      dup3\n      add\n      0x02\n      swap1\n      sload\n      swap1\n      0x0100\n      exp\n      swap1\n      div\n      0xff\n      and\n      iszero\n      iszero\n      iszero\n      iszero\n      dup2\n      mstore\n      pop\n      pop\n      swap1\n      pop\n        /* \"wwcc-contracts/contracts/wwccPool.sol\":7261:7265  true */\n      0x01\n        /* \"wwcc-contracts/contracts/wwccPool.sol\":7247:7251  pool */\n      dup2\n        /* \"wwcc-contracts/contracts/wwccPool.sol\":7247:7260  pool.finished */\n      0x0140\n      add\n        /* \"wwcc-contracts/contracts/wwccPool.sol\":7247:7265  pool.finished=true */\n      swap1\n      iszero\n      iszero\n      swap1\n      dup2\n      iszero\n      iszero\n      dup2\n      mstore\n      pop\n        /* \"wwcc-contracts/contracts/wwccPool.sol\":7243:7324  if (pool.finished=true){... */\n      iszero\n      tag_295\n      jumpi\n        /* \"wwcc-contracts/contracts/wwccPool.sol\":7283:7310  revert(\"pool has finished\") */\n      mload(0x40)\n      0x08c379a000000000000000000000000000000000000000000000000000000000\n      dup2\n      mstore\n      0x04\n      add\n      tag_296\n      swap1\n      tag_297\n      jump\t// in\n    tag_296:\n      mload(0x40)\n      dup1\n      swap2\n      sub\n      swap1\n      revert\n        /* \"wwcc-contracts/contracts/wwccPool.sol\":7243:7324  if (pool.finished=true){... */\n    tag_295:\n        /* \"wwcc-contracts/contracts/wwccPool.sol\":7336:7371  JoinerPicking[] memory separateBets */\n      0x00\n        /* \"wwcc-contracts/contracts/wwccPool.sol\":7374:7390  allScorePoolInfo */\n      0x06\n        /* \"wwcc-contracts/contracts/wwccPool.sol\":7374:7399  allScorePoolInfo[poolKey] */\n      0x00\n        /* \"wwcc-contracts/contracts/wwccPool.sol\":7391:7398  poolKey */\n      dup9\n        /* \"wwcc-contracts/contracts/wwccPool.sol\":7374:7399  allScorePoolInfo[poolKey] */\n      dup2\n      mstore\n      0x20\n      add\n      swap1\n      dup2\n      mstore\n      0x20\n      add\n      0x00\n      keccak256\n        /* \"wwcc-contracts/contracts/wwccPool.sol\":7374:7411  allScorePoolInfo[poolKey].separateBet */\n      0x00\n      add\n        /* \"wwcc-contracts/contracts/wwccPool.sol\":7336:7411  JoinerPicking[] memory separateBets = allScorePoolInfo[poolKey].separateBet */\n      dup1\n      sload\n      dup1\n      0x20\n      mul\n      0x20\n      add\n      mload(0x40)\n      swap1\n      dup2\n      add\n      0x40\n      mstore\n      dup1\n      swap3\n      swap2\n      swap1\n      dup2\n      dup2\n      mstore\n      0x20\n      add\n      0x00\n      swap1\n    tag_298:\n      dup3\n      dup3\n      lt\n      iszero\n      tag_299\n      jumpi\n      dup4\n      dup3\n      swap1\n      0x00\n      mstore\n      keccak256(0x00, 0x20)\n      swap1\n      0x07\n      mul\n      add\n      mload(0x40)\n      dup1\n      0xe0\n      add\n      0x40\n      mstore\n      swap1\n      dup2\n      0x00\n      dup3\n      add\n      sload\n      dup2\n      mstore\n      0x20\n      add\n      0x01\n      dup3\n      add\n      sload\n      dup2\n      mstore\n      0x20\n      add\n      0x02\n      dup3\n      add\n      sload\n      dup2\n      mstore\n      0x20\n      add\n      0x03\n      dup3\n      add\n      sload\n      dup2\n      mstore\n      0x20\n      add\n      0x04\n      dup3\n      add\n      0x00\n      swap1\n      sload\n      swap1\n      0x0100\n      exp\n      swap1\n      div\n      0xffffffffffffffffffffffffffffffffffffffff\n      and\n      0xffffffffffffffffffffffffffffffffffffffff\n      and\n      0xffffffffffffffffffffffffffffffffffffffff\n      and\n      dup2\n      mstore\n      0x20\n      add\n      0x05\n      dup3\n      add\n      dup1\n      sload\n      tag_301\n      swap1\n      tag_109\n      jump\t// in\n    tag_301:\n      dup1\n      0x1f\n      add\n      0x20\n      dup1\n      swap2\n      div\n      mul\n      0x20\n      add\n      mload(0x40)\n      swap1\n      dup2\n      add\n      0x40\n      mstore\n      dup1\n      swap3\n      swap2\n      swap1\n      dup2\n      dup2\n      mstore\n      0x20\n      add\n      dup3\n      dup1\n      sload\n      tag_302\n      swap1\n      tag_109\n      jump\t// in\n    tag_302:\n      dup1\n      iszero\n      tag_303\n      jumpi\n      dup1\n      0x1f\n      lt\n      tag_304\n      jumpi\n      0x0100\n      dup1\n      dup4\n      sload\n      div\n      mul\n      dup4\n      mstore\n      swap2\n      0x20\n      add\n      swap2\n      jump(tag_303)\n    tag_304:\n      dup3\n      add\n      swap2\n      swap1\n      0x00\n      mstore\n      keccak256(0x00, 0x20)\n      swap1\n    tag_305:\n      dup2\n      sload\n      dup2\n      mstore\n      swap1\n      0x01\n      add\n      swap1\n      0x20\n      add\n      dup1\n      dup4\n      gt\n      tag_305\n      jumpi\n      dup3\n      swap1\n      sub\n      0x1f\n      and\n      dup3\n      add\n      swap2\n    tag_303:\n      pop\n      pop\n      pop\n      pop\n      pop\n      dup2\n      mstore\n      0x20\n      add\n      0x06\n      dup3\n      add\n      0x00\n      swap1\n      sload\n      swap1\n      0x0100\n      exp\n      swap1\n      div\n      0xff\n      and\n      iszero\n      iszero\n      iszero\n      iszero\n      dup2\n      mstore\n      pop\n      pop\n      dup2\n      mstore\n      0x20\n      add\n      swap1\n      0x01\n      add\n      swap1\n      jump(tag_298)\n    tag_299:\n      pop\n      pop\n      pop\n      pop\n      swap1\n      pop\n        /* \"wwcc-contracts/contracts/wwccPool.sol\":7424:7447  uint256 allRewardAmount */\n      0x00\n        /* \"wwcc-contracts/contracts/wwccPool.sol\":7481:7556  (pool.sPool + pool.wPool+pool.lPool+pool.dPool + pool.basal.div(2)).div(20) */\n      tag_306\n        /* \"wwcc-contracts/contracts/wwccPool.sol\":7553:7555  20 */\n      0x14\n        /* \"wwcc-contracts/contracts/wwccPool.sol\":7530:7547  pool.basal.div(2) */\n      tag_307\n        /* \"wwcc-contracts/contracts/wwccPool.sol\":7545:7546  2 */\n      0x02\n        /* \"wwcc-contracts/contracts/wwccPool.sol\":7530:7534  pool */\n      dup7\n        /* \"wwcc-contracts/contracts/wwccPool.sol\":7530:7540  pool.basal */\n      0xe0\n      add\n      mload\n        /* \"wwcc-contracts/contracts/wwccPool.sol\":7530:7544  pool.basal.div */\n      tag_20\n      swap1\n        /* \"wwcc-contracts/contracts/wwccPool.sol\":7530:7547  pool.basal.div(2) */\n      swap2\n      swap1\n      0xffffffff\n      and\n      jump\t// in\n    tag_307:\n        /* \"wwcc-contracts/contracts/wwccPool.sol\":7517:7521  pool */\n      dup6\n        /* \"wwcc-contracts/contracts/wwccPool.sol\":7517:7527  pool.dPool */\n      0x80\n      add\n      mload\n        /* \"wwcc-contracts/contracts/wwccPool.sol\":7506:7510  pool */\n      dup7\n        /* \"wwcc-contracts/contracts/wwccPool.sol\":7506:7516  pool.lPool */\n      0xa0\n      add\n      mload\n        /* \"wwcc-contracts/contracts/wwccPool.sol\":7495:7499  pool */\n      dup8\n        /* \"wwcc-contracts/contracts/wwccPool.sol\":7495:7505  pool.wPool */\n      0x60\n      add\n      mload\n        /* \"wwcc-contracts/contracts/wwccPool.sol\":7482:7486  pool */\n      dup9\n        /* \"wwcc-contracts/contracts/wwccPool.sol\":7482:7492  pool.sPool */\n      0xc0\n      add\n      mload\n        /* \"wwcc-contracts/contracts/wwccPool.sol\":7482:7505  pool.sPool + pool.wPool */\n      tag_308\n      swap2\n      swap1\n      tag_22\n      jump\t// in\n    tag_308:\n        /* \"wwcc-contracts/contracts/wwccPool.sol\":7482:7516  pool.sPool + pool.wPool+pool.lPool */\n      tag_309\n      swap2\n      swap1\n      tag_22\n      jump\t// in\n    tag_309:\n        /* \"wwcc-contracts/contracts/wwccPool.sol\":7482:7527  pool.sPool + pool.wPool+pool.lPool+pool.dPool */\n      tag_310\n      swap2\n      swap1\n      tag_22\n      jump\t// in\n    tag_310:\n        /* \"wwcc-contracts/contracts/wwccPool.sol\":7482:7547  pool.sPool + pool.wPool+pool.lPool+pool.dPool + pool.basal.div(2) */\n      tag_311\n      swap2\n      swap1\n      tag_22\n      jump\t// in\n    tag_311:\n        /* \"wwcc-contracts/contracts/wwccPool.sol\":7481:7552  (pool.sPool + pool.wPool+pool.lPool+pool.dPool + pool.basal.div(2)).div */\n      tag_20\n      swap1\n        /* \"wwcc-contracts/contracts/wwccPool.sol\":7481:7556  (pool.sPool + pool.wPool+pool.lPool+pool.dPool + pool.basal.div(2)).div(20) */\n      swap2\n      swap1\n      0xffffffff\n      and\n      jump\t// in\n    tag_306:\n        /* \"wwcc-contracts/contracts/wwccPool.sol\":7464:7477  nextBasalLast */\n      0x01\n      0x00\n        /* \"wwcc-contracts/contracts/wwccPool.sol\":7464:7556  nextBasalLast += (pool.sPool + pool.wPool+pool.lPool+pool.dPool + pool.basal.div(2)).div(20) */\n      dup3\n      dup3\n      sload\n      tag_312\n      swap2\n      swap1\n      tag_22\n      jump\t// in\n    tag_312:\n      swap3\n      pop\n      pop\n      dup2\n      swap1\n      sstore\n      pop\n        /* \"wwcc-contracts/contracts/wwccPool.sol\":7730:7736  uint j */\n      0x00\n        /* \"wwcc-contracts/contracts/wwccPool.sol\":7708:10225  for (... */\n    tag_313:\n        /* \"wwcc-contracts/contracts/wwccPool.sol\":7783:7784  1 */\n      0x01\n        /* \"wwcc-contracts/contracts/wwccPool.sol\":7763:7775  separateBets */\n      dup4\n        /* \"wwcc-contracts/contracts/wwccPool.sol\":7763:7782  separateBets.length */\n      mload\n        /* \"wwcc-contracts/contracts/wwccPool.sol\":7763:7784  separateBets.length-1 */\n      tag_316\n      swap2\n      swap1\n      tag_140\n      jump\t// in\n    tag_316:\n        /* \"wwcc-contracts/contracts/wwccPool.sol\":7758:7759  j */\n      dup2\n        /* \"wwcc-contracts/contracts/wwccPool.sol\":7758:7784  j <= separateBets.length-1 */\n      gt\n        /* \"wwcc-contracts/contracts/wwccPool.sol\":7708:10225  for (... */\n      tag_314\n      jumpi\n        /* \"wwcc-contracts/contracts/wwccPool.sol\":7874:7879  false */\n      0x00\n        /* \"wwcc-contracts/contracts/wwccPool.sol\":7847:7859  separateBets */\n      dup4\n        /* \"wwcc-contracts/contracts/wwccPool.sol\":7860:7861  j */\n      dup3\n        /* \"wwcc-contracts/contracts/wwccPool.sol\":7847:7862  separateBets[j] */\n      dup2\n      mload\n      dup2\n      lt\n      tag_317\n      jumpi\n      tag_318\n      tag_319\n      jump\t// in\n    tag_318:\n    tag_317:\n      0x20\n      mul\n      0x20\n      add\n      add\n      mload\n        /* \"wwcc-contracts/contracts/wwccPool.sol\":7847:7871  separateBets[j].finished */\n      0xc0\n      add\n        /* \"wwcc-contracts/contracts/wwccPool.sol\":7847:7879  separateBets[j].finished = false */\n      swap1\n      iszero\n      iszero\n      swap1\n      dup2\n      iszero\n      iszero\n      dup2\n      mstore\n      pop\n        /* \"wwcc-contracts/contracts/wwccPool.sol\":7844:10205  if(separateBets[j].finished = false){... */\n      iszero\n      tag_320\n      jumpi\n        /* \"wwcc-contracts/contracts/wwccPool.sol\":7929:7930  2 */\n      0x02\n        /* \"wwcc-contracts/contracts/wwccPool.sol\":7907:7919  separateBets */\n      dup4\n        /* \"wwcc-contracts/contracts/wwccPool.sol\":7920:7921  j */\n      dup3\n        /* \"wwcc-contracts/contracts/wwccPool.sol\":7907:7922  separateBets[j] */\n      dup2\n      mload\n      dup2\n      lt\n      tag_321\n      jumpi\n      tag_322\n      tag_319\n      jump\t// in\n    tag_322:\n    tag_321:\n      0x20\n      mul\n      0x20\n      add\n      add\n      mload\n        /* \"wwcc-contracts/contracts/wwccPool.sol\":7907:7927  separateBets[j].kind */\n      0x20\n      add\n      mload\n        /* \"wwcc-contracts/contracts/wwccPool.sol\":7907:7930  separateBets[j].kind==2 */\n      eq\n        /* \"wwcc-contracts/contracts/wwccPool.sol\":7904:10185  if(separateBets[j].kind==2){... */\n      iszero\n      tag_323\n      jumpi\n        /* \"wwcc-contracts/contracts/wwccPool.sol\":7977:8026  (pool.sPool + pool.basal.div(2)).mul(85).div(100) */\n      tag_324\n        /* \"wwcc-contracts/contracts/wwccPool.sol\":8022:8025  100 */\n      0x64\n        /* \"wwcc-contracts/contracts/wwccPool.sol\":7977:8017  (pool.sPool + pool.basal.div(2)).mul(85) */\n      tag_325\n        /* \"wwcc-contracts/contracts/wwccPool.sol\":8014:8016  85 */\n      0x55\n        /* \"wwcc-contracts/contracts/wwccPool.sol\":7991:8008  pool.basal.div(2) */\n      tag_326\n        /* \"wwcc-contracts/contracts/wwccPool.sol\":8006:8007  2 */\n      0x02\n        /* \"wwcc-contracts/contracts/wwccPool.sol\":7991:7995  pool */\n      dup10\n        /* \"wwcc-contracts/contracts/wwccPool.sol\":7991:8001  pool.basal */\n      0xe0\n      add\n      mload\n        /* \"wwcc-contracts/contracts/wwccPool.sol\":7991:8005  pool.basal.div */\n      tag_20\n      swap1\n        /* \"wwcc-contracts/contracts/wwccPool.sol\":7991:8008  pool.basal.div(2) */\n      swap2\n      swap1\n      0xffffffff\n      and\n      jump\t// in\n    tag_326:\n        /* \"wwcc-contracts/contracts/wwccPool.sol\":7978:7982  pool */\n      dup9\n        /* \"wwcc-contracts/contracts/wwccPool.sol\":7978:7988  pool.sPool */\n      0xc0\n      add\n      mload\n        /* \"wwcc-contracts/contracts/wwccPool.sol\":7978:8008  pool.sPool + pool.basal.div(2) */\n      tag_327\n      swap2\n      swap1\n      tag_22\n      jump\t// in\n    tag_327:\n        /* \"wwcc-contracts/contracts/wwccPool.sol\":7977:8013  (pool.sPool + pool.basal.div(2)).mul */\n      tag_328\n      swap1\n        /* \"wwcc-contracts/contracts/wwccPool.sol\":7977:8017  (pool.sPool + pool.basal.div(2)).mul(85) */\n      swap2\n      swap1\n      0xffffffff\n      and\n      jump\t// in\n    tag_325:\n        /* \"wwcc-contracts/contracts/wwccPool.sol\":7977:8021  (pool.sPool + pool.basal.div(2)).mul(85).div */\n      tag_20\n      swap1\n        /* \"wwcc-contracts/contracts/wwccPool.sol\":7977:8026  (pool.sPool + pool.basal.div(2)).mul(85).div(100) */\n      swap2\n      swap1\n      0xffffffff\n      and\n      jump\t// in\n    tag_324:\n        /* \"wwcc-contracts/contracts/wwccPool.sol\":7959:8026  allRewardAmount = (pool.sPool + pool.basal.div(2)).mul(85).div(100) */\n      swap2\n      pop\n        /* \"wwcc-contracts/contracts/wwccPool.sol\":8081:8090  homeScore */\n      dup8\n        /* \"wwcc-contracts/contracts/wwccPool.sol\":8054:8066  separateBets */\n      dup4\n        /* \"wwcc-contracts/contracts/wwccPool.sol\":8067:8068  j */\n      dup3\n        /* \"wwcc-contracts/contracts/wwccPool.sol\":8054:8069  separateBets[j] */\n      dup2\n      mload\n      dup2\n      lt\n      tag_329\n      jumpi\n      tag_330\n      tag_319\n      jump\t// in\n    tag_330:\n    tag_329:\n      0x20\n      mul\n      0x20\n      add\n      add\n      mload\n        /* \"wwcc-contracts/contracts/wwccPool.sol\":8054:8079  separateBets[j].homeScore */\n      0x40\n      add\n      mload\n        /* \"wwcc-contracts/contracts/wwccPool.sol\":8054:8090  separateBets[j].homeScore==homeScore */\n      eq\n        /* \"wwcc-contracts/contracts/wwccPool.sol\":8054:8132  separateBets[j].homeScore==homeScore && separateBets[j].visitScore==visitScore */\n      dup1\n      iszero\n      tag_331\n      jumpi\n      pop\n        /* \"wwcc-contracts/contracts/wwccPool.sol\":8122:8132  visitScore */\n      dup7\n        /* \"wwcc-contracts/contracts/wwccPool.sol\":8094:8106  separateBets */\n      dup4\n        /* \"wwcc-contracts/contracts/wwccPool.sol\":8107:8108  j */\n      dup3\n        /* \"wwcc-contracts/contracts/wwccPool.sol\":8094:8109  separateBets[j] */\n      dup2\n      mload\n      dup2\n      lt\n      tag_332\n      jumpi\n      tag_333\n      tag_319\n      jump\t// in\n    tag_333:\n    tag_332:\n      0x20\n      mul\n      0x20\n      add\n      add\n      mload\n        /* \"wwcc-contracts/contracts/wwccPool.sol\":8094:8120  separateBets[j].visitScore */\n      0x60\n      add\n      mload\n        /* \"wwcc-contracts/contracts/wwccPool.sol\":8094:8132  separateBets[j].visitScore==visitScore */\n      eq\n        /* \"wwcc-contracts/contracts/wwccPool.sol\":8054:8132  separateBets[j].homeScore==homeScore && separateBets[j].visitScore==visitScore */\n    tag_331:\n        /* \"wwcc-contracts/contracts/wwccPool.sol\":8050:8848  if (separateBets[j].homeScore==homeScore && separateBets[j].visitScore==visitScore){... */\n      iszero\n      tag_334\n      jumpi\n        /* \"wwcc-contracts/contracts/wwccPool.sol\":8161:8190  uint256 singleScorePoolAmount */\n      0x00\n        /* \"wwcc-contracts/contracts/wwccPool.sol\":8193:8208  singleScorePool */\n      0x07\n        /* \"wwcc-contracts/contracts/wwccPool.sol\":8209:8221  separateBets */\n      dup5\n        /* \"wwcc-contracts/contracts/wwccPool.sol\":8222:8223  j */\n      dup4\n        /* \"wwcc-contracts/contracts/wwccPool.sol\":8209:8224  separateBets[j] */\n      dup2\n      mload\n      dup2\n      lt\n      tag_335\n      jumpi\n      tag_336\n      tag_319\n      jump\t// in\n    tag_336:\n    tag_335:\n      0x20\n      mul\n      0x20\n      add\n      add\n      mload\n        /* \"wwcc-contracts/contracts/wwccPool.sol\":8209:8235  separateBets[j].pickingKey */\n      0xa0\n      add\n      mload\n        /* \"wwcc-contracts/contracts/wwccPool.sol\":8193:8236  singleScorePool[separateBets[j].pickingKey] */\n      mload(0x40)\n      tag_337\n      swap2\n      swap1\n      tag_182\n      jump\t// in\n    tag_337:\n      swap1\n      dup2\n      mstore\n      0x20\n      add\n      mload(0x40)\n      dup1\n      swap2\n      sub\n      swap1\n      keccak256\n      sload\n        /* \"wwcc-contracts/contracts/wwccPool.sol\":8161:8236  uint256 singleScorePoolAmount = singleScorePool[separateBets[j].pickingKey] */\n      swap1\n      pop\n        /* \"wwcc-contracts/contracts/wwccPool.sol\":8264:8284  uint256 rewardAmount */\n      0x00\n        /* \"wwcc-contracts/contracts/wwccPool.sol\":8331:8352  singleScorePoolAmount */\n      dup2\n        /* \"wwcc-contracts/contracts/wwccPool.sol\":8305:8317  separateBets */\n      dup6\n        /* \"wwcc-contracts/contracts/wwccPool.sol\":8318:8319  j */\n      dup5\n        /* \"wwcc-contracts/contracts/wwccPool.sol\":8305:8320  separateBets[j] */\n      dup2\n      mload\n      dup2\n      lt\n      tag_338\n      jumpi\n      tag_339\n      tag_319\n      jump\t// in\n    tag_339:\n    tag_338:\n      0x20\n      mul\n      0x20\n      add\n      add\n      mload\n        /* \"wwcc-contracts/contracts/wwccPool.sol\":8305:8327  separateBets[j].weight */\n      0x00\n      add\n      mload\n        /* \"wwcc-contracts/contracts/wwccPool.sol\":8287:8302  allRewardAmount */\n      dup6\n        /* \"wwcc-contracts/contracts/wwccPool.sol\":8287:8327  allRewardAmount * separateBets[j].weight */\n      tag_340\n      swap2\n      swap1\n      tag_341\n      jump\t// in\n    tag_340:\n        /* \"wwcc-contracts/contracts/wwccPool.sol\":8287:8352  allRewardAmount * separateBets[j].weight /  singleScorePoolAmount */\n      tag_342\n      swap2\n      swap1\n      tag_96\n      jump\t// in\n    tag_342:\n        /* \"wwcc-contracts/contracts/wwccPool.sol\":8264:8352  uint256 rewardAmount = allRewardAmount * separateBets[j].weight /  singleScorePoolAmount */\n      swap1\n      pop\n        /* \"wwcc-contracts/contracts/wwccPool.sol\":8724:8736  rewardAmount */\n      dup1\n        /* \"wwcc-contracts/contracts/wwccPool.sol\":8686:8696  voteAmount */\n      0x04\n        /* \"wwcc-contracts/contracts/wwccPool.sol\":8686:8720  voteAmount[separateBets[j].joiner] */\n      0x00\n        /* \"wwcc-contracts/contracts/wwccPool.sol\":8697:8709  separateBets */\n      dup8\n        /* \"wwcc-contracts/contracts/wwccPool.sol\":8710:8711  j */\n      dup7\n        /* \"wwcc-contracts/contracts/wwccPool.sol\":8697:8712  separateBets[j] */\n      dup2\n      mload\n      dup2\n      lt\n      tag_343\n      jumpi\n      tag_344\n      tag_319\n      jump\t// in\n    tag_344:\n    tag_343:\n      0x20\n      mul\n      0x20\n      add\n      add\n      mload\n        /* \"wwcc-contracts/contracts/wwccPool.sol\":8697:8719  separateBets[j].joiner */\n      0x80\n      add\n      mload\n        /* \"wwcc-contracts/contracts/wwccPool.sol\":8686:8720  voteAmount[separateBets[j].joiner] */\n      0xffffffffffffffffffffffffffffffffffffffff\n      and\n      0xffffffffffffffffffffffffffffffffffffffff\n      and\n      dup2\n      mstore\n      0x20\n      add\n      swap1\n      dup2\n      mstore\n      0x20\n      add\n      0x00\n      keccak256\n      0x00\n        /* \"wwcc-contracts/contracts/wwccPool.sol\":8686:8736  voteAmount[separateBets[j].joiner] += rewardAmount */\n      dup3\n      dup3\n      sload\n      tag_345\n      swap2\n      swap1\n      tag_22\n      jump\t// in\n    tag_345:\n      swap3\n      pop\n      pop\n      dup2\n      swap1\n      sstore\n      pop\n        /* \"wwcc-contracts/contracts/wwccPool.sol\":8791:8795  true */\n      0x01\n        /* \"wwcc-contracts/contracts/wwccPool.sol\":8764:8776  separateBets */\n      dup6\n        /* \"wwcc-contracts/contracts/wwccPool.sol\":8777:8778  j */\n      dup5\n        /* \"wwcc-contracts/contracts/wwccPool.sol\":8764:8779  separateBets[j] */\n      dup2\n      mload\n      dup2\n      lt\n      tag_346\n      jumpi\n      tag_347\n      tag_319\n      jump\t// in\n    tag_347:\n    tag_346:\n      0x20\n      mul\n      0x20\n      add\n      add\n      mload\n        /* \"wwcc-contracts/contracts/wwccPool.sol\":8764:8788  separateBets[j].finished */\n      0xc0\n      add\n        /* \"wwcc-contracts/contracts/wwccPool.sol\":8764:8795  separateBets[j].finished = true */\n      swap1\n      iszero\n      iszero\n      swap1\n      dup2\n      iszero\n      iszero\n      dup2\n      mstore\n      pop\n      pop\n        /* \"wwcc-contracts/contracts/wwccPool.sol\":8133:8848  {... */\n      pop\n      pop\n        /* \"wwcc-contracts/contracts/wwccPool.sol\":8050:8848  if (separateBets[j].homeScore==homeScore && separateBets[j].visitScore==visitScore){... */\n    tag_334:\n        /* \"wwcc-contracts/contracts/wwccPool.sol\":7904:10185  if(separateBets[j].kind==2){... */\n      jump(tag_348)\n    tag_323:\n        /* \"wwcc-contracts/contracts/wwccPool.sol\":8923:8929  result */\n      dup6\n        /* \"wwcc-contracts/contracts/wwccPool.sol\":8901:8913  separateBets */\n      dup4\n        /* \"wwcc-contracts/contracts/wwccPool.sol\":8914:8915  j */\n      dup3\n        /* \"wwcc-contracts/contracts/wwccPool.sol\":8901:8916  separateBets[j] */\n      dup2\n      mload\n      dup2\n      lt\n      tag_349\n      jumpi\n      tag_350\n      tag_319\n      jump\t// in\n    tag_350:\n    tag_349:\n      0x20\n      mul\n      0x20\n      add\n      add\n      mload\n        /* \"wwcc-contracts/contracts/wwccPool.sol\":8901:8921  separateBets[j].kind */\n      0x20\n      add\n      mload\n        /* \"wwcc-contracts/contracts/wwccPool.sol\":8901:8929  separateBets[j].kind==result */\n      eq\n        /* \"wwcc-contracts/contracts/wwccPool.sol\":8898:10163  if(separateBets[j].kind==result){... */\n      iszero\n      tag_351\n      jumpi\n        /* \"wwcc-contracts/contracts/wwccPool.sol\":8976:9046  (pool.wPool+pool.lPool+pool.dPool+ pool.basal.div(2)).mul(85).div(100) */\n      tag_352\n        /* \"wwcc-contracts/contracts/wwccPool.sol\":9042:9045  100 */\n      0x64\n        /* \"wwcc-contracts/contracts/wwccPool.sol\":8976:9037  (pool.wPool+pool.lPool+pool.dPool+ pool.basal.div(2)).mul(85) */\n      tag_353\n        /* \"wwcc-contracts/contracts/wwccPool.sol\":9034:9036  85 */\n      0x55\n        /* \"wwcc-contracts/contracts/wwccPool.sol\":9011:9028  pool.basal.div(2) */\n      tag_354\n        /* \"wwcc-contracts/contracts/wwccPool.sol\":9026:9027  2 */\n      0x02\n        /* \"wwcc-contracts/contracts/wwccPool.sol\":9011:9015  pool */\n      dup10\n        /* \"wwcc-contracts/contracts/wwccPool.sol\":9011:9021  pool.basal */\n      0xe0\n      add\n      mload\n        /* \"wwcc-contracts/contracts/wwccPool.sol\":9011:9025  pool.basal.div */\n      tag_20\n      swap1\n        /* \"wwcc-contracts/contracts/wwccPool.sol\":9011:9028  pool.basal.div(2) */\n      swap2\n      swap1\n      0xffffffff\n      and\n      jump\t// in\n    tag_354:\n        /* \"wwcc-contracts/contracts/wwccPool.sol\":8999:9003  pool */\n      dup9\n        /* \"wwcc-contracts/contracts/wwccPool.sol\":8999:9009  pool.dPool */\n      0x80\n      add\n      mload\n        /* \"wwcc-contracts/contracts/wwccPool.sol\":8988:8992  pool */\n      dup10\n        /* \"wwcc-contracts/contracts/wwccPool.sol\":8988:8998  pool.lPool */\n      0xa0\n      add\n      mload\n        /* \"wwcc-contracts/contracts/wwccPool.sol\":8977:8981  pool */\n      dup11\n        /* \"wwcc-contracts/contracts/wwccPool.sol\":8977:8987  pool.wPool */\n      0x60\n      add\n      mload\n        /* \"wwcc-contracts/contracts/wwccPool.sol\":8977:8998  pool.wPool+pool.lPool */\n      tag_355\n      swap2\n      swap1\n      tag_22\n      jump\t// in\n    tag_355:\n        /* \"wwcc-contracts/contracts/wwccPool.sol\":8977:9009  pool.wPool+pool.lPool+pool.dPool */\n      tag_356\n      swap2\n      swap1\n      tag_22\n      jump\t// in\n    tag_356:\n        /* \"wwcc-contracts/contracts/wwccPool.sol\":8977:9028  pool.wPool+pool.lPool+pool.dPool+ pool.basal.div(2) */\n      tag_357\n      swap2\n      swap1\n      tag_22\n      jump\t// in\n    tag_357:\n        /* \"wwcc-contracts/contracts/wwccPool.sol\":8976:9033  (pool.wPool+pool.lPool+pool.dPool+ pool.basal.div(2)).mul */\n      tag_328\n      swap1\n        /* \"wwcc-contracts/contracts/wwccPool.sol\":8976:9037  (pool.wPool+pool.lPool+pool.dPool+ pool.basal.div(2)).mul(85) */\n      swap2\n      swap1\n      0xffffffff\n      and\n      jump\t// in\n    tag_353:\n        /* \"wwcc-contracts/contracts/wwccPool.sol\":8976:9041  (pool.wPool+pool.lPool+pool.dPool+ pool.basal.div(2)).mul(85).div */\n      tag_20\n      swap1\n        /* \"wwcc-contracts/contracts/wwccPool.sol\":8976:9046  (pool.wPool+pool.lPool+pool.dPool+ pool.basal.div(2)).mul(85).div(100) */\n      swap2\n      swap1\n      0xffffffff\n      and\n      jump\t// in\n    tag_352:\n        /* \"wwcc-contracts/contracts/wwccPool.sol\":8958:9046  allRewardAmount = (pool.wPool+pool.lPool+pool.dPool+ pool.basal.div(2)).mul(85).div(100) */\n      swap2\n      pop\n        /* \"wwcc-contracts/contracts/wwccPool.sol\":9074:9096  uint256 pickPoolAmount */\n      0x00\n        /* \"wwcc-contracts/contracts/wwccPool.sol\":9156:9157  0 */\n      dup1\n        /* \"wwcc-contracts/contracts/wwccPool.sol\":9132:9144  separateBets */\n      dup5\n        /* \"wwcc-contracts/contracts/wwccPool.sol\":9145:9146  j */\n      dup4\n        /* \"wwcc-contracts/contracts/wwccPool.sol\":9132:9147  separateBets[j] */\n      dup2\n      mload\n      dup2\n      lt\n      tag_358\n      jumpi\n      tag_359\n      tag_319\n      jump\t// in\n    tag_359:\n    tag_358:\n      0x20\n      mul\n      0x20\n      add\n      add\n      mload\n        /* \"wwcc-contracts/contracts/wwccPool.sol\":9132:9152  separateBets[j].kind */\n      0x20\n      add\n      mload\n        /* \"wwcc-contracts/contracts/wwccPool.sol\":9132:9157  separateBets[j].kind == 0 */\n      eq\n        /* \"wwcc-contracts/contracts/wwccPool.sol\":9128:9263  if (separateBets[j].kind == 0){... */\n      iszero\n      tag_360\n      jumpi\n        /* \"wwcc-contracts/contracts/wwccPool.sol\":9207:9234  pool.lPool.mul(85).div(100) */\n      tag_361\n        /* \"wwcc-contracts/contracts/wwccPool.sol\":9230:9233  100 */\n      0x64\n        /* \"wwcc-contracts/contracts/wwccPool.sol\":9207:9225  pool.lPool.mul(85) */\n      tag_362\n        /* \"wwcc-contracts/contracts/wwccPool.sol\":9222:9224  85 */\n      0x55\n        /* \"wwcc-contracts/contracts/wwccPool.sol\":9207:9211  pool */\n      dup9\n        /* \"wwcc-contracts/contracts/wwccPool.sol\":9207:9217  pool.lPool */\n      0xa0\n      add\n      mload\n        /* \"wwcc-contracts/contracts/wwccPool.sol\":9207:9221  pool.lPool.mul */\n      tag_328\n      swap1\n        /* \"wwcc-contracts/contracts/wwccPool.sol\":9207:9225  pool.lPool.mul(85) */\n      swap2\n      swap1\n      0xffffffff\n      and\n      jump\t// in\n    tag_362:\n        /* \"wwcc-contracts/contracts/wwccPool.sol\":9207:9229  pool.lPool.mul(85).div */\n      tag_20\n      swap1\n        /* \"wwcc-contracts/contracts/wwccPool.sol\":9207:9234  pool.lPool.mul(85).div(100) */\n      swap2\n      swap1\n      0xffffffff\n      and\n      jump\t// in\n    tag_361:\n        /* \"wwcc-contracts/contracts/wwccPool.sol\":9190:9234  pickPoolAmount = pool.lPool.mul(85).div(100) */\n      swap1\n      pop\n        /* \"wwcc-contracts/contracts/wwccPool.sol\":9128:9263  if (separateBets[j].kind == 0){... */\n    tag_360:\n        /* \"wwcc-contracts/contracts/wwccPool.sol\":9318:9319  1 */\n      0x01\n        /* \"wwcc-contracts/contracts/wwccPool.sol\":9294:9306  separateBets */\n      dup5\n        /* \"wwcc-contracts/contracts/wwccPool.sol\":9307:9308  j */\n      dup4\n        /* \"wwcc-contracts/contracts/wwccPool.sol\":9294:9309  separateBets[j] */\n      dup2\n      mload\n      dup2\n      lt\n      tag_363\n      jumpi\n      tag_364\n      tag_319\n      jump\t// in\n    tag_364:\n    tag_363:\n      0x20\n      mul\n      0x20\n      add\n      add\n      mload\n        /* \"wwcc-contracts/contracts/wwccPool.sol\":9294:9314  separateBets[j].kind */\n      0x20\n      add\n      mload\n        /* \"wwcc-contracts/contracts/wwccPool.sol\":9294:9319  separateBets[j].kind == 1 */\n      eq\n        /* \"wwcc-contracts/contracts/wwccPool.sol\":9290:9425  if (separateBets[j].kind == 1){... */\n      iszero\n      tag_365\n      jumpi\n        /* \"wwcc-contracts/contracts/wwccPool.sol\":9369:9396  pool.dPool.mul(85).div(100) */\n      tag_366\n        /* \"wwcc-contracts/contracts/wwccPool.sol\":9392:9395  100 */\n      0x64\n        /* \"wwcc-contracts/contracts/wwccPool.sol\":9369:9387  pool.dPool.mul(85) */\n      tag_367\n        /* \"wwcc-contracts/contracts/wwccPool.sol\":9384:9386  85 */\n      0x55\n        /* \"wwcc-contracts/contracts/wwccPool.sol\":9369:9373  pool */\n      dup9\n        /* \"wwcc-contracts/contracts/wwccPool.sol\":9369:9379  pool.dPool */\n      0x80\n      add\n      mload\n        /* \"wwcc-contracts/contracts/wwccPool.sol\":9369:9383  pool.dPool.mul */\n      tag_328\n      swap1\n        /* \"wwcc-contracts/contracts/wwccPool.sol\":9369:9387  pool.dPool.mul(85) */\n      swap2\n      swap1\n      0xffffffff\n      and\n      jump\t// in\n    tag_367:\n        /* \"wwcc-contracts/contracts/wwccPool.sol\":9369:9391  pool.dPool.mul(85).div */\n      tag_20\n      swap1\n        /* \"wwcc-contracts/contracts/wwccPool.sol\":9369:9396  pool.dPool.mul(85).div(100) */\n      swap2\n      swap1\n      0xffffffff\n      and\n      jump\t// in\n    tag_366:\n        /* \"wwcc-contracts/contracts/wwccPool.sol\":9352:9396  pickPoolAmount = pool.dPool.mul(85).div(100) */\n      swap1\n      pop\n        /* \"wwcc-contracts/contracts/wwccPool.sol\":9290:9425  if (separateBets[j].kind == 1){... */\n    tag_365:\n        /* \"wwcc-contracts/contracts/wwccPool.sol\":9480:9481  3 */\n      0x03\n        /* \"wwcc-contracts/contracts/wwccPool.sol\":9456:9468  separateBets */\n      dup5\n        /* \"wwcc-contracts/contracts/wwccPool.sol\":9469:9470  j */\n      dup4\n        /* \"wwcc-contracts/contracts/wwccPool.sol\":9456:9471  separateBets[j] */\n      dup2\n      mload\n      dup2\n      lt\n      tag_368\n      jumpi\n      tag_369\n      tag_319\n      jump\t// in\n    tag_369:\n    tag_368:\n      0x20\n      mul\n      0x20\n      add\n      add\n      mload\n        /* \"wwcc-contracts/contracts/wwccPool.sol\":9456:9476  separateBets[j].kind */\n      0x20\n      add\n      mload\n        /* \"wwcc-contracts/contracts/wwccPool.sol\":9456:9481  separateBets[j].kind == 3 */\n      eq\n        /* \"wwcc-contracts/contracts/wwccPool.sol\":9452:9587  if (separateBets[j].kind == 3){... */\n      iszero\n      tag_370\n      jumpi\n        /* \"wwcc-contracts/contracts/wwccPool.sol\":9531:9558  pool.wPool.mul(85).div(100) */\n      tag_371\n        /* \"wwcc-contracts/contracts/wwccPool.sol\":9554:9557  100 */\n      0x64\n        /* \"wwcc-contracts/contracts/wwccPool.sol\":9531:9549  pool.wPool.mul(85) */\n      tag_372\n        /* \"wwcc-contracts/contracts/wwccPool.sol\":9546:9548  85 */\n      0x55\n        /* \"wwcc-contracts/contracts/wwccPool.sol\":9531:9535  pool */\n      dup9\n        /* \"wwcc-contracts/contracts/wwccPool.sol\":9531:9541  pool.wPool */\n      0x60\n      add\n      mload\n        /* \"wwcc-contracts/contracts/wwccPool.sol\":9531:9545  pool.wPool.mul */\n      tag_328\n      swap1\n        /* \"wwcc-contracts/contracts/wwccPool.sol\":9531:9549  pool.wPool.mul(85) */\n      swap2\n      swap1\n      0xffffffff\n      and\n      jump\t// in\n    tag_372:\n        /* \"wwcc-contracts/contracts/wwccPool.sol\":9531:9553  pool.wPool.mul(85).div */\n      tag_20\n      swap1\n        /* \"wwcc-contracts/contracts/wwccPool.sol\":9531:9558  pool.wPool.mul(85).div(100) */\n      swap2\n      swap1\n      0xffffffff\n      and\n      jump\t// in\n    tag_371:\n        /* \"wwcc-contracts/contracts/wwccPool.sol\":9514:9558  pickPoolAmount = pool.wPool.mul(85).div(100) */\n      swap1\n      pop\n        /* \"wwcc-contracts/contracts/wwccPool.sol\":9452:9587  if (separateBets[j].kind == 3){... */\n    tag_370:\n        /* \"wwcc-contracts/contracts/wwccPool.sol\":9614:9634  uint256 rewardAmount */\n      0x00\n        /* \"wwcc-contracts/contracts/wwccPool.sol\":9681:9695  pickPoolAmount */\n      dup2\n        /* \"wwcc-contracts/contracts/wwccPool.sol\":9655:9667  separateBets */\n      dup6\n        /* \"wwcc-contracts/contracts/wwccPool.sol\":9668:9669  j */\n      dup5\n        /* \"wwcc-contracts/contracts/wwccPool.sol\":9655:9670  separateBets[j] */\n      dup2\n      mload\n      dup2\n      lt\n      tag_373\n      jumpi\n      tag_374\n      tag_319\n      jump\t// in\n    tag_374:\n    tag_373:\n      0x20\n      mul\n      0x20\n      add\n      add\n      mload\n        /* \"wwcc-contracts/contracts/wwccPool.sol\":9655:9677  separateBets[j].weight */\n      0x00\n      add\n      mload\n        /* \"wwcc-contracts/contracts/wwccPool.sol\":9637:9652  allRewardAmount */\n      dup6\n        /* \"wwcc-contracts/contracts/wwccPool.sol\":9637:9677  allRewardAmount * separateBets[j].weight */\n      tag_375\n      swap2\n      swap1\n      tag_341\n      jump\t// in\n    tag_375:\n        /* \"wwcc-contracts/contracts/wwccPool.sol\":9637:9695  allRewardAmount * separateBets[j].weight /  pickPoolAmount */\n      tag_376\n      swap2\n      swap1\n      tag_96\n      jump\t// in\n    tag_376:\n        /* \"wwcc-contracts/contracts/wwccPool.sol\":9614:9695  uint256 rewardAmount = allRewardAmount * separateBets[j].weight /  pickPoolAmount */\n      swap1\n      pop\n        /* \"wwcc-contracts/contracts/wwccPool.sol\":10067:10079  rewardAmount */\n      dup1\n        /* \"wwcc-contracts/contracts/wwccPool.sol\":10029:10039  voteAmount */\n      0x04\n        /* \"wwcc-contracts/contracts/wwccPool.sol\":10029:10063  voteAmount[separateBets[j].joiner] */\n      0x00\n        /* \"wwcc-contracts/contracts/wwccPool.sol\":10040:10052  separateBets */\n      dup8\n        /* \"wwcc-contracts/contracts/wwccPool.sol\":10053:10054  j */\n      dup7\n        /* \"wwcc-contracts/contracts/wwccPool.sol\":10040:10055  separateBets[j] */\n      dup2\n      mload\n      dup2\n      lt\n      tag_377\n      jumpi\n      tag_378\n      tag_319\n      jump\t// in\n    tag_378:\n    tag_377:\n      0x20\n      mul\n      0x20\n      add\n      add\n      mload\n        /* \"wwcc-contracts/contracts/wwccPool.sol\":10040:10062  separateBets[j].joiner */\n      0x80\n      add\n      mload\n        /* \"wwcc-contracts/contracts/wwccPool.sol\":10029:10063  voteAmount[separateBets[j].joiner] */\n      0xffffffffffffffffffffffffffffffffffffffff\n      and\n      0xffffffffffffffffffffffffffffffffffffffff\n      and\n      dup2\n      mstore\n      0x20\n      add\n      swap1\n      dup2\n      mstore\n      0x20\n      add\n      0x00\n      keccak256\n      0x00\n        /* \"wwcc-contracts/contracts/wwccPool.sol\":10029:10079  voteAmount[separateBets[j].joiner] += rewardAmount */\n      dup3\n      dup3\n      sload\n      tag_379\n      swap2\n      swap1\n      tag_22\n      jump\t// in\n    tag_379:\n      swap3\n      pop\n      pop\n      dup2\n      swap1\n      sstore\n      pop\n        /* \"wwcc-contracts/contracts/wwccPool.sol\":10134:10138  true */\n      0x01\n        /* \"wwcc-contracts/contracts/wwccPool.sol\":10107:10119  separateBets */\n      dup6\n        /* \"wwcc-contracts/contracts/wwccPool.sol\":10120:10121  j */\n      dup5\n        /* \"wwcc-contracts/contracts/wwccPool.sol\":10107:10122  separateBets[j] */\n      dup2\n      mload\n      dup2\n      lt\n      tag_380\n      jumpi\n      tag_381\n      tag_319\n      jump\t// in\n    tag_381:\n    tag_380:\n      0x20\n      mul\n      0x20\n      add\n      add\n      mload\n        /* \"wwcc-contracts/contracts/wwccPool.sol\":10107:10131  separateBets[j].finished */\n      0xc0\n      add\n        /* \"wwcc-contracts/contracts/wwccPool.sol\":10107:10138  separateBets[j].finished = true */\n      swap1\n      iszero\n      iszero\n      swap1\n      dup2\n      iszero\n      iszero\n      dup2\n      mstore\n      pop\n      pop\n        /* \"wwcc-contracts/contracts/wwccPool.sol\":8930:10163  {... */\n      pop\n      pop\n        /* \"wwcc-contracts/contracts/wwccPool.sol\":8898:10163  if(separateBets[j].kind==result){... */\n    tag_351:\n        /* \"wwcc-contracts/contracts/wwccPool.sol\":7904:10185  if(separateBets[j].kind==2){... */\n    tag_348:\n        /* \"wwcc-contracts/contracts/wwccPool.sol\":7844:10205  if(separateBets[j].finished = false){... */\n    tag_320:\n        /* \"wwcc-contracts/contracts/wwccPool.sol\":7802:7806  j ++ */\n      dup1\n      dup1\n      tag_382\n      swap1\n      tag_383\n      jump\t// in\n    tag_382:\n      swap2\n      pop\n      pop\n        /* \"wwcc-contracts/contracts/wwccPool.sol\":7708:10225  for (... */\n      jump(tag_313)\n    tag_314:\n      pop\n        /* \"wwcc-contracts/contracts/wwccPool.sol\":10258:10262  true */\n      0x01\n        /* \"wwcc-contracts/contracts/wwccPool.sol\":10242:10246  pool */\n      dup4\n        /* \"wwcc-contracts/contracts/wwccPool.sol\":10242:10255  pool.finished */\n      0x0140\n      add\n        /* \"wwcc-contracts/contracts/wwccPool.sol\":10242:10262  pool.finished = true */\n      swap1\n      iszero\n      iszero\n      swap1\n      dup2\n      iszero\n      iszero\n      dup2\n      mstore\n      pop\n      pop\n        /* \"wwcc-contracts/contracts/wwccPool.sol\":7180:10397  {... */\n      pop\n      pop\n      pop\n        /* \"wwcc-contracts/contracts/wwccPool.sol\":10412:10416  true */\n      0x01\n        /* \"wwcc-contracts/contracts/wwccPool.sol\":10405:10416  return true */\n      swap1\n      pop\n        /* \"wwcc-contracts/contracts/wwccPool.sol\":6966:10423  function Award(bytes32 poolKey,uint256 homeScore,uint256 visitScore,uint256 result)  external onlyManager  payable returns(bool){... */\n      swap5\n      swap4\n      pop\n      pop\n      pop\n      pop\n      jump\t// out\n        /* \"wwcc-contracts/contracts/wwccPool.sol\":5668:6058  function voteWithdrawal(address joiner,uint256 amount) external onlyManager payable returns (bool){... */\n    tag_76:\n        /* \"wwcc-contracts/contracts/wwccPool.sol\":5761:5765  bool */\n      0x00\n        /* \"wwcc-contracts/contracts/wwccPool.sol\":13420:13425  owner */\n      dup1\n      0x00\n      swap1\n      sload\n      swap1\n      0x0100\n      exp\n      swap1\n      div\n      0xffffffffffffffffffffffffffffffffffffffff\n      and\n        /* \"wwcc-contracts/contracts/wwccPool.sol\":13406:13425  msg.sender == owner */\n      0xffffffffffffffffffffffffffffffffffffffff\n      and\n        /* \"wwcc-contracts/contracts/wwccPool.sol\":13406:13416  msg.sender */\n      caller\n        /* \"wwcc-contracts/contracts/wwccPool.sol\":13406:13425  msg.sender == owner */\n      0xffffffffffffffffffffffffffffffffffffffff\n      and\n      eq\n        /* \"wwcc-contracts/contracts/wwccPool.sol\":13385:13476  require(... */\n      tag_385\n      jumpi\n      mload(0x40)\n      0x08c379a000000000000000000000000000000000000000000000000000000000\n      dup2\n      mstore\n      0x04\n      add\n      tag_386\n      swap1\n      tag_100\n      jump\t// in\n    tag_386:\n      mload(0x40)\n      dup1\n      swap2\n      sub\n      swap1\n      revert\n    tag_385:\n        /* \"wwcc-contracts/contracts/wwccPool.sol\":5801:5807  amount */\n      dup2\n        /* \"wwcc-contracts/contracts/wwccPool.sol\":5779:5789  voteAmount */\n      0x04\n        /* \"wwcc-contracts/contracts/wwccPool.sol\":5779:5797  voteAmount[joiner] */\n      0x00\n        /* \"wwcc-contracts/contracts/wwccPool.sol\":5790:5796  joiner */\n      dup6\n        /* \"wwcc-contracts/contracts/wwccPool.sol\":5779:5797  voteAmount[joiner] */\n      0xffffffffffffffffffffffffffffffffffffffff\n      and\n      0xffffffffffffffffffffffffffffffffffffffff\n      and\n      dup2\n      mstore\n      0x20\n      add\n      swap1\n      dup2\n      mstore\n      0x20\n      add\n      0x00\n      keccak256\n      sload\n        /* \"wwcc-contracts/contracts/wwccPool.sol\":5779:5807  voteAmount[joiner] >= amount */\n      lt\n      iszero\n        /* \"wwcc-contracts/contracts/wwccPool.sol\":5779:5834  voteAmount[joiner] >= amount && voteAmount[joiner] >= 0 */\n      dup1\n      iszero\n      tag_388\n      jumpi\n      pop\n        /* \"wwcc-contracts/contracts/wwccPool.sol\":5833:5834  0 */\n      0x00\n        /* \"wwcc-contracts/contracts/wwccPool.sol\":5811:5821  voteAmount */\n      0x04\n        /* \"wwcc-contracts/contracts/wwccPool.sol\":5811:5829  voteAmount[joiner] */\n      0x00\n        /* \"wwcc-contracts/contracts/wwccPool.sol\":5822:5828  joiner */\n      dup6\n        /* \"wwcc-contracts/contracts/wwccPool.sol\":5811:5829  voteAmount[joiner] */\n      0xffffffffffffffffffffffffffffffffffffffff\n      and\n      0xffffffffffffffffffffffffffffffffffffffff\n      and\n      dup2\n      mstore\n      0x20\n      add\n      swap1\n      dup2\n      mstore\n      0x20\n      add\n      0x00\n      keccak256\n      sload\n        /* \"wwcc-contracts/contracts/wwccPool.sol\":5811:5834  voteAmount[joiner] >= 0 */\n      lt\n      iszero\n        /* \"wwcc-contracts/contracts/wwccPool.sol\":5779:5834  voteAmount[joiner] >= amount && voteAmount[joiner] >= 0 */\n    tag_388:\n        /* \"wwcc-contracts/contracts/wwccPool.sol\":5776:6031  if(voteAmount[joiner] >= amount && voteAmount[joiner] >= 0){... */\n      iszero\n      tag_389\n      jumpi\n        /* \"wwcc-contracts/contracts/wwccPool.sol\":5849:5882  address payable toAddress_address */\n      0x00\n        /* \"wwcc-contracts/contracts/wwccPool.sol\":5893:5899  joiner */\n      dup4\n        /* \"wwcc-contracts/contracts/wwccPool.sol\":5849:5900  address payable toAddress_address = payable(joiner) */\n      swap1\n      pop\n        /* \"wwcc-contracts/contracts/wwccPool.sol\":5914:5931  toAddress_address */\n      dup1\n        /* \"wwcc-contracts/contracts/wwccPool.sol\":5914:5940  toAddress_address.transfer */\n      0xffffffffffffffffffffffffffffffffffffffff\n      and\n        /* \"wwcc-contracts/contracts/wwccPool.sol\":5914:5960  toAddress_address.transfer(voteAmount[joiner]) */\n      0x08fc\n        /* \"wwcc-contracts/contracts/wwccPool.sol\":5941:5951  voteAmount */\n      0x04\n        /* \"wwcc-contracts/contracts/wwccPool.sol\":5941:5959  voteAmount[joiner] */\n      0x00\n        /* \"wwcc-contracts/contracts/wwccPool.sol\":5952:5958  joiner */\n      dup8\n        /* \"wwcc-contracts/contracts/wwccPool.sol\":5941:5959  voteAmount[joiner] */\n      0xffffffffffffffffffffffffffffffffffffffff\n      and\n      0xffffffffffffffffffffffffffffffffffffffff\n      and\n      dup2\n      mstore\n      0x20\n      add\n      swap1\n      dup2\n      mstore\n      0x20\n      add\n      0x00\n      keccak256\n      sload\n        /* \"wwcc-contracts/contracts/wwccPool.sol\":5914:5960  toAddress_address.transfer(voteAmount[joiner]) */\n      swap1\n      dup2\n      iszero\n      mul\n      swap1\n      mload(0x40)\n      0x00\n      mload(0x40)\n      dup1\n      dup4\n      sub\n      dup2\n      dup6\n      dup9\n      dup9\n      call\n      swap4\n      pop\n      pop\n      pop\n      pop\n      iszero\n      dup1\n      iszero\n      tag_391\n      jumpi\n      returndatasize\n      0x00\n      dup1\n      returndatacopy\n      revert(0x00, returndatasize)\n    tag_391:\n      pop\n        /* \"wwcc-contracts/contracts/wwccPool.sol\":5835:5971  {... */\n      pop\n        /* \"wwcc-contracts/contracts/wwccPool.sol\":5776:6031  if(voteAmount[joiner] >= amount && voteAmount[joiner] >= 0){... */\n      jump(tag_392)\n    tag_389:\n        /* \"wwcc-contracts/contracts/wwccPool.sol\":5989:6020  revert(\"not enough voteAmount\") */\n      mload(0x40)\n      0x08c379a000000000000000000000000000000000000000000000000000000000\n      dup2\n      mstore\n      0x04\n      add\n      tag_393\n      swap1\n      tag_232\n      jump\t// in\n    tag_393:\n      mload(0x40)\n      dup1\n      swap2\n      sub\n      swap1\n      revert\n        /* \"wwcc-contracts/contracts/wwccPool.sol\":5776:6031  if(voteAmount[joiner] >= amount && voteAmount[joiner] >= 0){... */\n    tag_392:\n        /* \"wwcc-contracts/contracts/wwccPool.sol\":6047:6051  true */\n      0x01\n        /* \"wwcc-contracts/contracts/wwccPool.sol\":6040:6051  return true */\n      swap1\n      pop\n        /* \"wwcc-contracts/contracts/wwccPool.sol\":5668:6058  function voteWithdrawal(address joiner,uint256 amount) external onlyManager payable returns (bool){... */\n      swap3\n      swap2\n      pop\n      pop\n      jump\t// out\n        /* \"wwcc-contracts/contracts/wwccPool.sol\":6486:6580  function getAllPool() external view returns (bytes32[] memory){... */\n    tag_80:\n        /* \"wwcc-contracts/contracts/wwccPool.sol\":6531:6547  bytes32[] memory */\n      0x60\n        /* \"wwcc-contracts/contracts/wwccPool.sol\":6565:6573  poolKeys */\n      0x02\n        /* \"wwcc-contracts/contracts/wwccPool.sol\":6558:6573  return poolKeys */\n      dup1\n      sload\n      dup1\n      0x20\n      mul\n      0x20\n      add\n      mload(0x40)\n      swap1\n      dup2\n      add\n      0x40\n      mstore\n      dup1\n      swap3\n      swap2\n      swap1\n      dup2\n      dup2\n      mstore\n      0x20\n      add\n      dup3\n      dup1\n      sload\n      dup1\n      iszero\n      tag_395\n      jumpi\n      0x20\n      mul\n      dup3\n      add\n      swap2\n      swap1\n      0x00\n      mstore\n      keccak256(0x00, 0x20)\n      swap1\n    tag_396:\n      dup2\n      sload\n      dup2\n      mstore\n      0x20\n      add\n      swap1\n      0x01\n      add\n      swap1\n      dup1\n      dup4\n      gt\n      tag_396\n      jumpi\n    tag_395:\n      pop\n      pop\n      pop\n      pop\n      pop\n      swap1\n      pop\n        /* \"wwcc-contracts/contracts/wwccPool.sol\":6486:6580  function getAllPool() external view returns (bytes32[] memory){... */\n      swap1\n      jump\t// out\n        /* \"wwcc-contracts/contracts/wwccPool.sol\":6790:6895  function CheckVoteTickets() external view returns (uint256){... */\n    tag_85:\n        /* \"wwcc-contracts/contracts/wwccPool.sol\":6841:6848  uint256 */\n      0x00\n        /* \"wwcc-contracts/contracts/wwccPool.sol\":6866:6876  voteAmount */\n      0x04\n        /* \"wwcc-contracts/contracts/wwccPool.sol\":6866:6888  voteAmount[msg.sender] */\n      0x00\n        /* \"wwcc-contracts/contracts/wwccPool.sol\":6877:6887  msg.sender */\n      caller\n        /* \"wwcc-contracts/contracts/wwccPool.sol\":6866:6888  voteAmount[msg.sender] */\n      0xffffffffffffffffffffffffffffffffffffffff\n      and\n      0xffffffffffffffffffffffffffffffffffffffff\n      and\n      dup2\n      mstore\n      0x20\n      add\n      swap1\n      dup2\n      mstore\n      0x20\n      add\n      0x00\n      keccak256\n      sload\n        /* \"wwcc-contracts/contracts/wwccPool.sol\":6859:6888  return voteAmount[msg.sender] */\n      swap1\n      pop\n        /* \"wwcc-contracts/contracts/wwccPool.sol\":6790:6895  function CheckVoteTickets() external view returns (uint256){... */\n      swap1\n      jump\t// out\n        /* \"wwcc-contracts/contracts/wwccPool.sol\":10722:11370  function getPool(bytes32 poolKey) external view returns (string memory vs,string memory rounds,PoolViewInfo memory viewInfo){... */\n    tag_90:\n        /* \"wwcc-contracts/contracts/wwccPool.sol\":10779:10795  string memory vs */\n      0x60\n        /* \"wwcc-contracts/contracts/wwccPool.sol\":10796:10816  string memory rounds */\n      dup1\n        /* \"wwcc-contracts/contracts/wwccPool.sol\":10817:10845  PoolViewInfo memory viewInfo */\n      tag_398\n      tag_399\n      jump\t// in\n    tag_398:\n        /* \"wwcc-contracts/contracts/wwccPool.sol\":10860:10877  contains(poolKey) */\n      tag_401\n        /* \"wwcc-contracts/contracts/wwccPool.sol\":10869:10876  poolKey */\n      dup5\n        /* \"wwcc-contracts/contracts/wwccPool.sol\":10860:10868  contains */\n      tag_103\n        /* \"wwcc-contracts/contracts/wwccPool.sol\":10860:10877  contains(poolKey) */\n      jump\t// in\n    tag_401:\n        /* \"wwcc-contracts/contracts/wwccPool.sol\":10856:11364  if(!contains(poolKey)) { ... */\n      tag_402\n      jumpi\n        /* \"wwcc-contracts/contracts/wwccPool.sol\":10894:10913  revert(\"not exist\") */\n      mload(0x40)\n      0x08c379a000000000000000000000000000000000000000000000000000000000\n      dup2\n      mstore\n      0x04\n      add\n      tag_403\n      swap1\n      tag_404\n      jump\t// in\n    tag_403:\n      mload(0x40)\n      dup1\n      swap2\n      sub\n      swap1\n      revert\n        /* \"wwcc-contracts/contracts/wwccPool.sol\":10856:11364  if(!contains(poolKey)) { ... */\n    tag_402:\n        /* \"wwcc-contracts/contracts/wwccPool.sol\":10942:10959  string  memory hv */\n      0x00\n        /* \"wwcc-contracts/contracts/wwccPool.sol\":10962:11001  strConcat(WcPools[poolKey].home,\" vs \") */\n      tag_406\n        /* \"wwcc-contracts/contracts/wwccPool.sol\":10972:10979  WcPools */\n      0x05\n        /* \"wwcc-contracts/contracts/wwccPool.sol\":10972:10988  WcPools[poolKey] */\n      0x00\n        /* \"wwcc-contracts/contracts/wwccPool.sol\":10980:10987  poolKey */\n      dup8\n        /* \"wwcc-contracts/contracts/wwccPool.sol\":10972:10988  WcPools[poolKey] */\n      dup2\n      mstore\n      0x20\n      add\n      swap1\n      dup2\n      mstore\n      0x20\n      add\n      0x00\n      keccak256\n        /* \"wwcc-contracts/contracts/wwccPool.sol\":10972:10993  WcPools[poolKey].home */\n      0x00\n      add\n        /* \"wwcc-contracts/contracts/wwccPool.sol\":10962:11001  strConcat(WcPools[poolKey].home,\" vs \") */\n      dup1\n      sload\n      tag_407\n      swap1\n      tag_109\n      jump\t// in\n    tag_407:\n      dup1\n      0x1f\n      add\n      0x20\n      dup1\n      swap2\n      div\n      mul\n      0x20\n      add\n      mload(0x40)\n      swap1\n      dup2\n      add\n      0x40\n      mstore\n      dup1\n      swap3\n      swap2\n      swap1\n      dup2\n      dup2\n      mstore\n      0x20\n      add\n      dup3\n      dup1\n      sload\n      tag_408\n      swap1\n      tag_109\n      jump\t// in\n    tag_408:\n      dup1\n      iszero\n      tag_409\n      jumpi\n      dup1\n      0x1f\n      lt\n      tag_410\n      jumpi\n      0x0100\n      dup1\n      dup4\n      sload\n      div\n      mul\n      dup4\n      mstore\n      swap2\n      0x20\n      add\n      swap2\n      jump(tag_409)\n    tag_410:\n      dup3\n      add\n      swap2\n      swap1\n      0x00\n      mstore\n      keccak256(0x00, 0x20)\n      swap1\n    tag_411:\n      dup2\n      sload\n      dup2\n      mstore\n      swap1\n      0x01\n      add\n      swap1\n      0x20\n      add\n      dup1\n      dup4\n      gt\n      tag_411\n      jumpi\n      dup3\n      swap1\n      sub\n      0x1f\n      and\n      dup3\n      add\n      swap2\n    tag_409:\n      pop\n      pop\n      pop\n      pop\n      pop\n      mload(0x40)\n      dup1\n      0x40\n      add\n      0x40\n      mstore\n      dup1\n      0x04\n      dup2\n      mstore\n      0x20\n      add\n      0x2076732000000000000000000000000000000000000000000000000000000000\n      dup2\n      mstore\n      pop\n        /* \"wwcc-contracts/contracts/wwccPool.sol\":10962:10971  strConcat */\n      tag_179\n        /* \"wwcc-contracts/contracts/wwccPool.sol\":10962:11001  strConcat(WcPools[poolKey].home,\" vs \") */\n      jump\t// in\n    tag_406:\n        /* \"wwcc-contracts/contracts/wwccPool.sol\":10942:11001  string  memory hv = strConcat(WcPools[poolKey].home,\" vs \") */\n      swap1\n      pop\n        /* \"wwcc-contracts/contracts/wwccPool.sol\":11020:11056  strConcat(hv,WcPools[poolKey].visit) */\n      tag_412\n        /* \"wwcc-contracts/contracts/wwccPool.sol\":11030:11032  hv */\n      dup2\n        /* \"wwcc-contracts/contracts/wwccPool.sol\":11033:11040  WcPools */\n      0x05\n        /* \"wwcc-contracts/contracts/wwccPool.sol\":11033:11049  WcPools[poolKey] */\n      0x00\n        /* \"wwcc-contracts/contracts/wwccPool.sol\":11041:11048  poolKey */\n      dup9\n        /* \"wwcc-contracts/contracts/wwccPool.sol\":11033:11049  WcPools[poolKey] */\n      dup2\n      mstore\n      0x20\n      add\n      swap1\n      dup2\n      mstore\n      0x20\n      add\n      0x00\n      keccak256\n        /* \"wwcc-contracts/contracts/wwccPool.sol\":11033:11055  WcPools[poolKey].visit */\n      0x01\n      add\n        /* \"wwcc-contracts/contracts/wwccPool.sol\":11020:11056  strConcat(hv,WcPools[poolKey].visit) */\n      dup1\n      sload\n      tag_413\n      swap1\n      tag_109\n      jump\t// in\n    tag_413:\n      dup1\n      0x1f\n      add\n      0x20\n      dup1\n      swap2\n      div\n      mul\n      0x20\n      add\n      mload(0x40)\n      swap1\n      dup2\n      add\n      0x40\n      mstore\n      dup1\n      swap3\n      swap2\n      swap1\n      dup2\n      dup2\n      mstore\n      0x20\n      add\n      dup3\n      dup1\n      sload\n      tag_414\n      swap1\n      tag_109\n      jump\t// in\n    tag_414:\n      dup1\n      iszero\n      tag_415\n      jumpi\n      dup1\n      0x1f\n      lt\n      tag_416\n      jumpi\n      0x0100\n      dup1\n      dup4\n      sload\n      div\n      mul\n      dup4\n      mstore\n      swap2\n      0x20\n      add\n      swap2\n      jump(tag_415)\n    tag_416:\n      dup3\n      add\n      swap2\n      swap1\n      0x00\n      mstore\n      keccak256(0x00, 0x20)\n      swap1\n    tag_417:\n      dup2\n      sload\n      dup2\n      mstore\n      swap1\n      0x01\n      add\n      swap1\n      0x20\n      add\n      dup1\n      dup4\n      gt\n      tag_417\n      jumpi\n      dup3\n      swap1\n      sub\n      0x1f\n      and\n      dup3\n      add\n      swap2\n    tag_415:\n      pop\n      pop\n      pop\n      pop\n      pop\n        /* \"wwcc-contracts/contracts/wwccPool.sol\":11020:11029  strConcat */\n      tag_179\n        /* \"wwcc-contracts/contracts/wwccPool.sol\":11020:11056  strConcat(hv,WcPools[poolKey].visit) */\n      jump\t// in\n    tag_412:\n        /* \"wwcc-contracts/contracts/wwccPool.sol\":11015:11056  vs = strConcat(hv,WcPools[poolKey].visit) */\n      swap4\n      pop\n        /* \"wwcc-contracts/contracts/wwccPool.sol\":11070:11092  PoolViewInfo memory vi */\n      0x00\n        /* \"wwcc-contracts/contracts/wwccPool.sol\":11095:11275  PoolViewInfo(WcPools[poolKey].wPool,... */\n      mload(0x40)\n      dup1\n      0xa0\n      add\n      0x40\n      mstore\n      dup1\n        /* \"wwcc-contracts/contracts/wwccPool.sol\":11108:11115  WcPools */\n      0x05\n        /* \"wwcc-contracts/contracts/wwccPool.sol\":11108:11124  WcPools[poolKey] */\n      0x00\n        /* \"wwcc-contracts/contracts/wwccPool.sol\":11116:11123  poolKey */\n      dup10\n        /* \"wwcc-contracts/contracts/wwccPool.sol\":11108:11124  WcPools[poolKey] */\n      dup2\n      mstore\n      0x20\n      add\n      swap1\n      dup2\n      mstore\n      0x20\n      add\n      0x00\n      keccak256\n        /* \"wwcc-contracts/contracts/wwccPool.sol\":11108:11130  WcPools[poolKey].wPool */\n      0x03\n      add\n      sload\n        /* \"wwcc-contracts/contracts/wwccPool.sol\":11095:11275  PoolViewInfo(WcPools[poolKey].wPool,... */\n      dup2\n      mstore\n      0x20\n      add\n        /* \"wwcc-contracts/contracts/wwccPool.sol\":11144:11151  WcPools */\n      0x05\n        /* \"wwcc-contracts/contracts/wwccPool.sol\":11144:11160  WcPools[poolKey] */\n      0x00\n        /* \"wwcc-contracts/contracts/wwccPool.sol\":11152:11159  poolKey */\n      dup10\n        /* \"wwcc-contracts/contracts/wwccPool.sol\":11144:11160  WcPools[poolKey] */\n      dup2\n      mstore\n      0x20\n      add\n      swap1\n      dup2\n      mstore\n      0x20\n      add\n      0x00\n      keccak256\n        /* \"wwcc-contracts/contracts/wwccPool.sol\":11144:11166  WcPools[poolKey].dPool */\n      0x04\n      add\n      sload\n        /* \"wwcc-contracts/contracts/wwccPool.sol\":11095:11275  PoolViewInfo(WcPools[poolKey].wPool,... */\n      dup2\n      mstore\n      0x20\n      add\n        /* \"wwcc-contracts/contracts/wwccPool.sol\":11180:11187  WcPools */\n      0x05\n        /* \"wwcc-contracts/contracts/wwccPool.sol\":11180:11196  WcPools[poolKey] */\n      0x00\n        /* \"wwcc-contracts/contracts/wwccPool.sol\":11188:11195  poolKey */\n      dup10\n        /* \"wwcc-contracts/contracts/wwccPool.sol\":11180:11196  WcPools[poolKey] */\n      dup2\n      mstore\n      0x20\n      add\n      swap1\n      dup2\n      mstore\n      0x20\n      add\n      0x00\n      keccak256\n        /* \"wwcc-contracts/contracts/wwccPool.sol\":11180:11202  WcPools[poolKey].lPool */\n      0x05\n      add\n      sload\n        /* \"wwcc-contracts/contracts/wwccPool.sol\":11095:11275  PoolViewInfo(WcPools[poolKey].wPool,... */\n      dup2\n      mstore\n      0x20\n      add\n        /* \"wwcc-contracts/contracts/wwccPool.sol\":11216:11223  WcPools */\n      0x05\n        /* \"wwcc-contracts/contracts/wwccPool.sol\":11216:11232  WcPools[poolKey] */\n      0x00\n        /* \"wwcc-contracts/contracts/wwccPool.sol\":11224:11231  poolKey */\n      dup10\n        /* \"wwcc-contracts/contracts/wwccPool.sol\":11216:11232  WcPools[poolKey] */\n      dup2\n      mstore\n      0x20\n      add\n      swap1\n      dup2\n      mstore\n      0x20\n      add\n      0x00\n      keccak256\n        /* \"wwcc-contracts/contracts/wwccPool.sol\":11216:11238  WcPools[poolKey].sPool */\n      0x06\n      add\n      sload\n        /* \"wwcc-contracts/contracts/wwccPool.sol\":11095:11275  PoolViewInfo(WcPools[poolKey].wPool,... */\n      dup2\n      mstore\n      0x20\n      add\n        /* \"wwcc-contracts/contracts/wwccPool.sol\":11252:11259  WcPools */\n      0x05\n        /* \"wwcc-contracts/contracts/wwccPool.sol\":11252:11268  WcPools[poolKey] */\n      0x00\n        /* \"wwcc-contracts/contracts/wwccPool.sol\":11260:11267  poolKey */\n      dup10\n        /* \"wwcc-contracts/contracts/wwccPool.sol\":11252:11268  WcPools[poolKey] */\n      dup2\n      mstore\n      0x20\n      add\n      swap1\n      dup2\n      mstore\n      0x20\n      add\n      0x00\n      keccak256\n        /* \"wwcc-contracts/contracts/wwccPool.sol\":11252:11274  WcPools[poolKey].basal */\n      0x07\n      add\n      sload\n        /* \"wwcc-contracts/contracts/wwccPool.sol\":11095:11275  PoolViewInfo(WcPools[poolKey].wPool,... */\n      dup2\n      mstore\n      pop\n        /* \"wwcc-contracts/contracts/wwccPool.sol\":11070:11275  PoolViewInfo memory vi = PoolViewInfo(WcPools[poolKey].wPool,... */\n      swap1\n      pop\n        /* \"wwcc-contracts/contracts/wwccPool.sol\":11297:11299  vs */\n      dup5\n        /* \"wwcc-contracts/contracts/wwccPool.sol\":11313:11320  WcPools */\n      0x05\n        /* \"wwcc-contracts/contracts/wwccPool.sol\":11313:11329  WcPools[poolKey] */\n      0x00\n        /* \"wwcc-contracts/contracts/wwccPool.sol\":11321:11328  poolKey */\n      dup9\n        /* \"wwcc-contracts/contracts/wwccPool.sol\":11313:11329  WcPools[poolKey] */\n      dup2\n      mstore\n      0x20\n      add\n      swap1\n      dup2\n      mstore\n      0x20\n      add\n      0x00\n      keccak256\n        /* \"wwcc-contracts/contracts/wwccPool.sol\":11313:11336  WcPools[poolKey].rounds */\n      0x02\n      add\n        /* \"wwcc-contracts/contracts/wwccPool.sol\":11350:11352  vi */\n      dup3\n        /* \"wwcc-contracts/contracts/wwccPool.sol\":11289:11353  return (vs,... */\n      dup2\n      dup1\n      sload\n      tag_418\n      swap1\n      tag_109\n      jump\t// in\n    tag_418:\n      dup1\n      0x1f\n      add\n      0x20\n      dup1\n      swap2\n      div\n      mul\n      0x20\n      add\n      mload(0x40)\n      swap1\n      dup2\n      add\n      0x40\n      mstore\n      dup1\n      swap3\n      swap2\n      swap1\n      dup2\n      dup2\n      mstore\n      0x20\n      add\n      dup3\n      dup1\n      sload\n      tag_419\n      swap1\n      tag_109\n      jump\t// in\n    tag_419:\n      dup1\n      iszero\n      tag_420\n      jumpi\n      dup1\n      0x1f\n      lt\n      tag_421\n      jumpi\n      0x0100\n      dup1\n      dup4\n      sload\n      div\n      mul\n      dup4\n      mstore\n      swap2\n      0x20\n      add\n      swap2\n      jump(tag_420)\n    tag_421:\n      dup3\n      add\n      swap2\n      swap1\n      0x00\n      mstore\n      keccak256(0x00, 0x20)\n      swap1\n    tag_422:\n      dup2\n      sload\n      dup2\n      mstore\n      swap1\n      0x01\n      add\n      swap1\n      0x20\n      add\n      dup1\n      dup4\n      gt\n      tag_422\n      jumpi\n      dup3\n      swap1\n      sub\n      0x1f\n      and\n      dup3\n      add\n      swap2\n    tag_420:\n      pop\n      pop\n      pop\n      pop\n      pop\n      swap2\n      pop\n      swap5\n      pop\n      swap5\n      pop\n      swap5\n      pop\n      pop\n      pop\n        /* \"wwcc-contracts/contracts/wwccPool.sol\":10722:11370  function getPool(bytes32 poolKey) external view returns (string memory vs,string memory rounds,PoolViewInfo memory viewInfo){... */\n      swap2\n      swap4\n      swap1\n      swap3\n      pop\n      jump\t// out\n        /* \"wwcc-contracts/contracts/wwccPool.sol\":11434:11547  function contains(bytes32 poolKey) internal view returns (bool) {... */\n    tag_103:\n        /* \"wwcc-contracts/contracts/wwccPool.sol\":11492:11496  bool */\n      0x00\n        /* \"wwcc-contracts/contracts/wwccPool.sol\":11519:11526  WcPools */\n      0x05\n        /* \"wwcc-contracts/contracts/wwccPool.sol\":11519:11535  WcPools[poolKey] */\n      0x00\n        /* \"wwcc-contracts/contracts/wwccPool.sol\":11527:11534  poolKey */\n      dup4\n        /* \"wwcc-contracts/contracts/wwccPool.sol\":11519:11535  WcPools[poolKey] */\n      dup2\n      mstore\n      0x20\n      add\n      swap1\n      dup2\n      mstore\n      0x20\n      add\n      0x00\n      keccak256\n        /* \"wwcc-contracts/contracts/wwccPool.sol\":11519:11540  WcPools[poolKey].used */\n      0x08\n      add\n      0x01\n      swap1\n      sload\n      swap1\n      0x0100\n      exp\n      swap1\n      div\n      0xff\n      and\n        /* \"wwcc-contracts/contracts/wwccPool.sol\":11512:11540  return WcPools[poolKey].used */\n      swap1\n      pop\n        /* \"wwcc-contracts/contracts/wwccPool.sol\":11434:11547  function contains(bytes32 poolKey) internal view returns (bool) {... */\n      swap2\n      swap1\n      pop\n      jump\t// out\n        /* \"wwcc-contracts/contracts/wwccPool.sol\":11577:12066  function strConcat(string memory _a,string memory _b) internal pure returns (string memory){... */\n    tag_179:\n        /* \"wwcc-contracts/contracts/wwccPool.sol\":11654:11667  string memory */\n      0x60\n        /* \"wwcc-contracts/contracts/wwccPool.sol\":11682:11698  bytes memory _ba */\n      0x00\n        /* \"wwcc-contracts/contracts/wwccPool.sol\":11707:11709  _a */\n      dup4\n        /* \"wwcc-contracts/contracts/wwccPool.sol\":11682:11710  bytes memory _ba = bytes(_a) */\n      swap1\n      pop\n        /* \"wwcc-contracts/contracts/wwccPool.sol\":11724:11740  bytes memory _bb */\n      0x00\n        /* \"wwcc-contracts/contracts/wwccPool.sol\":11749:11751  _b */\n      dup4\n        /* \"wwcc-contracts/contracts/wwccPool.sol\":11724:11752  bytes memory _bb = bytes(_b) */\n      swap1\n      pop\n        /* \"wwcc-contracts/contracts/wwccPool.sol\":11766:11783  string memory ret */\n      0x00\n        /* \"wwcc-contracts/contracts/wwccPool.sol\":11810:11813  _bb */\n      dup2\n        /* \"wwcc-contracts/contracts/wwccPool.sol\":11810:11820  _bb.length */\n      mload\n        /* \"wwcc-contracts/contracts/wwccPool.sol\":11797:11800  _ba */\n      dup4\n        /* \"wwcc-contracts/contracts/wwccPool.sol\":11797:11807  _ba.length */\n      mload\n        /* \"wwcc-contracts/contracts/wwccPool.sol\":11797:11820  _ba.length + _bb.length */\n      tag_425\n      swap2\n      swap1\n      tag_22\n      jump\t// in\n    tag_425:\n        /* \"wwcc-contracts/contracts/wwccPool.sol\":11786:11821  new string(_ba.length + _bb.length) */\n      0xffffffffffffffff\n      dup2\n      gt\n      iszero\n      tag_426\n      jumpi\n      tag_427\n      tag_428\n      jump\t// in\n    tag_427:\n    tag_426:\n      mload(0x40)\n      swap1\n      dup1\n      dup3\n      mstore\n      dup1\n      0x1f\n      add\n      not(0x1f)\n      and\n      0x20\n      add\n      dup3\n      add\n      0x40\n      mstore\n      dup1\n      iszero\n      tag_429\n      jumpi\n      dup2\n      0x20\n      add\n      0x01\n      dup3\n      mul\n      dup1\n      calldatasize\n      dup4\n      calldatacopy\n      dup1\n      dup3\n      add\n      swap2\n      pop\n      pop\n      swap1\n      pop\n    tag_429:\n      pop\n        /* \"wwcc-contracts/contracts/wwccPool.sol\":11766:11821  string memory ret = new string(_ba.length + _bb.length) */\n      swap1\n      pop\n        /* \"wwcc-contracts/contracts/wwccPool.sol\":11835:11852  bytes memory bret */\n      0x00\n        /* \"wwcc-contracts/contracts/wwccPool.sol\":11861:11864  ret */\n      dup2\n        /* \"wwcc-contracts/contracts/wwccPool.sol\":11835:11865  bytes memory bret = bytes(ret) */\n      swap1\n      pop\n        /* \"wwcc-contracts/contracts/wwccPool.sol\":11879:11885  uint k */\n      0x00\n        /* \"wwcc-contracts/contracts/wwccPool.sol\":11907:11913  uint i */\n      dup1\n        /* \"wwcc-contracts/contracts/wwccPool.sol\":11903:11956  for(uint i = 0;i < _ba.length;i++) bret[k++] = _ba[i] */\n    tag_430:\n        /* \"wwcc-contracts/contracts/wwccPool.sol\":11922:11925  _ba */\n      dup6\n        /* \"wwcc-contracts/contracts/wwccPool.sol\":11922:11932  _ba.length */\n      mload\n        /* \"wwcc-contracts/contracts/wwccPool.sol\":11918:11919  i */\n      dup2\n        /* \"wwcc-contracts/contracts/wwccPool.sol\":11918:11932  i < _ba.length */\n      lt\n        /* \"wwcc-contracts/contracts/wwccPool.sol\":11903:11956  for(uint i = 0;i < _ba.length;i++) bret[k++] = _ba[i] */\n      iszero\n      tag_431\n      jumpi\n        /* \"wwcc-contracts/contracts/wwccPool.sol\":11950:11953  _ba */\n      dup6\n        /* \"wwcc-contracts/contracts/wwccPool.sol\":11954:11955  i */\n      dup2\n        /* \"wwcc-contracts/contracts/wwccPool.sol\":11950:11956  _ba[i] */\n      dup2\n      mload\n      dup2\n      lt\n      tag_433\n      jumpi\n      tag_434\n      tag_319\n      jump\t// in\n    tag_434:\n    tag_433:\n      0x20\n      add\n      add\n      mload\n      0xf8\n      shr\n      0xf8\n      shl\n        /* \"wwcc-contracts/contracts/wwccPool.sol\":11938:11942  bret */\n      dup4\n        /* \"wwcc-contracts/contracts/wwccPool.sol\":11943:11946  k++ */\n      dup4\n      dup1\n      tag_435\n      swap1\n      tag_383\n      jump\t// in\n    tag_435:\n      swap5\n      pop\n        /* \"wwcc-contracts/contracts/wwccPool.sol\":11938:11947  bret[k++] */\n      dup2\n      mload\n      dup2\n      lt\n      tag_436\n      jumpi\n      tag_437\n      tag_319\n      jump\t// in\n    tag_437:\n    tag_436:\n      0x20\n      add\n      add\n        /* \"wwcc-contracts/contracts/wwccPool.sol\":11938:11956  bret[k++] = _ba[i] */\n      swap1\n      not(0xffffffffffffffffffffffffffffffffffffffffffffffffffffffffffffff)\n      and\n      swap1\n      dup2\n      0x00\n      byte\n      swap1\n      mstore8\n      pop\n        /* \"wwcc-contracts/contracts/wwccPool.sol\":11933:11936  i++ */\n      dup1\n      dup1\n      tag_438\n      swap1\n      tag_383\n      jump\t// in\n    tag_438:\n      swap2\n      pop\n      pop\n        /* \"wwcc-contracts/contracts/wwccPool.sol\":11903:11956  for(uint i = 0;i < _ba.length;i++) bret[k++] = _ba[i] */\n      jump(tag_430)\n    tag_431:\n      pop\n        /* \"wwcc-contracts/contracts/wwccPool.sol\":11974:11980  uint i */\n      0x00\n        /* \"wwcc-contracts/contracts/wwccPool.sol\":11970:12023  for(uint i = 0;i < _bb.length;i++) bret[k++] = _bb[i] */\n    tag_439:\n        /* \"wwcc-contracts/contracts/wwccPool.sol\":11989:11992  _bb */\n      dup5\n        /* \"wwcc-contracts/contracts/wwccPool.sol\":11989:11999  _bb.length */\n      mload\n        /* \"wwcc-contracts/contracts/wwccPool.sol\":11985:11986  i */\n      dup2\n        /* \"wwcc-contracts/contracts/wwccPool.sol\":11985:11999  i < _bb.length */\n      lt\n        /* \"wwcc-contracts/contracts/wwccPool.sol\":11970:12023  for(uint i = 0;i < _bb.length;i++) bret[k++] = _bb[i] */\n      iszero\n      tag_440\n      jumpi\n        /* \"wwcc-contracts/contracts/wwccPool.sol\":12017:12020  _bb */\n      dup5\n        /* \"wwcc-contracts/contracts/wwccPool.sol\":12021:12022  i */\n      dup2\n        /* \"wwcc-contracts/contracts/wwccPool.sol\":12017:12023  _bb[i] */\n      dup2\n      mload\n      dup2\n      lt\n      tag_442\n      jumpi\n      tag_443\n      tag_319\n      jump\t// in\n    tag_443:\n    tag_442:\n      0x20\n      add\n      add\n      mload\n      0xf8\n      shr\n      0xf8\n      shl\n        /* \"wwcc-contracts/contracts/wwccPool.sol\":12005:12009  bret */\n      dup4\n        /* \"wwcc-contracts/contracts/wwccPool.sol\":12010:12013  k++ */\n      dup4\n      dup1\n      tag_444\n      swap1\n      tag_383\n      jump\t// in\n    tag_444:\n      swap5\n      pop\n        /* \"wwcc-contracts/contracts/wwccPool.sol\":12005:12014  bret[k++] */\n      dup2\n      mload\n      dup2\n      lt\n      tag_445\n      jumpi\n      tag_446\n      tag_319\n      jump\t// in\n    tag_446:\n    tag_445:\n      0x20\n      add\n      add\n        /* \"wwcc-contracts/contracts/wwccPool.sol\":12005:12023  bret[k++] = _bb[i] */\n      swap1\n      not(0xffffffffffffffffffffffffffffffffffffffffffffffffffffffffffffff)\n      and\n      swap1\n      dup2\n      0x00\n      byte\n      swap1\n      mstore8\n      pop\n        /* \"wwcc-contracts/contracts/wwccPool.sol\":12000:12003  i++ */\n      dup1\n      dup1\n      tag_447\n      swap1\n      tag_383\n      jump\t// in\n    tag_447:\n      swap2\n      pop\n      pop\n        /* \"wwcc-contracts/contracts/wwccPool.sol\":11970:12023  for(uint i = 0;i < _bb.length;i++) bret[k++] = _bb[i] */\n      jump(tag_439)\n    tag_440:\n      pop\n        /* \"wwcc-contracts/contracts/wwccPool.sol\":12051:12054  ret */\n      dup3\n        /* \"wwcc-contracts/contracts/wwccPool.sol\":12037:12055  return string(ret) */\n      swap6\n      pop\n      pop\n      pop\n      pop\n      pop\n      pop\n        /* \"wwcc-contracts/contracts/wwccPool.sol\":11577:12066  function strConcat(string memory _a,string memory _b) internal pure returns (string memory){... */\n      swap3\n      swap2\n      pop\n      pop\n      jump\t// out\n        /* \"wwcc-contracts/contracts/wwccPool.sol\":12230:12359  function uint256ToString(uint256 u) internal pure returns(string memory){... */\n    tag_250:\n        /* \"wwcc-contracts/contracts/wwccPool.sol\":12288:12301  string memory */\n      0x60\n        /* \"wwcc-contracts/contracts/wwccPool.sol\":12323:12352  toString(abi.encodePacked(u)) */\n      tag_449\n        /* \"wwcc-contracts/contracts/wwccPool.sol\":12349:12350  u */\n      dup3\n        /* \"wwcc-contracts/contracts/wwccPool.sol\":12332:12351  abi.encodePacked(u) */\n      add(0x20, mload(0x40))\n      tag_450\n      swap2\n      swap1\n      tag_451\n      jump\t// in\n    tag_450:\n      mload(0x40)\n      0x20\n      dup2\n      dup4\n      sub\n      sub\n      dup2\n      mstore\n      swap1\n      0x40\n      mstore\n        /* \"wwcc-contracts/contracts/wwccPool.sol\":12323:12331  toString */\n      tag_452\n        /* \"wwcc-contracts/contracts/wwccPool.sol\":12323:12352  toString(abi.encodePacked(u)) */\n      jump\t// in\n    tag_449:\n        /* \"wwcc-contracts/contracts/wwccPool.sol\":12316:12352  return toString(abi.encodePacked(u)) */\n      swap1\n      pop\n        /* \"wwcc-contracts/contracts/wwccPool.sol\":12230:12359  function uint256ToString(uint256 u) internal pure returns(string memory){... */\n      swap2\n      swap1\n      pop\n      jump\t// out\n        /* \"wwcc-contracts/contracts/wwccPool.sol\":12364:12493  function bytes32ToString(bytes32 b) internal pure returns(string memory){... */\n    tag_254:\n        /* \"wwcc-contracts/contracts/wwccPool.sol\":12422:12435  string memory */\n      0x60\n        /* \"wwcc-contracts/contracts/wwccPool.sol\":12457:12486  toString(abi.encodePacked(b)) */\n      tag_454\n        /* \"wwcc-contracts/contracts/wwccPool.sol\":12483:12484  b */\n      dup3\n        /* \"wwcc-contracts/contracts/wwccPool.sol\":12466:12485  abi.encodePacked(b) */\n      add(0x20, mload(0x40))\n      tag_455\n      swap2\n      swap1\n      tag_456\n      jump\t// in\n    tag_455:\n      mload(0x40)\n      0x20\n      dup2\n      dup4\n      sub\n      sub\n      dup2\n      mstore\n      swap1\n      0x40\n      mstore\n        /* \"wwcc-contracts/contracts/wwccPool.sol\":12457:12465  toString */\n      tag_452\n        /* \"wwcc-contracts/contracts/wwccPool.sol\":12457:12486  toString(abi.encodePacked(b)) */\n      jump\t// in\n    tag_454:\n        /* \"wwcc-contracts/contracts/wwccPool.sol\":12450:12486  return toString(abi.encodePacked(b)) */\n      swap1\n      pop\n        /* \"wwcc-contracts/contracts/wwccPool.sol\":12364:12493  function bytes32ToString(bytes32 b) internal pure returns(string memory){... */\n      swap2\n      swap1\n      pop\n      jump\t// out\n        /* \"wwcc-contracts/contracts/safemath.sol\":62:266  function mul(uint256 a, uint256 b) internal pure returns (uint256) {... */\n    tag_328:\n        /* \"wwcc-contracts/contracts/safemath.sol\":120:127  uint256 */\n      0x00\n        /* \"wwcc-contracts/contracts/safemath.sol\":148:149  0 */\n      dup1\n        /* \"wwcc-contracts/contracts/safemath.sol\":143:144  a */\n      dup4\n        /* \"wwcc-contracts/contracts/safemath.sol\":143:149  a == 0 */\n      eq\n        /* \"wwcc-contracts/contracts/safemath.sol\":139:184  if (a == 0) {... */\n      iszero\n      tag_458\n      jumpi\n        /* \"wwcc-contracts/contracts/safemath.sol\":172:173  0 */\n      0x00\n        /* \"wwcc-contracts/contracts/safemath.sol\":165:173  return 0 */\n      swap1\n      pop\n      jump(tag_457)\n        /* \"wwcc-contracts/contracts/safemath.sol\":139:184  if (a == 0) {... */\n    tag_458:\n        /* \"wwcc-contracts/contracts/safemath.sol\":195:204  uint256 c */\n      0x00\n        /* \"wwcc-contracts/contracts/safemath.sol\":211:212  b */\n      dup3\n        /* \"wwcc-contracts/contracts/safemath.sol\":207:208  a */\n      dup5\n        /* \"wwcc-contracts/contracts/safemath.sol\":207:212  a * b */\n      tag_459\n      swap2\n      swap1\n      tag_341\n      jump\t// in\n    tag_459:\n        /* \"wwcc-contracts/contracts/safemath.sol\":195:212  uint256 c = a * b */\n      swap1\n      pop\n        /* \"wwcc-contracts/contracts/safemath.sol\":239:240  b */\n      dup3\n        /* \"wwcc-contracts/contracts/safemath.sol\":234:235  a */\n      dup5\n        /* \"wwcc-contracts/contracts/safemath.sol\":230:231  c */\n      dup3\n        /* \"wwcc-contracts/contracts/safemath.sol\":230:235  c / a */\n      tag_460\n      swap2\n      swap1\n      tag_96\n      jump\t// in\n    tag_460:\n        /* \"wwcc-contracts/contracts/safemath.sol\":230:240  c / a == b */\n      eq\n        /* \"wwcc-contracts/contracts/safemath.sol\":222:241  require(c / a == b) */\n      tag_461\n      jumpi\n      0x00\n      dup1\n      revert\n    tag_461:\n        /* \"wwcc-contracts/contracts/safemath.sol\":258:259  c */\n      dup1\n        /* \"wwcc-contracts/contracts/safemath.sol\":251:259  return c */\n      swap2\n      pop\n      pop\n        /* \"wwcc-contracts/contracts/safemath.sol\":62:266  function mul(uint256 a, uint256 b) internal pure returns (uint256) {... */\n    tag_457:\n      swap3\n      swap2\n      pop\n      pop\n      jump\t// out\n        /* \"wwcc-contracts/contracts/wwccPool.sol\":12498:12985  function toString(bytes memory data) internal pure returns(string memory){... */\n    tag_452:\n        /* \"wwcc-contracts/contracts/wwccPool.sol\":12557:12570  string memory */\n      0x60\n        /* \"wwcc-contracts/contracts/wwccPool.sol\":12585:12606  bytes memory alphabet */\n      0x00\n        /* \"wwcc-contracts/contracts/wwccPool.sol\":12585:12627  bytes memory alphabet = \"0123456789abcdef\" */\n      mload(0x40)\n      dup1\n      0x40\n      add\n      0x40\n      mstore\n      dup1\n      0x10\n      dup2\n      mstore\n      0x20\n      add\n      0x3031323334353637383961626364656600000000000000000000000000000000\n      dup2\n      mstore\n      pop\n      swap1\n      pop\n        /* \"wwcc-contracts/contracts/wwccPool.sol\":12641:12657  bytes memory str */\n      0x00\n        /* \"wwcc-contracts/contracts/wwccPool.sol\":12688:12689  2 */\n      0x02\n        /* \"wwcc-contracts/contracts/wwccPool.sol\":12674:12678  data */\n      dup5\n        /* \"wwcc-contracts/contracts/wwccPool.sol\":12674:12685  data.length */\n      mload\n        /* \"wwcc-contracts/contracts/wwccPool.sol\":12674:12689  data.length * 2 */\n      tag_463\n      swap2\n      swap1\n      tag_341\n      jump\t// in\n    tag_463:\n        /* \"wwcc-contracts/contracts/wwccPool.sol\":12670:12671  2 */\n      0x02\n        /* \"wwcc-contracts/contracts/wwccPool.sol\":12670:12689  2 + data.length * 2 */\n      tag_464\n      swap2\n      swap1\n      tag_22\n      jump\t// in\n    tag_464:\n        /* \"wwcc-contracts/contracts/wwccPool.sol\":12660:12690  new bytes(2 + data.length * 2) */\n      0xffffffffffffffff\n      dup2\n      gt\n      iszero\n      tag_465\n      jumpi\n      tag_466\n      tag_428\n      jump\t// in\n    tag_466:\n    tag_465:\n      mload(0x40)\n      swap1\n      dup1\n      dup3\n      mstore\n      dup1\n      0x1f\n      add\n      not(0x1f)\n      and\n      0x20\n      add\n      dup3\n      add\n      0x40\n      mstore\n      dup1\n      iszero\n      tag_467\n      jumpi\n      dup2\n      0x20\n      add\n      0x01\n      dup3\n      mul\n      dup1\n      calldatasize\n      dup4\n      calldatacopy\n      dup1\n      dup3\n      add\n      swap2\n      pop\n      pop\n      swap1\n      pop\n    tag_467:\n      pop\n        /* \"wwcc-contracts/contracts/wwccPool.sol\":12641:12690  bytes memory str = new bytes(2 + data.length * 2) */\n      swap1\n      pop\n        /* \"wwcc-contracts/contracts/wwccPool.sol\":12704:12716  str[0] = \"0\" */\n      0x3000000000000000000000000000000000000000000000000000000000000000\n        /* \"wwcc-contracts/contracts/wwccPool.sol\":12704:12707  str */\n      dup2\n        /* \"wwcc-contracts/contracts/wwccPool.sol\":12708:12709  0 */\n      0x00\n        /* \"wwcc-contracts/contracts/wwccPool.sol\":12704:12710  str[0] */\n      dup2\n      mload\n      dup2\n      lt\n      tag_468\n      jumpi\n      tag_469\n      tag_319\n      jump\t// in\n    tag_469:\n    tag_468:\n      0x20\n      add\n      add\n        /* \"wwcc-contracts/contracts/wwccPool.sol\":12704:12716  str[0] = \"0\" */\n      swap1\n      not(0xffffffffffffffffffffffffffffffffffffffffffffffffffffffffffffff)\n      and\n      swap1\n      dup2\n      0x00\n      byte\n      swap1\n      mstore8\n      pop\n        /* \"wwcc-contracts/contracts/wwccPool.sol\":12730:12742  str[1] = \"x\" */\n      0x7800000000000000000000000000000000000000000000000000000000000000\n        /* \"wwcc-contracts/contracts/wwccPool.sol\":12730:12733  str */\n      dup2\n        /* \"wwcc-contracts/contracts/wwccPool.sol\":12734:12735  1 */\n      0x01\n        /* \"wwcc-contracts/contracts/wwccPool.sol\":12730:12736  str[1] */\n      dup2\n      mload\n      dup2\n      lt\n      tag_470\n      jumpi\n      tag_471\n      tag_319\n      jump\t// in\n    tag_471:\n    tag_470:\n      0x20\n      add\n      add\n        /* \"wwcc-contracts/contracts/wwccPool.sol\":12730:12742  str[1] = \"x\" */\n      swap1\n      not(0xffffffffffffffffffffffffffffffffffffffffffffffffffffffffffffff)\n      and\n      swap1\n      dup2\n      0x00\n      byte\n      swap1\n      mstore8\n      pop\n        /* \"wwcc-contracts/contracts/wwccPool.sol\":12760:12766  uint i */\n      0x00\n        /* \"wwcc-contracts/contracts/wwccPool.sol\":12756:12947  for(uint i =0;i < data.length;i++){... */\n    tag_472:\n        /* \"wwcc-contracts/contracts/wwccPool.sol\":12774:12778  data */\n      dup5\n        /* \"wwcc-contracts/contracts/wwccPool.sol\":12774:12785  data.length */\n      mload\n        /* \"wwcc-contracts/contracts/wwccPool.sol\":12770:12771  i */\n      dup2\n        /* \"wwcc-contracts/contracts/wwccPool.sol\":12770:12785  i < data.length */\n      lt\n        /* \"wwcc-contracts/contracts/wwccPool.sol\":12756:12947  for(uint i =0;i < data.length;i++){... */\n      iszero\n      tag_473\n      jumpi\n        /* \"wwcc-contracts/contracts/wwccPool.sol\":12825:12833  alphabet */\n      dup3\n        /* \"wwcc-contracts/contracts/wwccPool.sol\":12856:12857  4 */\n      0x04\n        /* \"wwcc-contracts/contracts/wwccPool.sol\":12845:12849  data */\n      dup7\n        /* \"wwcc-contracts/contracts/wwccPool.sol\":12850:12851  i */\n      dup4\n        /* \"wwcc-contracts/contracts/wwccPool.sol\":12845:12852  data[i] */\n      dup2\n      mload\n      dup2\n      lt\n      tag_475\n      jumpi\n      tag_476\n      tag_319\n      jump\t// in\n    tag_476:\n    tag_475:\n      0x20\n      add\n      add\n      mload\n      0xf8\n      shr\n      0xf8\n      shl\n        /* \"wwcc-contracts/contracts/wwccPool.sol\":12845:12857  data[i] >> 4 */\n      not(0xffffffffffffffffffffffffffffffffffffffffffffffffffffffffffffff)\n      and\n      swap1\n      shr\n        /* \"wwcc-contracts/contracts/wwccPool.sol\":12839:12858  uint8(data[i] >> 4) */\n      0xf8\n      shr\n        /* \"wwcc-contracts/contracts/wwccPool.sol\":12834:12859  uint(uint8(data[i] >> 4)) */\n      0xff\n      and\n        /* \"wwcc-contracts/contracts/wwccPool.sol\":12825:12860  alphabet[uint(uint8(data[i] >> 4))] */\n      dup2\n      mload\n      dup2\n      lt\n      tag_477\n      jumpi\n      tag_478\n      tag_319\n      jump\t// in\n    tag_478:\n    tag_477:\n      0x20\n      add\n      add\n      mload\n      0xf8\n      shr\n      0xf8\n      shl\n        /* \"wwcc-contracts/contracts/wwccPool.sol\":12808:12811  str */\n      dup3\n        /* \"wwcc-contracts/contracts/wwccPool.sol\":12820:12821  2 */\n      0x02\n        /* \"wwcc-contracts/contracts/wwccPool.sol\":12816:12817  i */\n      dup4\n        /* \"wwcc-contracts/contracts/wwccPool.sol\":12816:12821  i * 2 */\n      tag_479\n      swap2\n      swap1\n      tag_341\n      jump\t// in\n    tag_479:\n        /* \"wwcc-contracts/contracts/wwccPool.sol\":12812:12813  2 */\n      0x02\n        /* \"wwcc-contracts/contracts/wwccPool.sol\":12812:12821  2 + i * 2 */\n      tag_480\n      swap2\n      swap1\n      tag_22\n      jump\t// in\n    tag_480:\n        /* \"wwcc-contracts/contracts/wwccPool.sol\":12808:12822  str[2 + i * 2] */\n      dup2\n      mload\n      dup2\n      lt\n      tag_481\n      jumpi\n      tag_482\n      tag_319\n      jump\t// in\n    tag_482:\n    tag_481:\n      0x20\n      add\n      add\n        /* \"wwcc-contracts/contracts/wwccPool.sol\":12808:12860  str[2 + i * 2] = alphabet[uint(uint8(data[i] >> 4))] */\n      swap1\n      not(0xffffffffffffffffffffffffffffffffffffffffffffffffffffffffffffff)\n      and\n      swap1\n      dup2\n      0x00\n      byte\n      swap1\n      mstore8\n      pop\n        /* \"wwcc-contracts/contracts/wwccPool.sol\":12895:12903  alphabet */\n      dup3\n        /* \"wwcc-contracts/contracts/wwccPool.sol\":12925:12929  0x0f */\n      0x0f\n        /* \"wwcc-contracts/contracts/wwccPool.sol\":12915:12929  data[i] & 0x0f */\n      0xf8\n      shl\n        /* \"wwcc-contracts/contracts/wwccPool.sol\":12915:12919  data */\n      dup7\n        /* \"wwcc-contracts/contracts/wwccPool.sol\":12920:12921  i */\n      dup4\n        /* \"wwcc-contracts/contracts/wwccPool.sol\":12915:12922  data[i] */\n      dup2\n      mload\n      dup2\n      lt\n      tag_483\n      jumpi\n      tag_484\n      tag_319\n      jump\t// in\n    tag_484:\n    tag_483:\n      0x20\n      add\n      add\n      mload\n      0xf8\n      shr\n      0xf8\n      shl\n        /* \"wwcc-contracts/contracts/wwccPool.sol\":12915:12929  data[i] & 0x0f */\n      and\n        /* \"wwcc-contracts/contracts/wwccPool.sol\":12909:12930  uint8(data[i] & 0x0f) */\n      0xf8\n      shr\n        /* \"wwcc-contracts/contracts/wwccPool.sol\":12904:12931  uint(uint8(data[i] & 0x0f)) */\n      0xff\n      and\n        /* \"wwcc-contracts/contracts/wwccPool.sol\":12895:12932  alphabet[uint(uint8(data[i] & 0x0f))] */\n      dup2\n      mload\n      dup2\n      lt\n      tag_485\n      jumpi\n      tag_486\n      tag_319\n      jump\t// in\n    tag_486:\n    tag_485:\n      0x20\n      add\n      add\n      mload\n      0xf8\n      shr\n      0xf8\n      shl\n        /* \"wwcc-contracts/contracts/wwccPool.sol\":12878:12881  str */\n      dup3\n        /* \"wwcc-contracts/contracts/wwccPool.sol\":12890:12891  2 */\n      0x02\n        /* \"wwcc-contracts/contracts/wwccPool.sol\":12886:12887  i */\n      dup4\n        /* \"wwcc-contracts/contracts/wwccPool.sol\":12886:12891  i * 2 */\n      tag_487\n      swap2\n      swap1\n      tag_341\n      jump\t// in\n    tag_487:\n        /* \"wwcc-contracts/contracts/wwccPool.sol\":12882:12883  3 */\n      0x03\n        /* \"wwcc-contracts/contracts/wwccPool.sol\":12882:12891  3 + i * 2 */\n      tag_488\n      swap2\n      swap1\n      tag_22\n      jump\t// in\n    tag_488:\n        /* \"wwcc-contracts/contracts/wwccPool.sol\":12878:12892  str[3 + i * 2] */\n      dup2\n      mload\n      dup2\n      lt\n      tag_489\n      jumpi\n      tag_490\n      tag_319\n      jump\t// in\n    tag_490:\n    tag_489:\n      0x20\n      add\n      add\n        /* \"wwcc-contracts/contracts/wwccPool.sol\":12878:12932  str[3 + i * 2] = alphabet[uint(uint8(data[i] & 0x0f))] */\n      swap1\n      not(0xffffffffffffffffffffffffffffffffffffffffffffffffffffffffffffff)\n      and\n      swap1\n      dup2\n      0x00\n      byte\n      swap1\n      mstore8\n      pop\n        /* \"wwcc-contracts/contracts/wwccPool.sol\":12786:12789  i++ */\n      dup1\n      dup1\n      tag_491\n      swap1\n      tag_383\n      jump\t// in\n    tag_491:\n      swap2\n      pop\n      pop\n        /* \"wwcc-contracts/contracts/wwccPool.sol\":12756:12947  for(uint i =0;i < data.length;i++){... */\n      jump(tag_472)\n    tag_473:\n      pop\n        /* \"wwcc-contracts/contracts/wwccPool.sol\":12974:12977  str */\n      dup1\n        /* \"wwcc-contracts/contracts/wwccPool.sol\":12960:12978  return string(str) */\n      swap3\n      pop\n      pop\n      pop\n        /* \"wwcc-contracts/contracts/wwccPool.sol\":12498:12985  function toString(bytes memory data) internal pure returns(string memory){... */\n      swap2\n      swap1\n      pop\n      jump\t// out\n    tag_189:\n      dup3\n      dup1\n      sload\n      tag_492\n      swap1\n      tag_109\n      jump\t// in\n    tag_492:\n      swap1\n      0x00\n      mstore\n      keccak256(0x00, 0x20)\n      swap1\n      0x1f\n      add\n      0x20\n      swap1\n      div\n      dup2\n      add\n      swap3\n      dup3\n      tag_494\n      jumpi\n      0x00\n      dup6\n      sstore\n      jump(tag_493)\n    tag_494:\n      dup3\n      0x1f\n      lt\n      tag_495\n      jumpi\n      dup1\n      mload\n      not(0xff)\n      and\n      dup4\n      dup1\n      add\n      or\n      dup6\n      sstore\n      jump(tag_493)\n    tag_495:\n      dup3\n      dup1\n      add\n      0x01\n      add\n      dup6\n      sstore\n      dup3\n      iszero\n      tag_493\n      jumpi\n      swap2\n      dup3\n      add\n    tag_496:\n      dup3\n      dup2\n      gt\n      iszero\n      tag_497\n      jumpi\n      dup3\n      mload\n      dup3\n      sstore\n      swap2\n      0x20\n      add\n      swap2\n      swap1\n      0x01\n      add\n      swap1\n      jump(tag_496)\n    tag_497:\n    tag_493:\n      pop\n      swap1\n      pop\n      tag_498\n      swap2\n      swap1\n      tag_499\n      jump\t// in\n    tag_498:\n      pop\n      swap1\n      jump\t// out\n    tag_399:\n      mload(0x40)\n      dup1\n      0xa0\n      add\n      0x40\n      mstore\n      dup1\n      0x00\n      dup2\n      mstore\n      0x20\n      add\n      0x00\n      dup2\n      mstore\n      0x20\n      add\n      0x00\n      dup2\n      mstore\n      0x20\n      add\n      0x00\n      dup2\n      mstore\n      0x20\n      add\n      0x00\n      dup2\n      mstore\n      pop\n      swap1\n      jump\t// out\n    tag_499:\n    tag_500:\n      dup1\n      dup3\n      gt\n      iszero\n      tag_501\n      jumpi\n      0x00\n      dup2\n      0x00\n      swap1\n      sstore\n      pop\n      0x01\n      add\n      jump(tag_500)\n    tag_501:\n      pop\n      swap1\n      jump\t// out\n        /* \"#utility.yul\":7:419   */\n    tag_503:\n        /* \"#utility.yul\":85:90   */\n      0x00\n        /* \"#utility.yul\":110:176   */\n      tag_505\n        /* \"#utility.yul\":126:175   */\n      tag_506\n        /* \"#utility.yul\":168:174   */\n      dup5\n        /* \"#utility.yul\":126:175   */\n      tag_507\n      jump\t// in\n    tag_506:\n        /* \"#utility.yul\":110:176   */\n      tag_508\n      jump\t// in\n    tag_505:\n        /* \"#utility.yul\":101:176   */\n      swap1\n      pop\n        /* \"#utility.yul\":199:205   */\n      dup3\n        /* \"#utility.yul\":192:197   */\n      dup2\n        /* \"#utility.yul\":185:206   */\n      mstore\n        /* \"#utility.yul\":237:241   */\n      0x20\n        /* \"#utility.yul\":230:235   */\n      dup2\n        /* \"#utility.yul\":226:242   */\n      add\n        /* \"#utility.yul\":275:278   */\n      dup5\n        /* \"#utility.yul\":266:272   */\n      dup5\n        /* \"#utility.yul\":261:264   */\n      dup5\n        /* \"#utility.yul\":257:273   */\n      add\n        /* \"#utility.yul\":254:279   */\n      gt\n        /* \"#utility.yul\":251:363   */\n      iszero\n      tag_509\n      jumpi\n        /* \"#utility.yul\":282:361   */\n      tag_510\n      tag_511\n      jump\t// in\n    tag_510:\n        /* \"#utility.yul\":251:363   */\n    tag_509:\n        /* \"#utility.yul\":372:413   */\n      tag_512\n        /* \"#utility.yul\":406:412   */\n      dup5\n        /* \"#utility.yul\":401:404   */\n      dup3\n        /* \"#utility.yul\":396:399   */\n      dup6\n        /* \"#utility.yul\":372:413   */\n      tag_513\n      jump\t// in\n    tag_512:\n        /* \"#utility.yul\":91:419   */\n      pop\n        /* \"#utility.yul\":7:419   */\n      swap4\n      swap3\n      pop\n      pop\n      pop\n      jump\t// out\n        /* \"#utility.yul\":425:564   */\n    tag_514:\n        /* \"#utility.yul\":471:476   */\n      0x00\n        /* \"#utility.yul\":509:515   */\n      dup2\n        /* \"#utility.yul\":496:516   */\n      calldataload\n        /* \"#utility.yul\":487:516   */\n      swap1\n      pop\n        /* \"#utility.yul\":525:558   */\n      tag_516\n        /* \"#utility.yul\":552:557   */\n      dup2\n        /* \"#utility.yul\":525:558   */\n      tag_517\n      jump\t// in\n    tag_516:\n        /* \"#utility.yul\":425:564   */\n      swap3\n      swap2\n      pop\n      pop\n      jump\t// out\n        /* \"#utility.yul\":570:703   */\n    tag_518:\n        /* \"#utility.yul\":613:618   */\n      0x00\n        /* \"#utility.yul\":651:657   */\n      dup2\n        /* \"#utility.yul\":638:658   */\n      calldataload\n        /* \"#utility.yul\":629:658   */\n      swap1\n      pop\n        /* \"#utility.yul\":667:697   */\n      tag_520\n        /* \"#utility.yul\":691:696   */\n      dup2\n        /* \"#utility.yul\":667:697   */\n      tag_521\n      jump\t// in\n    tag_520:\n        /* \"#utility.yul\":570:703   */\n      swap3\n      swap2\n      pop\n      pop\n      jump\t// out\n        /* \"#utility.yul\":709:848   */\n    tag_522:\n        /* \"#utility.yul\":755:760   */\n      0x00\n        /* \"#utility.yul\":793:799   */\n      dup2\n        /* \"#utility.yul\":780:800   */\n      calldataload\n        /* \"#utility.yul\":771:800   */\n      swap1\n      pop\n        /* \"#utility.yul\":809:842   */\n      tag_524\n        /* \"#utility.yul\":836:841   */\n      dup2\n        /* \"#utility.yul\":809:842   */\n      tag_525\n      jump\t// in\n    tag_524:\n        /* \"#utility.yul\":709:848   */\n      swap3\n      swap2\n      pop\n      pop\n      jump\t// out\n        /* \"#utility.yul\":868:1208   */\n    tag_526:\n        /* \"#utility.yul\":924:929   */\n      0x00\n        /* \"#utility.yul\":973:976   */\n      dup3\n        /* \"#utility.yul\":966:970   */\n      0x1f\n        /* \"#utility.yul\":958:964   */\n      dup4\n        /* \"#utility.yul\":954:971   */\n      add\n        /* \"#utility.yul\":950:977   */\n      slt\n        /* \"#utility.yul\":940:1062   */\n      tag_528\n      jumpi\n        /* \"#utility.yul\":981:1060   */\n      tag_529\n      tag_530\n      jump\t// in\n    tag_529:\n        /* \"#utility.yul\":940:1062   */\n    tag_528:\n        /* \"#utility.yul\":1098:1104   */\n      dup2\n        /* \"#utility.yul\":1085:1105   */\n      calldataload\n        /* \"#utility.yul\":1123:1202   */\n      tag_531\n        /* \"#utility.yul\":1198:1201   */\n      dup5\n        /* \"#utility.yul\":1190:1196   */\n      dup3\n        /* \"#utility.yul\":1183:1187   */\n      0x20\n        /* \"#utility.yul\":1175:1181   */\n      dup7\n        /* \"#utility.yul\":1171:1188   */\n      add\n        /* \"#utility.yul\":1123:1202   */\n      tag_503\n      jump\t// in\n    tag_531:\n        /* \"#utility.yul\":1114:1202   */\n      swap2\n      pop\n        /* \"#utility.yul\":930:1208   */\n      pop\n        /* \"#utility.yul\":868:1208   */\n      swap3\n      swap2\n      pop\n      pop\n      jump\t// out\n        /* \"#utility.yul\":1214:1353   */\n    tag_532:\n        /* \"#utility.yul\":1260:1265   */\n      0x00\n        /* \"#utility.yul\":1298:1304   */\n      dup2\n        /* \"#utility.yul\":1285:1305   */\n      calldataload\n        /* \"#utility.yul\":1276:1305   */\n      swap1\n      pop\n        /* \"#utility.yul\":1314:1347   */\n      tag_534\n        /* \"#utility.yul\":1341:1346   */\n      dup2\n        /* \"#utility.yul\":1314:1347   */\n      tag_535\n      jump\t// in\n    tag_534:\n        /* \"#utility.yul\":1214:1353   */\n      swap3\n      swap2\n      pop\n      pop\n      jump\t// out\n        /* \"#utility.yul\":1359:1688   */\n    tag_35:\n        /* \"#utility.yul\":1418:1424   */\n      0x00\n        /* \"#utility.yul\":1467:1469   */\n      0x20\n        /* \"#utility.yul\":1455:1464   */\n      dup3\n        /* \"#utility.yul\":1446:1453   */\n      dup5\n        /* \"#utility.yul\":1442:1465   */\n      sub\n        /* \"#utility.yul\":1438:1470   */\n      slt\n        /* \"#utility.yul\":1435:1554   */\n      iszero\n      tag_537\n      jumpi\n        /* \"#utility.yul\":1473:1552   */\n      tag_538\n      tag_539\n      jump\t// in\n    tag_538:\n        /* \"#utility.yul\":1435:1554   */\n    tag_537:\n        /* \"#utility.yul\":1593:1594   */\n      0x00\n        /* \"#utility.yul\":1618:1671   */\n      tag_540\n        /* \"#utility.yul\":1663:1670   */\n      dup5\n        /* \"#utility.yul\":1654:1660   */\n      dup3\n        /* \"#utility.yul\":1643:1652   */\n      dup6\n        /* \"#utility.yul\":1639:1661   */\n      add\n        /* \"#utility.yul\":1618:1671   */\n      tag_514\n      jump\t// in\n    tag_540:\n        /* \"#utility.yul\":1608:1671   */\n      swap2\n      pop\n        /* \"#utility.yul\":1564:1681   */\n      pop\n        /* \"#utility.yul\":1359:1688   */\n      swap3\n      swap2\n      pop\n      pop\n      jump\t// out\n        /* \"#utility.yul\":1694:2168   */\n    tag_29:\n        /* \"#utility.yul\":1762:1768   */\n      0x00\n        /* \"#utility.yul\":1770:1776   */\n      dup1\n        /* \"#utility.yul\":1819:1821   */\n      0x40\n        /* \"#utility.yul\":1807:1816   */\n      dup4\n        /* \"#utility.yul\":1798:1805   */\n      dup6\n        /* \"#utility.yul\":1794:1817   */\n      sub\n        /* \"#utility.yul\":1790:1822   */\n      slt\n        /* \"#utility.yul\":1787:1906   */\n      iszero\n      tag_542\n      jumpi\n        /* \"#utility.yul\":1825:1904   */\n      tag_543\n      tag_539\n      jump\t// in\n    tag_543:\n        /* \"#utility.yul\":1787:1906   */\n    tag_542:\n        /* \"#utility.yul\":1945:1946   */\n      0x00\n        /* \"#utility.yul\":1970:2023   */\n      tag_544\n        /* \"#utility.yul\":2015:2022   */\n      dup6\n        /* \"#utility.yul\":2006:2012   */\n      dup3\n        /* \"#utility.yul\":1995:2004   */\n      dup7\n        /* \"#utility.yul\":1991:2013   */\n      add\n        /* \"#utility.yul\":1970:2023   */\n      tag_514\n      jump\t// in\n    tag_544:\n        /* \"#utility.yul\":1960:2023   */\n      swap3\n      pop\n        /* \"#utility.yul\":1916:2033   */\n      pop\n        /* \"#utility.yul\":2072:2074   */\n      0x20\n        /* \"#utility.yul\":2098:2151   */\n      tag_545\n        /* \"#utility.yul\":2143:2150   */\n      dup6\n        /* \"#utility.yul\":2134:2140   */\n      dup3\n        /* \"#utility.yul\":2123:2132   */\n      dup7\n        /* \"#utility.yul\":2119:2141   */\n      add\n        /* \"#utility.yul\":2098:2151   */\n      tag_522\n      jump\t// in\n    tag_545:\n        /* \"#utility.yul\":2088:2151   */\n      swap2\n      pop\n        /* \"#utility.yul\":2043:2161   */\n      pop\n        /* \"#utility.yul\":1694:2168   */\n      swap3\n      pop\n      swap3\n      swap1\n      pop\n      jump\t// out\n        /* \"#utility.yul\":2174:2648   */\n    tag_75:\n        /* \"#utility.yul\":2242:2248   */\n      0x00\n        /* \"#utility.yul\":2250:2256   */\n      dup1\n        /* \"#utility.yul\":2299:2301   */\n      0x40\n        /* \"#utility.yul\":2287:2296   */\n      dup4\n        /* \"#utility.yul\":2278:2285   */\n      dup6\n        /* \"#utility.yul\":2274:2297   */\n      sub\n        /* \"#utility.yul\":2270:2302   */\n      slt\n        /* \"#utility.yul\":2267:2386   */\n      iszero\n      tag_547\n      jumpi\n        /* \"#utility.yul\":2305:2384   */\n      tag_548\n      tag_539\n      jump\t// in\n    tag_548:\n        /* \"#utility.yul\":2267:2386   */\n    tag_547:\n        /* \"#utility.yul\":2425:2426   */\n      0x00\n        /* \"#utility.yul\":2450:2503   */\n      tag_549\n        /* \"#utility.yul\":2495:2502   */\n      dup6\n        /* \"#utility.yul\":2486:2492   */\n      dup3\n        /* \"#utility.yul\":2475:2484   */\n      dup7\n        /* \"#utility.yul\":2471:2493   */\n      add\n        /* \"#utility.yul\":2450:2503   */\n      tag_514\n      jump\t// in\n    tag_549:\n        /* \"#utility.yul\":2440:2503   */\n      swap3\n      pop\n        /* \"#utility.yul\":2396:2513   */\n      pop\n        /* \"#utility.yul\":2552:2554   */\n      0x20\n        /* \"#utility.yul\":2578:2631   */\n      tag_550\n        /* \"#utility.yul\":2623:2630   */\n      dup6\n        /* \"#utility.yul\":2614:2620   */\n      dup3\n        /* \"#utility.yul\":2603:2612   */\n      dup7\n        /* \"#utility.yul\":2599:2621   */\n      add\n        /* \"#utility.yul\":2578:2631   */\n      tag_532\n      jump\t// in\n    tag_550:\n        /* \"#utility.yul\":2568:2631   */\n      swap2\n      pop\n        /* \"#utility.yul\":2523:2641   */\n      pop\n        /* \"#utility.yul\":2174:2648   */\n      swap3\n      pop\n      swap3\n      swap1\n      pop\n      jump\t// out\n        /* \"#utility.yul\":2654:3711   */\n    tag_65:\n        /* \"#utility.yul\":2758:2764   */\n      0x00\n        /* \"#utility.yul\":2766:2772   */\n      dup1\n        /* \"#utility.yul\":2774:2780   */\n      0x00\n        /* \"#utility.yul\":2782:2788   */\n      dup1\n        /* \"#utility.yul\":2790:2796   */\n      0x00\n        /* \"#utility.yul\":2798:2804   */\n      dup1\n        /* \"#utility.yul\":2847:2850   */\n      0xc0\n        /* \"#utility.yul\":2835:2844   */\n      dup8\n        /* \"#utility.yul\":2826:2833   */\n      dup10\n        /* \"#utility.yul\":2822:2845   */\n      sub\n        /* \"#utility.yul\":2818:2851   */\n      slt\n        /* \"#utility.yul\":2815:2935   */\n      iszero\n      tag_552\n      jumpi\n        /* \"#utility.yul\":2854:2933   */\n      tag_553\n      tag_539\n      jump\t// in\n    tag_553:\n        /* \"#utility.yul\":2815:2935   */\n    tag_552:\n        /* \"#utility.yul\":2974:2975   */\n      0x00\n        /* \"#utility.yul\":2999:3052   */\n      tag_554\n        /* \"#utility.yul\":3044:3051   */\n      dup10\n        /* \"#utility.yul\":3035:3041   */\n      dup3\n        /* \"#utility.yul\":3024:3033   */\n      dup11\n        /* \"#utility.yul\":3020:3042   */\n      add\n        /* \"#utility.yul\":2999:3052   */\n      tag_514\n      jump\t// in\n    tag_554:\n        /* \"#utility.yul\":2989:3052   */\n      swap7\n      pop\n        /* \"#utility.yul\":2945:3062   */\n      pop\n        /* \"#utility.yul\":3101:3103   */\n      0x20\n        /* \"#utility.yul\":3127:3180   */\n      tag_555\n        /* \"#utility.yul\":3172:3179   */\n      dup10\n        /* \"#utility.yul\":3163:3169   */\n      dup3\n        /* \"#utility.yul\":3152:3161   */\n      dup11\n        /* \"#utility.yul\":3148:3170   */\n      add\n        /* \"#utility.yul\":3127:3180   */\n      tag_532\n      jump\t// in\n    tag_555:\n        /* \"#utility.yul\":3117:3180   */\n      swap6\n      pop\n        /* \"#utility.yul\":3072:3190   */\n      pop\n        /* \"#utility.yul\":3229:3231   */\n      0x40\n        /* \"#utility.yul\":3255:3308   */\n      tag_556\n        /* \"#utility.yul\":3300:3307   */\n      dup10\n        /* \"#utility.yul\":3291:3297   */\n      dup3\n        /* \"#utility.yul\":3280:3289   */\n      dup11\n        /* \"#utility.yul\":3276:3298   */\n      add\n        /* \"#utility.yul\":3255:3308   */\n      tag_522\n      jump\t// in\n    tag_556:\n        /* \"#utility.yul\":3245:3308   */\n      swap5\n      pop\n        /* \"#utility.yul\":3200:3318   */\n      pop\n        /* \"#utility.yul\":3357:3359   */\n      0x60\n        /* \"#utility.yul\":3383:3436   */\n      tag_557\n        /* \"#utility.yul\":3428:3435   */\n      dup10\n        /* \"#utility.yul\":3419:3425   */\n      dup3\n        /* \"#utility.yul\":3408:3417   */\n      dup11\n        /* \"#utility.yul\":3404:3426   */\n      add\n        /* \"#utility.yul\":3383:3436   */\n      tag_532\n      jump\t// in\n    tag_557:\n        /* \"#utility.yul\":3373:3436   */\n      swap4\n      pop\n        /* \"#utility.yul\":3328:3446   */\n      pop\n        /* \"#utility.yul\":3485:3488   */\n      0x80\n        /* \"#utility.yul\":3512:3565   */\n      tag_558\n        /* \"#utility.yul\":3557:3564   */\n      dup10\n        /* \"#utility.yul\":3548:3554   */\n      dup3\n        /* \"#utility.yul\":3537:3546   */\n      dup11\n        /* \"#utility.yul\":3533:3555   */\n      add\n        /* \"#utility.yul\":3512:3565   */\n      tag_532\n      jump\t// in\n    tag_558:\n        /* \"#utility.yul\":3502:3565   */\n      swap3\n      pop\n        /* \"#utility.yul\":3456:3575   */\n      pop\n        /* \"#utility.yul\":3614:3617   */\n      0xa0\n        /* \"#utility.yul\":3641:3694   */\n      tag_559\n        /* \"#utility.yul\":3686:3693   */\n      dup10\n        /* \"#utility.yul\":3677:3683   */\n      dup3\n        /* \"#utility.yul\":3666:3675   */\n      dup11\n        /* \"#utility.yul\":3662:3684   */\n      add\n        /* \"#utility.yul\":3641:3694   */\n      tag_532\n      jump\t// in\n    tag_559:\n        /* \"#utility.yul\":3631:3694   */\n      swap2\n      pop\n        /* \"#utility.yul\":3585:3704   */\n      pop\n        /* \"#utility.yul\":2654:3711   */\n      swap3\n      swap6\n      pop\n      swap3\n      swap6\n      pop\n      swap3\n      swap6\n      jump\t// out\n        /* \"#utility.yul\":3717:4046   */\n    tag_59:\n        /* \"#utility.yul\":3776:3782   */\n      0x00\n        /* \"#utility.yul\":3825:3827   */\n      0x20\n        /* \"#utility.yul\":3813:3822   */\n      dup3\n        /* \"#utility.yul\":3804:3811   */\n      dup5\n        /* \"#utility.yul\":3800:3823   */\n      sub\n        /* \"#utility.yul\":3796:3828   */\n      slt\n        /* \"#utility.yul\":3793:3912   */\n      iszero\n      tag_561\n      jumpi\n        /* \"#utility.yul\":3831:3910   */\n      tag_562\n      tag_539\n      jump\t// in\n    tag_562:\n        /* \"#utility.yul\":3793:3912   */\n    tag_561:\n        /* \"#utility.yul\":3951:3952   */\n      0x00\n        /* \"#utility.yul\":3976:4029   */\n      tag_563\n        /* \"#utility.yul\":4021:4028   */\n      dup5\n        /* \"#utility.yul\":4012:4018   */\n      dup3\n        /* \"#utility.yul\":4001:4010   */\n      dup6\n        /* \"#utility.yul\":3997:4019   */\n      add\n        /* \"#utility.yul\":3976:4029   */\n      tag_522\n      jump\t// in\n    tag_563:\n        /* \"#utility.yul\":3966:4029   */\n      swap2\n      pop\n        /* \"#utility.yul\":3922:4039   */\n      pop\n        /* \"#utility.yul\":3717:4046   */\n      swap3\n      swap2\n      pop\n      pop\n      jump\t// out\n        /* \"#utility.yul\":4052:4526   */\n    tag_41:\n        /* \"#utility.yul\":4120:4126   */\n      0x00\n        /* \"#utility.yul\":4128:4134   */\n      dup1\n        /* \"#utility.yul\":4177:4179   */\n      0x40\n        /* \"#utility.yul\":4165:4174   */\n      dup4\n        /* \"#utility.yul\":4156:4163   */\n      dup6\n        /* \"#utility.yul\":4152:4175   */\n      sub\n        /* \"#utility.yul\":4148:4180   */\n      slt\n        /* \"#utility.yul\":4145:4264   */\n      iszero\n      tag_565\n      jumpi\n        /* \"#utility.yul\":4183:4262   */\n      tag_566\n      tag_539\n      jump\t// in\n    tag_566:\n        /* \"#utility.yul\":4145:4264   */\n    tag_565:\n        /* \"#utility.yul\":4303:4304   */\n      0x00\n        /* \"#utility.yul\":4328:4381   */\n      tag_567\n        /* \"#utility.yul\":4373:4380   */\n      dup6\n        /* \"#utility.yul\":4364:4370   */\n      dup3\n        /* \"#utility.yul\":4353:4362   */\n      dup7\n        /* \"#utility.yul\":4349:4371   */\n      add\n        /* \"#utility.yul\":4328:4381   */\n      tag_522\n      jump\t// in\n    tag_567:\n        /* \"#utility.yul\":4318:4381   */\n      swap3\n      pop\n        /* \"#utility.yul\":4274:4391   */\n      pop\n        /* \"#utility.yul\":4430:4432   */\n      0x20\n        /* \"#utility.yul\":4456:4509   */\n      tag_568\n        /* \"#utility.yul\":4501:4508   */\n      dup6\n        /* \"#utility.yul\":4492:4498   */\n      dup3\n        /* \"#utility.yul\":4481:4490   */\n      dup7\n        /* \"#utility.yul\":4477:4499   */\n      add\n        /* \"#utility.yul\":4456:4509   */\n      tag_532\n      jump\t// in\n    tag_568:\n        /* \"#utility.yul\":4446:4509   */\n      swap2\n      pop\n        /* \"#utility.yul\":4401:4519   */\n      pop\n        /* \"#utility.yul\":4052:4526   */\n      swap3\n      pop\n      swap3\n      swap1\n      pop\n      jump\t// out\n        /* \"#utility.yul\":4532:5297   */\n    tag_70:\n        /* \"#utility.yul\":4618:4624   */\n      0x00\n        /* \"#utility.yul\":4626:4632   */\n      dup1\n        /* \"#utility.yul\":4634:4640   */\n      0x00\n        /* \"#utility.yul\":4642:4648   */\n      dup1\n        /* \"#utility.yul\":4691:4694   */\n      0x80\n        /* \"#utility.yul\":4679:4688   */\n      dup6\n        /* \"#utility.yul\":4670:4677   */\n      dup8\n        /* \"#utility.yul\":4666:4689   */\n      sub\n        /* \"#utility.yul\":4662:4695   */\n      slt\n        /* \"#utility.yul\":4659:4779   */\n      iszero\n      tag_570\n      jumpi\n        /* \"#utility.yul\":4698:4777   */\n      tag_571\n      tag_539\n      jump\t// in\n    tag_571:\n        /* \"#utility.yul\":4659:4779   */\n    tag_570:\n        /* \"#utility.yul\":4818:4819   */\n      0x00\n        /* \"#utility.yul\":4843:4896   */\n      tag_572\n        /* \"#utility.yul\":4888:4895   */\n      dup8\n        /* \"#utility.yul\":4879:4885   */\n      dup3\n        /* \"#utility.yul\":4868:4877   */\n      dup9\n        /* \"#utility.yul\":4864:4886   */\n      add\n        /* \"#utility.yul\":4843:4896   */\n      tag_522\n      jump\t// in\n    tag_572:\n        /* \"#utility.yul\":4833:4896   */\n      swap5\n      pop\n        /* \"#utility.yul\":4789:4906   */\n      pop\n        /* \"#utility.yul\":4945:4947   */\n      0x20\n        /* \"#utility.yul\":4971:5024   */\n      tag_573\n        /* \"#utility.yul\":5016:5023   */\n      dup8\n        /* \"#utility.yul\":5007:5013   */\n      dup3\n        /* \"#utility.yul\":4996:5005   */\n      dup9\n        /* \"#utility.yul\":4992:5014   */\n      add\n        /* \"#utility.yul\":4971:5024   */\n      tag_532\n      jump\t// in\n    tag_573:\n        /* \"#utility.yul\":4961:5024   */\n      swap4\n      pop\n        /* \"#utility.yul\":4916:5034   */\n      pop\n        /* \"#utility.yul\":5073:5075   */\n      0x40\n        /* \"#utility.yul\":5099:5152   */\n      tag_574\n        /* \"#utility.yul\":5144:5151   */\n      dup8\n        /* \"#utility.yul\":5135:5141   */\n      dup3\n        /* \"#utility.yul\":5124:5133   */\n      dup9\n        /* \"#utility.yul\":5120:5142   */\n      add\n        /* \"#utility.yul\":5099:5152   */\n      tag_532\n      jump\t// in\n    tag_574:\n        /* \"#utility.yul\":5089:5152   */\n      swap3\n      pop\n        /* \"#utility.yul\":5044:5162   */\n      pop\n        /* \"#utility.yul\":5201:5203   */\n      0x60\n        /* \"#utility.yul\":5227:5280   */\n      tag_575\n        /* \"#utility.yul\":5272:5279   */\n      dup8\n        /* \"#utility.yul\":5263:5269   */\n      dup3\n        /* \"#utility.yul\":5252:5261   */\n      dup9\n        /* \"#utility.yul\":5248:5270   */\n      add\n        /* \"#utility.yul\":5227:5280   */\n      tag_532\n      jump\t// in\n    tag_575:\n        /* \"#utility.yul\":5217:5280   */\n      swap2\n      pop\n        /* \"#utility.yul\":5172:5290   */\n      pop\n        /* \"#utility.yul\":4532:5297   */\n      swap3\n      swap6\n      swap2\n      swap5\n      pop\n      swap3\n      pop\n      jump\t// out\n        /* \"#utility.yul\":5303:6602   */\n    tag_47:\n        /* \"#utility.yul\":5416:5422   */\n      0x00\n        /* \"#utility.yul\":5424:5430   */\n      dup1\n        /* \"#utility.yul\":5432:5438   */\n      0x00\n        /* \"#utility.yul\":5440:5446   */\n      dup1\n        /* \"#utility.yul\":5489:5492   */\n      0x80\n        /* \"#utility.yul\":5477:5486   */\n      dup6\n        /* \"#utility.yul\":5468:5475   */\n      dup8\n        /* \"#utility.yul\":5464:5487   */\n      sub\n        /* \"#utility.yul\":5460:5493   */\n      slt\n        /* \"#utility.yul\":5457:5577   */\n      iszero\n      tag_577\n      jumpi\n        /* \"#utility.yul\":5496:5575   */\n      tag_578\n      tag_539\n      jump\t// in\n    tag_578:\n        /* \"#utility.yul\":5457:5577   */\n    tag_577:\n        /* \"#utility.yul\":5644:5645   */\n      0x00\n        /* \"#utility.yul\":5633:5642   */\n      dup6\n        /* \"#utility.yul\":5629:5646   */\n      add\n        /* \"#utility.yul\":5616:5647   */\n      calldataload\n        /* \"#utility.yul\":5674:5692   */\n      0xffffffffffffffff\n        /* \"#utility.yul\":5666:5672   */\n      dup2\n        /* \"#utility.yul\":5663:5693   */\n      gt\n        /* \"#utility.yul\":5660:5777   */\n      iszero\n      tag_579\n      jumpi\n        /* \"#utility.yul\":5696:5775   */\n      tag_580\n      tag_581\n      jump\t// in\n    tag_580:\n        /* \"#utility.yul\":5660:5777   */\n    tag_579:\n        /* \"#utility.yul\":5801:5864   */\n      tag_582\n        /* \"#utility.yul\":5856:5863   */\n      dup8\n        /* \"#utility.yul\":5847:5853   */\n      dup3\n        /* \"#utility.yul\":5836:5845   */\n      dup9\n        /* \"#utility.yul\":5832:5854   */\n      add\n        /* \"#utility.yul\":5801:5864   */\n      tag_526\n      jump\t// in\n    tag_582:\n        /* \"#utility.yul\":5791:5864   */\n      swap5\n      pop\n        /* \"#utility.yul\":5587:5874   */\n      pop\n        /* \"#utility.yul\":5941:5943   */\n      0x20\n        /* \"#utility.yul\":5930:5939   */\n      dup6\n        /* \"#utility.yul\":5926:5944   */\n      add\n        /* \"#utility.yul\":5913:5945   */\n      calldataload\n        /* \"#utility.yul\":5972:5990   */\n      0xffffffffffffffff\n        /* \"#utility.yul\":5964:5970   */\n      dup2\n        /* \"#utility.yul\":5961:5991   */\n      gt\n        /* \"#utility.yul\":5958:6075   */\n      iszero\n      tag_583\n      jumpi\n        /* \"#utility.yul\":5994:6073   */\n      tag_584\n      tag_581\n      jump\t// in\n    tag_584:\n        /* \"#utility.yul\":5958:6075   */\n    tag_583:\n        /* \"#utility.yul\":6099:6162   */\n      tag_585\n        /* \"#utility.yul\":6154:6161   */\n      dup8\n        /* \"#utility.yul\":6145:6151   */\n      dup3\n        /* \"#utility.yul\":6134:6143   */\n      dup9\n        /* \"#utility.yul\":6130:6152   */\n      add\n        /* \"#utility.yul\":6099:6162   */\n      tag_526\n      jump\t// in\n    tag_585:\n        /* \"#utility.yul\":6089:6162   */\n      swap4\n      pop\n        /* \"#utility.yul\":5884:6172   */\n      pop\n        /* \"#utility.yul\":6239:6241   */\n      0x40\n        /* \"#utility.yul\":6228:6237   */\n      dup6\n        /* \"#utility.yul\":6224:6242   */\n      add\n        /* \"#utility.yul\":6211:6243   */\n      calldataload\n        /* \"#utility.yul\":6270:6288   */\n      0xffffffffffffffff\n        /* \"#utility.yul\":6262:6268   */\n      dup2\n        /* \"#utility.yul\":6259:6289   */\n      gt\n        /* \"#utility.yul\":6256:6373   */\n      iszero\n      tag_586\n      jumpi\n        /* \"#utility.yul\":6292:6371   */\n      tag_587\n      tag_581\n      jump\t// in\n    tag_587:\n        /* \"#utility.yul\":6256:6373   */\n    tag_586:\n        /* \"#utility.yul\":6397:6460   */\n      tag_588\n        /* \"#utility.yul\":6452:6459   */\n      dup8\n        /* \"#utility.yul\":6443:6449   */\n      dup3\n        /* \"#utility.yul\":6432:6441   */\n      dup9\n        /* \"#utility.yul\":6428:6450   */\n      add\n        /* \"#utility.yul\":6397:6460   */\n      tag_526\n      jump\t// in\n    tag_588:\n        /* \"#utility.yul\":6387:6460   */\n      swap3\n      pop\n        /* \"#utility.yul\":6182:6470   */\n      pop\n        /* \"#utility.yul\":6509:6511   */\n      0x60\n        /* \"#utility.yul\":6535:6585   */\n      tag_589\n        /* \"#utility.yul\":6577:6584   */\n      dup8\n        /* \"#utility.yul\":6568:6574   */\n      dup3\n        /* \"#utility.yul\":6557:6566   */\n      dup9\n        /* \"#utility.yul\":6553:6575   */\n      add\n        /* \"#utility.yul\":6535:6585   */\n      tag_518\n      jump\t// in\n    tag_589:\n        /* \"#utility.yul\":6525:6585   */\n      swap2\n      pop\n        /* \"#utility.yul\":6480:6595   */\n      pop\n        /* \"#utility.yul\":5303:6602   */\n      swap3\n      swap6\n      swap2\n      swap5\n      pop\n      swap3\n      pop\n      jump\t// out\n        /* \"#utility.yul\":6608:6787   */\n    tag_590:\n        /* \"#utility.yul\":6677:6687   */\n      0x00\n        /* \"#utility.yul\":6698:6744   */\n      tag_592\n        /* \"#utility.yul\":6740:6743   */\n      dup4\n        /* \"#utility.yul\":6732:6738   */\n      dup4\n        /* \"#utility.yul\":6698:6744   */\n      tag_593\n      jump\t// in\n    tag_592:\n        /* \"#utility.yul\":6776:6780   */\n      0x20\n        /* \"#utility.yul\":6771:6774   */\n      dup4\n        /* \"#utility.yul\":6767:6781   */\n      add\n        /* \"#utility.yul\":6753:6781   */\n      swap1\n      pop\n        /* \"#utility.yul\":6608:6787   */\n      swap3\n      swap2\n      pop\n      pop\n      jump\t// out\n        /* \"#utility.yul\":6793:6911   */\n    tag_594:\n        /* \"#utility.yul\":6880:6904   */\n      tag_596\n        /* \"#utility.yul\":6898:6903   */\n      dup2\n        /* \"#utility.yul\":6880:6904   */\n      tag_597\n      jump\t// in\n    tag_596:\n        /* \"#utility.yul\":6875:6878   */\n      dup3\n        /* \"#utility.yul\":6868:6905   */\n      mstore\n        /* \"#utility.yul\":6793:6911   */\n      pop\n      pop\n      jump\t// out\n        /* \"#utility.yul\":6947:7679   */\n    tag_598:\n        /* \"#utility.yul\":7066:7069   */\n      0x00\n        /* \"#utility.yul\":7095:7149   */\n      tag_600\n        /* \"#utility.yul\":7143:7148   */\n      dup3\n        /* \"#utility.yul\":7095:7149   */\n      tag_601\n      jump\t// in\n    tag_600:\n        /* \"#utility.yul\":7165:7251   */\n      tag_602\n        /* \"#utility.yul\":7244:7250   */\n      dup2\n        /* \"#utility.yul\":7239:7242   */\n      dup6\n        /* \"#utility.yul\":7165:7251   */\n      tag_603\n      jump\t// in\n    tag_602:\n        /* \"#utility.yul\":7158:7251   */\n      swap4\n      pop\n        /* \"#utility.yul\":7275:7331   */\n      tag_604\n        /* \"#utility.yul\":7325:7330   */\n      dup4\n        /* \"#utility.yul\":7275:7331   */\n      tag_605\n      jump\t// in\n    tag_604:\n        /* \"#utility.yul\":7354:7361   */\n      dup1\n        /* \"#utility.yul\":7385:7386   */\n      0x00\n        /* \"#utility.yul\":7370:7654   */\n    tag_606:\n        /* \"#utility.yul\":7395:7401   */\n      dup4\n        /* \"#utility.yul\":7392:7393   */\n      dup2\n        /* \"#utility.yul\":7389:7402   */\n      lt\n        /* \"#utility.yul\":7370:7654   */\n      iszero\n      tag_608\n      jumpi\n        /* \"#utility.yul\":7471:7477   */\n      dup2\n        /* \"#utility.yul\":7465:7478   */\n      mload\n        /* \"#utility.yul\":7498:7561   */\n      tag_609\n        /* \"#utility.yul\":7557:7560   */\n      dup9\n        /* \"#utility.yul\":7542:7555   */\n      dup3\n        /* \"#utility.yul\":7498:7561   */\n      tag_590\n      jump\t// in\n    tag_609:\n        /* \"#utility.yul\":7491:7561   */\n      swap8\n      pop\n        /* \"#utility.yul\":7584:7644   */\n      tag_610\n        /* \"#utility.yul\":7637:7643   */\n      dup4\n        /* \"#utility.yul\":7584:7644   */\n      tag_611\n      jump\t// in\n    tag_610:\n        /* \"#utility.yul\":7574:7644   */\n      swap3\n      pop\n        /* \"#utility.yul\":7430:7654   */\n      pop\n        /* \"#utility.yul\":7417:7418   */\n      0x01\n        /* \"#utility.yul\":7414:7415   */\n      dup2\n        /* \"#utility.yul\":7410:7419   */\n      add\n        /* \"#utility.yul\":7405:7419   */\n      swap1\n      pop\n        /* \"#utility.yul\":7370:7654   */\n      jump(tag_606)\n    tag_608:\n        /* \"#utility.yul\":7374:7388   */\n      pop\n        /* \"#utility.yul\":7670:7673   */\n      dup6\n        /* \"#utility.yul\":7663:7673   */\n      swap4\n      pop\n        /* \"#utility.yul\":7071:7679   */\n      pop\n      pop\n      pop\n        /* \"#utility.yul\":6947:7679   */\n      swap3\n      swap2\n      pop\n      pop\n      jump\t// out\n        /* \"#utility.yul\":7685:7794   */\n    tag_612:\n        /* \"#utility.yul\":7766:7787   */\n      tag_614\n        /* \"#utility.yul\":7781:7786   */\n      dup2\n        /* \"#utility.yul\":7766:7787   */\n      tag_615\n      jump\t// in\n    tag_614:\n        /* \"#utility.yul\":7761:7764   */\n      dup3\n        /* \"#utility.yul\":7754:7788   */\n      mstore\n        /* \"#utility.yul\":7685:7794   */\n      pop\n      pop\n      jump\t// out\n        /* \"#utility.yul\":7800:7908   */\n    tag_593:\n        /* \"#utility.yul\":7877:7901   */\n      tag_617\n        /* \"#utility.yul\":7895:7900   */\n      dup2\n        /* \"#utility.yul\":7877:7901   */\n      tag_618\n      jump\t// in\n    tag_617:\n        /* \"#utility.yul\":7872:7875   */\n      dup3\n        /* \"#utility.yul\":7865:7902   */\n      mstore\n        /* \"#utility.yul\":7800:7908   */\n      pop\n      pop\n      jump\t// out\n        /* \"#utility.yul\":7914:8032   */\n    tag_619:\n        /* \"#utility.yul\":8001:8025   */\n      tag_621\n        /* \"#utility.yul\":8019:8024   */\n      dup2\n        /* \"#utility.yul\":8001:8025   */\n      tag_618\n      jump\t// in\n    tag_621:\n        /* \"#utility.yul\":7996:7999   */\n      dup3\n        /* \"#utility.yul\":7989:8026   */\n      mstore\n        /* \"#utility.yul\":7914:8032   */\n      pop\n      pop\n      jump\t// out\n        /* \"#utility.yul\":8038:8195   */\n    tag_622:\n        /* \"#utility.yul\":8143:8188   */\n      tag_624\n        /* \"#utility.yul\":8163:8187   */\n      tag_625\n        /* \"#utility.yul\":8181:8186   */\n      dup3\n        /* \"#utility.yul\":8163:8187   */\n      tag_618\n      jump\t// in\n    tag_625:\n        /* \"#utility.yul\":8143:8188   */\n      tag_626\n      jump\t// in\n    tag_624:\n        /* \"#utility.yul\":8138:8141   */\n      dup3\n        /* \"#utility.yul\":8131:8189   */\n      mstore\n        /* \"#utility.yul\":8038:8195   */\n      pop\n      pop\n      jump\t// out\n        /* \"#utility.yul\":8201:8565   */\n    tag_627:\n        /* \"#utility.yul\":8289:8292   */\n      0x00\n        /* \"#utility.yul\":8317:8356   */\n      tag_629\n        /* \"#utility.yul\":8350:8355   */\n      dup3\n        /* \"#utility.yul\":8317:8356   */\n      tag_630\n      jump\t// in\n    tag_629:\n        /* \"#utility.yul\":8372:8443   */\n      tag_631\n        /* \"#utility.yul\":8436:8442   */\n      dup2\n        /* \"#utility.yul\":8431:8434   */\n      dup6\n        /* \"#utility.yul\":8372:8443   */\n      tag_632\n      jump\t// in\n    tag_631:\n        /* \"#utility.yul\":8365:8443   */\n      swap4\n      pop\n        /* \"#utility.yul\":8452:8504   */\n      tag_633\n        /* \"#utility.yul\":8497:8503   */\n      dup2\n        /* \"#utility.yul\":8492:8495   */\n      dup6\n        /* \"#utility.yul\":8485:8489   */\n      0x20\n        /* \"#utility.yul\":8478:8483   */\n      dup7\n        /* \"#utility.yul\":8474:8490   */\n      add\n        /* \"#utility.yul\":8452:8504   */\n      tag_634\n      jump\t// in\n    tag_633:\n        /* \"#utility.yul\":8529:8558   */\n      tag_635\n        /* \"#utility.yul\":8551:8557   */\n      dup2\n        /* \"#utility.yul\":8529:8558   */\n      tag_636\n      jump\t// in\n    tag_635:\n        /* \"#utility.yul\":8524:8527   */\n      dup5\n        /* \"#utility.yul\":8520:8559   */\n      add\n        /* \"#utility.yul\":8513:8559   */\n      swap2\n      pop\n        /* \"#utility.yul\":8293:8565   */\n      pop\n        /* \"#utility.yul\":8201:8565   */\n      swap3\n      swap2\n      pop\n      pop\n      jump\t// out\n        /* \"#utility.yul\":8571:8948   */\n    tag_637:\n        /* \"#utility.yul\":8677:8680   */\n      0x00\n        /* \"#utility.yul\":8705:8744   */\n      tag_639\n        /* \"#utility.yul\":8738:8743   */\n      dup3\n        /* \"#utility.yul\":8705:8744   */\n      tag_630\n      jump\t// in\n    tag_639:\n        /* \"#utility.yul\":8760:8849   */\n      tag_640\n        /* \"#utility.yul\":8842:8848   */\n      dup2\n        /* \"#utility.yul\":8837:8840   */\n      dup6\n        /* \"#utility.yul\":8760:8849   */\n      tag_641\n      jump\t// in\n    tag_640:\n        /* \"#utility.yul\":8753:8849   */\n      swap4\n      pop\n        /* \"#utility.yul\":8858:8910   */\n      tag_642\n        /* \"#utility.yul\":8903:8909   */\n      dup2\n        /* \"#utility.yul\":8898:8901   */\n      dup6\n        /* \"#utility.yul\":8891:8895   */\n      0x20\n        /* \"#utility.yul\":8884:8889   */\n      dup7\n        /* \"#utility.yul\":8880:8896   */\n      add\n        /* \"#utility.yul\":8858:8910   */\n      tag_634\n      jump\t// in\n    tag_642:\n        /* \"#utility.yul\":8935:8941   */\n      dup1\n        /* \"#utility.yul\":8930:8933   */\n      dup5\n        /* \"#utility.yul\":8926:8942   */\n      add\n        /* \"#utility.yul\":8919:8942   */\n      swap2\n      pop\n        /* \"#utility.yul\":8681:8948   */\n      pop\n        /* \"#utility.yul\":8571:8948   */\n      swap3\n      swap2\n      pop\n      pop\n      jump\t// out\n        /* \"#utility.yul\":8954:9320   */\n    tag_643:\n        /* \"#utility.yul\":9096:9099   */\n      0x00\n        /* \"#utility.yul\":9117:9184   */\n      tag_645\n        /* \"#utility.yul\":9181:9183   */\n      0x19\n        /* \"#utility.yul\":9176:9179   */\n      dup4\n        /* \"#utility.yul\":9117:9184   */\n      tag_632\n      jump\t// in\n    tag_645:\n        /* \"#utility.yul\":9110:9184   */\n      swap2\n      pop\n        /* \"#utility.yul\":9193:9286   */\n      tag_646\n        /* \"#utility.yul\":9282:9285   */\n      dup3\n        /* \"#utility.yul\":9193:9286   */\n      tag_647\n      jump\t// in\n    tag_646:\n        /* \"#utility.yul\":9311:9313   */\n      0x20\n        /* \"#utility.yul\":9306:9309   */\n      dup3\n        /* \"#utility.yul\":9302:9314   */\n      add\n        /* \"#utility.yul\":9295:9314   */\n      swap1\n      pop\n        /* \"#utility.yul\":8954:9320   */\n      swap2\n      swap1\n      pop\n      jump\t// out\n        /* \"#utility.yul\":9326:9691   */\n    tag_648:\n        /* \"#utility.yul\":9468:9471   */\n      0x00\n        /* \"#utility.yul\":9489:9555   */\n      tag_650\n        /* \"#utility.yul\":9553:9554   */\n      0x09\n        /* \"#utility.yul\":9548:9551   */\n      dup4\n        /* \"#utility.yul\":9489:9555   */\n      tag_632\n      jump\t// in\n    tag_650:\n        /* \"#utility.yul\":9482:9555   */\n      swap2\n      pop\n        /* \"#utility.yul\":9564:9657   */\n      tag_651\n        /* \"#utility.yul\":9653:9656   */\n      dup3\n        /* \"#utility.yul\":9564:9657   */\n      tag_652\n      jump\t// in\n    tag_651:\n        /* \"#utility.yul\":9682:9684   */\n      0x20\n        /* \"#utility.yul\":9677:9680   */\n      dup3\n        /* \"#utility.yul\":9673:9685   */\n      add\n        /* \"#utility.yul\":9666:9685   */\n      swap1\n      pop\n        /* \"#utility.yul\":9326:9691   */\n      swap2\n      swap1\n      pop\n      jump\t// out\n        /* \"#utility.yul\":9697:10063   */\n    tag_653:\n        /* \"#utility.yul\":9839:9842   */\n      0x00\n        /* \"#utility.yul\":9860:9927   */\n      tag_655\n        /* \"#utility.yul\":9924:9926   */\n      0x0e\n        /* \"#utility.yul\":9919:9922   */\n      dup4\n        /* \"#utility.yul\":9860:9927   */\n      tag_632\n      jump\t// in\n    tag_655:\n        /* \"#utility.yul\":9853:9927   */\n      swap2\n      pop\n        /* \"#utility.yul\":9936:10029   */\n      tag_656\n        /* \"#utility.yul\":10025:10028   */\n      dup3\n        /* \"#utility.yul\":9936:10029   */\n      tag_657\n      jump\t// in\n    tag_656:\n        /* \"#utility.yul\":10054:10056   */\n      0x20\n        /* \"#utility.yul\":10049:10052   */\n      dup3\n        /* \"#utility.yul\":10045:10057   */\n      add\n        /* \"#utility.yul\":10038:10057   */\n      swap1\n      pop\n        /* \"#utility.yul\":9697:10063   */\n      swap2\n      swap1\n      pop\n      jump\t// out\n        /* \"#utility.yul\":10069:10435   */\n    tag_658:\n        /* \"#utility.yul\":10211:10214   */\n      0x00\n        /* \"#utility.yul\":10232:10299   */\n      tag_660\n        /* \"#utility.yul\":10296:10298   */\n      0x17\n        /* \"#utility.yul\":10291:10294   */\n      dup4\n        /* \"#utility.yul\":10232:10299   */\n      tag_632\n      jump\t// in\n    tag_660:\n        /* \"#utility.yul\":10225:10299   */\n      swap2\n      pop\n        /* \"#utility.yul\":10308:10401   */\n      tag_661\n        /* \"#utility.yul\":10397:10400   */\n      dup3\n        /* \"#utility.yul\":10308:10401   */\n      tag_662\n      jump\t// in\n    tag_661:\n        /* \"#utility.yul\":10426:10428   */\n      0x20\n        /* \"#utility.yul\":10421:10424   */\n      dup3\n        /* \"#utility.yul\":10417:10429   */\n      add\n        /* \"#utility.yul\":10410:10429   */\n      swap1\n      pop\n        /* \"#utility.yul\":10069:10435   */\n      swap2\n      swap1\n      pop\n      jump\t// out\n        /* \"#utility.yul\":10441:10807   */\n    tag_663:\n        /* \"#utility.yul\":10583:10586   */\n      0x00\n        /* \"#utility.yul\":10604:10671   */\n      tag_665\n        /* \"#utility.yul\":10668:10670   */\n      0x0a\n        /* \"#utility.yul\":10663:10666   */\n      dup4\n        /* \"#utility.yul\":10604:10671   */\n      tag_632\n      jump\t// in\n    tag_665:\n        /* \"#utility.yul\":10597:10671   */\n      swap2\n      pop\n        /* \"#utility.yul\":10680:10773   */\n      tag_666\n        /* \"#utility.yul\":10769:10772   */\n      dup3\n        /* \"#utility.yul\":10680:10773   */\n      tag_667\n      jump\t// in\n    tag_666:\n        /* \"#utility.yul\":10798:10800   */\n      0x20\n        /* \"#utility.yul\":10793:10796   */\n      dup3\n        /* \"#utility.yul\":10789:10801   */\n      add\n        /* \"#utility.yul\":10782:10801   */\n      swap1\n      pop\n        /* \"#utility.yul\":10441:10807   */\n      swap2\n      swap1\n      pop\n      jump\t// out\n        /* \"#utility.yul\":10813:11179   */\n    tag_668:\n        /* \"#utility.yul\":10955:10958   */\n      0x00\n        /* \"#utility.yul\":10976:11043   */\n      tag_670\n        /* \"#utility.yul\":11040:11042   */\n      0x15\n        /* \"#utility.yul\":11035:11038   */\n      dup4\n        /* \"#utility.yul\":10976:11043   */\n      tag_632\n      jump\t// in\n    tag_670:\n        /* \"#utility.yul\":10969:11043   */\n      swap2\n      pop\n        /* \"#utility.yul\":11052:11145   */\n      tag_671\n        /* \"#utility.yul\":11141:11144   */\n      dup3\n        /* \"#utility.yul\":11052:11145   */\n      tag_672\n      jump\t// in\n    tag_671:\n        /* \"#utility.yul\":11170:11172   */\n      0x20\n        /* \"#utility.yul\":11165:11168   */\n      dup3\n        /* \"#utility.yul\":11161:11173   */\n      add\n        /* \"#utility.yul\":11154:11173   */\n      swap1\n      pop\n        /* \"#utility.yul\":10813:11179   */\n      swap2\n      swap1\n      pop\n      jump\t// out\n        /* \"#utility.yul\":11185:11551   */\n    tag_673:\n        /* \"#utility.yul\":11327:11330   */\n      0x00\n        /* \"#utility.yul\":11348:11415   */\n      tag_675\n        /* \"#utility.yul\":11412:11414   */\n      0x15\n        /* \"#utility.yul\":11407:11410   */\n      dup4\n        /* \"#utility.yul\":11348:11415   */\n      tag_632\n      jump\t// in\n    tag_675:\n        /* \"#utility.yul\":11341:11415   */\n      swap2\n      pop\n        /* \"#utility.yul\":11424:11517   */\n      tag_676\n        /* \"#utility.yul\":11513:11516   */\n      dup3\n        /* \"#utility.yul\":11424:11517   */\n      tag_677\n      jump\t// in\n    tag_676:\n        /* \"#utility.yul\":11542:11544   */\n      0x20\n        /* \"#utility.yul\":11537:11540   */\n      dup3\n        /* \"#utility.yul\":11533:11545   */\n      add\n        /* \"#utility.yul\":11526:11545   */\n      swap1\n      pop\n        /* \"#utility.yul\":11185:11551   */\n      swap2\n      swap1\n      pop\n      jump\t// out\n        /* \"#utility.yul\":11557:11923   */\n    tag_678:\n        /* \"#utility.yul\":11699:11702   */\n      0x00\n        /* \"#utility.yul\":11720:11787   */\n      tag_680\n        /* \"#utility.yul\":11784:11786   */\n      0x10\n        /* \"#utility.yul\":11779:11782   */\n      dup4\n        /* \"#utility.yul\":11720:11787   */\n      tag_632\n      jump\t// in\n    tag_680:\n        /* \"#utility.yul\":11713:11787   */\n      swap2\n      pop\n        /* \"#utility.yul\":11796:11889   */\n      tag_681\n        /* \"#utility.yul\":11885:11888   */\n      dup3\n        /* \"#utility.yul\":11796:11889   */\n      tag_682\n      jump\t// in\n    tag_681:\n        /* \"#utility.yul\":11914:11916   */\n      0x20\n        /* \"#utility.yul\":11909:11912   */\n      dup3\n        /* \"#utility.yul\":11905:11917   */\n      add\n        /* \"#utility.yul\":11898:11917   */\n      swap1\n      pop\n        /* \"#utility.yul\":11557:11923   */\n      swap2\n      swap1\n      pop\n      jump\t// out\n        /* \"#utility.yul\":11929:12295   */\n    tag_683:\n        /* \"#utility.yul\":12071:12074   */\n      0x00\n        /* \"#utility.yul\":12092:12159   */\n      tag_685\n        /* \"#utility.yul\":12156:12158   */\n      0x11\n        /* \"#utility.yul\":12151:12154   */\n      dup4\n        /* \"#utility.yul\":12092:12159   */\n      tag_632\n      jump\t// in\n    tag_685:\n        /* \"#utility.yul\":12085:12159   */\n      swap2\n      pop\n        /* \"#utility.yul\":12168:12261   */\n      tag_686\n        /* \"#utility.yul\":12257:12260   */\n      dup3\n        /* \"#utility.yul\":12168:12261   */\n      tag_687\n      jump\t// in\n    tag_686:\n        /* \"#utility.yul\":12286:12288   */\n      0x20\n        /* \"#utility.yul\":12281:12284   */\n      dup3\n        /* \"#utility.yul\":12277:12289   */\n      add\n        /* \"#utility.yul\":12270:12289   */\n      swap1\n      pop\n        /* \"#utility.yul\":11929:12295   */\n      swap2\n      swap1\n      pop\n      jump\t// out\n        /* \"#utility.yul\":12365:13407   */\n    tag_688:\n        /* \"#utility.yul\":12520:12524   */\n      0xa0\n        /* \"#utility.yul\":12515:12518   */\n      dup3\n        /* \"#utility.yul\":12511:12525   */\n      add\n        /* \"#utility.yul\":12608:12612   */\n      0x00\n        /* \"#utility.yul\":12601:12606   */\n      dup3\n        /* \"#utility.yul\":12597:12613   */\n      add\n        /* \"#utility.yul\":12591:12614   */\n      mload\n        /* \"#utility.yul\":12627:12690   */\n      tag_690\n        /* \"#utility.yul\":12684:12688   */\n      0x00\n        /* \"#utility.yul\":12679:12682   */\n      dup6\n        /* \"#utility.yul\":12675:12689   */\n      add\n        /* \"#utility.yul\":12661:12673   */\n      dup3\n        /* \"#utility.yul\":12627:12690   */\n      tag_691\n      jump\t// in\n    tag_690:\n        /* \"#utility.yul\":12535:12700   */\n      pop\n        /* \"#utility.yul\":12783:12787   */\n      0x20\n        /* \"#utility.yul\":12776:12781   */\n      dup3\n        /* \"#utility.yul\":12772:12788   */\n      add\n        /* \"#utility.yul\":12766:12789   */\n      mload\n        /* \"#utility.yul\":12802:12865   */\n      tag_692\n        /* \"#utility.yul\":12859:12863   */\n      0x20\n        /* \"#utility.yul\":12854:12857   */\n      dup6\n        /* \"#utility.yul\":12850:12864   */\n      add\n        /* \"#utility.yul\":12836:12848   */\n      dup3\n        /* \"#utility.yul\":12802:12865   */\n      tag_691\n      jump\t// in\n    tag_692:\n        /* \"#utility.yul\":12710:12875   */\n      pop\n        /* \"#utility.yul\":12958:12962   */\n      0x40\n        /* \"#utility.yul\":12951:12956   */\n      dup3\n        /* \"#utility.yul\":12947:12963   */\n      add\n        /* \"#utility.yul\":12941:12964   */\n      mload\n        /* \"#utility.yul\":12977:13040   */\n      tag_693\n        /* \"#utility.yul\":13034:13038   */\n      0x40\n        /* \"#utility.yul\":13029:13032   */\n      dup6\n        /* \"#utility.yul\":13025:13039   */\n      add\n        /* \"#utility.yul\":13011:13023   */\n      dup3\n        /* \"#utility.yul\":12977:13040   */\n      tag_691\n      jump\t// in\n    tag_693:\n        /* \"#utility.yul\":12885:13050   */\n      pop\n        /* \"#utility.yul\":13133:13137   */\n      0x60\n        /* \"#utility.yul\":13126:13131   */\n      dup3\n        /* \"#utility.yul\":13122:13138   */\n      add\n        /* \"#utility.yul\":13116:13139   */\n      mload\n        /* \"#utility.yul\":13152:13215   */\n      tag_694\n        /* \"#utility.yul\":13209:13213   */\n      0x60\n        /* \"#utility.yul\":13204:13207   */\n      dup6\n        /* \"#utility.yul\":13200:13214   */\n      add\n        /* \"#utility.yul\":13186:13198   */\n      dup3\n        /* \"#utility.yul\":13152:13215   */\n      tag_691\n      jump\t// in\n    tag_694:\n        /* \"#utility.yul\":13060:13225   */\n      pop\n        /* \"#utility.yul\":13308:13312   */\n      0x80\n        /* \"#utility.yul\":13301:13306   */\n      dup3\n        /* \"#utility.yul\":13297:13313   */\n      add\n        /* \"#utility.yul\":13291:13314   */\n      mload\n        /* \"#utility.yul\":13327:13390   */\n      tag_695\n        /* \"#utility.yul\":13384:13388   */\n      0x80\n        /* \"#utility.yul\":13379:13382   */\n      dup6\n        /* \"#utility.yul\":13375:13389   */\n      add\n        /* \"#utility.yul\":13361:13373   */\n      dup3\n        /* \"#utility.yul\":13327:13390   */\n      tag_691\n      jump\t// in\n    tag_695:\n        /* \"#utility.yul\":13235:13400   */\n      pop\n        /* \"#utility.yul\":12489:13407   */\n      pop\n        /* \"#utility.yul\":12365:13407   */\n      pop\n      pop\n      jump\t// out\n        /* \"#utility.yul\":13413:13521   */\n    tag_691:\n        /* \"#utility.yul\":13490:13514   */\n      tag_697\n        /* \"#utility.yul\":13508:13513   */\n      dup2\n        /* \"#utility.yul\":13490:13514   */\n      tag_698\n      jump\t// in\n    tag_697:\n        /* \"#utility.yul\":13485:13488   */\n      dup3\n        /* \"#utility.yul\":13478:13515   */\n      mstore\n        /* \"#utility.yul\":13413:13521   */\n      pop\n      pop\n      jump\t// out\n        /* \"#utility.yul\":13527:13645   */\n    tag_699:\n        /* \"#utility.yul\":13614:13638   */\n      tag_701\n        /* \"#utility.yul\":13632:13637   */\n      dup2\n        /* \"#utility.yul\":13614:13638   */\n      tag_698\n      jump\t// in\n    tag_701:\n        /* \"#utility.yul\":13609:13612   */\n      dup3\n        /* \"#utility.yul\":13602:13639   */\n      mstore\n        /* \"#utility.yul\":13527:13645   */\n      pop\n      pop\n      jump\t// out\n        /* \"#utility.yul\":13651:13808   */\n    tag_702:\n        /* \"#utility.yul\":13756:13801   */\n      tag_704\n        /* \"#utility.yul\":13776:13800   */\n      tag_705\n        /* \"#utility.yul\":13794:13799   */\n      dup3\n        /* \"#utility.yul\":13776:13800   */\n      tag_698\n      jump\t// in\n    tag_705:\n        /* \"#utility.yul\":13756:13801   */\n      tag_706\n      jump\t// in\n    tag_704:\n        /* \"#utility.yul\":13751:13754   */\n      dup3\n        /* \"#utility.yul\":13744:13802   */\n      mstore\n        /* \"#utility.yul\":13651:13808   */\n      pop\n      pop\n      jump\t// out\n        /* \"#utility.yul\":13814:14070   */\n    tag_456:\n        /* \"#utility.yul\":13926:13929   */\n      0x00\n        /* \"#utility.yul\":13941:14016   */\n      tag_708\n        /* \"#utility.yul\":14012:14015   */\n      dup3\n        /* \"#utility.yul\":14003:14009   */\n      dup5\n        /* \"#utility.yul\":13941:14016   */\n      tag_622\n      jump\t// in\n    tag_708:\n        /* \"#utility.yul\":14041:14043   */\n      0x20\n        /* \"#utility.yul\":14036:14039   */\n      dup3\n        /* \"#utility.yul\":14032:14044   */\n      add\n        /* \"#utility.yul\":14025:14044   */\n      swap2\n      pop\n        /* \"#utility.yul\":14061:14064   */\n      dup2\n        /* \"#utility.yul\":14054:14064   */\n      swap1\n      pop\n        /* \"#utility.yul\":13814:14070   */\n      swap3\n      swap2\n      pop\n      pop\n      jump\t// out\n        /* \"#utility.yul\":14076:14351   */\n    tag_182:\n        /* \"#utility.yul\":14208:14211   */\n      0x00\n        /* \"#utility.yul\":14230:14325   */\n      tag_710\n        /* \"#utility.yul\":14321:14324   */\n      dup3\n        /* \"#utility.yul\":14312:14318   */\n      dup5\n        /* \"#utility.yul\":14230:14325   */\n      tag_637\n      jump\t// in\n    tag_710:\n        /* \"#utility.yul\":14223:14325   */\n      swap2\n      pop\n        /* \"#utility.yul\":14342:14345   */\n      dup2\n        /* \"#utility.yul\":14335:14345   */\n      swap1\n      pop\n        /* \"#utility.yul\":14076:14351   */\n      swap3\n      swap2\n      pop\n      pop\n      jump\t// out\n        /* \"#utility.yul\":14357:14613   */\n    tag_451:\n        /* \"#utility.yul\":14469:14472   */\n      0x00\n        /* \"#utility.yul\":14484:14559   */\n      tag_712\n        /* \"#utility.yul\":14555:14558   */\n      dup3\n        /* \"#utility.yul\":14546:14552   */\n      dup5\n        /* \"#utility.yul\":14484:14559   */\n      tag_702\n      jump\t// in\n    tag_712:\n        /* \"#utility.yul\":14584:14586   */\n      0x20\n        /* \"#utility.yul\":14579:14582   */\n      dup3\n        /* \"#utility.yul\":14575:14587   */\n      add\n        /* \"#utility.yul\":14568:14587   */\n      swap2\n      pop\n        /* \"#utility.yul\":14604:14607   */\n      dup2\n        /* \"#utility.yul\":14597:14607   */\n      swap1\n      pop\n        /* \"#utility.yul\":14357:14613   */\n      swap3\n      swap2\n      pop\n      pop\n      jump\t// out\n        /* \"#utility.yul\":14619:14951   */\n    tag_25:\n        /* \"#utility.yul\":14740:14744   */\n      0x00\n        /* \"#utility.yul\":14778:14780   */\n      0x40\n        /* \"#utility.yul\":14767:14776   */\n      dup3\n        /* \"#utility.yul\":14763:14781   */\n      add\n        /* \"#utility.yul\":14755:14781   */\n      swap1\n      pop\n        /* \"#utility.yul\":14791:14862   */\n      tag_714\n        /* \"#utility.yul\":14859:14860   */\n      0x00\n        /* \"#utility.yul\":14848:14857   */\n      dup4\n        /* \"#utility.yul\":14844:14861   */\n      add\n        /* \"#utility.yul\":14835:14841   */\n      dup6\n        /* \"#utility.yul\":14791:14862   */\n      tag_594\n      jump\t// in\n    tag_714:\n        /* \"#utility.yul\":14872:14944   */\n      tag_715\n        /* \"#utility.yul\":14940:14942   */\n      0x20\n        /* \"#utility.yul\":14929:14938   */\n      dup4\n        /* \"#utility.yul\":14925:14943   */\n      add\n        /* \"#utility.yul\":14916:14922   */\n      dup5\n        /* \"#utility.yul\":14872:14944   */\n      tag_699\n      jump\t// in\n    tag_715:\n        /* \"#utility.yul\":14619:14951   */\n      swap4\n      swap3\n      pop\n      pop\n      pop\n      jump\t// out\n        /* \"#utility.yul\":14957:15330   */\n    tag_82:\n        /* \"#utility.yul\":15100:15104   */\n      0x00\n        /* \"#utility.yul\":15138:15140   */\n      0x20\n        /* \"#utility.yul\":15127:15136   */\n      dup3\n        /* \"#utility.yul\":15123:15141   */\n      add\n        /* \"#utility.yul\":15115:15141   */\n      swap1\n      pop\n        /* \"#utility.yul\":15187:15196   */\n      dup2\n        /* \"#utility.yul\":15181:15185   */\n      dup2\n        /* \"#utility.yul\":15177:15197   */\n      sub\n        /* \"#utility.yul\":15173:15174   */\n      0x00\n        /* \"#utility.yul\":15162:15171   */\n      dup4\n        /* \"#utility.yul\":15158:15175   */\n      add\n        /* \"#utility.yul\":15151:15198   */\n      mstore\n        /* \"#utility.yul\":15215:15323   */\n      tag_717\n        /* \"#utility.yul\":15318:15322   */\n      dup2\n        /* \"#utility.yul\":15309:15315   */\n      dup5\n        /* \"#utility.yul\":15215:15323   */\n      tag_598\n      jump\t// in\n    tag_717:\n        /* \"#utility.yul\":15207:15323   */\n      swap1\n      pop\n        /* \"#utility.yul\":14957:15330   */\n      swap3\n      swap2\n      pop\n      pop\n      jump\t// out\n        /* \"#utility.yul\":15336:15546   */\n    tag_32:\n        /* \"#utility.yul\":15423:15427   */\n      0x00\n        /* \"#utility.yul\":15461:15463   */\n      0x20\n        /* \"#utility.yul\":15450:15459   */\n      dup3\n        /* \"#utility.yul\":15446:15464   */\n      add\n        /* \"#utility.yul\":15438:15464   */\n      swap1\n      pop\n        /* \"#utility.yul\":15474:15539   */\n      tag_719\n        /* \"#utility.yul\":15536:15537   */\n      0x00\n        /* \"#utility.yul\":15525:15534   */\n      dup4\n        /* \"#utility.yul\":15521:15538   */\n      add\n        /* \"#utility.yul\":15512:15518   */\n      dup5\n        /* \"#utility.yul\":15474:15539   */\n      tag_612\n      jump\t// in\n    tag_719:\n        /* \"#utility.yul\":15336:15546   */\n      swap3\n      swap2\n      pop\n      pop\n      jump\t// out\n        /* \"#utility.yul\":15552:15774   */\n    tag_50:\n        /* \"#utility.yul\":15645:15649   */\n      0x00\n        /* \"#utility.yul\":15683:15685   */\n      0x20\n        /* \"#utility.yul\":15672:15681   */\n      dup3\n        /* \"#utility.yul\":15668:15686   */\n      add\n        /* \"#utility.yul\":15660:15686   */\n      swap1\n      pop\n        /* \"#utility.yul\":15696:15767   */\n      tag_721\n        /* \"#utility.yul\":15764:15765   */\n      0x00\n        /* \"#utility.yul\":15753:15762   */\n      dup4\n        /* \"#utility.yul\":15749:15766   */\n      add\n        /* \"#utility.yul\":15740:15746   */\n      dup5\n        /* \"#utility.yul\":15696:15767   */\n      tag_619\n      jump\t// in\n    tag_721:\n        /* \"#utility.yul\":15552:15774   */\n      swap3\n      swap2\n      pop\n      pop\n      jump\t// out\n        /* \"#utility.yul\":15780:16521   */\n    tag_92:\n        /* \"#utility.yul\":16027:16031   */\n      0x00\n        /* \"#utility.yul\":16065:16068   */\n      0xe0\n        /* \"#utility.yul\":16054:16063   */\n      dup3\n        /* \"#utility.yul\":16050:16069   */\n      add\n        /* \"#utility.yul\":16042:16069   */\n      swap1\n      pop\n        /* \"#utility.yul\":16115:16124   */\n      dup2\n        /* \"#utility.yul\":16109:16113   */\n      dup2\n        /* \"#utility.yul\":16105:16125   */\n      sub\n        /* \"#utility.yul\":16101:16102   */\n      0x00\n        /* \"#utility.yul\":16090:16099   */\n      dup4\n        /* \"#utility.yul\":16086:16103   */\n      add\n        /* \"#utility.yul\":16079:16126   */\n      mstore\n        /* \"#utility.yul\":16143:16221   */\n      tag_723\n        /* \"#utility.yul\":16216:16220   */\n      dup2\n        /* \"#utility.yul\":16207:16213   */\n      dup7\n        /* \"#utility.yul\":16143:16221   */\n      tag_627\n      jump\t// in\n    tag_723:\n        /* \"#utility.yul\":16135:16221   */\n      swap1\n      pop\n        /* \"#utility.yul\":16268:16277   */\n      dup2\n        /* \"#utility.yul\":16262:16266   */\n      dup2\n        /* \"#utility.yul\":16258:16278   */\n      sub\n        /* \"#utility.yul\":16253:16255   */\n      0x20\n        /* \"#utility.yul\":16242:16251   */\n      dup4\n        /* \"#utility.yul\":16238:16256   */\n      add\n        /* \"#utility.yul\":16231:16279   */\n      mstore\n        /* \"#utility.yul\":16296:16374   */\n      tag_724\n        /* \"#utility.yul\":16369:16373   */\n      dup2\n        /* \"#utility.yul\":16360:16366   */\n      dup6\n        /* \"#utility.yul\":16296:16374   */\n      tag_627\n      jump\t// in\n    tag_724:\n        /* \"#utility.yul\":16288:16374   */\n      swap1\n      pop\n        /* \"#utility.yul\":16384:16514   */\n      tag_725\n        /* \"#utility.yul\":16510:16512   */\n      0x40\n        /* \"#utility.yul\":16499:16508   */\n      dup4\n        /* \"#utility.yul\":16495:16513   */\n      add\n        /* \"#utility.yul\":16486:16492   */\n      dup5\n        /* \"#utility.yul\":16384:16514   */\n      tag_688\n      jump\t// in\n    tag_725:\n        /* \"#utility.yul\":15780:16521   */\n      swap5\n      swap4\n      pop\n      pop\n      pop\n      pop\n      jump\t// out\n        /* \"#utility.yul\":16527:16946   */\n    tag_100:\n        /* \"#utility.yul\":16693:16697   */\n      0x00\n        /* \"#utility.yul\":16731:16733   */\n      0x20\n        /* \"#utility.yul\":16720:16729   */\n      dup3\n        /* \"#utility.yul\":16716:16734   */\n      add\n        /* \"#utility.yul\":16708:16734   */\n      swap1\n      pop\n        /* \"#utility.yul\":16780:16789   */\n      dup2\n        /* \"#utility.yul\":16774:16778   */\n      dup2\n        /* \"#utility.yul\":16770:16790   */\n      sub\n        /* \"#utility.yul\":16766:16767   */\n      0x00\n        /* \"#utility.yul\":16755:16764   */\n      dup4\n        /* \"#utility.yul\":16751:16768   */\n      add\n        /* \"#utility.yul\":16744:16791   */\n      mstore\n        /* \"#utility.yul\":16808:16939   */\n      tag_727\n        /* \"#utility.yul\":16934:16938   */\n      dup2\n        /* \"#utility.yul\":16808:16939   */\n      tag_643\n      jump\t// in\n    tag_727:\n        /* \"#utility.yul\":16800:16939   */\n      swap1\n      pop\n        /* \"#utility.yul\":16527:16946   */\n      swap2\n      swap1\n      pop\n      jump\t// out\n        /* \"#utility.yul\":16952:17371   */\n    tag_404:\n        /* \"#utility.yul\":17118:17122   */\n      0x00\n        /* \"#utility.yul\":17156:17158   */\n      0x20\n        /* \"#utility.yul\":17145:17154   */\n      dup3\n        /* \"#utility.yul\":17141:17159   */\n      add\n        /* \"#utility.yul\":17133:17159   */\n      swap1\n      pop\n        /* \"#utility.yul\":17205:17214   */\n      dup2\n        /* \"#utility.yul\":17199:17203   */\n      dup2\n        /* \"#utility.yul\":17195:17215   */\n      sub\n        /* \"#utility.yul\":17191:17192   */\n      0x00\n        /* \"#utility.yul\":17180:17189   */\n      dup4\n        /* \"#utility.yul\":17176:17193   */\n      add\n        /* \"#utility.yul\":17169:17216   */\n      mstore\n        /* \"#utility.yul\":17233:17364   */\n      tag_729\n        /* \"#utility.yul\":17359:17363   */\n      dup2\n        /* \"#utility.yul\":17233:17364   */\n      tag_648\n      jump\t// in\n    tag_729:\n        /* \"#utility.yul\":17225:17364   */\n      swap1\n      pop\n        /* \"#utility.yul\":16952:17371   */\n      swap2\n      swap1\n      pop\n      jump\t// out\n        /* \"#utility.yul\":17377:17796   */\n    tag_106:\n        /* \"#utility.yul\":17543:17547   */\n      0x00\n        /* \"#utility.yul\":17581:17583   */\n      0x20\n        /* \"#utility.yul\":17570:17579   */\n      dup3\n        /* \"#utility.yul\":17566:17584   */\n      add\n        /* \"#utility.yul\":17558:17584   */\n      swap1\n      pop\n        /* \"#utility.yul\":17630:17639   */\n      dup2\n        /* \"#utility.yul\":17624:17628   */\n      dup2\n        /* \"#utility.yul\":17620:17640   */\n      sub\n        /* \"#utility.yul\":17616:17617   */\n      0x00\n        /* \"#utility.yul\":17605:17614   */\n      dup4\n        /* \"#utility.yul\":17601:17618   */\n      add\n        /* \"#utility.yul\":17594:17641   */\n      mstore\n        /* \"#utility.yul\":17658:17789   */\n      tag_731\n        /* \"#utility.yul\":17784:17788   */\n      dup2\n        /* \"#utility.yul\":17658:17789   */\n      tag_653\n      jump\t// in\n    tag_731:\n        /* \"#utility.yul\":17650:17789   */\n      swap1\n      pop\n        /* \"#utility.yul\":17377:17796   */\n      swap2\n      swap1\n      pop\n      jump\t// out\n        /* \"#utility.yul\":17802:18221   */\n    tag_168:\n        /* \"#utility.yul\":17968:17972   */\n      0x00\n        /* \"#utility.yul\":18006:18008   */\n      0x20\n        /* \"#utility.yul\":17995:18004   */\n      dup3\n        /* \"#utility.yul\":17991:18009   */\n      add\n        /* \"#utility.yul\":17983:18009   */\n      swap1\n      pop\n        /* \"#utility.yul\":18055:18064   */\n      dup2\n        /* \"#utility.yul\":18049:18053   */\n      dup2\n        /* \"#utility.yul\":18045:18065   */\n      sub\n        /* \"#utility.yul\":18041:18042   */\n      0x00\n        /* \"#utility.yul\":18030:18039   */\n      dup4\n        /* \"#utility.yul\":18026:18043   */\n      add\n        /* \"#utility.yul\":18019:18066   */\n      mstore\n        /* \"#utility.yul\":18083:18214   */\n      tag_733\n        /* \"#utility.yul\":18209:18213   */\n      dup2\n        /* \"#utility.yul\":18083:18214   */\n      tag_658\n      jump\t// in\n    tag_733:\n        /* \"#utility.yul\":18075:18214   */\n      swap1\n      pop\n        /* \"#utility.yul\":17802:18221   */\n      swap2\n      swap1\n      pop\n      jump\t// out\n        /* \"#utility.yul\":18227:18646   */\n    tag_186:\n        /* \"#utility.yul\":18393:18397   */\n      0x00\n        /* \"#utility.yul\":18431:18433   */\n      0x20\n        /* \"#utility.yul\":18420:18429   */\n      dup3\n        /* \"#utility.yul\":18416:18434   */\n      add\n        /* \"#utility.yul\":18408:18434   */\n      swap1\n      pop\n        /* \"#utility.yul\":18480:18489   */\n      dup2\n        /* \"#utility.yul\":18474:18478   */\n      dup2\n        /* \"#utility.yul\":18470:18490   */\n      sub\n        /* \"#utility.yul\":18466:18467   */\n      0x00\n        /* \"#utility.yul\":18455:18464   */\n      dup4\n        /* \"#utility.yul\":18451:18468   */\n      add\n        /* \"#utility.yul\":18444:18491   */\n      mstore\n        /* \"#utility.yul\":18508:18639   */\n      tag_735\n        /* \"#utility.yul\":18634:18638   */\n      dup2\n        /* \"#utility.yul\":18508:18639   */\n      tag_663\n      jump\t// in\n    tag_735:\n        /* \"#utility.yul\":18500:18639   */\n      swap1\n      pop\n        /* \"#utility.yul\":18227:18646   */\n      swap2\n      swap1\n      pop\n      jump\t// out\n        /* \"#utility.yul\":18652:19071   */\n    tag_134:\n        /* \"#utility.yul\":18818:18822   */\n      0x00\n        /* \"#utility.yul\":18856:18858   */\n      0x20\n        /* \"#utility.yul\":18845:18854   */\n      dup3\n        /* \"#utility.yul\":18841:18859   */\n      add\n        /* \"#utility.yul\":18833:18859   */\n      swap1\n      pop\n        /* \"#utility.yul\":18905:18914   */\n      dup2\n        /* \"#utility.yul\":18899:18903   */\n      dup2\n        /* \"#utility.yul\":18895:18915   */\n      sub\n        /* \"#utility.yul\":18891:18892   */\n      0x00\n        /* \"#utility.yul\":18880:18889   */\n      dup4\n        /* \"#utility.yul\":18876:18893   */\n      add\n        /* \"#utility.yul\":18869:18916   */\n      mstore\n        /* \"#utility.yul\":18933:19064   */\n      tag_737\n        /* \"#utility.yul\":19059:19063   */\n      dup2\n        /* \"#utility.yul\":18933:19064   */\n      tag_668\n      jump\t// in\n    tag_737:\n        /* \"#utility.yul\":18925:19064   */\n      swap1\n      pop\n        /* \"#utility.yul\":18652:19071   */\n      swap2\n      swap1\n      pop\n      jump\t// out\n        /* \"#utility.yul\":19077:19496   */\n    tag_232:\n        /* \"#utility.yul\":19243:19247   */\n      0x00\n        /* \"#utility.yul\":19281:19283   */\n      0x20\n        /* \"#utility.yul\":19270:19279   */\n      dup3\n        /* \"#utility.yul\":19266:19284   */\n      add\n        /* \"#utility.yul\":19258:19284   */\n      swap1\n      pop\n        /* \"#utility.yul\":19330:19339   */\n      dup2\n        /* \"#utility.yul\":19324:19328   */\n      dup2\n        /* \"#utility.yul\":19320:19340   */\n      sub\n        /* \"#utility.yul\":19316:19317   */\n      0x00\n        /* \"#utility.yul\":19305:19314   */\n      dup4\n        /* \"#utility.yul\":19301:19318   */\n      add\n        /* \"#utility.yul\":19294:19341   */\n      mstore\n        /* \"#utility.yul\":19358:19489   */\n      tag_739\n        /* \"#utility.yul\":19484:19488   */\n      dup2\n        /* \"#utility.yul\":19358:19489   */\n      tag_673\n      jump\t// in\n    tag_739:\n        /* \"#utility.yul\":19350:19489   */\n      swap1\n      pop\n        /* \"#utility.yul\":19077:19496   */\n      swap2\n      swap1\n      pop\n      jump\t// out\n        /* \"#utility.yul\":19502:19921   */\n    tag_171:\n        /* \"#utility.yul\":19668:19672   */\n      0x00\n        /* \"#utility.yul\":19706:19708   */\n      0x20\n        /* \"#utility.yul\":19695:19704   */\n      dup3\n        /* \"#utility.yul\":19691:19709   */\n      add\n        /* \"#utility.yul\":19683:19709   */\n      swap1\n      pop\n        /* \"#utility.yul\":19755:19764   */\n      dup2\n        /* \"#utility.yul\":19749:19753   */\n      dup2\n        /* \"#utility.yul\":19745:19765   */\n      sub\n        /* \"#utility.yul\":19741:19742   */\n      0x00\n        /* \"#utility.yul\":19730:19739   */\n      dup4\n        /* \"#utility.yul\":19726:19743   */\n      add\n        /* \"#utility.yul\":19719:19766   */\n      mstore\n        /* \"#utility.yul\":19783:19914   */\n      tag_741\n        /* \"#utility.yul\":19909:19913   */\n      dup2\n        /* \"#utility.yul\":19783:19914   */\n      tag_678\n      jump\t// in\n    tag_741:\n        /* \"#utility.yul\":19775:19914   */\n      swap1\n      pop\n        /* \"#utility.yul\":19502:19921   */\n      swap2\n      swap1\n      pop\n      jump\t// out\n        /* \"#utility.yul\":19927:20346   */\n    tag_297:\n        /* \"#utility.yul\":20093:20097   */\n      0x00\n        /* \"#utility.yul\":20131:20133   */\n      0x20\n        /* \"#utility.yul\":20120:20129   */\n      dup3\n        /* \"#utility.yul\":20116:20134   */\n      add\n        /* \"#utility.yul\":20108:20134   */\n      swap1\n      pop\n        /* \"#utility.yul\":20180:20189   */\n      dup2\n        /* \"#utility.yul\":20174:20178   */\n      dup2\n        /* \"#utility.yul\":20170:20190   */\n      sub\n        /* \"#utility.yul\":20166:20167   */\n      0x00\n        /* \"#utility.yul\":20155:20164   */\n      dup4\n        /* \"#utility.yul\":20151:20168   */\n      add\n        /* \"#utility.yul\":20144:20191   */\n      mstore\n        /* \"#utility.yul\":20208:20339   */\n      tag_743\n        /* \"#utility.yul\":20334:20338   */\n      dup2\n        /* \"#utility.yul\":20208:20339   */\n      tag_683\n      jump\t// in\n    tag_743:\n        /* \"#utility.yul\":20200:20339   */\n      swap1\n      pop\n        /* \"#utility.yul\":19927:20346   */\n      swap2\n      swap1\n      pop\n      jump\t// out\n        /* \"#utility.yul\":20352:20574   */\n    tag_55:\n        /* \"#utility.yul\":20445:20449   */\n      0x00\n        /* \"#utility.yul\":20483:20485   */\n      0x20\n        /* \"#utility.yul\":20472:20481   */\n      dup3\n        /* \"#utility.yul\":20468:20486   */\n      add\n        /* \"#utility.yul\":20460:20486   */\n      swap1\n      pop\n        /* \"#utility.yul\":20496:20567   */\n      tag_745\n        /* \"#utility.yul\":20564:20565   */\n      0x00\n        /* \"#utility.yul\":20553:20562   */\n      dup4\n        /* \"#utility.yul\":20549:20566   */\n      add\n        /* \"#utility.yul\":20540:20546   */\n      dup5\n        /* \"#utility.yul\":20496:20567   */\n      tag_699\n      jump\t// in\n    tag_745:\n        /* \"#utility.yul\":20352:20574   */\n      swap3\n      swap2\n      pop\n      pop\n      jump\t// out\n        /* \"#utility.yul\":20580:20709   */\n    tag_508:\n        /* \"#utility.yul\":20614:20620   */\n      0x00\n        /* \"#utility.yul\":20641:20661   */\n      tag_747\n      tag_748\n      jump\t// in\n    tag_747:\n        /* \"#utility.yul\":20631:20661   */\n      swap1\n      pop\n        /* \"#utility.yul\":20670:20703   */\n      tag_749\n        /* \"#utility.yul\":20698:20702   */\n      dup3\n        /* \"#utility.yul\":20690:20696   */\n      dup3\n        /* \"#utility.yul\":20670:20703   */\n      tag_750\n      jump\t// in\n    tag_749:\n        /* \"#utility.yul\":20580:20709   */\n      swap2\n      swap1\n      pop\n      jump\t// out\n        /* \"#utility.yul\":20715:20790   */\n    tag_748:\n        /* \"#utility.yul\":20748:20754   */\n      0x00\n        /* \"#utility.yul\":20781:20783   */\n      0x40\n        /* \"#utility.yul\":20775:20784   */\n      mload\n        /* \"#utility.yul\":20765:20784   */\n      swap1\n      pop\n        /* \"#utility.yul\":20715:20790   */\n      swap1\n      jump\t// out\n        /* \"#utility.yul\":20796:21104   */\n    tag_507:\n        /* \"#utility.yul\":20858:20862   */\n      0x00\n        /* \"#utility.yul\":20948:20966   */\n      0xffffffffffffffff\n        /* \"#utility.yul\":20940:20946   */\n      dup3\n        /* \"#utility.yul\":20937:20967   */\n      gt\n        /* \"#utility.yul\":20934:20990   */\n      iszero\n      tag_753\n      jumpi\n        /* \"#utility.yul\":20970:20988   */\n      tag_754\n      tag_428\n      jump\t// in\n    tag_754:\n        /* \"#utility.yul\":20934:20990   */\n    tag_753:\n        /* \"#utility.yul\":21008:21037   */\n      tag_755\n        /* \"#utility.yul\":21030:21036   */\n      dup3\n        /* \"#utility.yul\":21008:21037   */\n      tag_636\n      jump\t// in\n    tag_755:\n        /* \"#utility.yul\":21000:21037   */\n      swap1\n      pop\n        /* \"#utility.yul\":21092:21096   */\n      0x20\n        /* \"#utility.yul\":21086:21090   */\n      dup2\n        /* \"#utility.yul\":21082:21097   */\n      add\n        /* \"#utility.yul\":21074:21097   */\n      swap1\n      pop\n        /* \"#utility.yul\":20796:21104   */\n      swap2\n      swap1\n      pop\n      jump\t// out\n        /* \"#utility.yul\":21110:21242   */\n    tag_605:\n        /* \"#utility.yul\":21177:21181   */\n      0x00\n        /* \"#utility.yul\":21200:21203   */\n      dup2\n        /* \"#utility.yul\":21192:21203   */\n      swap1\n      pop\n        /* \"#utility.yul\":21230:21234   */\n      0x20\n        /* \"#utility.yul\":21225:21228   */\n      dup3\n        /* \"#utility.yul\":21221:21235   */\n      add\n        /* \"#utility.yul\":21213:21235   */\n      swap1\n      pop\n        /* \"#utility.yul\":21110:21242   */\n      swap2\n      swap1\n      pop\n      jump\t// out\n        /* \"#utility.yul\":21248:21362   */\n    tag_601:\n        /* \"#utility.yul\":21315:21321   */\n      0x00\n        /* \"#utility.yul\":21349:21354   */\n      dup2\n        /* \"#utility.yul\":21343:21355   */\n      mload\n        /* \"#utility.yul\":21333:21355   */\n      swap1\n      pop\n        /* \"#utility.yul\":21248:21362   */\n      swap2\n      swap1\n      pop\n      jump\t// out\n        /* \"#utility.yul\":21368:21467   */\n    tag_630:\n        /* \"#utility.yul\":21420:21426   */\n      0x00\n        /* \"#utility.yul\":21454:21459   */\n      dup2\n        /* \"#utility.yul\":21448:21460   */\n      mload\n        /* \"#utility.yul\":21438:21460   */\n      swap1\n      pop\n        /* \"#utility.yul\":21368:21467   */\n      swap2\n      swap1\n      pop\n      jump\t// out\n        /* \"#utility.yul\":21473:21586   */\n    tag_611:\n        /* \"#utility.yul\":21543:21547   */\n      0x00\n        /* \"#utility.yul\":21575:21579   */\n      0x20\n        /* \"#utility.yul\":21570:21573   */\n      dup3\n        /* \"#utility.yul\":21566:21580   */\n      add\n        /* \"#utility.yul\":21558:21580   */\n      swap1\n      pop\n        /* \"#utility.yul\":21473:21586   */\n      swap2\n      swap1\n      pop\n      jump\t// out\n        /* \"#utility.yul\":21592:21776   */\n    tag_603:\n        /* \"#utility.yul\":21691:21702   */\n      0x00\n        /* \"#utility.yul\":21725:21731   */\n      dup3\n        /* \"#utility.yul\":21720:21723   */\n      dup3\n        /* \"#utility.yul\":21713:21732   */\n      mstore\n        /* \"#utility.yul\":21765:21769   */\n      0x20\n        /* \"#utility.yul\":21760:21763   */\n      dup3\n        /* \"#utility.yul\":21756:21770   */\n      add\n        /* \"#utility.yul\":21741:21770   */\n      swap1\n      pop\n        /* \"#utility.yul\":21592:21776   */\n      swap3\n      swap2\n      pop\n      pop\n      jump\t// out\n        /* \"#utility.yul\":21782:21951   */\n    tag_632:\n        /* \"#utility.yul\":21866:21877   */\n      0x00\n        /* \"#utility.yul\":21900:21906   */\n      dup3\n        /* \"#utility.yul\":21895:21898   */\n      dup3\n        /* \"#utility.yul\":21888:21907   */\n      mstore\n        /* \"#utility.yul\":21940:21944   */\n      0x20\n        /* \"#utility.yul\":21935:21938   */\n      dup3\n        /* \"#utility.yul\":21931:21945   */\n      add\n        /* \"#utility.yul\":21916:21945   */\n      swap1\n      pop\n        /* \"#utility.yul\":21782:21951   */\n      swap3\n      swap2\n      pop\n      pop\n      jump\t// out\n        /* \"#utility.yul\":21957:22105   */\n    tag_641:\n        /* \"#utility.yul\":22059:22070   */\n      0x00\n        /* \"#utility.yul\":22096:22099   */\n      dup2\n        /* \"#utility.yul\":22081:22099   */\n      swap1\n      pop\n        /* \"#utility.yul\":21957:22105   */\n      swap3\n      swap2\n      pop\n      pop\n      jump\t// out\n        /* \"#utility.yul\":22111:22416   */\n    tag_22:\n        /* \"#utility.yul\":22151:22154   */\n      0x00\n        /* \"#utility.yul\":22170:22190   */\n      tag_764\n        /* \"#utility.yul\":22188:22189   */\n      dup3\n        /* \"#utility.yul\":22170:22190   */\n      tag_698\n      jump\t// in\n    tag_764:\n        /* \"#utility.yul\":22165:22190   */\n      swap2\n      pop\n        /* \"#utility.yul\":22204:22224   */\n      tag_765\n        /* \"#utility.yul\":22222:22223   */\n      dup4\n        /* \"#utility.yul\":22204:22224   */\n      tag_698\n      jump\t// in\n    tag_765:\n        /* \"#utility.yul\":22199:22224   */\n      swap3\n      pop\n        /* \"#utility.yul\":22358:22359   */\n      dup3\n        /* \"#utility.yul\":22290:22356   */\n      0xffffffffffffffffffffffffffffffffffffffffffffffffffffffffffffffff\n        /* \"#utility.yul\":22286:22360   */\n      sub\n        /* \"#utility.yul\":22283:22284   */\n      dup3\n        /* \"#utility.yul\":22280:22361   */\n      gt\n        /* \"#utility.yul\":22277:22384   */\n      iszero\n      tag_766\n      jumpi\n        /* \"#utility.yul\":22364:22382   */\n      tag_767\n      tag_768\n      jump\t// in\n    tag_767:\n        /* \"#utility.yul\":22277:22384   */\n    tag_766:\n        /* \"#utility.yul\":22408:22409   */\n      dup3\n        /* \"#utility.yul\":22405:22406   */\n      dup3\n        /* \"#utility.yul\":22401:22410   */\n      add\n        /* \"#utility.yul\":22394:22410   */\n      swap1\n      pop\n        /* \"#utility.yul\":22111:22416   */\n      swap3\n      swap2\n      pop\n      pop\n      jump\t// out\n        /* \"#utility.yul\":22422:22607   */\n    tag_96:\n        /* \"#utility.yul\":22462:22463   */\n      0x00\n        /* \"#utility.yul\":22479:22499   */\n      tag_770\n        /* \"#utility.yul\":22497:22498   */\n      dup3\n        /* \"#utility.yul\":22479:22499   */\n      tag_698\n      jump\t// in\n    tag_770:\n        /* \"#utility.yul\":22474:22499   */\n      swap2\n      pop\n        /* \"#utility.yul\":22513:22533   */\n      tag_771\n        /* \"#utility.yul\":22531:22532   */\n      dup4\n        /* \"#utility.yul\":22513:22533   */\n      tag_698\n      jump\t// in\n    tag_771:\n        /* \"#utility.yul\":22508:22533   */\n      swap3\n      pop\n        /* \"#utility.yul\":22552:22553   */\n      dup3\n        /* \"#utility.yul\":22542:22577   */\n      tag_772\n      jumpi\n        /* \"#utility.yul\":22557:22575   */\n      tag_773\n      tag_774\n      jump\t// in\n    tag_773:\n        /* \"#utility.yul\":22542:22577   */\n    tag_772:\n        /* \"#utility.yul\":22599:22600   */\n      dup3\n        /* \"#utility.yul\":22596:22597   */\n      dup3\n        /* \"#utility.yul\":22592:22601   */\n      div\n        /* \"#utility.yul\":22587:22601   */\n      swap1\n      pop\n        /* \"#utility.yul\":22422:22607   */\n      swap3\n      swap2\n      pop\n      pop\n      jump\t// out\n        /* \"#utility.yul\":22613:22961   */\n    tag_341:\n        /* \"#utility.yul\":22653:22660   */\n      0x00\n        /* \"#utility.yul\":22676:22696   */\n      tag_776\n        /* \"#utility.yul\":22694:22695   */\n      dup3\n        /* \"#utility.yul\":22676:22696   */\n      tag_698\n      jump\t// in\n    tag_776:\n        /* \"#utility.yul\":22671:22696   */\n      swap2\n      pop\n        /* \"#utility.yul\":22710:22730   */\n      tag_777\n        /* \"#utility.yul\":22728:22729   */\n      dup4\n        /* \"#utility.yul\":22710:22730   */\n      tag_698\n      jump\t// in\n    tag_777:\n        /* \"#utility.yul\":22705:22730   */\n      swap3\n      pop\n        /* \"#utility.yul\":22898:22899   */\n      dup2\n        /* \"#utility.yul\":22830:22896   */\n      0xffffffffffffffffffffffffffffffffffffffffffffffffffffffffffffffff\n        /* \"#utility.yul\":22826:22900   */\n      div\n        /* \"#utility.yul\":22823:22824   */\n      dup4\n        /* \"#utility.yul\":22820:22901   */\n      gt\n        /* \"#utility.yul\":22815:22816   */\n      dup3\n        /* \"#utility.yul\":22808:22817   */\n      iszero\n        /* \"#utility.yul\":22801:22818   */\n      iszero\n        /* \"#utility.yul\":22797:22902   */\n      and\n        /* \"#utility.yul\":22794:22925   */\n      iszero\n      tag_778\n      jumpi\n        /* \"#utility.yul\":22905:22923   */\n      tag_779\n      tag_768\n      jump\t// in\n    tag_779:\n        /* \"#utility.yul\":22794:22925   */\n    tag_778:\n        /* \"#utility.yul\":22953:22954   */\n      dup3\n        /* \"#utility.yul\":22950:22951   */\n      dup3\n        /* \"#utility.yul\":22946:22955   */\n      mul\n        /* \"#utility.yul\":22935:22955   */\n      swap1\n      pop\n        /* \"#utility.yul\":22613:22961   */\n      swap3\n      swap2\n      pop\n      pop\n      jump\t// out\n        /* \"#utility.yul\":22967:23158   */\n    tag_140:\n        /* \"#utility.yul\":23007:23011   */\n      0x00\n        /* \"#utility.yul\":23027:23047   */\n      tag_781\n        /* \"#utility.yul\":23045:23046   */\n      dup3\n        /* \"#utility.yul\":23027:23047   */\n      tag_698\n      jump\t// in\n    tag_781:\n        /* \"#utility.yul\":23022:23047   */\n      swap2\n      pop\n        /* \"#utility.yul\":23061:23081   */\n      tag_782\n        /* \"#utility.yul\":23079:23080   */\n      dup4\n        /* \"#utility.yul\":23061:23081   */\n      tag_698\n      jump\t// in\n    tag_782:\n        /* \"#utility.yul\":23056:23081   */\n      swap3\n      pop\n        /* \"#utility.yul\":23100:23101   */\n      dup3\n        /* \"#utility.yul\":23097:23098   */\n      dup3\n        /* \"#utility.yul\":23094:23102   */\n      lt\n        /* \"#utility.yul\":23091:23125   */\n      iszero\n      tag_783\n      jumpi\n        /* \"#utility.yul\":23105:23123   */\n      tag_784\n      tag_768\n      jump\t// in\n    tag_784:\n        /* \"#utility.yul\":23091:23125   */\n    tag_783:\n        /* \"#utility.yul\":23150:23151   */\n      dup3\n        /* \"#utility.yul\":23147:23148   */\n      dup3\n        /* \"#utility.yul\":23143:23152   */\n      sub\n        /* \"#utility.yul\":23135:23152   */\n      swap1\n      pop\n        /* \"#utility.yul\":22967:23158   */\n      swap3\n      swap2\n      pop\n      pop\n      jump\t// out\n        /* \"#utility.yul\":23164:23260   */\n    tag_597:\n        /* \"#utility.yul\":23201:23208   */\n      0x00\n        /* \"#utility.yul\":23230:23254   */\n      tag_786\n        /* \"#utility.yul\":23248:23253   */\n      dup3\n        /* \"#utility.yul\":23230:23254   */\n      tag_787\n      jump\t// in\n    tag_786:\n        /* \"#utility.yul\":23219:23254   */\n      swap1\n      pop\n        /* \"#utility.yul\":23164:23260   */\n      swap2\n      swap1\n      pop\n      jump\t// out\n        /* \"#utility.yul\":23266:23356   */\n    tag_615:\n        /* \"#utility.yul\":23300:23307   */\n      0x00\n        /* \"#utility.yul\":23343:23348   */\n      dup2\n        /* \"#utility.yul\":23336:23349   */\n      iszero\n        /* \"#utility.yul\":23329:23350   */\n      iszero\n        /* \"#utility.yul\":23318:23350   */\n      swap1\n      pop\n        /* \"#utility.yul\":23266:23356   */\n      swap2\n      swap1\n      pop\n      jump\t// out\n        /* \"#utility.yul\":23362:23439   */\n    tag_618:\n        /* \"#utility.yul\":23399:23406   */\n      0x00\n        /* \"#utility.yul\":23428:23433   */\n      dup2\n        /* \"#utility.yul\":23417:23433   */\n      swap1\n      pop\n        /* \"#utility.yul\":23362:23439   */\n      swap2\n      swap1\n      pop\n      jump\t// out\n        /* \"#utility.yul\":23445:23571   */\n    tag_787:\n        /* \"#utility.yul\":23482:23489   */\n      0x00\n        /* \"#utility.yul\":23522:23564   */\n      0xffffffffffffffffffffffffffffffffffffffff\n        /* \"#utility.yul\":23515:23520   */\n      dup3\n        /* \"#utility.yul\":23511:23565   */\n      and\n        /* \"#utility.yul\":23500:23565   */\n      swap1\n      pop\n        /* \"#utility.yul\":23445:23571   */\n      swap2\n      swap1\n      pop\n      jump\t// out\n        /* \"#utility.yul\":23577:23654   */\n    tag_698:\n        /* \"#utility.yul\":23614:23621   */\n      0x00\n        /* \"#utility.yul\":23643:23648   */\n      dup2\n        /* \"#utility.yul\":23632:23648   */\n      swap1\n      pop\n        /* \"#utility.yul\":23577:23654   */\n      swap2\n      swap1\n      pop\n      jump\t// out\n        /* \"#utility.yul\":23660:23814   */\n    tag_513:\n        /* \"#utility.yul\":23744:23750   */\n      dup3\n        /* \"#utility.yul\":23739:23742   */\n      dup2\n        /* \"#utility.yul\":23734:23737   */\n      dup4\n        /* \"#utility.yul\":23721:23751   */\n      calldatacopy\n        /* \"#utility.yul\":23806:23807   */\n      0x00\n        /* \"#utility.yul\":23797:23803   */\n      dup4\n        /* \"#utility.yul\":23792:23795   */\n      dup4\n        /* \"#utility.yul\":23788:23804   */\n      add\n        /* \"#utility.yul\":23781:23808   */\n      mstore\n        /* \"#utility.yul\":23660:23814   */\n      pop\n      pop\n      pop\n      jump\t// out\n        /* \"#utility.yul\":23820:24127   */\n    tag_634:\n        /* \"#utility.yul\":23888:23889   */\n      0x00\n        /* \"#utility.yul\":23898:24011   */\n    tag_794:\n        /* \"#utility.yul\":23912:23918   */\n      dup4\n        /* \"#utility.yul\":23909:23910   */\n      dup2\n        /* \"#utility.yul\":23906:23919   */\n      lt\n        /* \"#utility.yul\":23898:24011   */\n      iszero\n      tag_796\n      jumpi\n        /* \"#utility.yul\":23997:23998   */\n      dup1\n        /* \"#utility.yul\":23992:23995   */\n      dup3\n        /* \"#utility.yul\":23988:23999   */\n      add\n        /* \"#utility.yul\":23982:24000   */\n      mload\n        /* \"#utility.yul\":23978:23979   */\n      dup2\n        /* \"#utility.yul\":23973:23976   */\n      dup5\n        /* \"#utility.yul\":23969:23980   */\n      add\n        /* \"#utility.yul\":23962:24001   */\n      mstore\n        /* \"#utility.yul\":23934:23936   */\n      0x20\n        /* \"#utility.yul\":23931:23932   */\n      dup2\n        /* \"#utility.yul\":23927:23937   */\n      add\n        /* \"#utility.yul\":23922:23937   */\n      swap1\n      pop\n        /* \"#utility.yul\":23898:24011   */\n      jump(tag_794)\n    tag_796:\n        /* \"#utility.yul\":24029:24035   */\n      dup4\n        /* \"#utility.yul\":24026:24027   */\n      dup2\n        /* \"#utility.yul\":24023:24036   */\n      gt\n        /* \"#utility.yul\":24020:24121   */\n      iszero\n      tag_797\n      jumpi\n        /* \"#utility.yul\":24109:24110   */\n      0x00\n        /* \"#utility.yul\":24100:24106   */\n      dup5\n        /* \"#utility.yul\":24095:24098   */\n      dup5\n        /* \"#utility.yul\":24091:24107   */\n      add\n        /* \"#utility.yul\":24084:24111   */\n      mstore\n        /* \"#utility.yul\":24020:24121   */\n    tag_797:\n        /* \"#utility.yul\":23869:24127   */\n      pop\n        /* \"#utility.yul\":23820:24127   */\n      pop\n      pop\n      pop\n      jump\t// out\n        /* \"#utility.yul\":24133:24453   */\n    tag_109:\n        /* \"#utility.yul\":24177:24183   */\n      0x00\n        /* \"#utility.yul\":24214:24215   */\n      0x02\n        /* \"#utility.yul\":24208:24212   */\n      dup3\n        /* \"#utility.yul\":24204:24216   */\n      div\n        /* \"#utility.yul\":24194:24216   */\n      swap1\n      pop\n        /* \"#utility.yul\":24261:24262   */\n      0x01\n        /* \"#utility.yul\":24255:24259   */\n      dup3\n        /* \"#utility.yul\":24251:24263   */\n      and\n        /* \"#utility.yul\":24282:24300   */\n      dup1\n        /* \"#utility.yul\":24272:24353   */\n      tag_799\n      jumpi\n        /* \"#utility.yul\":24338:24342   */\n      0x7f\n        /* \"#utility.yul\":24330:24336   */\n      dup3\n        /* \"#utility.yul\":24326:24343   */\n      and\n        /* \"#utility.yul\":24316:24343   */\n      swap2\n      pop\n        /* \"#utility.yul\":24272:24353   */\n    tag_799:\n        /* \"#utility.yul\":24400:24402   */\n      0x20\n        /* \"#utility.yul\":24392:24398   */\n      dup3\n        /* \"#utility.yul\":24389:24403   */\n      lt\n        /* \"#utility.yul\":24369:24387   */\n      dup2\n        /* \"#utility.yul\":24366:24404   */\n      eq\n        /* \"#utility.yul\":24363:24447   */\n      iszero\n      tag_800\n      jumpi\n        /* \"#utility.yul\":24419:24437   */\n      tag_801\n      tag_802\n      jump\t// in\n    tag_801:\n        /* \"#utility.yul\":24363:24447   */\n    tag_800:\n        /* \"#utility.yul\":24184:24453   */\n      pop\n        /* \"#utility.yul\":24133:24453   */\n      swap2\n      swap1\n      pop\n      jump\t// out\n        /* \"#utility.yul\":24459:24740   */\n    tag_750:\n        /* \"#utility.yul\":24542:24569   */\n      tag_804\n        /* \"#utility.yul\":24564:24568   */\n      dup3\n        /* \"#utility.yul\":24542:24569   */\n      tag_636\n      jump\t// in\n    tag_804:\n        /* \"#utility.yul\":24534:24540   */\n      dup2\n        /* \"#utility.yul\":24530:24570   */\n      add\n        /* \"#utility.yul\":24672:24678   */\n      dup2\n        /* \"#utility.yul\":24660:24670   */\n      dup2\n        /* \"#utility.yul\":24657:24679   */\n      lt\n        /* \"#utility.yul\":24636:24654   */\n      0xffffffffffffffff\n        /* \"#utility.yul\":24624:24634   */\n      dup3\n        /* \"#utility.yul\":24621:24655   */\n      gt\n        /* \"#utility.yul\":24618:24680   */\n      or\n        /* \"#utility.yul\":24615:24703   */\n      iszero\n      tag_805\n      jumpi\n        /* \"#utility.yul\":24683:24701   */\n      tag_806\n      tag_428\n      jump\t// in\n    tag_806:\n        /* \"#utility.yul\":24615:24703   */\n    tag_805:\n        /* \"#utility.yul\":24723:24733   */\n      dup1\n        /* \"#utility.yul\":24719:24721   */\n      0x40\n        /* \"#utility.yul\":24712:24734   */\n      mstore\n        /* \"#utility.yul\":24502:24740   */\n      pop\n        /* \"#utility.yul\":24459:24740   */\n      pop\n      pop\n      jump\t// out\n        /* \"#utility.yul\":24746:24979   */\n    tag_383:\n        /* \"#utility.yul\":24785:24788   */\n      0x00\n        /* \"#utility.yul\":24808:24832   */\n      tag_808\n        /* \"#utility.yul\":24826:24831   */\n      dup3\n        /* \"#utility.yul\":24808:24832   */\n      tag_698\n      jump\t// in\n    tag_808:\n        /* \"#utility.yul\":24799:24832   */\n      swap2\n      pop\n        /* \"#utility.yul\":24854:24920   */\n      0xffffffffffffffffffffffffffffffffffffffffffffffffffffffffffffffff\n        /* \"#utility.yul\":24847:24852   */\n      dup3\n        /* \"#utility.yul\":24844:24921   */\n      eq\n        /* \"#utility.yul\":24841:24944   */\n      iszero\n      tag_809\n      jumpi\n        /* \"#utility.yul\":24924:24942   */\n      tag_810\n      tag_768\n      jump\t// in\n    tag_810:\n        /* \"#utility.yul\":24841:24944   */\n    tag_809:\n        /* \"#utility.yul\":24971:24972   */\n      0x01\n        /* \"#utility.yul\":24964:24969   */\n      dup3\n        /* \"#utility.yul\":24960:24973   */\n      add\n        /* \"#utility.yul\":24953:24973   */\n      swap1\n      pop\n        /* \"#utility.yul\":24746:24979   */\n      swap2\n      swap1\n      pop\n      jump\t// out\n        /* \"#utility.yul\":24985:25064   */\n    tag_626:\n        /* \"#utility.yul\":25024:25031   */\n      0x00\n        /* \"#utility.yul\":25053:25058   */\n      dup2\n        /* \"#utility.yul\":25042:25058   */\n      swap1\n      pop\n        /* \"#utility.yul\":24985:25064   */\n      swap2\n      swap1\n      pop\n      jump\t// out\n        /* \"#utility.yul\":25070:25149   */\n    tag_706:\n        /* \"#utility.yul\":25109:25116   */\n      0x00\n        /* \"#utility.yul\":25138:25143   */\n      dup2\n        /* \"#utility.yul\":25127:25143   */\n      swap1\n      pop\n        /* \"#utility.yul\":25070:25149   */\n      swap2\n      swap1\n      pop\n      jump\t// out\n        /* \"#utility.yul\":25155:25335   */\n    tag_768:\n        /* \"#utility.yul\":25203:25280   */\n      0x4e487b7100000000000000000000000000000000000000000000000000000000\n        /* \"#utility.yul\":25200:25201   */\n      0x00\n        /* \"#utility.yul\":25193:25281   */\n      mstore\n        /* \"#utility.yul\":25300:25304   */\n      0x11\n        /* \"#utility.yul\":25297:25298   */\n      0x04\n        /* \"#utility.yul\":25290:25305   */\n      mstore\n        /* \"#utility.yul\":25324:25328   */\n      0x24\n        /* \"#utility.yul\":25321:25322   */\n      0x00\n        /* \"#utility.yul\":25314:25329   */\n      revert\n        /* \"#utility.yul\":25341:25521   */\n    tag_774:\n        /* \"#utility.yul\":25389:25466   */\n      0x4e487b7100000000000000000000000000000000000000000000000000000000\n        /* \"#utility.yul\":25386:25387   */\n      0x00\n        /* \"#utility.yul\":25379:25467   */\n      mstore\n        /* \"#utility.yul\":25486:25490   */\n      0x12\n        /* \"#utility.yul\":25483:25484   */\n      0x04\n        /* \"#utility.yul\":25476:25491   */\n      mstore\n        /* \"#utility.yul\":25510:25514   */\n      0x24\n        /* \"#utility.yul\":25507:25508   */\n      0x00\n        /* \"#utility.yul\":25500:25515   */\n      revert\n        /* \"#utility.yul\":25527:25707   */\n    tag_802:\n        /* \"#utility.yul\":25575:25652   */\n      0x4e487b7100000000000000000000000000000000000000000000000000000000\n        /* \"#utility.yul\":25572:25573   */\n      0x00\n        /* \"#utility.yul\":25565:25653   */\n      mstore\n        /* \"#utility.yul\":25672:25676   */\n      0x22\n        /* \"#utility.yul\":25669:25670   */\n      0x04\n        /* \"#utility.yul\":25662:25677   */\n      mstore\n        /* \"#utility.yul\":25696:25700   */\n      0x24\n        /* \"#utility.yul\":25693:25694   */\n      0x00\n        /* \"#utility.yul\":25686:25701   */\n      revert\n        /* \"#utility.yul\":25713:25893   */\n    tag_319:\n        /* \"#utility.yul\":25761:25838   */\n      0x4e487b7100000000000000000000000000000000000000000000000000000000\n        /* \"#utility.yul\":25758:25759   */\n      0x00\n        /* \"#utility.yul\":25751:25839   */\n      mstore\n        /* \"#utility.yul\":25858:25862   */\n      0x32\n        /* \"#utility.yul\":25855:25856   */\n      0x04\n        /* \"#utility.yul\":25848:25863   */\n      mstore\n        /* \"#utility.yul\":25882:25886   */\n      0x24\n        /* \"#utility.yul\":25879:25880   */\n      0x00\n        /* \"#utility.yul\":25872:25887   */\n      revert\n        /* \"#utility.yul\":25899:26079   */\n    tag_428:\n        /* \"#utility.yul\":25947:26024   */\n      0x4e487b7100000000000000000000000000000000000000000000000000000000\n        /* \"#utility.yul\":25944:25945   */\n      0x00\n        /* \"#utility.yul\":25937:26025   */\n      mstore\n        /* \"#utility.yul\":26044:26048   */\n      0x41\n        /* \"#utility.yul\":26041:26042   */\n      0x04\n        /* \"#utility.yul\":26034:26049   */\n      mstore\n        /* \"#utility.yul\":26068:26072   */\n      0x24\n        /* \"#utility.yul\":26065:26066   */\n      0x00\n        /* \"#utility.yul\":26058:26073   */\n      revert\n        /* \"#utility.yul\":26085:26202   */\n    tag_530:\n        /* \"#utility.yul\":26194:26195   */\n      0x00\n        /* \"#utility.yul\":26191:26192   */\n      dup1\n        /* \"#utility.yul\":26184:26196   */\n      revert\n        /* \"#utility.yul\":26208:26325   */\n    tag_511:\n        /* \"#utility.yul\":26317:26318   */\n      0x00\n        /* \"#utility.yul\":26314:26315   */\n      dup1\n        /* \"#utility.yul\":26307:26319   */\n      revert\n        /* \"#utility.yul\":26331:26448   */\n    tag_581:\n        /* \"#utility.yul\":26440:26441   */\n      0x00\n        /* \"#utility.yul\":26437:26438   */\n      dup1\n        /* \"#utility.yul\":26430:26442   */\n      revert\n        /* \"#utility.yul\":26454:26571   */\n    tag_539:\n        /* \"#utility.yul\":26563:26564   */\n      0x00\n        /* \"#utility.yul\":26560:26561   */\n      dup1\n        /* \"#utility.yul\":26553:26565   */\n      revert\n        /* \"#utility.yul\":26577:26679   */\n    tag_636:\n        /* \"#utility.yul\":26618:26624   */\n      0x00\n        /* \"#utility.yul\":26669:26671   */\n      0x1f\n        /* \"#utility.yul\":26665:26672   */\n      not\n        /* \"#utility.yul\":26660:26662   */\n      0x1f\n        /* \"#utility.yul\":26653:26658   */\n      dup4\n        /* \"#utility.yul\":26649:26663   */\n      add\n        /* \"#utility.yul\":26645:26673   */\n      and\n        /* \"#utility.yul\":26635:26673   */\n      swap1\n      pop\n        /* \"#utility.yul\":26577:26679   */\n      swap2\n      swap1\n      pop\n      jump\t// out\n        /* \"#utility.yul\":26685:26860   */\n    tag_647:\n        /* \"#utility.yul\":26825:26852   */\n      0x4f6e6c79206f776e65722063616e2063616c6c20746869732e00000000000000\n        /* \"#utility.yul\":26821:26822   */\n      0x00\n        /* \"#utility.yul\":26813:26819   */\n      dup3\n        /* \"#utility.yul\":26809:26823   */\n      add\n        /* \"#utility.yul\":26802:26853   */\n      mstore\n        /* \"#utility.yul\":26685:26860   */\n      pop\n      jump\t// out\n        /* \"#utility.yul\":26866:27025   */\n    tag_652:\n        /* \"#utility.yul\":27006:27017   */\n      0x6e6f742065786973740000000000000000000000000000000000000000000000\n        /* \"#utility.yul\":27002:27003   */\n      0x00\n        /* \"#utility.yul\":26994:27000   */\n      dup3\n        /* \"#utility.yul\":26990:27004   */\n      add\n        /* \"#utility.yul\":26983:27018   */\n      mstore\n        /* \"#utility.yul\":26866:27025   */\n      pop\n      jump\t// out\n        /* \"#utility.yul\":27031:27195   */\n    tag_657:\n        /* \"#utility.yul\":27171:27187   */\n      0x706f6f6c206e6f74206578697374000000000000000000000000000000000000\n        /* \"#utility.yul\":27167:27168   */\n      0x00\n        /* \"#utility.yul\":27159:27165   */\n      dup3\n        /* \"#utility.yul\":27155:27169   */\n      add\n        /* \"#utility.yul\":27148:27188   */\n      mstore\n        /* \"#utility.yul\":27031:27195   */\n      pop\n      jump\t// out\n        /* \"#utility.yul\":27201:27374   */\n    tag_662:\n        /* \"#utility.yul\":27341:27366   */\n      0x706f6f6c20626173616c20686173206265656e20736574000000000000000000\n        /* \"#utility.yul\":27337:27338   */\n      0x00\n        /* \"#utility.yul\":27329:27335   */\n      dup3\n        /* \"#utility.yul\":27325:27339   */\n      add\n        /* \"#utility.yul\":27318:27367   */\n      mstore\n        /* \"#utility.yul\":27201:27374   */\n      pop\n      jump\t// out\n        /* \"#utility.yul\":27380:27540   */\n    tag_667:\n        /* \"#utility.yul\":27520:27532   */\n      0x7061697220657869737400000000000000000000000000000000000000000000\n        /* \"#utility.yul\":27516:27517   */\n      0x00\n        /* \"#utility.yul\":27508:27514   */\n      dup3\n        /* \"#utility.yul\":27504:27518   */\n      add\n        /* \"#utility.yul\":27497:27533   */\n      mstore\n        /* \"#utility.yul\":27380:27540   */\n      pop\n      jump\t// out\n        /* \"#utility.yul\":27546:27717   */\n    tag_672:\n        /* \"#utility.yul\":27686:27709   */\n      0x706f6f6c20686173206e6f742066696e69736865640000000000000000000000\n        /* \"#utility.yul\":27682:27683   */\n      0x00\n        /* \"#utility.yul\":27674:27680   */\n      dup3\n        /* \"#utility.yul\":27670:27684   */\n      add\n        /* \"#utility.yul\":27663:27710   */\n      mstore\n        /* \"#utility.yul\":27546:27717   */\n      pop\n      jump\t// out\n        /* \"#utility.yul\":27723:27894   */\n    tag_677:\n        /* \"#utility.yul\":27863:27886   */\n      0x6e6f7420656e6f75676820766f7465416d6f756e740000000000000000000000\n        /* \"#utility.yul\":27859:27860   */\n      0x00\n        /* \"#utility.yul\":27851:27857   */\n      dup3\n        /* \"#utility.yul\":27847:27861   */\n      add\n        /* \"#utility.yul\":27840:27887   */\n      mstore\n        /* \"#utility.yul\":27723:27894   */\n      pop\n      jump\t// out\n        /* \"#utility.yul\":27900:28066   */\n    tag_682:\n        /* \"#utility.yul\":28040:28058   */\n      0x6e6f7420656e6f75676820626173616c00000000000000000000000000000000\n        /* \"#utility.yul\":28036:28037   */\n      0x00\n        /* \"#utility.yul\":28028:28034   */\n      dup3\n        /* \"#utility.yul\":28024:28038   */\n      add\n        /* \"#utility.yul\":28017:28059   */\n      mstore\n        /* \"#utility.yul\":27900:28066   */\n      pop\n      jump\t// out\n        /* \"#utility.yul\":28072:28239   */\n    tag_687:\n        /* \"#utility.yul\":28212:28231   */\n      0x706f6f6c206861732066696e6973686564000000000000000000000000000000\n        /* \"#utility.yul\":28208:28209   */\n      0x00\n        /* \"#utility.yul\":28200:28206   */\n      dup3\n        /* \"#utility.yul\":28196:28210   */\n      add\n        /* \"#utility.yul\":28189:28232   */\n      mstore\n        /* \"#utility.yul\":28072:28239   */\n      pop\n      jump\t// out\n        /* \"#utility.yul\":28245:28367   */\n    tag_517:\n        /* \"#utility.yul\":28318:28342   */\n      tag_833\n        /* \"#utility.yul\":28336:28341   */\n      dup2\n        /* \"#utility.yul\":28318:28342   */\n      tag_597\n      jump\t// in\n    tag_833:\n        /* \"#utility.yul\":28311:28316   */\n      dup2\n        /* \"#utility.yul\":28308:28343   */\n      eq\n        /* \"#utility.yul\":28298:28361   */\n      tag_834\n      jumpi\n        /* \"#utility.yul\":28357:28358   */\n      0x00\n        /* \"#utility.yul\":28354:28355   */\n      dup1\n        /* \"#utility.yul\":28347:28359   */\n      revert\n        /* \"#utility.yul\":28298:28361   */\n    tag_834:\n        /* \"#utility.yul\":28245:28367   */\n      pop\n      jump\t// out\n        /* \"#utility.yul\":28373:28489   */\n    tag_521:\n        /* \"#utility.yul\":28443:28464   */\n      tag_836\n        /* \"#utility.yul\":28458:28463   */\n      dup2\n        /* \"#utility.yul\":28443:28464   */\n      tag_615\n      jump\t// in\n    tag_836:\n        /* \"#utility.yul\":28436:28441   */\n      dup2\n        /* \"#utility.yul\":28433:28465   */\n      eq\n        /* \"#utility.yul\":28423:28483   */\n      tag_837\n      jumpi\n        /* \"#utility.yul\":28479:28480   */\n      0x00\n        /* \"#utility.yul\":28476:28477   */\n      dup1\n        /* \"#utility.yul\":28469:28481   */\n      revert\n        /* \"#utility.yul\":28423:28483   */\n    tag_837:\n        /* \"#utility.yul\":28373:28489   */\n      pop\n      jump\t// out\n        /* \"#utility.yul\":28495:28617   */\n    tag_525:\n        /* \"#utility.yul\":28568:28592   */\n      tag_839\n        /* \"#utility.yul\":28586:28591   */\n      dup2\n        /* \"#utility.yul\":28568:28592   */\n      tag_618\n      jump\t// in\n    tag_839:\n        /* \"#utility.yul\":28561:28566   */\n      dup2\n        /* \"#utility.yul\":28558:28593   */\n      eq\n        /* \"#utility.yul\":28548:28611   */\n      tag_840\n      jumpi\n        /* \"#utility.yul\":28607:28608   */\n      0x00\n        /* \"#utility.yul\":28604:28605   */\n      dup1\n        /* \"#utility.yul\":28597:28609   */\n      revert\n        /* \"#utility.yul\":28548:28611   */\n    tag_840:\n        /* \"#utility.yul\":28495:28617   */\n      pop\n      jump\t// out\n        /* \"#utility.yul\":28623:28745   */\n    tag_535:\n        /* \"#utility.yul\":28696:28720   */\n      tag_842\n        /* \"#utility.yul\":28714:28719   */\n      dup2\n        /* \"#utility.yul\":28696:28720   */\n      tag_698\n      jump\t// in\n    tag_842:\n        /* \"#utility.yul\":28689:28694   */\n      dup2\n        /* \"#utility.yul\":28686:28721   */\n      eq\n        /* \"#utility.yul\":28676:28739   */\n      tag_843\n      jumpi\n        /* \"#utility.yul\":28735:28736   */\n      0x00\n        /* \"#utility.yul\":28732:28733   */\n      dup1\n        /* \"#utility.yul\":28725:28737   */\n      revert\n        /* \"#utility.yul\":28676:28739   */\n    tag_843:\n        /* \"#utility.yul\":28623:28745   */\n      pop\n      jump\t// out\n\n    auxdata: 0xa264697066735822122028dfbd91a03ceb6253c22e4f217984381956812b83d6c900ea37b20820a1951a64736f6c63430008070033\n}\n",
				"bytecode": {
					"linkReferences": {},
					"object": "60806040523480156200001157600080fd5b506040516200431f3803806200431f8339818101604052810190620000379190620000bc565b816000806101000a81548173ffffffffffffffffffffffffffffffffffffffff021916908373ffffffffffffffffffffffffffffffffffffffff16021790555060006003819055508060018190555050506200017a565b6000815190506200009f8162000146565b92915050565b600081519050620000b68162000160565b92915050565b60008060408385031215620000d657620000d562000141565b5b6000620000e6858286016200008e565b9250506020620000f985828601620000a5565b9150509250929050565b6000620001108262000117565b9050919050565b600073ffffffffffffffffffffffffffffffffffffffff82169050919050565b6000819050919050565b600080fd5b620001518162000103565b81146200015d57600080fd5b50565b6200016b8162000137565b81146200017757600080fd5b50565b614195806200018a6000396000f3fe6080604052600436106100ab5760003560e01c806347e4dd271161006457806347e4dd271461031357806374fe9bc2146103505780639bd0abf114610380578063a20a4cb4146103b0578063baf41269146103db578063f6c0092714610406576101cc565b80630ce49053146101d15780632775e02c146102015780632bf21ecc14610231578063357965ba1461026e5780633e6ff1a2146102ab5780634121855f146102d6576101cc565b366101cc5760008054906101000a900473ffffffffffffffffffffffffffffffffffffffff1673ffffffffffffffffffffffffffffffffffffffff163373ffffffffffffffffffffffffffffffffffffffff16146101c95761011d662386f26fc100003461044590919063ffffffff16565b600460003373ffffffffffffffffffffffffffffffffffffffff1673ffffffffffffffffffffffffffffffffffffffff168152602001908152602001600020600082825461016b9190613c19565b9250508190555034600360008282546101849190613c19565b925050819055507f88a5966d370b9919b20f3e2c13ff65706f196a4e32cc2c12bf57088f8852587433346040516101bc929190613962565b60405180910390a16101ca565b5b005b600080fd5b6101eb60048036038101906101e6919061336e565b61046d565b6040516101f891906139ad565b60405180910390f35b61021b60048036038101906102169190613341565b6108a9565b60405161022891906139ad565b60405180910390f35b34801561023d57600080fd5b50610258600480360381019061025391906134a8565b61099e565b60405161026591906139ad565b60405180910390f35b34801561027a57600080fd5b506102956004803603810190610290919061354f565b610d9d565b6040516102a291906139c8565b60405180910390f35b3480156102b757600080fd5b506102c061108e565b6040516102cd9190613b48565b60405180910390f35b3480156102e257600080fd5b506102fd60048036038101906102f8919061347b565b611127565b60405161030a9190613b48565b60405180910390f35b34801561031f57600080fd5b5061033a600480360381019061033591906133ee565b6114be565b60405161034791906139ad565b60405180910390f35b61036a600480360381019061036591906134e8565b611c10565b60405161037791906139ad565b60405180910390f35b61039a600480360381019061039591906133ae565b612683565b6040516103a791906139ad565b60405180910390f35b3480156103bc57600080fd5b506103c561287e565b6040516103d2919061398b565b60405180910390f35b3480156103e757600080fd5b506103f06128d6565b6040516103fd9190613b48565b60405180910390f35b34801561041257600080fd5b5061042d6004803603810190610428919061347b565b61291d565b60405161043c939291906139e3565b60405180910390f35b600080821161045357600080fd5b600082846104619190613c6f565b90508091505092915050565b60008060009054906101000a900473ffffffffffffffffffffffffffffffffffffffff1673ffffffffffffffffffffffffffffffffffffffff163373ffffffffffffffffffffffffffffffffffffffff16146104fe576040517f08c379a00000000000000000000000000000000000000000000000000000000081526004016104f590613a28565b60405180910390fd5b61050782612c47565b610546576040517f08c379a000000000000000000000000000000000000000000000000000000000815260040161053d90613a68565b60405180910390fd5b6000600560008481526020019081526020016000206040518061016001604052908160008201805461057790613dc2565b80601f01602080910402602001604051908101604052809291908181526020018280546105a390613dc2565b80156105f05780601f106105c5576101008083540402835291602001916105f0565b820191906000526020600020905b8154815290600101906020018083116105d357829003601f168201915b5050505050815260200160018201805461060990613dc2565b80601f016020809104026020016040519081016040528092919081815260200182805461063590613dc2565b80156106825780601f1061065757610100808354040283529160200191610682565b820191906000526020600020905b81548152906001019060200180831161066557829003601f168201915b5050505050815260200160028201805461069b90613dc2565b80601f01602080910402602001604051908101604052809291908181526020018280546106c790613dc2565b80156107145780601f106106e957610100808354040283529160200191610714565b820191906000526020600020905b8154815290600101906020018083116106f757829003601f168201915b5050505050815260200160038201548152602001600482015481526020016005820154815260200160068201548152602001600782015481526020016008820160009054906101000a900460ff161515151581526020016008820160019054906101000a900460ff161515151581526020016008820160029054906101000a900460ff161515151581525050905060006107f8600a8360e001518460c0015185608001518660a0015187606001516107cc9190613c19565b6107d69190613c19565b6107e09190613c19565b6107ea9190613c19565b61044590919063ffffffff16565b90506001826101400190151590811515815250156108625760008590508073ffffffffffffffffffffffffffffffffffffffff166108fc839081150290604051600060405180830381858888f1935050505015801561085b573d6000803e3d6000fd5b505061089d565b6040517f08c379a000000000000000000000000000000000000000000000000000000000815260040161089490613ac8565b60405180910390fd5b50506001905092915050565b60008060009054906101000a900473ffffffffffffffffffffffffffffffffffffffff1673ffffffffffffffffffffffffffffffffffffffff163373ffffffffffffffffffffffffffffffffffffffff161461093a576040517f08c379a000000000000000000000000000000000000000000000000000000000815260040161093190613a28565b60405180910390fd5b60008290508073ffffffffffffffffffffffffffffffffffffffff166108fc60016003546109689190613cfa565b9081150290604051600060405180830381858888f19350505050158015610993573d6000803e3d6000fd5b506001915050919050565b60008060009054906101000a900473ffffffffffffffffffffffffffffffffffffffff1673ffffffffffffffffffffffffffffffffffffffff163373ffffffffffffffffffffffffffffffffffffffff1614610a2f576040517f08c379a0000000000000000000000000000000000000000000000000000000008152600401610a2690613a28565b60405180910390fd5b610a3883612c47565b610a77576040517f08c379a0000000000000000000000000000000000000000000000000000000008152600401610a6e90613a68565b60405180910390fd5b60006005600085815260200190815260200160002060405180610160016040529081600082018054610aa890613dc2565b80601f0160208091040260200160405190810160405280929190818152602001828054610ad490613dc2565b8015610b215780601f10610af657610100808354040283529160200191610b21565b820191906000526020600020905b815481529060010190602001808311610b0457829003601f168201915b50505050508152602001600182018054610b3a90613dc2565b80601f0160208091040260200160405190810160405280929190818152602001828054610b6690613dc2565b8015610bb35780601f10610b8857610100808354040283529160200191610bb3565b820191906000526020600020905b815481529060010190602001808311610b9657829003601f168201915b50505050508152602001600282018054610bcc90613dc2565b80601f0160208091040260200160405190810160405280929190818152602001828054610bf890613dc2565b8015610c455780601f10610c1a57610100808354040283529160200191610c45565b820191906000526020600020905b815481529060010190602001808311610c2857829003601f168201915b5050505050815260200160038201548152602001600482015481526020016005820154815260200160068201548152602001600782015481526020016008820160009054906101000a900460ff161515151581526020016008820160019054906101000a900460ff161515151581526020016008820160029054906101000a900460ff161515151581525050905060008160e001511115610d1b576040517f08c379a0000000000000000000000000000000000000000000000000000000008152600401610d1290613a88565b60405180910390fd5b826001541115610d60576040517f08c379a0000000000000000000000000000000000000000000000000000000008152600401610d5790613b08565b60405180910390fd5b828160e001818151610d729190613c19565b915081815250508260016000828254610d8b9190613cfa565b92505081905550600191505092915050565b60008060009054906101000a900473ffffffffffffffffffffffffffffffffffffffff1673ffffffffffffffffffffffffffffffffffffffff163373ffffffffffffffffffffffffffffffffffffffff1614610e2e576040517f08c379a0000000000000000000000000000000000000000000000000000000008152600401610e2590613a28565b60405180910390fd5b6000610e3a8686612c74565b90506000610e488286612c74565b9050600081604051602001610e5d9190613930565b604051602081830303815290604052805190602001209050610e7e81612c47565b15610ebe576040517f08c379a0000000000000000000000000000000000000000000000000000000008152600401610eb590613aa8565b60405180910390fd5b60016005600083815260200190815260200160002060080160016101000a81548160ff02191690831515021790555087600560008381526020019081526020016000206000019080519060200190610f179291906131ab565b5086600560008381526020019081526020016000206001019080519060200190610f429291906131ab565b5085600560008381526020019081526020016000206002019080519060200190610f6d9291906131ab565b506000600560008381526020019081526020016000206003018190555060006005600083815260200190815260200160002060040181905550600060056000838152602001908152602001600020600501819055506000600560008381526020019081526020016000206006018190555060006005600083815260200190815260200160002060070181905550846005600083815260200190815260200160002060080160006101000a81548160ff02191690831515021790555060006005600083815260200190815260200160002060080160026101000a81548160ff0219169083151502179055506002819080600181540180825580915050600190039060005260206000200160009091909190915055809350505050949350505050565b60008060009054906101000a900473ffffffffffffffffffffffffffffffffffffffff1673ffffffffffffffffffffffffffffffffffffffff163373ffffffffffffffffffffffffffffffffffffffff161461111f576040517f08c379a000000000000000000000000000000000000000000000000000000000815260040161111690613a28565b60405180910390fd5b600154905090565b60008060009054906101000a900473ffffffffffffffffffffffffffffffffffffffff1673ffffffffffffffffffffffffffffffffffffffff163373ffffffffffffffffffffffffffffffffffffffff16146111b8576040517f08c379a00000000000000000000000000000000000000000000000000000000081526004016111af90613a28565b60405180910390fd5b6111c182612c47565b611200576040517f08c379a00000000000000000000000000000000000000000000000000000000081526004016111f790613a68565b60405180910390fd5b6000600560008481526020019081526020016000206040518061016001604052908160008201805461123190613dc2565b80601f016020809104026020016040519081016040528092919081815260200182805461125d90613dc2565b80156112aa5780601f1061127f576101008083540402835291602001916112aa565b820191906000526020600020905b81548152906001019060200180831161128d57829003601f168201915b505050505081526020016001820180546112c390613dc2565b80601f01602080910402602001604051908101604052809291908181526020018280546112ef90613dc2565b801561133c5780601f106113115761010080835404028352916020019161133c565b820191906000526020600020905b81548152906001019060200180831161131f57829003601f168201915b5050505050815260200160028201805461135590613dc2565b80601f016020809104026020016040519081016040528092919081815260200182805461138190613dc2565b80156113ce5780601f106113a3576101008083540402835291602001916113ce565b820191906000526020600020905b8154815290600101906020018083116113b157829003601f168201915b5050505050815260200160038201548152602001600482015481526020016005820154815260200160068201548152602001600782015481526020016008820160009054906101000a900460ff161515151581526020016008820160019054906101000a900460ff161515151581526020016008820160029054906101000a900460ff161515151581525050905060006114b2600a8360e001518460c0015185608001518660a0015187606001516114869190613c19565b6114909190613c19565b61149a9190613c19565b6114a49190613c19565b61044590919063ffffffff16565b90508092505050919050565b60006114c985612c47565b611508576040517f08c379a00000000000000000000000000000000000000000000000000000000081526004016114ff90613a68565b60405180910390fd5b85600460008973ffffffffffffffffffffffffffffffffffffffff1673ffffffffffffffffffffffffffffffffffffffff16815260200190815260200160002054101561158a576040517f08c379a000000000000000000000000000000000000000000000000000000000815260040161158190613ae8565b60405180910390fd5b600060056000878152602001908152602001600020604051806101600160405290816000820180546115bb90613dc2565b80601f01602080910402602001604051908101604052809291908181526020018280546115e790613dc2565b80156116345780601f1061160957610100808354040283529160200191611634565b820191906000526020600020905b81548152906001019060200180831161161757829003601f168201915b5050505050815260200160018201805461164d90613dc2565b80601f016020809104026020016040519081016040528092919081815260200182805461167990613dc2565b80156116c65780601f1061169b576101008083540402835291602001916116c6565b820191906000526020600020905b8154815290600101906020018083116116a957829003601f168201915b505050505081526020016002820180546116df90613dc2565b80601f016020809104026020016040519081016040528092919081815260200182805461170b90613dc2565b80156117585780601f1061172d57610100808354040283529160200191611758565b820191906000526020600020905b81548152906001019060200180831161173b57829003601f168201915b5050505050815260200160038201548152602001600482015481526020016005820154815260200160068201548152602001600782015481526020016008820160009054906101000a900460ff161515151581526020016008820160019054906101000a900460ff161515151581526020016008820160029054906101000a900460ff161515151581525050905060006118026117f487612e0a565b6117fd87612e0a565b612c74565b9050600061181861181289612e3b565b83612c74565b905060006040518060e001604052808b81526020018781526020018981526020018881526020018c73ffffffffffffffffffffffffffffffffffffffff16815260200183815260200160001515815250905088600660008b815260200190815260200160002060010181905550600660008a81526020019081526020016000206000018190806001815401808255809150506001900390600052602060002090600702016000909190919091506000820151816000015560208201518160010155604082015181600201556060820151816003015560808201518160040160006101000a81548173ffffffffffffffffffffffffffffffffffffffff021916908373ffffffffffffffffffffffffffffffffffffffff16021790555060a08201518160050190805190602001906119509291906131ab565b5060c08201518160060160006101000a81548160ff02191690831515021790555050508a600860008d73ffffffffffffffffffffffffffffffffffffffff1673ffffffffffffffffffffffffffffffffffffffff16815260200190815260200160002060010160006101000a81548173ffffffffffffffffffffffffffffffffffffffff021916908373ffffffffffffffffffffffffffffffffffffffff160217905550600660008a81526020019081526020016000206000018190806001815401808255809150506001900390600052602060002090600702016000909190919091506000820151816000015560208201518160010155604082015181600201556060820151816003015560808201518160040160006101000a81548173ffffffffffffffffffffffffffffffffffffffff021916908373ffffffffffffffffffffffffffffffffffffffff16021790555060a0820151816005019080519060200190611abf9291906131ab565b5060c08201518160060160006101000a81548160ff02191690831515021790555050506002861415611b3e57898460c001818151611afd9190613c19565b9150818152505089600783604051611b159190613930565b90815260200160405180910390206000828254611b329190613c19565b92505081905550611ba8565b6003861415611b65578984606001818151611b599190613c19565b91508181525050611ba7565b6001861415611b8c578984608001818151611b809190613c19565b91508181525050611ba6565b898460a001818151611b9e9190613c19565b915081815250505b5b5b89600460008d73ffffffffffffffffffffffffffffffffffffffff1673ffffffffffffffffffffffffffffffffffffffff1681526020019081526020016000206000828254611bf79190613cfa565b9250508190555050505050600190509695505050505050565b60008060009054906101000a900473ffffffffffffffffffffffffffffffffffffffff1673ffffffffffffffffffffffffffffffffffffffff163373ffffffffffffffffffffffffffffffffffffffff1614611ca1576040517f08c379a0000000000000000000000000000000000000000000000000000000008152600401611c9890613a28565b60405180910390fd5b611caa85612c47565b611ce9576040517f08c379a0000000000000000000000000000000000000000000000000000000008152600401611ce090613a68565b60405180910390fd5b60006005600087815260200190815260200160002060405180610160016040529081600082018054611d1a90613dc2565b80601f0160208091040260200160405190810160405280929190818152602001828054611d4690613dc2565b8015611d935780601f10611d6857610100808354040283529160200191611d93565b820191906000526020600020905b815481529060010190602001808311611d7657829003601f168201915b50505050508152602001600182018054611dac90613dc2565b80601f0160208091040260200160405190810160405280929190818152602001828054611dd890613dc2565b8015611e255780601f10611dfa57610100808354040283529160200191611e25565b820191906000526020600020905b815481529060010190602001808311611e0857829003601f168201915b50505050508152602001600282018054611e3e90613dc2565b80601f0160208091040260200160405190810160405280929190818152602001828054611e6a90613dc2565b8015611eb75780601f10611e8c57610100808354040283529160200191611eb7565b820191906000526020600020905b815481529060010190602001808311611e9a57829003601f168201915b5050505050815260200160038201548152602001600482015481526020016005820154815260200160068201548152602001600782015481526020016008820160009054906101000a900460ff161515151581526020016008820160019054906101000a900460ff161515151581526020016008820160029054906101000a900460ff1615151515815250509050600181610140019015159081151581525015611f96576040517f08c379a0000000000000000000000000000000000000000000000000000000008152600401611f8d90613b28565b60405180910390fd5b600060066000888152602001908152602001600020600001805480602002602001604051908101604052809291908181526020016000905b8282101561212b57838290600052602060002090600702016040518060e0016040529081600082015481526020016001820154815260200160028201548152602001600382015481526020016004820160009054906101000a900473ffffffffffffffffffffffffffffffffffffffff1673ffffffffffffffffffffffffffffffffffffffff1673ffffffffffffffffffffffffffffffffffffffff16815260200160058201805461207f90613dc2565b80601f01602080910402602001604051908101604052809291908181526020018280546120ab90613dc2565b80156120f85780601f106120cd576101008083540402835291602001916120f8565b820191906000526020600020905b8154815290600101906020018083116120db57829003601f168201915b505050505081526020016006820160009054906101000a900460ff16151515158152505081526020019060010190611fce565b505050509050600061219a601461215060028660e0015161044590919063ffffffff16565b85608001518660a0015187606001518860c0015161216e9190613c19565b6121789190613c19565b6121829190613c19565b61218c9190613c19565b61044590919063ffffffff16565b600160008282546121ab9190613c19565b9250508190555060005b600183516121c39190613cfa565b81116126615760008382815181106121de576121dd613f0f565b5b602002602001015160c001901515908115158152501561264e57600283828151811061220d5761220c613f0f565b5b60200260200101516020015114156123de5761226c606461225e605561224160028960e0015161044590919063ffffffff16565b8860c001516122509190613c19565b612e6c90919063ffffffff16565b61044590919063ffffffff16565b91508783828151811061228257612281613f0f565b5b6020026020010151604001511480156122b85750868382815181106122aa576122a9613f0f565b5b602002602001015160600151145b156123d957600060078483815181106122d4576122d3613f0f565b5b602002602001015160a001516040516122ed9190613930565b908152602001604051809103902054905060008185848151811061231457612313613f0f565b5b6020026020010151600001518561232b9190613ca0565b6123359190613c6f565b9050806004600087868151811061234f5761234e613f0f565b5b60200260200101516080015173ffffffffffffffffffffffffffffffffffffffff1673ffffffffffffffffffffffffffffffffffffffff16815260200190815260200160002060008282546123a49190613c19565b9250508190555060018584815181106123c0576123bf613f0f565b5b602002602001015160c001901515908115158152505050505b61264d565b858382815181106123f2576123f1613f0f565b5b602002602001015160200151141561264c5761246f6064612461605561242660028960e0015161044590919063ffffffff16565b88608001518960a001518a6060015161243f9190613c19565b6124499190613c19565b6124539190613c19565b612e6c90919063ffffffff16565b61044590919063ffffffff16565b915060008084838151811061248757612486613f0f565b5b60200260200101516020015114156124c7576124c460646124b660558860a00151612e6c90919063ffffffff16565b61044590919063ffffffff16565b90505b60018483815181106124dc576124db613f0f565b5b602002602001015160200151141561251c57612519606461250b60558860800151612e6c90919063ffffffff16565b61044590919063ffffffff16565b90505b600384838151811061253157612530613f0f565b5b60200260200101516020015114156125715761256e606461256060558860600151612e6c90919063ffffffff16565b61044590919063ffffffff16565b90505b60008185848151811061258757612586613f0f565b5b6020026020010151600001518561259e9190613ca0565b6125a89190613c6f565b905080600460008786815181106125c2576125c1613f0f565b5b60200260200101516080015173ffffffffffffffffffffffffffffffffffffffff1673ffffffffffffffffffffffffffffffffffffffff16815260200190815260200160002060008282546126179190613c19565b92505081905550600185848151811061263357612632613f0f565b5b602002602001015160c001901515908115158152505050505b5b5b808061265990613e25565b9150506121b5565b5060018361014001901515908115158152505050505060019050949350505050565b60008060009054906101000a900473ffffffffffffffffffffffffffffffffffffffff1673ffffffffffffffffffffffffffffffffffffffff163373ffffffffffffffffffffffffffffffffffffffff1614612714576040517f08c379a000000000000000000000000000000000000000000000000000000000815260040161270b90613a28565b60405180910390fd5b81600460008573ffffffffffffffffffffffffffffffffffffffff1673ffffffffffffffffffffffffffffffffffffffff16815260200190815260200160002054101580156127a357506000600460008573ffffffffffffffffffffffffffffffffffffffff1673ffffffffffffffffffffffffffffffffffffffff1681526020019081526020016000205410155b156128395760008390508073ffffffffffffffffffffffffffffffffffffffff166108fc600460008773ffffffffffffffffffffffffffffffffffffffff1673ffffffffffffffffffffffffffffffffffffffff168152602001908152602001600020549081150290604051600060405180830381858888f19350505050158015612832573d6000803e3d6000fd5b5050612874565b6040517f08c379a000000000000000000000000000000000000000000000000000000000815260040161286b90613ae8565b60405180910390fd5b6001905092915050565b606060028054806020026020016040519081016040528092919081815260200182805480156128cc57602002820191906000526020600020905b8154815260200190600101908083116128b8575b5050505050905090565b6000600460003373ffffffffffffffffffffffffffffffffffffffff1673ffffffffffffffffffffffffffffffffffffffff16815260200190815260200160002054905090565b606080612928613231565b61293184612c47565b612970576040517f08c379a000000000000000000000000000000000000000000000000000000000815260040161296790613a48565b60405180910390fd5b6000612a4f60056000878152602001908152602001600020600001805461299690613dc2565b80601f01602080910402602001604051908101604052809291908181526020018280546129c290613dc2565b8015612a0f5780601f106129e457610100808354040283529160200191612a0f565b820191906000526020600020905b8154815290600101906020018083116129f257829003601f168201915b50505050506040518060400160405280600481526020017f2076732000000000000000000000000000000000000000000000000000000000815250612c74565b9050612af981600560008881526020019081526020016000206001018054612a7690613dc2565b80601f0160208091040260200160405190810160405280929190818152602001828054612aa290613dc2565b8015612aef5780601f10612ac457610100808354040283529160200191612aef565b820191906000526020600020905b815481529060010190602001808311612ad257829003601f168201915b5050505050612c74565b935060006040518060a001604052806005600089815260200190815260200160002060030154815260200160056000898152602001908152602001600020600401548152602001600560008981526020019081526020016000206005015481526020016005600089815260200190815260200160002060060154815260200160056000898152602001908152602001600020600701548152509050846005600088815260200190815260200160002060020182818054612bb890613dc2565b80601f0160208091040260200160405190810160405280929190818152602001828054612be490613dc2565b8015612c315780601f10612c0657610100808354040283529160200191612c31565b820191906000526020600020905b815481529060010190602001808311612c1457829003601f168201915b5050505050915094509450945050509193909250565b60006005600083815260200190815260200160002060080160019054906101000a900460ff169050919050565b606060008390506000839050600081518351612c909190613c19565b67ffffffffffffffff811115612ca957612ca8613f3e565b5b6040519080825280601f01601f191660200182016040528015612cdb5781602001600182028036833780820191505090505b50905060008190506000805b8551811015612d6f57858181518110612d0357612d02613f0f565b5b602001015160f81c60f81b838380612d1a90613e25565b945081518110612d2d57612d2c613f0f565b5b60200101907effffffffffffffffffffffffffffffffffffffffffffffffffffffffffffff1916908160001a9053508080612d6790613e25565b915050612ce7565b5060005b8451811015612dfb57848181518110612d8f57612d8e613f0f565b5b602001015160f81c60f81b838380612da690613e25565b945081518110612db957612db8613f0f565b5b60200101907effffffffffffffffffffffffffffffffffffffffffffffffffffffffffffff1916908160001a9053508080612df390613e25565b915050612d73565b50829550505050505092915050565b6060612e3482604051602001612e209190613947565b604051602081830303815290604052612eb1565b9050919050565b6060612e6582604051602001612e519190613915565b604051602081830303815290604052612eb1565b9050919050565b600080831415612e7f5760009050612eab565b60008284612e8d9190613ca0565b9050828482612e9c9190613c6f565b14612ea657600080fd5b809150505b92915050565b606060006040518060400160405280601081526020017f30313233343536373839616263646566000000000000000000000000000000008152509050600060028451612efd9190613ca0565b6002612f099190613c19565b67ffffffffffffffff811115612f2257612f21613f3e565b5b6040519080825280601f01601f191660200182016040528015612f545781602001600182028036833780820191505090505b5090507f300000000000000000000000000000000000000000000000000000000000000081600081518110612f8c57612f8b613f0f565b5b60200101907effffffffffffffffffffffffffffffffffffffffffffffffffffffffffffff1916908160001a9053507f780000000000000000000000000000000000000000000000000000000000000081600181518110612ff057612fef613f0f565b5b60200101907effffffffffffffffffffffffffffffffffffffffffffffffffffffffffffff1916908160001a90535060005b84518110156131a05782600486838151811061304157613040613f0f565b5b602001015160f81c60f81b7effffffffffffffffffffffffffffffffffffffffffffffffffffffffffffff1916901c60f81c60ff168151811061308757613086613f0f565b5b602001015160f81c60f81b826002836130a09190613ca0565b60026130ac9190613c19565b815181106130bd576130bc613f0f565b5b60200101907effffffffffffffffffffffffffffffffffffffffffffffffffffffffffffff1916908160001a90535082600f60f81b86838151811061310557613104613f0f565b5b602001015160f81c60f81b1660f81c60ff168151811061312857613127613f0f565b5b602001015160f81c60f81b826002836131419190613ca0565b600361314d9190613c19565b8151811061315e5761315d613f0f565b5b60200101907effffffffffffffffffffffffffffffffffffffffffffffffffffffffffffff1916908160001a905350808061319890613e25565b915050613022565b508092505050919050565b8280546131b790613dc2565b90600052602060002090601f0160209004810192826131d95760008555613220565b82601f106131f257805160ff1916838001178555613220565b82800160010185558215613220579182015b8281111561321f578251825591602001919060010190613204565b5b50905061322d9190613260565b5090565b6040518060a0016040528060008152602001600081526020016000815260200160008152602001600081525090565b5b80821115613279576000816000905550600101613261565b5090565b600061329061328b84613b88565b613b63565b9050828152602081018484840111156132ac576132ab613f72565b5b6132b7848285613d80565b509392505050565b6000813590506132ce81614103565b92915050565b6000813590506132e38161411a565b92915050565b6000813590506132f881614131565b92915050565b600082601f83011261331357613312613f6d565b5b813561332384826020860161327d565b91505092915050565b60008135905061333b81614148565b92915050565b60006020828403121561335757613356613f7c565b5b6000613365848285016132bf565b91505092915050565b6000806040838503121561338557613384613f7c565b5b6000613393858286016132bf565b92505060206133a4858286016132e9565b9150509250929050565b600080604083850312156133c5576133c4613f7c565b5b60006133d3858286016132bf565b92505060206133e48582860161332c565b9150509250929050565b60008060008060008060c0878903121561340b5761340a613f7c565b5b600061341989828a016132bf565b965050602061342a89828a0161332c565b955050604061343b89828a016132e9565b945050606061344c89828a0161332c565b935050608061345d89828a0161332c565b92505060a061346e89828a0161332c565b9150509295509295509295565b60006020828403121561349157613490613f7c565b5b600061349f848285016132e9565b91505092915050565b600080604083850312156134bf576134be613f7c565b5b60006134cd858286016132e9565b92505060206134de8582860161332c565b9150509250929050565b6000806000806080858703121561350257613501613f7c565b5b6000613510878288016132e9565b94505060206135218782880161332c565b93505060406135328782880161332c565b92505060606135438782880161332c565b91505092959194509250565b6000806000806080858703121561356957613568613f7c565b5b600085013567ffffffffffffffff81111561358757613586613f77565b5b613593878288016132fe565b945050602085013567ffffffffffffffff8111156135b4576135b3613f77565b5b6135c0878288016132fe565b935050604085013567ffffffffffffffff8111156135e1576135e0613f77565b5b6135ed878288016132fe565b92505060606135fe878288016132d4565b91505092959194509250565b6000613616838361369e565b60208301905092915050565b61362b81613d2e565b82525050565b600061363c82613bc9565b6136468185613bec565b935061365183613bb9565b8060005b83811015613682578151613669888261360a565b975061367483613bdf565b925050600181019050613655565b5085935050505092915050565b61369881613d40565b82525050565b6136a781613d4c565b82525050565b6136b681613d4c565b82525050565b6136cd6136c882613d4c565b613e6e565b82525050565b60006136de82613bd4565b6136e88185613bfd565b93506136f8818560208601613d8f565b61370181613f81565b840191505092915050565b600061371782613bd4565b6137218185613c0e565b9350613731818560208601613d8f565b80840191505092915050565b600061374a601983613bfd565b915061375582613f92565b602082019050919050565b600061376d600983613bfd565b915061377882613fbb565b602082019050919050565b6000613790600e83613bfd565b915061379b82613fe4565b602082019050919050565b60006137b3601783613bfd565b91506137be8261400d565b602082019050919050565b60006137d6600a83613bfd565b91506137e182614036565b602082019050919050565b60006137f9601583613bfd565b91506138048261405f565b602082019050919050565b600061381c601583613bfd565b915061382782614088565b602082019050919050565b600061383f601083613bfd565b915061384a826140b1565b602082019050919050565b6000613862601183613bfd565b915061386d826140da565b602082019050919050565b60a08201600082015161388e60008501826138e0565b5060208201516138a160208501826138e0565b5060408201516138b460408501826138e0565b5060608201516138c760608501826138e0565b5060808201516138da60808501826138e0565b50505050565b6138e981613d76565b82525050565b6138f881613d76565b82525050565b61390f61390a82613d76565b613e78565b82525050565b600061392182846136bc565b60208201915081905092915050565b600061393c828461370c565b915081905092915050565b600061395382846138fe565b60208201915081905092915050565b60006040820190506139776000830185613622565b61398460208301846138ef565b9392505050565b600060208201905081810360008301526139a58184613631565b905092915050565b60006020820190506139c2600083018461368f565b92915050565b60006020820190506139dd60008301846136ad565b92915050565b600060e08201905081810360008301526139fd81866136d3565b90508181036020830152613a1181856136d3565b9050613a206040830184613878565b949350505050565b60006020820190508181036000830152613a418161373d565b9050919050565b60006020820190508181036000830152613a6181613760565b9050919050565b60006020820190508181036000830152613a8181613783565b9050919050565b60006020820190508181036000830152613aa1816137a6565b9050919050565b60006020820190508181036000830152613ac1816137c9565b9050919050565b60006020820190508181036000830152613ae1816137ec565b9050919050565b60006020820190508181036000830152613b018161380f565b9050919050565b60006020820190508181036000830152613b2181613832565b9050919050565b60006020820190508181036000830152613b4181613855565b9050919050565b6000602082019050613b5d60008301846138ef565b92915050565b6000613b6d613b7e565b9050613b798282613df4565b919050565b6000604051905090565b600067ffffffffffffffff821115613ba357613ba2613f3e565b5b613bac82613f81565b9050602081019050919050565b6000819050602082019050919050565b600081519050919050565b600081519050919050565b6000602082019050919050565b600082825260208201905092915050565b600082825260208201905092915050565b600081905092915050565b6000613c2482613d76565b9150613c2f83613d76565b9250827fffffffffffffffffffffffffffffffffffffffffffffffffffffffffffffffff03821115613c6457613c63613e82565b5b828201905092915050565b6000613c7a82613d76565b9150613c8583613d76565b925082613c9557613c94613eb1565b5b828204905092915050565b6000613cab82613d76565b9150613cb683613d76565b9250817fffffffffffffffffffffffffffffffffffffffffffffffffffffffffffffffff0483118215151615613cef57613cee613e82565b5b828202905092915050565b6000613d0582613d76565b9150613d1083613d76565b925082821015613d2357613d22613e82565b5b828203905092915050565b6000613d3982613d56565b9050919050565b60008115159050919050565b6000819050919050565b600073ffffffffffffffffffffffffffffffffffffffff82169050919050565b6000819050919050565b82818337600083830152505050565b60005b83811015613dad578082015181840152602081019050613d92565b83811115613dbc576000848401525b50505050565b60006002820490506001821680613dda57607f821691505b60208210811415613dee57613ded613ee0565b5b50919050565b613dfd82613f81565b810181811067ffffffffffffffff82111715613e1c57613e1b613f3e565b5b80604052505050565b6000613e3082613d76565b91507fffffffffffffffffffffffffffffffffffffffffffffffffffffffffffffffff821415613e6357613e62613e82565b5b600182019050919050565b6000819050919050565b6000819050919050565b7f4e487b7100000000000000000000000000000000000000000000000000000000600052601160045260246000fd5b7f4e487b7100000000000000000000000000000000000000000000000000000000600052601260045260246000fd5b7f4e487b7100000000000000000000000000000000000000000000000000000000600052602260045260246000fd5b7f4e487b7100000000000000000000000000000000000000000000000000000000600052603260045260246000fd5b7f4e487b7100000000000000000000000000000000000000000000000000000000600052604160045260246000fd5b600080fd5b600080fd5b600080fd5b600080fd5b6000601f19601f8301169050919050565b7f4f6e6c79206f776e65722063616e2063616c6c20746869732e00000000000000600082015250565b7f6e6f742065786973740000000000000000000000000000000000000000000000600082015250565b7f706f6f6c206e6f74206578697374000000000000000000000000000000000000600082015250565b7f706f6f6c20626173616c20686173206265656e20736574000000000000000000600082015250565b7f7061697220657869737400000000000000000000000000000000000000000000600082015250565b7f706f6f6c20686173206e6f742066696e69736865640000000000000000000000600082015250565b7f6e6f7420656e6f75676820766f7465416d6f756e740000000000000000000000600082015250565b7f6e6f7420656e6f75676820626173616c00000000000000000000000000000000600082015250565b7f706f6f6c206861732066696e6973686564000000000000000000000000000000600082015250565b61410c81613d2e565b811461411757600080fd5b50565b61412381613d40565b811461412e57600080fd5b50565b61413a81613d4c565b811461414557600080fd5b50565b61415181613d76565b811461415c57600080fd5b5056fea264697066735822122028dfbd91a03ceb6253c22e4f217984381956812b83d6c900ea37b20820a1951a64736f6c63430008070033",
					"opcodes": "PUSH1 0x80 PUSH1 0x40 MSTORE CALLVALUE DUP1 ISZERO PUSH3 0x11 JUMPI PUSH1 0x0 DUP1 REVERT JUMPDEST POP PUSH1 0x40 MLOAD PUSH3 0x431F CODESIZE SUB DUP1 PUSH3 0x431F DUP4 CODECOPY DUP2 DUP2 ADD PUSH1 0x40 MSTORE DUP2 ADD SWAP1 PUSH3 0x37 SWAP2 SWAP1 PUSH3 0xBC JUMP JUMPDEST DUP2 PUSH1 0x0 DUP1 PUSH2 0x100 EXP DUP2 SLOAD DUP2 PUSH20 0xFFFFFFFFFFFFFFFFFFFFFFFFFFFFFFFFFFFFFFFF MUL NOT AND SWAP1 DUP4 PUSH20 0xFFFFFFFFFFFFFFFFFFFFFFFFFFFFFFFFFFFFFFFF AND MUL OR SWAP1 SSTORE POP PUSH1 0x0 PUSH1 0x3 DUP2 SWAP1 SSTORE POP DUP1 PUSH1 0x1 DUP2 SWAP1 SSTORE POP POP POP PUSH3 0x17A JUMP JUMPDEST PUSH1 0x0 DUP2 MLOAD SWAP1 POP PUSH3 0x9F DUP2 PUSH3 0x146 JUMP JUMPDEST SWAP3 SWAP2 POP POP JUMP JUMPDEST PUSH1 0x0 DUP2 MLOAD SWAP1 POP PUSH3 0xB6 DUP2 PUSH3 0x160 JUMP JUMPDEST SWAP3 SWAP2 POP POP JUMP JUMPDEST PUSH1 0x0 DUP1 PUSH1 0x40 DUP4 DUP6 SUB SLT ISZERO PUSH3 0xD6 JUMPI PUSH3 0xD5 PUSH3 0x141 JUMP JUMPDEST JUMPDEST PUSH1 0x0 PUSH3 0xE6 DUP6 DUP3 DUP7 ADD PUSH3 0x8E JUMP JUMPDEST SWAP3 POP POP PUSH1 0x20 PUSH3 0xF9 DUP6 DUP3 DUP7 ADD PUSH3 0xA5 JUMP JUMPDEST SWAP2 POP POP SWAP3 POP SWAP3 SWAP1 POP JUMP JUMPDEST PUSH1 0x0 PUSH3 0x110 DUP3 PUSH3 0x117 JUMP JUMPDEST SWAP1 POP SWAP2 SWAP1 POP JUMP JUMPDEST PUSH1 0x0 PUSH20 0xFFFFFFFFFFFFFFFFFFFFFFFFFFFFFFFFFFFFFFFF DUP3 AND SWAP1 POP SWAP2 SWAP1 POP JUMP JUMPDEST PUSH1 0x0 DUP2 SWAP1 POP SWAP2 SWAP1 POP JUMP JUMPDEST PUSH1 0x0 DUP1 REVERT JUMPDEST PUSH3 0x151 DUP2 PUSH3 0x103 JUMP JUMPDEST DUP2 EQ PUSH3 0x15D JUMPI PUSH1 0x0 DUP1 REVERT JUMPDEST POP JUMP JUMPDEST PUSH3 0x16B DUP2 PUSH3 0x137 JUMP JUMPDEST DUP2 EQ PUSH3 0x177 JUMPI PUSH1 0x0 DUP1 REVERT JUMPDEST POP JUMP JUMPDEST PUSH2 0x4195 DUP1 PUSH3 0x18A PUSH1 0x0 CODECOPY PUSH1 0x0 RETURN INVALID PUSH1 0x80 PUSH1 0x40 MSTORE PUSH1 0x4 CALLDATASIZE LT PUSH2 0xAB JUMPI PUSH1 0x0 CALLDATALOAD PUSH1 0xE0 SHR DUP1 PUSH4 0x47E4DD27 GT PUSH2 0x64 JUMPI DUP1 PUSH4 0x47E4DD27 EQ PUSH2 0x313 JUMPI DUP1 PUSH4 0x74FE9BC2 EQ PUSH2 0x350 JUMPI DUP1 PUSH4 0x9BD0ABF1 EQ PUSH2 0x380 JUMPI DUP1 PUSH4 0xA20A4CB4 EQ PUSH2 0x3B0 JUMPI DUP1 PUSH4 0xBAF41269 EQ PUSH2 0x3DB JUMPI DUP1 PUSH4 0xF6C00927 EQ PUSH2 0x406 JUMPI PUSH2 0x1CC JUMP JUMPDEST DUP1 PUSH4 0xCE49053 EQ PUSH2 0x1D1 JUMPI DUP1 PUSH4 0x2775E02C EQ PUSH2 0x201 JUMPI DUP1 PUSH4 0x2BF21ECC EQ PUSH2 0x231 JUMPI DUP1 PUSH4 0x357965BA EQ PUSH2 0x26E JUMPI DUP1 PUSH4 0x3E6FF1A2 EQ PUSH2 0x2AB JUMPI DUP1 PUSH4 0x4121855F EQ PUSH2 0x2D6 JUMPI PUSH2 0x1CC JUMP JUMPDEST CALLDATASIZE PUSH2 0x1CC JUMPI PUSH1 0x0 DUP1 SLOAD SWAP1 PUSH2 0x100 EXP SWAP1 DIV PUSH20 0xFFFFFFFFFFFFFFFFFFFFFFFFFFFFFFFFFFFFFFFF AND PUSH20 0xFFFFFFFFFFFFFFFFFFFFFFFFFFFFFFFFFFFFFFFF AND CALLER PUSH20 0xFFFFFFFFFFFFFFFFFFFFFFFFFFFFFFFFFFFFFFFF AND EQ PUSH2 0x1C9 JUMPI PUSH2 0x11D PUSH7 0x2386F26FC10000 CALLVALUE PUSH2 0x445 SWAP1 SWAP2 SWAP1 PUSH4 0xFFFFFFFF AND JUMP JUMPDEST PUSH1 0x4 PUSH1 0x0 CALLER PUSH20 0xFFFFFFFFFFFFFFFFFFFFFFFFFFFFFFFFFFFFFFFF AND PUSH20 0xFFFFFFFFFFFFFFFFFFFFFFFFFFFFFFFFFFFFFFFF AND DUP2 MSTORE PUSH1 0x20 ADD SWAP1 DUP2 MSTORE PUSH1 0x20 ADD PUSH1 0x0 KECCAK256 PUSH1 0x0 DUP3 DUP3 SLOAD PUSH2 0x16B SWAP2 SWAP1 PUSH2 0x3C19 JUMP JUMPDEST SWAP3 POP POP DUP2 SWAP1 SSTORE POP CALLVALUE PUSH1 0x3 PUSH1 0x0 DUP3 DUP3 SLOAD PUSH2 0x184 SWAP2 SWAP1 PUSH2 0x3C19 JUMP JUMPDEST SWAP3 POP POP DUP2 SWAP1 SSTORE POP PUSH32 0x88A5966D370B9919B20F3E2C13FF65706F196A4E32CC2C12BF57088F88525874 CALLER CALLVALUE PUSH1 0x40 MLOAD PUSH2 0x1BC SWAP3 SWAP2 SWAP1 PUSH2 0x3962 JUMP JUMPDEST PUSH1 0x40 MLOAD DUP1 SWAP2 SUB SWAP1 LOG1 PUSH2 0x1CA JUMP JUMPDEST JUMPDEST STOP JUMPDEST PUSH1 0x0 DUP1 REVERT JUMPDEST PUSH2 0x1EB PUSH1 0x4 DUP1 CALLDATASIZE SUB DUP2 ADD SWAP1 PUSH2 0x1E6 SWAP2 SWAP1 PUSH2 0x336E JUMP JUMPDEST PUSH2 0x46D JUMP JUMPDEST PUSH1 0x40 MLOAD PUSH2 0x1F8 SWAP2 SWAP1 PUSH2 0x39AD JUMP JUMPDEST PUSH1 0x40 MLOAD DUP1 SWAP2 SUB SWAP1 RETURN JUMPDEST PUSH2 0x21B PUSH1 0x4 DUP1 CALLDATASIZE SUB DUP2 ADD SWAP1 PUSH2 0x216 SWAP2 SWAP1 PUSH2 0x3341 JUMP JUMPDEST PUSH2 0x8A9 JUMP JUMPDEST PUSH1 0x40 MLOAD PUSH2 0x228 SWAP2 SWAP1 PUSH2 0x39AD JUMP JUMPDEST PUSH1 0x40 MLOAD DUP1 SWAP2 SUB SWAP1 RETURN JUMPDEST CALLVALUE DUP1 ISZERO PUSH2 0x23D JUMPI PUSH1 0x0 DUP1 REVERT JUMPDEST POP PUSH2 0x258 PUSH1 0x4 DUP1 CALLDATASIZE SUB DUP2 ADD SWAP1 PUSH2 0x253 SWAP2 SWAP1 PUSH2 0x34A8 JUMP JUMPDEST PUSH2 0x99E JUMP JUMPDEST PUSH1 0x40 MLOAD PUSH2 0x265 SWAP2 SWAP1 PUSH2 0x39AD JUMP JUMPDEST PUSH1 0x40 MLOAD DUP1 SWAP2 SUB SWAP1 RETURN JUMPDEST CALLVALUE DUP1 ISZERO PUSH2 0x27A JUMPI PUSH1 0x0 DUP1 REVERT JUMPDEST POP PUSH2 0x295 PUSH1 0x4 DUP1 CALLDATASIZE SUB DUP2 ADD SWAP1 PUSH2 0x290 SWAP2 SWAP1 PUSH2 0x354F JUMP JUMPDEST PUSH2 0xD9D JUMP JUMPDEST PUSH1 0x40 MLOAD PUSH2 0x2A2 SWAP2 SWAP1 PUSH2 0x39C8 JUMP JUMPDEST PUSH1 0x40 MLOAD DUP1 SWAP2 SUB SWAP1 RETURN JUMPDEST CALLVALUE DUP1 ISZERO PUSH2 0x2B7 JUMPI PUSH1 0x0 DUP1 REVERT JUMPDEST POP PUSH2 0x2C0 PUSH2 0x108E JUMP JUMPDEST PUSH1 0x40 MLOAD PUSH2 0x2CD SWAP2 SWAP1 PUSH2 0x3B48 JUMP JUMPDEST PUSH1 0x40 MLOAD DUP1 SWAP2 SUB SWAP1 RETURN JUMPDEST CALLVALUE DUP1 ISZERO PUSH2 0x2E2 JUMPI PUSH1 0x0 DUP1 REVERT JUMPDEST POP PUSH2 0x2FD PUSH1 0x4 DUP1 CALLDATASIZE SUB DUP2 ADD SWAP1 PUSH2 0x2F8 SWAP2 SWAP1 PUSH2 0x347B JUMP JUMPDEST PUSH2 0x1127 JUMP JUMPDEST PUSH1 0x40 MLOAD PUSH2 0x30A SWAP2 SWAP1 PUSH2 0x3B48 JUMP JUMPDEST PUSH1 0x40 MLOAD DUP1 SWAP2 SUB SWAP1 RETURN JUMPDEST CALLVALUE DUP1 ISZERO PUSH2 0x31F JUMPI PUSH1 0x0 DUP1 REVERT JUMPDEST POP PUSH2 0x33A PUSH1 0x4 DUP1 CALLDATASIZE SUB DUP2 ADD SWAP1 PUSH2 0x335 SWAP2 SWAP1 PUSH2 0x33EE JUMP JUMPDEST PUSH2 0x14BE JUMP JUMPDEST PUSH1 0x40 MLOAD PUSH2 0x347 SWAP2 SWAP1 PUSH2 0x39AD JUMP JUMPDEST PUSH1 0x40 MLOAD DUP1 SWAP2 SUB SWAP1 RETURN JUMPDEST PUSH2 0x36A PUSH1 0x4 DUP1 CALLDATASIZE SUB DUP2 ADD SWAP1 PUSH2 0x365 SWAP2 SWAP1 PUSH2 0x34E8 JUMP JUMPDEST PUSH2 0x1C10 JUMP JUMPDEST PUSH1 0x40 MLOAD PUSH2 0x377 SWAP2 SWAP1 PUSH2 0x39AD JUMP JUMPDEST PUSH1 0x40 MLOAD DUP1 SWAP2 SUB SWAP1 RETURN JUMPDEST PUSH2 0x39A PUSH1 0x4 DUP1 CALLDATASIZE SUB DUP2 ADD SWAP1 PUSH2 0x395 SWAP2 SWAP1 PUSH2 0x33AE JUMP JUMPDEST PUSH2 0x2683 JUMP JUMPDEST PUSH1 0x40 MLOAD PUSH2 0x3A7 SWAP2 SWAP1 PUSH2 0x39AD JUMP JUMPDEST PUSH1 0x40 MLOAD DUP1 SWAP2 SUB SWAP1 RETURN JUMPDEST CALLVALUE DUP1 ISZERO PUSH2 0x3BC JUMPI PUSH1 0x0 DUP1 REVERT JUMPDEST POP PUSH2 0x3C5 PUSH2 0x287E JUMP JUMPDEST PUSH1 0x40 MLOAD PUSH2 0x3D2 SWAP2 SWAP1 PUSH2 0x398B JUMP JUMPDEST PUSH1 0x40 MLOAD DUP1 SWAP2 SUB SWAP1 RETURN JUMPDEST CALLVALUE DUP1 ISZERO PUSH2 0x3E7 JUMPI PUSH1 0x0 DUP1 REVERT JUMPDEST POP PUSH2 0x3F0 PUSH2 0x28D6 JUMP JUMPDEST PUSH1 0x40 MLOAD PUSH2 0x3FD SWAP2 SWAP1 PUSH2 0x3B48 JUMP JUMPDEST PUSH1 0x40 MLOAD DUP1 SWAP2 SUB SWAP1 RETURN JUMPDEST CALLVALUE DUP1 ISZERO PUSH2 0x412 JUMPI PUSH1 0x0 DUP1 REVERT JUMPDEST POP PUSH2 0x42D PUSH1 0x4 DUP1 CALLDATASIZE SUB DUP2 ADD SWAP1 PUSH2 0x428 SWAP2 SWAP1 PUSH2 0x347B JUMP JUMPDEST PUSH2 0x291D JUMP JUMPDEST PUSH1 0x40 MLOAD PUSH2 0x43C SWAP4 SWAP3 SWAP2 SWAP1 PUSH2 0x39E3 JUMP JUMPDEST PUSH1 0x40 MLOAD DUP1 SWAP2 SUB SWAP1 RETURN JUMPDEST PUSH1 0x0 DUP1 DUP3 GT PUSH2 0x453 JUMPI PUSH1 0x0 DUP1 REVERT JUMPDEST PUSH1 0x0 DUP3 DUP5 PUSH2 0x461 SWAP2 SWAP1 PUSH2 0x3C6F JUMP JUMPDEST SWAP1 POP DUP1 SWAP2 POP POP SWAP3 SWAP2 POP POP JUMP JUMPDEST PUSH1 0x0 DUP1 PUSH1 0x0 SWAP1 SLOAD SWAP1 PUSH2 0x100 EXP SWAP1 DIV PUSH20 0xFFFFFFFFFFFFFFFFFFFFFFFFFFFFFFFFFFFFFFFF AND PUSH20 0xFFFFFFFFFFFFFFFFFFFFFFFFFFFFFFFFFFFFFFFF AND CALLER PUSH20 0xFFFFFFFFFFFFFFFFFFFFFFFFFFFFFFFFFFFFFFFF AND EQ PUSH2 0x4FE JUMPI PUSH1 0x40 MLOAD PUSH32 0x8C379A000000000000000000000000000000000000000000000000000000000 DUP2 MSTORE PUSH1 0x4 ADD PUSH2 0x4F5 SWAP1 PUSH2 0x3A28 JUMP JUMPDEST PUSH1 0x40 MLOAD DUP1 SWAP2 SUB SWAP1 REVERT JUMPDEST PUSH2 0x507 DUP3 PUSH2 0x2C47 JUMP JUMPDEST PUSH2 0x546 JUMPI PUSH1 0x40 MLOAD PUSH32 0x8C379A000000000000000000000000000000000000000000000000000000000 DUP2 MSTORE PUSH1 0x4 ADD PUSH2 0x53D SWAP1 PUSH2 0x3A68 JUMP JUMPDEST PUSH1 0x40 MLOAD DUP1 SWAP2 SUB SWAP1 REVERT JUMPDEST PUSH1 0x0 PUSH1 0x5 PUSH1 0x0 DUP5 DUP2 MSTORE PUSH1 0x20 ADD SWAP1 DUP2 MSTORE PUSH1 0x20 ADD PUSH1 0x0 KECCAK256 PUSH1 0x40 MLOAD DUP1 PUSH2 0x160 ADD PUSH1 0x40 MSTORE SWAP1 DUP2 PUSH1 0x0 DUP3 ADD DUP1 SLOAD PUSH2 0x577 SWAP1 PUSH2 0x3DC2 JUMP JUMPDEST DUP1 PUSH1 0x1F ADD PUSH1 0x20 DUP1 SWAP2 DIV MUL PUSH1 0x20 ADD PUSH1 0x40 MLOAD SWAP1 DUP2 ADD PUSH1 0x40 MSTORE DUP1 SWAP3 SWAP2 SWAP1 DUP2 DUP2 MSTORE PUSH1 0x20 ADD DUP3 DUP1 SLOAD PUSH2 0x5A3 SWAP1 PUSH2 0x3DC2 JUMP JUMPDEST DUP1 ISZERO PUSH2 0x5F0 JUMPI DUP1 PUSH1 0x1F LT PUSH2 0x5C5 JUMPI PUSH2 0x100 DUP1 DUP4 SLOAD DIV MUL DUP4 MSTORE SWAP2 PUSH1 0x20 ADD SWAP2 PUSH2 0x5F0 JUMP JUMPDEST DUP3 ADD SWAP2 SWAP1 PUSH1 0x0 MSTORE PUSH1 0x20 PUSH1 0x0 KECCAK256 SWAP1 JUMPDEST DUP2 SLOAD DUP2 MSTORE SWAP1 PUSH1 0x1 ADD SWAP1 PUSH1 0x20 ADD DUP1 DUP4 GT PUSH2 0x5D3 JUMPI DUP3 SWAP1 SUB PUSH1 0x1F AND DUP3 ADD SWAP2 JUMPDEST POP POP POP POP POP DUP2 MSTORE PUSH1 0x20 ADD PUSH1 0x1 DUP3 ADD DUP1 SLOAD PUSH2 0x609 SWAP1 PUSH2 0x3DC2 JUMP JUMPDEST DUP1 PUSH1 0x1F ADD PUSH1 0x20 DUP1 SWAP2 DIV MUL PUSH1 0x20 ADD PUSH1 0x40 MLOAD SWAP1 DUP2 ADD PUSH1 0x40 MSTORE DUP1 SWAP3 SWAP2 SWAP1 DUP2 DUP2 MSTORE PUSH1 0x20 ADD DUP3 DUP1 SLOAD PUSH2 0x635 SWAP1 PUSH2 0x3DC2 JUMP JUMPDEST DUP1 ISZERO PUSH2 0x682 JUMPI DUP1 PUSH1 0x1F LT PUSH2 0x657 JUMPI PUSH2 0x100 DUP1 DUP4 SLOAD DIV MUL DUP4 MSTORE SWAP2 PUSH1 0x20 ADD SWAP2 PUSH2 0x682 JUMP JUMPDEST DUP3 ADD SWAP2 SWAP1 PUSH1 0x0 MSTORE PUSH1 0x20 PUSH1 0x0 KECCAK256 SWAP1 JUMPDEST DUP2 SLOAD DUP2 MSTORE SWAP1 PUSH1 0x1 ADD SWAP1 PUSH1 0x20 ADD DUP1 DUP4 GT PUSH2 0x665 JUMPI DUP3 SWAP1 SUB PUSH1 0x1F AND DUP3 ADD SWAP2 JUMPDEST POP POP POP POP POP DUP2 MSTORE PUSH1 0x20 ADD PUSH1 0x2 DUP3 ADD DUP1 SLOAD PUSH2 0x69B SWAP1 PUSH2 0x3DC2 JUMP JUMPDEST DUP1 PUSH1 0x1F ADD PUSH1 0x20 DUP1 SWAP2 DIV MUL PUSH1 0x20 ADD PUSH1 0x40 MLOAD SWAP1 DUP2 ADD PUSH1 0x40 MSTORE DUP1 SWAP3 SWAP2 SWAP1 DUP2 DUP2 MSTORE PUSH1 0x20 ADD DUP3 DUP1 SLOAD PUSH2 0x6C7 SWAP1 PUSH2 0x3DC2 JUMP JUMPDEST DUP1 ISZERO PUSH2 0x714 JUMPI DUP1 PUSH1 0x1F LT PUSH2 0x6E9 JUMPI PUSH2 0x100 DUP1 DUP4 SLOAD DIV MUL DUP4 MSTORE SWAP2 PUSH1 0x20 ADD SWAP2 PUSH2 0x714 JUMP JUMPDEST DUP3 ADD SWAP2 SWAP1 PUSH1 0x0 MSTORE PUSH1 0x20 PUSH1 0x0 KECCAK256 SWAP1 JUMPDEST DUP2 SLOAD DUP2 MSTORE SWAP1 PUSH1 0x1 ADD SWAP1 PUSH1 0x20 ADD DUP1 DUP4 GT PUSH2 0x6F7 JUMPI DUP3 SWAP1 SUB PUSH1 0x1F AND DUP3 ADD SWAP2 JUMPDEST POP POP POP POP POP DUP2 MSTORE PUSH1 0x20 ADD PUSH1 0x3 DUP3 ADD SLOAD DUP2 MSTORE PUSH1 0x20 ADD PUSH1 0x4 DUP3 ADD SLOAD DUP2 MSTORE PUSH1 0x20 ADD PUSH1 0x5 DUP3 ADD SLOAD DUP2 MSTORE PUSH1 0x20 ADD PUSH1 0x6 DUP3 ADD SLOAD DUP2 MSTORE PUSH1 0x20 ADD PUSH1 0x7 DUP3 ADD SLOAD DUP2 MSTORE PUSH1 0x20 ADD PUSH1 0x8 DUP3 ADD PUSH1 0x0 SWAP1 SLOAD SWAP1 PUSH2 0x100 EXP SWAP1 DIV PUSH1 0xFF AND ISZERO ISZERO ISZERO ISZERO DUP2 MSTORE PUSH1 0x20 ADD PUSH1 0x8 DUP3 ADD PUSH1 0x1 SWAP1 SLOAD SWAP1 PUSH2 0x100 EXP SWAP1 DIV PUSH1 0xFF AND ISZERO ISZERO ISZERO ISZERO DUP2 MSTORE PUSH1 0x20 ADD PUSH1 0x8 DUP3 ADD PUSH1 0x2 SWAP1 SLOAD SWAP1 PUSH2 0x100 EXP SWAP1 DIV PUSH1 0xFF AND ISZERO ISZERO ISZERO ISZERO DUP2 MSTORE POP POP SWAP1 POP PUSH1 0x0 PUSH2 0x7F8 PUSH1 0xA DUP4 PUSH1 0xE0 ADD MLOAD DUP5 PUSH1 0xC0 ADD MLOAD DUP6 PUSH1 0x80 ADD MLOAD DUP7 PUSH1 0xA0 ADD MLOAD DUP8 PUSH1 0x60 ADD MLOAD PUSH2 0x7CC SWAP2 SWAP1 PUSH2 0x3C19 JUMP JUMPDEST PUSH2 0x7D6 SWAP2 SWAP1 PUSH2 0x3C19 JUMP JUMPDEST PUSH2 0x7E0 SWAP2 SWAP1 PUSH2 0x3C19 JUMP JUMPDEST PUSH2 0x7EA SWAP2 SWAP1 PUSH2 0x3C19 JUMP JUMPDEST PUSH2 0x445 SWAP1 SWAP2 SWAP1 PUSH4 0xFFFFFFFF AND JUMP JUMPDEST SWAP1 POP PUSH1 0x1 DUP3 PUSH2 0x140 ADD SWAP1 ISZERO ISZERO SWAP1 DUP2 ISZERO ISZERO DUP2 MSTORE POP ISZERO PUSH2 0x862 JUMPI PUSH1 0x0 DUP6 SWAP1 POP DUP1 PUSH20 0xFFFFFFFFFFFFFFFFFFFFFFFFFFFFFFFFFFFFFFFF AND PUSH2 0x8FC DUP4 SWAP1 DUP2 ISZERO MUL SWAP1 PUSH1 0x40 MLOAD PUSH1 0x0 PUSH1 0x40 MLOAD DUP1 DUP4 SUB DUP2 DUP6 DUP9 DUP9 CALL SWAP4 POP POP POP POP ISZERO DUP1 ISZERO PUSH2 0x85B JUMPI RETURNDATASIZE PUSH1 0x0 DUP1 RETURNDATACOPY RETURNDATASIZE PUSH1 0x0 REVERT JUMPDEST POP POP PUSH2 0x89D JUMP JUMPDEST PUSH1 0x40 MLOAD PUSH32 0x8C379A000000000000000000000000000000000000000000000000000000000 DUP2 MSTORE PUSH1 0x4 ADD PUSH2 0x894 SWAP1 PUSH2 0x3AC8 JUMP JUMPDEST PUSH1 0x40 MLOAD DUP1 SWAP2 SUB SWAP1 REVERT JUMPDEST POP POP PUSH1 0x1 SWAP1 POP SWAP3 SWAP2 POP POP JUMP JUMPDEST PUSH1 0x0 DUP1 PUSH1 0x0 SWAP1 SLOAD SWAP1 PUSH2 0x100 EXP SWAP1 DIV PUSH20 0xFFFFFFFFFFFFFFFFFFFFFFFFFFFFFFFFFFFFFFFF AND PUSH20 0xFFFFFFFFFFFFFFFFFFFFFFFFFFFFFFFFFFFFFFFF AND CALLER PUSH20 0xFFFFFFFFFFFFFFFFFFFFFFFFFFFFFFFFFFFFFFFF AND EQ PUSH2 0x93A JUMPI PUSH1 0x40 MLOAD PUSH32 0x8C379A000000000000000000000000000000000000000000000000000000000 DUP2 MSTORE PUSH1 0x4 ADD PUSH2 0x931 SWAP1 PUSH2 0x3A28 JUMP JUMPDEST PUSH1 0x40 MLOAD DUP1 SWAP2 SUB SWAP1 REVERT JUMPDEST PUSH1 0x0 DUP3 SWAP1 POP DUP1 PUSH20 0xFFFFFFFFFFFFFFFFFFFFFFFFFFFFFFFFFFFFFFFF AND PUSH2 0x8FC PUSH1 0x1 PUSH1 0x3 SLOAD PUSH2 0x968 SWAP2 SWAP1 PUSH2 0x3CFA JUMP JUMPDEST SWAP1 DUP2 ISZERO MUL SWAP1 PUSH1 0x40 MLOAD PUSH1 0x0 PUSH1 0x40 MLOAD DUP1 DUP4 SUB DUP2 DUP6 DUP9 DUP9 CALL SWAP4 POP POP POP POP ISZERO DUP1 ISZERO PUSH2 0x993 JUMPI RETURNDATASIZE PUSH1 0x0 DUP1 RETURNDATACOPY RETURNDATASIZE PUSH1 0x0 REVERT JUMPDEST POP PUSH1 0x1 SWAP2 POP POP SWAP2 SWAP1 POP JUMP JUMPDEST PUSH1 0x0 DUP1 PUSH1 0x0 SWAP1 SLOAD SWAP1 PUSH2 0x100 EXP SWAP1 DIV PUSH20 0xFFFFFFFFFFFFFFFFFFFFFFFFFFFFFFFFFFFFFFFF AND PUSH20 0xFFFFFFFFFFFFFFFFFFFFFFFFFFFFFFFFFFFFFFFF AND CALLER PUSH20 0xFFFFFFFFFFFFFFFFFFFFFFFFFFFFFFFFFFFFFFFF AND EQ PUSH2 0xA2F JUMPI PUSH1 0x40 MLOAD PUSH32 0x8C379A000000000000000000000000000000000000000000000000000000000 DUP2 MSTORE PUSH1 0x4 ADD PUSH2 0xA26 SWAP1 PUSH2 0x3A28 JUMP JUMPDEST PUSH1 0x40 MLOAD DUP1 SWAP2 SUB SWAP1 REVERT JUMPDEST PUSH2 0xA38 DUP4 PUSH2 0x2C47 JUMP JUMPDEST PUSH2 0xA77 JUMPI PUSH1 0x40 MLOAD PUSH32 0x8C379A000000000000000000000000000000000000000000000000000000000 DUP2 MSTORE PUSH1 0x4 ADD PUSH2 0xA6E SWAP1 PUSH2 0x3A68 JUMP JUMPDEST PUSH1 0x40 MLOAD DUP1 SWAP2 SUB SWAP1 REVERT JUMPDEST PUSH1 0x0 PUSH1 0x5 PUSH1 0x0 DUP6 DUP2 MSTORE PUSH1 0x20 ADD SWAP1 DUP2 MSTORE PUSH1 0x20 ADD PUSH1 0x0 KECCAK256 PUSH1 0x40 MLOAD DUP1 PUSH2 0x160 ADD PUSH1 0x40 MSTORE SWAP1 DUP2 PUSH1 0x0 DUP3 ADD DUP1 SLOAD PUSH2 0xAA8 SWAP1 PUSH2 0x3DC2 JUMP JUMPDEST DUP1 PUSH1 0x1F ADD PUSH1 0x20 DUP1 SWAP2 DIV MUL PUSH1 0x20 ADD PUSH1 0x40 MLOAD SWAP1 DUP2 ADD PUSH1 0x40 MSTORE DUP1 SWAP3 SWAP2 SWAP1 DUP2 DUP2 MSTORE PUSH1 0x20 ADD DUP3 DUP1 SLOAD PUSH2 0xAD4 SWAP1 PUSH2 0x3DC2 JUMP JUMPDEST DUP1 ISZERO PUSH2 0xB21 JUMPI DUP1 PUSH1 0x1F LT PUSH2 0xAF6 JUMPI PUSH2 0x100 DUP1 DUP4 SLOAD DIV MUL DUP4 MSTORE SWAP2 PUSH1 0x20 ADD SWAP2 PUSH2 0xB21 JUMP JUMPDEST DUP3 ADD SWAP2 SWAP1 PUSH1 0x0 MSTORE PUSH1 0x20 PUSH1 0x0 KECCAK256 SWAP1 JUMPDEST DUP2 SLOAD DUP2 MSTORE SWAP1 PUSH1 0x1 ADD SWAP1 PUSH1 0x20 ADD DUP1 DUP4 GT PUSH2 0xB04 JUMPI DUP3 SWAP1 SUB PUSH1 0x1F AND DUP3 ADD SWAP2 JUMPDEST POP POP POP POP POP DUP2 MSTORE PUSH1 0x20 ADD PUSH1 0x1 DUP3 ADD DUP1 SLOAD PUSH2 0xB3A SWAP1 PUSH2 0x3DC2 JUMP JUMPDEST DUP1 PUSH1 0x1F ADD PUSH1 0x20 DUP1 SWAP2 DIV MUL PUSH1 0x20 ADD PUSH1 0x40 MLOAD SWAP1 DUP2 ADD PUSH1 0x40 MSTORE DUP1 SWAP3 SWAP2 SWAP1 DUP2 DUP2 MSTORE PUSH1 0x20 ADD DUP3 DUP1 SLOAD PUSH2 0xB66 SWAP1 PUSH2 0x3DC2 JUMP JUMPDEST DUP1 ISZERO PUSH2 0xBB3 JUMPI DUP1 PUSH1 0x1F LT PUSH2 0xB88 JUMPI PUSH2 0x100 DUP1 DUP4 SLOAD DIV MUL DUP4 MSTORE SWAP2 PUSH1 0x20 ADD SWAP2 PUSH2 0xBB3 JUMP JUMPDEST DUP3 ADD SWAP2 SWAP1 PUSH1 0x0 MSTORE PUSH1 0x20 PUSH1 0x0 KECCAK256 SWAP1 JUMPDEST DUP2 SLOAD DUP2 MSTORE SWAP1 PUSH1 0x1 ADD SWAP1 PUSH1 0x20 ADD DUP1 DUP4 GT PUSH2 0xB96 JUMPI DUP3 SWAP1 SUB PUSH1 0x1F AND DUP3 ADD SWAP2 JUMPDEST POP POP POP POP POP DUP2 MSTORE PUSH1 0x20 ADD PUSH1 0x2 DUP3 ADD DUP1 SLOAD PUSH2 0xBCC SWAP1 PUSH2 0x3DC2 JUMP JUMPDEST DUP1 PUSH1 0x1F ADD PUSH1 0x20 DUP1 SWAP2 DIV MUL PUSH1 0x20 ADD PUSH1 0x40 MLOAD SWAP1 DUP2 ADD PUSH1 0x40 MSTORE DUP1 SWAP3 SWAP2 SWAP1 DUP2 DUP2 MSTORE PUSH1 0x20 ADD DUP3 DUP1 SLOAD PUSH2 0xBF8 SWAP1 PUSH2 0x3DC2 JUMP JUMPDEST DUP1 ISZERO PUSH2 0xC45 JUMPI DUP1 PUSH1 0x1F LT PUSH2 0xC1A JUMPI PUSH2 0x100 DUP1 DUP4 SLOAD DIV MUL DUP4 MSTORE SWAP2 PUSH1 0x20 ADD SWAP2 PUSH2 0xC45 JUMP JUMPDEST DUP3 ADD SWAP2 SWAP1 PUSH1 0x0 MSTORE PUSH1 0x20 PUSH1 0x0 KECCAK256 SWAP1 JUMPDEST DUP2 SLOAD DUP2 MSTORE SWAP1 PUSH1 0x1 ADD SWAP1 PUSH1 0x20 ADD DUP1 DUP4 GT PUSH2 0xC28 JUMPI DUP3 SWAP1 SUB PUSH1 0x1F AND DUP3 ADD SWAP2 JUMPDEST POP POP POP POP POP DUP2 MSTORE PUSH1 0x20 ADD PUSH1 0x3 DUP3 ADD SLOAD DUP2 MSTORE PUSH1 0x20 ADD PUSH1 0x4 DUP3 ADD SLOAD DUP2 MSTORE PUSH1 0x20 ADD PUSH1 0x5 DUP3 ADD SLOAD DUP2 MSTORE PUSH1 0x20 ADD PUSH1 0x6 DUP3 ADD SLOAD DUP2 MSTORE PUSH1 0x20 ADD PUSH1 0x7 DUP3 ADD SLOAD DUP2 MSTORE PUSH1 0x20 ADD PUSH1 0x8 DUP3 ADD PUSH1 0x0 SWAP1 SLOAD SWAP1 PUSH2 0x100 EXP SWAP1 DIV PUSH1 0xFF AND ISZERO ISZERO ISZERO ISZERO DUP2 MSTORE PUSH1 0x20 ADD PUSH1 0x8 DUP3 ADD PUSH1 0x1 SWAP1 SLOAD SWAP1 PUSH2 0x100 EXP SWAP1 DIV PUSH1 0xFF AND ISZERO ISZERO ISZERO ISZERO DUP2 MSTORE PUSH1 0x20 ADD PUSH1 0x8 DUP3 ADD PUSH1 0x2 SWAP1 SLOAD SWAP1 PUSH2 0x100 EXP SWAP1 DIV PUSH1 0xFF AND ISZERO ISZERO ISZERO ISZERO DUP2 MSTORE POP POP SWAP1 POP PUSH1 0x0 DUP2 PUSH1 0xE0 ADD MLOAD GT ISZERO PUSH2 0xD1B JUMPI PUSH1 0x40 MLOAD PUSH32 0x8C379A000000000000000000000000000000000000000000000000000000000 DUP2 MSTORE PUSH1 0x4 ADD PUSH2 0xD12 SWAP1 PUSH2 0x3A88 JUMP JUMPDEST PUSH1 0x40 MLOAD DUP1 SWAP2 SUB SWAP1 REVERT JUMPDEST DUP3 PUSH1 0x1 SLOAD GT ISZERO PUSH2 0xD60 JUMPI PUSH1 0x40 MLOAD PUSH32 0x8C379A000000000000000000000000000000000000000000000000000000000 DUP2 MSTORE PUSH1 0x4 ADD PUSH2 0xD57 SWAP1 PUSH2 0x3B08 JUMP JUMPDEST PUSH1 0x40 MLOAD DUP1 SWAP2 SUB SWAP1 REVERT JUMPDEST DUP3 DUP2 PUSH1 0xE0 ADD DUP2 DUP2 MLOAD PUSH2 0xD72 SWAP2 SWAP1 PUSH2 0x3C19 JUMP JUMPDEST SWAP2 POP DUP2 DUP2 MSTORE POP POP DUP3 PUSH1 0x1 PUSH1 0x0 DUP3 DUP3 SLOAD PUSH2 0xD8B SWAP2 SWAP1 PUSH2 0x3CFA JUMP JUMPDEST SWAP3 POP POP DUP2 SWAP1 SSTORE POP PUSH1 0x1 SWAP2 POP POP SWAP3 SWAP2 POP POP JUMP JUMPDEST PUSH1 0x0 DUP1 PUSH1 0x0 SWAP1 SLOAD SWAP1 PUSH2 0x100 EXP SWAP1 DIV PUSH20 0xFFFFFFFFFFFFFFFFFFFFFFFFFFFFFFFFFFFFFFFF AND PUSH20 0xFFFFFFFFFFFFFFFFFFFFFFFFFFFFFFFFFFFFFFFF AND CALLER PUSH20 0xFFFFFFFFFFFFFFFFFFFFFFFFFFFFFFFFFFFFFFFF AND EQ PUSH2 0xE2E JUMPI PUSH1 0x40 MLOAD PUSH32 0x8C379A000000000000000000000000000000000000000000000000000000000 DUP2 MSTORE PUSH1 0x4 ADD PUSH2 0xE25 SWAP1 PUSH2 0x3A28 JUMP JUMPDEST PUSH1 0x40 MLOAD DUP1 SWAP2 SUB SWAP1 REVERT JUMPDEST PUSH1 0x0 PUSH2 0xE3A DUP7 DUP7 PUSH2 0x2C74 JUMP JUMPDEST SWAP1 POP PUSH1 0x0 PUSH2 0xE48 DUP3 DUP7 PUSH2 0x2C74 JUMP JUMPDEST SWAP1 POP PUSH1 0x0 DUP2 PUSH1 0x40 MLOAD PUSH1 0x20 ADD PUSH2 0xE5D SWAP2 SWAP1 PUSH2 0x3930 JUMP JUMPDEST PUSH1 0x40 MLOAD PUSH1 0x20 DUP2 DUP4 SUB SUB DUP2 MSTORE SWAP1 PUSH1 0x40 MSTORE DUP1 MLOAD SWAP1 PUSH1 0x20 ADD KECCAK256 SWAP1 POP PUSH2 0xE7E DUP2 PUSH2 0x2C47 JUMP JUMPDEST ISZERO PUSH2 0xEBE JUMPI PUSH1 0x40 MLOAD PUSH32 0x8C379A000000000000000000000000000000000000000000000000000000000 DUP2 MSTORE PUSH1 0x4 ADD PUSH2 0xEB5 SWAP1 PUSH2 0x3AA8 JUMP JUMPDEST PUSH1 0x40 MLOAD DUP1 SWAP2 SUB SWAP1 REVERT JUMPDEST PUSH1 0x1 PUSH1 0x5 PUSH1 0x0 DUP4 DUP2 MSTORE PUSH1 0x20 ADD SWAP1 DUP2 MSTORE PUSH1 0x20 ADD PUSH1 0x0 KECCAK256 PUSH1 0x8 ADD PUSH1 0x1 PUSH2 0x100 EXP DUP2 SLOAD DUP2 PUSH1 0xFF MUL NOT AND SWAP1 DUP4 ISZERO ISZERO MUL OR SWAP1 SSTORE POP DUP8 PUSH1 0x5 PUSH1 0x0 DUP4 DUP2 MSTORE PUSH1 0x20 ADD SWAP1 DUP2 MSTORE PUSH1 0x20 ADD PUSH1 0x0 KECCAK256 PUSH1 0x0 ADD SWAP1 DUP1 MLOAD SWAP1 PUSH1 0x20 ADD SWAP1 PUSH2 0xF17 SWAP3 SWAP2 SWAP1 PUSH2 0x31AB JUMP JUMPDEST POP DUP7 PUSH1 0x5 PUSH1 0x0 DUP4 DUP2 MSTORE PUSH1 0x20 ADD SWAP1 DUP2 MSTORE PUSH1 0x20 ADD PUSH1 0x0 KECCAK256 PUSH1 0x1 ADD SWAP1 DUP1 MLOAD SWAP1 PUSH1 0x20 ADD SWAP1 PUSH2 0xF42 SWAP3 SWAP2 SWAP1 PUSH2 0x31AB JUMP JUMPDEST POP DUP6 PUSH1 0x5 PUSH1 0x0 DUP4 DUP2 MSTORE PUSH1 0x20 ADD SWAP1 DUP2 MSTORE PUSH1 0x20 ADD PUSH1 0x0 KECCAK256 PUSH1 0x2 ADD SWAP1 DUP1 MLOAD SWAP1 PUSH1 0x20 ADD SWAP1 PUSH2 0xF6D SWAP3 SWAP2 SWAP1 PUSH2 0x31AB JUMP JUMPDEST POP PUSH1 0x0 PUSH1 0x5 PUSH1 0x0 DUP4 DUP2 MSTORE PUSH1 0x20 ADD SWAP1 DUP2 MSTORE PUSH1 0x20 ADD PUSH1 0x0 KECCAK256 PUSH1 0x3 ADD DUP2 SWAP1 SSTORE POP PUSH1 0x0 PUSH1 0x5 PUSH1 0x0 DUP4 DUP2 MSTORE PUSH1 0x20 ADD SWAP1 DUP2 MSTORE PUSH1 0x20 ADD PUSH1 0x0 KECCAK256 PUSH1 0x4 ADD DUP2 SWAP1 SSTORE POP PUSH1 0x0 PUSH1 0x5 PUSH1 0x0 DUP4 DUP2 MSTORE PUSH1 0x20 ADD SWAP1 DUP2 MSTORE PUSH1 0x20 ADD PUSH1 0x0 KECCAK256 PUSH1 0x5 ADD DUP2 SWAP1 SSTORE POP PUSH1 0x0 PUSH1 0x5 PUSH1 0x0 DUP4 DUP2 MSTORE PUSH1 0x20 ADD SWAP1 DUP2 MSTORE PUSH1 0x20 ADD PUSH1 0x0 KECCAK256 PUSH1 0x6 ADD DUP2 SWAP1 SSTORE POP PUSH1 0x0 PUSH1 0x5 PUSH1 0x0 DUP4 DUP2 MSTORE PUSH1 0x20 ADD SWAP1 DUP2 MSTORE PUSH1 0x20 ADD PUSH1 0x0 KECCAK256 PUSH1 0x7 ADD DUP2 SWAP1 SSTORE POP DUP5 PUSH1 0x5 PUSH1 0x0 DUP4 DUP2 MSTORE PUSH1 0x20 ADD SWAP1 DUP2 MSTORE PUSH1 0x20 ADD PUSH1 0x0 KECCAK256 PUSH1 0x8 ADD PUSH1 0x0 PUSH2 0x100 EXP DUP2 SLOAD DUP2 PUSH1 0xFF MUL NOT AND SWAP1 DUP4 ISZERO ISZERO MUL OR SWAP1 SSTORE POP PUSH1 0x0 PUSH1 0x5 PUSH1 0x0 DUP4 DUP2 MSTORE PUSH1 0x20 ADD SWAP1 DUP2 MSTORE PUSH1 0x20 ADD PUSH1 0x0 KECCAK256 PUSH1 0x8 ADD PUSH1 0x2 PUSH2 0x100 EXP DUP2 SLOAD DUP2 PUSH1 0xFF MUL NOT AND SWAP1 DUP4 ISZERO ISZERO MUL OR SWAP1 SSTORE POP PUSH1 0x2 DUP2 SWAP1 DUP1 PUSH1 0x1 DUP2 SLOAD ADD DUP1 DUP3 SSTORE DUP1 SWAP2 POP POP PUSH1 0x1 SWAP1 SUB SWAP1 PUSH1 0x0 MSTORE PUSH1 0x20 PUSH1 0x0 KECCAK256 ADD PUSH1 0x0 SWAP1 SWAP2 SWAP1 SWAP2 SWAP1 SWAP2 POP SSTORE DUP1 SWAP4 POP POP POP POP SWAP5 SWAP4 POP POP POP POP JUMP JUMPDEST PUSH1 0x0 DUP1 PUSH1 0x0 SWAP1 SLOAD SWAP1 PUSH2 0x100 EXP SWAP1 DIV PUSH20 0xFFFFFFFFFFFFFFFFFFFFFFFFFFFFFFFFFFFFFFFF AND PUSH20 0xFFFFFFFFFFFFFFFFFFFFFFFFFFFFFFFFFFFFFFFF AND CALLER PUSH20 0xFFFFFFFFFFFFFFFFFFFFFFFFFFFFFFFFFFFFFFFF AND EQ PUSH2 0x111F JUMPI PUSH1 0x40 MLOAD PUSH32 0x8C379A000000000000000000000000000000000000000000000000000000000 DUP2 MSTORE PUSH1 0x4 ADD PUSH2 0x1116 SWAP1 PUSH2 0x3A28 JUMP JUMPDEST PUSH1 0x40 MLOAD DUP1 SWAP2 SUB SWAP1 REVERT JUMPDEST PUSH1 0x1 SLOAD SWAP1 POP SWAP1 JUMP JUMPDEST PUSH1 0x0 DUP1 PUSH1 0x0 SWAP1 SLOAD SWAP1 PUSH2 0x100 EXP SWAP1 DIV PUSH20 0xFFFFFFFFFFFFFFFFFFFFFFFFFFFFFFFFFFFFFFFF AND PUSH20 0xFFFFFFFFFFFFFFFFFFFFFFFFFFFFFFFFFFFFFFFF AND CALLER PUSH20 0xFFFFFFFFFFFFFFFFFFFFFFFFFFFFFFFFFFFFFFFF AND EQ PUSH2 0x11B8 JUMPI PUSH1 0x40 MLOAD PUSH32 0x8C379A000000000000000000000000000000000000000000000000000000000 DUP2 MSTORE PUSH1 0x4 ADD PUSH2 0x11AF SWAP1 PUSH2 0x3A28 JUMP JUMPDEST PUSH1 0x40 MLOAD DUP1 SWAP2 SUB SWAP1 REVERT JUMPDEST PUSH2 0x11C1 DUP3 PUSH2 0x2C47 JUMP JUMPDEST PUSH2 0x1200 JUMPI PUSH1 0x40 MLOAD PUSH32 0x8C379A000000000000000000000000000000000000000000000000000000000 DUP2 MSTORE PUSH1 0x4 ADD PUSH2 0x11F7 SWAP1 PUSH2 0x3A68 JUMP JUMPDEST PUSH1 0x40 MLOAD DUP1 SWAP2 SUB SWAP1 REVERT JUMPDEST PUSH1 0x0 PUSH1 0x5 PUSH1 0x0 DUP5 DUP2 MSTORE PUSH1 0x20 ADD SWAP1 DUP2 MSTORE PUSH1 0x20 ADD PUSH1 0x0 KECCAK256 PUSH1 0x40 MLOAD DUP1 PUSH2 0x160 ADD PUSH1 0x40 MSTORE SWAP1 DUP2 PUSH1 0x0 DUP3 ADD DUP1 SLOAD PUSH2 0x1231 SWAP1 PUSH2 0x3DC2 JUMP JUMPDEST DUP1 PUSH1 0x1F ADD PUSH1 0x20 DUP1 SWAP2 DIV MUL PUSH1 0x20 ADD PUSH1 0x40 MLOAD SWAP1 DUP2 ADD PUSH1 0x40 MSTORE DUP1 SWAP3 SWAP2 SWAP1 DUP2 DUP2 MSTORE PUSH1 0x20 ADD DUP3 DUP1 SLOAD PUSH2 0x125D SWAP1 PUSH2 0x3DC2 JUMP JUMPDEST DUP1 ISZERO PUSH2 0x12AA JUMPI DUP1 PUSH1 0x1F LT PUSH2 0x127F JUMPI PUSH2 0x100 DUP1 DUP4 SLOAD DIV MUL DUP4 MSTORE SWAP2 PUSH1 0x20 ADD SWAP2 PUSH2 0x12AA JUMP JUMPDEST DUP3 ADD SWAP2 SWAP1 PUSH1 0x0 MSTORE PUSH1 0x20 PUSH1 0x0 KECCAK256 SWAP1 JUMPDEST DUP2 SLOAD DUP2 MSTORE SWAP1 PUSH1 0x1 ADD SWAP1 PUSH1 0x20 ADD DUP1 DUP4 GT PUSH2 0x128D JUMPI DUP3 SWAP1 SUB PUSH1 0x1F AND DUP3 ADD SWAP2 JUMPDEST POP POP POP POP POP DUP2 MSTORE PUSH1 0x20 ADD PUSH1 0x1 DUP3 ADD DUP1 SLOAD PUSH2 0x12C3 SWAP1 PUSH2 0x3DC2 JUMP JUMPDEST DUP1 PUSH1 0x1F ADD PUSH1 0x20 DUP1 SWAP2 DIV MUL PUSH1 0x20 ADD PUSH1 0x40 MLOAD SWAP1 DUP2 ADD PUSH1 0x40 MSTORE DUP1 SWAP3 SWAP2 SWAP1 DUP2 DUP2 MSTORE PUSH1 0x20 ADD DUP3 DUP1 SLOAD PUSH2 0x12EF SWAP1 PUSH2 0x3DC2 JUMP JUMPDEST DUP1 ISZERO PUSH2 0x133C JUMPI DUP1 PUSH1 0x1F LT PUSH2 0x1311 JUMPI PUSH2 0x100 DUP1 DUP4 SLOAD DIV MUL DUP4 MSTORE SWAP2 PUSH1 0x20 ADD SWAP2 PUSH2 0x133C JUMP JUMPDEST DUP3 ADD SWAP2 SWAP1 PUSH1 0x0 MSTORE PUSH1 0x20 PUSH1 0x0 KECCAK256 SWAP1 JUMPDEST DUP2 SLOAD DUP2 MSTORE SWAP1 PUSH1 0x1 ADD SWAP1 PUSH1 0x20 ADD DUP1 DUP4 GT PUSH2 0x131F JUMPI DUP3 SWAP1 SUB PUSH1 0x1F AND DUP3 ADD SWAP2 JUMPDEST POP POP POP POP POP DUP2 MSTORE PUSH1 0x20 ADD PUSH1 0x2 DUP3 ADD DUP1 SLOAD PUSH2 0x1355 SWAP1 PUSH2 0x3DC2 JUMP JUMPDEST DUP1 PUSH1 0x1F ADD PUSH1 0x20 DUP1 SWAP2 DIV MUL PUSH1 0x20 ADD PUSH1 0x40 MLOAD SWAP1 DUP2 ADD PUSH1 0x40 MSTORE DUP1 SWAP3 SWAP2 SWAP1 DUP2 DUP2 MSTORE PUSH1 0x20 ADD DUP3 DUP1 SLOAD PUSH2 0x1381 SWAP1 PUSH2 0x3DC2 JUMP JUMPDEST DUP1 ISZERO PUSH2 0x13CE JUMPI DUP1 PUSH1 0x1F LT PUSH2 0x13A3 JUMPI PUSH2 0x100 DUP1 DUP4 SLOAD DIV MUL DUP4 MSTORE SWAP2 PUSH1 0x20 ADD SWAP2 PUSH2 0x13CE JUMP JUMPDEST DUP3 ADD SWAP2 SWAP1 PUSH1 0x0 MSTORE PUSH1 0x20 PUSH1 0x0 KECCAK256 SWAP1 JUMPDEST DUP2 SLOAD DUP2 MSTORE SWAP1 PUSH1 0x1 ADD SWAP1 PUSH1 0x20 ADD DUP1 DUP4 GT PUSH2 0x13B1 JUMPI DUP3 SWAP1 SUB PUSH1 0x1F AND DUP3 ADD SWAP2 JUMPDEST POP POP POP POP POP DUP2 MSTORE PUSH1 0x20 ADD PUSH1 0x3 DUP3 ADD SLOAD DUP2 MSTORE PUSH1 0x20 ADD PUSH1 0x4 DUP3 ADD SLOAD DUP2 MSTORE PUSH1 0x20 ADD PUSH1 0x5 DUP3 ADD SLOAD DUP2 MSTORE PUSH1 0x20 ADD PUSH1 0x6 DUP3 ADD SLOAD DUP2 MSTORE PUSH1 0x20 ADD PUSH1 0x7 DUP3 ADD SLOAD DUP2 MSTORE PUSH1 0x20 ADD PUSH1 0x8 DUP3 ADD PUSH1 0x0 SWAP1 SLOAD SWAP1 PUSH2 0x100 EXP SWAP1 DIV PUSH1 0xFF AND ISZERO ISZERO ISZERO ISZERO DUP2 MSTORE PUSH1 0x20 ADD PUSH1 0x8 DUP3 ADD PUSH1 0x1 SWAP1 SLOAD SWAP1 PUSH2 0x100 EXP SWAP1 DIV PUSH1 0xFF AND ISZERO ISZERO ISZERO ISZERO DUP2 MSTORE PUSH1 0x20 ADD PUSH1 0x8 DUP3 ADD PUSH1 0x2 SWAP1 SLOAD SWAP1 PUSH2 0x100 EXP SWAP1 DIV PUSH1 0xFF AND ISZERO ISZERO ISZERO ISZERO DUP2 MSTORE POP POP SWAP1 POP PUSH1 0x0 PUSH2 0x14B2 PUSH1 0xA DUP4 PUSH1 0xE0 ADD MLOAD DUP5 PUSH1 0xC0 ADD MLOAD DUP6 PUSH1 0x80 ADD MLOAD DUP7 PUSH1 0xA0 ADD MLOAD DUP8 PUSH1 0x60 ADD MLOAD PUSH2 0x1486 SWAP2 SWAP1 PUSH2 0x3C19 JUMP JUMPDEST PUSH2 0x1490 SWAP2 SWAP1 PUSH2 0x3C19 JUMP JUMPDEST PUSH2 0x149A SWAP2 SWAP1 PUSH2 0x3C19 JUMP JUMPDEST PUSH2 0x14A4 SWAP2 SWAP1 PUSH2 0x3C19 JUMP JUMPDEST PUSH2 0x445 SWAP1 SWAP2 SWAP1 PUSH4 0xFFFFFFFF AND JUMP JUMPDEST SWAP1 POP DUP1 SWAP3 POP POP POP SWAP2 SWAP1 POP JUMP JUMPDEST PUSH1 0x0 PUSH2 0x14C9 DUP6 PUSH2 0x2C47 JUMP JUMPDEST PUSH2 0x1508 JUMPI PUSH1 0x40 MLOAD PUSH32 0x8C379A000000000000000000000000000000000000000000000000000000000 DUP2 MSTORE PUSH1 0x4 ADD PUSH2 0x14FF SWAP1 PUSH2 0x3A68 JUMP JUMPDEST PUSH1 0x40 MLOAD DUP1 SWAP2 SUB SWAP1 REVERT JUMPDEST DUP6 PUSH1 0x4 PUSH1 0x0 DUP10 PUSH20 0xFFFFFFFFFFFFFFFFFFFFFFFFFFFFFFFFFFFFFFFF AND PUSH20 0xFFFFFFFFFFFFFFFFFFFFFFFFFFFFFFFFFFFFFFFF AND DUP2 MSTORE PUSH1 0x20 ADD SWAP1 DUP2 MSTORE PUSH1 0x20 ADD PUSH1 0x0 KECCAK256 SLOAD LT ISZERO PUSH2 0x158A JUMPI PUSH1 0x40 MLOAD PUSH32 0x8C379A000000000000000000000000000000000000000000000000000000000 DUP2 MSTORE PUSH1 0x4 ADD PUSH2 0x1581 SWAP1 PUSH2 0x3AE8 JUMP JUMPDEST PUSH1 0x40 MLOAD DUP1 SWAP2 SUB SWAP1 REVERT JUMPDEST PUSH1 0x0 PUSH1 0x5 PUSH1 0x0 DUP8 DUP2 MSTORE PUSH1 0x20 ADD SWAP1 DUP2 MSTORE PUSH1 0x20 ADD PUSH1 0x0 KECCAK256 PUSH1 0x40 MLOAD DUP1 PUSH2 0x160 ADD PUSH1 0x40 MSTORE SWAP1 DUP2 PUSH1 0x0 DUP3 ADD DUP1 SLOAD PUSH2 0x15BB SWAP1 PUSH2 0x3DC2 JUMP JUMPDEST DUP1 PUSH1 0x1F ADD PUSH1 0x20 DUP1 SWAP2 DIV MUL PUSH1 0x20 ADD PUSH1 0x40 MLOAD SWAP1 DUP2 ADD PUSH1 0x40 MSTORE DUP1 SWAP3 SWAP2 SWAP1 DUP2 DUP2 MSTORE PUSH1 0x20 ADD DUP3 DUP1 SLOAD PUSH2 0x15E7 SWAP1 PUSH2 0x3DC2 JUMP JUMPDEST DUP1 ISZERO PUSH2 0x1634 JUMPI DUP1 PUSH1 0x1F LT PUSH2 0x1609 JUMPI PUSH2 0x100 DUP1 DUP4 SLOAD DIV MUL DUP4 MSTORE SWAP2 PUSH1 0x20 ADD SWAP2 PUSH2 0x1634 JUMP JUMPDEST DUP3 ADD SWAP2 SWAP1 PUSH1 0x0 MSTORE PUSH1 0x20 PUSH1 0x0 KECCAK256 SWAP1 JUMPDEST DUP2 SLOAD DUP2 MSTORE SWAP1 PUSH1 0x1 ADD SWAP1 PUSH1 0x20 ADD DUP1 DUP4 GT PUSH2 0x1617 JUMPI DUP3 SWAP1 SUB PUSH1 0x1F AND DUP3 ADD SWAP2 JUMPDEST POP POP POP POP POP DUP2 MSTORE PUSH1 0x20 ADD PUSH1 0x1 DUP3 ADD DUP1 SLOAD PUSH2 0x164D SWAP1 PUSH2 0x3DC2 JUMP JUMPDEST DUP1 PUSH1 0x1F ADD PUSH1 0x20 DUP1 SWAP2 DIV MUL PUSH1 0x20 ADD PUSH1 0x40 MLOAD SWAP1 DUP2 ADD PUSH1 0x40 MSTORE DUP1 SWAP3 SWAP2 SWAP1 DUP2 DUP2 MSTORE PUSH1 0x20 ADD DUP3 DUP1 SLOAD PUSH2 0x1679 SWAP1 PUSH2 0x3DC2 JUMP JUMPDEST DUP1 ISZERO PUSH2 0x16C6 JUMPI DUP1 PUSH1 0x1F LT PUSH2 0x169B JUMPI PUSH2 0x100 DUP1 DUP4 SLOAD DIV MUL DUP4 MSTORE SWAP2 PUSH1 0x20 ADD SWAP2 PUSH2 0x16C6 JUMP JUMPDEST DUP3 ADD SWAP2 SWAP1 PUSH1 0x0 MSTORE PUSH1 0x20 PUSH1 0x0 KECCAK256 SWAP1 JUMPDEST DUP2 SLOAD DUP2 MSTORE SWAP1 PUSH1 0x1 ADD SWAP1 PUSH1 0x20 ADD DUP1 DUP4 GT PUSH2 0x16A9 JUMPI DUP3 SWAP1 SUB PUSH1 0x1F AND DUP3 ADD SWAP2 JUMPDEST POP POP POP POP POP DUP2 MSTORE PUSH1 0x20 ADD PUSH1 0x2 DUP3 ADD DUP1 SLOAD PUSH2 0x16DF SWAP1 PUSH2 0x3DC2 JUMP JUMPDEST DUP1 PUSH1 0x1F ADD PUSH1 0x20 DUP1 SWAP2 DIV MUL PUSH1 0x20 ADD PUSH1 0x40 MLOAD SWAP1 DUP2 ADD PUSH1 0x40 MSTORE DUP1 SWAP3 SWAP2 SWAP1 DUP2 DUP2 MSTORE PUSH1 0x20 ADD DUP3 DUP1 SLOAD PUSH2 0x170B SWAP1 PUSH2 0x3DC2 JUMP JUMPDEST DUP1 ISZERO PUSH2 0x1758 JUMPI DUP1 PUSH1 0x1F LT PUSH2 0x172D JUMPI PUSH2 0x100 DUP1 DUP4 SLOAD DIV MUL DUP4 MSTORE SWAP2 PUSH1 0x20 ADD SWAP2 PUSH2 0x1758 JUMP JUMPDEST DUP3 ADD SWAP2 SWAP1 PUSH1 0x0 MSTORE PUSH1 0x20 PUSH1 0x0 KECCAK256 SWAP1 JUMPDEST DUP2 SLOAD DUP2 MSTORE SWAP1 PUSH1 0x1 ADD SWAP1 PUSH1 0x20 ADD DUP1 DUP4 GT PUSH2 0x173B JUMPI DUP3 SWAP1 SUB PUSH1 0x1F AND DUP3 ADD SWAP2 JUMPDEST POP POP POP POP POP DUP2 MSTORE PUSH1 0x20 ADD PUSH1 0x3 DUP3 ADD SLOAD DUP2 MSTORE PUSH1 0x20 ADD PUSH1 0x4 DUP3 ADD SLOAD DUP2 MSTORE PUSH1 0x20 ADD PUSH1 0x5 DUP3 ADD SLOAD DUP2 MSTORE PUSH1 0x20 ADD PUSH1 0x6 DUP3 ADD SLOAD DUP2 MSTORE PUSH1 0x20 ADD PUSH1 0x7 DUP3 ADD SLOAD DUP2 MSTORE PUSH1 0x20 ADD PUSH1 0x8 DUP3 ADD PUSH1 0x0 SWAP1 SLOAD SWAP1 PUSH2 0x100 EXP SWAP1 DIV PUSH1 0xFF AND ISZERO ISZERO ISZERO ISZERO DUP2 MSTORE PUSH1 0x20 ADD PUSH1 0x8 DUP3 ADD PUSH1 0x1 SWAP1 SLOAD SWAP1 PUSH2 0x100 EXP SWAP1 DIV PUSH1 0xFF AND ISZERO ISZERO ISZERO ISZERO DUP2 MSTORE PUSH1 0x20 ADD PUSH1 0x8 DUP3 ADD PUSH1 0x2 SWAP1 SLOAD SWAP1 PUSH2 0x100 EXP SWAP1 DIV PUSH1 0xFF AND ISZERO ISZERO ISZERO ISZERO DUP2 MSTORE POP POP SWAP1 POP PUSH1 0x0 PUSH2 0x1802 PUSH2 0x17F4 DUP8 PUSH2 0x2E0A JUMP JUMPDEST PUSH2 0x17FD DUP8 PUSH2 0x2E0A JUMP JUMPDEST PUSH2 0x2C74 JUMP JUMPDEST SWAP1 POP PUSH1 0x0 PUSH2 0x1818 PUSH2 0x1812 DUP10 PUSH2 0x2E3B JUMP JUMPDEST DUP4 PUSH2 0x2C74 JUMP JUMPDEST SWAP1 POP PUSH1 0x0 PUSH1 0x40 MLOAD DUP1 PUSH1 0xE0 ADD PUSH1 0x40 MSTORE DUP1 DUP12 DUP2 MSTORE PUSH1 0x20 ADD DUP8 DUP2 MSTORE PUSH1 0x20 ADD DUP10 DUP2 MSTORE PUSH1 0x20 ADD DUP9 DUP2 MSTORE PUSH1 0x20 ADD DUP13 PUSH20 0xFFFFFFFFFFFFFFFFFFFFFFFFFFFFFFFFFFFFFFFF AND DUP2 MSTORE PUSH1 0x20 ADD DUP4 DUP2 MSTORE PUSH1 0x20 ADD PUSH1 0x0 ISZERO ISZERO DUP2 MSTORE POP SWAP1 POP DUP9 PUSH1 0x6 PUSH1 0x0 DUP12 DUP2 MSTORE PUSH1 0x20 ADD SWAP1 DUP2 MSTORE PUSH1 0x20 ADD PUSH1 0x0 KECCAK256 PUSH1 0x1 ADD DUP2 SWAP1 SSTORE POP PUSH1 0x6 PUSH1 0x0 DUP11 DUP2 MSTORE PUSH1 0x20 ADD SWAP1 DUP2 MSTORE PUSH1 0x20 ADD PUSH1 0x0 KECCAK256 PUSH1 0x0 ADD DUP2 SWAP1 DUP1 PUSH1 0x1 DUP2 SLOAD ADD DUP1 DUP3 SSTORE DUP1 SWAP2 POP POP PUSH1 0x1 SWAP1 SUB SWAP1 PUSH1 0x0 MSTORE PUSH1 0x20 PUSH1 0x0 KECCAK256 SWAP1 PUSH1 0x7 MUL ADD PUSH1 0x0 SWAP1 SWAP2 SWAP1 SWAP2 SWAP1 SWAP2 POP PUSH1 0x0 DUP3 ADD MLOAD DUP2 PUSH1 0x0 ADD SSTORE PUSH1 0x20 DUP3 ADD MLOAD DUP2 PUSH1 0x1 ADD SSTORE PUSH1 0x40 DUP3 ADD MLOAD DUP2 PUSH1 0x2 ADD SSTORE PUSH1 0x60 DUP3 ADD MLOAD DUP2 PUSH1 0x3 ADD SSTORE PUSH1 0x80 DUP3 ADD MLOAD DUP2 PUSH1 0x4 ADD PUSH1 0x0 PUSH2 0x100 EXP DUP2 SLOAD DUP2 PUSH20 0xFFFFFFFFFFFFFFFFFFFFFFFFFFFFFFFFFFFFFFFF MUL NOT AND SWAP1 DUP4 PUSH20 0xFFFFFFFFFFFFFFFFFFFFFFFFFFFFFFFFFFFFFFFF AND MUL OR SWAP1 SSTORE POP PUSH1 0xA0 DUP3 ADD MLOAD DUP2 PUSH1 0x5 ADD SWAP1 DUP1 MLOAD SWAP1 PUSH1 0x20 ADD SWAP1 PUSH2 0x1950 SWAP3 SWAP2 SWAP1 PUSH2 0x31AB JUMP JUMPDEST POP PUSH1 0xC0 DUP3 ADD MLOAD DUP2 PUSH1 0x6 ADD PUSH1 0x0 PUSH2 0x100 EXP DUP2 SLOAD DUP2 PUSH1 0xFF MUL NOT AND SWAP1 DUP4 ISZERO ISZERO MUL OR SWAP1 SSTORE POP POP POP DUP11 PUSH1 0x8 PUSH1 0x0 DUP14 PUSH20 0xFFFFFFFFFFFFFFFFFFFFFFFFFFFFFFFFFFFFFFFF AND PUSH20 0xFFFFFFFFFFFFFFFFFFFFFFFFFFFFFFFFFFFFFFFF AND DUP2 MSTORE PUSH1 0x20 ADD SWAP1 DUP2 MSTORE PUSH1 0x20 ADD PUSH1 0x0 KECCAK256 PUSH1 0x1 ADD PUSH1 0x0 PUSH2 0x100 EXP DUP2 SLOAD DUP2 PUSH20 0xFFFFFFFFFFFFFFFFFFFFFFFFFFFFFFFFFFFFFFFF MUL NOT AND SWAP1 DUP4 PUSH20 0xFFFFFFFFFFFFFFFFFFFFFFFFFFFFFFFFFFFFFFFF AND MUL OR SWAP1 SSTORE POP PUSH1 0x6 PUSH1 0x0 DUP11 DUP2 MSTORE PUSH1 0x20 ADD SWAP1 DUP2 MSTORE PUSH1 0x20 ADD PUSH1 0x0 KECCAK256 PUSH1 0x0 ADD DUP2 SWAP1 DUP1 PUSH1 0x1 DUP2 SLOAD ADD DUP1 DUP3 SSTORE DUP1 SWAP2 POP POP PUSH1 0x1 SWAP1 SUB SWAP1 PUSH1 0x0 MSTORE PUSH1 0x20 PUSH1 0x0 KECCAK256 SWAP1 PUSH1 0x7 MUL ADD PUSH1 0x0 SWAP1 SWAP2 SWAP1 SWAP2 SWAP1 SWAP2 POP PUSH1 0x0 DUP3 ADD MLOAD DUP2 PUSH1 0x0 ADD SSTORE PUSH1 0x20 DUP3 ADD MLOAD DUP2 PUSH1 0x1 ADD SSTORE PUSH1 0x40 DUP3 ADD MLOAD DUP2 PUSH1 0x2 ADD SSTORE PUSH1 0x60 DUP3 ADD MLOAD DUP2 PUSH1 0x3 ADD SSTORE PUSH1 0x80 DUP3 ADD MLOAD DUP2 PUSH1 0x4 ADD PUSH1 0x0 PUSH2 0x100 EXP DUP2 SLOAD DUP2 PUSH20 0xFFFFFFFFFFFFFFFFFFFFFFFFFFFFFFFFFFFFFFFF MUL NOT AND SWAP1 DUP4 PUSH20 0xFFFFFFFFFFFFFFFFFFFFFFFFFFFFFFFFFFFFFFFF AND MUL OR SWAP1 SSTORE POP PUSH1 0xA0 DUP3 ADD MLOAD DUP2 PUSH1 0x5 ADD SWAP1 DUP1 MLOAD SWAP1 PUSH1 0x20 ADD SWAP1 PUSH2 0x1ABF SWAP3 SWAP2 SWAP1 PUSH2 0x31AB JUMP JUMPDEST POP PUSH1 0xC0 DUP3 ADD MLOAD DUP2 PUSH1 0x6 ADD PUSH1 0x0 PUSH2 0x100 EXP DUP2 SLOAD DUP2 PUSH1 0xFF MUL NOT AND SWAP1 DUP4 ISZERO ISZERO MUL OR SWAP1 SSTORE POP POP POP PUSH1 0x2 DUP7 EQ ISZERO PUSH2 0x1B3E JUMPI DUP10 DUP5 PUSH1 0xC0 ADD DUP2 DUP2 MLOAD PUSH2 0x1AFD SWAP2 SWAP1 PUSH2 0x3C19 JUMP JUMPDEST SWAP2 POP DUP2 DUP2 MSTORE POP POP DUP10 PUSH1 0x7 DUP4 PUSH1 0x40 MLOAD PUSH2 0x1B15 SWAP2 SWAP1 PUSH2 0x3930 JUMP JUMPDEST SWAP1 DUP2 MSTORE PUSH1 0x20 ADD PUSH1 0x40 MLOAD DUP1 SWAP2 SUB SWAP1 KECCAK256 PUSH1 0x0 DUP3 DUP3 SLOAD PUSH2 0x1B32 SWAP2 SWAP1 PUSH2 0x3C19 JUMP JUMPDEST SWAP3 POP POP DUP2 SWAP1 SSTORE POP PUSH2 0x1BA8 JUMP JUMPDEST PUSH1 0x3 DUP7 EQ ISZERO PUSH2 0x1B65 JUMPI DUP10 DUP5 PUSH1 0x60 ADD DUP2 DUP2 MLOAD PUSH2 0x1B59 SWAP2 SWAP1 PUSH2 0x3C19 JUMP JUMPDEST SWAP2 POP DUP2 DUP2 MSTORE POP POP PUSH2 0x1BA7 JUMP JUMPDEST PUSH1 0x1 DUP7 EQ ISZERO PUSH2 0x1B8C JUMPI DUP10 DUP5 PUSH1 0x80 ADD DUP2 DUP2 MLOAD PUSH2 0x1B80 SWAP2 SWAP1 PUSH2 0x3C19 JUMP JUMPDEST SWAP2 POP DUP2 DUP2 MSTORE POP POP PUSH2 0x1BA6 JUMP JUMPDEST DUP10 DUP5 PUSH1 0xA0 ADD DUP2 DUP2 MLOAD PUSH2 0x1B9E SWAP2 SWAP1 PUSH2 0x3C19 JUMP JUMPDEST SWAP2 POP DUP2 DUP2 MSTORE POP POP JUMPDEST JUMPDEST JUMPDEST DUP10 PUSH1 0x4 PUSH1 0x0 DUP14 PUSH20 0xFFFFFFFFFFFFFFFFFFFFFFFFFFFFFFFFFFFFFFFF AND PUSH20 0xFFFFFFFFFFFFFFFFFFFFFFFFFFFFFFFFFFFFFFFF AND DUP2 MSTORE PUSH1 0x20 ADD SWAP1 DUP2 MSTORE PUSH1 0x20 ADD PUSH1 0x0 KECCAK256 PUSH1 0x0 DUP3 DUP3 SLOAD PUSH2 0x1BF7 SWAP2 SWAP1 PUSH2 0x3CFA JUMP JUMPDEST SWAP3 POP POP DUP2 SWAP1 SSTORE POP POP POP POP POP PUSH1 0x1 SWAP1 POP SWAP7 SWAP6 POP POP POP POP POP POP JUMP JUMPDEST PUSH1 0x0 DUP1 PUSH1 0x0 SWAP1 SLOAD SWAP1 PUSH2 0x100 EXP SWAP1 DIV PUSH20 0xFFFFFFFFFFFFFFFFFFFFFFFFFFFFFFFFFFFFFFFF AND PUSH20 0xFFFFFFFFFFFFFFFFFFFFFFFFFFFFFFFFFFFFFFFF AND CALLER PUSH20 0xFFFFFFFFFFFFFFFFFFFFFFFFFFFFFFFFFFFFFFFF AND EQ PUSH2 0x1CA1 JUMPI PUSH1 0x40 MLOAD PUSH32 0x8C379A000000000000000000000000000000000000000000000000000000000 DUP2 MSTORE PUSH1 0x4 ADD PUSH2 0x1C98 SWAP1 PUSH2 0x3A28 JUMP JUMPDEST PUSH1 0x40 MLOAD DUP1 SWAP2 SUB SWAP1 REVERT JUMPDEST PUSH2 0x1CAA DUP6 PUSH2 0x2C47 JUMP JUMPDEST PUSH2 0x1CE9 JUMPI PUSH1 0x40 MLOAD PUSH32 0x8C379A000000000000000000000000000000000000000000000000000000000 DUP2 MSTORE PUSH1 0x4 ADD PUSH2 0x1CE0 SWAP1 PUSH2 0x3A68 JUMP JUMPDEST PUSH1 0x40 MLOAD DUP1 SWAP2 SUB SWAP1 REVERT JUMPDEST PUSH1 0x0 PUSH1 0x5 PUSH1 0x0 DUP8 DUP2 MSTORE PUSH1 0x20 ADD SWAP1 DUP2 MSTORE PUSH1 0x20 ADD PUSH1 0x0 KECCAK256 PUSH1 0x40 MLOAD DUP1 PUSH2 0x160 ADD PUSH1 0x40 MSTORE SWAP1 DUP2 PUSH1 0x0 DUP3 ADD DUP1 SLOAD PUSH2 0x1D1A SWAP1 PUSH2 0x3DC2 JUMP JUMPDEST DUP1 PUSH1 0x1F ADD PUSH1 0x20 DUP1 SWAP2 DIV MUL PUSH1 0x20 ADD PUSH1 0x40 MLOAD SWAP1 DUP2 ADD PUSH1 0x40 MSTORE DUP1 SWAP3 SWAP2 SWAP1 DUP2 DUP2 MSTORE PUSH1 0x20 ADD DUP3 DUP1 SLOAD PUSH2 0x1D46 SWAP1 PUSH2 0x3DC2 JUMP JUMPDEST DUP1 ISZERO PUSH2 0x1D93 JUMPI DUP1 PUSH1 0x1F LT PUSH2 0x1D68 JUMPI PUSH2 0x100 DUP1 DUP4 SLOAD DIV MUL DUP4 MSTORE SWAP2 PUSH1 0x20 ADD SWAP2 PUSH2 0x1D93 JUMP JUMPDEST DUP3 ADD SWAP2 SWAP1 PUSH1 0x0 MSTORE PUSH1 0x20 PUSH1 0x0 KECCAK256 SWAP1 JUMPDEST DUP2 SLOAD DUP2 MSTORE SWAP1 PUSH1 0x1 ADD SWAP1 PUSH1 0x20 ADD DUP1 DUP4 GT PUSH2 0x1D76 JUMPI DUP3 SWAP1 SUB PUSH1 0x1F AND DUP3 ADD SWAP2 JUMPDEST POP POP POP POP POP DUP2 MSTORE PUSH1 0x20 ADD PUSH1 0x1 DUP3 ADD DUP1 SLOAD PUSH2 0x1DAC SWAP1 PUSH2 0x3DC2 JUMP JUMPDEST DUP1 PUSH1 0x1F ADD PUSH1 0x20 DUP1 SWAP2 DIV MUL PUSH1 0x20 ADD PUSH1 0x40 MLOAD SWAP1 DUP2 ADD PUSH1 0x40 MSTORE DUP1 SWAP3 SWAP2 SWAP1 DUP2 DUP2 MSTORE PUSH1 0x20 ADD DUP3 DUP1 SLOAD PUSH2 0x1DD8 SWAP1 PUSH2 0x3DC2 JUMP JUMPDEST DUP1 ISZERO PUSH2 0x1E25 JUMPI DUP1 PUSH1 0x1F LT PUSH2 0x1DFA JUMPI PUSH2 0x100 DUP1 DUP4 SLOAD DIV MUL DUP4 MSTORE SWAP2 PUSH1 0x20 ADD SWAP2 PUSH2 0x1E25 JUMP JUMPDEST DUP3 ADD SWAP2 SWAP1 PUSH1 0x0 MSTORE PUSH1 0x20 PUSH1 0x0 KECCAK256 SWAP1 JUMPDEST DUP2 SLOAD DUP2 MSTORE SWAP1 PUSH1 0x1 ADD SWAP1 PUSH1 0x20 ADD DUP1 DUP4 GT PUSH2 0x1E08 JUMPI DUP3 SWAP1 SUB PUSH1 0x1F AND DUP3 ADD SWAP2 JUMPDEST POP POP POP POP POP DUP2 MSTORE PUSH1 0x20 ADD PUSH1 0x2 DUP3 ADD DUP1 SLOAD PUSH2 0x1E3E SWAP1 PUSH2 0x3DC2 JUMP JUMPDEST DUP1 PUSH1 0x1F ADD PUSH1 0x20 DUP1 SWAP2 DIV MUL PUSH1 0x20 ADD PUSH1 0x40 MLOAD SWAP1 DUP2 ADD PUSH1 0x40 MSTORE DUP1 SWAP3 SWAP2 SWAP1 DUP2 DUP2 MSTORE PUSH1 0x20 ADD DUP3 DUP1 SLOAD PUSH2 0x1E6A SWAP1 PUSH2 0x3DC2 JUMP JUMPDEST DUP1 ISZERO PUSH2 0x1EB7 JUMPI DUP1 PUSH1 0x1F LT PUSH2 0x1E8C JUMPI PUSH2 0x100 DUP1 DUP4 SLOAD DIV MUL DUP4 MSTORE SWAP2 PUSH1 0x20 ADD SWAP2 PUSH2 0x1EB7 JUMP JUMPDEST DUP3 ADD SWAP2 SWAP1 PUSH1 0x0 MSTORE PUSH1 0x20 PUSH1 0x0 KECCAK256 SWAP1 JUMPDEST DUP2 SLOAD DUP2 MSTORE SWAP1 PUSH1 0x1 ADD SWAP1 PUSH1 0x20 ADD DUP1 DUP4 GT PUSH2 0x1E9A JUMPI DUP3 SWAP1 SUB PUSH1 0x1F AND DUP3 ADD SWAP2 JUMPDEST POP POP POP POP POP DUP2 MSTORE PUSH1 0x20 ADD PUSH1 0x3 DUP3 ADD SLOAD DUP2 MSTORE PUSH1 0x20 ADD PUSH1 0x4 DUP3 ADD SLOAD DUP2 MSTORE PUSH1 0x20 ADD PUSH1 0x5 DUP3 ADD SLOAD DUP2 MSTORE PUSH1 0x20 ADD PUSH1 0x6 DUP3 ADD SLOAD DUP2 MSTORE PUSH1 0x20 ADD PUSH1 0x7 DUP3 ADD SLOAD DUP2 MSTORE PUSH1 0x20 ADD PUSH1 0x8 DUP3 ADD PUSH1 0x0 SWAP1 SLOAD SWAP1 PUSH2 0x100 EXP SWAP1 DIV PUSH1 0xFF AND ISZERO ISZERO ISZERO ISZERO DUP2 MSTORE PUSH1 0x20 ADD PUSH1 0x8 DUP3 ADD PUSH1 0x1 SWAP1 SLOAD SWAP1 PUSH2 0x100 EXP SWAP1 DIV PUSH1 0xFF AND ISZERO ISZERO ISZERO ISZERO DUP2 MSTORE PUSH1 0x20 ADD PUSH1 0x8 DUP3 ADD PUSH1 0x2 SWAP1 SLOAD SWAP1 PUSH2 0x100 EXP SWAP1 DIV PUSH1 0xFF AND ISZERO ISZERO ISZERO ISZERO DUP2 MSTORE POP POP SWAP1 POP PUSH1 0x1 DUP2 PUSH2 0x140 ADD SWAP1 ISZERO ISZERO SWAP1 DUP2 ISZERO ISZERO DUP2 MSTORE POP ISZERO PUSH2 0x1F96 JUMPI PUSH1 0x40 MLOAD PUSH32 0x8C379A000000000000000000000000000000000000000000000000000000000 DUP2 MSTORE PUSH1 0x4 ADD PUSH2 0x1F8D SWAP1 PUSH2 0x3B28 JUMP JUMPDEST PUSH1 0x40 MLOAD DUP1 SWAP2 SUB SWAP1 REVERT JUMPDEST PUSH1 0x0 PUSH1 0x6 PUSH1 0x0 DUP9 DUP2 MSTORE PUSH1 0x20 ADD SWAP1 DUP2 MSTORE PUSH1 0x20 ADD PUSH1 0x0 KECCAK256 PUSH1 0x0 ADD DUP1 SLOAD DUP1 PUSH1 0x20 MUL PUSH1 0x20 ADD PUSH1 0x40 MLOAD SWAP1 DUP2 ADD PUSH1 0x40 MSTORE DUP1 SWAP3 SWAP2 SWAP1 DUP2 DUP2 MSTORE PUSH1 0x20 ADD PUSH1 0x0 SWAP1 JUMPDEST DUP3 DUP3 LT ISZERO PUSH2 0x212B JUMPI DUP4 DUP3 SWAP1 PUSH1 0x0 MSTORE PUSH1 0x20 PUSH1 0x0 KECCAK256 SWAP1 PUSH1 0x7 MUL ADD PUSH1 0x40 MLOAD DUP1 PUSH1 0xE0 ADD PUSH1 0x40 MSTORE SWAP1 DUP2 PUSH1 0x0 DUP3 ADD SLOAD DUP2 MSTORE PUSH1 0x20 ADD PUSH1 0x1 DUP3 ADD SLOAD DUP2 MSTORE PUSH1 0x20 ADD PUSH1 0x2 DUP3 ADD SLOAD DUP2 MSTORE PUSH1 0x20 ADD PUSH1 0x3 DUP3 ADD SLOAD DUP2 MSTORE PUSH1 0x20 ADD PUSH1 0x4 DUP3 ADD PUSH1 0x0 SWAP1 SLOAD SWAP1 PUSH2 0x100 EXP SWAP1 DIV PUSH20 0xFFFFFFFFFFFFFFFFFFFFFFFFFFFFFFFFFFFFFFFF AND PUSH20 0xFFFFFFFFFFFFFFFFFFFFFFFFFFFFFFFFFFFFFFFF AND PUSH20 0xFFFFFFFFFFFFFFFFFFFFFFFFFFFFFFFFFFFFFFFF AND DUP2 MSTORE PUSH1 0x20 ADD PUSH1 0x5 DUP3 ADD DUP1 SLOAD PUSH2 0x207F SWAP1 PUSH2 0x3DC2 JUMP JUMPDEST DUP1 PUSH1 0x1F ADD PUSH1 0x20 DUP1 SWAP2 DIV MUL PUSH1 0x20 ADD PUSH1 0x40 MLOAD SWAP1 DUP2 ADD PUSH1 0x40 MSTORE DUP1 SWAP3 SWAP2 SWAP1 DUP2 DUP2 MSTORE PUSH1 0x20 ADD DUP3 DUP1 SLOAD PUSH2 0x20AB SWAP1 PUSH2 0x3DC2 JUMP JUMPDEST DUP1 ISZERO PUSH2 0x20F8 JUMPI DUP1 PUSH1 0x1F LT PUSH2 0x20CD JUMPI PUSH2 0x100 DUP1 DUP4 SLOAD DIV MUL DUP4 MSTORE SWAP2 PUSH1 0x20 ADD SWAP2 PUSH2 0x20F8 JUMP JUMPDEST DUP3 ADD SWAP2 SWAP1 PUSH1 0x0 MSTORE PUSH1 0x20 PUSH1 0x0 KECCAK256 SWAP1 JUMPDEST DUP2 SLOAD DUP2 MSTORE SWAP1 PUSH1 0x1 ADD SWAP1 PUSH1 0x20 ADD DUP1 DUP4 GT PUSH2 0x20DB JUMPI DUP3 SWAP1 SUB PUSH1 0x1F AND DUP3 ADD SWAP2 JUMPDEST POP POP POP POP POP DUP2 MSTORE PUSH1 0x20 ADD PUSH1 0x6 DUP3 ADD PUSH1 0x0 SWAP1 SLOAD SWAP1 PUSH2 0x100 EXP SWAP1 DIV PUSH1 0xFF AND ISZERO ISZERO ISZERO ISZERO DUP2 MSTORE POP POP DUP2 MSTORE PUSH1 0x20 ADD SWAP1 PUSH1 0x1 ADD SWAP1 PUSH2 0x1FCE JUMP JUMPDEST POP POP POP POP SWAP1 POP PUSH1 0x0 PUSH2 0x219A PUSH1 0x14 PUSH2 0x2150 PUSH1 0x2 DUP7 PUSH1 0xE0 ADD MLOAD PUSH2 0x445 SWAP1 SWAP2 SWAP1 PUSH4 0xFFFFFFFF AND JUMP JUMPDEST DUP6 PUSH1 0x80 ADD MLOAD DUP7 PUSH1 0xA0 ADD MLOAD DUP8 PUSH1 0x60 ADD MLOAD DUP9 PUSH1 0xC0 ADD MLOAD PUSH2 0x216E SWAP2 SWAP1 PUSH2 0x3C19 JUMP JUMPDEST PUSH2 0x2178 SWAP2 SWAP1 PUSH2 0x3C19 JUMP JUMPDEST PUSH2 0x2182 SWAP2 SWAP1 PUSH2 0x3C19 JUMP JUMPDEST PUSH2 0x218C SWAP2 SWAP1 PUSH2 0x3C19 JUMP JUMPDEST PUSH2 0x445 SWAP1 SWAP2 SWAP1 PUSH4 0xFFFFFFFF AND JUMP JUMPDEST PUSH1 0x1 PUSH1 0x0 DUP3 DUP3 SLOAD PUSH2 0x21AB SWAP2 SWAP1 PUSH2 0x3C19 JUMP JUMPDEST SWAP3 POP POP DUP2 SWAP1 SSTORE POP PUSH1 0x0 JUMPDEST PUSH1 0x1 DUP4 MLOAD PUSH2 0x21C3 SWAP2 SWAP1 PUSH2 0x3CFA JUMP JUMPDEST DUP2 GT PUSH2 0x2661 JUMPI PUSH1 0x0 DUP4 DUP3 DUP2 MLOAD DUP2 LT PUSH2 0x21DE JUMPI PUSH2 0x21DD PUSH2 0x3F0F JUMP JUMPDEST JUMPDEST PUSH1 0x20 MUL PUSH1 0x20 ADD ADD MLOAD PUSH1 0xC0 ADD SWAP1 ISZERO ISZERO SWAP1 DUP2 ISZERO ISZERO DUP2 MSTORE POP ISZERO PUSH2 0x264E JUMPI PUSH1 0x2 DUP4 DUP3 DUP2 MLOAD DUP2 LT PUSH2 0x220D JUMPI PUSH2 0x220C PUSH2 0x3F0F JUMP JUMPDEST JUMPDEST PUSH1 0x20 MUL PUSH1 0x20 ADD ADD MLOAD PUSH1 0x20 ADD MLOAD EQ ISZERO PUSH2 0x23DE JUMPI PUSH2 0x226C PUSH1 0x64 PUSH2 0x225E PUSH1 0x55 PUSH2 0x2241 PUSH1 0x2 DUP10 PUSH1 0xE0 ADD MLOAD PUSH2 0x445 SWAP1 SWAP2 SWAP1 PUSH4 0xFFFFFFFF AND JUMP JUMPDEST DUP9 PUSH1 0xC0 ADD MLOAD PUSH2 0x2250 SWAP2 SWAP1 PUSH2 0x3C19 JUMP JUMPDEST PUSH2 0x2E6C SWAP1 SWAP2 SWAP1 PUSH4 0xFFFFFFFF AND JUMP JUMPDEST PUSH2 0x445 SWAP1 SWAP2 SWAP1 PUSH4 0xFFFFFFFF AND JUMP JUMPDEST SWAP2 POP DUP8 DUP4 DUP3 DUP2 MLOAD DUP2 LT PUSH2 0x2282 JUMPI PUSH2 0x2281 PUSH2 0x3F0F JUMP JUMPDEST JUMPDEST PUSH1 0x20 MUL PUSH1 0x20 ADD ADD MLOAD PUSH1 0x40 ADD MLOAD EQ DUP1 ISZERO PUSH2 0x22B8 JUMPI POP DUP7 DUP4 DUP3 DUP2 MLOAD DUP2 LT PUSH2 0x22AA JUMPI PUSH2 0x22A9 PUSH2 0x3F0F JUMP JUMPDEST JUMPDEST PUSH1 0x20 MUL PUSH1 0x20 ADD ADD MLOAD PUSH1 0x60 ADD MLOAD EQ JUMPDEST ISZERO PUSH2 0x23D9 JUMPI PUSH1 0x0 PUSH1 0x7 DUP5 DUP4 DUP2 MLOAD DUP2 LT PUSH2 0x22D4 JUMPI PUSH2 0x22D3 PUSH2 0x3F0F JUMP JUMPDEST JUMPDEST PUSH1 0x20 MUL PUSH1 0x20 ADD ADD MLOAD PUSH1 0xA0 ADD MLOAD PUSH1 0x40 MLOAD PUSH2 0x22ED SWAP2 SWAP1 PUSH2 0x3930 JUMP JUMPDEST SWAP1 DUP2 MSTORE PUSH1 0x20 ADD PUSH1 0x40 MLOAD DUP1 SWAP2 SUB SWAP1 KECCAK256 SLOAD SWAP1 POP PUSH1 0x0 DUP2 DUP6 DUP5 DUP2 MLOAD DUP2 LT PUSH2 0x2314 JUMPI PUSH2 0x2313 PUSH2 0x3F0F JUMP JUMPDEST JUMPDEST PUSH1 0x20 MUL PUSH1 0x20 ADD ADD MLOAD PUSH1 0x0 ADD MLOAD DUP6 PUSH2 0x232B SWAP2 SWAP1 PUSH2 0x3CA0 JUMP JUMPDEST PUSH2 0x2335 SWAP2 SWAP1 PUSH2 0x3C6F JUMP JUMPDEST SWAP1 POP DUP1 PUSH1 0x4 PUSH1 0x0 DUP8 DUP7 DUP2 MLOAD DUP2 LT PUSH2 0x234F JUMPI PUSH2 0x234E PUSH2 0x3F0F JUMP JUMPDEST JUMPDEST PUSH1 0x20 MUL PUSH1 0x20 ADD ADD MLOAD PUSH1 0x80 ADD MLOAD PUSH20 0xFFFFFFFFFFFFFFFFFFFFFFFFFFFFFFFFFFFFFFFF AND PUSH20 0xFFFFFFFFFFFFFFFFFFFFFFFFFFFFFFFFFFFFFFFF AND DUP2 MSTORE PUSH1 0x20 ADD SWAP1 DUP2 MSTORE PUSH1 0x20 ADD PUSH1 0x0 KECCAK256 PUSH1 0x0 DUP3 DUP3 SLOAD PUSH2 0x23A4 SWAP2 SWAP1 PUSH2 0x3C19 JUMP JUMPDEST SWAP3 POP POP DUP2 SWAP1 SSTORE POP PUSH1 0x1 DUP6 DUP5 DUP2 MLOAD DUP2 LT PUSH2 0x23C0 JUMPI PUSH2 0x23BF PUSH2 0x3F0F JUMP JUMPDEST JUMPDEST PUSH1 0x20 MUL PUSH1 0x20 ADD ADD MLOAD PUSH1 0xC0 ADD SWAP1 ISZERO ISZERO SWAP1 DUP2 ISZERO ISZERO DUP2 MSTORE POP POP POP POP JUMPDEST PUSH2 0x264D JUMP JUMPDEST DUP6 DUP4 DUP3 DUP2 MLOAD DUP2 LT PUSH2 0x23F2 JUMPI PUSH2 0x23F1 PUSH2 0x3F0F JUMP JUMPDEST JUMPDEST PUSH1 0x20 MUL PUSH1 0x20 ADD ADD MLOAD PUSH1 0x20 ADD MLOAD EQ ISZERO PUSH2 0x264C JUMPI PUSH2 0x246F PUSH1 0x64 PUSH2 0x2461 PUSH1 0x55 PUSH2 0x2426 PUSH1 0x2 DUP10 PUSH1 0xE0 ADD MLOAD PUSH2 0x445 SWAP1 SWAP2 SWAP1 PUSH4 0xFFFFFFFF AND JUMP JUMPDEST DUP9 PUSH1 0x80 ADD MLOAD DUP10 PUSH1 0xA0 ADD MLOAD DUP11 PUSH1 0x60 ADD MLOAD PUSH2 0x243F SWAP2 SWAP1 PUSH2 0x3C19 JUMP JUMPDEST PUSH2 0x2449 SWAP2 SWAP1 PUSH2 0x3C19 JUMP JUMPDEST PUSH2 0x2453 SWAP2 SWAP1 PUSH2 0x3C19 JUMP JUMPDEST PUSH2 0x2E6C SWAP1 SWAP2 SWAP1 PUSH4 0xFFFFFFFF AND JUMP JUMPDEST PUSH2 0x445 SWAP1 SWAP2 SWAP1 PUSH4 0xFFFFFFFF AND JUMP JUMPDEST SWAP2 POP PUSH1 0x0 DUP1 DUP5 DUP4 DUP2 MLOAD DUP2 LT PUSH2 0x2487 JUMPI PUSH2 0x2486 PUSH2 0x3F0F JUMP JUMPDEST JUMPDEST PUSH1 0x20 MUL PUSH1 0x20 ADD ADD MLOAD PUSH1 0x20 ADD MLOAD EQ ISZERO PUSH2 0x24C7 JUMPI PUSH2 0x24C4 PUSH1 0x64 PUSH2 0x24B6 PUSH1 0x55 DUP9 PUSH1 0xA0 ADD MLOAD PUSH2 0x2E6C SWAP1 SWAP2 SWAP1 PUSH4 0xFFFFFFFF AND JUMP JUMPDEST PUSH2 0x445 SWAP1 SWAP2 SWAP1 PUSH4 0xFFFFFFFF AND JUMP JUMPDEST SWAP1 POP JUMPDEST PUSH1 0x1 DUP5 DUP4 DUP2 MLOAD DUP2 LT PUSH2 0x24DC JUMPI PUSH2 0x24DB PUSH2 0x3F0F JUMP JUMPDEST JUMPDEST PUSH1 0x20 MUL PUSH1 0x20 ADD ADD MLOAD PUSH1 0x20 ADD MLOAD EQ ISZERO PUSH2 0x251C JUMPI PUSH2 0x2519 PUSH1 0x64 PUSH2 0x250B PUSH1 0x55 DUP9 PUSH1 0x80 ADD MLOAD PUSH2 0x2E6C SWAP1 SWAP2 SWAP1 PUSH4 0xFFFFFFFF AND JUMP JUMPDEST PUSH2 0x445 SWAP1 SWAP2 SWAP1 PUSH4 0xFFFFFFFF AND JUMP JUMPDEST SWAP1 POP JUMPDEST PUSH1 0x3 DUP5 DUP4 DUP2 MLOAD DUP2 LT PUSH2 0x2531 JUMPI PUSH2 0x2530 PUSH2 0x3F0F JUMP JUMPDEST JUMPDEST PUSH1 0x20 MUL PUSH1 0x20 ADD ADD MLOAD PUSH1 0x20 ADD MLOAD EQ ISZERO PUSH2 0x2571 JUMPI PUSH2 0x256E PUSH1 0x64 PUSH2 0x2560 PUSH1 0x55 DUP9 PUSH1 0x60 ADD MLOAD PUSH2 0x2E6C SWAP1 SWAP2 SWAP1 PUSH4 0xFFFFFFFF AND JUMP JUMPDEST PUSH2 0x445 SWAP1 SWAP2 SWAP1 PUSH4 0xFFFFFFFF AND JUMP JUMPDEST SWAP1 POP JUMPDEST PUSH1 0x0 DUP2 DUP6 DUP5 DUP2 MLOAD DUP2 LT PUSH2 0x2587 JUMPI PUSH2 0x2586 PUSH2 0x3F0F JUMP JUMPDEST JUMPDEST PUSH1 0x20 MUL PUSH1 0x20 ADD ADD MLOAD PUSH1 0x0 ADD MLOAD DUP6 PUSH2 0x259E SWAP2 SWAP1 PUSH2 0x3CA0 JUMP JUMPDEST PUSH2 0x25A8 SWAP2 SWAP1 PUSH2 0x3C6F JUMP JUMPDEST SWAP1 POP DUP1 PUSH1 0x4 PUSH1 0x0 DUP8 DUP7 DUP2 MLOAD DUP2 LT PUSH2 0x25C2 JUMPI PUSH2 0x25C1 PUSH2 0x3F0F JUMP JUMPDEST JUMPDEST PUSH1 0x20 MUL PUSH1 0x20 ADD ADD MLOAD PUSH1 0x80 ADD MLOAD PUSH20 0xFFFFFFFFFFFFFFFFFFFFFFFFFFFFFFFFFFFFFFFF AND PUSH20 0xFFFFFFFFFFFFFFFFFFFFFFFFFFFFFFFFFFFFFFFF AND DUP2 MSTORE PUSH1 0x20 ADD SWAP1 DUP2 MSTORE PUSH1 0x20 ADD PUSH1 0x0 KECCAK256 PUSH1 0x0 DUP3 DUP3 SLOAD PUSH2 0x2617 SWAP2 SWAP1 PUSH2 0x3C19 JUMP JUMPDEST SWAP3 POP POP DUP2 SWAP1 SSTORE POP PUSH1 0x1 DUP6 DUP5 DUP2 MLOAD DUP2 LT PUSH2 0x2633 JUMPI PUSH2 0x2632 PUSH2 0x3F0F JUMP JUMPDEST JUMPDEST PUSH1 0x20 MUL PUSH1 0x20 ADD ADD MLOAD PUSH1 0xC0 ADD SWAP1 ISZERO ISZERO SWAP1 DUP2 ISZERO ISZERO DUP2 MSTORE POP POP POP POP JUMPDEST JUMPDEST JUMPDEST DUP1 DUP1 PUSH2 0x2659 SWAP1 PUSH2 0x3E25 JUMP JUMPDEST SWAP2 POP POP PUSH2 0x21B5 JUMP JUMPDEST POP PUSH1 0x1 DUP4 PUSH2 0x140 ADD SWAP1 ISZERO ISZERO SWAP1 DUP2 ISZERO ISZERO DUP2 MSTORE POP POP POP POP POP PUSH1 0x1 SWAP1 POP SWAP5 SWAP4 POP POP POP POP JUMP JUMPDEST PUSH1 0x0 DUP1 PUSH1 0x0 SWAP1 SLOAD SWAP1 PUSH2 0x100 EXP SWAP1 DIV PUSH20 0xFFFFFFFFFFFFFFFFFFFFFFFFFFFFFFFFFFFFFFFF AND PUSH20 0xFFFFFFFFFFFFFFFFFFFFFFFFFFFFFFFFFFFFFFFF AND CALLER PUSH20 0xFFFFFFFFFFFFFFFFFFFFFFFFFFFFFFFFFFFFFFFF AND EQ PUSH2 0x2714 JUMPI PUSH1 0x40 MLOAD PUSH32 0x8C379A000000000000000000000000000000000000000000000000000000000 DUP2 MSTORE PUSH1 0x4 ADD PUSH2 0x270B SWAP1 PUSH2 0x3A28 JUMP JUMPDEST PUSH1 0x40 MLOAD DUP1 SWAP2 SUB SWAP1 REVERT JUMPDEST DUP2 PUSH1 0x4 PUSH1 0x0 DUP6 PUSH20 0xFFFFFFFFFFFFFFFFFFFFFFFFFFFFFFFFFFFFFFFF AND PUSH20 0xFFFFFFFFFFFFFFFFFFFFFFFFFFFFFFFFFFFFFFFF AND DUP2 MSTORE PUSH1 0x20 ADD SWAP1 DUP2 MSTORE PUSH1 0x20 ADD PUSH1 0x0 KECCAK256 SLOAD LT ISZERO DUP1 ISZERO PUSH2 0x27A3 JUMPI POP PUSH1 0x0 PUSH1 0x4 PUSH1 0x0 DUP6 PUSH20 0xFFFFFFFFFFFFFFFFFFFFFFFFFFFFFFFFFFFFFFFF AND PUSH20 0xFFFFFFFFFFFFFFFFFFFFFFFFFFFFFFFFFFFFFFFF AND DUP2 MSTORE PUSH1 0x20 ADD SWAP1 DUP2 MSTORE PUSH1 0x20 ADD PUSH1 0x0 KECCAK256 SLOAD LT ISZERO JUMPDEST ISZERO PUSH2 0x2839 JUMPI PUSH1 0x0 DUP4 SWAP1 POP DUP1 PUSH20 0xFFFFFFFFFFFFFFFFFFFFFFFFFFFFFFFFFFFFFFFF AND PUSH2 0x8FC PUSH1 0x4 PUSH1 0x0 DUP8 PUSH20 0xFFFFFFFFFFFFFFFFFFFFFFFFFFFFFFFFFFFFFFFF AND PUSH20 0xFFFFFFFFFFFFFFFFFFFFFFFFFFFFFFFFFFFFFFFF AND DUP2 MSTORE PUSH1 0x20 ADD SWAP1 DUP2 MSTORE PUSH1 0x20 ADD PUSH1 0x0 KECCAK256 SLOAD SWAP1 DUP2 ISZERO MUL SWAP1 PUSH1 0x40 MLOAD PUSH1 0x0 PUSH1 0x40 MLOAD DUP1 DUP4 SUB DUP2 DUP6 DUP9 DUP9 CALL SWAP4 POP POP POP POP ISZERO DUP1 ISZERO PUSH2 0x2832 JUMPI RETURNDATASIZE PUSH1 0x0 DUP1 RETURNDATACOPY RETURNDATASIZE PUSH1 0x0 REVERT JUMPDEST POP POP PUSH2 0x2874 JUMP JUMPDEST PUSH1 0x40 MLOAD PUSH32 0x8C379A000000000000000000000000000000000000000000000000000000000 DUP2 MSTORE PUSH1 0x4 ADD PUSH2 0x286B SWAP1 PUSH2 0x3AE8 JUMP JUMPDEST PUSH1 0x40 MLOAD DUP1 SWAP2 SUB SWAP1 REVERT JUMPDEST PUSH1 0x1 SWAP1 POP SWAP3 SWAP2 POP POP JUMP JUMPDEST PUSH1 0x60 PUSH1 0x2 DUP1 SLOAD DUP1 PUSH1 0x20 MUL PUSH1 0x20 ADD PUSH1 0x40 MLOAD SWAP1 DUP2 ADD PUSH1 0x40 MSTORE DUP1 SWAP3 SWAP2 SWAP1 DUP2 DUP2 MSTORE PUSH1 0x20 ADD DUP3 DUP1 SLOAD DUP1 ISZERO PUSH2 0x28CC JUMPI PUSH1 0x20 MUL DUP3 ADD SWAP2 SWAP1 PUSH1 0x0 MSTORE PUSH1 0x20 PUSH1 0x0 KECCAK256 SWAP1 JUMPDEST DUP2 SLOAD DUP2 MSTORE PUSH1 0x20 ADD SWAP1 PUSH1 0x1 ADD SWAP1 DUP1 DUP4 GT PUSH2 0x28B8 JUMPI JUMPDEST POP POP POP POP POP SWAP1 POP SWAP1 JUMP JUMPDEST PUSH1 0x0 PUSH1 0x4 PUSH1 0x0 CALLER PUSH20 0xFFFFFFFFFFFFFFFFFFFFFFFFFFFFFFFFFFFFFFFF AND PUSH20 0xFFFFFFFFFFFFFFFFFFFFFFFFFFFFFFFFFFFFFFFF AND DUP2 MSTORE PUSH1 0x20 ADD SWAP1 DUP2 MSTORE PUSH1 0x20 ADD PUSH1 0x0 KECCAK256 SLOAD SWAP1 POP SWAP1 JUMP JUMPDEST PUSH1 0x60 DUP1 PUSH2 0x2928 PUSH2 0x3231 JUMP JUMPDEST PUSH2 0x2931 DUP5 PUSH2 0x2C47 JUMP JUMPDEST PUSH2 0x2970 JUMPI PUSH1 0x40 MLOAD PUSH32 0x8C379A000000000000000000000000000000000000000000000000000000000 DUP2 MSTORE PUSH1 0x4 ADD PUSH2 0x2967 SWAP1 PUSH2 0x3A48 JUMP JUMPDEST PUSH1 0x40 MLOAD DUP1 SWAP2 SUB SWAP1 REVERT JUMPDEST PUSH1 0x0 PUSH2 0x2A4F PUSH1 0x5 PUSH1 0x0 DUP8 DUP2 MSTORE PUSH1 0x20 ADD SWAP1 DUP2 MSTORE PUSH1 0x20 ADD PUSH1 0x0 KECCAK256 PUSH1 0x0 ADD DUP1 SLOAD PUSH2 0x2996 SWAP1 PUSH2 0x3DC2 JUMP JUMPDEST DUP1 PUSH1 0x1F ADD PUSH1 0x20 DUP1 SWAP2 DIV MUL PUSH1 0x20 ADD PUSH1 0x40 MLOAD SWAP1 DUP2 ADD PUSH1 0x40 MSTORE DUP1 SWAP3 SWAP2 SWAP1 DUP2 DUP2 MSTORE PUSH1 0x20 ADD DUP3 DUP1 SLOAD PUSH2 0x29C2 SWAP1 PUSH2 0x3DC2 JUMP JUMPDEST DUP1 ISZERO PUSH2 0x2A0F JUMPI DUP1 PUSH1 0x1F LT PUSH2 0x29E4 JUMPI PUSH2 0x100 DUP1 DUP4 SLOAD DIV MUL DUP4 MSTORE SWAP2 PUSH1 0x20 ADD SWAP2 PUSH2 0x2A0F JUMP JUMPDEST DUP3 ADD SWAP2 SWAP1 PUSH1 0x0 MSTORE PUSH1 0x20 PUSH1 0x0 KECCAK256 SWAP1 JUMPDEST DUP2 SLOAD DUP2 MSTORE SWAP1 PUSH1 0x1 ADD SWAP1 PUSH1 0x20 ADD DUP1 DUP4 GT PUSH2 0x29F2 JUMPI DUP3 SWAP1 SUB PUSH1 0x1F AND DUP3 ADD SWAP2 JUMPDEST POP POP POP POP POP PUSH1 0x40 MLOAD DUP1 PUSH1 0x40 ADD PUSH1 0x40 MSTORE DUP1 PUSH1 0x4 DUP2 MSTORE PUSH1 0x20 ADD PUSH32 0x2076732000000000000000000000000000000000000000000000000000000000 DUP2 MSTORE POP PUSH2 0x2C74 JUMP JUMPDEST SWAP1 POP PUSH2 0x2AF9 DUP2 PUSH1 0x5 PUSH1 0x0 DUP9 DUP2 MSTORE PUSH1 0x20 ADD SWAP1 DUP2 MSTORE PUSH1 0x20 ADD PUSH1 0x0 KECCAK256 PUSH1 0x1 ADD DUP1 SLOAD PUSH2 0x2A76 SWAP1 PUSH2 0x3DC2 JUMP JUMPDEST DUP1 PUSH1 0x1F ADD PUSH1 0x20 DUP1 SWAP2 DIV MUL PUSH1 0x20 ADD PUSH1 0x40 MLOAD SWAP1 DUP2 ADD PUSH1 0x40 MSTORE DUP1 SWAP3 SWAP2 SWAP1 DUP2 DUP2 MSTORE PUSH1 0x20 ADD DUP3 DUP1 SLOAD PUSH2 0x2AA2 SWAP1 PUSH2 0x3DC2 JUMP JUMPDEST DUP1 ISZERO PUSH2 0x2AEF JUMPI DUP1 PUSH1 0x1F LT PUSH2 0x2AC4 JUMPI PUSH2 0x100 DUP1 DUP4 SLOAD DIV MUL DUP4 MSTORE SWAP2 PUSH1 0x20 ADD SWAP2 PUSH2 0x2AEF JUMP JUMPDEST DUP3 ADD SWAP2 SWAP1 PUSH1 0x0 MSTORE PUSH1 0x20 PUSH1 0x0 KECCAK256 SWAP1 JUMPDEST DUP2 SLOAD DUP2 MSTORE SWAP1 PUSH1 0x1 ADD SWAP1 PUSH1 0x20 ADD DUP1 DUP4 GT PUSH2 0x2AD2 JUMPI DUP3 SWAP1 SUB PUSH1 0x1F AND DUP3 ADD SWAP2 JUMPDEST POP POP POP POP POP PUSH2 0x2C74 JUMP JUMPDEST SWAP4 POP PUSH1 0x0 PUSH1 0x40 MLOAD DUP1 PUSH1 0xA0 ADD PUSH1 0x40 MSTORE DUP1 PUSH1 0x5 PUSH1 0x0 DUP10 DUP2 MSTORE PUSH1 0x20 ADD SWAP1 DUP2 MSTORE PUSH1 0x20 ADD PUSH1 0x0 KECCAK256 PUSH1 0x3 ADD SLOAD DUP2 MSTORE PUSH1 0x20 ADD PUSH1 0x5 PUSH1 0x0 DUP10 DUP2 MSTORE PUSH1 0x20 ADD SWAP1 DUP2 MSTORE PUSH1 0x20 ADD PUSH1 0x0 KECCAK256 PUSH1 0x4 ADD SLOAD DUP2 MSTORE PUSH1 0x20 ADD PUSH1 0x5 PUSH1 0x0 DUP10 DUP2 MSTORE PUSH1 0x20 ADD SWAP1 DUP2 MSTORE PUSH1 0x20 ADD PUSH1 0x0 KECCAK256 PUSH1 0x5 ADD SLOAD DUP2 MSTORE PUSH1 0x20 ADD PUSH1 0x5 PUSH1 0x0 DUP10 DUP2 MSTORE PUSH1 0x20 ADD SWAP1 DUP2 MSTORE PUSH1 0x20 ADD PUSH1 0x0 KECCAK256 PUSH1 0x6 ADD SLOAD DUP2 MSTORE PUSH1 0x20 ADD PUSH1 0x5 PUSH1 0x0 DUP10 DUP2 MSTORE PUSH1 0x20 ADD SWAP1 DUP2 MSTORE PUSH1 0x20 ADD PUSH1 0x0 KECCAK256 PUSH1 0x7 ADD SLOAD DUP2 MSTORE POP SWAP1 POP DUP5 PUSH1 0x5 PUSH1 0x0 DUP9 DUP2 MSTORE PUSH1 0x20 ADD SWAP1 DUP2 MSTORE PUSH1 0x20 ADD PUSH1 0x0 KECCAK256 PUSH1 0x2 ADD DUP3 DUP2 DUP1 SLOAD PUSH2 0x2BB8 SWAP1 PUSH2 0x3DC2 JUMP JUMPDEST DUP1 PUSH1 0x1F ADD PUSH1 0x20 DUP1 SWAP2 DIV MUL PUSH1 0x20 ADD PUSH1 0x40 MLOAD SWAP1 DUP2 ADD PUSH1 0x40 MSTORE DUP1 SWAP3 SWAP2 SWAP1 DUP2 DUP2 MSTORE PUSH1 0x20 ADD DUP3 DUP1 SLOAD PUSH2 0x2BE4 SWAP1 PUSH2 0x3DC2 JUMP JUMPDEST DUP1 ISZERO PUSH2 0x2C31 JUMPI DUP1 PUSH1 0x1F LT PUSH2 0x2C06 JUMPI PUSH2 0x100 DUP1 DUP4 SLOAD DIV MUL DUP4 MSTORE SWAP2 PUSH1 0x20 ADD SWAP2 PUSH2 0x2C31 JUMP JUMPDEST DUP3 ADD SWAP2 SWAP1 PUSH1 0x0 MSTORE PUSH1 0x20 PUSH1 0x0 KECCAK256 SWAP1 JUMPDEST DUP2 SLOAD DUP2 MSTORE SWAP1 PUSH1 0x1 ADD SWAP1 PUSH1 0x20 ADD DUP1 DUP4 GT PUSH2 0x2C14 JUMPI DUP3 SWAP1 SUB PUSH1 0x1F AND DUP3 ADD SWAP2 JUMPDEST POP POP POP POP POP SWAP2 POP SWAP5 POP SWAP5 POP SWAP5 POP POP POP SWAP2 SWAP4 SWAP1 SWAP3 POP JUMP JUMPDEST PUSH1 0x0 PUSH1 0x5 PUSH1 0x0 DUP4 DUP2 MSTORE PUSH1 0x20 ADD SWAP1 DUP2 MSTORE PUSH1 0x20 ADD PUSH1 0x0 KECCAK256 PUSH1 0x8 ADD PUSH1 0x1 SWAP1 SLOAD SWAP1 PUSH2 0x100 EXP SWAP1 DIV PUSH1 0xFF AND SWAP1 POP SWAP2 SWAP1 POP JUMP JUMPDEST PUSH1 0x60 PUSH1 0x0 DUP4 SWAP1 POP PUSH1 0x0 DUP4 SWAP1 POP PUSH1 0x0 DUP2 MLOAD DUP4 MLOAD PUSH2 0x2C90 SWAP2 SWAP1 PUSH2 0x3C19 JUMP JUMPDEST PUSH8 0xFFFFFFFFFFFFFFFF DUP2 GT ISZERO PUSH2 0x2CA9 JUMPI PUSH2 0x2CA8 PUSH2 0x3F3E JUMP JUMPDEST JUMPDEST PUSH1 0x40 MLOAD SWAP1 DUP1 DUP3 MSTORE DUP1 PUSH1 0x1F ADD PUSH1 0x1F NOT AND PUSH1 0x20 ADD DUP3 ADD PUSH1 0x40 MSTORE DUP1 ISZERO PUSH2 0x2CDB JUMPI DUP2 PUSH1 0x20 ADD PUSH1 0x1 DUP3 MUL DUP1 CALLDATASIZE DUP4 CALLDATACOPY DUP1 DUP3 ADD SWAP2 POP POP SWAP1 POP JUMPDEST POP SWAP1 POP PUSH1 0x0 DUP2 SWAP1 POP PUSH1 0x0 DUP1 JUMPDEST DUP6 MLOAD DUP2 LT ISZERO PUSH2 0x2D6F JUMPI DUP6 DUP2 DUP2 MLOAD DUP2 LT PUSH2 0x2D03 JUMPI PUSH2 0x2D02 PUSH2 0x3F0F JUMP JUMPDEST JUMPDEST PUSH1 0x20 ADD ADD MLOAD PUSH1 0xF8 SHR PUSH1 0xF8 SHL DUP4 DUP4 DUP1 PUSH2 0x2D1A SWAP1 PUSH2 0x3E25 JUMP JUMPDEST SWAP5 POP DUP2 MLOAD DUP2 LT PUSH2 0x2D2D JUMPI PUSH2 0x2D2C PUSH2 0x3F0F JUMP JUMPDEST JUMPDEST PUSH1 0x20 ADD ADD SWAP1 PUSH31 0xFFFFFFFFFFFFFFFFFFFFFFFFFFFFFFFFFFFFFFFFFFFFFFFFFFFFFFFFFFFFFF NOT AND SWAP1 DUP2 PUSH1 0x0 BYTE SWAP1 MSTORE8 POP DUP1 DUP1 PUSH2 0x2D67 SWAP1 PUSH2 0x3E25 JUMP JUMPDEST SWAP2 POP POP PUSH2 0x2CE7 JUMP JUMPDEST POP PUSH1 0x0 JUMPDEST DUP5 MLOAD DUP2 LT ISZERO PUSH2 0x2DFB JUMPI DUP5 DUP2 DUP2 MLOAD DUP2 LT PUSH2 0x2D8F JUMPI PUSH2 0x2D8E PUSH2 0x3F0F JUMP JUMPDEST JUMPDEST PUSH1 0x20 ADD ADD MLOAD PUSH1 0xF8 SHR PUSH1 0xF8 SHL DUP4 DUP4 DUP1 PUSH2 0x2DA6 SWAP1 PUSH2 0x3E25 JUMP JUMPDEST SWAP5 POP DUP2 MLOAD DUP2 LT PUSH2 0x2DB9 JUMPI PUSH2 0x2DB8 PUSH2 0x3F0F JUMP JUMPDEST JUMPDEST PUSH1 0x20 ADD ADD SWAP1 PUSH31 0xFFFFFFFFFFFFFFFFFFFFFFFFFFFFFFFFFFFFFFFFFFFFFFFFFFFFFFFFFFFFFF NOT AND SWAP1 DUP2 PUSH1 0x0 BYTE SWAP1 MSTORE8 POP DUP1 DUP1 PUSH2 0x2DF3 SWAP1 PUSH2 0x3E25 JUMP JUMPDEST SWAP2 POP POP PUSH2 0x2D73 JUMP JUMPDEST POP DUP3 SWAP6 POP POP POP POP POP POP SWAP3 SWAP2 POP POP JUMP JUMPDEST PUSH1 0x60 PUSH2 0x2E34 DUP3 PUSH1 0x40 MLOAD PUSH1 0x20 ADD PUSH2 0x2E20 SWAP2 SWAP1 PUSH2 0x3947 JUMP JUMPDEST PUSH1 0x40 MLOAD PUSH1 0x20 DUP2 DUP4 SUB SUB DUP2 MSTORE SWAP1 PUSH1 0x40 MSTORE PUSH2 0x2EB1 JUMP JUMPDEST SWAP1 POP SWAP2 SWAP1 POP JUMP JUMPDEST PUSH1 0x60 PUSH2 0x2E65 DUP3 PUSH1 0x40 MLOAD PUSH1 0x20 ADD PUSH2 0x2E51 SWAP2 SWAP1 PUSH2 0x3915 JUMP JUMPDEST PUSH1 0x40 MLOAD PUSH1 0x20 DUP2 DUP4 SUB SUB DUP2 MSTORE SWAP1 PUSH1 0x40 MSTORE PUSH2 0x2EB1 JUMP JUMPDEST SWAP1 POP SWAP2 SWAP1 POP JUMP JUMPDEST PUSH1 0x0 DUP1 DUP4 EQ ISZERO PUSH2 0x2E7F JUMPI PUSH1 0x0 SWAP1 POP PUSH2 0x2EAB JUMP JUMPDEST PUSH1 0x0 DUP3 DUP5 PUSH2 0x2E8D SWAP2 SWAP1 PUSH2 0x3CA0 JUMP JUMPDEST SWAP1 POP DUP3 DUP5 DUP3 PUSH2 0x2E9C SWAP2 SWAP1 PUSH2 0x3C6F JUMP JUMPDEST EQ PUSH2 0x2EA6 JUMPI PUSH1 0x0 DUP1 REVERT JUMPDEST DUP1 SWAP2 POP POP JUMPDEST SWAP3 SWAP2 POP POP JUMP JUMPDEST PUSH1 0x60 PUSH1 0x0 PUSH1 0x40 MLOAD DUP1 PUSH1 0x40 ADD PUSH1 0x40 MSTORE DUP1 PUSH1 0x10 DUP2 MSTORE PUSH1 0x20 ADD PUSH32 0x3031323334353637383961626364656600000000000000000000000000000000 DUP2 MSTORE POP SWAP1 POP PUSH1 0x0 PUSH1 0x2 DUP5 MLOAD PUSH2 0x2EFD SWAP2 SWAP1 PUSH2 0x3CA0 JUMP JUMPDEST PUSH1 0x2 PUSH2 0x2F09 SWAP2 SWAP1 PUSH2 0x3C19 JUMP JUMPDEST PUSH8 0xFFFFFFFFFFFFFFFF DUP2 GT ISZERO PUSH2 0x2F22 JUMPI PUSH2 0x2F21 PUSH2 0x3F3E JUMP JUMPDEST JUMPDEST PUSH1 0x40 MLOAD SWAP1 DUP1 DUP3 MSTORE DUP1 PUSH1 0x1F ADD PUSH1 0x1F NOT AND PUSH1 0x20 ADD DUP3 ADD PUSH1 0x40 MSTORE DUP1 ISZERO PUSH2 0x2F54 JUMPI DUP2 PUSH1 0x20 ADD PUSH1 0x1 DUP3 MUL DUP1 CALLDATASIZE DUP4 CALLDATACOPY DUP1 DUP3 ADD SWAP2 POP POP SWAP1 POP JUMPDEST POP SWAP1 POP PUSH32 0x3000000000000000000000000000000000000000000000000000000000000000 DUP2 PUSH1 0x0 DUP2 MLOAD DUP2 LT PUSH2 0x2F8C JUMPI PUSH2 0x2F8B PUSH2 0x3F0F JUMP JUMPDEST JUMPDEST PUSH1 0x20 ADD ADD SWAP1 PUSH31 0xFFFFFFFFFFFFFFFFFFFFFFFFFFFFFFFFFFFFFFFFFFFFFFFFFFFFFFFFFFFFFF NOT AND SWAP1 DUP2 PUSH1 0x0 BYTE SWAP1 MSTORE8 POP PUSH32 0x7800000000000000000000000000000000000000000000000000000000000000 DUP2 PUSH1 0x1 DUP2 MLOAD DUP2 LT PUSH2 0x2FF0 JUMPI PUSH2 0x2FEF PUSH2 0x3F0F JUMP JUMPDEST JUMPDEST PUSH1 0x20 ADD ADD SWAP1 PUSH31 0xFFFFFFFFFFFFFFFFFFFFFFFFFFFFFFFFFFFFFFFFFFFFFFFFFFFFFFFFFFFFFF NOT AND SWAP1 DUP2 PUSH1 0x0 BYTE SWAP1 MSTORE8 POP PUSH1 0x0 JUMPDEST DUP5 MLOAD DUP2 LT ISZERO PUSH2 0x31A0 JUMPI DUP3 PUSH1 0x4 DUP7 DUP4 DUP2 MLOAD DUP2 LT PUSH2 0x3041 JUMPI PUSH2 0x3040 PUSH2 0x3F0F JUMP JUMPDEST JUMPDEST PUSH1 0x20 ADD ADD MLOAD PUSH1 0xF8 SHR PUSH1 0xF8 SHL PUSH31 0xFFFFFFFFFFFFFFFFFFFFFFFFFFFFFFFFFFFFFFFFFFFFFFFFFFFFFFFFFFFFFF NOT AND SWAP1 SHR PUSH1 0xF8 SHR PUSH1 0xFF AND DUP2 MLOAD DUP2 LT PUSH2 0x3087 JUMPI PUSH2 0x3086 PUSH2 0x3F0F JUMP JUMPDEST JUMPDEST PUSH1 0x20 ADD ADD MLOAD PUSH1 0xF8 SHR PUSH1 0xF8 SHL DUP3 PUSH1 0x2 DUP4 PUSH2 0x30A0 SWAP2 SWAP1 PUSH2 0x3CA0 JUMP JUMPDEST PUSH1 0x2 PUSH2 0x30AC SWAP2 SWAP1 PUSH2 0x3C19 JUMP JUMPDEST DUP2 MLOAD DUP2 LT PUSH2 0x30BD JUMPI PUSH2 0x30BC PUSH2 0x3F0F JUMP JUMPDEST JUMPDEST PUSH1 0x20 ADD ADD SWAP1 PUSH31 0xFFFFFFFFFFFFFFFFFFFFFFFFFFFFFFFFFFFFFFFFFFFFFFFFFFFFFFFFFFFFFF NOT AND SWAP1 DUP2 PUSH1 0x0 BYTE SWAP1 MSTORE8 POP DUP3 PUSH1 0xF PUSH1 0xF8 SHL DUP7 DUP4 DUP2 MLOAD DUP2 LT PUSH2 0x3105 JUMPI PUSH2 0x3104 PUSH2 0x3F0F JUMP JUMPDEST JUMPDEST PUSH1 0x20 ADD ADD MLOAD PUSH1 0xF8 SHR PUSH1 0xF8 SHL AND PUSH1 0xF8 SHR PUSH1 0xFF AND DUP2 MLOAD DUP2 LT PUSH2 0x3128 JUMPI PUSH2 0x3127 PUSH2 0x3F0F JUMP JUMPDEST JUMPDEST PUSH1 0x20 ADD ADD MLOAD PUSH1 0xF8 SHR PUSH1 0xF8 SHL DUP3 PUSH1 0x2 DUP4 PUSH2 0x3141 SWAP2 SWAP1 PUSH2 0x3CA0 JUMP JUMPDEST PUSH1 0x3 PUSH2 0x314D SWAP2 SWAP1 PUSH2 0x3C19 JUMP JUMPDEST DUP2 MLOAD DUP2 LT PUSH2 0x315E JUMPI PUSH2 0x315D PUSH2 0x3F0F JUMP JUMPDEST JUMPDEST PUSH1 0x20 ADD ADD SWAP1 PUSH31 0xFFFFFFFFFFFFFFFFFFFFFFFFFFFFFFFFFFFFFFFFFFFFFFFFFFFFFFFFFFFFFF NOT AND SWAP1 DUP2 PUSH1 0x0 BYTE SWAP1 MSTORE8 POP DUP1 DUP1 PUSH2 0x3198 SWAP1 PUSH2 0x3E25 JUMP JUMPDEST SWAP2 POP POP PUSH2 0x3022 JUMP JUMPDEST POP DUP1 SWAP3 POP POP POP SWAP2 SWAP1 POP JUMP JUMPDEST DUP3 DUP1 SLOAD PUSH2 0x31B7 SWAP1 PUSH2 0x3DC2 JUMP JUMPDEST SWAP1 PUSH1 0x0 MSTORE PUSH1 0x20 PUSH1 0x0 KECCAK256 SWAP1 PUSH1 0x1F ADD PUSH1 0x20 SWAP1 DIV DUP2 ADD SWAP3 DUP3 PUSH2 0x31D9 JUMPI PUSH1 0x0 DUP6 SSTORE PUSH2 0x3220 JUMP JUMPDEST DUP3 PUSH1 0x1F LT PUSH2 0x31F2 JUMPI DUP1 MLOAD PUSH1 0xFF NOT AND DUP4 DUP1 ADD OR DUP6 SSTORE PUSH2 0x3220 JUMP JUMPDEST DUP3 DUP1 ADD PUSH1 0x1 ADD DUP6 SSTORE DUP3 ISZERO PUSH2 0x3220 JUMPI SWAP2 DUP3 ADD JUMPDEST DUP3 DUP2 GT ISZERO PUSH2 0x321F JUMPI DUP3 MLOAD DUP3 SSTORE SWAP2 PUSH1 0x20 ADD SWAP2 SWAP1 PUSH1 0x1 ADD SWAP1 PUSH2 0x3204 JUMP JUMPDEST JUMPDEST POP SWAP1 POP PUSH2 0x322D SWAP2 SWAP1 PUSH2 0x3260 JUMP JUMPDEST POP SWAP1 JUMP JUMPDEST PUSH1 0x40 MLOAD DUP1 PUSH1 0xA0 ADD PUSH1 0x40 MSTORE DUP1 PUSH1 0x0 DUP2 MSTORE PUSH1 0x20 ADD PUSH1 0x0 DUP2 MSTORE PUSH1 0x20 ADD PUSH1 0x0 DUP2 MSTORE PUSH1 0x20 ADD PUSH1 0x0 DUP2 MSTORE PUSH1 0x20 ADD PUSH1 0x0 DUP2 MSTORE POP SWAP1 JUMP JUMPDEST JUMPDEST DUP1 DUP3 GT ISZERO PUSH2 0x3279 JUMPI PUSH1 0x0 DUP2 PUSH1 0x0 SWAP1 SSTORE POP PUSH1 0x1 ADD PUSH2 0x3261 JUMP JUMPDEST POP SWAP1 JUMP JUMPDEST PUSH1 0x0 PUSH2 0x3290 PUSH2 0x328B DUP5 PUSH2 0x3B88 JUMP JUMPDEST PUSH2 0x3B63 JUMP JUMPDEST SWAP1 POP DUP3 DUP2 MSTORE PUSH1 0x20 DUP2 ADD DUP5 DUP5 DUP5 ADD GT ISZERO PUSH2 0x32AC JUMPI PUSH2 0x32AB PUSH2 0x3F72 JUMP JUMPDEST JUMPDEST PUSH2 0x32B7 DUP5 DUP3 DUP6 PUSH2 0x3D80 JUMP JUMPDEST POP SWAP4 SWAP3 POP POP POP JUMP JUMPDEST PUSH1 0x0 DUP2 CALLDATALOAD SWAP1 POP PUSH2 0x32CE DUP2 PUSH2 0x4103 JUMP JUMPDEST SWAP3 SWAP2 POP POP JUMP JUMPDEST PUSH1 0x0 DUP2 CALLDATALOAD SWAP1 POP PUSH2 0x32E3 DUP2 PUSH2 0x411A JUMP JUMPDEST SWAP3 SWAP2 POP POP JUMP JUMPDEST PUSH1 0x0 DUP2 CALLDATALOAD SWAP1 POP PUSH2 0x32F8 DUP2 PUSH2 0x4131 JUMP JUMPDEST SWAP3 SWAP2 POP POP JUMP JUMPDEST PUSH1 0x0 DUP3 PUSH1 0x1F DUP4 ADD SLT PUSH2 0x3313 JUMPI PUSH2 0x3312 PUSH2 0x3F6D JUMP JUMPDEST JUMPDEST DUP2 CALLDATALOAD PUSH2 0x3323 DUP5 DUP3 PUSH1 0x20 DUP7 ADD PUSH2 0x327D JUMP JUMPDEST SWAP2 POP POP SWAP3 SWAP2 POP POP JUMP JUMPDEST PUSH1 0x0 DUP2 CALLDATALOAD SWAP1 POP PUSH2 0x333B DUP2 PUSH2 0x4148 JUMP JUMPDEST SWAP3 SWAP2 POP POP JUMP JUMPDEST PUSH1 0x0 PUSH1 0x20 DUP3 DUP5 SUB SLT ISZERO PUSH2 0x3357 JUMPI PUSH2 0x3356 PUSH2 0x3F7C JUMP JUMPDEST JUMPDEST PUSH1 0x0 PUSH2 0x3365 DUP5 DUP3 DUP6 ADD PUSH2 0x32BF JUMP JUMPDEST SWAP2 POP POP SWAP3 SWAP2 POP POP JUMP JUMPDEST PUSH1 0x0 DUP1 PUSH1 0x40 DUP4 DUP6 SUB SLT ISZERO PUSH2 0x3385 JUMPI PUSH2 0x3384 PUSH2 0x3F7C JUMP JUMPDEST JUMPDEST PUSH1 0x0 PUSH2 0x3393 DUP6 DUP3 DUP7 ADD PUSH2 0x32BF JUMP JUMPDEST SWAP3 POP POP PUSH1 0x20 PUSH2 0x33A4 DUP6 DUP3 DUP7 ADD PUSH2 0x32E9 JUMP JUMPDEST SWAP2 POP POP SWAP3 POP SWAP3 SWAP1 POP JUMP JUMPDEST PUSH1 0x0 DUP1 PUSH1 0x40 DUP4 DUP6 SUB SLT ISZERO PUSH2 0x33C5 JUMPI PUSH2 0x33C4 PUSH2 0x3F7C JUMP JUMPDEST JUMPDEST PUSH1 0x0 PUSH2 0x33D3 DUP6 DUP3 DUP7 ADD PUSH2 0x32BF JUMP JUMPDEST SWAP3 POP POP PUSH1 0x20 PUSH2 0x33E4 DUP6 DUP3 DUP7 ADD PUSH2 0x332C JUMP JUMPDEST SWAP2 POP POP SWAP3 POP SWAP3 SWAP1 POP JUMP JUMPDEST PUSH1 0x0 DUP1 PUSH1 0x0 DUP1 PUSH1 0x0 DUP1 PUSH1 0xC0 DUP8 DUP10 SUB SLT ISZERO PUSH2 0x340B JUMPI PUSH2 0x340A PUSH2 0x3F7C JUMP JUMPDEST JUMPDEST PUSH1 0x0 PUSH2 0x3419 DUP10 DUP3 DUP11 ADD PUSH2 0x32BF JUMP JUMPDEST SWAP7 POP POP PUSH1 0x20 PUSH2 0x342A DUP10 DUP3 DUP11 ADD PUSH2 0x332C JUMP JUMPDEST SWAP6 POP POP PUSH1 0x40 PUSH2 0x343B DUP10 DUP3 DUP11 ADD PUSH2 0x32E9 JUMP JUMPDEST SWAP5 POP POP PUSH1 0x60 PUSH2 0x344C DUP10 DUP3 DUP11 ADD PUSH2 0x332C JUMP JUMPDEST SWAP4 POP POP PUSH1 0x80 PUSH2 0x345D DUP10 DUP3 DUP11 ADD PUSH2 0x332C JUMP JUMPDEST SWAP3 POP POP PUSH1 0xA0 PUSH2 0x346E DUP10 DUP3 DUP11 ADD PUSH2 0x332C JUMP JUMPDEST SWAP2 POP POP SWAP3 SWAP6 POP SWAP3 SWAP6 POP SWAP3 SWAP6 JUMP JUMPDEST PUSH1 0x0 PUSH1 0x20 DUP3 DUP5 SUB SLT ISZERO PUSH2 0x3491 JUMPI PUSH2 0x3490 PUSH2 0x3F7C JUMP JUMPDEST JUMPDEST PUSH1 0x0 PUSH2 0x349F DUP5 DUP3 DUP6 ADD PUSH2 0x32E9 JUMP JUMPDEST SWAP2 POP POP SWAP3 SWAP2 POP POP JUMP JUMPDEST PUSH1 0x0 DUP1 PUSH1 0x40 DUP4 DUP6 SUB SLT ISZERO PUSH2 0x34BF JUMPI PUSH2 0x34BE PUSH2 0x3F7C JUMP JUMPDEST JUMPDEST PUSH1 0x0 PUSH2 0x34CD DUP6 DUP3 DUP7 ADD PUSH2 0x32E9 JUMP JUMPDEST SWAP3 POP POP PUSH1 0x20 PUSH2 0x34DE DUP6 DUP3 DUP7 ADD PUSH2 0x332C JUMP JUMPDEST SWAP2 POP POP SWAP3 POP SWAP3 SWAP1 POP JUMP JUMPDEST PUSH1 0x0 DUP1 PUSH1 0x0 DUP1 PUSH1 0x80 DUP6 DUP8 SUB SLT ISZERO PUSH2 0x3502 JUMPI PUSH2 0x3501 PUSH2 0x3F7C JUMP JUMPDEST JUMPDEST PUSH1 0x0 PUSH2 0x3510 DUP8 DUP3 DUP9 ADD PUSH2 0x32E9 JUMP JUMPDEST SWAP5 POP POP PUSH1 0x20 PUSH2 0x3521 DUP8 DUP3 DUP9 ADD PUSH2 0x332C JUMP JUMPDEST SWAP4 POP POP PUSH1 0x40 PUSH2 0x3532 DUP8 DUP3 DUP9 ADD PUSH2 0x332C JUMP JUMPDEST SWAP3 POP POP PUSH1 0x60 PUSH2 0x3543 DUP8 DUP3 DUP9 ADD PUSH2 0x332C JUMP JUMPDEST SWAP2 POP POP SWAP3 SWAP6 SWAP2 SWAP5 POP SWAP3 POP JUMP JUMPDEST PUSH1 0x0 DUP1 PUSH1 0x0 DUP1 PUSH1 0x80 DUP6 DUP8 SUB SLT ISZERO PUSH2 0x3569 JUMPI PUSH2 0x3568 PUSH2 0x3F7C JUMP JUMPDEST JUMPDEST PUSH1 0x0 DUP6 ADD CALLDATALOAD PUSH8 0xFFFFFFFFFFFFFFFF DUP2 GT ISZERO PUSH2 0x3587 JUMPI PUSH2 0x3586 PUSH2 0x3F77 JUMP JUMPDEST JUMPDEST PUSH2 0x3593 DUP8 DUP3 DUP9 ADD PUSH2 0x32FE JUMP JUMPDEST SWAP5 POP POP PUSH1 0x20 DUP6 ADD CALLDATALOAD PUSH8 0xFFFFFFFFFFFFFFFF DUP2 GT ISZERO PUSH2 0x35B4 JUMPI PUSH2 0x35B3 PUSH2 0x3F77 JUMP JUMPDEST JUMPDEST PUSH2 0x35C0 DUP8 DUP3 DUP9 ADD PUSH2 0x32FE JUMP JUMPDEST SWAP4 POP POP PUSH1 0x40 DUP6 ADD CALLDATALOAD PUSH8 0xFFFFFFFFFFFFFFFF DUP2 GT ISZERO PUSH2 0x35E1 JUMPI PUSH2 0x35E0 PUSH2 0x3F77 JUMP JUMPDEST JUMPDEST PUSH2 0x35ED DUP8 DUP3 DUP9 ADD PUSH2 0x32FE JUMP JUMPDEST SWAP3 POP POP PUSH1 0x60 PUSH2 0x35FE DUP8 DUP3 DUP9 ADD PUSH2 0x32D4 JUMP JUMPDEST SWAP2 POP POP SWAP3 SWAP6 SWAP2 SWAP5 POP SWAP3 POP JUMP JUMPDEST PUSH1 0x0 PUSH2 0x3616 DUP4 DUP4 PUSH2 0x369E JUMP JUMPDEST PUSH1 0x20 DUP4 ADD SWAP1 POP SWAP3 SWAP2 POP POP JUMP JUMPDEST PUSH2 0x362B DUP2 PUSH2 0x3D2E JUMP JUMPDEST DUP3 MSTORE POP POP JUMP JUMPDEST PUSH1 0x0 PUSH2 0x363C DUP3 PUSH2 0x3BC9 JUMP JUMPDEST PUSH2 0x3646 DUP2 DUP6 PUSH2 0x3BEC JUMP JUMPDEST SWAP4 POP PUSH2 0x3651 DUP4 PUSH2 0x3BB9 JUMP JUMPDEST DUP1 PUSH1 0x0 JUMPDEST DUP4 DUP2 LT ISZERO PUSH2 0x3682 JUMPI DUP2 MLOAD PUSH2 0x3669 DUP9 DUP3 PUSH2 0x360A JUMP JUMPDEST SWAP8 POP PUSH2 0x3674 DUP4 PUSH2 0x3BDF JUMP JUMPDEST SWAP3 POP POP PUSH1 0x1 DUP2 ADD SWAP1 POP PUSH2 0x3655 JUMP JUMPDEST POP DUP6 SWAP4 POP POP POP POP SWAP3 SWAP2 POP POP JUMP JUMPDEST PUSH2 0x3698 DUP2 PUSH2 0x3D40 JUMP JUMPDEST DUP3 MSTORE POP POP JUMP JUMPDEST PUSH2 0x36A7 DUP2 PUSH2 0x3D4C JUMP JUMPDEST DUP3 MSTORE POP POP JUMP JUMPDEST PUSH2 0x36B6 DUP2 PUSH2 0x3D4C JUMP JUMPDEST DUP3 MSTORE POP POP JUMP JUMPDEST PUSH2 0x36CD PUSH2 0x36C8 DUP3 PUSH2 0x3D4C JUMP JUMPDEST PUSH2 0x3E6E JUMP JUMPDEST DUP3 MSTORE POP POP JUMP JUMPDEST PUSH1 0x0 PUSH2 0x36DE DUP3 PUSH2 0x3BD4 JUMP JUMPDEST PUSH2 0x36E8 DUP2 DUP6 PUSH2 0x3BFD JUMP JUMPDEST SWAP4 POP PUSH2 0x36F8 DUP2 DUP6 PUSH1 0x20 DUP7 ADD PUSH2 0x3D8F JUMP JUMPDEST PUSH2 0x3701 DUP2 PUSH2 0x3F81 JUMP JUMPDEST DUP5 ADD SWAP2 POP POP SWAP3 SWAP2 POP POP JUMP JUMPDEST PUSH1 0x0 PUSH2 0x3717 DUP3 PUSH2 0x3BD4 JUMP JUMPDEST PUSH2 0x3721 DUP2 DUP6 PUSH2 0x3C0E JUMP JUMPDEST SWAP4 POP PUSH2 0x3731 DUP2 DUP6 PUSH1 0x20 DUP7 ADD PUSH2 0x3D8F JUMP JUMPDEST DUP1 DUP5 ADD SWAP2 POP POP SWAP3 SWAP2 POP POP JUMP JUMPDEST PUSH1 0x0 PUSH2 0x374A PUSH1 0x19 DUP4 PUSH2 0x3BFD JUMP JUMPDEST SWAP2 POP PUSH2 0x3755 DUP3 PUSH2 0x3F92 JUMP JUMPDEST PUSH1 0x20 DUP3 ADD SWAP1 POP SWAP2 SWAP1 POP JUMP JUMPDEST PUSH1 0x0 PUSH2 0x376D PUSH1 0x9 DUP4 PUSH2 0x3BFD JUMP JUMPDEST SWAP2 POP PUSH2 0x3778 DUP3 PUSH2 0x3FBB JUMP JUMPDEST PUSH1 0x20 DUP3 ADD SWAP1 POP SWAP2 SWAP1 POP JUMP JUMPDEST PUSH1 0x0 PUSH2 0x3790 PUSH1 0xE DUP4 PUSH2 0x3BFD JUMP JUMPDEST SWAP2 POP PUSH2 0x379B DUP3 PUSH2 0x3FE4 JUMP JUMPDEST PUSH1 0x20 DUP3 ADD SWAP1 POP SWAP2 SWAP1 POP JUMP JUMPDEST PUSH1 0x0 PUSH2 0x37B3 PUSH1 0x17 DUP4 PUSH2 0x3BFD JUMP JUMPDEST SWAP2 POP PUSH2 0x37BE DUP3 PUSH2 0x400D JUMP JUMPDEST PUSH1 0x20 DUP3 ADD SWAP1 POP SWAP2 SWAP1 POP JUMP JUMPDEST PUSH1 0x0 PUSH2 0x37D6 PUSH1 0xA DUP4 PUSH2 0x3BFD JUMP JUMPDEST SWAP2 POP PUSH2 0x37E1 DUP3 PUSH2 0x4036 JUMP JUMPDEST PUSH1 0x20 DUP3 ADD SWAP1 POP SWAP2 SWAP1 POP JUMP JUMPDEST PUSH1 0x0 PUSH2 0x37F9 PUSH1 0x15 DUP4 PUSH2 0x3BFD JUMP JUMPDEST SWAP2 POP PUSH2 0x3804 DUP3 PUSH2 0x405F JUMP JUMPDEST PUSH1 0x20 DUP3 ADD SWAP1 POP SWAP2 SWAP1 POP JUMP JUMPDEST PUSH1 0x0 PUSH2 0x381C PUSH1 0x15 DUP4 PUSH2 0x3BFD JUMP JUMPDEST SWAP2 POP PUSH2 0x3827 DUP3 PUSH2 0x4088 JUMP JUMPDEST PUSH1 0x20 DUP3 ADD SWAP1 POP SWAP2 SWAP1 POP JUMP JUMPDEST PUSH1 0x0 PUSH2 0x383F PUSH1 0x10 DUP4 PUSH2 0x3BFD JUMP JUMPDEST SWAP2 POP PUSH2 0x384A DUP3 PUSH2 0x40B1 JUMP JUMPDEST PUSH1 0x20 DUP3 ADD SWAP1 POP SWAP2 SWAP1 POP JUMP JUMPDEST PUSH1 0x0 PUSH2 0x3862 PUSH1 0x11 DUP4 PUSH2 0x3BFD JUMP JUMPDEST SWAP2 POP PUSH2 0x386D DUP3 PUSH2 0x40DA JUMP JUMPDEST PUSH1 0x20 DUP3 ADD SWAP1 POP SWAP2 SWAP1 POP JUMP JUMPDEST PUSH1 0xA0 DUP3 ADD PUSH1 0x0 DUP3 ADD MLOAD PUSH2 0x388E PUSH1 0x0 DUP6 ADD DUP3 PUSH2 0x38E0 JUMP JUMPDEST POP PUSH1 0x20 DUP3 ADD MLOAD PUSH2 0x38A1 PUSH1 0x20 DUP6 ADD DUP3 PUSH2 0x38E0 JUMP JUMPDEST POP PUSH1 0x40 DUP3 ADD MLOAD PUSH2 0x38B4 PUSH1 0x40 DUP6 ADD DUP3 PUSH2 0x38E0 JUMP JUMPDEST POP PUSH1 0x60 DUP3 ADD MLOAD PUSH2 0x38C7 PUSH1 0x60 DUP6 ADD DUP3 PUSH2 0x38E0 JUMP JUMPDEST POP PUSH1 0x80 DUP3 ADD MLOAD PUSH2 0x38DA PUSH1 0x80 DUP6 ADD DUP3 PUSH2 0x38E0 JUMP JUMPDEST POP POP POP POP JUMP JUMPDEST PUSH2 0x38E9 DUP2 PUSH2 0x3D76 JUMP JUMPDEST DUP3 MSTORE POP POP JUMP JUMPDEST PUSH2 0x38F8 DUP2 PUSH2 0x3D76 JUMP JUMPDEST DUP3 MSTORE POP POP JUMP JUMPDEST PUSH2 0x390F PUSH2 0x390A DUP3 PUSH2 0x3D76 JUMP JUMPDEST PUSH2 0x3E78 JUMP JUMPDEST DUP3 MSTORE POP POP JUMP JUMPDEST PUSH1 0x0 PUSH2 0x3921 DUP3 DUP5 PUSH2 0x36BC JUMP JUMPDEST PUSH1 0x20 DUP3 ADD SWAP2 POP DUP2 SWAP1 POP SWAP3 SWAP2 POP POP JUMP JUMPDEST PUSH1 0x0 PUSH2 0x393C DUP3 DUP5 PUSH2 0x370C JUMP JUMPDEST SWAP2 POP DUP2 SWAP1 POP SWAP3 SWAP2 POP POP JUMP JUMPDEST PUSH1 0x0 PUSH2 0x3953 DUP3 DUP5 PUSH2 0x38FE JUMP JUMPDEST PUSH1 0x20 DUP3 ADD SWAP2 POP DUP2 SWAP1 POP SWAP3 SWAP2 POP POP JUMP JUMPDEST PUSH1 0x0 PUSH1 0x40 DUP3 ADD SWAP1 POP PUSH2 0x3977 PUSH1 0x0 DUP4 ADD DUP6 PUSH2 0x3622 JUMP JUMPDEST PUSH2 0x3984 PUSH1 0x20 DUP4 ADD DUP5 PUSH2 0x38EF JUMP JUMPDEST SWAP4 SWAP3 POP POP POP JUMP JUMPDEST PUSH1 0x0 PUSH1 0x20 DUP3 ADD SWAP1 POP DUP2 DUP2 SUB PUSH1 0x0 DUP4 ADD MSTORE PUSH2 0x39A5 DUP2 DUP5 PUSH2 0x3631 JUMP JUMPDEST SWAP1 POP SWAP3 SWAP2 POP POP JUMP JUMPDEST PUSH1 0x0 PUSH1 0x20 DUP3 ADD SWAP1 POP PUSH2 0x39C2 PUSH1 0x0 DUP4 ADD DUP5 PUSH2 0x368F JUMP JUMPDEST SWAP3 SWAP2 POP POP JUMP JUMPDEST PUSH1 0x0 PUSH1 0x20 DUP3 ADD SWAP1 POP PUSH2 0x39DD PUSH1 0x0 DUP4 ADD DUP5 PUSH2 0x36AD JUMP JUMPDEST SWAP3 SWAP2 POP POP JUMP JUMPDEST PUSH1 0x0 PUSH1 0xE0 DUP3 ADD SWAP1 POP DUP2 DUP2 SUB PUSH1 0x0 DUP4 ADD MSTORE PUSH2 0x39FD DUP2 DUP7 PUSH2 0x36D3 JUMP JUMPDEST SWAP1 POP DUP2 DUP2 SUB PUSH1 0x20 DUP4 ADD MSTORE PUSH2 0x3A11 DUP2 DUP6 PUSH2 0x36D3 JUMP JUMPDEST SWAP1 POP PUSH2 0x3A20 PUSH1 0x40 DUP4 ADD DUP5 PUSH2 0x3878 JUMP JUMPDEST SWAP5 SWAP4 POP POP POP POP JUMP JUMPDEST PUSH1 0x0 PUSH1 0x20 DUP3 ADD SWAP1 POP DUP2 DUP2 SUB PUSH1 0x0 DUP4 ADD MSTORE PUSH2 0x3A41 DUP2 PUSH2 0x373D JUMP JUMPDEST SWAP1 POP SWAP2 SWAP1 POP JUMP JUMPDEST PUSH1 0x0 PUSH1 0x20 DUP3 ADD SWAP1 POP DUP2 DUP2 SUB PUSH1 0x0 DUP4 ADD MSTORE PUSH2 0x3A61 DUP2 PUSH2 0x3760 JUMP JUMPDEST SWAP1 POP SWAP2 SWAP1 POP JUMP JUMPDEST PUSH1 0x0 PUSH1 0x20 DUP3 ADD SWAP1 POP DUP2 DUP2 SUB PUSH1 0x0 DUP4 ADD MSTORE PUSH2 0x3A81 DUP2 PUSH2 0x3783 JUMP JUMPDEST SWAP1 POP SWAP2 SWAP1 POP JUMP JUMPDEST PUSH1 0x0 PUSH1 0x20 DUP3 ADD SWAP1 POP DUP2 DUP2 SUB PUSH1 0x0 DUP4 ADD MSTORE PUSH2 0x3AA1 DUP2 PUSH2 0x37A6 JUMP JUMPDEST SWAP1 POP SWAP2 SWAP1 POP JUMP JUMPDEST PUSH1 0x0 PUSH1 0x20 DUP3 ADD SWAP1 POP DUP2 DUP2 SUB PUSH1 0x0 DUP4 ADD MSTORE PUSH2 0x3AC1 DUP2 PUSH2 0x37C9 JUMP JUMPDEST SWAP1 POP SWAP2 SWAP1 POP JUMP JUMPDEST PUSH1 0x0 PUSH1 0x20 DUP3 ADD SWAP1 POP DUP2 DUP2 SUB PUSH1 0x0 DUP4 ADD MSTORE PUSH2 0x3AE1 DUP2 PUSH2 0x37EC JUMP JUMPDEST SWAP1 POP SWAP2 SWAP1 POP JUMP JUMPDEST PUSH1 0x0 PUSH1 0x20 DUP3 ADD SWAP1 POP DUP2 DUP2 SUB PUSH1 0x0 DUP4 ADD MSTORE PUSH2 0x3B01 DUP2 PUSH2 0x380F JUMP JUMPDEST SWAP1 POP SWAP2 SWAP1 POP JUMP JUMPDEST PUSH1 0x0 PUSH1 0x20 DUP3 ADD SWAP1 POP DUP2 DUP2 SUB PUSH1 0x0 DUP4 ADD MSTORE PUSH2 0x3B21 DUP2 PUSH2 0x3832 JUMP JUMPDEST SWAP1 POP SWAP2 SWAP1 POP JUMP JUMPDEST PUSH1 0x0 PUSH1 0x20 DUP3 ADD SWAP1 POP DUP2 DUP2 SUB PUSH1 0x0 DUP4 ADD MSTORE PUSH2 0x3B41 DUP2 PUSH2 0x3855 JUMP JUMPDEST SWAP1 POP SWAP2 SWAP1 POP JUMP JUMPDEST PUSH1 0x0 PUSH1 0x20 DUP3 ADD SWAP1 POP PUSH2 0x3B5D PUSH1 0x0 DUP4 ADD DUP5 PUSH2 0x38EF JUMP JUMPDEST SWAP3 SWAP2 POP POP JUMP JUMPDEST PUSH1 0x0 PUSH2 0x3B6D PUSH2 0x3B7E JUMP JUMPDEST SWAP1 POP PUSH2 0x3B79 DUP3 DUP3 PUSH2 0x3DF4 JUMP JUMPDEST SWAP2 SWAP1 POP JUMP JUMPDEST PUSH1 0x0 PUSH1 0x40 MLOAD SWAP1 POP SWAP1 JUMP JUMPDEST PUSH1 0x0 PUSH8 0xFFFFFFFFFFFFFFFF DUP3 GT ISZERO PUSH2 0x3BA3 JUMPI PUSH2 0x3BA2 PUSH2 0x3F3E JUMP JUMPDEST JUMPDEST PUSH2 0x3BAC DUP3 PUSH2 0x3F81 JUMP JUMPDEST SWAP1 POP PUSH1 0x20 DUP2 ADD SWAP1 POP SWAP2 SWAP1 POP JUMP JUMPDEST PUSH1 0x0 DUP2 SWAP1 POP PUSH1 0x20 DUP3 ADD SWAP1 POP SWAP2 SWAP1 POP JUMP JUMPDEST PUSH1 0x0 DUP2 MLOAD SWAP1 POP SWAP2 SWAP1 POP JUMP JUMPDEST PUSH1 0x0 DUP2 MLOAD SWAP1 POP SWAP2 SWAP1 POP JUMP JUMPDEST PUSH1 0x0 PUSH1 0x20 DUP3 ADD SWAP1 POP SWAP2 SWAP1 POP JUMP JUMPDEST PUSH1 0x0 DUP3 DUP3 MSTORE PUSH1 0x20 DUP3 ADD SWAP1 POP SWAP3 SWAP2 POP POP JUMP JUMPDEST PUSH1 0x0 DUP3 DUP3 MSTORE PUSH1 0x20 DUP3 ADD SWAP1 POP SWAP3 SWAP2 POP POP JUMP JUMPDEST PUSH1 0x0 DUP2 SWAP1 POP SWAP3 SWAP2 POP POP JUMP JUMPDEST PUSH1 0x0 PUSH2 0x3C24 DUP3 PUSH2 0x3D76 JUMP JUMPDEST SWAP2 POP PUSH2 0x3C2F DUP4 PUSH2 0x3D76 JUMP JUMPDEST SWAP3 POP DUP3 PUSH32 0xFFFFFFFFFFFFFFFFFFFFFFFFFFFFFFFFFFFFFFFFFFFFFFFFFFFFFFFFFFFFFFFF SUB DUP3 GT ISZERO PUSH2 0x3C64 JUMPI PUSH2 0x3C63 PUSH2 0x3E82 JUMP JUMPDEST JUMPDEST DUP3 DUP3 ADD SWAP1 POP SWAP3 SWAP2 POP POP JUMP JUMPDEST PUSH1 0x0 PUSH2 0x3C7A DUP3 PUSH2 0x3D76 JUMP JUMPDEST SWAP2 POP PUSH2 0x3C85 DUP4 PUSH2 0x3D76 JUMP JUMPDEST SWAP3 POP DUP3 PUSH2 0x3C95 JUMPI PUSH2 0x3C94 PUSH2 0x3EB1 JUMP JUMPDEST JUMPDEST DUP3 DUP3 DIV SWAP1 POP SWAP3 SWAP2 POP POP JUMP JUMPDEST PUSH1 0x0 PUSH2 0x3CAB DUP3 PUSH2 0x3D76 JUMP JUMPDEST SWAP2 POP PUSH2 0x3CB6 DUP4 PUSH2 0x3D76 JUMP JUMPDEST SWAP3 POP DUP2 PUSH32 0xFFFFFFFFFFFFFFFFFFFFFFFFFFFFFFFFFFFFFFFFFFFFFFFFFFFFFFFFFFFFFFFF DIV DUP4 GT DUP3 ISZERO ISZERO AND ISZERO PUSH2 0x3CEF JUMPI PUSH2 0x3CEE PUSH2 0x3E82 JUMP JUMPDEST JUMPDEST DUP3 DUP3 MUL SWAP1 POP SWAP3 SWAP2 POP POP JUMP JUMPDEST PUSH1 0x0 PUSH2 0x3D05 DUP3 PUSH2 0x3D76 JUMP JUMPDEST SWAP2 POP PUSH2 0x3D10 DUP4 PUSH2 0x3D76 JUMP JUMPDEST SWAP3 POP DUP3 DUP3 LT ISZERO PUSH2 0x3D23 JUMPI PUSH2 0x3D22 PUSH2 0x3E82 JUMP JUMPDEST JUMPDEST DUP3 DUP3 SUB SWAP1 POP SWAP3 SWAP2 POP POP JUMP JUMPDEST PUSH1 0x0 PUSH2 0x3D39 DUP3 PUSH2 0x3D56 JUMP JUMPDEST SWAP1 POP SWAP2 SWAP1 POP JUMP JUMPDEST PUSH1 0x0 DUP2 ISZERO ISZERO SWAP1 POP SWAP2 SWAP1 POP JUMP JUMPDEST PUSH1 0x0 DUP2 SWAP1 POP SWAP2 SWAP1 POP JUMP JUMPDEST PUSH1 0x0 PUSH20 0xFFFFFFFFFFFFFFFFFFFFFFFFFFFFFFFFFFFFFFFF DUP3 AND SWAP1 POP SWAP2 SWAP1 POP JUMP JUMPDEST PUSH1 0x0 DUP2 SWAP1 POP SWAP2 SWAP1 POP JUMP JUMPDEST DUP3 DUP2 DUP4 CALLDATACOPY PUSH1 0x0 DUP4 DUP4 ADD MSTORE POP POP POP JUMP JUMPDEST PUSH1 0x0 JUMPDEST DUP4 DUP2 LT ISZERO PUSH2 0x3DAD JUMPI DUP1 DUP3 ADD MLOAD DUP2 DUP5 ADD MSTORE PUSH1 0x20 DUP2 ADD SWAP1 POP PUSH2 0x3D92 JUMP JUMPDEST DUP4 DUP2 GT ISZERO PUSH2 0x3DBC JUMPI PUSH1 0x0 DUP5 DUP5 ADD MSTORE JUMPDEST POP POP POP POP JUMP JUMPDEST PUSH1 0x0 PUSH1 0x2 DUP3 DIV SWAP1 POP PUSH1 0x1 DUP3 AND DUP1 PUSH2 0x3DDA JUMPI PUSH1 0x7F DUP3 AND SWAP2 POP JUMPDEST PUSH1 0x20 DUP3 LT DUP2 EQ ISZERO PUSH2 0x3DEE JUMPI PUSH2 0x3DED PUSH2 0x3EE0 JUMP JUMPDEST JUMPDEST POP SWAP2 SWAP1 POP JUMP JUMPDEST PUSH2 0x3DFD DUP3 PUSH2 0x3F81 JUMP JUMPDEST DUP2 ADD DUP2 DUP2 LT PUSH8 0xFFFFFFFFFFFFFFFF DUP3 GT OR ISZERO PUSH2 0x3E1C JUMPI PUSH2 0x3E1B PUSH2 0x3F3E JUMP JUMPDEST JUMPDEST DUP1 PUSH1 0x40 MSTORE POP POP POP JUMP JUMPDEST PUSH1 0x0 PUSH2 0x3E30 DUP3 PUSH2 0x3D76 JUMP JUMPDEST SWAP2 POP PUSH32 0xFFFFFFFFFFFFFFFFFFFFFFFFFFFFFFFFFFFFFFFFFFFFFFFFFFFFFFFFFFFFFFFF DUP3 EQ ISZERO PUSH2 0x3E63 JUMPI PUSH2 0x3E62 PUSH2 0x3E82 JUMP JUMPDEST JUMPDEST PUSH1 0x1 DUP3 ADD SWAP1 POP SWAP2 SWAP1 POP JUMP JUMPDEST PUSH1 0x0 DUP2 SWAP1 POP SWAP2 SWAP1 POP JUMP JUMPDEST PUSH1 0x0 DUP2 SWAP1 POP SWAP2 SWAP1 POP JUMP JUMPDEST PUSH32 0x4E487B7100000000000000000000000000000000000000000000000000000000 PUSH1 0x0 MSTORE PUSH1 0x11 PUSH1 0x4 MSTORE PUSH1 0x24 PUSH1 0x0 REVERT JUMPDEST PUSH32 0x4E487B7100000000000000000000000000000000000000000000000000000000 PUSH1 0x0 MSTORE PUSH1 0x12 PUSH1 0x4 MSTORE PUSH1 0x24 PUSH1 0x0 REVERT JUMPDEST PUSH32 0x4E487B7100000000000000000000000000000000000000000000000000000000 PUSH1 0x0 MSTORE PUSH1 0x22 PUSH1 0x4 MSTORE PUSH1 0x24 PUSH1 0x0 REVERT JUMPDEST PUSH32 0x4E487B7100000000000000000000000000000000000000000000000000000000 PUSH1 0x0 MSTORE PUSH1 0x32 PUSH1 0x4 MSTORE PUSH1 0x24 PUSH1 0x0 REVERT JUMPDEST PUSH32 0x4E487B7100000000000000000000000000000000000000000000000000000000 PUSH1 0x0 MSTORE PUSH1 0x41 PUSH1 0x4 MSTORE PUSH1 0x24 PUSH1 0x0 REVERT JUMPDEST PUSH1 0x0 DUP1 REVERT JUMPDEST PUSH1 0x0 DUP1 REVERT JUMPDEST PUSH1 0x0 DUP1 REVERT JUMPDEST PUSH1 0x0 DUP1 REVERT JUMPDEST PUSH1 0x0 PUSH1 0x1F NOT PUSH1 0x1F DUP4 ADD AND SWAP1 POP SWAP2 SWAP1 POP JUMP JUMPDEST PUSH32 0x4F6E6C79206F776E65722063616E2063616C6C20746869732E00000000000000 PUSH1 0x0 DUP3 ADD MSTORE POP JUMP JUMPDEST PUSH32 0x6E6F742065786973740000000000000000000000000000000000000000000000 PUSH1 0x0 DUP3 ADD MSTORE POP JUMP JUMPDEST PUSH32 0x706F6F6C206E6F74206578697374000000000000000000000000000000000000 PUSH1 0x0 DUP3 ADD MSTORE POP JUMP JUMPDEST PUSH32 0x706F6F6C20626173616C20686173206265656E20736574000000000000000000 PUSH1 0x0 DUP3 ADD MSTORE POP JUMP JUMPDEST PUSH32 0x7061697220657869737400000000000000000000000000000000000000000000 PUSH1 0x0 DUP3 ADD MSTORE POP JUMP JUMPDEST PUSH32 0x706F6F6C20686173206E6F742066696E69736865640000000000000000000000 PUSH1 0x0 DUP3 ADD MSTORE POP JUMP JUMPDEST PUSH32 0x6E6F7420656E6F75676820766F7465416D6F756E740000000000000000000000 PUSH1 0x0 DUP3 ADD MSTORE POP JUMP JUMPDEST PUSH32 0x6E6F7420656E6F75676820626173616C00000000000000000000000000000000 PUSH1 0x0 DUP3 ADD MSTORE POP JUMP JUMPDEST PUSH32 0x706F6F6C206861732066696E6973686564000000000000000000000000000000 PUSH1 0x0 DUP3 ADD MSTORE POP JUMP JUMPDEST PUSH2 0x410C DUP2 PUSH2 0x3D2E JUMP JUMPDEST DUP2 EQ PUSH2 0x4117 JUMPI PUSH1 0x0 DUP1 REVERT JUMPDEST POP JUMP JUMPDEST PUSH2 0x4123 DUP2 PUSH2 0x3D40 JUMP JUMPDEST DUP2 EQ PUSH2 0x412E JUMPI PUSH1 0x0 DUP1 REVERT JUMPDEST POP JUMP JUMPDEST PUSH2 0x413A DUP2 PUSH2 0x3D4C JUMP JUMPDEST DUP2 EQ PUSH2 0x4145 JUMPI PUSH1 0x0 DUP1 REVERT JUMPDEST POP JUMP JUMPDEST PUSH2 0x4151 DUP2 PUSH2 0x3D76 JUMP JUMPDEST DUP2 EQ PUSH2 0x415C JUMPI PUSH1 0x0 DUP1 REVERT JUMPDEST POP JUMP INVALID LOG2 PUSH5 0x6970667358 0x22 SLT KECCAK256 0x28 0xDF 0xBD SWAP2 LOG0 EXTCODECOPY 0xEB PUSH3 0x53C22E 0x4F 0x21 PUSH26 0x84381956812B83D6C900EA37B20820A1951A64736F6C63430008 SMOD STOP CALLER "
				},
				"gasEstimates": {
					"creation": {
						"codeDepositCost": "3357800",
						"executionCost": "infinite",
						"totalCost": "infinite"
					},
					"external": {
						"Award(bytes32,uint256,uint256,uint256)": "infinite",
						"CheckBasal()": "4696",
						"CheckExpect(bytes32)": "infinite",
						"CheckVoteTickets()": "2614",
						"Picking(address,uint256,bytes32,uint256,uint256,uint256)": "infinite",
						"Set_Basal(bytes32,uint256)": "infinite",
						"Set_Pool(string,string,string,bool)": "infinite",
						"Withdrawal(address,bytes32)": "infinite",
						"getAllPool()": "infinite",
						"getPool(bytes32)": "infinite",
						"voteWithdrawal(address,uint256)": "infinite",
						"withdrawBNBInContract(address)": "infinite"
					},
					"internal": {
						"addressToString(address)": "infinite",
						"bytes32ToString(bytes32)": "infinite",
						"contains(bytes32)": "2304",
						"strConcat(string memory,string memory)": "infinite",
						"stringCompare(string memory,string memory)": "infinite",
						"toString(bytes memory)": "infinite",
						"uint256ToString(uint256)": "infinite"
					}
				},
				"methodIdentifiers": {
					"Award(bytes32,uint256,uint256,uint256)": "74fe9bc2",
					"CheckBasal()": "3e6ff1a2",
					"CheckExpect(bytes32)": "4121855f",
					"CheckVoteTickets()": "baf41269",
					"Picking(address,uint256,bytes32,uint256,uint256,uint256)": "47e4dd27",
					"Set_Basal(bytes32,uint256)": "2bf21ecc",
					"Set_Pool(string,string,string,bool)": "357965ba",
					"Withdrawal(address,bytes32)": "0ce49053",
					"getAllPool()": "a20a4cb4",
					"getPool(bytes32)": "f6c00927",
					"voteWithdrawal(address,uint256)": "9bd0abf1",
					"withdrawBNBInContract(address)": "2775e02c"
				}
			},
			"storageLayout": {
				"storage": [
					{
						"astId": 198,
						"contract": "wwcc-contracts/contracts/wwccPool.sol:WCPOOL",
						"label": "owner",
						"offset": 0,
						"slot": "0",
						"type": "t_address"
					},
					{
						"astId": 200,
						"contract": "wwcc-contracts/contracts/wwccPool.sol:WCPOOL",
						"label": "nextBasalLast",
						"offset": 0,
						"slot": "1",
						"type": "t_uint256"
					},
					{
						"astId": 203,
						"contract": "wwcc-contracts/contracts/wwccPool.sol:WCPOOL",
						"label": "poolKeys",
						"offset": 0,
						"slot": "2",
						"type": "t_array(t_bytes32)dyn_storage"
					},
					{
						"astId": 205,
						"contract": "wwcc-contracts/contracts/wwccPool.sol:WCPOOL",
						"label": "lastBNB",
						"offset": 0,
						"slot": "3",
						"type": "t_uint256"
					},
					{
						"astId": 209,
						"contract": "wwcc-contracts/contracts/wwccPool.sol:WCPOOL",
						"label": "voteAmount",
						"offset": 0,
						"slot": "4",
						"type": "t_mapping(t_address,t_uint256)"
					},
					{
						"astId": 214,
						"contract": "wwcc-contracts/contracts/wwccPool.sol:WCPOOL",
						"label": "WcPools",
						"offset": 0,
						"slot": "5",
						"type": "t_mapping(t_bytes32,t_struct(WcPool)153_storage)"
					},
					{
						"astId": 219,
						"contract": "wwcc-contracts/contracts/wwccPool.sol:WCPOOL",
						"label": "allScorePoolInfo",
						"offset": 0,
						"slot": "6",
						"type": "t_mapping(t_bytes32,t_struct(AllScorePool)171_storage)"
					},
					{
						"astId": 223,
						"contract": "wwcc-contracts/contracts/wwccPool.sol:WCPOOL",
						"label": "singleScorePool",
						"offset": 0,
						"slot": "7",
						"type": "t_mapping(t_string_memory_ptr,t_uint256)"
					},
					{
						"astId": 228,
						"contract": "wwcc-contracts/contracts/wwccPool.sol:WCPOOL",
						"label": "joinerAllPicking",
						"offset": 0,
						"slot": "8",
						"type": "t_mapping(t_address,t_struct(JoinerAllPicking)178_storage)"
					}
				],
				"types": {
					"t_address": {
						"encoding": "inplace",
						"label": "address",
						"numberOfBytes": "20"
					},
					"t_array(t_bytes32)dyn_storage": {
						"base": "t_bytes32",
						"encoding": "dynamic_array",
						"label": "bytes32[]",
						"numberOfBytes": "32"
					},
					"t_array(t_struct(JoinerPicking)193_storage)dyn_storage": {
						"base": "t_struct(JoinerPicking)193_storage",
						"encoding": "dynamic_array",
						"label": "struct WCPOOL.JoinerPicking[]",
						"numberOfBytes": "32"
					},
					"t_bool": {
						"encoding": "inplace",
						"label": "bool",
						"numberOfBytes": "1"
					},
					"t_bytes32": {
						"encoding": "inplace",
						"label": "bytes32",
						"numberOfBytes": "32"
					},
					"t_mapping(t_address,t_struct(JoinerAllPicking)178_storage)": {
						"encoding": "mapping",
						"key": "t_address",
						"label": "mapping(address => struct WCPOOL.JoinerAllPicking)",
						"numberOfBytes": "32",
						"value": "t_struct(JoinerAllPicking)178_storage"
					},
					"t_mapping(t_address,t_uint256)": {
						"encoding": "mapping",
						"key": "t_address",
						"label": "mapping(address => uint256)",
						"numberOfBytes": "32",
						"value": "t_uint256"
					},
					"t_mapping(t_bytes32,t_struct(AllScorePool)171_storage)": {
						"encoding": "mapping",
						"key": "t_bytes32",
						"label": "mapping(bytes32 => struct WCPOOL.AllScorePool)",
						"numberOfBytes": "32",
						"value": "t_struct(AllScorePool)171_storage"
					},
					"t_mapping(t_bytes32,t_struct(WcPool)153_storage)": {
						"encoding": "mapping",
						"key": "t_bytes32",
						"label": "mapping(bytes32 => struct WCPOOL.WcPool)",
						"numberOfBytes": "32",
						"value": "t_struct(WcPool)153_storage"
					},
					"t_mapping(t_string_memory_ptr,t_uint256)": {
						"encoding": "mapping",
						"key": "t_string_memory_ptr",
						"label": "mapping(string => uint256)",
						"numberOfBytes": "32",
						"value": "t_uint256"
					},
					"t_string_memory_ptr": {
						"encoding": "bytes",
						"label": "string",
						"numberOfBytes": "32"
					},
					"t_string_storage": {
						"encoding": "bytes",
						"label": "string",
						"numberOfBytes": "32"
					},
					"t_struct(AllScorePool)171_storage": {
						"encoding": "inplace",
						"label": "struct WCPOOL.AllScorePool",
						"members": [
							{
								"astId": 168,
								"contract": "wwcc-contracts/contracts/wwccPool.sol:WCPOOL",
								"label": "separateBet",
								"offset": 0,
								"slot": "0",
								"type": "t_array(t_struct(JoinerPicking)193_storage)dyn_storage"
							},
							{
								"astId": 170,
								"contract": "wwcc-contracts/contracts/wwccPool.sol:WCPOOL",
								"label": "poolKey",
								"offset": 0,
								"slot": "1",
								"type": "t_bytes32"
							}
						],
						"numberOfBytes": "64"
					},
					"t_struct(JoinerAllPicking)178_storage": {
						"encoding": "inplace",
						"label": "struct WCPOOL.JoinerAllPicking",
						"members": [
							{
								"astId": 175,
								"contract": "wwcc-contracts/contracts/wwccPool.sol:WCPOOL",
								"label": "separateBet",
								"offset": 0,
								"slot": "0",
								"type": "t_array(t_struct(JoinerPicking)193_storage)dyn_storage"
							},
							{
								"astId": 177,
								"contract": "wwcc-contracts/contracts/wwccPool.sol:WCPOOL",
								"label": "joiner",
								"offset": 0,
								"slot": "1",
								"type": "t_address"
							}
						],
						"numberOfBytes": "64"
					},
					"t_struct(JoinerPicking)193_storage": {
						"encoding": "inplace",
						"label": "struct WCPOOL.JoinerPicking",
						"members": [
							{
								"astId": 180,
								"contract": "wwcc-contracts/contracts/wwccPool.sol:WCPOOL",
								"label": "weight",
								"offset": 0,
								"slot": "0",
								"type": "t_uint256"
							},
							{
								"astId": 182,
								"contract": "wwcc-contracts/contracts/wwccPool.sol:WCPOOL",
								"label": "kind",
								"offset": 0,
								"slot": "1",
								"type": "t_uint256"
							},
							{
								"astId": 184,
								"contract": "wwcc-contracts/contracts/wwccPool.sol:WCPOOL",
								"label": "homeScore",
								"offset": 0,
								"slot": "2",
								"type": "t_uint256"
							},
							{
								"astId": 186,
								"contract": "wwcc-contracts/contracts/wwccPool.sol:WCPOOL",
								"label": "visitScore",
								"offset": 0,
								"slot": "3",
								"type": "t_uint256"
							},
							{
								"astId": 188,
								"contract": "wwcc-contracts/contracts/wwccPool.sol:WCPOOL",
								"label": "joiner",
								"offset": 0,
								"slot": "4",
								"type": "t_address"
							},
							{
								"astId": 190,
								"contract": "wwcc-contracts/contracts/wwccPool.sol:WCPOOL",
								"label": "pickingKey",
								"offset": 0,
								"slot": "5",
								"type": "t_string_storage"
							},
							{
								"astId": 192,
								"contract": "wwcc-contracts/contracts/wwccPool.sol:WCPOOL",
								"label": "finished",
								"offset": 0,
								"slot": "6",
								"type": "t_bool"
							}
						],
						"numberOfBytes": "224"
					},
					"t_struct(WcPool)153_storage": {
						"encoding": "inplace",
						"label": "struct WCPOOL.WcPool",
						"members": [
							{
								"astId": 132,
								"contract": "wwcc-contracts/contracts/wwccPool.sol:WCPOOL",
								"label": "home",
								"offset": 0,
								"slot": "0",
								"type": "t_string_storage"
							},
							{
								"astId": 134,
								"contract": "wwcc-contracts/contracts/wwccPool.sol:WCPOOL",
								"label": "visit",
								"offset": 0,
								"slot": "1",
								"type": "t_string_storage"
							},
							{
								"astId": 136,
								"contract": "wwcc-contracts/contracts/wwccPool.sol:WCPOOL",
								"label": "rounds",
								"offset": 0,
								"slot": "2",
								"type": "t_string_storage"
							},
							{
								"astId": 138,
								"contract": "wwcc-contracts/contracts/wwccPool.sol:WCPOOL",
								"label": "wPool",
								"offset": 0,
								"slot": "3",
								"type": "t_uint256"
							},
							{
								"astId": 140,
								"contract": "wwcc-contracts/contracts/wwccPool.sol:WCPOOL",
								"label": "dPool",
								"offset": 0,
								"slot": "4",
								"type": "t_uint256"
							},
							{
								"astId": 142,
								"contract": "wwcc-contracts/contracts/wwccPool.sol:WCPOOL",
								"label": "lPool",
								"offset": 0,
								"slot": "5",
								"type": "t_uint256"
							},
							{
								"astId": 144,
								"contract": "wwcc-contracts/contracts/wwccPool.sol:WCPOOL",
								"label": "sPool",
								"offset": 0,
								"slot": "6",
								"type": "t_uint256"
							},
							{
								"astId": 146,
								"contract": "wwcc-contracts/contracts/wwccPool.sol:WCPOOL",
								"label": "basal",
								"offset": 0,
								"slot": "7",
								"type": "t_uint256"
							},
							{
								"astId": 148,
								"contract": "wwcc-contracts/contracts/wwccPool.sol:WCPOOL",
								"label": "decided",
								"offset": 0,
								"slot": "8",
								"type": "t_bool"
							},
							{
								"astId": 150,
								"contract": "wwcc-contracts/contracts/wwccPool.sol:WCPOOL",
								"label": "used",
								"offset": 1,
								"slot": "8",
								"type": "t_bool"
							},
							{
								"astId": 152,
								"contract": "wwcc-contracts/contracts/wwccPool.sol:WCPOOL",
								"label": "finished",
								"offset": 2,
								"slot": "8",
								"type": "t_bool"
							}
						],
						"numberOfBytes": "288"
					},
					"t_uint256": {
						"encoding": "inplace",
						"label": "uint256",
						"numberOfBytes": "32"
					}
				}
			},
			"userdoc": {
				"kind": "user",
				"methods": {},
				"version": 1
			}
		}
	}
}