{
	"wwcc-contracts/contracts/wwccPool.sol": {
		"WCPOOL": {
			"abi": [
				{
					"inputs": [
						{
							"internalType": "address",
							"name": "holder",
							"type": "address"
						},
						{
							"internalType": "uint256",
							"name": "firstBasal",
							"type": "uint256"
						}
					],
					"stateMutability": "nonpayable",
					"type": "constructor"
				},
				{
					"anonymous": false,
					"inputs": [
						{
							"indexed": false,
							"internalType": "address",
							"name": "",
							"type": "address"
						},
						{
							"indexed": false,
							"internalType": "uint256",
							"name": "",
							"type": "uint256"
						}
					],
					"name": "Received",
					"type": "event"
				},
				{
					"inputs": [
						{
							"internalType": "bytes32",
							"name": "poolKey",
							"type": "bytes32"
						},
						{
							"internalType": "uint256",
							"name": "homeScore",
							"type": "uint256"
						},
						{
							"internalType": "uint256",
							"name": "visitScore",
							"type": "uint256"
						},
						{
							"internalType": "uint256",
							"name": "result",
							"type": "uint256"
						}
					],
					"name": "Award",
					"outputs": [
						{
							"internalType": "bool",
							"name": "",
							"type": "bool"
						}
					],
					"stateMutability": "payable",
					"type": "function"
				},
				{
					"inputs": [],
					"name": "CheckBasal",
					"outputs": [
						{
							"internalType": "uint256",
							"name": "",
							"type": "uint256"
						}
					],
					"stateMutability": "view",
					"type": "function"
				},
				{
					"inputs": [
						{
							"internalType": "bytes32",
							"name": "poolKey",
							"type": "bytes32"
						}
					],
					"name": "CheckExpect",
					"outputs": [
						{
							"internalType": "uint256",
							"name": "",
							"type": "uint256"
						}
					],
					"stateMutability": "view",
					"type": "function"
				},
				{
					"inputs": [],
					"name": "CheckVoteTickets",
					"outputs": [
						{
							"internalType": "uint256",
							"name": "",
							"type": "uint256"
						}
					],
					"stateMutability": "view",
					"type": "function"
				},
				{
					"inputs": [
						{
							"internalType": "address",
							"name": "joiner",
							"type": "address"
						},
						{
							"internalType": "uint256",
							"name": "weight",
							"type": "uint256"
						},
						{
							"internalType": "bytes32",
							"name": "poolKey",
							"type": "bytes32"
						},
						{
							"internalType": "uint256",
							"name": "homeScore",
							"type": "uint256"
						},
						{
							"internalType": "uint256",
							"name": "visitScore",
							"type": "uint256"
						},
						{
							"internalType": "uint256",
							"name": "kind",
							"type": "uint256"
						}
					],
					"name": "Picking",
					"outputs": [
						{
							"internalType": "bool",
							"name": "",
							"type": "bool"
						}
					],
					"stateMutability": "nonpayable",
					"type": "function"
				},
				{
					"inputs": [
						{
							"internalType": "bytes32",
							"name": "poolKey",
							"type": "bytes32"
						},
						{
							"internalType": "uint256",
							"name": "basal",
							"type": "uint256"
						}
					],
					"name": "Set_Basal",
					"outputs": [
						{
							"internalType": "bool",
							"name": "",
							"type": "bool"
						}
					],
					"stateMutability": "nonpayable",
					"type": "function"
				},
				{
					"inputs": [
						{
							"internalType": "string",
							"name": "home",
							"type": "string"
						},
						{
							"internalType": "string",
							"name": "visit",
							"type": "string"
						},
						{
							"internalType": "string",
							"name": "rounds",
							"type": "string"
						},
						{
							"internalType": "bool",
							"name": "decided",
							"type": "bool"
						}
					],
					"name": "Set_Pool",
					"outputs": [
						{
							"internalType": "bytes32",
							"name": "",
							"type": "bytes32"
						}
					],
					"stateMutability": "nonpayable",
					"type": "function"
				},
				{
					"inputs": [
						{
							"internalType": "address",
							"name": "toAddress",
							"type": "address"
						},
						{
							"internalType": "bytes32",
							"name": "poolKey",
							"type": "bytes32"
						}
					],
					"name": "Withdrawal",
					"outputs": [
						{
							"internalType": "bool",
							"name": "",
							"type": "bool"
						}
					],
					"stateMutability": "payable",
					"type": "function"
				},
				{
					"inputs": [
						{
							"internalType": "bytes32",
							"name": "poolKey",
							"type": "bytes32"
						}
					],
					"name": "getPool",
					"outputs": [
						{
							"internalType": "string",
							"name": "vs",
							"type": "string"
						},
						{
							"internalType": "string",
							"name": "rounds",
							"type": "string"
						},
						{
							"components": [
								{
									"internalType": "uint256",
									"name": "wPool",
									"type": "uint256"
								},
								{
									"internalType": "uint256",
									"name": "dPool",
									"type": "uint256"
								},
								{
									"internalType": "uint256",
									"name": "lPool",
									"type": "uint256"
								},
								{
									"internalType": "uint256",
									"name": "sPool",
									"type": "uint256"
								},
								{
									"internalType": "uint256",
									"name": "basal",
									"type": "uint256"
								}
							],
							"internalType": "struct WCPOOL.PoolViewInfo",
							"name": "viewInfo",
							"type": "tuple"
						}
					],
					"stateMutability": "view",
					"type": "function"
				},
				{
					"inputs": [
						{
							"internalType": "address",
							"name": "joiner",
							"type": "address"
						},
						{
							"internalType": "uint256",
							"name": "amount",
							"type": "uint256"
						}
					],
					"name": "voteWithdrawal",
					"outputs": [
						{
							"internalType": "bool",
							"name": "",
							"type": "bool"
						}
					],
					"stateMutability": "payable",
					"type": "function"
				},
				{
					"inputs": [
						{
							"internalType": "address",
							"name": "toAddress",
							"type": "address"
						}
					],
					"name": "withdrawBNBInContract",
					"outputs": [
						{
							"internalType": "bool",
							"name": "",
							"type": "bool"
						}
					],
					"stateMutability": "payable",
					"type": "function"
				},
				{
					"stateMutability": "payable",
					"type": "receive"
				}
			],
			"devdoc": {
				"kind": "dev",
				"methods": {},
				"version": 1
			},
			"evm": {
				"assembly": "    /* \"wwcc-contracts/contracts/wwccPool.sol\":96:13627  contract WCPOOL {... */\n  mstore(0x40, 0x80)\n    /* \"wwcc-contracts/contracts/wwccPool.sol\":1748:1969  constructor(... */\n  callvalue\n  dup1\n  iszero\n  tag_1\n  jumpi\n  0x00\n  dup1\n  revert\ntag_1:\n  pop\n  mload(0x40)\n  sub(codesize, bytecodeSize)\n  dup1\n  bytecodeSize\n  dup4\n  codecopy\n  dup2\n  dup2\n  add\n  0x40\n  mstore\n  dup2\n  add\n  swap1\n  tag_2\n  swap2\n  swap1\n  tag_3\n  jump\t// in\ntag_2:\n    /* \"wwcc-contracts/contracts/wwccPool.sol\":1829:1835  holder */\n  dup2\n    /* \"wwcc-contracts/contracts/wwccPool.sol\":1821:1826  owner */\n  0x00\n  dup1\n    /* \"wwcc-contracts/contracts/wwccPool.sol\":1821:1835  owner = holder */\n  0x0100\n  exp\n  dup2\n  sload\n  dup2\n  0xffffffffffffffffffffffffffffffffffffffff\n  mul\n  not\n  and\n  swap1\n  dup4\n  0xffffffffffffffffffffffffffffffffffffffff\n  and\n  mul\n  or\n  swap1\n  sstore\n  pop\n    /* \"wwcc-contracts/contracts/wwccPool.sol\":1855:1856  0 */\n  0x00\n    /* \"wwcc-contracts/contracts/wwccPool.sol\":1845:1852  lastBNB */\n  0x02\n    /* \"wwcc-contracts/contracts/wwccPool.sol\":1845:1856  lastBNB = 0 */\n  dup2\n  swap1\n  sstore\n  pop\n    /* \"wwcc-contracts/contracts/wwccPool.sol\":1882:1892  firstBasal */\n  dup1\n    /* \"wwcc-contracts/contracts/wwccPool.sol\":1866:1879  nextBasalLast */\n  0x01\n    /* \"wwcc-contracts/contracts/wwccPool.sol\":1866:1892  nextBasalLast = firstBasal */\n  dup2\n  swap1\n  sstore\n  pop\n    /* \"wwcc-contracts/contracts/wwccPool.sol\":1748:1969  constructor(... */\n  pop\n  pop\n    /* \"wwcc-contracts/contracts/wwccPool.sol\":96:13627  contract WCPOOL {... */\n  jump(tag_6)\n    /* \"#utility.yul\":7:150   */\ntag_8:\n    /* \"#utility.yul\":64:69   */\n  0x00\n    /* \"#utility.yul\":95:101   */\n  dup2\n    /* \"#utility.yul\":89:102   */\n  mload\n    /* \"#utility.yul\":80:102   */\n  swap1\n  pop\n    /* \"#utility.yul\":111:144   */\n  tag_10\n    /* \"#utility.yul\":138:143   */\n  dup2\n    /* \"#utility.yul\":111:144   */\n  tag_11\n  jump\t// in\ntag_10:\n    /* \"#utility.yul\":7:150   */\n  swap3\n  swap2\n  pop\n  pop\n  jump\t// out\n    /* \"#utility.yul\":156:299   */\ntag_12:\n    /* \"#utility.yul\":213:218   */\n  0x00\n    /* \"#utility.yul\":244:250   */\n  dup2\n    /* \"#utility.yul\":238:251   */\n  mload\n    /* \"#utility.yul\":229:251   */\n  swap1\n  pop\n    /* \"#utility.yul\":260:293   */\n  tag_14\n    /* \"#utility.yul\":287:292   */\n  dup2\n    /* \"#utility.yul\":260:293   */\n  tag_15\n  jump\t// in\ntag_14:\n    /* \"#utility.yul\":156:299   */\n  swap3\n  swap2\n  pop\n  pop\n  jump\t// out\n    /* \"#utility.yul\":305:812   */\ntag_3:\n    /* \"#utility.yul\":384:390   */\n  0x00\n    /* \"#utility.yul\":392:398   */\n  dup1\n    /* \"#utility.yul\":441:443   */\n  0x40\n    /* \"#utility.yul\":429:438   */\n  dup4\n    /* \"#utility.yul\":420:427   */\n  dup6\n    /* \"#utility.yul\":416:439   */\n  sub\n    /* \"#utility.yul\":412:444   */\n  slt\n    /* \"#utility.yul\":409:528   */\n  iszero\n  tag_17\n  jumpi\n    /* \"#utility.yul\":447:526   */\n  tag_18\n  tag_19\n  jump\t// in\ntag_18:\n    /* \"#utility.yul\":409:528   */\ntag_17:\n    /* \"#utility.yul\":567:568   */\n  0x00\n    /* \"#utility.yul\":592:656   */\n  tag_20\n    /* \"#utility.yul\":648:655   */\n  dup6\n    /* \"#utility.yul\":639:645   */\n  dup3\n    /* \"#utility.yul\":628:637   */\n  dup7\n    /* \"#utility.yul\":624:646   */\n  add\n    /* \"#utility.yul\":592:656   */\n  tag_8\n  jump\t// in\ntag_20:\n    /* \"#utility.yul\":582:656   */\n  swap3\n  pop\n    /* \"#utility.yul\":538:666   */\n  pop\n    /* \"#utility.yul\":705:707   */\n  0x20\n    /* \"#utility.yul\":731:795   */\n  tag_21\n    /* \"#utility.yul\":787:794   */\n  dup6\n    /* \"#utility.yul\":778:784   */\n  dup3\n    /* \"#utility.yul\":767:776   */\n  dup7\n    /* \"#utility.yul\":763:785   */\n  add\n    /* \"#utility.yul\":731:795   */\n  tag_12\n  jump\t// in\ntag_21:\n    /* \"#utility.yul\":721:795   */\n  swap2\n  pop\n    /* \"#utility.yul\":676:805   */\n  pop\n    /* \"#utility.yul\":305:812   */\n  swap3\n  pop\n  swap3\n  swap1\n  pop\n  jump\t// out\n    /* \"#utility.yul\":899:995   */\ntag_24:\n    /* \"#utility.yul\":936:943   */\n  0x00\n    /* \"#utility.yul\":965:989   */\n  tag_26\n    /* \"#utility.yul\":983:988   */\n  dup3\n    /* \"#utility.yul\":965:989   */\n  tag_27\n  jump\t// in\ntag_26:\n    /* \"#utility.yul\":954:989   */\n  swap1\n  pop\n    /* \"#utility.yul\":899:995   */\n  swap2\n  swap1\n  pop\n  jump\t// out\n    /* \"#utility.yul\":1001:1127   */\ntag_27:\n    /* \"#utility.yul\":1038:1045   */\n  0x00\n    /* \"#utility.yul\":1078:1120   */\n  0xffffffffffffffffffffffffffffffffffffffff\n    /* \"#utility.yul\":1071:1076   */\n  dup3\n    /* \"#utility.yul\":1067:1121   */\n  and\n    /* \"#utility.yul\":1056:1121   */\n  swap1\n  pop\n    /* \"#utility.yul\":1001:1127   */\n  swap2\n  swap1\n  pop\n  jump\t// out\n    /* \"#utility.yul\":1133:1210   */\ntag_29:\n    /* \"#utility.yul\":1170:1177   */\n  0x00\n    /* \"#utility.yul\":1199:1204   */\n  dup2\n    /* \"#utility.yul\":1188:1204   */\n  swap1\n  pop\n    /* \"#utility.yul\":1133:1210   */\n  swap2\n  swap1\n  pop\n  jump\t// out\n    /* \"#utility.yul\":1339:1456   */\ntag_19:\n    /* \"#utility.yul\":1448:1449   */\n  0x00\n    /* \"#utility.yul\":1445:1446   */\n  dup1\n    /* \"#utility.yul\":1438:1450   */\n  revert\n    /* \"#utility.yul\":1462:1584   */\ntag_11:\n    /* \"#utility.yul\":1535:1559   */\n  tag_35\n    /* \"#utility.yul\":1553:1558   */\n  dup2\n    /* \"#utility.yul\":1535:1559   */\n  tag_24\n  jump\t// in\ntag_35:\n    /* \"#utility.yul\":1528:1533   */\n  dup2\n    /* \"#utility.yul\":1525:1560   */\n  eq\n    /* \"#utility.yul\":1515:1578   */\n  tag_36\n  jumpi\n    /* \"#utility.yul\":1574:1575   */\n  0x00\n    /* \"#utility.yul\":1571:1572   */\n  dup1\n    /* \"#utility.yul\":1564:1576   */\n  revert\n    /* \"#utility.yul\":1515:1578   */\ntag_36:\n    /* \"#utility.yul\":1462:1584   */\n  pop\n  jump\t// out\n    /* \"#utility.yul\":1590:1712   */\ntag_15:\n    /* \"#utility.yul\":1663:1687   */\n  tag_38\n    /* \"#utility.yul\":1681:1686   */\n  dup2\n    /* \"#utility.yul\":1663:1687   */\n  tag_29\n  jump\t// in\ntag_38:\n    /* \"#utility.yul\":1656:1661   */\n  dup2\n    /* \"#utility.yul\":1653:1688   */\n  eq\n    /* \"#utility.yul\":1643:1706   */\n  tag_39\n  jumpi\n    /* \"#utility.yul\":1702:1703   */\n  0x00\n    /* \"#utility.yul\":1699:1700   */\n  dup1\n    /* \"#utility.yul\":1692:1704   */\n  revert\n    /* \"#utility.yul\":1643:1706   */\ntag_39:\n    /* \"#utility.yul\":1590:1712   */\n  pop\n  jump\t// out\n    /* \"wwcc-contracts/contracts/wwccPool.sol\":96:13627  contract WCPOOL {... */\ntag_6:\n  dataSize(sub_0)\n  dup1\n  dataOffset(sub_0)\n  0x00\n  codecopy\n  0x00\n  return\nstop\n\nsub_0: assembly {\n        /* \"wwcc-contracts/contracts/wwccPool.sol\":96:13627  contract WCPOOL {... */\n      mstore(0x40, 0x80)\n      jumpi(tag_1, lt(calldatasize, 0x04))\n      shr(0xe0, calldataload(0x00))\n      dup1\n      0x4121855f\n      gt\n      tag_14\n      jumpi\n      dup1\n      0x4121855f\n      eq\n      tag_8\n      jumpi\n      dup1\n      0x47e4dd27\n      eq\n      tag_9\n      jumpi\n      dup1\n      0x74fe9bc2\n      eq\n      tag_10\n      jumpi\n      dup1\n      0x9bd0abf1\n      eq\n      tag_11\n      jumpi\n      dup1\n      0xbaf41269\n      eq\n      tag_12\n      jumpi\n      dup1\n      0xf6c00927\n      eq\n      tag_13\n      jumpi\n      jump(tag_2)\n    tag_14:\n      dup1\n      0x0ce49053\n      eq\n      tag_3\n      jumpi\n      dup1\n      0x2775e02c\n      eq\n      tag_4\n      jumpi\n      dup1\n      0x2bf21ecc\n      eq\n      tag_5\n      jumpi\n      dup1\n      0x357965ba\n      eq\n      tag_6\n      jumpi\n      dup1\n      0x3e6ff1a2\n      eq\n      tag_7\n      jumpi\n      jump(tag_2)\n    tag_1:\n      jumpi(tag_2, calldatasize)\n        /* \"wwcc-contracts/contracts/wwccPool.sol\":13446:13451  owner */\n      0x00\n      dup1\n      sload\n      swap1\n      0x0100\n      exp\n      swap1\n      div\n      0xffffffffffffffffffffffffffffffffffffffff\n      and\n        /* \"wwcc-contracts/contracts/wwccPool.sol\":13432:13451  msg.sender != owner */\n      0xffffffffffffffffffffffffffffffffffffffff\n      and\n        /* \"wwcc-contracts/contracts/wwccPool.sol\":13432:13442  msg.sender */\n      caller\n        /* \"wwcc-contracts/contracts/wwccPool.sol\":13432:13451  msg.sender != owner */\n      0xffffffffffffffffffffffffffffffffffffffff\n      and\n      eq\n        /* \"wwcc-contracts/contracts/wwccPool.sol\":13429:13620  if(msg.sender != owner){... */\n      tag_17\n      jumpi\n        /* \"wwcc-contracts/contracts/wwccPool.sol\":13491:13509  msg.value.mul(100) */\n      tag_18\n        /* \"wwcc-contracts/contracts/wwccPool.sol\":13505:13508  100 */\n      0x64\n        /* \"wwcc-contracts/contracts/wwccPool.sol\":13491:13500  msg.value */\n      callvalue\n        /* \"wwcc-contracts/contracts/wwccPool.sol\":13491:13504  msg.value.mul */\n      tag_19\n      swap1\n        /* \"wwcc-contracts/contracts/wwccPool.sol\":13491:13509  msg.value.mul(100) */\n      swap2\n      swap1\n      0xffffffff\n      and\n      jump\t// in\n    tag_18:\n        /* \"wwcc-contracts/contracts/wwccPool.sol\":13465:13475  voteAmount */\n      0x03\n        /* \"wwcc-contracts/contracts/wwccPool.sol\":13465:13487  voteAmount[msg.sender] */\n      0x00\n        /* \"wwcc-contracts/contracts/wwccPool.sol\":13476:13486  msg.sender */\n      caller\n        /* \"wwcc-contracts/contracts/wwccPool.sol\":13465:13487  voteAmount[msg.sender] */\n      0xffffffffffffffffffffffffffffffffffffffff\n      and\n      0xffffffffffffffffffffffffffffffffffffffff\n      and\n      dup2\n      mstore\n      0x20\n      add\n      swap1\n      dup2\n      mstore\n      0x20\n      add\n      0x00\n      keccak256\n      0x00\n        /* \"wwcc-contracts/contracts/wwccPool.sol\":13465:13509  voteAmount[msg.sender] += msg.value.mul(100) */\n      dup3\n      dup3\n      sload\n      tag_20\n      swap2\n      swap1\n      tag_21\n      jump\t// in\n    tag_20:\n      swap3\n      pop\n      pop\n      dup2\n      swap1\n      sstore\n      pop\n        /* \"wwcc-contracts/contracts/wwccPool.sol\":13533:13542  msg.value */\n      callvalue\n        /* \"wwcc-contracts/contracts/wwccPool.sol\":13522:13529  lastBNB */\n      0x02\n      0x00\n        /* \"wwcc-contracts/contracts/wwccPool.sol\":13522:13542  lastBNB += msg.value */\n      dup3\n      dup3\n      sload\n      tag_22\n      swap2\n      swap1\n      tag_21\n      jump\t// in\n    tag_22:\n      swap3\n      pop\n      pop\n      dup2\n      swap1\n      sstore\n      pop\n        /* \"wwcc-contracts/contracts/wwccPool.sol\":13560:13591  Received(msg.sender, msg.value) */\n      0x88a5966d370b9919b20f3e2c13ff65706f196a4e32cc2c12bf57088f88525874\n        /* \"wwcc-contracts/contracts/wwccPool.sol\":13569:13579  msg.sender */\n      caller\n        /* \"wwcc-contracts/contracts/wwccPool.sol\":13581:13590  msg.value */\n      callvalue\n        /* \"wwcc-contracts/contracts/wwccPool.sol\":13560:13591  Received(msg.sender, msg.value) */\n      mload(0x40)\n      tag_23\n      swap3\n      swap2\n      swap1\n      tag_24\n      jump\t// in\n    tag_23:\n      mload(0x40)\n      dup1\n      swap2\n      sub\n      swap1\n      log1\n        /* \"wwcc-contracts/contracts/wwccPool.sol\":13429:13620  if(msg.sender != owner){... */\n      jump(tag_25)\n    tag_17:\n    tag_25:\n        /* \"wwcc-contracts/contracts/wwccPool.sol\":96:13627  contract WCPOOL {... */\n      stop\n    tag_2:\n      0x00\n      dup1\n      revert\n        /* \"wwcc-contracts/contracts/wwccPool.sol\":4869:5548  function Withdrawal(address toAddress,bytes32 poolKey) external onlyManager payable returns (bool){... */\n    tag_3:\n      tag_26\n      0x04\n      dup1\n      calldatasize\n      sub\n      dup2\n      add\n      swap1\n      tag_27\n      swap2\n      swap1\n      tag_28\n      jump\t// in\n    tag_27:\n      tag_29\n      jump\t// in\n    tag_26:\n      mload(0x40)\n      tag_30\n      swap2\n      swap1\n      tag_31\n      jump\t// in\n    tag_30:\n      mload(0x40)\n      dup1\n      swap2\n      sub\n      swap1\n      return\n        /* \"wwcc-contracts/contracts/wwccPool.sol\":10270:10514  function withdrawBNBInContract(address toAddress)external onlyManager payable returns(bool){... */\n    tag_4:\n      tag_32\n      0x04\n      dup1\n      calldatasize\n      sub\n      dup2\n      add\n      swap1\n      tag_33\n      swap2\n      swap1\n      tag_34\n      jump\t// in\n    tag_33:\n      tag_35\n      jump\t// in\n    tag_32:\n      mload(0x40)\n      tag_36\n      swap2\n      swap1\n      tag_31\n      jump\t// in\n    tag_36:\n      mload(0x40)\n      dup1\n      swap2\n      sub\n      swap1\n      return\n        /* \"wwcc-contracts/contracts/wwccPool.sol\":4304:4826  function Set_Basal(bytes32 poolKey,uint256 basal) external onlyManager  returns (bool){... */\n    tag_5:\n      callvalue\n      dup1\n      iszero\n      tag_37\n      jumpi\n      0x00\n      dup1\n      revert\n    tag_37:\n      pop\n      tag_38\n      0x04\n      dup1\n      calldatasize\n      sub\n      dup2\n      add\n      swap1\n      tag_39\n      swap2\n      swap1\n      tag_40\n      jump\t// in\n    tag_39:\n      tag_41\n      jump\t// in\n    tag_38:\n      mload(0x40)\n      tag_42\n      swap2\n      swap1\n      tag_31\n      jump\t// in\n    tag_42:\n      mload(0x40)\n      dup1\n      swap2\n      sub\n      swap1\n      return\n        /* \"wwcc-contracts/contracts/wwccPool.sol\":2011:2900  function Set_Pool(... */\n    tag_6:\n      callvalue\n      dup1\n      iszero\n      tag_43\n      jumpi\n      0x00\n      dup1\n      revert\n    tag_43:\n      pop\n      tag_44\n      0x04\n      dup1\n      calldatasize\n      sub\n      dup2\n      add\n      swap1\n      tag_45\n      swap2\n      swap1\n      tag_46\n      jump\t// in\n    tag_45:\n      tag_47\n      jump\t// in\n    tag_44:\n      mload(0x40)\n      tag_48\n      swap2\n      swap1\n      tag_49\n      jump\t// in\n    tag_48:\n      mload(0x40)\n      dup1\n      swap2\n      sub\n      swap1\n      return\n        /* \"wwcc-contracts/contracts/wwccPool.sol\":6484:6590  function CheckBasal() external onlyManager view  returns (uint256){... */\n    tag_7:\n      callvalue\n      dup1\n      iszero\n      tag_50\n      jumpi\n      0x00\n      dup1\n      revert\n    tag_50:\n      pop\n      tag_51\n      tag_52\n      jump\t// in\n    tag_51:\n      mload(0x40)\n      tag_53\n      swap2\n      swap1\n      tag_54\n      jump\t// in\n    tag_53:\n      mload(0x40)\n      dup1\n      swap2\n      sub\n      swap1\n      return\n        /* \"wwcc-contracts/contracts/wwccPool.sol\":6064:6422  function CheckExpect(bytes32 poolKey) external onlyManager view  returns (uint256){... */\n    tag_8:\n      callvalue\n      dup1\n      iszero\n      tag_55\n      jumpi\n      0x00\n      dup1\n      revert\n    tag_55:\n      pop\n      tag_56\n      0x04\n      dup1\n      calldatasize\n      sub\n      dup2\n      add\n      swap1\n      tag_57\n      swap2\n      swap1\n      tag_58\n      jump\t// in\n    tag_57:\n      tag_59\n      jump\t// in\n    tag_56:\n      mload(0x40)\n      tag_60\n      swap2\n      swap1\n      tag_54\n      jump\t// in\n    tag_60:\n      mload(0x40)\n      dup1\n      swap2\n      sub\n      swap1\n      return\n        /* \"wwcc-contracts/contracts/wwccPool.sol\":2923:4249  function Picking(address joiner,uint256 weight,bytes32 poolKey,uint256 homeScore,uint256 visitScore,uint256 kind) external returns(bool){... */\n    tag_9:\n      callvalue\n      dup1\n      iszero\n      tag_61\n      jumpi\n      0x00\n      dup1\n      revert\n    tag_61:\n      pop\n      tag_62\n      0x04\n      dup1\n      calldatasize\n      sub\n      dup2\n      add\n      swap1\n      tag_63\n      swap2\n      swap1\n      tag_64\n      jump\t// in\n    tag_63:\n      tag_65\n      jump\t// in\n    tag_62:\n      mload(0x40)\n      tag_66\n      swap2\n      swap1\n      tag_31\n      jump\t// in\n    tag_66:\n      mload(0x40)\n      dup1\n      swap2\n      sub\n      swap1\n      return\n        /* \"wwcc-contracts/contracts/wwccPool.sol\":6808:10265  function Award(bytes32 poolKey,uint256 homeScore,uint256 visitScore,uint256 result)  external onlyManager  payable returns(bool){... */\n    tag_10:\n      tag_67\n      0x04\n      dup1\n      calldatasize\n      sub\n      dup2\n      add\n      swap1\n      tag_68\n      swap2\n      swap1\n      tag_69\n      jump\t// in\n    tag_68:\n      tag_70\n      jump\t// in\n    tag_67:\n      mload(0x40)\n      tag_71\n      swap2\n      swap1\n      tag_31\n      jump\t// in\n    tag_71:\n      mload(0x40)\n      dup1\n      swap2\n      sub\n      swap1\n      return\n        /* \"wwcc-contracts/contracts/wwccPool.sol\":5609:5999  function voteWithdrawal(address joiner,uint256 amount) external onlyManager payable returns (bool){... */\n    tag_11:\n      tag_72\n      0x04\n      dup1\n      calldatasize\n      sub\n      dup2\n      add\n      swap1\n      tag_73\n      swap2\n      swap1\n      tag_74\n      jump\t// in\n    tag_73:\n      tag_75\n      jump\t// in\n    tag_72:\n      mload(0x40)\n      tag_76\n      swap2\n      swap1\n      tag_31\n      jump\t// in\n    tag_76:\n      mload(0x40)\n      dup1\n      swap2\n      sub\n      swap1\n      return\n        /* \"wwcc-contracts/contracts/wwccPool.sol\":6632:6737  function CheckVoteTickets() external view returns (uint256){... */\n    tag_12:\n      callvalue\n      dup1\n      iszero\n      tag_77\n      jumpi\n      0x00\n      dup1\n      revert\n    tag_77:\n      pop\n      tag_78\n      tag_79\n      jump\t// in\n    tag_78:\n      mload(0x40)\n      tag_80\n      swap2\n      swap1\n      tag_54\n      jump\t// in\n    tag_80:\n      mload(0x40)\n      dup1\n      swap2\n      sub\n      swap1\n      return\n        /* \"wwcc-contracts/contracts/wwccPool.sol\":10564:11212  function getPool(bytes32 poolKey) external view returns (string memory vs,string memory rounds,PoolViewInfo memory viewInfo){... */\n    tag_13:\n      callvalue\n      dup1\n      iszero\n      tag_81\n      jumpi\n      0x00\n      dup1\n      revert\n    tag_81:\n      pop\n      tag_82\n      0x04\n      dup1\n      calldatasize\n      sub\n      dup2\n      add\n      swap1\n      tag_83\n      swap2\n      swap1\n      tag_58\n      jump\t// in\n    tag_83:\n      tag_84\n      jump\t// in\n    tag_82:\n      mload(0x40)\n      tag_85\n      swap4\n      swap3\n      swap2\n      swap1\n      tag_86\n      jump\t// in\n    tag_85:\n      mload(0x40)\n      dup1\n      swap2\n      sub\n      swap1\n      return\n        /* \"wwcc-contracts/contracts/safemath.sol\":62:266  function mul(uint256 a, uint256 b) internal pure returns (uint256) {... */\n    tag_19:\n        /* \"wwcc-contracts/contracts/safemath.sol\":120:127  uint256 */\n      0x00\n        /* \"wwcc-contracts/contracts/safemath.sol\":148:149  0 */\n      dup1\n        /* \"wwcc-contracts/contracts/safemath.sol\":143:144  a */\n      dup4\n        /* \"wwcc-contracts/contracts/safemath.sol\":143:149  a == 0 */\n      eq\n        /* \"wwcc-contracts/contracts/safemath.sol\":139:184  if (a == 0) {... */\n      iszero\n      tag_88\n      jumpi\n        /* \"wwcc-contracts/contracts/safemath.sol\":172:173  0 */\n      0x00\n        /* \"wwcc-contracts/contracts/safemath.sol\":165:173  return 0 */\n      swap1\n      pop\n      jump(tag_87)\n        /* \"wwcc-contracts/contracts/safemath.sol\":139:184  if (a == 0) {... */\n    tag_88:\n        /* \"wwcc-contracts/contracts/safemath.sol\":195:204  uint256 c */\n      0x00\n        /* \"wwcc-contracts/contracts/safemath.sol\":211:212  b */\n      dup3\n        /* \"wwcc-contracts/contracts/safemath.sol\":207:208  a */\n      dup5\n        /* \"wwcc-contracts/contracts/safemath.sol\":207:212  a * b */\n      tag_89\n      swap2\n      swap1\n      tag_90\n      jump\t// in\n    tag_89:\n        /* \"wwcc-contracts/contracts/safemath.sol\":195:212  uint256 c = a * b */\n      swap1\n      pop\n        /* \"wwcc-contracts/contracts/safemath.sol\":239:240  b */\n      dup3\n        /* \"wwcc-contracts/contracts/safemath.sol\":234:235  a */\n      dup5\n        /* \"wwcc-contracts/contracts/safemath.sol\":230:231  c */\n      dup3\n        /* \"wwcc-contracts/contracts/safemath.sol\":230:235  c / a */\n      tag_91\n      swap2\n      swap1\n      tag_92\n      jump\t// in\n    tag_91:\n        /* \"wwcc-contracts/contracts/safemath.sol\":230:240  c / a == b */\n      eq\n        /* \"wwcc-contracts/contracts/safemath.sol\":222:241  require(c / a == b) */\n      tag_93\n      jumpi\n      0x00\n      dup1\n      revert\n    tag_93:\n        /* \"wwcc-contracts/contracts/safemath.sol\":258:259  c */\n      dup1\n        /* \"wwcc-contracts/contracts/safemath.sol\":251:259  return c */\n      swap2\n      pop\n      pop\n        /* \"wwcc-contracts/contracts/safemath.sol\":62:266  function mul(uint256 a, uint256 b) internal pure returns (uint256) {... */\n    tag_87:\n      swap3\n      swap2\n      pop\n      pop\n      jump\t// out\n        /* \"wwcc-contracts/contracts/wwccPool.sol\":4869:5548  function Withdrawal(address toAddress,bytes32 poolKey) external onlyManager payable returns (bool){... */\n    tag_29:\n        /* \"wwcc-contracts/contracts/wwccPool.sol\":4962:4966  bool */\n      0x00\n        /* \"wwcc-contracts/contracts/wwccPool.sol\":13262:13267  owner */\n      dup1\n      0x00\n      swap1\n      sload\n      swap1\n      0x0100\n      exp\n      swap1\n      div\n      0xffffffffffffffffffffffffffffffffffffffff\n      and\n        /* \"wwcc-contracts/contracts/wwccPool.sol\":13248:13267  msg.sender == owner */\n      0xffffffffffffffffffffffffffffffffffffffff\n      and\n        /* \"wwcc-contracts/contracts/wwccPool.sol\":13248:13258  msg.sender */\n      caller\n        /* \"wwcc-contracts/contracts/wwccPool.sol\":13248:13267  msg.sender == owner */\n      0xffffffffffffffffffffffffffffffffffffffff\n      and\n      eq\n        /* \"wwcc-contracts/contracts/wwccPool.sol\":13227:13318  require(... */\n      tag_95\n      jumpi\n      mload(0x40)\n      0x08c379a000000000000000000000000000000000000000000000000000000000\n      dup2\n      mstore\n      0x04\n      add\n      tag_96\n      swap1\n      tag_97\n      jump\t// in\n    tag_96:\n      mload(0x40)\n      dup1\n      swap2\n      sub\n      swap1\n      revert\n    tag_95:\n        /* \"wwcc-contracts/contracts/wwccPool.sol\":4984:5001  contains(poolKey) */\n      tag_99\n        /* \"wwcc-contracts/contracts/wwccPool.sol\":4993:5000  poolKey */\n      dup3\n        /* \"wwcc-contracts/contracts/wwccPool.sol\":4984:4992  contains */\n      tag_100\n        /* \"wwcc-contracts/contracts/wwccPool.sol\":4984:5001  contains(poolKey) */\n      jump\t// in\n    tag_99:\n        /* \"wwcc-contracts/contracts/wwccPool.sol\":4980:5518  if(!contains(poolKey)) { ... */\n      tag_101\n      jumpi\n        /* \"wwcc-contracts/contracts/wwccPool.sol\":5022:5046  revert(\"pool not exist\") */\n      mload(0x40)\n      0x08c379a000000000000000000000000000000000000000000000000000000000\n      dup2\n      mstore\n      0x04\n      add\n      tag_102\n      swap1\n      tag_103\n      jump\t// in\n    tag_102:\n      mload(0x40)\n      dup1\n      swap2\n      sub\n      swap1\n      revert\n        /* \"wwcc-contracts/contracts/wwccPool.sol\":4980:5518  if(!contains(poolKey)) { ... */\n    tag_101:\n        /* \"wwcc-contracts/contracts/wwccPool.sol\":5082:5100  WcPool memory pool */\n      0x00\n        /* \"wwcc-contracts/contracts/wwccPool.sol\":5103:5110  WcPools */\n      0x04\n        /* \"wwcc-contracts/contracts/wwccPool.sol\":5103:5119  WcPools[poolKey] */\n      0x00\n        /* \"wwcc-contracts/contracts/wwccPool.sol\":5111:5118  poolKey */\n      dup5\n        /* \"wwcc-contracts/contracts/wwccPool.sol\":5103:5119  WcPools[poolKey] */\n      dup2\n      mstore\n      0x20\n      add\n      swap1\n      dup2\n      mstore\n      0x20\n      add\n      0x00\n      keccak256\n        /* \"wwcc-contracts/contracts/wwccPool.sol\":5082:5119  WcPool memory pool = WcPools[poolKey] */\n      mload(0x40)\n      dup1\n      0x0160\n      add\n      0x40\n      mstore\n      swap1\n      dup2\n      0x00\n      dup3\n      add\n      dup1\n      sload\n      tag_105\n      swap1\n      tag_106\n      jump\t// in\n    tag_105:\n      dup1\n      0x1f\n      add\n      0x20\n      dup1\n      swap2\n      div\n      mul\n      0x20\n      add\n      mload(0x40)\n      swap1\n      dup2\n      add\n      0x40\n      mstore\n      dup1\n      swap3\n      swap2\n      swap1\n      dup2\n      dup2\n      mstore\n      0x20\n      add\n      dup3\n      dup1\n      sload\n      tag_107\n      swap1\n      tag_106\n      jump\t// in\n    tag_107:\n      dup1\n      iszero\n      tag_108\n      jumpi\n      dup1\n      0x1f\n      lt\n      tag_109\n      jumpi\n      0x0100\n      dup1\n      dup4\n      sload\n      div\n      mul\n      dup4\n      mstore\n      swap2\n      0x20\n      add\n      swap2\n      jump(tag_108)\n    tag_109:\n      dup3\n      add\n      swap2\n      swap1\n      0x00\n      mstore\n      keccak256(0x00, 0x20)\n      swap1\n    tag_110:\n      dup2\n      sload\n      dup2\n      mstore\n      swap1\n      0x01\n      add\n      swap1\n      0x20\n      add\n      dup1\n      dup4\n      gt\n      tag_110\n      jumpi\n      dup3\n      swap1\n      sub\n      0x1f\n      and\n      dup3\n      add\n      swap2\n    tag_108:\n      pop\n      pop\n      pop\n      pop\n      pop\n      dup2\n      mstore\n      0x20\n      add\n      0x01\n      dup3\n      add\n      dup1\n      sload\n      tag_111\n      swap1\n      tag_106\n      jump\t// in\n    tag_111:\n      dup1\n      0x1f\n      add\n      0x20\n      dup1\n      swap2\n      div\n      mul\n      0x20\n      add\n      mload(0x40)\n      swap1\n      dup2\n      add\n      0x40\n      mstore\n      dup1\n      swap3\n      swap2\n      swap1\n      dup2\n      dup2\n      mstore\n      0x20\n      add\n      dup3\n      dup1\n      sload\n      tag_112\n      swap1\n      tag_106\n      jump\t// in\n    tag_112:\n      dup1\n      iszero\n      tag_113\n      jumpi\n      dup1\n      0x1f\n      lt\n      tag_114\n      jumpi\n      0x0100\n      dup1\n      dup4\n      sload\n      div\n      mul\n      dup4\n      mstore\n      swap2\n      0x20\n      add\n      swap2\n      jump(tag_113)\n    tag_114:\n      dup3\n      add\n      swap2\n      swap1\n      0x00\n      mstore\n      keccak256(0x00, 0x20)\n      swap1\n    tag_115:\n      dup2\n      sload\n      dup2\n      mstore\n      swap1\n      0x01\n      add\n      swap1\n      0x20\n      add\n      dup1\n      dup4\n      gt\n      tag_115\n      jumpi\n      dup3\n      swap1\n      sub\n      0x1f\n      and\n      dup3\n      add\n      swap2\n    tag_113:\n      pop\n      pop\n      pop\n      pop\n      pop\n      dup2\n      mstore\n      0x20\n      add\n      0x02\n      dup3\n      add\n      dup1\n      sload\n      tag_116\n      swap1\n      tag_106\n      jump\t// in\n    tag_116:\n      dup1\n      0x1f\n      add\n      0x20\n      dup1\n      swap2\n      div\n      mul\n      0x20\n      add\n      mload(0x40)\n      swap1\n      dup2\n      add\n      0x40\n      mstore\n      dup1\n      swap3\n      swap2\n      swap1\n      dup2\n      dup2\n      mstore\n      0x20\n      add\n      dup3\n      dup1\n      sload\n      tag_117\n      swap1\n      tag_106\n      jump\t// in\n    tag_117:\n      dup1\n      iszero\n      tag_118\n      jumpi\n      dup1\n      0x1f\n      lt\n      tag_119\n      jumpi\n      0x0100\n      dup1\n      dup4\n      sload\n      div\n      mul\n      dup4\n      mstore\n      swap2\n      0x20\n      add\n      swap2\n      jump(tag_118)\n    tag_119:\n      dup3\n      add\n      swap2\n      swap1\n      0x00\n      mstore\n      keccak256(0x00, 0x20)\n      swap1\n    tag_120:\n      dup2\n      sload\n      dup2\n      mstore\n      swap1\n      0x01\n      add\n      swap1\n      0x20\n      add\n      dup1\n      dup4\n      gt\n      tag_120\n      jumpi\n      dup3\n      swap1\n      sub\n      0x1f\n      and\n      dup3\n      add\n      swap2\n    tag_118:\n      pop\n      pop\n      pop\n      pop\n      pop\n      dup2\n      mstore\n      0x20\n      add\n      0x03\n      dup3\n      add\n      sload\n      dup2\n      mstore\n      0x20\n      add\n      0x04\n      dup3\n      add\n      sload\n      dup2\n      mstore\n      0x20\n      add\n      0x05\n      dup3\n      add\n      sload\n      dup2\n      mstore\n      0x20\n      add\n      0x06\n      dup3\n      add\n      sload\n      dup2\n      mstore\n      0x20\n      add\n      0x07\n      dup3\n      add\n      sload\n      dup2\n      mstore\n      0x20\n      add\n      0x08\n      dup3\n      add\n      0x00\n      swap1\n      sload\n      swap1\n      0x0100\n      exp\n      swap1\n      div\n      0xff\n      and\n      iszero\n      iszero\n      iszero\n      iszero\n      dup2\n      mstore\n      0x20\n      add\n      0x08\n      dup3\n      add\n      0x01\n      swap1\n      sload\n      swap1\n      0x0100\n      exp\n      swap1\n      div\n      0xff\n      and\n      iszero\n      iszero\n      iszero\n      iszero\n      dup2\n      mstore\n      0x20\n      add\n      0x08\n      dup3\n      add\n      0x02\n      swap1\n      sload\n      swap1\n      0x0100\n      exp\n      swap1\n      div\n      0xff\n      and\n      iszero\n      iszero\n      iszero\n      iszero\n      dup2\n      mstore\n      pop\n      pop\n      swap1\n      pop\n        /* \"wwcc-contracts/contracts/wwccPool.sol\":5137:5151  uint256 expect */\n      0x00\n        /* \"wwcc-contracts/contracts/wwccPool.sol\":5154:5220  (pool.wPool+pool.lPool+pool.dPool+pool.sPool + pool.basal).div(10) */\n      tag_121\n        /* \"wwcc-contracts/contracts/wwccPool.sol\":5217:5219  10 */\n      0x0a\n        /* \"wwcc-contracts/contracts/wwccPool.sol\":5201:5205  pool */\n      dup4\n        /* \"wwcc-contracts/contracts/wwccPool.sol\":5201:5211  pool.basal */\n      0xe0\n      add\n      mload\n        /* \"wwcc-contracts/contracts/wwccPool.sol\":5188:5192  pool */\n      dup5\n        /* \"wwcc-contracts/contracts/wwccPool.sol\":5188:5198  pool.sPool */\n      0xc0\n      add\n      mload\n        /* \"wwcc-contracts/contracts/wwccPool.sol\":5177:5181  pool */\n      dup6\n        /* \"wwcc-contracts/contracts/wwccPool.sol\":5177:5187  pool.dPool */\n      0x80\n      add\n      mload\n        /* \"wwcc-contracts/contracts/wwccPool.sol\":5166:5170  pool */\n      dup7\n        /* \"wwcc-contracts/contracts/wwccPool.sol\":5166:5176  pool.lPool */\n      0xa0\n      add\n      mload\n        /* \"wwcc-contracts/contracts/wwccPool.sol\":5155:5159  pool */\n      dup8\n        /* \"wwcc-contracts/contracts/wwccPool.sol\":5155:5165  pool.wPool */\n      0x60\n      add\n      mload\n        /* \"wwcc-contracts/contracts/wwccPool.sol\":5155:5176  pool.wPool+pool.lPool */\n      tag_122\n      swap2\n      swap1\n      tag_21\n      jump\t// in\n    tag_122:\n        /* \"wwcc-contracts/contracts/wwccPool.sol\":5155:5187  pool.wPool+pool.lPool+pool.dPool */\n      tag_123\n      swap2\n      swap1\n      tag_21\n      jump\t// in\n    tag_123:\n        /* \"wwcc-contracts/contracts/wwccPool.sol\":5155:5198  pool.wPool+pool.lPool+pool.dPool+pool.sPool */\n      tag_124\n      swap2\n      swap1\n      tag_21\n      jump\t// in\n    tag_124:\n        /* \"wwcc-contracts/contracts/wwccPool.sol\":5155:5211  pool.wPool+pool.lPool+pool.dPool+pool.sPool + pool.basal */\n      tag_125\n      swap2\n      swap1\n      tag_21\n      jump\t// in\n    tag_125:\n        /* \"wwcc-contracts/contracts/wwccPool.sol\":5154:5216  (pool.wPool+pool.lPool+pool.dPool+pool.sPool + pool.basal).div */\n      tag_126\n      swap1\n        /* \"wwcc-contracts/contracts/wwccPool.sol\":5154:5220  (pool.wPool+pool.lPool+pool.dPool+pool.sPool + pool.basal).div(10) */\n      swap2\n      swap1\n      0xffffffff\n      and\n      jump\t// in\n    tag_121:\n        /* \"wwcc-contracts/contracts/wwccPool.sol\":5137:5220  uint256 expect = (pool.wPool+pool.lPool+pool.dPool+pool.sPool + pool.basal).div(10) */\n      swap1\n      pop\n        /* \"wwcc-contracts/contracts/wwccPool.sol\":5258:5262  true */\n      0x01\n        /* \"wwcc-contracts/contracts/wwccPool.sol\":5242:5246  pool */\n      dup3\n        /* \"wwcc-contracts/contracts/wwccPool.sol\":5242:5255  pool.finished */\n      0x0140\n      add\n        /* \"wwcc-contracts/contracts/wwccPool.sol\":5242:5262  pool.finished = true */\n      swap1\n      iszero\n      iszero\n      swap1\n      dup2\n      iszero\n      iszero\n      dup2\n      mstore\n      pop\n        /* \"wwcc-contracts/contracts/wwccPool.sol\":5238:5490  if (pool.finished = true){... */\n      iszero\n      tag_127\n      jumpi\n        /* \"wwcc-contracts/contracts/wwccPool.sol\":5285:5318  address payable toAddress_address */\n      0x00\n        /* \"wwcc-contracts/contracts/wwccPool.sol\":5329:5338  toAddress */\n      dup6\n        /* \"wwcc-contracts/contracts/wwccPool.sol\":5285:5339  address payable toAddress_address = payable(toAddress) */\n      swap1\n      pop\n        /* \"wwcc-contracts/contracts/wwccPool.sol\":5361:5378  toAddress_address */\n      dup1\n        /* \"wwcc-contracts/contracts/wwccPool.sol\":5361:5387  toAddress_address.transfer */\n      0xffffffffffffffffffffffffffffffffffffffff\n      and\n        /* \"wwcc-contracts/contracts/wwccPool.sol\":5361:5395  toAddress_address.transfer(expect) */\n      0x08fc\n        /* \"wwcc-contracts/contracts/wwccPool.sol\":5388:5394  expect */\n      dup4\n        /* \"wwcc-contracts/contracts/wwccPool.sol\":5361:5395  toAddress_address.transfer(expect) */\n      swap1\n      dup2\n      iszero\n      mul\n      swap1\n      mload(0x40)\n      0x00\n      mload(0x40)\n      dup1\n      dup4\n      sub\n      dup2\n      dup6\n      dup9\n      dup9\n      call\n      swap4\n      pop\n      pop\n      pop\n      pop\n      iszero\n      dup1\n      iszero\n      tag_129\n      jumpi\n      returndatasize\n      0x00\n      dup1\n      returndatacopy\n      revert(0x00, returndatasize)\n    tag_129:\n      pop\n        /* \"wwcc-contracts/contracts/wwccPool.sol\":5263:5414  {... */\n      pop\n        /* \"wwcc-contracts/contracts/wwccPool.sol\":5238:5490  if (pool.finished = true){... */\n      jump(tag_130)\n    tag_127:\n        /* \"wwcc-contracts/contracts/wwccPool.sol\":5440:5471  revert(\"pool has not finished\") */\n      mload(0x40)\n      0x08c379a000000000000000000000000000000000000000000000000000000000\n      dup2\n      mstore\n      0x04\n      add\n      tag_131\n      swap1\n      tag_132\n      jump\t// in\n    tag_131:\n      mload(0x40)\n      dup1\n      swap2\n      sub\n      swap1\n      revert\n        /* \"wwcc-contracts/contracts/wwccPool.sol\":5238:5490  if (pool.finished = true){... */\n    tag_130:\n        /* \"wwcc-contracts/contracts/wwccPool.sol\":5064:5518  {... */\n      pop\n      pop\n        /* \"wwcc-contracts/contracts/wwccPool.sol\":5537:5541  true */\n      0x01\n        /* \"wwcc-contracts/contracts/wwccPool.sol\":5530:5541  return true */\n      swap1\n      pop\n        /* \"wwcc-contracts/contracts/wwccPool.sol\":4869:5548  function Withdrawal(address toAddress,bytes32 poolKey) external onlyManager payable returns (bool){... */\n      swap3\n      swap2\n      pop\n      pop\n      jump\t// out\n        /* \"wwcc-contracts/contracts/wwccPool.sol\":10270:10514  function withdrawBNBInContract(address toAddress)external onlyManager payable returns(bool){... */\n    tag_35:\n        /* \"wwcc-contracts/contracts/wwccPool.sol\":10356:10360  bool */\n      0x00\n        /* \"wwcc-contracts/contracts/wwccPool.sol\":13262:13267  owner */\n      dup1\n      0x00\n      swap1\n      sload\n      swap1\n      0x0100\n      exp\n      swap1\n      div\n      0xffffffffffffffffffffffffffffffffffffffff\n      and\n        /* \"wwcc-contracts/contracts/wwccPool.sol\":13248:13267  msg.sender == owner */\n      0xffffffffffffffffffffffffffffffffffffffff\n      and\n        /* \"wwcc-contracts/contracts/wwccPool.sol\":13248:13258  msg.sender */\n      caller\n        /* \"wwcc-contracts/contracts/wwccPool.sol\":13248:13267  msg.sender == owner */\n      0xffffffffffffffffffffffffffffffffffffffff\n      and\n      eq\n        /* \"wwcc-contracts/contracts/wwccPool.sol\":13227:13318  require(... */\n      tag_134\n      jumpi\n      mload(0x40)\n      0x08c379a000000000000000000000000000000000000000000000000000000000\n      dup2\n      mstore\n      0x04\n      add\n      tag_135\n      swap1\n      tag_97\n      jump\t// in\n    tag_135:\n      mload(0x40)\n      dup1\n      swap2\n      sub\n      swap1\n      revert\n    tag_134:\n        /* \"wwcc-contracts/contracts/wwccPool.sol\":10375:10408  address payable toAddress_address */\n      0x00\n        /* \"wwcc-contracts/contracts/wwccPool.sol\":10419:10428  toAddress */\n      dup3\n        /* \"wwcc-contracts/contracts/wwccPool.sol\":10375:10429  address payable toAddress_address = payable(toAddress) */\n      swap1\n      pop\n        /* \"wwcc-contracts/contracts/wwccPool.sol\":10443:10460  toAddress_address */\n      dup1\n        /* \"wwcc-contracts/contracts/wwccPool.sol\":10443:10469  toAddress_address.transfer */\n      0xffffffffffffffffffffffffffffffffffffffff\n      and\n        /* \"wwcc-contracts/contracts/wwccPool.sol\":10443:10482  toAddress_address.transfer(lastBNB - 1) */\n      0x08fc\n        /* \"wwcc-contracts/contracts/wwccPool.sol\":10480:10481  1 */\n      0x01\n        /* \"wwcc-contracts/contracts/wwccPool.sol\":10470:10477  lastBNB */\n      sload(0x02)\n        /* \"wwcc-contracts/contracts/wwccPool.sol\":10470:10481  lastBNB - 1 */\n      tag_137\n      swap2\n      swap1\n      tag_138\n      jump\t// in\n    tag_137:\n        /* \"wwcc-contracts/contracts/wwccPool.sol\":10443:10482  toAddress_address.transfer(lastBNB - 1) */\n      swap1\n      dup2\n      iszero\n      mul\n      swap1\n      mload(0x40)\n      0x00\n      mload(0x40)\n      dup1\n      dup4\n      sub\n      dup2\n      dup6\n      dup9\n      dup9\n      call\n      swap4\n      pop\n      pop\n      pop\n      pop\n      iszero\n      dup1\n      iszero\n      tag_140\n      jumpi\n      returndatasize\n      0x00\n      dup1\n      returndatacopy\n      revert(0x00, returndatasize)\n    tag_140:\n      pop\n        /* \"wwcc-contracts/contracts/wwccPool.sol\":10503:10507  true */\n      0x01\n        /* \"wwcc-contracts/contracts/wwccPool.sol\":10496:10507  return true */\n      swap2\n      pop\n      pop\n        /* \"wwcc-contracts/contracts/wwccPool.sol\":10270:10514  function withdrawBNBInContract(address toAddress)external onlyManager payable returns(bool){... */\n      swap2\n      swap1\n      pop\n      jump\t// out\n        /* \"wwcc-contracts/contracts/wwccPool.sol\":4304:4826  function Set_Basal(bytes32 poolKey,uint256 basal) external onlyManager  returns (bool){... */\n    tag_41:\n        /* \"wwcc-contracts/contracts/wwccPool.sol\":4385:4389  bool */\n      0x00\n        /* \"wwcc-contracts/contracts/wwccPool.sol\":13262:13267  owner */\n      dup1\n      0x00\n      swap1\n      sload\n      swap1\n      0x0100\n      exp\n      swap1\n      div\n      0xffffffffffffffffffffffffffffffffffffffff\n      and\n        /* \"wwcc-contracts/contracts/wwccPool.sol\":13248:13267  msg.sender == owner */\n      0xffffffffffffffffffffffffffffffffffffffff\n      and\n        /* \"wwcc-contracts/contracts/wwccPool.sol\":13248:13258  msg.sender */\n      caller\n        /* \"wwcc-contracts/contracts/wwccPool.sol\":13248:13267  msg.sender == owner */\n      0xffffffffffffffffffffffffffffffffffffffff\n      and\n      eq\n        /* \"wwcc-contracts/contracts/wwccPool.sol\":13227:13318  require(... */\n      tag_142\n      jumpi\n      mload(0x40)\n      0x08c379a000000000000000000000000000000000000000000000000000000000\n      dup2\n      mstore\n      0x04\n      add\n      tag_143\n      swap1\n      tag_97\n      jump\t// in\n    tag_143:\n      mload(0x40)\n      dup1\n      swap2\n      sub\n      swap1\n      revert\n    tag_142:\n        /* \"wwcc-contracts/contracts/wwccPool.sol\":4404:4421  contains(poolKey) */\n      tag_145\n        /* \"wwcc-contracts/contracts/wwccPool.sol\":4413:4420  poolKey */\n      dup4\n        /* \"wwcc-contracts/contracts/wwccPool.sol\":4404:4412  contains */\n      tag_100\n        /* \"wwcc-contracts/contracts/wwccPool.sol\":4404:4421  contains(poolKey) */\n      jump\t// in\n    tag_145:\n        /* \"wwcc-contracts/contracts/wwccPool.sol\":4400:4820  if(!contains(poolKey)) { ... */\n      tag_146\n      jumpi\n        /* \"wwcc-contracts/contracts/wwccPool.sol\":4438:4462  revert(\"pool not exist\") */\n      mload(0x40)\n      0x08c379a000000000000000000000000000000000000000000000000000000000\n      dup2\n      mstore\n      0x04\n      add\n      tag_147\n      swap1\n      tag_103\n      jump\t// in\n    tag_147:\n      mload(0x40)\n      dup1\n      swap2\n      sub\n      swap1\n      revert\n        /* \"wwcc-contracts/contracts/wwccPool.sol\":4400:4820  if(!contains(poolKey)) { ... */\n    tag_146:\n        /* \"wwcc-contracts/contracts/wwccPool.sol\":4490:4508  WcPool memory pool */\n      0x00\n        /* \"wwcc-contracts/contracts/wwccPool.sol\":4511:4518  WcPools */\n      0x04\n        /* \"wwcc-contracts/contracts/wwccPool.sol\":4511:4527  WcPools[poolKey] */\n      0x00\n        /* \"wwcc-contracts/contracts/wwccPool.sol\":4519:4526  poolKey */\n      dup6\n        /* \"wwcc-contracts/contracts/wwccPool.sol\":4511:4527  WcPools[poolKey] */\n      dup2\n      mstore\n      0x20\n      add\n      swap1\n      dup2\n      mstore\n      0x20\n      add\n      0x00\n      keccak256\n        /* \"wwcc-contracts/contracts/wwccPool.sol\":4490:4527  WcPool memory pool = WcPools[poolKey] */\n      mload(0x40)\n      dup1\n      0x0160\n      add\n      0x40\n      mstore\n      swap1\n      dup2\n      0x00\n      dup3\n      add\n      dup1\n      sload\n      tag_149\n      swap1\n      tag_106\n      jump\t// in\n    tag_149:\n      dup1\n      0x1f\n      add\n      0x20\n      dup1\n      swap2\n      div\n      mul\n      0x20\n      add\n      mload(0x40)\n      swap1\n      dup2\n      add\n      0x40\n      mstore\n      dup1\n      swap3\n      swap2\n      swap1\n      dup2\n      dup2\n      mstore\n      0x20\n      add\n      dup3\n      dup1\n      sload\n      tag_150\n      swap1\n      tag_106\n      jump\t// in\n    tag_150:\n      dup1\n      iszero\n      tag_151\n      jumpi\n      dup1\n      0x1f\n      lt\n      tag_152\n      jumpi\n      0x0100\n      dup1\n      dup4\n      sload\n      div\n      mul\n      dup4\n      mstore\n      swap2\n      0x20\n      add\n      swap2\n      jump(tag_151)\n    tag_152:\n      dup3\n      add\n      swap2\n      swap1\n      0x00\n      mstore\n      keccak256(0x00, 0x20)\n      swap1\n    tag_153:\n      dup2\n      sload\n      dup2\n      mstore\n      swap1\n      0x01\n      add\n      swap1\n      0x20\n      add\n      dup1\n      dup4\n      gt\n      tag_153\n      jumpi\n      dup3\n      swap1\n      sub\n      0x1f\n      and\n      dup3\n      add\n      swap2\n    tag_151:\n      pop\n      pop\n      pop\n      pop\n      pop\n      dup2\n      mstore\n      0x20\n      add\n      0x01\n      dup3\n      add\n      dup1\n      sload\n      tag_154\n      swap1\n      tag_106\n      jump\t// in\n    tag_154:\n      dup1\n      0x1f\n      add\n      0x20\n      dup1\n      swap2\n      div\n      mul\n      0x20\n      add\n      mload(0x40)\n      swap1\n      dup2\n      add\n      0x40\n      mstore\n      dup1\n      swap3\n      swap2\n      swap1\n      dup2\n      dup2\n      mstore\n      0x20\n      add\n      dup3\n      dup1\n      sload\n      tag_155\n      swap1\n      tag_106\n      jump\t// in\n    tag_155:\n      dup1\n      iszero\n      tag_156\n      jumpi\n      dup1\n      0x1f\n      lt\n      tag_157\n      jumpi\n      0x0100\n      dup1\n      dup4\n      sload\n      div\n      mul\n      dup4\n      mstore\n      swap2\n      0x20\n      add\n      swap2\n      jump(tag_156)\n    tag_157:\n      dup3\n      add\n      swap2\n      swap1\n      0x00\n      mstore\n      keccak256(0x00, 0x20)\n      swap1\n    tag_158:\n      dup2\n      sload\n      dup2\n      mstore\n      swap1\n      0x01\n      add\n      swap1\n      0x20\n      add\n      dup1\n      dup4\n      gt\n      tag_158\n      jumpi\n      dup3\n      swap1\n      sub\n      0x1f\n      and\n      dup3\n      add\n      swap2\n    tag_156:\n      pop\n      pop\n      pop\n      pop\n      pop\n      dup2\n      mstore\n      0x20\n      add\n      0x02\n      dup3\n      add\n      dup1\n      sload\n      tag_159\n      swap1\n      tag_106\n      jump\t// in\n    tag_159:\n      dup1\n      0x1f\n      add\n      0x20\n      dup1\n      swap2\n      div\n      mul\n      0x20\n      add\n      mload(0x40)\n      swap1\n      dup2\n      add\n      0x40\n      mstore\n      dup1\n      swap3\n      swap2\n      swap1\n      dup2\n      dup2\n      mstore\n      0x20\n      add\n      dup3\n      dup1\n      sload\n      tag_160\n      swap1\n      tag_106\n      jump\t// in\n    tag_160:\n      dup1\n      iszero\n      tag_161\n      jumpi\n      dup1\n      0x1f\n      lt\n      tag_162\n      jumpi\n      0x0100\n      dup1\n      dup4\n      sload\n      div\n      mul\n      dup4\n      mstore\n      swap2\n      0x20\n      add\n      swap2\n      jump(tag_161)\n    tag_162:\n      dup3\n      add\n      swap2\n      swap1\n      0x00\n      mstore\n      keccak256(0x00, 0x20)\n      swap1\n    tag_163:\n      dup2\n      sload\n      dup2\n      mstore\n      swap1\n      0x01\n      add\n      swap1\n      0x20\n      add\n      dup1\n      dup4\n      gt\n      tag_163\n      jumpi\n      dup3\n      swap1\n      sub\n      0x1f\n      and\n      dup3\n      add\n      swap2\n    tag_161:\n      pop\n      pop\n      pop\n      pop\n      pop\n      dup2\n      mstore\n      0x20\n      add\n      0x03\n      dup3\n      add\n      sload\n      dup2\n      mstore\n      0x20\n      add\n      0x04\n      dup3\n      add\n      sload\n      dup2\n      mstore\n      0x20\n      add\n      0x05\n      dup3\n      add\n      sload\n      dup2\n      mstore\n      0x20\n      add\n      0x06\n      dup3\n      add\n      sload\n      dup2\n      mstore\n      0x20\n      add\n      0x07\n      dup3\n      add\n      sload\n      dup2\n      mstore\n      0x20\n      add\n      0x08\n      dup3\n      add\n      0x00\n      swap1\n      sload\n      swap1\n      0x0100\n      exp\n      swap1\n      div\n      0xff\n      and\n      iszero\n      iszero\n      iszero\n      iszero\n      dup2\n      mstore\n      0x20\n      add\n      0x08\n      dup3\n      add\n      0x01\n      swap1\n      sload\n      swap1\n      0x0100\n      exp\n      swap1\n      div\n      0xff\n      and\n      iszero\n      iszero\n      iszero\n      iszero\n      dup2\n      mstore\n      0x20\n      add\n      0x08\n      dup3\n      add\n      0x02\n      swap1\n      sload\n      swap1\n      0x0100\n      exp\n      swap1\n      div\n      0xff\n      and\n      iszero\n      iszero\n      iszero\n      iszero\n      dup2\n      mstore\n      pop\n      pop\n      swap1\n      pop\n        /* \"wwcc-contracts/contracts/wwccPool.sol\":4557:4558  0 */\n      0x00\n        /* \"wwcc-contracts/contracts/wwccPool.sol\":4544:4548  pool */\n      dup2\n        /* \"wwcc-contracts/contracts/wwccPool.sol\":4544:4554  pool.basal */\n      0xe0\n      add\n      mload\n        /* \"wwcc-contracts/contracts/wwccPool.sol\":4544:4558  pool.basal > 0 */\n      gt\n        /* \"wwcc-contracts/contracts/wwccPool.sol\":4540:4623  if (pool.basal > 0){... */\n      iszero\n      tag_164\n      jumpi\n        /* \"wwcc-contracts/contracts/wwccPool.sol\":4576:4609  revert(\"pool basal has been set\") */\n      mload(0x40)\n      0x08c379a000000000000000000000000000000000000000000000000000000000\n      dup2\n      mstore\n      0x04\n      add\n      tag_165\n      swap1\n      tag_166\n      jump\t// in\n    tag_165:\n      mload(0x40)\n      dup1\n      swap2\n      sub\n      swap1\n      revert\n        /* \"wwcc-contracts/contracts/wwccPool.sol\":4540:4623  if (pool.basal > 0){... */\n    tag_164:\n        /* \"wwcc-contracts/contracts/wwccPool.sol\":4655:4660  basal */\n      dup3\n        /* \"wwcc-contracts/contracts/wwccPool.sol\":4639:4652  nextBasalLast */\n      sload(0x01)\n        /* \"wwcc-contracts/contracts/wwccPool.sol\":4639:4660  nextBasalLast > basal */\n      gt\n        /* \"wwcc-contracts/contracts/wwccPool.sol\":4635:4718  if (nextBasalLast > basal){... */\n      iszero\n      tag_167\n      jumpi\n        /* \"wwcc-contracts/contracts/wwccPool.sol\":4678:4704  revert(\"not enough basal\") */\n      mload(0x40)\n      0x08c379a000000000000000000000000000000000000000000000000000000000\n      dup2\n      mstore\n      0x04\n      add\n      tag_168\n      swap1\n      tag_169\n      jump\t// in\n    tag_168:\n      mload(0x40)\n      dup1\n      swap2\n      sub\n      swap1\n      revert\n        /* \"wwcc-contracts/contracts/wwccPool.sol\":4635:4718  if (nextBasalLast > basal){... */\n    tag_167:\n        /* \"wwcc-contracts/contracts/wwccPool.sol\":4744:4749  basal */\n      dup3\n        /* \"wwcc-contracts/contracts/wwccPool.sol\":4730:4734  pool */\n      dup2\n        /* \"wwcc-contracts/contracts/wwccPool.sol\":4730:4740  pool.basal */\n      0xe0\n      add\n        /* \"wwcc-contracts/contracts/wwccPool.sol\":4730:4749  pool.basal += basal */\n      dup2\n      dup2\n      mload\n      tag_170\n      swap2\n      swap1\n      tag_21\n      jump\t// in\n    tag_170:\n      swap2\n      pop\n      dup2\n      dup2\n      mstore\n      pop\n      pop\n        /* \"wwcc-contracts/contracts/wwccPool.sol\":4780:4785  basal */\n      dup3\n        /* \"wwcc-contracts/contracts/wwccPool.sol\":4762:4775  nextBasalLast */\n      0x01\n      0x00\n        /* \"wwcc-contracts/contracts/wwccPool.sol\":4762:4785  nextBasalLast -=  basal */\n      dup3\n      dup3\n      sload\n      tag_171\n      swap2\n      swap1\n      tag_138\n      jump\t// in\n    tag_171:\n      swap3\n      pop\n      pop\n      dup2\n      swap1\n      sstore\n      pop\n        /* \"wwcc-contracts/contracts/wwccPool.sol\":4805:4809  true */\n      0x01\n        /* \"wwcc-contracts/contracts/wwccPool.sol\":4798:4809  return true */\n      swap2\n      pop\n      pop\n        /* \"wwcc-contracts/contracts/wwccPool.sol\":4304:4826  function Set_Basal(bytes32 poolKey,uint256 basal) external onlyManager  returns (bool){... */\n      swap3\n      swap2\n      pop\n      pop\n      jump\t// out\n        /* \"wwcc-contracts/contracts/wwccPool.sol\":2011:2900  function Set_Pool(... */\n    tag_47:\n        /* \"wwcc-contracts/contracts/wwccPool.sol\":2158:2165  bytes32 */\n      0x00\n        /* \"wwcc-contracts/contracts/wwccPool.sol\":13262:13267  owner */\n      dup1\n      0x00\n      swap1\n      sload\n      swap1\n      0x0100\n      exp\n      swap1\n      div\n      0xffffffffffffffffffffffffffffffffffffffff\n      and\n        /* \"wwcc-contracts/contracts/wwccPool.sol\":13248:13267  msg.sender == owner */\n      0xffffffffffffffffffffffffffffffffffffffff\n      and\n        /* \"wwcc-contracts/contracts/wwccPool.sol\":13248:13258  msg.sender */\n      caller\n        /* \"wwcc-contracts/contracts/wwccPool.sol\":13248:13267  msg.sender == owner */\n      0xffffffffffffffffffffffffffffffffffffffff\n      and\n      eq\n        /* \"wwcc-contracts/contracts/wwccPool.sol\":13227:13318  require(... */\n      tag_173\n      jumpi\n      mload(0x40)\n      0x08c379a000000000000000000000000000000000000000000000000000000000\n      dup2\n      mstore\n      0x04\n      add\n      tag_174\n      swap1\n      tag_97\n      jump\t// in\n    tag_174:\n      mload(0x40)\n      dup1\n      swap2\n      sub\n      swap1\n      revert\n    tag_173:\n        /* \"wwcc-contracts/contracts/wwccPool.sol\":2176:2192  string memory s1 */\n      0x00\n        /* \"wwcc-contracts/contracts/wwccPool.sol\":2195:2216  strConcat(home,visit) */\n      tag_176\n        /* \"wwcc-contracts/contracts/wwccPool.sol\":2205:2209  home */\n      dup7\n        /* \"wwcc-contracts/contracts/wwccPool.sol\":2210:2215  visit */\n      dup7\n        /* \"wwcc-contracts/contracts/wwccPool.sol\":2195:2204  strConcat */\n      tag_177\n        /* \"wwcc-contracts/contracts/wwccPool.sol\":2195:2216  strConcat(home,visit) */\n      jump\t// in\n    tag_176:\n        /* \"wwcc-contracts/contracts/wwccPool.sol\":2176:2216  string memory s1 = strConcat(home,visit) */\n      swap1\n      pop\n        /* \"wwcc-contracts/contracts/wwccPool.sol\":2225:2241  string memory s2 */\n      0x00\n        /* \"wwcc-contracts/contracts/wwccPool.sol\":2244:2264  strConcat(s1,rounds) */\n      tag_178\n        /* \"wwcc-contracts/contracts/wwccPool.sol\":2254:2256  s1 */\n      dup3\n        /* \"wwcc-contracts/contracts/wwccPool.sol\":2257:2263  rounds */\n      dup7\n        /* \"wwcc-contracts/contracts/wwccPool.sol\":2244:2253  strConcat */\n      tag_177\n        /* \"wwcc-contracts/contracts/wwccPool.sol\":2244:2264  strConcat(s1,rounds) */\n      jump\t// in\n    tag_178:\n        /* \"wwcc-contracts/contracts/wwccPool.sol\":2225:2264  string memory s2 = strConcat(s1,rounds) */\n      swap1\n      pop\n        /* \"wwcc-contracts/contracts/wwccPool.sol\":2273:2288  bytes32 poolKey */\n      0x00\n        /* \"wwcc-contracts/contracts/wwccPool.sol\":2318:2320  s2 */\n      dup2\n        /* \"wwcc-contracts/contracts/wwccPool.sol\":2301:2321  abi.encodePacked(s2) */\n      add(0x20, mload(0x40))\n      tag_179\n      swap2\n      swap1\n      tag_180\n      jump\t// in\n    tag_179:\n      mload(0x40)\n      0x20\n      dup2\n      dup4\n      sub\n      sub\n      dup2\n      mstore\n      swap1\n      0x40\n      mstore\n        /* \"wwcc-contracts/contracts/wwccPool.sol\":2291:2322  keccak256(abi.encodePacked(s2)) */\n      dup1\n      mload\n      swap1\n      0x20\n      add\n      keccak256\n        /* \"wwcc-contracts/contracts/wwccPool.sol\":2273:2322  bytes32 poolKey = keccak256(abi.encodePacked(s2)) */\n      swap1\n      pop\n        /* \"wwcc-contracts/contracts/wwccPool.sol\":2334:2351  contains(poolKey) */\n      tag_181\n        /* \"wwcc-contracts/contracts/wwccPool.sol\":2343:2350  poolKey */\n      dup2\n        /* \"wwcc-contracts/contracts/wwccPool.sol\":2334:2342  contains */\n      tag_100\n        /* \"wwcc-contracts/contracts/wwccPool.sol\":2334:2351  contains(poolKey) */\n      jump\t// in\n    tag_181:\n        /* \"wwcc-contracts/contracts/wwccPool.sol\":2331:2871  if(contains(poolKey)) { ... */\n      iszero\n      tag_182\n      jumpi\n        /* \"wwcc-contracts/contracts/wwccPool.sol\":2368:2388  revert(\"pair exist\") */\n      mload(0x40)\n      0x08c379a000000000000000000000000000000000000000000000000000000000\n      dup2\n      mstore\n      0x04\n      add\n      tag_183\n      swap1\n      tag_184\n      jump\t// in\n    tag_183:\n      mload(0x40)\n      dup1\n      swap2\n      sub\n      swap1\n      revert\n        /* \"wwcc-contracts/contracts/wwccPool.sol\":2331:2871  if(contains(poolKey)) { ... */\n    tag_182:\n        /* \"wwcc-contracts/contracts/wwccPool.sol\":2439:2443  true */\n      0x01\n        /* \"wwcc-contracts/contracts/wwccPool.sol\":2415:2422  WcPools */\n      0x04\n        /* \"wwcc-contracts/contracts/wwccPool.sol\":2415:2431  WcPools[poolKey] */\n      0x00\n        /* \"wwcc-contracts/contracts/wwccPool.sol\":2423:2430  poolKey */\n      dup4\n        /* \"wwcc-contracts/contracts/wwccPool.sol\":2415:2431  WcPools[poolKey] */\n      dup2\n      mstore\n      0x20\n      add\n      swap1\n      dup2\n      mstore\n      0x20\n      add\n      0x00\n      keccak256\n        /* \"wwcc-contracts/contracts/wwccPool.sol\":2415:2436  WcPools[poolKey].used */\n      0x08\n      add\n      0x01\n        /* \"wwcc-contracts/contracts/wwccPool.sol\":2415:2443  WcPools[poolKey].used = true */\n      0x0100\n      exp\n      dup2\n      sload\n      dup2\n      0xff\n      mul\n      not\n      and\n      swap1\n      dup4\n      iszero\n      iszero\n      mul\n      or\n      swap1\n      sstore\n      pop\n        /* \"wwcc-contracts/contracts/wwccPool.sol\":2480:2484  home */\n      dup8\n        /* \"wwcc-contracts/contracts/wwccPool.sol\":2456:2463  WcPools */\n      0x04\n        /* \"wwcc-contracts/contracts/wwccPool.sol\":2456:2472  WcPools[poolKey] */\n      0x00\n        /* \"wwcc-contracts/contracts/wwccPool.sol\":2464:2471  poolKey */\n      dup4\n        /* \"wwcc-contracts/contracts/wwccPool.sol\":2456:2472  WcPools[poolKey] */\n      dup2\n      mstore\n      0x20\n      add\n      swap1\n      dup2\n      mstore\n      0x20\n      add\n      0x00\n      keccak256\n        /* \"wwcc-contracts/contracts/wwccPool.sol\":2456:2477  WcPools[poolKey].home */\n      0x00\n      add\n        /* \"wwcc-contracts/contracts/wwccPool.sol\":2456:2484  WcPools[poolKey].home = home */\n      swap1\n      dup1\n      mload\n      swap1\n      0x20\n      add\n      swap1\n      tag_186\n      swap3\n      swap2\n      swap1\n      tag_187\n      jump\t// in\n    tag_186:\n      pop\n        /* \"wwcc-contracts/contracts/wwccPool.sol\":2522:2527  visit */\n      dup7\n        /* \"wwcc-contracts/contracts/wwccPool.sol\":2497:2504  WcPools */\n      0x04\n        /* \"wwcc-contracts/contracts/wwccPool.sol\":2497:2513  WcPools[poolKey] */\n      0x00\n        /* \"wwcc-contracts/contracts/wwccPool.sol\":2505:2512  poolKey */\n      dup4\n        /* \"wwcc-contracts/contracts/wwccPool.sol\":2497:2513  WcPools[poolKey] */\n      dup2\n      mstore\n      0x20\n      add\n      swap1\n      dup2\n      mstore\n      0x20\n      add\n      0x00\n      keccak256\n        /* \"wwcc-contracts/contracts/wwccPool.sol\":2497:2519  WcPools[poolKey].visit */\n      0x01\n      add\n        /* \"wwcc-contracts/contracts/wwccPool.sol\":2497:2527  WcPools[poolKey].visit = visit */\n      swap1\n      dup1\n      mload\n      swap1\n      0x20\n      add\n      swap1\n      tag_188\n      swap3\n      swap2\n      swap1\n      tag_187\n      jump\t// in\n    tag_188:\n      pop\n        /* \"wwcc-contracts/contracts/wwccPool.sol\":2566:2572  rounds */\n      dup6\n        /* \"wwcc-contracts/contracts/wwccPool.sol\":2540:2547  WcPools */\n      0x04\n        /* \"wwcc-contracts/contracts/wwccPool.sol\":2540:2556  WcPools[poolKey] */\n      0x00\n        /* \"wwcc-contracts/contracts/wwccPool.sol\":2548:2555  poolKey */\n      dup4\n        /* \"wwcc-contracts/contracts/wwccPool.sol\":2540:2556  WcPools[poolKey] */\n      dup2\n      mstore\n      0x20\n      add\n      swap1\n      dup2\n      mstore\n      0x20\n      add\n      0x00\n      keccak256\n        /* \"wwcc-contracts/contracts/wwccPool.sol\":2540:2563  WcPools[poolKey].rounds */\n      0x02\n      add\n        /* \"wwcc-contracts/contracts/wwccPool.sol\":2540:2572  WcPools[poolKey].rounds = rounds */\n      swap1\n      dup1\n      mload\n      swap1\n      0x20\n      add\n      swap1\n      tag_189\n      swap3\n      swap2\n      swap1\n      tag_187\n      jump\t// in\n    tag_189:\n      pop\n        /* \"wwcc-contracts/contracts/wwccPool.sol\":2610:2611  0 */\n      0x00\n        /* \"wwcc-contracts/contracts/wwccPool.sol\":2585:2592  WcPools */\n      0x04\n        /* \"wwcc-contracts/contracts/wwccPool.sol\":2585:2601  WcPools[poolKey] */\n      0x00\n        /* \"wwcc-contracts/contracts/wwccPool.sol\":2593:2600  poolKey */\n      dup4\n        /* \"wwcc-contracts/contracts/wwccPool.sol\":2585:2601  WcPools[poolKey] */\n      dup2\n      mstore\n      0x20\n      add\n      swap1\n      dup2\n      mstore\n      0x20\n      add\n      0x00\n      keccak256\n        /* \"wwcc-contracts/contracts/wwccPool.sol\":2585:2607  WcPools[poolKey].wPool */\n      0x03\n      add\n        /* \"wwcc-contracts/contracts/wwccPool.sol\":2585:2611  WcPools[poolKey].wPool = 0 */\n      dup2\n      swap1\n      sstore\n      pop\n        /* \"wwcc-contracts/contracts/wwccPool.sol\":2649:2650  0 */\n      0x00\n        /* \"wwcc-contracts/contracts/wwccPool.sol\":2624:2631  WcPools */\n      0x04\n        /* \"wwcc-contracts/contracts/wwccPool.sol\":2624:2640  WcPools[poolKey] */\n      0x00\n        /* \"wwcc-contracts/contracts/wwccPool.sol\":2632:2639  poolKey */\n      dup4\n        /* \"wwcc-contracts/contracts/wwccPool.sol\":2624:2640  WcPools[poolKey] */\n      dup2\n      mstore\n      0x20\n      add\n      swap1\n      dup2\n      mstore\n      0x20\n      add\n      0x00\n      keccak256\n        /* \"wwcc-contracts/contracts/wwccPool.sol\":2624:2646  WcPools[poolKey].dPool */\n      0x04\n      add\n        /* \"wwcc-contracts/contracts/wwccPool.sol\":2624:2650  WcPools[poolKey].dPool = 0 */\n      dup2\n      swap1\n      sstore\n      pop\n        /* \"wwcc-contracts/contracts/wwccPool.sol\":2688:2689  0 */\n      0x00\n        /* \"wwcc-contracts/contracts/wwccPool.sol\":2663:2670  WcPools */\n      0x04\n        /* \"wwcc-contracts/contracts/wwccPool.sol\":2663:2679  WcPools[poolKey] */\n      0x00\n        /* \"wwcc-contracts/contracts/wwccPool.sol\":2671:2678  poolKey */\n      dup4\n        /* \"wwcc-contracts/contracts/wwccPool.sol\":2663:2679  WcPools[poolKey] */\n      dup2\n      mstore\n      0x20\n      add\n      swap1\n      dup2\n      mstore\n      0x20\n      add\n      0x00\n      keccak256\n        /* \"wwcc-contracts/contracts/wwccPool.sol\":2663:2685  WcPools[poolKey].lPool */\n      0x05\n      add\n        /* \"wwcc-contracts/contracts/wwccPool.sol\":2663:2689  WcPools[poolKey].lPool = 0 */\n      dup2\n      swap1\n      sstore\n      pop\n        /* \"wwcc-contracts/contracts/wwccPool.sol\":2727:2728  0 */\n      0x00\n        /* \"wwcc-contracts/contracts/wwccPool.sol\":2702:2709  WcPools */\n      0x04\n        /* \"wwcc-contracts/contracts/wwccPool.sol\":2702:2718  WcPools[poolKey] */\n      0x00\n        /* \"wwcc-contracts/contracts/wwccPool.sol\":2710:2717  poolKey */\n      dup4\n        /* \"wwcc-contracts/contracts/wwccPool.sol\":2702:2718  WcPools[poolKey] */\n      dup2\n      mstore\n      0x20\n      add\n      swap1\n      dup2\n      mstore\n      0x20\n      add\n      0x00\n      keccak256\n        /* \"wwcc-contracts/contracts/wwccPool.sol\":2702:2724  WcPools[poolKey].sPool */\n      0x06\n      add\n        /* \"wwcc-contracts/contracts/wwccPool.sol\":2702:2728  WcPools[poolKey].sPool = 0 */\n      dup2\n      swap1\n      sstore\n      pop\n        /* \"wwcc-contracts/contracts/wwccPool.sol\":2766:2767  0 */\n      0x00\n        /* \"wwcc-contracts/contracts/wwccPool.sol\":2741:2748  WcPools */\n      0x04\n        /* \"wwcc-contracts/contracts/wwccPool.sol\":2741:2757  WcPools[poolKey] */\n      0x00\n        /* \"wwcc-contracts/contracts/wwccPool.sol\":2749:2756  poolKey */\n      dup4\n        /* \"wwcc-contracts/contracts/wwccPool.sol\":2741:2757  WcPools[poolKey] */\n      dup2\n      mstore\n      0x20\n      add\n      swap1\n      dup2\n      mstore\n      0x20\n      add\n      0x00\n      keccak256\n        /* \"wwcc-contracts/contracts/wwccPool.sol\":2741:2763  WcPools[poolKey].basal */\n      0x07\n      add\n        /* \"wwcc-contracts/contracts/wwccPool.sol\":2741:2767  WcPools[poolKey].basal = 0 */\n      dup2\n      swap1\n      sstore\n      pop\n        /* \"wwcc-contracts/contracts/wwccPool.sol\":2807:2814  decided */\n      dup5\n        /* \"wwcc-contracts/contracts/wwccPool.sol\":2780:2787  WcPools */\n      0x04\n        /* \"wwcc-contracts/contracts/wwccPool.sol\":2780:2796  WcPools[poolKey] */\n      0x00\n        /* \"wwcc-contracts/contracts/wwccPool.sol\":2788:2795  poolKey */\n      dup4\n        /* \"wwcc-contracts/contracts/wwccPool.sol\":2780:2796  WcPools[poolKey] */\n      dup2\n      mstore\n      0x20\n      add\n      swap1\n      dup2\n      mstore\n      0x20\n      add\n      0x00\n      keccak256\n        /* \"wwcc-contracts/contracts/wwccPool.sol\":2780:2804  WcPools[poolKey].decided */\n      0x08\n      add\n      0x00\n        /* \"wwcc-contracts/contracts/wwccPool.sol\":2780:2814  WcPools[poolKey].decided = decided */\n      0x0100\n      exp\n      dup2\n      sload\n      dup2\n      0xff\n      mul\n      not\n      and\n      swap1\n      dup4\n      iszero\n      iszero\n      mul\n      or\n      swap1\n      sstore\n      pop\n        /* \"wwcc-contracts/contracts/wwccPool.sol\":2855:2860  false */\n      0x00\n        /* \"wwcc-contracts/contracts/wwccPool.sol\":2827:2834  WcPools */\n      0x04\n        /* \"wwcc-contracts/contracts/wwccPool.sol\":2827:2843  WcPools[poolKey] */\n      0x00\n        /* \"wwcc-contracts/contracts/wwccPool.sol\":2835:2842  poolKey */\n      dup4\n        /* \"wwcc-contracts/contracts/wwccPool.sol\":2827:2843  WcPools[poolKey] */\n      dup2\n      mstore\n      0x20\n      add\n      swap1\n      dup2\n      mstore\n      0x20\n      add\n      0x00\n      keccak256\n        /* \"wwcc-contracts/contracts/wwccPool.sol\":2827:2852  WcPools[poolKey].finished */\n      0x08\n      add\n      0x02\n        /* \"wwcc-contracts/contracts/wwccPool.sol\":2827:2860  WcPools[poolKey].finished = false */\n      0x0100\n      exp\n      dup2\n      sload\n      dup2\n      0xff\n      mul\n      not\n      and\n      swap1\n      dup4\n      iszero\n      iszero\n      mul\n      or\n      swap1\n      sstore\n      pop\n        /* \"wwcc-contracts/contracts/wwccPool.sol\":2886:2893  poolKey */\n      dup1\n        /* \"wwcc-contracts/contracts/wwccPool.sol\":2879:2893  return poolKey */\n      swap4\n      pop\n      pop\n      pop\n      pop\n        /* \"wwcc-contracts/contracts/wwccPool.sol\":2011:2900  function Set_Pool(... */\n      swap5\n      swap4\n      pop\n      pop\n      pop\n      pop\n      jump\t// out\n        /* \"wwcc-contracts/contracts/wwccPool.sol\":6484:6590  function CheckBasal() external onlyManager view  returns (uint256){... */\n    tag_52:\n        /* \"wwcc-contracts/contracts/wwccPool.sol\":6542:6549  uint256 */\n      0x00\n        /* \"wwcc-contracts/contracts/wwccPool.sol\":13262:13267  owner */\n      dup1\n      0x00\n      swap1\n      sload\n      swap1\n      0x0100\n      exp\n      swap1\n      div\n      0xffffffffffffffffffffffffffffffffffffffff\n      and\n        /* \"wwcc-contracts/contracts/wwccPool.sol\":13248:13267  msg.sender == owner */\n      0xffffffffffffffffffffffffffffffffffffffff\n      and\n        /* \"wwcc-contracts/contracts/wwccPool.sol\":13248:13258  msg.sender */\n      caller\n        /* \"wwcc-contracts/contracts/wwccPool.sol\":13248:13267  msg.sender == owner */\n      0xffffffffffffffffffffffffffffffffffffffff\n      and\n      eq\n        /* \"wwcc-contracts/contracts/wwccPool.sol\":13227:13318  require(... */\n      tag_191\n      jumpi\n      mload(0x40)\n      0x08c379a000000000000000000000000000000000000000000000000000000000\n      dup2\n      mstore\n      0x04\n      add\n      tag_192\n      swap1\n      tag_97\n      jump\t// in\n    tag_192:\n      mload(0x40)\n      dup1\n      swap2\n      sub\n      swap1\n      revert\n    tag_191:\n        /* \"wwcc-contracts/contracts/wwccPool.sol\":6570:6583  nextBasalLast */\n      sload(0x01)\n        /* \"wwcc-contracts/contracts/wwccPool.sol\":6563:6583  return nextBasalLast */\n      swap1\n      pop\n        /* \"wwcc-contracts/contracts/wwccPool.sol\":6484:6590  function CheckBasal() external onlyManager view  returns (uint256){... */\n      swap1\n      jump\t// out\n        /* \"wwcc-contracts/contracts/wwccPool.sol\":6064:6422  function CheckExpect(bytes32 poolKey) external onlyManager view  returns (uint256){... */\n    tag_59:\n        /* \"wwcc-contracts/contracts/wwccPool.sol\":6138:6145  uint256 */\n      0x00\n        /* \"wwcc-contracts/contracts/wwccPool.sol\":13262:13267  owner */\n      dup1\n      0x00\n      swap1\n      sload\n      swap1\n      0x0100\n      exp\n      swap1\n      div\n      0xffffffffffffffffffffffffffffffffffffffff\n      and\n        /* \"wwcc-contracts/contracts/wwccPool.sol\":13248:13267  msg.sender == owner */\n      0xffffffffffffffffffffffffffffffffffffffff\n      and\n        /* \"wwcc-contracts/contracts/wwccPool.sol\":13248:13258  msg.sender */\n      caller\n        /* \"wwcc-contracts/contracts/wwccPool.sol\":13248:13267  msg.sender == owner */\n      0xffffffffffffffffffffffffffffffffffffffff\n      and\n      eq\n        /* \"wwcc-contracts/contracts/wwccPool.sol\":13227:13318  require(... */\n      tag_195\n      jumpi\n      mload(0x40)\n      0x08c379a000000000000000000000000000000000000000000000000000000000\n      dup2\n      mstore\n      0x04\n      add\n      tag_196\n      swap1\n      tag_97\n      jump\t// in\n    tag_196:\n      mload(0x40)\n      dup1\n      swap2\n      sub\n      swap1\n      revert\n    tag_195:\n        /* \"wwcc-contracts/contracts/wwccPool.sol\":6160:6177  contains(poolKey) */\n      tag_198\n        /* \"wwcc-contracts/contracts/wwccPool.sol\":6169:6176  poolKey */\n      dup3\n        /* \"wwcc-contracts/contracts/wwccPool.sol\":6160:6168  contains */\n      tag_100\n        /* \"wwcc-contracts/contracts/wwccPool.sol\":6160:6177  contains(poolKey) */\n      jump\t// in\n    tag_198:\n        /* \"wwcc-contracts/contracts/wwccPool.sol\":6156:6416  if(!contains(poolKey)) { ... */\n      tag_199\n      jumpi\n        /* \"wwcc-contracts/contracts/wwccPool.sol\":6194:6218  revert(\"pool not exist\") */\n      mload(0x40)\n      0x08c379a000000000000000000000000000000000000000000000000000000000\n      dup2\n      mstore\n      0x04\n      add\n      tag_200\n      swap1\n      tag_103\n      jump\t// in\n    tag_200:\n      mload(0x40)\n      dup1\n      swap2\n      sub\n      swap1\n      revert\n        /* \"wwcc-contracts/contracts/wwccPool.sol\":6156:6416  if(!contains(poolKey)) { ... */\n    tag_199:\n        /* \"wwcc-contracts/contracts/wwccPool.sol\":6246:6264  WcPool memory pool */\n      0x00\n        /* \"wwcc-contracts/contracts/wwccPool.sol\":6267:6274  WcPools */\n      0x04\n        /* \"wwcc-contracts/contracts/wwccPool.sol\":6267:6283  WcPools[poolKey] */\n      0x00\n        /* \"wwcc-contracts/contracts/wwccPool.sol\":6275:6282  poolKey */\n      dup5\n        /* \"wwcc-contracts/contracts/wwccPool.sol\":6267:6283  WcPools[poolKey] */\n      dup2\n      mstore\n      0x20\n      add\n      swap1\n      dup2\n      mstore\n      0x20\n      add\n      0x00\n      keccak256\n        /* \"wwcc-contracts/contracts/wwccPool.sol\":6246:6283  WcPool memory pool = WcPools[poolKey] */\n      mload(0x40)\n      dup1\n      0x0160\n      add\n      0x40\n      mstore\n      swap1\n      dup2\n      0x00\n      dup3\n      add\n      dup1\n      sload\n      tag_202\n      swap1\n      tag_106\n      jump\t// in\n    tag_202:\n      dup1\n      0x1f\n      add\n      0x20\n      dup1\n      swap2\n      div\n      mul\n      0x20\n      add\n      mload(0x40)\n      swap1\n      dup2\n      add\n      0x40\n      mstore\n      dup1\n      swap3\n      swap2\n      swap1\n      dup2\n      dup2\n      mstore\n      0x20\n      add\n      dup3\n      dup1\n      sload\n      tag_203\n      swap1\n      tag_106\n      jump\t// in\n    tag_203:\n      dup1\n      iszero\n      tag_204\n      jumpi\n      dup1\n      0x1f\n      lt\n      tag_205\n      jumpi\n      0x0100\n      dup1\n      dup4\n      sload\n      div\n      mul\n      dup4\n      mstore\n      swap2\n      0x20\n      add\n      swap2\n      jump(tag_204)\n    tag_205:\n      dup3\n      add\n      swap2\n      swap1\n      0x00\n      mstore\n      keccak256(0x00, 0x20)\n      swap1\n    tag_206:\n      dup2\n      sload\n      dup2\n      mstore\n      swap1\n      0x01\n      add\n      swap1\n      0x20\n      add\n      dup1\n      dup4\n      gt\n      tag_206\n      jumpi\n      dup3\n      swap1\n      sub\n      0x1f\n      and\n      dup3\n      add\n      swap2\n    tag_204:\n      pop\n      pop\n      pop\n      pop\n      pop\n      dup2\n      mstore\n      0x20\n      add\n      0x01\n      dup3\n      add\n      dup1\n      sload\n      tag_207\n      swap1\n      tag_106\n      jump\t// in\n    tag_207:\n      dup1\n      0x1f\n      add\n      0x20\n      dup1\n      swap2\n      div\n      mul\n      0x20\n      add\n      mload(0x40)\n      swap1\n      dup2\n      add\n      0x40\n      mstore\n      dup1\n      swap3\n      swap2\n      swap1\n      dup2\n      dup2\n      mstore\n      0x20\n      add\n      dup3\n      dup1\n      sload\n      tag_208\n      swap1\n      tag_106\n      jump\t// in\n    tag_208:\n      dup1\n      iszero\n      tag_209\n      jumpi\n      dup1\n      0x1f\n      lt\n      tag_210\n      jumpi\n      0x0100\n      dup1\n      dup4\n      sload\n      div\n      mul\n      dup4\n      mstore\n      swap2\n      0x20\n      add\n      swap2\n      jump(tag_209)\n    tag_210:\n      dup3\n      add\n      swap2\n      swap1\n      0x00\n      mstore\n      keccak256(0x00, 0x20)\n      swap1\n    tag_211:\n      dup2\n      sload\n      dup2\n      mstore\n      swap1\n      0x01\n      add\n      swap1\n      0x20\n      add\n      dup1\n      dup4\n      gt\n      tag_211\n      jumpi\n      dup3\n      swap1\n      sub\n      0x1f\n      and\n      dup3\n      add\n      swap2\n    tag_209:\n      pop\n      pop\n      pop\n      pop\n      pop\n      dup2\n      mstore\n      0x20\n      add\n      0x02\n      dup3\n      add\n      dup1\n      sload\n      tag_212\n      swap1\n      tag_106\n      jump\t// in\n    tag_212:\n      dup1\n      0x1f\n      add\n      0x20\n      dup1\n      swap2\n      div\n      mul\n      0x20\n      add\n      mload(0x40)\n      swap1\n      dup2\n      add\n      0x40\n      mstore\n      dup1\n      swap3\n      swap2\n      swap1\n      dup2\n      dup2\n      mstore\n      0x20\n      add\n      dup3\n      dup1\n      sload\n      tag_213\n      swap1\n      tag_106\n      jump\t// in\n    tag_213:\n      dup1\n      iszero\n      tag_214\n      jumpi\n      dup1\n      0x1f\n      lt\n      tag_215\n      jumpi\n      0x0100\n      dup1\n      dup4\n      sload\n      div\n      mul\n      dup4\n      mstore\n      swap2\n      0x20\n      add\n      swap2\n      jump(tag_214)\n    tag_215:\n      dup3\n      add\n      swap2\n      swap1\n      0x00\n      mstore\n      keccak256(0x00, 0x20)\n      swap1\n    tag_216:\n      dup2\n      sload\n      dup2\n      mstore\n      swap1\n      0x01\n      add\n      swap1\n      0x20\n      add\n      dup1\n      dup4\n      gt\n      tag_216\n      jumpi\n      dup3\n      swap1\n      sub\n      0x1f\n      and\n      dup3\n      add\n      swap2\n    tag_214:\n      pop\n      pop\n      pop\n      pop\n      pop\n      dup2\n      mstore\n      0x20\n      add\n      0x03\n      dup3\n      add\n      sload\n      dup2\n      mstore\n      0x20\n      add\n      0x04\n      dup3\n      add\n      sload\n      dup2\n      mstore\n      0x20\n      add\n      0x05\n      dup3\n      add\n      sload\n      dup2\n      mstore\n      0x20\n      add\n      0x06\n      dup3\n      add\n      sload\n      dup2\n      mstore\n      0x20\n      add\n      0x07\n      dup3\n      add\n      sload\n      dup2\n      mstore\n      0x20\n      add\n      0x08\n      dup3\n      add\n      0x00\n      swap1\n      sload\n      swap1\n      0x0100\n      exp\n      swap1\n      div\n      0xff\n      and\n      iszero\n      iszero\n      iszero\n      iszero\n      dup2\n      mstore\n      0x20\n      add\n      0x08\n      dup3\n      add\n      0x01\n      swap1\n      sload\n      swap1\n      0x0100\n      exp\n      swap1\n      div\n      0xff\n      and\n      iszero\n      iszero\n      iszero\n      iszero\n      dup2\n      mstore\n      0x20\n      add\n      0x08\n      dup3\n      add\n      0x02\n      swap1\n      sload\n      swap1\n      0x0100\n      exp\n      swap1\n      div\n      0xff\n      and\n      iszero\n      iszero\n      iszero\n      iszero\n      dup2\n      mstore\n      pop\n      pop\n      swap1\n      pop\n        /* \"wwcc-contracts/contracts/wwccPool.sol\":6296:6310  uint256 expect */\n      0x00\n        /* \"wwcc-contracts/contracts/wwccPool.sol\":6313:6379  (pool.wPool+pool.lPool+pool.dPool+pool.sPool + pool.basal).div(10) */\n      tag_217\n        /* \"wwcc-contracts/contracts/wwccPool.sol\":6376:6378  10 */\n      0x0a\n        /* \"wwcc-contracts/contracts/wwccPool.sol\":6360:6364  pool */\n      dup4\n        /* \"wwcc-contracts/contracts/wwccPool.sol\":6360:6370  pool.basal */\n      0xe0\n      add\n      mload\n        /* \"wwcc-contracts/contracts/wwccPool.sol\":6347:6351  pool */\n      dup5\n        /* \"wwcc-contracts/contracts/wwccPool.sol\":6347:6357  pool.sPool */\n      0xc0\n      add\n      mload\n        /* \"wwcc-contracts/contracts/wwccPool.sol\":6336:6340  pool */\n      dup6\n        /* \"wwcc-contracts/contracts/wwccPool.sol\":6336:6346  pool.dPool */\n      0x80\n      add\n      mload\n        /* \"wwcc-contracts/contracts/wwccPool.sol\":6325:6329  pool */\n      dup7\n        /* \"wwcc-contracts/contracts/wwccPool.sol\":6325:6335  pool.lPool */\n      0xa0\n      add\n      mload\n        /* \"wwcc-contracts/contracts/wwccPool.sol\":6314:6318  pool */\n      dup8\n        /* \"wwcc-contracts/contracts/wwccPool.sol\":6314:6324  pool.wPool */\n      0x60\n      add\n      mload\n        /* \"wwcc-contracts/contracts/wwccPool.sol\":6314:6335  pool.wPool+pool.lPool */\n      tag_218\n      swap2\n      swap1\n      tag_21\n      jump\t// in\n    tag_218:\n        /* \"wwcc-contracts/contracts/wwccPool.sol\":6314:6346  pool.wPool+pool.lPool+pool.dPool */\n      tag_219\n      swap2\n      swap1\n      tag_21\n      jump\t// in\n    tag_219:\n        /* \"wwcc-contracts/contracts/wwccPool.sol\":6314:6357  pool.wPool+pool.lPool+pool.dPool+pool.sPool */\n      tag_220\n      swap2\n      swap1\n      tag_21\n      jump\t// in\n    tag_220:\n        /* \"wwcc-contracts/contracts/wwccPool.sol\":6314:6370  pool.wPool+pool.lPool+pool.dPool+pool.sPool + pool.basal */\n      tag_221\n      swap2\n      swap1\n      tag_21\n      jump\t// in\n    tag_221:\n        /* \"wwcc-contracts/contracts/wwccPool.sol\":6313:6375  (pool.wPool+pool.lPool+pool.dPool+pool.sPool + pool.basal).div */\n      tag_126\n      swap1\n        /* \"wwcc-contracts/contracts/wwccPool.sol\":6313:6379  (pool.wPool+pool.lPool+pool.dPool+pool.sPool + pool.basal).div(10) */\n      swap2\n      swap1\n      0xffffffff\n      and\n      jump\t// in\n    tag_217:\n        /* \"wwcc-contracts/contracts/wwccPool.sol\":6296:6379  uint256 expect = (pool.wPool+pool.lPool+pool.dPool+pool.sPool + pool.basal).div(10) */\n      swap1\n      pop\n        /* \"wwcc-contracts/contracts/wwccPool.sol\":6399:6405  expect */\n      dup1\n        /* \"wwcc-contracts/contracts/wwccPool.sol\":6392:6405  return expect */\n      swap3\n      pop\n      pop\n      pop\n        /* \"wwcc-contracts/contracts/wwccPool.sol\":6064:6422  function CheckExpect(bytes32 poolKey) external onlyManager view  returns (uint256){... */\n      swap2\n      swap1\n      pop\n      jump\t// out\n        /* \"wwcc-contracts/contracts/wwccPool.sol\":2923:4249  function Picking(address joiner,uint256 weight,bytes32 poolKey,uint256 homeScore,uint256 visitScore,uint256 kind) external returns(bool){... */\n    tag_65:\n        /* \"wwcc-contracts/contracts/wwccPool.sol\":3054:3058  bool */\n      0x00\n        /* \"wwcc-contracts/contracts/wwccPool.sol\":3073:3090  contains(poolKey) */\n      tag_223\n        /* \"wwcc-contracts/contracts/wwccPool.sol\":3082:3089  poolKey */\n      dup6\n        /* \"wwcc-contracts/contracts/wwccPool.sol\":3073:3081  contains */\n      tag_100\n        /* \"wwcc-contracts/contracts/wwccPool.sol\":3073:3090  contains(poolKey) */\n      jump\t// in\n    tag_223:\n        /* \"wwcc-contracts/contracts/wwccPool.sol\":3069:4223  if(!contains(poolKey)) { ... */\n      tag_224\n      jumpi\n        /* \"wwcc-contracts/contracts/wwccPool.sol\":3107:3131  revert(\"pool not exist\") */\n      mload(0x40)\n      0x08c379a000000000000000000000000000000000000000000000000000000000\n      dup2\n      mstore\n      0x04\n      add\n      tag_225\n      swap1\n      tag_103\n      jump\t// in\n    tag_225:\n      mload(0x40)\n      dup1\n      swap2\n      sub\n      swap1\n      revert\n        /* \"wwcc-contracts/contracts/wwccPool.sol\":3069:4223  if(!contains(poolKey)) { ... */\n    tag_224:\n        /* \"wwcc-contracts/contracts/wwccPool.sol\":3180:3186  weight */\n      dup6\n        /* \"wwcc-contracts/contracts/wwccPool.sol\":3161:3171  voteAmount */\n      0x03\n        /* \"wwcc-contracts/contracts/wwccPool.sol\":3161:3179  voteAmount[joiner] */\n      0x00\n        /* \"wwcc-contracts/contracts/wwccPool.sol\":3172:3178  joiner */\n      dup10\n        /* \"wwcc-contracts/contracts/wwccPool.sol\":3161:3179  voteAmount[joiner] */\n      0xffffffffffffffffffffffffffffffffffffffff\n      and\n      0xffffffffffffffffffffffffffffffffffffffff\n      and\n      dup2\n      mstore\n      0x20\n      add\n      swap1\n      dup2\n      mstore\n      0x20\n      add\n      0x00\n      keccak256\n      sload\n        /* \"wwcc-contracts/contracts/wwccPool.sol\":3161:3186  voteAmount[joiner]<weight */\n      lt\n        /* \"wwcc-contracts/contracts/wwccPool.sol\":3158:3249  if(voteAmount[joiner]<weight){... */\n      iszero\n      tag_227\n      jumpi\n        /* \"wwcc-contracts/contracts/wwccPool.sol\":3204:3235  revert(\"not enough voteAmount\") */\n      mload(0x40)\n      0x08c379a000000000000000000000000000000000000000000000000000000000\n      dup2\n      mstore\n      0x04\n      add\n      tag_228\n      swap1\n      tag_229\n      jump\t// in\n    tag_228:\n      mload(0x40)\n      dup1\n      swap2\n      sub\n      swap1\n      revert\n        /* \"wwcc-contracts/contracts/wwccPool.sol\":3158:3249  if(voteAmount[joiner]<weight){... */\n    tag_227:\n        /* \"wwcc-contracts/contracts/wwccPool.sol\":3261:3279  WcPool memory pool */\n      0x00\n        /* \"wwcc-contracts/contracts/wwccPool.sol\":3282:3289  WcPools */\n      0x04\n        /* \"wwcc-contracts/contracts/wwccPool.sol\":3282:3298  WcPools[poolKey] */\n      0x00\n        /* \"wwcc-contracts/contracts/wwccPool.sol\":3290:3297  poolKey */\n      dup8\n        /* \"wwcc-contracts/contracts/wwccPool.sol\":3282:3298  WcPools[poolKey] */\n      dup2\n      mstore\n      0x20\n      add\n      swap1\n      dup2\n      mstore\n      0x20\n      add\n      0x00\n      keccak256\n        /* \"wwcc-contracts/contracts/wwccPool.sol\":3261:3298  WcPool memory pool = WcPools[poolKey] */\n      mload(0x40)\n      dup1\n      0x0160\n      add\n      0x40\n      mstore\n      swap1\n      dup2\n      0x00\n      dup3\n      add\n      dup1\n      sload\n      tag_230\n      swap1\n      tag_106\n      jump\t// in\n    tag_230:\n      dup1\n      0x1f\n      add\n      0x20\n      dup1\n      swap2\n      div\n      mul\n      0x20\n      add\n      mload(0x40)\n      swap1\n      dup2\n      add\n      0x40\n      mstore\n      dup1\n      swap3\n      swap2\n      swap1\n      dup2\n      dup2\n      mstore\n      0x20\n      add\n      dup3\n      dup1\n      sload\n      tag_231\n      swap1\n      tag_106\n      jump\t// in\n    tag_231:\n      dup1\n      iszero\n      tag_232\n      jumpi\n      dup1\n      0x1f\n      lt\n      tag_233\n      jumpi\n      0x0100\n      dup1\n      dup4\n      sload\n      div\n      mul\n      dup4\n      mstore\n      swap2\n      0x20\n      add\n      swap2\n      jump(tag_232)\n    tag_233:\n      dup3\n      add\n      swap2\n      swap1\n      0x00\n      mstore\n      keccak256(0x00, 0x20)\n      swap1\n    tag_234:\n      dup2\n      sload\n      dup2\n      mstore\n      swap1\n      0x01\n      add\n      swap1\n      0x20\n      add\n      dup1\n      dup4\n      gt\n      tag_234\n      jumpi\n      dup3\n      swap1\n      sub\n      0x1f\n      and\n      dup3\n      add\n      swap2\n    tag_232:\n      pop\n      pop\n      pop\n      pop\n      pop\n      dup2\n      mstore\n      0x20\n      add\n      0x01\n      dup3\n      add\n      dup1\n      sload\n      tag_235\n      swap1\n      tag_106\n      jump\t// in\n    tag_235:\n      dup1\n      0x1f\n      add\n      0x20\n      dup1\n      swap2\n      div\n      mul\n      0x20\n      add\n      mload(0x40)\n      swap1\n      dup2\n      add\n      0x40\n      mstore\n      dup1\n      swap3\n      swap2\n      swap1\n      dup2\n      dup2\n      mstore\n      0x20\n      add\n      dup3\n      dup1\n      sload\n      tag_236\n      swap1\n      tag_106\n      jump\t// in\n    tag_236:\n      dup1\n      iszero\n      tag_237\n      jumpi\n      dup1\n      0x1f\n      lt\n      tag_238\n      jumpi\n      0x0100\n      dup1\n      dup4\n      sload\n      div\n      mul\n      dup4\n      mstore\n      swap2\n      0x20\n      add\n      swap2\n      jump(tag_237)\n    tag_238:\n      dup3\n      add\n      swap2\n      swap1\n      0x00\n      mstore\n      keccak256(0x00, 0x20)\n      swap1\n    tag_239:\n      dup2\n      sload\n      dup2\n      mstore\n      swap1\n      0x01\n      add\n      swap1\n      0x20\n      add\n      dup1\n      dup4\n      gt\n      tag_239\n      jumpi\n      dup3\n      swap1\n      sub\n      0x1f\n      and\n      dup3\n      add\n      swap2\n    tag_237:\n      pop\n      pop\n      pop\n      pop\n      pop\n      dup2\n      mstore\n      0x20\n      add\n      0x02\n      dup3\n      add\n      dup1\n      sload\n      tag_240\n      swap1\n      tag_106\n      jump\t// in\n    tag_240:\n      dup1\n      0x1f\n      add\n      0x20\n      dup1\n      swap2\n      div\n      mul\n      0x20\n      add\n      mload(0x40)\n      swap1\n      dup2\n      add\n      0x40\n      mstore\n      dup1\n      swap3\n      swap2\n      swap1\n      dup2\n      dup2\n      mstore\n      0x20\n      add\n      dup3\n      dup1\n      sload\n      tag_241\n      swap1\n      tag_106\n      jump\t// in\n    tag_241:\n      dup1\n      iszero\n      tag_242\n      jumpi\n      dup1\n      0x1f\n      lt\n      tag_243\n      jumpi\n      0x0100\n      dup1\n      dup4\n      sload\n      div\n      mul\n      dup4\n      mstore\n      swap2\n      0x20\n      add\n      swap2\n      jump(tag_242)\n    tag_243:\n      dup3\n      add\n      swap2\n      swap1\n      0x00\n      mstore\n      keccak256(0x00, 0x20)\n      swap1\n    tag_244:\n      dup2\n      sload\n      dup2\n      mstore\n      swap1\n      0x01\n      add\n      swap1\n      0x20\n      add\n      dup1\n      dup4\n      gt\n      tag_244\n      jumpi\n      dup3\n      swap1\n      sub\n      0x1f\n      and\n      dup3\n      add\n      swap2\n    tag_242:\n      pop\n      pop\n      pop\n      pop\n      pop\n      dup2\n      mstore\n      0x20\n      add\n      0x03\n      dup3\n      add\n      sload\n      dup2\n      mstore\n      0x20\n      add\n      0x04\n      dup3\n      add\n      sload\n      dup2\n      mstore\n      0x20\n      add\n      0x05\n      dup3\n      add\n      sload\n      dup2\n      mstore\n      0x20\n      add\n      0x06\n      dup3\n      add\n      sload\n      dup2\n      mstore\n      0x20\n      add\n      0x07\n      dup3\n      add\n      sload\n      dup2\n      mstore\n      0x20\n      add\n      0x08\n      dup3\n      add\n      0x00\n      swap1\n      sload\n      swap1\n      0x0100\n      exp\n      swap1\n      div\n      0xff\n      and\n      iszero\n      iszero\n      iszero\n      iszero\n      dup2\n      mstore\n      0x20\n      add\n      0x08\n      dup3\n      add\n      0x01\n      swap1\n      sload\n      swap1\n      0x0100\n      exp\n      swap1\n      div\n      0xff\n      and\n      iszero\n      iszero\n      iszero\n      iszero\n      dup2\n      mstore\n      0x20\n      add\n      0x08\n      dup3\n      add\n      0x02\n      swap1\n      sload\n      swap1\n      0x0100\n      exp\n      swap1\n      div\n      0xff\n      and\n      iszero\n      iszero\n      iszero\n      iszero\n      dup2\n      mstore\n      pop\n      pop\n      swap1\n      pop\n        /* \"wwcc-contracts/contracts/wwccPool.sol\":3311:3328  string  memory si */\n      0x00\n        /* \"wwcc-contracts/contracts/wwccPool.sol\":3331:3396  strConcat(uint256ToString(homeScore),uint256ToString(visitScore)) */\n      tag_245\n        /* \"wwcc-contracts/contracts/wwccPool.sol\":3341:3367  uint256ToString(homeScore) */\n      tag_246\n        /* \"wwcc-contracts/contracts/wwccPool.sol\":3357:3366  homeScore */\n      dup8\n        /* \"wwcc-contracts/contracts/wwccPool.sol\":3341:3356  uint256ToString */\n      tag_247\n        /* \"wwcc-contracts/contracts/wwccPool.sol\":3341:3367  uint256ToString(homeScore) */\n      jump\t// in\n    tag_246:\n        /* \"wwcc-contracts/contracts/wwccPool.sol\":3368:3395  uint256ToString(visitScore) */\n      tag_248\n        /* \"wwcc-contracts/contracts/wwccPool.sol\":3384:3394  visitScore */\n      dup8\n        /* \"wwcc-contracts/contracts/wwccPool.sol\":3368:3383  uint256ToString */\n      tag_247\n        /* \"wwcc-contracts/contracts/wwccPool.sol\":3368:3395  uint256ToString(visitScore) */\n      jump\t// in\n    tag_248:\n        /* \"wwcc-contracts/contracts/wwccPool.sol\":3331:3340  strConcat */\n      tag_177\n        /* \"wwcc-contracts/contracts/wwccPool.sol\":3331:3396  strConcat(uint256ToString(homeScore),uint256ToString(visitScore)) */\n      jump\t// in\n    tag_245:\n        /* \"wwcc-contracts/contracts/wwccPool.sol\":3311:3396  string  memory si = strConcat(uint256ToString(homeScore),uint256ToString(visitScore)) */\n      swap1\n      pop\n        /* \"wwcc-contracts/contracts/wwccPool.sol\":3409:3434  string  memory pickingKey */\n      0x00\n        /* \"wwcc-contracts/contracts/wwccPool.sol\":3437:3475  strConcat(bytes32ToString(poolKey),si) */\n      tag_249\n        /* \"wwcc-contracts/contracts/wwccPool.sol\":3447:3471  bytes32ToString(poolKey) */\n      tag_250\n        /* \"wwcc-contracts/contracts/wwccPool.sol\":3463:3470  poolKey */\n      dup10\n        /* \"wwcc-contracts/contracts/wwccPool.sol\":3447:3462  bytes32ToString */\n      tag_251\n        /* \"wwcc-contracts/contracts/wwccPool.sol\":3447:3471  bytes32ToString(poolKey) */\n      jump\t// in\n    tag_250:\n        /* \"wwcc-contracts/contracts/wwccPool.sol\":3472:3474  si */\n      dup4\n        /* \"wwcc-contracts/contracts/wwccPool.sol\":3437:3446  strConcat */\n      tag_177\n        /* \"wwcc-contracts/contracts/wwccPool.sol\":3437:3475  strConcat(bytes32ToString(poolKey),si) */\n      jump\t// in\n    tag_249:\n        /* \"wwcc-contracts/contracts/wwccPool.sol\":3409:3475  string  memory pickingKey = strConcat(bytes32ToString(poolKey),si) */\n      swap1\n      pop\n        /* \"wwcc-contracts/contracts/wwccPool.sol\":3488:3511  JoinerPicking memory jp */\n      0x00\n        /* \"wwcc-contracts/contracts/wwccPool.sol\":3514:3585  JoinerPicking(weight,kind,homeScore,visitScore,joiner,pickingKey,false) */\n      mload(0x40)\n      dup1\n      0xe0\n      add\n      0x40\n      mstore\n      dup1\n        /* \"wwcc-contracts/contracts/wwccPool.sol\":3528:3534  weight */\n      dup12\n        /* \"wwcc-contracts/contracts/wwccPool.sol\":3514:3585  JoinerPicking(weight,kind,homeScore,visitScore,joiner,pickingKey,false) */\n      dup2\n      mstore\n      0x20\n      add\n        /* \"wwcc-contracts/contracts/wwccPool.sol\":3535:3539  kind */\n      dup8\n        /* \"wwcc-contracts/contracts/wwccPool.sol\":3514:3585  JoinerPicking(weight,kind,homeScore,visitScore,joiner,pickingKey,false) */\n      dup2\n      mstore\n      0x20\n      add\n        /* \"wwcc-contracts/contracts/wwccPool.sol\":3540:3549  homeScore */\n      dup10\n        /* \"wwcc-contracts/contracts/wwccPool.sol\":3514:3585  JoinerPicking(weight,kind,homeScore,visitScore,joiner,pickingKey,false) */\n      dup2\n      mstore\n      0x20\n      add\n        /* \"wwcc-contracts/contracts/wwccPool.sol\":3550:3560  visitScore */\n      dup9\n        /* \"wwcc-contracts/contracts/wwccPool.sol\":3514:3585  JoinerPicking(weight,kind,homeScore,visitScore,joiner,pickingKey,false) */\n      dup2\n      mstore\n      0x20\n      add\n        /* \"wwcc-contracts/contracts/wwccPool.sol\":3561:3567  joiner */\n      dup13\n        /* \"wwcc-contracts/contracts/wwccPool.sol\":3514:3585  JoinerPicking(weight,kind,homeScore,visitScore,joiner,pickingKey,false) */\n      0xffffffffffffffffffffffffffffffffffffffff\n      and\n      dup2\n      mstore\n      0x20\n      add\n        /* \"wwcc-contracts/contracts/wwccPool.sol\":3568:3578  pickingKey */\n      dup4\n        /* \"wwcc-contracts/contracts/wwccPool.sol\":3514:3585  JoinerPicking(weight,kind,homeScore,visitScore,joiner,pickingKey,false) */\n      dup2\n      mstore\n      0x20\n      add\n        /* \"wwcc-contracts/contracts/wwccPool.sol\":3579:3584  false */\n      0x00\n        /* \"wwcc-contracts/contracts/wwccPool.sol\":3514:3585  JoinerPicking(weight,kind,homeScore,visitScore,joiner,pickingKey,false) */\n      iszero\n      iszero\n      dup2\n      mstore\n      pop\n        /* \"wwcc-contracts/contracts/wwccPool.sol\":3488:3585  JoinerPicking memory jp = JoinerPicking(weight,kind,homeScore,visitScore,joiner,pickingKey,false) */\n      swap1\n      pop\n        /* \"wwcc-contracts/contracts/wwccPool.sol\":3634:3641  poolKey */\n      dup9\n        /* \"wwcc-contracts/contracts/wwccPool.sol\":3598:3614  allScorePoolInfo */\n      0x05\n        /* \"wwcc-contracts/contracts/wwccPool.sol\":3598:3623  allScorePoolInfo[poolKey] */\n      0x00\n        /* \"wwcc-contracts/contracts/wwccPool.sol\":3615:3622  poolKey */\n      dup12\n        /* \"wwcc-contracts/contracts/wwccPool.sol\":3598:3623  allScorePoolInfo[poolKey] */\n      dup2\n      mstore\n      0x20\n      add\n      swap1\n      dup2\n      mstore\n      0x20\n      add\n      0x00\n      keccak256\n        /* \"wwcc-contracts/contracts/wwccPool.sol\":3598:3631  allScorePoolInfo[poolKey].poolKey */\n      0x01\n      add\n        /* \"wwcc-contracts/contracts/wwccPool.sol\":3598:3641  allScorePoolInfo[poolKey].poolKey = poolKey */\n      dup2\n      swap1\n      sstore\n      pop\n        /* \"wwcc-contracts/contracts/wwccPool.sol\":3654:3670  allScorePoolInfo */\n      0x05\n        /* \"wwcc-contracts/contracts/wwccPool.sol\":3654:3679  allScorePoolInfo[poolKey] */\n      0x00\n        /* \"wwcc-contracts/contracts/wwccPool.sol\":3671:3678  poolKey */\n      dup11\n        /* \"wwcc-contracts/contracts/wwccPool.sol\":3654:3679  allScorePoolInfo[poolKey] */\n      dup2\n      mstore\n      0x20\n      add\n      swap1\n      dup2\n      mstore\n      0x20\n      add\n      0x00\n      keccak256\n        /* \"wwcc-contracts/contracts/wwccPool.sol\":3654:3691  allScorePoolInfo[poolKey].separateBet */\n      0x00\n      add\n        /* \"wwcc-contracts/contracts/wwccPool.sol\":3697:3699  jp */\n      dup2\n        /* \"wwcc-contracts/contracts/wwccPool.sol\":3654:3700  allScorePoolInfo[poolKey].separateBet.push(jp) */\n      swap1\n      dup1\n      0x01\n      dup2\n      sload\n      add\n      dup1\n      dup3\n      sstore\n      dup1\n      swap2\n      pop\n      pop\n      0x01\n      swap1\n      sub\n      swap1\n      0x00\n      mstore\n      keccak256(0x00, 0x20)\n      swap1\n      0x07\n      mul\n      add\n      0x00\n      swap1\n      swap2\n      swap1\n      swap2\n      swap1\n      swap2\n      pop\n      0x00\n      dup3\n      add\n      mload\n      dup2\n      0x00\n      add\n      sstore\n      0x20\n      dup3\n      add\n      mload\n      dup2\n      0x01\n      add\n      sstore\n      0x40\n      dup3\n      add\n      mload\n      dup2\n      0x02\n      add\n      sstore\n      0x60\n      dup3\n      add\n      mload\n      dup2\n      0x03\n      add\n      sstore\n      0x80\n      dup3\n      add\n      mload\n      dup2\n      0x04\n      add\n      exp(0x0100, 0x00)\n      dup2\n      sload\n      dup2\n      0xffffffffffffffffffffffffffffffffffffffff\n      mul\n      not\n      and\n      swap1\n      dup4\n      0xffffffffffffffffffffffffffffffffffffffff\n      and\n      mul\n      or\n      swap1\n      sstore\n      pop\n      0xa0\n      dup3\n      add\n      mload\n      dup2\n      0x05\n      add\n      swap1\n      dup1\n      mload\n      swap1\n      0x20\n      add\n      swap1\n      tag_253\n      swap3\n      swap2\n      swap1\n      tag_187\n      jump\t// in\n    tag_253:\n      pop\n      0xc0\n      dup3\n      add\n      mload\n      dup2\n      0x06\n      add\n      exp(0x0100, 0x00)\n      dup2\n      sload\n      dup2\n      0xff\n      mul\n      not\n      and\n      swap1\n      dup4\n      iszero\n      iszero\n      mul\n      or\n      swap1\n      sstore\n      pop\n      pop\n      pop\n        /* \"wwcc-contracts/contracts/wwccPool.sol\":3748:3754  joiner */\n      dup11\n        /* \"wwcc-contracts/contracts/wwccPool.sol\":3714:3730  joinerAllPicking */\n      0x07\n        /* \"wwcc-contracts/contracts/wwccPool.sol\":3714:3738  joinerAllPicking[joiner] */\n      0x00\n        /* \"wwcc-contracts/contracts/wwccPool.sol\":3731:3737  joiner */\n      dup14\n        /* \"wwcc-contracts/contracts/wwccPool.sol\":3714:3738  joinerAllPicking[joiner] */\n      0xffffffffffffffffffffffffffffffffffffffff\n      and\n      0xffffffffffffffffffffffffffffffffffffffff\n      and\n      dup2\n      mstore\n      0x20\n      add\n      swap1\n      dup2\n      mstore\n      0x20\n      add\n      0x00\n      keccak256\n        /* \"wwcc-contracts/contracts/wwccPool.sol\":3714:3745  joinerAllPicking[joiner].joiner */\n      0x01\n      add\n      0x00\n        /* \"wwcc-contracts/contracts/wwccPool.sol\":3714:3754  joinerAllPicking[joiner].joiner = joiner */\n      0x0100\n      exp\n      dup2\n      sload\n      dup2\n      0xffffffffffffffffffffffffffffffffffffffff\n      mul\n      not\n      and\n      swap1\n      dup4\n      0xffffffffffffffffffffffffffffffffffffffff\n      and\n      mul\n      or\n      swap1\n      sstore\n      pop\n        /* \"wwcc-contracts/contracts/wwccPool.sol\":3767:3783  allScorePoolInfo */\n      0x05\n        /* \"wwcc-contracts/contracts/wwccPool.sol\":3767:3792  allScorePoolInfo[poolKey] */\n      0x00\n        /* \"wwcc-contracts/contracts/wwccPool.sol\":3784:3791  poolKey */\n      dup11\n        /* \"wwcc-contracts/contracts/wwccPool.sol\":3767:3792  allScorePoolInfo[poolKey] */\n      dup2\n      mstore\n      0x20\n      add\n      swap1\n      dup2\n      mstore\n      0x20\n      add\n      0x00\n      keccak256\n        /* \"wwcc-contracts/contracts/wwccPool.sol\":3767:3804  allScorePoolInfo[poolKey].separateBet */\n      0x00\n      add\n        /* \"wwcc-contracts/contracts/wwccPool.sol\":3810:3812  jp */\n      dup2\n        /* \"wwcc-contracts/contracts/wwccPool.sol\":3767:3813  allScorePoolInfo[poolKey].separateBet.push(jp) */\n      swap1\n      dup1\n      0x01\n      dup2\n      sload\n      add\n      dup1\n      dup3\n      sstore\n      dup1\n      swap2\n      pop\n      pop\n      0x01\n      swap1\n      sub\n      swap1\n      0x00\n      mstore\n      keccak256(0x00, 0x20)\n      swap1\n      0x07\n      mul\n      add\n      0x00\n      swap1\n      swap2\n      swap1\n      swap2\n      swap1\n      swap2\n      pop\n      0x00\n      dup3\n      add\n      mload\n      dup2\n      0x00\n      add\n      sstore\n      0x20\n      dup3\n      add\n      mload\n      dup2\n      0x01\n      add\n      sstore\n      0x40\n      dup3\n      add\n      mload\n      dup2\n      0x02\n      add\n      sstore\n      0x60\n      dup3\n      add\n      mload\n      dup2\n      0x03\n      add\n      sstore\n      0x80\n      dup3\n      add\n      mload\n      dup2\n      0x04\n      add\n      exp(0x0100, 0x00)\n      dup2\n      sload\n      dup2\n      0xffffffffffffffffffffffffffffffffffffffff\n      mul\n      not\n      and\n      swap1\n      dup4\n      0xffffffffffffffffffffffffffffffffffffffff\n      and\n      mul\n      or\n      swap1\n      sstore\n      pop\n      0xa0\n      dup3\n      add\n      mload\n      dup2\n      0x05\n      add\n      swap1\n      dup1\n      mload\n      swap1\n      0x20\n      add\n      swap1\n      tag_255\n      swap3\n      swap2\n      swap1\n      tag_187\n      jump\t// in\n    tag_255:\n      pop\n      0xc0\n      dup3\n      add\n      mload\n      dup2\n      0x06\n      add\n      exp(0x0100, 0x00)\n      dup2\n      sload\n      dup2\n      0xff\n      mul\n      not\n      and\n      swap1\n      dup4\n      iszero\n      iszero\n      mul\n      or\n      swap1\n      sstore\n      pop\n      pop\n      pop\n        /* \"wwcc-contracts/contracts/wwccPool.sol\":3840:3841  2 */\n      0x02\n        /* \"wwcc-contracts/contracts/wwccPool.sol\":3832:3836  kind */\n      dup7\n        /* \"wwcc-contracts/contracts/wwccPool.sol\":3832:3841  kind == 2 */\n      eq\n        /* \"wwcc-contracts/contracts/wwccPool.sol\":3828:4160  if (kind == 2){... */\n      iszero\n      tag_256\n      jumpi\n        /* \"wwcc-contracts/contracts/wwccPool.sol\":3872:3878  weight */\n      dup10\n        /* \"wwcc-contracts/contracts/wwccPool.sol\":3858:3862  pool */\n      dup5\n        /* \"wwcc-contracts/contracts/wwccPool.sol\":3858:3868  pool.sPool */\n      0xc0\n      add\n        /* \"wwcc-contracts/contracts/wwccPool.sol\":3858:3878  pool.sPool += weight */\n      dup2\n      dup2\n      mload\n      tag_257\n      swap2\n      swap1\n      tag_21\n      jump\t// in\n    tag_257:\n      swap2\n      pop\n      dup2\n      dup2\n      mstore\n      pop\n      pop\n        /* \"wwcc-contracts/contracts/wwccPool.sol\":3925:3931  weight */\n      dup10\n        /* \"wwcc-contracts/contracts/wwccPool.sol\":3894:3909  singleScorePool */\n      0x06\n        /* \"wwcc-contracts/contracts/wwccPool.sol\":3910:3920  pickingKey */\n      dup4\n        /* \"wwcc-contracts/contracts/wwccPool.sol\":3894:3921  singleScorePool[pickingKey] */\n      mload(0x40)\n      tag_258\n      swap2\n      swap1\n      tag_180\n      jump\t// in\n    tag_258:\n      swap1\n      dup2\n      mstore\n      0x20\n      add\n      mload(0x40)\n      dup1\n      swap2\n      sub\n      swap1\n      keccak256\n      0x00\n        /* \"wwcc-contracts/contracts/wwccPool.sol\":3894:3931  singleScorePool[pickingKey] += weight */\n      dup3\n      dup3\n      sload\n      tag_259\n      swap2\n      swap1\n      tag_21\n      jump\t// in\n    tag_259:\n      swap3\n      pop\n      pop\n      dup2\n      swap1\n      sstore\n      pop\n        /* \"wwcc-contracts/contracts/wwccPool.sol\":3828:4160  if (kind == 2){... */\n      jump(tag_260)\n    tag_256:\n        /* \"wwcc-contracts/contracts/wwccPool.sol\":3975:3976  3 */\n      0x03\n        /* \"wwcc-contracts/contracts/wwccPool.sol\":3967:3971  kind */\n      dup7\n        /* \"wwcc-contracts/contracts/wwccPool.sol\":3967:3976  kind == 3 */\n      eq\n        /* \"wwcc-contracts/contracts/wwccPool.sol\":3964:4160  if(kind == 3){... */\n      iszero\n      tag_261\n      jumpi\n        /* \"wwcc-contracts/contracts/wwccPool.sol\":4009:4015  weight */\n      dup10\n        /* \"wwcc-contracts/contracts/wwccPool.sol\":3995:3999  pool */\n      dup5\n        /* \"wwcc-contracts/contracts/wwccPool.sol\":3995:4005  pool.wPool */\n      0x60\n      add\n        /* \"wwcc-contracts/contracts/wwccPool.sol\":3995:4015  pool.wPool += weight */\n      dup2\n      dup2\n      mload\n      tag_262\n      swap2\n      swap1\n      tag_21\n      jump\t// in\n    tag_262:\n      swap2\n      pop\n      dup2\n      dup2\n      mstore\n      pop\n      pop\n        /* \"wwcc-contracts/contracts/wwccPool.sol\":3964:4160  if(kind == 3){... */\n      jump(tag_263)\n    tag_261:\n        /* \"wwcc-contracts/contracts/wwccPool.sol\":4047:4048  1 */\n      0x01\n        /* \"wwcc-contracts/contracts/wwccPool.sol\":4039:4043  kind */\n      dup7\n        /* \"wwcc-contracts/contracts/wwccPool.sol\":4039:4048  kind == 1 */\n      eq\n        /* \"wwcc-contracts/contracts/wwccPool.sol\":4035:4160  if (kind == 1){... */\n      iszero\n      tag_264\n      jumpi\n        /* \"wwcc-contracts/contracts/wwccPool.sol\":4081:4087  weight */\n      dup10\n        /* \"wwcc-contracts/contracts/wwccPool.sol\":4067:4071  pool */\n      dup5\n        /* \"wwcc-contracts/contracts/wwccPool.sol\":4067:4077  pool.dPool */\n      0x80\n      add\n        /* \"wwcc-contracts/contracts/wwccPool.sol\":4067:4087  pool.dPool += weight */\n      dup2\n      dup2\n      mload\n      tag_265\n      swap2\n      swap1\n      tag_21\n      jump\t// in\n    tag_265:\n      swap2\n      pop\n      dup2\n      dup2\n      mstore\n      pop\n      pop\n        /* \"wwcc-contracts/contracts/wwccPool.sol\":4035:4160  if (kind == 1){... */\n      jump(tag_266)\n    tag_264:\n        /* \"wwcc-contracts/contracts/wwccPool.sol\":4139:4145  weight */\n      dup10\n        /* \"wwcc-contracts/contracts/wwccPool.sol\":4125:4129  pool */\n      dup5\n        /* \"wwcc-contracts/contracts/wwccPool.sol\":4125:4135  pool.lPool */\n      0xa0\n      add\n        /* \"wwcc-contracts/contracts/wwccPool.sol\":4125:4145  pool.lPool += weight */\n      dup2\n      dup2\n      mload\n      tag_267\n      swap2\n      swap1\n      tag_21\n      jump\t// in\n    tag_267:\n      swap2\n      pop\n      dup2\n      dup2\n      mstore\n      pop\n      pop\n        /* \"wwcc-contracts/contracts/wwccPool.sol\":4035:4160  if (kind == 1){... */\n    tag_266:\n        /* \"wwcc-contracts/contracts/wwccPool.sol\":3964:4160  if(kind == 3){... */\n    tag_263:\n        /* \"wwcc-contracts/contracts/wwccPool.sol\":3828:4160  if (kind == 2){... */\n    tag_260:\n        /* \"wwcc-contracts/contracts/wwccPool.sol\":4195:4201  weight */\n      dup10\n        /* \"wwcc-contracts/contracts/wwccPool.sol\":4173:4183  voteAmount */\n      0x03\n        /* \"wwcc-contracts/contracts/wwccPool.sol\":4173:4191  voteAmount[joiner] */\n      0x00\n        /* \"wwcc-contracts/contracts/wwccPool.sol\":4184:4190  joiner */\n      dup14\n        /* \"wwcc-contracts/contracts/wwccPool.sol\":4173:4191  voteAmount[joiner] */\n      0xffffffffffffffffffffffffffffffffffffffff\n      and\n      0xffffffffffffffffffffffffffffffffffffffff\n      and\n      dup2\n      mstore\n      0x20\n      add\n      swap1\n      dup2\n      mstore\n      0x20\n      add\n      0x00\n      keccak256\n      0x00\n        /* \"wwcc-contracts/contracts/wwccPool.sol\":4173:4201  voteAmount[joiner] -= weight */\n      dup3\n      dup3\n      sload\n      tag_268\n      swap2\n      swap1\n      tag_138\n      jump\t// in\n    tag_268:\n      swap3\n      pop\n      pop\n      dup2\n      swap1\n      sstore\n      pop\n        /* \"wwcc-contracts/contracts/wwccPool.sol\":3145:4223  {... */\n      pop\n      pop\n      pop\n      pop\n        /* \"wwcc-contracts/contracts/wwccPool.sol\":4238:4242  true */\n      0x01\n        /* \"wwcc-contracts/contracts/wwccPool.sol\":4231:4242  return true */\n      swap1\n      pop\n        /* \"wwcc-contracts/contracts/wwccPool.sol\":2923:4249  function Picking(address joiner,uint256 weight,bytes32 poolKey,uint256 homeScore,uint256 visitScore,uint256 kind) external returns(bool){... */\n      swap7\n      swap6\n      pop\n      pop\n      pop\n      pop\n      pop\n      pop\n      jump\t// out\n        /* \"wwcc-contracts/contracts/wwccPool.sol\":6808:10265  function Award(bytes32 poolKey,uint256 homeScore,uint256 visitScore,uint256 result)  external onlyManager  payable returns(bool){... */\n    tag_70:\n        /* \"wwcc-contracts/contracts/wwccPool.sol\":6931:6935  bool */\n      0x00\n        /* \"wwcc-contracts/contracts/wwccPool.sol\":13262:13267  owner */\n      dup1\n      0x00\n      swap1\n      sload\n      swap1\n      0x0100\n      exp\n      swap1\n      div\n      0xffffffffffffffffffffffffffffffffffffffff\n      and\n        /* \"wwcc-contracts/contracts/wwccPool.sol\":13248:13267  msg.sender == owner */\n      0xffffffffffffffffffffffffffffffffffffffff\n      and\n        /* \"wwcc-contracts/contracts/wwccPool.sol\":13248:13258  msg.sender */\n      caller\n        /* \"wwcc-contracts/contracts/wwccPool.sol\":13248:13267  msg.sender == owner */\n      0xffffffffffffffffffffffffffffffffffffffff\n      and\n      eq\n        /* \"wwcc-contracts/contracts/wwccPool.sol\":13227:13318  require(... */\n      tag_270\n      jumpi\n      mload(0x40)\n      0x08c379a000000000000000000000000000000000000000000000000000000000\n      dup2\n      mstore\n      0x04\n      add\n      tag_271\n      swap1\n      tag_97\n      jump\t// in\n    tag_271:\n      mload(0x40)\n      dup1\n      swap2\n      sub\n      swap1\n      revert\n    tag_270:\n        /* \"wwcc-contracts/contracts/wwccPool.sol\":6950:6967  contains(poolKey) */\n      tag_273\n        /* \"wwcc-contracts/contracts/wwccPool.sol\":6959:6966  poolKey */\n      dup6\n        /* \"wwcc-contracts/contracts/wwccPool.sol\":6950:6958  contains */\n      tag_100\n        /* \"wwcc-contracts/contracts/wwccPool.sol\":6950:6967  contains(poolKey) */\n      jump\t// in\n    tag_273:\n        /* \"wwcc-contracts/contracts/wwccPool.sol\":6946:10239  if(!contains(poolKey)) { ... */\n      tag_274\n      jumpi\n        /* \"wwcc-contracts/contracts/wwccPool.sol\":6984:7008  revert(\"pool not exist\") */\n      mload(0x40)\n      0x08c379a000000000000000000000000000000000000000000000000000000000\n      dup2\n      mstore\n      0x04\n      add\n      tag_275\n      swap1\n      tag_103\n      jump\t// in\n    tag_275:\n      mload(0x40)\n      dup1\n      swap2\n      sub\n      swap1\n      revert\n        /* \"wwcc-contracts/contracts/wwccPool.sol\":6946:10239  if(!contains(poolKey)) { ... */\n    tag_274:\n        /* \"wwcc-contracts/contracts/wwccPool.sol\":7035:7053  WcPool memory pool */\n      0x00\n        /* \"wwcc-contracts/contracts/wwccPool.sol\":7056:7063  WcPools */\n      0x04\n        /* \"wwcc-contracts/contracts/wwccPool.sol\":7056:7072  WcPools[poolKey] */\n      0x00\n        /* \"wwcc-contracts/contracts/wwccPool.sol\":7064:7071  poolKey */\n      dup8\n        /* \"wwcc-contracts/contracts/wwccPool.sol\":7056:7072  WcPools[poolKey] */\n      dup2\n      mstore\n      0x20\n      add\n      swap1\n      dup2\n      mstore\n      0x20\n      add\n      0x00\n      keccak256\n        /* \"wwcc-contracts/contracts/wwccPool.sol\":7035:7072  WcPool memory pool = WcPools[poolKey] */\n      mload(0x40)\n      dup1\n      0x0160\n      add\n      0x40\n      mstore\n      swap1\n      dup2\n      0x00\n      dup3\n      add\n      dup1\n      sload\n      tag_277\n      swap1\n      tag_106\n      jump\t// in\n    tag_277:\n      dup1\n      0x1f\n      add\n      0x20\n      dup1\n      swap2\n      div\n      mul\n      0x20\n      add\n      mload(0x40)\n      swap1\n      dup2\n      add\n      0x40\n      mstore\n      dup1\n      swap3\n      swap2\n      swap1\n      dup2\n      dup2\n      mstore\n      0x20\n      add\n      dup3\n      dup1\n      sload\n      tag_278\n      swap1\n      tag_106\n      jump\t// in\n    tag_278:\n      dup1\n      iszero\n      tag_279\n      jumpi\n      dup1\n      0x1f\n      lt\n      tag_280\n      jumpi\n      0x0100\n      dup1\n      dup4\n      sload\n      div\n      mul\n      dup4\n      mstore\n      swap2\n      0x20\n      add\n      swap2\n      jump(tag_279)\n    tag_280:\n      dup3\n      add\n      swap2\n      swap1\n      0x00\n      mstore\n      keccak256(0x00, 0x20)\n      swap1\n    tag_281:\n      dup2\n      sload\n      dup2\n      mstore\n      swap1\n      0x01\n      add\n      swap1\n      0x20\n      add\n      dup1\n      dup4\n      gt\n      tag_281\n      jumpi\n      dup3\n      swap1\n      sub\n      0x1f\n      and\n      dup3\n      add\n      swap2\n    tag_279:\n      pop\n      pop\n      pop\n      pop\n      pop\n      dup2\n      mstore\n      0x20\n      add\n      0x01\n      dup3\n      add\n      dup1\n      sload\n      tag_282\n      swap1\n      tag_106\n      jump\t// in\n    tag_282:\n      dup1\n      0x1f\n      add\n      0x20\n      dup1\n      swap2\n      div\n      mul\n      0x20\n      add\n      mload(0x40)\n      swap1\n      dup2\n      add\n      0x40\n      mstore\n      dup1\n      swap3\n      swap2\n      swap1\n      dup2\n      dup2\n      mstore\n      0x20\n      add\n      dup3\n      dup1\n      sload\n      tag_283\n      swap1\n      tag_106\n      jump\t// in\n    tag_283:\n      dup1\n      iszero\n      tag_284\n      jumpi\n      dup1\n      0x1f\n      lt\n      tag_285\n      jumpi\n      0x0100\n      dup1\n      dup4\n      sload\n      div\n      mul\n      dup4\n      mstore\n      swap2\n      0x20\n      add\n      swap2\n      jump(tag_284)\n    tag_285:\n      dup3\n      add\n      swap2\n      swap1\n      0x00\n      mstore\n      keccak256(0x00, 0x20)\n      swap1\n    tag_286:\n      dup2\n      sload\n      dup2\n      mstore\n      swap1\n      0x01\n      add\n      swap1\n      0x20\n      add\n      dup1\n      dup4\n      gt\n      tag_286\n      jumpi\n      dup3\n      swap1\n      sub\n      0x1f\n      and\n      dup3\n      add\n      swap2\n    tag_284:\n      pop\n      pop\n      pop\n      pop\n      pop\n      dup2\n      mstore\n      0x20\n      add\n      0x02\n      dup3\n      add\n      dup1\n      sload\n      tag_287\n      swap1\n      tag_106\n      jump\t// in\n    tag_287:\n      dup1\n      0x1f\n      add\n      0x20\n      dup1\n      swap2\n      div\n      mul\n      0x20\n      add\n      mload(0x40)\n      swap1\n      dup2\n      add\n      0x40\n      mstore\n      dup1\n      swap3\n      swap2\n      swap1\n      dup2\n      dup2\n      mstore\n      0x20\n      add\n      dup3\n      dup1\n      sload\n      tag_288\n      swap1\n      tag_106\n      jump\t// in\n    tag_288:\n      dup1\n      iszero\n      tag_289\n      jumpi\n      dup1\n      0x1f\n      lt\n      tag_290\n      jumpi\n      0x0100\n      dup1\n      dup4\n      sload\n      div\n      mul\n      dup4\n      mstore\n      swap2\n      0x20\n      add\n      swap2\n      jump(tag_289)\n    tag_290:\n      dup3\n      add\n      swap2\n      swap1\n      0x00\n      mstore\n      keccak256(0x00, 0x20)\n      swap1\n    tag_291:\n      dup2\n      sload\n      dup2\n      mstore\n      swap1\n      0x01\n      add\n      swap1\n      0x20\n      add\n      dup1\n      dup4\n      gt\n      tag_291\n      jumpi\n      dup3\n      swap1\n      sub\n      0x1f\n      and\n      dup3\n      add\n      swap2\n    tag_289:\n      pop\n      pop\n      pop\n      pop\n      pop\n      dup2\n      mstore\n      0x20\n      add\n      0x03\n      dup3\n      add\n      sload\n      dup2\n      mstore\n      0x20\n      add\n      0x04\n      dup3\n      add\n      sload\n      dup2\n      mstore\n      0x20\n      add\n      0x05\n      dup3\n      add\n      sload\n      dup2\n      mstore\n      0x20\n      add\n      0x06\n      dup3\n      add\n      sload\n      dup2\n      mstore\n      0x20\n      add\n      0x07\n      dup3\n      add\n      sload\n      dup2\n      mstore\n      0x20\n      add\n      0x08\n      dup3\n      add\n      0x00\n      swap1\n      sload\n      swap1\n      0x0100\n      exp\n      swap1\n      div\n      0xff\n      and\n      iszero\n      iszero\n      iszero\n      iszero\n      dup2\n      mstore\n      0x20\n      add\n      0x08\n      dup3\n      add\n      0x01\n      swap1\n      sload\n      swap1\n      0x0100\n      exp\n      swap1\n      div\n      0xff\n      and\n      iszero\n      iszero\n      iszero\n      iszero\n      dup2\n      mstore\n      0x20\n      add\n      0x08\n      dup3\n      add\n      0x02\n      swap1\n      sload\n      swap1\n      0x0100\n      exp\n      swap1\n      div\n      0xff\n      and\n      iszero\n      iszero\n      iszero\n      iszero\n      dup2\n      mstore\n      pop\n      pop\n      swap1\n      pop\n        /* \"wwcc-contracts/contracts/wwccPool.sol\":7103:7107  true */\n      0x01\n        /* \"wwcc-contracts/contracts/wwccPool.sol\":7089:7093  pool */\n      dup2\n        /* \"wwcc-contracts/contracts/wwccPool.sol\":7089:7102  pool.finished */\n      0x0140\n      add\n        /* \"wwcc-contracts/contracts/wwccPool.sol\":7089:7107  pool.finished=true */\n      swap1\n      iszero\n      iszero\n      swap1\n      dup2\n      iszero\n      iszero\n      dup2\n      mstore\n      pop\n        /* \"wwcc-contracts/contracts/wwccPool.sol\":7085:7166  if (pool.finished=true){... */\n      iszero\n      tag_292\n      jumpi\n        /* \"wwcc-contracts/contracts/wwccPool.sol\":7125:7152  revert(\"pool has finished\") */\n      mload(0x40)\n      0x08c379a000000000000000000000000000000000000000000000000000000000\n      dup2\n      mstore\n      0x04\n      add\n      tag_293\n      swap1\n      tag_294\n      jump\t// in\n    tag_293:\n      mload(0x40)\n      dup1\n      swap2\n      sub\n      swap1\n      revert\n        /* \"wwcc-contracts/contracts/wwccPool.sol\":7085:7166  if (pool.finished=true){... */\n    tag_292:\n        /* \"wwcc-contracts/contracts/wwccPool.sol\":7178:7213  JoinerPicking[] memory separateBets */\n      0x00\n        /* \"wwcc-contracts/contracts/wwccPool.sol\":7216:7232  allScorePoolInfo */\n      0x05\n        /* \"wwcc-contracts/contracts/wwccPool.sol\":7216:7241  allScorePoolInfo[poolKey] */\n      0x00\n        /* \"wwcc-contracts/contracts/wwccPool.sol\":7233:7240  poolKey */\n      dup9\n        /* \"wwcc-contracts/contracts/wwccPool.sol\":7216:7241  allScorePoolInfo[poolKey] */\n      dup2\n      mstore\n      0x20\n      add\n      swap1\n      dup2\n      mstore\n      0x20\n      add\n      0x00\n      keccak256\n        /* \"wwcc-contracts/contracts/wwccPool.sol\":7216:7253  allScorePoolInfo[poolKey].separateBet */\n      0x00\n      add\n        /* \"wwcc-contracts/contracts/wwccPool.sol\":7178:7253  JoinerPicking[] memory separateBets = allScorePoolInfo[poolKey].separateBet */\n      dup1\n      sload\n      dup1\n      0x20\n      mul\n      0x20\n      add\n      mload(0x40)\n      swap1\n      dup2\n      add\n      0x40\n      mstore\n      dup1\n      swap3\n      swap2\n      swap1\n      dup2\n      dup2\n      mstore\n      0x20\n      add\n      0x00\n      swap1\n    tag_295:\n      dup3\n      dup3\n      lt\n      iszero\n      tag_296\n      jumpi\n      dup4\n      dup3\n      swap1\n      0x00\n      mstore\n      keccak256(0x00, 0x20)\n      swap1\n      0x07\n      mul\n      add\n      mload(0x40)\n      dup1\n      0xe0\n      add\n      0x40\n      mstore\n      swap1\n      dup2\n      0x00\n      dup3\n      add\n      sload\n      dup2\n      mstore\n      0x20\n      add\n      0x01\n      dup3\n      add\n      sload\n      dup2\n      mstore\n      0x20\n      add\n      0x02\n      dup3\n      add\n      sload\n      dup2\n      mstore\n      0x20\n      add\n      0x03\n      dup3\n      add\n      sload\n      dup2\n      mstore\n      0x20\n      add\n      0x04\n      dup3\n      add\n      0x00\n      swap1\n      sload\n      swap1\n      0x0100\n      exp\n      swap1\n      div\n      0xffffffffffffffffffffffffffffffffffffffff\n      and\n      0xffffffffffffffffffffffffffffffffffffffff\n      and\n      0xffffffffffffffffffffffffffffffffffffffff\n      and\n      dup2\n      mstore\n      0x20\n      add\n      0x05\n      dup3\n      add\n      dup1\n      sload\n      tag_298\n      swap1\n      tag_106\n      jump\t// in\n    tag_298:\n      dup1\n      0x1f\n      add\n      0x20\n      dup1\n      swap2\n      div\n      mul\n      0x20\n      add\n      mload(0x40)\n      swap1\n      dup2\n      add\n      0x40\n      mstore\n      dup1\n      swap3\n      swap2\n      swap1\n      dup2\n      dup2\n      mstore\n      0x20\n      add\n      dup3\n      dup1\n      sload\n      tag_299\n      swap1\n      tag_106\n      jump\t// in\n    tag_299:\n      dup1\n      iszero\n      tag_300\n      jumpi\n      dup1\n      0x1f\n      lt\n      tag_301\n      jumpi\n      0x0100\n      dup1\n      dup4\n      sload\n      div\n      mul\n      dup4\n      mstore\n      swap2\n      0x20\n      add\n      swap2\n      jump(tag_300)\n    tag_301:\n      dup3\n      add\n      swap2\n      swap1\n      0x00\n      mstore\n      keccak256(0x00, 0x20)\n      swap1\n    tag_302:\n      dup2\n      sload\n      dup2\n      mstore\n      swap1\n      0x01\n      add\n      swap1\n      0x20\n      add\n      dup1\n      dup4\n      gt\n      tag_302\n      jumpi\n      dup3\n      swap1\n      sub\n      0x1f\n      and\n      dup3\n      add\n      swap2\n    tag_300:\n      pop\n      pop\n      pop\n      pop\n      pop\n      dup2\n      mstore\n      0x20\n      add\n      0x06\n      dup3\n      add\n      0x00\n      swap1\n      sload\n      swap1\n      0x0100\n      exp\n      swap1\n      div\n      0xff\n      and\n      iszero\n      iszero\n      iszero\n      iszero\n      dup2\n      mstore\n      pop\n      pop\n      dup2\n      mstore\n      0x20\n      add\n      swap1\n      0x01\n      add\n      swap1\n      jump(tag_295)\n    tag_296:\n      pop\n      pop\n      pop\n      pop\n      swap1\n      pop\n        /* \"wwcc-contracts/contracts/wwccPool.sol\":7266:7289  uint256 allRewardAmount */\n      0x00\n        /* \"wwcc-contracts/contracts/wwccPool.sol\":7323:7398  (pool.sPool + pool.wPool+pool.lPool+pool.dPool + pool.basal.div(2)).div(20) */\n      tag_303\n        /* \"wwcc-contracts/contracts/wwccPool.sol\":7395:7397  20 */\n      0x14\n        /* \"wwcc-contracts/contracts/wwccPool.sol\":7372:7389  pool.basal.div(2) */\n      tag_304\n        /* \"wwcc-contracts/contracts/wwccPool.sol\":7387:7388  2 */\n      0x02\n        /* \"wwcc-contracts/contracts/wwccPool.sol\":7372:7376  pool */\n      dup7\n        /* \"wwcc-contracts/contracts/wwccPool.sol\":7372:7382  pool.basal */\n      0xe0\n      add\n      mload\n        /* \"wwcc-contracts/contracts/wwccPool.sol\":7372:7386  pool.basal.div */\n      tag_126\n      swap1\n        /* \"wwcc-contracts/contracts/wwccPool.sol\":7372:7389  pool.basal.div(2) */\n      swap2\n      swap1\n      0xffffffff\n      and\n      jump\t// in\n    tag_304:\n        /* \"wwcc-contracts/contracts/wwccPool.sol\":7359:7363  pool */\n      dup6\n        /* \"wwcc-contracts/contracts/wwccPool.sol\":7359:7369  pool.dPool */\n      0x80\n      add\n      mload\n        /* \"wwcc-contracts/contracts/wwccPool.sol\":7348:7352  pool */\n      dup7\n        /* \"wwcc-contracts/contracts/wwccPool.sol\":7348:7358  pool.lPool */\n      0xa0\n      add\n      mload\n        /* \"wwcc-contracts/contracts/wwccPool.sol\":7337:7341  pool */\n      dup8\n        /* \"wwcc-contracts/contracts/wwccPool.sol\":7337:7347  pool.wPool */\n      0x60\n      add\n      mload\n        /* \"wwcc-contracts/contracts/wwccPool.sol\":7324:7328  pool */\n      dup9\n        /* \"wwcc-contracts/contracts/wwccPool.sol\":7324:7334  pool.sPool */\n      0xc0\n      add\n      mload\n        /* \"wwcc-contracts/contracts/wwccPool.sol\":7324:7347  pool.sPool + pool.wPool */\n      tag_305\n      swap2\n      swap1\n      tag_21\n      jump\t// in\n    tag_305:\n        /* \"wwcc-contracts/contracts/wwccPool.sol\":7324:7358  pool.sPool + pool.wPool+pool.lPool */\n      tag_306\n      swap2\n      swap1\n      tag_21\n      jump\t// in\n    tag_306:\n        /* \"wwcc-contracts/contracts/wwccPool.sol\":7324:7369  pool.sPool + pool.wPool+pool.lPool+pool.dPool */\n      tag_307\n      swap2\n      swap1\n      tag_21\n      jump\t// in\n    tag_307:\n        /* \"wwcc-contracts/contracts/wwccPool.sol\":7324:7389  pool.sPool + pool.wPool+pool.lPool+pool.dPool + pool.basal.div(2) */\n      tag_308\n      swap2\n      swap1\n      tag_21\n      jump\t// in\n    tag_308:\n        /* \"wwcc-contracts/contracts/wwccPool.sol\":7323:7394  (pool.sPool + pool.wPool+pool.lPool+pool.dPool + pool.basal.div(2)).div */\n      tag_126\n      swap1\n        /* \"wwcc-contracts/contracts/wwccPool.sol\":7323:7398  (pool.sPool + pool.wPool+pool.lPool+pool.dPool + pool.basal.div(2)).div(20) */\n      swap2\n      swap1\n      0xffffffff\n      and\n      jump\t// in\n    tag_303:\n        /* \"wwcc-contracts/contracts/wwccPool.sol\":7306:7319  nextBasalLast */\n      0x01\n      0x00\n        /* \"wwcc-contracts/contracts/wwccPool.sol\":7306:7398  nextBasalLast += (pool.sPool + pool.wPool+pool.lPool+pool.dPool + pool.basal.div(2)).div(20) */\n      dup3\n      dup3\n      sload\n      tag_309\n      swap2\n      swap1\n      tag_21\n      jump\t// in\n    tag_309:\n      swap3\n      pop\n      pop\n      dup2\n      swap1\n      sstore\n      pop\n        /* \"wwcc-contracts/contracts/wwccPool.sol\":7572:7578  uint j */\n      0x00\n        /* \"wwcc-contracts/contracts/wwccPool.sol\":7550:10067  for (... */\n    tag_310:\n        /* \"wwcc-contracts/contracts/wwccPool.sol\":7625:7626  1 */\n      0x01\n        /* \"wwcc-contracts/contracts/wwccPool.sol\":7605:7617  separateBets */\n      dup4\n        /* \"wwcc-contracts/contracts/wwccPool.sol\":7605:7624  separateBets.length */\n      mload\n        /* \"wwcc-contracts/contracts/wwccPool.sol\":7605:7626  separateBets.length-1 */\n      tag_313\n      swap2\n      swap1\n      tag_138\n      jump\t// in\n    tag_313:\n        /* \"wwcc-contracts/contracts/wwccPool.sol\":7600:7601  j */\n      dup2\n        /* \"wwcc-contracts/contracts/wwccPool.sol\":7600:7626  j <= separateBets.length-1 */\n      gt\n        /* \"wwcc-contracts/contracts/wwccPool.sol\":7550:10067  for (... */\n      tag_311\n      jumpi\n        /* \"wwcc-contracts/contracts/wwccPool.sol\":7716:7721  false */\n      0x00\n        /* \"wwcc-contracts/contracts/wwccPool.sol\":7689:7701  separateBets */\n      dup4\n        /* \"wwcc-contracts/contracts/wwccPool.sol\":7702:7703  j */\n      dup3\n        /* \"wwcc-contracts/contracts/wwccPool.sol\":7689:7704  separateBets[j] */\n      dup2\n      mload\n      dup2\n      lt\n      tag_314\n      jumpi\n      tag_315\n      tag_316\n      jump\t// in\n    tag_315:\n    tag_314:\n      0x20\n      mul\n      0x20\n      add\n      add\n      mload\n        /* \"wwcc-contracts/contracts/wwccPool.sol\":7689:7713  separateBets[j].finished */\n      0xc0\n      add\n        /* \"wwcc-contracts/contracts/wwccPool.sol\":7689:7721  separateBets[j].finished = false */\n      swap1\n      iszero\n      iszero\n      swap1\n      dup2\n      iszero\n      iszero\n      dup2\n      mstore\n      pop\n        /* \"wwcc-contracts/contracts/wwccPool.sol\":7686:10047  if(separateBets[j].finished = false){... */\n      iszero\n      tag_317\n      jumpi\n        /* \"wwcc-contracts/contracts/wwccPool.sol\":7771:7772  2 */\n      0x02\n        /* \"wwcc-contracts/contracts/wwccPool.sol\":7749:7761  separateBets */\n      dup4\n        /* \"wwcc-contracts/contracts/wwccPool.sol\":7762:7763  j */\n      dup3\n        /* \"wwcc-contracts/contracts/wwccPool.sol\":7749:7764  separateBets[j] */\n      dup2\n      mload\n      dup2\n      lt\n      tag_318\n      jumpi\n      tag_319\n      tag_316\n      jump\t// in\n    tag_319:\n    tag_318:\n      0x20\n      mul\n      0x20\n      add\n      add\n      mload\n        /* \"wwcc-contracts/contracts/wwccPool.sol\":7749:7769  separateBets[j].kind */\n      0x20\n      add\n      mload\n        /* \"wwcc-contracts/contracts/wwccPool.sol\":7749:7772  separateBets[j].kind==2 */\n      eq\n        /* \"wwcc-contracts/contracts/wwccPool.sol\":7746:10027  if(separateBets[j].kind==2){... */\n      iszero\n      tag_320\n      jumpi\n        /* \"wwcc-contracts/contracts/wwccPool.sol\":7819:7868  (pool.sPool + pool.basal.div(2)).mul(85).div(100) */\n      tag_321\n        /* \"wwcc-contracts/contracts/wwccPool.sol\":7864:7867  100 */\n      0x64\n        /* \"wwcc-contracts/contracts/wwccPool.sol\":7819:7859  (pool.sPool + pool.basal.div(2)).mul(85) */\n      tag_322\n        /* \"wwcc-contracts/contracts/wwccPool.sol\":7856:7858  85 */\n      0x55\n        /* \"wwcc-contracts/contracts/wwccPool.sol\":7833:7850  pool.basal.div(2) */\n      tag_323\n        /* \"wwcc-contracts/contracts/wwccPool.sol\":7848:7849  2 */\n      0x02\n        /* \"wwcc-contracts/contracts/wwccPool.sol\":7833:7837  pool */\n      dup10\n        /* \"wwcc-contracts/contracts/wwccPool.sol\":7833:7843  pool.basal */\n      0xe0\n      add\n      mload\n        /* \"wwcc-contracts/contracts/wwccPool.sol\":7833:7847  pool.basal.div */\n      tag_126\n      swap1\n        /* \"wwcc-contracts/contracts/wwccPool.sol\":7833:7850  pool.basal.div(2) */\n      swap2\n      swap1\n      0xffffffff\n      and\n      jump\t// in\n    tag_323:\n        /* \"wwcc-contracts/contracts/wwccPool.sol\":7820:7824  pool */\n      dup9\n        /* \"wwcc-contracts/contracts/wwccPool.sol\":7820:7830  pool.sPool */\n      0xc0\n      add\n      mload\n        /* \"wwcc-contracts/contracts/wwccPool.sol\":7820:7850  pool.sPool + pool.basal.div(2) */\n      tag_324\n      swap2\n      swap1\n      tag_21\n      jump\t// in\n    tag_324:\n        /* \"wwcc-contracts/contracts/wwccPool.sol\":7819:7855  (pool.sPool + pool.basal.div(2)).mul */\n      tag_19\n      swap1\n        /* \"wwcc-contracts/contracts/wwccPool.sol\":7819:7859  (pool.sPool + pool.basal.div(2)).mul(85) */\n      swap2\n      swap1\n      0xffffffff\n      and\n      jump\t// in\n    tag_322:\n        /* \"wwcc-contracts/contracts/wwccPool.sol\":7819:7863  (pool.sPool + pool.basal.div(2)).mul(85).div */\n      tag_126\n      swap1\n        /* \"wwcc-contracts/contracts/wwccPool.sol\":7819:7868  (pool.sPool + pool.basal.div(2)).mul(85).div(100) */\n      swap2\n      swap1\n      0xffffffff\n      and\n      jump\t// in\n    tag_321:\n        /* \"wwcc-contracts/contracts/wwccPool.sol\":7801:7868  allRewardAmount = (pool.sPool + pool.basal.div(2)).mul(85).div(100) */\n      swap2\n      pop\n        /* \"wwcc-contracts/contracts/wwccPool.sol\":7923:7932  homeScore */\n      dup8\n        /* \"wwcc-contracts/contracts/wwccPool.sol\":7896:7908  separateBets */\n      dup4\n        /* \"wwcc-contracts/contracts/wwccPool.sol\":7909:7910  j */\n      dup3\n        /* \"wwcc-contracts/contracts/wwccPool.sol\":7896:7911  separateBets[j] */\n      dup2\n      mload\n      dup2\n      lt\n      tag_325\n      jumpi\n      tag_326\n      tag_316\n      jump\t// in\n    tag_326:\n    tag_325:\n      0x20\n      mul\n      0x20\n      add\n      add\n      mload\n        /* \"wwcc-contracts/contracts/wwccPool.sol\":7896:7921  separateBets[j].homeScore */\n      0x40\n      add\n      mload\n        /* \"wwcc-contracts/contracts/wwccPool.sol\":7896:7932  separateBets[j].homeScore==homeScore */\n      eq\n        /* \"wwcc-contracts/contracts/wwccPool.sol\":7896:7974  separateBets[j].homeScore==homeScore && separateBets[j].visitScore==visitScore */\n      dup1\n      iszero\n      tag_327\n      jumpi\n      pop\n        /* \"wwcc-contracts/contracts/wwccPool.sol\":7964:7974  visitScore */\n      dup7\n        /* \"wwcc-contracts/contracts/wwccPool.sol\":7936:7948  separateBets */\n      dup4\n        /* \"wwcc-contracts/contracts/wwccPool.sol\":7949:7950  j */\n      dup3\n        /* \"wwcc-contracts/contracts/wwccPool.sol\":7936:7951  separateBets[j] */\n      dup2\n      mload\n      dup2\n      lt\n      tag_328\n      jumpi\n      tag_329\n      tag_316\n      jump\t// in\n    tag_329:\n    tag_328:\n      0x20\n      mul\n      0x20\n      add\n      add\n      mload\n        /* \"wwcc-contracts/contracts/wwccPool.sol\":7936:7962  separateBets[j].visitScore */\n      0x60\n      add\n      mload\n        /* \"wwcc-contracts/contracts/wwccPool.sol\":7936:7974  separateBets[j].visitScore==visitScore */\n      eq\n        /* \"wwcc-contracts/contracts/wwccPool.sol\":7896:7974  separateBets[j].homeScore==homeScore && separateBets[j].visitScore==visitScore */\n    tag_327:\n        /* \"wwcc-contracts/contracts/wwccPool.sol\":7892:8690  if (separateBets[j].homeScore==homeScore && separateBets[j].visitScore==visitScore){... */\n      iszero\n      tag_330\n      jumpi\n        /* \"wwcc-contracts/contracts/wwccPool.sol\":8003:8032  uint256 singleScorePoolAmount */\n      0x00\n        /* \"wwcc-contracts/contracts/wwccPool.sol\":8035:8050  singleScorePool */\n      0x06\n        /* \"wwcc-contracts/contracts/wwccPool.sol\":8051:8063  separateBets */\n      dup5\n        /* \"wwcc-contracts/contracts/wwccPool.sol\":8064:8065  j */\n      dup4\n        /* \"wwcc-contracts/contracts/wwccPool.sol\":8051:8066  separateBets[j] */\n      dup2\n      mload\n      dup2\n      lt\n      tag_331\n      jumpi\n      tag_332\n      tag_316\n      jump\t// in\n    tag_332:\n    tag_331:\n      0x20\n      mul\n      0x20\n      add\n      add\n      mload\n        /* \"wwcc-contracts/contracts/wwccPool.sol\":8051:8077  separateBets[j].pickingKey */\n      0xa0\n      add\n      mload\n        /* \"wwcc-contracts/contracts/wwccPool.sol\":8035:8078  singleScorePool[separateBets[j].pickingKey] */\n      mload(0x40)\n      tag_333\n      swap2\n      swap1\n      tag_180\n      jump\t// in\n    tag_333:\n      swap1\n      dup2\n      mstore\n      0x20\n      add\n      mload(0x40)\n      dup1\n      swap2\n      sub\n      swap1\n      keccak256\n      sload\n        /* \"wwcc-contracts/contracts/wwccPool.sol\":8003:8078  uint256 singleScorePoolAmount = singleScorePool[separateBets[j].pickingKey] */\n      swap1\n      pop\n        /* \"wwcc-contracts/contracts/wwccPool.sol\":8106:8126  uint256 rewardAmount */\n      0x00\n        /* \"wwcc-contracts/contracts/wwccPool.sol\":8173:8194  singleScorePoolAmount */\n      dup2\n        /* \"wwcc-contracts/contracts/wwccPool.sol\":8147:8159  separateBets */\n      dup6\n        /* \"wwcc-contracts/contracts/wwccPool.sol\":8160:8161  j */\n      dup5\n        /* \"wwcc-contracts/contracts/wwccPool.sol\":8147:8162  separateBets[j] */\n      dup2\n      mload\n      dup2\n      lt\n      tag_334\n      jumpi\n      tag_335\n      tag_316\n      jump\t// in\n    tag_335:\n    tag_334:\n      0x20\n      mul\n      0x20\n      add\n      add\n      mload\n        /* \"wwcc-contracts/contracts/wwccPool.sol\":8147:8169  separateBets[j].weight */\n      0x00\n      add\n      mload\n        /* \"wwcc-contracts/contracts/wwccPool.sol\":8129:8144  allRewardAmount */\n      dup6\n        /* \"wwcc-contracts/contracts/wwccPool.sol\":8129:8169  allRewardAmount * separateBets[j].weight */\n      tag_336\n      swap2\n      swap1\n      tag_90\n      jump\t// in\n    tag_336:\n        /* \"wwcc-contracts/contracts/wwccPool.sol\":8129:8194  allRewardAmount * separateBets[j].weight /  singleScorePoolAmount */\n      tag_337\n      swap2\n      swap1\n      tag_92\n      jump\t// in\n    tag_337:\n        /* \"wwcc-contracts/contracts/wwccPool.sol\":8106:8194  uint256 rewardAmount = allRewardAmount * separateBets[j].weight /  singleScorePoolAmount */\n      swap1\n      pop\n        /* \"wwcc-contracts/contracts/wwccPool.sol\":8566:8578  rewardAmount */\n      dup1\n        /* \"wwcc-contracts/contracts/wwccPool.sol\":8528:8538  voteAmount */\n      0x03\n        /* \"wwcc-contracts/contracts/wwccPool.sol\":8528:8562  voteAmount[separateBets[j].joiner] */\n      0x00\n        /* \"wwcc-contracts/contracts/wwccPool.sol\":8539:8551  separateBets */\n      dup8\n        /* \"wwcc-contracts/contracts/wwccPool.sol\":8552:8553  j */\n      dup7\n        /* \"wwcc-contracts/contracts/wwccPool.sol\":8539:8554  separateBets[j] */\n      dup2\n      mload\n      dup2\n      lt\n      tag_338\n      jumpi\n      tag_339\n      tag_316\n      jump\t// in\n    tag_339:\n    tag_338:\n      0x20\n      mul\n      0x20\n      add\n      add\n      mload\n        /* \"wwcc-contracts/contracts/wwccPool.sol\":8539:8561  separateBets[j].joiner */\n      0x80\n      add\n      mload\n        /* \"wwcc-contracts/contracts/wwccPool.sol\":8528:8562  voteAmount[separateBets[j].joiner] */\n      0xffffffffffffffffffffffffffffffffffffffff\n      and\n      0xffffffffffffffffffffffffffffffffffffffff\n      and\n      dup2\n      mstore\n      0x20\n      add\n      swap1\n      dup2\n      mstore\n      0x20\n      add\n      0x00\n      keccak256\n      0x00\n        /* \"wwcc-contracts/contracts/wwccPool.sol\":8528:8578  voteAmount[separateBets[j].joiner] += rewardAmount */\n      dup3\n      dup3\n      sload\n      tag_340\n      swap2\n      swap1\n      tag_21\n      jump\t// in\n    tag_340:\n      swap3\n      pop\n      pop\n      dup2\n      swap1\n      sstore\n      pop\n        /* \"wwcc-contracts/contracts/wwccPool.sol\":8633:8637  true */\n      0x01\n        /* \"wwcc-contracts/contracts/wwccPool.sol\":8606:8618  separateBets */\n      dup6\n        /* \"wwcc-contracts/contracts/wwccPool.sol\":8619:8620  j */\n      dup5\n        /* \"wwcc-contracts/contracts/wwccPool.sol\":8606:8621  separateBets[j] */\n      dup2\n      mload\n      dup2\n      lt\n      tag_341\n      jumpi\n      tag_342\n      tag_316\n      jump\t// in\n    tag_342:\n    tag_341:\n      0x20\n      mul\n      0x20\n      add\n      add\n      mload\n        /* \"wwcc-contracts/contracts/wwccPool.sol\":8606:8630  separateBets[j].finished */\n      0xc0\n      add\n        /* \"wwcc-contracts/contracts/wwccPool.sol\":8606:8637  separateBets[j].finished = true */\n      swap1\n      iszero\n      iszero\n      swap1\n      dup2\n      iszero\n      iszero\n      dup2\n      mstore\n      pop\n      pop\n        /* \"wwcc-contracts/contracts/wwccPool.sol\":7975:8690  {... */\n      pop\n      pop\n        /* \"wwcc-contracts/contracts/wwccPool.sol\":7892:8690  if (separateBets[j].homeScore==homeScore && separateBets[j].visitScore==visitScore){... */\n    tag_330:\n        /* \"wwcc-contracts/contracts/wwccPool.sol\":7746:10027  if(separateBets[j].kind==2){... */\n      jump(tag_343)\n    tag_320:\n        /* \"wwcc-contracts/contracts/wwccPool.sol\":8765:8771  result */\n      dup6\n        /* \"wwcc-contracts/contracts/wwccPool.sol\":8743:8755  separateBets */\n      dup4\n        /* \"wwcc-contracts/contracts/wwccPool.sol\":8756:8757  j */\n      dup3\n        /* \"wwcc-contracts/contracts/wwccPool.sol\":8743:8758  separateBets[j] */\n      dup2\n      mload\n      dup2\n      lt\n      tag_344\n      jumpi\n      tag_345\n      tag_316\n      jump\t// in\n    tag_345:\n    tag_344:\n      0x20\n      mul\n      0x20\n      add\n      add\n      mload\n        /* \"wwcc-contracts/contracts/wwccPool.sol\":8743:8763  separateBets[j].kind */\n      0x20\n      add\n      mload\n        /* \"wwcc-contracts/contracts/wwccPool.sol\":8743:8771  separateBets[j].kind==result */\n      eq\n        /* \"wwcc-contracts/contracts/wwccPool.sol\":8740:10005  if(separateBets[j].kind==result){... */\n      iszero\n      tag_346\n      jumpi\n        /* \"wwcc-contracts/contracts/wwccPool.sol\":8818:8888  (pool.wPool+pool.lPool+pool.dPool+ pool.basal.div(2)).mul(85).div(100) */\n      tag_347\n        /* \"wwcc-contracts/contracts/wwccPool.sol\":8884:8887  100 */\n      0x64\n        /* \"wwcc-contracts/contracts/wwccPool.sol\":8818:8879  (pool.wPool+pool.lPool+pool.dPool+ pool.basal.div(2)).mul(85) */\n      tag_348\n        /* \"wwcc-contracts/contracts/wwccPool.sol\":8876:8878  85 */\n      0x55\n        /* \"wwcc-contracts/contracts/wwccPool.sol\":8853:8870  pool.basal.div(2) */\n      tag_349\n        /* \"wwcc-contracts/contracts/wwccPool.sol\":8868:8869  2 */\n      0x02\n        /* \"wwcc-contracts/contracts/wwccPool.sol\":8853:8857  pool */\n      dup10\n        /* \"wwcc-contracts/contracts/wwccPool.sol\":8853:8863  pool.basal */\n      0xe0\n      add\n      mload\n        /* \"wwcc-contracts/contracts/wwccPool.sol\":8853:8867  pool.basal.div */\n      tag_126\n      swap1\n        /* \"wwcc-contracts/contracts/wwccPool.sol\":8853:8870  pool.basal.div(2) */\n      swap2\n      swap1\n      0xffffffff\n      and\n      jump\t// in\n    tag_349:\n        /* \"wwcc-contracts/contracts/wwccPool.sol\":8841:8845  pool */\n      dup9\n        /* \"wwcc-contracts/contracts/wwccPool.sol\":8841:8851  pool.dPool */\n      0x80\n      add\n      mload\n        /* \"wwcc-contracts/contracts/wwccPool.sol\":8830:8834  pool */\n      dup10\n        /* \"wwcc-contracts/contracts/wwccPool.sol\":8830:8840  pool.lPool */\n      0xa0\n      add\n      mload\n        /* \"wwcc-contracts/contracts/wwccPool.sol\":8819:8823  pool */\n      dup11\n        /* \"wwcc-contracts/contracts/wwccPool.sol\":8819:8829  pool.wPool */\n      0x60\n      add\n      mload\n        /* \"wwcc-contracts/contracts/wwccPool.sol\":8819:8840  pool.wPool+pool.lPool */\n      tag_350\n      swap2\n      swap1\n      tag_21\n      jump\t// in\n    tag_350:\n        /* \"wwcc-contracts/contracts/wwccPool.sol\":8819:8851  pool.wPool+pool.lPool+pool.dPool */\n      tag_351\n      swap2\n      swap1\n      tag_21\n      jump\t// in\n    tag_351:\n        /* \"wwcc-contracts/contracts/wwccPool.sol\":8819:8870  pool.wPool+pool.lPool+pool.dPool+ pool.basal.div(2) */\n      tag_352\n      swap2\n      swap1\n      tag_21\n      jump\t// in\n    tag_352:\n        /* \"wwcc-contracts/contracts/wwccPool.sol\":8818:8875  (pool.wPool+pool.lPool+pool.dPool+ pool.basal.div(2)).mul */\n      tag_19\n      swap1\n        /* \"wwcc-contracts/contracts/wwccPool.sol\":8818:8879  (pool.wPool+pool.lPool+pool.dPool+ pool.basal.div(2)).mul(85) */\n      swap2\n      swap1\n      0xffffffff\n      and\n      jump\t// in\n    tag_348:\n        /* \"wwcc-contracts/contracts/wwccPool.sol\":8818:8883  (pool.wPool+pool.lPool+pool.dPool+ pool.basal.div(2)).mul(85).div */\n      tag_126\n      swap1\n        /* \"wwcc-contracts/contracts/wwccPool.sol\":8818:8888  (pool.wPool+pool.lPool+pool.dPool+ pool.basal.div(2)).mul(85).div(100) */\n      swap2\n      swap1\n      0xffffffff\n      and\n      jump\t// in\n    tag_347:\n        /* \"wwcc-contracts/contracts/wwccPool.sol\":8800:8888  allRewardAmount = (pool.wPool+pool.lPool+pool.dPool+ pool.basal.div(2)).mul(85).div(100) */\n      swap2\n      pop\n        /* \"wwcc-contracts/contracts/wwccPool.sol\":8916:8938  uint256 pickPoolAmount */\n      0x00\n        /* \"wwcc-contracts/contracts/wwccPool.sol\":8998:8999  0 */\n      dup1\n        /* \"wwcc-contracts/contracts/wwccPool.sol\":8974:8986  separateBets */\n      dup5\n        /* \"wwcc-contracts/contracts/wwccPool.sol\":8987:8988  j */\n      dup4\n        /* \"wwcc-contracts/contracts/wwccPool.sol\":8974:8989  separateBets[j] */\n      dup2\n      mload\n      dup2\n      lt\n      tag_353\n      jumpi\n      tag_354\n      tag_316\n      jump\t// in\n    tag_354:\n    tag_353:\n      0x20\n      mul\n      0x20\n      add\n      add\n      mload\n        /* \"wwcc-contracts/contracts/wwccPool.sol\":8974:8994  separateBets[j].kind */\n      0x20\n      add\n      mload\n        /* \"wwcc-contracts/contracts/wwccPool.sol\":8974:8999  separateBets[j].kind == 0 */\n      eq\n        /* \"wwcc-contracts/contracts/wwccPool.sol\":8970:9105  if (separateBets[j].kind == 0){... */\n      iszero\n      tag_355\n      jumpi\n        /* \"wwcc-contracts/contracts/wwccPool.sol\":9049:9076  pool.lPool.mul(85).div(100) */\n      tag_356\n        /* \"wwcc-contracts/contracts/wwccPool.sol\":9072:9075  100 */\n      0x64\n        /* \"wwcc-contracts/contracts/wwccPool.sol\":9049:9067  pool.lPool.mul(85) */\n      tag_357\n        /* \"wwcc-contracts/contracts/wwccPool.sol\":9064:9066  85 */\n      0x55\n        /* \"wwcc-contracts/contracts/wwccPool.sol\":9049:9053  pool */\n      dup9\n        /* \"wwcc-contracts/contracts/wwccPool.sol\":9049:9059  pool.lPool */\n      0xa0\n      add\n      mload\n        /* \"wwcc-contracts/contracts/wwccPool.sol\":9049:9063  pool.lPool.mul */\n      tag_19\n      swap1\n        /* \"wwcc-contracts/contracts/wwccPool.sol\":9049:9067  pool.lPool.mul(85) */\n      swap2\n      swap1\n      0xffffffff\n      and\n      jump\t// in\n    tag_357:\n        /* \"wwcc-contracts/contracts/wwccPool.sol\":9049:9071  pool.lPool.mul(85).div */\n      tag_126\n      swap1\n        /* \"wwcc-contracts/contracts/wwccPool.sol\":9049:9076  pool.lPool.mul(85).div(100) */\n      swap2\n      swap1\n      0xffffffff\n      and\n      jump\t// in\n    tag_356:\n        /* \"wwcc-contracts/contracts/wwccPool.sol\":9032:9076  pickPoolAmount = pool.lPool.mul(85).div(100) */\n      swap1\n      pop\n        /* \"wwcc-contracts/contracts/wwccPool.sol\":8970:9105  if (separateBets[j].kind == 0){... */\n    tag_355:\n        /* \"wwcc-contracts/contracts/wwccPool.sol\":9160:9161  1 */\n      0x01\n        /* \"wwcc-contracts/contracts/wwccPool.sol\":9136:9148  separateBets */\n      dup5\n        /* \"wwcc-contracts/contracts/wwccPool.sol\":9149:9150  j */\n      dup4\n        /* \"wwcc-contracts/contracts/wwccPool.sol\":9136:9151  separateBets[j] */\n      dup2\n      mload\n      dup2\n      lt\n      tag_358\n      jumpi\n      tag_359\n      tag_316\n      jump\t// in\n    tag_359:\n    tag_358:\n      0x20\n      mul\n      0x20\n      add\n      add\n      mload\n        /* \"wwcc-contracts/contracts/wwccPool.sol\":9136:9156  separateBets[j].kind */\n      0x20\n      add\n      mload\n        /* \"wwcc-contracts/contracts/wwccPool.sol\":9136:9161  separateBets[j].kind == 1 */\n      eq\n        /* \"wwcc-contracts/contracts/wwccPool.sol\":9132:9267  if (separateBets[j].kind == 1){... */\n      iszero\n      tag_360\n      jumpi\n        /* \"wwcc-contracts/contracts/wwccPool.sol\":9211:9238  pool.dPool.mul(85).div(100) */\n      tag_361\n        /* \"wwcc-contracts/contracts/wwccPool.sol\":9234:9237  100 */\n      0x64\n        /* \"wwcc-contracts/contracts/wwccPool.sol\":9211:9229  pool.dPool.mul(85) */\n      tag_362\n        /* \"wwcc-contracts/contracts/wwccPool.sol\":9226:9228  85 */\n      0x55\n        /* \"wwcc-contracts/contracts/wwccPool.sol\":9211:9215  pool */\n      dup9\n        /* \"wwcc-contracts/contracts/wwccPool.sol\":9211:9221  pool.dPool */\n      0x80\n      add\n      mload\n        /* \"wwcc-contracts/contracts/wwccPool.sol\":9211:9225  pool.dPool.mul */\n      tag_19\n      swap1\n        /* \"wwcc-contracts/contracts/wwccPool.sol\":9211:9229  pool.dPool.mul(85) */\n      swap2\n      swap1\n      0xffffffff\n      and\n      jump\t// in\n    tag_362:\n        /* \"wwcc-contracts/contracts/wwccPool.sol\":9211:9233  pool.dPool.mul(85).div */\n      tag_126\n      swap1\n        /* \"wwcc-contracts/contracts/wwccPool.sol\":9211:9238  pool.dPool.mul(85).div(100) */\n      swap2\n      swap1\n      0xffffffff\n      and\n      jump\t// in\n    tag_361:\n        /* \"wwcc-contracts/contracts/wwccPool.sol\":9194:9238  pickPoolAmount = pool.dPool.mul(85).div(100) */\n      swap1\n      pop\n        /* \"wwcc-contracts/contracts/wwccPool.sol\":9132:9267  if (separateBets[j].kind == 1){... */\n    tag_360:\n        /* \"wwcc-contracts/contracts/wwccPool.sol\":9322:9323  3 */\n      0x03\n        /* \"wwcc-contracts/contracts/wwccPool.sol\":9298:9310  separateBets */\n      dup5\n        /* \"wwcc-contracts/contracts/wwccPool.sol\":9311:9312  j */\n      dup4\n        /* \"wwcc-contracts/contracts/wwccPool.sol\":9298:9313  separateBets[j] */\n      dup2\n      mload\n      dup2\n      lt\n      tag_363\n      jumpi\n      tag_364\n      tag_316\n      jump\t// in\n    tag_364:\n    tag_363:\n      0x20\n      mul\n      0x20\n      add\n      add\n      mload\n        /* \"wwcc-contracts/contracts/wwccPool.sol\":9298:9318  separateBets[j].kind */\n      0x20\n      add\n      mload\n        /* \"wwcc-contracts/contracts/wwccPool.sol\":9298:9323  separateBets[j].kind == 3 */\n      eq\n        /* \"wwcc-contracts/contracts/wwccPool.sol\":9294:9429  if (separateBets[j].kind == 3){... */\n      iszero\n      tag_365\n      jumpi\n        /* \"wwcc-contracts/contracts/wwccPool.sol\":9373:9400  pool.wPool.mul(85).div(100) */\n      tag_366\n        /* \"wwcc-contracts/contracts/wwccPool.sol\":9396:9399  100 */\n      0x64\n        /* \"wwcc-contracts/contracts/wwccPool.sol\":9373:9391  pool.wPool.mul(85) */\n      tag_367\n        /* \"wwcc-contracts/contracts/wwccPool.sol\":9388:9390  85 */\n      0x55\n        /* \"wwcc-contracts/contracts/wwccPool.sol\":9373:9377  pool */\n      dup9\n        /* \"wwcc-contracts/contracts/wwccPool.sol\":9373:9383  pool.wPool */\n      0x60\n      add\n      mload\n        /* \"wwcc-contracts/contracts/wwccPool.sol\":9373:9387  pool.wPool.mul */\n      tag_19\n      swap1\n        /* \"wwcc-contracts/contracts/wwccPool.sol\":9373:9391  pool.wPool.mul(85) */\n      swap2\n      swap1\n      0xffffffff\n      and\n      jump\t// in\n    tag_367:\n        /* \"wwcc-contracts/contracts/wwccPool.sol\":9373:9395  pool.wPool.mul(85).div */\n      tag_126\n      swap1\n        /* \"wwcc-contracts/contracts/wwccPool.sol\":9373:9400  pool.wPool.mul(85).div(100) */\n      swap2\n      swap1\n      0xffffffff\n      and\n      jump\t// in\n    tag_366:\n        /* \"wwcc-contracts/contracts/wwccPool.sol\":9356:9400  pickPoolAmount = pool.wPool.mul(85).div(100) */\n      swap1\n      pop\n        /* \"wwcc-contracts/contracts/wwccPool.sol\":9294:9429  if (separateBets[j].kind == 3){... */\n    tag_365:\n        /* \"wwcc-contracts/contracts/wwccPool.sol\":9456:9476  uint256 rewardAmount */\n      0x00\n        /* \"wwcc-contracts/contracts/wwccPool.sol\":9523:9537  pickPoolAmount */\n      dup2\n        /* \"wwcc-contracts/contracts/wwccPool.sol\":9497:9509  separateBets */\n      dup6\n        /* \"wwcc-contracts/contracts/wwccPool.sol\":9510:9511  j */\n      dup5\n        /* \"wwcc-contracts/contracts/wwccPool.sol\":9497:9512  separateBets[j] */\n      dup2\n      mload\n      dup2\n      lt\n      tag_368\n      jumpi\n      tag_369\n      tag_316\n      jump\t// in\n    tag_369:\n    tag_368:\n      0x20\n      mul\n      0x20\n      add\n      add\n      mload\n        /* \"wwcc-contracts/contracts/wwccPool.sol\":9497:9519  separateBets[j].weight */\n      0x00\n      add\n      mload\n        /* \"wwcc-contracts/contracts/wwccPool.sol\":9479:9494  allRewardAmount */\n      dup6\n        /* \"wwcc-contracts/contracts/wwccPool.sol\":9479:9519  allRewardAmount * separateBets[j].weight */\n      tag_370\n      swap2\n      swap1\n      tag_90\n      jump\t// in\n    tag_370:\n        /* \"wwcc-contracts/contracts/wwccPool.sol\":9479:9537  allRewardAmount * separateBets[j].weight /  pickPoolAmount */\n      tag_371\n      swap2\n      swap1\n      tag_92\n      jump\t// in\n    tag_371:\n        /* \"wwcc-contracts/contracts/wwccPool.sol\":9456:9537  uint256 rewardAmount = allRewardAmount * separateBets[j].weight /  pickPoolAmount */\n      swap1\n      pop\n        /* \"wwcc-contracts/contracts/wwccPool.sol\":9909:9921  rewardAmount */\n      dup1\n        /* \"wwcc-contracts/contracts/wwccPool.sol\":9871:9881  voteAmount */\n      0x03\n        /* \"wwcc-contracts/contracts/wwccPool.sol\":9871:9905  voteAmount[separateBets[j].joiner] */\n      0x00\n        /* \"wwcc-contracts/contracts/wwccPool.sol\":9882:9894  separateBets */\n      dup8\n        /* \"wwcc-contracts/contracts/wwccPool.sol\":9895:9896  j */\n      dup7\n        /* \"wwcc-contracts/contracts/wwccPool.sol\":9882:9897  separateBets[j] */\n      dup2\n      mload\n      dup2\n      lt\n      tag_372\n      jumpi\n      tag_373\n      tag_316\n      jump\t// in\n    tag_373:\n    tag_372:\n      0x20\n      mul\n      0x20\n      add\n      add\n      mload\n        /* \"wwcc-contracts/contracts/wwccPool.sol\":9882:9904  separateBets[j].joiner */\n      0x80\n      add\n      mload\n        /* \"wwcc-contracts/contracts/wwccPool.sol\":9871:9905  voteAmount[separateBets[j].joiner] */\n      0xffffffffffffffffffffffffffffffffffffffff\n      and\n      0xffffffffffffffffffffffffffffffffffffffff\n      and\n      dup2\n      mstore\n      0x20\n      add\n      swap1\n      dup2\n      mstore\n      0x20\n      add\n      0x00\n      keccak256\n      0x00\n        /* \"wwcc-contracts/contracts/wwccPool.sol\":9871:9921  voteAmount[separateBets[j].joiner] += rewardAmount */\n      dup3\n      dup3\n      sload\n      tag_374\n      swap2\n      swap1\n      tag_21\n      jump\t// in\n    tag_374:\n      swap3\n      pop\n      pop\n      dup2\n      swap1\n      sstore\n      pop\n        /* \"wwcc-contracts/contracts/wwccPool.sol\":9976:9980  true */\n      0x01\n        /* \"wwcc-contracts/contracts/wwccPool.sol\":9949:9961  separateBets */\n      dup6\n        /* \"wwcc-contracts/contracts/wwccPool.sol\":9962:9963  j */\n      dup5\n        /* \"wwcc-contracts/contracts/wwccPool.sol\":9949:9964  separateBets[j] */\n      dup2\n      mload\n      dup2\n      lt\n      tag_375\n      jumpi\n      tag_376\n      tag_316\n      jump\t// in\n    tag_376:\n    tag_375:\n      0x20\n      mul\n      0x20\n      add\n      add\n      mload\n        /* \"wwcc-contracts/contracts/wwccPool.sol\":9949:9973  separateBets[j].finished */\n      0xc0\n      add\n        /* \"wwcc-contracts/contracts/wwccPool.sol\":9949:9980  separateBets[j].finished = true */\n      swap1\n      iszero\n      iszero\n      swap1\n      dup2\n      iszero\n      iszero\n      dup2\n      mstore\n      pop\n      pop\n        /* \"wwcc-contracts/contracts/wwccPool.sol\":8772:10005  {... */\n      pop\n      pop\n        /* \"wwcc-contracts/contracts/wwccPool.sol\":8740:10005  if(separateBets[j].kind==result){... */\n    tag_346:\n        /* \"wwcc-contracts/contracts/wwccPool.sol\":7746:10027  if(separateBets[j].kind==2){... */\n    tag_343:\n        /* \"wwcc-contracts/contracts/wwccPool.sol\":7686:10047  if(separateBets[j].finished = false){... */\n    tag_317:\n        /* \"wwcc-contracts/contracts/wwccPool.sol\":7644:7648  j ++ */\n      dup1\n      dup1\n      tag_377\n      swap1\n      tag_378\n      jump\t// in\n    tag_377:\n      swap2\n      pop\n      pop\n        /* \"wwcc-contracts/contracts/wwccPool.sol\":7550:10067  for (... */\n      jump(tag_310)\n    tag_311:\n      pop\n        /* \"wwcc-contracts/contracts/wwccPool.sol\":10100:10104  true */\n      0x01\n        /* \"wwcc-contracts/contracts/wwccPool.sol\":10084:10088  pool */\n      dup4\n        /* \"wwcc-contracts/contracts/wwccPool.sol\":10084:10097  pool.finished */\n      0x0140\n      add\n        /* \"wwcc-contracts/contracts/wwccPool.sol\":10084:10104  pool.finished = true */\n      swap1\n      iszero\n      iszero\n      swap1\n      dup2\n      iszero\n      iszero\n      dup2\n      mstore\n      pop\n      pop\n        /* \"wwcc-contracts/contracts/wwccPool.sol\":7022:10239  {... */\n      pop\n      pop\n      pop\n        /* \"wwcc-contracts/contracts/wwccPool.sol\":10254:10258  true */\n      0x01\n        /* \"wwcc-contracts/contracts/wwccPool.sol\":10247:10258  return true */\n      swap1\n      pop\n        /* \"wwcc-contracts/contracts/wwccPool.sol\":6808:10265  function Award(bytes32 poolKey,uint256 homeScore,uint256 visitScore,uint256 result)  external onlyManager  payable returns(bool){... */\n      swap5\n      swap4\n      pop\n      pop\n      pop\n      pop\n      jump\t// out\n        /* \"wwcc-contracts/contracts/wwccPool.sol\":5609:5999  function voteWithdrawal(address joiner,uint256 amount) external onlyManager payable returns (bool){... */\n    tag_75:\n        /* \"wwcc-contracts/contracts/wwccPool.sol\":5702:5706  bool */\n      0x00\n        /* \"wwcc-contracts/contracts/wwccPool.sol\":13262:13267  owner */\n      dup1\n      0x00\n      swap1\n      sload\n      swap1\n      0x0100\n      exp\n      swap1\n      div\n      0xffffffffffffffffffffffffffffffffffffffff\n      and\n        /* \"wwcc-contracts/contracts/wwccPool.sol\":13248:13267  msg.sender == owner */\n      0xffffffffffffffffffffffffffffffffffffffff\n      and\n        /* \"wwcc-contracts/contracts/wwccPool.sol\":13248:13258  msg.sender */\n      caller\n        /* \"wwcc-contracts/contracts/wwccPool.sol\":13248:13267  msg.sender == owner */\n      0xffffffffffffffffffffffffffffffffffffffff\n      and\n      eq\n        /* \"wwcc-contracts/contracts/wwccPool.sol\":13227:13318  require(... */\n      tag_380\n      jumpi\n      mload(0x40)\n      0x08c379a000000000000000000000000000000000000000000000000000000000\n      dup2\n      mstore\n      0x04\n      add\n      tag_381\n      swap1\n      tag_97\n      jump\t// in\n    tag_381:\n      mload(0x40)\n      dup1\n      swap2\n      sub\n      swap1\n      revert\n    tag_380:\n        /* \"wwcc-contracts/contracts/wwccPool.sol\":5742:5748  amount */\n      dup2\n        /* \"wwcc-contracts/contracts/wwccPool.sol\":5720:5730  voteAmount */\n      0x03\n        /* \"wwcc-contracts/contracts/wwccPool.sol\":5720:5738  voteAmount[joiner] */\n      0x00\n        /* \"wwcc-contracts/contracts/wwccPool.sol\":5731:5737  joiner */\n      dup6\n        /* \"wwcc-contracts/contracts/wwccPool.sol\":5720:5738  voteAmount[joiner] */\n      0xffffffffffffffffffffffffffffffffffffffff\n      and\n      0xffffffffffffffffffffffffffffffffffffffff\n      and\n      dup2\n      mstore\n      0x20\n      add\n      swap1\n      dup2\n      mstore\n      0x20\n      add\n      0x00\n      keccak256\n      sload\n        /* \"wwcc-contracts/contracts/wwccPool.sol\":5720:5748  voteAmount[joiner] >= amount */\n      lt\n      iszero\n        /* \"wwcc-contracts/contracts/wwccPool.sol\":5720:5775  voteAmount[joiner] >= amount && voteAmount[joiner] >= 0 */\n      dup1\n      iszero\n      tag_383\n      jumpi\n      pop\n        /* \"wwcc-contracts/contracts/wwccPool.sol\":5774:5775  0 */\n      0x00\n        /* \"wwcc-contracts/contracts/wwccPool.sol\":5752:5762  voteAmount */\n      0x03\n        /* \"wwcc-contracts/contracts/wwccPool.sol\":5752:5770  voteAmount[joiner] */\n      0x00\n        /* \"wwcc-contracts/contracts/wwccPool.sol\":5763:5769  joiner */\n      dup6\n        /* \"wwcc-contracts/contracts/wwccPool.sol\":5752:5770  voteAmount[joiner] */\n      0xffffffffffffffffffffffffffffffffffffffff\n      and\n      0xffffffffffffffffffffffffffffffffffffffff\n      and\n      dup2\n      mstore\n      0x20\n      add\n      swap1\n      dup2\n      mstore\n      0x20\n      add\n      0x00\n      keccak256\n      sload\n        /* \"wwcc-contracts/contracts/wwccPool.sol\":5752:5775  voteAmount[joiner] >= 0 */\n      lt\n      iszero\n        /* \"wwcc-contracts/contracts/wwccPool.sol\":5720:5775  voteAmount[joiner] >= amount && voteAmount[joiner] >= 0 */\n    tag_383:\n        /* \"wwcc-contracts/contracts/wwccPool.sol\":5717:5972  if(voteAmount[joiner] >= amount && voteAmount[joiner] >= 0){... */\n      iszero\n      tag_384\n      jumpi\n        /* \"wwcc-contracts/contracts/wwccPool.sol\":5790:5823  address payable toAddress_address */\n      0x00\n        /* \"wwcc-contracts/contracts/wwccPool.sol\":5834:5840  joiner */\n      dup4\n        /* \"wwcc-contracts/contracts/wwccPool.sol\":5790:5841  address payable toAddress_address = payable(joiner) */\n      swap1\n      pop\n        /* \"wwcc-contracts/contracts/wwccPool.sol\":5855:5872  toAddress_address */\n      dup1\n        /* \"wwcc-contracts/contracts/wwccPool.sol\":5855:5881  toAddress_address.transfer */\n      0xffffffffffffffffffffffffffffffffffffffff\n      and\n        /* \"wwcc-contracts/contracts/wwccPool.sol\":5855:5901  toAddress_address.transfer(voteAmount[joiner]) */\n      0x08fc\n        /* \"wwcc-contracts/contracts/wwccPool.sol\":5882:5892  voteAmount */\n      0x03\n        /* \"wwcc-contracts/contracts/wwccPool.sol\":5882:5900  voteAmount[joiner] */\n      0x00\n        /* \"wwcc-contracts/contracts/wwccPool.sol\":5893:5899  joiner */\n      dup8\n        /* \"wwcc-contracts/contracts/wwccPool.sol\":5882:5900  voteAmount[joiner] */\n      0xffffffffffffffffffffffffffffffffffffffff\n      and\n      0xffffffffffffffffffffffffffffffffffffffff\n      and\n      dup2\n      mstore\n      0x20\n      add\n      swap1\n      dup2\n      mstore\n      0x20\n      add\n      0x00\n      keccak256\n      sload\n        /* \"wwcc-contracts/contracts/wwccPool.sol\":5855:5901  toAddress_address.transfer(voteAmount[joiner]) */\n      swap1\n      dup2\n      iszero\n      mul\n      swap1\n      mload(0x40)\n      0x00\n      mload(0x40)\n      dup1\n      dup4\n      sub\n      dup2\n      dup6\n      dup9\n      dup9\n      call\n      swap4\n      pop\n      pop\n      pop\n      pop\n      iszero\n      dup1\n      iszero\n      tag_386\n      jumpi\n      returndatasize\n      0x00\n      dup1\n      returndatacopy\n      revert(0x00, returndatasize)\n    tag_386:\n      pop\n        /* \"wwcc-contracts/contracts/wwccPool.sol\":5776:5912  {... */\n      pop\n        /* \"wwcc-contracts/contracts/wwccPool.sol\":5717:5972  if(voteAmount[joiner] >= amount && voteAmount[joiner] >= 0){... */\n      jump(tag_387)\n    tag_384:\n        /* \"wwcc-contracts/contracts/wwccPool.sol\":5930:5961  revert(\"not enough voteAmount\") */\n      mload(0x40)\n      0x08c379a000000000000000000000000000000000000000000000000000000000\n      dup2\n      mstore\n      0x04\n      add\n      tag_388\n      swap1\n      tag_229\n      jump\t// in\n    tag_388:\n      mload(0x40)\n      dup1\n      swap2\n      sub\n      swap1\n      revert\n        /* \"wwcc-contracts/contracts/wwccPool.sol\":5717:5972  if(voteAmount[joiner] >= amount && voteAmount[joiner] >= 0){... */\n    tag_387:\n        /* \"wwcc-contracts/contracts/wwccPool.sol\":5988:5992  true */\n      0x01\n        /* \"wwcc-contracts/contracts/wwccPool.sol\":5981:5992  return true */\n      swap1\n      pop\n        /* \"wwcc-contracts/contracts/wwccPool.sol\":5609:5999  function voteWithdrawal(address joiner,uint256 amount) external onlyManager payable returns (bool){... */\n      swap3\n      swap2\n      pop\n      pop\n      jump\t// out\n        /* \"wwcc-contracts/contracts/wwccPool.sol\":6632:6737  function CheckVoteTickets() external view returns (uint256){... */\n    tag_79:\n        /* \"wwcc-contracts/contracts/wwccPool.sol\":6683:6690  uint256 */\n      0x00\n        /* \"wwcc-contracts/contracts/wwccPool.sol\":6708:6718  voteAmount */\n      0x03\n        /* \"wwcc-contracts/contracts/wwccPool.sol\":6708:6730  voteAmount[msg.sender] */\n      0x00\n        /* \"wwcc-contracts/contracts/wwccPool.sol\":6719:6729  msg.sender */\n      caller\n        /* \"wwcc-contracts/contracts/wwccPool.sol\":6708:6730  voteAmount[msg.sender] */\n      0xffffffffffffffffffffffffffffffffffffffff\n      and\n      0xffffffffffffffffffffffffffffffffffffffff\n      and\n      dup2\n      mstore\n      0x20\n      add\n      swap1\n      dup2\n      mstore\n      0x20\n      add\n      0x00\n      keccak256\n      sload\n        /* \"wwcc-contracts/contracts/wwccPool.sol\":6701:6730  return voteAmount[msg.sender] */\n      swap1\n      pop\n        /* \"wwcc-contracts/contracts/wwccPool.sol\":6632:6737  function CheckVoteTickets() external view returns (uint256){... */\n      swap1\n      jump\t// out\n        /* \"wwcc-contracts/contracts/wwccPool.sol\":10564:11212  function getPool(bytes32 poolKey) external view returns (string memory vs,string memory rounds,PoolViewInfo memory viewInfo){... */\n    tag_84:\n        /* \"wwcc-contracts/contracts/wwccPool.sol\":10621:10637  string memory vs */\n      0x60\n        /* \"wwcc-contracts/contracts/wwccPool.sol\":10638:10658  string memory rounds */\n      dup1\n        /* \"wwcc-contracts/contracts/wwccPool.sol\":10659:10687  PoolViewInfo memory viewInfo */\n      tag_390\n      tag_391\n      jump\t// in\n    tag_390:\n        /* \"wwcc-contracts/contracts/wwccPool.sol\":10702:10719  contains(poolKey) */\n      tag_393\n        /* \"wwcc-contracts/contracts/wwccPool.sol\":10711:10718  poolKey */\n      dup5\n        /* \"wwcc-contracts/contracts/wwccPool.sol\":10702:10710  contains */\n      tag_100\n        /* \"wwcc-contracts/contracts/wwccPool.sol\":10702:10719  contains(poolKey) */\n      jump\t// in\n    tag_393:\n        /* \"wwcc-contracts/contracts/wwccPool.sol\":10698:11206  if(!contains(poolKey)) { ... */\n      tag_394\n      jumpi\n        /* \"wwcc-contracts/contracts/wwccPool.sol\":10736:10755  revert(\"not exist\") */\n      mload(0x40)\n      0x08c379a000000000000000000000000000000000000000000000000000000000\n      dup2\n      mstore\n      0x04\n      add\n      tag_395\n      swap1\n      tag_396\n      jump\t// in\n    tag_395:\n      mload(0x40)\n      dup1\n      swap2\n      sub\n      swap1\n      revert\n        /* \"wwcc-contracts/contracts/wwccPool.sol\":10698:11206  if(!contains(poolKey)) { ... */\n    tag_394:\n        /* \"wwcc-contracts/contracts/wwccPool.sol\":10784:10801  string  memory hv */\n      0x00\n        /* \"wwcc-contracts/contracts/wwccPool.sol\":10804:10843  strConcat(WcPools[poolKey].home,\" vs \") */\n      tag_398\n        /* \"wwcc-contracts/contracts/wwccPool.sol\":10814:10821  WcPools */\n      0x04\n        /* \"wwcc-contracts/contracts/wwccPool.sol\":10814:10830  WcPools[poolKey] */\n      0x00\n        /* \"wwcc-contracts/contracts/wwccPool.sol\":10822:10829  poolKey */\n      dup8\n        /* \"wwcc-contracts/contracts/wwccPool.sol\":10814:10830  WcPools[poolKey] */\n      dup2\n      mstore\n      0x20\n      add\n      swap1\n      dup2\n      mstore\n      0x20\n      add\n      0x00\n      keccak256\n        /* \"wwcc-contracts/contracts/wwccPool.sol\":10814:10835  WcPools[poolKey].home */\n      0x00\n      add\n        /* \"wwcc-contracts/contracts/wwccPool.sol\":10804:10843  strConcat(WcPools[poolKey].home,\" vs \") */\n      dup1\n      sload\n      tag_399\n      swap1\n      tag_106\n      jump\t// in\n    tag_399:\n      dup1\n      0x1f\n      add\n      0x20\n      dup1\n      swap2\n      div\n      mul\n      0x20\n      add\n      mload(0x40)\n      swap1\n      dup2\n      add\n      0x40\n      mstore\n      dup1\n      swap3\n      swap2\n      swap1\n      dup2\n      dup2\n      mstore\n      0x20\n      add\n      dup3\n      dup1\n      sload\n      tag_400\n      swap1\n      tag_106\n      jump\t// in\n    tag_400:\n      dup1\n      iszero\n      tag_401\n      jumpi\n      dup1\n      0x1f\n      lt\n      tag_402\n      jumpi\n      0x0100\n      dup1\n      dup4\n      sload\n      div\n      mul\n      dup4\n      mstore\n      swap2\n      0x20\n      add\n      swap2\n      jump(tag_401)\n    tag_402:\n      dup3\n      add\n      swap2\n      swap1\n      0x00\n      mstore\n      keccak256(0x00, 0x20)\n      swap1\n    tag_403:\n      dup2\n      sload\n      dup2\n      mstore\n      swap1\n      0x01\n      add\n      swap1\n      0x20\n      add\n      dup1\n      dup4\n      gt\n      tag_403\n      jumpi\n      dup3\n      swap1\n      sub\n      0x1f\n      and\n      dup3\n      add\n      swap2\n    tag_401:\n      pop\n      pop\n      pop\n      pop\n      pop\n      mload(0x40)\n      dup1\n      0x40\n      add\n      0x40\n      mstore\n      dup1\n      0x04\n      dup2\n      mstore\n      0x20\n      add\n      0x2076732000000000000000000000000000000000000000000000000000000000\n      dup2\n      mstore\n      pop\n        /* \"wwcc-contracts/contracts/wwccPool.sol\":10804:10813  strConcat */\n      tag_177\n        /* \"wwcc-contracts/contracts/wwccPool.sol\":10804:10843  strConcat(WcPools[poolKey].home,\" vs \") */\n      jump\t// in\n    tag_398:\n        /* \"wwcc-contracts/contracts/wwccPool.sol\":10784:10843  string  memory hv = strConcat(WcPools[poolKey].home,\" vs \") */\n      swap1\n      pop\n        /* \"wwcc-contracts/contracts/wwccPool.sol\":10862:10898  strConcat(hv,WcPools[poolKey].visit) */\n      tag_404\n        /* \"wwcc-contracts/contracts/wwccPool.sol\":10872:10874  hv */\n      dup2\n        /* \"wwcc-contracts/contracts/wwccPool.sol\":10875:10882  WcPools */\n      0x04\n        /* \"wwcc-contracts/contracts/wwccPool.sol\":10875:10891  WcPools[poolKey] */\n      0x00\n        /* \"wwcc-contracts/contracts/wwccPool.sol\":10883:10890  poolKey */\n      dup9\n        /* \"wwcc-contracts/contracts/wwccPool.sol\":10875:10891  WcPools[poolKey] */\n      dup2\n      mstore\n      0x20\n      add\n      swap1\n      dup2\n      mstore\n      0x20\n      add\n      0x00\n      keccak256\n        /* \"wwcc-contracts/contracts/wwccPool.sol\":10875:10897  WcPools[poolKey].visit */\n      0x01\n      add\n        /* \"wwcc-contracts/contracts/wwccPool.sol\":10862:10898  strConcat(hv,WcPools[poolKey].visit) */\n      dup1\n      sload\n      tag_405\n      swap1\n      tag_106\n      jump\t// in\n    tag_405:\n      dup1\n      0x1f\n      add\n      0x20\n      dup1\n      swap2\n      div\n      mul\n      0x20\n      add\n      mload(0x40)\n      swap1\n      dup2\n      add\n      0x40\n      mstore\n      dup1\n      swap3\n      swap2\n      swap1\n      dup2\n      dup2\n      mstore\n      0x20\n      add\n      dup3\n      dup1\n      sload\n      tag_406\n      swap1\n      tag_106\n      jump\t// in\n    tag_406:\n      dup1\n      iszero\n      tag_407\n      jumpi\n      dup1\n      0x1f\n      lt\n      tag_408\n      jumpi\n      0x0100\n      dup1\n      dup4\n      sload\n      div\n      mul\n      dup4\n      mstore\n      swap2\n      0x20\n      add\n      swap2\n      jump(tag_407)\n    tag_408:\n      dup3\n      add\n      swap2\n      swap1\n      0x00\n      mstore\n      keccak256(0x00, 0x20)\n      swap1\n    tag_409:\n      dup2\n      sload\n      dup2\n      mstore\n      swap1\n      0x01\n      add\n      swap1\n      0x20\n      add\n      dup1\n      dup4\n      gt\n      tag_409\n      jumpi\n      dup3\n      swap1\n      sub\n      0x1f\n      and\n      dup3\n      add\n      swap2\n    tag_407:\n      pop\n      pop\n      pop\n      pop\n      pop\n        /* \"wwcc-contracts/contracts/wwccPool.sol\":10862:10871  strConcat */\n      tag_177\n        /* \"wwcc-contracts/contracts/wwccPool.sol\":10862:10898  strConcat(hv,WcPools[poolKey].visit) */\n      jump\t// in\n    tag_404:\n        /* \"wwcc-contracts/contracts/wwccPool.sol\":10857:10898  vs = strConcat(hv,WcPools[poolKey].visit) */\n      swap4\n      pop\n        /* \"wwcc-contracts/contracts/wwccPool.sol\":10912:10934  PoolViewInfo memory vi */\n      0x00\n        /* \"wwcc-contracts/contracts/wwccPool.sol\":10937:11117  PoolViewInfo(WcPools[poolKey].wPool,... */\n      mload(0x40)\n      dup1\n      0xa0\n      add\n      0x40\n      mstore\n      dup1\n        /* \"wwcc-contracts/contracts/wwccPool.sol\":10950:10957  WcPools */\n      0x04\n        /* \"wwcc-contracts/contracts/wwccPool.sol\":10950:10966  WcPools[poolKey] */\n      0x00\n        /* \"wwcc-contracts/contracts/wwccPool.sol\":10958:10965  poolKey */\n      dup10\n        /* \"wwcc-contracts/contracts/wwccPool.sol\":10950:10966  WcPools[poolKey] */\n      dup2\n      mstore\n      0x20\n      add\n      swap1\n      dup2\n      mstore\n      0x20\n      add\n      0x00\n      keccak256\n        /* \"wwcc-contracts/contracts/wwccPool.sol\":10950:10972  WcPools[poolKey].wPool */\n      0x03\n      add\n      sload\n        /* \"wwcc-contracts/contracts/wwccPool.sol\":10937:11117  PoolViewInfo(WcPools[poolKey].wPool,... */\n      dup2\n      mstore\n      0x20\n      add\n        /* \"wwcc-contracts/contracts/wwccPool.sol\":10986:10993  WcPools */\n      0x04\n        /* \"wwcc-contracts/contracts/wwccPool.sol\":10986:11002  WcPools[poolKey] */\n      0x00\n        /* \"wwcc-contracts/contracts/wwccPool.sol\":10994:11001  poolKey */\n      dup10\n        /* \"wwcc-contracts/contracts/wwccPool.sol\":10986:11002  WcPools[poolKey] */\n      dup2\n      mstore\n      0x20\n      add\n      swap1\n      dup2\n      mstore\n      0x20\n      add\n      0x00\n      keccak256\n        /* \"wwcc-contracts/contracts/wwccPool.sol\":10986:11008  WcPools[poolKey].dPool */\n      0x04\n      add\n      sload\n        /* \"wwcc-contracts/contracts/wwccPool.sol\":10937:11117  PoolViewInfo(WcPools[poolKey].wPool,... */\n      dup2\n      mstore\n      0x20\n      add\n        /* \"wwcc-contracts/contracts/wwccPool.sol\":11022:11029  WcPools */\n      0x04\n        /* \"wwcc-contracts/contracts/wwccPool.sol\":11022:11038  WcPools[poolKey] */\n      0x00\n        /* \"wwcc-contracts/contracts/wwccPool.sol\":11030:11037  poolKey */\n      dup10\n        /* \"wwcc-contracts/contracts/wwccPool.sol\":11022:11038  WcPools[poolKey] */\n      dup2\n      mstore\n      0x20\n      add\n      swap1\n      dup2\n      mstore\n      0x20\n      add\n      0x00\n      keccak256\n        /* \"wwcc-contracts/contracts/wwccPool.sol\":11022:11044  WcPools[poolKey].lPool */\n      0x05\n      add\n      sload\n        /* \"wwcc-contracts/contracts/wwccPool.sol\":10937:11117  PoolViewInfo(WcPools[poolKey].wPool,... */\n      dup2\n      mstore\n      0x20\n      add\n        /* \"wwcc-contracts/contracts/wwccPool.sol\":11058:11065  WcPools */\n      0x04\n        /* \"wwcc-contracts/contracts/wwccPool.sol\":11058:11074  WcPools[poolKey] */\n      0x00\n        /* \"wwcc-contracts/contracts/wwccPool.sol\":11066:11073  poolKey */\n      dup10\n        /* \"wwcc-contracts/contracts/wwccPool.sol\":11058:11074  WcPools[poolKey] */\n      dup2\n      mstore\n      0x20\n      add\n      swap1\n      dup2\n      mstore\n      0x20\n      add\n      0x00\n      keccak256\n        /* \"wwcc-contracts/contracts/wwccPool.sol\":11058:11080  WcPools[poolKey].sPool */\n      0x06\n      add\n      sload\n        /* \"wwcc-contracts/contracts/wwccPool.sol\":10937:11117  PoolViewInfo(WcPools[poolKey].wPool,... */\n      dup2\n      mstore\n      0x20\n      add\n        /* \"wwcc-contracts/contracts/wwccPool.sol\":11094:11101  WcPools */\n      0x04\n        /* \"wwcc-contracts/contracts/wwccPool.sol\":11094:11110  WcPools[poolKey] */\n      0x00\n        /* \"wwcc-contracts/contracts/wwccPool.sol\":11102:11109  poolKey */\n      dup10\n        /* \"wwcc-contracts/contracts/wwccPool.sol\":11094:11110  WcPools[poolKey] */\n      dup2\n      mstore\n      0x20\n      add\n      swap1\n      dup2\n      mstore\n      0x20\n      add\n      0x00\n      keccak256\n        /* \"wwcc-contracts/contracts/wwccPool.sol\":11094:11116  WcPools[poolKey].basal */\n      0x07\n      add\n      sload\n        /* \"wwcc-contracts/contracts/wwccPool.sol\":10937:11117  PoolViewInfo(WcPools[poolKey].wPool,... */\n      dup2\n      mstore\n      pop\n        /* \"wwcc-contracts/contracts/wwccPool.sol\":10912:11117  PoolViewInfo memory vi = PoolViewInfo(WcPools[poolKey].wPool,... */\n      swap1\n      pop\n        /* \"wwcc-contracts/contracts/wwccPool.sol\":11139:11141  vs */\n      dup5\n        /* \"wwcc-contracts/contracts/wwccPool.sol\":11155:11162  WcPools */\n      0x04\n        /* \"wwcc-contracts/contracts/wwccPool.sol\":11155:11171  WcPools[poolKey] */\n      0x00\n        /* \"wwcc-contracts/contracts/wwccPool.sol\":11163:11170  poolKey */\n      dup9\n        /* \"wwcc-contracts/contracts/wwccPool.sol\":11155:11171  WcPools[poolKey] */\n      dup2\n      mstore\n      0x20\n      add\n      swap1\n      dup2\n      mstore\n      0x20\n      add\n      0x00\n      keccak256\n        /* \"wwcc-contracts/contracts/wwccPool.sol\":11155:11178  WcPools[poolKey].rounds */\n      0x02\n      add\n        /* \"wwcc-contracts/contracts/wwccPool.sol\":11192:11194  vi */\n      dup3\n        /* \"wwcc-contracts/contracts/wwccPool.sol\":11131:11195  return (vs,... */\n      dup2\n      dup1\n      sload\n      tag_410\n      swap1\n      tag_106\n      jump\t// in\n    tag_410:\n      dup1\n      0x1f\n      add\n      0x20\n      dup1\n      swap2\n      div\n      mul\n      0x20\n      add\n      mload(0x40)\n      swap1\n      dup2\n      add\n      0x40\n      mstore\n      dup1\n      swap3\n      swap2\n      swap1\n      dup2\n      dup2\n      mstore\n      0x20\n      add\n      dup3\n      dup1\n      sload\n      tag_411\n      swap1\n      tag_106\n      jump\t// in\n    tag_411:\n      dup1\n      iszero\n      tag_412\n      jumpi\n      dup1\n      0x1f\n      lt\n      tag_413\n      jumpi\n      0x0100\n      dup1\n      dup4\n      sload\n      div\n      mul\n      dup4\n      mstore\n      swap2\n      0x20\n      add\n      swap2\n      jump(tag_412)\n    tag_413:\n      dup3\n      add\n      swap2\n      swap1\n      0x00\n      mstore\n      keccak256(0x00, 0x20)\n      swap1\n    tag_414:\n      dup2\n      sload\n      dup2\n      mstore\n      swap1\n      0x01\n      add\n      swap1\n      0x20\n      add\n      dup1\n      dup4\n      gt\n      tag_414\n      jumpi\n      dup3\n      swap1\n      sub\n      0x1f\n      and\n      dup3\n      add\n      swap2\n    tag_412:\n      pop\n      pop\n      pop\n      pop\n      pop\n      swap2\n      pop\n      swap5\n      pop\n      swap5\n      pop\n      swap5\n      pop\n      pop\n      pop\n        /* \"wwcc-contracts/contracts/wwccPool.sol\":10564:11212  function getPool(bytes32 poolKey) external view returns (string memory vs,string memory rounds,PoolViewInfo memory viewInfo){... */\n      swap2\n      swap4\n      swap1\n      swap3\n      pop\n      jump\t// out\n        /* \"wwcc-contracts/contracts/wwccPool.sol\":11276:11389  function contains(bytes32 poolKey) internal view returns (bool) {... */\n    tag_100:\n        /* \"wwcc-contracts/contracts/wwccPool.sol\":11334:11338  bool */\n      0x00\n        /* \"wwcc-contracts/contracts/wwccPool.sol\":11361:11368  WcPools */\n      0x04\n        /* \"wwcc-contracts/contracts/wwccPool.sol\":11361:11377  WcPools[poolKey] */\n      0x00\n        /* \"wwcc-contracts/contracts/wwccPool.sol\":11369:11376  poolKey */\n      dup4\n        /* \"wwcc-contracts/contracts/wwccPool.sol\":11361:11377  WcPools[poolKey] */\n      dup2\n      mstore\n      0x20\n      add\n      swap1\n      dup2\n      mstore\n      0x20\n      add\n      0x00\n      keccak256\n        /* \"wwcc-contracts/contracts/wwccPool.sol\":11361:11382  WcPools[poolKey].used */\n      0x08\n      add\n      0x01\n      swap1\n      sload\n      swap1\n      0x0100\n      exp\n      swap1\n      div\n      0xff\n      and\n        /* \"wwcc-contracts/contracts/wwccPool.sol\":11354:11382  return WcPools[poolKey].used */\n      swap1\n      pop\n        /* \"wwcc-contracts/contracts/wwccPool.sol\":11276:11389  function contains(bytes32 poolKey) internal view returns (bool) {... */\n      swap2\n      swap1\n      pop\n      jump\t// out\n        /* \"wwcc-contracts/contracts/safemath.sol\":274:417  function div(uint256 a, uint256 b) internal pure returns (uint256) {... */\n    tag_126:\n        /* \"wwcc-contracts/contracts/safemath.sol\":332:339  uint256 */\n      0x00\n        /* \"wwcc-contracts/contracts/safemath.sol\":363:364  0 */\n      dup1\n        /* \"wwcc-contracts/contracts/safemath.sol\":359:360  b */\n      dup3\n        /* \"wwcc-contracts/contracts/safemath.sol\":359:364  b > 0 */\n      gt\n        /* \"wwcc-contracts/contracts/safemath.sol\":351:365  require(b > 0) */\n      tag_417\n      jumpi\n      0x00\n      dup1\n      revert\n    tag_417:\n        /* \"wwcc-contracts/contracts/safemath.sol\":375:384  uint256 c */\n      0x00\n        /* \"wwcc-contracts/contracts/safemath.sol\":391:392  b */\n      dup3\n        /* \"wwcc-contracts/contracts/safemath.sol\":387:388  a */\n      dup5\n        /* \"wwcc-contracts/contracts/safemath.sol\":387:392  a / b */\n      tag_418\n      swap2\n      swap1\n      tag_92\n      jump\t// in\n    tag_418:\n        /* \"wwcc-contracts/contracts/safemath.sol\":375:392  uint256 c = a / b */\n      swap1\n      pop\n        /* \"wwcc-contracts/contracts/safemath.sol\":409:410  c */\n      dup1\n        /* \"wwcc-contracts/contracts/safemath.sol\":402:410  return c */\n      swap2\n      pop\n      pop\n        /* \"wwcc-contracts/contracts/safemath.sol\":274:417  function div(uint256 a, uint256 b) internal pure returns (uint256) {... */\n      swap3\n      swap2\n      pop\n      pop\n      jump\t// out\n        /* \"wwcc-contracts/contracts/wwccPool.sol\":11419:11908  function strConcat(string memory _a,string memory _b) internal pure returns (string memory){... */\n    tag_177:\n        /* \"wwcc-contracts/contracts/wwccPool.sol\":11496:11509  string memory */\n      0x60\n        /* \"wwcc-contracts/contracts/wwccPool.sol\":11524:11540  bytes memory _ba */\n      0x00\n        /* \"wwcc-contracts/contracts/wwccPool.sol\":11549:11551  _a */\n      dup4\n        /* \"wwcc-contracts/contracts/wwccPool.sol\":11524:11552  bytes memory _ba = bytes(_a) */\n      swap1\n      pop\n        /* \"wwcc-contracts/contracts/wwccPool.sol\":11566:11582  bytes memory _bb */\n      0x00\n        /* \"wwcc-contracts/contracts/wwccPool.sol\":11591:11593  _b */\n      dup4\n        /* \"wwcc-contracts/contracts/wwccPool.sol\":11566:11594  bytes memory _bb = bytes(_b) */\n      swap1\n      pop\n        /* \"wwcc-contracts/contracts/wwccPool.sol\":11608:11625  string memory ret */\n      0x00\n        /* \"wwcc-contracts/contracts/wwccPool.sol\":11652:11655  _bb */\n      dup2\n        /* \"wwcc-contracts/contracts/wwccPool.sol\":11652:11662  _bb.length */\n      mload\n        /* \"wwcc-contracts/contracts/wwccPool.sol\":11639:11642  _ba */\n      dup4\n        /* \"wwcc-contracts/contracts/wwccPool.sol\":11639:11649  _ba.length */\n      mload\n        /* \"wwcc-contracts/contracts/wwccPool.sol\":11639:11662  _ba.length + _bb.length */\n      tag_420\n      swap2\n      swap1\n      tag_21\n      jump\t// in\n    tag_420:\n        /* \"wwcc-contracts/contracts/wwccPool.sol\":11628:11663  new string(_ba.length + _bb.length) */\n      0xffffffffffffffff\n      dup2\n      gt\n      iszero\n      tag_421\n      jumpi\n      tag_422\n      tag_423\n      jump\t// in\n    tag_422:\n    tag_421:\n      mload(0x40)\n      swap1\n      dup1\n      dup3\n      mstore\n      dup1\n      0x1f\n      add\n      not(0x1f)\n      and\n      0x20\n      add\n      dup3\n      add\n      0x40\n      mstore\n      dup1\n      iszero\n      tag_424\n      jumpi\n      dup2\n      0x20\n      add\n      0x01\n      dup3\n      mul\n      dup1\n      calldatasize\n      dup4\n      calldatacopy\n      dup1\n      dup3\n      add\n      swap2\n      pop\n      pop\n      swap1\n      pop\n    tag_424:\n      pop\n        /* \"wwcc-contracts/contracts/wwccPool.sol\":11608:11663  string memory ret = new string(_ba.length + _bb.length) */\n      swap1\n      pop\n        /* \"wwcc-contracts/contracts/wwccPool.sol\":11677:11694  bytes memory bret */\n      0x00\n        /* \"wwcc-contracts/contracts/wwccPool.sol\":11703:11706  ret */\n      dup2\n        /* \"wwcc-contracts/contracts/wwccPool.sol\":11677:11707  bytes memory bret = bytes(ret) */\n      swap1\n      pop\n        /* \"wwcc-contracts/contracts/wwccPool.sol\":11721:11727  uint k */\n      0x00\n        /* \"wwcc-contracts/contracts/wwccPool.sol\":11749:11755  uint i */\n      dup1\n        /* \"wwcc-contracts/contracts/wwccPool.sol\":11745:11798  for(uint i = 0;i < _ba.length;i++) bret[k++] = _ba[i] */\n    tag_425:\n        /* \"wwcc-contracts/contracts/wwccPool.sol\":11764:11767  _ba */\n      dup6\n        /* \"wwcc-contracts/contracts/wwccPool.sol\":11764:11774  _ba.length */\n      mload\n        /* \"wwcc-contracts/contracts/wwccPool.sol\":11760:11761  i */\n      dup2\n        /* \"wwcc-contracts/contracts/wwccPool.sol\":11760:11774  i < _ba.length */\n      lt\n        /* \"wwcc-contracts/contracts/wwccPool.sol\":11745:11798  for(uint i = 0;i < _ba.length;i++) bret[k++] = _ba[i] */\n      iszero\n      tag_426\n      jumpi\n        /* \"wwcc-contracts/contracts/wwccPool.sol\":11792:11795  _ba */\n      dup6\n        /* \"wwcc-contracts/contracts/wwccPool.sol\":11796:11797  i */\n      dup2\n        /* \"wwcc-contracts/contracts/wwccPool.sol\":11792:11798  _ba[i] */\n      dup2\n      mload\n      dup2\n      lt\n      tag_428\n      jumpi\n      tag_429\n      tag_316\n      jump\t// in\n    tag_429:\n    tag_428:\n      0x20\n      add\n      add\n      mload\n      0xf8\n      shr\n      0xf8\n      shl\n        /* \"wwcc-contracts/contracts/wwccPool.sol\":11780:11784  bret */\n      dup4\n        /* \"wwcc-contracts/contracts/wwccPool.sol\":11785:11788  k++ */\n      dup4\n      dup1\n      tag_430\n      swap1\n      tag_378\n      jump\t// in\n    tag_430:\n      swap5\n      pop\n        /* \"wwcc-contracts/contracts/wwccPool.sol\":11780:11789  bret[k++] */\n      dup2\n      mload\n      dup2\n      lt\n      tag_431\n      jumpi\n      tag_432\n      tag_316\n      jump\t// in\n    tag_432:\n    tag_431:\n      0x20\n      add\n      add\n        /* \"wwcc-contracts/contracts/wwccPool.sol\":11780:11798  bret[k++] = _ba[i] */\n      swap1\n      not(0xffffffffffffffffffffffffffffffffffffffffffffffffffffffffffffff)\n      and\n      swap1\n      dup2\n      0x00\n      byte\n      swap1\n      mstore8\n      pop\n        /* \"wwcc-contracts/contracts/wwccPool.sol\":11775:11778  i++ */\n      dup1\n      dup1\n      tag_433\n      swap1\n      tag_378\n      jump\t// in\n    tag_433:\n      swap2\n      pop\n      pop\n        /* \"wwcc-contracts/contracts/wwccPool.sol\":11745:11798  for(uint i = 0;i < _ba.length;i++) bret[k++] = _ba[i] */\n      jump(tag_425)\n    tag_426:\n      pop\n        /* \"wwcc-contracts/contracts/wwccPool.sol\":11816:11822  uint i */\n      0x00\n        /* \"wwcc-contracts/contracts/wwccPool.sol\":11812:11865  for(uint i = 0;i < _bb.length;i++) bret[k++] = _bb[i] */\n    tag_434:\n        /* \"wwcc-contracts/contracts/wwccPool.sol\":11831:11834  _bb */\n      dup5\n        /* \"wwcc-contracts/contracts/wwccPool.sol\":11831:11841  _bb.length */\n      mload\n        /* \"wwcc-contracts/contracts/wwccPool.sol\":11827:11828  i */\n      dup2\n        /* \"wwcc-contracts/contracts/wwccPool.sol\":11827:11841  i < _bb.length */\n      lt\n        /* \"wwcc-contracts/contracts/wwccPool.sol\":11812:11865  for(uint i = 0;i < _bb.length;i++) bret[k++] = _bb[i] */\n      iszero\n      tag_435\n      jumpi\n        /* \"wwcc-contracts/contracts/wwccPool.sol\":11859:11862  _bb */\n      dup5\n        /* \"wwcc-contracts/contracts/wwccPool.sol\":11863:11864  i */\n      dup2\n        /* \"wwcc-contracts/contracts/wwccPool.sol\":11859:11865  _bb[i] */\n      dup2\n      mload\n      dup2\n      lt\n      tag_437\n      jumpi\n      tag_438\n      tag_316\n      jump\t// in\n    tag_438:\n    tag_437:\n      0x20\n      add\n      add\n      mload\n      0xf8\n      shr\n      0xf8\n      shl\n        /* \"wwcc-contracts/contracts/wwccPool.sol\":11847:11851  bret */\n      dup4\n        /* \"wwcc-contracts/contracts/wwccPool.sol\":11852:11855  k++ */\n      dup4\n      dup1\n      tag_439\n      swap1\n      tag_378\n      jump\t// in\n    tag_439:\n      swap5\n      pop\n        /* \"wwcc-contracts/contracts/wwccPool.sol\":11847:11856  bret[k++] */\n      dup2\n      mload\n      dup2\n      lt\n      tag_440\n      jumpi\n      tag_441\n      tag_316\n      jump\t// in\n    tag_441:\n    tag_440:\n      0x20\n      add\n      add\n        /* \"wwcc-contracts/contracts/wwccPool.sol\":11847:11865  bret[k++] = _bb[i] */\n      swap1\n      not(0xffffffffffffffffffffffffffffffffffffffffffffffffffffffffffffff)\n      and\n      swap1\n      dup2\n      0x00\n      byte\n      swap1\n      mstore8\n      pop\n        /* \"wwcc-contracts/contracts/wwccPool.sol\":11842:11845  i++ */\n      dup1\n      dup1\n      tag_442\n      swap1\n      tag_378\n      jump\t// in\n    tag_442:\n      swap2\n      pop\n      pop\n        /* \"wwcc-contracts/contracts/wwccPool.sol\":11812:11865  for(uint i = 0;i < _bb.length;i++) bret[k++] = _bb[i] */\n      jump(tag_434)\n    tag_435:\n      pop\n        /* \"wwcc-contracts/contracts/wwccPool.sol\":11893:11896  ret */\n      dup3\n        /* \"wwcc-contracts/contracts/wwccPool.sol\":11879:11897  return string(ret) */\n      swap6\n      pop\n      pop\n      pop\n      pop\n      pop\n      pop\n        /* \"wwcc-contracts/contracts/wwccPool.sol\":11419:11908  function strConcat(string memory _a,string memory _b) internal pure returns (string memory){... */\n      swap3\n      swap2\n      pop\n      pop\n      jump\t// out\n        /* \"wwcc-contracts/contracts/wwccPool.sol\":12072:12201  function uint256ToString(uint256 u) internal pure returns(string memory){... */\n    tag_247:\n        /* \"wwcc-contracts/contracts/wwccPool.sol\":12130:12143  string memory */\n      0x60\n        /* \"wwcc-contracts/contracts/wwccPool.sol\":12165:12194  toString(abi.encodePacked(u)) */\n      tag_444\n        /* \"wwcc-contracts/contracts/wwccPool.sol\":12191:12192  u */\n      dup3\n        /* \"wwcc-contracts/contracts/wwccPool.sol\":12174:12193  abi.encodePacked(u) */\n      add(0x20, mload(0x40))\n      tag_445\n      swap2\n      swap1\n      tag_446\n      jump\t// in\n    tag_445:\n      mload(0x40)\n      0x20\n      dup2\n      dup4\n      sub\n      sub\n      dup2\n      mstore\n      swap1\n      0x40\n      mstore\n        /* \"wwcc-contracts/contracts/wwccPool.sol\":12165:12173  toString */\n      tag_447\n        /* \"wwcc-contracts/contracts/wwccPool.sol\":12165:12194  toString(abi.encodePacked(u)) */\n      jump\t// in\n    tag_444:\n        /* \"wwcc-contracts/contracts/wwccPool.sol\":12158:12194  return toString(abi.encodePacked(u)) */\n      swap1\n      pop\n        /* \"wwcc-contracts/contracts/wwccPool.sol\":12072:12201  function uint256ToString(uint256 u) internal pure returns(string memory){... */\n      swap2\n      swap1\n      pop\n      jump\t// out\n        /* \"wwcc-contracts/contracts/wwccPool.sol\":12206:12335  function bytes32ToString(bytes32 b) internal pure returns(string memory){... */\n    tag_251:\n        /* \"wwcc-contracts/contracts/wwccPool.sol\":12264:12277  string memory */\n      0x60\n        /* \"wwcc-contracts/contracts/wwccPool.sol\":12299:12328  toString(abi.encodePacked(b)) */\n      tag_449\n        /* \"wwcc-contracts/contracts/wwccPool.sol\":12325:12326  b */\n      dup3\n        /* \"wwcc-contracts/contracts/wwccPool.sol\":12308:12327  abi.encodePacked(b) */\n      add(0x20, mload(0x40))\n      tag_450\n      swap2\n      swap1\n      tag_451\n      jump\t// in\n    tag_450:\n      mload(0x40)\n      0x20\n      dup2\n      dup4\n      sub\n      sub\n      dup2\n      mstore\n      swap1\n      0x40\n      mstore\n        /* \"wwcc-contracts/contracts/wwccPool.sol\":12299:12307  toString */\n      tag_447\n        /* \"wwcc-contracts/contracts/wwccPool.sol\":12299:12328  toString(abi.encodePacked(b)) */\n      jump\t// in\n    tag_449:\n        /* \"wwcc-contracts/contracts/wwccPool.sol\":12292:12328  return toString(abi.encodePacked(b)) */\n      swap1\n      pop\n        /* \"wwcc-contracts/contracts/wwccPool.sol\":12206:12335  function bytes32ToString(bytes32 b) internal pure returns(string memory){... */\n      swap2\n      swap1\n      pop\n      jump\t// out\n        /* \"wwcc-contracts/contracts/wwccPool.sol\":12340:12827  function toString(bytes memory data) internal pure returns(string memory){... */\n    tag_447:\n        /* \"wwcc-contracts/contracts/wwccPool.sol\":12399:12412  string memory */\n      0x60\n        /* \"wwcc-contracts/contracts/wwccPool.sol\":12427:12448  bytes memory alphabet */\n      0x00\n        /* \"wwcc-contracts/contracts/wwccPool.sol\":12427:12469  bytes memory alphabet = \"0123456789abcdef\" */\n      mload(0x40)\n      dup1\n      0x40\n      add\n      0x40\n      mstore\n      dup1\n      0x10\n      dup2\n      mstore\n      0x20\n      add\n      0x3031323334353637383961626364656600000000000000000000000000000000\n      dup2\n      mstore\n      pop\n      swap1\n      pop\n        /* \"wwcc-contracts/contracts/wwccPool.sol\":12483:12499  bytes memory str */\n      0x00\n        /* \"wwcc-contracts/contracts/wwccPool.sol\":12530:12531  2 */\n      0x02\n        /* \"wwcc-contracts/contracts/wwccPool.sol\":12516:12520  data */\n      dup5\n        /* \"wwcc-contracts/contracts/wwccPool.sol\":12516:12527  data.length */\n      mload\n        /* \"wwcc-contracts/contracts/wwccPool.sol\":12516:12531  data.length * 2 */\n      tag_453\n      swap2\n      swap1\n      tag_90\n      jump\t// in\n    tag_453:\n        /* \"wwcc-contracts/contracts/wwccPool.sol\":12512:12513  2 */\n      0x02\n        /* \"wwcc-contracts/contracts/wwccPool.sol\":12512:12531  2 + data.length * 2 */\n      tag_454\n      swap2\n      swap1\n      tag_21\n      jump\t// in\n    tag_454:\n        /* \"wwcc-contracts/contracts/wwccPool.sol\":12502:12532  new bytes(2 + data.length * 2) */\n      0xffffffffffffffff\n      dup2\n      gt\n      iszero\n      tag_455\n      jumpi\n      tag_456\n      tag_423\n      jump\t// in\n    tag_456:\n    tag_455:\n      mload(0x40)\n      swap1\n      dup1\n      dup3\n      mstore\n      dup1\n      0x1f\n      add\n      not(0x1f)\n      and\n      0x20\n      add\n      dup3\n      add\n      0x40\n      mstore\n      dup1\n      iszero\n      tag_457\n      jumpi\n      dup2\n      0x20\n      add\n      0x01\n      dup3\n      mul\n      dup1\n      calldatasize\n      dup4\n      calldatacopy\n      dup1\n      dup3\n      add\n      swap2\n      pop\n      pop\n      swap1\n      pop\n    tag_457:\n      pop\n        /* \"wwcc-contracts/contracts/wwccPool.sol\":12483:12532  bytes memory str = new bytes(2 + data.length * 2) */\n      swap1\n      pop\n        /* \"wwcc-contracts/contracts/wwccPool.sol\":12546:12558  str[0] = \"0\" */\n      0x3000000000000000000000000000000000000000000000000000000000000000\n        /* \"wwcc-contracts/contracts/wwccPool.sol\":12546:12549  str */\n      dup2\n        /* \"wwcc-contracts/contracts/wwccPool.sol\":12550:12551  0 */\n      0x00\n        /* \"wwcc-contracts/contracts/wwccPool.sol\":12546:12552  str[0] */\n      dup2\n      mload\n      dup2\n      lt\n      tag_458\n      jumpi\n      tag_459\n      tag_316\n      jump\t// in\n    tag_459:\n    tag_458:\n      0x20\n      add\n      add\n        /* \"wwcc-contracts/contracts/wwccPool.sol\":12546:12558  str[0] = \"0\" */\n      swap1\n      not(0xffffffffffffffffffffffffffffffffffffffffffffffffffffffffffffff)\n      and\n      swap1\n      dup2\n      0x00\n      byte\n      swap1\n      mstore8\n      pop\n        /* \"wwcc-contracts/contracts/wwccPool.sol\":12572:12584  str[1] = \"x\" */\n      0x7800000000000000000000000000000000000000000000000000000000000000\n        /* \"wwcc-contracts/contracts/wwccPool.sol\":12572:12575  str */\n      dup2\n        /* \"wwcc-contracts/contracts/wwccPool.sol\":12576:12577  1 */\n      0x01\n        /* \"wwcc-contracts/contracts/wwccPool.sol\":12572:12578  str[1] */\n      dup2\n      mload\n      dup2\n      lt\n      tag_460\n      jumpi\n      tag_461\n      tag_316\n      jump\t// in\n    tag_461:\n    tag_460:\n      0x20\n      add\n      add\n        /* \"wwcc-contracts/contracts/wwccPool.sol\":12572:12584  str[1] = \"x\" */\n      swap1\n      not(0xffffffffffffffffffffffffffffffffffffffffffffffffffffffffffffff)\n      and\n      swap1\n      dup2\n      0x00\n      byte\n      swap1\n      mstore8\n      pop\n        /* \"wwcc-contracts/contracts/wwccPool.sol\":12602:12608  uint i */\n      0x00\n        /* \"wwcc-contracts/contracts/wwccPool.sol\":12598:12789  for(uint i =0;i < data.length;i++){... */\n    tag_462:\n        /* \"wwcc-contracts/contracts/wwccPool.sol\":12616:12620  data */\n      dup5\n        /* \"wwcc-contracts/contracts/wwccPool.sol\":12616:12627  data.length */\n      mload\n        /* \"wwcc-contracts/contracts/wwccPool.sol\":12612:12613  i */\n      dup2\n        /* \"wwcc-contracts/contracts/wwccPool.sol\":12612:12627  i < data.length */\n      lt\n        /* \"wwcc-contracts/contracts/wwccPool.sol\":12598:12789  for(uint i =0;i < data.length;i++){... */\n      iszero\n      tag_463\n      jumpi\n        /* \"wwcc-contracts/contracts/wwccPool.sol\":12667:12675  alphabet */\n      dup3\n        /* \"wwcc-contracts/contracts/wwccPool.sol\":12698:12699  4 */\n      0x04\n        /* \"wwcc-contracts/contracts/wwccPool.sol\":12687:12691  data */\n      dup7\n        /* \"wwcc-contracts/contracts/wwccPool.sol\":12692:12693  i */\n      dup4\n        /* \"wwcc-contracts/contracts/wwccPool.sol\":12687:12694  data[i] */\n      dup2\n      mload\n      dup2\n      lt\n      tag_465\n      jumpi\n      tag_466\n      tag_316\n      jump\t// in\n    tag_466:\n    tag_465:\n      0x20\n      add\n      add\n      mload\n      0xf8\n      shr\n      0xf8\n      shl\n        /* \"wwcc-contracts/contracts/wwccPool.sol\":12687:12699  data[i] >> 4 */\n      not(0xffffffffffffffffffffffffffffffffffffffffffffffffffffffffffffff)\n      and\n      swap1\n      shr\n        /* \"wwcc-contracts/contracts/wwccPool.sol\":12681:12700  uint8(data[i] >> 4) */\n      0xf8\n      shr\n        /* \"wwcc-contracts/contracts/wwccPool.sol\":12676:12701  uint(uint8(data[i] >> 4)) */\n      0xff\n      and\n        /* \"wwcc-contracts/contracts/wwccPool.sol\":12667:12702  alphabet[uint(uint8(data[i] >> 4))] */\n      dup2\n      mload\n      dup2\n      lt\n      tag_467\n      jumpi\n      tag_468\n      tag_316\n      jump\t// in\n    tag_468:\n    tag_467:\n      0x20\n      add\n      add\n      mload\n      0xf8\n      shr\n      0xf8\n      shl\n        /* \"wwcc-contracts/contracts/wwccPool.sol\":12650:12653  str */\n      dup3\n        /* \"wwcc-contracts/contracts/wwccPool.sol\":12662:12663  2 */\n      0x02\n        /* \"wwcc-contracts/contracts/wwccPool.sol\":12658:12659  i */\n      dup4\n        /* \"wwcc-contracts/contracts/wwccPool.sol\":12658:12663  i * 2 */\n      tag_469\n      swap2\n      swap1\n      tag_90\n      jump\t// in\n    tag_469:\n        /* \"wwcc-contracts/contracts/wwccPool.sol\":12654:12655  2 */\n      0x02\n        /* \"wwcc-contracts/contracts/wwccPool.sol\":12654:12663  2 + i * 2 */\n      tag_470\n      swap2\n      swap1\n      tag_21\n      jump\t// in\n    tag_470:\n        /* \"wwcc-contracts/contracts/wwccPool.sol\":12650:12664  str[2 + i * 2] */\n      dup2\n      mload\n      dup2\n      lt\n      tag_471\n      jumpi\n      tag_472\n      tag_316\n      jump\t// in\n    tag_472:\n    tag_471:\n      0x20\n      add\n      add\n        /* \"wwcc-contracts/contracts/wwccPool.sol\":12650:12702  str[2 + i * 2] = alphabet[uint(uint8(data[i] >> 4))] */\n      swap1\n      not(0xffffffffffffffffffffffffffffffffffffffffffffffffffffffffffffff)\n      and\n      swap1\n      dup2\n      0x00\n      byte\n      swap1\n      mstore8\n      pop\n        /* \"wwcc-contracts/contracts/wwccPool.sol\":12737:12745  alphabet */\n      dup3\n        /* \"wwcc-contracts/contracts/wwccPool.sol\":12767:12771  0x0f */\n      0x0f\n        /* \"wwcc-contracts/contracts/wwccPool.sol\":12757:12771  data[i] & 0x0f */\n      0xf8\n      shl\n        /* \"wwcc-contracts/contracts/wwccPool.sol\":12757:12761  data */\n      dup7\n        /* \"wwcc-contracts/contracts/wwccPool.sol\":12762:12763  i */\n      dup4\n        /* \"wwcc-contracts/contracts/wwccPool.sol\":12757:12764  data[i] */\n      dup2\n      mload\n      dup2\n      lt\n      tag_473\n      jumpi\n      tag_474\n      tag_316\n      jump\t// in\n    tag_474:\n    tag_473:\n      0x20\n      add\n      add\n      mload\n      0xf8\n      shr\n      0xf8\n      shl\n        /* \"wwcc-contracts/contracts/wwccPool.sol\":12757:12771  data[i] & 0x0f */\n      and\n        /* \"wwcc-contracts/contracts/wwccPool.sol\":12751:12772  uint8(data[i] & 0x0f) */\n      0xf8\n      shr\n        /* \"wwcc-contracts/contracts/wwccPool.sol\":12746:12773  uint(uint8(data[i] & 0x0f)) */\n      0xff\n      and\n        /* \"wwcc-contracts/contracts/wwccPool.sol\":12737:12774  alphabet[uint(uint8(data[i] & 0x0f))] */\n      dup2\n      mload\n      dup2\n      lt\n      tag_475\n      jumpi\n      tag_476\n      tag_316\n      jump\t// in\n    tag_476:\n    tag_475:\n      0x20\n      add\n      add\n      mload\n      0xf8\n      shr\n      0xf8\n      shl\n        /* \"wwcc-contracts/contracts/wwccPool.sol\":12720:12723  str */\n      dup3\n        /* \"wwcc-contracts/contracts/wwccPool.sol\":12732:12733  2 */\n      0x02\n        /* \"wwcc-contracts/contracts/wwccPool.sol\":12728:12729  i */\n      dup4\n        /* \"wwcc-contracts/contracts/wwccPool.sol\":12728:12733  i * 2 */\n      tag_477\n      swap2\n      swap1\n      tag_90\n      jump\t// in\n    tag_477:\n        /* \"wwcc-contracts/contracts/wwccPool.sol\":12724:12725  3 */\n      0x03\n        /* \"wwcc-contracts/contracts/wwccPool.sol\":12724:12733  3 + i * 2 */\n      tag_478\n      swap2\n      swap1\n      tag_21\n      jump\t// in\n    tag_478:\n        /* \"wwcc-contracts/contracts/wwccPool.sol\":12720:12734  str[3 + i * 2] */\n      dup2\n      mload\n      dup2\n      lt\n      tag_479\n      jumpi\n      tag_480\n      tag_316\n      jump\t// in\n    tag_480:\n    tag_479:\n      0x20\n      add\n      add\n        /* \"wwcc-contracts/contracts/wwccPool.sol\":12720:12774  str[3 + i * 2] = alphabet[uint(uint8(data[i] & 0x0f))] */\n      swap1\n      not(0xffffffffffffffffffffffffffffffffffffffffffffffffffffffffffffff)\n      and\n      swap1\n      dup2\n      0x00\n      byte\n      swap1\n      mstore8\n      pop\n        /* \"wwcc-contracts/contracts/wwccPool.sol\":12628:12631  i++ */\n      dup1\n      dup1\n      tag_481\n      swap1\n      tag_378\n      jump\t// in\n    tag_481:\n      swap2\n      pop\n      pop\n        /* \"wwcc-contracts/contracts/wwccPool.sol\":12598:12789  for(uint i =0;i < data.length;i++){... */\n      jump(tag_462)\n    tag_463:\n      pop\n        /* \"wwcc-contracts/contracts/wwccPool.sol\":12816:12819  str */\n      dup1\n        /* \"wwcc-contracts/contracts/wwccPool.sol\":12802:12820  return string(str) */\n      swap3\n      pop\n      pop\n      pop\n        /* \"wwcc-contracts/contracts/wwccPool.sol\":12340:12827  function toString(bytes memory data) internal pure returns(string memory){... */\n      swap2\n      swap1\n      pop\n      jump\t// out\n    tag_187:\n      dup3\n      dup1\n      sload\n      tag_482\n      swap1\n      tag_106\n      jump\t// in\n    tag_482:\n      swap1\n      0x00\n      mstore\n      keccak256(0x00, 0x20)\n      swap1\n      0x1f\n      add\n      0x20\n      swap1\n      div\n      dup2\n      add\n      swap3\n      dup3\n      tag_484\n      jumpi\n      0x00\n      dup6\n      sstore\n      jump(tag_483)\n    tag_484:\n      dup3\n      0x1f\n      lt\n      tag_485\n      jumpi\n      dup1\n      mload\n      not(0xff)\n      and\n      dup4\n      dup1\n      add\n      or\n      dup6\n      sstore\n      jump(tag_483)\n    tag_485:\n      dup3\n      dup1\n      add\n      0x01\n      add\n      dup6\n      sstore\n      dup3\n      iszero\n      tag_483\n      jumpi\n      swap2\n      dup3\n      add\n    tag_486:\n      dup3\n      dup2\n      gt\n      iszero\n      tag_487\n      jumpi\n      dup3\n      mload\n      dup3\n      sstore\n      swap2\n      0x20\n      add\n      swap2\n      swap1\n      0x01\n      add\n      swap1\n      jump(tag_486)\n    tag_487:\n    tag_483:\n      pop\n      swap1\n      pop\n      tag_488\n      swap2\n      swap1\n      tag_489\n      jump\t// in\n    tag_488:\n      pop\n      swap1\n      jump\t// out\n    tag_391:\n      mload(0x40)\n      dup1\n      0xa0\n      add\n      0x40\n      mstore\n      dup1\n      0x00\n      dup2\n      mstore\n      0x20\n      add\n      0x00\n      dup2\n      mstore\n      0x20\n      add\n      0x00\n      dup2\n      mstore\n      0x20\n      add\n      0x00\n      dup2\n      mstore\n      0x20\n      add\n      0x00\n      dup2\n      mstore\n      pop\n      swap1\n      jump\t// out\n    tag_489:\n    tag_490:\n      dup1\n      dup3\n      gt\n      iszero\n      tag_491\n      jumpi\n      0x00\n      dup2\n      0x00\n      swap1\n      sstore\n      pop\n      0x01\n      add\n      jump(tag_490)\n    tag_491:\n      pop\n      swap1\n      jump\t// out\n        /* \"#utility.yul\":7:419   */\n    tag_493:\n        /* \"#utility.yul\":85:90   */\n      0x00\n        /* \"#utility.yul\":110:176   */\n      tag_495\n        /* \"#utility.yul\":126:175   */\n      tag_496\n        /* \"#utility.yul\":168:174   */\n      dup5\n        /* \"#utility.yul\":126:175   */\n      tag_497\n      jump\t// in\n    tag_496:\n        /* \"#utility.yul\":110:176   */\n      tag_498\n      jump\t// in\n    tag_495:\n        /* \"#utility.yul\":101:176   */\n      swap1\n      pop\n        /* \"#utility.yul\":199:205   */\n      dup3\n        /* \"#utility.yul\":192:197   */\n      dup2\n        /* \"#utility.yul\":185:206   */\n      mstore\n        /* \"#utility.yul\":237:241   */\n      0x20\n        /* \"#utility.yul\":230:235   */\n      dup2\n        /* \"#utility.yul\":226:242   */\n      add\n        /* \"#utility.yul\":275:278   */\n      dup5\n        /* \"#utility.yul\":266:272   */\n      dup5\n        /* \"#utility.yul\":261:264   */\n      dup5\n        /* \"#utility.yul\":257:273   */\n      add\n        /* \"#utility.yul\":254:279   */\n      gt\n        /* \"#utility.yul\":251:363   */\n      iszero\n      tag_499\n      jumpi\n        /* \"#utility.yul\":282:361   */\n      tag_500\n      tag_501\n      jump\t// in\n    tag_500:\n        /* \"#utility.yul\":251:363   */\n    tag_499:\n        /* \"#utility.yul\":372:413   */\n      tag_502\n        /* \"#utility.yul\":406:412   */\n      dup5\n        /* \"#utility.yul\":401:404   */\n      dup3\n        /* \"#utility.yul\":396:399   */\n      dup6\n        /* \"#utility.yul\":372:413   */\n      tag_503\n      jump\t// in\n    tag_502:\n        /* \"#utility.yul\":91:419   */\n      pop\n        /* \"#utility.yul\":7:419   */\n      swap4\n      swap3\n      pop\n      pop\n      pop\n      jump\t// out\n        /* \"#utility.yul\":425:564   */\n    tag_504:\n        /* \"#utility.yul\":471:476   */\n      0x00\n        /* \"#utility.yul\":509:515   */\n      dup2\n        /* \"#utility.yul\":496:516   */\n      calldataload\n        /* \"#utility.yul\":487:516   */\n      swap1\n      pop\n        /* \"#utility.yul\":525:558   */\n      tag_506\n        /* \"#utility.yul\":552:557   */\n      dup2\n        /* \"#utility.yul\":525:558   */\n      tag_507\n      jump\t// in\n    tag_506:\n        /* \"#utility.yul\":425:564   */\n      swap3\n      swap2\n      pop\n      pop\n      jump\t// out\n        /* \"#utility.yul\":570:703   */\n    tag_508:\n        /* \"#utility.yul\":613:618   */\n      0x00\n        /* \"#utility.yul\":651:657   */\n      dup2\n        /* \"#utility.yul\":638:658   */\n      calldataload\n        /* \"#utility.yul\":629:658   */\n      swap1\n      pop\n        /* \"#utility.yul\":667:697   */\n      tag_510\n        /* \"#utility.yul\":691:696   */\n      dup2\n        /* \"#utility.yul\":667:697   */\n      tag_511\n      jump\t// in\n    tag_510:\n        /* \"#utility.yul\":570:703   */\n      swap3\n      swap2\n      pop\n      pop\n      jump\t// out\n        /* \"#utility.yul\":709:848   */\n    tag_512:\n        /* \"#utility.yul\":755:760   */\n      0x00\n        /* \"#utility.yul\":793:799   */\n      dup2\n        /* \"#utility.yul\":780:800   */\n      calldataload\n        /* \"#utility.yul\":771:800   */\n      swap1\n      pop\n        /* \"#utility.yul\":809:842   */\n      tag_514\n        /* \"#utility.yul\":836:841   */\n      dup2\n        /* \"#utility.yul\":809:842   */\n      tag_515\n      jump\t// in\n    tag_514:\n        /* \"#utility.yul\":709:848   */\n      swap3\n      swap2\n      pop\n      pop\n      jump\t// out\n        /* \"#utility.yul\":868:1208   */\n    tag_516:\n        /* \"#utility.yul\":924:929   */\n      0x00\n        /* \"#utility.yul\":973:976   */\n      dup3\n        /* \"#utility.yul\":966:970   */\n      0x1f\n        /* \"#utility.yul\":958:964   */\n      dup4\n        /* \"#utility.yul\":954:971   */\n      add\n        /* \"#utility.yul\":950:977   */\n      slt\n        /* \"#utility.yul\":940:1062   */\n      tag_518\n      jumpi\n        /* \"#utility.yul\":981:1060   */\n      tag_519\n      tag_520\n      jump\t// in\n    tag_519:\n        /* \"#utility.yul\":940:1062   */\n    tag_518:\n        /* \"#utility.yul\":1098:1104   */\n      dup2\n        /* \"#utility.yul\":1085:1105   */\n      calldataload\n        /* \"#utility.yul\":1123:1202   */\n      tag_521\n        /* \"#utility.yul\":1198:1201   */\n      dup5\n        /* \"#utility.yul\":1190:1196   */\n      dup3\n        /* \"#utility.yul\":1183:1187   */\n      0x20\n        /* \"#utility.yul\":1175:1181   */\n      dup7\n        /* \"#utility.yul\":1171:1188   */\n      add\n        /* \"#utility.yul\":1123:1202   */\n      tag_493\n      jump\t// in\n    tag_521:\n        /* \"#utility.yul\":1114:1202   */\n      swap2\n      pop\n        /* \"#utility.yul\":930:1208   */\n      pop\n        /* \"#utility.yul\":868:1208   */\n      swap3\n      swap2\n      pop\n      pop\n      jump\t// out\n        /* \"#utility.yul\":1214:1353   */\n    tag_522:\n        /* \"#utility.yul\":1260:1265   */\n      0x00\n        /* \"#utility.yul\":1298:1304   */\n      dup2\n        /* \"#utility.yul\":1285:1305   */\n      calldataload\n        /* \"#utility.yul\":1276:1305   */\n      swap1\n      pop\n        /* \"#utility.yul\":1314:1347   */\n      tag_524\n        /* \"#utility.yul\":1341:1346   */\n      dup2\n        /* \"#utility.yul\":1314:1347   */\n      tag_525\n      jump\t// in\n    tag_524:\n        /* \"#utility.yul\":1214:1353   */\n      swap3\n      swap2\n      pop\n      pop\n      jump\t// out\n        /* \"#utility.yul\":1359:1688   */\n    tag_34:\n        /* \"#utility.yul\":1418:1424   */\n      0x00\n        /* \"#utility.yul\":1467:1469   */\n      0x20\n        /* \"#utility.yul\":1455:1464   */\n      dup3\n        /* \"#utility.yul\":1446:1453   */\n      dup5\n        /* \"#utility.yul\":1442:1465   */\n      sub\n        /* \"#utility.yul\":1438:1470   */\n      slt\n        /* \"#utility.yul\":1435:1554   */\n      iszero\n      tag_527\n      jumpi\n        /* \"#utility.yul\":1473:1552   */\n      tag_528\n      tag_529\n      jump\t// in\n    tag_528:\n        /* \"#utility.yul\":1435:1554   */\n    tag_527:\n        /* \"#utility.yul\":1593:1594   */\n      0x00\n        /* \"#utility.yul\":1618:1671   */\n      tag_530\n        /* \"#utility.yul\":1663:1670   */\n      dup5\n        /* \"#utility.yul\":1654:1660   */\n      dup3\n        /* \"#utility.yul\":1643:1652   */\n      dup6\n        /* \"#utility.yul\":1639:1661   */\n      add\n        /* \"#utility.yul\":1618:1671   */\n      tag_504\n      jump\t// in\n    tag_530:\n        /* \"#utility.yul\":1608:1671   */\n      swap2\n      pop\n        /* \"#utility.yul\":1564:1681   */\n      pop\n        /* \"#utility.yul\":1359:1688   */\n      swap3\n      swap2\n      pop\n      pop\n      jump\t// out\n        /* \"#utility.yul\":1694:2168   */\n    tag_28:\n        /* \"#utility.yul\":1762:1768   */\n      0x00\n        /* \"#utility.yul\":1770:1776   */\n      dup1\n        /* \"#utility.yul\":1819:1821   */\n      0x40\n        /* \"#utility.yul\":1807:1816   */\n      dup4\n        /* \"#utility.yul\":1798:1805   */\n      dup6\n        /* \"#utility.yul\":1794:1817   */\n      sub\n        /* \"#utility.yul\":1790:1822   */\n      slt\n        /* \"#utility.yul\":1787:1906   */\n      iszero\n      tag_532\n      jumpi\n        /* \"#utility.yul\":1825:1904   */\n      tag_533\n      tag_529\n      jump\t// in\n    tag_533:\n        /* \"#utility.yul\":1787:1906   */\n    tag_532:\n        /* \"#utility.yul\":1945:1946   */\n      0x00\n        /* \"#utility.yul\":1970:2023   */\n      tag_534\n        /* \"#utility.yul\":2015:2022   */\n      dup6\n        /* \"#utility.yul\":2006:2012   */\n      dup3\n        /* \"#utility.yul\":1995:2004   */\n      dup7\n        /* \"#utility.yul\":1991:2013   */\n      add\n        /* \"#utility.yul\":1970:2023   */\n      tag_504\n      jump\t// in\n    tag_534:\n        /* \"#utility.yul\":1960:2023   */\n      swap3\n      pop\n        /* \"#utility.yul\":1916:2033   */\n      pop\n        /* \"#utility.yul\":2072:2074   */\n      0x20\n        /* \"#utility.yul\":2098:2151   */\n      tag_535\n        /* \"#utility.yul\":2143:2150   */\n      dup6\n        /* \"#utility.yul\":2134:2140   */\n      dup3\n        /* \"#utility.yul\":2123:2132   */\n      dup7\n        /* \"#utility.yul\":2119:2141   */\n      add\n        /* \"#utility.yul\":2098:2151   */\n      tag_512\n      jump\t// in\n    tag_535:\n        /* \"#utility.yul\":2088:2151   */\n      swap2\n      pop\n        /* \"#utility.yul\":2043:2161   */\n      pop\n        /* \"#utility.yul\":1694:2168   */\n      swap3\n      pop\n      swap3\n      swap1\n      pop\n      jump\t// out\n        /* \"#utility.yul\":2174:2648   */\n    tag_74:\n        /* \"#utility.yul\":2242:2248   */\n      0x00\n        /* \"#utility.yul\":2250:2256   */\n      dup1\n        /* \"#utility.yul\":2299:2301   */\n      0x40\n        /* \"#utility.yul\":2287:2296   */\n      dup4\n        /* \"#utility.yul\":2278:2285   */\n      dup6\n        /* \"#utility.yul\":2274:2297   */\n      sub\n        /* \"#utility.yul\":2270:2302   */\n      slt\n        /* \"#utility.yul\":2267:2386   */\n      iszero\n      tag_537\n      jumpi\n        /* \"#utility.yul\":2305:2384   */\n      tag_538\n      tag_529\n      jump\t// in\n    tag_538:\n        /* \"#utility.yul\":2267:2386   */\n    tag_537:\n        /* \"#utility.yul\":2425:2426   */\n      0x00\n        /* \"#utility.yul\":2450:2503   */\n      tag_539\n        /* \"#utility.yul\":2495:2502   */\n      dup6\n        /* \"#utility.yul\":2486:2492   */\n      dup3\n        /* \"#utility.yul\":2475:2484   */\n      dup7\n        /* \"#utility.yul\":2471:2493   */\n      add\n        /* \"#utility.yul\":2450:2503   */\n      tag_504\n      jump\t// in\n    tag_539:\n        /* \"#utility.yul\":2440:2503   */\n      swap3\n      pop\n        /* \"#utility.yul\":2396:2513   */\n      pop\n        /* \"#utility.yul\":2552:2554   */\n      0x20\n        /* \"#utility.yul\":2578:2631   */\n      tag_540\n        /* \"#utility.yul\":2623:2630   */\n      dup6\n        /* \"#utility.yul\":2614:2620   */\n      dup3\n        /* \"#utility.yul\":2603:2612   */\n      dup7\n        /* \"#utility.yul\":2599:2621   */\n      add\n        /* \"#utility.yul\":2578:2631   */\n      tag_522\n      jump\t// in\n    tag_540:\n        /* \"#utility.yul\":2568:2631   */\n      swap2\n      pop\n        /* \"#utility.yul\":2523:2641   */\n      pop\n        /* \"#utility.yul\":2174:2648   */\n      swap3\n      pop\n      swap3\n      swap1\n      pop\n      jump\t// out\n        /* \"#utility.yul\":2654:3711   */\n    tag_64:\n        /* \"#utility.yul\":2758:2764   */\n      0x00\n        /* \"#utility.yul\":2766:2772   */\n      dup1\n        /* \"#utility.yul\":2774:2780   */\n      0x00\n        /* \"#utility.yul\":2782:2788   */\n      dup1\n        /* \"#utility.yul\":2790:2796   */\n      0x00\n        /* \"#utility.yul\":2798:2804   */\n      dup1\n        /* \"#utility.yul\":2847:2850   */\n      0xc0\n        /* \"#utility.yul\":2835:2844   */\n      dup8\n        /* \"#utility.yul\":2826:2833   */\n      dup10\n        /* \"#utility.yul\":2822:2845   */\n      sub\n        /* \"#utility.yul\":2818:2851   */\n      slt\n        /* \"#utility.yul\":2815:2935   */\n      iszero\n      tag_542\n      jumpi\n        /* \"#utility.yul\":2854:2933   */\n      tag_543\n      tag_529\n      jump\t// in\n    tag_543:\n        /* \"#utility.yul\":2815:2935   */\n    tag_542:\n        /* \"#utility.yul\":2974:2975   */\n      0x00\n        /* \"#utility.yul\":2999:3052   */\n      tag_544\n        /* \"#utility.yul\":3044:3051   */\n      dup10\n        /* \"#utility.yul\":3035:3041   */\n      dup3\n        /* \"#utility.yul\":3024:3033   */\n      dup11\n        /* \"#utility.yul\":3020:3042   */\n      add\n        /* \"#utility.yul\":2999:3052   */\n      tag_504\n      jump\t// in\n    tag_544:\n        /* \"#utility.yul\":2989:3052   */\n      swap7\n      pop\n        /* \"#utility.yul\":2945:3062   */\n      pop\n        /* \"#utility.yul\":3101:3103   */\n      0x20\n        /* \"#utility.yul\":3127:3180   */\n      tag_545\n        /* \"#utility.yul\":3172:3179   */\n      dup10\n        /* \"#utility.yul\":3163:3169   */\n      dup3\n        /* \"#utility.yul\":3152:3161   */\n      dup11\n        /* \"#utility.yul\":3148:3170   */\n      add\n        /* \"#utility.yul\":3127:3180   */\n      tag_522\n      jump\t// in\n    tag_545:\n        /* \"#utility.yul\":3117:3180   */\n      swap6\n      pop\n        /* \"#utility.yul\":3072:3190   */\n      pop\n        /* \"#utility.yul\":3229:3231   */\n      0x40\n        /* \"#utility.yul\":3255:3308   */\n      tag_546\n        /* \"#utility.yul\":3300:3307   */\n      dup10\n        /* \"#utility.yul\":3291:3297   */\n      dup3\n        /* \"#utility.yul\":3280:3289   */\n      dup11\n        /* \"#utility.yul\":3276:3298   */\n      add\n        /* \"#utility.yul\":3255:3308   */\n      tag_512\n      jump\t// in\n    tag_546:\n        /* \"#utility.yul\":3245:3308   */\n      swap5\n      pop\n        /* \"#utility.yul\":3200:3318   */\n      pop\n        /* \"#utility.yul\":3357:3359   */\n      0x60\n        /* \"#utility.yul\":3383:3436   */\n      tag_547\n        /* \"#utility.yul\":3428:3435   */\n      dup10\n        /* \"#utility.yul\":3419:3425   */\n      dup3\n        /* \"#utility.yul\":3408:3417   */\n      dup11\n        /* \"#utility.yul\":3404:3426   */\n      add\n        /* \"#utility.yul\":3383:3436   */\n      tag_522\n      jump\t// in\n    tag_547:\n        /* \"#utility.yul\":3373:3436   */\n      swap4\n      pop\n        /* \"#utility.yul\":3328:3446   */\n      pop\n        /* \"#utility.yul\":3485:3488   */\n      0x80\n        /* \"#utility.yul\":3512:3565   */\n      tag_548\n        /* \"#utility.yul\":3557:3564   */\n      dup10\n        /* \"#utility.yul\":3548:3554   */\n      dup3\n        /* \"#utility.yul\":3537:3546   */\n      dup11\n        /* \"#utility.yul\":3533:3555   */\n      add\n        /* \"#utility.yul\":3512:3565   */\n      tag_522\n      jump\t// in\n    tag_548:\n        /* \"#utility.yul\":3502:3565   */\n      swap3\n      pop\n        /* \"#utility.yul\":3456:3575   */\n      pop\n        /* \"#utility.yul\":3614:3617   */\n      0xa0\n        /* \"#utility.yul\":3641:3694   */\n      tag_549\n        /* \"#utility.yul\":3686:3693   */\n      dup10\n        /* \"#utility.yul\":3677:3683   */\n      dup3\n        /* \"#utility.yul\":3666:3675   */\n      dup11\n        /* \"#utility.yul\":3662:3684   */\n      add\n        /* \"#utility.yul\":3641:3694   */\n      tag_522\n      jump\t// in\n    tag_549:\n        /* \"#utility.yul\":3631:3694   */\n      swap2\n      pop\n        /* \"#utility.yul\":3585:3704   */\n      pop\n        /* \"#utility.yul\":2654:3711   */\n      swap3\n      swap6\n      pop\n      swap3\n      swap6\n      pop\n      swap3\n      swap6\n      jump\t// out\n        /* \"#utility.yul\":3717:4046   */\n    tag_58:\n        /* \"#utility.yul\":3776:3782   */\n      0x00\n        /* \"#utility.yul\":3825:3827   */\n      0x20\n        /* \"#utility.yul\":3813:3822   */\n      dup3\n        /* \"#utility.yul\":3804:3811   */\n      dup5\n        /* \"#utility.yul\":3800:3823   */\n      sub\n        /* \"#utility.yul\":3796:3828   */\n      slt\n        /* \"#utility.yul\":3793:3912   */\n      iszero\n      tag_551\n      jumpi\n        /* \"#utility.yul\":3831:3910   */\n      tag_552\n      tag_529\n      jump\t// in\n    tag_552:\n        /* \"#utility.yul\":3793:3912   */\n    tag_551:\n        /* \"#utility.yul\":3951:3952   */\n      0x00\n        /* \"#utility.yul\":3976:4029   */\n      tag_553\n        /* \"#utility.yul\":4021:4028   */\n      dup5\n        /* \"#utility.yul\":4012:4018   */\n      dup3\n        /* \"#utility.yul\":4001:4010   */\n      dup6\n        /* \"#utility.yul\":3997:4019   */\n      add\n        /* \"#utility.yul\":3976:4029   */\n      tag_512\n      jump\t// in\n    tag_553:\n        /* \"#utility.yul\":3966:4029   */\n      swap2\n      pop\n        /* \"#utility.yul\":3922:4039   */\n      pop\n        /* \"#utility.yul\":3717:4046   */\n      swap3\n      swap2\n      pop\n      pop\n      jump\t// out\n        /* \"#utility.yul\":4052:4526   */\n    tag_40:\n        /* \"#utility.yul\":4120:4126   */\n      0x00\n        /* \"#utility.yul\":4128:4134   */\n      dup1\n        /* \"#utility.yul\":4177:4179   */\n      0x40\n        /* \"#utility.yul\":4165:4174   */\n      dup4\n        /* \"#utility.yul\":4156:4163   */\n      dup6\n        /* \"#utility.yul\":4152:4175   */\n      sub\n        /* \"#utility.yul\":4148:4180   */\n      slt\n        /* \"#utility.yul\":4145:4264   */\n      iszero\n      tag_555\n      jumpi\n        /* \"#utility.yul\":4183:4262   */\n      tag_556\n      tag_529\n      jump\t// in\n    tag_556:\n        /* \"#utility.yul\":4145:4264   */\n    tag_555:\n        /* \"#utility.yul\":4303:4304   */\n      0x00\n        /* \"#utility.yul\":4328:4381   */\n      tag_557\n        /* \"#utility.yul\":4373:4380   */\n      dup6\n        /* \"#utility.yul\":4364:4370   */\n      dup3\n        /* \"#utility.yul\":4353:4362   */\n      dup7\n        /* \"#utility.yul\":4349:4371   */\n      add\n        /* \"#utility.yul\":4328:4381   */\n      tag_512\n      jump\t// in\n    tag_557:\n        /* \"#utility.yul\":4318:4381   */\n      swap3\n      pop\n        /* \"#utility.yul\":4274:4391   */\n      pop\n        /* \"#utility.yul\":4430:4432   */\n      0x20\n        /* \"#utility.yul\":4456:4509   */\n      tag_558\n        /* \"#utility.yul\":4501:4508   */\n      dup6\n        /* \"#utility.yul\":4492:4498   */\n      dup3\n        /* \"#utility.yul\":4481:4490   */\n      dup7\n        /* \"#utility.yul\":4477:4499   */\n      add\n        /* \"#utility.yul\":4456:4509   */\n      tag_522\n      jump\t// in\n    tag_558:\n        /* \"#utility.yul\":4446:4509   */\n      swap2\n      pop\n        /* \"#utility.yul\":4401:4519   */\n      pop\n        /* \"#utility.yul\":4052:4526   */\n      swap3\n      pop\n      swap3\n      swap1\n      pop\n      jump\t// out\n        /* \"#utility.yul\":4532:5297   */\n    tag_69:\n        /* \"#utility.yul\":4618:4624   */\n      0x00\n        /* \"#utility.yul\":4626:4632   */\n      dup1\n        /* \"#utility.yul\":4634:4640   */\n      0x00\n        /* \"#utility.yul\":4642:4648   */\n      dup1\n        /* \"#utility.yul\":4691:4694   */\n      0x80\n        /* \"#utility.yul\":4679:4688   */\n      dup6\n        /* \"#utility.yul\":4670:4677   */\n      dup8\n        /* \"#utility.yul\":4666:4689   */\n      sub\n        /* \"#utility.yul\":4662:4695   */\n      slt\n        /* \"#utility.yul\":4659:4779   */\n      iszero\n      tag_560\n      jumpi\n        /* \"#utility.yul\":4698:4777   */\n      tag_561\n      tag_529\n      jump\t// in\n    tag_561:\n        /* \"#utility.yul\":4659:4779   */\n    tag_560:\n        /* \"#utility.yul\":4818:4819   */\n      0x00\n        /* \"#utility.yul\":4843:4896   */\n      tag_562\n        /* \"#utility.yul\":4888:4895   */\n      dup8\n        /* \"#utility.yul\":4879:4885   */\n      dup3\n        /* \"#utility.yul\":4868:4877   */\n      dup9\n        /* \"#utility.yul\":4864:4886   */\n      add\n        /* \"#utility.yul\":4843:4896   */\n      tag_512\n      jump\t// in\n    tag_562:\n        /* \"#utility.yul\":4833:4896   */\n      swap5\n      pop\n        /* \"#utility.yul\":4789:4906   */\n      pop\n        /* \"#utility.yul\":4945:4947   */\n      0x20\n        /* \"#utility.yul\":4971:5024   */\n      tag_563\n        /* \"#utility.yul\":5016:5023   */\n      dup8\n        /* \"#utility.yul\":5007:5013   */\n      dup3\n        /* \"#utility.yul\":4996:5005   */\n      dup9\n        /* \"#utility.yul\":4992:5014   */\n      add\n        /* \"#utility.yul\":4971:5024   */\n      tag_522\n      jump\t// in\n    tag_563:\n        /* \"#utility.yul\":4961:5024   */\n      swap4\n      pop\n        /* \"#utility.yul\":4916:5034   */\n      pop\n        /* \"#utility.yul\":5073:5075   */\n      0x40\n        /* \"#utility.yul\":5099:5152   */\n      tag_564\n        /* \"#utility.yul\":5144:5151   */\n      dup8\n        /* \"#utility.yul\":5135:5141   */\n      dup3\n        /* \"#utility.yul\":5124:5133   */\n      dup9\n        /* \"#utility.yul\":5120:5142   */\n      add\n        /* \"#utility.yul\":5099:5152   */\n      tag_522\n      jump\t// in\n    tag_564:\n        /* \"#utility.yul\":5089:5152   */\n      swap3\n      pop\n        /* \"#utility.yul\":5044:5162   */\n      pop\n        /* \"#utility.yul\":5201:5203   */\n      0x60\n        /* \"#utility.yul\":5227:5280   */\n      tag_565\n        /* \"#utility.yul\":5272:5279   */\n      dup8\n        /* \"#utility.yul\":5263:5269   */\n      dup3\n        /* \"#utility.yul\":5252:5261   */\n      dup9\n        /* \"#utility.yul\":5248:5270   */\n      add\n        /* \"#utility.yul\":5227:5280   */\n      tag_522\n      jump\t// in\n    tag_565:\n        /* \"#utility.yul\":5217:5280   */\n      swap2\n      pop\n        /* \"#utility.yul\":5172:5290   */\n      pop\n        /* \"#utility.yul\":4532:5297   */\n      swap3\n      swap6\n      swap2\n      swap5\n      pop\n      swap3\n      pop\n      jump\t// out\n        /* \"#utility.yul\":5303:6602   */\n    tag_46:\n        /* \"#utility.yul\":5416:5422   */\n      0x00\n        /* \"#utility.yul\":5424:5430   */\n      dup1\n        /* \"#utility.yul\":5432:5438   */\n      0x00\n        /* \"#utility.yul\":5440:5446   */\n      dup1\n        /* \"#utility.yul\":5489:5492   */\n      0x80\n        /* \"#utility.yul\":5477:5486   */\n      dup6\n        /* \"#utility.yul\":5468:5475   */\n      dup8\n        /* \"#utility.yul\":5464:5487   */\n      sub\n        /* \"#utility.yul\":5460:5493   */\n      slt\n        /* \"#utility.yul\":5457:5577   */\n      iszero\n      tag_567\n      jumpi\n        /* \"#utility.yul\":5496:5575   */\n      tag_568\n      tag_529\n      jump\t// in\n    tag_568:\n        /* \"#utility.yul\":5457:5577   */\n    tag_567:\n        /* \"#utility.yul\":5644:5645   */\n      0x00\n        /* \"#utility.yul\":5633:5642   */\n      dup6\n        /* \"#utility.yul\":5629:5646   */\n      add\n        /* \"#utility.yul\":5616:5647   */\n      calldataload\n        /* \"#utility.yul\":5674:5692   */\n      0xffffffffffffffff\n        /* \"#utility.yul\":5666:5672   */\n      dup2\n        /* \"#utility.yul\":5663:5693   */\n      gt\n        /* \"#utility.yul\":5660:5777   */\n      iszero\n      tag_569\n      jumpi\n        /* \"#utility.yul\":5696:5775   */\n      tag_570\n      tag_571\n      jump\t// in\n    tag_570:\n        /* \"#utility.yul\":5660:5777   */\n    tag_569:\n        /* \"#utility.yul\":5801:5864   */\n      tag_572\n        /* \"#utility.yul\":5856:5863   */\n      dup8\n        /* \"#utility.yul\":5847:5853   */\n      dup3\n        /* \"#utility.yul\":5836:5845   */\n      dup9\n        /* \"#utility.yul\":5832:5854   */\n      add\n        /* \"#utility.yul\":5801:5864   */\n      tag_516\n      jump\t// in\n    tag_572:\n        /* \"#utility.yul\":5791:5864   */\n      swap5\n      pop\n        /* \"#utility.yul\":5587:5874   */\n      pop\n        /* \"#utility.yul\":5941:5943   */\n      0x20\n        /* \"#utility.yul\":5930:5939   */\n      dup6\n        /* \"#utility.yul\":5926:5944   */\n      add\n        /* \"#utility.yul\":5913:5945   */\n      calldataload\n        /* \"#utility.yul\":5972:5990   */\n      0xffffffffffffffff\n        /* \"#utility.yul\":5964:5970   */\n      dup2\n        /* \"#utility.yul\":5961:5991   */\n      gt\n        /* \"#utility.yul\":5958:6075   */\n      iszero\n      tag_573\n      jumpi\n        /* \"#utility.yul\":5994:6073   */\n      tag_574\n      tag_571\n      jump\t// in\n    tag_574:\n        /* \"#utility.yul\":5958:6075   */\n    tag_573:\n        /* \"#utility.yul\":6099:6162   */\n      tag_575\n        /* \"#utility.yul\":6154:6161   */\n      dup8\n        /* \"#utility.yul\":6145:6151   */\n      dup3\n        /* \"#utility.yul\":6134:6143   */\n      dup9\n        /* \"#utility.yul\":6130:6152   */\n      add\n        /* \"#utility.yul\":6099:6162   */\n      tag_516\n      jump\t// in\n    tag_575:\n        /* \"#utility.yul\":6089:6162   */\n      swap4\n      pop\n        /* \"#utility.yul\":5884:6172   */\n      pop\n        /* \"#utility.yul\":6239:6241   */\n      0x40\n        /* \"#utility.yul\":6228:6237   */\n      dup6\n        /* \"#utility.yul\":6224:6242   */\n      add\n        /* \"#utility.yul\":6211:6243   */\n      calldataload\n        /* \"#utility.yul\":6270:6288   */\n      0xffffffffffffffff\n        /* \"#utility.yul\":6262:6268   */\n      dup2\n        /* \"#utility.yul\":6259:6289   */\n      gt\n        /* \"#utility.yul\":6256:6373   */\n      iszero\n      tag_576\n      jumpi\n        /* \"#utility.yul\":6292:6371   */\n      tag_577\n      tag_571\n      jump\t// in\n    tag_577:\n        /* \"#utility.yul\":6256:6373   */\n    tag_576:\n        /* \"#utility.yul\":6397:6460   */\n      tag_578\n        /* \"#utility.yul\":6452:6459   */\n      dup8\n        /* \"#utility.yul\":6443:6449   */\n      dup3\n        /* \"#utility.yul\":6432:6441   */\n      dup9\n        /* \"#utility.yul\":6428:6450   */\n      add\n        /* \"#utility.yul\":6397:6460   */\n      tag_516\n      jump\t// in\n    tag_578:\n        /* \"#utility.yul\":6387:6460   */\n      swap3\n      pop\n        /* \"#utility.yul\":6182:6470   */\n      pop\n        /* \"#utility.yul\":6509:6511   */\n      0x60\n        /* \"#utility.yul\":6535:6585   */\n      tag_579\n        /* \"#utility.yul\":6577:6584   */\n      dup8\n        /* \"#utility.yul\":6568:6574   */\n      dup3\n        /* \"#utility.yul\":6557:6566   */\n      dup9\n        /* \"#utility.yul\":6553:6575   */\n      add\n        /* \"#utility.yul\":6535:6585   */\n      tag_508\n      jump\t// in\n    tag_579:\n        /* \"#utility.yul\":6525:6585   */\n      swap2\n      pop\n        /* \"#utility.yul\":6480:6595   */\n      pop\n        /* \"#utility.yul\":5303:6602   */\n      swap3\n      swap6\n      swap2\n      swap5\n      pop\n      swap3\n      pop\n      jump\t// out\n        /* \"#utility.yul\":6608:6726   */\n    tag_580:\n        /* \"#utility.yul\":6695:6719   */\n      tag_582\n        /* \"#utility.yul\":6713:6718   */\n      dup2\n        /* \"#utility.yul\":6695:6719   */\n      tag_583\n      jump\t// in\n    tag_582:\n        /* \"#utility.yul\":6690:6693   */\n      dup3\n        /* \"#utility.yul\":6683:6720   */\n      mstore\n        /* \"#utility.yul\":6608:6726   */\n      pop\n      pop\n      jump\t// out\n        /* \"#utility.yul\":6732:6841   */\n    tag_584:\n        /* \"#utility.yul\":6813:6834   */\n      tag_586\n        /* \"#utility.yul\":6828:6833   */\n      dup2\n        /* \"#utility.yul\":6813:6834   */\n      tag_587\n      jump\t// in\n    tag_586:\n        /* \"#utility.yul\":6808:6811   */\n      dup3\n        /* \"#utility.yul\":6801:6835   */\n      mstore\n        /* \"#utility.yul\":6732:6841   */\n      pop\n      pop\n      jump\t// out\n        /* \"#utility.yul\":6847:6965   */\n    tag_588:\n        /* \"#utility.yul\":6934:6958   */\n      tag_590\n        /* \"#utility.yul\":6952:6957   */\n      dup2\n        /* \"#utility.yul\":6934:6958   */\n      tag_591\n      jump\t// in\n    tag_590:\n        /* \"#utility.yul\":6929:6932   */\n      dup3\n        /* \"#utility.yul\":6922:6959   */\n      mstore\n        /* \"#utility.yul\":6847:6965   */\n      pop\n      pop\n      jump\t// out\n        /* \"#utility.yul\":6971:7128   */\n    tag_592:\n        /* \"#utility.yul\":7076:7121   */\n      tag_594\n        /* \"#utility.yul\":7096:7120   */\n      tag_595\n        /* \"#utility.yul\":7114:7119   */\n      dup3\n        /* \"#utility.yul\":7096:7120   */\n      tag_591\n      jump\t// in\n    tag_595:\n        /* \"#utility.yul\":7076:7121   */\n      tag_596\n      jump\t// in\n    tag_594:\n        /* \"#utility.yul\":7071:7074   */\n      dup3\n        /* \"#utility.yul\":7064:7122   */\n      mstore\n        /* \"#utility.yul\":6971:7128   */\n      pop\n      pop\n      jump\t// out\n        /* \"#utility.yul\":7134:7498   */\n    tag_597:\n        /* \"#utility.yul\":7222:7225   */\n      0x00\n        /* \"#utility.yul\":7250:7289   */\n      tag_599\n        /* \"#utility.yul\":7283:7288   */\n      dup3\n        /* \"#utility.yul\":7250:7289   */\n      tag_600\n      jump\t// in\n    tag_599:\n        /* \"#utility.yul\":7305:7376   */\n      tag_601\n        /* \"#utility.yul\":7369:7375   */\n      dup2\n        /* \"#utility.yul\":7364:7367   */\n      dup6\n        /* \"#utility.yul\":7305:7376   */\n      tag_602\n      jump\t// in\n    tag_601:\n        /* \"#utility.yul\":7298:7376   */\n      swap4\n      pop\n        /* \"#utility.yul\":7385:7437   */\n      tag_603\n        /* \"#utility.yul\":7430:7436   */\n      dup2\n        /* \"#utility.yul\":7425:7428   */\n      dup6\n        /* \"#utility.yul\":7418:7422   */\n      0x20\n        /* \"#utility.yul\":7411:7416   */\n      dup7\n        /* \"#utility.yul\":7407:7423   */\n      add\n        /* \"#utility.yul\":7385:7437   */\n      tag_604\n      jump\t// in\n    tag_603:\n        /* \"#utility.yul\":7462:7491   */\n      tag_605\n        /* \"#utility.yul\":7484:7490   */\n      dup2\n        /* \"#utility.yul\":7462:7491   */\n      tag_606\n      jump\t// in\n    tag_605:\n        /* \"#utility.yul\":7457:7460   */\n      dup5\n        /* \"#utility.yul\":7453:7492   */\n      add\n        /* \"#utility.yul\":7446:7492   */\n      swap2\n      pop\n        /* \"#utility.yul\":7226:7498   */\n      pop\n        /* \"#utility.yul\":7134:7498   */\n      swap3\n      swap2\n      pop\n      pop\n      jump\t// out\n        /* \"#utility.yul\":7504:7881   */\n    tag_607:\n        /* \"#utility.yul\":7610:7613   */\n      0x00\n        /* \"#utility.yul\":7638:7677   */\n      tag_609\n        /* \"#utility.yul\":7671:7676   */\n      dup3\n        /* \"#utility.yul\":7638:7677   */\n      tag_600\n      jump\t// in\n    tag_609:\n        /* \"#utility.yul\":7693:7782   */\n      tag_610\n        /* \"#utility.yul\":7775:7781   */\n      dup2\n        /* \"#utility.yul\":7770:7773   */\n      dup6\n        /* \"#utility.yul\":7693:7782   */\n      tag_611\n      jump\t// in\n    tag_610:\n        /* \"#utility.yul\":7686:7782   */\n      swap4\n      pop\n        /* \"#utility.yul\":7791:7843   */\n      tag_612\n        /* \"#utility.yul\":7836:7842   */\n      dup2\n        /* \"#utility.yul\":7831:7834   */\n      dup6\n        /* \"#utility.yul\":7824:7828   */\n      0x20\n        /* \"#utility.yul\":7817:7822   */\n      dup7\n        /* \"#utility.yul\":7813:7829   */\n      add\n        /* \"#utility.yul\":7791:7843   */\n      tag_604\n      jump\t// in\n    tag_612:\n        /* \"#utility.yul\":7868:7874   */\n      dup1\n        /* \"#utility.yul\":7863:7866   */\n      dup5\n        /* \"#utility.yul\":7859:7875   */\n      add\n        /* \"#utility.yul\":7852:7875   */\n      swap2\n      pop\n        /* \"#utility.yul\":7614:7881   */\n      pop\n        /* \"#utility.yul\":7504:7881   */\n      swap3\n      swap2\n      pop\n      pop\n      jump\t// out\n        /* \"#utility.yul\":7887:8253   */\n    tag_613:\n        /* \"#utility.yul\":8029:8032   */\n      0x00\n        /* \"#utility.yul\":8050:8117   */\n      tag_615\n        /* \"#utility.yul\":8114:8116   */\n      0x19\n        /* \"#utility.yul\":8109:8112   */\n      dup4\n        /* \"#utility.yul\":8050:8117   */\n      tag_602\n      jump\t// in\n    tag_615:\n        /* \"#utility.yul\":8043:8117   */\n      swap2\n      pop\n        /* \"#utility.yul\":8126:8219   */\n      tag_616\n        /* \"#utility.yul\":8215:8218   */\n      dup3\n        /* \"#utility.yul\":8126:8219   */\n      tag_617\n      jump\t// in\n    tag_616:\n        /* \"#utility.yul\":8244:8246   */\n      0x20\n        /* \"#utility.yul\":8239:8242   */\n      dup3\n        /* \"#utility.yul\":8235:8247   */\n      add\n        /* \"#utility.yul\":8228:8247   */\n      swap1\n      pop\n        /* \"#utility.yul\":7887:8253   */\n      swap2\n      swap1\n      pop\n      jump\t// out\n        /* \"#utility.yul\":8259:8624   */\n    tag_618:\n        /* \"#utility.yul\":8401:8404   */\n      0x00\n        /* \"#utility.yul\":8422:8488   */\n      tag_620\n        /* \"#utility.yul\":8486:8487   */\n      0x09\n        /* \"#utility.yul\":8481:8484   */\n      dup4\n        /* \"#utility.yul\":8422:8488   */\n      tag_602\n      jump\t// in\n    tag_620:\n        /* \"#utility.yul\":8415:8488   */\n      swap2\n      pop\n        /* \"#utility.yul\":8497:8590   */\n      tag_621\n        /* \"#utility.yul\":8586:8589   */\n      dup3\n        /* \"#utility.yul\":8497:8590   */\n      tag_622\n      jump\t// in\n    tag_621:\n        /* \"#utility.yul\":8615:8617   */\n      0x20\n        /* \"#utility.yul\":8610:8613   */\n      dup3\n        /* \"#utility.yul\":8606:8618   */\n      add\n        /* \"#utility.yul\":8599:8618   */\n      swap1\n      pop\n        /* \"#utility.yul\":8259:8624   */\n      swap2\n      swap1\n      pop\n      jump\t// out\n        /* \"#utility.yul\":8630:8996   */\n    tag_623:\n        /* \"#utility.yul\":8772:8775   */\n      0x00\n        /* \"#utility.yul\":8793:8860   */\n      tag_625\n        /* \"#utility.yul\":8857:8859   */\n      0x0e\n        /* \"#utility.yul\":8852:8855   */\n      dup4\n        /* \"#utility.yul\":8793:8860   */\n      tag_602\n      jump\t// in\n    tag_625:\n        /* \"#utility.yul\":8786:8860   */\n      swap2\n      pop\n        /* \"#utility.yul\":8869:8962   */\n      tag_626\n        /* \"#utility.yul\":8958:8961   */\n      dup3\n        /* \"#utility.yul\":8869:8962   */\n      tag_627\n      jump\t// in\n    tag_626:\n        /* \"#utility.yul\":8987:8989   */\n      0x20\n        /* \"#utility.yul\":8982:8985   */\n      dup3\n        /* \"#utility.yul\":8978:8990   */\n      add\n        /* \"#utility.yul\":8971:8990   */\n      swap1\n      pop\n        /* \"#utility.yul\":8630:8996   */\n      swap2\n      swap1\n      pop\n      jump\t// out\n        /* \"#utility.yul\":9002:9368   */\n    tag_628:\n        /* \"#utility.yul\":9144:9147   */\n      0x00\n        /* \"#utility.yul\":9165:9232   */\n      tag_630\n        /* \"#utility.yul\":9229:9231   */\n      0x17\n        /* \"#utility.yul\":9224:9227   */\n      dup4\n        /* \"#utility.yul\":9165:9232   */\n      tag_602\n      jump\t// in\n    tag_630:\n        /* \"#utility.yul\":9158:9232   */\n      swap2\n      pop\n        /* \"#utility.yul\":9241:9334   */\n      tag_631\n        /* \"#utility.yul\":9330:9333   */\n      dup3\n        /* \"#utility.yul\":9241:9334   */\n      tag_632\n      jump\t// in\n    tag_631:\n        /* \"#utility.yul\":9359:9361   */\n      0x20\n        /* \"#utility.yul\":9354:9357   */\n      dup3\n        /* \"#utility.yul\":9350:9362   */\n      add\n        /* \"#utility.yul\":9343:9362   */\n      swap1\n      pop\n        /* \"#utility.yul\":9002:9368   */\n      swap2\n      swap1\n      pop\n      jump\t// out\n        /* \"#utility.yul\":9374:9740   */\n    tag_633:\n        /* \"#utility.yul\":9516:9519   */\n      0x00\n        /* \"#utility.yul\":9537:9604   */\n      tag_635\n        /* \"#utility.yul\":9601:9603   */\n      0x0a\n        /* \"#utility.yul\":9596:9599   */\n      dup4\n        /* \"#utility.yul\":9537:9604   */\n      tag_602\n      jump\t// in\n    tag_635:\n        /* \"#utility.yul\":9530:9604   */\n      swap2\n      pop\n        /* \"#utility.yul\":9613:9706   */\n      tag_636\n        /* \"#utility.yul\":9702:9705   */\n      dup3\n        /* \"#utility.yul\":9613:9706   */\n      tag_637\n      jump\t// in\n    tag_636:\n        /* \"#utility.yul\":9731:9733   */\n      0x20\n        /* \"#utility.yul\":9726:9729   */\n      dup3\n        /* \"#utility.yul\":9722:9734   */\n      add\n        /* \"#utility.yul\":9715:9734   */\n      swap1\n      pop\n        /* \"#utility.yul\":9374:9740   */\n      swap2\n      swap1\n      pop\n      jump\t// out\n        /* \"#utility.yul\":9746:10112   */\n    tag_638:\n        /* \"#utility.yul\":9888:9891   */\n      0x00\n        /* \"#utility.yul\":9909:9976   */\n      tag_640\n        /* \"#utility.yul\":9973:9975   */\n      0x15\n        /* \"#utility.yul\":9968:9971   */\n      dup4\n        /* \"#utility.yul\":9909:9976   */\n      tag_602\n      jump\t// in\n    tag_640:\n        /* \"#utility.yul\":9902:9976   */\n      swap2\n      pop\n        /* \"#utility.yul\":9985:10078   */\n      tag_641\n        /* \"#utility.yul\":10074:10077   */\n      dup3\n        /* \"#utility.yul\":9985:10078   */\n      tag_642\n      jump\t// in\n    tag_641:\n        /* \"#utility.yul\":10103:10105   */\n      0x20\n        /* \"#utility.yul\":10098:10101   */\n      dup3\n        /* \"#utility.yul\":10094:10106   */\n      add\n        /* \"#utility.yul\":10087:10106   */\n      swap1\n      pop\n        /* \"#utility.yul\":9746:10112   */\n      swap2\n      swap1\n      pop\n      jump\t// out\n        /* \"#utility.yul\":10118:10484   */\n    tag_643:\n        /* \"#utility.yul\":10260:10263   */\n      0x00\n        /* \"#utility.yul\":10281:10348   */\n      tag_645\n        /* \"#utility.yul\":10345:10347   */\n      0x15\n        /* \"#utility.yul\":10340:10343   */\n      dup4\n        /* \"#utility.yul\":10281:10348   */\n      tag_602\n      jump\t// in\n    tag_645:\n        /* \"#utility.yul\":10274:10348   */\n      swap2\n      pop\n        /* \"#utility.yul\":10357:10450   */\n      tag_646\n        /* \"#utility.yul\":10446:10449   */\n      dup3\n        /* \"#utility.yul\":10357:10450   */\n      tag_647\n      jump\t// in\n    tag_646:\n        /* \"#utility.yul\":10475:10477   */\n      0x20\n        /* \"#utility.yul\":10470:10473   */\n      dup3\n        /* \"#utility.yul\":10466:10478   */\n      add\n        /* \"#utility.yul\":10459:10478   */\n      swap1\n      pop\n        /* \"#utility.yul\":10118:10484   */\n      swap2\n      swap1\n      pop\n      jump\t// out\n        /* \"#utility.yul\":10490:10856   */\n    tag_648:\n        /* \"#utility.yul\":10632:10635   */\n      0x00\n        /* \"#utility.yul\":10653:10720   */\n      tag_650\n        /* \"#utility.yul\":10717:10719   */\n      0x10\n        /* \"#utility.yul\":10712:10715   */\n      dup4\n        /* \"#utility.yul\":10653:10720   */\n      tag_602\n      jump\t// in\n    tag_650:\n        /* \"#utility.yul\":10646:10720   */\n      swap2\n      pop\n        /* \"#utility.yul\":10729:10822   */\n      tag_651\n        /* \"#utility.yul\":10818:10821   */\n      dup3\n        /* \"#utility.yul\":10729:10822   */\n      tag_652\n      jump\t// in\n    tag_651:\n        /* \"#utility.yul\":10847:10849   */\n      0x20\n        /* \"#utility.yul\":10842:10845   */\n      dup3\n        /* \"#utility.yul\":10838:10850   */\n      add\n        /* \"#utility.yul\":10831:10850   */\n      swap1\n      pop\n        /* \"#utility.yul\":10490:10856   */\n      swap2\n      swap1\n      pop\n      jump\t// out\n        /* \"#utility.yul\":10862:11228   */\n    tag_653:\n        /* \"#utility.yul\":11004:11007   */\n      0x00\n        /* \"#utility.yul\":11025:11092   */\n      tag_655\n        /* \"#utility.yul\":11089:11091   */\n      0x11\n        /* \"#utility.yul\":11084:11087   */\n      dup4\n        /* \"#utility.yul\":11025:11092   */\n      tag_602\n      jump\t// in\n    tag_655:\n        /* \"#utility.yul\":11018:11092   */\n      swap2\n      pop\n        /* \"#utility.yul\":11101:11194   */\n      tag_656\n        /* \"#utility.yul\":11190:11193   */\n      dup3\n        /* \"#utility.yul\":11101:11194   */\n      tag_657\n      jump\t// in\n    tag_656:\n        /* \"#utility.yul\":11219:11221   */\n      0x20\n        /* \"#utility.yul\":11214:11217   */\n      dup3\n        /* \"#utility.yul\":11210:11222   */\n      add\n        /* \"#utility.yul\":11203:11222   */\n      swap1\n      pop\n        /* \"#utility.yul\":10862:11228   */\n      swap2\n      swap1\n      pop\n      jump\t// out\n        /* \"#utility.yul\":11298:12340   */\n    tag_658:\n        /* \"#utility.yul\":11453:11457   */\n      0xa0\n        /* \"#utility.yul\":11448:11451   */\n      dup3\n        /* \"#utility.yul\":11444:11458   */\n      add\n        /* \"#utility.yul\":11541:11545   */\n      0x00\n        /* \"#utility.yul\":11534:11539   */\n      dup3\n        /* \"#utility.yul\":11530:11546   */\n      add\n        /* \"#utility.yul\":11524:11547   */\n      mload\n        /* \"#utility.yul\":11560:11623   */\n      tag_660\n        /* \"#utility.yul\":11617:11621   */\n      0x00\n        /* \"#utility.yul\":11612:11615   */\n      dup6\n        /* \"#utility.yul\":11608:11622   */\n      add\n        /* \"#utility.yul\":11594:11606   */\n      dup3\n        /* \"#utility.yul\":11560:11623   */\n      tag_661\n      jump\t// in\n    tag_660:\n        /* \"#utility.yul\":11468:11633   */\n      pop\n        /* \"#utility.yul\":11716:11720   */\n      0x20\n        /* \"#utility.yul\":11709:11714   */\n      dup3\n        /* \"#utility.yul\":11705:11721   */\n      add\n        /* \"#utility.yul\":11699:11722   */\n      mload\n        /* \"#utility.yul\":11735:11798   */\n      tag_662\n        /* \"#utility.yul\":11792:11796   */\n      0x20\n        /* \"#utility.yul\":11787:11790   */\n      dup6\n        /* \"#utility.yul\":11783:11797   */\n      add\n        /* \"#utility.yul\":11769:11781   */\n      dup3\n        /* \"#utility.yul\":11735:11798   */\n      tag_661\n      jump\t// in\n    tag_662:\n        /* \"#utility.yul\":11643:11808   */\n      pop\n        /* \"#utility.yul\":11891:11895   */\n      0x40\n        /* \"#utility.yul\":11884:11889   */\n      dup3\n        /* \"#utility.yul\":11880:11896   */\n      add\n        /* \"#utility.yul\":11874:11897   */\n      mload\n        /* \"#utility.yul\":11910:11973   */\n      tag_663\n        /* \"#utility.yul\":11967:11971   */\n      0x40\n        /* \"#utility.yul\":11962:11965   */\n      dup6\n        /* \"#utility.yul\":11958:11972   */\n      add\n        /* \"#utility.yul\":11944:11956   */\n      dup3\n        /* \"#utility.yul\":11910:11973   */\n      tag_661\n      jump\t// in\n    tag_663:\n        /* \"#utility.yul\":11818:11983   */\n      pop\n        /* \"#utility.yul\":12066:12070   */\n      0x60\n        /* \"#utility.yul\":12059:12064   */\n      dup3\n        /* \"#utility.yul\":12055:12071   */\n      add\n        /* \"#utility.yul\":12049:12072   */\n      mload\n        /* \"#utility.yul\":12085:12148   */\n      tag_664\n        /* \"#utility.yul\":12142:12146   */\n      0x60\n        /* \"#utility.yul\":12137:12140   */\n      dup6\n        /* \"#utility.yul\":12133:12147   */\n      add\n        /* \"#utility.yul\":12119:12131   */\n      dup3\n        /* \"#utility.yul\":12085:12148   */\n      tag_661\n      jump\t// in\n    tag_664:\n        /* \"#utility.yul\":11993:12158   */\n      pop\n        /* \"#utility.yul\":12241:12245   */\n      0x80\n        /* \"#utility.yul\":12234:12239   */\n      dup3\n        /* \"#utility.yul\":12230:12246   */\n      add\n        /* \"#utility.yul\":12224:12247   */\n      mload\n        /* \"#utility.yul\":12260:12323   */\n      tag_665\n        /* \"#utility.yul\":12317:12321   */\n      0x80\n        /* \"#utility.yul\":12312:12315   */\n      dup6\n        /* \"#utility.yul\":12308:12322   */\n      add\n        /* \"#utility.yul\":12294:12306   */\n      dup3\n        /* \"#utility.yul\":12260:12323   */\n      tag_661\n      jump\t// in\n    tag_665:\n        /* \"#utility.yul\":12168:12333   */\n      pop\n        /* \"#utility.yul\":11422:12340   */\n      pop\n        /* \"#utility.yul\":11298:12340   */\n      pop\n      pop\n      jump\t// out\n        /* \"#utility.yul\":12346:12454   */\n    tag_661:\n        /* \"#utility.yul\":12423:12447   */\n      tag_667\n        /* \"#utility.yul\":12441:12446   */\n      dup2\n        /* \"#utility.yul\":12423:12447   */\n      tag_668\n      jump\t// in\n    tag_667:\n        /* \"#utility.yul\":12418:12421   */\n      dup3\n        /* \"#utility.yul\":12411:12448   */\n      mstore\n        /* \"#utility.yul\":12346:12454   */\n      pop\n      pop\n      jump\t// out\n        /* \"#utility.yul\":12460:12578   */\n    tag_669:\n        /* \"#utility.yul\":12547:12571   */\n      tag_671\n        /* \"#utility.yul\":12565:12570   */\n      dup2\n        /* \"#utility.yul\":12547:12571   */\n      tag_668\n      jump\t// in\n    tag_671:\n        /* \"#utility.yul\":12542:12545   */\n      dup3\n        /* \"#utility.yul\":12535:12572   */\n      mstore\n        /* \"#utility.yul\":12460:12578   */\n      pop\n      pop\n      jump\t// out\n        /* \"#utility.yul\":12584:12741   */\n    tag_672:\n        /* \"#utility.yul\":12689:12734   */\n      tag_674\n        /* \"#utility.yul\":12709:12733   */\n      tag_675\n        /* \"#utility.yul\":12727:12732   */\n      dup3\n        /* \"#utility.yul\":12709:12733   */\n      tag_668\n      jump\t// in\n    tag_675:\n        /* \"#utility.yul\":12689:12734   */\n      tag_676\n      jump\t// in\n    tag_674:\n        /* \"#utility.yul\":12684:12687   */\n      dup3\n        /* \"#utility.yul\":12677:12735   */\n      mstore\n        /* \"#utility.yul\":12584:12741   */\n      pop\n      pop\n      jump\t// out\n        /* \"#utility.yul\":12747:13003   */\n    tag_451:\n        /* \"#utility.yul\":12859:12862   */\n      0x00\n        /* \"#utility.yul\":12874:12949   */\n      tag_678\n        /* \"#utility.yul\":12945:12948   */\n      dup3\n        /* \"#utility.yul\":12936:12942   */\n      dup5\n        /* \"#utility.yul\":12874:12949   */\n      tag_592\n      jump\t// in\n    tag_678:\n        /* \"#utility.yul\":12974:12976   */\n      0x20\n        /* \"#utility.yul\":12969:12972   */\n      dup3\n        /* \"#utility.yul\":12965:12977   */\n      add\n        /* \"#utility.yul\":12958:12977   */\n      swap2\n      pop\n        /* \"#utility.yul\":12994:12997   */\n      dup2\n        /* \"#utility.yul\":12987:12997   */\n      swap1\n      pop\n        /* \"#utility.yul\":12747:13003   */\n      swap3\n      swap2\n      pop\n      pop\n      jump\t// out\n        /* \"#utility.yul\":13009:13284   */\n    tag_180:\n        /* \"#utility.yul\":13141:13144   */\n      0x00\n        /* \"#utility.yul\":13163:13258   */\n      tag_680\n        /* \"#utility.yul\":13254:13257   */\n      dup3\n        /* \"#utility.yul\":13245:13251   */\n      dup5\n        /* \"#utility.yul\":13163:13258   */\n      tag_607\n      jump\t// in\n    tag_680:\n        /* \"#utility.yul\":13156:13258   */\n      swap2\n      pop\n        /* \"#utility.yul\":13275:13278   */\n      dup2\n        /* \"#utility.yul\":13268:13278   */\n      swap1\n      pop\n        /* \"#utility.yul\":13009:13284   */\n      swap3\n      swap2\n      pop\n      pop\n      jump\t// out\n        /* \"#utility.yul\":13290:13546   */\n    tag_446:\n        /* \"#utility.yul\":13402:13405   */\n      0x00\n        /* \"#utility.yul\":13417:13492   */\n      tag_682\n        /* \"#utility.yul\":13488:13491   */\n      dup3\n        /* \"#utility.yul\":13479:13485   */\n      dup5\n        /* \"#utility.yul\":13417:13492   */\n      tag_672\n      jump\t// in\n    tag_682:\n        /* \"#utility.yul\":13517:13519   */\n      0x20\n        /* \"#utility.yul\":13512:13515   */\n      dup3\n        /* \"#utility.yul\":13508:13520   */\n      add\n        /* \"#utility.yul\":13501:13520   */\n      swap2\n      pop\n        /* \"#utility.yul\":13537:13540   */\n      dup2\n        /* \"#utility.yul\":13530:13540   */\n      swap1\n      pop\n        /* \"#utility.yul\":13290:13546   */\n      swap3\n      swap2\n      pop\n      pop\n      jump\t// out\n        /* \"#utility.yul\":13552:13884   */\n    tag_24:\n        /* \"#utility.yul\":13673:13677   */\n      0x00\n        /* \"#utility.yul\":13711:13713   */\n      0x40\n        /* \"#utility.yul\":13700:13709   */\n      dup3\n        /* \"#utility.yul\":13696:13714   */\n      add\n        /* \"#utility.yul\":13688:13714   */\n      swap1\n      pop\n        /* \"#utility.yul\":13724:13795   */\n      tag_684\n        /* \"#utility.yul\":13792:13793   */\n      0x00\n        /* \"#utility.yul\":13781:13790   */\n      dup4\n        /* \"#utility.yul\":13777:13794   */\n      add\n        /* \"#utility.yul\":13768:13774   */\n      dup6\n        /* \"#utility.yul\":13724:13795   */\n      tag_580\n      jump\t// in\n    tag_684:\n        /* \"#utility.yul\":13805:13877   */\n      tag_685\n        /* \"#utility.yul\":13873:13875   */\n      0x20\n        /* \"#utility.yul\":13862:13871   */\n      dup4\n        /* \"#utility.yul\":13858:13876   */\n      add\n        /* \"#utility.yul\":13849:13855   */\n      dup5\n        /* \"#utility.yul\":13805:13877   */\n      tag_669\n      jump\t// in\n    tag_685:\n        /* \"#utility.yul\":13552:13884   */\n      swap4\n      swap3\n      pop\n      pop\n      pop\n      jump\t// out\n        /* \"#utility.yul\":13890:14100   */\n    tag_31:\n        /* \"#utility.yul\":13977:13981   */\n      0x00\n        /* \"#utility.yul\":14015:14017   */\n      0x20\n        /* \"#utility.yul\":14004:14013   */\n      dup3\n        /* \"#utility.yul\":14000:14018   */\n      add\n        /* \"#utility.yul\":13992:14018   */\n      swap1\n      pop\n        /* \"#utility.yul\":14028:14093   */\n      tag_687\n        /* \"#utility.yul\":14090:14091   */\n      0x00\n        /* \"#utility.yul\":14079:14088   */\n      dup4\n        /* \"#utility.yul\":14075:14092   */\n      add\n        /* \"#utility.yul\":14066:14072   */\n      dup5\n        /* \"#utility.yul\":14028:14093   */\n      tag_584\n      jump\t// in\n    tag_687:\n        /* \"#utility.yul\":13890:14100   */\n      swap3\n      swap2\n      pop\n      pop\n      jump\t// out\n        /* \"#utility.yul\":14106:14328   */\n    tag_49:\n        /* \"#utility.yul\":14199:14203   */\n      0x00\n        /* \"#utility.yul\":14237:14239   */\n      0x20\n        /* \"#utility.yul\":14226:14235   */\n      dup3\n        /* \"#utility.yul\":14222:14240   */\n      add\n        /* \"#utility.yul\":14214:14240   */\n      swap1\n      pop\n        /* \"#utility.yul\":14250:14321   */\n      tag_689\n        /* \"#utility.yul\":14318:14319   */\n      0x00\n        /* \"#utility.yul\":14307:14316   */\n      dup4\n        /* \"#utility.yul\":14303:14320   */\n      add\n        /* \"#utility.yul\":14294:14300   */\n      dup5\n        /* \"#utility.yul\":14250:14321   */\n      tag_588\n      jump\t// in\n    tag_689:\n        /* \"#utility.yul\":14106:14328   */\n      swap3\n      swap2\n      pop\n      pop\n      jump\t// out\n        /* \"#utility.yul\":14334:15075   */\n    tag_86:\n        /* \"#utility.yul\":14581:14585   */\n      0x00\n        /* \"#utility.yul\":14619:14622   */\n      0xe0\n        /* \"#utility.yul\":14608:14617   */\n      dup3\n        /* \"#utility.yul\":14604:14623   */\n      add\n        /* \"#utility.yul\":14596:14623   */\n      swap1\n      pop\n        /* \"#utility.yul\":14669:14678   */\n      dup2\n        /* \"#utility.yul\":14663:14667   */\n      dup2\n        /* \"#utility.yul\":14659:14679   */\n      sub\n        /* \"#utility.yul\":14655:14656   */\n      0x00\n        /* \"#utility.yul\":14644:14653   */\n      dup4\n        /* \"#utility.yul\":14640:14657   */\n      add\n        /* \"#utility.yul\":14633:14680   */\n      mstore\n        /* \"#utility.yul\":14697:14775   */\n      tag_691\n        /* \"#utility.yul\":14770:14774   */\n      dup2\n        /* \"#utility.yul\":14761:14767   */\n      dup7\n        /* \"#utility.yul\":14697:14775   */\n      tag_597\n      jump\t// in\n    tag_691:\n        /* \"#utility.yul\":14689:14775   */\n      swap1\n      pop\n        /* \"#utility.yul\":14822:14831   */\n      dup2\n        /* \"#utility.yul\":14816:14820   */\n      dup2\n        /* \"#utility.yul\":14812:14832   */\n      sub\n        /* \"#utility.yul\":14807:14809   */\n      0x20\n        /* \"#utility.yul\":14796:14805   */\n      dup4\n        /* \"#utility.yul\":14792:14810   */\n      add\n        /* \"#utility.yul\":14785:14833   */\n      mstore\n        /* \"#utility.yul\":14850:14928   */\n      tag_692\n        /* \"#utility.yul\":14923:14927   */\n      dup2\n        /* \"#utility.yul\":14914:14920   */\n      dup6\n        /* \"#utility.yul\":14850:14928   */\n      tag_597\n      jump\t// in\n    tag_692:\n        /* \"#utility.yul\":14842:14928   */\n      swap1\n      pop\n        /* \"#utility.yul\":14938:15068   */\n      tag_693\n        /* \"#utility.yul\":15064:15066   */\n      0x40\n        /* \"#utility.yul\":15053:15062   */\n      dup4\n        /* \"#utility.yul\":15049:15067   */\n      add\n        /* \"#utility.yul\":15040:15046   */\n      dup5\n        /* \"#utility.yul\":14938:15068   */\n      tag_658\n      jump\t// in\n    tag_693:\n        /* \"#utility.yul\":14334:15075   */\n      swap5\n      swap4\n      pop\n      pop\n      pop\n      pop\n      jump\t// out\n        /* \"#utility.yul\":15081:15500   */\n    tag_97:\n        /* \"#utility.yul\":15247:15251   */\n      0x00\n        /* \"#utility.yul\":15285:15287   */\n      0x20\n        /* \"#utility.yul\":15274:15283   */\n      dup3\n        /* \"#utility.yul\":15270:15288   */\n      add\n        /* \"#utility.yul\":15262:15288   */\n      swap1\n      pop\n        /* \"#utility.yul\":15334:15343   */\n      dup2\n        /* \"#utility.yul\":15328:15332   */\n      dup2\n        /* \"#utility.yul\":15324:15344   */\n      sub\n        /* \"#utility.yul\":15320:15321   */\n      0x00\n        /* \"#utility.yul\":15309:15318   */\n      dup4\n        /* \"#utility.yul\":15305:15322   */\n      add\n        /* \"#utility.yul\":15298:15345   */\n      mstore\n        /* \"#utility.yul\":15362:15493   */\n      tag_695\n        /* \"#utility.yul\":15488:15492   */\n      dup2\n        /* \"#utility.yul\":15362:15493   */\n      tag_613\n      jump\t// in\n    tag_695:\n        /* \"#utility.yul\":15354:15493   */\n      swap1\n      pop\n        /* \"#utility.yul\":15081:15500   */\n      swap2\n      swap1\n      pop\n      jump\t// out\n        /* \"#utility.yul\":15506:15925   */\n    tag_396:\n        /* \"#utility.yul\":15672:15676   */\n      0x00\n        /* \"#utility.yul\":15710:15712   */\n      0x20\n        /* \"#utility.yul\":15699:15708   */\n      dup3\n        /* \"#utility.yul\":15695:15713   */\n      add\n        /* \"#utility.yul\":15687:15713   */\n      swap1\n      pop\n        /* \"#utility.yul\":15759:15768   */\n      dup2\n        /* \"#utility.yul\":15753:15757   */\n      dup2\n        /* \"#utility.yul\":15749:15769   */\n      sub\n        /* \"#utility.yul\":15745:15746   */\n      0x00\n        /* \"#utility.yul\":15734:15743   */\n      dup4\n        /* \"#utility.yul\":15730:15747   */\n      add\n        /* \"#utility.yul\":15723:15770   */\n      mstore\n        /* \"#utility.yul\":15787:15918   */\n      tag_697\n        /* \"#utility.yul\":15913:15917   */\n      dup2\n        /* \"#utility.yul\":15787:15918   */\n      tag_618\n      jump\t// in\n    tag_697:\n        /* \"#utility.yul\":15779:15918   */\n      swap1\n      pop\n        /* \"#utility.yul\":15506:15925   */\n      swap2\n      swap1\n      pop\n      jump\t// out\n        /* \"#utility.yul\":15931:16350   */\n    tag_103:\n        /* \"#utility.yul\":16097:16101   */\n      0x00\n        /* \"#utility.yul\":16135:16137   */\n      0x20\n        /* \"#utility.yul\":16124:16133   */\n      dup3\n        /* \"#utility.yul\":16120:16138   */\n      add\n        /* \"#utility.yul\":16112:16138   */\n      swap1\n      pop\n        /* \"#utility.yul\":16184:16193   */\n      dup2\n        /* \"#utility.yul\":16178:16182   */\n      dup2\n        /* \"#utility.yul\":16174:16194   */\n      sub\n        /* \"#utility.yul\":16170:16171   */\n      0x00\n        /* \"#utility.yul\":16159:16168   */\n      dup4\n        /* \"#utility.yul\":16155:16172   */\n      add\n        /* \"#utility.yul\":16148:16195   */\n      mstore\n        /* \"#utility.yul\":16212:16343   */\n      tag_699\n        /* \"#utility.yul\":16338:16342   */\n      dup2\n        /* \"#utility.yul\":16212:16343   */\n      tag_623\n      jump\t// in\n    tag_699:\n        /* \"#utility.yul\":16204:16343   */\n      swap1\n      pop\n        /* \"#utility.yul\":15931:16350   */\n      swap2\n      swap1\n      pop\n      jump\t// out\n        /* \"#utility.yul\":16356:16775   */\n    tag_166:\n        /* \"#utility.yul\":16522:16526   */\n      0x00\n        /* \"#utility.yul\":16560:16562   */\n      0x20\n        /* \"#utility.yul\":16549:16558   */\n      dup3\n        /* \"#utility.yul\":16545:16563   */\n      add\n        /* \"#utility.yul\":16537:16563   */\n      swap1\n      pop\n        /* \"#utility.yul\":16609:16618   */\n      dup2\n        /* \"#utility.yul\":16603:16607   */\n      dup2\n        /* \"#utility.yul\":16599:16619   */\n      sub\n        /* \"#utility.yul\":16595:16596   */\n      0x00\n        /* \"#utility.yul\":16584:16593   */\n      dup4\n        /* \"#utility.yul\":16580:16597   */\n      add\n        /* \"#utility.yul\":16573:16620   */\n      mstore\n        /* \"#utility.yul\":16637:16768   */\n      tag_701\n        /* \"#utility.yul\":16763:16767   */\n      dup2\n        /* \"#utility.yul\":16637:16768   */\n      tag_628\n      jump\t// in\n    tag_701:\n        /* \"#utility.yul\":16629:16768   */\n      swap1\n      pop\n        /* \"#utility.yul\":16356:16775   */\n      swap2\n      swap1\n      pop\n      jump\t// out\n        /* \"#utility.yul\":16781:17200   */\n    tag_184:\n        /* \"#utility.yul\":16947:16951   */\n      0x00\n        /* \"#utility.yul\":16985:16987   */\n      0x20\n        /* \"#utility.yul\":16974:16983   */\n      dup3\n        /* \"#utility.yul\":16970:16988   */\n      add\n        /* \"#utility.yul\":16962:16988   */\n      swap1\n      pop\n        /* \"#utility.yul\":17034:17043   */\n      dup2\n        /* \"#utility.yul\":17028:17032   */\n      dup2\n        /* \"#utility.yul\":17024:17044   */\n      sub\n        /* \"#utility.yul\":17020:17021   */\n      0x00\n        /* \"#utility.yul\":17009:17018   */\n      dup4\n        /* \"#utility.yul\":17005:17022   */\n      add\n        /* \"#utility.yul\":16998:17045   */\n      mstore\n        /* \"#utility.yul\":17062:17193   */\n      tag_703\n        /* \"#utility.yul\":17188:17192   */\n      dup2\n        /* \"#utility.yul\":17062:17193   */\n      tag_633\n      jump\t// in\n    tag_703:\n        /* \"#utility.yul\":17054:17193   */\n      swap1\n      pop\n        /* \"#utility.yul\":16781:17200   */\n      swap2\n      swap1\n      pop\n      jump\t// out\n        /* \"#utility.yul\":17206:17625   */\n    tag_132:\n        /* \"#utility.yul\":17372:17376   */\n      0x00\n        /* \"#utility.yul\":17410:17412   */\n      0x20\n        /* \"#utility.yul\":17399:17408   */\n      dup3\n        /* \"#utility.yul\":17395:17413   */\n      add\n        /* \"#utility.yul\":17387:17413   */\n      swap1\n      pop\n        /* \"#utility.yul\":17459:17468   */\n      dup2\n        /* \"#utility.yul\":17453:17457   */\n      dup2\n        /* \"#utility.yul\":17449:17469   */\n      sub\n        /* \"#utility.yul\":17445:17446   */\n      0x00\n        /* \"#utility.yul\":17434:17443   */\n      dup4\n        /* \"#utility.yul\":17430:17447   */\n      add\n        /* \"#utility.yul\":17423:17470   */\n      mstore\n        /* \"#utility.yul\":17487:17618   */\n      tag_705\n        /* \"#utility.yul\":17613:17617   */\n      dup2\n        /* \"#utility.yul\":17487:17618   */\n      tag_638\n      jump\t// in\n    tag_705:\n        /* \"#utility.yul\":17479:17618   */\n      swap1\n      pop\n        /* \"#utility.yul\":17206:17625   */\n      swap2\n      swap1\n      pop\n      jump\t// out\n        /* \"#utility.yul\":17631:18050   */\n    tag_229:\n        /* \"#utility.yul\":17797:17801   */\n      0x00\n        /* \"#utility.yul\":17835:17837   */\n      0x20\n        /* \"#utility.yul\":17824:17833   */\n      dup3\n        /* \"#utility.yul\":17820:17838   */\n      add\n        /* \"#utility.yul\":17812:17838   */\n      swap1\n      pop\n        /* \"#utility.yul\":17884:17893   */\n      dup2\n        /* \"#utility.yul\":17878:17882   */\n      dup2\n        /* \"#utility.yul\":17874:17894   */\n      sub\n        /* \"#utility.yul\":17870:17871   */\n      0x00\n        /* \"#utility.yul\":17859:17868   */\n      dup4\n        /* \"#utility.yul\":17855:17872   */\n      add\n        /* \"#utility.yul\":17848:17895   */\n      mstore\n        /* \"#utility.yul\":17912:18043   */\n      tag_707\n        /* \"#utility.yul\":18038:18042   */\n      dup2\n        /* \"#utility.yul\":17912:18043   */\n      tag_643\n      jump\t// in\n    tag_707:\n        /* \"#utility.yul\":17904:18043   */\n      swap1\n      pop\n        /* \"#utility.yul\":17631:18050   */\n      swap2\n      swap1\n      pop\n      jump\t// out\n        /* \"#utility.yul\":18056:18475   */\n    tag_169:\n        /* \"#utility.yul\":18222:18226   */\n      0x00\n        /* \"#utility.yul\":18260:18262   */\n      0x20\n        /* \"#utility.yul\":18249:18258   */\n      dup3\n        /* \"#utility.yul\":18245:18263   */\n      add\n        /* \"#utility.yul\":18237:18263   */\n      swap1\n      pop\n        /* \"#utility.yul\":18309:18318   */\n      dup2\n        /* \"#utility.yul\":18303:18307   */\n      dup2\n        /* \"#utility.yul\":18299:18319   */\n      sub\n        /* \"#utility.yul\":18295:18296   */\n      0x00\n        /* \"#utility.yul\":18284:18293   */\n      dup4\n        /* \"#utility.yul\":18280:18297   */\n      add\n        /* \"#utility.yul\":18273:18320   */\n      mstore\n        /* \"#utility.yul\":18337:18468   */\n      tag_709\n        /* \"#utility.yul\":18463:18467   */\n      dup2\n        /* \"#utility.yul\":18337:18468   */\n      tag_648\n      jump\t// in\n    tag_709:\n        /* \"#utility.yul\":18329:18468   */\n      swap1\n      pop\n        /* \"#utility.yul\":18056:18475   */\n      swap2\n      swap1\n      pop\n      jump\t// out\n        /* \"#utility.yul\":18481:18900   */\n    tag_294:\n        /* \"#utility.yul\":18647:18651   */\n      0x00\n        /* \"#utility.yul\":18685:18687   */\n      0x20\n        /* \"#utility.yul\":18674:18683   */\n      dup3\n        /* \"#utility.yul\":18670:18688   */\n      add\n        /* \"#utility.yul\":18662:18688   */\n      swap1\n      pop\n        /* \"#utility.yul\":18734:18743   */\n      dup2\n        /* \"#utility.yul\":18728:18732   */\n      dup2\n        /* \"#utility.yul\":18724:18744   */\n      sub\n        /* \"#utility.yul\":18720:18721   */\n      0x00\n        /* \"#utility.yul\":18709:18718   */\n      dup4\n        /* \"#utility.yul\":18705:18722   */\n      add\n        /* \"#utility.yul\":18698:18745   */\n      mstore\n        /* \"#utility.yul\":18762:18893   */\n      tag_711\n        /* \"#utility.yul\":18888:18892   */\n      dup2\n        /* \"#utility.yul\":18762:18893   */\n      tag_653\n      jump\t// in\n    tag_711:\n        /* \"#utility.yul\":18754:18893   */\n      swap1\n      pop\n        /* \"#utility.yul\":18481:18900   */\n      swap2\n      swap1\n      pop\n      jump\t// out\n        /* \"#utility.yul\":18906:19128   */\n    tag_54:\n        /* \"#utility.yul\":18999:19003   */\n      0x00\n        /* \"#utility.yul\":19037:19039   */\n      0x20\n        /* \"#utility.yul\":19026:19035   */\n      dup3\n        /* \"#utility.yul\":19022:19040   */\n      add\n        /* \"#utility.yul\":19014:19040   */\n      swap1\n      pop\n        /* \"#utility.yul\":19050:19121   */\n      tag_713\n        /* \"#utility.yul\":19118:19119   */\n      0x00\n        /* \"#utility.yul\":19107:19116   */\n      dup4\n        /* \"#utility.yul\":19103:19120   */\n      add\n        /* \"#utility.yul\":19094:19100   */\n      dup5\n        /* \"#utility.yul\":19050:19121   */\n      tag_669\n      jump\t// in\n    tag_713:\n        /* \"#utility.yul\":18906:19128   */\n      swap3\n      swap2\n      pop\n      pop\n      jump\t// out\n        /* \"#utility.yul\":19134:19263   */\n    tag_498:\n        /* \"#utility.yul\":19168:19174   */\n      0x00\n        /* \"#utility.yul\":19195:19215   */\n      tag_715\n      tag_716\n      jump\t// in\n    tag_715:\n        /* \"#utility.yul\":19185:19215   */\n      swap1\n      pop\n        /* \"#utility.yul\":19224:19257   */\n      tag_717\n        /* \"#utility.yul\":19252:19256   */\n      dup3\n        /* \"#utility.yul\":19244:19250   */\n      dup3\n        /* \"#utility.yul\":19224:19257   */\n      tag_718\n      jump\t// in\n    tag_717:\n        /* \"#utility.yul\":19134:19263   */\n      swap2\n      swap1\n      pop\n      jump\t// out\n        /* \"#utility.yul\":19269:19344   */\n    tag_716:\n        /* \"#utility.yul\":19302:19308   */\n      0x00\n        /* \"#utility.yul\":19335:19337   */\n      0x40\n        /* \"#utility.yul\":19329:19338   */\n      mload\n        /* \"#utility.yul\":19319:19338   */\n      swap1\n      pop\n        /* \"#utility.yul\":19269:19344   */\n      swap1\n      jump\t// out\n        /* \"#utility.yul\":19350:19658   */\n    tag_497:\n        /* \"#utility.yul\":19412:19416   */\n      0x00\n        /* \"#utility.yul\":19502:19520   */\n      0xffffffffffffffff\n        /* \"#utility.yul\":19494:19500   */\n      dup3\n        /* \"#utility.yul\":19491:19521   */\n      gt\n        /* \"#utility.yul\":19488:19544   */\n      iszero\n      tag_721\n      jumpi\n        /* \"#utility.yul\":19524:19542   */\n      tag_722\n      tag_423\n      jump\t// in\n    tag_722:\n        /* \"#utility.yul\":19488:19544   */\n    tag_721:\n        /* \"#utility.yul\":19562:19591   */\n      tag_723\n        /* \"#utility.yul\":19584:19590   */\n      dup3\n        /* \"#utility.yul\":19562:19591   */\n      tag_606\n      jump\t// in\n    tag_723:\n        /* \"#utility.yul\":19554:19591   */\n      swap1\n      pop\n        /* \"#utility.yul\":19646:19650   */\n      0x20\n        /* \"#utility.yul\":19640:19644   */\n      dup2\n        /* \"#utility.yul\":19636:19651   */\n      add\n        /* \"#utility.yul\":19628:19651   */\n      swap1\n      pop\n        /* \"#utility.yul\":19350:19658   */\n      swap2\n      swap1\n      pop\n      jump\t// out\n        /* \"#utility.yul\":19664:19763   */\n    tag_600:\n        /* \"#utility.yul\":19716:19722   */\n      0x00\n        /* \"#utility.yul\":19750:19755   */\n      dup2\n        /* \"#utility.yul\":19744:19756   */\n      mload\n        /* \"#utility.yul\":19734:19756   */\n      swap1\n      pop\n        /* \"#utility.yul\":19664:19763   */\n      swap2\n      swap1\n      pop\n      jump\t// out\n        /* \"#utility.yul\":19769:19938   */\n    tag_602:\n        /* \"#utility.yul\":19853:19864   */\n      0x00\n        /* \"#utility.yul\":19887:19893   */\n      dup3\n        /* \"#utility.yul\":19882:19885   */\n      dup3\n        /* \"#utility.yul\":19875:19894   */\n      mstore\n        /* \"#utility.yul\":19927:19931   */\n      0x20\n        /* \"#utility.yul\":19922:19925   */\n      dup3\n        /* \"#utility.yul\":19918:19932   */\n      add\n        /* \"#utility.yul\":19903:19932   */\n      swap1\n      pop\n        /* \"#utility.yul\":19769:19938   */\n      swap3\n      swap2\n      pop\n      pop\n      jump\t// out\n        /* \"#utility.yul\":19944:20092   */\n    tag_611:\n        /* \"#utility.yul\":20046:20057   */\n      0x00\n        /* \"#utility.yul\":20083:20086   */\n      dup2\n        /* \"#utility.yul\":20068:20086   */\n      swap1\n      pop\n        /* \"#utility.yul\":19944:20092   */\n      swap3\n      swap2\n      pop\n      pop\n      jump\t// out\n        /* \"#utility.yul\":20098:20403   */\n    tag_21:\n        /* \"#utility.yul\":20138:20141   */\n      0x00\n        /* \"#utility.yul\":20157:20177   */\n      tag_728\n        /* \"#utility.yul\":20175:20176   */\n      dup3\n        /* \"#utility.yul\":20157:20177   */\n      tag_668\n      jump\t// in\n    tag_728:\n        /* \"#utility.yul\":20152:20177   */\n      swap2\n      pop\n        /* \"#utility.yul\":20191:20211   */\n      tag_729\n        /* \"#utility.yul\":20209:20210   */\n      dup4\n        /* \"#utility.yul\":20191:20211   */\n      tag_668\n      jump\t// in\n    tag_729:\n        /* \"#utility.yul\":20186:20211   */\n      swap3\n      pop\n        /* \"#utility.yul\":20345:20346   */\n      dup3\n        /* \"#utility.yul\":20277:20343   */\n      0xffffffffffffffffffffffffffffffffffffffffffffffffffffffffffffffff\n        /* \"#utility.yul\":20273:20347   */\n      sub\n        /* \"#utility.yul\":20270:20271   */\n      dup3\n        /* \"#utility.yul\":20267:20348   */\n      gt\n        /* \"#utility.yul\":20264:20371   */\n      iszero\n      tag_730\n      jumpi\n        /* \"#utility.yul\":20351:20369   */\n      tag_731\n      tag_732\n      jump\t// in\n    tag_731:\n        /* \"#utility.yul\":20264:20371   */\n    tag_730:\n        /* \"#utility.yul\":20395:20396   */\n      dup3\n        /* \"#utility.yul\":20392:20393   */\n      dup3\n        /* \"#utility.yul\":20388:20397   */\n      add\n        /* \"#utility.yul\":20381:20397   */\n      swap1\n      pop\n        /* \"#utility.yul\":20098:20403   */\n      swap3\n      swap2\n      pop\n      pop\n      jump\t// out\n        /* \"#utility.yul\":20409:20594   */\n    tag_92:\n        /* \"#utility.yul\":20449:20450   */\n      0x00\n        /* \"#utility.yul\":20466:20486   */\n      tag_734\n        /* \"#utility.yul\":20484:20485   */\n      dup3\n        /* \"#utility.yul\":20466:20486   */\n      tag_668\n      jump\t// in\n    tag_734:\n        /* \"#utility.yul\":20461:20486   */\n      swap2\n      pop\n        /* \"#utility.yul\":20500:20520   */\n      tag_735\n        /* \"#utility.yul\":20518:20519   */\n      dup4\n        /* \"#utility.yul\":20500:20520   */\n      tag_668\n      jump\t// in\n    tag_735:\n        /* \"#utility.yul\":20495:20520   */\n      swap3\n      pop\n        /* \"#utility.yul\":20539:20540   */\n      dup3\n        /* \"#utility.yul\":20529:20564   */\n      tag_736\n      jumpi\n        /* \"#utility.yul\":20544:20562   */\n      tag_737\n      tag_738\n      jump\t// in\n    tag_737:\n        /* \"#utility.yul\":20529:20564   */\n    tag_736:\n        /* \"#utility.yul\":20586:20587   */\n      dup3\n        /* \"#utility.yul\":20583:20584   */\n      dup3\n        /* \"#utility.yul\":20579:20588   */\n      div\n        /* \"#utility.yul\":20574:20588   */\n      swap1\n      pop\n        /* \"#utility.yul\":20409:20594   */\n      swap3\n      swap2\n      pop\n      pop\n      jump\t// out\n        /* \"#utility.yul\":20600:20948   */\n    tag_90:\n        /* \"#utility.yul\":20640:20647   */\n      0x00\n        /* \"#utility.yul\":20663:20683   */\n      tag_740\n        /* \"#utility.yul\":20681:20682   */\n      dup3\n        /* \"#utility.yul\":20663:20683   */\n      tag_668\n      jump\t// in\n    tag_740:\n        /* \"#utility.yul\":20658:20683   */\n      swap2\n      pop\n        /* \"#utility.yul\":20697:20717   */\n      tag_741\n        /* \"#utility.yul\":20715:20716   */\n      dup4\n        /* \"#utility.yul\":20697:20717   */\n      tag_668\n      jump\t// in\n    tag_741:\n        /* \"#utility.yul\":20692:20717   */\n      swap3\n      pop\n        /* \"#utility.yul\":20885:20886   */\n      dup2\n        /* \"#utility.yul\":20817:20883   */\n      0xffffffffffffffffffffffffffffffffffffffffffffffffffffffffffffffff\n        /* \"#utility.yul\":20813:20887   */\n      div\n        /* \"#utility.yul\":20810:20811   */\n      dup4\n        /* \"#utility.yul\":20807:20888   */\n      gt\n        /* \"#utility.yul\":20802:20803   */\n      dup3\n        /* \"#utility.yul\":20795:20804   */\n      iszero\n        /* \"#utility.yul\":20788:20805   */\n      iszero\n        /* \"#utility.yul\":20784:20889   */\n      and\n        /* \"#utility.yul\":20781:20912   */\n      iszero\n      tag_742\n      jumpi\n        /* \"#utility.yul\":20892:20910   */\n      tag_743\n      tag_732\n      jump\t// in\n    tag_743:\n        /* \"#utility.yul\":20781:20912   */\n    tag_742:\n        /* \"#utility.yul\":20940:20941   */\n      dup3\n        /* \"#utility.yul\":20937:20938   */\n      dup3\n        /* \"#utility.yul\":20933:20942   */\n      mul\n        /* \"#utility.yul\":20922:20942   */\n      swap1\n      pop\n        /* \"#utility.yul\":20600:20948   */\n      swap3\n      swap2\n      pop\n      pop\n      jump\t// out\n        /* \"#utility.yul\":20954:21145   */\n    tag_138:\n        /* \"#utility.yul\":20994:20998   */\n      0x00\n        /* \"#utility.yul\":21014:21034   */\n      tag_745\n        /* \"#utility.yul\":21032:21033   */\n      dup3\n        /* \"#utility.yul\":21014:21034   */\n      tag_668\n      jump\t// in\n    tag_745:\n        /* \"#utility.yul\":21009:21034   */\n      swap2\n      pop\n        /* \"#utility.yul\":21048:21068   */\n      tag_746\n        /* \"#utility.yul\":21066:21067   */\n      dup4\n        /* \"#utility.yul\":21048:21068   */\n      tag_668\n      jump\t// in\n    tag_746:\n        /* \"#utility.yul\":21043:21068   */\n      swap3\n      pop\n        /* \"#utility.yul\":21087:21088   */\n      dup3\n        /* \"#utility.yul\":21084:21085   */\n      dup3\n        /* \"#utility.yul\":21081:21089   */\n      lt\n        /* \"#utility.yul\":21078:21112   */\n      iszero\n      tag_747\n      jumpi\n        /* \"#utility.yul\":21092:21110   */\n      tag_748\n      tag_732\n      jump\t// in\n    tag_748:\n        /* \"#utility.yul\":21078:21112   */\n    tag_747:\n        /* \"#utility.yul\":21137:21138   */\n      dup3\n        /* \"#utility.yul\":21134:21135   */\n      dup3\n        /* \"#utility.yul\":21130:21139   */\n      sub\n        /* \"#utility.yul\":21122:21139   */\n      swap1\n      pop\n        /* \"#utility.yul\":20954:21145   */\n      swap3\n      swap2\n      pop\n      pop\n      jump\t// out\n        /* \"#utility.yul\":21151:21247   */\n    tag_583:\n        /* \"#utility.yul\":21188:21195   */\n      0x00\n        /* \"#utility.yul\":21217:21241   */\n      tag_750\n        /* \"#utility.yul\":21235:21240   */\n      dup3\n        /* \"#utility.yul\":21217:21241   */\n      tag_751\n      jump\t// in\n    tag_750:\n        /* \"#utility.yul\":21206:21241   */\n      swap1\n      pop\n        /* \"#utility.yul\":21151:21247   */\n      swap2\n      swap1\n      pop\n      jump\t// out\n        /* \"#utility.yul\":21253:21343   */\n    tag_587:\n        /* \"#utility.yul\":21287:21294   */\n      0x00\n        /* \"#utility.yul\":21330:21335   */\n      dup2\n        /* \"#utility.yul\":21323:21336   */\n      iszero\n        /* \"#utility.yul\":21316:21337   */\n      iszero\n        /* \"#utility.yul\":21305:21337   */\n      swap1\n      pop\n        /* \"#utility.yul\":21253:21343   */\n      swap2\n      swap1\n      pop\n      jump\t// out\n        /* \"#utility.yul\":21349:21426   */\n    tag_591:\n        /* \"#utility.yul\":21386:21393   */\n      0x00\n        /* \"#utility.yul\":21415:21420   */\n      dup2\n        /* \"#utility.yul\":21404:21420   */\n      swap1\n      pop\n        /* \"#utility.yul\":21349:21426   */\n      swap2\n      swap1\n      pop\n      jump\t// out\n        /* \"#utility.yul\":21432:21558   */\n    tag_751:\n        /* \"#utility.yul\":21469:21476   */\n      0x00\n        /* \"#utility.yul\":21509:21551   */\n      0xffffffffffffffffffffffffffffffffffffffff\n        /* \"#utility.yul\":21502:21507   */\n      dup3\n        /* \"#utility.yul\":21498:21552   */\n      and\n        /* \"#utility.yul\":21487:21552   */\n      swap1\n      pop\n        /* \"#utility.yul\":21432:21558   */\n      swap2\n      swap1\n      pop\n      jump\t// out\n        /* \"#utility.yul\":21564:21641   */\n    tag_668:\n        /* \"#utility.yul\":21601:21608   */\n      0x00\n        /* \"#utility.yul\":21630:21635   */\n      dup2\n        /* \"#utility.yul\":21619:21635   */\n      swap1\n      pop\n        /* \"#utility.yul\":21564:21641   */\n      swap2\n      swap1\n      pop\n      jump\t// out\n        /* \"#utility.yul\":21647:21801   */\n    tag_503:\n        /* \"#utility.yul\":21731:21737   */\n      dup3\n        /* \"#utility.yul\":21726:21729   */\n      dup2\n        /* \"#utility.yul\":21721:21724   */\n      dup4\n        /* \"#utility.yul\":21708:21738   */\n      calldatacopy\n        /* \"#utility.yul\":21793:21794   */\n      0x00\n        /* \"#utility.yul\":21784:21790   */\n      dup4\n        /* \"#utility.yul\":21779:21782   */\n      dup4\n        /* \"#utility.yul\":21775:21791   */\n      add\n        /* \"#utility.yul\":21768:21795   */\n      mstore\n        /* \"#utility.yul\":21647:21801   */\n      pop\n      pop\n      pop\n      jump\t// out\n        /* \"#utility.yul\":21807:22114   */\n    tag_604:\n        /* \"#utility.yul\":21875:21876   */\n      0x00\n        /* \"#utility.yul\":21885:21998   */\n    tag_758:\n        /* \"#utility.yul\":21899:21905   */\n      dup4\n        /* \"#utility.yul\":21896:21897   */\n      dup2\n        /* \"#utility.yul\":21893:21906   */\n      lt\n        /* \"#utility.yul\":21885:21998   */\n      iszero\n      tag_760\n      jumpi\n        /* \"#utility.yul\":21984:21985   */\n      dup1\n        /* \"#utility.yul\":21979:21982   */\n      dup3\n        /* \"#utility.yul\":21975:21986   */\n      add\n        /* \"#utility.yul\":21969:21987   */\n      mload\n        /* \"#utility.yul\":21965:21966   */\n      dup2\n        /* \"#utility.yul\":21960:21963   */\n      dup5\n        /* \"#utility.yul\":21956:21967   */\n      add\n        /* \"#utility.yul\":21949:21988   */\n      mstore\n        /* \"#utility.yul\":21921:21923   */\n      0x20\n        /* \"#utility.yul\":21918:21919   */\n      dup2\n        /* \"#utility.yul\":21914:21924   */\n      add\n        /* \"#utility.yul\":21909:21924   */\n      swap1\n      pop\n        /* \"#utility.yul\":21885:21998   */\n      jump(tag_758)\n    tag_760:\n        /* \"#utility.yul\":22016:22022   */\n      dup4\n        /* \"#utility.yul\":22013:22014   */\n      dup2\n        /* \"#utility.yul\":22010:22023   */\n      gt\n        /* \"#utility.yul\":22007:22108   */\n      iszero\n      tag_761\n      jumpi\n        /* \"#utility.yul\":22096:22097   */\n      0x00\n        /* \"#utility.yul\":22087:22093   */\n      dup5\n        /* \"#utility.yul\":22082:22085   */\n      dup5\n        /* \"#utility.yul\":22078:22094   */\n      add\n        /* \"#utility.yul\":22071:22098   */\n      mstore\n        /* \"#utility.yul\":22007:22108   */\n    tag_761:\n        /* \"#utility.yul\":21856:22114   */\n      pop\n        /* \"#utility.yul\":21807:22114   */\n      pop\n      pop\n      pop\n      jump\t// out\n        /* \"#utility.yul\":22120:22440   */\n    tag_106:\n        /* \"#utility.yul\":22164:22170   */\n      0x00\n        /* \"#utility.yul\":22201:22202   */\n      0x02\n        /* \"#utility.yul\":22195:22199   */\n      dup3\n        /* \"#utility.yul\":22191:22203   */\n      div\n        /* \"#utility.yul\":22181:22203   */\n      swap1\n      pop\n        /* \"#utility.yul\":22248:22249   */\n      0x01\n        /* \"#utility.yul\":22242:22246   */\n      dup3\n        /* \"#utility.yul\":22238:22250   */\n      and\n        /* \"#utility.yul\":22269:22287   */\n      dup1\n        /* \"#utility.yul\":22259:22340   */\n      tag_763\n      jumpi\n        /* \"#utility.yul\":22325:22329   */\n      0x7f\n        /* \"#utility.yul\":22317:22323   */\n      dup3\n        /* \"#utility.yul\":22313:22330   */\n      and\n        /* \"#utility.yul\":22303:22330   */\n      swap2\n      pop\n        /* \"#utility.yul\":22259:22340   */\n    tag_763:\n        /* \"#utility.yul\":22387:22389   */\n      0x20\n        /* \"#utility.yul\":22379:22385   */\n      dup3\n        /* \"#utility.yul\":22376:22390   */\n      lt\n        /* \"#utility.yul\":22356:22374   */\n      dup2\n        /* \"#utility.yul\":22353:22391   */\n      eq\n        /* \"#utility.yul\":22350:22434   */\n      iszero\n      tag_764\n      jumpi\n        /* \"#utility.yul\":22406:22424   */\n      tag_765\n      tag_766\n      jump\t// in\n    tag_765:\n        /* \"#utility.yul\":22350:22434   */\n    tag_764:\n        /* \"#utility.yul\":22171:22440   */\n      pop\n        /* \"#utility.yul\":22120:22440   */\n      swap2\n      swap1\n      pop\n      jump\t// out\n        /* \"#utility.yul\":22446:22727   */\n    tag_718:\n        /* \"#utility.yul\":22529:22556   */\n      tag_768\n        /* \"#utility.yul\":22551:22555   */\n      dup3\n        /* \"#utility.yul\":22529:22556   */\n      tag_606\n      jump\t// in\n    tag_768:\n        /* \"#utility.yul\":22521:22527   */\n      dup2\n        /* \"#utility.yul\":22517:22557   */\n      add\n        /* \"#utility.yul\":22659:22665   */\n      dup2\n        /* \"#utility.yul\":22647:22657   */\n      dup2\n        /* \"#utility.yul\":22644:22666   */\n      lt\n        /* \"#utility.yul\":22623:22641   */\n      0xffffffffffffffff\n        /* \"#utility.yul\":22611:22621   */\n      dup3\n        /* \"#utility.yul\":22608:22642   */\n      gt\n        /* \"#utility.yul\":22605:22667   */\n      or\n        /* \"#utility.yul\":22602:22690   */\n      iszero\n      tag_769\n      jumpi\n        /* \"#utility.yul\":22670:22688   */\n      tag_770\n      tag_423\n      jump\t// in\n    tag_770:\n        /* \"#utility.yul\":22602:22690   */\n    tag_769:\n        /* \"#utility.yul\":22710:22720   */\n      dup1\n        /* \"#utility.yul\":22706:22708   */\n      0x40\n        /* \"#utility.yul\":22699:22721   */\n      mstore\n        /* \"#utility.yul\":22489:22727   */\n      pop\n        /* \"#utility.yul\":22446:22727   */\n      pop\n      pop\n      jump\t// out\n        /* \"#utility.yul\":22733:22966   */\n    tag_378:\n        /* \"#utility.yul\":22772:22775   */\n      0x00\n        /* \"#utility.yul\":22795:22819   */\n      tag_772\n        /* \"#utility.yul\":22813:22818   */\n      dup3\n        /* \"#utility.yul\":22795:22819   */\n      tag_668\n      jump\t// in\n    tag_772:\n        /* \"#utility.yul\":22786:22819   */\n      swap2\n      pop\n        /* \"#utility.yul\":22841:22907   */\n      0xffffffffffffffffffffffffffffffffffffffffffffffffffffffffffffffff\n        /* \"#utility.yul\":22834:22839   */\n      dup3\n        /* \"#utility.yul\":22831:22908   */\n      eq\n        /* \"#utility.yul\":22828:22931   */\n      iszero\n      tag_773\n      jumpi\n        /* \"#utility.yul\":22911:22929   */\n      tag_774\n      tag_732\n      jump\t// in\n    tag_774:\n        /* \"#utility.yul\":22828:22931   */\n    tag_773:\n        /* \"#utility.yul\":22958:22959   */\n      0x01\n        /* \"#utility.yul\":22951:22956   */\n      dup3\n        /* \"#utility.yul\":22947:22960   */\n      add\n        /* \"#utility.yul\":22940:22960   */\n      swap1\n      pop\n        /* \"#utility.yul\":22733:22966   */\n      swap2\n      swap1\n      pop\n      jump\t// out\n        /* \"#utility.yul\":22972:23051   */\n    tag_596:\n        /* \"#utility.yul\":23011:23018   */\n      0x00\n        /* \"#utility.yul\":23040:23045   */\n      dup2\n        /* \"#utility.yul\":23029:23045   */\n      swap1\n      pop\n        /* \"#utility.yul\":22972:23051   */\n      swap2\n      swap1\n      pop\n      jump\t// out\n        /* \"#utility.yul\":23057:23136   */\n    tag_676:\n        /* \"#utility.yul\":23096:23103   */\n      0x00\n        /* \"#utility.yul\":23125:23130   */\n      dup2\n        /* \"#utility.yul\":23114:23130   */\n      swap1\n      pop\n        /* \"#utility.yul\":23057:23136   */\n      swap2\n      swap1\n      pop\n      jump\t// out\n        /* \"#utility.yul\":23142:23322   */\n    tag_732:\n        /* \"#utility.yul\":23190:23267   */\n      0x4e487b7100000000000000000000000000000000000000000000000000000000\n        /* \"#utility.yul\":23187:23188   */\n      0x00\n        /* \"#utility.yul\":23180:23268   */\n      mstore\n        /* \"#utility.yul\":23287:23291   */\n      0x11\n        /* \"#utility.yul\":23284:23285   */\n      0x04\n        /* \"#utility.yul\":23277:23292   */\n      mstore\n        /* \"#utility.yul\":23311:23315   */\n      0x24\n        /* \"#utility.yul\":23308:23309   */\n      0x00\n        /* \"#utility.yul\":23301:23316   */\n      revert\n        /* \"#utility.yul\":23328:23508   */\n    tag_738:\n        /* \"#utility.yul\":23376:23453   */\n      0x4e487b7100000000000000000000000000000000000000000000000000000000\n        /* \"#utility.yul\":23373:23374   */\n      0x00\n        /* \"#utility.yul\":23366:23454   */\n      mstore\n        /* \"#utility.yul\":23473:23477   */\n      0x12\n        /* \"#utility.yul\":23470:23471   */\n      0x04\n        /* \"#utility.yul\":23463:23478   */\n      mstore\n        /* \"#utility.yul\":23497:23501   */\n      0x24\n        /* \"#utility.yul\":23494:23495   */\n      0x00\n        /* \"#utility.yul\":23487:23502   */\n      revert\n        /* \"#utility.yul\":23514:23694   */\n    tag_766:\n        /* \"#utility.yul\":23562:23639   */\n      0x4e487b7100000000000000000000000000000000000000000000000000000000\n        /* \"#utility.yul\":23559:23560   */\n      0x00\n        /* \"#utility.yul\":23552:23640   */\n      mstore\n        /* \"#utility.yul\":23659:23663   */\n      0x22\n        /* \"#utility.yul\":23656:23657   */\n      0x04\n        /* \"#utility.yul\":23649:23664   */\n      mstore\n        /* \"#utility.yul\":23683:23687   */\n      0x24\n        /* \"#utility.yul\":23680:23681   */\n      0x00\n        /* \"#utility.yul\":23673:23688   */\n      revert\n        /* \"#utility.yul\":23700:23880   */\n    tag_316:\n        /* \"#utility.yul\":23748:23825   */\n      0x4e487b7100000000000000000000000000000000000000000000000000000000\n        /* \"#utility.yul\":23745:23746   */\n      0x00\n        /* \"#utility.yul\":23738:23826   */\n      mstore\n        /* \"#utility.yul\":23845:23849   */\n      0x32\n        /* \"#utility.yul\":23842:23843   */\n      0x04\n        /* \"#utility.yul\":23835:23850   */\n      mstore\n        /* \"#utility.yul\":23869:23873   */\n      0x24\n        /* \"#utility.yul\":23866:23867   */\n      0x00\n        /* \"#utility.yul\":23859:23874   */\n      revert\n        /* \"#utility.yul\":23886:24066   */\n    tag_423:\n        /* \"#utility.yul\":23934:24011   */\n      0x4e487b7100000000000000000000000000000000000000000000000000000000\n        /* \"#utility.yul\":23931:23932   */\n      0x00\n        /* \"#utility.yul\":23924:24012   */\n      mstore\n        /* \"#utility.yul\":24031:24035   */\n      0x41\n        /* \"#utility.yul\":24028:24029   */\n      0x04\n        /* \"#utility.yul\":24021:24036   */\n      mstore\n        /* \"#utility.yul\":24055:24059   */\n      0x24\n        /* \"#utility.yul\":24052:24053   */\n      0x00\n        /* \"#utility.yul\":24045:24060   */\n      revert\n        /* \"#utility.yul\":24072:24189   */\n    tag_520:\n        /* \"#utility.yul\":24181:24182   */\n      0x00\n        /* \"#utility.yul\":24178:24179   */\n      dup1\n        /* \"#utility.yul\":24171:24183   */\n      revert\n        /* \"#utility.yul\":24195:24312   */\n    tag_501:\n        /* \"#utility.yul\":24304:24305   */\n      0x00\n        /* \"#utility.yul\":24301:24302   */\n      dup1\n        /* \"#utility.yul\":24294:24306   */\n      revert\n        /* \"#utility.yul\":24318:24435   */\n    tag_571:\n        /* \"#utility.yul\":24427:24428   */\n      0x00\n        /* \"#utility.yul\":24424:24425   */\n      dup1\n        /* \"#utility.yul\":24417:24429   */\n      revert\n        /* \"#utility.yul\":24441:24558   */\n    tag_529:\n        /* \"#utility.yul\":24550:24551   */\n      0x00\n        /* \"#utility.yul\":24547:24548   */\n      dup1\n        /* \"#utility.yul\":24540:24552   */\n      revert\n        /* \"#utility.yul\":24564:24666   */\n    tag_606:\n        /* \"#utility.yul\":24605:24611   */\n      0x00\n        /* \"#utility.yul\":24656:24658   */\n      0x1f\n        /* \"#utility.yul\":24652:24659   */\n      not\n        /* \"#utility.yul\":24647:24649   */\n      0x1f\n        /* \"#utility.yul\":24640:24645   */\n      dup4\n        /* \"#utility.yul\":24636:24650   */\n      add\n        /* \"#utility.yul\":24632:24660   */\n      and\n        /* \"#utility.yul\":24622:24660   */\n      swap1\n      pop\n        /* \"#utility.yul\":24564:24666   */\n      swap2\n      swap1\n      pop\n      jump\t// out\n        /* \"#utility.yul\":24672:24847   */\n    tag_617:\n        /* \"#utility.yul\":24812:24839   */\n      0x4f6e6c79206f776e65722063616e2063616c6c20746869732e00000000000000\n        /* \"#utility.yul\":24808:24809   */\n      0x00\n        /* \"#utility.yul\":24800:24806   */\n      dup3\n        /* \"#utility.yul\":24796:24810   */\n      add\n        /* \"#utility.yul\":24789:24840   */\n      mstore\n        /* \"#utility.yul\":24672:24847   */\n      pop\n      jump\t// out\n        /* \"#utility.yul\":24853:25012   */\n    tag_622:\n        /* \"#utility.yul\":24993:25004   */\n      0x6e6f742065786973740000000000000000000000000000000000000000000000\n        /* \"#utility.yul\":24989:24990   */\n      0x00\n        /* \"#utility.yul\":24981:24987   */\n      dup3\n        /* \"#utility.yul\":24977:24991   */\n      add\n        /* \"#utility.yul\":24970:25005   */\n      mstore\n        /* \"#utility.yul\":24853:25012   */\n      pop\n      jump\t// out\n        /* \"#utility.yul\":25018:25182   */\n    tag_627:\n        /* \"#utility.yul\":25158:25174   */\n      0x706f6f6c206e6f74206578697374000000000000000000000000000000000000\n        /* \"#utility.yul\":25154:25155   */\n      0x00\n        /* \"#utility.yul\":25146:25152   */\n      dup3\n        /* \"#utility.yul\":25142:25156   */\n      add\n        /* \"#utility.yul\":25135:25175   */\n      mstore\n        /* \"#utility.yul\":25018:25182   */\n      pop\n      jump\t// out\n        /* \"#utility.yul\":25188:25361   */\n    tag_632:\n        /* \"#utility.yul\":25328:25353   */\n      0x706f6f6c20626173616c20686173206265656e20736574000000000000000000\n        /* \"#utility.yul\":25324:25325   */\n      0x00\n        /* \"#utility.yul\":25316:25322   */\n      dup3\n        /* \"#utility.yul\":25312:25326   */\n      add\n        /* \"#utility.yul\":25305:25354   */\n      mstore\n        /* \"#utility.yul\":25188:25361   */\n      pop\n      jump\t// out\n        /* \"#utility.yul\":25367:25527   */\n    tag_637:\n        /* \"#utility.yul\":25507:25519   */\n      0x7061697220657869737400000000000000000000000000000000000000000000\n        /* \"#utility.yul\":25503:25504   */\n      0x00\n        /* \"#utility.yul\":25495:25501   */\n      dup3\n        /* \"#utility.yul\":25491:25505   */\n      add\n        /* \"#utility.yul\":25484:25520   */\n      mstore\n        /* \"#utility.yul\":25367:25527   */\n      pop\n      jump\t// out\n        /* \"#utility.yul\":25533:25704   */\n    tag_642:\n        /* \"#utility.yul\":25673:25696   */\n      0x706f6f6c20686173206e6f742066696e69736865640000000000000000000000\n        /* \"#utility.yul\":25669:25670   */\n      0x00\n        /* \"#utility.yul\":25661:25667   */\n      dup3\n        /* \"#utility.yul\":25657:25671   */\n      add\n        /* \"#utility.yul\":25650:25697   */\n      mstore\n        /* \"#utility.yul\":25533:25704   */\n      pop\n      jump\t// out\n        /* \"#utility.yul\":25710:25881   */\n    tag_647:\n        /* \"#utility.yul\":25850:25873   */\n      0x6e6f7420656e6f75676820766f7465416d6f756e740000000000000000000000\n        /* \"#utility.yul\":25846:25847   */\n      0x00\n        /* \"#utility.yul\":25838:25844   */\n      dup3\n        /* \"#utility.yul\":25834:25848   */\n      add\n        /* \"#utility.yul\":25827:25874   */\n      mstore\n        /* \"#utility.yul\":25710:25881   */\n      pop\n      jump\t// out\n        /* \"#utility.yul\":25887:26053   */\n    tag_652:\n        /* \"#utility.yul\":26027:26045   */\n      0x6e6f7420656e6f75676820626173616c00000000000000000000000000000000\n        /* \"#utility.yul\":26023:26024   */\n      0x00\n        /* \"#utility.yul\":26015:26021   */\n      dup3\n        /* \"#utility.yul\":26011:26025   */\n      add\n        /* \"#utility.yul\":26004:26046   */\n      mstore\n        /* \"#utility.yul\":25887:26053   */\n      pop\n      jump\t// out\n        /* \"#utility.yul\":26059:26226   */\n    tag_657:\n        /* \"#utility.yul\":26199:26218   */\n      0x706f6f6c206861732066696e6973686564000000000000000000000000000000\n        /* \"#utility.yul\":26195:26196   */\n      0x00\n        /* \"#utility.yul\":26187:26193   */\n      dup3\n        /* \"#utility.yul\":26183:26197   */\n      add\n        /* \"#utility.yul\":26176:26219   */\n      mstore\n        /* \"#utility.yul\":26059:26226   */\n      pop\n      jump\t// out\n        /* \"#utility.yul\":26232:26354   */\n    tag_507:\n        /* \"#utility.yul\":26305:26329   */\n      tag_797\n        /* \"#utility.yul\":26323:26328   */\n      dup2\n        /* \"#utility.yul\":26305:26329   */\n      tag_583\n      jump\t// in\n    tag_797:\n        /* \"#utility.yul\":26298:26303   */\n      dup2\n        /* \"#utility.yul\":26295:26330   */\n      eq\n        /* \"#utility.yul\":26285:26348   */\n      tag_798\n      jumpi\n        /* \"#utility.yul\":26344:26345   */\n      0x00\n        /* \"#utility.yul\":26341:26342   */\n      dup1\n        /* \"#utility.yul\":26334:26346   */\n      revert\n        /* \"#utility.yul\":26285:26348   */\n    tag_798:\n        /* \"#utility.yul\":26232:26354   */\n      pop\n      jump\t// out\n        /* \"#utility.yul\":26360:26476   */\n    tag_511:\n        /* \"#utility.yul\":26430:26451   */\n      tag_800\n        /* \"#utility.yul\":26445:26450   */\n      dup2\n        /* \"#utility.yul\":26430:26451   */\n      tag_587\n      jump\t// in\n    tag_800:\n        /* \"#utility.yul\":26423:26428   */\n      dup2\n        /* \"#utility.yul\":26420:26452   */\n      eq\n        /* \"#utility.yul\":26410:26470   */\n      tag_801\n      jumpi\n        /* \"#utility.yul\":26466:26467   */\n      0x00\n        /* \"#utility.yul\":26463:26464   */\n      dup1\n        /* \"#utility.yul\":26456:26468   */\n      revert\n        /* \"#utility.yul\":26410:26470   */\n    tag_801:\n        /* \"#utility.yul\":26360:26476   */\n      pop\n      jump\t// out\n        /* \"#utility.yul\":26482:26604   */\n    tag_515:\n        /* \"#utility.yul\":26555:26579   */\n      tag_803\n        /* \"#utility.yul\":26573:26578   */\n      dup2\n        /* \"#utility.yul\":26555:26579   */\n      tag_591\n      jump\t// in\n    tag_803:\n        /* \"#utility.yul\":26548:26553   */\n      dup2\n        /* \"#utility.yul\":26545:26580   */\n      eq\n        /* \"#utility.yul\":26535:26598   */\n      tag_804\n      jumpi\n        /* \"#utility.yul\":26594:26595   */\n      0x00\n        /* \"#utility.yul\":26591:26592   */\n      dup1\n        /* \"#utility.yul\":26584:26596   */\n      revert\n        /* \"#utility.yul\":26535:26598   */\n    tag_804:\n        /* \"#utility.yul\":26482:26604   */\n      pop\n      jump\t// out\n        /* \"#utility.yul\":26610:26732   */\n    tag_525:\n        /* \"#utility.yul\":26683:26707   */\n      tag_806\n        /* \"#utility.yul\":26701:26706   */\n      dup2\n        /* \"#utility.yul\":26683:26707   */\n      tag_668\n      jump\t// in\n    tag_806:\n        /* \"#utility.yul\":26676:26681   */\n      dup2\n        /* \"#utility.yul\":26673:26708   */\n      eq\n        /* \"#utility.yul\":26663:26726   */\n      tag_807\n      jumpi\n        /* \"#utility.yul\":26722:26723   */\n      0x00\n        /* \"#utility.yul\":26719:26720   */\n      dup1\n        /* \"#utility.yul\":26712:26724   */\n      revert\n        /* \"#utility.yul\":26663:26726   */\n    tag_807:\n        /* \"#utility.yul\":26610:26732   */\n      pop\n      jump\t// out\n\n    auxdata: 0xa2646970667358221220cb629f675cd9e86a3714f28de3891255618472e12957c13a5089e0c380c3071c64736f6c63430008070033\n}\n",
				"bytecode": {
					"linkReferences": {},
					"object": "60806040523480156200001157600080fd5b5060405162004182380380620041828339818101604052810190620000379190620000bc565b816000806101000a81548173ffffffffffffffffffffffffffffffffffffffff021916908373ffffffffffffffffffffffffffffffffffffffff16021790555060006002819055508060018190555050506200017a565b6000815190506200009f8162000146565b92915050565b600081519050620000b68162000160565b92915050565b60008060408385031215620000d657620000d562000141565b5b6000620000e6858286016200008e565b9250506020620000f985828601620000a5565b9150509250929050565b6000620001108262000117565b9050919050565b600073ffffffffffffffffffffffffffffffffffffffff82169050919050565b6000819050919050565b600080fd5b620001518162000103565b81146200015d57600080fd5b50565b6200016b8162000137565b81146200017757600080fd5b50565b613ff8806200018a6000396000f3fe6080604052600436106100a05760003560e01c80634121855f116100645780634121855f146102c557806347e4dd271461030257806374fe9bc21461033f5780639bd0abf11461036f578063baf412691461039f578063f6c00927146103ca576101bb565b80630ce49053146101c05780632775e02c146101f05780632bf21ecc14610220578063357965ba1461025d5780633e6ff1a21461029a576101bb565b366101bb5760008054906101000a900473ffffffffffffffffffffffffffffffffffffffff1673ffffffffffffffffffffffffffffffffffffffff163373ffffffffffffffffffffffffffffffffffffffff16146101b85761010c60643461040990919063ffffffff16565b600360003373ffffffffffffffffffffffffffffffffffffffff1673ffffffffffffffffffffffffffffffffffffffff168152602001908152602001600020600082825461015a9190613a7c565b9250508190555034600260008282546101739190613a7c565b925050819055507f88a5966d370b9919b20f3e2c13ff65706f196a4e32cc2c12bf57088f8852587433346040516101ab929190613820565b60405180910390a16101b9565b5b005b600080fd5b6101da60048036038101906101d591906132b1565b61044e565b6040516101e79190613849565b60405180910390f35b61020a60048036038101906102059190613284565b61088a565b6040516102179190613849565b60405180910390f35b34801561022c57600080fd5b50610247600480360381019061024291906133eb565b61097f565b6040516102549190613849565b60405180910390f35b34801561026957600080fd5b50610284600480360381019061027f9190613492565b610d7e565b6040516102919190613864565b60405180910390f35b3480156102a657600080fd5b506102af611046565b6040516102bc91906139e4565b60405180910390f35b3480156102d157600080fd5b506102ec60048036038101906102e791906133be565b6110df565b6040516102f991906139e4565b60405180910390f35b34801561030e57600080fd5b5061032960048036038101906103249190613331565b611476565b6040516103369190613849565b60405180910390f35b6103596004803603810190610354919061342b565b611bc8565b6040516103669190613849565b60405180910390f35b610389600480360381019061038491906132f1565b61263b565b6040516103969190613849565b60405180910390f35b3480156103ab57600080fd5b506103b4612836565b6040516103c191906139e4565b60405180910390f35b3480156103d657600080fd5b506103f160048036038101906103ec91906133be565b61287d565b6040516104009392919061387f565b60405180910390f35b60008083141561041c5760009050610448565b6000828461042a9190613b03565b90508284826104399190613ad2565b1461044357600080fd5b809150505b92915050565b60008060009054906101000a900473ffffffffffffffffffffffffffffffffffffffff1673ffffffffffffffffffffffffffffffffffffffff163373ffffffffffffffffffffffffffffffffffffffff16146104df576040517f08c379a00000000000000000000000000000000000000000000000000000000081526004016104d6906138c4565b60405180910390fd5b6104e882612ba7565b610527576040517f08c379a000000000000000000000000000000000000000000000000000000000815260040161051e90613904565b60405180910390fd5b6000600460008481526020019081526020016000206040518061016001604052908160008201805461055890613c25565b80601f016020809104026020016040519081016040528092919081815260200182805461058490613c25565b80156105d15780601f106105a6576101008083540402835291602001916105d1565b820191906000526020600020905b8154815290600101906020018083116105b457829003601f168201915b505050505081526020016001820180546105ea90613c25565b80601f016020809104026020016040519081016040528092919081815260200182805461061690613c25565b80156106635780601f1061063857610100808354040283529160200191610663565b820191906000526020600020905b81548152906001019060200180831161064657829003601f168201915b5050505050815260200160028201805461067c90613c25565b80601f01602080910402602001604051908101604052809291908181526020018280546106a890613c25565b80156106f55780601f106106ca576101008083540402835291602001916106f5565b820191906000526020600020905b8154815290600101906020018083116106d857829003601f168201915b5050505050815260200160038201548152602001600482015481526020016005820154815260200160068201548152602001600782015481526020016008820160009054906101000a900460ff161515151581526020016008820160019054906101000a900460ff161515151581526020016008820160029054906101000a900460ff161515151581525050905060006107d9600a8360e001518460c0015185608001518660a0015187606001516107ad9190613a7c565b6107b79190613a7c565b6107c19190613a7c565b6107cb9190613a7c565b612bd490919063ffffffff16565b90506001826101400190151590811515815250156108435760008590508073ffffffffffffffffffffffffffffffffffffffff166108fc839081150290604051600060405180830381858888f1935050505015801561083c573d6000803e3d6000fd5b505061087e565b6040517f08c379a000000000000000000000000000000000000000000000000000000000815260040161087590613964565b60405180910390fd5b50506001905092915050565b60008060009054906101000a900473ffffffffffffffffffffffffffffffffffffffff1673ffffffffffffffffffffffffffffffffffffffff163373ffffffffffffffffffffffffffffffffffffffff161461091b576040517f08c379a0000000000000000000000000000000000000000000000000000000008152600401610912906138c4565b60405180910390fd5b60008290508073ffffffffffffffffffffffffffffffffffffffff166108fc60016002546109499190613b5d565b9081150290604051600060405180830381858888f19350505050158015610974573d6000803e3d6000fd5b506001915050919050565b60008060009054906101000a900473ffffffffffffffffffffffffffffffffffffffff1673ffffffffffffffffffffffffffffffffffffffff163373ffffffffffffffffffffffffffffffffffffffff1614610a10576040517f08c379a0000000000000000000000000000000000000000000000000000000008152600401610a07906138c4565b60405180910390fd5b610a1983612ba7565b610a58576040517f08c379a0000000000000000000000000000000000000000000000000000000008152600401610a4f90613904565b60405180910390fd5b60006004600085815260200190815260200160002060405180610160016040529081600082018054610a8990613c25565b80601f0160208091040260200160405190810160405280929190818152602001828054610ab590613c25565b8015610b025780601f10610ad757610100808354040283529160200191610b02565b820191906000526020600020905b815481529060010190602001808311610ae557829003601f168201915b50505050508152602001600182018054610b1b90613c25565b80601f0160208091040260200160405190810160405280929190818152602001828054610b4790613c25565b8015610b945780601f10610b6957610100808354040283529160200191610b94565b820191906000526020600020905b815481529060010190602001808311610b7757829003601f168201915b50505050508152602001600282018054610bad90613c25565b80601f0160208091040260200160405190810160405280929190818152602001828054610bd990613c25565b8015610c265780601f10610bfb57610100808354040283529160200191610c26565b820191906000526020600020905b815481529060010190602001808311610c0957829003601f168201915b5050505050815260200160038201548152602001600482015481526020016005820154815260200160068201548152602001600782015481526020016008820160009054906101000a900460ff161515151581526020016008820160019054906101000a900460ff161515151581526020016008820160029054906101000a900460ff161515151581525050905060008160e001511115610cfc576040517f08c379a0000000000000000000000000000000000000000000000000000000008152600401610cf390613924565b60405180910390fd5b826001541115610d41576040517f08c379a0000000000000000000000000000000000000000000000000000000008152600401610d38906139a4565b60405180910390fd5b828160e001818151610d539190613a7c565b915081815250508260016000828254610d6c9190613b5d565b92505081905550600191505092915050565b60008060009054906101000a900473ffffffffffffffffffffffffffffffffffffffff1673ffffffffffffffffffffffffffffffffffffffff163373ffffffffffffffffffffffffffffffffffffffff1614610e0f576040517f08c379a0000000000000000000000000000000000000000000000000000000008152600401610e06906138c4565b60405180910390fd5b6000610e1b8686612bfc565b90506000610e298286612bfc565b9050600081604051602001610e3e91906137ee565b604051602081830303815290604052805190602001209050610e5f81612ba7565b15610e9f576040517f08c379a0000000000000000000000000000000000000000000000000000000008152600401610e9690613944565b60405180910390fd5b60016004600083815260200190815260200160002060080160016101000a81548160ff02191690831515021790555087600460008381526020019081526020016000206000019080519060200190610ef89291906130ee565b5086600460008381526020019081526020016000206001019080519060200190610f239291906130ee565b5085600460008381526020019081526020016000206002019080519060200190610f4e9291906130ee565b506000600460008381526020019081526020016000206003018190555060006004600083815260200190815260200160002060040181905550600060046000838152602001908152602001600020600501819055506000600460008381526020019081526020016000206006018190555060006004600083815260200190815260200160002060070181905550846004600083815260200190815260200160002060080160006101000a81548160ff02191690831515021790555060006004600083815260200190815260200160002060080160026101000a81548160ff021916908315150217905550809350505050949350505050565b60008060009054906101000a900473ffffffffffffffffffffffffffffffffffffffff1673ffffffffffffffffffffffffffffffffffffffff163373ffffffffffffffffffffffffffffffffffffffff16146110d7576040517f08c379a00000000000000000000000000000000000000000000000000000000081526004016110ce906138c4565b60405180910390fd5b600154905090565b60008060009054906101000a900473ffffffffffffffffffffffffffffffffffffffff1673ffffffffffffffffffffffffffffffffffffffff163373ffffffffffffffffffffffffffffffffffffffff1614611170576040517f08c379a0000000000000000000000000000000000000000000000000000000008152600401611167906138c4565b60405180910390fd5b61117982612ba7565b6111b8576040517f08c379a00000000000000000000000000000000000000000000000000000000081526004016111af90613904565b60405180910390fd5b600060046000848152602001908152602001600020604051806101600160405290816000820180546111e990613c25565b80601f016020809104026020016040519081016040528092919081815260200182805461121590613c25565b80156112625780601f1061123757610100808354040283529160200191611262565b820191906000526020600020905b81548152906001019060200180831161124557829003601f168201915b5050505050815260200160018201805461127b90613c25565b80601f01602080910402602001604051908101604052809291908181526020018280546112a790613c25565b80156112f45780601f106112c9576101008083540402835291602001916112f4565b820191906000526020600020905b8154815290600101906020018083116112d757829003601f168201915b5050505050815260200160028201805461130d90613c25565b80601f016020809104026020016040519081016040528092919081815260200182805461133990613c25565b80156113865780601f1061135b57610100808354040283529160200191611386565b820191906000526020600020905b81548152906001019060200180831161136957829003601f168201915b5050505050815260200160038201548152602001600482015481526020016005820154815260200160068201548152602001600782015481526020016008820160009054906101000a900460ff161515151581526020016008820160019054906101000a900460ff161515151581526020016008820160029054906101000a900460ff1615151515815250509050600061146a600a8360e001518460c0015185608001518660a00151876060015161143e9190613a7c565b6114489190613a7c565b6114529190613a7c565b61145c9190613a7c565b612bd490919063ffffffff16565b90508092505050919050565b600061148185612ba7565b6114c0576040517f08c379a00000000000000000000000000000000000000000000000000000000081526004016114b790613904565b60405180910390fd5b85600360008973ffffffffffffffffffffffffffffffffffffffff1673ffffffffffffffffffffffffffffffffffffffff168152602001908152602001600020541015611542576040517f08c379a000000000000000000000000000000000000000000000000000000000815260040161153990613984565b60405180910390fd5b6000600460008781526020019081526020016000206040518061016001604052908160008201805461157390613c25565b80601f016020809104026020016040519081016040528092919081815260200182805461159f90613c25565b80156115ec5780601f106115c1576101008083540402835291602001916115ec565b820191906000526020600020905b8154815290600101906020018083116115cf57829003601f168201915b5050505050815260200160018201805461160590613c25565b80601f016020809104026020016040519081016040528092919081815260200182805461163190613c25565b801561167e5780601f106116535761010080835404028352916020019161167e565b820191906000526020600020905b81548152906001019060200180831161166157829003601f168201915b5050505050815260200160028201805461169790613c25565b80601f01602080910402602001604051908101604052809291908181526020018280546116c390613c25565b80156117105780601f106116e557610100808354040283529160200191611710565b820191906000526020600020905b8154815290600101906020018083116116f357829003601f168201915b5050505050815260200160038201548152602001600482015481526020016005820154815260200160068201548152602001600782015481526020016008820160009054906101000a900460ff161515151581526020016008820160019054906101000a900460ff161515151581526020016008820160029054906101000a900460ff161515151581525050905060006117ba6117ac87612d92565b6117b587612d92565b612bfc565b905060006117d06117ca89612dc3565b83612bfc565b905060006040518060e001604052808b81526020018781526020018981526020018881526020018c73ffffffffffffffffffffffffffffffffffffffff16815260200183815260200160001515815250905088600560008b815260200190815260200160002060010181905550600560008a81526020019081526020016000206000018190806001815401808255809150506001900390600052602060002090600702016000909190919091506000820151816000015560208201518160010155604082015181600201556060820151816003015560808201518160040160006101000a81548173ffffffffffffffffffffffffffffffffffffffff021916908373ffffffffffffffffffffffffffffffffffffffff16021790555060a08201518160050190805190602001906119089291906130ee565b5060c08201518160060160006101000a81548160ff02191690831515021790555050508a600760008d73ffffffffffffffffffffffffffffffffffffffff1673ffffffffffffffffffffffffffffffffffffffff16815260200190815260200160002060010160006101000a81548173ffffffffffffffffffffffffffffffffffffffff021916908373ffffffffffffffffffffffffffffffffffffffff160217905550600560008a81526020019081526020016000206000018190806001815401808255809150506001900390600052602060002090600702016000909190919091506000820151816000015560208201518160010155604082015181600201556060820151816003015560808201518160040160006101000a81548173ffffffffffffffffffffffffffffffffffffffff021916908373ffffffffffffffffffffffffffffffffffffffff16021790555060a0820151816005019080519060200190611a779291906130ee565b5060c08201518160060160006101000a81548160ff02191690831515021790555050506002861415611af657898460c001818151611ab59190613a7c565b9150818152505089600683604051611acd91906137ee565b90815260200160405180910390206000828254611aea9190613a7c565b92505081905550611b60565b6003861415611b1d578984606001818151611b119190613a7c565b91508181525050611b5f565b6001861415611b44578984608001818151611b389190613a7c565b91508181525050611b5e565b898460a001818151611b569190613a7c565b915081815250505b5b5b89600360008d73ffffffffffffffffffffffffffffffffffffffff1673ffffffffffffffffffffffffffffffffffffffff1681526020019081526020016000206000828254611baf9190613b5d565b9250508190555050505050600190509695505050505050565b60008060009054906101000a900473ffffffffffffffffffffffffffffffffffffffff1673ffffffffffffffffffffffffffffffffffffffff163373ffffffffffffffffffffffffffffffffffffffff1614611c59576040517f08c379a0000000000000000000000000000000000000000000000000000000008152600401611c50906138c4565b60405180910390fd5b611c6285612ba7565b611ca1576040517f08c379a0000000000000000000000000000000000000000000000000000000008152600401611c9890613904565b60405180910390fd5b60006004600087815260200190815260200160002060405180610160016040529081600082018054611cd290613c25565b80601f0160208091040260200160405190810160405280929190818152602001828054611cfe90613c25565b8015611d4b5780601f10611d2057610100808354040283529160200191611d4b565b820191906000526020600020905b815481529060010190602001808311611d2e57829003601f168201915b50505050508152602001600182018054611d6490613c25565b80601f0160208091040260200160405190810160405280929190818152602001828054611d9090613c25565b8015611ddd5780601f10611db257610100808354040283529160200191611ddd565b820191906000526020600020905b815481529060010190602001808311611dc057829003601f168201915b50505050508152602001600282018054611df690613c25565b80601f0160208091040260200160405190810160405280929190818152602001828054611e2290613c25565b8015611e6f5780601f10611e4457610100808354040283529160200191611e6f565b820191906000526020600020905b815481529060010190602001808311611e5257829003601f168201915b5050505050815260200160038201548152602001600482015481526020016005820154815260200160068201548152602001600782015481526020016008820160009054906101000a900460ff161515151581526020016008820160019054906101000a900460ff161515151581526020016008820160029054906101000a900460ff1615151515815250509050600181610140019015159081151581525015611f4e576040517f08c379a0000000000000000000000000000000000000000000000000000000008152600401611f45906139c4565b60405180910390fd5b600060056000888152602001908152602001600020600001805480602002602001604051908101604052809291908181526020016000905b828210156120e357838290600052602060002090600702016040518060e0016040529081600082015481526020016001820154815260200160028201548152602001600382015481526020016004820160009054906101000a900473ffffffffffffffffffffffffffffffffffffffff1673ffffffffffffffffffffffffffffffffffffffff1673ffffffffffffffffffffffffffffffffffffffff16815260200160058201805461203790613c25565b80601f016020809104026020016040519081016040528092919081815260200182805461206390613c25565b80156120b05780601f10612085576101008083540402835291602001916120b0565b820191906000526020600020905b81548152906001019060200180831161209357829003601f168201915b505050505081526020016006820160009054906101000a900460ff16151515158152505081526020019060010190611f86565b5050505090506000612152601461210860028660e00151612bd490919063ffffffff16565b85608001518660a0015187606001518860c001516121269190613a7c565b6121309190613a7c565b61213a9190613a7c565b6121449190613a7c565b612bd490919063ffffffff16565b600160008282546121639190613a7c565b9250508190555060005b6001835161217b9190613b5d565b811161261957600083828151811061219657612195613d72565b5b602002602001015160c00190151590811515815250156126065760028382815181106121c5576121c4613d72565b5b602002602001015160200151141561239657612224606461221660556121f960028960e00151612bd490919063ffffffff16565b8860c001516122089190613a7c565b61040990919063ffffffff16565b612bd490919063ffffffff16565b91508783828151811061223a57612239613d72565b5b60200260200101516040015114801561227057508683828151811061226257612261613d72565b5b602002602001015160600151145b15612391576000600684838151811061228c5761228b613d72565b5b602002602001015160a001516040516122a591906137ee565b90815260200160405180910390205490506000818584815181106122cc576122cb613d72565b5b602002602001015160000151856122e39190613b03565b6122ed9190613ad2565b9050806003600087868151811061230757612306613d72565b5b60200260200101516080015173ffffffffffffffffffffffffffffffffffffffff1673ffffffffffffffffffffffffffffffffffffffff168152602001908152602001600020600082825461235c9190613a7c565b92505081905550600185848151811061237857612377613d72565b5b602002602001015160c001901515908115158152505050505b612605565b858382815181106123aa576123a9613d72565b5b602002602001015160200151141561260457612427606461241960556123de60028960e00151612bd490919063ffffffff16565b88608001518960a001518a606001516123f79190613a7c565b6124019190613a7c565b61240b9190613a7c565b61040990919063ffffffff16565b612bd490919063ffffffff16565b915060008084838151811061243f5761243e613d72565b5b602002602001015160200151141561247f5761247c606461246e60558860a0015161040990919063ffffffff16565b612bd490919063ffffffff16565b90505b600184838151811061249457612493613d72565b5b60200260200101516020015114156124d4576124d160646124c36055886080015161040990919063ffffffff16565b612bd490919063ffffffff16565b90505b60038483815181106124e9576124e8613d72565b5b60200260200101516020015114156125295761252660646125186055886060015161040990919063ffffffff16565b612bd490919063ffffffff16565b90505b60008185848151811061253f5761253e613d72565b5b602002602001015160000151856125569190613b03565b6125609190613ad2565b9050806003600087868151811061257a57612579613d72565b5b60200260200101516080015173ffffffffffffffffffffffffffffffffffffffff1673ffffffffffffffffffffffffffffffffffffffff16815260200190815260200160002060008282546125cf9190613a7c565b9250508190555060018584815181106125eb576125ea613d72565b5b602002602001015160c001901515908115158152505050505b5b5b808061261190613c88565b91505061216d565b5060018361014001901515908115158152505050505060019050949350505050565b60008060009054906101000a900473ffffffffffffffffffffffffffffffffffffffff1673ffffffffffffffffffffffffffffffffffffffff163373ffffffffffffffffffffffffffffffffffffffff16146126cc576040517f08c379a00000000000000000000000000000000000000000000000000000000081526004016126c3906138c4565b60405180910390fd5b81600360008573ffffffffffffffffffffffffffffffffffffffff1673ffffffffffffffffffffffffffffffffffffffff168152602001908152602001600020541015801561275b57506000600360008573ffffffffffffffffffffffffffffffffffffffff1673ffffffffffffffffffffffffffffffffffffffff1681526020019081526020016000205410155b156127f15760008390508073ffffffffffffffffffffffffffffffffffffffff166108fc600360008773ffffffffffffffffffffffffffffffffffffffff1673ffffffffffffffffffffffffffffffffffffffff168152602001908152602001600020549081150290604051600060405180830381858888f193505050501580156127ea573d6000803e3d6000fd5b505061282c565b6040517f08c379a000000000000000000000000000000000000000000000000000000000815260040161282390613984565b60405180910390fd5b6001905092915050565b6000600360003373ffffffffffffffffffffffffffffffffffffffff1673ffffffffffffffffffffffffffffffffffffffff16815260200190815260200160002054905090565b606080612888613174565b61289184612ba7565b6128d0576040517f08c379a00000000000000000000000000000000000000000000000000000000081526004016128c7906138e4565b60405180910390fd5b60006129af6004600087815260200190815260200160002060000180546128f690613c25565b80601f016020809104026020016040519081016040528092919081815260200182805461292290613c25565b801561296f5780601f106129445761010080835404028352916020019161296f565b820191906000526020600020905b81548152906001019060200180831161295257829003601f168201915b50505050506040518060400160405280600481526020017f2076732000000000000000000000000000000000000000000000000000000000815250612bfc565b9050612a59816004600088815260200190815260200160002060010180546129d690613c25565b80601f0160208091040260200160405190810160405280929190818152602001828054612a0290613c25565b8015612a4f5780601f10612a2457610100808354040283529160200191612a4f565b820191906000526020600020905b815481529060010190602001808311612a3257829003601f168201915b5050505050612bfc565b935060006040518060a001604052806004600089815260200190815260200160002060030154815260200160046000898152602001908152602001600020600401548152602001600460008981526020019081526020016000206005015481526020016004600089815260200190815260200160002060060154815260200160046000898152602001908152602001600020600701548152509050846004600088815260200190815260200160002060020182818054612b1890613c25565b80601f0160208091040260200160405190810160405280929190818152602001828054612b4490613c25565b8015612b915780601f10612b6657610100808354040283529160200191612b91565b820191906000526020600020905b815481529060010190602001808311612b7457829003601f168201915b5050505050915094509450945050509193909250565b60006004600083815260200190815260200160002060080160019054906101000a900460ff169050919050565b6000808211612be257600080fd5b60008284612bf09190613ad2565b90508091505092915050565b606060008390506000839050600081518351612c189190613a7c565b67ffffffffffffffff811115612c3157612c30613da1565b5b6040519080825280601f01601f191660200182016040528015612c635781602001600182028036833780820191505090505b50905060008190506000805b8551811015612cf757858181518110612c8b57612c8a613d72565b5b602001015160f81c60f81b838380612ca290613c88565b945081518110612cb557612cb4613d72565b5b60200101907effffffffffffffffffffffffffffffffffffffffffffffffffffffffffffff1916908160001a9053508080612cef90613c88565b915050612c6f565b5060005b8451811015612d8357848181518110612d1757612d16613d72565b5b602001015160f81c60f81b838380612d2e90613c88565b945081518110612d4157612d40613d72565b5b60200101907effffffffffffffffffffffffffffffffffffffffffffffffffffffffffffff1916908160001a9053508080612d7b90613c88565b915050612cfb565b50829550505050505092915050565b6060612dbc82604051602001612da89190613805565b604051602081830303815290604052612df4565b9050919050565b6060612ded82604051602001612dd991906137d3565b604051602081830303815290604052612df4565b9050919050565b606060006040518060400160405280601081526020017f30313233343536373839616263646566000000000000000000000000000000008152509050600060028451612e409190613b03565b6002612e4c9190613a7c565b67ffffffffffffffff811115612e6557612e64613da1565b5b6040519080825280601f01601f191660200182016040528015612e975781602001600182028036833780820191505090505b5090507f300000000000000000000000000000000000000000000000000000000000000081600081518110612ecf57612ece613d72565b5b60200101907effffffffffffffffffffffffffffffffffffffffffffffffffffffffffffff1916908160001a9053507f780000000000000000000000000000000000000000000000000000000000000081600181518110612f3357612f32613d72565b5b60200101907effffffffffffffffffffffffffffffffffffffffffffffffffffffffffffff1916908160001a90535060005b84518110156130e357826004868381518110612f8457612f83613d72565b5b602001015160f81c60f81b7effffffffffffffffffffffffffffffffffffffffffffffffffffffffffffff1916901c60f81c60ff1681518110612fca57612fc9613d72565b5b602001015160f81c60f81b82600283612fe39190613b03565b6002612fef9190613a7c565b8151811061300057612fff613d72565b5b60200101907effffffffffffffffffffffffffffffffffffffffffffffffffffffffffffff1916908160001a90535082600f60f81b86838151811061304857613047613d72565b5b602001015160f81c60f81b1660f81c60ff168151811061306b5761306a613d72565b5b602001015160f81c60f81b826002836130849190613b03565b60036130909190613a7c565b815181106130a1576130a0613d72565b5b60200101907effffffffffffffffffffffffffffffffffffffffffffffffffffffffffffff1916908160001a90535080806130db90613c88565b915050612f65565b508092505050919050565b8280546130fa90613c25565b90600052602060002090601f01602090048101928261311c5760008555613163565b82601f1061313557805160ff1916838001178555613163565b82800160010185558215613163579182015b82811115613162578251825591602001919060010190613147565b5b50905061317091906131a3565b5090565b6040518060a0016040528060008152602001600081526020016000815260200160008152602001600081525090565b5b808211156131bc5760008160009055506001016131a4565b5090565b60006131d36131ce84613a24565b6139ff565b9050828152602081018484840111156131ef576131ee613dd5565b5b6131fa848285613be3565b509392505050565b60008135905061321181613f66565b92915050565b60008135905061322681613f7d565b92915050565b60008135905061323b81613f94565b92915050565b600082601f83011261325657613255613dd0565b5b81356132668482602086016131c0565b91505092915050565b60008135905061327e81613fab565b92915050565b60006020828403121561329a57613299613ddf565b5b60006132a884828501613202565b91505092915050565b600080604083850312156132c8576132c7613ddf565b5b60006132d685828601613202565b92505060206132e78582860161322c565b9150509250929050565b6000806040838503121561330857613307613ddf565b5b600061331685828601613202565b92505060206133278582860161326f565b9150509250929050565b60008060008060008060c0878903121561334e5761334d613ddf565b5b600061335c89828a01613202565b965050602061336d89828a0161326f565b955050604061337e89828a0161322c565b945050606061338f89828a0161326f565b93505060806133a089828a0161326f565b92505060a06133b189828a0161326f565b9150509295509295509295565b6000602082840312156133d4576133d3613ddf565b5b60006133e28482850161322c565b91505092915050565b6000806040838503121561340257613401613ddf565b5b60006134108582860161322c565b92505060206134218582860161326f565b9150509250929050565b6000806000806080858703121561344557613444613ddf565b5b60006134538782880161322c565b94505060206134648782880161326f565b93505060406134758782880161326f565b92505060606134868782880161326f565b91505092959194509250565b600080600080608085870312156134ac576134ab613ddf565b5b600085013567ffffffffffffffff8111156134ca576134c9613dda565b5b6134d687828801613241565b945050602085013567ffffffffffffffff8111156134f7576134f6613dda565b5b61350387828801613241565b935050604085013567ffffffffffffffff81111561352457613523613dda565b5b61353087828801613241565b925050606061354187828801613217565b91505092959194509250565b61355681613b91565b82525050565b61356581613ba3565b82525050565b61357481613baf565b82525050565b61358b61358682613baf565b613cd1565b82525050565b600061359c82613a55565b6135a68185613a60565b93506135b6818560208601613bf2565b6135bf81613de4565b840191505092915050565b60006135d582613a55565b6135df8185613a71565b93506135ef818560208601613bf2565b80840191505092915050565b6000613608601983613a60565b915061361382613df5565b602082019050919050565b600061362b600983613a60565b915061363682613e1e565b602082019050919050565b600061364e600e83613a60565b915061365982613e47565b602082019050919050565b6000613671601783613a60565b915061367c82613e70565b602082019050919050565b6000613694600a83613a60565b915061369f82613e99565b602082019050919050565b60006136b7601583613a60565b91506136c282613ec2565b602082019050919050565b60006136da601583613a60565b91506136e582613eeb565b602082019050919050565b60006136fd601083613a60565b915061370882613f14565b602082019050919050565b6000613720601183613a60565b915061372b82613f3d565b602082019050919050565b60a08201600082015161374c600085018261379e565b50602082015161375f602085018261379e565b506040820151613772604085018261379e565b506060820151613785606085018261379e565b506080820151613798608085018261379e565b50505050565b6137a781613bd9565b82525050565b6137b681613bd9565b82525050565b6137cd6137c882613bd9565b613cdb565b82525050565b60006137df828461357a565b60208201915081905092915050565b60006137fa82846135ca565b915081905092915050565b600061381182846137bc565b60208201915081905092915050565b6000604082019050613835600083018561354d565b61384260208301846137ad565b9392505050565b600060208201905061385e600083018461355c565b92915050565b6000602082019050613879600083018461356b565b92915050565b600060e08201905081810360008301526138998186613591565b905081810360208301526138ad8185613591565b90506138bc6040830184613736565b949350505050565b600060208201905081810360008301526138dd816135fb565b9050919050565b600060208201905081810360008301526138fd8161361e565b9050919050565b6000602082019050818103600083015261391d81613641565b9050919050565b6000602082019050818103600083015261393d81613664565b9050919050565b6000602082019050818103600083015261395d81613687565b9050919050565b6000602082019050818103600083015261397d816136aa565b9050919050565b6000602082019050818103600083015261399d816136cd565b9050919050565b600060208201905081810360008301526139bd816136f0565b9050919050565b600060208201905081810360008301526139dd81613713565b9050919050565b60006020820190506139f960008301846137ad565b92915050565b6000613a09613a1a565b9050613a158282613c57565b919050565b6000604051905090565b600067ffffffffffffffff821115613a3f57613a3e613da1565b5b613a4882613de4565b9050602081019050919050565b600081519050919050565b600082825260208201905092915050565b600081905092915050565b6000613a8782613bd9565b9150613a9283613bd9565b9250827fffffffffffffffffffffffffffffffffffffffffffffffffffffffffffffffff03821115613ac757613ac6613ce5565b5b828201905092915050565b6000613add82613bd9565b9150613ae883613bd9565b925082613af857613af7613d14565b5b828204905092915050565b6000613b0e82613bd9565b9150613b1983613bd9565b9250817fffffffffffffffffffffffffffffffffffffffffffffffffffffffffffffffff0483118215151615613b5257613b51613ce5565b5b828202905092915050565b6000613b6882613bd9565b9150613b7383613bd9565b925082821015613b8657613b85613ce5565b5b828203905092915050565b6000613b9c82613bb9565b9050919050565b60008115159050919050565b6000819050919050565b600073ffffffffffffffffffffffffffffffffffffffff82169050919050565b6000819050919050565b82818337600083830152505050565b60005b83811015613c10578082015181840152602081019050613bf5565b83811115613c1f576000848401525b50505050565b60006002820490506001821680613c3d57607f821691505b60208210811415613c5157613c50613d43565b5b50919050565b613c6082613de4565b810181811067ffffffffffffffff82111715613c7f57613c7e613da1565b5b80604052505050565b6000613c9382613bd9565b91507fffffffffffffffffffffffffffffffffffffffffffffffffffffffffffffffff821415613cc657613cc5613ce5565b5b600182019050919050565b6000819050919050565b6000819050919050565b7f4e487b7100000000000000000000000000000000000000000000000000000000600052601160045260246000fd5b7f4e487b7100000000000000000000000000000000000000000000000000000000600052601260045260246000fd5b7f4e487b7100000000000000000000000000000000000000000000000000000000600052602260045260246000fd5b7f4e487b7100000000000000000000000000000000000000000000000000000000600052603260045260246000fd5b7f4e487b7100000000000000000000000000000000000000000000000000000000600052604160045260246000fd5b600080fd5b600080fd5b600080fd5b600080fd5b6000601f19601f8301169050919050565b7f4f6e6c79206f776e65722063616e2063616c6c20746869732e00000000000000600082015250565b7f6e6f742065786973740000000000000000000000000000000000000000000000600082015250565b7f706f6f6c206e6f74206578697374000000000000000000000000000000000000600082015250565b7f706f6f6c20626173616c20686173206265656e20736574000000000000000000600082015250565b7f7061697220657869737400000000000000000000000000000000000000000000600082015250565b7f706f6f6c20686173206e6f742066696e69736865640000000000000000000000600082015250565b7f6e6f7420656e6f75676820766f7465416d6f756e740000000000000000000000600082015250565b7f6e6f7420656e6f75676820626173616c00000000000000000000000000000000600082015250565b7f706f6f6c206861732066696e6973686564000000000000000000000000000000600082015250565b613f6f81613b91565b8114613f7a57600080fd5b50565b613f8681613ba3565b8114613f9157600080fd5b50565b613f9d81613baf565b8114613fa857600080fd5b50565b613fb481613bd9565b8114613fbf57600080fd5b5056fea2646970667358221220cb629f675cd9e86a3714f28de3891255618472e12957c13a5089e0c380c3071c64736f6c63430008070033",
					"opcodes": "PUSH1 0x80 PUSH1 0x40 MSTORE CALLVALUE DUP1 ISZERO PUSH3 0x11 JUMPI PUSH1 0x0 DUP1 REVERT JUMPDEST POP PUSH1 0x40 MLOAD PUSH3 0x4182 CODESIZE SUB DUP1 PUSH3 0x4182 DUP4 CODECOPY DUP2 DUP2 ADD PUSH1 0x40 MSTORE DUP2 ADD SWAP1 PUSH3 0x37 SWAP2 SWAP1 PUSH3 0xBC JUMP JUMPDEST DUP2 PUSH1 0x0 DUP1 PUSH2 0x100 EXP DUP2 SLOAD DUP2 PUSH20 0xFFFFFFFFFFFFFFFFFFFFFFFFFFFFFFFFFFFFFFFF MUL NOT AND SWAP1 DUP4 PUSH20 0xFFFFFFFFFFFFFFFFFFFFFFFFFFFFFFFFFFFFFFFF AND MUL OR SWAP1 SSTORE POP PUSH1 0x0 PUSH1 0x2 DUP2 SWAP1 SSTORE POP DUP1 PUSH1 0x1 DUP2 SWAP1 SSTORE POP POP POP PUSH3 0x17A JUMP JUMPDEST PUSH1 0x0 DUP2 MLOAD SWAP1 POP PUSH3 0x9F DUP2 PUSH3 0x146 JUMP JUMPDEST SWAP3 SWAP2 POP POP JUMP JUMPDEST PUSH1 0x0 DUP2 MLOAD SWAP1 POP PUSH3 0xB6 DUP2 PUSH3 0x160 JUMP JUMPDEST SWAP3 SWAP2 POP POP JUMP JUMPDEST PUSH1 0x0 DUP1 PUSH1 0x40 DUP4 DUP6 SUB SLT ISZERO PUSH3 0xD6 JUMPI PUSH3 0xD5 PUSH3 0x141 JUMP JUMPDEST JUMPDEST PUSH1 0x0 PUSH3 0xE6 DUP6 DUP3 DUP7 ADD PUSH3 0x8E JUMP JUMPDEST SWAP3 POP POP PUSH1 0x20 PUSH3 0xF9 DUP6 DUP3 DUP7 ADD PUSH3 0xA5 JUMP JUMPDEST SWAP2 POP POP SWAP3 POP SWAP3 SWAP1 POP JUMP JUMPDEST PUSH1 0x0 PUSH3 0x110 DUP3 PUSH3 0x117 JUMP JUMPDEST SWAP1 POP SWAP2 SWAP1 POP JUMP JUMPDEST PUSH1 0x0 PUSH20 0xFFFFFFFFFFFFFFFFFFFFFFFFFFFFFFFFFFFFFFFF DUP3 AND SWAP1 POP SWAP2 SWAP1 POP JUMP JUMPDEST PUSH1 0x0 DUP2 SWAP1 POP SWAP2 SWAP1 POP JUMP JUMPDEST PUSH1 0x0 DUP1 REVERT JUMPDEST PUSH3 0x151 DUP2 PUSH3 0x103 JUMP JUMPDEST DUP2 EQ PUSH3 0x15D JUMPI PUSH1 0x0 DUP1 REVERT JUMPDEST POP JUMP JUMPDEST PUSH3 0x16B DUP2 PUSH3 0x137 JUMP JUMPDEST DUP2 EQ PUSH3 0x177 JUMPI PUSH1 0x0 DUP1 REVERT JUMPDEST POP JUMP JUMPDEST PUSH2 0x3FF8 DUP1 PUSH3 0x18A PUSH1 0x0 CODECOPY PUSH1 0x0 RETURN INVALID PUSH1 0x80 PUSH1 0x40 MSTORE PUSH1 0x4 CALLDATASIZE LT PUSH2 0xA0 JUMPI PUSH1 0x0 CALLDATALOAD PUSH1 0xE0 SHR DUP1 PUSH4 0x4121855F GT PUSH2 0x64 JUMPI DUP1 PUSH4 0x4121855F EQ PUSH2 0x2C5 JUMPI DUP1 PUSH4 0x47E4DD27 EQ PUSH2 0x302 JUMPI DUP1 PUSH4 0x74FE9BC2 EQ PUSH2 0x33F JUMPI DUP1 PUSH4 0x9BD0ABF1 EQ PUSH2 0x36F JUMPI DUP1 PUSH4 0xBAF41269 EQ PUSH2 0x39F JUMPI DUP1 PUSH4 0xF6C00927 EQ PUSH2 0x3CA JUMPI PUSH2 0x1BB JUMP JUMPDEST DUP1 PUSH4 0xCE49053 EQ PUSH2 0x1C0 JUMPI DUP1 PUSH4 0x2775E02C EQ PUSH2 0x1F0 JUMPI DUP1 PUSH4 0x2BF21ECC EQ PUSH2 0x220 JUMPI DUP1 PUSH4 0x357965BA EQ PUSH2 0x25D JUMPI DUP1 PUSH4 0x3E6FF1A2 EQ PUSH2 0x29A JUMPI PUSH2 0x1BB JUMP JUMPDEST CALLDATASIZE PUSH2 0x1BB JUMPI PUSH1 0x0 DUP1 SLOAD SWAP1 PUSH2 0x100 EXP SWAP1 DIV PUSH20 0xFFFFFFFFFFFFFFFFFFFFFFFFFFFFFFFFFFFFFFFF AND PUSH20 0xFFFFFFFFFFFFFFFFFFFFFFFFFFFFFFFFFFFFFFFF AND CALLER PUSH20 0xFFFFFFFFFFFFFFFFFFFFFFFFFFFFFFFFFFFFFFFF AND EQ PUSH2 0x1B8 JUMPI PUSH2 0x10C PUSH1 0x64 CALLVALUE PUSH2 0x409 SWAP1 SWAP2 SWAP1 PUSH4 0xFFFFFFFF AND JUMP JUMPDEST PUSH1 0x3 PUSH1 0x0 CALLER PUSH20 0xFFFFFFFFFFFFFFFFFFFFFFFFFFFFFFFFFFFFFFFF AND PUSH20 0xFFFFFFFFFFFFFFFFFFFFFFFFFFFFFFFFFFFFFFFF AND DUP2 MSTORE PUSH1 0x20 ADD SWAP1 DUP2 MSTORE PUSH1 0x20 ADD PUSH1 0x0 KECCAK256 PUSH1 0x0 DUP3 DUP3 SLOAD PUSH2 0x15A SWAP2 SWAP1 PUSH2 0x3A7C JUMP JUMPDEST SWAP3 POP POP DUP2 SWAP1 SSTORE POP CALLVALUE PUSH1 0x2 PUSH1 0x0 DUP3 DUP3 SLOAD PUSH2 0x173 SWAP2 SWAP1 PUSH2 0x3A7C JUMP JUMPDEST SWAP3 POP POP DUP2 SWAP1 SSTORE POP PUSH32 0x88A5966D370B9919B20F3E2C13FF65706F196A4E32CC2C12BF57088F88525874 CALLER CALLVALUE PUSH1 0x40 MLOAD PUSH2 0x1AB SWAP3 SWAP2 SWAP1 PUSH2 0x3820 JUMP JUMPDEST PUSH1 0x40 MLOAD DUP1 SWAP2 SUB SWAP1 LOG1 PUSH2 0x1B9 JUMP JUMPDEST JUMPDEST STOP JUMPDEST PUSH1 0x0 DUP1 REVERT JUMPDEST PUSH2 0x1DA PUSH1 0x4 DUP1 CALLDATASIZE SUB DUP2 ADD SWAP1 PUSH2 0x1D5 SWAP2 SWAP1 PUSH2 0x32B1 JUMP JUMPDEST PUSH2 0x44E JUMP JUMPDEST PUSH1 0x40 MLOAD PUSH2 0x1E7 SWAP2 SWAP1 PUSH2 0x3849 JUMP JUMPDEST PUSH1 0x40 MLOAD DUP1 SWAP2 SUB SWAP1 RETURN JUMPDEST PUSH2 0x20A PUSH1 0x4 DUP1 CALLDATASIZE SUB DUP2 ADD SWAP1 PUSH2 0x205 SWAP2 SWAP1 PUSH2 0x3284 JUMP JUMPDEST PUSH2 0x88A JUMP JUMPDEST PUSH1 0x40 MLOAD PUSH2 0x217 SWAP2 SWAP1 PUSH2 0x3849 JUMP JUMPDEST PUSH1 0x40 MLOAD DUP1 SWAP2 SUB SWAP1 RETURN JUMPDEST CALLVALUE DUP1 ISZERO PUSH2 0x22C JUMPI PUSH1 0x0 DUP1 REVERT JUMPDEST POP PUSH2 0x247 PUSH1 0x4 DUP1 CALLDATASIZE SUB DUP2 ADD SWAP1 PUSH2 0x242 SWAP2 SWAP1 PUSH2 0x33EB JUMP JUMPDEST PUSH2 0x97F JUMP JUMPDEST PUSH1 0x40 MLOAD PUSH2 0x254 SWAP2 SWAP1 PUSH2 0x3849 JUMP JUMPDEST PUSH1 0x40 MLOAD DUP1 SWAP2 SUB SWAP1 RETURN JUMPDEST CALLVALUE DUP1 ISZERO PUSH2 0x269 JUMPI PUSH1 0x0 DUP1 REVERT JUMPDEST POP PUSH2 0x284 PUSH1 0x4 DUP1 CALLDATASIZE SUB DUP2 ADD SWAP1 PUSH2 0x27F SWAP2 SWAP1 PUSH2 0x3492 JUMP JUMPDEST PUSH2 0xD7E JUMP JUMPDEST PUSH1 0x40 MLOAD PUSH2 0x291 SWAP2 SWAP1 PUSH2 0x3864 JUMP JUMPDEST PUSH1 0x40 MLOAD DUP1 SWAP2 SUB SWAP1 RETURN JUMPDEST CALLVALUE DUP1 ISZERO PUSH2 0x2A6 JUMPI PUSH1 0x0 DUP1 REVERT JUMPDEST POP PUSH2 0x2AF PUSH2 0x1046 JUMP JUMPDEST PUSH1 0x40 MLOAD PUSH2 0x2BC SWAP2 SWAP1 PUSH2 0x39E4 JUMP JUMPDEST PUSH1 0x40 MLOAD DUP1 SWAP2 SUB SWAP1 RETURN JUMPDEST CALLVALUE DUP1 ISZERO PUSH2 0x2D1 JUMPI PUSH1 0x0 DUP1 REVERT JUMPDEST POP PUSH2 0x2EC PUSH1 0x4 DUP1 CALLDATASIZE SUB DUP2 ADD SWAP1 PUSH2 0x2E7 SWAP2 SWAP1 PUSH2 0x33BE JUMP JUMPDEST PUSH2 0x10DF JUMP JUMPDEST PUSH1 0x40 MLOAD PUSH2 0x2F9 SWAP2 SWAP1 PUSH2 0x39E4 JUMP JUMPDEST PUSH1 0x40 MLOAD DUP1 SWAP2 SUB SWAP1 RETURN JUMPDEST CALLVALUE DUP1 ISZERO PUSH2 0x30E JUMPI PUSH1 0x0 DUP1 REVERT JUMPDEST POP PUSH2 0x329 PUSH1 0x4 DUP1 CALLDATASIZE SUB DUP2 ADD SWAP1 PUSH2 0x324 SWAP2 SWAP1 PUSH2 0x3331 JUMP JUMPDEST PUSH2 0x1476 JUMP JUMPDEST PUSH1 0x40 MLOAD PUSH2 0x336 SWAP2 SWAP1 PUSH2 0x3849 JUMP JUMPDEST PUSH1 0x40 MLOAD DUP1 SWAP2 SUB SWAP1 RETURN JUMPDEST PUSH2 0x359 PUSH1 0x4 DUP1 CALLDATASIZE SUB DUP2 ADD SWAP1 PUSH2 0x354 SWAP2 SWAP1 PUSH2 0x342B JUMP JUMPDEST PUSH2 0x1BC8 JUMP JUMPDEST PUSH1 0x40 MLOAD PUSH2 0x366 SWAP2 SWAP1 PUSH2 0x3849 JUMP JUMPDEST PUSH1 0x40 MLOAD DUP1 SWAP2 SUB SWAP1 RETURN JUMPDEST PUSH2 0x389 PUSH1 0x4 DUP1 CALLDATASIZE SUB DUP2 ADD SWAP1 PUSH2 0x384 SWAP2 SWAP1 PUSH2 0x32F1 JUMP JUMPDEST PUSH2 0x263B JUMP JUMPDEST PUSH1 0x40 MLOAD PUSH2 0x396 SWAP2 SWAP1 PUSH2 0x3849 JUMP JUMPDEST PUSH1 0x40 MLOAD DUP1 SWAP2 SUB SWAP1 RETURN JUMPDEST CALLVALUE DUP1 ISZERO PUSH2 0x3AB JUMPI PUSH1 0x0 DUP1 REVERT JUMPDEST POP PUSH2 0x3B4 PUSH2 0x2836 JUMP JUMPDEST PUSH1 0x40 MLOAD PUSH2 0x3C1 SWAP2 SWAP1 PUSH2 0x39E4 JUMP JUMPDEST PUSH1 0x40 MLOAD DUP1 SWAP2 SUB SWAP1 RETURN JUMPDEST CALLVALUE DUP1 ISZERO PUSH2 0x3D6 JUMPI PUSH1 0x0 DUP1 REVERT JUMPDEST POP PUSH2 0x3F1 PUSH1 0x4 DUP1 CALLDATASIZE SUB DUP2 ADD SWAP1 PUSH2 0x3EC SWAP2 SWAP1 PUSH2 0x33BE JUMP JUMPDEST PUSH2 0x287D JUMP JUMPDEST PUSH1 0x40 MLOAD PUSH2 0x400 SWAP4 SWAP3 SWAP2 SWAP1 PUSH2 0x387F JUMP JUMPDEST PUSH1 0x40 MLOAD DUP1 SWAP2 SUB SWAP1 RETURN JUMPDEST PUSH1 0x0 DUP1 DUP4 EQ ISZERO PUSH2 0x41C JUMPI PUSH1 0x0 SWAP1 POP PUSH2 0x448 JUMP JUMPDEST PUSH1 0x0 DUP3 DUP5 PUSH2 0x42A SWAP2 SWAP1 PUSH2 0x3B03 JUMP JUMPDEST SWAP1 POP DUP3 DUP5 DUP3 PUSH2 0x439 SWAP2 SWAP1 PUSH2 0x3AD2 JUMP JUMPDEST EQ PUSH2 0x443 JUMPI PUSH1 0x0 DUP1 REVERT JUMPDEST DUP1 SWAP2 POP POP JUMPDEST SWAP3 SWAP2 POP POP JUMP JUMPDEST PUSH1 0x0 DUP1 PUSH1 0x0 SWAP1 SLOAD SWAP1 PUSH2 0x100 EXP SWAP1 DIV PUSH20 0xFFFFFFFFFFFFFFFFFFFFFFFFFFFFFFFFFFFFFFFF AND PUSH20 0xFFFFFFFFFFFFFFFFFFFFFFFFFFFFFFFFFFFFFFFF AND CALLER PUSH20 0xFFFFFFFFFFFFFFFFFFFFFFFFFFFFFFFFFFFFFFFF AND EQ PUSH2 0x4DF JUMPI PUSH1 0x40 MLOAD PUSH32 0x8C379A000000000000000000000000000000000000000000000000000000000 DUP2 MSTORE PUSH1 0x4 ADD PUSH2 0x4D6 SWAP1 PUSH2 0x38C4 JUMP JUMPDEST PUSH1 0x40 MLOAD DUP1 SWAP2 SUB SWAP1 REVERT JUMPDEST PUSH2 0x4E8 DUP3 PUSH2 0x2BA7 JUMP JUMPDEST PUSH2 0x527 JUMPI PUSH1 0x40 MLOAD PUSH32 0x8C379A000000000000000000000000000000000000000000000000000000000 DUP2 MSTORE PUSH1 0x4 ADD PUSH2 0x51E SWAP1 PUSH2 0x3904 JUMP JUMPDEST PUSH1 0x40 MLOAD DUP1 SWAP2 SUB SWAP1 REVERT JUMPDEST PUSH1 0x0 PUSH1 0x4 PUSH1 0x0 DUP5 DUP2 MSTORE PUSH1 0x20 ADD SWAP1 DUP2 MSTORE PUSH1 0x20 ADD PUSH1 0x0 KECCAK256 PUSH1 0x40 MLOAD DUP1 PUSH2 0x160 ADD PUSH1 0x40 MSTORE SWAP1 DUP2 PUSH1 0x0 DUP3 ADD DUP1 SLOAD PUSH2 0x558 SWAP1 PUSH2 0x3C25 JUMP JUMPDEST DUP1 PUSH1 0x1F ADD PUSH1 0x20 DUP1 SWAP2 DIV MUL PUSH1 0x20 ADD PUSH1 0x40 MLOAD SWAP1 DUP2 ADD PUSH1 0x40 MSTORE DUP1 SWAP3 SWAP2 SWAP1 DUP2 DUP2 MSTORE PUSH1 0x20 ADD DUP3 DUP1 SLOAD PUSH2 0x584 SWAP1 PUSH2 0x3C25 JUMP JUMPDEST DUP1 ISZERO PUSH2 0x5D1 JUMPI DUP1 PUSH1 0x1F LT PUSH2 0x5A6 JUMPI PUSH2 0x100 DUP1 DUP4 SLOAD DIV MUL DUP4 MSTORE SWAP2 PUSH1 0x20 ADD SWAP2 PUSH2 0x5D1 JUMP JUMPDEST DUP3 ADD SWAP2 SWAP1 PUSH1 0x0 MSTORE PUSH1 0x20 PUSH1 0x0 KECCAK256 SWAP1 JUMPDEST DUP2 SLOAD DUP2 MSTORE SWAP1 PUSH1 0x1 ADD SWAP1 PUSH1 0x20 ADD DUP1 DUP4 GT PUSH2 0x5B4 JUMPI DUP3 SWAP1 SUB PUSH1 0x1F AND DUP3 ADD SWAP2 JUMPDEST POP POP POP POP POP DUP2 MSTORE PUSH1 0x20 ADD PUSH1 0x1 DUP3 ADD DUP1 SLOAD PUSH2 0x5EA SWAP1 PUSH2 0x3C25 JUMP JUMPDEST DUP1 PUSH1 0x1F ADD PUSH1 0x20 DUP1 SWAP2 DIV MUL PUSH1 0x20 ADD PUSH1 0x40 MLOAD SWAP1 DUP2 ADD PUSH1 0x40 MSTORE DUP1 SWAP3 SWAP2 SWAP1 DUP2 DUP2 MSTORE PUSH1 0x20 ADD DUP3 DUP1 SLOAD PUSH2 0x616 SWAP1 PUSH2 0x3C25 JUMP JUMPDEST DUP1 ISZERO PUSH2 0x663 JUMPI DUP1 PUSH1 0x1F LT PUSH2 0x638 JUMPI PUSH2 0x100 DUP1 DUP4 SLOAD DIV MUL DUP4 MSTORE SWAP2 PUSH1 0x20 ADD SWAP2 PUSH2 0x663 JUMP JUMPDEST DUP3 ADD SWAP2 SWAP1 PUSH1 0x0 MSTORE PUSH1 0x20 PUSH1 0x0 KECCAK256 SWAP1 JUMPDEST DUP2 SLOAD DUP2 MSTORE SWAP1 PUSH1 0x1 ADD SWAP1 PUSH1 0x20 ADD DUP1 DUP4 GT PUSH2 0x646 JUMPI DUP3 SWAP1 SUB PUSH1 0x1F AND DUP3 ADD SWAP2 JUMPDEST POP POP POP POP POP DUP2 MSTORE PUSH1 0x20 ADD PUSH1 0x2 DUP3 ADD DUP1 SLOAD PUSH2 0x67C SWAP1 PUSH2 0x3C25 JUMP JUMPDEST DUP1 PUSH1 0x1F ADD PUSH1 0x20 DUP1 SWAP2 DIV MUL PUSH1 0x20 ADD PUSH1 0x40 MLOAD SWAP1 DUP2 ADD PUSH1 0x40 MSTORE DUP1 SWAP3 SWAP2 SWAP1 DUP2 DUP2 MSTORE PUSH1 0x20 ADD DUP3 DUP1 SLOAD PUSH2 0x6A8 SWAP1 PUSH2 0x3C25 JUMP JUMPDEST DUP1 ISZERO PUSH2 0x6F5 JUMPI DUP1 PUSH1 0x1F LT PUSH2 0x6CA JUMPI PUSH2 0x100 DUP1 DUP4 SLOAD DIV MUL DUP4 MSTORE SWAP2 PUSH1 0x20 ADD SWAP2 PUSH2 0x6F5 JUMP JUMPDEST DUP3 ADD SWAP2 SWAP1 PUSH1 0x0 MSTORE PUSH1 0x20 PUSH1 0x0 KECCAK256 SWAP1 JUMPDEST DUP2 SLOAD DUP2 MSTORE SWAP1 PUSH1 0x1 ADD SWAP1 PUSH1 0x20 ADD DUP1 DUP4 GT PUSH2 0x6D8 JUMPI DUP3 SWAP1 SUB PUSH1 0x1F AND DUP3 ADD SWAP2 JUMPDEST POP POP POP POP POP DUP2 MSTORE PUSH1 0x20 ADD PUSH1 0x3 DUP3 ADD SLOAD DUP2 MSTORE PUSH1 0x20 ADD PUSH1 0x4 DUP3 ADD SLOAD DUP2 MSTORE PUSH1 0x20 ADD PUSH1 0x5 DUP3 ADD SLOAD DUP2 MSTORE PUSH1 0x20 ADD PUSH1 0x6 DUP3 ADD SLOAD DUP2 MSTORE PUSH1 0x20 ADD PUSH1 0x7 DUP3 ADD SLOAD DUP2 MSTORE PUSH1 0x20 ADD PUSH1 0x8 DUP3 ADD PUSH1 0x0 SWAP1 SLOAD SWAP1 PUSH2 0x100 EXP SWAP1 DIV PUSH1 0xFF AND ISZERO ISZERO ISZERO ISZERO DUP2 MSTORE PUSH1 0x20 ADD PUSH1 0x8 DUP3 ADD PUSH1 0x1 SWAP1 SLOAD SWAP1 PUSH2 0x100 EXP SWAP1 DIV PUSH1 0xFF AND ISZERO ISZERO ISZERO ISZERO DUP2 MSTORE PUSH1 0x20 ADD PUSH1 0x8 DUP3 ADD PUSH1 0x2 SWAP1 SLOAD SWAP1 PUSH2 0x100 EXP SWAP1 DIV PUSH1 0xFF AND ISZERO ISZERO ISZERO ISZERO DUP2 MSTORE POP POP SWAP1 POP PUSH1 0x0 PUSH2 0x7D9 PUSH1 0xA DUP4 PUSH1 0xE0 ADD MLOAD DUP5 PUSH1 0xC0 ADD MLOAD DUP6 PUSH1 0x80 ADD MLOAD DUP7 PUSH1 0xA0 ADD MLOAD DUP8 PUSH1 0x60 ADD MLOAD PUSH2 0x7AD SWAP2 SWAP1 PUSH2 0x3A7C JUMP JUMPDEST PUSH2 0x7B7 SWAP2 SWAP1 PUSH2 0x3A7C JUMP JUMPDEST PUSH2 0x7C1 SWAP2 SWAP1 PUSH2 0x3A7C JUMP JUMPDEST PUSH2 0x7CB SWAP2 SWAP1 PUSH2 0x3A7C JUMP JUMPDEST PUSH2 0x2BD4 SWAP1 SWAP2 SWAP1 PUSH4 0xFFFFFFFF AND JUMP JUMPDEST SWAP1 POP PUSH1 0x1 DUP3 PUSH2 0x140 ADD SWAP1 ISZERO ISZERO SWAP1 DUP2 ISZERO ISZERO DUP2 MSTORE POP ISZERO PUSH2 0x843 JUMPI PUSH1 0x0 DUP6 SWAP1 POP DUP1 PUSH20 0xFFFFFFFFFFFFFFFFFFFFFFFFFFFFFFFFFFFFFFFF AND PUSH2 0x8FC DUP4 SWAP1 DUP2 ISZERO MUL SWAP1 PUSH1 0x40 MLOAD PUSH1 0x0 PUSH1 0x40 MLOAD DUP1 DUP4 SUB DUP2 DUP6 DUP9 DUP9 CALL SWAP4 POP POP POP POP ISZERO DUP1 ISZERO PUSH2 0x83C JUMPI RETURNDATASIZE PUSH1 0x0 DUP1 RETURNDATACOPY RETURNDATASIZE PUSH1 0x0 REVERT JUMPDEST POP POP PUSH2 0x87E JUMP JUMPDEST PUSH1 0x40 MLOAD PUSH32 0x8C379A000000000000000000000000000000000000000000000000000000000 DUP2 MSTORE PUSH1 0x4 ADD PUSH2 0x875 SWAP1 PUSH2 0x3964 JUMP JUMPDEST PUSH1 0x40 MLOAD DUP1 SWAP2 SUB SWAP1 REVERT JUMPDEST POP POP PUSH1 0x1 SWAP1 POP SWAP3 SWAP2 POP POP JUMP JUMPDEST PUSH1 0x0 DUP1 PUSH1 0x0 SWAP1 SLOAD SWAP1 PUSH2 0x100 EXP SWAP1 DIV PUSH20 0xFFFFFFFFFFFFFFFFFFFFFFFFFFFFFFFFFFFFFFFF AND PUSH20 0xFFFFFFFFFFFFFFFFFFFFFFFFFFFFFFFFFFFFFFFF AND CALLER PUSH20 0xFFFFFFFFFFFFFFFFFFFFFFFFFFFFFFFFFFFFFFFF AND EQ PUSH2 0x91B JUMPI PUSH1 0x40 MLOAD PUSH32 0x8C379A000000000000000000000000000000000000000000000000000000000 DUP2 MSTORE PUSH1 0x4 ADD PUSH2 0x912 SWAP1 PUSH2 0x38C4 JUMP JUMPDEST PUSH1 0x40 MLOAD DUP1 SWAP2 SUB SWAP1 REVERT JUMPDEST PUSH1 0x0 DUP3 SWAP1 POP DUP1 PUSH20 0xFFFFFFFFFFFFFFFFFFFFFFFFFFFFFFFFFFFFFFFF AND PUSH2 0x8FC PUSH1 0x1 PUSH1 0x2 SLOAD PUSH2 0x949 SWAP2 SWAP1 PUSH2 0x3B5D JUMP JUMPDEST SWAP1 DUP2 ISZERO MUL SWAP1 PUSH1 0x40 MLOAD PUSH1 0x0 PUSH1 0x40 MLOAD DUP1 DUP4 SUB DUP2 DUP6 DUP9 DUP9 CALL SWAP4 POP POP POP POP ISZERO DUP1 ISZERO PUSH2 0x974 JUMPI RETURNDATASIZE PUSH1 0x0 DUP1 RETURNDATACOPY RETURNDATASIZE PUSH1 0x0 REVERT JUMPDEST POP PUSH1 0x1 SWAP2 POP POP SWAP2 SWAP1 POP JUMP JUMPDEST PUSH1 0x0 DUP1 PUSH1 0x0 SWAP1 SLOAD SWAP1 PUSH2 0x100 EXP SWAP1 DIV PUSH20 0xFFFFFFFFFFFFFFFFFFFFFFFFFFFFFFFFFFFFFFFF AND PUSH20 0xFFFFFFFFFFFFFFFFFFFFFFFFFFFFFFFFFFFFFFFF AND CALLER PUSH20 0xFFFFFFFFFFFFFFFFFFFFFFFFFFFFFFFFFFFFFFFF AND EQ PUSH2 0xA10 JUMPI PUSH1 0x40 MLOAD PUSH32 0x8C379A000000000000000000000000000000000000000000000000000000000 DUP2 MSTORE PUSH1 0x4 ADD PUSH2 0xA07 SWAP1 PUSH2 0x38C4 JUMP JUMPDEST PUSH1 0x40 MLOAD DUP1 SWAP2 SUB SWAP1 REVERT JUMPDEST PUSH2 0xA19 DUP4 PUSH2 0x2BA7 JUMP JUMPDEST PUSH2 0xA58 JUMPI PUSH1 0x40 MLOAD PUSH32 0x8C379A000000000000000000000000000000000000000000000000000000000 DUP2 MSTORE PUSH1 0x4 ADD PUSH2 0xA4F SWAP1 PUSH2 0x3904 JUMP JUMPDEST PUSH1 0x40 MLOAD DUP1 SWAP2 SUB SWAP1 REVERT JUMPDEST PUSH1 0x0 PUSH1 0x4 PUSH1 0x0 DUP6 DUP2 MSTORE PUSH1 0x20 ADD SWAP1 DUP2 MSTORE PUSH1 0x20 ADD PUSH1 0x0 KECCAK256 PUSH1 0x40 MLOAD DUP1 PUSH2 0x160 ADD PUSH1 0x40 MSTORE SWAP1 DUP2 PUSH1 0x0 DUP3 ADD DUP1 SLOAD PUSH2 0xA89 SWAP1 PUSH2 0x3C25 JUMP JUMPDEST DUP1 PUSH1 0x1F ADD PUSH1 0x20 DUP1 SWAP2 DIV MUL PUSH1 0x20 ADD PUSH1 0x40 MLOAD SWAP1 DUP2 ADD PUSH1 0x40 MSTORE DUP1 SWAP3 SWAP2 SWAP1 DUP2 DUP2 MSTORE PUSH1 0x20 ADD DUP3 DUP1 SLOAD PUSH2 0xAB5 SWAP1 PUSH2 0x3C25 JUMP JUMPDEST DUP1 ISZERO PUSH2 0xB02 JUMPI DUP1 PUSH1 0x1F LT PUSH2 0xAD7 JUMPI PUSH2 0x100 DUP1 DUP4 SLOAD DIV MUL DUP4 MSTORE SWAP2 PUSH1 0x20 ADD SWAP2 PUSH2 0xB02 JUMP JUMPDEST DUP3 ADD SWAP2 SWAP1 PUSH1 0x0 MSTORE PUSH1 0x20 PUSH1 0x0 KECCAK256 SWAP1 JUMPDEST DUP2 SLOAD DUP2 MSTORE SWAP1 PUSH1 0x1 ADD SWAP1 PUSH1 0x20 ADD DUP1 DUP4 GT PUSH2 0xAE5 JUMPI DUP3 SWAP1 SUB PUSH1 0x1F AND DUP3 ADD SWAP2 JUMPDEST POP POP POP POP POP DUP2 MSTORE PUSH1 0x20 ADD PUSH1 0x1 DUP3 ADD DUP1 SLOAD PUSH2 0xB1B SWAP1 PUSH2 0x3C25 JUMP JUMPDEST DUP1 PUSH1 0x1F ADD PUSH1 0x20 DUP1 SWAP2 DIV MUL PUSH1 0x20 ADD PUSH1 0x40 MLOAD SWAP1 DUP2 ADD PUSH1 0x40 MSTORE DUP1 SWAP3 SWAP2 SWAP1 DUP2 DUP2 MSTORE PUSH1 0x20 ADD DUP3 DUP1 SLOAD PUSH2 0xB47 SWAP1 PUSH2 0x3C25 JUMP JUMPDEST DUP1 ISZERO PUSH2 0xB94 JUMPI DUP1 PUSH1 0x1F LT PUSH2 0xB69 JUMPI PUSH2 0x100 DUP1 DUP4 SLOAD DIV MUL DUP4 MSTORE SWAP2 PUSH1 0x20 ADD SWAP2 PUSH2 0xB94 JUMP JUMPDEST DUP3 ADD SWAP2 SWAP1 PUSH1 0x0 MSTORE PUSH1 0x20 PUSH1 0x0 KECCAK256 SWAP1 JUMPDEST DUP2 SLOAD DUP2 MSTORE SWAP1 PUSH1 0x1 ADD SWAP1 PUSH1 0x20 ADD DUP1 DUP4 GT PUSH2 0xB77 JUMPI DUP3 SWAP1 SUB PUSH1 0x1F AND DUP3 ADD SWAP2 JUMPDEST POP POP POP POP POP DUP2 MSTORE PUSH1 0x20 ADD PUSH1 0x2 DUP3 ADD DUP1 SLOAD PUSH2 0xBAD SWAP1 PUSH2 0x3C25 JUMP JUMPDEST DUP1 PUSH1 0x1F ADD PUSH1 0x20 DUP1 SWAP2 DIV MUL PUSH1 0x20 ADD PUSH1 0x40 MLOAD SWAP1 DUP2 ADD PUSH1 0x40 MSTORE DUP1 SWAP3 SWAP2 SWAP1 DUP2 DUP2 MSTORE PUSH1 0x20 ADD DUP3 DUP1 SLOAD PUSH2 0xBD9 SWAP1 PUSH2 0x3C25 JUMP JUMPDEST DUP1 ISZERO PUSH2 0xC26 JUMPI DUP1 PUSH1 0x1F LT PUSH2 0xBFB JUMPI PUSH2 0x100 DUP1 DUP4 SLOAD DIV MUL DUP4 MSTORE SWAP2 PUSH1 0x20 ADD SWAP2 PUSH2 0xC26 JUMP JUMPDEST DUP3 ADD SWAP2 SWAP1 PUSH1 0x0 MSTORE PUSH1 0x20 PUSH1 0x0 KECCAK256 SWAP1 JUMPDEST DUP2 SLOAD DUP2 MSTORE SWAP1 PUSH1 0x1 ADD SWAP1 PUSH1 0x20 ADD DUP1 DUP4 GT PUSH2 0xC09 JUMPI DUP3 SWAP1 SUB PUSH1 0x1F AND DUP3 ADD SWAP2 JUMPDEST POP POP POP POP POP DUP2 MSTORE PUSH1 0x20 ADD PUSH1 0x3 DUP3 ADD SLOAD DUP2 MSTORE PUSH1 0x20 ADD PUSH1 0x4 DUP3 ADD SLOAD DUP2 MSTORE PUSH1 0x20 ADD PUSH1 0x5 DUP3 ADD SLOAD DUP2 MSTORE PUSH1 0x20 ADD PUSH1 0x6 DUP3 ADD SLOAD DUP2 MSTORE PUSH1 0x20 ADD PUSH1 0x7 DUP3 ADD SLOAD DUP2 MSTORE PUSH1 0x20 ADD PUSH1 0x8 DUP3 ADD PUSH1 0x0 SWAP1 SLOAD SWAP1 PUSH2 0x100 EXP SWAP1 DIV PUSH1 0xFF AND ISZERO ISZERO ISZERO ISZERO DUP2 MSTORE PUSH1 0x20 ADD PUSH1 0x8 DUP3 ADD PUSH1 0x1 SWAP1 SLOAD SWAP1 PUSH2 0x100 EXP SWAP1 DIV PUSH1 0xFF AND ISZERO ISZERO ISZERO ISZERO DUP2 MSTORE PUSH1 0x20 ADD PUSH1 0x8 DUP3 ADD PUSH1 0x2 SWAP1 SLOAD SWAP1 PUSH2 0x100 EXP SWAP1 DIV PUSH1 0xFF AND ISZERO ISZERO ISZERO ISZERO DUP2 MSTORE POP POP SWAP1 POP PUSH1 0x0 DUP2 PUSH1 0xE0 ADD MLOAD GT ISZERO PUSH2 0xCFC JUMPI PUSH1 0x40 MLOAD PUSH32 0x8C379A000000000000000000000000000000000000000000000000000000000 DUP2 MSTORE PUSH1 0x4 ADD PUSH2 0xCF3 SWAP1 PUSH2 0x3924 JUMP JUMPDEST PUSH1 0x40 MLOAD DUP1 SWAP2 SUB SWAP1 REVERT JUMPDEST DUP3 PUSH1 0x1 SLOAD GT ISZERO PUSH2 0xD41 JUMPI PUSH1 0x40 MLOAD PUSH32 0x8C379A000000000000000000000000000000000000000000000000000000000 DUP2 MSTORE PUSH1 0x4 ADD PUSH2 0xD38 SWAP1 PUSH2 0x39A4 JUMP JUMPDEST PUSH1 0x40 MLOAD DUP1 SWAP2 SUB SWAP1 REVERT JUMPDEST DUP3 DUP2 PUSH1 0xE0 ADD DUP2 DUP2 MLOAD PUSH2 0xD53 SWAP2 SWAP1 PUSH2 0x3A7C JUMP JUMPDEST SWAP2 POP DUP2 DUP2 MSTORE POP POP DUP3 PUSH1 0x1 PUSH1 0x0 DUP3 DUP3 SLOAD PUSH2 0xD6C SWAP2 SWAP1 PUSH2 0x3B5D JUMP JUMPDEST SWAP3 POP POP DUP2 SWAP1 SSTORE POP PUSH1 0x1 SWAP2 POP POP SWAP3 SWAP2 POP POP JUMP JUMPDEST PUSH1 0x0 DUP1 PUSH1 0x0 SWAP1 SLOAD SWAP1 PUSH2 0x100 EXP SWAP1 DIV PUSH20 0xFFFFFFFFFFFFFFFFFFFFFFFFFFFFFFFFFFFFFFFF AND PUSH20 0xFFFFFFFFFFFFFFFFFFFFFFFFFFFFFFFFFFFFFFFF AND CALLER PUSH20 0xFFFFFFFFFFFFFFFFFFFFFFFFFFFFFFFFFFFFFFFF AND EQ PUSH2 0xE0F JUMPI PUSH1 0x40 MLOAD PUSH32 0x8C379A000000000000000000000000000000000000000000000000000000000 DUP2 MSTORE PUSH1 0x4 ADD PUSH2 0xE06 SWAP1 PUSH2 0x38C4 JUMP JUMPDEST PUSH1 0x40 MLOAD DUP1 SWAP2 SUB SWAP1 REVERT JUMPDEST PUSH1 0x0 PUSH2 0xE1B DUP7 DUP7 PUSH2 0x2BFC JUMP JUMPDEST SWAP1 POP PUSH1 0x0 PUSH2 0xE29 DUP3 DUP7 PUSH2 0x2BFC JUMP JUMPDEST SWAP1 POP PUSH1 0x0 DUP2 PUSH1 0x40 MLOAD PUSH1 0x20 ADD PUSH2 0xE3E SWAP2 SWAP1 PUSH2 0x37EE JUMP JUMPDEST PUSH1 0x40 MLOAD PUSH1 0x20 DUP2 DUP4 SUB SUB DUP2 MSTORE SWAP1 PUSH1 0x40 MSTORE DUP1 MLOAD SWAP1 PUSH1 0x20 ADD KECCAK256 SWAP1 POP PUSH2 0xE5F DUP2 PUSH2 0x2BA7 JUMP JUMPDEST ISZERO PUSH2 0xE9F JUMPI PUSH1 0x40 MLOAD PUSH32 0x8C379A000000000000000000000000000000000000000000000000000000000 DUP2 MSTORE PUSH1 0x4 ADD PUSH2 0xE96 SWAP1 PUSH2 0x3944 JUMP JUMPDEST PUSH1 0x40 MLOAD DUP1 SWAP2 SUB SWAP1 REVERT JUMPDEST PUSH1 0x1 PUSH1 0x4 PUSH1 0x0 DUP4 DUP2 MSTORE PUSH1 0x20 ADD SWAP1 DUP2 MSTORE PUSH1 0x20 ADD PUSH1 0x0 KECCAK256 PUSH1 0x8 ADD PUSH1 0x1 PUSH2 0x100 EXP DUP2 SLOAD DUP2 PUSH1 0xFF MUL NOT AND SWAP1 DUP4 ISZERO ISZERO MUL OR SWAP1 SSTORE POP DUP8 PUSH1 0x4 PUSH1 0x0 DUP4 DUP2 MSTORE PUSH1 0x20 ADD SWAP1 DUP2 MSTORE PUSH1 0x20 ADD PUSH1 0x0 KECCAK256 PUSH1 0x0 ADD SWAP1 DUP1 MLOAD SWAP1 PUSH1 0x20 ADD SWAP1 PUSH2 0xEF8 SWAP3 SWAP2 SWAP1 PUSH2 0x30EE JUMP JUMPDEST POP DUP7 PUSH1 0x4 PUSH1 0x0 DUP4 DUP2 MSTORE PUSH1 0x20 ADD SWAP1 DUP2 MSTORE PUSH1 0x20 ADD PUSH1 0x0 KECCAK256 PUSH1 0x1 ADD SWAP1 DUP1 MLOAD SWAP1 PUSH1 0x20 ADD SWAP1 PUSH2 0xF23 SWAP3 SWAP2 SWAP1 PUSH2 0x30EE JUMP JUMPDEST POP DUP6 PUSH1 0x4 PUSH1 0x0 DUP4 DUP2 MSTORE PUSH1 0x20 ADD SWAP1 DUP2 MSTORE PUSH1 0x20 ADD PUSH1 0x0 KECCAK256 PUSH1 0x2 ADD SWAP1 DUP1 MLOAD SWAP1 PUSH1 0x20 ADD SWAP1 PUSH2 0xF4E SWAP3 SWAP2 SWAP1 PUSH2 0x30EE JUMP JUMPDEST POP PUSH1 0x0 PUSH1 0x4 PUSH1 0x0 DUP4 DUP2 MSTORE PUSH1 0x20 ADD SWAP1 DUP2 MSTORE PUSH1 0x20 ADD PUSH1 0x0 KECCAK256 PUSH1 0x3 ADD DUP2 SWAP1 SSTORE POP PUSH1 0x0 PUSH1 0x4 PUSH1 0x0 DUP4 DUP2 MSTORE PUSH1 0x20 ADD SWAP1 DUP2 MSTORE PUSH1 0x20 ADD PUSH1 0x0 KECCAK256 PUSH1 0x4 ADD DUP2 SWAP1 SSTORE POP PUSH1 0x0 PUSH1 0x4 PUSH1 0x0 DUP4 DUP2 MSTORE PUSH1 0x20 ADD SWAP1 DUP2 MSTORE PUSH1 0x20 ADD PUSH1 0x0 KECCAK256 PUSH1 0x5 ADD DUP2 SWAP1 SSTORE POP PUSH1 0x0 PUSH1 0x4 PUSH1 0x0 DUP4 DUP2 MSTORE PUSH1 0x20 ADD SWAP1 DUP2 MSTORE PUSH1 0x20 ADD PUSH1 0x0 KECCAK256 PUSH1 0x6 ADD DUP2 SWAP1 SSTORE POP PUSH1 0x0 PUSH1 0x4 PUSH1 0x0 DUP4 DUP2 MSTORE PUSH1 0x20 ADD SWAP1 DUP2 MSTORE PUSH1 0x20 ADD PUSH1 0x0 KECCAK256 PUSH1 0x7 ADD DUP2 SWAP1 SSTORE POP DUP5 PUSH1 0x4 PUSH1 0x0 DUP4 DUP2 MSTORE PUSH1 0x20 ADD SWAP1 DUP2 MSTORE PUSH1 0x20 ADD PUSH1 0x0 KECCAK256 PUSH1 0x8 ADD PUSH1 0x0 PUSH2 0x100 EXP DUP2 SLOAD DUP2 PUSH1 0xFF MUL NOT AND SWAP1 DUP4 ISZERO ISZERO MUL OR SWAP1 SSTORE POP PUSH1 0x0 PUSH1 0x4 PUSH1 0x0 DUP4 DUP2 MSTORE PUSH1 0x20 ADD SWAP1 DUP2 MSTORE PUSH1 0x20 ADD PUSH1 0x0 KECCAK256 PUSH1 0x8 ADD PUSH1 0x2 PUSH2 0x100 EXP DUP2 SLOAD DUP2 PUSH1 0xFF MUL NOT AND SWAP1 DUP4 ISZERO ISZERO MUL OR SWAP1 SSTORE POP DUP1 SWAP4 POP POP POP POP SWAP5 SWAP4 POP POP POP POP JUMP JUMPDEST PUSH1 0x0 DUP1 PUSH1 0x0 SWAP1 SLOAD SWAP1 PUSH2 0x100 EXP SWAP1 DIV PUSH20 0xFFFFFFFFFFFFFFFFFFFFFFFFFFFFFFFFFFFFFFFF AND PUSH20 0xFFFFFFFFFFFFFFFFFFFFFFFFFFFFFFFFFFFFFFFF AND CALLER PUSH20 0xFFFFFFFFFFFFFFFFFFFFFFFFFFFFFFFFFFFFFFFF AND EQ PUSH2 0x10D7 JUMPI PUSH1 0x40 MLOAD PUSH32 0x8C379A000000000000000000000000000000000000000000000000000000000 DUP2 MSTORE PUSH1 0x4 ADD PUSH2 0x10CE SWAP1 PUSH2 0x38C4 JUMP JUMPDEST PUSH1 0x40 MLOAD DUP1 SWAP2 SUB SWAP1 REVERT JUMPDEST PUSH1 0x1 SLOAD SWAP1 POP SWAP1 JUMP JUMPDEST PUSH1 0x0 DUP1 PUSH1 0x0 SWAP1 SLOAD SWAP1 PUSH2 0x100 EXP SWAP1 DIV PUSH20 0xFFFFFFFFFFFFFFFFFFFFFFFFFFFFFFFFFFFFFFFF AND PUSH20 0xFFFFFFFFFFFFFFFFFFFFFFFFFFFFFFFFFFFFFFFF AND CALLER PUSH20 0xFFFFFFFFFFFFFFFFFFFFFFFFFFFFFFFFFFFFFFFF AND EQ PUSH2 0x1170 JUMPI PUSH1 0x40 MLOAD PUSH32 0x8C379A000000000000000000000000000000000000000000000000000000000 DUP2 MSTORE PUSH1 0x4 ADD PUSH2 0x1167 SWAP1 PUSH2 0x38C4 JUMP JUMPDEST PUSH1 0x40 MLOAD DUP1 SWAP2 SUB SWAP1 REVERT JUMPDEST PUSH2 0x1179 DUP3 PUSH2 0x2BA7 JUMP JUMPDEST PUSH2 0x11B8 JUMPI PUSH1 0x40 MLOAD PUSH32 0x8C379A000000000000000000000000000000000000000000000000000000000 DUP2 MSTORE PUSH1 0x4 ADD PUSH2 0x11AF SWAP1 PUSH2 0x3904 JUMP JUMPDEST PUSH1 0x40 MLOAD DUP1 SWAP2 SUB SWAP1 REVERT JUMPDEST PUSH1 0x0 PUSH1 0x4 PUSH1 0x0 DUP5 DUP2 MSTORE PUSH1 0x20 ADD SWAP1 DUP2 MSTORE PUSH1 0x20 ADD PUSH1 0x0 KECCAK256 PUSH1 0x40 MLOAD DUP1 PUSH2 0x160 ADD PUSH1 0x40 MSTORE SWAP1 DUP2 PUSH1 0x0 DUP3 ADD DUP1 SLOAD PUSH2 0x11E9 SWAP1 PUSH2 0x3C25 JUMP JUMPDEST DUP1 PUSH1 0x1F ADD PUSH1 0x20 DUP1 SWAP2 DIV MUL PUSH1 0x20 ADD PUSH1 0x40 MLOAD SWAP1 DUP2 ADD PUSH1 0x40 MSTORE DUP1 SWAP3 SWAP2 SWAP1 DUP2 DUP2 MSTORE PUSH1 0x20 ADD DUP3 DUP1 SLOAD PUSH2 0x1215 SWAP1 PUSH2 0x3C25 JUMP JUMPDEST DUP1 ISZERO PUSH2 0x1262 JUMPI DUP1 PUSH1 0x1F LT PUSH2 0x1237 JUMPI PUSH2 0x100 DUP1 DUP4 SLOAD DIV MUL DUP4 MSTORE SWAP2 PUSH1 0x20 ADD SWAP2 PUSH2 0x1262 JUMP JUMPDEST DUP3 ADD SWAP2 SWAP1 PUSH1 0x0 MSTORE PUSH1 0x20 PUSH1 0x0 KECCAK256 SWAP1 JUMPDEST DUP2 SLOAD DUP2 MSTORE SWAP1 PUSH1 0x1 ADD SWAP1 PUSH1 0x20 ADD DUP1 DUP4 GT PUSH2 0x1245 JUMPI DUP3 SWAP1 SUB PUSH1 0x1F AND DUP3 ADD SWAP2 JUMPDEST POP POP POP POP POP DUP2 MSTORE PUSH1 0x20 ADD PUSH1 0x1 DUP3 ADD DUP1 SLOAD PUSH2 0x127B SWAP1 PUSH2 0x3C25 JUMP JUMPDEST DUP1 PUSH1 0x1F ADD PUSH1 0x20 DUP1 SWAP2 DIV MUL PUSH1 0x20 ADD PUSH1 0x40 MLOAD SWAP1 DUP2 ADD PUSH1 0x40 MSTORE DUP1 SWAP3 SWAP2 SWAP1 DUP2 DUP2 MSTORE PUSH1 0x20 ADD DUP3 DUP1 SLOAD PUSH2 0x12A7 SWAP1 PUSH2 0x3C25 JUMP JUMPDEST DUP1 ISZERO PUSH2 0x12F4 JUMPI DUP1 PUSH1 0x1F LT PUSH2 0x12C9 JUMPI PUSH2 0x100 DUP1 DUP4 SLOAD DIV MUL DUP4 MSTORE SWAP2 PUSH1 0x20 ADD SWAP2 PUSH2 0x12F4 JUMP JUMPDEST DUP3 ADD SWAP2 SWAP1 PUSH1 0x0 MSTORE PUSH1 0x20 PUSH1 0x0 KECCAK256 SWAP1 JUMPDEST DUP2 SLOAD DUP2 MSTORE SWAP1 PUSH1 0x1 ADD SWAP1 PUSH1 0x20 ADD DUP1 DUP4 GT PUSH2 0x12D7 JUMPI DUP3 SWAP1 SUB PUSH1 0x1F AND DUP3 ADD SWAP2 JUMPDEST POP POP POP POP POP DUP2 MSTORE PUSH1 0x20 ADD PUSH1 0x2 DUP3 ADD DUP1 SLOAD PUSH2 0x130D SWAP1 PUSH2 0x3C25 JUMP JUMPDEST DUP1 PUSH1 0x1F ADD PUSH1 0x20 DUP1 SWAP2 DIV MUL PUSH1 0x20 ADD PUSH1 0x40 MLOAD SWAP1 DUP2 ADD PUSH1 0x40 MSTORE DUP1 SWAP3 SWAP2 SWAP1 DUP2 DUP2 MSTORE PUSH1 0x20 ADD DUP3 DUP1 SLOAD PUSH2 0x1339 SWAP1 PUSH2 0x3C25 JUMP JUMPDEST DUP1 ISZERO PUSH2 0x1386 JUMPI DUP1 PUSH1 0x1F LT PUSH2 0x135B JUMPI PUSH2 0x100 DUP1 DUP4 SLOAD DIV MUL DUP4 MSTORE SWAP2 PUSH1 0x20 ADD SWAP2 PUSH2 0x1386 JUMP JUMPDEST DUP3 ADD SWAP2 SWAP1 PUSH1 0x0 MSTORE PUSH1 0x20 PUSH1 0x0 KECCAK256 SWAP1 JUMPDEST DUP2 SLOAD DUP2 MSTORE SWAP1 PUSH1 0x1 ADD SWAP1 PUSH1 0x20 ADD DUP1 DUP4 GT PUSH2 0x1369 JUMPI DUP3 SWAP1 SUB PUSH1 0x1F AND DUP3 ADD SWAP2 JUMPDEST POP POP POP POP POP DUP2 MSTORE PUSH1 0x20 ADD PUSH1 0x3 DUP3 ADD SLOAD DUP2 MSTORE PUSH1 0x20 ADD PUSH1 0x4 DUP3 ADD SLOAD DUP2 MSTORE PUSH1 0x20 ADD PUSH1 0x5 DUP3 ADD SLOAD DUP2 MSTORE PUSH1 0x20 ADD PUSH1 0x6 DUP3 ADD SLOAD DUP2 MSTORE PUSH1 0x20 ADD PUSH1 0x7 DUP3 ADD SLOAD DUP2 MSTORE PUSH1 0x20 ADD PUSH1 0x8 DUP3 ADD PUSH1 0x0 SWAP1 SLOAD SWAP1 PUSH2 0x100 EXP SWAP1 DIV PUSH1 0xFF AND ISZERO ISZERO ISZERO ISZERO DUP2 MSTORE PUSH1 0x20 ADD PUSH1 0x8 DUP3 ADD PUSH1 0x1 SWAP1 SLOAD SWAP1 PUSH2 0x100 EXP SWAP1 DIV PUSH1 0xFF AND ISZERO ISZERO ISZERO ISZERO DUP2 MSTORE PUSH1 0x20 ADD PUSH1 0x8 DUP3 ADD PUSH1 0x2 SWAP1 SLOAD SWAP1 PUSH2 0x100 EXP SWAP1 DIV PUSH1 0xFF AND ISZERO ISZERO ISZERO ISZERO DUP2 MSTORE POP POP SWAP1 POP PUSH1 0x0 PUSH2 0x146A PUSH1 0xA DUP4 PUSH1 0xE0 ADD MLOAD DUP5 PUSH1 0xC0 ADD MLOAD DUP6 PUSH1 0x80 ADD MLOAD DUP7 PUSH1 0xA0 ADD MLOAD DUP8 PUSH1 0x60 ADD MLOAD PUSH2 0x143E SWAP2 SWAP1 PUSH2 0x3A7C JUMP JUMPDEST PUSH2 0x1448 SWAP2 SWAP1 PUSH2 0x3A7C JUMP JUMPDEST PUSH2 0x1452 SWAP2 SWAP1 PUSH2 0x3A7C JUMP JUMPDEST PUSH2 0x145C SWAP2 SWAP1 PUSH2 0x3A7C JUMP JUMPDEST PUSH2 0x2BD4 SWAP1 SWAP2 SWAP1 PUSH4 0xFFFFFFFF AND JUMP JUMPDEST SWAP1 POP DUP1 SWAP3 POP POP POP SWAP2 SWAP1 POP JUMP JUMPDEST PUSH1 0x0 PUSH2 0x1481 DUP6 PUSH2 0x2BA7 JUMP JUMPDEST PUSH2 0x14C0 JUMPI PUSH1 0x40 MLOAD PUSH32 0x8C379A000000000000000000000000000000000000000000000000000000000 DUP2 MSTORE PUSH1 0x4 ADD PUSH2 0x14B7 SWAP1 PUSH2 0x3904 JUMP JUMPDEST PUSH1 0x40 MLOAD DUP1 SWAP2 SUB SWAP1 REVERT JUMPDEST DUP6 PUSH1 0x3 PUSH1 0x0 DUP10 PUSH20 0xFFFFFFFFFFFFFFFFFFFFFFFFFFFFFFFFFFFFFFFF AND PUSH20 0xFFFFFFFFFFFFFFFFFFFFFFFFFFFFFFFFFFFFFFFF AND DUP2 MSTORE PUSH1 0x20 ADD SWAP1 DUP2 MSTORE PUSH1 0x20 ADD PUSH1 0x0 KECCAK256 SLOAD LT ISZERO PUSH2 0x1542 JUMPI PUSH1 0x40 MLOAD PUSH32 0x8C379A000000000000000000000000000000000000000000000000000000000 DUP2 MSTORE PUSH1 0x4 ADD PUSH2 0x1539 SWAP1 PUSH2 0x3984 JUMP JUMPDEST PUSH1 0x40 MLOAD DUP1 SWAP2 SUB SWAP1 REVERT JUMPDEST PUSH1 0x0 PUSH1 0x4 PUSH1 0x0 DUP8 DUP2 MSTORE PUSH1 0x20 ADD SWAP1 DUP2 MSTORE PUSH1 0x20 ADD PUSH1 0x0 KECCAK256 PUSH1 0x40 MLOAD DUP1 PUSH2 0x160 ADD PUSH1 0x40 MSTORE SWAP1 DUP2 PUSH1 0x0 DUP3 ADD DUP1 SLOAD PUSH2 0x1573 SWAP1 PUSH2 0x3C25 JUMP JUMPDEST DUP1 PUSH1 0x1F ADD PUSH1 0x20 DUP1 SWAP2 DIV MUL PUSH1 0x20 ADD PUSH1 0x40 MLOAD SWAP1 DUP2 ADD PUSH1 0x40 MSTORE DUP1 SWAP3 SWAP2 SWAP1 DUP2 DUP2 MSTORE PUSH1 0x20 ADD DUP3 DUP1 SLOAD PUSH2 0x159F SWAP1 PUSH2 0x3C25 JUMP JUMPDEST DUP1 ISZERO PUSH2 0x15EC JUMPI DUP1 PUSH1 0x1F LT PUSH2 0x15C1 JUMPI PUSH2 0x100 DUP1 DUP4 SLOAD DIV MUL DUP4 MSTORE SWAP2 PUSH1 0x20 ADD SWAP2 PUSH2 0x15EC JUMP JUMPDEST DUP3 ADD SWAP2 SWAP1 PUSH1 0x0 MSTORE PUSH1 0x20 PUSH1 0x0 KECCAK256 SWAP1 JUMPDEST DUP2 SLOAD DUP2 MSTORE SWAP1 PUSH1 0x1 ADD SWAP1 PUSH1 0x20 ADD DUP1 DUP4 GT PUSH2 0x15CF JUMPI DUP3 SWAP1 SUB PUSH1 0x1F AND DUP3 ADD SWAP2 JUMPDEST POP POP POP POP POP DUP2 MSTORE PUSH1 0x20 ADD PUSH1 0x1 DUP3 ADD DUP1 SLOAD PUSH2 0x1605 SWAP1 PUSH2 0x3C25 JUMP JUMPDEST DUP1 PUSH1 0x1F ADD PUSH1 0x20 DUP1 SWAP2 DIV MUL PUSH1 0x20 ADD PUSH1 0x40 MLOAD SWAP1 DUP2 ADD PUSH1 0x40 MSTORE DUP1 SWAP3 SWAP2 SWAP1 DUP2 DUP2 MSTORE PUSH1 0x20 ADD DUP3 DUP1 SLOAD PUSH2 0x1631 SWAP1 PUSH2 0x3C25 JUMP JUMPDEST DUP1 ISZERO PUSH2 0x167E JUMPI DUP1 PUSH1 0x1F LT PUSH2 0x1653 JUMPI PUSH2 0x100 DUP1 DUP4 SLOAD DIV MUL DUP4 MSTORE SWAP2 PUSH1 0x20 ADD SWAP2 PUSH2 0x167E JUMP JUMPDEST DUP3 ADD SWAP2 SWAP1 PUSH1 0x0 MSTORE PUSH1 0x20 PUSH1 0x0 KECCAK256 SWAP1 JUMPDEST DUP2 SLOAD DUP2 MSTORE SWAP1 PUSH1 0x1 ADD SWAP1 PUSH1 0x20 ADD DUP1 DUP4 GT PUSH2 0x1661 JUMPI DUP3 SWAP1 SUB PUSH1 0x1F AND DUP3 ADD SWAP2 JUMPDEST POP POP POP POP POP DUP2 MSTORE PUSH1 0x20 ADD PUSH1 0x2 DUP3 ADD DUP1 SLOAD PUSH2 0x1697 SWAP1 PUSH2 0x3C25 JUMP JUMPDEST DUP1 PUSH1 0x1F ADD PUSH1 0x20 DUP1 SWAP2 DIV MUL PUSH1 0x20 ADD PUSH1 0x40 MLOAD SWAP1 DUP2 ADD PUSH1 0x40 MSTORE DUP1 SWAP3 SWAP2 SWAP1 DUP2 DUP2 MSTORE PUSH1 0x20 ADD DUP3 DUP1 SLOAD PUSH2 0x16C3 SWAP1 PUSH2 0x3C25 JUMP JUMPDEST DUP1 ISZERO PUSH2 0x1710 JUMPI DUP1 PUSH1 0x1F LT PUSH2 0x16E5 JUMPI PUSH2 0x100 DUP1 DUP4 SLOAD DIV MUL DUP4 MSTORE SWAP2 PUSH1 0x20 ADD SWAP2 PUSH2 0x1710 JUMP JUMPDEST DUP3 ADD SWAP2 SWAP1 PUSH1 0x0 MSTORE PUSH1 0x20 PUSH1 0x0 KECCAK256 SWAP1 JUMPDEST DUP2 SLOAD DUP2 MSTORE SWAP1 PUSH1 0x1 ADD SWAP1 PUSH1 0x20 ADD DUP1 DUP4 GT PUSH2 0x16F3 JUMPI DUP3 SWAP1 SUB PUSH1 0x1F AND DUP3 ADD SWAP2 JUMPDEST POP POP POP POP POP DUP2 MSTORE PUSH1 0x20 ADD PUSH1 0x3 DUP3 ADD SLOAD DUP2 MSTORE PUSH1 0x20 ADD PUSH1 0x4 DUP3 ADD SLOAD DUP2 MSTORE PUSH1 0x20 ADD PUSH1 0x5 DUP3 ADD SLOAD DUP2 MSTORE PUSH1 0x20 ADD PUSH1 0x6 DUP3 ADD SLOAD DUP2 MSTORE PUSH1 0x20 ADD PUSH1 0x7 DUP3 ADD SLOAD DUP2 MSTORE PUSH1 0x20 ADD PUSH1 0x8 DUP3 ADD PUSH1 0x0 SWAP1 SLOAD SWAP1 PUSH2 0x100 EXP SWAP1 DIV PUSH1 0xFF AND ISZERO ISZERO ISZERO ISZERO DUP2 MSTORE PUSH1 0x20 ADD PUSH1 0x8 DUP3 ADD PUSH1 0x1 SWAP1 SLOAD SWAP1 PUSH2 0x100 EXP SWAP1 DIV PUSH1 0xFF AND ISZERO ISZERO ISZERO ISZERO DUP2 MSTORE PUSH1 0x20 ADD PUSH1 0x8 DUP3 ADD PUSH1 0x2 SWAP1 SLOAD SWAP1 PUSH2 0x100 EXP SWAP1 DIV PUSH1 0xFF AND ISZERO ISZERO ISZERO ISZERO DUP2 MSTORE POP POP SWAP1 POP PUSH1 0x0 PUSH2 0x17BA PUSH2 0x17AC DUP8 PUSH2 0x2D92 JUMP JUMPDEST PUSH2 0x17B5 DUP8 PUSH2 0x2D92 JUMP JUMPDEST PUSH2 0x2BFC JUMP JUMPDEST SWAP1 POP PUSH1 0x0 PUSH2 0x17D0 PUSH2 0x17CA DUP10 PUSH2 0x2DC3 JUMP JUMPDEST DUP4 PUSH2 0x2BFC JUMP JUMPDEST SWAP1 POP PUSH1 0x0 PUSH1 0x40 MLOAD DUP1 PUSH1 0xE0 ADD PUSH1 0x40 MSTORE DUP1 DUP12 DUP2 MSTORE PUSH1 0x20 ADD DUP8 DUP2 MSTORE PUSH1 0x20 ADD DUP10 DUP2 MSTORE PUSH1 0x20 ADD DUP9 DUP2 MSTORE PUSH1 0x20 ADD DUP13 PUSH20 0xFFFFFFFFFFFFFFFFFFFFFFFFFFFFFFFFFFFFFFFF AND DUP2 MSTORE PUSH1 0x20 ADD DUP4 DUP2 MSTORE PUSH1 0x20 ADD PUSH1 0x0 ISZERO ISZERO DUP2 MSTORE POP SWAP1 POP DUP9 PUSH1 0x5 PUSH1 0x0 DUP12 DUP2 MSTORE PUSH1 0x20 ADD SWAP1 DUP2 MSTORE PUSH1 0x20 ADD PUSH1 0x0 KECCAK256 PUSH1 0x1 ADD DUP2 SWAP1 SSTORE POP PUSH1 0x5 PUSH1 0x0 DUP11 DUP2 MSTORE PUSH1 0x20 ADD SWAP1 DUP2 MSTORE PUSH1 0x20 ADD PUSH1 0x0 KECCAK256 PUSH1 0x0 ADD DUP2 SWAP1 DUP1 PUSH1 0x1 DUP2 SLOAD ADD DUP1 DUP3 SSTORE DUP1 SWAP2 POP POP PUSH1 0x1 SWAP1 SUB SWAP1 PUSH1 0x0 MSTORE PUSH1 0x20 PUSH1 0x0 KECCAK256 SWAP1 PUSH1 0x7 MUL ADD PUSH1 0x0 SWAP1 SWAP2 SWAP1 SWAP2 SWAP1 SWAP2 POP PUSH1 0x0 DUP3 ADD MLOAD DUP2 PUSH1 0x0 ADD SSTORE PUSH1 0x20 DUP3 ADD MLOAD DUP2 PUSH1 0x1 ADD SSTORE PUSH1 0x40 DUP3 ADD MLOAD DUP2 PUSH1 0x2 ADD SSTORE PUSH1 0x60 DUP3 ADD MLOAD DUP2 PUSH1 0x3 ADD SSTORE PUSH1 0x80 DUP3 ADD MLOAD DUP2 PUSH1 0x4 ADD PUSH1 0x0 PUSH2 0x100 EXP DUP2 SLOAD DUP2 PUSH20 0xFFFFFFFFFFFFFFFFFFFFFFFFFFFFFFFFFFFFFFFF MUL NOT AND SWAP1 DUP4 PUSH20 0xFFFFFFFFFFFFFFFFFFFFFFFFFFFFFFFFFFFFFFFF AND MUL OR SWAP1 SSTORE POP PUSH1 0xA0 DUP3 ADD MLOAD DUP2 PUSH1 0x5 ADD SWAP1 DUP1 MLOAD SWAP1 PUSH1 0x20 ADD SWAP1 PUSH2 0x1908 SWAP3 SWAP2 SWAP1 PUSH2 0x30EE JUMP JUMPDEST POP PUSH1 0xC0 DUP3 ADD MLOAD DUP2 PUSH1 0x6 ADD PUSH1 0x0 PUSH2 0x100 EXP DUP2 SLOAD DUP2 PUSH1 0xFF MUL NOT AND SWAP1 DUP4 ISZERO ISZERO MUL OR SWAP1 SSTORE POP POP POP DUP11 PUSH1 0x7 PUSH1 0x0 DUP14 PUSH20 0xFFFFFFFFFFFFFFFFFFFFFFFFFFFFFFFFFFFFFFFF AND PUSH20 0xFFFFFFFFFFFFFFFFFFFFFFFFFFFFFFFFFFFFFFFF AND DUP2 MSTORE PUSH1 0x20 ADD SWAP1 DUP2 MSTORE PUSH1 0x20 ADD PUSH1 0x0 KECCAK256 PUSH1 0x1 ADD PUSH1 0x0 PUSH2 0x100 EXP DUP2 SLOAD DUP2 PUSH20 0xFFFFFFFFFFFFFFFFFFFFFFFFFFFFFFFFFFFFFFFF MUL NOT AND SWAP1 DUP4 PUSH20 0xFFFFFFFFFFFFFFFFFFFFFFFFFFFFFFFFFFFFFFFF AND MUL OR SWAP1 SSTORE POP PUSH1 0x5 PUSH1 0x0 DUP11 DUP2 MSTORE PUSH1 0x20 ADD SWAP1 DUP2 MSTORE PUSH1 0x20 ADD PUSH1 0x0 KECCAK256 PUSH1 0x0 ADD DUP2 SWAP1 DUP1 PUSH1 0x1 DUP2 SLOAD ADD DUP1 DUP3 SSTORE DUP1 SWAP2 POP POP PUSH1 0x1 SWAP1 SUB SWAP1 PUSH1 0x0 MSTORE PUSH1 0x20 PUSH1 0x0 KECCAK256 SWAP1 PUSH1 0x7 MUL ADD PUSH1 0x0 SWAP1 SWAP2 SWAP1 SWAP2 SWAP1 SWAP2 POP PUSH1 0x0 DUP3 ADD MLOAD DUP2 PUSH1 0x0 ADD SSTORE PUSH1 0x20 DUP3 ADD MLOAD DUP2 PUSH1 0x1 ADD SSTORE PUSH1 0x40 DUP3 ADD MLOAD DUP2 PUSH1 0x2 ADD SSTORE PUSH1 0x60 DUP3 ADD MLOAD DUP2 PUSH1 0x3 ADD SSTORE PUSH1 0x80 DUP3 ADD MLOAD DUP2 PUSH1 0x4 ADD PUSH1 0x0 PUSH2 0x100 EXP DUP2 SLOAD DUP2 PUSH20 0xFFFFFFFFFFFFFFFFFFFFFFFFFFFFFFFFFFFFFFFF MUL NOT AND SWAP1 DUP4 PUSH20 0xFFFFFFFFFFFFFFFFFFFFFFFFFFFFFFFFFFFFFFFF AND MUL OR SWAP1 SSTORE POP PUSH1 0xA0 DUP3 ADD MLOAD DUP2 PUSH1 0x5 ADD SWAP1 DUP1 MLOAD SWAP1 PUSH1 0x20 ADD SWAP1 PUSH2 0x1A77 SWAP3 SWAP2 SWAP1 PUSH2 0x30EE JUMP JUMPDEST POP PUSH1 0xC0 DUP3 ADD MLOAD DUP2 PUSH1 0x6 ADD PUSH1 0x0 PUSH2 0x100 EXP DUP2 SLOAD DUP2 PUSH1 0xFF MUL NOT AND SWAP1 DUP4 ISZERO ISZERO MUL OR SWAP1 SSTORE POP POP POP PUSH1 0x2 DUP7 EQ ISZERO PUSH2 0x1AF6 JUMPI DUP10 DUP5 PUSH1 0xC0 ADD DUP2 DUP2 MLOAD PUSH2 0x1AB5 SWAP2 SWAP1 PUSH2 0x3A7C JUMP JUMPDEST SWAP2 POP DUP2 DUP2 MSTORE POP POP DUP10 PUSH1 0x6 DUP4 PUSH1 0x40 MLOAD PUSH2 0x1ACD SWAP2 SWAP1 PUSH2 0x37EE JUMP JUMPDEST SWAP1 DUP2 MSTORE PUSH1 0x20 ADD PUSH1 0x40 MLOAD DUP1 SWAP2 SUB SWAP1 KECCAK256 PUSH1 0x0 DUP3 DUP3 SLOAD PUSH2 0x1AEA SWAP2 SWAP1 PUSH2 0x3A7C JUMP JUMPDEST SWAP3 POP POP DUP2 SWAP1 SSTORE POP PUSH2 0x1B60 JUMP JUMPDEST PUSH1 0x3 DUP7 EQ ISZERO PUSH2 0x1B1D JUMPI DUP10 DUP5 PUSH1 0x60 ADD DUP2 DUP2 MLOAD PUSH2 0x1B11 SWAP2 SWAP1 PUSH2 0x3A7C JUMP JUMPDEST SWAP2 POP DUP2 DUP2 MSTORE POP POP PUSH2 0x1B5F JUMP JUMPDEST PUSH1 0x1 DUP7 EQ ISZERO PUSH2 0x1B44 JUMPI DUP10 DUP5 PUSH1 0x80 ADD DUP2 DUP2 MLOAD PUSH2 0x1B38 SWAP2 SWAP1 PUSH2 0x3A7C JUMP JUMPDEST SWAP2 POP DUP2 DUP2 MSTORE POP POP PUSH2 0x1B5E JUMP JUMPDEST DUP10 DUP5 PUSH1 0xA0 ADD DUP2 DUP2 MLOAD PUSH2 0x1B56 SWAP2 SWAP1 PUSH2 0x3A7C JUMP JUMPDEST SWAP2 POP DUP2 DUP2 MSTORE POP POP JUMPDEST JUMPDEST JUMPDEST DUP10 PUSH1 0x3 PUSH1 0x0 DUP14 PUSH20 0xFFFFFFFFFFFFFFFFFFFFFFFFFFFFFFFFFFFFFFFF AND PUSH20 0xFFFFFFFFFFFFFFFFFFFFFFFFFFFFFFFFFFFFFFFF AND DUP2 MSTORE PUSH1 0x20 ADD SWAP1 DUP2 MSTORE PUSH1 0x20 ADD PUSH1 0x0 KECCAK256 PUSH1 0x0 DUP3 DUP3 SLOAD PUSH2 0x1BAF SWAP2 SWAP1 PUSH2 0x3B5D JUMP JUMPDEST SWAP3 POP POP DUP2 SWAP1 SSTORE POP POP POP POP POP PUSH1 0x1 SWAP1 POP SWAP7 SWAP6 POP POP POP POP POP POP JUMP JUMPDEST PUSH1 0x0 DUP1 PUSH1 0x0 SWAP1 SLOAD SWAP1 PUSH2 0x100 EXP SWAP1 DIV PUSH20 0xFFFFFFFFFFFFFFFFFFFFFFFFFFFFFFFFFFFFFFFF AND PUSH20 0xFFFFFFFFFFFFFFFFFFFFFFFFFFFFFFFFFFFFFFFF AND CALLER PUSH20 0xFFFFFFFFFFFFFFFFFFFFFFFFFFFFFFFFFFFFFFFF AND EQ PUSH2 0x1C59 JUMPI PUSH1 0x40 MLOAD PUSH32 0x8C379A000000000000000000000000000000000000000000000000000000000 DUP2 MSTORE PUSH1 0x4 ADD PUSH2 0x1C50 SWAP1 PUSH2 0x38C4 JUMP JUMPDEST PUSH1 0x40 MLOAD DUP1 SWAP2 SUB SWAP1 REVERT JUMPDEST PUSH2 0x1C62 DUP6 PUSH2 0x2BA7 JUMP JUMPDEST PUSH2 0x1CA1 JUMPI PUSH1 0x40 MLOAD PUSH32 0x8C379A000000000000000000000000000000000000000000000000000000000 DUP2 MSTORE PUSH1 0x4 ADD PUSH2 0x1C98 SWAP1 PUSH2 0x3904 JUMP JUMPDEST PUSH1 0x40 MLOAD DUP1 SWAP2 SUB SWAP1 REVERT JUMPDEST PUSH1 0x0 PUSH1 0x4 PUSH1 0x0 DUP8 DUP2 MSTORE PUSH1 0x20 ADD SWAP1 DUP2 MSTORE PUSH1 0x20 ADD PUSH1 0x0 KECCAK256 PUSH1 0x40 MLOAD DUP1 PUSH2 0x160 ADD PUSH1 0x40 MSTORE SWAP1 DUP2 PUSH1 0x0 DUP3 ADD DUP1 SLOAD PUSH2 0x1CD2 SWAP1 PUSH2 0x3C25 JUMP JUMPDEST DUP1 PUSH1 0x1F ADD PUSH1 0x20 DUP1 SWAP2 DIV MUL PUSH1 0x20 ADD PUSH1 0x40 MLOAD SWAP1 DUP2 ADD PUSH1 0x40 MSTORE DUP1 SWAP3 SWAP2 SWAP1 DUP2 DUP2 MSTORE PUSH1 0x20 ADD DUP3 DUP1 SLOAD PUSH2 0x1CFE SWAP1 PUSH2 0x3C25 JUMP JUMPDEST DUP1 ISZERO PUSH2 0x1D4B JUMPI DUP1 PUSH1 0x1F LT PUSH2 0x1D20 JUMPI PUSH2 0x100 DUP1 DUP4 SLOAD DIV MUL DUP4 MSTORE SWAP2 PUSH1 0x20 ADD SWAP2 PUSH2 0x1D4B JUMP JUMPDEST DUP3 ADD SWAP2 SWAP1 PUSH1 0x0 MSTORE PUSH1 0x20 PUSH1 0x0 KECCAK256 SWAP1 JUMPDEST DUP2 SLOAD DUP2 MSTORE SWAP1 PUSH1 0x1 ADD SWAP1 PUSH1 0x20 ADD DUP1 DUP4 GT PUSH2 0x1D2E JUMPI DUP3 SWAP1 SUB PUSH1 0x1F AND DUP3 ADD SWAP2 JUMPDEST POP POP POP POP POP DUP2 MSTORE PUSH1 0x20 ADD PUSH1 0x1 DUP3 ADD DUP1 SLOAD PUSH2 0x1D64 SWAP1 PUSH2 0x3C25 JUMP JUMPDEST DUP1 PUSH1 0x1F ADD PUSH1 0x20 DUP1 SWAP2 DIV MUL PUSH1 0x20 ADD PUSH1 0x40 MLOAD SWAP1 DUP2 ADD PUSH1 0x40 MSTORE DUP1 SWAP3 SWAP2 SWAP1 DUP2 DUP2 MSTORE PUSH1 0x20 ADD DUP3 DUP1 SLOAD PUSH2 0x1D90 SWAP1 PUSH2 0x3C25 JUMP JUMPDEST DUP1 ISZERO PUSH2 0x1DDD JUMPI DUP1 PUSH1 0x1F LT PUSH2 0x1DB2 JUMPI PUSH2 0x100 DUP1 DUP4 SLOAD DIV MUL DUP4 MSTORE SWAP2 PUSH1 0x20 ADD SWAP2 PUSH2 0x1DDD JUMP JUMPDEST DUP3 ADD SWAP2 SWAP1 PUSH1 0x0 MSTORE PUSH1 0x20 PUSH1 0x0 KECCAK256 SWAP1 JUMPDEST DUP2 SLOAD DUP2 MSTORE SWAP1 PUSH1 0x1 ADD SWAP1 PUSH1 0x20 ADD DUP1 DUP4 GT PUSH2 0x1DC0 JUMPI DUP3 SWAP1 SUB PUSH1 0x1F AND DUP3 ADD SWAP2 JUMPDEST POP POP POP POP POP DUP2 MSTORE PUSH1 0x20 ADD PUSH1 0x2 DUP3 ADD DUP1 SLOAD PUSH2 0x1DF6 SWAP1 PUSH2 0x3C25 JUMP JUMPDEST DUP1 PUSH1 0x1F ADD PUSH1 0x20 DUP1 SWAP2 DIV MUL PUSH1 0x20 ADD PUSH1 0x40 MLOAD SWAP1 DUP2 ADD PUSH1 0x40 MSTORE DUP1 SWAP3 SWAP2 SWAP1 DUP2 DUP2 MSTORE PUSH1 0x20 ADD DUP3 DUP1 SLOAD PUSH2 0x1E22 SWAP1 PUSH2 0x3C25 JUMP JUMPDEST DUP1 ISZERO PUSH2 0x1E6F JUMPI DUP1 PUSH1 0x1F LT PUSH2 0x1E44 JUMPI PUSH2 0x100 DUP1 DUP4 SLOAD DIV MUL DUP4 MSTORE SWAP2 PUSH1 0x20 ADD SWAP2 PUSH2 0x1E6F JUMP JUMPDEST DUP3 ADD SWAP2 SWAP1 PUSH1 0x0 MSTORE PUSH1 0x20 PUSH1 0x0 KECCAK256 SWAP1 JUMPDEST DUP2 SLOAD DUP2 MSTORE SWAP1 PUSH1 0x1 ADD SWAP1 PUSH1 0x20 ADD DUP1 DUP4 GT PUSH2 0x1E52 JUMPI DUP3 SWAP1 SUB PUSH1 0x1F AND DUP3 ADD SWAP2 JUMPDEST POP POP POP POP POP DUP2 MSTORE PUSH1 0x20 ADD PUSH1 0x3 DUP3 ADD SLOAD DUP2 MSTORE PUSH1 0x20 ADD PUSH1 0x4 DUP3 ADD SLOAD DUP2 MSTORE PUSH1 0x20 ADD PUSH1 0x5 DUP3 ADD SLOAD DUP2 MSTORE PUSH1 0x20 ADD PUSH1 0x6 DUP3 ADD SLOAD DUP2 MSTORE PUSH1 0x20 ADD PUSH1 0x7 DUP3 ADD SLOAD DUP2 MSTORE PUSH1 0x20 ADD PUSH1 0x8 DUP3 ADD PUSH1 0x0 SWAP1 SLOAD SWAP1 PUSH2 0x100 EXP SWAP1 DIV PUSH1 0xFF AND ISZERO ISZERO ISZERO ISZERO DUP2 MSTORE PUSH1 0x20 ADD PUSH1 0x8 DUP3 ADD PUSH1 0x1 SWAP1 SLOAD SWAP1 PUSH2 0x100 EXP SWAP1 DIV PUSH1 0xFF AND ISZERO ISZERO ISZERO ISZERO DUP2 MSTORE PUSH1 0x20 ADD PUSH1 0x8 DUP3 ADD PUSH1 0x2 SWAP1 SLOAD SWAP1 PUSH2 0x100 EXP SWAP1 DIV PUSH1 0xFF AND ISZERO ISZERO ISZERO ISZERO DUP2 MSTORE POP POP SWAP1 POP PUSH1 0x1 DUP2 PUSH2 0x140 ADD SWAP1 ISZERO ISZERO SWAP1 DUP2 ISZERO ISZERO DUP2 MSTORE POP ISZERO PUSH2 0x1F4E JUMPI PUSH1 0x40 MLOAD PUSH32 0x8C379A000000000000000000000000000000000000000000000000000000000 DUP2 MSTORE PUSH1 0x4 ADD PUSH2 0x1F45 SWAP1 PUSH2 0x39C4 JUMP JUMPDEST PUSH1 0x40 MLOAD DUP1 SWAP2 SUB SWAP1 REVERT JUMPDEST PUSH1 0x0 PUSH1 0x5 PUSH1 0x0 DUP9 DUP2 MSTORE PUSH1 0x20 ADD SWAP1 DUP2 MSTORE PUSH1 0x20 ADD PUSH1 0x0 KECCAK256 PUSH1 0x0 ADD DUP1 SLOAD DUP1 PUSH1 0x20 MUL PUSH1 0x20 ADD PUSH1 0x40 MLOAD SWAP1 DUP2 ADD PUSH1 0x40 MSTORE DUP1 SWAP3 SWAP2 SWAP1 DUP2 DUP2 MSTORE PUSH1 0x20 ADD PUSH1 0x0 SWAP1 JUMPDEST DUP3 DUP3 LT ISZERO PUSH2 0x20E3 JUMPI DUP4 DUP3 SWAP1 PUSH1 0x0 MSTORE PUSH1 0x20 PUSH1 0x0 KECCAK256 SWAP1 PUSH1 0x7 MUL ADD PUSH1 0x40 MLOAD DUP1 PUSH1 0xE0 ADD PUSH1 0x40 MSTORE SWAP1 DUP2 PUSH1 0x0 DUP3 ADD SLOAD DUP2 MSTORE PUSH1 0x20 ADD PUSH1 0x1 DUP3 ADD SLOAD DUP2 MSTORE PUSH1 0x20 ADD PUSH1 0x2 DUP3 ADD SLOAD DUP2 MSTORE PUSH1 0x20 ADD PUSH1 0x3 DUP3 ADD SLOAD DUP2 MSTORE PUSH1 0x20 ADD PUSH1 0x4 DUP3 ADD PUSH1 0x0 SWAP1 SLOAD SWAP1 PUSH2 0x100 EXP SWAP1 DIV PUSH20 0xFFFFFFFFFFFFFFFFFFFFFFFFFFFFFFFFFFFFFFFF AND PUSH20 0xFFFFFFFFFFFFFFFFFFFFFFFFFFFFFFFFFFFFFFFF AND PUSH20 0xFFFFFFFFFFFFFFFFFFFFFFFFFFFFFFFFFFFFFFFF AND DUP2 MSTORE PUSH1 0x20 ADD PUSH1 0x5 DUP3 ADD DUP1 SLOAD PUSH2 0x2037 SWAP1 PUSH2 0x3C25 JUMP JUMPDEST DUP1 PUSH1 0x1F ADD PUSH1 0x20 DUP1 SWAP2 DIV MUL PUSH1 0x20 ADD PUSH1 0x40 MLOAD SWAP1 DUP2 ADD PUSH1 0x40 MSTORE DUP1 SWAP3 SWAP2 SWAP1 DUP2 DUP2 MSTORE PUSH1 0x20 ADD DUP3 DUP1 SLOAD PUSH2 0x2063 SWAP1 PUSH2 0x3C25 JUMP JUMPDEST DUP1 ISZERO PUSH2 0x20B0 JUMPI DUP1 PUSH1 0x1F LT PUSH2 0x2085 JUMPI PUSH2 0x100 DUP1 DUP4 SLOAD DIV MUL DUP4 MSTORE SWAP2 PUSH1 0x20 ADD SWAP2 PUSH2 0x20B0 JUMP JUMPDEST DUP3 ADD SWAP2 SWAP1 PUSH1 0x0 MSTORE PUSH1 0x20 PUSH1 0x0 KECCAK256 SWAP1 JUMPDEST DUP2 SLOAD DUP2 MSTORE SWAP1 PUSH1 0x1 ADD SWAP1 PUSH1 0x20 ADD DUP1 DUP4 GT PUSH2 0x2093 JUMPI DUP3 SWAP1 SUB PUSH1 0x1F AND DUP3 ADD SWAP2 JUMPDEST POP POP POP POP POP DUP2 MSTORE PUSH1 0x20 ADD PUSH1 0x6 DUP3 ADD PUSH1 0x0 SWAP1 SLOAD SWAP1 PUSH2 0x100 EXP SWAP1 DIV PUSH1 0xFF AND ISZERO ISZERO ISZERO ISZERO DUP2 MSTORE POP POP DUP2 MSTORE PUSH1 0x20 ADD SWAP1 PUSH1 0x1 ADD SWAP1 PUSH2 0x1F86 JUMP JUMPDEST POP POP POP POP SWAP1 POP PUSH1 0x0 PUSH2 0x2152 PUSH1 0x14 PUSH2 0x2108 PUSH1 0x2 DUP7 PUSH1 0xE0 ADD MLOAD PUSH2 0x2BD4 SWAP1 SWAP2 SWAP1 PUSH4 0xFFFFFFFF AND JUMP JUMPDEST DUP6 PUSH1 0x80 ADD MLOAD DUP7 PUSH1 0xA0 ADD MLOAD DUP8 PUSH1 0x60 ADD MLOAD DUP9 PUSH1 0xC0 ADD MLOAD PUSH2 0x2126 SWAP2 SWAP1 PUSH2 0x3A7C JUMP JUMPDEST PUSH2 0x2130 SWAP2 SWAP1 PUSH2 0x3A7C JUMP JUMPDEST PUSH2 0x213A SWAP2 SWAP1 PUSH2 0x3A7C JUMP JUMPDEST PUSH2 0x2144 SWAP2 SWAP1 PUSH2 0x3A7C JUMP JUMPDEST PUSH2 0x2BD4 SWAP1 SWAP2 SWAP1 PUSH4 0xFFFFFFFF AND JUMP JUMPDEST PUSH1 0x1 PUSH1 0x0 DUP3 DUP3 SLOAD PUSH2 0x2163 SWAP2 SWAP1 PUSH2 0x3A7C JUMP JUMPDEST SWAP3 POP POP DUP2 SWAP1 SSTORE POP PUSH1 0x0 JUMPDEST PUSH1 0x1 DUP4 MLOAD PUSH2 0x217B SWAP2 SWAP1 PUSH2 0x3B5D JUMP JUMPDEST DUP2 GT PUSH2 0x2619 JUMPI PUSH1 0x0 DUP4 DUP3 DUP2 MLOAD DUP2 LT PUSH2 0x2196 JUMPI PUSH2 0x2195 PUSH2 0x3D72 JUMP JUMPDEST JUMPDEST PUSH1 0x20 MUL PUSH1 0x20 ADD ADD MLOAD PUSH1 0xC0 ADD SWAP1 ISZERO ISZERO SWAP1 DUP2 ISZERO ISZERO DUP2 MSTORE POP ISZERO PUSH2 0x2606 JUMPI PUSH1 0x2 DUP4 DUP3 DUP2 MLOAD DUP2 LT PUSH2 0x21C5 JUMPI PUSH2 0x21C4 PUSH2 0x3D72 JUMP JUMPDEST JUMPDEST PUSH1 0x20 MUL PUSH1 0x20 ADD ADD MLOAD PUSH1 0x20 ADD MLOAD EQ ISZERO PUSH2 0x2396 JUMPI PUSH2 0x2224 PUSH1 0x64 PUSH2 0x2216 PUSH1 0x55 PUSH2 0x21F9 PUSH1 0x2 DUP10 PUSH1 0xE0 ADD MLOAD PUSH2 0x2BD4 SWAP1 SWAP2 SWAP1 PUSH4 0xFFFFFFFF AND JUMP JUMPDEST DUP9 PUSH1 0xC0 ADD MLOAD PUSH2 0x2208 SWAP2 SWAP1 PUSH2 0x3A7C JUMP JUMPDEST PUSH2 0x409 SWAP1 SWAP2 SWAP1 PUSH4 0xFFFFFFFF AND JUMP JUMPDEST PUSH2 0x2BD4 SWAP1 SWAP2 SWAP1 PUSH4 0xFFFFFFFF AND JUMP JUMPDEST SWAP2 POP DUP8 DUP4 DUP3 DUP2 MLOAD DUP2 LT PUSH2 0x223A JUMPI PUSH2 0x2239 PUSH2 0x3D72 JUMP JUMPDEST JUMPDEST PUSH1 0x20 MUL PUSH1 0x20 ADD ADD MLOAD PUSH1 0x40 ADD MLOAD EQ DUP1 ISZERO PUSH2 0x2270 JUMPI POP DUP7 DUP4 DUP3 DUP2 MLOAD DUP2 LT PUSH2 0x2262 JUMPI PUSH2 0x2261 PUSH2 0x3D72 JUMP JUMPDEST JUMPDEST PUSH1 0x20 MUL PUSH1 0x20 ADD ADD MLOAD PUSH1 0x60 ADD MLOAD EQ JUMPDEST ISZERO PUSH2 0x2391 JUMPI PUSH1 0x0 PUSH1 0x6 DUP5 DUP4 DUP2 MLOAD DUP2 LT PUSH2 0x228C JUMPI PUSH2 0x228B PUSH2 0x3D72 JUMP JUMPDEST JUMPDEST PUSH1 0x20 MUL PUSH1 0x20 ADD ADD MLOAD PUSH1 0xA0 ADD MLOAD PUSH1 0x40 MLOAD PUSH2 0x22A5 SWAP2 SWAP1 PUSH2 0x37EE JUMP JUMPDEST SWAP1 DUP2 MSTORE PUSH1 0x20 ADD PUSH1 0x40 MLOAD DUP1 SWAP2 SUB SWAP1 KECCAK256 SLOAD SWAP1 POP PUSH1 0x0 DUP2 DUP6 DUP5 DUP2 MLOAD DUP2 LT PUSH2 0x22CC JUMPI PUSH2 0x22CB PUSH2 0x3D72 JUMP JUMPDEST JUMPDEST PUSH1 0x20 MUL PUSH1 0x20 ADD ADD MLOAD PUSH1 0x0 ADD MLOAD DUP6 PUSH2 0x22E3 SWAP2 SWAP1 PUSH2 0x3B03 JUMP JUMPDEST PUSH2 0x22ED SWAP2 SWAP1 PUSH2 0x3AD2 JUMP JUMPDEST SWAP1 POP DUP1 PUSH1 0x3 PUSH1 0x0 DUP8 DUP7 DUP2 MLOAD DUP2 LT PUSH2 0x2307 JUMPI PUSH2 0x2306 PUSH2 0x3D72 JUMP JUMPDEST JUMPDEST PUSH1 0x20 MUL PUSH1 0x20 ADD ADD MLOAD PUSH1 0x80 ADD MLOAD PUSH20 0xFFFFFFFFFFFFFFFFFFFFFFFFFFFFFFFFFFFFFFFF AND PUSH20 0xFFFFFFFFFFFFFFFFFFFFFFFFFFFFFFFFFFFFFFFF AND DUP2 MSTORE PUSH1 0x20 ADD SWAP1 DUP2 MSTORE PUSH1 0x20 ADD PUSH1 0x0 KECCAK256 PUSH1 0x0 DUP3 DUP3 SLOAD PUSH2 0x235C SWAP2 SWAP1 PUSH2 0x3A7C JUMP JUMPDEST SWAP3 POP POP DUP2 SWAP1 SSTORE POP PUSH1 0x1 DUP6 DUP5 DUP2 MLOAD DUP2 LT PUSH2 0x2378 JUMPI PUSH2 0x2377 PUSH2 0x3D72 JUMP JUMPDEST JUMPDEST PUSH1 0x20 MUL PUSH1 0x20 ADD ADD MLOAD PUSH1 0xC0 ADD SWAP1 ISZERO ISZERO SWAP1 DUP2 ISZERO ISZERO DUP2 MSTORE POP POP POP POP JUMPDEST PUSH2 0x2605 JUMP JUMPDEST DUP6 DUP4 DUP3 DUP2 MLOAD DUP2 LT PUSH2 0x23AA JUMPI PUSH2 0x23A9 PUSH2 0x3D72 JUMP JUMPDEST JUMPDEST PUSH1 0x20 MUL PUSH1 0x20 ADD ADD MLOAD PUSH1 0x20 ADD MLOAD EQ ISZERO PUSH2 0x2604 JUMPI PUSH2 0x2427 PUSH1 0x64 PUSH2 0x2419 PUSH1 0x55 PUSH2 0x23DE PUSH1 0x2 DUP10 PUSH1 0xE0 ADD MLOAD PUSH2 0x2BD4 SWAP1 SWAP2 SWAP1 PUSH4 0xFFFFFFFF AND JUMP JUMPDEST DUP9 PUSH1 0x80 ADD MLOAD DUP10 PUSH1 0xA0 ADD MLOAD DUP11 PUSH1 0x60 ADD MLOAD PUSH2 0x23F7 SWAP2 SWAP1 PUSH2 0x3A7C JUMP JUMPDEST PUSH2 0x2401 SWAP2 SWAP1 PUSH2 0x3A7C JUMP JUMPDEST PUSH2 0x240B SWAP2 SWAP1 PUSH2 0x3A7C JUMP JUMPDEST PUSH2 0x409 SWAP1 SWAP2 SWAP1 PUSH4 0xFFFFFFFF AND JUMP JUMPDEST PUSH2 0x2BD4 SWAP1 SWAP2 SWAP1 PUSH4 0xFFFFFFFF AND JUMP JUMPDEST SWAP2 POP PUSH1 0x0 DUP1 DUP5 DUP4 DUP2 MLOAD DUP2 LT PUSH2 0x243F JUMPI PUSH2 0x243E PUSH2 0x3D72 JUMP JUMPDEST JUMPDEST PUSH1 0x20 MUL PUSH1 0x20 ADD ADD MLOAD PUSH1 0x20 ADD MLOAD EQ ISZERO PUSH2 0x247F JUMPI PUSH2 0x247C PUSH1 0x64 PUSH2 0x246E PUSH1 0x55 DUP9 PUSH1 0xA0 ADD MLOAD PUSH2 0x409 SWAP1 SWAP2 SWAP1 PUSH4 0xFFFFFFFF AND JUMP JUMPDEST PUSH2 0x2BD4 SWAP1 SWAP2 SWAP1 PUSH4 0xFFFFFFFF AND JUMP JUMPDEST SWAP1 POP JUMPDEST PUSH1 0x1 DUP5 DUP4 DUP2 MLOAD DUP2 LT PUSH2 0x2494 JUMPI PUSH2 0x2493 PUSH2 0x3D72 JUMP JUMPDEST JUMPDEST PUSH1 0x20 MUL PUSH1 0x20 ADD ADD MLOAD PUSH1 0x20 ADD MLOAD EQ ISZERO PUSH2 0x24D4 JUMPI PUSH2 0x24D1 PUSH1 0x64 PUSH2 0x24C3 PUSH1 0x55 DUP9 PUSH1 0x80 ADD MLOAD PUSH2 0x409 SWAP1 SWAP2 SWAP1 PUSH4 0xFFFFFFFF AND JUMP JUMPDEST PUSH2 0x2BD4 SWAP1 SWAP2 SWAP1 PUSH4 0xFFFFFFFF AND JUMP JUMPDEST SWAP1 POP JUMPDEST PUSH1 0x3 DUP5 DUP4 DUP2 MLOAD DUP2 LT PUSH2 0x24E9 JUMPI PUSH2 0x24E8 PUSH2 0x3D72 JUMP JUMPDEST JUMPDEST PUSH1 0x20 MUL PUSH1 0x20 ADD ADD MLOAD PUSH1 0x20 ADD MLOAD EQ ISZERO PUSH2 0x2529 JUMPI PUSH2 0x2526 PUSH1 0x64 PUSH2 0x2518 PUSH1 0x55 DUP9 PUSH1 0x60 ADD MLOAD PUSH2 0x409 SWAP1 SWAP2 SWAP1 PUSH4 0xFFFFFFFF AND JUMP JUMPDEST PUSH2 0x2BD4 SWAP1 SWAP2 SWAP1 PUSH4 0xFFFFFFFF AND JUMP JUMPDEST SWAP1 POP JUMPDEST PUSH1 0x0 DUP2 DUP6 DUP5 DUP2 MLOAD DUP2 LT PUSH2 0x253F JUMPI PUSH2 0x253E PUSH2 0x3D72 JUMP JUMPDEST JUMPDEST PUSH1 0x20 MUL PUSH1 0x20 ADD ADD MLOAD PUSH1 0x0 ADD MLOAD DUP6 PUSH2 0x2556 SWAP2 SWAP1 PUSH2 0x3B03 JUMP JUMPDEST PUSH2 0x2560 SWAP2 SWAP1 PUSH2 0x3AD2 JUMP JUMPDEST SWAP1 POP DUP1 PUSH1 0x3 PUSH1 0x0 DUP8 DUP7 DUP2 MLOAD DUP2 LT PUSH2 0x257A JUMPI PUSH2 0x2579 PUSH2 0x3D72 JUMP JUMPDEST JUMPDEST PUSH1 0x20 MUL PUSH1 0x20 ADD ADD MLOAD PUSH1 0x80 ADD MLOAD PUSH20 0xFFFFFFFFFFFFFFFFFFFFFFFFFFFFFFFFFFFFFFFF AND PUSH20 0xFFFFFFFFFFFFFFFFFFFFFFFFFFFFFFFFFFFFFFFF AND DUP2 MSTORE PUSH1 0x20 ADD SWAP1 DUP2 MSTORE PUSH1 0x20 ADD PUSH1 0x0 KECCAK256 PUSH1 0x0 DUP3 DUP3 SLOAD PUSH2 0x25CF SWAP2 SWAP1 PUSH2 0x3A7C JUMP JUMPDEST SWAP3 POP POP DUP2 SWAP1 SSTORE POP PUSH1 0x1 DUP6 DUP5 DUP2 MLOAD DUP2 LT PUSH2 0x25EB JUMPI PUSH2 0x25EA PUSH2 0x3D72 JUMP JUMPDEST JUMPDEST PUSH1 0x20 MUL PUSH1 0x20 ADD ADD MLOAD PUSH1 0xC0 ADD SWAP1 ISZERO ISZERO SWAP1 DUP2 ISZERO ISZERO DUP2 MSTORE POP POP POP POP JUMPDEST JUMPDEST JUMPDEST DUP1 DUP1 PUSH2 0x2611 SWAP1 PUSH2 0x3C88 JUMP JUMPDEST SWAP2 POP POP PUSH2 0x216D JUMP JUMPDEST POP PUSH1 0x1 DUP4 PUSH2 0x140 ADD SWAP1 ISZERO ISZERO SWAP1 DUP2 ISZERO ISZERO DUP2 MSTORE POP POP POP POP POP PUSH1 0x1 SWAP1 POP SWAP5 SWAP4 POP POP POP POP JUMP JUMPDEST PUSH1 0x0 DUP1 PUSH1 0x0 SWAP1 SLOAD SWAP1 PUSH2 0x100 EXP SWAP1 DIV PUSH20 0xFFFFFFFFFFFFFFFFFFFFFFFFFFFFFFFFFFFFFFFF AND PUSH20 0xFFFFFFFFFFFFFFFFFFFFFFFFFFFFFFFFFFFFFFFF AND CALLER PUSH20 0xFFFFFFFFFFFFFFFFFFFFFFFFFFFFFFFFFFFFFFFF AND EQ PUSH2 0x26CC JUMPI PUSH1 0x40 MLOAD PUSH32 0x8C379A000000000000000000000000000000000000000000000000000000000 DUP2 MSTORE PUSH1 0x4 ADD PUSH2 0x26C3 SWAP1 PUSH2 0x38C4 JUMP JUMPDEST PUSH1 0x40 MLOAD DUP1 SWAP2 SUB SWAP1 REVERT JUMPDEST DUP2 PUSH1 0x3 PUSH1 0x0 DUP6 PUSH20 0xFFFFFFFFFFFFFFFFFFFFFFFFFFFFFFFFFFFFFFFF AND PUSH20 0xFFFFFFFFFFFFFFFFFFFFFFFFFFFFFFFFFFFFFFFF AND DUP2 MSTORE PUSH1 0x20 ADD SWAP1 DUP2 MSTORE PUSH1 0x20 ADD PUSH1 0x0 KECCAK256 SLOAD LT ISZERO DUP1 ISZERO PUSH2 0x275B JUMPI POP PUSH1 0x0 PUSH1 0x3 PUSH1 0x0 DUP6 PUSH20 0xFFFFFFFFFFFFFFFFFFFFFFFFFFFFFFFFFFFFFFFF AND PUSH20 0xFFFFFFFFFFFFFFFFFFFFFFFFFFFFFFFFFFFFFFFF AND DUP2 MSTORE PUSH1 0x20 ADD SWAP1 DUP2 MSTORE PUSH1 0x20 ADD PUSH1 0x0 KECCAK256 SLOAD LT ISZERO JUMPDEST ISZERO PUSH2 0x27F1 JUMPI PUSH1 0x0 DUP4 SWAP1 POP DUP1 PUSH20 0xFFFFFFFFFFFFFFFFFFFFFFFFFFFFFFFFFFFFFFFF AND PUSH2 0x8FC PUSH1 0x3 PUSH1 0x0 DUP8 PUSH20 0xFFFFFFFFFFFFFFFFFFFFFFFFFFFFFFFFFFFFFFFF AND PUSH20 0xFFFFFFFFFFFFFFFFFFFFFFFFFFFFFFFFFFFFFFFF AND DUP2 MSTORE PUSH1 0x20 ADD SWAP1 DUP2 MSTORE PUSH1 0x20 ADD PUSH1 0x0 KECCAK256 SLOAD SWAP1 DUP2 ISZERO MUL SWAP1 PUSH1 0x40 MLOAD PUSH1 0x0 PUSH1 0x40 MLOAD DUP1 DUP4 SUB DUP2 DUP6 DUP9 DUP9 CALL SWAP4 POP POP POP POP ISZERO DUP1 ISZERO PUSH2 0x27EA JUMPI RETURNDATASIZE PUSH1 0x0 DUP1 RETURNDATACOPY RETURNDATASIZE PUSH1 0x0 REVERT JUMPDEST POP POP PUSH2 0x282C JUMP JUMPDEST PUSH1 0x40 MLOAD PUSH32 0x8C379A000000000000000000000000000000000000000000000000000000000 DUP2 MSTORE PUSH1 0x4 ADD PUSH2 0x2823 SWAP1 PUSH2 0x3984 JUMP JUMPDEST PUSH1 0x40 MLOAD DUP1 SWAP2 SUB SWAP1 REVERT JUMPDEST PUSH1 0x1 SWAP1 POP SWAP3 SWAP2 POP POP JUMP JUMPDEST PUSH1 0x0 PUSH1 0x3 PUSH1 0x0 CALLER PUSH20 0xFFFFFFFFFFFFFFFFFFFFFFFFFFFFFFFFFFFFFFFF AND PUSH20 0xFFFFFFFFFFFFFFFFFFFFFFFFFFFFFFFFFFFFFFFF AND DUP2 MSTORE PUSH1 0x20 ADD SWAP1 DUP2 MSTORE PUSH1 0x20 ADD PUSH1 0x0 KECCAK256 SLOAD SWAP1 POP SWAP1 JUMP JUMPDEST PUSH1 0x60 DUP1 PUSH2 0x2888 PUSH2 0x3174 JUMP JUMPDEST PUSH2 0x2891 DUP5 PUSH2 0x2BA7 JUMP JUMPDEST PUSH2 0x28D0 JUMPI PUSH1 0x40 MLOAD PUSH32 0x8C379A000000000000000000000000000000000000000000000000000000000 DUP2 MSTORE PUSH1 0x4 ADD PUSH2 0x28C7 SWAP1 PUSH2 0x38E4 JUMP JUMPDEST PUSH1 0x40 MLOAD DUP1 SWAP2 SUB SWAP1 REVERT JUMPDEST PUSH1 0x0 PUSH2 0x29AF PUSH1 0x4 PUSH1 0x0 DUP8 DUP2 MSTORE PUSH1 0x20 ADD SWAP1 DUP2 MSTORE PUSH1 0x20 ADD PUSH1 0x0 KECCAK256 PUSH1 0x0 ADD DUP1 SLOAD PUSH2 0x28F6 SWAP1 PUSH2 0x3C25 JUMP JUMPDEST DUP1 PUSH1 0x1F ADD PUSH1 0x20 DUP1 SWAP2 DIV MUL PUSH1 0x20 ADD PUSH1 0x40 MLOAD SWAP1 DUP2 ADD PUSH1 0x40 MSTORE DUP1 SWAP3 SWAP2 SWAP1 DUP2 DUP2 MSTORE PUSH1 0x20 ADD DUP3 DUP1 SLOAD PUSH2 0x2922 SWAP1 PUSH2 0x3C25 JUMP JUMPDEST DUP1 ISZERO PUSH2 0x296F JUMPI DUP1 PUSH1 0x1F LT PUSH2 0x2944 JUMPI PUSH2 0x100 DUP1 DUP4 SLOAD DIV MUL DUP4 MSTORE SWAP2 PUSH1 0x20 ADD SWAP2 PUSH2 0x296F JUMP JUMPDEST DUP3 ADD SWAP2 SWAP1 PUSH1 0x0 MSTORE PUSH1 0x20 PUSH1 0x0 KECCAK256 SWAP1 JUMPDEST DUP2 SLOAD DUP2 MSTORE SWAP1 PUSH1 0x1 ADD SWAP1 PUSH1 0x20 ADD DUP1 DUP4 GT PUSH2 0x2952 JUMPI DUP3 SWAP1 SUB PUSH1 0x1F AND DUP3 ADD SWAP2 JUMPDEST POP POP POP POP POP PUSH1 0x40 MLOAD DUP1 PUSH1 0x40 ADD PUSH1 0x40 MSTORE DUP1 PUSH1 0x4 DUP2 MSTORE PUSH1 0x20 ADD PUSH32 0x2076732000000000000000000000000000000000000000000000000000000000 DUP2 MSTORE POP PUSH2 0x2BFC JUMP JUMPDEST SWAP1 POP PUSH2 0x2A59 DUP2 PUSH1 0x4 PUSH1 0x0 DUP9 DUP2 MSTORE PUSH1 0x20 ADD SWAP1 DUP2 MSTORE PUSH1 0x20 ADD PUSH1 0x0 KECCAK256 PUSH1 0x1 ADD DUP1 SLOAD PUSH2 0x29D6 SWAP1 PUSH2 0x3C25 JUMP JUMPDEST DUP1 PUSH1 0x1F ADD PUSH1 0x20 DUP1 SWAP2 DIV MUL PUSH1 0x20 ADD PUSH1 0x40 MLOAD SWAP1 DUP2 ADD PUSH1 0x40 MSTORE DUP1 SWAP3 SWAP2 SWAP1 DUP2 DUP2 MSTORE PUSH1 0x20 ADD DUP3 DUP1 SLOAD PUSH2 0x2A02 SWAP1 PUSH2 0x3C25 JUMP JUMPDEST DUP1 ISZERO PUSH2 0x2A4F JUMPI DUP1 PUSH1 0x1F LT PUSH2 0x2A24 JUMPI PUSH2 0x100 DUP1 DUP4 SLOAD DIV MUL DUP4 MSTORE SWAP2 PUSH1 0x20 ADD SWAP2 PUSH2 0x2A4F JUMP JUMPDEST DUP3 ADD SWAP2 SWAP1 PUSH1 0x0 MSTORE PUSH1 0x20 PUSH1 0x0 KECCAK256 SWAP1 JUMPDEST DUP2 SLOAD DUP2 MSTORE SWAP1 PUSH1 0x1 ADD SWAP1 PUSH1 0x20 ADD DUP1 DUP4 GT PUSH2 0x2A32 JUMPI DUP3 SWAP1 SUB PUSH1 0x1F AND DUP3 ADD SWAP2 JUMPDEST POP POP POP POP POP PUSH2 0x2BFC JUMP JUMPDEST SWAP4 POP PUSH1 0x0 PUSH1 0x40 MLOAD DUP1 PUSH1 0xA0 ADD PUSH1 0x40 MSTORE DUP1 PUSH1 0x4 PUSH1 0x0 DUP10 DUP2 MSTORE PUSH1 0x20 ADD SWAP1 DUP2 MSTORE PUSH1 0x20 ADD PUSH1 0x0 KECCAK256 PUSH1 0x3 ADD SLOAD DUP2 MSTORE PUSH1 0x20 ADD PUSH1 0x4 PUSH1 0x0 DUP10 DUP2 MSTORE PUSH1 0x20 ADD SWAP1 DUP2 MSTORE PUSH1 0x20 ADD PUSH1 0x0 KECCAK256 PUSH1 0x4 ADD SLOAD DUP2 MSTORE PUSH1 0x20 ADD PUSH1 0x4 PUSH1 0x0 DUP10 DUP2 MSTORE PUSH1 0x20 ADD SWAP1 DUP2 MSTORE PUSH1 0x20 ADD PUSH1 0x0 KECCAK256 PUSH1 0x5 ADD SLOAD DUP2 MSTORE PUSH1 0x20 ADD PUSH1 0x4 PUSH1 0x0 DUP10 DUP2 MSTORE PUSH1 0x20 ADD SWAP1 DUP2 MSTORE PUSH1 0x20 ADD PUSH1 0x0 KECCAK256 PUSH1 0x6 ADD SLOAD DUP2 MSTORE PUSH1 0x20 ADD PUSH1 0x4 PUSH1 0x0 DUP10 DUP2 MSTORE PUSH1 0x20 ADD SWAP1 DUP2 MSTORE PUSH1 0x20 ADD PUSH1 0x0 KECCAK256 PUSH1 0x7 ADD SLOAD DUP2 MSTORE POP SWAP1 POP DUP5 PUSH1 0x4 PUSH1 0x0 DUP9 DUP2 MSTORE PUSH1 0x20 ADD SWAP1 DUP2 MSTORE PUSH1 0x20 ADD PUSH1 0x0 KECCAK256 PUSH1 0x2 ADD DUP3 DUP2 DUP1 SLOAD PUSH2 0x2B18 SWAP1 PUSH2 0x3C25 JUMP JUMPDEST DUP1 PUSH1 0x1F ADD PUSH1 0x20 DUP1 SWAP2 DIV MUL PUSH1 0x20 ADD PUSH1 0x40 MLOAD SWAP1 DUP2 ADD PUSH1 0x40 MSTORE DUP1 SWAP3 SWAP2 SWAP1 DUP2 DUP2 MSTORE PUSH1 0x20 ADD DUP3 DUP1 SLOAD PUSH2 0x2B44 SWAP1 PUSH2 0x3C25 JUMP JUMPDEST DUP1 ISZERO PUSH2 0x2B91 JUMPI DUP1 PUSH1 0x1F LT PUSH2 0x2B66 JUMPI PUSH2 0x100 DUP1 DUP4 SLOAD DIV MUL DUP4 MSTORE SWAP2 PUSH1 0x20 ADD SWAP2 PUSH2 0x2B91 JUMP JUMPDEST DUP3 ADD SWAP2 SWAP1 PUSH1 0x0 MSTORE PUSH1 0x20 PUSH1 0x0 KECCAK256 SWAP1 JUMPDEST DUP2 SLOAD DUP2 MSTORE SWAP1 PUSH1 0x1 ADD SWAP1 PUSH1 0x20 ADD DUP1 DUP4 GT PUSH2 0x2B74 JUMPI DUP3 SWAP1 SUB PUSH1 0x1F AND DUP3 ADD SWAP2 JUMPDEST POP POP POP POP POP SWAP2 POP SWAP5 POP SWAP5 POP SWAP5 POP POP POP SWAP2 SWAP4 SWAP1 SWAP3 POP JUMP JUMPDEST PUSH1 0x0 PUSH1 0x4 PUSH1 0x0 DUP4 DUP2 MSTORE PUSH1 0x20 ADD SWAP1 DUP2 MSTORE PUSH1 0x20 ADD PUSH1 0x0 KECCAK256 PUSH1 0x8 ADD PUSH1 0x1 SWAP1 SLOAD SWAP1 PUSH2 0x100 EXP SWAP1 DIV PUSH1 0xFF AND SWAP1 POP SWAP2 SWAP1 POP JUMP JUMPDEST PUSH1 0x0 DUP1 DUP3 GT PUSH2 0x2BE2 JUMPI PUSH1 0x0 DUP1 REVERT JUMPDEST PUSH1 0x0 DUP3 DUP5 PUSH2 0x2BF0 SWAP2 SWAP1 PUSH2 0x3AD2 JUMP JUMPDEST SWAP1 POP DUP1 SWAP2 POP POP SWAP3 SWAP2 POP POP JUMP JUMPDEST PUSH1 0x60 PUSH1 0x0 DUP4 SWAP1 POP PUSH1 0x0 DUP4 SWAP1 POP PUSH1 0x0 DUP2 MLOAD DUP4 MLOAD PUSH2 0x2C18 SWAP2 SWAP1 PUSH2 0x3A7C JUMP JUMPDEST PUSH8 0xFFFFFFFFFFFFFFFF DUP2 GT ISZERO PUSH2 0x2C31 JUMPI PUSH2 0x2C30 PUSH2 0x3DA1 JUMP JUMPDEST JUMPDEST PUSH1 0x40 MLOAD SWAP1 DUP1 DUP3 MSTORE DUP1 PUSH1 0x1F ADD PUSH1 0x1F NOT AND PUSH1 0x20 ADD DUP3 ADD PUSH1 0x40 MSTORE DUP1 ISZERO PUSH2 0x2C63 JUMPI DUP2 PUSH1 0x20 ADD PUSH1 0x1 DUP3 MUL DUP1 CALLDATASIZE DUP4 CALLDATACOPY DUP1 DUP3 ADD SWAP2 POP POP SWAP1 POP JUMPDEST POP SWAP1 POP PUSH1 0x0 DUP2 SWAP1 POP PUSH1 0x0 DUP1 JUMPDEST DUP6 MLOAD DUP2 LT ISZERO PUSH2 0x2CF7 JUMPI DUP6 DUP2 DUP2 MLOAD DUP2 LT PUSH2 0x2C8B JUMPI PUSH2 0x2C8A PUSH2 0x3D72 JUMP JUMPDEST JUMPDEST PUSH1 0x20 ADD ADD MLOAD PUSH1 0xF8 SHR PUSH1 0xF8 SHL DUP4 DUP4 DUP1 PUSH2 0x2CA2 SWAP1 PUSH2 0x3C88 JUMP JUMPDEST SWAP5 POP DUP2 MLOAD DUP2 LT PUSH2 0x2CB5 JUMPI PUSH2 0x2CB4 PUSH2 0x3D72 JUMP JUMPDEST JUMPDEST PUSH1 0x20 ADD ADD SWAP1 PUSH31 0xFFFFFFFFFFFFFFFFFFFFFFFFFFFFFFFFFFFFFFFFFFFFFFFFFFFFFFFFFFFFFF NOT AND SWAP1 DUP2 PUSH1 0x0 BYTE SWAP1 MSTORE8 POP DUP1 DUP1 PUSH2 0x2CEF SWAP1 PUSH2 0x3C88 JUMP JUMPDEST SWAP2 POP POP PUSH2 0x2C6F JUMP JUMPDEST POP PUSH1 0x0 JUMPDEST DUP5 MLOAD DUP2 LT ISZERO PUSH2 0x2D83 JUMPI DUP5 DUP2 DUP2 MLOAD DUP2 LT PUSH2 0x2D17 JUMPI PUSH2 0x2D16 PUSH2 0x3D72 JUMP JUMPDEST JUMPDEST PUSH1 0x20 ADD ADD MLOAD PUSH1 0xF8 SHR PUSH1 0xF8 SHL DUP4 DUP4 DUP1 PUSH2 0x2D2E SWAP1 PUSH2 0x3C88 JUMP JUMPDEST SWAP5 POP DUP2 MLOAD DUP2 LT PUSH2 0x2D41 JUMPI PUSH2 0x2D40 PUSH2 0x3D72 JUMP JUMPDEST JUMPDEST PUSH1 0x20 ADD ADD SWAP1 PUSH31 0xFFFFFFFFFFFFFFFFFFFFFFFFFFFFFFFFFFFFFFFFFFFFFFFFFFFFFFFFFFFFFF NOT AND SWAP1 DUP2 PUSH1 0x0 BYTE SWAP1 MSTORE8 POP DUP1 DUP1 PUSH2 0x2D7B SWAP1 PUSH2 0x3C88 JUMP JUMPDEST SWAP2 POP POP PUSH2 0x2CFB JUMP JUMPDEST POP DUP3 SWAP6 POP POP POP POP POP POP SWAP3 SWAP2 POP POP JUMP JUMPDEST PUSH1 0x60 PUSH2 0x2DBC DUP3 PUSH1 0x40 MLOAD PUSH1 0x20 ADD PUSH2 0x2DA8 SWAP2 SWAP1 PUSH2 0x3805 JUMP JUMPDEST PUSH1 0x40 MLOAD PUSH1 0x20 DUP2 DUP4 SUB SUB DUP2 MSTORE SWAP1 PUSH1 0x40 MSTORE PUSH2 0x2DF4 JUMP JUMPDEST SWAP1 POP SWAP2 SWAP1 POP JUMP JUMPDEST PUSH1 0x60 PUSH2 0x2DED DUP3 PUSH1 0x40 MLOAD PUSH1 0x20 ADD PUSH2 0x2DD9 SWAP2 SWAP1 PUSH2 0x37D3 JUMP JUMPDEST PUSH1 0x40 MLOAD PUSH1 0x20 DUP2 DUP4 SUB SUB DUP2 MSTORE SWAP1 PUSH1 0x40 MSTORE PUSH2 0x2DF4 JUMP JUMPDEST SWAP1 POP SWAP2 SWAP1 POP JUMP JUMPDEST PUSH1 0x60 PUSH1 0x0 PUSH1 0x40 MLOAD DUP1 PUSH1 0x40 ADD PUSH1 0x40 MSTORE DUP1 PUSH1 0x10 DUP2 MSTORE PUSH1 0x20 ADD PUSH32 0x3031323334353637383961626364656600000000000000000000000000000000 DUP2 MSTORE POP SWAP1 POP PUSH1 0x0 PUSH1 0x2 DUP5 MLOAD PUSH2 0x2E40 SWAP2 SWAP1 PUSH2 0x3B03 JUMP JUMPDEST PUSH1 0x2 PUSH2 0x2E4C SWAP2 SWAP1 PUSH2 0x3A7C JUMP JUMPDEST PUSH8 0xFFFFFFFFFFFFFFFF DUP2 GT ISZERO PUSH2 0x2E65 JUMPI PUSH2 0x2E64 PUSH2 0x3DA1 JUMP JUMPDEST JUMPDEST PUSH1 0x40 MLOAD SWAP1 DUP1 DUP3 MSTORE DUP1 PUSH1 0x1F ADD PUSH1 0x1F NOT AND PUSH1 0x20 ADD DUP3 ADD PUSH1 0x40 MSTORE DUP1 ISZERO PUSH2 0x2E97 JUMPI DUP2 PUSH1 0x20 ADD PUSH1 0x1 DUP3 MUL DUP1 CALLDATASIZE DUP4 CALLDATACOPY DUP1 DUP3 ADD SWAP2 POP POP SWAP1 POP JUMPDEST POP SWAP1 POP PUSH32 0x3000000000000000000000000000000000000000000000000000000000000000 DUP2 PUSH1 0x0 DUP2 MLOAD DUP2 LT PUSH2 0x2ECF JUMPI PUSH2 0x2ECE PUSH2 0x3D72 JUMP JUMPDEST JUMPDEST PUSH1 0x20 ADD ADD SWAP1 PUSH31 0xFFFFFFFFFFFFFFFFFFFFFFFFFFFFFFFFFFFFFFFFFFFFFFFFFFFFFFFFFFFFFF NOT AND SWAP1 DUP2 PUSH1 0x0 BYTE SWAP1 MSTORE8 POP PUSH32 0x7800000000000000000000000000000000000000000000000000000000000000 DUP2 PUSH1 0x1 DUP2 MLOAD DUP2 LT PUSH2 0x2F33 JUMPI PUSH2 0x2F32 PUSH2 0x3D72 JUMP JUMPDEST JUMPDEST PUSH1 0x20 ADD ADD SWAP1 PUSH31 0xFFFFFFFFFFFFFFFFFFFFFFFFFFFFFFFFFFFFFFFFFFFFFFFFFFFFFFFFFFFFFF NOT AND SWAP1 DUP2 PUSH1 0x0 BYTE SWAP1 MSTORE8 POP PUSH1 0x0 JUMPDEST DUP5 MLOAD DUP2 LT ISZERO PUSH2 0x30E3 JUMPI DUP3 PUSH1 0x4 DUP7 DUP4 DUP2 MLOAD DUP2 LT PUSH2 0x2F84 JUMPI PUSH2 0x2F83 PUSH2 0x3D72 JUMP JUMPDEST JUMPDEST PUSH1 0x20 ADD ADD MLOAD PUSH1 0xF8 SHR PUSH1 0xF8 SHL PUSH31 0xFFFFFFFFFFFFFFFFFFFFFFFFFFFFFFFFFFFFFFFFFFFFFFFFFFFFFFFFFFFFFF NOT AND SWAP1 SHR PUSH1 0xF8 SHR PUSH1 0xFF AND DUP2 MLOAD DUP2 LT PUSH2 0x2FCA JUMPI PUSH2 0x2FC9 PUSH2 0x3D72 JUMP JUMPDEST JUMPDEST PUSH1 0x20 ADD ADD MLOAD PUSH1 0xF8 SHR PUSH1 0xF8 SHL DUP3 PUSH1 0x2 DUP4 PUSH2 0x2FE3 SWAP2 SWAP1 PUSH2 0x3B03 JUMP JUMPDEST PUSH1 0x2 PUSH2 0x2FEF SWAP2 SWAP1 PUSH2 0x3A7C JUMP JUMPDEST DUP2 MLOAD DUP2 LT PUSH2 0x3000 JUMPI PUSH2 0x2FFF PUSH2 0x3D72 JUMP JUMPDEST JUMPDEST PUSH1 0x20 ADD ADD SWAP1 PUSH31 0xFFFFFFFFFFFFFFFFFFFFFFFFFFFFFFFFFFFFFFFFFFFFFFFFFFFFFFFFFFFFFF NOT AND SWAP1 DUP2 PUSH1 0x0 BYTE SWAP1 MSTORE8 POP DUP3 PUSH1 0xF PUSH1 0xF8 SHL DUP7 DUP4 DUP2 MLOAD DUP2 LT PUSH2 0x3048 JUMPI PUSH2 0x3047 PUSH2 0x3D72 JUMP JUMPDEST JUMPDEST PUSH1 0x20 ADD ADD MLOAD PUSH1 0xF8 SHR PUSH1 0xF8 SHL AND PUSH1 0xF8 SHR PUSH1 0xFF AND DUP2 MLOAD DUP2 LT PUSH2 0x306B JUMPI PUSH2 0x306A PUSH2 0x3D72 JUMP JUMPDEST JUMPDEST PUSH1 0x20 ADD ADD MLOAD PUSH1 0xF8 SHR PUSH1 0xF8 SHL DUP3 PUSH1 0x2 DUP4 PUSH2 0x3084 SWAP2 SWAP1 PUSH2 0x3B03 JUMP JUMPDEST PUSH1 0x3 PUSH2 0x3090 SWAP2 SWAP1 PUSH2 0x3A7C JUMP JUMPDEST DUP2 MLOAD DUP2 LT PUSH2 0x30A1 JUMPI PUSH2 0x30A0 PUSH2 0x3D72 JUMP JUMPDEST JUMPDEST PUSH1 0x20 ADD ADD SWAP1 PUSH31 0xFFFFFFFFFFFFFFFFFFFFFFFFFFFFFFFFFFFFFFFFFFFFFFFFFFFFFFFFFFFFFF NOT AND SWAP1 DUP2 PUSH1 0x0 BYTE SWAP1 MSTORE8 POP DUP1 DUP1 PUSH2 0x30DB SWAP1 PUSH2 0x3C88 JUMP JUMPDEST SWAP2 POP POP PUSH2 0x2F65 JUMP JUMPDEST POP DUP1 SWAP3 POP POP POP SWAP2 SWAP1 POP JUMP JUMPDEST DUP3 DUP1 SLOAD PUSH2 0x30FA SWAP1 PUSH2 0x3C25 JUMP JUMPDEST SWAP1 PUSH1 0x0 MSTORE PUSH1 0x20 PUSH1 0x0 KECCAK256 SWAP1 PUSH1 0x1F ADD PUSH1 0x20 SWAP1 DIV DUP2 ADD SWAP3 DUP3 PUSH2 0x311C JUMPI PUSH1 0x0 DUP6 SSTORE PUSH2 0x3163 JUMP JUMPDEST DUP3 PUSH1 0x1F LT PUSH2 0x3135 JUMPI DUP1 MLOAD PUSH1 0xFF NOT AND DUP4 DUP1 ADD OR DUP6 SSTORE PUSH2 0x3163 JUMP JUMPDEST DUP3 DUP1 ADD PUSH1 0x1 ADD DUP6 SSTORE DUP3 ISZERO PUSH2 0x3163 JUMPI SWAP2 DUP3 ADD JUMPDEST DUP3 DUP2 GT ISZERO PUSH2 0x3162 JUMPI DUP3 MLOAD DUP3 SSTORE SWAP2 PUSH1 0x20 ADD SWAP2 SWAP1 PUSH1 0x1 ADD SWAP1 PUSH2 0x3147 JUMP JUMPDEST JUMPDEST POP SWAP1 POP PUSH2 0x3170 SWAP2 SWAP1 PUSH2 0x31A3 JUMP JUMPDEST POP SWAP1 JUMP JUMPDEST PUSH1 0x40 MLOAD DUP1 PUSH1 0xA0 ADD PUSH1 0x40 MSTORE DUP1 PUSH1 0x0 DUP2 MSTORE PUSH1 0x20 ADD PUSH1 0x0 DUP2 MSTORE PUSH1 0x20 ADD PUSH1 0x0 DUP2 MSTORE PUSH1 0x20 ADD PUSH1 0x0 DUP2 MSTORE PUSH1 0x20 ADD PUSH1 0x0 DUP2 MSTORE POP SWAP1 JUMP JUMPDEST JUMPDEST DUP1 DUP3 GT ISZERO PUSH2 0x31BC JUMPI PUSH1 0x0 DUP2 PUSH1 0x0 SWAP1 SSTORE POP PUSH1 0x1 ADD PUSH2 0x31A4 JUMP JUMPDEST POP SWAP1 JUMP JUMPDEST PUSH1 0x0 PUSH2 0x31D3 PUSH2 0x31CE DUP5 PUSH2 0x3A24 JUMP JUMPDEST PUSH2 0x39FF JUMP JUMPDEST SWAP1 POP DUP3 DUP2 MSTORE PUSH1 0x20 DUP2 ADD DUP5 DUP5 DUP5 ADD GT ISZERO PUSH2 0x31EF JUMPI PUSH2 0x31EE PUSH2 0x3DD5 JUMP JUMPDEST JUMPDEST PUSH2 0x31FA DUP5 DUP3 DUP6 PUSH2 0x3BE3 JUMP JUMPDEST POP SWAP4 SWAP3 POP POP POP JUMP JUMPDEST PUSH1 0x0 DUP2 CALLDATALOAD SWAP1 POP PUSH2 0x3211 DUP2 PUSH2 0x3F66 JUMP JUMPDEST SWAP3 SWAP2 POP POP JUMP JUMPDEST PUSH1 0x0 DUP2 CALLDATALOAD SWAP1 POP PUSH2 0x3226 DUP2 PUSH2 0x3F7D JUMP JUMPDEST SWAP3 SWAP2 POP POP JUMP JUMPDEST PUSH1 0x0 DUP2 CALLDATALOAD SWAP1 POP PUSH2 0x323B DUP2 PUSH2 0x3F94 JUMP JUMPDEST SWAP3 SWAP2 POP POP JUMP JUMPDEST PUSH1 0x0 DUP3 PUSH1 0x1F DUP4 ADD SLT PUSH2 0x3256 JUMPI PUSH2 0x3255 PUSH2 0x3DD0 JUMP JUMPDEST JUMPDEST DUP2 CALLDATALOAD PUSH2 0x3266 DUP5 DUP3 PUSH1 0x20 DUP7 ADD PUSH2 0x31C0 JUMP JUMPDEST SWAP2 POP POP SWAP3 SWAP2 POP POP JUMP JUMPDEST PUSH1 0x0 DUP2 CALLDATALOAD SWAP1 POP PUSH2 0x327E DUP2 PUSH2 0x3FAB JUMP JUMPDEST SWAP3 SWAP2 POP POP JUMP JUMPDEST PUSH1 0x0 PUSH1 0x20 DUP3 DUP5 SUB SLT ISZERO PUSH2 0x329A JUMPI PUSH2 0x3299 PUSH2 0x3DDF JUMP JUMPDEST JUMPDEST PUSH1 0x0 PUSH2 0x32A8 DUP5 DUP3 DUP6 ADD PUSH2 0x3202 JUMP JUMPDEST SWAP2 POP POP SWAP3 SWAP2 POP POP JUMP JUMPDEST PUSH1 0x0 DUP1 PUSH1 0x40 DUP4 DUP6 SUB SLT ISZERO PUSH2 0x32C8 JUMPI PUSH2 0x32C7 PUSH2 0x3DDF JUMP JUMPDEST JUMPDEST PUSH1 0x0 PUSH2 0x32D6 DUP6 DUP3 DUP7 ADD PUSH2 0x3202 JUMP JUMPDEST SWAP3 POP POP PUSH1 0x20 PUSH2 0x32E7 DUP6 DUP3 DUP7 ADD PUSH2 0x322C JUMP JUMPDEST SWAP2 POP POP SWAP3 POP SWAP3 SWAP1 POP JUMP JUMPDEST PUSH1 0x0 DUP1 PUSH1 0x40 DUP4 DUP6 SUB SLT ISZERO PUSH2 0x3308 JUMPI PUSH2 0x3307 PUSH2 0x3DDF JUMP JUMPDEST JUMPDEST PUSH1 0x0 PUSH2 0x3316 DUP6 DUP3 DUP7 ADD PUSH2 0x3202 JUMP JUMPDEST SWAP3 POP POP PUSH1 0x20 PUSH2 0x3327 DUP6 DUP3 DUP7 ADD PUSH2 0x326F JUMP JUMPDEST SWAP2 POP POP SWAP3 POP SWAP3 SWAP1 POP JUMP JUMPDEST PUSH1 0x0 DUP1 PUSH1 0x0 DUP1 PUSH1 0x0 DUP1 PUSH1 0xC0 DUP8 DUP10 SUB SLT ISZERO PUSH2 0x334E JUMPI PUSH2 0x334D PUSH2 0x3DDF JUMP JUMPDEST JUMPDEST PUSH1 0x0 PUSH2 0x335C DUP10 DUP3 DUP11 ADD PUSH2 0x3202 JUMP JUMPDEST SWAP7 POP POP PUSH1 0x20 PUSH2 0x336D DUP10 DUP3 DUP11 ADD PUSH2 0x326F JUMP JUMPDEST SWAP6 POP POP PUSH1 0x40 PUSH2 0x337E DUP10 DUP3 DUP11 ADD PUSH2 0x322C JUMP JUMPDEST SWAP5 POP POP PUSH1 0x60 PUSH2 0x338F DUP10 DUP3 DUP11 ADD PUSH2 0x326F JUMP JUMPDEST SWAP4 POP POP PUSH1 0x80 PUSH2 0x33A0 DUP10 DUP3 DUP11 ADD PUSH2 0x326F JUMP JUMPDEST SWAP3 POP POP PUSH1 0xA0 PUSH2 0x33B1 DUP10 DUP3 DUP11 ADD PUSH2 0x326F JUMP JUMPDEST SWAP2 POP POP SWAP3 SWAP6 POP SWAP3 SWAP6 POP SWAP3 SWAP6 JUMP JUMPDEST PUSH1 0x0 PUSH1 0x20 DUP3 DUP5 SUB SLT ISZERO PUSH2 0x33D4 JUMPI PUSH2 0x33D3 PUSH2 0x3DDF JUMP JUMPDEST JUMPDEST PUSH1 0x0 PUSH2 0x33E2 DUP5 DUP3 DUP6 ADD PUSH2 0x322C JUMP JUMPDEST SWAP2 POP POP SWAP3 SWAP2 POP POP JUMP JUMPDEST PUSH1 0x0 DUP1 PUSH1 0x40 DUP4 DUP6 SUB SLT ISZERO PUSH2 0x3402 JUMPI PUSH2 0x3401 PUSH2 0x3DDF JUMP JUMPDEST JUMPDEST PUSH1 0x0 PUSH2 0x3410 DUP6 DUP3 DUP7 ADD PUSH2 0x322C JUMP JUMPDEST SWAP3 POP POP PUSH1 0x20 PUSH2 0x3421 DUP6 DUP3 DUP7 ADD PUSH2 0x326F JUMP JUMPDEST SWAP2 POP POP SWAP3 POP SWAP3 SWAP1 POP JUMP JUMPDEST PUSH1 0x0 DUP1 PUSH1 0x0 DUP1 PUSH1 0x80 DUP6 DUP8 SUB SLT ISZERO PUSH2 0x3445 JUMPI PUSH2 0x3444 PUSH2 0x3DDF JUMP JUMPDEST JUMPDEST PUSH1 0x0 PUSH2 0x3453 DUP8 DUP3 DUP9 ADD PUSH2 0x322C JUMP JUMPDEST SWAP5 POP POP PUSH1 0x20 PUSH2 0x3464 DUP8 DUP3 DUP9 ADD PUSH2 0x326F JUMP JUMPDEST SWAP4 POP POP PUSH1 0x40 PUSH2 0x3475 DUP8 DUP3 DUP9 ADD PUSH2 0x326F JUMP JUMPDEST SWAP3 POP POP PUSH1 0x60 PUSH2 0x3486 DUP8 DUP3 DUP9 ADD PUSH2 0x326F JUMP JUMPDEST SWAP2 POP POP SWAP3 SWAP6 SWAP2 SWAP5 POP SWAP3 POP JUMP JUMPDEST PUSH1 0x0 DUP1 PUSH1 0x0 DUP1 PUSH1 0x80 DUP6 DUP8 SUB SLT ISZERO PUSH2 0x34AC JUMPI PUSH2 0x34AB PUSH2 0x3DDF JUMP JUMPDEST JUMPDEST PUSH1 0x0 DUP6 ADD CALLDATALOAD PUSH8 0xFFFFFFFFFFFFFFFF DUP2 GT ISZERO PUSH2 0x34CA JUMPI PUSH2 0x34C9 PUSH2 0x3DDA JUMP JUMPDEST JUMPDEST PUSH2 0x34D6 DUP8 DUP3 DUP9 ADD PUSH2 0x3241 JUMP JUMPDEST SWAP5 POP POP PUSH1 0x20 DUP6 ADD CALLDATALOAD PUSH8 0xFFFFFFFFFFFFFFFF DUP2 GT ISZERO PUSH2 0x34F7 JUMPI PUSH2 0x34F6 PUSH2 0x3DDA JUMP JUMPDEST JUMPDEST PUSH2 0x3503 DUP8 DUP3 DUP9 ADD PUSH2 0x3241 JUMP JUMPDEST SWAP4 POP POP PUSH1 0x40 DUP6 ADD CALLDATALOAD PUSH8 0xFFFFFFFFFFFFFFFF DUP2 GT ISZERO PUSH2 0x3524 JUMPI PUSH2 0x3523 PUSH2 0x3DDA JUMP JUMPDEST JUMPDEST PUSH2 0x3530 DUP8 DUP3 DUP9 ADD PUSH2 0x3241 JUMP JUMPDEST SWAP3 POP POP PUSH1 0x60 PUSH2 0x3541 DUP8 DUP3 DUP9 ADD PUSH2 0x3217 JUMP JUMPDEST SWAP2 POP POP SWAP3 SWAP6 SWAP2 SWAP5 POP SWAP3 POP JUMP JUMPDEST PUSH2 0x3556 DUP2 PUSH2 0x3B91 JUMP JUMPDEST DUP3 MSTORE POP POP JUMP JUMPDEST PUSH2 0x3565 DUP2 PUSH2 0x3BA3 JUMP JUMPDEST DUP3 MSTORE POP POP JUMP JUMPDEST PUSH2 0x3574 DUP2 PUSH2 0x3BAF JUMP JUMPDEST DUP3 MSTORE POP POP JUMP JUMPDEST PUSH2 0x358B PUSH2 0x3586 DUP3 PUSH2 0x3BAF JUMP JUMPDEST PUSH2 0x3CD1 JUMP JUMPDEST DUP3 MSTORE POP POP JUMP JUMPDEST PUSH1 0x0 PUSH2 0x359C DUP3 PUSH2 0x3A55 JUMP JUMPDEST PUSH2 0x35A6 DUP2 DUP6 PUSH2 0x3A60 JUMP JUMPDEST SWAP4 POP PUSH2 0x35B6 DUP2 DUP6 PUSH1 0x20 DUP7 ADD PUSH2 0x3BF2 JUMP JUMPDEST PUSH2 0x35BF DUP2 PUSH2 0x3DE4 JUMP JUMPDEST DUP5 ADD SWAP2 POP POP SWAP3 SWAP2 POP POP JUMP JUMPDEST PUSH1 0x0 PUSH2 0x35D5 DUP3 PUSH2 0x3A55 JUMP JUMPDEST PUSH2 0x35DF DUP2 DUP6 PUSH2 0x3A71 JUMP JUMPDEST SWAP4 POP PUSH2 0x35EF DUP2 DUP6 PUSH1 0x20 DUP7 ADD PUSH2 0x3BF2 JUMP JUMPDEST DUP1 DUP5 ADD SWAP2 POP POP SWAP3 SWAP2 POP POP JUMP JUMPDEST PUSH1 0x0 PUSH2 0x3608 PUSH1 0x19 DUP4 PUSH2 0x3A60 JUMP JUMPDEST SWAP2 POP PUSH2 0x3613 DUP3 PUSH2 0x3DF5 JUMP JUMPDEST PUSH1 0x20 DUP3 ADD SWAP1 POP SWAP2 SWAP1 POP JUMP JUMPDEST PUSH1 0x0 PUSH2 0x362B PUSH1 0x9 DUP4 PUSH2 0x3A60 JUMP JUMPDEST SWAP2 POP PUSH2 0x3636 DUP3 PUSH2 0x3E1E JUMP JUMPDEST PUSH1 0x20 DUP3 ADD SWAP1 POP SWAP2 SWAP1 POP JUMP JUMPDEST PUSH1 0x0 PUSH2 0x364E PUSH1 0xE DUP4 PUSH2 0x3A60 JUMP JUMPDEST SWAP2 POP PUSH2 0x3659 DUP3 PUSH2 0x3E47 JUMP JUMPDEST PUSH1 0x20 DUP3 ADD SWAP1 POP SWAP2 SWAP1 POP JUMP JUMPDEST PUSH1 0x0 PUSH2 0x3671 PUSH1 0x17 DUP4 PUSH2 0x3A60 JUMP JUMPDEST SWAP2 POP PUSH2 0x367C DUP3 PUSH2 0x3E70 JUMP JUMPDEST PUSH1 0x20 DUP3 ADD SWAP1 POP SWAP2 SWAP1 POP JUMP JUMPDEST PUSH1 0x0 PUSH2 0x3694 PUSH1 0xA DUP4 PUSH2 0x3A60 JUMP JUMPDEST SWAP2 POP PUSH2 0x369F DUP3 PUSH2 0x3E99 JUMP JUMPDEST PUSH1 0x20 DUP3 ADD SWAP1 POP SWAP2 SWAP1 POP JUMP JUMPDEST PUSH1 0x0 PUSH2 0x36B7 PUSH1 0x15 DUP4 PUSH2 0x3A60 JUMP JUMPDEST SWAP2 POP PUSH2 0x36C2 DUP3 PUSH2 0x3EC2 JUMP JUMPDEST PUSH1 0x20 DUP3 ADD SWAP1 POP SWAP2 SWAP1 POP JUMP JUMPDEST PUSH1 0x0 PUSH2 0x36DA PUSH1 0x15 DUP4 PUSH2 0x3A60 JUMP JUMPDEST SWAP2 POP PUSH2 0x36E5 DUP3 PUSH2 0x3EEB JUMP JUMPDEST PUSH1 0x20 DUP3 ADD SWAP1 POP SWAP2 SWAP1 POP JUMP JUMPDEST PUSH1 0x0 PUSH2 0x36FD PUSH1 0x10 DUP4 PUSH2 0x3A60 JUMP JUMPDEST SWAP2 POP PUSH2 0x3708 DUP3 PUSH2 0x3F14 JUMP JUMPDEST PUSH1 0x20 DUP3 ADD SWAP1 POP SWAP2 SWAP1 POP JUMP JUMPDEST PUSH1 0x0 PUSH2 0x3720 PUSH1 0x11 DUP4 PUSH2 0x3A60 JUMP JUMPDEST SWAP2 POP PUSH2 0x372B DUP3 PUSH2 0x3F3D JUMP JUMPDEST PUSH1 0x20 DUP3 ADD SWAP1 POP SWAP2 SWAP1 POP JUMP JUMPDEST PUSH1 0xA0 DUP3 ADD PUSH1 0x0 DUP3 ADD MLOAD PUSH2 0x374C PUSH1 0x0 DUP6 ADD DUP3 PUSH2 0x379E JUMP JUMPDEST POP PUSH1 0x20 DUP3 ADD MLOAD PUSH2 0x375F PUSH1 0x20 DUP6 ADD DUP3 PUSH2 0x379E JUMP JUMPDEST POP PUSH1 0x40 DUP3 ADD MLOAD PUSH2 0x3772 PUSH1 0x40 DUP6 ADD DUP3 PUSH2 0x379E JUMP JUMPDEST POP PUSH1 0x60 DUP3 ADD MLOAD PUSH2 0x3785 PUSH1 0x60 DUP6 ADD DUP3 PUSH2 0x379E JUMP JUMPDEST POP PUSH1 0x80 DUP3 ADD MLOAD PUSH2 0x3798 PUSH1 0x80 DUP6 ADD DUP3 PUSH2 0x379E JUMP JUMPDEST POP POP POP POP JUMP JUMPDEST PUSH2 0x37A7 DUP2 PUSH2 0x3BD9 JUMP JUMPDEST DUP3 MSTORE POP POP JUMP JUMPDEST PUSH2 0x37B6 DUP2 PUSH2 0x3BD9 JUMP JUMPDEST DUP3 MSTORE POP POP JUMP JUMPDEST PUSH2 0x37CD PUSH2 0x37C8 DUP3 PUSH2 0x3BD9 JUMP JUMPDEST PUSH2 0x3CDB JUMP JUMPDEST DUP3 MSTORE POP POP JUMP JUMPDEST PUSH1 0x0 PUSH2 0x37DF DUP3 DUP5 PUSH2 0x357A JUMP JUMPDEST PUSH1 0x20 DUP3 ADD SWAP2 POP DUP2 SWAP1 POP SWAP3 SWAP2 POP POP JUMP JUMPDEST PUSH1 0x0 PUSH2 0x37FA DUP3 DUP5 PUSH2 0x35CA JUMP JUMPDEST SWAP2 POP DUP2 SWAP1 POP SWAP3 SWAP2 POP POP JUMP JUMPDEST PUSH1 0x0 PUSH2 0x3811 DUP3 DUP5 PUSH2 0x37BC JUMP JUMPDEST PUSH1 0x20 DUP3 ADD SWAP2 POP DUP2 SWAP1 POP SWAP3 SWAP2 POP POP JUMP JUMPDEST PUSH1 0x0 PUSH1 0x40 DUP3 ADD SWAP1 POP PUSH2 0x3835 PUSH1 0x0 DUP4 ADD DUP6 PUSH2 0x354D JUMP JUMPDEST PUSH2 0x3842 PUSH1 0x20 DUP4 ADD DUP5 PUSH2 0x37AD JUMP JUMPDEST SWAP4 SWAP3 POP POP POP JUMP JUMPDEST PUSH1 0x0 PUSH1 0x20 DUP3 ADD SWAP1 POP PUSH2 0x385E PUSH1 0x0 DUP4 ADD DUP5 PUSH2 0x355C JUMP JUMPDEST SWAP3 SWAP2 POP POP JUMP JUMPDEST PUSH1 0x0 PUSH1 0x20 DUP3 ADD SWAP1 POP PUSH2 0x3879 PUSH1 0x0 DUP4 ADD DUP5 PUSH2 0x356B JUMP JUMPDEST SWAP3 SWAP2 POP POP JUMP JUMPDEST PUSH1 0x0 PUSH1 0xE0 DUP3 ADD SWAP1 POP DUP2 DUP2 SUB PUSH1 0x0 DUP4 ADD MSTORE PUSH2 0x3899 DUP2 DUP7 PUSH2 0x3591 JUMP JUMPDEST SWAP1 POP DUP2 DUP2 SUB PUSH1 0x20 DUP4 ADD MSTORE PUSH2 0x38AD DUP2 DUP6 PUSH2 0x3591 JUMP JUMPDEST SWAP1 POP PUSH2 0x38BC PUSH1 0x40 DUP4 ADD DUP5 PUSH2 0x3736 JUMP JUMPDEST SWAP5 SWAP4 POP POP POP POP JUMP JUMPDEST PUSH1 0x0 PUSH1 0x20 DUP3 ADD SWAP1 POP DUP2 DUP2 SUB PUSH1 0x0 DUP4 ADD MSTORE PUSH2 0x38DD DUP2 PUSH2 0x35FB JUMP JUMPDEST SWAP1 POP SWAP2 SWAP1 POP JUMP JUMPDEST PUSH1 0x0 PUSH1 0x20 DUP3 ADD SWAP1 POP DUP2 DUP2 SUB PUSH1 0x0 DUP4 ADD MSTORE PUSH2 0x38FD DUP2 PUSH2 0x361E JUMP JUMPDEST SWAP1 POP SWAP2 SWAP1 POP JUMP JUMPDEST PUSH1 0x0 PUSH1 0x20 DUP3 ADD SWAP1 POP DUP2 DUP2 SUB PUSH1 0x0 DUP4 ADD MSTORE PUSH2 0x391D DUP2 PUSH2 0x3641 JUMP JUMPDEST SWAP1 POP SWAP2 SWAP1 POP JUMP JUMPDEST PUSH1 0x0 PUSH1 0x20 DUP3 ADD SWAP1 POP DUP2 DUP2 SUB PUSH1 0x0 DUP4 ADD MSTORE PUSH2 0x393D DUP2 PUSH2 0x3664 JUMP JUMPDEST SWAP1 POP SWAP2 SWAP1 POP JUMP JUMPDEST PUSH1 0x0 PUSH1 0x20 DUP3 ADD SWAP1 POP DUP2 DUP2 SUB PUSH1 0x0 DUP4 ADD MSTORE PUSH2 0x395D DUP2 PUSH2 0x3687 JUMP JUMPDEST SWAP1 POP SWAP2 SWAP1 POP JUMP JUMPDEST PUSH1 0x0 PUSH1 0x20 DUP3 ADD SWAP1 POP DUP2 DUP2 SUB PUSH1 0x0 DUP4 ADD MSTORE PUSH2 0x397D DUP2 PUSH2 0x36AA JUMP JUMPDEST SWAP1 POP SWAP2 SWAP1 POP JUMP JUMPDEST PUSH1 0x0 PUSH1 0x20 DUP3 ADD SWAP1 POP DUP2 DUP2 SUB PUSH1 0x0 DUP4 ADD MSTORE PUSH2 0x399D DUP2 PUSH2 0x36CD JUMP JUMPDEST SWAP1 POP SWAP2 SWAP1 POP JUMP JUMPDEST PUSH1 0x0 PUSH1 0x20 DUP3 ADD SWAP1 POP DUP2 DUP2 SUB PUSH1 0x0 DUP4 ADD MSTORE PUSH2 0x39BD DUP2 PUSH2 0x36F0 JUMP JUMPDEST SWAP1 POP SWAP2 SWAP1 POP JUMP JUMPDEST PUSH1 0x0 PUSH1 0x20 DUP3 ADD SWAP1 POP DUP2 DUP2 SUB PUSH1 0x0 DUP4 ADD MSTORE PUSH2 0x39DD DUP2 PUSH2 0x3713 JUMP JUMPDEST SWAP1 POP SWAP2 SWAP1 POP JUMP JUMPDEST PUSH1 0x0 PUSH1 0x20 DUP3 ADD SWAP1 POP PUSH2 0x39F9 PUSH1 0x0 DUP4 ADD DUP5 PUSH2 0x37AD JUMP JUMPDEST SWAP3 SWAP2 POP POP JUMP JUMPDEST PUSH1 0x0 PUSH2 0x3A09 PUSH2 0x3A1A JUMP JUMPDEST SWAP1 POP PUSH2 0x3A15 DUP3 DUP3 PUSH2 0x3C57 JUMP JUMPDEST SWAP2 SWAP1 POP JUMP JUMPDEST PUSH1 0x0 PUSH1 0x40 MLOAD SWAP1 POP SWAP1 JUMP JUMPDEST PUSH1 0x0 PUSH8 0xFFFFFFFFFFFFFFFF DUP3 GT ISZERO PUSH2 0x3A3F JUMPI PUSH2 0x3A3E PUSH2 0x3DA1 JUMP JUMPDEST JUMPDEST PUSH2 0x3A48 DUP3 PUSH2 0x3DE4 JUMP JUMPDEST SWAP1 POP PUSH1 0x20 DUP2 ADD SWAP1 POP SWAP2 SWAP1 POP JUMP JUMPDEST PUSH1 0x0 DUP2 MLOAD SWAP1 POP SWAP2 SWAP1 POP JUMP JUMPDEST PUSH1 0x0 DUP3 DUP3 MSTORE PUSH1 0x20 DUP3 ADD SWAP1 POP SWAP3 SWAP2 POP POP JUMP JUMPDEST PUSH1 0x0 DUP2 SWAP1 POP SWAP3 SWAP2 POP POP JUMP JUMPDEST PUSH1 0x0 PUSH2 0x3A87 DUP3 PUSH2 0x3BD9 JUMP JUMPDEST SWAP2 POP PUSH2 0x3A92 DUP4 PUSH2 0x3BD9 JUMP JUMPDEST SWAP3 POP DUP3 PUSH32 0xFFFFFFFFFFFFFFFFFFFFFFFFFFFFFFFFFFFFFFFFFFFFFFFFFFFFFFFFFFFFFFFF SUB DUP3 GT ISZERO PUSH2 0x3AC7 JUMPI PUSH2 0x3AC6 PUSH2 0x3CE5 JUMP JUMPDEST JUMPDEST DUP3 DUP3 ADD SWAP1 POP SWAP3 SWAP2 POP POP JUMP JUMPDEST PUSH1 0x0 PUSH2 0x3ADD DUP3 PUSH2 0x3BD9 JUMP JUMPDEST SWAP2 POP PUSH2 0x3AE8 DUP4 PUSH2 0x3BD9 JUMP JUMPDEST SWAP3 POP DUP3 PUSH2 0x3AF8 JUMPI PUSH2 0x3AF7 PUSH2 0x3D14 JUMP JUMPDEST JUMPDEST DUP3 DUP3 DIV SWAP1 POP SWAP3 SWAP2 POP POP JUMP JUMPDEST PUSH1 0x0 PUSH2 0x3B0E DUP3 PUSH2 0x3BD9 JUMP JUMPDEST SWAP2 POP PUSH2 0x3B19 DUP4 PUSH2 0x3BD9 JUMP JUMPDEST SWAP3 POP DUP2 PUSH32 0xFFFFFFFFFFFFFFFFFFFFFFFFFFFFFFFFFFFFFFFFFFFFFFFFFFFFFFFFFFFFFFFF DIV DUP4 GT DUP3 ISZERO ISZERO AND ISZERO PUSH2 0x3B52 JUMPI PUSH2 0x3B51 PUSH2 0x3CE5 JUMP JUMPDEST JUMPDEST DUP3 DUP3 MUL SWAP1 POP SWAP3 SWAP2 POP POP JUMP JUMPDEST PUSH1 0x0 PUSH2 0x3B68 DUP3 PUSH2 0x3BD9 JUMP JUMPDEST SWAP2 POP PUSH2 0x3B73 DUP4 PUSH2 0x3BD9 JUMP JUMPDEST SWAP3 POP DUP3 DUP3 LT ISZERO PUSH2 0x3B86 JUMPI PUSH2 0x3B85 PUSH2 0x3CE5 JUMP JUMPDEST JUMPDEST DUP3 DUP3 SUB SWAP1 POP SWAP3 SWAP2 POP POP JUMP JUMPDEST PUSH1 0x0 PUSH2 0x3B9C DUP3 PUSH2 0x3BB9 JUMP JUMPDEST SWAP1 POP SWAP2 SWAP1 POP JUMP JUMPDEST PUSH1 0x0 DUP2 ISZERO ISZERO SWAP1 POP SWAP2 SWAP1 POP JUMP JUMPDEST PUSH1 0x0 DUP2 SWAP1 POP SWAP2 SWAP1 POP JUMP JUMPDEST PUSH1 0x0 PUSH20 0xFFFFFFFFFFFFFFFFFFFFFFFFFFFFFFFFFFFFFFFF DUP3 AND SWAP1 POP SWAP2 SWAP1 POP JUMP JUMPDEST PUSH1 0x0 DUP2 SWAP1 POP SWAP2 SWAP1 POP JUMP JUMPDEST DUP3 DUP2 DUP4 CALLDATACOPY PUSH1 0x0 DUP4 DUP4 ADD MSTORE POP POP POP JUMP JUMPDEST PUSH1 0x0 JUMPDEST DUP4 DUP2 LT ISZERO PUSH2 0x3C10 JUMPI DUP1 DUP3 ADD MLOAD DUP2 DUP5 ADD MSTORE PUSH1 0x20 DUP2 ADD SWAP1 POP PUSH2 0x3BF5 JUMP JUMPDEST DUP4 DUP2 GT ISZERO PUSH2 0x3C1F JUMPI PUSH1 0x0 DUP5 DUP5 ADD MSTORE JUMPDEST POP POP POP POP JUMP JUMPDEST PUSH1 0x0 PUSH1 0x2 DUP3 DIV SWAP1 POP PUSH1 0x1 DUP3 AND DUP1 PUSH2 0x3C3D JUMPI PUSH1 0x7F DUP3 AND SWAP2 POP JUMPDEST PUSH1 0x20 DUP3 LT DUP2 EQ ISZERO PUSH2 0x3C51 JUMPI PUSH2 0x3C50 PUSH2 0x3D43 JUMP JUMPDEST JUMPDEST POP SWAP2 SWAP1 POP JUMP JUMPDEST PUSH2 0x3C60 DUP3 PUSH2 0x3DE4 JUMP JUMPDEST DUP2 ADD DUP2 DUP2 LT PUSH8 0xFFFFFFFFFFFFFFFF DUP3 GT OR ISZERO PUSH2 0x3C7F JUMPI PUSH2 0x3C7E PUSH2 0x3DA1 JUMP JUMPDEST JUMPDEST DUP1 PUSH1 0x40 MSTORE POP POP POP JUMP JUMPDEST PUSH1 0x0 PUSH2 0x3C93 DUP3 PUSH2 0x3BD9 JUMP JUMPDEST SWAP2 POP PUSH32 0xFFFFFFFFFFFFFFFFFFFFFFFFFFFFFFFFFFFFFFFFFFFFFFFFFFFFFFFFFFFFFFFF DUP3 EQ ISZERO PUSH2 0x3CC6 JUMPI PUSH2 0x3CC5 PUSH2 0x3CE5 JUMP JUMPDEST JUMPDEST PUSH1 0x1 DUP3 ADD SWAP1 POP SWAP2 SWAP1 POP JUMP JUMPDEST PUSH1 0x0 DUP2 SWAP1 POP SWAP2 SWAP1 POP JUMP JUMPDEST PUSH1 0x0 DUP2 SWAP1 POP SWAP2 SWAP1 POP JUMP JUMPDEST PUSH32 0x4E487B7100000000000000000000000000000000000000000000000000000000 PUSH1 0x0 MSTORE PUSH1 0x11 PUSH1 0x4 MSTORE PUSH1 0x24 PUSH1 0x0 REVERT JUMPDEST PUSH32 0x4E487B7100000000000000000000000000000000000000000000000000000000 PUSH1 0x0 MSTORE PUSH1 0x12 PUSH1 0x4 MSTORE PUSH1 0x24 PUSH1 0x0 REVERT JUMPDEST PUSH32 0x4E487B7100000000000000000000000000000000000000000000000000000000 PUSH1 0x0 MSTORE PUSH1 0x22 PUSH1 0x4 MSTORE PUSH1 0x24 PUSH1 0x0 REVERT JUMPDEST PUSH32 0x4E487B7100000000000000000000000000000000000000000000000000000000 PUSH1 0x0 MSTORE PUSH1 0x32 PUSH1 0x4 MSTORE PUSH1 0x24 PUSH1 0x0 REVERT JUMPDEST PUSH32 0x4E487B7100000000000000000000000000000000000000000000000000000000 PUSH1 0x0 MSTORE PUSH1 0x41 PUSH1 0x4 MSTORE PUSH1 0x24 PUSH1 0x0 REVERT JUMPDEST PUSH1 0x0 DUP1 REVERT JUMPDEST PUSH1 0x0 DUP1 REVERT JUMPDEST PUSH1 0x0 DUP1 REVERT JUMPDEST PUSH1 0x0 DUP1 REVERT JUMPDEST PUSH1 0x0 PUSH1 0x1F NOT PUSH1 0x1F DUP4 ADD AND SWAP1 POP SWAP2 SWAP1 POP JUMP JUMPDEST PUSH32 0x4F6E6C79206F776E65722063616E2063616C6C20746869732E00000000000000 PUSH1 0x0 DUP3 ADD MSTORE POP JUMP JUMPDEST PUSH32 0x6E6F742065786973740000000000000000000000000000000000000000000000 PUSH1 0x0 DUP3 ADD MSTORE POP JUMP JUMPDEST PUSH32 0x706F6F6C206E6F74206578697374000000000000000000000000000000000000 PUSH1 0x0 DUP3 ADD MSTORE POP JUMP JUMPDEST PUSH32 0x706F6F6C20626173616C20686173206265656E20736574000000000000000000 PUSH1 0x0 DUP3 ADD MSTORE POP JUMP JUMPDEST PUSH32 0x7061697220657869737400000000000000000000000000000000000000000000 PUSH1 0x0 DUP3 ADD MSTORE POP JUMP JUMPDEST PUSH32 0x706F6F6C20686173206E6F742066696E69736865640000000000000000000000 PUSH1 0x0 DUP3 ADD MSTORE POP JUMP JUMPDEST PUSH32 0x6E6F7420656E6F75676820766F7465416D6F756E740000000000000000000000 PUSH1 0x0 DUP3 ADD MSTORE POP JUMP JUMPDEST PUSH32 0x6E6F7420656E6F75676820626173616C00000000000000000000000000000000 PUSH1 0x0 DUP3 ADD MSTORE POP JUMP JUMPDEST PUSH32 0x706F6F6C206861732066696E6973686564000000000000000000000000000000 PUSH1 0x0 DUP3 ADD MSTORE POP JUMP JUMPDEST PUSH2 0x3F6F DUP2 PUSH2 0x3B91 JUMP JUMPDEST DUP2 EQ PUSH2 0x3F7A JUMPI PUSH1 0x0 DUP1 REVERT JUMPDEST POP JUMP JUMPDEST PUSH2 0x3F86 DUP2 PUSH2 0x3BA3 JUMP JUMPDEST DUP2 EQ PUSH2 0x3F91 JUMPI PUSH1 0x0 DUP1 REVERT JUMPDEST POP JUMP JUMPDEST PUSH2 0x3F9D DUP2 PUSH2 0x3BAF JUMP JUMPDEST DUP2 EQ PUSH2 0x3FA8 JUMPI PUSH1 0x0 DUP1 REVERT JUMPDEST POP JUMP JUMPDEST PUSH2 0x3FB4 DUP2 PUSH2 0x3BD9 JUMP JUMPDEST DUP2 EQ PUSH2 0x3FBF JUMPI PUSH1 0x0 DUP1 REVERT JUMPDEST POP JUMP INVALID LOG2 PUSH5 0x6970667358 0x22 SLT KECCAK256 0xCB PUSH3 0x9F675C 0xD9 0xE8 PUSH11 0x3714F28DE3891255618472 0xE1 0x29 JUMPI 0xC1 GASPRICE POP DUP10 0xE0 0xC3 DUP1 0xC3 SMOD SHR PUSH5 0x736F6C6343 STOP ADDMOD SMOD STOP CALLER "
				},
				"gasEstimates": {
					"creation": {
						"codeDepositCost": "3275200",
						"executionCost": "infinite",
						"totalCost": "infinite"
					},
					"external": {
						"Award(bytes32,uint256,uint256,uint256)": "infinite",
						"CheckBasal()": "4696",
						"CheckExpect(bytes32)": "infinite",
						"CheckVoteTickets()": "2614",
						"Picking(address,uint256,bytes32,uint256,uint256,uint256)": "infinite",
						"Set_Basal(bytes32,uint256)": "infinite",
						"Set_Pool(string,string,string,bool)": "infinite",
						"Withdrawal(address,bytes32)": "infinite",
						"getPool(bytes32)": "infinite",
						"voteWithdrawal(address,uint256)": "infinite",
						"withdrawBNBInContract(address)": "infinite"
					},
					"internal": {
						"addressToString(address)": "infinite",
						"bytes32ToString(bytes32)": "infinite",
						"contains(bytes32)": "2304",
						"strConcat(string memory,string memory)": "infinite",
						"stringCompare(string memory,string memory)": "infinite",
						"toString(bytes memory)": "infinite",
						"uint256ToString(uint256)": "infinite"
					}
				},
				"methodIdentifiers": {
					"Award(bytes32,uint256,uint256,uint256)": "74fe9bc2",
					"CheckBasal()": "3e6ff1a2",
					"CheckExpect(bytes32)": "4121855f",
					"CheckVoteTickets()": "baf41269",
					"Picking(address,uint256,bytes32,uint256,uint256,uint256)": "47e4dd27",
					"Set_Basal(bytes32,uint256)": "2bf21ecc",
					"Set_Pool(string,string,string,bool)": "357965ba",
					"Withdrawal(address,bytes32)": "0ce49053",
					"getPool(bytes32)": "f6c00927",
					"voteWithdrawal(address,uint256)": "9bd0abf1",
					"withdrawBNBInContract(address)": "2775e02c"
				}
			},
			"storageLayout": {
				"storage": [
					{
						"astId": 198,
						"contract": "wwcc-contracts/contracts/wwccPool.sol:WCPOOL",
						"label": "owner",
						"offset": 0,
						"slot": "0",
						"type": "t_address"
					},
					{
						"astId": 200,
						"contract": "wwcc-contracts/contracts/wwccPool.sol:WCPOOL",
						"label": "nextBasalLast",
						"offset": 0,
						"slot": "1",
						"type": "t_uint256"
					},
					{
						"astId": 202,
						"contract": "wwcc-contracts/contracts/wwccPool.sol:WCPOOL",
						"label": "lastBNB",
						"offset": 0,
						"slot": "2",
						"type": "t_uint256"
					},
					{
						"astId": 206,
						"contract": "wwcc-contracts/contracts/wwccPool.sol:WCPOOL",
						"label": "voteAmount",
						"offset": 0,
						"slot": "3",
						"type": "t_mapping(t_address,t_uint256)"
					},
					{
						"astId": 211,
						"contract": "wwcc-contracts/contracts/wwccPool.sol:WCPOOL",
						"label": "WcPools",
						"offset": 0,
						"slot": "4",
						"type": "t_mapping(t_bytes32,t_struct(WcPool)153_storage)"
					},
					{
						"astId": 216,
						"contract": "wwcc-contracts/contracts/wwccPool.sol:WCPOOL",
						"label": "allScorePoolInfo",
						"offset": 0,
						"slot": "5",
						"type": "t_mapping(t_bytes32,t_struct(AllScorePool)171_storage)"
					},
					{
						"astId": 220,
						"contract": "wwcc-contracts/contracts/wwccPool.sol:WCPOOL",
						"label": "singleScorePool",
						"offset": 0,
						"slot": "6",
						"type": "t_mapping(t_string_memory_ptr,t_uint256)"
					},
					{
						"astId": 225,
						"contract": "wwcc-contracts/contracts/wwccPool.sol:WCPOOL",
						"label": "joinerAllPicking",
						"offset": 0,
						"slot": "7",
						"type": "t_mapping(t_address,t_struct(JoinerAllPicking)178_storage)"
					}
				],
				"types": {
					"t_address": {
						"encoding": "inplace",
						"label": "address",
						"numberOfBytes": "20"
					},
					"t_array(t_struct(JoinerPicking)193_storage)dyn_storage": {
						"base": "t_struct(JoinerPicking)193_storage",
						"encoding": "dynamic_array",
						"label": "struct WCPOOL.JoinerPicking[]",
						"numberOfBytes": "32"
					},
					"t_bool": {
						"encoding": "inplace",
						"label": "bool",
						"numberOfBytes": "1"
					},
					"t_bytes32": {
						"encoding": "inplace",
						"label": "bytes32",
						"numberOfBytes": "32"
					},
					"t_mapping(t_address,t_struct(JoinerAllPicking)178_storage)": {
						"encoding": "mapping",
						"key": "t_address",
						"label": "mapping(address => struct WCPOOL.JoinerAllPicking)",
						"numberOfBytes": "32",
						"value": "t_struct(JoinerAllPicking)178_storage"
					},
					"t_mapping(t_address,t_uint256)": {
						"encoding": "mapping",
						"key": "t_address",
						"label": "mapping(address => uint256)",
						"numberOfBytes": "32",
						"value": "t_uint256"
					},
					"t_mapping(t_bytes32,t_struct(AllScorePool)171_storage)": {
						"encoding": "mapping",
						"key": "t_bytes32",
						"label": "mapping(bytes32 => struct WCPOOL.AllScorePool)",
						"numberOfBytes": "32",
						"value": "t_struct(AllScorePool)171_storage"
					},
					"t_mapping(t_bytes32,t_struct(WcPool)153_storage)": {
						"encoding": "mapping",
						"key": "t_bytes32",
						"label": "mapping(bytes32 => struct WCPOOL.WcPool)",
						"numberOfBytes": "32",
						"value": "t_struct(WcPool)153_storage"
					},
					"t_mapping(t_string_memory_ptr,t_uint256)": {
						"encoding": "mapping",
						"key": "t_string_memory_ptr",
						"label": "mapping(string => uint256)",
						"numberOfBytes": "32",
						"value": "t_uint256"
					},
					"t_string_memory_ptr": {
						"encoding": "bytes",
						"label": "string",
						"numberOfBytes": "32"
					},
					"t_string_storage": {
						"encoding": "bytes",
						"label": "string",
						"numberOfBytes": "32"
					},
					"t_struct(AllScorePool)171_storage": {
						"encoding": "inplace",
						"label": "struct WCPOOL.AllScorePool",
						"members": [
							{
								"astId": 168,
								"contract": "wwcc-contracts/contracts/wwccPool.sol:WCPOOL",
								"label": "separateBet",
								"offset": 0,
								"slot": "0",
								"type": "t_array(t_struct(JoinerPicking)193_storage)dyn_storage"
							},
							{
								"astId": 170,
								"contract": "wwcc-contracts/contracts/wwccPool.sol:WCPOOL",
								"label": "poolKey",
								"offset": 0,
								"slot": "1",
								"type": "t_bytes32"
							}
						],
						"numberOfBytes": "64"
					},
					"t_struct(JoinerAllPicking)178_storage": {
						"encoding": "inplace",
						"label": "struct WCPOOL.JoinerAllPicking",
						"members": [
							{
								"astId": 175,
								"contract": "wwcc-contracts/contracts/wwccPool.sol:WCPOOL",
								"label": "separateBet",
								"offset": 0,
								"slot": "0",
								"type": "t_array(t_struct(JoinerPicking)193_storage)dyn_storage"
							},
							{
								"astId": 177,
								"contract": "wwcc-contracts/contracts/wwccPool.sol:WCPOOL",
								"label": "joiner",
								"offset": 0,
								"slot": "1",
								"type": "t_address"
							}
						],
						"numberOfBytes": "64"
					},
					"t_struct(JoinerPicking)193_storage": {
						"encoding": "inplace",
						"label": "struct WCPOOL.JoinerPicking",
						"members": [
							{
								"astId": 180,
								"contract": "wwcc-contracts/contracts/wwccPool.sol:WCPOOL",
								"label": "weight",
								"offset": 0,
								"slot": "0",
								"type": "t_uint256"
							},
							{
								"astId": 182,
								"contract": "wwcc-contracts/contracts/wwccPool.sol:WCPOOL",
								"label": "kind",
								"offset": 0,
								"slot": "1",
								"type": "t_uint256"
							},
							{
								"astId": 184,
								"contract": "wwcc-contracts/contracts/wwccPool.sol:WCPOOL",
								"label": "homeScore",
								"offset": 0,
								"slot": "2",
								"type": "t_uint256"
							},
							{
								"astId": 186,
								"contract": "wwcc-contracts/contracts/wwccPool.sol:WCPOOL",
								"label": "visitScore",
								"offset": 0,
								"slot": "3",
								"type": "t_uint256"
							},
							{
								"astId": 188,
								"contract": "wwcc-contracts/contracts/wwccPool.sol:WCPOOL",
								"label": "joiner",
								"offset": 0,
								"slot": "4",
								"type": "t_address"
							},
							{
								"astId": 190,
								"contract": "wwcc-contracts/contracts/wwccPool.sol:WCPOOL",
								"label": "pickingKey",
								"offset": 0,
								"slot": "5",
								"type": "t_string_storage"
							},
							{
								"astId": 192,
								"contract": "wwcc-contracts/contracts/wwccPool.sol:WCPOOL",
								"label": "finished",
								"offset": 0,
								"slot": "6",
								"type": "t_bool"
							}
						],
						"numberOfBytes": "224"
					},
					"t_struct(WcPool)153_storage": {
						"encoding": "inplace",
						"label": "struct WCPOOL.WcPool",
						"members": [
							{
								"astId": 132,
								"contract": "wwcc-contracts/contracts/wwccPool.sol:WCPOOL",
								"label": "home",
								"offset": 0,
								"slot": "0",
								"type": "t_string_storage"
							},
							{
								"astId": 134,
								"contract": "wwcc-contracts/contracts/wwccPool.sol:WCPOOL",
								"label": "visit",
								"offset": 0,
								"slot": "1",
								"type": "t_string_storage"
							},
							{
								"astId": 136,
								"contract": "wwcc-contracts/contracts/wwccPool.sol:WCPOOL",
								"label": "rounds",
								"offset": 0,
								"slot": "2",
								"type": "t_string_storage"
							},
							{
								"astId": 138,
								"contract": "wwcc-contracts/contracts/wwccPool.sol:WCPOOL",
								"label": "wPool",
								"offset": 0,
								"slot": "3",
								"type": "t_uint256"
							},
							{
								"astId": 140,
								"contract": "wwcc-contracts/contracts/wwccPool.sol:WCPOOL",
								"label": "dPool",
								"offset": 0,
								"slot": "4",
								"type": "t_uint256"
							},
							{
								"astId": 142,
								"contract": "wwcc-contracts/contracts/wwccPool.sol:WCPOOL",
								"label": "lPool",
								"offset": 0,
								"slot": "5",
								"type": "t_uint256"
							},
							{
								"astId": 144,
								"contract": "wwcc-contracts/contracts/wwccPool.sol:WCPOOL",
								"label": "sPool",
								"offset": 0,
								"slot": "6",
								"type": "t_uint256"
							},
							{
								"astId": 146,
								"contract": "wwcc-contracts/contracts/wwccPool.sol:WCPOOL",
								"label": "basal",
								"offset": 0,
								"slot": "7",
								"type": "t_uint256"
							},
							{
								"astId": 148,
								"contract": "wwcc-contracts/contracts/wwccPool.sol:WCPOOL",
								"label": "decided",
								"offset": 0,
								"slot": "8",
								"type": "t_bool"
							},
							{
								"astId": 150,
								"contract": "wwcc-contracts/contracts/wwccPool.sol:WCPOOL",
								"label": "used",
								"offset": 1,
								"slot": "8",
								"type": "t_bool"
							},
							{
								"astId": 152,
								"contract": "wwcc-contracts/contracts/wwccPool.sol:WCPOOL",
								"label": "finished",
								"offset": 2,
								"slot": "8",
								"type": "t_bool"
							}
						],
						"numberOfBytes": "288"
					},
					"t_uint256": {
						"encoding": "inplace",
						"label": "uint256",
						"numberOfBytes": "32"
					}
				}
			},
			"userdoc": {
				"kind": "user",
				"methods": {},
				"version": 1
			}
		}
	}
}