{
	"wwcc-contracts/contracts/wwccPool.sol": {
		"WCPOOL": {
			"abi": [
				{
					"inputs": [
						{
							"internalType": "address",
							"name": "holder",
							"type": "address"
						},
						{
							"internalType": "uint256",
							"name": "firstBasal",
							"type": "uint256"
						}
					],
					"stateMutability": "nonpayable",
					"type": "constructor"
				},
				{
					"anonymous": false,
					"inputs": [
						{
							"indexed": false,
							"internalType": "address",
							"name": "",
							"type": "address"
						},
						{
							"indexed": false,
							"internalType": "uint256",
							"name": "",
							"type": "uint256"
						}
					],
					"name": "Received",
					"type": "event"
				},
				{
					"inputs": [
						{
							"internalType": "bytes32",
							"name": "poolKey",
							"type": "bytes32"
						},
						{
							"internalType": "uint256",
							"name": "homeScore",
							"type": "uint256"
						},
						{
							"internalType": "uint256",
							"name": "visitScore",
							"type": "uint256"
						},
						{
							"internalType": "uint256",
							"name": "result",
							"type": "uint256"
						}
					],
					"name": "Award",
					"outputs": [
						{
							"internalType": "bool",
							"name": "",
							"type": "bool"
						}
					],
					"stateMutability": "payable",
					"type": "function"
				},
				{
					"inputs": [],
					"name": "CheckBasal",
					"outputs": [
						{
							"internalType": "uint256",
							"name": "",
							"type": "uint256"
						}
					],
					"stateMutability": "view",
					"type": "function"
				},
				{
					"inputs": [
						{
							"internalType": "bytes32",
							"name": "poolKey",
							"type": "bytes32"
						}
					],
					"name": "CheckExpect",
					"outputs": [
						{
							"internalType": "uint256",
							"name": "",
							"type": "uint256"
						}
					],
					"stateMutability": "view",
					"type": "function"
				},
				{
					"inputs": [],
					"name": "CheckVoteTickets",
					"outputs": [
						{
							"internalType": "uint256",
							"name": "",
							"type": "uint256"
						}
					],
					"stateMutability": "view",
					"type": "function"
				},
				{
					"inputs": [
						{
							"internalType": "address",
							"name": "joiner",
							"type": "address"
						},
						{
							"internalType": "uint256",
							"name": "weight",
							"type": "uint256"
						},
						{
							"internalType": "bytes32",
							"name": "poolKey",
							"type": "bytes32"
						},
						{
							"internalType": "uint256",
							"name": "homeScore",
							"type": "uint256"
						},
						{
							"internalType": "uint256",
							"name": "visitScore",
							"type": "uint256"
						},
						{
							"internalType": "uint256",
							"name": "kind",
							"type": "uint256"
						}
					],
					"name": "Picking",
					"outputs": [
						{
							"internalType": "bool",
							"name": "",
							"type": "bool"
						}
					],
					"stateMutability": "nonpayable",
					"type": "function"
				},
				{
					"inputs": [
						{
							"internalType": "bytes32",
							"name": "poolKey",
							"type": "bytes32"
						},
						{
							"internalType": "uint256",
							"name": "basal",
							"type": "uint256"
						}
					],
					"name": "Set_Basal",
					"outputs": [
						{
							"internalType": "bool",
							"name": "",
							"type": "bool"
						}
					],
					"stateMutability": "nonpayable",
					"type": "function"
				},
				{
					"inputs": [
						{
							"internalType": "string",
							"name": "home",
							"type": "string"
						},
						{
							"internalType": "string",
							"name": "visit",
							"type": "string"
						},
						{
							"internalType": "string",
							"name": "rounds",
							"type": "string"
						},
						{
							"internalType": "bool",
							"name": "decided",
							"type": "bool"
						}
					],
					"name": "Set_Pool",
					"outputs": [
						{
							"internalType": "bytes32",
							"name": "",
							"type": "bytes32"
						}
					],
					"stateMutability": "nonpayable",
					"type": "function"
				},
				{
					"inputs": [
						{
							"internalType": "address",
							"name": "joiner",
							"type": "address"
						},
						{
							"internalType": "uint256",
							"name": "weight",
							"type": "uint256"
						},
						{
							"internalType": "bytes32",
							"name": "poolKey",
							"type": "bytes32"
						},
						{
							"internalType": "uint256",
							"name": "homeScore",
							"type": "uint256"
						},
						{
							"internalType": "uint256",
							"name": "visitScore",
							"type": "uint256"
						},
						{
							"internalType": "uint256",
							"name": "kind",
							"type": "uint256"
						}
					],
					"name": "Test",
					"outputs": [
						{
							"internalType": "bool",
							"name": "",
							"type": "bool"
						}
					],
					"stateMutability": "nonpayable",
					"type": "function"
				},
				{
					"inputs": [
						{
							"internalType": "address",
							"name": "toAddress",
							"type": "address"
						},
						{
							"internalType": "bytes32",
							"name": "poolKey",
							"type": "bytes32"
						}
					],
					"name": "Withdrawal",
					"outputs": [
						{
							"internalType": "bool",
							"name": "",
							"type": "bool"
						}
					],
					"stateMutability": "payable",
					"type": "function"
				},
				{
					"inputs": [],
					"name": "getAllPoolKeys",
					"outputs": [
						{
							"internalType": "bytes32[]",
							"name": "",
							"type": "bytes32[]"
						}
					],
					"stateMutability": "view",
					"type": "function"
				},
				{
					"inputs": [],
					"name": "getLastBNB",
					"outputs": [
						{
							"internalType": "uint256",
							"name": "",
							"type": "uint256"
						}
					],
					"stateMutability": "view",
					"type": "function"
				},
				{
					"inputs": [
						{
							"internalType": "bytes32",
							"name": "poolKey",
							"type": "bytes32"
						}
					],
					"name": "getPool",
					"outputs": [
						{
							"internalType": "string",
							"name": "vs",
							"type": "string"
						},
						{
							"internalType": "string",
							"name": "rounds",
							"type": "string"
						},
						{
							"components": [
								{
									"internalType": "uint256",
									"name": "wPool",
									"type": "uint256"
								},
								{
									"internalType": "uint256",
									"name": "dPool",
									"type": "uint256"
								},
								{
									"internalType": "uint256",
									"name": "lPool",
									"type": "uint256"
								},
								{
									"internalType": "uint256",
									"name": "sPool",
									"type": "uint256"
								},
								{
									"internalType": "uint256",
									"name": "basal",
									"type": "uint256"
								}
							],
							"internalType": "struct WCPOOL.PoolViewInfo",
							"name": "viewInfo",
							"type": "tuple"
						}
					],
					"stateMutability": "view",
					"type": "function"
				},
				{
					"inputs": [
						{
							"internalType": "address",
							"name": "joiner",
							"type": "address"
						},
						{
							"internalType": "uint256",
							"name": "amount",
							"type": "uint256"
						}
					],
					"name": "voteWithdrawal",
					"outputs": [
						{
							"internalType": "bool",
							"name": "",
							"type": "bool"
						}
					],
					"stateMutability": "payable",
					"type": "function"
				},
				{
					"inputs": [
						{
							"internalType": "address",
							"name": "toAddress",
							"type": "address"
						}
					],
					"name": "withdrawBNBInContract",
					"outputs": [
						{
							"internalType": "bool",
							"name": "",
							"type": "bool"
						}
					],
					"stateMutability": "payable",
					"type": "function"
				},
				{
					"stateMutability": "payable",
					"type": "receive"
				}
			],
			"devdoc": {
				"kind": "dev",
				"methods": {},
				"version": 1
			},
			"evm": {
				"assembly": "    /* \"wwcc-contracts/contracts/wwccPool.sol\":96:14413  contract WCPOOL {... */\n  mstore(0x40, 0x80)\n    /* \"wwcc-contracts/contracts/wwccPool.sol\":1776:1997  constructor(... */\n  callvalue\n  dup1\n  iszero\n  tag_1\n  jumpi\n  0x00\n  dup1\n  revert\ntag_1:\n  pop\n  mload(0x40)\n  sub(codesize, bytecodeSize)\n  dup1\n  bytecodeSize\n  dup4\n  codecopy\n  dup2\n  dup2\n  add\n  0x40\n  mstore\n  dup2\n  add\n  swap1\n  tag_2\n  swap2\n  swap1\n  tag_3\n  jump\t// in\ntag_2:\n    /* \"wwcc-contracts/contracts/wwccPool.sol\":1857:1863  holder */\n  dup2\n    /* \"wwcc-contracts/contracts/wwccPool.sol\":1849:1854  owner */\n  0x00\n  dup1\n    /* \"wwcc-contracts/contracts/wwccPool.sol\":1849:1863  owner = holder */\n  0x0100\n  exp\n  dup2\n  sload\n  dup2\n  0xffffffffffffffffffffffffffffffffffffffff\n  mul\n  not\n  and\n  swap1\n  dup4\n  0xffffffffffffffffffffffffffffffffffffffff\n  and\n  mul\n  or\n  swap1\n  sstore\n  pop\n    /* \"wwcc-contracts/contracts/wwccPool.sol\":1883:1884  0 */\n  0x00\n    /* \"wwcc-contracts/contracts/wwccPool.sol\":1873:1880  lastBNB */\n  0x03\n    /* \"wwcc-contracts/contracts/wwccPool.sol\":1873:1884  lastBNB = 0 */\n  dup2\n  swap1\n  sstore\n  pop\n    /* \"wwcc-contracts/contracts/wwccPool.sol\":1910:1920  firstBasal */\n  dup1\n    /* \"wwcc-contracts/contracts/wwccPool.sol\":1894:1907  nextBasalLast */\n  0x01\n    /* \"wwcc-contracts/contracts/wwccPool.sol\":1894:1920  nextBasalLast = firstBasal */\n  dup2\n  swap1\n  sstore\n  pop\n    /* \"wwcc-contracts/contracts/wwccPool.sol\":1776:1997  constructor(... */\n  pop\n  pop\n    /* \"wwcc-contracts/contracts/wwccPool.sol\":96:14413  contract WCPOOL {... */\n  jump(tag_6)\n    /* \"#utility.yul\":7:150   */\ntag_8:\n    /* \"#utility.yul\":64:69   */\n  0x00\n    /* \"#utility.yul\":95:101   */\n  dup2\n    /* \"#utility.yul\":89:102   */\n  mload\n    /* \"#utility.yul\":80:102   */\n  swap1\n  pop\n    /* \"#utility.yul\":111:144   */\n  tag_10\n    /* \"#utility.yul\":138:143   */\n  dup2\n    /* \"#utility.yul\":111:144   */\n  tag_11\n  jump\t// in\ntag_10:\n    /* \"#utility.yul\":7:150   */\n  swap3\n  swap2\n  pop\n  pop\n  jump\t// out\n    /* \"#utility.yul\":156:299   */\ntag_12:\n    /* \"#utility.yul\":213:218   */\n  0x00\n    /* \"#utility.yul\":244:250   */\n  dup2\n    /* \"#utility.yul\":238:251   */\n  mload\n    /* \"#utility.yul\":229:251   */\n  swap1\n  pop\n    /* \"#utility.yul\":260:293   */\n  tag_14\n    /* \"#utility.yul\":287:292   */\n  dup2\n    /* \"#utility.yul\":260:293   */\n  tag_15\n  jump\t// in\ntag_14:\n    /* \"#utility.yul\":156:299   */\n  swap3\n  swap2\n  pop\n  pop\n  jump\t// out\n    /* \"#utility.yul\":305:812   */\ntag_3:\n    /* \"#utility.yul\":384:390   */\n  0x00\n    /* \"#utility.yul\":392:398   */\n  dup1\n    /* \"#utility.yul\":441:443   */\n  0x40\n    /* \"#utility.yul\":429:438   */\n  dup4\n    /* \"#utility.yul\":420:427   */\n  dup6\n    /* \"#utility.yul\":416:439   */\n  sub\n    /* \"#utility.yul\":412:444   */\n  slt\n    /* \"#utility.yul\":409:528   */\n  iszero\n  tag_17\n  jumpi\n    /* \"#utility.yul\":447:526   */\n  tag_18\n  tag_19\n  jump\t// in\ntag_18:\n    /* \"#utility.yul\":409:528   */\ntag_17:\n    /* \"#utility.yul\":567:568   */\n  0x00\n    /* \"#utility.yul\":592:656   */\n  tag_20\n    /* \"#utility.yul\":648:655   */\n  dup6\n    /* \"#utility.yul\":639:645   */\n  dup3\n    /* \"#utility.yul\":628:637   */\n  dup7\n    /* \"#utility.yul\":624:646   */\n  add\n    /* \"#utility.yul\":592:656   */\n  tag_8\n  jump\t// in\ntag_20:\n    /* \"#utility.yul\":582:656   */\n  swap3\n  pop\n    /* \"#utility.yul\":538:666   */\n  pop\n    /* \"#utility.yul\":705:707   */\n  0x20\n    /* \"#utility.yul\":731:795   */\n  tag_21\n    /* \"#utility.yul\":787:794   */\n  dup6\n    /* \"#utility.yul\":778:784   */\n  dup3\n    /* \"#utility.yul\":767:776   */\n  dup7\n    /* \"#utility.yul\":763:785   */\n  add\n    /* \"#utility.yul\":731:795   */\n  tag_12\n  jump\t// in\ntag_21:\n    /* \"#utility.yul\":721:795   */\n  swap2\n  pop\n    /* \"#utility.yul\":676:805   */\n  pop\n    /* \"#utility.yul\":305:812   */\n  swap3\n  pop\n  swap3\n  swap1\n  pop\n  jump\t// out\n    /* \"#utility.yul\":899:995   */\ntag_24:\n    /* \"#utility.yul\":936:943   */\n  0x00\n    /* \"#utility.yul\":965:989   */\n  tag_26\n    /* \"#utility.yul\":983:988   */\n  dup3\n    /* \"#utility.yul\":965:989   */\n  tag_27\n  jump\t// in\ntag_26:\n    /* \"#utility.yul\":954:989   */\n  swap1\n  pop\n    /* \"#utility.yul\":899:995   */\n  swap2\n  swap1\n  pop\n  jump\t// out\n    /* \"#utility.yul\":1001:1127   */\ntag_27:\n    /* \"#utility.yul\":1038:1045   */\n  0x00\n    /* \"#utility.yul\":1078:1120   */\n  0xffffffffffffffffffffffffffffffffffffffff\n    /* \"#utility.yul\":1071:1076   */\n  dup3\n    /* \"#utility.yul\":1067:1121   */\n  and\n    /* \"#utility.yul\":1056:1121   */\n  swap1\n  pop\n    /* \"#utility.yul\":1001:1127   */\n  swap2\n  swap1\n  pop\n  jump\t// out\n    /* \"#utility.yul\":1133:1210   */\ntag_29:\n    /* \"#utility.yul\":1170:1177   */\n  0x00\n    /* \"#utility.yul\":1199:1204   */\n  dup2\n    /* \"#utility.yul\":1188:1204   */\n  swap1\n  pop\n    /* \"#utility.yul\":1133:1210   */\n  swap2\n  swap1\n  pop\n  jump\t// out\n    /* \"#utility.yul\":1339:1456   */\ntag_19:\n    /* \"#utility.yul\":1448:1449   */\n  0x00\n    /* \"#utility.yul\":1445:1446   */\n  dup1\n    /* \"#utility.yul\":1438:1450   */\n  revert\n    /* \"#utility.yul\":1462:1584   */\ntag_11:\n    /* \"#utility.yul\":1535:1559   */\n  tag_35\n    /* \"#utility.yul\":1553:1558   */\n  dup2\n    /* \"#utility.yul\":1535:1559   */\n  tag_24\n  jump\t// in\ntag_35:\n    /* \"#utility.yul\":1528:1533   */\n  dup2\n    /* \"#utility.yul\":1525:1560   */\n  eq\n    /* \"#utility.yul\":1515:1578   */\n  tag_36\n  jumpi\n    /* \"#utility.yul\":1574:1575   */\n  0x00\n    /* \"#utility.yul\":1571:1572   */\n  dup1\n    /* \"#utility.yul\":1564:1576   */\n  revert\n    /* \"#utility.yul\":1515:1578   */\ntag_36:\n    /* \"#utility.yul\":1462:1584   */\n  pop\n  jump\t// out\n    /* \"#utility.yul\":1590:1712   */\ntag_15:\n    /* \"#utility.yul\":1663:1687   */\n  tag_38\n    /* \"#utility.yul\":1681:1686   */\n  dup2\n    /* \"#utility.yul\":1663:1687   */\n  tag_29\n  jump\t// in\ntag_38:\n    /* \"#utility.yul\":1656:1661   */\n  dup2\n    /* \"#utility.yul\":1653:1688   */\n  eq\n    /* \"#utility.yul\":1643:1706   */\n  tag_39\n  jumpi\n    /* \"#utility.yul\":1702:1703   */\n  0x00\n    /* \"#utility.yul\":1699:1700   */\n  dup1\n    /* \"#utility.yul\":1692:1704   */\n  revert\n    /* \"#utility.yul\":1643:1706   */\ntag_39:\n    /* \"#utility.yul\":1590:1712   */\n  pop\n  jump\t// out\n    /* \"wwcc-contracts/contracts/wwccPool.sol\":96:14413  contract WCPOOL {... */\ntag_6:\n  dataSize(sub_0)\n  dup1\n  dataOffset(sub_0)\n  0x00\n  codecopy\n  0x00\n  return\nstop\n\nsub_0: assembly {\n        /* \"wwcc-contracts/contracts/wwccPool.sol\":96:14413  contract WCPOOL {... */\n      mstore(0x40, 0x80)\n      jumpi(tag_1, lt(calldatasize, 0x04))\n      shr(0xe0, calldataload(0x00))\n      dup1\n      0x4121855f\n      gt\n      tag_17\n      jumpi\n      dup1\n      0x9bd0abf1\n      gt\n      tag_18\n      jumpi\n      dup1\n      0x9bd0abf1\n      eq\n      tag_13\n      jumpi\n      dup1\n      0xbaf41269\n      eq\n      tag_14\n      jumpi\n      dup1\n      0xea8870c0\n      eq\n      tag_15\n      jumpi\n      dup1\n      0xf6c00927\n      eq\n      tag_16\n      jumpi\n      jump(tag_2)\n    tag_18:\n      dup1\n      0x4121855f\n      eq\n      tag_10\n      jumpi\n      dup1\n      0x47e4dd27\n      eq\n      tag_11\n      jumpi\n      dup1\n      0x74fe9bc2\n      eq\n      tag_12\n      jumpi\n      jump(tag_2)\n    tag_17:\n      dup1\n      0x2775e02c\n      gt\n      tag_19\n      jumpi\n      dup1\n      0x2775e02c\n      eq\n      tag_6\n      jumpi\n      dup1\n      0x2bf21ecc\n      eq\n      tag_7\n      jumpi\n      dup1\n      0x357965ba\n      eq\n      tag_8\n      jumpi\n      dup1\n      0x3e6ff1a2\n      eq\n      tag_9\n      jumpi\n      jump(tag_2)\n    tag_19:\n      dup1\n      0x0c66b373\n      eq\n      tag_3\n      jumpi\n      dup1\n      0x0ce49053\n      eq\n      tag_4\n      jumpi\n      dup1\n      0x22d8325c\n      eq\n      tag_5\n      jumpi\n      jump(tag_2)\n    tag_1:\n      jumpi(tag_2, calldatasize)\n        /* \"wwcc-contracts/contracts/wwccPool.sol\":14218:14223  owner */\n      0x00\n      dup1\n      sload\n      swap1\n      0x0100\n      exp\n      swap1\n      div\n      0xffffffffffffffffffffffffffffffffffffffff\n      and\n        /* \"wwcc-contracts/contracts/wwccPool.sol\":14204:14223  msg.sender != owner */\n      0xffffffffffffffffffffffffffffffffffffffff\n      and\n        /* \"wwcc-contracts/contracts/wwccPool.sol\":14204:14214  msg.sender */\n      caller\n        /* \"wwcc-contracts/contracts/wwccPool.sol\":14204:14223  msg.sender != owner */\n      0xffffffffffffffffffffffffffffffffffffffff\n      and\n      eq\n        /* \"wwcc-contracts/contracts/wwccPool.sol\":14201:14406  if(msg.sender != owner){... */\n      tag_22\n      jumpi\n        /* \"wwcc-contracts/contracts/wwccPool.sol\":14263:14295  msg.value.div(10000000000000000) */\n      tag_23\n        /* \"wwcc-contracts/contracts/wwccPool.sol\":14277:14294  10000000000000000 */\n      0x2386f26fc10000\n        /* \"wwcc-contracts/contracts/wwccPool.sol\":14263:14272  msg.value */\n      callvalue\n        /* \"wwcc-contracts/contracts/wwccPool.sol\":14263:14276  msg.value.div */\n      tag_24\n      swap1\n        /* \"wwcc-contracts/contracts/wwccPool.sol\":14263:14295  msg.value.div(10000000000000000) */\n      swap2\n      swap1\n      0xffffffff\n      and\n      jump\t// in\n    tag_23:\n        /* \"wwcc-contracts/contracts/wwccPool.sol\":14237:14247  voteAmount */\n      0x04\n        /* \"wwcc-contracts/contracts/wwccPool.sol\":14237:14259  voteAmount[msg.sender] */\n      0x00\n        /* \"wwcc-contracts/contracts/wwccPool.sol\":14248:14258  msg.sender */\n      caller\n        /* \"wwcc-contracts/contracts/wwccPool.sol\":14237:14259  voteAmount[msg.sender] */\n      0xffffffffffffffffffffffffffffffffffffffff\n      and\n      0xffffffffffffffffffffffffffffffffffffffff\n      and\n      dup2\n      mstore\n      0x20\n      add\n      swap1\n      dup2\n      mstore\n      0x20\n      add\n      0x00\n      keccak256\n      0x00\n        /* \"wwcc-contracts/contracts/wwccPool.sol\":14237:14295  voteAmount[msg.sender] += msg.value.div(10000000000000000) */\n      dup3\n      dup3\n      sload\n      tag_25\n      swap2\n      swap1\n      tag_26\n      jump\t// in\n    tag_25:\n      swap3\n      pop\n      pop\n      dup2\n      swap1\n      sstore\n      pop\n        /* \"wwcc-contracts/contracts/wwccPool.sol\":14319:14328  msg.value */\n      callvalue\n        /* \"wwcc-contracts/contracts/wwccPool.sol\":14308:14315  lastBNB */\n      0x03\n      0x00\n        /* \"wwcc-contracts/contracts/wwccPool.sol\":14308:14328  lastBNB += msg.value */\n      dup3\n      dup3\n      sload\n      tag_27\n      swap2\n      swap1\n      tag_26\n      jump\t// in\n    tag_27:\n      swap3\n      pop\n      pop\n      dup2\n      swap1\n      sstore\n      pop\n        /* \"wwcc-contracts/contracts/wwccPool.sol\":14346:14377  Received(msg.sender, msg.value) */\n      0x88a5966d370b9919b20f3e2c13ff65706f196a4e32cc2c12bf57088f88525874\n        /* \"wwcc-contracts/contracts/wwccPool.sol\":14355:14365  msg.sender */\n      caller\n        /* \"wwcc-contracts/contracts/wwccPool.sol\":14367:14376  msg.value */\n      callvalue\n        /* \"wwcc-contracts/contracts/wwccPool.sol\":14346:14377  Received(msg.sender, msg.value) */\n      mload(0x40)\n      tag_28\n      swap3\n      swap2\n      swap1\n      tag_29\n      jump\t// in\n    tag_28:\n      mload(0x40)\n      dup1\n      swap2\n      sub\n      swap1\n      log1\n        /* \"wwcc-contracts/contracts/wwccPool.sol\":14201:14406  if(msg.sender != owner){... */\n      jump(tag_30)\n    tag_22:\n    tag_30:\n        /* \"wwcc-contracts/contracts/wwccPool.sol\":96:14413  contract WCPOOL {... */\n      stop\n    tag_2:\n      0x00\n      dup1\n      revert\n        /* \"wwcc-contracts/contracts/wwccPool.sol\":7098:7194  function getLastBNB() external onlyManager view returns (uint256){... */\n    tag_3:\n      callvalue\n      dup1\n      iszero\n      tag_31\n      jumpi\n      0x00\n      dup1\n      revert\n    tag_31:\n      pop\n      tag_32\n      tag_33\n      jump\t// in\n    tag_32:\n      mload(0x40)\n      tag_34\n      swap2\n      swap1\n      tag_35\n      jump\t// in\n    tag_34:\n      mload(0x40)\n      dup1\n      swap2\n      sub\n      swap1\n      return\n        /* \"wwcc-contracts/contracts/wwccPool.sol\":5437:6116  function Withdrawal(address toAddress,bytes32 poolKey) external onlyManager payable returns (bool){... */\n    tag_4:\n      tag_36\n      0x04\n      dup1\n      calldatasize\n      sub\n      dup2\n      add\n      swap1\n      tag_37\n      swap2\n      swap1\n      tag_38\n      jump\t// in\n    tag_37:\n      tag_39\n      jump\t// in\n    tag_36:\n      mload(0x40)\n      tag_40\n      swap2\n      swap1\n      tag_41\n      jump\t// in\n    tag_40:\n      mload(0x40)\n      dup1\n      swap2\n      sub\n      swap1\n      return\n        /* \"wwcc-contracts/contracts/wwccPool.sol\":4313:4817  function Test(address joiner,uint256 weight,bytes32 poolKey,uint256 homeScore,uint256 visitScore,uint256 kind) external returns(bool){... */\n    tag_5:\n      callvalue\n      dup1\n      iszero\n      tag_42\n      jumpi\n      0x00\n      dup1\n      revert\n    tag_42:\n      pop\n      tag_43\n      0x04\n      dup1\n      calldatasize\n      sub\n      dup2\n      add\n      swap1\n      tag_44\n      swap2\n      swap1\n      tag_45\n      jump\t// in\n    tag_44:\n      tag_46\n      jump\t// in\n    tag_43:\n      mload(0x40)\n      tag_47\n      swap2\n      swap1\n      tag_41\n      jump\t// in\n    tag_47:\n      mload(0x40)\n      dup1\n      swap2\n      sub\n      swap1\n      return\n        /* \"wwcc-contracts/contracts/wwccPool.sol\":11042:11286  function withdrawBNBInContract(address toAddress)external onlyManager payable returns(bool){... */\n    tag_6:\n      tag_48\n      0x04\n      dup1\n      calldatasize\n      sub\n      dup2\n      add\n      swap1\n      tag_49\n      swap2\n      swap1\n      tag_50\n      jump\t// in\n    tag_49:\n      tag_51\n      jump\t// in\n    tag_48:\n      mload(0x40)\n      tag_52\n      swap2\n      swap1\n      tag_41\n      jump\t// in\n    tag_52:\n      mload(0x40)\n      dup1\n      swap2\n      sub\n      swap1\n      return\n        /* \"wwcc-contracts/contracts/wwccPool.sol\":4872:5394  function Set_Basal(bytes32 poolKey,uint256 basal) external onlyManager  returns (bool){... */\n    tag_7:\n      callvalue\n      dup1\n      iszero\n      tag_53\n      jumpi\n      0x00\n      dup1\n      revert\n    tag_53:\n      pop\n      tag_54\n      0x04\n      dup1\n      calldatasize\n      sub\n      dup2\n      add\n      swap1\n      tag_55\n      swap2\n      swap1\n      tag_56\n      jump\t// in\n    tag_55:\n      tag_57\n      jump\t// in\n    tag_54:\n      mload(0x40)\n      tag_58\n      swap2\n      swap1\n      tag_41\n      jump\t// in\n    tag_58:\n      mload(0x40)\n      dup1\n      swap2\n      sub\n      swap1\n      return\n        /* \"wwcc-contracts/contracts/wwccPool.sol\":2039:2959  function Set_Pool(... */\n    tag_8:\n      callvalue\n      dup1\n      iszero\n      tag_59\n      jumpi\n      0x00\n      dup1\n      revert\n    tag_59:\n      pop\n      tag_60\n      0x04\n      dup1\n      calldatasize\n      sub\n      dup2\n      add\n      swap1\n      tag_61\n      swap2\n      swap1\n      tag_62\n      jump\t// in\n    tag_61:\n      tag_63\n      jump\t// in\n    tag_60:\n      mload(0x40)\n      tag_64\n      swap2\n      swap1\n      tag_65\n      jump\t// in\n    tag_64:\n      mload(0x40)\n      dup1\n      swap2\n      sub\n      swap1\n      return\n        /* \"wwcc-contracts/contracts/wwccPool.sol\":7256:7362  function CheckBasal() external onlyManager view  returns (uint256){... */\n    tag_9:\n      callvalue\n      dup1\n      iszero\n      tag_66\n      jumpi\n      0x00\n      dup1\n      revert\n    tag_66:\n      pop\n      tag_67\n      tag_68\n      jump\t// in\n    tag_67:\n      mload(0x40)\n      tag_69\n      swap2\n      swap1\n      tag_35\n      jump\t// in\n    tag_69:\n      mload(0x40)\n      dup1\n      swap2\n      sub\n      swap1\n      return\n        /* \"wwcc-contracts/contracts/wwccPool.sol\":6632:6990  function CheckExpect(bytes32 poolKey) external onlyManager view  returns (uint256){... */\n    tag_10:\n      callvalue\n      dup1\n      iszero\n      tag_70\n      jumpi\n      0x00\n      dup1\n      revert\n    tag_70:\n      pop\n      tag_71\n      0x04\n      dup1\n      calldatasize\n      sub\n      dup2\n      add\n      swap1\n      tag_72\n      swap2\n      swap1\n      tag_73\n      jump\t// in\n    tag_72:\n      tag_74\n      jump\t// in\n    tag_71:\n      mload(0x40)\n      tag_75\n      swap2\n      swap1\n      tag_35\n      jump\t// in\n    tag_75:\n      mload(0x40)\n      dup1\n      swap2\n      sub\n      swap1\n      return\n        /* \"wwcc-contracts/contracts/wwccPool.sol\":2982:4308  function Picking(address joiner,uint256 weight,bytes32 poolKey,uint256 homeScore,uint256 visitScore,uint256 kind) external returns(bool){... */\n    tag_11:\n      callvalue\n      dup1\n      iszero\n      tag_76\n      jumpi\n      0x00\n      dup1\n      revert\n    tag_76:\n      pop\n      tag_77\n      0x04\n      dup1\n      calldatasize\n      sub\n      dup2\n      add\n      swap1\n      tag_78\n      swap2\n      swap1\n      tag_45\n      jump\t// in\n    tag_78:\n      tag_79\n      jump\t// in\n    tag_77:\n      mload(0x40)\n      tag_80\n      swap2\n      swap1\n      tag_41\n      jump\t// in\n    tag_80:\n      mload(0x40)\n      dup1\n      swap2\n      sub\n      swap1\n      return\n        /* \"wwcc-contracts/contracts/wwccPool.sol\":7580:11037  function Award(bytes32 poolKey,uint256 homeScore,uint256 visitScore,uint256 result)  external onlyManager  payable returns(bool){... */\n    tag_12:\n      tag_81\n      0x04\n      dup1\n      calldatasize\n      sub\n      dup2\n      add\n      swap1\n      tag_82\n      swap2\n      swap1\n      tag_83\n      jump\t// in\n    tag_82:\n      tag_84\n      jump\t// in\n    tag_81:\n      mload(0x40)\n      tag_85\n      swap2\n      swap1\n      tag_41\n      jump\t// in\n    tag_85:\n      mload(0x40)\n      dup1\n      swap2\n      sub\n      swap1\n      return\n        /* \"wwcc-contracts/contracts/wwccPool.sol\":6177:6567  function voteWithdrawal(address joiner,uint256 amount) external onlyManager payable returns (bool){... */\n    tag_13:\n      tag_86\n      0x04\n      dup1\n      calldatasize\n      sub\n      dup2\n      add\n      swap1\n      tag_87\n      swap2\n      swap1\n      tag_88\n      jump\t// in\n    tag_87:\n      tag_89\n      jump\t// in\n    tag_86:\n      mload(0x40)\n      tag_90\n      swap2\n      swap1\n      tag_41\n      jump\t// in\n    tag_90:\n      mload(0x40)\n      dup1\n      swap2\n      sub\n      swap1\n      return\n        /* \"wwcc-contracts/contracts/wwccPool.sol\":7404:7509  function CheckVoteTickets() external view returns (uint256){... */\n    tag_14:\n      callvalue\n      dup1\n      iszero\n      tag_91\n      jumpi\n      0x00\n      dup1\n      revert\n    tag_91:\n      pop\n      tag_92\n      tag_93\n      jump\t// in\n    tag_92:\n      mload(0x40)\n      tag_94\n      swap2\n      swap1\n      tag_35\n      jump\t// in\n    tag_94:\n      mload(0x40)\n      dup1\n      swap2\n      sub\n      swap1\n      return\n        /* \"wwcc-contracts/contracts/wwccPool.sol\":6995:7093  function getAllPoolKeys() external view returns (bytes32[] memory){... */\n    tag_15:\n      callvalue\n      dup1\n      iszero\n      tag_95\n      jumpi\n      0x00\n      dup1\n      revert\n    tag_95:\n      pop\n      tag_96\n      tag_97\n      jump\t// in\n    tag_96:\n      mload(0x40)\n      tag_98\n      swap2\n      swap1\n      tag_99\n      jump\t// in\n    tag_98:\n      mload(0x40)\n      dup1\n      swap2\n      sub\n      swap1\n      return\n        /* \"wwcc-contracts/contracts/wwccPool.sol\":11336:11984  function getPool(bytes32 poolKey) external view returns (string memory vs,string memory rounds,PoolViewInfo memory viewInfo){... */\n    tag_16:\n      callvalue\n      dup1\n      iszero\n      tag_100\n      jumpi\n      0x00\n      dup1\n      revert\n    tag_100:\n      pop\n      tag_101\n      0x04\n      dup1\n      calldatasize\n      sub\n      dup2\n      add\n      swap1\n      tag_102\n      swap2\n      swap1\n      tag_73\n      jump\t// in\n    tag_102:\n      tag_103\n      jump\t// in\n    tag_101:\n      mload(0x40)\n      tag_104\n      swap4\n      swap3\n      swap2\n      swap1\n      tag_105\n      jump\t// in\n    tag_104:\n      mload(0x40)\n      dup1\n      swap2\n      sub\n      swap1\n      return\n        /* \"wwcc-contracts/contracts/safemath.sol\":274:417  function div(uint256 a, uint256 b) internal pure returns (uint256) {... */\n    tag_24:\n        /* \"wwcc-contracts/contracts/safemath.sol\":332:339  uint256 */\n      0x00\n        /* \"wwcc-contracts/contracts/safemath.sol\":363:364  0 */\n      dup1\n        /* \"wwcc-contracts/contracts/safemath.sol\":359:360  b */\n      dup3\n        /* \"wwcc-contracts/contracts/safemath.sol\":359:364  b > 0 */\n      gt\n        /* \"wwcc-contracts/contracts/safemath.sol\":351:365  require(b > 0) */\n      tag_107\n      jumpi\n      0x00\n      dup1\n      revert\n    tag_107:\n        /* \"wwcc-contracts/contracts/safemath.sol\":375:384  uint256 c */\n      0x00\n        /* \"wwcc-contracts/contracts/safemath.sol\":391:392  b */\n      dup3\n        /* \"wwcc-contracts/contracts/safemath.sol\":387:388  a */\n      dup5\n        /* \"wwcc-contracts/contracts/safemath.sol\":387:392  a / b */\n      tag_108\n      swap2\n      swap1\n      tag_109\n      jump\t// in\n    tag_108:\n        /* \"wwcc-contracts/contracts/safemath.sol\":375:392  uint256 c = a / b */\n      swap1\n      pop\n        /* \"wwcc-contracts/contracts/safemath.sol\":409:410  c */\n      dup1\n        /* \"wwcc-contracts/contracts/safemath.sol\":402:410  return c */\n      swap2\n      pop\n      pop\n        /* \"wwcc-contracts/contracts/safemath.sol\":274:417  function div(uint256 a, uint256 b) internal pure returns (uint256) {... */\n      swap3\n      swap2\n      pop\n      pop\n      jump\t// out\n        /* \"wwcc-contracts/contracts/wwccPool.sol\":7098:7194  function getLastBNB() external onlyManager view returns (uint256){... */\n    tag_33:\n        /* \"wwcc-contracts/contracts/wwccPool.sol\":7155:7162  uint256 */\n      0x00\n        /* \"wwcc-contracts/contracts/wwccPool.sol\":14034:14039  owner */\n      dup1\n      0x00\n      swap1\n      sload\n      swap1\n      0x0100\n      exp\n      swap1\n      div\n      0xffffffffffffffffffffffffffffffffffffffff\n      and\n        /* \"wwcc-contracts/contracts/wwccPool.sol\":14020:14039  msg.sender == owner */\n      0xffffffffffffffffffffffffffffffffffffffff\n      and\n        /* \"wwcc-contracts/contracts/wwccPool.sol\":14020:14030  msg.sender */\n      caller\n        /* \"wwcc-contracts/contracts/wwccPool.sol\":14020:14039  msg.sender == owner */\n      0xffffffffffffffffffffffffffffffffffffffff\n      and\n      eq\n        /* \"wwcc-contracts/contracts/wwccPool.sol\":13999:14090  require(... */\n      tag_111\n      jumpi\n      mload(0x40)\n      0x08c379a000000000000000000000000000000000000000000000000000000000\n      dup2\n      mstore\n      0x04\n      add\n      tag_112\n      swap1\n      tag_113\n      jump\t// in\n    tag_112:\n      mload(0x40)\n      dup1\n      swap2\n      sub\n      swap1\n      revert\n    tag_111:\n        /* \"wwcc-contracts/contracts/wwccPool.sol\":7180:7187  lastBNB */\n      sload(0x03)\n        /* \"wwcc-contracts/contracts/wwccPool.sol\":7173:7187  return lastBNB */\n      swap1\n      pop\n        /* \"wwcc-contracts/contracts/wwccPool.sol\":7098:7194  function getLastBNB() external onlyManager view returns (uint256){... */\n      swap1\n      jump\t// out\n        /* \"wwcc-contracts/contracts/wwccPool.sol\":5437:6116  function Withdrawal(address toAddress,bytes32 poolKey) external onlyManager payable returns (bool){... */\n    tag_39:\n        /* \"wwcc-contracts/contracts/wwccPool.sol\":5530:5534  bool */\n      0x00\n        /* \"wwcc-contracts/contracts/wwccPool.sol\":14034:14039  owner */\n      dup1\n      0x00\n      swap1\n      sload\n      swap1\n      0x0100\n      exp\n      swap1\n      div\n      0xffffffffffffffffffffffffffffffffffffffff\n      and\n        /* \"wwcc-contracts/contracts/wwccPool.sol\":14020:14039  msg.sender == owner */\n      0xffffffffffffffffffffffffffffffffffffffff\n      and\n        /* \"wwcc-contracts/contracts/wwccPool.sol\":14020:14030  msg.sender */\n      caller\n        /* \"wwcc-contracts/contracts/wwccPool.sol\":14020:14039  msg.sender == owner */\n      0xffffffffffffffffffffffffffffffffffffffff\n      and\n      eq\n        /* \"wwcc-contracts/contracts/wwccPool.sol\":13999:14090  require(... */\n      tag_116\n      jumpi\n      mload(0x40)\n      0x08c379a000000000000000000000000000000000000000000000000000000000\n      dup2\n      mstore\n      0x04\n      add\n      tag_117\n      swap1\n      tag_113\n      jump\t// in\n    tag_117:\n      mload(0x40)\n      dup1\n      swap2\n      sub\n      swap1\n      revert\n    tag_116:\n        /* \"wwcc-contracts/contracts/wwccPool.sol\":5552:5569  contains(poolKey) */\n      tag_119\n        /* \"wwcc-contracts/contracts/wwccPool.sol\":5561:5568  poolKey */\n      dup3\n        /* \"wwcc-contracts/contracts/wwccPool.sol\":5552:5560  contains */\n      tag_120\n        /* \"wwcc-contracts/contracts/wwccPool.sol\":5552:5569  contains(poolKey) */\n      jump\t// in\n    tag_119:\n        /* \"wwcc-contracts/contracts/wwccPool.sol\":5548:6086  if(!contains(poolKey)) { ... */\n      tag_121\n      jumpi\n        /* \"wwcc-contracts/contracts/wwccPool.sol\":5590:5614  revert(\"pool not exist\") */\n      mload(0x40)\n      0x08c379a000000000000000000000000000000000000000000000000000000000\n      dup2\n      mstore\n      0x04\n      add\n      tag_122\n      swap1\n      tag_123\n      jump\t// in\n    tag_122:\n      mload(0x40)\n      dup1\n      swap2\n      sub\n      swap1\n      revert\n        /* \"wwcc-contracts/contracts/wwccPool.sol\":5548:6086  if(!contains(poolKey)) { ... */\n    tag_121:\n        /* \"wwcc-contracts/contracts/wwccPool.sol\":5650:5668  WcPool memory pool */\n      0x00\n        /* \"wwcc-contracts/contracts/wwccPool.sol\":5671:5678  WcPools */\n      0x05\n        /* \"wwcc-contracts/contracts/wwccPool.sol\":5671:5687  WcPools[poolKey] */\n      0x00\n        /* \"wwcc-contracts/contracts/wwccPool.sol\":5679:5686  poolKey */\n      dup5\n        /* \"wwcc-contracts/contracts/wwccPool.sol\":5671:5687  WcPools[poolKey] */\n      dup2\n      mstore\n      0x20\n      add\n      swap1\n      dup2\n      mstore\n      0x20\n      add\n      0x00\n      keccak256\n        /* \"wwcc-contracts/contracts/wwccPool.sol\":5650:5687  WcPool memory pool = WcPools[poolKey] */\n      mload(0x40)\n      dup1\n      0x0160\n      add\n      0x40\n      mstore\n      swap1\n      dup2\n      0x00\n      dup3\n      add\n      dup1\n      sload\n      tag_125\n      swap1\n      tag_126\n      jump\t// in\n    tag_125:\n      dup1\n      0x1f\n      add\n      0x20\n      dup1\n      swap2\n      div\n      mul\n      0x20\n      add\n      mload(0x40)\n      swap1\n      dup2\n      add\n      0x40\n      mstore\n      dup1\n      swap3\n      swap2\n      swap1\n      dup2\n      dup2\n      mstore\n      0x20\n      add\n      dup3\n      dup1\n      sload\n      tag_127\n      swap1\n      tag_126\n      jump\t// in\n    tag_127:\n      dup1\n      iszero\n      tag_128\n      jumpi\n      dup1\n      0x1f\n      lt\n      tag_129\n      jumpi\n      0x0100\n      dup1\n      dup4\n      sload\n      div\n      mul\n      dup4\n      mstore\n      swap2\n      0x20\n      add\n      swap2\n      jump(tag_128)\n    tag_129:\n      dup3\n      add\n      swap2\n      swap1\n      0x00\n      mstore\n      keccak256(0x00, 0x20)\n      swap1\n    tag_130:\n      dup2\n      sload\n      dup2\n      mstore\n      swap1\n      0x01\n      add\n      swap1\n      0x20\n      add\n      dup1\n      dup4\n      gt\n      tag_130\n      jumpi\n      dup3\n      swap1\n      sub\n      0x1f\n      and\n      dup3\n      add\n      swap2\n    tag_128:\n      pop\n      pop\n      pop\n      pop\n      pop\n      dup2\n      mstore\n      0x20\n      add\n      0x01\n      dup3\n      add\n      dup1\n      sload\n      tag_131\n      swap1\n      tag_126\n      jump\t// in\n    tag_131:\n      dup1\n      0x1f\n      add\n      0x20\n      dup1\n      swap2\n      div\n      mul\n      0x20\n      add\n      mload(0x40)\n      swap1\n      dup2\n      add\n      0x40\n      mstore\n      dup1\n      swap3\n      swap2\n      swap1\n      dup2\n      dup2\n      mstore\n      0x20\n      add\n      dup3\n      dup1\n      sload\n      tag_132\n      swap1\n      tag_126\n      jump\t// in\n    tag_132:\n      dup1\n      iszero\n      tag_133\n      jumpi\n      dup1\n      0x1f\n      lt\n      tag_134\n      jumpi\n      0x0100\n      dup1\n      dup4\n      sload\n      div\n      mul\n      dup4\n      mstore\n      swap2\n      0x20\n      add\n      swap2\n      jump(tag_133)\n    tag_134:\n      dup3\n      add\n      swap2\n      swap1\n      0x00\n      mstore\n      keccak256(0x00, 0x20)\n      swap1\n    tag_135:\n      dup2\n      sload\n      dup2\n      mstore\n      swap1\n      0x01\n      add\n      swap1\n      0x20\n      add\n      dup1\n      dup4\n      gt\n      tag_135\n      jumpi\n      dup3\n      swap1\n      sub\n      0x1f\n      and\n      dup3\n      add\n      swap2\n    tag_133:\n      pop\n      pop\n      pop\n      pop\n      pop\n      dup2\n      mstore\n      0x20\n      add\n      0x02\n      dup3\n      add\n      dup1\n      sload\n      tag_136\n      swap1\n      tag_126\n      jump\t// in\n    tag_136:\n      dup1\n      0x1f\n      add\n      0x20\n      dup1\n      swap2\n      div\n      mul\n      0x20\n      add\n      mload(0x40)\n      swap1\n      dup2\n      add\n      0x40\n      mstore\n      dup1\n      swap3\n      swap2\n      swap1\n      dup2\n      dup2\n      mstore\n      0x20\n      add\n      dup3\n      dup1\n      sload\n      tag_137\n      swap1\n      tag_126\n      jump\t// in\n    tag_137:\n      dup1\n      iszero\n      tag_138\n      jumpi\n      dup1\n      0x1f\n      lt\n      tag_139\n      jumpi\n      0x0100\n      dup1\n      dup4\n      sload\n      div\n      mul\n      dup4\n      mstore\n      swap2\n      0x20\n      add\n      swap2\n      jump(tag_138)\n    tag_139:\n      dup3\n      add\n      swap2\n      swap1\n      0x00\n      mstore\n      keccak256(0x00, 0x20)\n      swap1\n    tag_140:\n      dup2\n      sload\n      dup2\n      mstore\n      swap1\n      0x01\n      add\n      swap1\n      0x20\n      add\n      dup1\n      dup4\n      gt\n      tag_140\n      jumpi\n      dup3\n      swap1\n      sub\n      0x1f\n      and\n      dup3\n      add\n      swap2\n    tag_138:\n      pop\n      pop\n      pop\n      pop\n      pop\n      dup2\n      mstore\n      0x20\n      add\n      0x03\n      dup3\n      add\n      sload\n      dup2\n      mstore\n      0x20\n      add\n      0x04\n      dup3\n      add\n      sload\n      dup2\n      mstore\n      0x20\n      add\n      0x05\n      dup3\n      add\n      sload\n      dup2\n      mstore\n      0x20\n      add\n      0x06\n      dup3\n      add\n      sload\n      dup2\n      mstore\n      0x20\n      add\n      0x07\n      dup3\n      add\n      sload\n      dup2\n      mstore\n      0x20\n      add\n      0x08\n      dup3\n      add\n      0x00\n      swap1\n      sload\n      swap1\n      0x0100\n      exp\n      swap1\n      div\n      0xff\n      and\n      iszero\n      iszero\n      iszero\n      iszero\n      dup2\n      mstore\n      0x20\n      add\n      0x08\n      dup3\n      add\n      0x01\n      swap1\n      sload\n      swap1\n      0x0100\n      exp\n      swap1\n      div\n      0xff\n      and\n      iszero\n      iszero\n      iszero\n      iszero\n      dup2\n      mstore\n      0x20\n      add\n      0x08\n      dup3\n      add\n      0x02\n      swap1\n      sload\n      swap1\n      0x0100\n      exp\n      swap1\n      div\n      0xff\n      and\n      iszero\n      iszero\n      iszero\n      iszero\n      dup2\n      mstore\n      pop\n      pop\n      swap1\n      pop\n        /* \"wwcc-contracts/contracts/wwccPool.sol\":5705:5719  uint256 expect */\n      0x00\n        /* \"wwcc-contracts/contracts/wwccPool.sol\":5722:5788  (pool.wPool+pool.lPool+pool.dPool+pool.sPool + pool.basal).div(10) */\n      tag_141\n        /* \"wwcc-contracts/contracts/wwccPool.sol\":5785:5787  10 */\n      0x0a\n        /* \"wwcc-contracts/contracts/wwccPool.sol\":5769:5773  pool */\n      dup4\n        /* \"wwcc-contracts/contracts/wwccPool.sol\":5769:5779  pool.basal */\n      0xe0\n      add\n      mload\n        /* \"wwcc-contracts/contracts/wwccPool.sol\":5756:5760  pool */\n      dup5\n        /* \"wwcc-contracts/contracts/wwccPool.sol\":5756:5766  pool.sPool */\n      0xc0\n      add\n      mload\n        /* \"wwcc-contracts/contracts/wwccPool.sol\":5745:5749  pool */\n      dup6\n        /* \"wwcc-contracts/contracts/wwccPool.sol\":5745:5755  pool.dPool */\n      0x80\n      add\n      mload\n        /* \"wwcc-contracts/contracts/wwccPool.sol\":5734:5738  pool */\n      dup7\n        /* \"wwcc-contracts/contracts/wwccPool.sol\":5734:5744  pool.lPool */\n      0xa0\n      add\n      mload\n        /* \"wwcc-contracts/contracts/wwccPool.sol\":5723:5727  pool */\n      dup8\n        /* \"wwcc-contracts/contracts/wwccPool.sol\":5723:5733  pool.wPool */\n      0x60\n      add\n      mload\n        /* \"wwcc-contracts/contracts/wwccPool.sol\":5723:5744  pool.wPool+pool.lPool */\n      tag_142\n      swap2\n      swap1\n      tag_26\n      jump\t// in\n    tag_142:\n        /* \"wwcc-contracts/contracts/wwccPool.sol\":5723:5755  pool.wPool+pool.lPool+pool.dPool */\n      tag_143\n      swap2\n      swap1\n      tag_26\n      jump\t// in\n    tag_143:\n        /* \"wwcc-contracts/contracts/wwccPool.sol\":5723:5766  pool.wPool+pool.lPool+pool.dPool+pool.sPool */\n      tag_144\n      swap2\n      swap1\n      tag_26\n      jump\t// in\n    tag_144:\n        /* \"wwcc-contracts/contracts/wwccPool.sol\":5723:5779  pool.wPool+pool.lPool+pool.dPool+pool.sPool + pool.basal */\n      tag_145\n      swap2\n      swap1\n      tag_26\n      jump\t// in\n    tag_145:\n        /* \"wwcc-contracts/contracts/wwccPool.sol\":5722:5784  (pool.wPool+pool.lPool+pool.dPool+pool.sPool + pool.basal).div */\n      tag_24\n      swap1\n        /* \"wwcc-contracts/contracts/wwccPool.sol\":5722:5788  (pool.wPool+pool.lPool+pool.dPool+pool.sPool + pool.basal).div(10) */\n      swap2\n      swap1\n      0xffffffff\n      and\n      jump\t// in\n    tag_141:\n        /* \"wwcc-contracts/contracts/wwccPool.sol\":5705:5788  uint256 expect = (pool.wPool+pool.lPool+pool.dPool+pool.sPool + pool.basal).div(10) */\n      swap1\n      pop\n        /* \"wwcc-contracts/contracts/wwccPool.sol\":5826:5830  true */\n      0x01\n        /* \"wwcc-contracts/contracts/wwccPool.sol\":5810:5814  pool */\n      dup3\n        /* \"wwcc-contracts/contracts/wwccPool.sol\":5810:5823  pool.finished */\n      0x0140\n      add\n        /* \"wwcc-contracts/contracts/wwccPool.sol\":5810:5830  pool.finished = true */\n      swap1\n      iszero\n      iszero\n      swap1\n      dup2\n      iszero\n      iszero\n      dup2\n      mstore\n      pop\n        /* \"wwcc-contracts/contracts/wwccPool.sol\":5806:6058  if (pool.finished = true){... */\n      iszero\n      tag_146\n      jumpi\n        /* \"wwcc-contracts/contracts/wwccPool.sol\":5853:5886  address payable toAddress_address */\n      0x00\n        /* \"wwcc-contracts/contracts/wwccPool.sol\":5897:5906  toAddress */\n      dup6\n        /* \"wwcc-contracts/contracts/wwccPool.sol\":5853:5907  address payable toAddress_address = payable(toAddress) */\n      swap1\n      pop\n        /* \"wwcc-contracts/contracts/wwccPool.sol\":5929:5946  toAddress_address */\n      dup1\n        /* \"wwcc-contracts/contracts/wwccPool.sol\":5929:5955  toAddress_address.transfer */\n      0xffffffffffffffffffffffffffffffffffffffff\n      and\n        /* \"wwcc-contracts/contracts/wwccPool.sol\":5929:5963  toAddress_address.transfer(expect) */\n      0x08fc\n        /* \"wwcc-contracts/contracts/wwccPool.sol\":5956:5962  expect */\n      dup4\n        /* \"wwcc-contracts/contracts/wwccPool.sol\":5929:5963  toAddress_address.transfer(expect) */\n      swap1\n      dup2\n      iszero\n      mul\n      swap1\n      mload(0x40)\n      0x00\n      mload(0x40)\n      dup1\n      dup4\n      sub\n      dup2\n      dup6\n      dup9\n      dup9\n      call\n      swap4\n      pop\n      pop\n      pop\n      pop\n      iszero\n      dup1\n      iszero\n      tag_148\n      jumpi\n      returndatasize\n      0x00\n      dup1\n      returndatacopy\n      revert(0x00, returndatasize)\n    tag_148:\n      pop\n        /* \"wwcc-contracts/contracts/wwccPool.sol\":5831:5982  {... */\n      pop\n        /* \"wwcc-contracts/contracts/wwccPool.sol\":5806:6058  if (pool.finished = true){... */\n      jump(tag_149)\n    tag_146:\n        /* \"wwcc-contracts/contracts/wwccPool.sol\":6008:6039  revert(\"pool has not finished\") */\n      mload(0x40)\n      0x08c379a000000000000000000000000000000000000000000000000000000000\n      dup2\n      mstore\n      0x04\n      add\n      tag_150\n      swap1\n      tag_151\n      jump\t// in\n    tag_150:\n      mload(0x40)\n      dup1\n      swap2\n      sub\n      swap1\n      revert\n        /* \"wwcc-contracts/contracts/wwccPool.sol\":5806:6058  if (pool.finished = true){... */\n    tag_149:\n        /* \"wwcc-contracts/contracts/wwccPool.sol\":5632:6086  {... */\n      pop\n      pop\n        /* \"wwcc-contracts/contracts/wwccPool.sol\":6105:6109  true */\n      0x01\n        /* \"wwcc-contracts/contracts/wwccPool.sol\":6098:6109  return true */\n      swap1\n      pop\n        /* \"wwcc-contracts/contracts/wwccPool.sol\":5437:6116  function Withdrawal(address toAddress,bytes32 poolKey) external onlyManager payable returns (bool){... */\n      swap3\n      swap2\n      pop\n      pop\n      jump\t// out\n        /* \"wwcc-contracts/contracts/wwccPool.sol\":4313:4817  function Test(address joiner,uint256 weight,bytes32 poolKey,uint256 homeScore,uint256 visitScore,uint256 kind) external returns(bool){... */\n    tag_46:\n        /* \"wwcc-contracts/contracts/wwccPool.sol\":4441:4445  bool */\n      0x00\n        /* \"wwcc-contracts/contracts/wwccPool.sol\":4460:4477  contains(poolKey) */\n      tag_153\n        /* \"wwcc-contracts/contracts/wwccPool.sol\":4469:4476  poolKey */\n      dup6\n        /* \"wwcc-contracts/contracts/wwccPool.sol\":4460:4468  contains */\n      tag_120\n        /* \"wwcc-contracts/contracts/wwccPool.sol\":4460:4477  contains(poolKey) */\n      jump\t// in\n    tag_153:\n        /* \"wwcc-contracts/contracts/wwccPool.sol\":4456:4789  if(!contains(poolKey)) { ... */\n      tag_154\n      jumpi\n        /* \"wwcc-contracts/contracts/wwccPool.sol\":4494:4518  revert(\"pool not exist\") */\n      mload(0x40)\n      0x08c379a000000000000000000000000000000000000000000000000000000000\n      dup2\n      mstore\n      0x04\n      add\n      tag_155\n      swap1\n      tag_123\n      jump\t// in\n    tag_155:\n      mload(0x40)\n      dup1\n      swap2\n      sub\n      swap1\n      revert\n        /* \"wwcc-contracts/contracts/wwccPool.sol\":4456:4789  if(!contains(poolKey)) { ... */\n    tag_154:\n        /* \"wwcc-contracts/contracts/wwccPool.sol\":4567:4573  weight */\n      dup6\n        /* \"wwcc-contracts/contracts/wwccPool.sol\":4548:4558  voteAmount */\n      0x04\n        /* \"wwcc-contracts/contracts/wwccPool.sol\":4548:4566  voteAmount[joiner] */\n      0x00\n        /* \"wwcc-contracts/contracts/wwccPool.sol\":4559:4565  joiner */\n      dup10\n        /* \"wwcc-contracts/contracts/wwccPool.sol\":4548:4566  voteAmount[joiner] */\n      0xffffffffffffffffffffffffffffffffffffffff\n      and\n      0xffffffffffffffffffffffffffffffffffffffff\n      and\n      dup2\n      mstore\n      0x20\n      add\n      swap1\n      dup2\n      mstore\n      0x20\n      add\n      0x00\n      keccak256\n      sload\n        /* \"wwcc-contracts/contracts/wwccPool.sol\":4548:4573  voteAmount[joiner]<weight */\n      lt\n        /* \"wwcc-contracts/contracts/wwccPool.sol\":4545:4636  if(voteAmount[joiner]<weight){... */\n      iszero\n      tag_157\n      jumpi\n        /* \"wwcc-contracts/contracts/wwccPool.sol\":4591:4622  revert(\"not enough voteAmount\") */\n      mload(0x40)\n      0x08c379a000000000000000000000000000000000000000000000000000000000\n      dup2\n      mstore\n      0x04\n      add\n      tag_158\n      swap1\n      tag_159\n      jump\t// in\n    tag_158:\n      mload(0x40)\n      dup1\n      swap2\n      sub\n      swap1\n      revert\n        /* \"wwcc-contracts/contracts/wwccPool.sol\":4545:4636  if(voteAmount[joiner]<weight){... */\n    tag_157:\n        /* \"wwcc-contracts/contracts/wwccPool.sol\":4645:4663  WcPool memory pool */\n      0x00\n        /* \"wwcc-contracts/contracts/wwccPool.sol\":4666:4673  WcPools */\n      0x05\n        /* \"wwcc-contracts/contracts/wwccPool.sol\":4666:4682  WcPools[poolKey] */\n      0x00\n        /* \"wwcc-contracts/contracts/wwccPool.sol\":4674:4681  poolKey */\n      dup8\n        /* \"wwcc-contracts/contracts/wwccPool.sol\":4666:4682  WcPools[poolKey] */\n      dup2\n      mstore\n      0x20\n      add\n      swap1\n      dup2\n      mstore\n      0x20\n      add\n      0x00\n      keccak256\n        /* \"wwcc-contracts/contracts/wwccPool.sol\":4645:4682  WcPool memory pool = WcPools[poolKey] */\n      mload(0x40)\n      dup1\n      0x0160\n      add\n      0x40\n      mstore\n      swap1\n      dup2\n      0x00\n      dup3\n      add\n      dup1\n      sload\n      tag_160\n      swap1\n      tag_126\n      jump\t// in\n    tag_160:\n      dup1\n      0x1f\n      add\n      0x20\n      dup1\n      swap2\n      div\n      mul\n      0x20\n      add\n      mload(0x40)\n      swap1\n      dup2\n      add\n      0x40\n      mstore\n      dup1\n      swap3\n      swap2\n      swap1\n      dup2\n      dup2\n      mstore\n      0x20\n      add\n      dup3\n      dup1\n      sload\n      tag_161\n      swap1\n      tag_126\n      jump\t// in\n    tag_161:\n      dup1\n      iszero\n      tag_162\n      jumpi\n      dup1\n      0x1f\n      lt\n      tag_163\n      jumpi\n      0x0100\n      dup1\n      dup4\n      sload\n      div\n      mul\n      dup4\n      mstore\n      swap2\n      0x20\n      add\n      swap2\n      jump(tag_162)\n    tag_163:\n      dup3\n      add\n      swap2\n      swap1\n      0x00\n      mstore\n      keccak256(0x00, 0x20)\n      swap1\n    tag_164:\n      dup2\n      sload\n      dup2\n      mstore\n      swap1\n      0x01\n      add\n      swap1\n      0x20\n      add\n      dup1\n      dup4\n      gt\n      tag_164\n      jumpi\n      dup3\n      swap1\n      sub\n      0x1f\n      and\n      dup3\n      add\n      swap2\n    tag_162:\n      pop\n      pop\n      pop\n      pop\n      pop\n      dup2\n      mstore\n      0x20\n      add\n      0x01\n      dup3\n      add\n      dup1\n      sload\n      tag_165\n      swap1\n      tag_126\n      jump\t// in\n    tag_165:\n      dup1\n      0x1f\n      add\n      0x20\n      dup1\n      swap2\n      div\n      mul\n      0x20\n      add\n      mload(0x40)\n      swap1\n      dup2\n      add\n      0x40\n      mstore\n      dup1\n      swap3\n      swap2\n      swap1\n      dup2\n      dup2\n      mstore\n      0x20\n      add\n      dup3\n      dup1\n      sload\n      tag_166\n      swap1\n      tag_126\n      jump\t// in\n    tag_166:\n      dup1\n      iszero\n      tag_167\n      jumpi\n      dup1\n      0x1f\n      lt\n      tag_168\n      jumpi\n      0x0100\n      dup1\n      dup4\n      sload\n      div\n      mul\n      dup4\n      mstore\n      swap2\n      0x20\n      add\n      swap2\n      jump(tag_167)\n    tag_168:\n      dup3\n      add\n      swap2\n      swap1\n      0x00\n      mstore\n      keccak256(0x00, 0x20)\n      swap1\n    tag_169:\n      dup2\n      sload\n      dup2\n      mstore\n      swap1\n      0x01\n      add\n      swap1\n      0x20\n      add\n      dup1\n      dup4\n      gt\n      tag_169\n      jumpi\n      dup3\n      swap1\n      sub\n      0x1f\n      and\n      dup3\n      add\n      swap2\n    tag_167:\n      pop\n      pop\n      pop\n      pop\n      pop\n      dup2\n      mstore\n      0x20\n      add\n      0x02\n      dup3\n      add\n      dup1\n      sload\n      tag_170\n      swap1\n      tag_126\n      jump\t// in\n    tag_170:\n      dup1\n      0x1f\n      add\n      0x20\n      dup1\n      swap2\n      div\n      mul\n      0x20\n      add\n      mload(0x40)\n      swap1\n      dup2\n      add\n      0x40\n      mstore\n      dup1\n      swap3\n      swap2\n      swap1\n      dup2\n      dup2\n      mstore\n      0x20\n      add\n      dup3\n      dup1\n      sload\n      tag_171\n      swap1\n      tag_126\n      jump\t// in\n    tag_171:\n      dup1\n      iszero\n      tag_172\n      jumpi\n      dup1\n      0x1f\n      lt\n      tag_173\n      jumpi\n      0x0100\n      dup1\n      dup4\n      sload\n      div\n      mul\n      dup4\n      mstore\n      swap2\n      0x20\n      add\n      swap2\n      jump(tag_172)\n    tag_173:\n      dup3\n      add\n      swap2\n      swap1\n      0x00\n      mstore\n      keccak256(0x00, 0x20)\n      swap1\n    tag_174:\n      dup2\n      sload\n      dup2\n      mstore\n      swap1\n      0x01\n      add\n      swap1\n      0x20\n      add\n      dup1\n      dup4\n      gt\n      tag_174\n      jumpi\n      dup3\n      swap1\n      sub\n      0x1f\n      and\n      dup3\n      add\n      swap2\n    tag_172:\n      pop\n      pop\n      pop\n      pop\n      pop\n      dup2\n      mstore\n      0x20\n      add\n      0x03\n      dup3\n      add\n      sload\n      dup2\n      mstore\n      0x20\n      add\n      0x04\n      dup3\n      add\n      sload\n      dup2\n      mstore\n      0x20\n      add\n      0x05\n      dup3\n      add\n      sload\n      dup2\n      mstore\n      0x20\n      add\n      0x06\n      dup3\n      add\n      sload\n      dup2\n      mstore\n      0x20\n      add\n      0x07\n      dup3\n      add\n      sload\n      dup2\n      mstore\n      0x20\n      add\n      0x08\n      dup3\n      add\n      0x00\n      swap1\n      sload\n      swap1\n      0x0100\n      exp\n      swap1\n      div\n      0xff\n      and\n      iszero\n      iszero\n      iszero\n      iszero\n      dup2\n      mstore\n      0x20\n      add\n      0x08\n      dup3\n      add\n      0x01\n      swap1\n      sload\n      swap1\n      0x0100\n      exp\n      swap1\n      div\n      0xff\n      and\n      iszero\n      iszero\n      iszero\n      iszero\n      dup2\n      mstore\n      0x20\n      add\n      0x08\n      dup3\n      add\n      0x02\n      swap1\n      sload\n      swap1\n      0x0100\n      exp\n      swap1\n      div\n      0xff\n      and\n      iszero\n      iszero\n      iszero\n      iszero\n      dup2\n      mstore\n      pop\n      pop\n      swap1\n      pop\n        /* \"wwcc-contracts/contracts/wwccPool.sol\":4694:4711  string  memory si */\n      0x00\n        /* \"wwcc-contracts/contracts/wwccPool.sol\":4714:4779  strConcat(uint256ToString(homeScore),uint256ToString(visitScore)) */\n      tag_175\n        /* \"wwcc-contracts/contracts/wwccPool.sol\":4724:4750  uint256ToString(homeScore) */\n      tag_176\n        /* \"wwcc-contracts/contracts/wwccPool.sol\":4740:4749  homeScore */\n      dup8\n        /* \"wwcc-contracts/contracts/wwccPool.sol\":4724:4739  uint256ToString */\n      tag_177\n        /* \"wwcc-contracts/contracts/wwccPool.sol\":4724:4750  uint256ToString(homeScore) */\n      jump\t// in\n    tag_176:\n        /* \"wwcc-contracts/contracts/wwccPool.sol\":4751:4778  uint256ToString(visitScore) */\n      tag_178\n        /* \"wwcc-contracts/contracts/wwccPool.sol\":4767:4777  visitScore */\n      dup8\n        /* \"wwcc-contracts/contracts/wwccPool.sol\":4751:4766  uint256ToString */\n      tag_177\n        /* \"wwcc-contracts/contracts/wwccPool.sol\":4751:4778  uint256ToString(visitScore) */\n      jump\t// in\n    tag_178:\n        /* \"wwcc-contracts/contracts/wwccPool.sol\":4714:4723  strConcat */\n      tag_179\n        /* \"wwcc-contracts/contracts/wwccPool.sol\":4714:4779  strConcat(uint256ToString(homeScore),uint256ToString(visitScore)) */\n      jump\t// in\n    tag_175:\n        /* \"wwcc-contracts/contracts/wwccPool.sol\":4694:4779  string  memory si = strConcat(uint256ToString(homeScore),uint256ToString(visitScore)) */\n      swap1\n      pop\n        /* \"wwcc-contracts/contracts/wwccPool.sol\":4532:4789  {... */\n      pop\n      pop\n        /* \"wwcc-contracts/contracts/wwccPool.sol\":4805:4809  true */\n      0x01\n        /* \"wwcc-contracts/contracts/wwccPool.sol\":4798:4809  return true */\n      swap1\n      pop\n        /* \"wwcc-contracts/contracts/wwccPool.sol\":4313:4817  function Test(address joiner,uint256 weight,bytes32 poolKey,uint256 homeScore,uint256 visitScore,uint256 kind) external returns(bool){... */\n      swap7\n      swap6\n      pop\n      pop\n      pop\n      pop\n      pop\n      pop\n      jump\t// out\n        /* \"wwcc-contracts/contracts/wwccPool.sol\":11042:11286  function withdrawBNBInContract(address toAddress)external onlyManager payable returns(bool){... */\n    tag_51:\n        /* \"wwcc-contracts/contracts/wwccPool.sol\":11128:11132  bool */\n      0x00\n        /* \"wwcc-contracts/contracts/wwccPool.sol\":14034:14039  owner */\n      dup1\n      0x00\n      swap1\n      sload\n      swap1\n      0x0100\n      exp\n      swap1\n      div\n      0xffffffffffffffffffffffffffffffffffffffff\n      and\n        /* \"wwcc-contracts/contracts/wwccPool.sol\":14020:14039  msg.sender == owner */\n      0xffffffffffffffffffffffffffffffffffffffff\n      and\n        /* \"wwcc-contracts/contracts/wwccPool.sol\":14020:14030  msg.sender */\n      caller\n        /* \"wwcc-contracts/contracts/wwccPool.sol\":14020:14039  msg.sender == owner */\n      0xffffffffffffffffffffffffffffffffffffffff\n      and\n      eq\n        /* \"wwcc-contracts/contracts/wwccPool.sol\":13999:14090  require(... */\n      tag_181\n      jumpi\n      mload(0x40)\n      0x08c379a000000000000000000000000000000000000000000000000000000000\n      dup2\n      mstore\n      0x04\n      add\n      tag_182\n      swap1\n      tag_113\n      jump\t// in\n    tag_182:\n      mload(0x40)\n      dup1\n      swap2\n      sub\n      swap1\n      revert\n    tag_181:\n        /* \"wwcc-contracts/contracts/wwccPool.sol\":11147:11180  address payable toAddress_address */\n      0x00\n        /* \"wwcc-contracts/contracts/wwccPool.sol\":11191:11200  toAddress */\n      dup3\n        /* \"wwcc-contracts/contracts/wwccPool.sol\":11147:11201  address payable toAddress_address = payable(toAddress) */\n      swap1\n      pop\n        /* \"wwcc-contracts/contracts/wwccPool.sol\":11215:11232  toAddress_address */\n      dup1\n        /* \"wwcc-contracts/contracts/wwccPool.sol\":11215:11241  toAddress_address.transfer */\n      0xffffffffffffffffffffffffffffffffffffffff\n      and\n        /* \"wwcc-contracts/contracts/wwccPool.sol\":11215:11254  toAddress_address.transfer(lastBNB - 1) */\n      0x08fc\n        /* \"wwcc-contracts/contracts/wwccPool.sol\":11252:11253  1 */\n      0x01\n        /* \"wwcc-contracts/contracts/wwccPool.sol\":11242:11249  lastBNB */\n      sload(0x03)\n        /* \"wwcc-contracts/contracts/wwccPool.sol\":11242:11253  lastBNB - 1 */\n      tag_184\n      swap2\n      swap1\n      tag_185\n      jump\t// in\n    tag_184:\n        /* \"wwcc-contracts/contracts/wwccPool.sol\":11215:11254  toAddress_address.transfer(lastBNB - 1) */\n      swap1\n      dup2\n      iszero\n      mul\n      swap1\n      mload(0x40)\n      0x00\n      mload(0x40)\n      dup1\n      dup4\n      sub\n      dup2\n      dup6\n      dup9\n      dup9\n      call\n      swap4\n      pop\n      pop\n      pop\n      pop\n      iszero\n      dup1\n      iszero\n      tag_187\n      jumpi\n      returndatasize\n      0x00\n      dup1\n      returndatacopy\n      revert(0x00, returndatasize)\n    tag_187:\n      pop\n        /* \"wwcc-contracts/contracts/wwccPool.sol\":11275:11279  true */\n      0x01\n        /* \"wwcc-contracts/contracts/wwccPool.sol\":11268:11279  return true */\n      swap2\n      pop\n      pop\n        /* \"wwcc-contracts/contracts/wwccPool.sol\":11042:11286  function withdrawBNBInContract(address toAddress)external onlyManager payable returns(bool){... */\n      swap2\n      swap1\n      pop\n      jump\t// out\n        /* \"wwcc-contracts/contracts/wwccPool.sol\":4872:5394  function Set_Basal(bytes32 poolKey,uint256 basal) external onlyManager  returns (bool){... */\n    tag_57:\n        /* \"wwcc-contracts/contracts/wwccPool.sol\":4953:4957  bool */\n      0x00\n        /* \"wwcc-contracts/contracts/wwccPool.sol\":14034:14039  owner */\n      dup1\n      0x00\n      swap1\n      sload\n      swap1\n      0x0100\n      exp\n      swap1\n      div\n      0xffffffffffffffffffffffffffffffffffffffff\n      and\n        /* \"wwcc-contracts/contracts/wwccPool.sol\":14020:14039  msg.sender == owner */\n      0xffffffffffffffffffffffffffffffffffffffff\n      and\n        /* \"wwcc-contracts/contracts/wwccPool.sol\":14020:14030  msg.sender */\n      caller\n        /* \"wwcc-contracts/contracts/wwccPool.sol\":14020:14039  msg.sender == owner */\n      0xffffffffffffffffffffffffffffffffffffffff\n      and\n      eq\n        /* \"wwcc-contracts/contracts/wwccPool.sol\":13999:14090  require(... */\n      tag_189\n      jumpi\n      mload(0x40)\n      0x08c379a000000000000000000000000000000000000000000000000000000000\n      dup2\n      mstore\n      0x04\n      add\n      tag_190\n      swap1\n      tag_113\n      jump\t// in\n    tag_190:\n      mload(0x40)\n      dup1\n      swap2\n      sub\n      swap1\n      revert\n    tag_189:\n        /* \"wwcc-contracts/contracts/wwccPool.sol\":4972:4989  contains(poolKey) */\n      tag_192\n        /* \"wwcc-contracts/contracts/wwccPool.sol\":4981:4988  poolKey */\n      dup4\n        /* \"wwcc-contracts/contracts/wwccPool.sol\":4972:4980  contains */\n      tag_120\n        /* \"wwcc-contracts/contracts/wwccPool.sol\":4972:4989  contains(poolKey) */\n      jump\t// in\n    tag_192:\n        /* \"wwcc-contracts/contracts/wwccPool.sol\":4968:5388  if(!contains(poolKey)) { ... */\n      tag_193\n      jumpi\n        /* \"wwcc-contracts/contracts/wwccPool.sol\":5006:5030  revert(\"pool not exist\") */\n      mload(0x40)\n      0x08c379a000000000000000000000000000000000000000000000000000000000\n      dup2\n      mstore\n      0x04\n      add\n      tag_194\n      swap1\n      tag_123\n      jump\t// in\n    tag_194:\n      mload(0x40)\n      dup1\n      swap2\n      sub\n      swap1\n      revert\n        /* \"wwcc-contracts/contracts/wwccPool.sol\":4968:5388  if(!contains(poolKey)) { ... */\n    tag_193:\n        /* \"wwcc-contracts/contracts/wwccPool.sol\":5058:5076  WcPool memory pool */\n      0x00\n        /* \"wwcc-contracts/contracts/wwccPool.sol\":5079:5086  WcPools */\n      0x05\n        /* \"wwcc-contracts/contracts/wwccPool.sol\":5079:5095  WcPools[poolKey] */\n      0x00\n        /* \"wwcc-contracts/contracts/wwccPool.sol\":5087:5094  poolKey */\n      dup6\n        /* \"wwcc-contracts/contracts/wwccPool.sol\":5079:5095  WcPools[poolKey] */\n      dup2\n      mstore\n      0x20\n      add\n      swap1\n      dup2\n      mstore\n      0x20\n      add\n      0x00\n      keccak256\n        /* \"wwcc-contracts/contracts/wwccPool.sol\":5058:5095  WcPool memory pool = WcPools[poolKey] */\n      mload(0x40)\n      dup1\n      0x0160\n      add\n      0x40\n      mstore\n      swap1\n      dup2\n      0x00\n      dup3\n      add\n      dup1\n      sload\n      tag_196\n      swap1\n      tag_126\n      jump\t// in\n    tag_196:\n      dup1\n      0x1f\n      add\n      0x20\n      dup1\n      swap2\n      div\n      mul\n      0x20\n      add\n      mload(0x40)\n      swap1\n      dup2\n      add\n      0x40\n      mstore\n      dup1\n      swap3\n      swap2\n      swap1\n      dup2\n      dup2\n      mstore\n      0x20\n      add\n      dup3\n      dup1\n      sload\n      tag_197\n      swap1\n      tag_126\n      jump\t// in\n    tag_197:\n      dup1\n      iszero\n      tag_198\n      jumpi\n      dup1\n      0x1f\n      lt\n      tag_199\n      jumpi\n      0x0100\n      dup1\n      dup4\n      sload\n      div\n      mul\n      dup4\n      mstore\n      swap2\n      0x20\n      add\n      swap2\n      jump(tag_198)\n    tag_199:\n      dup3\n      add\n      swap2\n      swap1\n      0x00\n      mstore\n      keccak256(0x00, 0x20)\n      swap1\n    tag_200:\n      dup2\n      sload\n      dup2\n      mstore\n      swap1\n      0x01\n      add\n      swap1\n      0x20\n      add\n      dup1\n      dup4\n      gt\n      tag_200\n      jumpi\n      dup3\n      swap1\n      sub\n      0x1f\n      and\n      dup3\n      add\n      swap2\n    tag_198:\n      pop\n      pop\n      pop\n      pop\n      pop\n      dup2\n      mstore\n      0x20\n      add\n      0x01\n      dup3\n      add\n      dup1\n      sload\n      tag_201\n      swap1\n      tag_126\n      jump\t// in\n    tag_201:\n      dup1\n      0x1f\n      add\n      0x20\n      dup1\n      swap2\n      div\n      mul\n      0x20\n      add\n      mload(0x40)\n      swap1\n      dup2\n      add\n      0x40\n      mstore\n      dup1\n      swap3\n      swap2\n      swap1\n      dup2\n      dup2\n      mstore\n      0x20\n      add\n      dup3\n      dup1\n      sload\n      tag_202\n      swap1\n      tag_126\n      jump\t// in\n    tag_202:\n      dup1\n      iszero\n      tag_203\n      jumpi\n      dup1\n      0x1f\n      lt\n      tag_204\n      jumpi\n      0x0100\n      dup1\n      dup4\n      sload\n      div\n      mul\n      dup4\n      mstore\n      swap2\n      0x20\n      add\n      swap2\n      jump(tag_203)\n    tag_204:\n      dup3\n      add\n      swap2\n      swap1\n      0x00\n      mstore\n      keccak256(0x00, 0x20)\n      swap1\n    tag_205:\n      dup2\n      sload\n      dup2\n      mstore\n      swap1\n      0x01\n      add\n      swap1\n      0x20\n      add\n      dup1\n      dup4\n      gt\n      tag_205\n      jumpi\n      dup3\n      swap1\n      sub\n      0x1f\n      and\n      dup3\n      add\n      swap2\n    tag_203:\n      pop\n      pop\n      pop\n      pop\n      pop\n      dup2\n      mstore\n      0x20\n      add\n      0x02\n      dup3\n      add\n      dup1\n      sload\n      tag_206\n      swap1\n      tag_126\n      jump\t// in\n    tag_206:\n      dup1\n      0x1f\n      add\n      0x20\n      dup1\n      swap2\n      div\n      mul\n      0x20\n      add\n      mload(0x40)\n      swap1\n      dup2\n      add\n      0x40\n      mstore\n      dup1\n      swap3\n      swap2\n      swap1\n      dup2\n      dup2\n      mstore\n      0x20\n      add\n      dup3\n      dup1\n      sload\n      tag_207\n      swap1\n      tag_126\n      jump\t// in\n    tag_207:\n      dup1\n      iszero\n      tag_208\n      jumpi\n      dup1\n      0x1f\n      lt\n      tag_209\n      jumpi\n      0x0100\n      dup1\n      dup4\n      sload\n      div\n      mul\n      dup4\n      mstore\n      swap2\n      0x20\n      add\n      swap2\n      jump(tag_208)\n    tag_209:\n      dup3\n      add\n      swap2\n      swap1\n      0x00\n      mstore\n      keccak256(0x00, 0x20)\n      swap1\n    tag_210:\n      dup2\n      sload\n      dup2\n      mstore\n      swap1\n      0x01\n      add\n      swap1\n      0x20\n      add\n      dup1\n      dup4\n      gt\n      tag_210\n      jumpi\n      dup3\n      swap1\n      sub\n      0x1f\n      and\n      dup3\n      add\n      swap2\n    tag_208:\n      pop\n      pop\n      pop\n      pop\n      pop\n      dup2\n      mstore\n      0x20\n      add\n      0x03\n      dup3\n      add\n      sload\n      dup2\n      mstore\n      0x20\n      add\n      0x04\n      dup3\n      add\n      sload\n      dup2\n      mstore\n      0x20\n      add\n      0x05\n      dup3\n      add\n      sload\n      dup2\n      mstore\n      0x20\n      add\n      0x06\n      dup3\n      add\n      sload\n      dup2\n      mstore\n      0x20\n      add\n      0x07\n      dup3\n      add\n      sload\n      dup2\n      mstore\n      0x20\n      add\n      0x08\n      dup3\n      add\n      0x00\n      swap1\n      sload\n      swap1\n      0x0100\n      exp\n      swap1\n      div\n      0xff\n      and\n      iszero\n      iszero\n      iszero\n      iszero\n      dup2\n      mstore\n      0x20\n      add\n      0x08\n      dup3\n      add\n      0x01\n      swap1\n      sload\n      swap1\n      0x0100\n      exp\n      swap1\n      div\n      0xff\n      and\n      iszero\n      iszero\n      iszero\n      iszero\n      dup2\n      mstore\n      0x20\n      add\n      0x08\n      dup3\n      add\n      0x02\n      swap1\n      sload\n      swap1\n      0x0100\n      exp\n      swap1\n      div\n      0xff\n      and\n      iszero\n      iszero\n      iszero\n      iszero\n      dup2\n      mstore\n      pop\n      pop\n      swap1\n      pop\n        /* \"wwcc-contracts/contracts/wwccPool.sol\":5125:5126  0 */\n      0x00\n        /* \"wwcc-contracts/contracts/wwccPool.sol\":5112:5116  pool */\n      dup2\n        /* \"wwcc-contracts/contracts/wwccPool.sol\":5112:5122  pool.basal */\n      0xe0\n      add\n      mload\n        /* \"wwcc-contracts/contracts/wwccPool.sol\":5112:5126  pool.basal > 0 */\n      gt\n        /* \"wwcc-contracts/contracts/wwccPool.sol\":5108:5191  if (pool.basal > 0){... */\n      iszero\n      tag_211\n      jumpi\n        /* \"wwcc-contracts/contracts/wwccPool.sol\":5144:5177  revert(\"pool basal has been set\") */\n      mload(0x40)\n      0x08c379a000000000000000000000000000000000000000000000000000000000\n      dup2\n      mstore\n      0x04\n      add\n      tag_212\n      swap1\n      tag_213\n      jump\t// in\n    tag_212:\n      mload(0x40)\n      dup1\n      swap2\n      sub\n      swap1\n      revert\n        /* \"wwcc-contracts/contracts/wwccPool.sol\":5108:5191  if (pool.basal > 0){... */\n    tag_211:\n        /* \"wwcc-contracts/contracts/wwccPool.sol\":5223:5228  basal */\n      dup3\n        /* \"wwcc-contracts/contracts/wwccPool.sol\":5207:5220  nextBasalLast */\n      sload(0x01)\n        /* \"wwcc-contracts/contracts/wwccPool.sol\":5207:5228  nextBasalLast > basal */\n      gt\n        /* \"wwcc-contracts/contracts/wwccPool.sol\":5203:5286  if (nextBasalLast > basal){... */\n      iszero\n      tag_214\n      jumpi\n        /* \"wwcc-contracts/contracts/wwccPool.sol\":5246:5272  revert(\"not enough basal\") */\n      mload(0x40)\n      0x08c379a000000000000000000000000000000000000000000000000000000000\n      dup2\n      mstore\n      0x04\n      add\n      tag_215\n      swap1\n      tag_216\n      jump\t// in\n    tag_215:\n      mload(0x40)\n      dup1\n      swap2\n      sub\n      swap1\n      revert\n        /* \"wwcc-contracts/contracts/wwccPool.sol\":5203:5286  if (nextBasalLast > basal){... */\n    tag_214:\n        /* \"wwcc-contracts/contracts/wwccPool.sol\":5312:5317  basal */\n      dup3\n        /* \"wwcc-contracts/contracts/wwccPool.sol\":5298:5302  pool */\n      dup2\n        /* \"wwcc-contracts/contracts/wwccPool.sol\":5298:5308  pool.basal */\n      0xe0\n      add\n        /* \"wwcc-contracts/contracts/wwccPool.sol\":5298:5317  pool.basal += basal */\n      dup2\n      dup2\n      mload\n      tag_217\n      swap2\n      swap1\n      tag_26\n      jump\t// in\n    tag_217:\n      swap2\n      pop\n      dup2\n      dup2\n      mstore\n      pop\n      pop\n        /* \"wwcc-contracts/contracts/wwccPool.sol\":5348:5353  basal */\n      dup3\n        /* \"wwcc-contracts/contracts/wwccPool.sol\":5330:5343  nextBasalLast */\n      0x01\n      0x00\n        /* \"wwcc-contracts/contracts/wwccPool.sol\":5330:5353  nextBasalLast -=  basal */\n      dup3\n      dup3\n      sload\n      tag_218\n      swap2\n      swap1\n      tag_185\n      jump\t// in\n    tag_218:\n      swap3\n      pop\n      pop\n      dup2\n      swap1\n      sstore\n      pop\n        /* \"wwcc-contracts/contracts/wwccPool.sol\":5373:5377  true */\n      0x01\n        /* \"wwcc-contracts/contracts/wwccPool.sol\":5366:5377  return true */\n      swap2\n      pop\n      pop\n        /* \"wwcc-contracts/contracts/wwccPool.sol\":4872:5394  function Set_Basal(bytes32 poolKey,uint256 basal) external onlyManager  returns (bool){... */\n      swap3\n      swap2\n      pop\n      pop\n      jump\t// out\n        /* \"wwcc-contracts/contracts/wwccPool.sol\":2039:2959  function Set_Pool(... */\n    tag_63:\n        /* \"wwcc-contracts/contracts/wwccPool.sol\":2186:2193  bytes32 */\n      0x00\n        /* \"wwcc-contracts/contracts/wwccPool.sol\":14034:14039  owner */\n      dup1\n      0x00\n      swap1\n      sload\n      swap1\n      0x0100\n      exp\n      swap1\n      div\n      0xffffffffffffffffffffffffffffffffffffffff\n      and\n        /* \"wwcc-contracts/contracts/wwccPool.sol\":14020:14039  msg.sender == owner */\n      0xffffffffffffffffffffffffffffffffffffffff\n      and\n        /* \"wwcc-contracts/contracts/wwccPool.sol\":14020:14030  msg.sender */\n      caller\n        /* \"wwcc-contracts/contracts/wwccPool.sol\":14020:14039  msg.sender == owner */\n      0xffffffffffffffffffffffffffffffffffffffff\n      and\n      eq\n        /* \"wwcc-contracts/contracts/wwccPool.sol\":13999:14090  require(... */\n      tag_220\n      jumpi\n      mload(0x40)\n      0x08c379a000000000000000000000000000000000000000000000000000000000\n      dup2\n      mstore\n      0x04\n      add\n      tag_221\n      swap1\n      tag_113\n      jump\t// in\n    tag_221:\n      mload(0x40)\n      dup1\n      swap2\n      sub\n      swap1\n      revert\n    tag_220:\n        /* \"wwcc-contracts/contracts/wwccPool.sol\":2204:2220  string memory s1 */\n      0x00\n        /* \"wwcc-contracts/contracts/wwccPool.sol\":2223:2244  strConcat(home,visit) */\n      tag_223\n        /* \"wwcc-contracts/contracts/wwccPool.sol\":2233:2237  home */\n      dup7\n        /* \"wwcc-contracts/contracts/wwccPool.sol\":2238:2243  visit */\n      dup7\n        /* \"wwcc-contracts/contracts/wwccPool.sol\":2223:2232  strConcat */\n      tag_179\n        /* \"wwcc-contracts/contracts/wwccPool.sol\":2223:2244  strConcat(home,visit) */\n      jump\t// in\n    tag_223:\n        /* \"wwcc-contracts/contracts/wwccPool.sol\":2204:2244  string memory s1 = strConcat(home,visit) */\n      swap1\n      pop\n        /* \"wwcc-contracts/contracts/wwccPool.sol\":2253:2269  string memory s2 */\n      0x00\n        /* \"wwcc-contracts/contracts/wwccPool.sol\":2272:2292  strConcat(s1,rounds) */\n      tag_224\n        /* \"wwcc-contracts/contracts/wwccPool.sol\":2282:2284  s1 */\n      dup3\n        /* \"wwcc-contracts/contracts/wwccPool.sol\":2285:2291  rounds */\n      dup7\n        /* \"wwcc-contracts/contracts/wwccPool.sol\":2272:2281  strConcat */\n      tag_179\n        /* \"wwcc-contracts/contracts/wwccPool.sol\":2272:2292  strConcat(s1,rounds) */\n      jump\t// in\n    tag_224:\n        /* \"wwcc-contracts/contracts/wwccPool.sol\":2253:2292  string memory s2 = strConcat(s1,rounds) */\n      swap1\n      pop\n        /* \"wwcc-contracts/contracts/wwccPool.sol\":2301:2316  bytes32 poolKey */\n      0x00\n        /* \"wwcc-contracts/contracts/wwccPool.sol\":2346:2348  s2 */\n      dup2\n        /* \"wwcc-contracts/contracts/wwccPool.sol\":2329:2349  abi.encodePacked(s2) */\n      add(0x20, mload(0x40))\n      tag_225\n      swap2\n      swap1\n      tag_226\n      jump\t// in\n    tag_225:\n      mload(0x40)\n      0x20\n      dup2\n      dup4\n      sub\n      sub\n      dup2\n      mstore\n      swap1\n      0x40\n      mstore\n        /* \"wwcc-contracts/contracts/wwccPool.sol\":2319:2350  keccak256(abi.encodePacked(s2)) */\n      dup1\n      mload\n      swap1\n      0x20\n      add\n      keccak256\n        /* \"wwcc-contracts/contracts/wwccPool.sol\":2301:2350  bytes32 poolKey = keccak256(abi.encodePacked(s2)) */\n      swap1\n      pop\n        /* \"wwcc-contracts/contracts/wwccPool.sol\":2362:2379  contains(poolKey) */\n      tag_227\n        /* \"wwcc-contracts/contracts/wwccPool.sol\":2371:2378  poolKey */\n      dup2\n        /* \"wwcc-contracts/contracts/wwccPool.sol\":2362:2370  contains */\n      tag_120\n        /* \"wwcc-contracts/contracts/wwccPool.sol\":2362:2379  contains(poolKey) */\n      jump\t// in\n    tag_227:\n        /* \"wwcc-contracts/contracts/wwccPool.sol\":2359:2899  if(contains(poolKey)) { ... */\n      iszero\n      tag_228\n      jumpi\n        /* \"wwcc-contracts/contracts/wwccPool.sol\":2396:2416  revert(\"pair exist\") */\n      mload(0x40)\n      0x08c379a000000000000000000000000000000000000000000000000000000000\n      dup2\n      mstore\n      0x04\n      add\n      tag_229\n      swap1\n      tag_230\n      jump\t// in\n    tag_229:\n      mload(0x40)\n      dup1\n      swap2\n      sub\n      swap1\n      revert\n        /* \"wwcc-contracts/contracts/wwccPool.sol\":2359:2899  if(contains(poolKey)) { ... */\n    tag_228:\n        /* \"wwcc-contracts/contracts/wwccPool.sol\":2467:2471  true */\n      0x01\n        /* \"wwcc-contracts/contracts/wwccPool.sol\":2443:2450  WcPools */\n      0x05\n        /* \"wwcc-contracts/contracts/wwccPool.sol\":2443:2459  WcPools[poolKey] */\n      0x00\n        /* \"wwcc-contracts/contracts/wwccPool.sol\":2451:2458  poolKey */\n      dup4\n        /* \"wwcc-contracts/contracts/wwccPool.sol\":2443:2459  WcPools[poolKey] */\n      dup2\n      mstore\n      0x20\n      add\n      swap1\n      dup2\n      mstore\n      0x20\n      add\n      0x00\n      keccak256\n        /* \"wwcc-contracts/contracts/wwccPool.sol\":2443:2464  WcPools[poolKey].used */\n      0x08\n      add\n      0x01\n        /* \"wwcc-contracts/contracts/wwccPool.sol\":2443:2471  WcPools[poolKey].used = true */\n      0x0100\n      exp\n      dup2\n      sload\n      dup2\n      0xff\n      mul\n      not\n      and\n      swap1\n      dup4\n      iszero\n      iszero\n      mul\n      or\n      swap1\n      sstore\n      pop\n        /* \"wwcc-contracts/contracts/wwccPool.sol\":2508:2512  home */\n      dup8\n        /* \"wwcc-contracts/contracts/wwccPool.sol\":2484:2491  WcPools */\n      0x05\n        /* \"wwcc-contracts/contracts/wwccPool.sol\":2484:2500  WcPools[poolKey] */\n      0x00\n        /* \"wwcc-contracts/contracts/wwccPool.sol\":2492:2499  poolKey */\n      dup4\n        /* \"wwcc-contracts/contracts/wwccPool.sol\":2484:2500  WcPools[poolKey] */\n      dup2\n      mstore\n      0x20\n      add\n      swap1\n      dup2\n      mstore\n      0x20\n      add\n      0x00\n      keccak256\n        /* \"wwcc-contracts/contracts/wwccPool.sol\":2484:2505  WcPools[poolKey].home */\n      0x00\n      add\n        /* \"wwcc-contracts/contracts/wwccPool.sol\":2484:2512  WcPools[poolKey].home = home */\n      swap1\n      dup1\n      mload\n      swap1\n      0x20\n      add\n      swap1\n      tag_232\n      swap3\n      swap2\n      swap1\n      tag_233\n      jump\t// in\n    tag_232:\n      pop\n        /* \"wwcc-contracts/contracts/wwccPool.sol\":2550:2555  visit */\n      dup7\n        /* \"wwcc-contracts/contracts/wwccPool.sol\":2525:2532  WcPools */\n      0x05\n        /* \"wwcc-contracts/contracts/wwccPool.sol\":2525:2541  WcPools[poolKey] */\n      0x00\n        /* \"wwcc-contracts/contracts/wwccPool.sol\":2533:2540  poolKey */\n      dup4\n        /* \"wwcc-contracts/contracts/wwccPool.sol\":2525:2541  WcPools[poolKey] */\n      dup2\n      mstore\n      0x20\n      add\n      swap1\n      dup2\n      mstore\n      0x20\n      add\n      0x00\n      keccak256\n        /* \"wwcc-contracts/contracts/wwccPool.sol\":2525:2547  WcPools[poolKey].visit */\n      0x01\n      add\n        /* \"wwcc-contracts/contracts/wwccPool.sol\":2525:2555  WcPools[poolKey].visit = visit */\n      swap1\n      dup1\n      mload\n      swap1\n      0x20\n      add\n      swap1\n      tag_234\n      swap3\n      swap2\n      swap1\n      tag_233\n      jump\t// in\n    tag_234:\n      pop\n        /* \"wwcc-contracts/contracts/wwccPool.sol\":2594:2600  rounds */\n      dup6\n        /* \"wwcc-contracts/contracts/wwccPool.sol\":2568:2575  WcPools */\n      0x05\n        /* \"wwcc-contracts/contracts/wwccPool.sol\":2568:2584  WcPools[poolKey] */\n      0x00\n        /* \"wwcc-contracts/contracts/wwccPool.sol\":2576:2583  poolKey */\n      dup4\n        /* \"wwcc-contracts/contracts/wwccPool.sol\":2568:2584  WcPools[poolKey] */\n      dup2\n      mstore\n      0x20\n      add\n      swap1\n      dup2\n      mstore\n      0x20\n      add\n      0x00\n      keccak256\n        /* \"wwcc-contracts/contracts/wwccPool.sol\":2568:2591  WcPools[poolKey].rounds */\n      0x02\n      add\n        /* \"wwcc-contracts/contracts/wwccPool.sol\":2568:2600  WcPools[poolKey].rounds = rounds */\n      swap1\n      dup1\n      mload\n      swap1\n      0x20\n      add\n      swap1\n      tag_235\n      swap3\n      swap2\n      swap1\n      tag_233\n      jump\t// in\n    tag_235:\n      pop\n        /* \"wwcc-contracts/contracts/wwccPool.sol\":2638:2639  0 */\n      0x00\n        /* \"wwcc-contracts/contracts/wwccPool.sol\":2613:2620  WcPools */\n      0x05\n        /* \"wwcc-contracts/contracts/wwccPool.sol\":2613:2629  WcPools[poolKey] */\n      0x00\n        /* \"wwcc-contracts/contracts/wwccPool.sol\":2621:2628  poolKey */\n      dup4\n        /* \"wwcc-contracts/contracts/wwccPool.sol\":2613:2629  WcPools[poolKey] */\n      dup2\n      mstore\n      0x20\n      add\n      swap1\n      dup2\n      mstore\n      0x20\n      add\n      0x00\n      keccak256\n        /* \"wwcc-contracts/contracts/wwccPool.sol\":2613:2635  WcPools[poolKey].wPool */\n      0x03\n      add\n        /* \"wwcc-contracts/contracts/wwccPool.sol\":2613:2639  WcPools[poolKey].wPool = 0 */\n      dup2\n      swap1\n      sstore\n      pop\n        /* \"wwcc-contracts/contracts/wwccPool.sol\":2677:2678  0 */\n      0x00\n        /* \"wwcc-contracts/contracts/wwccPool.sol\":2652:2659  WcPools */\n      0x05\n        /* \"wwcc-contracts/contracts/wwccPool.sol\":2652:2668  WcPools[poolKey] */\n      0x00\n        /* \"wwcc-contracts/contracts/wwccPool.sol\":2660:2667  poolKey */\n      dup4\n        /* \"wwcc-contracts/contracts/wwccPool.sol\":2652:2668  WcPools[poolKey] */\n      dup2\n      mstore\n      0x20\n      add\n      swap1\n      dup2\n      mstore\n      0x20\n      add\n      0x00\n      keccak256\n        /* \"wwcc-contracts/contracts/wwccPool.sol\":2652:2674  WcPools[poolKey].dPool */\n      0x04\n      add\n        /* \"wwcc-contracts/contracts/wwccPool.sol\":2652:2678  WcPools[poolKey].dPool = 0 */\n      dup2\n      swap1\n      sstore\n      pop\n        /* \"wwcc-contracts/contracts/wwccPool.sol\":2716:2717  0 */\n      0x00\n        /* \"wwcc-contracts/contracts/wwccPool.sol\":2691:2698  WcPools */\n      0x05\n        /* \"wwcc-contracts/contracts/wwccPool.sol\":2691:2707  WcPools[poolKey] */\n      0x00\n        /* \"wwcc-contracts/contracts/wwccPool.sol\":2699:2706  poolKey */\n      dup4\n        /* \"wwcc-contracts/contracts/wwccPool.sol\":2691:2707  WcPools[poolKey] */\n      dup2\n      mstore\n      0x20\n      add\n      swap1\n      dup2\n      mstore\n      0x20\n      add\n      0x00\n      keccak256\n        /* \"wwcc-contracts/contracts/wwccPool.sol\":2691:2713  WcPools[poolKey].lPool */\n      0x05\n      add\n        /* \"wwcc-contracts/contracts/wwccPool.sol\":2691:2717  WcPools[poolKey].lPool = 0 */\n      dup2\n      swap1\n      sstore\n      pop\n        /* \"wwcc-contracts/contracts/wwccPool.sol\":2755:2756  0 */\n      0x00\n        /* \"wwcc-contracts/contracts/wwccPool.sol\":2730:2737  WcPools */\n      0x05\n        /* \"wwcc-contracts/contracts/wwccPool.sol\":2730:2746  WcPools[poolKey] */\n      0x00\n        /* \"wwcc-contracts/contracts/wwccPool.sol\":2738:2745  poolKey */\n      dup4\n        /* \"wwcc-contracts/contracts/wwccPool.sol\":2730:2746  WcPools[poolKey] */\n      dup2\n      mstore\n      0x20\n      add\n      swap1\n      dup2\n      mstore\n      0x20\n      add\n      0x00\n      keccak256\n        /* \"wwcc-contracts/contracts/wwccPool.sol\":2730:2752  WcPools[poolKey].sPool */\n      0x06\n      add\n        /* \"wwcc-contracts/contracts/wwccPool.sol\":2730:2756  WcPools[poolKey].sPool = 0 */\n      dup2\n      swap1\n      sstore\n      pop\n        /* \"wwcc-contracts/contracts/wwccPool.sol\":2794:2795  0 */\n      0x00\n        /* \"wwcc-contracts/contracts/wwccPool.sol\":2769:2776  WcPools */\n      0x05\n        /* \"wwcc-contracts/contracts/wwccPool.sol\":2769:2785  WcPools[poolKey] */\n      0x00\n        /* \"wwcc-contracts/contracts/wwccPool.sol\":2777:2784  poolKey */\n      dup4\n        /* \"wwcc-contracts/contracts/wwccPool.sol\":2769:2785  WcPools[poolKey] */\n      dup2\n      mstore\n      0x20\n      add\n      swap1\n      dup2\n      mstore\n      0x20\n      add\n      0x00\n      keccak256\n        /* \"wwcc-contracts/contracts/wwccPool.sol\":2769:2791  WcPools[poolKey].basal */\n      0x07\n      add\n        /* \"wwcc-contracts/contracts/wwccPool.sol\":2769:2795  WcPools[poolKey].basal = 0 */\n      dup2\n      swap1\n      sstore\n      pop\n        /* \"wwcc-contracts/contracts/wwccPool.sol\":2835:2842  decided */\n      dup5\n        /* \"wwcc-contracts/contracts/wwccPool.sol\":2808:2815  WcPools */\n      0x05\n        /* \"wwcc-contracts/contracts/wwccPool.sol\":2808:2824  WcPools[poolKey] */\n      0x00\n        /* \"wwcc-contracts/contracts/wwccPool.sol\":2816:2823  poolKey */\n      dup4\n        /* \"wwcc-contracts/contracts/wwccPool.sol\":2808:2824  WcPools[poolKey] */\n      dup2\n      mstore\n      0x20\n      add\n      swap1\n      dup2\n      mstore\n      0x20\n      add\n      0x00\n      keccak256\n        /* \"wwcc-contracts/contracts/wwccPool.sol\":2808:2832  WcPools[poolKey].decided */\n      0x08\n      add\n      0x00\n        /* \"wwcc-contracts/contracts/wwccPool.sol\":2808:2842  WcPools[poolKey].decided = decided */\n      0x0100\n      exp\n      dup2\n      sload\n      dup2\n      0xff\n      mul\n      not\n      and\n      swap1\n      dup4\n      iszero\n      iszero\n      mul\n      or\n      swap1\n      sstore\n      pop\n        /* \"wwcc-contracts/contracts/wwccPool.sol\":2883:2888  false */\n      0x00\n        /* \"wwcc-contracts/contracts/wwccPool.sol\":2855:2862  WcPools */\n      0x05\n        /* \"wwcc-contracts/contracts/wwccPool.sol\":2855:2871  WcPools[poolKey] */\n      0x00\n        /* \"wwcc-contracts/contracts/wwccPool.sol\":2863:2870  poolKey */\n      dup4\n        /* \"wwcc-contracts/contracts/wwccPool.sol\":2855:2871  WcPools[poolKey] */\n      dup2\n      mstore\n      0x20\n      add\n      swap1\n      dup2\n      mstore\n      0x20\n      add\n      0x00\n      keccak256\n        /* \"wwcc-contracts/contracts/wwccPool.sol\":2855:2880  WcPools[poolKey].finished */\n      0x08\n      add\n      0x02\n        /* \"wwcc-contracts/contracts/wwccPool.sol\":2855:2888  WcPools[poolKey].finished = false */\n      0x0100\n      exp\n      dup2\n      sload\n      dup2\n      0xff\n      mul\n      not\n      and\n      swap1\n      dup4\n      iszero\n      iszero\n      mul\n      or\n      swap1\n      sstore\n      pop\n        /* \"wwcc-contracts/contracts/wwccPool.sol\":2907:2915  poolKeys */\n      0x02\n        /* \"wwcc-contracts/contracts/wwccPool.sol\":2921:2928  poolKey */\n      dup2\n        /* \"wwcc-contracts/contracts/wwccPool.sol\":2907:2929  poolKeys.push(poolKey) */\n      swap1\n      dup1\n      0x01\n      dup2\n      sload\n      add\n      dup1\n      dup3\n      sstore\n      dup1\n      swap2\n      pop\n      pop\n      0x01\n      swap1\n      sub\n      swap1\n      0x00\n      mstore\n      keccak256(0x00, 0x20)\n      add\n      0x00\n      swap1\n      swap2\n      swap1\n      swap2\n      swap1\n      swap2\n      pop\n      sstore\n        /* \"wwcc-contracts/contracts/wwccPool.sol\":2945:2952  poolKey */\n      dup1\n        /* \"wwcc-contracts/contracts/wwccPool.sol\":2938:2952  return poolKey */\n      swap4\n      pop\n      pop\n      pop\n      pop\n        /* \"wwcc-contracts/contracts/wwccPool.sol\":2039:2959  function Set_Pool(... */\n      swap5\n      swap4\n      pop\n      pop\n      pop\n      pop\n      jump\t// out\n        /* \"wwcc-contracts/contracts/wwccPool.sol\":7256:7362  function CheckBasal() external onlyManager view  returns (uint256){... */\n    tag_68:\n        /* \"wwcc-contracts/contracts/wwccPool.sol\":7314:7321  uint256 */\n      0x00\n        /* \"wwcc-contracts/contracts/wwccPool.sol\":14034:14039  owner */\n      dup1\n      0x00\n      swap1\n      sload\n      swap1\n      0x0100\n      exp\n      swap1\n      div\n      0xffffffffffffffffffffffffffffffffffffffff\n      and\n        /* \"wwcc-contracts/contracts/wwccPool.sol\":14020:14039  msg.sender == owner */\n      0xffffffffffffffffffffffffffffffffffffffff\n      and\n        /* \"wwcc-contracts/contracts/wwccPool.sol\":14020:14030  msg.sender */\n      caller\n        /* \"wwcc-contracts/contracts/wwccPool.sol\":14020:14039  msg.sender == owner */\n      0xffffffffffffffffffffffffffffffffffffffff\n      and\n      eq\n        /* \"wwcc-contracts/contracts/wwccPool.sol\":13999:14090  require(... */\n      tag_238\n      jumpi\n      mload(0x40)\n      0x08c379a000000000000000000000000000000000000000000000000000000000\n      dup2\n      mstore\n      0x04\n      add\n      tag_239\n      swap1\n      tag_113\n      jump\t// in\n    tag_239:\n      mload(0x40)\n      dup1\n      swap2\n      sub\n      swap1\n      revert\n    tag_238:\n        /* \"wwcc-contracts/contracts/wwccPool.sol\":7342:7355  nextBasalLast */\n      sload(0x01)\n        /* \"wwcc-contracts/contracts/wwccPool.sol\":7335:7355  return nextBasalLast */\n      swap1\n      pop\n        /* \"wwcc-contracts/contracts/wwccPool.sol\":7256:7362  function CheckBasal() external onlyManager view  returns (uint256){... */\n      swap1\n      jump\t// out\n        /* \"wwcc-contracts/contracts/wwccPool.sol\":6632:6990  function CheckExpect(bytes32 poolKey) external onlyManager view  returns (uint256){... */\n    tag_74:\n        /* \"wwcc-contracts/contracts/wwccPool.sol\":6706:6713  uint256 */\n      0x00\n        /* \"wwcc-contracts/contracts/wwccPool.sol\":14034:14039  owner */\n      dup1\n      0x00\n      swap1\n      sload\n      swap1\n      0x0100\n      exp\n      swap1\n      div\n      0xffffffffffffffffffffffffffffffffffffffff\n      and\n        /* \"wwcc-contracts/contracts/wwccPool.sol\":14020:14039  msg.sender == owner */\n      0xffffffffffffffffffffffffffffffffffffffff\n      and\n        /* \"wwcc-contracts/contracts/wwccPool.sol\":14020:14030  msg.sender */\n      caller\n        /* \"wwcc-contracts/contracts/wwccPool.sol\":14020:14039  msg.sender == owner */\n      0xffffffffffffffffffffffffffffffffffffffff\n      and\n      eq\n        /* \"wwcc-contracts/contracts/wwccPool.sol\":13999:14090  require(... */\n      tag_242\n      jumpi\n      mload(0x40)\n      0x08c379a000000000000000000000000000000000000000000000000000000000\n      dup2\n      mstore\n      0x04\n      add\n      tag_243\n      swap1\n      tag_113\n      jump\t// in\n    tag_243:\n      mload(0x40)\n      dup1\n      swap2\n      sub\n      swap1\n      revert\n    tag_242:\n        /* \"wwcc-contracts/contracts/wwccPool.sol\":6728:6745  contains(poolKey) */\n      tag_245\n        /* \"wwcc-contracts/contracts/wwccPool.sol\":6737:6744  poolKey */\n      dup3\n        /* \"wwcc-contracts/contracts/wwccPool.sol\":6728:6736  contains */\n      tag_120\n        /* \"wwcc-contracts/contracts/wwccPool.sol\":6728:6745  contains(poolKey) */\n      jump\t// in\n    tag_245:\n        /* \"wwcc-contracts/contracts/wwccPool.sol\":6724:6984  if(!contains(poolKey)) { ... */\n      tag_246\n      jumpi\n        /* \"wwcc-contracts/contracts/wwccPool.sol\":6762:6786  revert(\"pool not exist\") */\n      mload(0x40)\n      0x08c379a000000000000000000000000000000000000000000000000000000000\n      dup2\n      mstore\n      0x04\n      add\n      tag_247\n      swap1\n      tag_123\n      jump\t// in\n    tag_247:\n      mload(0x40)\n      dup1\n      swap2\n      sub\n      swap1\n      revert\n        /* \"wwcc-contracts/contracts/wwccPool.sol\":6724:6984  if(!contains(poolKey)) { ... */\n    tag_246:\n        /* \"wwcc-contracts/contracts/wwccPool.sol\":6814:6832  WcPool memory pool */\n      0x00\n        /* \"wwcc-contracts/contracts/wwccPool.sol\":6835:6842  WcPools */\n      0x05\n        /* \"wwcc-contracts/contracts/wwccPool.sol\":6835:6851  WcPools[poolKey] */\n      0x00\n        /* \"wwcc-contracts/contracts/wwccPool.sol\":6843:6850  poolKey */\n      dup5\n        /* \"wwcc-contracts/contracts/wwccPool.sol\":6835:6851  WcPools[poolKey] */\n      dup2\n      mstore\n      0x20\n      add\n      swap1\n      dup2\n      mstore\n      0x20\n      add\n      0x00\n      keccak256\n        /* \"wwcc-contracts/contracts/wwccPool.sol\":6814:6851  WcPool memory pool = WcPools[poolKey] */\n      mload(0x40)\n      dup1\n      0x0160\n      add\n      0x40\n      mstore\n      swap1\n      dup2\n      0x00\n      dup3\n      add\n      dup1\n      sload\n      tag_249\n      swap1\n      tag_126\n      jump\t// in\n    tag_249:\n      dup1\n      0x1f\n      add\n      0x20\n      dup1\n      swap2\n      div\n      mul\n      0x20\n      add\n      mload(0x40)\n      swap1\n      dup2\n      add\n      0x40\n      mstore\n      dup1\n      swap3\n      swap2\n      swap1\n      dup2\n      dup2\n      mstore\n      0x20\n      add\n      dup3\n      dup1\n      sload\n      tag_250\n      swap1\n      tag_126\n      jump\t// in\n    tag_250:\n      dup1\n      iszero\n      tag_251\n      jumpi\n      dup1\n      0x1f\n      lt\n      tag_252\n      jumpi\n      0x0100\n      dup1\n      dup4\n      sload\n      div\n      mul\n      dup4\n      mstore\n      swap2\n      0x20\n      add\n      swap2\n      jump(tag_251)\n    tag_252:\n      dup3\n      add\n      swap2\n      swap1\n      0x00\n      mstore\n      keccak256(0x00, 0x20)\n      swap1\n    tag_253:\n      dup2\n      sload\n      dup2\n      mstore\n      swap1\n      0x01\n      add\n      swap1\n      0x20\n      add\n      dup1\n      dup4\n      gt\n      tag_253\n      jumpi\n      dup3\n      swap1\n      sub\n      0x1f\n      and\n      dup3\n      add\n      swap2\n    tag_251:\n      pop\n      pop\n      pop\n      pop\n      pop\n      dup2\n      mstore\n      0x20\n      add\n      0x01\n      dup3\n      add\n      dup1\n      sload\n      tag_254\n      swap1\n      tag_126\n      jump\t// in\n    tag_254:\n      dup1\n      0x1f\n      add\n      0x20\n      dup1\n      swap2\n      div\n      mul\n      0x20\n      add\n      mload(0x40)\n      swap1\n      dup2\n      add\n      0x40\n      mstore\n      dup1\n      swap3\n      swap2\n      swap1\n      dup2\n      dup2\n      mstore\n      0x20\n      add\n      dup3\n      dup1\n      sload\n      tag_255\n      swap1\n      tag_126\n      jump\t// in\n    tag_255:\n      dup1\n      iszero\n      tag_256\n      jumpi\n      dup1\n      0x1f\n      lt\n      tag_257\n      jumpi\n      0x0100\n      dup1\n      dup4\n      sload\n      div\n      mul\n      dup4\n      mstore\n      swap2\n      0x20\n      add\n      swap2\n      jump(tag_256)\n    tag_257:\n      dup3\n      add\n      swap2\n      swap1\n      0x00\n      mstore\n      keccak256(0x00, 0x20)\n      swap1\n    tag_258:\n      dup2\n      sload\n      dup2\n      mstore\n      swap1\n      0x01\n      add\n      swap1\n      0x20\n      add\n      dup1\n      dup4\n      gt\n      tag_258\n      jumpi\n      dup3\n      swap1\n      sub\n      0x1f\n      and\n      dup3\n      add\n      swap2\n    tag_256:\n      pop\n      pop\n      pop\n      pop\n      pop\n      dup2\n      mstore\n      0x20\n      add\n      0x02\n      dup3\n      add\n      dup1\n      sload\n      tag_259\n      swap1\n      tag_126\n      jump\t// in\n    tag_259:\n      dup1\n      0x1f\n      add\n      0x20\n      dup1\n      swap2\n      div\n      mul\n      0x20\n      add\n      mload(0x40)\n      swap1\n      dup2\n      add\n      0x40\n      mstore\n      dup1\n      swap3\n      swap2\n      swap1\n      dup2\n      dup2\n      mstore\n      0x20\n      add\n      dup3\n      dup1\n      sload\n      tag_260\n      swap1\n      tag_126\n      jump\t// in\n    tag_260:\n      dup1\n      iszero\n      tag_261\n      jumpi\n      dup1\n      0x1f\n      lt\n      tag_262\n      jumpi\n      0x0100\n      dup1\n      dup4\n      sload\n      div\n      mul\n      dup4\n      mstore\n      swap2\n      0x20\n      add\n      swap2\n      jump(tag_261)\n    tag_262:\n      dup3\n      add\n      swap2\n      swap1\n      0x00\n      mstore\n      keccak256(0x00, 0x20)\n      swap1\n    tag_263:\n      dup2\n      sload\n      dup2\n      mstore\n      swap1\n      0x01\n      add\n      swap1\n      0x20\n      add\n      dup1\n      dup4\n      gt\n      tag_263\n      jumpi\n      dup3\n      swap1\n      sub\n      0x1f\n      and\n      dup3\n      add\n      swap2\n    tag_261:\n      pop\n      pop\n      pop\n      pop\n      pop\n      dup2\n      mstore\n      0x20\n      add\n      0x03\n      dup3\n      add\n      sload\n      dup2\n      mstore\n      0x20\n      add\n      0x04\n      dup3\n      add\n      sload\n      dup2\n      mstore\n      0x20\n      add\n      0x05\n      dup3\n      add\n      sload\n      dup2\n      mstore\n      0x20\n      add\n      0x06\n      dup3\n      add\n      sload\n      dup2\n      mstore\n      0x20\n      add\n      0x07\n      dup3\n      add\n      sload\n      dup2\n      mstore\n      0x20\n      add\n      0x08\n      dup3\n      add\n      0x00\n      swap1\n      sload\n      swap1\n      0x0100\n      exp\n      swap1\n      div\n      0xff\n      and\n      iszero\n      iszero\n      iszero\n      iszero\n      dup2\n      mstore\n      0x20\n      add\n      0x08\n      dup3\n      add\n      0x01\n      swap1\n      sload\n      swap1\n      0x0100\n      exp\n      swap1\n      div\n      0xff\n      and\n      iszero\n      iszero\n      iszero\n      iszero\n      dup2\n      mstore\n      0x20\n      add\n      0x08\n      dup3\n      add\n      0x02\n      swap1\n      sload\n      swap1\n      0x0100\n      exp\n      swap1\n      div\n      0xff\n      and\n      iszero\n      iszero\n      iszero\n      iszero\n      dup2\n      mstore\n      pop\n      pop\n      swap1\n      pop\n        /* \"wwcc-contracts/contracts/wwccPool.sol\":6864:6878  uint256 expect */\n      0x00\n        /* \"wwcc-contracts/contracts/wwccPool.sol\":6881:6947  (pool.wPool+pool.lPool+pool.dPool+pool.sPool + pool.basal).div(10) */\n      tag_264\n        /* \"wwcc-contracts/contracts/wwccPool.sol\":6944:6946  10 */\n      0x0a\n        /* \"wwcc-contracts/contracts/wwccPool.sol\":6928:6932  pool */\n      dup4\n        /* \"wwcc-contracts/contracts/wwccPool.sol\":6928:6938  pool.basal */\n      0xe0\n      add\n      mload\n        /* \"wwcc-contracts/contracts/wwccPool.sol\":6915:6919  pool */\n      dup5\n        /* \"wwcc-contracts/contracts/wwccPool.sol\":6915:6925  pool.sPool */\n      0xc0\n      add\n      mload\n        /* \"wwcc-contracts/contracts/wwccPool.sol\":6904:6908  pool */\n      dup6\n        /* \"wwcc-contracts/contracts/wwccPool.sol\":6904:6914  pool.dPool */\n      0x80\n      add\n      mload\n        /* \"wwcc-contracts/contracts/wwccPool.sol\":6893:6897  pool */\n      dup7\n        /* \"wwcc-contracts/contracts/wwccPool.sol\":6893:6903  pool.lPool */\n      0xa0\n      add\n      mload\n        /* \"wwcc-contracts/contracts/wwccPool.sol\":6882:6886  pool */\n      dup8\n        /* \"wwcc-contracts/contracts/wwccPool.sol\":6882:6892  pool.wPool */\n      0x60\n      add\n      mload\n        /* \"wwcc-contracts/contracts/wwccPool.sol\":6882:6903  pool.wPool+pool.lPool */\n      tag_265\n      swap2\n      swap1\n      tag_26\n      jump\t// in\n    tag_265:\n        /* \"wwcc-contracts/contracts/wwccPool.sol\":6882:6914  pool.wPool+pool.lPool+pool.dPool */\n      tag_266\n      swap2\n      swap1\n      tag_26\n      jump\t// in\n    tag_266:\n        /* \"wwcc-contracts/contracts/wwccPool.sol\":6882:6925  pool.wPool+pool.lPool+pool.dPool+pool.sPool */\n      tag_267\n      swap2\n      swap1\n      tag_26\n      jump\t// in\n    tag_267:\n        /* \"wwcc-contracts/contracts/wwccPool.sol\":6882:6938  pool.wPool+pool.lPool+pool.dPool+pool.sPool + pool.basal */\n      tag_268\n      swap2\n      swap1\n      tag_26\n      jump\t// in\n    tag_268:\n        /* \"wwcc-contracts/contracts/wwccPool.sol\":6881:6943  (pool.wPool+pool.lPool+pool.dPool+pool.sPool + pool.basal).div */\n      tag_24\n      swap1\n        /* \"wwcc-contracts/contracts/wwccPool.sol\":6881:6947  (pool.wPool+pool.lPool+pool.dPool+pool.sPool + pool.basal).div(10) */\n      swap2\n      swap1\n      0xffffffff\n      and\n      jump\t// in\n    tag_264:\n        /* \"wwcc-contracts/contracts/wwccPool.sol\":6864:6947  uint256 expect = (pool.wPool+pool.lPool+pool.dPool+pool.sPool + pool.basal).div(10) */\n      swap1\n      pop\n        /* \"wwcc-contracts/contracts/wwccPool.sol\":6967:6973  expect */\n      dup1\n        /* \"wwcc-contracts/contracts/wwccPool.sol\":6960:6973  return expect */\n      swap3\n      pop\n      pop\n      pop\n        /* \"wwcc-contracts/contracts/wwccPool.sol\":6632:6990  function CheckExpect(bytes32 poolKey) external onlyManager view  returns (uint256){... */\n      swap2\n      swap1\n      pop\n      jump\t// out\n        /* \"wwcc-contracts/contracts/wwccPool.sol\":2982:4308  function Picking(address joiner,uint256 weight,bytes32 poolKey,uint256 homeScore,uint256 visitScore,uint256 kind) external returns(bool){... */\n    tag_79:\n        /* \"wwcc-contracts/contracts/wwccPool.sol\":3113:3117  bool */\n      0x00\n        /* \"wwcc-contracts/contracts/wwccPool.sol\":3132:3149  contains(poolKey) */\n      tag_270\n        /* \"wwcc-contracts/contracts/wwccPool.sol\":3141:3148  poolKey */\n      dup6\n        /* \"wwcc-contracts/contracts/wwccPool.sol\":3132:3140  contains */\n      tag_120\n        /* \"wwcc-contracts/contracts/wwccPool.sol\":3132:3149  contains(poolKey) */\n      jump\t// in\n    tag_270:\n        /* \"wwcc-contracts/contracts/wwccPool.sol\":3128:4282  if(!contains(poolKey)) { ... */\n      tag_271\n      jumpi\n        /* \"wwcc-contracts/contracts/wwccPool.sol\":3166:3190  revert(\"pool not exist\") */\n      mload(0x40)\n      0x08c379a000000000000000000000000000000000000000000000000000000000\n      dup2\n      mstore\n      0x04\n      add\n      tag_272\n      swap1\n      tag_123\n      jump\t// in\n    tag_272:\n      mload(0x40)\n      dup1\n      swap2\n      sub\n      swap1\n      revert\n        /* \"wwcc-contracts/contracts/wwccPool.sol\":3128:4282  if(!contains(poolKey)) { ... */\n    tag_271:\n        /* \"wwcc-contracts/contracts/wwccPool.sol\":3239:3245  weight */\n      dup6\n        /* \"wwcc-contracts/contracts/wwccPool.sol\":3220:3230  voteAmount */\n      0x04\n        /* \"wwcc-contracts/contracts/wwccPool.sol\":3220:3238  voteAmount[joiner] */\n      0x00\n        /* \"wwcc-contracts/contracts/wwccPool.sol\":3231:3237  joiner */\n      dup10\n        /* \"wwcc-contracts/contracts/wwccPool.sol\":3220:3238  voteAmount[joiner] */\n      0xffffffffffffffffffffffffffffffffffffffff\n      and\n      0xffffffffffffffffffffffffffffffffffffffff\n      and\n      dup2\n      mstore\n      0x20\n      add\n      swap1\n      dup2\n      mstore\n      0x20\n      add\n      0x00\n      keccak256\n      sload\n        /* \"wwcc-contracts/contracts/wwccPool.sol\":3220:3245  voteAmount[joiner]<weight */\n      lt\n        /* \"wwcc-contracts/contracts/wwccPool.sol\":3217:3308  if(voteAmount[joiner]<weight){... */\n      iszero\n      tag_274\n      jumpi\n        /* \"wwcc-contracts/contracts/wwccPool.sol\":3263:3294  revert(\"not enough voteAmount\") */\n      mload(0x40)\n      0x08c379a000000000000000000000000000000000000000000000000000000000\n      dup2\n      mstore\n      0x04\n      add\n      tag_275\n      swap1\n      tag_159\n      jump\t// in\n    tag_275:\n      mload(0x40)\n      dup1\n      swap2\n      sub\n      swap1\n      revert\n        /* \"wwcc-contracts/contracts/wwccPool.sol\":3217:3308  if(voteAmount[joiner]<weight){... */\n    tag_274:\n        /* \"wwcc-contracts/contracts/wwccPool.sol\":3320:3338  WcPool memory pool */\n      0x00\n        /* \"wwcc-contracts/contracts/wwccPool.sol\":3341:3348  WcPools */\n      0x05\n        /* \"wwcc-contracts/contracts/wwccPool.sol\":3341:3357  WcPools[poolKey] */\n      0x00\n        /* \"wwcc-contracts/contracts/wwccPool.sol\":3349:3356  poolKey */\n      dup8\n        /* \"wwcc-contracts/contracts/wwccPool.sol\":3341:3357  WcPools[poolKey] */\n      dup2\n      mstore\n      0x20\n      add\n      swap1\n      dup2\n      mstore\n      0x20\n      add\n      0x00\n      keccak256\n        /* \"wwcc-contracts/contracts/wwccPool.sol\":3320:3357  WcPool memory pool = WcPools[poolKey] */\n      mload(0x40)\n      dup1\n      0x0160\n      add\n      0x40\n      mstore\n      swap1\n      dup2\n      0x00\n      dup3\n      add\n      dup1\n      sload\n      tag_276\n      swap1\n      tag_126\n      jump\t// in\n    tag_276:\n      dup1\n      0x1f\n      add\n      0x20\n      dup1\n      swap2\n      div\n      mul\n      0x20\n      add\n      mload(0x40)\n      swap1\n      dup2\n      add\n      0x40\n      mstore\n      dup1\n      swap3\n      swap2\n      swap1\n      dup2\n      dup2\n      mstore\n      0x20\n      add\n      dup3\n      dup1\n      sload\n      tag_277\n      swap1\n      tag_126\n      jump\t// in\n    tag_277:\n      dup1\n      iszero\n      tag_278\n      jumpi\n      dup1\n      0x1f\n      lt\n      tag_279\n      jumpi\n      0x0100\n      dup1\n      dup4\n      sload\n      div\n      mul\n      dup4\n      mstore\n      swap2\n      0x20\n      add\n      swap2\n      jump(tag_278)\n    tag_279:\n      dup3\n      add\n      swap2\n      swap1\n      0x00\n      mstore\n      keccak256(0x00, 0x20)\n      swap1\n    tag_280:\n      dup2\n      sload\n      dup2\n      mstore\n      swap1\n      0x01\n      add\n      swap1\n      0x20\n      add\n      dup1\n      dup4\n      gt\n      tag_280\n      jumpi\n      dup3\n      swap1\n      sub\n      0x1f\n      and\n      dup3\n      add\n      swap2\n    tag_278:\n      pop\n      pop\n      pop\n      pop\n      pop\n      dup2\n      mstore\n      0x20\n      add\n      0x01\n      dup3\n      add\n      dup1\n      sload\n      tag_281\n      swap1\n      tag_126\n      jump\t// in\n    tag_281:\n      dup1\n      0x1f\n      add\n      0x20\n      dup1\n      swap2\n      div\n      mul\n      0x20\n      add\n      mload(0x40)\n      swap1\n      dup2\n      add\n      0x40\n      mstore\n      dup1\n      swap3\n      swap2\n      swap1\n      dup2\n      dup2\n      mstore\n      0x20\n      add\n      dup3\n      dup1\n      sload\n      tag_282\n      swap1\n      tag_126\n      jump\t// in\n    tag_282:\n      dup1\n      iszero\n      tag_283\n      jumpi\n      dup1\n      0x1f\n      lt\n      tag_284\n      jumpi\n      0x0100\n      dup1\n      dup4\n      sload\n      div\n      mul\n      dup4\n      mstore\n      swap2\n      0x20\n      add\n      swap2\n      jump(tag_283)\n    tag_284:\n      dup3\n      add\n      swap2\n      swap1\n      0x00\n      mstore\n      keccak256(0x00, 0x20)\n      swap1\n    tag_285:\n      dup2\n      sload\n      dup2\n      mstore\n      swap1\n      0x01\n      add\n      swap1\n      0x20\n      add\n      dup1\n      dup4\n      gt\n      tag_285\n      jumpi\n      dup3\n      swap1\n      sub\n      0x1f\n      and\n      dup3\n      add\n      swap2\n    tag_283:\n      pop\n      pop\n      pop\n      pop\n      pop\n      dup2\n      mstore\n      0x20\n      add\n      0x02\n      dup3\n      add\n      dup1\n      sload\n      tag_286\n      swap1\n      tag_126\n      jump\t// in\n    tag_286:\n      dup1\n      0x1f\n      add\n      0x20\n      dup1\n      swap2\n      div\n      mul\n      0x20\n      add\n      mload(0x40)\n      swap1\n      dup2\n      add\n      0x40\n      mstore\n      dup1\n      swap3\n      swap2\n      swap1\n      dup2\n      dup2\n      mstore\n      0x20\n      add\n      dup3\n      dup1\n      sload\n      tag_287\n      swap1\n      tag_126\n      jump\t// in\n    tag_287:\n      dup1\n      iszero\n      tag_288\n      jumpi\n      dup1\n      0x1f\n      lt\n      tag_289\n      jumpi\n      0x0100\n      dup1\n      dup4\n      sload\n      div\n      mul\n      dup4\n      mstore\n      swap2\n      0x20\n      add\n      swap2\n      jump(tag_288)\n    tag_289:\n      dup3\n      add\n      swap2\n      swap1\n      0x00\n      mstore\n      keccak256(0x00, 0x20)\n      swap1\n    tag_290:\n      dup2\n      sload\n      dup2\n      mstore\n      swap1\n      0x01\n      add\n      swap1\n      0x20\n      add\n      dup1\n      dup4\n      gt\n      tag_290\n      jumpi\n      dup3\n      swap1\n      sub\n      0x1f\n      and\n      dup3\n      add\n      swap2\n    tag_288:\n      pop\n      pop\n      pop\n      pop\n      pop\n      dup2\n      mstore\n      0x20\n      add\n      0x03\n      dup3\n      add\n      sload\n      dup2\n      mstore\n      0x20\n      add\n      0x04\n      dup3\n      add\n      sload\n      dup2\n      mstore\n      0x20\n      add\n      0x05\n      dup3\n      add\n      sload\n      dup2\n      mstore\n      0x20\n      add\n      0x06\n      dup3\n      add\n      sload\n      dup2\n      mstore\n      0x20\n      add\n      0x07\n      dup3\n      add\n      sload\n      dup2\n      mstore\n      0x20\n      add\n      0x08\n      dup3\n      add\n      0x00\n      swap1\n      sload\n      swap1\n      0x0100\n      exp\n      swap1\n      div\n      0xff\n      and\n      iszero\n      iszero\n      iszero\n      iszero\n      dup2\n      mstore\n      0x20\n      add\n      0x08\n      dup3\n      add\n      0x01\n      swap1\n      sload\n      swap1\n      0x0100\n      exp\n      swap1\n      div\n      0xff\n      and\n      iszero\n      iszero\n      iszero\n      iszero\n      dup2\n      mstore\n      0x20\n      add\n      0x08\n      dup3\n      add\n      0x02\n      swap1\n      sload\n      swap1\n      0x0100\n      exp\n      swap1\n      div\n      0xff\n      and\n      iszero\n      iszero\n      iszero\n      iszero\n      dup2\n      mstore\n      pop\n      pop\n      swap1\n      pop\n        /* \"wwcc-contracts/contracts/wwccPool.sol\":3370:3387  string  memory si */\n      0x00\n        /* \"wwcc-contracts/contracts/wwccPool.sol\":3390:3455  strConcat(uint256ToString(homeScore),uint256ToString(visitScore)) */\n      tag_291\n        /* \"wwcc-contracts/contracts/wwccPool.sol\":3400:3426  uint256ToString(homeScore) */\n      tag_292\n        /* \"wwcc-contracts/contracts/wwccPool.sol\":3416:3425  homeScore */\n      dup8\n        /* \"wwcc-contracts/contracts/wwccPool.sol\":3400:3415  uint256ToString */\n      tag_177\n        /* \"wwcc-contracts/contracts/wwccPool.sol\":3400:3426  uint256ToString(homeScore) */\n      jump\t// in\n    tag_292:\n        /* \"wwcc-contracts/contracts/wwccPool.sol\":3427:3454  uint256ToString(visitScore) */\n      tag_293\n        /* \"wwcc-contracts/contracts/wwccPool.sol\":3443:3453  visitScore */\n      dup8\n        /* \"wwcc-contracts/contracts/wwccPool.sol\":3427:3442  uint256ToString */\n      tag_177\n        /* \"wwcc-contracts/contracts/wwccPool.sol\":3427:3454  uint256ToString(visitScore) */\n      jump\t// in\n    tag_293:\n        /* \"wwcc-contracts/contracts/wwccPool.sol\":3390:3399  strConcat */\n      tag_179\n        /* \"wwcc-contracts/contracts/wwccPool.sol\":3390:3455  strConcat(uint256ToString(homeScore),uint256ToString(visitScore)) */\n      jump\t// in\n    tag_291:\n        /* \"wwcc-contracts/contracts/wwccPool.sol\":3370:3455  string  memory si = strConcat(uint256ToString(homeScore),uint256ToString(visitScore)) */\n      swap1\n      pop\n        /* \"wwcc-contracts/contracts/wwccPool.sol\":3468:3493  string  memory pickingKey */\n      0x00\n        /* \"wwcc-contracts/contracts/wwccPool.sol\":3496:3534  strConcat(bytes32ToString(poolKey),si) */\n      tag_294\n        /* \"wwcc-contracts/contracts/wwccPool.sol\":3506:3530  bytes32ToString(poolKey) */\n      tag_295\n        /* \"wwcc-contracts/contracts/wwccPool.sol\":3522:3529  poolKey */\n      dup10\n        /* \"wwcc-contracts/contracts/wwccPool.sol\":3506:3521  bytes32ToString */\n      tag_296\n        /* \"wwcc-contracts/contracts/wwccPool.sol\":3506:3530  bytes32ToString(poolKey) */\n      jump\t// in\n    tag_295:\n        /* \"wwcc-contracts/contracts/wwccPool.sol\":3531:3533  si */\n      dup4\n        /* \"wwcc-contracts/contracts/wwccPool.sol\":3496:3505  strConcat */\n      tag_179\n        /* \"wwcc-contracts/contracts/wwccPool.sol\":3496:3534  strConcat(bytes32ToString(poolKey),si) */\n      jump\t// in\n    tag_294:\n        /* \"wwcc-contracts/contracts/wwccPool.sol\":3468:3534  string  memory pickingKey = strConcat(bytes32ToString(poolKey),si) */\n      swap1\n      pop\n        /* \"wwcc-contracts/contracts/wwccPool.sol\":3547:3570  JoinerPicking memory jp */\n      0x00\n        /* \"wwcc-contracts/contracts/wwccPool.sol\":3573:3644  JoinerPicking(weight,kind,homeScore,visitScore,joiner,pickingKey,false) */\n      mload(0x40)\n      dup1\n      0xe0\n      add\n      0x40\n      mstore\n      dup1\n        /* \"wwcc-contracts/contracts/wwccPool.sol\":3587:3593  weight */\n      dup12\n        /* \"wwcc-contracts/contracts/wwccPool.sol\":3573:3644  JoinerPicking(weight,kind,homeScore,visitScore,joiner,pickingKey,false) */\n      dup2\n      mstore\n      0x20\n      add\n        /* \"wwcc-contracts/contracts/wwccPool.sol\":3594:3598  kind */\n      dup8\n        /* \"wwcc-contracts/contracts/wwccPool.sol\":3573:3644  JoinerPicking(weight,kind,homeScore,visitScore,joiner,pickingKey,false) */\n      dup2\n      mstore\n      0x20\n      add\n        /* \"wwcc-contracts/contracts/wwccPool.sol\":3599:3608  homeScore */\n      dup10\n        /* \"wwcc-contracts/contracts/wwccPool.sol\":3573:3644  JoinerPicking(weight,kind,homeScore,visitScore,joiner,pickingKey,false) */\n      dup2\n      mstore\n      0x20\n      add\n        /* \"wwcc-contracts/contracts/wwccPool.sol\":3609:3619  visitScore */\n      dup9\n        /* \"wwcc-contracts/contracts/wwccPool.sol\":3573:3644  JoinerPicking(weight,kind,homeScore,visitScore,joiner,pickingKey,false) */\n      dup2\n      mstore\n      0x20\n      add\n        /* \"wwcc-contracts/contracts/wwccPool.sol\":3620:3626  joiner */\n      dup13\n        /* \"wwcc-contracts/contracts/wwccPool.sol\":3573:3644  JoinerPicking(weight,kind,homeScore,visitScore,joiner,pickingKey,false) */\n      0xffffffffffffffffffffffffffffffffffffffff\n      and\n      dup2\n      mstore\n      0x20\n      add\n        /* \"wwcc-contracts/contracts/wwccPool.sol\":3627:3637  pickingKey */\n      dup4\n        /* \"wwcc-contracts/contracts/wwccPool.sol\":3573:3644  JoinerPicking(weight,kind,homeScore,visitScore,joiner,pickingKey,false) */\n      dup2\n      mstore\n      0x20\n      add\n        /* \"wwcc-contracts/contracts/wwccPool.sol\":3638:3643  false */\n      0x00\n        /* \"wwcc-contracts/contracts/wwccPool.sol\":3573:3644  JoinerPicking(weight,kind,homeScore,visitScore,joiner,pickingKey,false) */\n      iszero\n      iszero\n      dup2\n      mstore\n      pop\n        /* \"wwcc-contracts/contracts/wwccPool.sol\":3547:3644  JoinerPicking memory jp = JoinerPicking(weight,kind,homeScore,visitScore,joiner,pickingKey,false) */\n      swap1\n      pop\n        /* \"wwcc-contracts/contracts/wwccPool.sol\":3693:3700  poolKey */\n      dup9\n        /* \"wwcc-contracts/contracts/wwccPool.sol\":3657:3673  allScorePoolInfo */\n      0x06\n        /* \"wwcc-contracts/contracts/wwccPool.sol\":3657:3682  allScorePoolInfo[poolKey] */\n      0x00\n        /* \"wwcc-contracts/contracts/wwccPool.sol\":3674:3681  poolKey */\n      dup12\n        /* \"wwcc-contracts/contracts/wwccPool.sol\":3657:3682  allScorePoolInfo[poolKey] */\n      dup2\n      mstore\n      0x20\n      add\n      swap1\n      dup2\n      mstore\n      0x20\n      add\n      0x00\n      keccak256\n        /* \"wwcc-contracts/contracts/wwccPool.sol\":3657:3690  allScorePoolInfo[poolKey].poolKey */\n      0x01\n      add\n        /* \"wwcc-contracts/contracts/wwccPool.sol\":3657:3700  allScorePoolInfo[poolKey].poolKey = poolKey */\n      dup2\n      swap1\n      sstore\n      pop\n        /* \"wwcc-contracts/contracts/wwccPool.sol\":3713:3729  allScorePoolInfo */\n      0x06\n        /* \"wwcc-contracts/contracts/wwccPool.sol\":3713:3738  allScorePoolInfo[poolKey] */\n      0x00\n        /* \"wwcc-contracts/contracts/wwccPool.sol\":3730:3737  poolKey */\n      dup11\n        /* \"wwcc-contracts/contracts/wwccPool.sol\":3713:3738  allScorePoolInfo[poolKey] */\n      dup2\n      mstore\n      0x20\n      add\n      swap1\n      dup2\n      mstore\n      0x20\n      add\n      0x00\n      keccak256\n        /* \"wwcc-contracts/contracts/wwccPool.sol\":3713:3750  allScorePoolInfo[poolKey].separateBet */\n      0x00\n      add\n        /* \"wwcc-contracts/contracts/wwccPool.sol\":3756:3758  jp */\n      dup2\n        /* \"wwcc-contracts/contracts/wwccPool.sol\":3713:3759  allScorePoolInfo[poolKey].separateBet.push(jp) */\n      swap1\n      dup1\n      0x01\n      dup2\n      sload\n      add\n      dup1\n      dup3\n      sstore\n      dup1\n      swap2\n      pop\n      pop\n      0x01\n      swap1\n      sub\n      swap1\n      0x00\n      mstore\n      keccak256(0x00, 0x20)\n      swap1\n      0x07\n      mul\n      add\n      0x00\n      swap1\n      swap2\n      swap1\n      swap2\n      swap1\n      swap2\n      pop\n      0x00\n      dup3\n      add\n      mload\n      dup2\n      0x00\n      add\n      sstore\n      0x20\n      dup3\n      add\n      mload\n      dup2\n      0x01\n      add\n      sstore\n      0x40\n      dup3\n      add\n      mload\n      dup2\n      0x02\n      add\n      sstore\n      0x60\n      dup3\n      add\n      mload\n      dup2\n      0x03\n      add\n      sstore\n      0x80\n      dup3\n      add\n      mload\n      dup2\n      0x04\n      add\n      exp(0x0100, 0x00)\n      dup2\n      sload\n      dup2\n      0xffffffffffffffffffffffffffffffffffffffff\n      mul\n      not\n      and\n      swap1\n      dup4\n      0xffffffffffffffffffffffffffffffffffffffff\n      and\n      mul\n      or\n      swap1\n      sstore\n      pop\n      0xa0\n      dup3\n      add\n      mload\n      dup2\n      0x05\n      add\n      swap1\n      dup1\n      mload\n      swap1\n      0x20\n      add\n      swap1\n      tag_298\n      swap3\n      swap2\n      swap1\n      tag_233\n      jump\t// in\n    tag_298:\n      pop\n      0xc0\n      dup3\n      add\n      mload\n      dup2\n      0x06\n      add\n      exp(0x0100, 0x00)\n      dup2\n      sload\n      dup2\n      0xff\n      mul\n      not\n      and\n      swap1\n      dup4\n      iszero\n      iszero\n      mul\n      or\n      swap1\n      sstore\n      pop\n      pop\n      pop\n        /* \"wwcc-contracts/contracts/wwccPool.sol\":3807:3813  joiner */\n      dup11\n        /* \"wwcc-contracts/contracts/wwccPool.sol\":3773:3789  joinerAllPicking */\n      0x08\n        /* \"wwcc-contracts/contracts/wwccPool.sol\":3773:3797  joinerAllPicking[joiner] */\n      0x00\n        /* \"wwcc-contracts/contracts/wwccPool.sol\":3790:3796  joiner */\n      dup14\n        /* \"wwcc-contracts/contracts/wwccPool.sol\":3773:3797  joinerAllPicking[joiner] */\n      0xffffffffffffffffffffffffffffffffffffffff\n      and\n      0xffffffffffffffffffffffffffffffffffffffff\n      and\n      dup2\n      mstore\n      0x20\n      add\n      swap1\n      dup2\n      mstore\n      0x20\n      add\n      0x00\n      keccak256\n        /* \"wwcc-contracts/contracts/wwccPool.sol\":3773:3804  joinerAllPicking[joiner].joiner */\n      0x01\n      add\n      0x00\n        /* \"wwcc-contracts/contracts/wwccPool.sol\":3773:3813  joinerAllPicking[joiner].joiner = joiner */\n      0x0100\n      exp\n      dup2\n      sload\n      dup2\n      0xffffffffffffffffffffffffffffffffffffffff\n      mul\n      not\n      and\n      swap1\n      dup4\n      0xffffffffffffffffffffffffffffffffffffffff\n      and\n      mul\n      or\n      swap1\n      sstore\n      pop\n        /* \"wwcc-contracts/contracts/wwccPool.sol\":3826:3842  allScorePoolInfo */\n      0x06\n        /* \"wwcc-contracts/contracts/wwccPool.sol\":3826:3851  allScorePoolInfo[poolKey] */\n      0x00\n        /* \"wwcc-contracts/contracts/wwccPool.sol\":3843:3850  poolKey */\n      dup11\n        /* \"wwcc-contracts/contracts/wwccPool.sol\":3826:3851  allScorePoolInfo[poolKey] */\n      dup2\n      mstore\n      0x20\n      add\n      swap1\n      dup2\n      mstore\n      0x20\n      add\n      0x00\n      keccak256\n        /* \"wwcc-contracts/contracts/wwccPool.sol\":3826:3863  allScorePoolInfo[poolKey].separateBet */\n      0x00\n      add\n        /* \"wwcc-contracts/contracts/wwccPool.sol\":3869:3871  jp */\n      dup2\n        /* \"wwcc-contracts/contracts/wwccPool.sol\":3826:3872  allScorePoolInfo[poolKey].separateBet.push(jp) */\n      swap1\n      dup1\n      0x01\n      dup2\n      sload\n      add\n      dup1\n      dup3\n      sstore\n      dup1\n      swap2\n      pop\n      pop\n      0x01\n      swap1\n      sub\n      swap1\n      0x00\n      mstore\n      keccak256(0x00, 0x20)\n      swap1\n      0x07\n      mul\n      add\n      0x00\n      swap1\n      swap2\n      swap1\n      swap2\n      swap1\n      swap2\n      pop\n      0x00\n      dup3\n      add\n      mload\n      dup2\n      0x00\n      add\n      sstore\n      0x20\n      dup3\n      add\n      mload\n      dup2\n      0x01\n      add\n      sstore\n      0x40\n      dup3\n      add\n      mload\n      dup2\n      0x02\n      add\n      sstore\n      0x60\n      dup3\n      add\n      mload\n      dup2\n      0x03\n      add\n      sstore\n      0x80\n      dup3\n      add\n      mload\n      dup2\n      0x04\n      add\n      exp(0x0100, 0x00)\n      dup2\n      sload\n      dup2\n      0xffffffffffffffffffffffffffffffffffffffff\n      mul\n      not\n      and\n      swap1\n      dup4\n      0xffffffffffffffffffffffffffffffffffffffff\n      and\n      mul\n      or\n      swap1\n      sstore\n      pop\n      0xa0\n      dup3\n      add\n      mload\n      dup2\n      0x05\n      add\n      swap1\n      dup1\n      mload\n      swap1\n      0x20\n      add\n      swap1\n      tag_300\n      swap3\n      swap2\n      swap1\n      tag_233\n      jump\t// in\n    tag_300:\n      pop\n      0xc0\n      dup3\n      add\n      mload\n      dup2\n      0x06\n      add\n      exp(0x0100, 0x00)\n      dup2\n      sload\n      dup2\n      0xff\n      mul\n      not\n      and\n      swap1\n      dup4\n      iszero\n      iszero\n      mul\n      or\n      swap1\n      sstore\n      pop\n      pop\n      pop\n        /* \"wwcc-contracts/contracts/wwccPool.sol\":3899:3900  2 */\n      0x02\n        /* \"wwcc-contracts/contracts/wwccPool.sol\":3891:3895  kind */\n      dup7\n        /* \"wwcc-contracts/contracts/wwccPool.sol\":3891:3900  kind == 2 */\n      eq\n        /* \"wwcc-contracts/contracts/wwccPool.sol\":3887:4219  if (kind == 2){... */\n      iszero\n      tag_301\n      jumpi\n        /* \"wwcc-contracts/contracts/wwccPool.sol\":3931:3937  weight */\n      dup10\n        /* \"wwcc-contracts/contracts/wwccPool.sol\":3917:3921  pool */\n      dup5\n        /* \"wwcc-contracts/contracts/wwccPool.sol\":3917:3927  pool.sPool */\n      0xc0\n      add\n        /* \"wwcc-contracts/contracts/wwccPool.sol\":3917:3937  pool.sPool += weight */\n      dup2\n      dup2\n      mload\n      tag_302\n      swap2\n      swap1\n      tag_26\n      jump\t// in\n    tag_302:\n      swap2\n      pop\n      dup2\n      dup2\n      mstore\n      pop\n      pop\n        /* \"wwcc-contracts/contracts/wwccPool.sol\":3984:3990  weight */\n      dup10\n        /* \"wwcc-contracts/contracts/wwccPool.sol\":3953:3968  singleScorePool */\n      0x07\n        /* \"wwcc-contracts/contracts/wwccPool.sol\":3969:3979  pickingKey */\n      dup4\n        /* \"wwcc-contracts/contracts/wwccPool.sol\":3953:3980  singleScorePool[pickingKey] */\n      mload(0x40)\n      tag_303\n      swap2\n      swap1\n      tag_226\n      jump\t// in\n    tag_303:\n      swap1\n      dup2\n      mstore\n      0x20\n      add\n      mload(0x40)\n      dup1\n      swap2\n      sub\n      swap1\n      keccak256\n      0x00\n        /* \"wwcc-contracts/contracts/wwccPool.sol\":3953:3990  singleScorePool[pickingKey] += weight */\n      dup3\n      dup3\n      sload\n      tag_304\n      swap2\n      swap1\n      tag_26\n      jump\t// in\n    tag_304:\n      swap3\n      pop\n      pop\n      dup2\n      swap1\n      sstore\n      pop\n        /* \"wwcc-contracts/contracts/wwccPool.sol\":3887:4219  if (kind == 2){... */\n      jump(tag_305)\n    tag_301:\n        /* \"wwcc-contracts/contracts/wwccPool.sol\":4034:4035  3 */\n      0x03\n        /* \"wwcc-contracts/contracts/wwccPool.sol\":4026:4030  kind */\n      dup7\n        /* \"wwcc-contracts/contracts/wwccPool.sol\":4026:4035  kind == 3 */\n      eq\n        /* \"wwcc-contracts/contracts/wwccPool.sol\":4023:4219  if(kind == 3){... */\n      iszero\n      tag_306\n      jumpi\n        /* \"wwcc-contracts/contracts/wwccPool.sol\":4068:4074  weight */\n      dup10\n        /* \"wwcc-contracts/contracts/wwccPool.sol\":4054:4058  pool */\n      dup5\n        /* \"wwcc-contracts/contracts/wwccPool.sol\":4054:4064  pool.wPool */\n      0x60\n      add\n        /* \"wwcc-contracts/contracts/wwccPool.sol\":4054:4074  pool.wPool += weight */\n      dup2\n      dup2\n      mload\n      tag_307\n      swap2\n      swap1\n      tag_26\n      jump\t// in\n    tag_307:\n      swap2\n      pop\n      dup2\n      dup2\n      mstore\n      pop\n      pop\n        /* \"wwcc-contracts/contracts/wwccPool.sol\":4023:4219  if(kind == 3){... */\n      jump(tag_308)\n    tag_306:\n        /* \"wwcc-contracts/contracts/wwccPool.sol\":4106:4107  1 */\n      0x01\n        /* \"wwcc-contracts/contracts/wwccPool.sol\":4098:4102  kind */\n      dup7\n        /* \"wwcc-contracts/contracts/wwccPool.sol\":4098:4107  kind == 1 */\n      eq\n        /* \"wwcc-contracts/contracts/wwccPool.sol\":4094:4219  if (kind == 1){... */\n      iszero\n      tag_309\n      jumpi\n        /* \"wwcc-contracts/contracts/wwccPool.sol\":4140:4146  weight */\n      dup10\n        /* \"wwcc-contracts/contracts/wwccPool.sol\":4126:4130  pool */\n      dup5\n        /* \"wwcc-contracts/contracts/wwccPool.sol\":4126:4136  pool.dPool */\n      0x80\n      add\n        /* \"wwcc-contracts/contracts/wwccPool.sol\":4126:4146  pool.dPool += weight */\n      dup2\n      dup2\n      mload\n      tag_310\n      swap2\n      swap1\n      tag_26\n      jump\t// in\n    tag_310:\n      swap2\n      pop\n      dup2\n      dup2\n      mstore\n      pop\n      pop\n        /* \"wwcc-contracts/contracts/wwccPool.sol\":4094:4219  if (kind == 1){... */\n      jump(tag_311)\n    tag_309:\n        /* \"wwcc-contracts/contracts/wwccPool.sol\":4198:4204  weight */\n      dup10\n        /* \"wwcc-contracts/contracts/wwccPool.sol\":4184:4188  pool */\n      dup5\n        /* \"wwcc-contracts/contracts/wwccPool.sol\":4184:4194  pool.lPool */\n      0xa0\n      add\n        /* \"wwcc-contracts/contracts/wwccPool.sol\":4184:4204  pool.lPool += weight */\n      dup2\n      dup2\n      mload\n      tag_312\n      swap2\n      swap1\n      tag_26\n      jump\t// in\n    tag_312:\n      swap2\n      pop\n      dup2\n      dup2\n      mstore\n      pop\n      pop\n        /* \"wwcc-contracts/contracts/wwccPool.sol\":4094:4219  if (kind == 1){... */\n    tag_311:\n        /* \"wwcc-contracts/contracts/wwccPool.sol\":4023:4219  if(kind == 3){... */\n    tag_308:\n        /* \"wwcc-contracts/contracts/wwccPool.sol\":3887:4219  if (kind == 2){... */\n    tag_305:\n        /* \"wwcc-contracts/contracts/wwccPool.sol\":4254:4260  weight */\n      dup10\n        /* \"wwcc-contracts/contracts/wwccPool.sol\":4232:4242  voteAmount */\n      0x04\n        /* \"wwcc-contracts/contracts/wwccPool.sol\":4232:4250  voteAmount[joiner] */\n      0x00\n        /* \"wwcc-contracts/contracts/wwccPool.sol\":4243:4249  joiner */\n      dup14\n        /* \"wwcc-contracts/contracts/wwccPool.sol\":4232:4250  voteAmount[joiner] */\n      0xffffffffffffffffffffffffffffffffffffffff\n      and\n      0xffffffffffffffffffffffffffffffffffffffff\n      and\n      dup2\n      mstore\n      0x20\n      add\n      swap1\n      dup2\n      mstore\n      0x20\n      add\n      0x00\n      keccak256\n      0x00\n        /* \"wwcc-contracts/contracts/wwccPool.sol\":4232:4260  voteAmount[joiner] -= weight */\n      dup3\n      dup3\n      sload\n      tag_313\n      swap2\n      swap1\n      tag_185\n      jump\t// in\n    tag_313:\n      swap3\n      pop\n      pop\n      dup2\n      swap1\n      sstore\n      pop\n        /* \"wwcc-contracts/contracts/wwccPool.sol\":3204:4282  {... */\n      pop\n      pop\n      pop\n      pop\n        /* \"wwcc-contracts/contracts/wwccPool.sol\":4297:4301  true */\n      0x01\n        /* \"wwcc-contracts/contracts/wwccPool.sol\":4290:4301  return true */\n      swap1\n      pop\n        /* \"wwcc-contracts/contracts/wwccPool.sol\":2982:4308  function Picking(address joiner,uint256 weight,bytes32 poolKey,uint256 homeScore,uint256 visitScore,uint256 kind) external returns(bool){... */\n      swap7\n      swap6\n      pop\n      pop\n      pop\n      pop\n      pop\n      pop\n      jump\t// out\n        /* \"wwcc-contracts/contracts/wwccPool.sol\":7580:11037  function Award(bytes32 poolKey,uint256 homeScore,uint256 visitScore,uint256 result)  external onlyManager  payable returns(bool){... */\n    tag_84:\n        /* \"wwcc-contracts/contracts/wwccPool.sol\":7703:7707  bool */\n      0x00\n        /* \"wwcc-contracts/contracts/wwccPool.sol\":14034:14039  owner */\n      dup1\n      0x00\n      swap1\n      sload\n      swap1\n      0x0100\n      exp\n      swap1\n      div\n      0xffffffffffffffffffffffffffffffffffffffff\n      and\n        /* \"wwcc-contracts/contracts/wwccPool.sol\":14020:14039  msg.sender == owner */\n      0xffffffffffffffffffffffffffffffffffffffff\n      and\n        /* \"wwcc-contracts/contracts/wwccPool.sol\":14020:14030  msg.sender */\n      caller\n        /* \"wwcc-contracts/contracts/wwccPool.sol\":14020:14039  msg.sender == owner */\n      0xffffffffffffffffffffffffffffffffffffffff\n      and\n      eq\n        /* \"wwcc-contracts/contracts/wwccPool.sol\":13999:14090  require(... */\n      tag_315\n      jumpi\n      mload(0x40)\n      0x08c379a000000000000000000000000000000000000000000000000000000000\n      dup2\n      mstore\n      0x04\n      add\n      tag_316\n      swap1\n      tag_113\n      jump\t// in\n    tag_316:\n      mload(0x40)\n      dup1\n      swap2\n      sub\n      swap1\n      revert\n    tag_315:\n        /* \"wwcc-contracts/contracts/wwccPool.sol\":7722:7739  contains(poolKey) */\n      tag_318\n        /* \"wwcc-contracts/contracts/wwccPool.sol\":7731:7738  poolKey */\n      dup6\n        /* \"wwcc-contracts/contracts/wwccPool.sol\":7722:7730  contains */\n      tag_120\n        /* \"wwcc-contracts/contracts/wwccPool.sol\":7722:7739  contains(poolKey) */\n      jump\t// in\n    tag_318:\n        /* \"wwcc-contracts/contracts/wwccPool.sol\":7718:11011  if(!contains(poolKey)) { ... */\n      tag_319\n      jumpi\n        /* \"wwcc-contracts/contracts/wwccPool.sol\":7756:7780  revert(\"pool not exist\") */\n      mload(0x40)\n      0x08c379a000000000000000000000000000000000000000000000000000000000\n      dup2\n      mstore\n      0x04\n      add\n      tag_320\n      swap1\n      tag_123\n      jump\t// in\n    tag_320:\n      mload(0x40)\n      dup1\n      swap2\n      sub\n      swap1\n      revert\n        /* \"wwcc-contracts/contracts/wwccPool.sol\":7718:11011  if(!contains(poolKey)) { ... */\n    tag_319:\n        /* \"wwcc-contracts/contracts/wwccPool.sol\":7807:7825  WcPool memory pool */\n      0x00\n        /* \"wwcc-contracts/contracts/wwccPool.sol\":7828:7835  WcPools */\n      0x05\n        /* \"wwcc-contracts/contracts/wwccPool.sol\":7828:7844  WcPools[poolKey] */\n      0x00\n        /* \"wwcc-contracts/contracts/wwccPool.sol\":7836:7843  poolKey */\n      dup8\n        /* \"wwcc-contracts/contracts/wwccPool.sol\":7828:7844  WcPools[poolKey] */\n      dup2\n      mstore\n      0x20\n      add\n      swap1\n      dup2\n      mstore\n      0x20\n      add\n      0x00\n      keccak256\n        /* \"wwcc-contracts/contracts/wwccPool.sol\":7807:7844  WcPool memory pool = WcPools[poolKey] */\n      mload(0x40)\n      dup1\n      0x0160\n      add\n      0x40\n      mstore\n      swap1\n      dup2\n      0x00\n      dup3\n      add\n      dup1\n      sload\n      tag_322\n      swap1\n      tag_126\n      jump\t// in\n    tag_322:\n      dup1\n      0x1f\n      add\n      0x20\n      dup1\n      swap2\n      div\n      mul\n      0x20\n      add\n      mload(0x40)\n      swap1\n      dup2\n      add\n      0x40\n      mstore\n      dup1\n      swap3\n      swap2\n      swap1\n      dup2\n      dup2\n      mstore\n      0x20\n      add\n      dup3\n      dup1\n      sload\n      tag_323\n      swap1\n      tag_126\n      jump\t// in\n    tag_323:\n      dup1\n      iszero\n      tag_324\n      jumpi\n      dup1\n      0x1f\n      lt\n      tag_325\n      jumpi\n      0x0100\n      dup1\n      dup4\n      sload\n      div\n      mul\n      dup4\n      mstore\n      swap2\n      0x20\n      add\n      swap2\n      jump(tag_324)\n    tag_325:\n      dup3\n      add\n      swap2\n      swap1\n      0x00\n      mstore\n      keccak256(0x00, 0x20)\n      swap1\n    tag_326:\n      dup2\n      sload\n      dup2\n      mstore\n      swap1\n      0x01\n      add\n      swap1\n      0x20\n      add\n      dup1\n      dup4\n      gt\n      tag_326\n      jumpi\n      dup3\n      swap1\n      sub\n      0x1f\n      and\n      dup3\n      add\n      swap2\n    tag_324:\n      pop\n      pop\n      pop\n      pop\n      pop\n      dup2\n      mstore\n      0x20\n      add\n      0x01\n      dup3\n      add\n      dup1\n      sload\n      tag_327\n      swap1\n      tag_126\n      jump\t// in\n    tag_327:\n      dup1\n      0x1f\n      add\n      0x20\n      dup1\n      swap2\n      div\n      mul\n      0x20\n      add\n      mload(0x40)\n      swap1\n      dup2\n      add\n      0x40\n      mstore\n      dup1\n      swap3\n      swap2\n      swap1\n      dup2\n      dup2\n      mstore\n      0x20\n      add\n      dup3\n      dup1\n      sload\n      tag_328\n      swap1\n      tag_126\n      jump\t// in\n    tag_328:\n      dup1\n      iszero\n      tag_329\n      jumpi\n      dup1\n      0x1f\n      lt\n      tag_330\n      jumpi\n      0x0100\n      dup1\n      dup4\n      sload\n      div\n      mul\n      dup4\n      mstore\n      swap2\n      0x20\n      add\n      swap2\n      jump(tag_329)\n    tag_330:\n      dup3\n      add\n      swap2\n      swap1\n      0x00\n      mstore\n      keccak256(0x00, 0x20)\n      swap1\n    tag_331:\n      dup2\n      sload\n      dup2\n      mstore\n      swap1\n      0x01\n      add\n      swap1\n      0x20\n      add\n      dup1\n      dup4\n      gt\n      tag_331\n      jumpi\n      dup3\n      swap1\n      sub\n      0x1f\n      and\n      dup3\n      add\n      swap2\n    tag_329:\n      pop\n      pop\n      pop\n      pop\n      pop\n      dup2\n      mstore\n      0x20\n      add\n      0x02\n      dup3\n      add\n      dup1\n      sload\n      tag_332\n      swap1\n      tag_126\n      jump\t// in\n    tag_332:\n      dup1\n      0x1f\n      add\n      0x20\n      dup1\n      swap2\n      div\n      mul\n      0x20\n      add\n      mload(0x40)\n      swap1\n      dup2\n      add\n      0x40\n      mstore\n      dup1\n      swap3\n      swap2\n      swap1\n      dup2\n      dup2\n      mstore\n      0x20\n      add\n      dup3\n      dup1\n      sload\n      tag_333\n      swap1\n      tag_126\n      jump\t// in\n    tag_333:\n      dup1\n      iszero\n      tag_334\n      jumpi\n      dup1\n      0x1f\n      lt\n      tag_335\n      jumpi\n      0x0100\n      dup1\n      dup4\n      sload\n      div\n      mul\n      dup4\n      mstore\n      swap2\n      0x20\n      add\n      swap2\n      jump(tag_334)\n    tag_335:\n      dup3\n      add\n      swap2\n      swap1\n      0x00\n      mstore\n      keccak256(0x00, 0x20)\n      swap1\n    tag_336:\n      dup2\n      sload\n      dup2\n      mstore\n      swap1\n      0x01\n      add\n      swap1\n      0x20\n      add\n      dup1\n      dup4\n      gt\n      tag_336\n      jumpi\n      dup3\n      swap1\n      sub\n      0x1f\n      and\n      dup3\n      add\n      swap2\n    tag_334:\n      pop\n      pop\n      pop\n      pop\n      pop\n      dup2\n      mstore\n      0x20\n      add\n      0x03\n      dup3\n      add\n      sload\n      dup2\n      mstore\n      0x20\n      add\n      0x04\n      dup3\n      add\n      sload\n      dup2\n      mstore\n      0x20\n      add\n      0x05\n      dup3\n      add\n      sload\n      dup2\n      mstore\n      0x20\n      add\n      0x06\n      dup3\n      add\n      sload\n      dup2\n      mstore\n      0x20\n      add\n      0x07\n      dup3\n      add\n      sload\n      dup2\n      mstore\n      0x20\n      add\n      0x08\n      dup3\n      add\n      0x00\n      swap1\n      sload\n      swap1\n      0x0100\n      exp\n      swap1\n      div\n      0xff\n      and\n      iszero\n      iszero\n      iszero\n      iszero\n      dup2\n      mstore\n      0x20\n      add\n      0x08\n      dup3\n      add\n      0x01\n      swap1\n      sload\n      swap1\n      0x0100\n      exp\n      swap1\n      div\n      0xff\n      and\n      iszero\n      iszero\n      iszero\n      iszero\n      dup2\n      mstore\n      0x20\n      add\n      0x08\n      dup3\n      add\n      0x02\n      swap1\n      sload\n      swap1\n      0x0100\n      exp\n      swap1\n      div\n      0xff\n      and\n      iszero\n      iszero\n      iszero\n      iszero\n      dup2\n      mstore\n      pop\n      pop\n      swap1\n      pop\n        /* \"wwcc-contracts/contracts/wwccPool.sol\":7875:7879  true */\n      0x01\n        /* \"wwcc-contracts/contracts/wwccPool.sol\":7861:7865  pool */\n      dup2\n        /* \"wwcc-contracts/contracts/wwccPool.sol\":7861:7874  pool.finished */\n      0x0140\n      add\n        /* \"wwcc-contracts/contracts/wwccPool.sol\":7861:7879  pool.finished=true */\n      swap1\n      iszero\n      iszero\n      swap1\n      dup2\n      iszero\n      iszero\n      dup2\n      mstore\n      pop\n        /* \"wwcc-contracts/contracts/wwccPool.sol\":7857:7938  if (pool.finished=true){... */\n      iszero\n      tag_337\n      jumpi\n        /* \"wwcc-contracts/contracts/wwccPool.sol\":7897:7924  revert(\"pool has finished\") */\n      mload(0x40)\n      0x08c379a000000000000000000000000000000000000000000000000000000000\n      dup2\n      mstore\n      0x04\n      add\n      tag_338\n      swap1\n      tag_339\n      jump\t// in\n    tag_338:\n      mload(0x40)\n      dup1\n      swap2\n      sub\n      swap1\n      revert\n        /* \"wwcc-contracts/contracts/wwccPool.sol\":7857:7938  if (pool.finished=true){... */\n    tag_337:\n        /* \"wwcc-contracts/contracts/wwccPool.sol\":7950:7985  JoinerPicking[] memory separateBets */\n      0x00\n        /* \"wwcc-contracts/contracts/wwccPool.sol\":7988:8004  allScorePoolInfo */\n      0x06\n        /* \"wwcc-contracts/contracts/wwccPool.sol\":7988:8013  allScorePoolInfo[poolKey] */\n      0x00\n        /* \"wwcc-contracts/contracts/wwccPool.sol\":8005:8012  poolKey */\n      dup9\n        /* \"wwcc-contracts/contracts/wwccPool.sol\":7988:8013  allScorePoolInfo[poolKey] */\n      dup2\n      mstore\n      0x20\n      add\n      swap1\n      dup2\n      mstore\n      0x20\n      add\n      0x00\n      keccak256\n        /* \"wwcc-contracts/contracts/wwccPool.sol\":7988:8025  allScorePoolInfo[poolKey].separateBet */\n      0x00\n      add\n        /* \"wwcc-contracts/contracts/wwccPool.sol\":7950:8025  JoinerPicking[] memory separateBets = allScorePoolInfo[poolKey].separateBet */\n      dup1\n      sload\n      dup1\n      0x20\n      mul\n      0x20\n      add\n      mload(0x40)\n      swap1\n      dup2\n      add\n      0x40\n      mstore\n      dup1\n      swap3\n      swap2\n      swap1\n      dup2\n      dup2\n      mstore\n      0x20\n      add\n      0x00\n      swap1\n    tag_340:\n      dup3\n      dup3\n      lt\n      iszero\n      tag_341\n      jumpi\n      dup4\n      dup3\n      swap1\n      0x00\n      mstore\n      keccak256(0x00, 0x20)\n      swap1\n      0x07\n      mul\n      add\n      mload(0x40)\n      dup1\n      0xe0\n      add\n      0x40\n      mstore\n      swap1\n      dup2\n      0x00\n      dup3\n      add\n      sload\n      dup2\n      mstore\n      0x20\n      add\n      0x01\n      dup3\n      add\n      sload\n      dup2\n      mstore\n      0x20\n      add\n      0x02\n      dup3\n      add\n      sload\n      dup2\n      mstore\n      0x20\n      add\n      0x03\n      dup3\n      add\n      sload\n      dup2\n      mstore\n      0x20\n      add\n      0x04\n      dup3\n      add\n      0x00\n      swap1\n      sload\n      swap1\n      0x0100\n      exp\n      swap1\n      div\n      0xffffffffffffffffffffffffffffffffffffffff\n      and\n      0xffffffffffffffffffffffffffffffffffffffff\n      and\n      0xffffffffffffffffffffffffffffffffffffffff\n      and\n      dup2\n      mstore\n      0x20\n      add\n      0x05\n      dup3\n      add\n      dup1\n      sload\n      tag_343\n      swap1\n      tag_126\n      jump\t// in\n    tag_343:\n      dup1\n      0x1f\n      add\n      0x20\n      dup1\n      swap2\n      div\n      mul\n      0x20\n      add\n      mload(0x40)\n      swap1\n      dup2\n      add\n      0x40\n      mstore\n      dup1\n      swap3\n      swap2\n      swap1\n      dup2\n      dup2\n      mstore\n      0x20\n      add\n      dup3\n      dup1\n      sload\n      tag_344\n      swap1\n      tag_126\n      jump\t// in\n    tag_344:\n      dup1\n      iszero\n      tag_345\n      jumpi\n      dup1\n      0x1f\n      lt\n      tag_346\n      jumpi\n      0x0100\n      dup1\n      dup4\n      sload\n      div\n      mul\n      dup4\n      mstore\n      swap2\n      0x20\n      add\n      swap2\n      jump(tag_345)\n    tag_346:\n      dup3\n      add\n      swap2\n      swap1\n      0x00\n      mstore\n      keccak256(0x00, 0x20)\n      swap1\n    tag_347:\n      dup2\n      sload\n      dup2\n      mstore\n      swap1\n      0x01\n      add\n      swap1\n      0x20\n      add\n      dup1\n      dup4\n      gt\n      tag_347\n      jumpi\n      dup3\n      swap1\n      sub\n      0x1f\n      and\n      dup3\n      add\n      swap2\n    tag_345:\n      pop\n      pop\n      pop\n      pop\n      pop\n      dup2\n      mstore\n      0x20\n      add\n      0x06\n      dup3\n      add\n      0x00\n      swap1\n      sload\n      swap1\n      0x0100\n      exp\n      swap1\n      div\n      0xff\n      and\n      iszero\n      iszero\n      iszero\n      iszero\n      dup2\n      mstore\n      pop\n      pop\n      dup2\n      mstore\n      0x20\n      add\n      swap1\n      0x01\n      add\n      swap1\n      jump(tag_340)\n    tag_341:\n      pop\n      pop\n      pop\n      pop\n      swap1\n      pop\n        /* \"wwcc-contracts/contracts/wwccPool.sol\":8038:8061  uint256 allRewardAmount */\n      0x00\n        /* \"wwcc-contracts/contracts/wwccPool.sol\":8095:8170  (pool.sPool + pool.wPool+pool.lPool+pool.dPool + pool.basal.div(2)).div(20) */\n      tag_348\n        /* \"wwcc-contracts/contracts/wwccPool.sol\":8167:8169  20 */\n      0x14\n        /* \"wwcc-contracts/contracts/wwccPool.sol\":8144:8161  pool.basal.div(2) */\n      tag_349\n        /* \"wwcc-contracts/contracts/wwccPool.sol\":8159:8160  2 */\n      0x02\n        /* \"wwcc-contracts/contracts/wwccPool.sol\":8144:8148  pool */\n      dup7\n        /* \"wwcc-contracts/contracts/wwccPool.sol\":8144:8154  pool.basal */\n      0xe0\n      add\n      mload\n        /* \"wwcc-contracts/contracts/wwccPool.sol\":8144:8158  pool.basal.div */\n      tag_24\n      swap1\n        /* \"wwcc-contracts/contracts/wwccPool.sol\":8144:8161  pool.basal.div(2) */\n      swap2\n      swap1\n      0xffffffff\n      and\n      jump\t// in\n    tag_349:\n        /* \"wwcc-contracts/contracts/wwccPool.sol\":8131:8135  pool */\n      dup6\n        /* \"wwcc-contracts/contracts/wwccPool.sol\":8131:8141  pool.dPool */\n      0x80\n      add\n      mload\n        /* \"wwcc-contracts/contracts/wwccPool.sol\":8120:8124  pool */\n      dup7\n        /* \"wwcc-contracts/contracts/wwccPool.sol\":8120:8130  pool.lPool */\n      0xa0\n      add\n      mload\n        /* \"wwcc-contracts/contracts/wwccPool.sol\":8109:8113  pool */\n      dup8\n        /* \"wwcc-contracts/contracts/wwccPool.sol\":8109:8119  pool.wPool */\n      0x60\n      add\n      mload\n        /* \"wwcc-contracts/contracts/wwccPool.sol\":8096:8100  pool */\n      dup9\n        /* \"wwcc-contracts/contracts/wwccPool.sol\":8096:8106  pool.sPool */\n      0xc0\n      add\n      mload\n        /* \"wwcc-contracts/contracts/wwccPool.sol\":8096:8119  pool.sPool + pool.wPool */\n      tag_350\n      swap2\n      swap1\n      tag_26\n      jump\t// in\n    tag_350:\n        /* \"wwcc-contracts/contracts/wwccPool.sol\":8096:8130  pool.sPool + pool.wPool+pool.lPool */\n      tag_351\n      swap2\n      swap1\n      tag_26\n      jump\t// in\n    tag_351:\n        /* \"wwcc-contracts/contracts/wwccPool.sol\":8096:8141  pool.sPool + pool.wPool+pool.lPool+pool.dPool */\n      tag_352\n      swap2\n      swap1\n      tag_26\n      jump\t// in\n    tag_352:\n        /* \"wwcc-contracts/contracts/wwccPool.sol\":8096:8161  pool.sPool + pool.wPool+pool.lPool+pool.dPool + pool.basal.div(2) */\n      tag_353\n      swap2\n      swap1\n      tag_26\n      jump\t// in\n    tag_353:\n        /* \"wwcc-contracts/contracts/wwccPool.sol\":8095:8166  (pool.sPool + pool.wPool+pool.lPool+pool.dPool + pool.basal.div(2)).div */\n      tag_24\n      swap1\n        /* \"wwcc-contracts/contracts/wwccPool.sol\":8095:8170  (pool.sPool + pool.wPool+pool.lPool+pool.dPool + pool.basal.div(2)).div(20) */\n      swap2\n      swap1\n      0xffffffff\n      and\n      jump\t// in\n    tag_348:\n        /* \"wwcc-contracts/contracts/wwccPool.sol\":8078:8091  nextBasalLast */\n      0x01\n      0x00\n        /* \"wwcc-contracts/contracts/wwccPool.sol\":8078:8170  nextBasalLast += (pool.sPool + pool.wPool+pool.lPool+pool.dPool + pool.basal.div(2)).div(20) */\n      dup3\n      dup3\n      sload\n      tag_354\n      swap2\n      swap1\n      tag_26\n      jump\t// in\n    tag_354:\n      swap3\n      pop\n      pop\n      dup2\n      swap1\n      sstore\n      pop\n        /* \"wwcc-contracts/contracts/wwccPool.sol\":8344:8350  uint j */\n      0x00\n        /* \"wwcc-contracts/contracts/wwccPool.sol\":8322:10839  for (... */\n    tag_355:\n        /* \"wwcc-contracts/contracts/wwccPool.sol\":8397:8398  1 */\n      0x01\n        /* \"wwcc-contracts/contracts/wwccPool.sol\":8377:8389  separateBets */\n      dup4\n        /* \"wwcc-contracts/contracts/wwccPool.sol\":8377:8396  separateBets.length */\n      mload\n        /* \"wwcc-contracts/contracts/wwccPool.sol\":8377:8398  separateBets.length-1 */\n      tag_358\n      swap2\n      swap1\n      tag_185\n      jump\t// in\n    tag_358:\n        /* \"wwcc-contracts/contracts/wwccPool.sol\":8372:8373  j */\n      dup2\n        /* \"wwcc-contracts/contracts/wwccPool.sol\":8372:8398  j <= separateBets.length-1 */\n      gt\n        /* \"wwcc-contracts/contracts/wwccPool.sol\":8322:10839  for (... */\n      tag_356\n      jumpi\n        /* \"wwcc-contracts/contracts/wwccPool.sol\":8488:8493  false */\n      0x00\n        /* \"wwcc-contracts/contracts/wwccPool.sol\":8461:8473  separateBets */\n      dup4\n        /* \"wwcc-contracts/contracts/wwccPool.sol\":8474:8475  j */\n      dup3\n        /* \"wwcc-contracts/contracts/wwccPool.sol\":8461:8476  separateBets[j] */\n      dup2\n      mload\n      dup2\n      lt\n      tag_359\n      jumpi\n      tag_360\n      tag_361\n      jump\t// in\n    tag_360:\n    tag_359:\n      0x20\n      mul\n      0x20\n      add\n      add\n      mload\n        /* \"wwcc-contracts/contracts/wwccPool.sol\":8461:8485  separateBets[j].finished */\n      0xc0\n      add\n        /* \"wwcc-contracts/contracts/wwccPool.sol\":8461:8493  separateBets[j].finished = false */\n      swap1\n      iszero\n      iszero\n      swap1\n      dup2\n      iszero\n      iszero\n      dup2\n      mstore\n      pop\n        /* \"wwcc-contracts/contracts/wwccPool.sol\":8458:10819  if(separateBets[j].finished = false){... */\n      iszero\n      tag_362\n      jumpi\n        /* \"wwcc-contracts/contracts/wwccPool.sol\":8543:8544  2 */\n      0x02\n        /* \"wwcc-contracts/contracts/wwccPool.sol\":8521:8533  separateBets */\n      dup4\n        /* \"wwcc-contracts/contracts/wwccPool.sol\":8534:8535  j */\n      dup3\n        /* \"wwcc-contracts/contracts/wwccPool.sol\":8521:8536  separateBets[j] */\n      dup2\n      mload\n      dup2\n      lt\n      tag_363\n      jumpi\n      tag_364\n      tag_361\n      jump\t// in\n    tag_364:\n    tag_363:\n      0x20\n      mul\n      0x20\n      add\n      add\n      mload\n        /* \"wwcc-contracts/contracts/wwccPool.sol\":8521:8541  separateBets[j].kind */\n      0x20\n      add\n      mload\n        /* \"wwcc-contracts/contracts/wwccPool.sol\":8521:8544  separateBets[j].kind==2 */\n      eq\n        /* \"wwcc-contracts/contracts/wwccPool.sol\":8518:10799  if(separateBets[j].kind==2){... */\n      iszero\n      tag_365\n      jumpi\n        /* \"wwcc-contracts/contracts/wwccPool.sol\":8591:8640  (pool.sPool + pool.basal.div(2)).mul(85).div(100) */\n      tag_366\n        /* \"wwcc-contracts/contracts/wwccPool.sol\":8636:8639  100 */\n      0x64\n        /* \"wwcc-contracts/contracts/wwccPool.sol\":8591:8631  (pool.sPool + pool.basal.div(2)).mul(85) */\n      tag_367\n        /* \"wwcc-contracts/contracts/wwccPool.sol\":8628:8630  85 */\n      0x55\n        /* \"wwcc-contracts/contracts/wwccPool.sol\":8605:8622  pool.basal.div(2) */\n      tag_368\n        /* \"wwcc-contracts/contracts/wwccPool.sol\":8620:8621  2 */\n      0x02\n        /* \"wwcc-contracts/contracts/wwccPool.sol\":8605:8609  pool */\n      dup10\n        /* \"wwcc-contracts/contracts/wwccPool.sol\":8605:8615  pool.basal */\n      0xe0\n      add\n      mload\n        /* \"wwcc-contracts/contracts/wwccPool.sol\":8605:8619  pool.basal.div */\n      tag_24\n      swap1\n        /* \"wwcc-contracts/contracts/wwccPool.sol\":8605:8622  pool.basal.div(2) */\n      swap2\n      swap1\n      0xffffffff\n      and\n      jump\t// in\n    tag_368:\n        /* \"wwcc-contracts/contracts/wwccPool.sol\":8592:8596  pool */\n      dup9\n        /* \"wwcc-contracts/contracts/wwccPool.sol\":8592:8602  pool.sPool */\n      0xc0\n      add\n      mload\n        /* \"wwcc-contracts/contracts/wwccPool.sol\":8592:8622  pool.sPool + pool.basal.div(2) */\n      tag_369\n      swap2\n      swap1\n      tag_26\n      jump\t// in\n    tag_369:\n        /* \"wwcc-contracts/contracts/wwccPool.sol\":8591:8627  (pool.sPool + pool.basal.div(2)).mul */\n      tag_370\n      swap1\n        /* \"wwcc-contracts/contracts/wwccPool.sol\":8591:8631  (pool.sPool + pool.basal.div(2)).mul(85) */\n      swap2\n      swap1\n      0xffffffff\n      and\n      jump\t// in\n    tag_367:\n        /* \"wwcc-contracts/contracts/wwccPool.sol\":8591:8635  (pool.sPool + pool.basal.div(2)).mul(85).div */\n      tag_24\n      swap1\n        /* \"wwcc-contracts/contracts/wwccPool.sol\":8591:8640  (pool.sPool + pool.basal.div(2)).mul(85).div(100) */\n      swap2\n      swap1\n      0xffffffff\n      and\n      jump\t// in\n    tag_366:\n        /* \"wwcc-contracts/contracts/wwccPool.sol\":8573:8640  allRewardAmount = (pool.sPool + pool.basal.div(2)).mul(85).div(100) */\n      swap2\n      pop\n        /* \"wwcc-contracts/contracts/wwccPool.sol\":8695:8704  homeScore */\n      dup8\n        /* \"wwcc-contracts/contracts/wwccPool.sol\":8668:8680  separateBets */\n      dup4\n        /* \"wwcc-contracts/contracts/wwccPool.sol\":8681:8682  j */\n      dup3\n        /* \"wwcc-contracts/contracts/wwccPool.sol\":8668:8683  separateBets[j] */\n      dup2\n      mload\n      dup2\n      lt\n      tag_371\n      jumpi\n      tag_372\n      tag_361\n      jump\t// in\n    tag_372:\n    tag_371:\n      0x20\n      mul\n      0x20\n      add\n      add\n      mload\n        /* \"wwcc-contracts/contracts/wwccPool.sol\":8668:8693  separateBets[j].homeScore */\n      0x40\n      add\n      mload\n        /* \"wwcc-contracts/contracts/wwccPool.sol\":8668:8704  separateBets[j].homeScore==homeScore */\n      eq\n        /* \"wwcc-contracts/contracts/wwccPool.sol\":8668:8746  separateBets[j].homeScore==homeScore && separateBets[j].visitScore==visitScore */\n      dup1\n      iszero\n      tag_373\n      jumpi\n      pop\n        /* \"wwcc-contracts/contracts/wwccPool.sol\":8736:8746  visitScore */\n      dup7\n        /* \"wwcc-contracts/contracts/wwccPool.sol\":8708:8720  separateBets */\n      dup4\n        /* \"wwcc-contracts/contracts/wwccPool.sol\":8721:8722  j */\n      dup3\n        /* \"wwcc-contracts/contracts/wwccPool.sol\":8708:8723  separateBets[j] */\n      dup2\n      mload\n      dup2\n      lt\n      tag_374\n      jumpi\n      tag_375\n      tag_361\n      jump\t// in\n    tag_375:\n    tag_374:\n      0x20\n      mul\n      0x20\n      add\n      add\n      mload\n        /* \"wwcc-contracts/contracts/wwccPool.sol\":8708:8734  separateBets[j].visitScore */\n      0x60\n      add\n      mload\n        /* \"wwcc-contracts/contracts/wwccPool.sol\":8708:8746  separateBets[j].visitScore==visitScore */\n      eq\n        /* \"wwcc-contracts/contracts/wwccPool.sol\":8668:8746  separateBets[j].homeScore==homeScore && separateBets[j].visitScore==visitScore */\n    tag_373:\n        /* \"wwcc-contracts/contracts/wwccPool.sol\":8664:9462  if (separateBets[j].homeScore==homeScore && separateBets[j].visitScore==visitScore){... */\n      iszero\n      tag_376\n      jumpi\n        /* \"wwcc-contracts/contracts/wwccPool.sol\":8775:8804  uint256 singleScorePoolAmount */\n      0x00\n        /* \"wwcc-contracts/contracts/wwccPool.sol\":8807:8822  singleScorePool */\n      0x07\n        /* \"wwcc-contracts/contracts/wwccPool.sol\":8823:8835  separateBets */\n      dup5\n        /* \"wwcc-contracts/contracts/wwccPool.sol\":8836:8837  j */\n      dup4\n        /* \"wwcc-contracts/contracts/wwccPool.sol\":8823:8838  separateBets[j] */\n      dup2\n      mload\n      dup2\n      lt\n      tag_377\n      jumpi\n      tag_378\n      tag_361\n      jump\t// in\n    tag_378:\n    tag_377:\n      0x20\n      mul\n      0x20\n      add\n      add\n      mload\n        /* \"wwcc-contracts/contracts/wwccPool.sol\":8823:8849  separateBets[j].pickingKey */\n      0xa0\n      add\n      mload\n        /* \"wwcc-contracts/contracts/wwccPool.sol\":8807:8850  singleScorePool[separateBets[j].pickingKey] */\n      mload(0x40)\n      tag_379\n      swap2\n      swap1\n      tag_226\n      jump\t// in\n    tag_379:\n      swap1\n      dup2\n      mstore\n      0x20\n      add\n      mload(0x40)\n      dup1\n      swap2\n      sub\n      swap1\n      keccak256\n      sload\n        /* \"wwcc-contracts/contracts/wwccPool.sol\":8775:8850  uint256 singleScorePoolAmount = singleScorePool[separateBets[j].pickingKey] */\n      swap1\n      pop\n        /* \"wwcc-contracts/contracts/wwccPool.sol\":8878:8898  uint256 rewardAmount */\n      0x00\n        /* \"wwcc-contracts/contracts/wwccPool.sol\":8945:8966  singleScorePoolAmount */\n      dup2\n        /* \"wwcc-contracts/contracts/wwccPool.sol\":8919:8931  separateBets */\n      dup6\n        /* \"wwcc-contracts/contracts/wwccPool.sol\":8932:8933  j */\n      dup5\n        /* \"wwcc-contracts/contracts/wwccPool.sol\":8919:8934  separateBets[j] */\n      dup2\n      mload\n      dup2\n      lt\n      tag_380\n      jumpi\n      tag_381\n      tag_361\n      jump\t// in\n    tag_381:\n    tag_380:\n      0x20\n      mul\n      0x20\n      add\n      add\n      mload\n        /* \"wwcc-contracts/contracts/wwccPool.sol\":8919:8941  separateBets[j].weight */\n      0x00\n      add\n      mload\n        /* \"wwcc-contracts/contracts/wwccPool.sol\":8901:8916  allRewardAmount */\n      dup6\n        /* \"wwcc-contracts/contracts/wwccPool.sol\":8901:8941  allRewardAmount * separateBets[j].weight */\n      tag_382\n      swap2\n      swap1\n      tag_383\n      jump\t// in\n    tag_382:\n        /* \"wwcc-contracts/contracts/wwccPool.sol\":8901:8966  allRewardAmount * separateBets[j].weight /  singleScorePoolAmount */\n      tag_384\n      swap2\n      swap1\n      tag_109\n      jump\t// in\n    tag_384:\n        /* \"wwcc-contracts/contracts/wwccPool.sol\":8878:8966  uint256 rewardAmount = allRewardAmount * separateBets[j].weight /  singleScorePoolAmount */\n      swap1\n      pop\n        /* \"wwcc-contracts/contracts/wwccPool.sol\":9338:9350  rewardAmount */\n      dup1\n        /* \"wwcc-contracts/contracts/wwccPool.sol\":9300:9310  voteAmount */\n      0x04\n        /* \"wwcc-contracts/contracts/wwccPool.sol\":9300:9334  voteAmount[separateBets[j].joiner] */\n      0x00\n        /* \"wwcc-contracts/contracts/wwccPool.sol\":9311:9323  separateBets */\n      dup8\n        /* \"wwcc-contracts/contracts/wwccPool.sol\":9324:9325  j */\n      dup7\n        /* \"wwcc-contracts/contracts/wwccPool.sol\":9311:9326  separateBets[j] */\n      dup2\n      mload\n      dup2\n      lt\n      tag_385\n      jumpi\n      tag_386\n      tag_361\n      jump\t// in\n    tag_386:\n    tag_385:\n      0x20\n      mul\n      0x20\n      add\n      add\n      mload\n        /* \"wwcc-contracts/contracts/wwccPool.sol\":9311:9333  separateBets[j].joiner */\n      0x80\n      add\n      mload\n        /* \"wwcc-contracts/contracts/wwccPool.sol\":9300:9334  voteAmount[separateBets[j].joiner] */\n      0xffffffffffffffffffffffffffffffffffffffff\n      and\n      0xffffffffffffffffffffffffffffffffffffffff\n      and\n      dup2\n      mstore\n      0x20\n      add\n      swap1\n      dup2\n      mstore\n      0x20\n      add\n      0x00\n      keccak256\n      0x00\n        /* \"wwcc-contracts/contracts/wwccPool.sol\":9300:9350  voteAmount[separateBets[j].joiner] += rewardAmount */\n      dup3\n      dup3\n      sload\n      tag_387\n      swap2\n      swap1\n      tag_26\n      jump\t// in\n    tag_387:\n      swap3\n      pop\n      pop\n      dup2\n      swap1\n      sstore\n      pop\n        /* \"wwcc-contracts/contracts/wwccPool.sol\":9405:9409  true */\n      0x01\n        /* \"wwcc-contracts/contracts/wwccPool.sol\":9378:9390  separateBets */\n      dup6\n        /* \"wwcc-contracts/contracts/wwccPool.sol\":9391:9392  j */\n      dup5\n        /* \"wwcc-contracts/contracts/wwccPool.sol\":9378:9393  separateBets[j] */\n      dup2\n      mload\n      dup2\n      lt\n      tag_388\n      jumpi\n      tag_389\n      tag_361\n      jump\t// in\n    tag_389:\n    tag_388:\n      0x20\n      mul\n      0x20\n      add\n      add\n      mload\n        /* \"wwcc-contracts/contracts/wwccPool.sol\":9378:9402  separateBets[j].finished */\n      0xc0\n      add\n        /* \"wwcc-contracts/contracts/wwccPool.sol\":9378:9409  separateBets[j].finished = true */\n      swap1\n      iszero\n      iszero\n      swap1\n      dup2\n      iszero\n      iszero\n      dup2\n      mstore\n      pop\n      pop\n        /* \"wwcc-contracts/contracts/wwccPool.sol\":8747:9462  {... */\n      pop\n      pop\n        /* \"wwcc-contracts/contracts/wwccPool.sol\":8664:9462  if (separateBets[j].homeScore==homeScore && separateBets[j].visitScore==visitScore){... */\n    tag_376:\n        /* \"wwcc-contracts/contracts/wwccPool.sol\":8518:10799  if(separateBets[j].kind==2){... */\n      jump(tag_390)\n    tag_365:\n        /* \"wwcc-contracts/contracts/wwccPool.sol\":9537:9543  result */\n      dup6\n        /* \"wwcc-contracts/contracts/wwccPool.sol\":9515:9527  separateBets */\n      dup4\n        /* \"wwcc-contracts/contracts/wwccPool.sol\":9528:9529  j */\n      dup3\n        /* \"wwcc-contracts/contracts/wwccPool.sol\":9515:9530  separateBets[j] */\n      dup2\n      mload\n      dup2\n      lt\n      tag_391\n      jumpi\n      tag_392\n      tag_361\n      jump\t// in\n    tag_392:\n    tag_391:\n      0x20\n      mul\n      0x20\n      add\n      add\n      mload\n        /* \"wwcc-contracts/contracts/wwccPool.sol\":9515:9535  separateBets[j].kind */\n      0x20\n      add\n      mload\n        /* \"wwcc-contracts/contracts/wwccPool.sol\":9515:9543  separateBets[j].kind==result */\n      eq\n        /* \"wwcc-contracts/contracts/wwccPool.sol\":9512:10777  if(separateBets[j].kind==result){... */\n      iszero\n      tag_393\n      jumpi\n        /* \"wwcc-contracts/contracts/wwccPool.sol\":9590:9660  (pool.wPool+pool.lPool+pool.dPool+ pool.basal.div(2)).mul(85).div(100) */\n      tag_394\n        /* \"wwcc-contracts/contracts/wwccPool.sol\":9656:9659  100 */\n      0x64\n        /* \"wwcc-contracts/contracts/wwccPool.sol\":9590:9651  (pool.wPool+pool.lPool+pool.dPool+ pool.basal.div(2)).mul(85) */\n      tag_395\n        /* \"wwcc-contracts/contracts/wwccPool.sol\":9648:9650  85 */\n      0x55\n        /* \"wwcc-contracts/contracts/wwccPool.sol\":9625:9642  pool.basal.div(2) */\n      tag_396\n        /* \"wwcc-contracts/contracts/wwccPool.sol\":9640:9641  2 */\n      0x02\n        /* \"wwcc-contracts/contracts/wwccPool.sol\":9625:9629  pool */\n      dup10\n        /* \"wwcc-contracts/contracts/wwccPool.sol\":9625:9635  pool.basal */\n      0xe0\n      add\n      mload\n        /* \"wwcc-contracts/contracts/wwccPool.sol\":9625:9639  pool.basal.div */\n      tag_24\n      swap1\n        /* \"wwcc-contracts/contracts/wwccPool.sol\":9625:9642  pool.basal.div(2) */\n      swap2\n      swap1\n      0xffffffff\n      and\n      jump\t// in\n    tag_396:\n        /* \"wwcc-contracts/contracts/wwccPool.sol\":9613:9617  pool */\n      dup9\n        /* \"wwcc-contracts/contracts/wwccPool.sol\":9613:9623  pool.dPool */\n      0x80\n      add\n      mload\n        /* \"wwcc-contracts/contracts/wwccPool.sol\":9602:9606  pool */\n      dup10\n        /* \"wwcc-contracts/contracts/wwccPool.sol\":9602:9612  pool.lPool */\n      0xa0\n      add\n      mload\n        /* \"wwcc-contracts/contracts/wwccPool.sol\":9591:9595  pool */\n      dup11\n        /* \"wwcc-contracts/contracts/wwccPool.sol\":9591:9601  pool.wPool */\n      0x60\n      add\n      mload\n        /* \"wwcc-contracts/contracts/wwccPool.sol\":9591:9612  pool.wPool+pool.lPool */\n      tag_397\n      swap2\n      swap1\n      tag_26\n      jump\t// in\n    tag_397:\n        /* \"wwcc-contracts/contracts/wwccPool.sol\":9591:9623  pool.wPool+pool.lPool+pool.dPool */\n      tag_398\n      swap2\n      swap1\n      tag_26\n      jump\t// in\n    tag_398:\n        /* \"wwcc-contracts/contracts/wwccPool.sol\":9591:9642  pool.wPool+pool.lPool+pool.dPool+ pool.basal.div(2) */\n      tag_399\n      swap2\n      swap1\n      tag_26\n      jump\t// in\n    tag_399:\n        /* \"wwcc-contracts/contracts/wwccPool.sol\":9590:9647  (pool.wPool+pool.lPool+pool.dPool+ pool.basal.div(2)).mul */\n      tag_370\n      swap1\n        /* \"wwcc-contracts/contracts/wwccPool.sol\":9590:9651  (pool.wPool+pool.lPool+pool.dPool+ pool.basal.div(2)).mul(85) */\n      swap2\n      swap1\n      0xffffffff\n      and\n      jump\t// in\n    tag_395:\n        /* \"wwcc-contracts/contracts/wwccPool.sol\":9590:9655  (pool.wPool+pool.lPool+pool.dPool+ pool.basal.div(2)).mul(85).div */\n      tag_24\n      swap1\n        /* \"wwcc-contracts/contracts/wwccPool.sol\":9590:9660  (pool.wPool+pool.lPool+pool.dPool+ pool.basal.div(2)).mul(85).div(100) */\n      swap2\n      swap1\n      0xffffffff\n      and\n      jump\t// in\n    tag_394:\n        /* \"wwcc-contracts/contracts/wwccPool.sol\":9572:9660  allRewardAmount = (pool.wPool+pool.lPool+pool.dPool+ pool.basal.div(2)).mul(85).div(100) */\n      swap2\n      pop\n        /* \"wwcc-contracts/contracts/wwccPool.sol\":9688:9710  uint256 pickPoolAmount */\n      0x00\n        /* \"wwcc-contracts/contracts/wwccPool.sol\":9770:9771  0 */\n      dup1\n        /* \"wwcc-contracts/contracts/wwccPool.sol\":9746:9758  separateBets */\n      dup5\n        /* \"wwcc-contracts/contracts/wwccPool.sol\":9759:9760  j */\n      dup4\n        /* \"wwcc-contracts/contracts/wwccPool.sol\":9746:9761  separateBets[j] */\n      dup2\n      mload\n      dup2\n      lt\n      tag_400\n      jumpi\n      tag_401\n      tag_361\n      jump\t// in\n    tag_401:\n    tag_400:\n      0x20\n      mul\n      0x20\n      add\n      add\n      mload\n        /* \"wwcc-contracts/contracts/wwccPool.sol\":9746:9766  separateBets[j].kind */\n      0x20\n      add\n      mload\n        /* \"wwcc-contracts/contracts/wwccPool.sol\":9746:9771  separateBets[j].kind == 0 */\n      eq\n        /* \"wwcc-contracts/contracts/wwccPool.sol\":9742:9877  if (separateBets[j].kind == 0){... */\n      iszero\n      tag_402\n      jumpi\n        /* \"wwcc-contracts/contracts/wwccPool.sol\":9821:9848  pool.lPool.mul(85).div(100) */\n      tag_403\n        /* \"wwcc-contracts/contracts/wwccPool.sol\":9844:9847  100 */\n      0x64\n        /* \"wwcc-contracts/contracts/wwccPool.sol\":9821:9839  pool.lPool.mul(85) */\n      tag_404\n        /* \"wwcc-contracts/contracts/wwccPool.sol\":9836:9838  85 */\n      0x55\n        /* \"wwcc-contracts/contracts/wwccPool.sol\":9821:9825  pool */\n      dup9\n        /* \"wwcc-contracts/contracts/wwccPool.sol\":9821:9831  pool.lPool */\n      0xa0\n      add\n      mload\n        /* \"wwcc-contracts/contracts/wwccPool.sol\":9821:9835  pool.lPool.mul */\n      tag_370\n      swap1\n        /* \"wwcc-contracts/contracts/wwccPool.sol\":9821:9839  pool.lPool.mul(85) */\n      swap2\n      swap1\n      0xffffffff\n      and\n      jump\t// in\n    tag_404:\n        /* \"wwcc-contracts/contracts/wwccPool.sol\":9821:9843  pool.lPool.mul(85).div */\n      tag_24\n      swap1\n        /* \"wwcc-contracts/contracts/wwccPool.sol\":9821:9848  pool.lPool.mul(85).div(100) */\n      swap2\n      swap1\n      0xffffffff\n      and\n      jump\t// in\n    tag_403:\n        /* \"wwcc-contracts/contracts/wwccPool.sol\":9804:9848  pickPoolAmount = pool.lPool.mul(85).div(100) */\n      swap1\n      pop\n        /* \"wwcc-contracts/contracts/wwccPool.sol\":9742:9877  if (separateBets[j].kind == 0){... */\n    tag_402:\n        /* \"wwcc-contracts/contracts/wwccPool.sol\":9932:9933  1 */\n      0x01\n        /* \"wwcc-contracts/contracts/wwccPool.sol\":9908:9920  separateBets */\n      dup5\n        /* \"wwcc-contracts/contracts/wwccPool.sol\":9921:9922  j */\n      dup4\n        /* \"wwcc-contracts/contracts/wwccPool.sol\":9908:9923  separateBets[j] */\n      dup2\n      mload\n      dup2\n      lt\n      tag_405\n      jumpi\n      tag_406\n      tag_361\n      jump\t// in\n    tag_406:\n    tag_405:\n      0x20\n      mul\n      0x20\n      add\n      add\n      mload\n        /* \"wwcc-contracts/contracts/wwccPool.sol\":9908:9928  separateBets[j].kind */\n      0x20\n      add\n      mload\n        /* \"wwcc-contracts/contracts/wwccPool.sol\":9908:9933  separateBets[j].kind == 1 */\n      eq\n        /* \"wwcc-contracts/contracts/wwccPool.sol\":9904:10039  if (separateBets[j].kind == 1){... */\n      iszero\n      tag_407\n      jumpi\n        /* \"wwcc-contracts/contracts/wwccPool.sol\":9983:10010  pool.dPool.mul(85).div(100) */\n      tag_408\n        /* \"wwcc-contracts/contracts/wwccPool.sol\":10006:10009  100 */\n      0x64\n        /* \"wwcc-contracts/contracts/wwccPool.sol\":9983:10001  pool.dPool.mul(85) */\n      tag_409\n        /* \"wwcc-contracts/contracts/wwccPool.sol\":9998:10000  85 */\n      0x55\n        /* \"wwcc-contracts/contracts/wwccPool.sol\":9983:9987  pool */\n      dup9\n        /* \"wwcc-contracts/contracts/wwccPool.sol\":9983:9993  pool.dPool */\n      0x80\n      add\n      mload\n        /* \"wwcc-contracts/contracts/wwccPool.sol\":9983:9997  pool.dPool.mul */\n      tag_370\n      swap1\n        /* \"wwcc-contracts/contracts/wwccPool.sol\":9983:10001  pool.dPool.mul(85) */\n      swap2\n      swap1\n      0xffffffff\n      and\n      jump\t// in\n    tag_409:\n        /* \"wwcc-contracts/contracts/wwccPool.sol\":9983:10005  pool.dPool.mul(85).div */\n      tag_24\n      swap1\n        /* \"wwcc-contracts/contracts/wwccPool.sol\":9983:10010  pool.dPool.mul(85).div(100) */\n      swap2\n      swap1\n      0xffffffff\n      and\n      jump\t// in\n    tag_408:\n        /* \"wwcc-contracts/contracts/wwccPool.sol\":9966:10010  pickPoolAmount = pool.dPool.mul(85).div(100) */\n      swap1\n      pop\n        /* \"wwcc-contracts/contracts/wwccPool.sol\":9904:10039  if (separateBets[j].kind == 1){... */\n    tag_407:\n        /* \"wwcc-contracts/contracts/wwccPool.sol\":10094:10095  3 */\n      0x03\n        /* \"wwcc-contracts/contracts/wwccPool.sol\":10070:10082  separateBets */\n      dup5\n        /* \"wwcc-contracts/contracts/wwccPool.sol\":10083:10084  j */\n      dup4\n        /* \"wwcc-contracts/contracts/wwccPool.sol\":10070:10085  separateBets[j] */\n      dup2\n      mload\n      dup2\n      lt\n      tag_410\n      jumpi\n      tag_411\n      tag_361\n      jump\t// in\n    tag_411:\n    tag_410:\n      0x20\n      mul\n      0x20\n      add\n      add\n      mload\n        /* \"wwcc-contracts/contracts/wwccPool.sol\":10070:10090  separateBets[j].kind */\n      0x20\n      add\n      mload\n        /* \"wwcc-contracts/contracts/wwccPool.sol\":10070:10095  separateBets[j].kind == 3 */\n      eq\n        /* \"wwcc-contracts/contracts/wwccPool.sol\":10066:10201  if (separateBets[j].kind == 3){... */\n      iszero\n      tag_412\n      jumpi\n        /* \"wwcc-contracts/contracts/wwccPool.sol\":10145:10172  pool.wPool.mul(85).div(100) */\n      tag_413\n        /* \"wwcc-contracts/contracts/wwccPool.sol\":10168:10171  100 */\n      0x64\n        /* \"wwcc-contracts/contracts/wwccPool.sol\":10145:10163  pool.wPool.mul(85) */\n      tag_414\n        /* \"wwcc-contracts/contracts/wwccPool.sol\":10160:10162  85 */\n      0x55\n        /* \"wwcc-contracts/contracts/wwccPool.sol\":10145:10149  pool */\n      dup9\n        /* \"wwcc-contracts/contracts/wwccPool.sol\":10145:10155  pool.wPool */\n      0x60\n      add\n      mload\n        /* \"wwcc-contracts/contracts/wwccPool.sol\":10145:10159  pool.wPool.mul */\n      tag_370\n      swap1\n        /* \"wwcc-contracts/contracts/wwccPool.sol\":10145:10163  pool.wPool.mul(85) */\n      swap2\n      swap1\n      0xffffffff\n      and\n      jump\t// in\n    tag_414:\n        /* \"wwcc-contracts/contracts/wwccPool.sol\":10145:10167  pool.wPool.mul(85).div */\n      tag_24\n      swap1\n        /* \"wwcc-contracts/contracts/wwccPool.sol\":10145:10172  pool.wPool.mul(85).div(100) */\n      swap2\n      swap1\n      0xffffffff\n      and\n      jump\t// in\n    tag_413:\n        /* \"wwcc-contracts/contracts/wwccPool.sol\":10128:10172  pickPoolAmount = pool.wPool.mul(85).div(100) */\n      swap1\n      pop\n        /* \"wwcc-contracts/contracts/wwccPool.sol\":10066:10201  if (separateBets[j].kind == 3){... */\n    tag_412:\n        /* \"wwcc-contracts/contracts/wwccPool.sol\":10228:10248  uint256 rewardAmount */\n      0x00\n        /* \"wwcc-contracts/contracts/wwccPool.sol\":10295:10309  pickPoolAmount */\n      dup2\n        /* \"wwcc-contracts/contracts/wwccPool.sol\":10269:10281  separateBets */\n      dup6\n        /* \"wwcc-contracts/contracts/wwccPool.sol\":10282:10283  j */\n      dup5\n        /* \"wwcc-contracts/contracts/wwccPool.sol\":10269:10284  separateBets[j] */\n      dup2\n      mload\n      dup2\n      lt\n      tag_415\n      jumpi\n      tag_416\n      tag_361\n      jump\t// in\n    tag_416:\n    tag_415:\n      0x20\n      mul\n      0x20\n      add\n      add\n      mload\n        /* \"wwcc-contracts/contracts/wwccPool.sol\":10269:10291  separateBets[j].weight */\n      0x00\n      add\n      mload\n        /* \"wwcc-contracts/contracts/wwccPool.sol\":10251:10266  allRewardAmount */\n      dup6\n        /* \"wwcc-contracts/contracts/wwccPool.sol\":10251:10291  allRewardAmount * separateBets[j].weight */\n      tag_417\n      swap2\n      swap1\n      tag_383\n      jump\t// in\n    tag_417:\n        /* \"wwcc-contracts/contracts/wwccPool.sol\":10251:10309  allRewardAmount * separateBets[j].weight /  pickPoolAmount */\n      tag_418\n      swap2\n      swap1\n      tag_109\n      jump\t// in\n    tag_418:\n        /* \"wwcc-contracts/contracts/wwccPool.sol\":10228:10309  uint256 rewardAmount = allRewardAmount * separateBets[j].weight /  pickPoolAmount */\n      swap1\n      pop\n        /* \"wwcc-contracts/contracts/wwccPool.sol\":10681:10693  rewardAmount */\n      dup1\n        /* \"wwcc-contracts/contracts/wwccPool.sol\":10643:10653  voteAmount */\n      0x04\n        /* \"wwcc-contracts/contracts/wwccPool.sol\":10643:10677  voteAmount[separateBets[j].joiner] */\n      0x00\n        /* \"wwcc-contracts/contracts/wwccPool.sol\":10654:10666  separateBets */\n      dup8\n        /* \"wwcc-contracts/contracts/wwccPool.sol\":10667:10668  j */\n      dup7\n        /* \"wwcc-contracts/contracts/wwccPool.sol\":10654:10669  separateBets[j] */\n      dup2\n      mload\n      dup2\n      lt\n      tag_419\n      jumpi\n      tag_420\n      tag_361\n      jump\t// in\n    tag_420:\n    tag_419:\n      0x20\n      mul\n      0x20\n      add\n      add\n      mload\n        /* \"wwcc-contracts/contracts/wwccPool.sol\":10654:10676  separateBets[j].joiner */\n      0x80\n      add\n      mload\n        /* \"wwcc-contracts/contracts/wwccPool.sol\":10643:10677  voteAmount[separateBets[j].joiner] */\n      0xffffffffffffffffffffffffffffffffffffffff\n      and\n      0xffffffffffffffffffffffffffffffffffffffff\n      and\n      dup2\n      mstore\n      0x20\n      add\n      swap1\n      dup2\n      mstore\n      0x20\n      add\n      0x00\n      keccak256\n      0x00\n        /* \"wwcc-contracts/contracts/wwccPool.sol\":10643:10693  voteAmount[separateBets[j].joiner] += rewardAmount */\n      dup3\n      dup3\n      sload\n      tag_421\n      swap2\n      swap1\n      tag_26\n      jump\t// in\n    tag_421:\n      swap3\n      pop\n      pop\n      dup2\n      swap1\n      sstore\n      pop\n        /* \"wwcc-contracts/contracts/wwccPool.sol\":10748:10752  true */\n      0x01\n        /* \"wwcc-contracts/contracts/wwccPool.sol\":10721:10733  separateBets */\n      dup6\n        /* \"wwcc-contracts/contracts/wwccPool.sol\":10734:10735  j */\n      dup5\n        /* \"wwcc-contracts/contracts/wwccPool.sol\":10721:10736  separateBets[j] */\n      dup2\n      mload\n      dup2\n      lt\n      tag_422\n      jumpi\n      tag_423\n      tag_361\n      jump\t// in\n    tag_423:\n    tag_422:\n      0x20\n      mul\n      0x20\n      add\n      add\n      mload\n        /* \"wwcc-contracts/contracts/wwccPool.sol\":10721:10745  separateBets[j].finished */\n      0xc0\n      add\n        /* \"wwcc-contracts/contracts/wwccPool.sol\":10721:10752  separateBets[j].finished = true */\n      swap1\n      iszero\n      iszero\n      swap1\n      dup2\n      iszero\n      iszero\n      dup2\n      mstore\n      pop\n      pop\n        /* \"wwcc-contracts/contracts/wwccPool.sol\":9544:10777  {... */\n      pop\n      pop\n        /* \"wwcc-contracts/contracts/wwccPool.sol\":9512:10777  if(separateBets[j].kind==result){... */\n    tag_393:\n        /* \"wwcc-contracts/contracts/wwccPool.sol\":8518:10799  if(separateBets[j].kind==2){... */\n    tag_390:\n        /* \"wwcc-contracts/contracts/wwccPool.sol\":8458:10819  if(separateBets[j].finished = false){... */\n    tag_362:\n        /* \"wwcc-contracts/contracts/wwccPool.sol\":8416:8420  j ++ */\n      dup1\n      dup1\n      tag_424\n      swap1\n      tag_425\n      jump\t// in\n    tag_424:\n      swap2\n      pop\n      pop\n        /* \"wwcc-contracts/contracts/wwccPool.sol\":8322:10839  for (... */\n      jump(tag_355)\n    tag_356:\n      pop\n        /* \"wwcc-contracts/contracts/wwccPool.sol\":10872:10876  true */\n      0x01\n        /* \"wwcc-contracts/contracts/wwccPool.sol\":10856:10860  pool */\n      dup4\n        /* \"wwcc-contracts/contracts/wwccPool.sol\":10856:10869  pool.finished */\n      0x0140\n      add\n        /* \"wwcc-contracts/contracts/wwccPool.sol\":10856:10876  pool.finished = true */\n      swap1\n      iszero\n      iszero\n      swap1\n      dup2\n      iszero\n      iszero\n      dup2\n      mstore\n      pop\n      pop\n        /* \"wwcc-contracts/contracts/wwccPool.sol\":7794:11011  {... */\n      pop\n      pop\n      pop\n        /* \"wwcc-contracts/contracts/wwccPool.sol\":11026:11030  true */\n      0x01\n        /* \"wwcc-contracts/contracts/wwccPool.sol\":11019:11030  return true */\n      swap1\n      pop\n        /* \"wwcc-contracts/contracts/wwccPool.sol\":7580:11037  function Award(bytes32 poolKey,uint256 homeScore,uint256 visitScore,uint256 result)  external onlyManager  payable returns(bool){... */\n      swap5\n      swap4\n      pop\n      pop\n      pop\n      pop\n      jump\t// out\n        /* \"wwcc-contracts/contracts/wwccPool.sol\":6177:6567  function voteWithdrawal(address joiner,uint256 amount) external onlyManager payable returns (bool){... */\n    tag_89:\n        /* \"wwcc-contracts/contracts/wwccPool.sol\":6270:6274  bool */\n      0x00\n        /* \"wwcc-contracts/contracts/wwccPool.sol\":14034:14039  owner */\n      dup1\n      0x00\n      swap1\n      sload\n      swap1\n      0x0100\n      exp\n      swap1\n      div\n      0xffffffffffffffffffffffffffffffffffffffff\n      and\n        /* \"wwcc-contracts/contracts/wwccPool.sol\":14020:14039  msg.sender == owner */\n      0xffffffffffffffffffffffffffffffffffffffff\n      and\n        /* \"wwcc-contracts/contracts/wwccPool.sol\":14020:14030  msg.sender */\n      caller\n        /* \"wwcc-contracts/contracts/wwccPool.sol\":14020:14039  msg.sender == owner */\n      0xffffffffffffffffffffffffffffffffffffffff\n      and\n      eq\n        /* \"wwcc-contracts/contracts/wwccPool.sol\":13999:14090  require(... */\n      tag_427\n      jumpi\n      mload(0x40)\n      0x08c379a000000000000000000000000000000000000000000000000000000000\n      dup2\n      mstore\n      0x04\n      add\n      tag_428\n      swap1\n      tag_113\n      jump\t// in\n    tag_428:\n      mload(0x40)\n      dup1\n      swap2\n      sub\n      swap1\n      revert\n    tag_427:\n        /* \"wwcc-contracts/contracts/wwccPool.sol\":6310:6316  amount */\n      dup2\n        /* \"wwcc-contracts/contracts/wwccPool.sol\":6288:6298  voteAmount */\n      0x04\n        /* \"wwcc-contracts/contracts/wwccPool.sol\":6288:6306  voteAmount[joiner] */\n      0x00\n        /* \"wwcc-contracts/contracts/wwccPool.sol\":6299:6305  joiner */\n      dup6\n        /* \"wwcc-contracts/contracts/wwccPool.sol\":6288:6306  voteAmount[joiner] */\n      0xffffffffffffffffffffffffffffffffffffffff\n      and\n      0xffffffffffffffffffffffffffffffffffffffff\n      and\n      dup2\n      mstore\n      0x20\n      add\n      swap1\n      dup2\n      mstore\n      0x20\n      add\n      0x00\n      keccak256\n      sload\n        /* \"wwcc-contracts/contracts/wwccPool.sol\":6288:6316  voteAmount[joiner] >= amount */\n      lt\n      iszero\n        /* \"wwcc-contracts/contracts/wwccPool.sol\":6288:6343  voteAmount[joiner] >= amount && voteAmount[joiner] >= 0 */\n      dup1\n      iszero\n      tag_430\n      jumpi\n      pop\n        /* \"wwcc-contracts/contracts/wwccPool.sol\":6342:6343  0 */\n      0x00\n        /* \"wwcc-contracts/contracts/wwccPool.sol\":6320:6330  voteAmount */\n      0x04\n        /* \"wwcc-contracts/contracts/wwccPool.sol\":6320:6338  voteAmount[joiner] */\n      0x00\n        /* \"wwcc-contracts/contracts/wwccPool.sol\":6331:6337  joiner */\n      dup6\n        /* \"wwcc-contracts/contracts/wwccPool.sol\":6320:6338  voteAmount[joiner] */\n      0xffffffffffffffffffffffffffffffffffffffff\n      and\n      0xffffffffffffffffffffffffffffffffffffffff\n      and\n      dup2\n      mstore\n      0x20\n      add\n      swap1\n      dup2\n      mstore\n      0x20\n      add\n      0x00\n      keccak256\n      sload\n        /* \"wwcc-contracts/contracts/wwccPool.sol\":6320:6343  voteAmount[joiner] >= 0 */\n      lt\n      iszero\n        /* \"wwcc-contracts/contracts/wwccPool.sol\":6288:6343  voteAmount[joiner] >= amount && voteAmount[joiner] >= 0 */\n    tag_430:\n        /* \"wwcc-contracts/contracts/wwccPool.sol\":6285:6540  if(voteAmount[joiner] >= amount && voteAmount[joiner] >= 0){... */\n      iszero\n      tag_431\n      jumpi\n        /* \"wwcc-contracts/contracts/wwccPool.sol\":6358:6391  address payable toAddress_address */\n      0x00\n        /* \"wwcc-contracts/contracts/wwccPool.sol\":6402:6408  joiner */\n      dup4\n        /* \"wwcc-contracts/contracts/wwccPool.sol\":6358:6409  address payable toAddress_address = payable(joiner) */\n      swap1\n      pop\n        /* \"wwcc-contracts/contracts/wwccPool.sol\":6423:6440  toAddress_address */\n      dup1\n        /* \"wwcc-contracts/contracts/wwccPool.sol\":6423:6449  toAddress_address.transfer */\n      0xffffffffffffffffffffffffffffffffffffffff\n      and\n        /* \"wwcc-contracts/contracts/wwccPool.sol\":6423:6469  toAddress_address.transfer(voteAmount[joiner]) */\n      0x08fc\n        /* \"wwcc-contracts/contracts/wwccPool.sol\":6450:6460  voteAmount */\n      0x04\n        /* \"wwcc-contracts/contracts/wwccPool.sol\":6450:6468  voteAmount[joiner] */\n      0x00\n        /* \"wwcc-contracts/contracts/wwccPool.sol\":6461:6467  joiner */\n      dup8\n        /* \"wwcc-contracts/contracts/wwccPool.sol\":6450:6468  voteAmount[joiner] */\n      0xffffffffffffffffffffffffffffffffffffffff\n      and\n      0xffffffffffffffffffffffffffffffffffffffff\n      and\n      dup2\n      mstore\n      0x20\n      add\n      swap1\n      dup2\n      mstore\n      0x20\n      add\n      0x00\n      keccak256\n      sload\n        /* \"wwcc-contracts/contracts/wwccPool.sol\":6423:6469  toAddress_address.transfer(voteAmount[joiner]) */\n      swap1\n      dup2\n      iszero\n      mul\n      swap1\n      mload(0x40)\n      0x00\n      mload(0x40)\n      dup1\n      dup4\n      sub\n      dup2\n      dup6\n      dup9\n      dup9\n      call\n      swap4\n      pop\n      pop\n      pop\n      pop\n      iszero\n      dup1\n      iszero\n      tag_433\n      jumpi\n      returndatasize\n      0x00\n      dup1\n      returndatacopy\n      revert(0x00, returndatasize)\n    tag_433:\n      pop\n        /* \"wwcc-contracts/contracts/wwccPool.sol\":6344:6480  {... */\n      pop\n        /* \"wwcc-contracts/contracts/wwccPool.sol\":6285:6540  if(voteAmount[joiner] >= amount && voteAmount[joiner] >= 0){... */\n      jump(tag_434)\n    tag_431:\n        /* \"wwcc-contracts/contracts/wwccPool.sol\":6498:6529  revert(\"not enough voteAmount\") */\n      mload(0x40)\n      0x08c379a000000000000000000000000000000000000000000000000000000000\n      dup2\n      mstore\n      0x04\n      add\n      tag_435\n      swap1\n      tag_159\n      jump\t// in\n    tag_435:\n      mload(0x40)\n      dup1\n      swap2\n      sub\n      swap1\n      revert\n        /* \"wwcc-contracts/contracts/wwccPool.sol\":6285:6540  if(voteAmount[joiner] >= amount && voteAmount[joiner] >= 0){... */\n    tag_434:\n        /* \"wwcc-contracts/contracts/wwccPool.sol\":6556:6560  true */\n      0x01\n        /* \"wwcc-contracts/contracts/wwccPool.sol\":6549:6560  return true */\n      swap1\n      pop\n        /* \"wwcc-contracts/contracts/wwccPool.sol\":6177:6567  function voteWithdrawal(address joiner,uint256 amount) external onlyManager payable returns (bool){... */\n      swap3\n      swap2\n      pop\n      pop\n      jump\t// out\n        /* \"wwcc-contracts/contracts/wwccPool.sol\":7404:7509  function CheckVoteTickets() external view returns (uint256){... */\n    tag_93:\n        /* \"wwcc-contracts/contracts/wwccPool.sol\":7455:7462  uint256 */\n      0x00\n        /* \"wwcc-contracts/contracts/wwccPool.sol\":7480:7490  voteAmount */\n      0x04\n        /* \"wwcc-contracts/contracts/wwccPool.sol\":7480:7502  voteAmount[msg.sender] */\n      0x00\n        /* \"wwcc-contracts/contracts/wwccPool.sol\":7491:7501  msg.sender */\n      caller\n        /* \"wwcc-contracts/contracts/wwccPool.sol\":7480:7502  voteAmount[msg.sender] */\n      0xffffffffffffffffffffffffffffffffffffffff\n      and\n      0xffffffffffffffffffffffffffffffffffffffff\n      and\n      dup2\n      mstore\n      0x20\n      add\n      swap1\n      dup2\n      mstore\n      0x20\n      add\n      0x00\n      keccak256\n      sload\n        /* \"wwcc-contracts/contracts/wwccPool.sol\":7473:7502  return voteAmount[msg.sender] */\n      swap1\n      pop\n        /* \"wwcc-contracts/contracts/wwccPool.sol\":7404:7509  function CheckVoteTickets() external view returns (uint256){... */\n      swap1\n      jump\t// out\n        /* \"wwcc-contracts/contracts/wwccPool.sol\":6995:7093  function getAllPoolKeys() external view returns (bytes32[] memory){... */\n    tag_97:\n        /* \"wwcc-contracts/contracts/wwccPool.sol\":7044:7060  bytes32[] memory */\n      0x60\n        /* \"wwcc-contracts/contracts/wwccPool.sol\":7078:7086  poolKeys */\n      0x02\n        /* \"wwcc-contracts/contracts/wwccPool.sol\":7071:7086  return poolKeys */\n      dup1\n      sload\n      dup1\n      0x20\n      mul\n      0x20\n      add\n      mload(0x40)\n      swap1\n      dup2\n      add\n      0x40\n      mstore\n      dup1\n      swap3\n      swap2\n      swap1\n      dup2\n      dup2\n      mstore\n      0x20\n      add\n      dup3\n      dup1\n      sload\n      dup1\n      iszero\n      tag_438\n      jumpi\n      0x20\n      mul\n      dup3\n      add\n      swap2\n      swap1\n      0x00\n      mstore\n      keccak256(0x00, 0x20)\n      swap1\n    tag_439:\n      dup2\n      sload\n      dup2\n      mstore\n      0x20\n      add\n      swap1\n      0x01\n      add\n      swap1\n      dup1\n      dup4\n      gt\n      tag_439\n      jumpi\n    tag_438:\n      pop\n      pop\n      pop\n      pop\n      pop\n      swap1\n      pop\n        /* \"wwcc-contracts/contracts/wwccPool.sol\":6995:7093  function getAllPoolKeys() external view returns (bytes32[] memory){... */\n      swap1\n      jump\t// out\n        /* \"wwcc-contracts/contracts/wwccPool.sol\":11336:11984  function getPool(bytes32 poolKey) external view returns (string memory vs,string memory rounds,PoolViewInfo memory viewInfo){... */\n    tag_103:\n        /* \"wwcc-contracts/contracts/wwccPool.sol\":11393:11409  string memory vs */\n      0x60\n        /* \"wwcc-contracts/contracts/wwccPool.sol\":11410:11430  string memory rounds */\n      dup1\n        /* \"wwcc-contracts/contracts/wwccPool.sol\":11431:11459  PoolViewInfo memory viewInfo */\n      tag_440\n      tag_441\n      jump\t// in\n    tag_440:\n        /* \"wwcc-contracts/contracts/wwccPool.sol\":11474:11491  contains(poolKey) */\n      tag_443\n        /* \"wwcc-contracts/contracts/wwccPool.sol\":11483:11490  poolKey */\n      dup5\n        /* \"wwcc-contracts/contracts/wwccPool.sol\":11474:11482  contains */\n      tag_120\n        /* \"wwcc-contracts/contracts/wwccPool.sol\":11474:11491  contains(poolKey) */\n      jump\t// in\n    tag_443:\n        /* \"wwcc-contracts/contracts/wwccPool.sol\":11470:11978  if(!contains(poolKey)) { ... */\n      tag_444\n      jumpi\n        /* \"wwcc-contracts/contracts/wwccPool.sol\":11508:11527  revert(\"not exist\") */\n      mload(0x40)\n      0x08c379a000000000000000000000000000000000000000000000000000000000\n      dup2\n      mstore\n      0x04\n      add\n      tag_445\n      swap1\n      tag_446\n      jump\t// in\n    tag_445:\n      mload(0x40)\n      dup1\n      swap2\n      sub\n      swap1\n      revert\n        /* \"wwcc-contracts/contracts/wwccPool.sol\":11470:11978  if(!contains(poolKey)) { ... */\n    tag_444:\n        /* \"wwcc-contracts/contracts/wwccPool.sol\":11556:11573  string  memory hv */\n      0x00\n        /* \"wwcc-contracts/contracts/wwccPool.sol\":11576:11615  strConcat(WcPools[poolKey].home,\" vs \") */\n      tag_448\n        /* \"wwcc-contracts/contracts/wwccPool.sol\":11586:11593  WcPools */\n      0x05\n        /* \"wwcc-contracts/contracts/wwccPool.sol\":11586:11602  WcPools[poolKey] */\n      0x00\n        /* \"wwcc-contracts/contracts/wwccPool.sol\":11594:11601  poolKey */\n      dup8\n        /* \"wwcc-contracts/contracts/wwccPool.sol\":11586:11602  WcPools[poolKey] */\n      dup2\n      mstore\n      0x20\n      add\n      swap1\n      dup2\n      mstore\n      0x20\n      add\n      0x00\n      keccak256\n        /* \"wwcc-contracts/contracts/wwccPool.sol\":11586:11607  WcPools[poolKey].home */\n      0x00\n      add\n        /* \"wwcc-contracts/contracts/wwccPool.sol\":11576:11615  strConcat(WcPools[poolKey].home,\" vs \") */\n      dup1\n      sload\n      tag_449\n      swap1\n      tag_126\n      jump\t// in\n    tag_449:\n      dup1\n      0x1f\n      add\n      0x20\n      dup1\n      swap2\n      div\n      mul\n      0x20\n      add\n      mload(0x40)\n      swap1\n      dup2\n      add\n      0x40\n      mstore\n      dup1\n      swap3\n      swap2\n      swap1\n      dup2\n      dup2\n      mstore\n      0x20\n      add\n      dup3\n      dup1\n      sload\n      tag_450\n      swap1\n      tag_126\n      jump\t// in\n    tag_450:\n      dup1\n      iszero\n      tag_451\n      jumpi\n      dup1\n      0x1f\n      lt\n      tag_452\n      jumpi\n      0x0100\n      dup1\n      dup4\n      sload\n      div\n      mul\n      dup4\n      mstore\n      swap2\n      0x20\n      add\n      swap2\n      jump(tag_451)\n    tag_452:\n      dup3\n      add\n      swap2\n      swap1\n      0x00\n      mstore\n      keccak256(0x00, 0x20)\n      swap1\n    tag_453:\n      dup2\n      sload\n      dup2\n      mstore\n      swap1\n      0x01\n      add\n      swap1\n      0x20\n      add\n      dup1\n      dup4\n      gt\n      tag_453\n      jumpi\n      dup3\n      swap1\n      sub\n      0x1f\n      and\n      dup3\n      add\n      swap2\n    tag_451:\n      pop\n      pop\n      pop\n      pop\n      pop\n      mload(0x40)\n      dup1\n      0x40\n      add\n      0x40\n      mstore\n      dup1\n      0x04\n      dup2\n      mstore\n      0x20\n      add\n      0x2076732000000000000000000000000000000000000000000000000000000000\n      dup2\n      mstore\n      pop\n        /* \"wwcc-contracts/contracts/wwccPool.sol\":11576:11585  strConcat */\n      tag_179\n        /* \"wwcc-contracts/contracts/wwccPool.sol\":11576:11615  strConcat(WcPools[poolKey].home,\" vs \") */\n      jump\t// in\n    tag_448:\n        /* \"wwcc-contracts/contracts/wwccPool.sol\":11556:11615  string  memory hv = strConcat(WcPools[poolKey].home,\" vs \") */\n      swap1\n      pop\n        /* \"wwcc-contracts/contracts/wwccPool.sol\":11634:11670  strConcat(hv,WcPools[poolKey].visit) */\n      tag_454\n        /* \"wwcc-contracts/contracts/wwccPool.sol\":11644:11646  hv */\n      dup2\n        /* \"wwcc-contracts/contracts/wwccPool.sol\":11647:11654  WcPools */\n      0x05\n        /* \"wwcc-contracts/contracts/wwccPool.sol\":11647:11663  WcPools[poolKey] */\n      0x00\n        /* \"wwcc-contracts/contracts/wwccPool.sol\":11655:11662  poolKey */\n      dup9\n        /* \"wwcc-contracts/contracts/wwccPool.sol\":11647:11663  WcPools[poolKey] */\n      dup2\n      mstore\n      0x20\n      add\n      swap1\n      dup2\n      mstore\n      0x20\n      add\n      0x00\n      keccak256\n        /* \"wwcc-contracts/contracts/wwccPool.sol\":11647:11669  WcPools[poolKey].visit */\n      0x01\n      add\n        /* \"wwcc-contracts/contracts/wwccPool.sol\":11634:11670  strConcat(hv,WcPools[poolKey].visit) */\n      dup1\n      sload\n      tag_455\n      swap1\n      tag_126\n      jump\t// in\n    tag_455:\n      dup1\n      0x1f\n      add\n      0x20\n      dup1\n      swap2\n      div\n      mul\n      0x20\n      add\n      mload(0x40)\n      swap1\n      dup2\n      add\n      0x40\n      mstore\n      dup1\n      swap3\n      swap2\n      swap1\n      dup2\n      dup2\n      mstore\n      0x20\n      add\n      dup3\n      dup1\n      sload\n      tag_456\n      swap1\n      tag_126\n      jump\t// in\n    tag_456:\n      dup1\n      iszero\n      tag_457\n      jumpi\n      dup1\n      0x1f\n      lt\n      tag_458\n      jumpi\n      0x0100\n      dup1\n      dup4\n      sload\n      div\n      mul\n      dup4\n      mstore\n      swap2\n      0x20\n      add\n      swap2\n      jump(tag_457)\n    tag_458:\n      dup3\n      add\n      swap2\n      swap1\n      0x00\n      mstore\n      keccak256(0x00, 0x20)\n      swap1\n    tag_459:\n      dup2\n      sload\n      dup2\n      mstore\n      swap1\n      0x01\n      add\n      swap1\n      0x20\n      add\n      dup1\n      dup4\n      gt\n      tag_459\n      jumpi\n      dup3\n      swap1\n      sub\n      0x1f\n      and\n      dup3\n      add\n      swap2\n    tag_457:\n      pop\n      pop\n      pop\n      pop\n      pop\n        /* \"wwcc-contracts/contracts/wwccPool.sol\":11634:11643  strConcat */\n      tag_179\n        /* \"wwcc-contracts/contracts/wwccPool.sol\":11634:11670  strConcat(hv,WcPools[poolKey].visit) */\n      jump\t// in\n    tag_454:\n        /* \"wwcc-contracts/contracts/wwccPool.sol\":11629:11670  vs = strConcat(hv,WcPools[poolKey].visit) */\n      swap4\n      pop\n        /* \"wwcc-contracts/contracts/wwccPool.sol\":11684:11706  PoolViewInfo memory vi */\n      0x00\n        /* \"wwcc-contracts/contracts/wwccPool.sol\":11709:11889  PoolViewInfo(WcPools[poolKey].wPool,... */\n      mload(0x40)\n      dup1\n      0xa0\n      add\n      0x40\n      mstore\n      dup1\n        /* \"wwcc-contracts/contracts/wwccPool.sol\":11722:11729  WcPools */\n      0x05\n        /* \"wwcc-contracts/contracts/wwccPool.sol\":11722:11738  WcPools[poolKey] */\n      0x00\n        /* \"wwcc-contracts/contracts/wwccPool.sol\":11730:11737  poolKey */\n      dup10\n        /* \"wwcc-contracts/contracts/wwccPool.sol\":11722:11738  WcPools[poolKey] */\n      dup2\n      mstore\n      0x20\n      add\n      swap1\n      dup2\n      mstore\n      0x20\n      add\n      0x00\n      keccak256\n        /* \"wwcc-contracts/contracts/wwccPool.sol\":11722:11744  WcPools[poolKey].wPool */\n      0x03\n      add\n      sload\n        /* \"wwcc-contracts/contracts/wwccPool.sol\":11709:11889  PoolViewInfo(WcPools[poolKey].wPool,... */\n      dup2\n      mstore\n      0x20\n      add\n        /* \"wwcc-contracts/contracts/wwccPool.sol\":11758:11765  WcPools */\n      0x05\n        /* \"wwcc-contracts/contracts/wwccPool.sol\":11758:11774  WcPools[poolKey] */\n      0x00\n        /* \"wwcc-contracts/contracts/wwccPool.sol\":11766:11773  poolKey */\n      dup10\n        /* \"wwcc-contracts/contracts/wwccPool.sol\":11758:11774  WcPools[poolKey] */\n      dup2\n      mstore\n      0x20\n      add\n      swap1\n      dup2\n      mstore\n      0x20\n      add\n      0x00\n      keccak256\n        /* \"wwcc-contracts/contracts/wwccPool.sol\":11758:11780  WcPools[poolKey].dPool */\n      0x04\n      add\n      sload\n        /* \"wwcc-contracts/contracts/wwccPool.sol\":11709:11889  PoolViewInfo(WcPools[poolKey].wPool,... */\n      dup2\n      mstore\n      0x20\n      add\n        /* \"wwcc-contracts/contracts/wwccPool.sol\":11794:11801  WcPools */\n      0x05\n        /* \"wwcc-contracts/contracts/wwccPool.sol\":11794:11810  WcPools[poolKey] */\n      0x00\n        /* \"wwcc-contracts/contracts/wwccPool.sol\":11802:11809  poolKey */\n      dup10\n        /* \"wwcc-contracts/contracts/wwccPool.sol\":11794:11810  WcPools[poolKey] */\n      dup2\n      mstore\n      0x20\n      add\n      swap1\n      dup2\n      mstore\n      0x20\n      add\n      0x00\n      keccak256\n        /* \"wwcc-contracts/contracts/wwccPool.sol\":11794:11816  WcPools[poolKey].lPool */\n      0x05\n      add\n      sload\n        /* \"wwcc-contracts/contracts/wwccPool.sol\":11709:11889  PoolViewInfo(WcPools[poolKey].wPool,... */\n      dup2\n      mstore\n      0x20\n      add\n        /* \"wwcc-contracts/contracts/wwccPool.sol\":11830:11837  WcPools */\n      0x05\n        /* \"wwcc-contracts/contracts/wwccPool.sol\":11830:11846  WcPools[poolKey] */\n      0x00\n        /* \"wwcc-contracts/contracts/wwccPool.sol\":11838:11845  poolKey */\n      dup10\n        /* \"wwcc-contracts/contracts/wwccPool.sol\":11830:11846  WcPools[poolKey] */\n      dup2\n      mstore\n      0x20\n      add\n      swap1\n      dup2\n      mstore\n      0x20\n      add\n      0x00\n      keccak256\n        /* \"wwcc-contracts/contracts/wwccPool.sol\":11830:11852  WcPools[poolKey].sPool */\n      0x06\n      add\n      sload\n        /* \"wwcc-contracts/contracts/wwccPool.sol\":11709:11889  PoolViewInfo(WcPools[poolKey].wPool,... */\n      dup2\n      mstore\n      0x20\n      add\n        /* \"wwcc-contracts/contracts/wwccPool.sol\":11866:11873  WcPools */\n      0x05\n        /* \"wwcc-contracts/contracts/wwccPool.sol\":11866:11882  WcPools[poolKey] */\n      0x00\n        /* \"wwcc-contracts/contracts/wwccPool.sol\":11874:11881  poolKey */\n      dup10\n        /* \"wwcc-contracts/contracts/wwccPool.sol\":11866:11882  WcPools[poolKey] */\n      dup2\n      mstore\n      0x20\n      add\n      swap1\n      dup2\n      mstore\n      0x20\n      add\n      0x00\n      keccak256\n        /* \"wwcc-contracts/contracts/wwccPool.sol\":11866:11888  WcPools[poolKey].basal */\n      0x07\n      add\n      sload\n        /* \"wwcc-contracts/contracts/wwccPool.sol\":11709:11889  PoolViewInfo(WcPools[poolKey].wPool,... */\n      dup2\n      mstore\n      pop\n        /* \"wwcc-contracts/contracts/wwccPool.sol\":11684:11889  PoolViewInfo memory vi = PoolViewInfo(WcPools[poolKey].wPool,... */\n      swap1\n      pop\n        /* \"wwcc-contracts/contracts/wwccPool.sol\":11911:11913  vs */\n      dup5\n        /* \"wwcc-contracts/contracts/wwccPool.sol\":11927:11934  WcPools */\n      0x05\n        /* \"wwcc-contracts/contracts/wwccPool.sol\":11927:11943  WcPools[poolKey] */\n      0x00\n        /* \"wwcc-contracts/contracts/wwccPool.sol\":11935:11942  poolKey */\n      dup9\n        /* \"wwcc-contracts/contracts/wwccPool.sol\":11927:11943  WcPools[poolKey] */\n      dup2\n      mstore\n      0x20\n      add\n      swap1\n      dup2\n      mstore\n      0x20\n      add\n      0x00\n      keccak256\n        /* \"wwcc-contracts/contracts/wwccPool.sol\":11927:11950  WcPools[poolKey].rounds */\n      0x02\n      add\n        /* \"wwcc-contracts/contracts/wwccPool.sol\":11964:11966  vi */\n      dup3\n        /* \"wwcc-contracts/contracts/wwccPool.sol\":11903:11967  return (vs,... */\n      dup2\n      dup1\n      sload\n      tag_460\n      swap1\n      tag_126\n      jump\t// in\n    tag_460:\n      dup1\n      0x1f\n      add\n      0x20\n      dup1\n      swap2\n      div\n      mul\n      0x20\n      add\n      mload(0x40)\n      swap1\n      dup2\n      add\n      0x40\n      mstore\n      dup1\n      swap3\n      swap2\n      swap1\n      dup2\n      dup2\n      mstore\n      0x20\n      add\n      dup3\n      dup1\n      sload\n      tag_461\n      swap1\n      tag_126\n      jump\t// in\n    tag_461:\n      dup1\n      iszero\n      tag_462\n      jumpi\n      dup1\n      0x1f\n      lt\n      tag_463\n      jumpi\n      0x0100\n      dup1\n      dup4\n      sload\n      div\n      mul\n      dup4\n      mstore\n      swap2\n      0x20\n      add\n      swap2\n      jump(tag_462)\n    tag_463:\n      dup3\n      add\n      swap2\n      swap1\n      0x00\n      mstore\n      keccak256(0x00, 0x20)\n      swap1\n    tag_464:\n      dup2\n      sload\n      dup2\n      mstore\n      swap1\n      0x01\n      add\n      swap1\n      0x20\n      add\n      dup1\n      dup4\n      gt\n      tag_464\n      jumpi\n      dup3\n      swap1\n      sub\n      0x1f\n      and\n      dup3\n      add\n      swap2\n    tag_462:\n      pop\n      pop\n      pop\n      pop\n      pop\n      swap2\n      pop\n      swap5\n      pop\n      swap5\n      pop\n      swap5\n      pop\n      pop\n      pop\n        /* \"wwcc-contracts/contracts/wwccPool.sol\":11336:11984  function getPool(bytes32 poolKey) external view returns (string memory vs,string memory rounds,PoolViewInfo memory viewInfo){... */\n      swap2\n      swap4\n      swap1\n      swap3\n      pop\n      jump\t// out\n        /* \"wwcc-contracts/contracts/wwccPool.sol\":12048:12161  function contains(bytes32 poolKey) internal view returns (bool) {... */\n    tag_120:\n        /* \"wwcc-contracts/contracts/wwccPool.sol\":12106:12110  bool */\n      0x00\n        /* \"wwcc-contracts/contracts/wwccPool.sol\":12133:12140  WcPools */\n      0x05\n        /* \"wwcc-contracts/contracts/wwccPool.sol\":12133:12149  WcPools[poolKey] */\n      0x00\n        /* \"wwcc-contracts/contracts/wwccPool.sol\":12141:12148  poolKey */\n      dup4\n        /* \"wwcc-contracts/contracts/wwccPool.sol\":12133:12149  WcPools[poolKey] */\n      dup2\n      mstore\n      0x20\n      add\n      swap1\n      dup2\n      mstore\n      0x20\n      add\n      0x00\n      keccak256\n        /* \"wwcc-contracts/contracts/wwccPool.sol\":12133:12154  WcPools[poolKey].used */\n      0x08\n      add\n      0x01\n      swap1\n      sload\n      swap1\n      0x0100\n      exp\n      swap1\n      div\n      0xff\n      and\n        /* \"wwcc-contracts/contracts/wwccPool.sol\":12126:12154  return WcPools[poolKey].used */\n      swap1\n      pop\n        /* \"wwcc-contracts/contracts/wwccPool.sol\":12048:12161  function contains(bytes32 poolKey) internal view returns (bool) {... */\n      swap2\n      swap1\n      pop\n      jump\t// out\n        /* \"wwcc-contracts/contracts/wwccPool.sol\":12844:12973  function uint256ToString(uint256 u) internal pure returns(string memory){... */\n    tag_177:\n        /* \"wwcc-contracts/contracts/wwccPool.sol\":12902:12915  string memory */\n      0x60\n        /* \"wwcc-contracts/contracts/wwccPool.sol\":12937:12966  toString(abi.encodePacked(u)) */\n      tag_467\n        /* \"wwcc-contracts/contracts/wwccPool.sol\":12963:12964  u */\n      dup3\n        /* \"wwcc-contracts/contracts/wwccPool.sol\":12946:12965  abi.encodePacked(u) */\n      add(0x20, mload(0x40))\n      tag_468\n      swap2\n      swap1\n      tag_469\n      jump\t// in\n    tag_468:\n      mload(0x40)\n      0x20\n      dup2\n      dup4\n      sub\n      sub\n      dup2\n      mstore\n      swap1\n      0x40\n      mstore\n        /* \"wwcc-contracts/contracts/wwccPool.sol\":12937:12945  toString */\n      tag_470\n        /* \"wwcc-contracts/contracts/wwccPool.sol\":12937:12966  toString(abi.encodePacked(u)) */\n      jump\t// in\n    tag_467:\n        /* \"wwcc-contracts/contracts/wwccPool.sol\":12930:12966  return toString(abi.encodePacked(u)) */\n      swap1\n      pop\n        /* \"wwcc-contracts/contracts/wwccPool.sol\":12844:12973  function uint256ToString(uint256 u) internal pure returns(string memory){... */\n      swap2\n      swap1\n      pop\n      jump\t// out\n        /* \"wwcc-contracts/contracts/wwccPool.sol\":12191:12680  function strConcat(string memory _a,string memory _b) internal pure returns (string memory){... */\n    tag_179:\n        /* \"wwcc-contracts/contracts/wwccPool.sol\":12268:12281  string memory */\n      0x60\n        /* \"wwcc-contracts/contracts/wwccPool.sol\":12296:12312  bytes memory _ba */\n      0x00\n        /* \"wwcc-contracts/contracts/wwccPool.sol\":12321:12323  _a */\n      dup4\n        /* \"wwcc-contracts/contracts/wwccPool.sol\":12296:12324  bytes memory _ba = bytes(_a) */\n      swap1\n      pop\n        /* \"wwcc-contracts/contracts/wwccPool.sol\":12338:12354  bytes memory _bb */\n      0x00\n        /* \"wwcc-contracts/contracts/wwccPool.sol\":12363:12365  _b */\n      dup4\n        /* \"wwcc-contracts/contracts/wwccPool.sol\":12338:12366  bytes memory _bb = bytes(_b) */\n      swap1\n      pop\n        /* \"wwcc-contracts/contracts/wwccPool.sol\":12380:12397  string memory ret */\n      0x00\n        /* \"wwcc-contracts/contracts/wwccPool.sol\":12424:12427  _bb */\n      dup2\n        /* \"wwcc-contracts/contracts/wwccPool.sol\":12424:12434  _bb.length */\n      mload\n        /* \"wwcc-contracts/contracts/wwccPool.sol\":12411:12414  _ba */\n      dup4\n        /* \"wwcc-contracts/contracts/wwccPool.sol\":12411:12421  _ba.length */\n      mload\n        /* \"wwcc-contracts/contracts/wwccPool.sol\":12411:12434  _ba.length + _bb.length */\n      tag_472\n      swap2\n      swap1\n      tag_26\n      jump\t// in\n    tag_472:\n        /* \"wwcc-contracts/contracts/wwccPool.sol\":12400:12435  new string(_ba.length + _bb.length) */\n      0xffffffffffffffff\n      dup2\n      gt\n      iszero\n      tag_473\n      jumpi\n      tag_474\n      tag_475\n      jump\t// in\n    tag_474:\n    tag_473:\n      mload(0x40)\n      swap1\n      dup1\n      dup3\n      mstore\n      dup1\n      0x1f\n      add\n      not(0x1f)\n      and\n      0x20\n      add\n      dup3\n      add\n      0x40\n      mstore\n      dup1\n      iszero\n      tag_476\n      jumpi\n      dup2\n      0x20\n      add\n      0x01\n      dup3\n      mul\n      dup1\n      calldatasize\n      dup4\n      calldatacopy\n      dup1\n      dup3\n      add\n      swap2\n      pop\n      pop\n      swap1\n      pop\n    tag_476:\n      pop\n        /* \"wwcc-contracts/contracts/wwccPool.sol\":12380:12435  string memory ret = new string(_ba.length + _bb.length) */\n      swap1\n      pop\n        /* \"wwcc-contracts/contracts/wwccPool.sol\":12449:12466  bytes memory bret */\n      0x00\n        /* \"wwcc-contracts/contracts/wwccPool.sol\":12475:12478  ret */\n      dup2\n        /* \"wwcc-contracts/contracts/wwccPool.sol\":12449:12479  bytes memory bret = bytes(ret) */\n      swap1\n      pop\n        /* \"wwcc-contracts/contracts/wwccPool.sol\":12493:12499  uint k */\n      0x00\n        /* \"wwcc-contracts/contracts/wwccPool.sol\":12521:12527  uint i */\n      dup1\n        /* \"wwcc-contracts/contracts/wwccPool.sol\":12517:12570  for(uint i = 0;i < _ba.length;i++) bret[k++] = _ba[i] */\n    tag_477:\n        /* \"wwcc-contracts/contracts/wwccPool.sol\":12536:12539  _ba */\n      dup6\n        /* \"wwcc-contracts/contracts/wwccPool.sol\":12536:12546  _ba.length */\n      mload\n        /* \"wwcc-contracts/contracts/wwccPool.sol\":12532:12533  i */\n      dup2\n        /* \"wwcc-contracts/contracts/wwccPool.sol\":12532:12546  i < _ba.length */\n      lt\n        /* \"wwcc-contracts/contracts/wwccPool.sol\":12517:12570  for(uint i = 0;i < _ba.length;i++) bret[k++] = _ba[i] */\n      iszero\n      tag_478\n      jumpi\n        /* \"wwcc-contracts/contracts/wwccPool.sol\":12564:12567  _ba */\n      dup6\n        /* \"wwcc-contracts/contracts/wwccPool.sol\":12568:12569  i */\n      dup2\n        /* \"wwcc-contracts/contracts/wwccPool.sol\":12564:12570  _ba[i] */\n      dup2\n      mload\n      dup2\n      lt\n      tag_480\n      jumpi\n      tag_481\n      tag_361\n      jump\t// in\n    tag_481:\n    tag_480:\n      0x20\n      add\n      add\n      mload\n      0xf8\n      shr\n      0xf8\n      shl\n        /* \"wwcc-contracts/contracts/wwccPool.sol\":12552:12556  bret */\n      dup4\n        /* \"wwcc-contracts/contracts/wwccPool.sol\":12557:12560  k++ */\n      dup4\n      dup1\n      tag_482\n      swap1\n      tag_425\n      jump\t// in\n    tag_482:\n      swap5\n      pop\n        /* \"wwcc-contracts/contracts/wwccPool.sol\":12552:12561  bret[k++] */\n      dup2\n      mload\n      dup2\n      lt\n      tag_483\n      jumpi\n      tag_484\n      tag_361\n      jump\t// in\n    tag_484:\n    tag_483:\n      0x20\n      add\n      add\n        /* \"wwcc-contracts/contracts/wwccPool.sol\":12552:12570  bret[k++] = _ba[i] */\n      swap1\n      not(0xffffffffffffffffffffffffffffffffffffffffffffffffffffffffffffff)\n      and\n      swap1\n      dup2\n      0x00\n      byte\n      swap1\n      mstore8\n      pop\n        /* \"wwcc-contracts/contracts/wwccPool.sol\":12547:12550  i++ */\n      dup1\n      dup1\n      tag_485\n      swap1\n      tag_425\n      jump\t// in\n    tag_485:\n      swap2\n      pop\n      pop\n        /* \"wwcc-contracts/contracts/wwccPool.sol\":12517:12570  for(uint i = 0;i < _ba.length;i++) bret[k++] = _ba[i] */\n      jump(tag_477)\n    tag_478:\n      pop\n        /* \"wwcc-contracts/contracts/wwccPool.sol\":12588:12594  uint i */\n      0x00\n        /* \"wwcc-contracts/contracts/wwccPool.sol\":12584:12637  for(uint i = 0;i < _bb.length;i++) bret[k++] = _bb[i] */\n    tag_486:\n        /* \"wwcc-contracts/contracts/wwccPool.sol\":12603:12606  _bb */\n      dup5\n        /* \"wwcc-contracts/contracts/wwccPool.sol\":12603:12613  _bb.length */\n      mload\n        /* \"wwcc-contracts/contracts/wwccPool.sol\":12599:12600  i */\n      dup2\n        /* \"wwcc-contracts/contracts/wwccPool.sol\":12599:12613  i < _bb.length */\n      lt\n        /* \"wwcc-contracts/contracts/wwccPool.sol\":12584:12637  for(uint i = 0;i < _bb.length;i++) bret[k++] = _bb[i] */\n      iszero\n      tag_487\n      jumpi\n        /* \"wwcc-contracts/contracts/wwccPool.sol\":12631:12634  _bb */\n      dup5\n        /* \"wwcc-contracts/contracts/wwccPool.sol\":12635:12636  i */\n      dup2\n        /* \"wwcc-contracts/contracts/wwccPool.sol\":12631:12637  _bb[i] */\n      dup2\n      mload\n      dup2\n      lt\n      tag_489\n      jumpi\n      tag_490\n      tag_361\n      jump\t// in\n    tag_490:\n    tag_489:\n      0x20\n      add\n      add\n      mload\n      0xf8\n      shr\n      0xf8\n      shl\n        /* \"wwcc-contracts/contracts/wwccPool.sol\":12619:12623  bret */\n      dup4\n        /* \"wwcc-contracts/contracts/wwccPool.sol\":12624:12627  k++ */\n      dup4\n      dup1\n      tag_491\n      swap1\n      tag_425\n      jump\t// in\n    tag_491:\n      swap5\n      pop\n        /* \"wwcc-contracts/contracts/wwccPool.sol\":12619:12628  bret[k++] */\n      dup2\n      mload\n      dup2\n      lt\n      tag_492\n      jumpi\n      tag_493\n      tag_361\n      jump\t// in\n    tag_493:\n    tag_492:\n      0x20\n      add\n      add\n        /* \"wwcc-contracts/contracts/wwccPool.sol\":12619:12637  bret[k++] = _bb[i] */\n      swap1\n      not(0xffffffffffffffffffffffffffffffffffffffffffffffffffffffffffffff)\n      and\n      swap1\n      dup2\n      0x00\n      byte\n      swap1\n      mstore8\n      pop\n        /* \"wwcc-contracts/contracts/wwccPool.sol\":12614:12617  i++ */\n      dup1\n      dup1\n      tag_494\n      swap1\n      tag_425\n      jump\t// in\n    tag_494:\n      swap2\n      pop\n      pop\n        /* \"wwcc-contracts/contracts/wwccPool.sol\":12584:12637  for(uint i = 0;i < _bb.length;i++) bret[k++] = _bb[i] */\n      jump(tag_486)\n    tag_487:\n      pop\n        /* \"wwcc-contracts/contracts/wwccPool.sol\":12665:12668  ret */\n      dup3\n        /* \"wwcc-contracts/contracts/wwccPool.sol\":12651:12669  return string(ret) */\n      swap6\n      pop\n      pop\n      pop\n      pop\n      pop\n      pop\n        /* \"wwcc-contracts/contracts/wwccPool.sol\":12191:12680  function strConcat(string memory _a,string memory _b) internal pure returns (string memory){... */\n      swap3\n      swap2\n      pop\n      pop\n      jump\t// out\n        /* \"wwcc-contracts/contracts/wwccPool.sol\":12978:13107  function bytes32ToString(bytes32 b) internal pure returns(string memory){... */\n    tag_296:\n        /* \"wwcc-contracts/contracts/wwccPool.sol\":13036:13049  string memory */\n      0x60\n        /* \"wwcc-contracts/contracts/wwccPool.sol\":13071:13100  toString(abi.encodePacked(b)) */\n      tag_496\n        /* \"wwcc-contracts/contracts/wwccPool.sol\":13097:13098  b */\n      dup3\n        /* \"wwcc-contracts/contracts/wwccPool.sol\":13080:13099  abi.encodePacked(b) */\n      add(0x20, mload(0x40))\n      tag_497\n      swap2\n      swap1\n      tag_498\n      jump\t// in\n    tag_497:\n      mload(0x40)\n      0x20\n      dup2\n      dup4\n      sub\n      sub\n      dup2\n      mstore\n      swap1\n      0x40\n      mstore\n        /* \"wwcc-contracts/contracts/wwccPool.sol\":13071:13079  toString */\n      tag_470\n        /* \"wwcc-contracts/contracts/wwccPool.sol\":13071:13100  toString(abi.encodePacked(b)) */\n      jump\t// in\n    tag_496:\n        /* \"wwcc-contracts/contracts/wwccPool.sol\":13064:13100  return toString(abi.encodePacked(b)) */\n      swap1\n      pop\n        /* \"wwcc-contracts/contracts/wwccPool.sol\":12978:13107  function bytes32ToString(bytes32 b) internal pure returns(string memory){... */\n      swap2\n      swap1\n      pop\n      jump\t// out\n        /* \"wwcc-contracts/contracts/safemath.sol\":62:266  function mul(uint256 a, uint256 b) internal pure returns (uint256) {... */\n    tag_370:\n        /* \"wwcc-contracts/contracts/safemath.sol\":120:127  uint256 */\n      0x00\n        /* \"wwcc-contracts/contracts/safemath.sol\":148:149  0 */\n      dup1\n        /* \"wwcc-contracts/contracts/safemath.sol\":143:144  a */\n      dup4\n        /* \"wwcc-contracts/contracts/safemath.sol\":143:149  a == 0 */\n      eq\n        /* \"wwcc-contracts/contracts/safemath.sol\":139:184  if (a == 0) {... */\n      iszero\n      tag_500\n      jumpi\n        /* \"wwcc-contracts/contracts/safemath.sol\":172:173  0 */\n      0x00\n        /* \"wwcc-contracts/contracts/safemath.sol\":165:173  return 0 */\n      swap1\n      pop\n      jump(tag_499)\n        /* \"wwcc-contracts/contracts/safemath.sol\":139:184  if (a == 0) {... */\n    tag_500:\n        /* \"wwcc-contracts/contracts/safemath.sol\":195:204  uint256 c */\n      0x00\n        /* \"wwcc-contracts/contracts/safemath.sol\":211:212  b */\n      dup3\n        /* \"wwcc-contracts/contracts/safemath.sol\":207:208  a */\n      dup5\n        /* \"wwcc-contracts/contracts/safemath.sol\":207:212  a * b */\n      tag_501\n      swap2\n      swap1\n      tag_383\n      jump\t// in\n    tag_501:\n        /* \"wwcc-contracts/contracts/safemath.sol\":195:212  uint256 c = a * b */\n      swap1\n      pop\n        /* \"wwcc-contracts/contracts/safemath.sol\":239:240  b */\n      dup3\n        /* \"wwcc-contracts/contracts/safemath.sol\":234:235  a */\n      dup5\n        /* \"wwcc-contracts/contracts/safemath.sol\":230:231  c */\n      dup3\n        /* \"wwcc-contracts/contracts/safemath.sol\":230:235  c / a */\n      tag_502\n      swap2\n      swap1\n      tag_109\n      jump\t// in\n    tag_502:\n        /* \"wwcc-contracts/contracts/safemath.sol\":230:240  c / a == b */\n      eq\n        /* \"wwcc-contracts/contracts/safemath.sol\":222:241  require(c / a == b) */\n      tag_503\n      jumpi\n      0x00\n      dup1\n      revert\n    tag_503:\n        /* \"wwcc-contracts/contracts/safemath.sol\":258:259  c */\n      dup1\n        /* \"wwcc-contracts/contracts/safemath.sol\":251:259  return c */\n      swap2\n      pop\n      pop\n        /* \"wwcc-contracts/contracts/safemath.sol\":62:266  function mul(uint256 a, uint256 b) internal pure returns (uint256) {... */\n    tag_499:\n      swap3\n      swap2\n      pop\n      pop\n      jump\t// out\n        /* \"wwcc-contracts/contracts/wwccPool.sol\":13112:13599  function toString(bytes memory data) internal pure returns(string memory){... */\n    tag_470:\n        /* \"wwcc-contracts/contracts/wwccPool.sol\":13171:13184  string memory */\n      0x60\n        /* \"wwcc-contracts/contracts/wwccPool.sol\":13199:13220  bytes memory alphabet */\n      0x00\n        /* \"wwcc-contracts/contracts/wwccPool.sol\":13199:13241  bytes memory alphabet = \"0123456789abcdef\" */\n      mload(0x40)\n      dup1\n      0x40\n      add\n      0x40\n      mstore\n      dup1\n      0x10\n      dup2\n      mstore\n      0x20\n      add\n      0x3031323334353637383961626364656600000000000000000000000000000000\n      dup2\n      mstore\n      pop\n      swap1\n      pop\n        /* \"wwcc-contracts/contracts/wwccPool.sol\":13255:13271  bytes memory str */\n      0x00\n        /* \"wwcc-contracts/contracts/wwccPool.sol\":13302:13303  2 */\n      0x02\n        /* \"wwcc-contracts/contracts/wwccPool.sol\":13288:13292  data */\n      dup5\n        /* \"wwcc-contracts/contracts/wwccPool.sol\":13288:13299  data.length */\n      mload\n        /* \"wwcc-contracts/contracts/wwccPool.sol\":13288:13303  data.length * 2 */\n      tag_505\n      swap2\n      swap1\n      tag_383\n      jump\t// in\n    tag_505:\n        /* \"wwcc-contracts/contracts/wwccPool.sol\":13284:13285  2 */\n      0x02\n        /* \"wwcc-contracts/contracts/wwccPool.sol\":13284:13303  2 + data.length * 2 */\n      tag_506\n      swap2\n      swap1\n      tag_26\n      jump\t// in\n    tag_506:\n        /* \"wwcc-contracts/contracts/wwccPool.sol\":13274:13304  new bytes(2 + data.length * 2) */\n      0xffffffffffffffff\n      dup2\n      gt\n      iszero\n      tag_507\n      jumpi\n      tag_508\n      tag_475\n      jump\t// in\n    tag_508:\n    tag_507:\n      mload(0x40)\n      swap1\n      dup1\n      dup3\n      mstore\n      dup1\n      0x1f\n      add\n      not(0x1f)\n      and\n      0x20\n      add\n      dup3\n      add\n      0x40\n      mstore\n      dup1\n      iszero\n      tag_509\n      jumpi\n      dup2\n      0x20\n      add\n      0x01\n      dup3\n      mul\n      dup1\n      calldatasize\n      dup4\n      calldatacopy\n      dup1\n      dup3\n      add\n      swap2\n      pop\n      pop\n      swap1\n      pop\n    tag_509:\n      pop\n        /* \"wwcc-contracts/contracts/wwccPool.sol\":13255:13304  bytes memory str = new bytes(2 + data.length * 2) */\n      swap1\n      pop\n        /* \"wwcc-contracts/contracts/wwccPool.sol\":13318:13330  str[0] = \"0\" */\n      0x3000000000000000000000000000000000000000000000000000000000000000\n        /* \"wwcc-contracts/contracts/wwccPool.sol\":13318:13321  str */\n      dup2\n        /* \"wwcc-contracts/contracts/wwccPool.sol\":13322:13323  0 */\n      0x00\n        /* \"wwcc-contracts/contracts/wwccPool.sol\":13318:13324  str[0] */\n      dup2\n      mload\n      dup2\n      lt\n      tag_510\n      jumpi\n      tag_511\n      tag_361\n      jump\t// in\n    tag_511:\n    tag_510:\n      0x20\n      add\n      add\n        /* \"wwcc-contracts/contracts/wwccPool.sol\":13318:13330  str[0] = \"0\" */\n      swap1\n      not(0xffffffffffffffffffffffffffffffffffffffffffffffffffffffffffffff)\n      and\n      swap1\n      dup2\n      0x00\n      byte\n      swap1\n      mstore8\n      pop\n        /* \"wwcc-contracts/contracts/wwccPool.sol\":13344:13356  str[1] = \"x\" */\n      0x7800000000000000000000000000000000000000000000000000000000000000\n        /* \"wwcc-contracts/contracts/wwccPool.sol\":13344:13347  str */\n      dup2\n        /* \"wwcc-contracts/contracts/wwccPool.sol\":13348:13349  1 */\n      0x01\n        /* \"wwcc-contracts/contracts/wwccPool.sol\":13344:13350  str[1] */\n      dup2\n      mload\n      dup2\n      lt\n      tag_512\n      jumpi\n      tag_513\n      tag_361\n      jump\t// in\n    tag_513:\n    tag_512:\n      0x20\n      add\n      add\n        /* \"wwcc-contracts/contracts/wwccPool.sol\":13344:13356  str[1] = \"x\" */\n      swap1\n      not(0xffffffffffffffffffffffffffffffffffffffffffffffffffffffffffffff)\n      and\n      swap1\n      dup2\n      0x00\n      byte\n      swap1\n      mstore8\n      pop\n        /* \"wwcc-contracts/contracts/wwccPool.sol\":13374:13380  uint i */\n      0x00\n        /* \"wwcc-contracts/contracts/wwccPool.sol\":13370:13561  for(uint i =0;i < data.length;i++){... */\n    tag_514:\n        /* \"wwcc-contracts/contracts/wwccPool.sol\":13388:13392  data */\n      dup5\n        /* \"wwcc-contracts/contracts/wwccPool.sol\":13388:13399  data.length */\n      mload\n        /* \"wwcc-contracts/contracts/wwccPool.sol\":13384:13385  i */\n      dup2\n        /* \"wwcc-contracts/contracts/wwccPool.sol\":13384:13399  i < data.length */\n      lt\n        /* \"wwcc-contracts/contracts/wwccPool.sol\":13370:13561  for(uint i =0;i < data.length;i++){... */\n      iszero\n      tag_515\n      jumpi\n        /* \"wwcc-contracts/contracts/wwccPool.sol\":13439:13447  alphabet */\n      dup3\n        /* \"wwcc-contracts/contracts/wwccPool.sol\":13470:13471  4 */\n      0x04\n        /* \"wwcc-contracts/contracts/wwccPool.sol\":13459:13463  data */\n      dup7\n        /* \"wwcc-contracts/contracts/wwccPool.sol\":13464:13465  i */\n      dup4\n        /* \"wwcc-contracts/contracts/wwccPool.sol\":13459:13466  data[i] */\n      dup2\n      mload\n      dup2\n      lt\n      tag_517\n      jumpi\n      tag_518\n      tag_361\n      jump\t// in\n    tag_518:\n    tag_517:\n      0x20\n      add\n      add\n      mload\n      0xf8\n      shr\n      0xf8\n      shl\n        /* \"wwcc-contracts/contracts/wwccPool.sol\":13459:13471  data[i] >> 4 */\n      not(0xffffffffffffffffffffffffffffffffffffffffffffffffffffffffffffff)\n      and\n      swap1\n      shr\n        /* \"wwcc-contracts/contracts/wwccPool.sol\":13453:13472  uint8(data[i] >> 4) */\n      0xf8\n      shr\n        /* \"wwcc-contracts/contracts/wwccPool.sol\":13448:13473  uint(uint8(data[i] >> 4)) */\n      0xff\n      and\n        /* \"wwcc-contracts/contracts/wwccPool.sol\":13439:13474  alphabet[uint(uint8(data[i] >> 4))] */\n      dup2\n      mload\n      dup2\n      lt\n      tag_519\n      jumpi\n      tag_520\n      tag_361\n      jump\t// in\n    tag_520:\n    tag_519:\n      0x20\n      add\n      add\n      mload\n      0xf8\n      shr\n      0xf8\n      shl\n        /* \"wwcc-contracts/contracts/wwccPool.sol\":13422:13425  str */\n      dup3\n        /* \"wwcc-contracts/contracts/wwccPool.sol\":13434:13435  2 */\n      0x02\n        /* \"wwcc-contracts/contracts/wwccPool.sol\":13430:13431  i */\n      dup4\n        /* \"wwcc-contracts/contracts/wwccPool.sol\":13430:13435  i * 2 */\n      tag_521\n      swap2\n      swap1\n      tag_383\n      jump\t// in\n    tag_521:\n        /* \"wwcc-contracts/contracts/wwccPool.sol\":13426:13427  2 */\n      0x02\n        /* \"wwcc-contracts/contracts/wwccPool.sol\":13426:13435  2 + i * 2 */\n      tag_522\n      swap2\n      swap1\n      tag_26\n      jump\t// in\n    tag_522:\n        /* \"wwcc-contracts/contracts/wwccPool.sol\":13422:13436  str[2 + i * 2] */\n      dup2\n      mload\n      dup2\n      lt\n      tag_523\n      jumpi\n      tag_524\n      tag_361\n      jump\t// in\n    tag_524:\n    tag_523:\n      0x20\n      add\n      add\n        /* \"wwcc-contracts/contracts/wwccPool.sol\":13422:13474  str[2 + i * 2] = alphabet[uint(uint8(data[i] >> 4))] */\n      swap1\n      not(0xffffffffffffffffffffffffffffffffffffffffffffffffffffffffffffff)\n      and\n      swap1\n      dup2\n      0x00\n      byte\n      swap1\n      mstore8\n      pop\n        /* \"wwcc-contracts/contracts/wwccPool.sol\":13509:13517  alphabet */\n      dup3\n        /* \"wwcc-contracts/contracts/wwccPool.sol\":13539:13543  0x0f */\n      0x0f\n        /* \"wwcc-contracts/contracts/wwccPool.sol\":13529:13543  data[i] & 0x0f */\n      0xf8\n      shl\n        /* \"wwcc-contracts/contracts/wwccPool.sol\":13529:13533  data */\n      dup7\n        /* \"wwcc-contracts/contracts/wwccPool.sol\":13534:13535  i */\n      dup4\n        /* \"wwcc-contracts/contracts/wwccPool.sol\":13529:13536  data[i] */\n      dup2\n      mload\n      dup2\n      lt\n      tag_525\n      jumpi\n      tag_526\n      tag_361\n      jump\t// in\n    tag_526:\n    tag_525:\n      0x20\n      add\n      add\n      mload\n      0xf8\n      shr\n      0xf8\n      shl\n        /* \"wwcc-contracts/contracts/wwccPool.sol\":13529:13543  data[i] & 0x0f */\n      and\n        /* \"wwcc-contracts/contracts/wwccPool.sol\":13523:13544  uint8(data[i] & 0x0f) */\n      0xf8\n      shr\n        /* \"wwcc-contracts/contracts/wwccPool.sol\":13518:13545  uint(uint8(data[i] & 0x0f)) */\n      0xff\n      and\n        /* \"wwcc-contracts/contracts/wwccPool.sol\":13509:13546  alphabet[uint(uint8(data[i] & 0x0f))] */\n      dup2\n      mload\n      dup2\n      lt\n      tag_527\n      jumpi\n      tag_528\n      tag_361\n      jump\t// in\n    tag_528:\n    tag_527:\n      0x20\n      add\n      add\n      mload\n      0xf8\n      shr\n      0xf8\n      shl\n        /* \"wwcc-contracts/contracts/wwccPool.sol\":13492:13495  str */\n      dup3\n        /* \"wwcc-contracts/contracts/wwccPool.sol\":13504:13505  2 */\n      0x02\n        /* \"wwcc-contracts/contracts/wwccPool.sol\":13500:13501  i */\n      dup4\n        /* \"wwcc-contracts/contracts/wwccPool.sol\":13500:13505  i * 2 */\n      tag_529\n      swap2\n      swap1\n      tag_383\n      jump\t// in\n    tag_529:\n        /* \"wwcc-contracts/contracts/wwccPool.sol\":13496:13497  3 */\n      0x03\n        /* \"wwcc-contracts/contracts/wwccPool.sol\":13496:13505  3 + i * 2 */\n      tag_530\n      swap2\n      swap1\n      tag_26\n      jump\t// in\n    tag_530:\n        /* \"wwcc-contracts/contracts/wwccPool.sol\":13492:13506  str[3 + i * 2] */\n      dup2\n      mload\n      dup2\n      lt\n      tag_531\n      jumpi\n      tag_532\n      tag_361\n      jump\t// in\n    tag_532:\n    tag_531:\n      0x20\n      add\n      add\n        /* \"wwcc-contracts/contracts/wwccPool.sol\":13492:13546  str[3 + i * 2] = alphabet[uint(uint8(data[i] & 0x0f))] */\n      swap1\n      not(0xffffffffffffffffffffffffffffffffffffffffffffffffffffffffffffff)\n      and\n      swap1\n      dup2\n      0x00\n      byte\n      swap1\n      mstore8\n      pop\n        /* \"wwcc-contracts/contracts/wwccPool.sol\":13400:13403  i++ */\n      dup1\n      dup1\n      tag_533\n      swap1\n      tag_425\n      jump\t// in\n    tag_533:\n      swap2\n      pop\n      pop\n        /* \"wwcc-contracts/contracts/wwccPool.sol\":13370:13561  for(uint i =0;i < data.length;i++){... */\n      jump(tag_514)\n    tag_515:\n      pop\n        /* \"wwcc-contracts/contracts/wwccPool.sol\":13588:13591  str */\n      dup1\n        /* \"wwcc-contracts/contracts/wwccPool.sol\":13574:13592  return string(str) */\n      swap3\n      pop\n      pop\n      pop\n        /* \"wwcc-contracts/contracts/wwccPool.sol\":13112:13599  function toString(bytes memory data) internal pure returns(string memory){... */\n      swap2\n      swap1\n      pop\n      jump\t// out\n    tag_233:\n      dup3\n      dup1\n      sload\n      tag_534\n      swap1\n      tag_126\n      jump\t// in\n    tag_534:\n      swap1\n      0x00\n      mstore\n      keccak256(0x00, 0x20)\n      swap1\n      0x1f\n      add\n      0x20\n      swap1\n      div\n      dup2\n      add\n      swap3\n      dup3\n      tag_536\n      jumpi\n      0x00\n      dup6\n      sstore\n      jump(tag_535)\n    tag_536:\n      dup3\n      0x1f\n      lt\n      tag_537\n      jumpi\n      dup1\n      mload\n      not(0xff)\n      and\n      dup4\n      dup1\n      add\n      or\n      dup6\n      sstore\n      jump(tag_535)\n    tag_537:\n      dup3\n      dup1\n      add\n      0x01\n      add\n      dup6\n      sstore\n      dup3\n      iszero\n      tag_535\n      jumpi\n      swap2\n      dup3\n      add\n    tag_538:\n      dup3\n      dup2\n      gt\n      iszero\n      tag_539\n      jumpi\n      dup3\n      mload\n      dup3\n      sstore\n      swap2\n      0x20\n      add\n      swap2\n      swap1\n      0x01\n      add\n      swap1\n      jump(tag_538)\n    tag_539:\n    tag_535:\n      pop\n      swap1\n      pop\n      tag_540\n      swap2\n      swap1\n      tag_541\n      jump\t// in\n    tag_540:\n      pop\n      swap1\n      jump\t// out\n    tag_441:\n      mload(0x40)\n      dup1\n      0xa0\n      add\n      0x40\n      mstore\n      dup1\n      0x00\n      dup2\n      mstore\n      0x20\n      add\n      0x00\n      dup2\n      mstore\n      0x20\n      add\n      0x00\n      dup2\n      mstore\n      0x20\n      add\n      0x00\n      dup2\n      mstore\n      0x20\n      add\n      0x00\n      dup2\n      mstore\n      pop\n      swap1\n      jump\t// out\n    tag_541:\n    tag_542:\n      dup1\n      dup3\n      gt\n      iszero\n      tag_543\n      jumpi\n      0x00\n      dup2\n      0x00\n      swap1\n      sstore\n      pop\n      0x01\n      add\n      jump(tag_542)\n    tag_543:\n      pop\n      swap1\n      jump\t// out\n        /* \"#utility.yul\":7:419   */\n    tag_545:\n        /* \"#utility.yul\":85:90   */\n      0x00\n        /* \"#utility.yul\":110:176   */\n      tag_547\n        /* \"#utility.yul\":126:175   */\n      tag_548\n        /* \"#utility.yul\":168:174   */\n      dup5\n        /* \"#utility.yul\":126:175   */\n      tag_549\n      jump\t// in\n    tag_548:\n        /* \"#utility.yul\":110:176   */\n      tag_550\n      jump\t// in\n    tag_547:\n        /* \"#utility.yul\":101:176   */\n      swap1\n      pop\n        /* \"#utility.yul\":199:205   */\n      dup3\n        /* \"#utility.yul\":192:197   */\n      dup2\n        /* \"#utility.yul\":185:206   */\n      mstore\n        /* \"#utility.yul\":237:241   */\n      0x20\n        /* \"#utility.yul\":230:235   */\n      dup2\n        /* \"#utility.yul\":226:242   */\n      add\n        /* \"#utility.yul\":275:278   */\n      dup5\n        /* \"#utility.yul\":266:272   */\n      dup5\n        /* \"#utility.yul\":261:264   */\n      dup5\n        /* \"#utility.yul\":257:273   */\n      add\n        /* \"#utility.yul\":254:279   */\n      gt\n        /* \"#utility.yul\":251:363   */\n      iszero\n      tag_551\n      jumpi\n        /* \"#utility.yul\":282:361   */\n      tag_552\n      tag_553\n      jump\t// in\n    tag_552:\n        /* \"#utility.yul\":251:363   */\n    tag_551:\n        /* \"#utility.yul\":372:413   */\n      tag_554\n        /* \"#utility.yul\":406:412   */\n      dup5\n        /* \"#utility.yul\":401:404   */\n      dup3\n        /* \"#utility.yul\":396:399   */\n      dup6\n        /* \"#utility.yul\":372:413   */\n      tag_555\n      jump\t// in\n    tag_554:\n        /* \"#utility.yul\":91:419   */\n      pop\n        /* \"#utility.yul\":7:419   */\n      swap4\n      swap3\n      pop\n      pop\n      pop\n      jump\t// out\n        /* \"#utility.yul\":425:564   */\n    tag_556:\n        /* \"#utility.yul\":471:476   */\n      0x00\n        /* \"#utility.yul\":509:515   */\n      dup2\n        /* \"#utility.yul\":496:516   */\n      calldataload\n        /* \"#utility.yul\":487:516   */\n      swap1\n      pop\n        /* \"#utility.yul\":525:558   */\n      tag_558\n        /* \"#utility.yul\":552:557   */\n      dup2\n        /* \"#utility.yul\":525:558   */\n      tag_559\n      jump\t// in\n    tag_558:\n        /* \"#utility.yul\":425:564   */\n      swap3\n      swap2\n      pop\n      pop\n      jump\t// out\n        /* \"#utility.yul\":570:703   */\n    tag_560:\n        /* \"#utility.yul\":613:618   */\n      0x00\n        /* \"#utility.yul\":651:657   */\n      dup2\n        /* \"#utility.yul\":638:658   */\n      calldataload\n        /* \"#utility.yul\":629:658   */\n      swap1\n      pop\n        /* \"#utility.yul\":667:697   */\n      tag_562\n        /* \"#utility.yul\":691:696   */\n      dup2\n        /* \"#utility.yul\":667:697   */\n      tag_563\n      jump\t// in\n    tag_562:\n        /* \"#utility.yul\":570:703   */\n      swap3\n      swap2\n      pop\n      pop\n      jump\t// out\n        /* \"#utility.yul\":709:848   */\n    tag_564:\n        /* \"#utility.yul\":755:760   */\n      0x00\n        /* \"#utility.yul\":793:799   */\n      dup2\n        /* \"#utility.yul\":780:800   */\n      calldataload\n        /* \"#utility.yul\":771:800   */\n      swap1\n      pop\n        /* \"#utility.yul\":809:842   */\n      tag_566\n        /* \"#utility.yul\":836:841   */\n      dup2\n        /* \"#utility.yul\":809:842   */\n      tag_567\n      jump\t// in\n    tag_566:\n        /* \"#utility.yul\":709:848   */\n      swap3\n      swap2\n      pop\n      pop\n      jump\t// out\n        /* \"#utility.yul\":868:1208   */\n    tag_568:\n        /* \"#utility.yul\":924:929   */\n      0x00\n        /* \"#utility.yul\":973:976   */\n      dup3\n        /* \"#utility.yul\":966:970   */\n      0x1f\n        /* \"#utility.yul\":958:964   */\n      dup4\n        /* \"#utility.yul\":954:971   */\n      add\n        /* \"#utility.yul\":950:977   */\n      slt\n        /* \"#utility.yul\":940:1062   */\n      tag_570\n      jumpi\n        /* \"#utility.yul\":981:1060   */\n      tag_571\n      tag_572\n      jump\t// in\n    tag_571:\n        /* \"#utility.yul\":940:1062   */\n    tag_570:\n        /* \"#utility.yul\":1098:1104   */\n      dup2\n        /* \"#utility.yul\":1085:1105   */\n      calldataload\n        /* \"#utility.yul\":1123:1202   */\n      tag_573\n        /* \"#utility.yul\":1198:1201   */\n      dup5\n        /* \"#utility.yul\":1190:1196   */\n      dup3\n        /* \"#utility.yul\":1183:1187   */\n      0x20\n        /* \"#utility.yul\":1175:1181   */\n      dup7\n        /* \"#utility.yul\":1171:1188   */\n      add\n        /* \"#utility.yul\":1123:1202   */\n      tag_545\n      jump\t// in\n    tag_573:\n        /* \"#utility.yul\":1114:1202   */\n      swap2\n      pop\n        /* \"#utility.yul\":930:1208   */\n      pop\n        /* \"#utility.yul\":868:1208   */\n      swap3\n      swap2\n      pop\n      pop\n      jump\t// out\n        /* \"#utility.yul\":1214:1353   */\n    tag_574:\n        /* \"#utility.yul\":1260:1265   */\n      0x00\n        /* \"#utility.yul\":1298:1304   */\n      dup2\n        /* \"#utility.yul\":1285:1305   */\n      calldataload\n        /* \"#utility.yul\":1276:1305   */\n      swap1\n      pop\n        /* \"#utility.yul\":1314:1347   */\n      tag_576\n        /* \"#utility.yul\":1341:1346   */\n      dup2\n        /* \"#utility.yul\":1314:1347   */\n      tag_577\n      jump\t// in\n    tag_576:\n        /* \"#utility.yul\":1214:1353   */\n      swap3\n      swap2\n      pop\n      pop\n      jump\t// out\n        /* \"#utility.yul\":1359:1688   */\n    tag_50:\n        /* \"#utility.yul\":1418:1424   */\n      0x00\n        /* \"#utility.yul\":1467:1469   */\n      0x20\n        /* \"#utility.yul\":1455:1464   */\n      dup3\n        /* \"#utility.yul\":1446:1453   */\n      dup5\n        /* \"#utility.yul\":1442:1465   */\n      sub\n        /* \"#utility.yul\":1438:1470   */\n      slt\n        /* \"#utility.yul\":1435:1554   */\n      iszero\n      tag_579\n      jumpi\n        /* \"#utility.yul\":1473:1552   */\n      tag_580\n      tag_581\n      jump\t// in\n    tag_580:\n        /* \"#utility.yul\":1435:1554   */\n    tag_579:\n        /* \"#utility.yul\":1593:1594   */\n      0x00\n        /* \"#utility.yul\":1618:1671   */\n      tag_582\n        /* \"#utility.yul\":1663:1670   */\n      dup5\n        /* \"#utility.yul\":1654:1660   */\n      dup3\n        /* \"#utility.yul\":1643:1652   */\n      dup6\n        /* \"#utility.yul\":1639:1661   */\n      add\n        /* \"#utility.yul\":1618:1671   */\n      tag_556\n      jump\t// in\n    tag_582:\n        /* \"#utility.yul\":1608:1671   */\n      swap2\n      pop\n        /* \"#utility.yul\":1564:1681   */\n      pop\n        /* \"#utility.yul\":1359:1688   */\n      swap3\n      swap2\n      pop\n      pop\n      jump\t// out\n        /* \"#utility.yul\":1694:2168   */\n    tag_38:\n        /* \"#utility.yul\":1762:1768   */\n      0x00\n        /* \"#utility.yul\":1770:1776   */\n      dup1\n        /* \"#utility.yul\":1819:1821   */\n      0x40\n        /* \"#utility.yul\":1807:1816   */\n      dup4\n        /* \"#utility.yul\":1798:1805   */\n      dup6\n        /* \"#utility.yul\":1794:1817   */\n      sub\n        /* \"#utility.yul\":1790:1822   */\n      slt\n        /* \"#utility.yul\":1787:1906   */\n      iszero\n      tag_584\n      jumpi\n        /* \"#utility.yul\":1825:1904   */\n      tag_585\n      tag_581\n      jump\t// in\n    tag_585:\n        /* \"#utility.yul\":1787:1906   */\n    tag_584:\n        /* \"#utility.yul\":1945:1946   */\n      0x00\n        /* \"#utility.yul\":1970:2023   */\n      tag_586\n        /* \"#utility.yul\":2015:2022   */\n      dup6\n        /* \"#utility.yul\":2006:2012   */\n      dup3\n        /* \"#utility.yul\":1995:2004   */\n      dup7\n        /* \"#utility.yul\":1991:2013   */\n      add\n        /* \"#utility.yul\":1970:2023   */\n      tag_556\n      jump\t// in\n    tag_586:\n        /* \"#utility.yul\":1960:2023   */\n      swap3\n      pop\n        /* \"#utility.yul\":1916:2033   */\n      pop\n        /* \"#utility.yul\":2072:2074   */\n      0x20\n        /* \"#utility.yul\":2098:2151   */\n      tag_587\n        /* \"#utility.yul\":2143:2150   */\n      dup6\n        /* \"#utility.yul\":2134:2140   */\n      dup3\n        /* \"#utility.yul\":2123:2132   */\n      dup7\n        /* \"#utility.yul\":2119:2141   */\n      add\n        /* \"#utility.yul\":2098:2151   */\n      tag_564\n      jump\t// in\n    tag_587:\n        /* \"#utility.yul\":2088:2151   */\n      swap2\n      pop\n        /* \"#utility.yul\":2043:2161   */\n      pop\n        /* \"#utility.yul\":1694:2168   */\n      swap3\n      pop\n      swap3\n      swap1\n      pop\n      jump\t// out\n        /* \"#utility.yul\":2174:2648   */\n    tag_88:\n        /* \"#utility.yul\":2242:2248   */\n      0x00\n        /* \"#utility.yul\":2250:2256   */\n      dup1\n        /* \"#utility.yul\":2299:2301   */\n      0x40\n        /* \"#utility.yul\":2287:2296   */\n      dup4\n        /* \"#utility.yul\":2278:2285   */\n      dup6\n        /* \"#utility.yul\":2274:2297   */\n      sub\n        /* \"#utility.yul\":2270:2302   */\n      slt\n        /* \"#utility.yul\":2267:2386   */\n      iszero\n      tag_589\n      jumpi\n        /* \"#utility.yul\":2305:2384   */\n      tag_590\n      tag_581\n      jump\t// in\n    tag_590:\n        /* \"#utility.yul\":2267:2386   */\n    tag_589:\n        /* \"#utility.yul\":2425:2426   */\n      0x00\n        /* \"#utility.yul\":2450:2503   */\n      tag_591\n        /* \"#utility.yul\":2495:2502   */\n      dup6\n        /* \"#utility.yul\":2486:2492   */\n      dup3\n        /* \"#utility.yul\":2475:2484   */\n      dup7\n        /* \"#utility.yul\":2471:2493   */\n      add\n        /* \"#utility.yul\":2450:2503   */\n      tag_556\n      jump\t// in\n    tag_591:\n        /* \"#utility.yul\":2440:2503   */\n      swap3\n      pop\n        /* \"#utility.yul\":2396:2513   */\n      pop\n        /* \"#utility.yul\":2552:2554   */\n      0x20\n        /* \"#utility.yul\":2578:2631   */\n      tag_592\n        /* \"#utility.yul\":2623:2630   */\n      dup6\n        /* \"#utility.yul\":2614:2620   */\n      dup3\n        /* \"#utility.yul\":2603:2612   */\n      dup7\n        /* \"#utility.yul\":2599:2621   */\n      add\n        /* \"#utility.yul\":2578:2631   */\n      tag_574\n      jump\t// in\n    tag_592:\n        /* \"#utility.yul\":2568:2631   */\n      swap2\n      pop\n        /* \"#utility.yul\":2523:2641   */\n      pop\n        /* \"#utility.yul\":2174:2648   */\n      swap3\n      pop\n      swap3\n      swap1\n      pop\n      jump\t// out\n        /* \"#utility.yul\":2654:3711   */\n    tag_45:\n        /* \"#utility.yul\":2758:2764   */\n      0x00\n        /* \"#utility.yul\":2766:2772   */\n      dup1\n        /* \"#utility.yul\":2774:2780   */\n      0x00\n        /* \"#utility.yul\":2782:2788   */\n      dup1\n        /* \"#utility.yul\":2790:2796   */\n      0x00\n        /* \"#utility.yul\":2798:2804   */\n      dup1\n        /* \"#utility.yul\":2847:2850   */\n      0xc0\n        /* \"#utility.yul\":2835:2844   */\n      dup8\n        /* \"#utility.yul\":2826:2833   */\n      dup10\n        /* \"#utility.yul\":2822:2845   */\n      sub\n        /* \"#utility.yul\":2818:2851   */\n      slt\n        /* \"#utility.yul\":2815:2935   */\n      iszero\n      tag_594\n      jumpi\n        /* \"#utility.yul\":2854:2933   */\n      tag_595\n      tag_581\n      jump\t// in\n    tag_595:\n        /* \"#utility.yul\":2815:2935   */\n    tag_594:\n        /* \"#utility.yul\":2974:2975   */\n      0x00\n        /* \"#utility.yul\":2999:3052   */\n      tag_596\n        /* \"#utility.yul\":3044:3051   */\n      dup10\n        /* \"#utility.yul\":3035:3041   */\n      dup3\n        /* \"#utility.yul\":3024:3033   */\n      dup11\n        /* \"#utility.yul\":3020:3042   */\n      add\n        /* \"#utility.yul\":2999:3052   */\n      tag_556\n      jump\t// in\n    tag_596:\n        /* \"#utility.yul\":2989:3052   */\n      swap7\n      pop\n        /* \"#utility.yul\":2945:3062   */\n      pop\n        /* \"#utility.yul\":3101:3103   */\n      0x20\n        /* \"#utility.yul\":3127:3180   */\n      tag_597\n        /* \"#utility.yul\":3172:3179   */\n      dup10\n        /* \"#utility.yul\":3163:3169   */\n      dup3\n        /* \"#utility.yul\":3152:3161   */\n      dup11\n        /* \"#utility.yul\":3148:3170   */\n      add\n        /* \"#utility.yul\":3127:3180   */\n      tag_574\n      jump\t// in\n    tag_597:\n        /* \"#utility.yul\":3117:3180   */\n      swap6\n      pop\n        /* \"#utility.yul\":3072:3190   */\n      pop\n        /* \"#utility.yul\":3229:3231   */\n      0x40\n        /* \"#utility.yul\":3255:3308   */\n      tag_598\n        /* \"#utility.yul\":3300:3307   */\n      dup10\n        /* \"#utility.yul\":3291:3297   */\n      dup3\n        /* \"#utility.yul\":3280:3289   */\n      dup11\n        /* \"#utility.yul\":3276:3298   */\n      add\n        /* \"#utility.yul\":3255:3308   */\n      tag_564\n      jump\t// in\n    tag_598:\n        /* \"#utility.yul\":3245:3308   */\n      swap5\n      pop\n        /* \"#utility.yul\":3200:3318   */\n      pop\n        /* \"#utility.yul\":3357:3359   */\n      0x60\n        /* \"#utility.yul\":3383:3436   */\n      tag_599\n        /* \"#utility.yul\":3428:3435   */\n      dup10\n        /* \"#utility.yul\":3419:3425   */\n      dup3\n        /* \"#utility.yul\":3408:3417   */\n      dup11\n        /* \"#utility.yul\":3404:3426   */\n      add\n        /* \"#utility.yul\":3383:3436   */\n      tag_574\n      jump\t// in\n    tag_599:\n        /* \"#utility.yul\":3373:3436   */\n      swap4\n      pop\n        /* \"#utility.yul\":3328:3446   */\n      pop\n        /* \"#utility.yul\":3485:3488   */\n      0x80\n        /* \"#utility.yul\":3512:3565   */\n      tag_600\n        /* \"#utility.yul\":3557:3564   */\n      dup10\n        /* \"#utility.yul\":3548:3554   */\n      dup3\n        /* \"#utility.yul\":3537:3546   */\n      dup11\n        /* \"#utility.yul\":3533:3555   */\n      add\n        /* \"#utility.yul\":3512:3565   */\n      tag_574\n      jump\t// in\n    tag_600:\n        /* \"#utility.yul\":3502:3565   */\n      swap3\n      pop\n        /* \"#utility.yul\":3456:3575   */\n      pop\n        /* \"#utility.yul\":3614:3617   */\n      0xa0\n        /* \"#utility.yul\":3641:3694   */\n      tag_601\n        /* \"#utility.yul\":3686:3693   */\n      dup10\n        /* \"#utility.yul\":3677:3683   */\n      dup3\n        /* \"#utility.yul\":3666:3675   */\n      dup11\n        /* \"#utility.yul\":3662:3684   */\n      add\n        /* \"#utility.yul\":3641:3694   */\n      tag_574\n      jump\t// in\n    tag_601:\n        /* \"#utility.yul\":3631:3694   */\n      swap2\n      pop\n        /* \"#utility.yul\":3585:3704   */\n      pop\n        /* \"#utility.yul\":2654:3711   */\n      swap3\n      swap6\n      pop\n      swap3\n      swap6\n      pop\n      swap3\n      swap6\n      jump\t// out\n        /* \"#utility.yul\":3717:4046   */\n    tag_73:\n        /* \"#utility.yul\":3776:3782   */\n      0x00\n        /* \"#utility.yul\":3825:3827   */\n      0x20\n        /* \"#utility.yul\":3813:3822   */\n      dup3\n        /* \"#utility.yul\":3804:3811   */\n      dup5\n        /* \"#utility.yul\":3800:3823   */\n      sub\n        /* \"#utility.yul\":3796:3828   */\n      slt\n        /* \"#utility.yul\":3793:3912   */\n      iszero\n      tag_603\n      jumpi\n        /* \"#utility.yul\":3831:3910   */\n      tag_604\n      tag_581\n      jump\t// in\n    tag_604:\n        /* \"#utility.yul\":3793:3912   */\n    tag_603:\n        /* \"#utility.yul\":3951:3952   */\n      0x00\n        /* \"#utility.yul\":3976:4029   */\n      tag_605\n        /* \"#utility.yul\":4021:4028   */\n      dup5\n        /* \"#utility.yul\":4012:4018   */\n      dup3\n        /* \"#utility.yul\":4001:4010   */\n      dup6\n        /* \"#utility.yul\":3997:4019   */\n      add\n        /* \"#utility.yul\":3976:4029   */\n      tag_564\n      jump\t// in\n    tag_605:\n        /* \"#utility.yul\":3966:4029   */\n      swap2\n      pop\n        /* \"#utility.yul\":3922:4039   */\n      pop\n        /* \"#utility.yul\":3717:4046   */\n      swap3\n      swap2\n      pop\n      pop\n      jump\t// out\n        /* \"#utility.yul\":4052:4526   */\n    tag_56:\n        /* \"#utility.yul\":4120:4126   */\n      0x00\n        /* \"#utility.yul\":4128:4134   */\n      dup1\n        /* \"#utility.yul\":4177:4179   */\n      0x40\n        /* \"#utility.yul\":4165:4174   */\n      dup4\n        /* \"#utility.yul\":4156:4163   */\n      dup6\n        /* \"#utility.yul\":4152:4175   */\n      sub\n        /* \"#utility.yul\":4148:4180   */\n      slt\n        /* \"#utility.yul\":4145:4264   */\n      iszero\n      tag_607\n      jumpi\n        /* \"#utility.yul\":4183:4262   */\n      tag_608\n      tag_581\n      jump\t// in\n    tag_608:\n        /* \"#utility.yul\":4145:4264   */\n    tag_607:\n        /* \"#utility.yul\":4303:4304   */\n      0x00\n        /* \"#utility.yul\":4328:4381   */\n      tag_609\n        /* \"#utility.yul\":4373:4380   */\n      dup6\n        /* \"#utility.yul\":4364:4370   */\n      dup3\n        /* \"#utility.yul\":4353:4362   */\n      dup7\n        /* \"#utility.yul\":4349:4371   */\n      add\n        /* \"#utility.yul\":4328:4381   */\n      tag_564\n      jump\t// in\n    tag_609:\n        /* \"#utility.yul\":4318:4381   */\n      swap3\n      pop\n        /* \"#utility.yul\":4274:4391   */\n      pop\n        /* \"#utility.yul\":4430:4432   */\n      0x20\n        /* \"#utility.yul\":4456:4509   */\n      tag_610\n        /* \"#utility.yul\":4501:4508   */\n      dup6\n        /* \"#utility.yul\":4492:4498   */\n      dup3\n        /* \"#utility.yul\":4481:4490   */\n      dup7\n        /* \"#utility.yul\":4477:4499   */\n      add\n        /* \"#utility.yul\":4456:4509   */\n      tag_574\n      jump\t// in\n    tag_610:\n        /* \"#utility.yul\":4446:4509   */\n      swap2\n      pop\n        /* \"#utility.yul\":4401:4519   */\n      pop\n        /* \"#utility.yul\":4052:4526   */\n      swap3\n      pop\n      swap3\n      swap1\n      pop\n      jump\t// out\n        /* \"#utility.yul\":4532:5297   */\n    tag_83:\n        /* \"#utility.yul\":4618:4624   */\n      0x00\n        /* \"#utility.yul\":4626:4632   */\n      dup1\n        /* \"#utility.yul\":4634:4640   */\n      0x00\n        /* \"#utility.yul\":4642:4648   */\n      dup1\n        /* \"#utility.yul\":4691:4694   */\n      0x80\n        /* \"#utility.yul\":4679:4688   */\n      dup6\n        /* \"#utility.yul\":4670:4677   */\n      dup8\n        /* \"#utility.yul\":4666:4689   */\n      sub\n        /* \"#utility.yul\":4662:4695   */\n      slt\n        /* \"#utility.yul\":4659:4779   */\n      iszero\n      tag_612\n      jumpi\n        /* \"#utility.yul\":4698:4777   */\n      tag_613\n      tag_581\n      jump\t// in\n    tag_613:\n        /* \"#utility.yul\":4659:4779   */\n    tag_612:\n        /* \"#utility.yul\":4818:4819   */\n      0x00\n        /* \"#utility.yul\":4843:4896   */\n      tag_614\n        /* \"#utility.yul\":4888:4895   */\n      dup8\n        /* \"#utility.yul\":4879:4885   */\n      dup3\n        /* \"#utility.yul\":4868:4877   */\n      dup9\n        /* \"#utility.yul\":4864:4886   */\n      add\n        /* \"#utility.yul\":4843:4896   */\n      tag_564\n      jump\t// in\n    tag_614:\n        /* \"#utility.yul\":4833:4896   */\n      swap5\n      pop\n        /* \"#utility.yul\":4789:4906   */\n      pop\n        /* \"#utility.yul\":4945:4947   */\n      0x20\n        /* \"#utility.yul\":4971:5024   */\n      tag_615\n        /* \"#utility.yul\":5016:5023   */\n      dup8\n        /* \"#utility.yul\":5007:5013   */\n      dup3\n        /* \"#utility.yul\":4996:5005   */\n      dup9\n        /* \"#utility.yul\":4992:5014   */\n      add\n        /* \"#utility.yul\":4971:5024   */\n      tag_574\n      jump\t// in\n    tag_615:\n        /* \"#utility.yul\":4961:5024   */\n      swap4\n      pop\n        /* \"#utility.yul\":4916:5034   */\n      pop\n        /* \"#utility.yul\":5073:5075   */\n      0x40\n        /* \"#utility.yul\":5099:5152   */\n      tag_616\n        /* \"#utility.yul\":5144:5151   */\n      dup8\n        /* \"#utility.yul\":5135:5141   */\n      dup3\n        /* \"#utility.yul\":5124:5133   */\n      dup9\n        /* \"#utility.yul\":5120:5142   */\n      add\n        /* \"#utility.yul\":5099:5152   */\n      tag_574\n      jump\t// in\n    tag_616:\n        /* \"#utility.yul\":5089:5152   */\n      swap3\n      pop\n        /* \"#utility.yul\":5044:5162   */\n      pop\n        /* \"#utility.yul\":5201:5203   */\n      0x60\n        /* \"#utility.yul\":5227:5280   */\n      tag_617\n        /* \"#utility.yul\":5272:5279   */\n      dup8\n        /* \"#utility.yul\":5263:5269   */\n      dup3\n        /* \"#utility.yul\":5252:5261   */\n      dup9\n        /* \"#utility.yul\":5248:5270   */\n      add\n        /* \"#utility.yul\":5227:5280   */\n      tag_574\n      jump\t// in\n    tag_617:\n        /* \"#utility.yul\":5217:5280   */\n      swap2\n      pop\n        /* \"#utility.yul\":5172:5290   */\n      pop\n        /* \"#utility.yul\":4532:5297   */\n      swap3\n      swap6\n      swap2\n      swap5\n      pop\n      swap3\n      pop\n      jump\t// out\n        /* \"#utility.yul\":5303:6602   */\n    tag_62:\n        /* \"#utility.yul\":5416:5422   */\n      0x00\n        /* \"#utility.yul\":5424:5430   */\n      dup1\n        /* \"#utility.yul\":5432:5438   */\n      0x00\n        /* \"#utility.yul\":5440:5446   */\n      dup1\n        /* \"#utility.yul\":5489:5492   */\n      0x80\n        /* \"#utility.yul\":5477:5486   */\n      dup6\n        /* \"#utility.yul\":5468:5475   */\n      dup8\n        /* \"#utility.yul\":5464:5487   */\n      sub\n        /* \"#utility.yul\":5460:5493   */\n      slt\n        /* \"#utility.yul\":5457:5577   */\n      iszero\n      tag_619\n      jumpi\n        /* \"#utility.yul\":5496:5575   */\n      tag_620\n      tag_581\n      jump\t// in\n    tag_620:\n        /* \"#utility.yul\":5457:5577   */\n    tag_619:\n        /* \"#utility.yul\":5644:5645   */\n      0x00\n        /* \"#utility.yul\":5633:5642   */\n      dup6\n        /* \"#utility.yul\":5629:5646   */\n      add\n        /* \"#utility.yul\":5616:5647   */\n      calldataload\n        /* \"#utility.yul\":5674:5692   */\n      0xffffffffffffffff\n        /* \"#utility.yul\":5666:5672   */\n      dup2\n        /* \"#utility.yul\":5663:5693   */\n      gt\n        /* \"#utility.yul\":5660:5777   */\n      iszero\n      tag_621\n      jumpi\n        /* \"#utility.yul\":5696:5775   */\n      tag_622\n      tag_623\n      jump\t// in\n    tag_622:\n        /* \"#utility.yul\":5660:5777   */\n    tag_621:\n        /* \"#utility.yul\":5801:5864   */\n      tag_624\n        /* \"#utility.yul\":5856:5863   */\n      dup8\n        /* \"#utility.yul\":5847:5853   */\n      dup3\n        /* \"#utility.yul\":5836:5845   */\n      dup9\n        /* \"#utility.yul\":5832:5854   */\n      add\n        /* \"#utility.yul\":5801:5864   */\n      tag_568\n      jump\t// in\n    tag_624:\n        /* \"#utility.yul\":5791:5864   */\n      swap5\n      pop\n        /* \"#utility.yul\":5587:5874   */\n      pop\n        /* \"#utility.yul\":5941:5943   */\n      0x20\n        /* \"#utility.yul\":5930:5939   */\n      dup6\n        /* \"#utility.yul\":5926:5944   */\n      add\n        /* \"#utility.yul\":5913:5945   */\n      calldataload\n        /* \"#utility.yul\":5972:5990   */\n      0xffffffffffffffff\n        /* \"#utility.yul\":5964:5970   */\n      dup2\n        /* \"#utility.yul\":5961:5991   */\n      gt\n        /* \"#utility.yul\":5958:6075   */\n      iszero\n      tag_625\n      jumpi\n        /* \"#utility.yul\":5994:6073   */\n      tag_626\n      tag_623\n      jump\t// in\n    tag_626:\n        /* \"#utility.yul\":5958:6075   */\n    tag_625:\n        /* \"#utility.yul\":6099:6162   */\n      tag_627\n        /* \"#utility.yul\":6154:6161   */\n      dup8\n        /* \"#utility.yul\":6145:6151   */\n      dup3\n        /* \"#utility.yul\":6134:6143   */\n      dup9\n        /* \"#utility.yul\":6130:6152   */\n      add\n        /* \"#utility.yul\":6099:6162   */\n      tag_568\n      jump\t// in\n    tag_627:\n        /* \"#utility.yul\":6089:6162   */\n      swap4\n      pop\n        /* \"#utility.yul\":5884:6172   */\n      pop\n        /* \"#utility.yul\":6239:6241   */\n      0x40\n        /* \"#utility.yul\":6228:6237   */\n      dup6\n        /* \"#utility.yul\":6224:6242   */\n      add\n        /* \"#utility.yul\":6211:6243   */\n      calldataload\n        /* \"#utility.yul\":6270:6288   */\n      0xffffffffffffffff\n        /* \"#utility.yul\":6262:6268   */\n      dup2\n        /* \"#utility.yul\":6259:6289   */\n      gt\n        /* \"#utility.yul\":6256:6373   */\n      iszero\n      tag_628\n      jumpi\n        /* \"#utility.yul\":6292:6371   */\n      tag_629\n      tag_623\n      jump\t// in\n    tag_629:\n        /* \"#utility.yul\":6256:6373   */\n    tag_628:\n        /* \"#utility.yul\":6397:6460   */\n      tag_630\n        /* \"#utility.yul\":6452:6459   */\n      dup8\n        /* \"#utility.yul\":6443:6449   */\n      dup3\n        /* \"#utility.yul\":6432:6441   */\n      dup9\n        /* \"#utility.yul\":6428:6450   */\n      add\n        /* \"#utility.yul\":6397:6460   */\n      tag_568\n      jump\t// in\n    tag_630:\n        /* \"#utility.yul\":6387:6460   */\n      swap3\n      pop\n        /* \"#utility.yul\":6182:6470   */\n      pop\n        /* \"#utility.yul\":6509:6511   */\n      0x60\n        /* \"#utility.yul\":6535:6585   */\n      tag_631\n        /* \"#utility.yul\":6577:6584   */\n      dup8\n        /* \"#utility.yul\":6568:6574   */\n      dup3\n        /* \"#utility.yul\":6557:6566   */\n      dup9\n        /* \"#utility.yul\":6553:6575   */\n      add\n        /* \"#utility.yul\":6535:6585   */\n      tag_560\n      jump\t// in\n    tag_631:\n        /* \"#utility.yul\":6525:6585   */\n      swap2\n      pop\n        /* \"#utility.yul\":6480:6595   */\n      pop\n        /* \"#utility.yul\":5303:6602   */\n      swap3\n      swap6\n      swap2\n      swap5\n      pop\n      swap3\n      pop\n      jump\t// out\n        /* \"#utility.yul\":6608:6787   */\n    tag_632:\n        /* \"#utility.yul\":6677:6687   */\n      0x00\n        /* \"#utility.yul\":6698:6744   */\n      tag_634\n        /* \"#utility.yul\":6740:6743   */\n      dup4\n        /* \"#utility.yul\":6732:6738   */\n      dup4\n        /* \"#utility.yul\":6698:6744   */\n      tag_635\n      jump\t// in\n    tag_634:\n        /* \"#utility.yul\":6776:6780   */\n      0x20\n        /* \"#utility.yul\":6771:6774   */\n      dup4\n        /* \"#utility.yul\":6767:6781   */\n      add\n        /* \"#utility.yul\":6753:6781   */\n      swap1\n      pop\n        /* \"#utility.yul\":6608:6787   */\n      swap3\n      swap2\n      pop\n      pop\n      jump\t// out\n        /* \"#utility.yul\":6793:6911   */\n    tag_636:\n        /* \"#utility.yul\":6880:6904   */\n      tag_638\n        /* \"#utility.yul\":6898:6903   */\n      dup2\n        /* \"#utility.yul\":6880:6904   */\n      tag_639\n      jump\t// in\n    tag_638:\n        /* \"#utility.yul\":6875:6878   */\n      dup3\n        /* \"#utility.yul\":6868:6905   */\n      mstore\n        /* \"#utility.yul\":6793:6911   */\n      pop\n      pop\n      jump\t// out\n        /* \"#utility.yul\":6947:7679   */\n    tag_640:\n        /* \"#utility.yul\":7066:7069   */\n      0x00\n        /* \"#utility.yul\":7095:7149   */\n      tag_642\n        /* \"#utility.yul\":7143:7148   */\n      dup3\n        /* \"#utility.yul\":7095:7149   */\n      tag_643\n      jump\t// in\n    tag_642:\n        /* \"#utility.yul\":7165:7251   */\n      tag_644\n        /* \"#utility.yul\":7244:7250   */\n      dup2\n        /* \"#utility.yul\":7239:7242   */\n      dup6\n        /* \"#utility.yul\":7165:7251   */\n      tag_645\n      jump\t// in\n    tag_644:\n        /* \"#utility.yul\":7158:7251   */\n      swap4\n      pop\n        /* \"#utility.yul\":7275:7331   */\n      tag_646\n        /* \"#utility.yul\":7325:7330   */\n      dup4\n        /* \"#utility.yul\":7275:7331   */\n      tag_647\n      jump\t// in\n    tag_646:\n        /* \"#utility.yul\":7354:7361   */\n      dup1\n        /* \"#utility.yul\":7385:7386   */\n      0x00\n        /* \"#utility.yul\":7370:7654   */\n    tag_648:\n        /* \"#utility.yul\":7395:7401   */\n      dup4\n        /* \"#utility.yul\":7392:7393   */\n      dup2\n        /* \"#utility.yul\":7389:7402   */\n      lt\n        /* \"#utility.yul\":7370:7654   */\n      iszero\n      tag_650\n      jumpi\n        /* \"#utility.yul\":7471:7477   */\n      dup2\n        /* \"#utility.yul\":7465:7478   */\n      mload\n        /* \"#utility.yul\":7498:7561   */\n      tag_651\n        /* \"#utility.yul\":7557:7560   */\n      dup9\n        /* \"#utility.yul\":7542:7555   */\n      dup3\n        /* \"#utility.yul\":7498:7561   */\n      tag_632\n      jump\t// in\n    tag_651:\n        /* \"#utility.yul\":7491:7561   */\n      swap8\n      pop\n        /* \"#utility.yul\":7584:7644   */\n      tag_652\n        /* \"#utility.yul\":7637:7643   */\n      dup4\n        /* \"#utility.yul\":7584:7644   */\n      tag_653\n      jump\t// in\n    tag_652:\n        /* \"#utility.yul\":7574:7644   */\n      swap3\n      pop\n        /* \"#utility.yul\":7430:7654   */\n      pop\n        /* \"#utility.yul\":7417:7418   */\n      0x01\n        /* \"#utility.yul\":7414:7415   */\n      dup2\n        /* \"#utility.yul\":7410:7419   */\n      add\n        /* \"#utility.yul\":7405:7419   */\n      swap1\n      pop\n        /* \"#utility.yul\":7370:7654   */\n      jump(tag_648)\n    tag_650:\n        /* \"#utility.yul\":7374:7388   */\n      pop\n        /* \"#utility.yul\":7670:7673   */\n      dup6\n        /* \"#utility.yul\":7663:7673   */\n      swap4\n      pop\n        /* \"#utility.yul\":7071:7679   */\n      pop\n      pop\n      pop\n        /* \"#utility.yul\":6947:7679   */\n      swap3\n      swap2\n      pop\n      pop\n      jump\t// out\n        /* \"#utility.yul\":7685:7794   */\n    tag_654:\n        /* \"#utility.yul\":7766:7787   */\n      tag_656\n        /* \"#utility.yul\":7781:7786   */\n      dup2\n        /* \"#utility.yul\":7766:7787   */\n      tag_657\n      jump\t// in\n    tag_656:\n        /* \"#utility.yul\":7761:7764   */\n      dup3\n        /* \"#utility.yul\":7754:7788   */\n      mstore\n        /* \"#utility.yul\":7685:7794   */\n      pop\n      pop\n      jump\t// out\n        /* \"#utility.yul\":7800:7908   */\n    tag_635:\n        /* \"#utility.yul\":7877:7901   */\n      tag_659\n        /* \"#utility.yul\":7895:7900   */\n      dup2\n        /* \"#utility.yul\":7877:7901   */\n      tag_660\n      jump\t// in\n    tag_659:\n        /* \"#utility.yul\":7872:7875   */\n      dup3\n        /* \"#utility.yul\":7865:7902   */\n      mstore\n        /* \"#utility.yul\":7800:7908   */\n      pop\n      pop\n      jump\t// out\n        /* \"#utility.yul\":7914:8032   */\n    tag_661:\n        /* \"#utility.yul\":8001:8025   */\n      tag_663\n        /* \"#utility.yul\":8019:8024   */\n      dup2\n        /* \"#utility.yul\":8001:8025   */\n      tag_660\n      jump\t// in\n    tag_663:\n        /* \"#utility.yul\":7996:7999   */\n      dup3\n        /* \"#utility.yul\":7989:8026   */\n      mstore\n        /* \"#utility.yul\":7914:8032   */\n      pop\n      pop\n      jump\t// out\n        /* \"#utility.yul\":8038:8195   */\n    tag_664:\n        /* \"#utility.yul\":8143:8188   */\n      tag_666\n        /* \"#utility.yul\":8163:8187   */\n      tag_667\n        /* \"#utility.yul\":8181:8186   */\n      dup3\n        /* \"#utility.yul\":8163:8187   */\n      tag_660\n      jump\t// in\n    tag_667:\n        /* \"#utility.yul\":8143:8188   */\n      tag_668\n      jump\t// in\n    tag_666:\n        /* \"#utility.yul\":8138:8141   */\n      dup3\n        /* \"#utility.yul\":8131:8189   */\n      mstore\n        /* \"#utility.yul\":8038:8195   */\n      pop\n      pop\n      jump\t// out\n        /* \"#utility.yul\":8201:8565   */\n    tag_669:\n        /* \"#utility.yul\":8289:8292   */\n      0x00\n        /* \"#utility.yul\":8317:8356   */\n      tag_671\n        /* \"#utility.yul\":8350:8355   */\n      dup3\n        /* \"#utility.yul\":8317:8356   */\n      tag_672\n      jump\t// in\n    tag_671:\n        /* \"#utility.yul\":8372:8443   */\n      tag_673\n        /* \"#utility.yul\":8436:8442   */\n      dup2\n        /* \"#utility.yul\":8431:8434   */\n      dup6\n        /* \"#utility.yul\":8372:8443   */\n      tag_674\n      jump\t// in\n    tag_673:\n        /* \"#utility.yul\":8365:8443   */\n      swap4\n      pop\n        /* \"#utility.yul\":8452:8504   */\n      tag_675\n        /* \"#utility.yul\":8497:8503   */\n      dup2\n        /* \"#utility.yul\":8492:8495   */\n      dup6\n        /* \"#utility.yul\":8485:8489   */\n      0x20\n        /* \"#utility.yul\":8478:8483   */\n      dup7\n        /* \"#utility.yul\":8474:8490   */\n      add\n        /* \"#utility.yul\":8452:8504   */\n      tag_676\n      jump\t// in\n    tag_675:\n        /* \"#utility.yul\":8529:8558   */\n      tag_677\n        /* \"#utility.yul\":8551:8557   */\n      dup2\n        /* \"#utility.yul\":8529:8558   */\n      tag_678\n      jump\t// in\n    tag_677:\n        /* \"#utility.yul\":8524:8527   */\n      dup5\n        /* \"#utility.yul\":8520:8559   */\n      add\n        /* \"#utility.yul\":8513:8559   */\n      swap2\n      pop\n        /* \"#utility.yul\":8293:8565   */\n      pop\n        /* \"#utility.yul\":8201:8565   */\n      swap3\n      swap2\n      pop\n      pop\n      jump\t// out\n        /* \"#utility.yul\":8571:8948   */\n    tag_679:\n        /* \"#utility.yul\":8677:8680   */\n      0x00\n        /* \"#utility.yul\":8705:8744   */\n      tag_681\n        /* \"#utility.yul\":8738:8743   */\n      dup3\n        /* \"#utility.yul\":8705:8744   */\n      tag_672\n      jump\t// in\n    tag_681:\n        /* \"#utility.yul\":8760:8849   */\n      tag_682\n        /* \"#utility.yul\":8842:8848   */\n      dup2\n        /* \"#utility.yul\":8837:8840   */\n      dup6\n        /* \"#utility.yul\":8760:8849   */\n      tag_683\n      jump\t// in\n    tag_682:\n        /* \"#utility.yul\":8753:8849   */\n      swap4\n      pop\n        /* \"#utility.yul\":8858:8910   */\n      tag_684\n        /* \"#utility.yul\":8903:8909   */\n      dup2\n        /* \"#utility.yul\":8898:8901   */\n      dup6\n        /* \"#utility.yul\":8891:8895   */\n      0x20\n        /* \"#utility.yul\":8884:8889   */\n      dup7\n        /* \"#utility.yul\":8880:8896   */\n      add\n        /* \"#utility.yul\":8858:8910   */\n      tag_676\n      jump\t// in\n    tag_684:\n        /* \"#utility.yul\":8935:8941   */\n      dup1\n        /* \"#utility.yul\":8930:8933   */\n      dup5\n        /* \"#utility.yul\":8926:8942   */\n      add\n        /* \"#utility.yul\":8919:8942   */\n      swap2\n      pop\n        /* \"#utility.yul\":8681:8948   */\n      pop\n        /* \"#utility.yul\":8571:8948   */\n      swap3\n      swap2\n      pop\n      pop\n      jump\t// out\n        /* \"#utility.yul\":8954:9320   */\n    tag_685:\n        /* \"#utility.yul\":9096:9099   */\n      0x00\n        /* \"#utility.yul\":9117:9184   */\n      tag_687\n        /* \"#utility.yul\":9181:9183   */\n      0x19\n        /* \"#utility.yul\":9176:9179   */\n      dup4\n        /* \"#utility.yul\":9117:9184   */\n      tag_674\n      jump\t// in\n    tag_687:\n        /* \"#utility.yul\":9110:9184   */\n      swap2\n      pop\n        /* \"#utility.yul\":9193:9286   */\n      tag_688\n        /* \"#utility.yul\":9282:9285   */\n      dup3\n        /* \"#utility.yul\":9193:9286   */\n      tag_689\n      jump\t// in\n    tag_688:\n        /* \"#utility.yul\":9311:9313   */\n      0x20\n        /* \"#utility.yul\":9306:9309   */\n      dup3\n        /* \"#utility.yul\":9302:9314   */\n      add\n        /* \"#utility.yul\":9295:9314   */\n      swap1\n      pop\n        /* \"#utility.yul\":8954:9320   */\n      swap2\n      swap1\n      pop\n      jump\t// out\n        /* \"#utility.yul\":9326:9691   */\n    tag_690:\n        /* \"#utility.yul\":9468:9471   */\n      0x00\n        /* \"#utility.yul\":9489:9555   */\n      tag_692\n        /* \"#utility.yul\":9553:9554   */\n      0x09\n        /* \"#utility.yul\":9548:9551   */\n      dup4\n        /* \"#utility.yul\":9489:9555   */\n      tag_674\n      jump\t// in\n    tag_692:\n        /* \"#utility.yul\":9482:9555   */\n      swap2\n      pop\n        /* \"#utility.yul\":9564:9657   */\n      tag_693\n        /* \"#utility.yul\":9653:9656   */\n      dup3\n        /* \"#utility.yul\":9564:9657   */\n      tag_694\n      jump\t// in\n    tag_693:\n        /* \"#utility.yul\":9682:9684   */\n      0x20\n        /* \"#utility.yul\":9677:9680   */\n      dup3\n        /* \"#utility.yul\":9673:9685   */\n      add\n        /* \"#utility.yul\":9666:9685   */\n      swap1\n      pop\n        /* \"#utility.yul\":9326:9691   */\n      swap2\n      swap1\n      pop\n      jump\t// out\n        /* \"#utility.yul\":9697:10063   */\n    tag_695:\n        /* \"#utility.yul\":9839:9842   */\n      0x00\n        /* \"#utility.yul\":9860:9927   */\n      tag_697\n        /* \"#utility.yul\":9924:9926   */\n      0x0e\n        /* \"#utility.yul\":9919:9922   */\n      dup4\n        /* \"#utility.yul\":9860:9927   */\n      tag_674\n      jump\t// in\n    tag_697:\n        /* \"#utility.yul\":9853:9927   */\n      swap2\n      pop\n        /* \"#utility.yul\":9936:10029   */\n      tag_698\n        /* \"#utility.yul\":10025:10028   */\n      dup3\n        /* \"#utility.yul\":9936:10029   */\n      tag_699\n      jump\t// in\n    tag_698:\n        /* \"#utility.yul\":10054:10056   */\n      0x20\n        /* \"#utility.yul\":10049:10052   */\n      dup3\n        /* \"#utility.yul\":10045:10057   */\n      add\n        /* \"#utility.yul\":10038:10057   */\n      swap1\n      pop\n        /* \"#utility.yul\":9697:10063   */\n      swap2\n      swap1\n      pop\n      jump\t// out\n        /* \"#utility.yul\":10069:10435   */\n    tag_700:\n        /* \"#utility.yul\":10211:10214   */\n      0x00\n        /* \"#utility.yul\":10232:10299   */\n      tag_702\n        /* \"#utility.yul\":10296:10298   */\n      0x17\n        /* \"#utility.yul\":10291:10294   */\n      dup4\n        /* \"#utility.yul\":10232:10299   */\n      tag_674\n      jump\t// in\n    tag_702:\n        /* \"#utility.yul\":10225:10299   */\n      swap2\n      pop\n        /* \"#utility.yul\":10308:10401   */\n      tag_703\n        /* \"#utility.yul\":10397:10400   */\n      dup3\n        /* \"#utility.yul\":10308:10401   */\n      tag_704\n      jump\t// in\n    tag_703:\n        /* \"#utility.yul\":10426:10428   */\n      0x20\n        /* \"#utility.yul\":10421:10424   */\n      dup3\n        /* \"#utility.yul\":10417:10429   */\n      add\n        /* \"#utility.yul\":10410:10429   */\n      swap1\n      pop\n        /* \"#utility.yul\":10069:10435   */\n      swap2\n      swap1\n      pop\n      jump\t// out\n        /* \"#utility.yul\":10441:10807   */\n    tag_705:\n        /* \"#utility.yul\":10583:10586   */\n      0x00\n        /* \"#utility.yul\":10604:10671   */\n      tag_707\n        /* \"#utility.yul\":10668:10670   */\n      0x0a\n        /* \"#utility.yul\":10663:10666   */\n      dup4\n        /* \"#utility.yul\":10604:10671   */\n      tag_674\n      jump\t// in\n    tag_707:\n        /* \"#utility.yul\":10597:10671   */\n      swap2\n      pop\n        /* \"#utility.yul\":10680:10773   */\n      tag_708\n        /* \"#utility.yul\":10769:10772   */\n      dup3\n        /* \"#utility.yul\":10680:10773   */\n      tag_709\n      jump\t// in\n    tag_708:\n        /* \"#utility.yul\":10798:10800   */\n      0x20\n        /* \"#utility.yul\":10793:10796   */\n      dup3\n        /* \"#utility.yul\":10789:10801   */\n      add\n        /* \"#utility.yul\":10782:10801   */\n      swap1\n      pop\n        /* \"#utility.yul\":10441:10807   */\n      swap2\n      swap1\n      pop\n      jump\t// out\n        /* \"#utility.yul\":10813:11179   */\n    tag_710:\n        /* \"#utility.yul\":10955:10958   */\n      0x00\n        /* \"#utility.yul\":10976:11043   */\n      tag_712\n        /* \"#utility.yul\":11040:11042   */\n      0x15\n        /* \"#utility.yul\":11035:11038   */\n      dup4\n        /* \"#utility.yul\":10976:11043   */\n      tag_674\n      jump\t// in\n    tag_712:\n        /* \"#utility.yul\":10969:11043   */\n      swap2\n      pop\n        /* \"#utility.yul\":11052:11145   */\n      tag_713\n        /* \"#utility.yul\":11141:11144   */\n      dup3\n        /* \"#utility.yul\":11052:11145   */\n      tag_714\n      jump\t// in\n    tag_713:\n        /* \"#utility.yul\":11170:11172   */\n      0x20\n        /* \"#utility.yul\":11165:11168   */\n      dup3\n        /* \"#utility.yul\":11161:11173   */\n      add\n        /* \"#utility.yul\":11154:11173   */\n      swap1\n      pop\n        /* \"#utility.yul\":10813:11179   */\n      swap2\n      swap1\n      pop\n      jump\t// out\n        /* \"#utility.yul\":11185:11551   */\n    tag_715:\n        /* \"#utility.yul\":11327:11330   */\n      0x00\n        /* \"#utility.yul\":11348:11415   */\n      tag_717\n        /* \"#utility.yul\":11412:11414   */\n      0x15\n        /* \"#utility.yul\":11407:11410   */\n      dup4\n        /* \"#utility.yul\":11348:11415   */\n      tag_674\n      jump\t// in\n    tag_717:\n        /* \"#utility.yul\":11341:11415   */\n      swap2\n      pop\n        /* \"#utility.yul\":11424:11517   */\n      tag_718\n        /* \"#utility.yul\":11513:11516   */\n      dup3\n        /* \"#utility.yul\":11424:11517   */\n      tag_719\n      jump\t// in\n    tag_718:\n        /* \"#utility.yul\":11542:11544   */\n      0x20\n        /* \"#utility.yul\":11537:11540   */\n      dup3\n        /* \"#utility.yul\":11533:11545   */\n      add\n        /* \"#utility.yul\":11526:11545   */\n      swap1\n      pop\n        /* \"#utility.yul\":11185:11551   */\n      swap2\n      swap1\n      pop\n      jump\t// out\n        /* \"#utility.yul\":11557:11923   */\n    tag_720:\n        /* \"#utility.yul\":11699:11702   */\n      0x00\n        /* \"#utility.yul\":11720:11787   */\n      tag_722\n        /* \"#utility.yul\":11784:11786   */\n      0x10\n        /* \"#utility.yul\":11779:11782   */\n      dup4\n        /* \"#utility.yul\":11720:11787   */\n      tag_674\n      jump\t// in\n    tag_722:\n        /* \"#utility.yul\":11713:11787   */\n      swap2\n      pop\n        /* \"#utility.yul\":11796:11889   */\n      tag_723\n        /* \"#utility.yul\":11885:11888   */\n      dup3\n        /* \"#utility.yul\":11796:11889   */\n      tag_724\n      jump\t// in\n    tag_723:\n        /* \"#utility.yul\":11914:11916   */\n      0x20\n        /* \"#utility.yul\":11909:11912   */\n      dup3\n        /* \"#utility.yul\":11905:11917   */\n      add\n        /* \"#utility.yul\":11898:11917   */\n      swap1\n      pop\n        /* \"#utility.yul\":11557:11923   */\n      swap2\n      swap1\n      pop\n      jump\t// out\n        /* \"#utility.yul\":11929:12295   */\n    tag_725:\n        /* \"#utility.yul\":12071:12074   */\n      0x00\n        /* \"#utility.yul\":12092:12159   */\n      tag_727\n        /* \"#utility.yul\":12156:12158   */\n      0x11\n        /* \"#utility.yul\":12151:12154   */\n      dup4\n        /* \"#utility.yul\":12092:12159   */\n      tag_674\n      jump\t// in\n    tag_727:\n        /* \"#utility.yul\":12085:12159   */\n      swap2\n      pop\n        /* \"#utility.yul\":12168:12261   */\n      tag_728\n        /* \"#utility.yul\":12257:12260   */\n      dup3\n        /* \"#utility.yul\":12168:12261   */\n      tag_729\n      jump\t// in\n    tag_728:\n        /* \"#utility.yul\":12286:12288   */\n      0x20\n        /* \"#utility.yul\":12281:12284   */\n      dup3\n        /* \"#utility.yul\":12277:12289   */\n      add\n        /* \"#utility.yul\":12270:12289   */\n      swap1\n      pop\n        /* \"#utility.yul\":11929:12295   */\n      swap2\n      swap1\n      pop\n      jump\t// out\n        /* \"#utility.yul\":12365:13407   */\n    tag_730:\n        /* \"#utility.yul\":12520:12524   */\n      0xa0\n        /* \"#utility.yul\":12515:12518   */\n      dup3\n        /* \"#utility.yul\":12511:12525   */\n      add\n        /* \"#utility.yul\":12608:12612   */\n      0x00\n        /* \"#utility.yul\":12601:12606   */\n      dup3\n        /* \"#utility.yul\":12597:12613   */\n      add\n        /* \"#utility.yul\":12591:12614   */\n      mload\n        /* \"#utility.yul\":12627:12690   */\n      tag_732\n        /* \"#utility.yul\":12684:12688   */\n      0x00\n        /* \"#utility.yul\":12679:12682   */\n      dup6\n        /* \"#utility.yul\":12675:12689   */\n      add\n        /* \"#utility.yul\":12661:12673   */\n      dup3\n        /* \"#utility.yul\":12627:12690   */\n      tag_733\n      jump\t// in\n    tag_732:\n        /* \"#utility.yul\":12535:12700   */\n      pop\n        /* \"#utility.yul\":12783:12787   */\n      0x20\n        /* \"#utility.yul\":12776:12781   */\n      dup3\n        /* \"#utility.yul\":12772:12788   */\n      add\n        /* \"#utility.yul\":12766:12789   */\n      mload\n        /* \"#utility.yul\":12802:12865   */\n      tag_734\n        /* \"#utility.yul\":12859:12863   */\n      0x20\n        /* \"#utility.yul\":12854:12857   */\n      dup6\n        /* \"#utility.yul\":12850:12864   */\n      add\n        /* \"#utility.yul\":12836:12848   */\n      dup3\n        /* \"#utility.yul\":12802:12865   */\n      tag_733\n      jump\t// in\n    tag_734:\n        /* \"#utility.yul\":12710:12875   */\n      pop\n        /* \"#utility.yul\":12958:12962   */\n      0x40\n        /* \"#utility.yul\":12951:12956   */\n      dup3\n        /* \"#utility.yul\":12947:12963   */\n      add\n        /* \"#utility.yul\":12941:12964   */\n      mload\n        /* \"#utility.yul\":12977:13040   */\n      tag_735\n        /* \"#utility.yul\":13034:13038   */\n      0x40\n        /* \"#utility.yul\":13029:13032   */\n      dup6\n        /* \"#utility.yul\":13025:13039   */\n      add\n        /* \"#utility.yul\":13011:13023   */\n      dup3\n        /* \"#utility.yul\":12977:13040   */\n      tag_733\n      jump\t// in\n    tag_735:\n        /* \"#utility.yul\":12885:13050   */\n      pop\n        /* \"#utility.yul\":13133:13137   */\n      0x60\n        /* \"#utility.yul\":13126:13131   */\n      dup3\n        /* \"#utility.yul\":13122:13138   */\n      add\n        /* \"#utility.yul\":13116:13139   */\n      mload\n        /* \"#utility.yul\":13152:13215   */\n      tag_736\n        /* \"#utility.yul\":13209:13213   */\n      0x60\n        /* \"#utility.yul\":13204:13207   */\n      dup6\n        /* \"#utility.yul\":13200:13214   */\n      add\n        /* \"#utility.yul\":13186:13198   */\n      dup3\n        /* \"#utility.yul\":13152:13215   */\n      tag_733\n      jump\t// in\n    tag_736:\n        /* \"#utility.yul\":13060:13225   */\n      pop\n        /* \"#utility.yul\":13308:13312   */\n      0x80\n        /* \"#utility.yul\":13301:13306   */\n      dup3\n        /* \"#utility.yul\":13297:13313   */\n      add\n        /* \"#utility.yul\":13291:13314   */\n      mload\n        /* \"#utility.yul\":13327:13390   */\n      tag_737\n        /* \"#utility.yul\":13384:13388   */\n      0x80\n        /* \"#utility.yul\":13379:13382   */\n      dup6\n        /* \"#utility.yul\":13375:13389   */\n      add\n        /* \"#utility.yul\":13361:13373   */\n      dup3\n        /* \"#utility.yul\":13327:13390   */\n      tag_733\n      jump\t// in\n    tag_737:\n        /* \"#utility.yul\":13235:13400   */\n      pop\n        /* \"#utility.yul\":12489:13407   */\n      pop\n        /* \"#utility.yul\":12365:13407   */\n      pop\n      pop\n      jump\t// out\n        /* \"#utility.yul\":13413:13521   */\n    tag_733:\n        /* \"#utility.yul\":13490:13514   */\n      tag_739\n        /* \"#utility.yul\":13508:13513   */\n      dup2\n        /* \"#utility.yul\":13490:13514   */\n      tag_740\n      jump\t// in\n    tag_739:\n        /* \"#utility.yul\":13485:13488   */\n      dup3\n        /* \"#utility.yul\":13478:13515   */\n      mstore\n        /* \"#utility.yul\":13413:13521   */\n      pop\n      pop\n      jump\t// out\n        /* \"#utility.yul\":13527:13645   */\n    tag_741:\n        /* \"#utility.yul\":13614:13638   */\n      tag_743\n        /* \"#utility.yul\":13632:13637   */\n      dup2\n        /* \"#utility.yul\":13614:13638   */\n      tag_740\n      jump\t// in\n    tag_743:\n        /* \"#utility.yul\":13609:13612   */\n      dup3\n        /* \"#utility.yul\":13602:13639   */\n      mstore\n        /* \"#utility.yul\":13527:13645   */\n      pop\n      pop\n      jump\t// out\n        /* \"#utility.yul\":13651:13808   */\n    tag_744:\n        /* \"#utility.yul\":13756:13801   */\n      tag_746\n        /* \"#utility.yul\":13776:13800   */\n      tag_747\n        /* \"#utility.yul\":13794:13799   */\n      dup3\n        /* \"#utility.yul\":13776:13800   */\n      tag_740\n      jump\t// in\n    tag_747:\n        /* \"#utility.yul\":13756:13801   */\n      tag_748\n      jump\t// in\n    tag_746:\n        /* \"#utility.yul\":13751:13754   */\n      dup3\n        /* \"#utility.yul\":13744:13802   */\n      mstore\n        /* \"#utility.yul\":13651:13808   */\n      pop\n      pop\n      jump\t// out\n        /* \"#utility.yul\":13814:14070   */\n    tag_498:\n        /* \"#utility.yul\":13926:13929   */\n      0x00\n        /* \"#utility.yul\":13941:14016   */\n      tag_750\n        /* \"#utility.yul\":14012:14015   */\n      dup3\n        /* \"#utility.yul\":14003:14009   */\n      dup5\n        /* \"#utility.yul\":13941:14016   */\n      tag_664\n      jump\t// in\n    tag_750:\n        /* \"#utility.yul\":14041:14043   */\n      0x20\n        /* \"#utility.yul\":14036:14039   */\n      dup3\n        /* \"#utility.yul\":14032:14044   */\n      add\n        /* \"#utility.yul\":14025:14044   */\n      swap2\n      pop\n        /* \"#utility.yul\":14061:14064   */\n      dup2\n        /* \"#utility.yul\":14054:14064   */\n      swap1\n      pop\n        /* \"#utility.yul\":13814:14070   */\n      swap3\n      swap2\n      pop\n      pop\n      jump\t// out\n        /* \"#utility.yul\":14076:14351   */\n    tag_226:\n        /* \"#utility.yul\":14208:14211   */\n      0x00\n        /* \"#utility.yul\":14230:14325   */\n      tag_752\n        /* \"#utility.yul\":14321:14324   */\n      dup3\n        /* \"#utility.yul\":14312:14318   */\n      dup5\n        /* \"#utility.yul\":14230:14325   */\n      tag_679\n      jump\t// in\n    tag_752:\n        /* \"#utility.yul\":14223:14325   */\n      swap2\n      pop\n        /* \"#utility.yul\":14342:14345   */\n      dup2\n        /* \"#utility.yul\":14335:14345   */\n      swap1\n      pop\n        /* \"#utility.yul\":14076:14351   */\n      swap3\n      swap2\n      pop\n      pop\n      jump\t// out\n        /* \"#utility.yul\":14357:14613   */\n    tag_469:\n        /* \"#utility.yul\":14469:14472   */\n      0x00\n        /* \"#utility.yul\":14484:14559   */\n      tag_754\n        /* \"#utility.yul\":14555:14558   */\n      dup3\n        /* \"#utility.yul\":14546:14552   */\n      dup5\n        /* \"#utility.yul\":14484:14559   */\n      tag_744\n      jump\t// in\n    tag_754:\n        /* \"#utility.yul\":14584:14586   */\n      0x20\n        /* \"#utility.yul\":14579:14582   */\n      dup3\n        /* \"#utility.yul\":14575:14587   */\n      add\n        /* \"#utility.yul\":14568:14587   */\n      swap2\n      pop\n        /* \"#utility.yul\":14604:14607   */\n      dup2\n        /* \"#utility.yul\":14597:14607   */\n      swap1\n      pop\n        /* \"#utility.yul\":14357:14613   */\n      swap3\n      swap2\n      pop\n      pop\n      jump\t// out\n        /* \"#utility.yul\":14619:14951   */\n    tag_29:\n        /* \"#utility.yul\":14740:14744   */\n      0x00\n        /* \"#utility.yul\":14778:14780   */\n      0x40\n        /* \"#utility.yul\":14767:14776   */\n      dup3\n        /* \"#utility.yul\":14763:14781   */\n      add\n        /* \"#utility.yul\":14755:14781   */\n      swap1\n      pop\n        /* \"#utility.yul\":14791:14862   */\n      tag_756\n        /* \"#utility.yul\":14859:14860   */\n      0x00\n        /* \"#utility.yul\":14848:14857   */\n      dup4\n        /* \"#utility.yul\":14844:14861   */\n      add\n        /* \"#utility.yul\":14835:14841   */\n      dup6\n        /* \"#utility.yul\":14791:14862   */\n      tag_636\n      jump\t// in\n    tag_756:\n        /* \"#utility.yul\":14872:14944   */\n      tag_757\n        /* \"#utility.yul\":14940:14942   */\n      0x20\n        /* \"#utility.yul\":14929:14938   */\n      dup4\n        /* \"#utility.yul\":14925:14943   */\n      add\n        /* \"#utility.yul\":14916:14922   */\n      dup5\n        /* \"#utility.yul\":14872:14944   */\n      tag_741\n      jump\t// in\n    tag_757:\n        /* \"#utility.yul\":14619:14951   */\n      swap4\n      swap3\n      pop\n      pop\n      pop\n      jump\t// out\n        /* \"#utility.yul\":14957:15330   */\n    tag_99:\n        /* \"#utility.yul\":15100:15104   */\n      0x00\n        /* \"#utility.yul\":15138:15140   */\n      0x20\n        /* \"#utility.yul\":15127:15136   */\n      dup3\n        /* \"#utility.yul\":15123:15141   */\n      add\n        /* \"#utility.yul\":15115:15141   */\n      swap1\n      pop\n        /* \"#utility.yul\":15187:15196   */\n      dup2\n        /* \"#utility.yul\":15181:15185   */\n      dup2\n        /* \"#utility.yul\":15177:15197   */\n      sub\n        /* \"#utility.yul\":15173:15174   */\n      0x00\n        /* \"#utility.yul\":15162:15171   */\n      dup4\n        /* \"#utility.yul\":15158:15175   */\n      add\n        /* \"#utility.yul\":15151:15198   */\n      mstore\n        /* \"#utility.yul\":15215:15323   */\n      tag_759\n        /* \"#utility.yul\":15318:15322   */\n      dup2\n        /* \"#utility.yul\":15309:15315   */\n      dup5\n        /* \"#utility.yul\":15215:15323   */\n      tag_640\n      jump\t// in\n    tag_759:\n        /* \"#utility.yul\":15207:15323   */\n      swap1\n      pop\n        /* \"#utility.yul\":14957:15330   */\n      swap3\n      swap2\n      pop\n      pop\n      jump\t// out\n        /* \"#utility.yul\":15336:15546   */\n    tag_41:\n        /* \"#utility.yul\":15423:15427   */\n      0x00\n        /* \"#utility.yul\":15461:15463   */\n      0x20\n        /* \"#utility.yul\":15450:15459   */\n      dup3\n        /* \"#utility.yul\":15446:15464   */\n      add\n        /* \"#utility.yul\":15438:15464   */\n      swap1\n      pop\n        /* \"#utility.yul\":15474:15539   */\n      tag_761\n        /* \"#utility.yul\":15536:15537   */\n      0x00\n        /* \"#utility.yul\":15525:15534   */\n      dup4\n        /* \"#utility.yul\":15521:15538   */\n      add\n        /* \"#utility.yul\":15512:15518   */\n      dup5\n        /* \"#utility.yul\":15474:15539   */\n      tag_654\n      jump\t// in\n    tag_761:\n        /* \"#utility.yul\":15336:15546   */\n      swap3\n      swap2\n      pop\n      pop\n      jump\t// out\n        /* \"#utility.yul\":15552:15774   */\n    tag_65:\n        /* \"#utility.yul\":15645:15649   */\n      0x00\n        /* \"#utility.yul\":15683:15685   */\n      0x20\n        /* \"#utility.yul\":15672:15681   */\n      dup3\n        /* \"#utility.yul\":15668:15686   */\n      add\n        /* \"#utility.yul\":15660:15686   */\n      swap1\n      pop\n        /* \"#utility.yul\":15696:15767   */\n      tag_763\n        /* \"#utility.yul\":15764:15765   */\n      0x00\n        /* \"#utility.yul\":15753:15762   */\n      dup4\n        /* \"#utility.yul\":15749:15766   */\n      add\n        /* \"#utility.yul\":15740:15746   */\n      dup5\n        /* \"#utility.yul\":15696:15767   */\n      tag_661\n      jump\t// in\n    tag_763:\n        /* \"#utility.yul\":15552:15774   */\n      swap3\n      swap2\n      pop\n      pop\n      jump\t// out\n        /* \"#utility.yul\":15780:16521   */\n    tag_105:\n        /* \"#utility.yul\":16027:16031   */\n      0x00\n        /* \"#utility.yul\":16065:16068   */\n      0xe0\n        /* \"#utility.yul\":16054:16063   */\n      dup3\n        /* \"#utility.yul\":16050:16069   */\n      add\n        /* \"#utility.yul\":16042:16069   */\n      swap1\n      pop\n        /* \"#utility.yul\":16115:16124   */\n      dup2\n        /* \"#utility.yul\":16109:16113   */\n      dup2\n        /* \"#utility.yul\":16105:16125   */\n      sub\n        /* \"#utility.yul\":16101:16102   */\n      0x00\n        /* \"#utility.yul\":16090:16099   */\n      dup4\n        /* \"#utility.yul\":16086:16103   */\n      add\n        /* \"#utility.yul\":16079:16126   */\n      mstore\n        /* \"#utility.yul\":16143:16221   */\n      tag_765\n        /* \"#utility.yul\":16216:16220   */\n      dup2\n        /* \"#utility.yul\":16207:16213   */\n      dup7\n        /* \"#utility.yul\":16143:16221   */\n      tag_669\n      jump\t// in\n    tag_765:\n        /* \"#utility.yul\":16135:16221   */\n      swap1\n      pop\n        /* \"#utility.yul\":16268:16277   */\n      dup2\n        /* \"#utility.yul\":16262:16266   */\n      dup2\n        /* \"#utility.yul\":16258:16278   */\n      sub\n        /* \"#utility.yul\":16253:16255   */\n      0x20\n        /* \"#utility.yul\":16242:16251   */\n      dup4\n        /* \"#utility.yul\":16238:16256   */\n      add\n        /* \"#utility.yul\":16231:16279   */\n      mstore\n        /* \"#utility.yul\":16296:16374   */\n      tag_766\n        /* \"#utility.yul\":16369:16373   */\n      dup2\n        /* \"#utility.yul\":16360:16366   */\n      dup6\n        /* \"#utility.yul\":16296:16374   */\n      tag_669\n      jump\t// in\n    tag_766:\n        /* \"#utility.yul\":16288:16374   */\n      swap1\n      pop\n        /* \"#utility.yul\":16384:16514   */\n      tag_767\n        /* \"#utility.yul\":16510:16512   */\n      0x40\n        /* \"#utility.yul\":16499:16508   */\n      dup4\n        /* \"#utility.yul\":16495:16513   */\n      add\n        /* \"#utility.yul\":16486:16492   */\n      dup5\n        /* \"#utility.yul\":16384:16514   */\n      tag_730\n      jump\t// in\n    tag_767:\n        /* \"#utility.yul\":15780:16521   */\n      swap5\n      swap4\n      pop\n      pop\n      pop\n      pop\n      jump\t// out\n        /* \"#utility.yul\":16527:16946   */\n    tag_113:\n        /* \"#utility.yul\":16693:16697   */\n      0x00\n        /* \"#utility.yul\":16731:16733   */\n      0x20\n        /* \"#utility.yul\":16720:16729   */\n      dup3\n        /* \"#utility.yul\":16716:16734   */\n      add\n        /* \"#utility.yul\":16708:16734   */\n      swap1\n      pop\n        /* \"#utility.yul\":16780:16789   */\n      dup2\n        /* \"#utility.yul\":16774:16778   */\n      dup2\n        /* \"#utility.yul\":16770:16790   */\n      sub\n        /* \"#utility.yul\":16766:16767   */\n      0x00\n        /* \"#utility.yul\":16755:16764   */\n      dup4\n        /* \"#utility.yul\":16751:16768   */\n      add\n        /* \"#utility.yul\":16744:16791   */\n      mstore\n        /* \"#utility.yul\":16808:16939   */\n      tag_769\n        /* \"#utility.yul\":16934:16938   */\n      dup2\n        /* \"#utility.yul\":16808:16939   */\n      tag_685\n      jump\t// in\n    tag_769:\n        /* \"#utility.yul\":16800:16939   */\n      swap1\n      pop\n        /* \"#utility.yul\":16527:16946   */\n      swap2\n      swap1\n      pop\n      jump\t// out\n        /* \"#utility.yul\":16952:17371   */\n    tag_446:\n        /* \"#utility.yul\":17118:17122   */\n      0x00\n        /* \"#utility.yul\":17156:17158   */\n      0x20\n        /* \"#utility.yul\":17145:17154   */\n      dup3\n        /* \"#utility.yul\":17141:17159   */\n      add\n        /* \"#utility.yul\":17133:17159   */\n      swap1\n      pop\n        /* \"#utility.yul\":17205:17214   */\n      dup2\n        /* \"#utility.yul\":17199:17203   */\n      dup2\n        /* \"#utility.yul\":17195:17215   */\n      sub\n        /* \"#utility.yul\":17191:17192   */\n      0x00\n        /* \"#utility.yul\":17180:17189   */\n      dup4\n        /* \"#utility.yul\":17176:17193   */\n      add\n        /* \"#utility.yul\":17169:17216   */\n      mstore\n        /* \"#utility.yul\":17233:17364   */\n      tag_771\n        /* \"#utility.yul\":17359:17363   */\n      dup2\n        /* \"#utility.yul\":17233:17364   */\n      tag_690\n      jump\t// in\n    tag_771:\n        /* \"#utility.yul\":17225:17364   */\n      swap1\n      pop\n        /* \"#utility.yul\":16952:17371   */\n      swap2\n      swap1\n      pop\n      jump\t// out\n        /* \"#utility.yul\":17377:17796   */\n    tag_123:\n        /* \"#utility.yul\":17543:17547   */\n      0x00\n        /* \"#utility.yul\":17581:17583   */\n      0x20\n        /* \"#utility.yul\":17570:17579   */\n      dup3\n        /* \"#utility.yul\":17566:17584   */\n      add\n        /* \"#utility.yul\":17558:17584   */\n      swap1\n      pop\n        /* \"#utility.yul\":17630:17639   */\n      dup2\n        /* \"#utility.yul\":17624:17628   */\n      dup2\n        /* \"#utility.yul\":17620:17640   */\n      sub\n        /* \"#utility.yul\":17616:17617   */\n      0x00\n        /* \"#utility.yul\":17605:17614   */\n      dup4\n        /* \"#utility.yul\":17601:17618   */\n      add\n        /* \"#utility.yul\":17594:17641   */\n      mstore\n        /* \"#utility.yul\":17658:17789   */\n      tag_773\n        /* \"#utility.yul\":17784:17788   */\n      dup2\n        /* \"#utility.yul\":17658:17789   */\n      tag_695\n      jump\t// in\n    tag_773:\n        /* \"#utility.yul\":17650:17789   */\n      swap1\n      pop\n        /* \"#utility.yul\":17377:17796   */\n      swap2\n      swap1\n      pop\n      jump\t// out\n        /* \"#utility.yul\":17802:18221   */\n    tag_213:\n        /* \"#utility.yul\":17968:17972   */\n      0x00\n        /* \"#utility.yul\":18006:18008   */\n      0x20\n        /* \"#utility.yul\":17995:18004   */\n      dup3\n        /* \"#utility.yul\":17991:18009   */\n      add\n        /* \"#utility.yul\":17983:18009   */\n      swap1\n      pop\n        /* \"#utility.yul\":18055:18064   */\n      dup2\n        /* \"#utility.yul\":18049:18053   */\n      dup2\n        /* \"#utility.yul\":18045:18065   */\n      sub\n        /* \"#utility.yul\":18041:18042   */\n      0x00\n        /* \"#utility.yul\":18030:18039   */\n      dup4\n        /* \"#utility.yul\":18026:18043   */\n      add\n        /* \"#utility.yul\":18019:18066   */\n      mstore\n        /* \"#utility.yul\":18083:18214   */\n      tag_775\n        /* \"#utility.yul\":18209:18213   */\n      dup2\n        /* \"#utility.yul\":18083:18214   */\n      tag_700\n      jump\t// in\n    tag_775:\n        /* \"#utility.yul\":18075:18214   */\n      swap1\n      pop\n        /* \"#utility.yul\":17802:18221   */\n      swap2\n      swap1\n      pop\n      jump\t// out\n        /* \"#utility.yul\":18227:18646   */\n    tag_230:\n        /* \"#utility.yul\":18393:18397   */\n      0x00\n        /* \"#utility.yul\":18431:18433   */\n      0x20\n        /* \"#utility.yul\":18420:18429   */\n      dup3\n        /* \"#utility.yul\":18416:18434   */\n      add\n        /* \"#utility.yul\":18408:18434   */\n      swap1\n      pop\n        /* \"#utility.yul\":18480:18489   */\n      dup2\n        /* \"#utility.yul\":18474:18478   */\n      dup2\n        /* \"#utility.yul\":18470:18490   */\n      sub\n        /* \"#utility.yul\":18466:18467   */\n      0x00\n        /* \"#utility.yul\":18455:18464   */\n      dup4\n        /* \"#utility.yul\":18451:18468   */\n      add\n        /* \"#utility.yul\":18444:18491   */\n      mstore\n        /* \"#utility.yul\":18508:18639   */\n      tag_777\n        /* \"#utility.yul\":18634:18638   */\n      dup2\n        /* \"#utility.yul\":18508:18639   */\n      tag_705\n      jump\t// in\n    tag_777:\n        /* \"#utility.yul\":18500:18639   */\n      swap1\n      pop\n        /* \"#utility.yul\":18227:18646   */\n      swap2\n      swap1\n      pop\n      jump\t// out\n        /* \"#utility.yul\":18652:19071   */\n    tag_151:\n        /* \"#utility.yul\":18818:18822   */\n      0x00\n        /* \"#utility.yul\":18856:18858   */\n      0x20\n        /* \"#utility.yul\":18845:18854   */\n      dup3\n        /* \"#utility.yul\":18841:18859   */\n      add\n        /* \"#utility.yul\":18833:18859   */\n      swap1\n      pop\n        /* \"#utility.yul\":18905:18914   */\n      dup2\n        /* \"#utility.yul\":18899:18903   */\n      dup2\n        /* \"#utility.yul\":18895:18915   */\n      sub\n        /* \"#utility.yul\":18891:18892   */\n      0x00\n        /* \"#utility.yul\":18880:18889   */\n      dup4\n        /* \"#utility.yul\":18876:18893   */\n      add\n        /* \"#utility.yul\":18869:18916   */\n      mstore\n        /* \"#utility.yul\":18933:19064   */\n      tag_779\n        /* \"#utility.yul\":19059:19063   */\n      dup2\n        /* \"#utility.yul\":18933:19064   */\n      tag_710\n      jump\t// in\n    tag_779:\n        /* \"#utility.yul\":18925:19064   */\n      swap1\n      pop\n        /* \"#utility.yul\":18652:19071   */\n      swap2\n      swap1\n      pop\n      jump\t// out\n        /* \"#utility.yul\":19077:19496   */\n    tag_159:\n        /* \"#utility.yul\":19243:19247   */\n      0x00\n        /* \"#utility.yul\":19281:19283   */\n      0x20\n        /* \"#utility.yul\":19270:19279   */\n      dup3\n        /* \"#utility.yul\":19266:19284   */\n      add\n        /* \"#utility.yul\":19258:19284   */\n      swap1\n      pop\n        /* \"#utility.yul\":19330:19339   */\n      dup2\n        /* \"#utility.yul\":19324:19328   */\n      dup2\n        /* \"#utility.yul\":19320:19340   */\n      sub\n        /* \"#utility.yul\":19316:19317   */\n      0x00\n        /* \"#utility.yul\":19305:19314   */\n      dup4\n        /* \"#utility.yul\":19301:19318   */\n      add\n        /* \"#utility.yul\":19294:19341   */\n      mstore\n        /* \"#utility.yul\":19358:19489   */\n      tag_781\n        /* \"#utility.yul\":19484:19488   */\n      dup2\n        /* \"#utility.yul\":19358:19489   */\n      tag_715\n      jump\t// in\n    tag_781:\n        /* \"#utility.yul\":19350:19489   */\n      swap1\n      pop\n        /* \"#utility.yul\":19077:19496   */\n      swap2\n      swap1\n      pop\n      jump\t// out\n        /* \"#utility.yul\":19502:19921   */\n    tag_216:\n        /* \"#utility.yul\":19668:19672   */\n      0x00\n        /* \"#utility.yul\":19706:19708   */\n      0x20\n        /* \"#utility.yul\":19695:19704   */\n      dup3\n        /* \"#utility.yul\":19691:19709   */\n      add\n        /* \"#utility.yul\":19683:19709   */\n      swap1\n      pop\n        /* \"#utility.yul\":19755:19764   */\n      dup2\n        /* \"#utility.yul\":19749:19753   */\n      dup2\n        /* \"#utility.yul\":19745:19765   */\n      sub\n        /* \"#utility.yul\":19741:19742   */\n      0x00\n        /* \"#utility.yul\":19730:19739   */\n      dup4\n        /* \"#utility.yul\":19726:19743   */\n      add\n        /* \"#utility.yul\":19719:19766   */\n      mstore\n        /* \"#utility.yul\":19783:19914   */\n      tag_783\n        /* \"#utility.yul\":19909:19913   */\n      dup2\n        /* \"#utility.yul\":19783:19914   */\n      tag_720\n      jump\t// in\n    tag_783:\n        /* \"#utility.yul\":19775:19914   */\n      swap1\n      pop\n        /* \"#utility.yul\":19502:19921   */\n      swap2\n      swap1\n      pop\n      jump\t// out\n        /* \"#utility.yul\":19927:20346   */\n    tag_339:\n        /* \"#utility.yul\":20093:20097   */\n      0x00\n        /* \"#utility.yul\":20131:20133   */\n      0x20\n        /* \"#utility.yul\":20120:20129   */\n      dup3\n        /* \"#utility.yul\":20116:20134   */\n      add\n        /* \"#utility.yul\":20108:20134   */\n      swap1\n      pop\n        /* \"#utility.yul\":20180:20189   */\n      dup2\n        /* \"#utility.yul\":20174:20178   */\n      dup2\n        /* \"#utility.yul\":20170:20190   */\n      sub\n        /* \"#utility.yul\":20166:20167   */\n      0x00\n        /* \"#utility.yul\":20155:20164   */\n      dup4\n        /* \"#utility.yul\":20151:20168   */\n      add\n        /* \"#utility.yul\":20144:20191   */\n      mstore\n        /* \"#utility.yul\":20208:20339   */\n      tag_785\n        /* \"#utility.yul\":20334:20338   */\n      dup2\n        /* \"#utility.yul\":20208:20339   */\n      tag_725\n      jump\t// in\n    tag_785:\n        /* \"#utility.yul\":20200:20339   */\n      swap1\n      pop\n        /* \"#utility.yul\":19927:20346   */\n      swap2\n      swap1\n      pop\n      jump\t// out\n        /* \"#utility.yul\":20352:20574   */\n    tag_35:\n        /* \"#utility.yul\":20445:20449   */\n      0x00\n        /* \"#utility.yul\":20483:20485   */\n      0x20\n        /* \"#utility.yul\":20472:20481   */\n      dup3\n        /* \"#utility.yul\":20468:20486   */\n      add\n        /* \"#utility.yul\":20460:20486   */\n      swap1\n      pop\n        /* \"#utility.yul\":20496:20567   */\n      tag_787\n        /* \"#utility.yul\":20564:20565   */\n      0x00\n        /* \"#utility.yul\":20553:20562   */\n      dup4\n        /* \"#utility.yul\":20549:20566   */\n      add\n        /* \"#utility.yul\":20540:20546   */\n      dup5\n        /* \"#utility.yul\":20496:20567   */\n      tag_741\n      jump\t// in\n    tag_787:\n        /* \"#utility.yul\":20352:20574   */\n      swap3\n      swap2\n      pop\n      pop\n      jump\t// out\n        /* \"#utility.yul\":20580:20709   */\n    tag_550:\n        /* \"#utility.yul\":20614:20620   */\n      0x00\n        /* \"#utility.yul\":20641:20661   */\n      tag_789\n      tag_790\n      jump\t// in\n    tag_789:\n        /* \"#utility.yul\":20631:20661   */\n      swap1\n      pop\n        /* \"#utility.yul\":20670:20703   */\n      tag_791\n        /* \"#utility.yul\":20698:20702   */\n      dup3\n        /* \"#utility.yul\":20690:20696   */\n      dup3\n        /* \"#utility.yul\":20670:20703   */\n      tag_792\n      jump\t// in\n    tag_791:\n        /* \"#utility.yul\":20580:20709   */\n      swap2\n      swap1\n      pop\n      jump\t// out\n        /* \"#utility.yul\":20715:20790   */\n    tag_790:\n        /* \"#utility.yul\":20748:20754   */\n      0x00\n        /* \"#utility.yul\":20781:20783   */\n      0x40\n        /* \"#utility.yul\":20775:20784   */\n      mload\n        /* \"#utility.yul\":20765:20784   */\n      swap1\n      pop\n        /* \"#utility.yul\":20715:20790   */\n      swap1\n      jump\t// out\n        /* \"#utility.yul\":20796:21104   */\n    tag_549:\n        /* \"#utility.yul\":20858:20862   */\n      0x00\n        /* \"#utility.yul\":20948:20966   */\n      0xffffffffffffffff\n        /* \"#utility.yul\":20940:20946   */\n      dup3\n        /* \"#utility.yul\":20937:20967   */\n      gt\n        /* \"#utility.yul\":20934:20990   */\n      iszero\n      tag_795\n      jumpi\n        /* \"#utility.yul\":20970:20988   */\n      tag_796\n      tag_475\n      jump\t// in\n    tag_796:\n        /* \"#utility.yul\":20934:20990   */\n    tag_795:\n        /* \"#utility.yul\":21008:21037   */\n      tag_797\n        /* \"#utility.yul\":21030:21036   */\n      dup3\n        /* \"#utility.yul\":21008:21037   */\n      tag_678\n      jump\t// in\n    tag_797:\n        /* \"#utility.yul\":21000:21037   */\n      swap1\n      pop\n        /* \"#utility.yul\":21092:21096   */\n      0x20\n        /* \"#utility.yul\":21086:21090   */\n      dup2\n        /* \"#utility.yul\":21082:21097   */\n      add\n        /* \"#utility.yul\":21074:21097   */\n      swap1\n      pop\n        /* \"#utility.yul\":20796:21104   */\n      swap2\n      swap1\n      pop\n      jump\t// out\n        /* \"#utility.yul\":21110:21242   */\n    tag_647:\n        /* \"#utility.yul\":21177:21181   */\n      0x00\n        /* \"#utility.yul\":21200:21203   */\n      dup2\n        /* \"#utility.yul\":21192:21203   */\n      swap1\n      pop\n        /* \"#utility.yul\":21230:21234   */\n      0x20\n        /* \"#utility.yul\":21225:21228   */\n      dup3\n        /* \"#utility.yul\":21221:21235   */\n      add\n        /* \"#utility.yul\":21213:21235   */\n      swap1\n      pop\n        /* \"#utility.yul\":21110:21242   */\n      swap2\n      swap1\n      pop\n      jump\t// out\n        /* \"#utility.yul\":21248:21362   */\n    tag_643:\n        /* \"#utility.yul\":21315:21321   */\n      0x00\n        /* \"#utility.yul\":21349:21354   */\n      dup2\n        /* \"#utility.yul\":21343:21355   */\n      mload\n        /* \"#utility.yul\":21333:21355   */\n      swap1\n      pop\n        /* \"#utility.yul\":21248:21362   */\n      swap2\n      swap1\n      pop\n      jump\t// out\n        /* \"#utility.yul\":21368:21467   */\n    tag_672:\n        /* \"#utility.yul\":21420:21426   */\n      0x00\n        /* \"#utility.yul\":21454:21459   */\n      dup2\n        /* \"#utility.yul\":21448:21460   */\n      mload\n        /* \"#utility.yul\":21438:21460   */\n      swap1\n      pop\n        /* \"#utility.yul\":21368:21467   */\n      swap2\n      swap1\n      pop\n      jump\t// out\n        /* \"#utility.yul\":21473:21586   */\n    tag_653:\n        /* \"#utility.yul\":21543:21547   */\n      0x00\n        /* \"#utility.yul\":21575:21579   */\n      0x20\n        /* \"#utility.yul\":21570:21573   */\n      dup3\n        /* \"#utility.yul\":21566:21580   */\n      add\n        /* \"#utility.yul\":21558:21580   */\n      swap1\n      pop\n        /* \"#utility.yul\":21473:21586   */\n      swap2\n      swap1\n      pop\n      jump\t// out\n        /* \"#utility.yul\":21592:21776   */\n    tag_645:\n        /* \"#utility.yul\":21691:21702   */\n      0x00\n        /* \"#utility.yul\":21725:21731   */\n      dup3\n        /* \"#utility.yul\":21720:21723   */\n      dup3\n        /* \"#utility.yul\":21713:21732   */\n      mstore\n        /* \"#utility.yul\":21765:21769   */\n      0x20\n        /* \"#utility.yul\":21760:21763   */\n      dup3\n        /* \"#utility.yul\":21756:21770   */\n      add\n        /* \"#utility.yul\":21741:21770   */\n      swap1\n      pop\n        /* \"#utility.yul\":21592:21776   */\n      swap3\n      swap2\n      pop\n      pop\n      jump\t// out\n        /* \"#utility.yul\":21782:21951   */\n    tag_674:\n        /* \"#utility.yul\":21866:21877   */\n      0x00\n        /* \"#utility.yul\":21900:21906   */\n      dup3\n        /* \"#utility.yul\":21895:21898   */\n      dup3\n        /* \"#utility.yul\":21888:21907   */\n      mstore\n        /* \"#utility.yul\":21940:21944   */\n      0x20\n        /* \"#utility.yul\":21935:21938   */\n      dup3\n        /* \"#utility.yul\":21931:21945   */\n      add\n        /* \"#utility.yul\":21916:21945   */\n      swap1\n      pop\n        /* \"#utility.yul\":21782:21951   */\n      swap3\n      swap2\n      pop\n      pop\n      jump\t// out\n        /* \"#utility.yul\":21957:22105   */\n    tag_683:\n        /* \"#utility.yul\":22059:22070   */\n      0x00\n        /* \"#utility.yul\":22096:22099   */\n      dup2\n        /* \"#utility.yul\":22081:22099   */\n      swap1\n      pop\n        /* \"#utility.yul\":21957:22105   */\n      swap3\n      swap2\n      pop\n      pop\n      jump\t// out\n        /* \"#utility.yul\":22111:22416   */\n    tag_26:\n        /* \"#utility.yul\":22151:22154   */\n      0x00\n        /* \"#utility.yul\":22170:22190   */\n      tag_806\n        /* \"#utility.yul\":22188:22189   */\n      dup3\n        /* \"#utility.yul\":22170:22190   */\n      tag_740\n      jump\t// in\n    tag_806:\n        /* \"#utility.yul\":22165:22190   */\n      swap2\n      pop\n        /* \"#utility.yul\":22204:22224   */\n      tag_807\n        /* \"#utility.yul\":22222:22223   */\n      dup4\n        /* \"#utility.yul\":22204:22224   */\n      tag_740\n      jump\t// in\n    tag_807:\n        /* \"#utility.yul\":22199:22224   */\n      swap3\n      pop\n        /* \"#utility.yul\":22358:22359   */\n      dup3\n        /* \"#utility.yul\":22290:22356   */\n      0xffffffffffffffffffffffffffffffffffffffffffffffffffffffffffffffff\n        /* \"#utility.yul\":22286:22360   */\n      sub\n        /* \"#utility.yul\":22283:22284   */\n      dup3\n        /* \"#utility.yul\":22280:22361   */\n      gt\n        /* \"#utility.yul\":22277:22384   */\n      iszero\n      tag_808\n      jumpi\n        /* \"#utility.yul\":22364:22382   */\n      tag_809\n      tag_810\n      jump\t// in\n    tag_809:\n        /* \"#utility.yul\":22277:22384   */\n    tag_808:\n        /* \"#utility.yul\":22408:22409   */\n      dup3\n        /* \"#utility.yul\":22405:22406   */\n      dup3\n        /* \"#utility.yul\":22401:22410   */\n      add\n        /* \"#utility.yul\":22394:22410   */\n      swap1\n      pop\n        /* \"#utility.yul\":22111:22416   */\n      swap3\n      swap2\n      pop\n      pop\n      jump\t// out\n        /* \"#utility.yul\":22422:22607   */\n    tag_109:\n        /* \"#utility.yul\":22462:22463   */\n      0x00\n        /* \"#utility.yul\":22479:22499   */\n      tag_812\n        /* \"#utility.yul\":22497:22498   */\n      dup3\n        /* \"#utility.yul\":22479:22499   */\n      tag_740\n      jump\t// in\n    tag_812:\n        /* \"#utility.yul\":22474:22499   */\n      swap2\n      pop\n        /* \"#utility.yul\":22513:22533   */\n      tag_813\n        /* \"#utility.yul\":22531:22532   */\n      dup4\n        /* \"#utility.yul\":22513:22533   */\n      tag_740\n      jump\t// in\n    tag_813:\n        /* \"#utility.yul\":22508:22533   */\n      swap3\n      pop\n        /* \"#utility.yul\":22552:22553   */\n      dup3\n        /* \"#utility.yul\":22542:22577   */\n      tag_814\n      jumpi\n        /* \"#utility.yul\":22557:22575   */\n      tag_815\n      tag_816\n      jump\t// in\n    tag_815:\n        /* \"#utility.yul\":22542:22577   */\n    tag_814:\n        /* \"#utility.yul\":22599:22600   */\n      dup3\n        /* \"#utility.yul\":22596:22597   */\n      dup3\n        /* \"#utility.yul\":22592:22601   */\n      div\n        /* \"#utility.yul\":22587:22601   */\n      swap1\n      pop\n        /* \"#utility.yul\":22422:22607   */\n      swap3\n      swap2\n      pop\n      pop\n      jump\t// out\n        /* \"#utility.yul\":22613:22961   */\n    tag_383:\n        /* \"#utility.yul\":22653:22660   */\n      0x00\n        /* \"#utility.yul\":22676:22696   */\n      tag_818\n        /* \"#utility.yul\":22694:22695   */\n      dup3\n        /* \"#utility.yul\":22676:22696   */\n      tag_740\n      jump\t// in\n    tag_818:\n        /* \"#utility.yul\":22671:22696   */\n      swap2\n      pop\n        /* \"#utility.yul\":22710:22730   */\n      tag_819\n        /* \"#utility.yul\":22728:22729   */\n      dup4\n        /* \"#utility.yul\":22710:22730   */\n      tag_740\n      jump\t// in\n    tag_819:\n        /* \"#utility.yul\":22705:22730   */\n      swap3\n      pop\n        /* \"#utility.yul\":22898:22899   */\n      dup2\n        /* \"#utility.yul\":22830:22896   */\n      0xffffffffffffffffffffffffffffffffffffffffffffffffffffffffffffffff\n        /* \"#utility.yul\":22826:22900   */\n      div\n        /* \"#utility.yul\":22823:22824   */\n      dup4\n        /* \"#utility.yul\":22820:22901   */\n      gt\n        /* \"#utility.yul\":22815:22816   */\n      dup3\n        /* \"#utility.yul\":22808:22817   */\n      iszero\n        /* \"#utility.yul\":22801:22818   */\n      iszero\n        /* \"#utility.yul\":22797:22902   */\n      and\n        /* \"#utility.yul\":22794:22925   */\n      iszero\n      tag_820\n      jumpi\n        /* \"#utility.yul\":22905:22923   */\n      tag_821\n      tag_810\n      jump\t// in\n    tag_821:\n        /* \"#utility.yul\":22794:22925   */\n    tag_820:\n        /* \"#utility.yul\":22953:22954   */\n      dup3\n        /* \"#utility.yul\":22950:22951   */\n      dup3\n        /* \"#utility.yul\":22946:22955   */\n      mul\n        /* \"#utility.yul\":22935:22955   */\n      swap1\n      pop\n        /* \"#utility.yul\":22613:22961   */\n      swap3\n      swap2\n      pop\n      pop\n      jump\t// out\n        /* \"#utility.yul\":22967:23158   */\n    tag_185:\n        /* \"#utility.yul\":23007:23011   */\n      0x00\n        /* \"#utility.yul\":23027:23047   */\n      tag_823\n        /* \"#utility.yul\":23045:23046   */\n      dup3\n        /* \"#utility.yul\":23027:23047   */\n      tag_740\n      jump\t// in\n    tag_823:\n        /* \"#utility.yul\":23022:23047   */\n      swap2\n      pop\n        /* \"#utility.yul\":23061:23081   */\n      tag_824\n        /* \"#utility.yul\":23079:23080   */\n      dup4\n        /* \"#utility.yul\":23061:23081   */\n      tag_740\n      jump\t// in\n    tag_824:\n        /* \"#utility.yul\":23056:23081   */\n      swap3\n      pop\n        /* \"#utility.yul\":23100:23101   */\n      dup3\n        /* \"#utility.yul\":23097:23098   */\n      dup3\n        /* \"#utility.yul\":23094:23102   */\n      lt\n        /* \"#utility.yul\":23091:23125   */\n      iszero\n      tag_825\n      jumpi\n        /* \"#utility.yul\":23105:23123   */\n      tag_826\n      tag_810\n      jump\t// in\n    tag_826:\n        /* \"#utility.yul\":23091:23125   */\n    tag_825:\n        /* \"#utility.yul\":23150:23151   */\n      dup3\n        /* \"#utility.yul\":23147:23148   */\n      dup3\n        /* \"#utility.yul\":23143:23152   */\n      sub\n        /* \"#utility.yul\":23135:23152   */\n      swap1\n      pop\n        /* \"#utility.yul\":22967:23158   */\n      swap3\n      swap2\n      pop\n      pop\n      jump\t// out\n        /* \"#utility.yul\":23164:23260   */\n    tag_639:\n        /* \"#utility.yul\":23201:23208   */\n      0x00\n        /* \"#utility.yul\":23230:23254   */\n      tag_828\n        /* \"#utility.yul\":23248:23253   */\n      dup3\n        /* \"#utility.yul\":23230:23254   */\n      tag_829\n      jump\t// in\n    tag_828:\n        /* \"#utility.yul\":23219:23254   */\n      swap1\n      pop\n        /* \"#utility.yul\":23164:23260   */\n      swap2\n      swap1\n      pop\n      jump\t// out\n        /* \"#utility.yul\":23266:23356   */\n    tag_657:\n        /* \"#utility.yul\":23300:23307   */\n      0x00\n        /* \"#utility.yul\":23343:23348   */\n      dup2\n        /* \"#utility.yul\":23336:23349   */\n      iszero\n        /* \"#utility.yul\":23329:23350   */\n      iszero\n        /* \"#utility.yul\":23318:23350   */\n      swap1\n      pop\n        /* \"#utility.yul\":23266:23356   */\n      swap2\n      swap1\n      pop\n      jump\t// out\n        /* \"#utility.yul\":23362:23439   */\n    tag_660:\n        /* \"#utility.yul\":23399:23406   */\n      0x00\n        /* \"#utility.yul\":23428:23433   */\n      dup2\n        /* \"#utility.yul\":23417:23433   */\n      swap1\n      pop\n        /* \"#utility.yul\":23362:23439   */\n      swap2\n      swap1\n      pop\n      jump\t// out\n        /* \"#utility.yul\":23445:23571   */\n    tag_829:\n        /* \"#utility.yul\":23482:23489   */\n      0x00\n        /* \"#utility.yul\":23522:23564   */\n      0xffffffffffffffffffffffffffffffffffffffff\n        /* \"#utility.yul\":23515:23520   */\n      dup3\n        /* \"#utility.yul\":23511:23565   */\n      and\n        /* \"#utility.yul\":23500:23565   */\n      swap1\n      pop\n        /* \"#utility.yul\":23445:23571   */\n      swap2\n      swap1\n      pop\n      jump\t// out\n        /* \"#utility.yul\":23577:23654   */\n    tag_740:\n        /* \"#utility.yul\":23614:23621   */\n      0x00\n        /* \"#utility.yul\":23643:23648   */\n      dup2\n        /* \"#utility.yul\":23632:23648   */\n      swap1\n      pop\n        /* \"#utility.yul\":23577:23654   */\n      swap2\n      swap1\n      pop\n      jump\t// out\n        /* \"#utility.yul\":23660:23814   */\n    tag_555:\n        /* \"#utility.yul\":23744:23750   */\n      dup3\n        /* \"#utility.yul\":23739:23742   */\n      dup2\n        /* \"#utility.yul\":23734:23737   */\n      dup4\n        /* \"#utility.yul\":23721:23751   */\n      calldatacopy\n        /* \"#utility.yul\":23806:23807   */\n      0x00\n        /* \"#utility.yul\":23797:23803   */\n      dup4\n        /* \"#utility.yul\":23792:23795   */\n      dup4\n        /* \"#utility.yul\":23788:23804   */\n      add\n        /* \"#utility.yul\":23781:23808   */\n      mstore\n        /* \"#utility.yul\":23660:23814   */\n      pop\n      pop\n      pop\n      jump\t// out\n        /* \"#utility.yul\":23820:24127   */\n    tag_676:\n        /* \"#utility.yul\":23888:23889   */\n      0x00\n        /* \"#utility.yul\":23898:24011   */\n    tag_836:\n        /* \"#utility.yul\":23912:23918   */\n      dup4\n        /* \"#utility.yul\":23909:23910   */\n      dup2\n        /* \"#utility.yul\":23906:23919   */\n      lt\n        /* \"#utility.yul\":23898:24011   */\n      iszero\n      tag_838\n      jumpi\n        /* \"#utility.yul\":23997:23998   */\n      dup1\n        /* \"#utility.yul\":23992:23995   */\n      dup3\n        /* \"#utility.yul\":23988:23999   */\n      add\n        /* \"#utility.yul\":23982:24000   */\n      mload\n        /* \"#utility.yul\":23978:23979   */\n      dup2\n        /* \"#utility.yul\":23973:23976   */\n      dup5\n        /* \"#utility.yul\":23969:23980   */\n      add\n        /* \"#utility.yul\":23962:24001   */\n      mstore\n        /* \"#utility.yul\":23934:23936   */\n      0x20\n        /* \"#utility.yul\":23931:23932   */\n      dup2\n        /* \"#utility.yul\":23927:23937   */\n      add\n        /* \"#utility.yul\":23922:23937   */\n      swap1\n      pop\n        /* \"#utility.yul\":23898:24011   */\n      jump(tag_836)\n    tag_838:\n        /* \"#utility.yul\":24029:24035   */\n      dup4\n        /* \"#utility.yul\":24026:24027   */\n      dup2\n        /* \"#utility.yul\":24023:24036   */\n      gt\n        /* \"#utility.yul\":24020:24121   */\n      iszero\n      tag_839\n      jumpi\n        /* \"#utility.yul\":24109:24110   */\n      0x00\n        /* \"#utility.yul\":24100:24106   */\n      dup5\n        /* \"#utility.yul\":24095:24098   */\n      dup5\n        /* \"#utility.yul\":24091:24107   */\n      add\n        /* \"#utility.yul\":24084:24111   */\n      mstore\n        /* \"#utility.yul\":24020:24121   */\n    tag_839:\n        /* \"#utility.yul\":23869:24127   */\n      pop\n        /* \"#utility.yul\":23820:24127   */\n      pop\n      pop\n      pop\n      jump\t// out\n        /* \"#utility.yul\":24133:24453   */\n    tag_126:\n        /* \"#utility.yul\":24177:24183   */\n      0x00\n        /* \"#utility.yul\":24214:24215   */\n      0x02\n        /* \"#utility.yul\":24208:24212   */\n      dup3\n        /* \"#utility.yul\":24204:24216   */\n      div\n        /* \"#utility.yul\":24194:24216   */\n      swap1\n      pop\n        /* \"#utility.yul\":24261:24262   */\n      0x01\n        /* \"#utility.yul\":24255:24259   */\n      dup3\n        /* \"#utility.yul\":24251:24263   */\n      and\n        /* \"#utility.yul\":24282:24300   */\n      dup1\n        /* \"#utility.yul\":24272:24353   */\n      tag_841\n      jumpi\n        /* \"#utility.yul\":24338:24342   */\n      0x7f\n        /* \"#utility.yul\":24330:24336   */\n      dup3\n        /* \"#utility.yul\":24326:24343   */\n      and\n        /* \"#utility.yul\":24316:24343   */\n      swap2\n      pop\n        /* \"#utility.yul\":24272:24353   */\n    tag_841:\n        /* \"#utility.yul\":24400:24402   */\n      0x20\n        /* \"#utility.yul\":24392:24398   */\n      dup3\n        /* \"#utility.yul\":24389:24403   */\n      lt\n        /* \"#utility.yul\":24369:24387   */\n      dup2\n        /* \"#utility.yul\":24366:24404   */\n      eq\n        /* \"#utility.yul\":24363:24447   */\n      iszero\n      tag_842\n      jumpi\n        /* \"#utility.yul\":24419:24437   */\n      tag_843\n      tag_844\n      jump\t// in\n    tag_843:\n        /* \"#utility.yul\":24363:24447   */\n    tag_842:\n        /* \"#utility.yul\":24184:24453   */\n      pop\n        /* \"#utility.yul\":24133:24453   */\n      swap2\n      swap1\n      pop\n      jump\t// out\n        /* \"#utility.yul\":24459:24740   */\n    tag_792:\n        /* \"#utility.yul\":24542:24569   */\n      tag_846\n        /* \"#utility.yul\":24564:24568   */\n      dup3\n        /* \"#utility.yul\":24542:24569   */\n      tag_678\n      jump\t// in\n    tag_846:\n        /* \"#utility.yul\":24534:24540   */\n      dup2\n        /* \"#utility.yul\":24530:24570   */\n      add\n        /* \"#utility.yul\":24672:24678   */\n      dup2\n        /* \"#utility.yul\":24660:24670   */\n      dup2\n        /* \"#utility.yul\":24657:24679   */\n      lt\n        /* \"#utility.yul\":24636:24654   */\n      0xffffffffffffffff\n        /* \"#utility.yul\":24624:24634   */\n      dup3\n        /* \"#utility.yul\":24621:24655   */\n      gt\n        /* \"#utility.yul\":24618:24680   */\n      or\n        /* \"#utility.yul\":24615:24703   */\n      iszero\n      tag_847\n      jumpi\n        /* \"#utility.yul\":24683:24701   */\n      tag_848\n      tag_475\n      jump\t// in\n    tag_848:\n        /* \"#utility.yul\":24615:24703   */\n    tag_847:\n        /* \"#utility.yul\":24723:24733   */\n      dup1\n        /* \"#utility.yul\":24719:24721   */\n      0x40\n        /* \"#utility.yul\":24712:24734   */\n      mstore\n        /* \"#utility.yul\":24502:24740   */\n      pop\n        /* \"#utility.yul\":24459:24740   */\n      pop\n      pop\n      jump\t// out\n        /* \"#utility.yul\":24746:24979   */\n    tag_425:\n        /* \"#utility.yul\":24785:24788   */\n      0x00\n        /* \"#utility.yul\":24808:24832   */\n      tag_850\n        /* \"#utility.yul\":24826:24831   */\n      dup3\n        /* \"#utility.yul\":24808:24832   */\n      tag_740\n      jump\t// in\n    tag_850:\n        /* \"#utility.yul\":24799:24832   */\n      swap2\n      pop\n        /* \"#utility.yul\":24854:24920   */\n      0xffffffffffffffffffffffffffffffffffffffffffffffffffffffffffffffff\n        /* \"#utility.yul\":24847:24852   */\n      dup3\n        /* \"#utility.yul\":24844:24921   */\n      eq\n        /* \"#utility.yul\":24841:24944   */\n      iszero\n      tag_851\n      jumpi\n        /* \"#utility.yul\":24924:24942   */\n      tag_852\n      tag_810\n      jump\t// in\n    tag_852:\n        /* \"#utility.yul\":24841:24944   */\n    tag_851:\n        /* \"#utility.yul\":24971:24972   */\n      0x01\n        /* \"#utility.yul\":24964:24969   */\n      dup3\n        /* \"#utility.yul\":24960:24973   */\n      add\n        /* \"#utility.yul\":24953:24973   */\n      swap1\n      pop\n        /* \"#utility.yul\":24746:24979   */\n      swap2\n      swap1\n      pop\n      jump\t// out\n        /* \"#utility.yul\":24985:25064   */\n    tag_668:\n        /* \"#utility.yul\":25024:25031   */\n      0x00\n        /* \"#utility.yul\":25053:25058   */\n      dup2\n        /* \"#utility.yul\":25042:25058   */\n      swap1\n      pop\n        /* \"#utility.yul\":24985:25064   */\n      swap2\n      swap1\n      pop\n      jump\t// out\n        /* \"#utility.yul\":25070:25149   */\n    tag_748:\n        /* \"#utility.yul\":25109:25116   */\n      0x00\n        /* \"#utility.yul\":25138:25143   */\n      dup2\n        /* \"#utility.yul\":25127:25143   */\n      swap1\n      pop\n        /* \"#utility.yul\":25070:25149   */\n      swap2\n      swap1\n      pop\n      jump\t// out\n        /* \"#utility.yul\":25155:25335   */\n    tag_810:\n        /* \"#utility.yul\":25203:25280   */\n      0x4e487b7100000000000000000000000000000000000000000000000000000000\n        /* \"#utility.yul\":25200:25201   */\n      0x00\n        /* \"#utility.yul\":25193:25281   */\n      mstore\n        /* \"#utility.yul\":25300:25304   */\n      0x11\n        /* \"#utility.yul\":25297:25298   */\n      0x04\n        /* \"#utility.yul\":25290:25305   */\n      mstore\n        /* \"#utility.yul\":25324:25328   */\n      0x24\n        /* \"#utility.yul\":25321:25322   */\n      0x00\n        /* \"#utility.yul\":25314:25329   */\n      revert\n        /* \"#utility.yul\":25341:25521   */\n    tag_816:\n        /* \"#utility.yul\":25389:25466   */\n      0x4e487b7100000000000000000000000000000000000000000000000000000000\n        /* \"#utility.yul\":25386:25387   */\n      0x00\n        /* \"#utility.yul\":25379:25467   */\n      mstore\n        /* \"#utility.yul\":25486:25490   */\n      0x12\n        /* \"#utility.yul\":25483:25484   */\n      0x04\n        /* \"#utility.yul\":25476:25491   */\n      mstore\n        /* \"#utility.yul\":25510:25514   */\n      0x24\n        /* \"#utility.yul\":25507:25508   */\n      0x00\n        /* \"#utility.yul\":25500:25515   */\n      revert\n        /* \"#utility.yul\":25527:25707   */\n    tag_844:\n        /* \"#utility.yul\":25575:25652   */\n      0x4e487b7100000000000000000000000000000000000000000000000000000000\n        /* \"#utility.yul\":25572:25573   */\n      0x00\n        /* \"#utility.yul\":25565:25653   */\n      mstore\n        /* \"#utility.yul\":25672:25676   */\n      0x22\n        /* \"#utility.yul\":25669:25670   */\n      0x04\n        /* \"#utility.yul\":25662:25677   */\n      mstore\n        /* \"#utility.yul\":25696:25700   */\n      0x24\n        /* \"#utility.yul\":25693:25694   */\n      0x00\n        /* \"#utility.yul\":25686:25701   */\n      revert\n        /* \"#utility.yul\":25713:25893   */\n    tag_361:\n        /* \"#utility.yul\":25761:25838   */\n      0x4e487b7100000000000000000000000000000000000000000000000000000000\n        /* \"#utility.yul\":25758:25759   */\n      0x00\n        /* \"#utility.yul\":25751:25839   */\n      mstore\n        /* \"#utility.yul\":25858:25862   */\n      0x32\n        /* \"#utility.yul\":25855:25856   */\n      0x04\n        /* \"#utility.yul\":25848:25863   */\n      mstore\n        /* \"#utility.yul\":25882:25886   */\n      0x24\n        /* \"#utility.yul\":25879:25880   */\n      0x00\n        /* \"#utility.yul\":25872:25887   */\n      revert\n        /* \"#utility.yul\":25899:26079   */\n    tag_475:\n        /* \"#utility.yul\":25947:26024   */\n      0x4e487b7100000000000000000000000000000000000000000000000000000000\n        /* \"#utility.yul\":25944:25945   */\n      0x00\n        /* \"#utility.yul\":25937:26025   */\n      mstore\n        /* \"#utility.yul\":26044:26048   */\n      0x41\n        /* \"#utility.yul\":26041:26042   */\n      0x04\n        /* \"#utility.yul\":26034:26049   */\n      mstore\n        /* \"#utility.yul\":26068:26072   */\n      0x24\n        /* \"#utility.yul\":26065:26066   */\n      0x00\n        /* \"#utility.yul\":26058:26073   */\n      revert\n        /* \"#utility.yul\":26085:26202   */\n    tag_572:\n        /* \"#utility.yul\":26194:26195   */\n      0x00\n        /* \"#utility.yul\":26191:26192   */\n      dup1\n        /* \"#utility.yul\":26184:26196   */\n      revert\n        /* \"#utility.yul\":26208:26325   */\n    tag_553:\n        /* \"#utility.yul\":26317:26318   */\n      0x00\n        /* \"#utility.yul\":26314:26315   */\n      dup1\n        /* \"#utility.yul\":26307:26319   */\n      revert\n        /* \"#utility.yul\":26331:26448   */\n    tag_623:\n        /* \"#utility.yul\":26440:26441   */\n      0x00\n        /* \"#utility.yul\":26437:26438   */\n      dup1\n        /* \"#utility.yul\":26430:26442   */\n      revert\n        /* \"#utility.yul\":26454:26571   */\n    tag_581:\n        /* \"#utility.yul\":26563:26564   */\n      0x00\n        /* \"#utility.yul\":26560:26561   */\n      dup1\n        /* \"#utility.yul\":26553:26565   */\n      revert\n        /* \"#utility.yul\":26577:26679   */\n    tag_678:\n        /* \"#utility.yul\":26618:26624   */\n      0x00\n        /* \"#utility.yul\":26669:26671   */\n      0x1f\n        /* \"#utility.yul\":26665:26672   */\n      not\n        /* \"#utility.yul\":26660:26662   */\n      0x1f\n        /* \"#utility.yul\":26653:26658   */\n      dup4\n        /* \"#utility.yul\":26649:26663   */\n      add\n        /* \"#utility.yul\":26645:26673   */\n      and\n        /* \"#utility.yul\":26635:26673   */\n      swap1\n      pop\n        /* \"#utility.yul\":26577:26679   */\n      swap2\n      swap1\n      pop\n      jump\t// out\n        /* \"#utility.yul\":26685:26860   */\n    tag_689:\n        /* \"#utility.yul\":26825:26852   */\n      0x4f6e6c79206f776e65722063616e2063616c6c20746869732e00000000000000\n        /* \"#utility.yul\":26821:26822   */\n      0x00\n        /* \"#utility.yul\":26813:26819   */\n      dup3\n        /* \"#utility.yul\":26809:26823   */\n      add\n        /* \"#utility.yul\":26802:26853   */\n      mstore\n        /* \"#utility.yul\":26685:26860   */\n      pop\n      jump\t// out\n        /* \"#utility.yul\":26866:27025   */\n    tag_694:\n        /* \"#utility.yul\":27006:27017   */\n      0x6e6f742065786973740000000000000000000000000000000000000000000000\n        /* \"#utility.yul\":27002:27003   */\n      0x00\n        /* \"#utility.yul\":26994:27000   */\n      dup3\n        /* \"#utility.yul\":26990:27004   */\n      add\n        /* \"#utility.yul\":26983:27018   */\n      mstore\n        /* \"#utility.yul\":26866:27025   */\n      pop\n      jump\t// out\n        /* \"#utility.yul\":27031:27195   */\n    tag_699:\n        /* \"#utility.yul\":27171:27187   */\n      0x706f6f6c206e6f74206578697374000000000000000000000000000000000000\n        /* \"#utility.yul\":27167:27168   */\n      0x00\n        /* \"#utility.yul\":27159:27165   */\n      dup3\n        /* \"#utility.yul\":27155:27169   */\n      add\n        /* \"#utility.yul\":27148:27188   */\n      mstore\n        /* \"#utility.yul\":27031:27195   */\n      pop\n      jump\t// out\n        /* \"#utility.yul\":27201:27374   */\n    tag_704:\n        /* \"#utility.yul\":27341:27366   */\n      0x706f6f6c20626173616c20686173206265656e20736574000000000000000000\n        /* \"#utility.yul\":27337:27338   */\n      0x00\n        /* \"#utility.yul\":27329:27335   */\n      dup3\n        /* \"#utility.yul\":27325:27339   */\n      add\n        /* \"#utility.yul\":27318:27367   */\n      mstore\n        /* \"#utility.yul\":27201:27374   */\n      pop\n      jump\t// out\n        /* \"#utility.yul\":27380:27540   */\n    tag_709:\n        /* \"#utility.yul\":27520:27532   */\n      0x7061697220657869737400000000000000000000000000000000000000000000\n        /* \"#utility.yul\":27516:27517   */\n      0x00\n        /* \"#utility.yul\":27508:27514   */\n      dup3\n        /* \"#utility.yul\":27504:27518   */\n      add\n        /* \"#utility.yul\":27497:27533   */\n      mstore\n        /* \"#utility.yul\":27380:27540   */\n      pop\n      jump\t// out\n        /* \"#utility.yul\":27546:27717   */\n    tag_714:\n        /* \"#utility.yul\":27686:27709   */\n      0x706f6f6c20686173206e6f742066696e69736865640000000000000000000000\n        /* \"#utility.yul\":27682:27683   */\n      0x00\n        /* \"#utility.yul\":27674:27680   */\n      dup3\n        /* \"#utility.yul\":27670:27684   */\n      add\n        /* \"#utility.yul\":27663:27710   */\n      mstore\n        /* \"#utility.yul\":27546:27717   */\n      pop\n      jump\t// out\n        /* \"#utility.yul\":27723:27894   */\n    tag_719:\n        /* \"#utility.yul\":27863:27886   */\n      0x6e6f7420656e6f75676820766f7465416d6f756e740000000000000000000000\n        /* \"#utility.yul\":27859:27860   */\n      0x00\n        /* \"#utility.yul\":27851:27857   */\n      dup3\n        /* \"#utility.yul\":27847:27861   */\n      add\n        /* \"#utility.yul\":27840:27887   */\n      mstore\n        /* \"#utility.yul\":27723:27894   */\n      pop\n      jump\t// out\n        /* \"#utility.yul\":27900:28066   */\n    tag_724:\n        /* \"#utility.yul\":28040:28058   */\n      0x6e6f7420656e6f75676820626173616c00000000000000000000000000000000\n        /* \"#utility.yul\":28036:28037   */\n      0x00\n        /* \"#utility.yul\":28028:28034   */\n      dup3\n        /* \"#utility.yul\":28024:28038   */\n      add\n        /* \"#utility.yul\":28017:28059   */\n      mstore\n        /* \"#utility.yul\":27900:28066   */\n      pop\n      jump\t// out\n        /* \"#utility.yul\":28072:28239   */\n    tag_729:\n        /* \"#utility.yul\":28212:28231   */\n      0x706f6f6c206861732066696e6973686564000000000000000000000000000000\n        /* \"#utility.yul\":28208:28209   */\n      0x00\n        /* \"#utility.yul\":28200:28206   */\n      dup3\n        /* \"#utility.yul\":28196:28210   */\n      add\n        /* \"#utility.yul\":28189:28232   */\n      mstore\n        /* \"#utility.yul\":28072:28239   */\n      pop\n      jump\t// out\n        /* \"#utility.yul\":28245:28367   */\n    tag_559:\n        /* \"#utility.yul\":28318:28342   */\n      tag_875\n        /* \"#utility.yul\":28336:28341   */\n      dup2\n        /* \"#utility.yul\":28318:28342   */\n      tag_639\n      jump\t// in\n    tag_875:\n        /* \"#utility.yul\":28311:28316   */\n      dup2\n        /* \"#utility.yul\":28308:28343   */\n      eq\n        /* \"#utility.yul\":28298:28361   */\n      tag_876\n      jumpi\n        /* \"#utility.yul\":28357:28358   */\n      0x00\n        /* \"#utility.yul\":28354:28355   */\n      dup1\n        /* \"#utility.yul\":28347:28359   */\n      revert\n        /* \"#utility.yul\":28298:28361   */\n    tag_876:\n        /* \"#utility.yul\":28245:28367   */\n      pop\n      jump\t// out\n        /* \"#utility.yul\":28373:28489   */\n    tag_563:\n        /* \"#utility.yul\":28443:28464   */\n      tag_878\n        /* \"#utility.yul\":28458:28463   */\n      dup2\n        /* \"#utility.yul\":28443:28464   */\n      tag_657\n      jump\t// in\n    tag_878:\n        /* \"#utility.yul\":28436:28441   */\n      dup2\n        /* \"#utility.yul\":28433:28465   */\n      eq\n        /* \"#utility.yul\":28423:28483   */\n      tag_879\n      jumpi\n        /* \"#utility.yul\":28479:28480   */\n      0x00\n        /* \"#utility.yul\":28476:28477   */\n      dup1\n        /* \"#utility.yul\":28469:28481   */\n      revert\n        /* \"#utility.yul\":28423:28483   */\n    tag_879:\n        /* \"#utility.yul\":28373:28489   */\n      pop\n      jump\t// out\n        /* \"#utility.yul\":28495:28617   */\n    tag_567:\n        /* \"#utility.yul\":28568:28592   */\n      tag_881\n        /* \"#utility.yul\":28586:28591   */\n      dup2\n        /* \"#utility.yul\":28568:28592   */\n      tag_660\n      jump\t// in\n    tag_881:\n        /* \"#utility.yul\":28561:28566   */\n      dup2\n        /* \"#utility.yul\":28558:28593   */\n      eq\n        /* \"#utility.yul\":28548:28611   */\n      tag_882\n      jumpi\n        /* \"#utility.yul\":28607:28608   */\n      0x00\n        /* \"#utility.yul\":28604:28605   */\n      dup1\n        /* \"#utility.yul\":28597:28609   */\n      revert\n        /* \"#utility.yul\":28548:28611   */\n    tag_882:\n        /* \"#utility.yul\":28495:28617   */\n      pop\n      jump\t// out\n        /* \"#utility.yul\":28623:28745   */\n    tag_577:\n        /* \"#utility.yul\":28696:28720   */\n      tag_884\n        /* \"#utility.yul\":28714:28719   */\n      dup2\n        /* \"#utility.yul\":28696:28720   */\n      tag_740\n      jump\t// in\n    tag_884:\n        /* \"#utility.yul\":28689:28694   */\n      dup2\n        /* \"#utility.yul\":28686:28721   */\n      eq\n        /* \"#utility.yul\":28676:28739   */\n      tag_885\n      jumpi\n        /* \"#utility.yul\":28735:28736   */\n      0x00\n        /* \"#utility.yul\":28732:28733   */\n      dup1\n        /* \"#utility.yul\":28725:28737   */\n      revert\n        /* \"#utility.yul\":28676:28739   */\n    tag_885:\n        /* \"#utility.yul\":28623:28745   */\n      pop\n      jump\t// out\n\n    auxdata: 0xa264697066735822122029bfa09665a80be91daa760ae855f5fa73401dcea359bcf17b2222f293d5765864736f6c63430008070033\n}\n",
				"bytecode": {
					"linkReferences": {},
					"object": "60806040523480156200001157600080fd5b50604051620047ac380380620047ac8339818101604052810190620000379190620000bc565b816000806101000a81548173ffffffffffffffffffffffffffffffffffffffff021916908373ffffffffffffffffffffffffffffffffffffffff16021790555060006003819055508060018190555050506200017a565b6000815190506200009f8162000146565b92915050565b600081519050620000b68162000160565b92915050565b60008060408385031215620000d657620000d562000141565b5b6000620000e6858286016200008e565b9250506020620000f985828601620000a5565b9150509250929050565b6000620001108262000117565b9050919050565b600073ffffffffffffffffffffffffffffffffffffffff82169050919050565b6000819050919050565b600080fd5b620001518162000103565b81146200015d57600080fd5b50565b6200016b8162000137565b81146200017757600080fd5b50565b614622806200018a6000396000f3fe6080604052600436106100e15760003560e01c80634121855f1161007f5780639bd0abf1116100595780639bd0abf11461041e578063baf412691461044e578063ea8870c014610479578063f6c00927146104a457610202565b80634121855f1461037457806347e4dd27146103b157806374fe9bc2146103ee57610202565b80632775e02c116100bb5780632775e02c1461029f5780632bf21ecc146102cf578063357965ba1461030c5780633e6ff1a21461034957610202565b80630c66b373146102075780630ce490531461023257806322d8325c1461026257610202565b366102025760008054906101000a900473ffffffffffffffffffffffffffffffffffffffff1673ffffffffffffffffffffffffffffffffffffffff163373ffffffffffffffffffffffffffffffffffffffff16146101ff57610153662386f26fc10000346104e390919063ffffffff16565b600460003373ffffffffffffffffffffffffffffffffffffffff1673ffffffffffffffffffffffffffffffffffffffff16815260200190815260200160002060008282546101a191906140a6565b9250508190555034600360008282546101ba91906140a6565b925050819055507f88a5966d370b9919b20f3e2c13ff65706f196a4e32cc2c12bf57088f8852587433346040516101f2929190613def565b60405180910390a1610200565b5b005b600080fd5b34801561021357600080fd5b5061021c61050b565b6040516102299190613fd5565b60405180910390f35b61024c600480360381019061024791906137fb565b6105a4565b6040516102599190613e3a565b60405180910390f35b34801561026e57600080fd5b506102896004803603810190610284919061387b565b6109e0565b6040516102969190613e3a565b60405180910390f35b6102b960048036038101906102b491906137ce565b610d36565b6040516102c69190613e3a565b60405180910390f35b3480156102db57600080fd5b506102f660048036038101906102f19190613935565b610e2b565b6040516103039190613e3a565b60405180910390f35b34801561031857600080fd5b50610333600480360381019061032e91906139dc565b61122a565b6040516103409190613e55565b60405180910390f35b34801561035557600080fd5b5061035e61151b565b60405161036b9190613fd5565b60405180910390f35b34801561038057600080fd5b5061039b60048036038101906103969190613908565b6115b4565b6040516103a89190613fd5565b60405180910390f35b3480156103bd57600080fd5b506103d860048036038101906103d3919061387b565b61194b565b6040516103e59190613e3a565b60405180910390f35b61040860048036038101906104039190613975565b61209d565b6040516104159190613e3a565b60405180910390f35b6104386004803603810190610433919061383b565b612b10565b6040516104459190613e3a565b60405180910390f35b34801561045a57600080fd5b50610463612d0b565b6040516104709190613fd5565b60405180910390f35b34801561048557600080fd5b5061048e612d52565b60405161049b9190613e18565b60405180910390f35b3480156104b057600080fd5b506104cb60048036038101906104c69190613908565b612daa565b6040516104da93929190613e70565b60405180910390f35b60008082116104f157600080fd5b600082846104ff91906140fc565b90508091505092915050565b60008060009054906101000a900473ffffffffffffffffffffffffffffffffffffffff1673ffffffffffffffffffffffffffffffffffffffff163373ffffffffffffffffffffffffffffffffffffffff161461059c576040517f08c379a000000000000000000000000000000000000000000000000000000000815260040161059390613eb5565b60405180910390fd5b600354905090565b60008060009054906101000a900473ffffffffffffffffffffffffffffffffffffffff1673ffffffffffffffffffffffffffffffffffffffff163373ffffffffffffffffffffffffffffffffffffffff1614610635576040517f08c379a000000000000000000000000000000000000000000000000000000000815260040161062c90613eb5565b60405180910390fd5b61063e826130d4565b61067d576040517f08c379a000000000000000000000000000000000000000000000000000000000815260040161067490613ef5565b60405180910390fd5b600060056000848152602001908152602001600020604051806101600160405290816000820180546106ae9061424f565b80601f01602080910402602001604051908101604052809291908181526020018280546106da9061424f565b80156107275780601f106106fc57610100808354040283529160200191610727565b820191906000526020600020905b81548152906001019060200180831161070a57829003601f168201915b505050505081526020016001820180546107409061424f565b80601f016020809104026020016040519081016040528092919081815260200182805461076c9061424f565b80156107b95780601f1061078e576101008083540402835291602001916107b9565b820191906000526020600020905b81548152906001019060200180831161079c57829003601f168201915b505050505081526020016002820180546107d29061424f565b80601f01602080910402602001604051908101604052809291908181526020018280546107fe9061424f565b801561084b5780601f106108205761010080835404028352916020019161084b565b820191906000526020600020905b81548152906001019060200180831161082e57829003601f168201915b5050505050815260200160038201548152602001600482015481526020016005820154815260200160068201548152602001600782015481526020016008820160009054906101000a900460ff161515151581526020016008820160019054906101000a900460ff161515151581526020016008820160029054906101000a900460ff1615151515815250509050600061092f600a8360e001518460c0015185608001518660a00151876060015161090391906140a6565b61090d91906140a6565b61091791906140a6565b61092191906140a6565b6104e390919063ffffffff16565b90506001826101400190151590811515815250156109995760008590508073ffffffffffffffffffffffffffffffffffffffff166108fc839081150290604051600060405180830381858888f19350505050158015610992573d6000803e3d6000fd5b50506109d4565b6040517f08c379a00000000000000000000000000000000000000000000000000000000081526004016109cb90613f55565b60405180910390fd5b50506001905092915050565b60006109eb856130d4565b610a2a576040517f08c379a0000000000000000000000000000000000000000000000000000000008152600401610a2190613ef5565b60405180910390fd5b85600460008973ffffffffffffffffffffffffffffffffffffffff1673ffffffffffffffffffffffffffffffffffffffff168152602001908152602001600020541015610aac576040517f08c379a0000000000000000000000000000000000000000000000000000000008152600401610aa390613f75565b60405180910390fd5b60006005600087815260200190815260200160002060405180610160016040529081600082018054610add9061424f565b80601f0160208091040260200160405190810160405280929190818152602001828054610b099061424f565b8015610b565780601f10610b2b57610100808354040283529160200191610b56565b820191906000526020600020905b815481529060010190602001808311610b3957829003601f168201915b50505050508152602001600182018054610b6f9061424f565b80601f0160208091040260200160405190810160405280929190818152602001828054610b9b9061424f565b8015610be85780601f10610bbd57610100808354040283529160200191610be8565b820191906000526020600020905b815481529060010190602001808311610bcb57829003601f168201915b50505050508152602001600282018054610c019061424f565b80601f0160208091040260200160405190810160405280929190818152602001828054610c2d9061424f565b8015610c7a5780601f10610c4f57610100808354040283529160200191610c7a565b820191906000526020600020905b815481529060010190602001808311610c5d57829003601f168201915b5050505050815260200160038201548152602001600482015481526020016005820154815260200160068201548152602001600782015481526020016008820160009054906101000a900460ff161515151581526020016008820160019054906101000a900460ff161515151581526020016008820160029054906101000a900460ff16151515158152505090506000610d24610d1687613101565b610d1f87613101565b613132565b90505050600190509695505050505050565b60008060009054906101000a900473ffffffffffffffffffffffffffffffffffffffff1673ffffffffffffffffffffffffffffffffffffffff163373ffffffffffffffffffffffffffffffffffffffff1614610dc7576040517f08c379a0000000000000000000000000000000000000000000000000000000008152600401610dbe90613eb5565b60405180910390fd5b60008290508073ffffffffffffffffffffffffffffffffffffffff166108fc6001600354610df59190614187565b9081150290604051600060405180830381858888f19350505050158015610e20573d6000803e3d6000fd5b506001915050919050565b60008060009054906101000a900473ffffffffffffffffffffffffffffffffffffffff1673ffffffffffffffffffffffffffffffffffffffff163373ffffffffffffffffffffffffffffffffffffffff1614610ebc576040517f08c379a0000000000000000000000000000000000000000000000000000000008152600401610eb390613eb5565b60405180910390fd5b610ec5836130d4565b610f04576040517f08c379a0000000000000000000000000000000000000000000000000000000008152600401610efb90613ef5565b60405180910390fd5b60006005600085815260200190815260200160002060405180610160016040529081600082018054610f359061424f565b80601f0160208091040260200160405190810160405280929190818152602001828054610f619061424f565b8015610fae5780601f10610f8357610100808354040283529160200191610fae565b820191906000526020600020905b815481529060010190602001808311610f9157829003601f168201915b50505050508152602001600182018054610fc79061424f565b80601f0160208091040260200160405190810160405280929190818152602001828054610ff39061424f565b80156110405780601f1061101557610100808354040283529160200191611040565b820191906000526020600020905b81548152906001019060200180831161102357829003601f168201915b505050505081526020016002820180546110599061424f565b80601f01602080910402602001604051908101604052809291908181526020018280546110859061424f565b80156110d25780601f106110a7576101008083540402835291602001916110d2565b820191906000526020600020905b8154815290600101906020018083116110b557829003601f168201915b5050505050815260200160038201548152602001600482015481526020016005820154815260200160068201548152602001600782015481526020016008820160009054906101000a900460ff161515151581526020016008820160019054906101000a900460ff161515151581526020016008820160029054906101000a900460ff161515151581525050905060008160e0015111156111a8576040517f08c379a000000000000000000000000000000000000000000000000000000000815260040161119f90613f15565b60405180910390fd5b8260015411156111ed576040517f08c379a00000000000000000000000000000000000000000000000000000000081526004016111e490613f95565b60405180910390fd5b828160e0018181516111ff91906140a6565b9150818152505082600160008282546112189190614187565b92505081905550600191505092915050565b60008060009054906101000a900473ffffffffffffffffffffffffffffffffffffffff1673ffffffffffffffffffffffffffffffffffffffff163373ffffffffffffffffffffffffffffffffffffffff16146112bb576040517f08c379a00000000000000000000000000000000000000000000000000000000081526004016112b290613eb5565b60405180910390fd5b60006112c78686613132565b905060006112d58286613132565b90506000816040516020016112ea9190613dbd565b60405160208183030381529060405280519060200120905061130b816130d4565b1561134b576040517f08c379a000000000000000000000000000000000000000000000000000000000815260040161134290613f35565b60405180910390fd5b60016005600083815260200190815260200160002060080160016101000a81548160ff021916908315150217905550876005600083815260200190815260200160002060000190805190602001906113a4929190613638565b50866005600083815260200190815260200160002060010190805190602001906113cf929190613638565b50856005600083815260200190815260200160002060020190805190602001906113fa929190613638565b506000600560008381526020019081526020016000206003018190555060006005600083815260200190815260200160002060040181905550600060056000838152602001908152602001600020600501819055506000600560008381526020019081526020016000206006018190555060006005600083815260200190815260200160002060070181905550846005600083815260200190815260200160002060080160006101000a81548160ff02191690831515021790555060006005600083815260200190815260200160002060080160026101000a81548160ff0219169083151502179055506002819080600181540180825580915050600190039060005260206000200160009091909190915055809350505050949350505050565b60008060009054906101000a900473ffffffffffffffffffffffffffffffffffffffff1673ffffffffffffffffffffffffffffffffffffffff163373ffffffffffffffffffffffffffffffffffffffff16146115ac576040517f08c379a00000000000000000000000000000000000000000000000000000000081526004016115a390613eb5565b60405180910390fd5b600154905090565b60008060009054906101000a900473ffffffffffffffffffffffffffffffffffffffff1673ffffffffffffffffffffffffffffffffffffffff163373ffffffffffffffffffffffffffffffffffffffff1614611645576040517f08c379a000000000000000000000000000000000000000000000000000000000815260040161163c90613eb5565b60405180910390fd5b61164e826130d4565b61168d576040517f08c379a000000000000000000000000000000000000000000000000000000000815260040161168490613ef5565b60405180910390fd5b600060056000848152602001908152602001600020604051806101600160405290816000820180546116be9061424f565b80601f01602080910402602001604051908101604052809291908181526020018280546116ea9061424f565b80156117375780601f1061170c57610100808354040283529160200191611737565b820191906000526020600020905b81548152906001019060200180831161171a57829003601f168201915b505050505081526020016001820180546117509061424f565b80601f016020809104026020016040519081016040528092919081815260200182805461177c9061424f565b80156117c95780601f1061179e576101008083540402835291602001916117c9565b820191906000526020600020905b8154815290600101906020018083116117ac57829003601f168201915b505050505081526020016002820180546117e29061424f565b80601f016020809104026020016040519081016040528092919081815260200182805461180e9061424f565b801561185b5780601f106118305761010080835404028352916020019161185b565b820191906000526020600020905b81548152906001019060200180831161183e57829003601f168201915b5050505050815260200160038201548152602001600482015481526020016005820154815260200160068201548152602001600782015481526020016008820160009054906101000a900460ff161515151581526020016008820160019054906101000a900460ff161515151581526020016008820160029054906101000a900460ff1615151515815250509050600061193f600a8360e001518460c0015185608001518660a00151876060015161191391906140a6565b61191d91906140a6565b61192791906140a6565b61193191906140a6565b6104e390919063ffffffff16565b90508092505050919050565b6000611956856130d4565b611995576040517f08c379a000000000000000000000000000000000000000000000000000000000815260040161198c90613ef5565b60405180910390fd5b85600460008973ffffffffffffffffffffffffffffffffffffffff1673ffffffffffffffffffffffffffffffffffffffff168152602001908152602001600020541015611a17576040517f08c379a0000000000000000000000000000000000000000000000000000000008152600401611a0e90613f75565b60405180910390fd5b60006005600087815260200190815260200160002060405180610160016040529081600082018054611a489061424f565b80601f0160208091040260200160405190810160405280929190818152602001828054611a749061424f565b8015611ac15780601f10611a9657610100808354040283529160200191611ac1565b820191906000526020600020905b815481529060010190602001808311611aa457829003601f168201915b50505050508152602001600182018054611ada9061424f565b80601f0160208091040260200160405190810160405280929190818152602001828054611b069061424f565b8015611b535780601f10611b2857610100808354040283529160200191611b53565b820191906000526020600020905b815481529060010190602001808311611b3657829003601f168201915b50505050508152602001600282018054611b6c9061424f565b80601f0160208091040260200160405190810160405280929190818152602001828054611b989061424f565b8015611be55780601f10611bba57610100808354040283529160200191611be5565b820191906000526020600020905b815481529060010190602001808311611bc857829003601f168201915b5050505050815260200160038201548152602001600482015481526020016005820154815260200160068201548152602001600782015481526020016008820160009054906101000a900460ff161515151581526020016008820160019054906101000a900460ff161515151581526020016008820160029054906101000a900460ff16151515158152505090506000611c8f611c8187613101565b611c8a87613101565b613132565b90506000611ca5611c9f896132c8565b83613132565b905060006040518060e001604052808b81526020018781526020018981526020018881526020018c73ffffffffffffffffffffffffffffffffffffffff16815260200183815260200160001515815250905088600660008b815260200190815260200160002060010181905550600660008a81526020019081526020016000206000018190806001815401808255809150506001900390600052602060002090600702016000909190919091506000820151816000015560208201518160010155604082015181600201556060820151816003015560808201518160040160006101000a81548173ffffffffffffffffffffffffffffffffffffffff021916908373ffffffffffffffffffffffffffffffffffffffff16021790555060a0820151816005019080519060200190611ddd929190613638565b5060c08201518160060160006101000a81548160ff02191690831515021790555050508a600860008d73ffffffffffffffffffffffffffffffffffffffff1673ffffffffffffffffffffffffffffffffffffffff16815260200190815260200160002060010160006101000a81548173ffffffffffffffffffffffffffffffffffffffff021916908373ffffffffffffffffffffffffffffffffffffffff160217905550600660008a81526020019081526020016000206000018190806001815401808255809150506001900390600052602060002090600702016000909190919091506000820151816000015560208201518160010155604082015181600201556060820151816003015560808201518160040160006101000a81548173ffffffffffffffffffffffffffffffffffffffff021916908373ffffffffffffffffffffffffffffffffffffffff16021790555060a0820151816005019080519060200190611f4c929190613638565b5060c08201518160060160006101000a81548160ff02191690831515021790555050506002861415611fcb57898460c001818151611f8a91906140a6565b9150818152505089600783604051611fa29190613dbd565b90815260200160405180910390206000828254611fbf91906140a6565b92505081905550612035565b6003861415611ff2578984606001818151611fe691906140a6565b91508181525050612034565b600186141561201957898460800181815161200d91906140a6565b91508181525050612033565b898460a00181815161202b91906140a6565b915081815250505b5b5b89600460008d73ffffffffffffffffffffffffffffffffffffffff1673ffffffffffffffffffffffffffffffffffffffff16815260200190815260200160002060008282546120849190614187565b9250508190555050505050600190509695505050505050565b60008060009054906101000a900473ffffffffffffffffffffffffffffffffffffffff1673ffffffffffffffffffffffffffffffffffffffff163373ffffffffffffffffffffffffffffffffffffffff161461212e576040517f08c379a000000000000000000000000000000000000000000000000000000000815260040161212590613eb5565b60405180910390fd5b612137856130d4565b612176576040517f08c379a000000000000000000000000000000000000000000000000000000000815260040161216d90613ef5565b60405180910390fd5b600060056000878152602001908152602001600020604051806101600160405290816000820180546121a79061424f565b80601f01602080910402602001604051908101604052809291908181526020018280546121d39061424f565b80156122205780601f106121f557610100808354040283529160200191612220565b820191906000526020600020905b81548152906001019060200180831161220357829003601f168201915b505050505081526020016001820180546122399061424f565b80601f01602080910402602001604051908101604052809291908181526020018280546122659061424f565b80156122b25780601f10612287576101008083540402835291602001916122b2565b820191906000526020600020905b81548152906001019060200180831161229557829003601f168201915b505050505081526020016002820180546122cb9061424f565b80601f01602080910402602001604051908101604052809291908181526020018280546122f79061424f565b80156123445780601f1061231957610100808354040283529160200191612344565b820191906000526020600020905b81548152906001019060200180831161232757829003601f168201915b5050505050815260200160038201548152602001600482015481526020016005820154815260200160068201548152602001600782015481526020016008820160009054906101000a900460ff161515151581526020016008820160019054906101000a900460ff161515151581526020016008820160029054906101000a900460ff1615151515815250509050600181610140019015159081151581525015612423576040517f08c379a000000000000000000000000000000000000000000000000000000000815260040161241a90613fb5565b60405180910390fd5b600060066000888152602001908152602001600020600001805480602002602001604051908101604052809291908181526020016000905b828210156125b857838290600052602060002090600702016040518060e0016040529081600082015481526020016001820154815260200160028201548152602001600382015481526020016004820160009054906101000a900473ffffffffffffffffffffffffffffffffffffffff1673ffffffffffffffffffffffffffffffffffffffff1673ffffffffffffffffffffffffffffffffffffffff16815260200160058201805461250c9061424f565b80601f01602080910402602001604051908101604052809291908181526020018280546125389061424f565b80156125855780601f1061255a57610100808354040283529160200191612585565b820191906000526020600020905b81548152906001019060200180831161256857829003601f168201915b505050505081526020016006820160009054906101000a900460ff1615151515815250508152602001906001019061245b565b505050509050600061262760146125dd60028660e001516104e390919063ffffffff16565b85608001518660a0015187606001518860c001516125fb91906140a6565b61260591906140a6565b61260f91906140a6565b61261991906140a6565b6104e390919063ffffffff16565b6001600082825461263891906140a6565b9250508190555060005b600183516126509190614187565b8111612aee57600083828151811061266b5761266a61439c565b5b602002602001015160c0019015159081151581525015612adb57600283828151811061269a5761269961439c565b5b602002602001015160200151141561286b576126f960646126eb60556126ce60028960e001516104e390919063ffffffff16565b8860c001516126dd91906140a6565b6132f990919063ffffffff16565b6104e390919063ffffffff16565b91508783828151811061270f5761270e61439c565b5b6020026020010151604001511480156127455750868382815181106127375761273661439c565b5b602002602001015160600151145b1561286657600060078483815181106127615761276061439c565b5b602002602001015160a0015160405161277a9190613dbd565b90815260200160405180910390205490506000818584815181106127a1576127a061439c565b5b602002602001015160000151856127b8919061412d565b6127c291906140fc565b905080600460008786815181106127dc576127db61439c565b5b60200260200101516080015173ffffffffffffffffffffffffffffffffffffffff1673ffffffffffffffffffffffffffffffffffffffff168152602001908152602001600020600082825461283191906140a6565b92505081905550600185848151811061284d5761284c61439c565b5b602002602001015160c001901515908115158152505050505b612ada565b8583828151811061287f5761287e61439c565b5b6020026020010151602001511415612ad9576128fc60646128ee60556128b360028960e001516104e390919063ffffffff16565b88608001518960a001518a606001516128cc91906140a6565b6128d691906140a6565b6128e091906140a6565b6132f990919063ffffffff16565b6104e390919063ffffffff16565b91506000808483815181106129145761291361439c565b5b602002602001015160200151141561295457612951606461294360558860a001516132f990919063ffffffff16565b6104e390919063ffffffff16565b90505b60018483815181106129695761296861439c565b5b60200260200101516020015114156129a9576129a66064612998605588608001516132f990919063ffffffff16565b6104e390919063ffffffff16565b90505b60038483815181106129be576129bd61439c565b5b60200260200101516020015114156129fe576129fb60646129ed605588606001516132f990919063ffffffff16565b6104e390919063ffffffff16565b90505b600081858481518110612a1457612a1361439c565b5b60200260200101516000015185612a2b919061412d565b612a3591906140fc565b90508060046000878681518110612a4f57612a4e61439c565b5b60200260200101516080015173ffffffffffffffffffffffffffffffffffffffff1673ffffffffffffffffffffffffffffffffffffffff1681526020019081526020016000206000828254612aa491906140a6565b925050819055506001858481518110612ac057612abf61439c565b5b602002602001015160c001901515908115158152505050505b5b5b8080612ae6906142b2565b915050612642565b5060018361014001901515908115158152505050505060019050949350505050565b60008060009054906101000a900473ffffffffffffffffffffffffffffffffffffffff1673ffffffffffffffffffffffffffffffffffffffff163373ffffffffffffffffffffffffffffffffffffffff1614612ba1576040517f08c379a0000000000000000000000000000000000000000000000000000000008152600401612b9890613eb5565b60405180910390fd5b81600460008573ffffffffffffffffffffffffffffffffffffffff1673ffffffffffffffffffffffffffffffffffffffff1681526020019081526020016000205410158015612c3057506000600460008573ffffffffffffffffffffffffffffffffffffffff1673ffffffffffffffffffffffffffffffffffffffff1681526020019081526020016000205410155b15612cc65760008390508073ffffffffffffffffffffffffffffffffffffffff166108fc600460008773ffffffffffffffffffffffffffffffffffffffff1673ffffffffffffffffffffffffffffffffffffffff168152602001908152602001600020549081150290604051600060405180830381858888f19350505050158015612cbf573d6000803e3d6000fd5b5050612d01565b6040517f08c379a0000000000000000000000000000000000000000000000000000000008152600401612cf890613f75565b60405180910390fd5b6001905092915050565b6000600460003373ffffffffffffffffffffffffffffffffffffffff1673ffffffffffffffffffffffffffffffffffffffff16815260200190815260200160002054905090565b60606002805480602002602001604051908101604052809291908181526020018280548015612da057602002820191906000526020600020905b815481526020019060010190808311612d8c575b5050505050905090565b606080612db56136be565b612dbe846130d4565b612dfd576040517f08c379a0000000000000000000000000000000000000000000000000000000008152600401612df490613ed5565b60405180910390fd5b6000612edc600560008781526020019081526020016000206000018054612e239061424f565b80601f0160208091040260200160405190810160405280929190818152602001828054612e4f9061424f565b8015612e9c5780601f10612e7157610100808354040283529160200191612e9c565b820191906000526020600020905b815481529060010190602001808311612e7f57829003601f168201915b50505050506040518060400160405280600481526020017f2076732000000000000000000000000000000000000000000000000000000000815250613132565b9050612f8681600560008881526020019081526020016000206001018054612f039061424f565b80601f0160208091040260200160405190810160405280929190818152602001828054612f2f9061424f565b8015612f7c5780601f10612f5157610100808354040283529160200191612f7c565b820191906000526020600020905b815481529060010190602001808311612f5f57829003601f168201915b5050505050613132565b935060006040518060a0016040528060056000898152602001908152602001600020600301548152602001600560008981526020019081526020016000206004015481526020016005600089815260200190815260200160002060050154815260200160056000898152602001908152602001600020600601548152602001600560008981526020019081526020016000206007015481525090508460056000888152602001908152602001600020600201828180546130459061424f565b80601f01602080910402602001604051908101604052809291908181526020018280546130719061424f565b80156130be5780601f10613093576101008083540402835291602001916130be565b820191906000526020600020905b8154815290600101906020018083116130a157829003601f168201915b5050505050915094509450945050509193909250565b60006005600083815260200190815260200160002060080160019054906101000a900460ff169050919050565b606061312b826040516020016131179190613dd4565b60405160208183030381529060405261333e565b9050919050565b60606000839050600083905060008151835161314e91906140a6565b67ffffffffffffffff811115613167576131666143cb565b5b6040519080825280601f01601f1916602001820160405280156131995781602001600182028036833780820191505090505b50905060008190506000805b855181101561322d578581815181106131c1576131c061439c565b5b602001015160f81c60f81b8383806131d8906142b2565b9450815181106131eb576131ea61439c565b5b60200101907effffffffffffffffffffffffffffffffffffffffffffffffffffffffffffff1916908160001a9053508080613225906142b2565b9150506131a5565b5060005b84518110156132b95784818151811061324d5761324c61439c565b5b602001015160f81c60f81b838380613264906142b2565b9450815181106132775761327661439c565b5b60200101907effffffffffffffffffffffffffffffffffffffffffffffffffffffffffffff1916908160001a90535080806132b1906142b2565b915050613231565b50829550505050505092915050565b60606132f2826040516020016132de9190613da2565b60405160208183030381529060405261333e565b9050919050565b60008083141561330c5760009050613338565b6000828461331a919061412d565b905082848261332991906140fc565b1461333357600080fd5b809150505b92915050565b606060006040518060400160405280601081526020017f3031323334353637383961626364656600000000000000000000000000000000815250905060006002845161338a919061412d565b600261339691906140a6565b67ffffffffffffffff8111156133af576133ae6143cb565b5b6040519080825280601f01601f1916602001820160405280156133e15781602001600182028036833780820191505090505b5090507f3000000000000000000000000000000000000000000000000000000000000000816000815181106134195761341861439c565b5b60200101907effffffffffffffffffffffffffffffffffffffffffffffffffffffffffffff1916908160001a9053507f78000000000000000000000000000000000000000000000000000000000000008160018151811061347d5761347c61439c565b5b60200101907effffffffffffffffffffffffffffffffffffffffffffffffffffffffffffff1916908160001a90535060005b845181101561362d578260048683815181106134ce576134cd61439c565b5b602001015160f81c60f81b7effffffffffffffffffffffffffffffffffffffffffffffffffffffffffffff1916901c60f81c60ff16815181106135145761351361439c565b5b602001015160f81c60f81b8260028361352d919061412d565b600261353991906140a6565b8151811061354a5761354961439c565b5b60200101907effffffffffffffffffffffffffffffffffffffffffffffffffffffffffffff1916908160001a90535082600f60f81b8683815181106135925761359161439c565b5b602001015160f81c60f81b1660f81c60ff16815181106135b5576135b461439c565b5b602001015160f81c60f81b826002836135ce919061412d565b60036135da91906140a6565b815181106135eb576135ea61439c565b5b60200101907effffffffffffffffffffffffffffffffffffffffffffffffffffffffffffff1916908160001a9053508080613625906142b2565b9150506134af565b508092505050919050565b8280546136449061424f565b90600052602060002090601f01602090048101928261366657600085556136ad565b82601f1061367f57805160ff19168380011785556136ad565b828001600101855582156136ad579182015b828111156136ac578251825591602001919060010190613691565b5b5090506136ba91906136ed565b5090565b6040518060a0016040528060008152602001600081526020016000815260200160008152602001600081525090565b5b808211156137065760008160009055506001016136ee565b5090565b600061371d61371884614015565b613ff0565b905082815260208101848484011115613739576137386143ff565b5b61374484828561420d565b509392505050565b60008135905061375b81614590565b92915050565b600081359050613770816145a7565b92915050565b600081359050613785816145be565b92915050565b600082601f8301126137a05761379f6143fa565b5b81356137b084826020860161370a565b91505092915050565b6000813590506137c8816145d5565b92915050565b6000602082840312156137e4576137e3614409565b5b60006137f28482850161374c565b91505092915050565b6000806040838503121561381257613811614409565b5b60006138208582860161374c565b925050602061383185828601613776565b9150509250929050565b6000806040838503121561385257613851614409565b5b60006138608582860161374c565b9250506020613871858286016137b9565b9150509250929050565b60008060008060008060c0878903121561389857613897614409565b5b60006138a689828a0161374c565b96505060206138b789828a016137b9565b95505060406138c889828a01613776565b94505060606138d989828a016137b9565b93505060806138ea89828a016137b9565b92505060a06138fb89828a016137b9565b9150509295509295509295565b60006020828403121561391e5761391d614409565b5b600061392c84828501613776565b91505092915050565b6000806040838503121561394c5761394b614409565b5b600061395a85828601613776565b925050602061396b858286016137b9565b9150509250929050565b6000806000806080858703121561398f5761398e614409565b5b600061399d87828801613776565b94505060206139ae878288016137b9565b93505060406139bf878288016137b9565b92505060606139d0878288016137b9565b91505092959194509250565b600080600080608085870312156139f6576139f5614409565b5b600085013567ffffffffffffffff811115613a1457613a13614404565b5b613a208782880161378b565b945050602085013567ffffffffffffffff811115613a4157613a40614404565b5b613a4d8782880161378b565b935050604085013567ffffffffffffffff811115613a6e57613a6d614404565b5b613a7a8782880161378b565b9250506060613a8b87828801613761565b91505092959194509250565b6000613aa38383613b2b565b60208301905092915050565b613ab8816141bb565b82525050565b6000613ac982614056565b613ad38185614079565b9350613ade83614046565b8060005b83811015613b0f578151613af68882613a97565b9750613b018361406c565b925050600181019050613ae2565b5085935050505092915050565b613b25816141cd565b82525050565b613b34816141d9565b82525050565b613b43816141d9565b82525050565b613b5a613b55826141d9565b6142fb565b82525050565b6000613b6b82614061565b613b75818561408a565b9350613b8581856020860161421c565b613b8e8161440e565b840191505092915050565b6000613ba482614061565b613bae818561409b565b9350613bbe81856020860161421c565b80840191505092915050565b6000613bd760198361408a565b9150613be28261441f565b602082019050919050565b6000613bfa60098361408a565b9150613c0582614448565b602082019050919050565b6000613c1d600e8361408a565b9150613c2882614471565b602082019050919050565b6000613c4060178361408a565b9150613c4b8261449a565b602082019050919050565b6000613c63600a8361408a565b9150613c6e826144c3565b602082019050919050565b6000613c8660158361408a565b9150613c91826144ec565b602082019050919050565b6000613ca960158361408a565b9150613cb482614515565b602082019050919050565b6000613ccc60108361408a565b9150613cd78261453e565b602082019050919050565b6000613cef60118361408a565b9150613cfa82614567565b602082019050919050565b60a082016000820151613d1b6000850182613d6d565b506020820151613d2e6020850182613d6d565b506040820151613d416040850182613d6d565b506060820151613d546060850182613d6d565b506080820151613d676080850182613d6d565b50505050565b613d7681614203565b82525050565b613d8581614203565b82525050565b613d9c613d9782614203565b614305565b82525050565b6000613dae8284613b49565b60208201915081905092915050565b6000613dc98284613b99565b915081905092915050565b6000613de08284613d8b565b60208201915081905092915050565b6000604082019050613e046000830185613aaf565b613e116020830184613d7c565b9392505050565b60006020820190508181036000830152613e328184613abe565b905092915050565b6000602082019050613e4f6000830184613b1c565b92915050565b6000602082019050613e6a6000830184613b3a565b92915050565b600060e0820190508181036000830152613e8a8186613b60565b90508181036020830152613e9e8185613b60565b9050613ead6040830184613d05565b949350505050565b60006020820190508181036000830152613ece81613bca565b9050919050565b60006020820190508181036000830152613eee81613bed565b9050919050565b60006020820190508181036000830152613f0e81613c10565b9050919050565b60006020820190508181036000830152613f2e81613c33565b9050919050565b60006020820190508181036000830152613f4e81613c56565b9050919050565b60006020820190508181036000830152613f6e81613c79565b9050919050565b60006020820190508181036000830152613f8e81613c9c565b9050919050565b60006020820190508181036000830152613fae81613cbf565b9050919050565b60006020820190508181036000830152613fce81613ce2565b9050919050565b6000602082019050613fea6000830184613d7c565b92915050565b6000613ffa61400b565b90506140068282614281565b919050565b6000604051905090565b600067ffffffffffffffff8211156140305761402f6143cb565b5b6140398261440e565b9050602081019050919050565b6000819050602082019050919050565b600081519050919050565b600081519050919050565b6000602082019050919050565b600082825260208201905092915050565b600082825260208201905092915050565b600081905092915050565b60006140b182614203565b91506140bc83614203565b9250827fffffffffffffffffffffffffffffffffffffffffffffffffffffffffffffffff038211156140f1576140f061430f565b5b828201905092915050565b600061410782614203565b915061411283614203565b9250826141225761412161433e565b5b828204905092915050565b600061413882614203565b915061414383614203565b9250817fffffffffffffffffffffffffffffffffffffffffffffffffffffffffffffffff048311821515161561417c5761417b61430f565b5b828202905092915050565b600061419282614203565b915061419d83614203565b9250828210156141b0576141af61430f565b5b828203905092915050565b60006141c6826141e3565b9050919050565b60008115159050919050565b6000819050919050565b600073ffffffffffffffffffffffffffffffffffffffff82169050919050565b6000819050919050565b82818337600083830152505050565b60005b8381101561423a57808201518184015260208101905061421f565b83811115614249576000848401525b50505050565b6000600282049050600182168061426757607f821691505b6020821081141561427b5761427a61436d565b5b50919050565b61428a8261440e565b810181811067ffffffffffffffff821117156142a9576142a86143cb565b5b80604052505050565b60006142bd82614203565b91507fffffffffffffffffffffffffffffffffffffffffffffffffffffffffffffffff8214156142f0576142ef61430f565b5b600182019050919050565b6000819050919050565b6000819050919050565b7f4e487b7100000000000000000000000000000000000000000000000000000000600052601160045260246000fd5b7f4e487b7100000000000000000000000000000000000000000000000000000000600052601260045260246000fd5b7f4e487b7100000000000000000000000000000000000000000000000000000000600052602260045260246000fd5b7f4e487b7100000000000000000000000000000000000000000000000000000000600052603260045260246000fd5b7f4e487b7100000000000000000000000000000000000000000000000000000000600052604160045260246000fd5b600080fd5b600080fd5b600080fd5b600080fd5b6000601f19601f8301169050919050565b7f4f6e6c79206f776e65722063616e2063616c6c20746869732e00000000000000600082015250565b7f6e6f742065786973740000000000000000000000000000000000000000000000600082015250565b7f706f6f6c206e6f74206578697374000000000000000000000000000000000000600082015250565b7f706f6f6c20626173616c20686173206265656e20736574000000000000000000600082015250565b7f7061697220657869737400000000000000000000000000000000000000000000600082015250565b7f706f6f6c20686173206e6f742066696e69736865640000000000000000000000600082015250565b7f6e6f7420656e6f75676820766f7465416d6f756e740000000000000000000000600082015250565b7f6e6f7420656e6f75676820626173616c00000000000000000000000000000000600082015250565b7f706f6f6c206861732066696e6973686564000000000000000000000000000000600082015250565b614599816141bb565b81146145a457600080fd5b50565b6145b0816141cd565b81146145bb57600080fd5b50565b6145c7816141d9565b81146145d257600080fd5b50565b6145de81614203565b81146145e957600080fd5b5056fea264697066735822122029bfa09665a80be91daa760ae855f5fa73401dcea359bcf17b2222f293d5765864736f6c63430008070033",
					"opcodes": "PUSH1 0x80 PUSH1 0x40 MSTORE CALLVALUE DUP1 ISZERO PUSH3 0x11 JUMPI PUSH1 0x0 DUP1 REVERT JUMPDEST POP PUSH1 0x40 MLOAD PUSH3 0x47AC CODESIZE SUB DUP1 PUSH3 0x47AC DUP4 CODECOPY DUP2 DUP2 ADD PUSH1 0x40 MSTORE DUP2 ADD SWAP1 PUSH3 0x37 SWAP2 SWAP1 PUSH3 0xBC JUMP JUMPDEST DUP2 PUSH1 0x0 DUP1 PUSH2 0x100 EXP DUP2 SLOAD DUP2 PUSH20 0xFFFFFFFFFFFFFFFFFFFFFFFFFFFFFFFFFFFFFFFF MUL NOT AND SWAP1 DUP4 PUSH20 0xFFFFFFFFFFFFFFFFFFFFFFFFFFFFFFFFFFFFFFFF AND MUL OR SWAP1 SSTORE POP PUSH1 0x0 PUSH1 0x3 DUP2 SWAP1 SSTORE POP DUP1 PUSH1 0x1 DUP2 SWAP1 SSTORE POP POP POP PUSH3 0x17A JUMP JUMPDEST PUSH1 0x0 DUP2 MLOAD SWAP1 POP PUSH3 0x9F DUP2 PUSH3 0x146 JUMP JUMPDEST SWAP3 SWAP2 POP POP JUMP JUMPDEST PUSH1 0x0 DUP2 MLOAD SWAP1 POP PUSH3 0xB6 DUP2 PUSH3 0x160 JUMP JUMPDEST SWAP3 SWAP2 POP POP JUMP JUMPDEST PUSH1 0x0 DUP1 PUSH1 0x40 DUP4 DUP6 SUB SLT ISZERO PUSH3 0xD6 JUMPI PUSH3 0xD5 PUSH3 0x141 JUMP JUMPDEST JUMPDEST PUSH1 0x0 PUSH3 0xE6 DUP6 DUP3 DUP7 ADD PUSH3 0x8E JUMP JUMPDEST SWAP3 POP POP PUSH1 0x20 PUSH3 0xF9 DUP6 DUP3 DUP7 ADD PUSH3 0xA5 JUMP JUMPDEST SWAP2 POP POP SWAP3 POP SWAP3 SWAP1 POP JUMP JUMPDEST PUSH1 0x0 PUSH3 0x110 DUP3 PUSH3 0x117 JUMP JUMPDEST SWAP1 POP SWAP2 SWAP1 POP JUMP JUMPDEST PUSH1 0x0 PUSH20 0xFFFFFFFFFFFFFFFFFFFFFFFFFFFFFFFFFFFFFFFF DUP3 AND SWAP1 POP SWAP2 SWAP1 POP JUMP JUMPDEST PUSH1 0x0 DUP2 SWAP1 POP SWAP2 SWAP1 POP JUMP JUMPDEST PUSH1 0x0 DUP1 REVERT JUMPDEST PUSH3 0x151 DUP2 PUSH3 0x103 JUMP JUMPDEST DUP2 EQ PUSH3 0x15D JUMPI PUSH1 0x0 DUP1 REVERT JUMPDEST POP JUMP JUMPDEST PUSH3 0x16B DUP2 PUSH3 0x137 JUMP JUMPDEST DUP2 EQ PUSH3 0x177 JUMPI PUSH1 0x0 DUP1 REVERT JUMPDEST POP JUMP JUMPDEST PUSH2 0x4622 DUP1 PUSH3 0x18A PUSH1 0x0 CODECOPY PUSH1 0x0 RETURN INVALID PUSH1 0x80 PUSH1 0x40 MSTORE PUSH1 0x4 CALLDATASIZE LT PUSH2 0xE1 JUMPI PUSH1 0x0 CALLDATALOAD PUSH1 0xE0 SHR DUP1 PUSH4 0x4121855F GT PUSH2 0x7F JUMPI DUP1 PUSH4 0x9BD0ABF1 GT PUSH2 0x59 JUMPI DUP1 PUSH4 0x9BD0ABF1 EQ PUSH2 0x41E JUMPI DUP1 PUSH4 0xBAF41269 EQ PUSH2 0x44E JUMPI DUP1 PUSH4 0xEA8870C0 EQ PUSH2 0x479 JUMPI DUP1 PUSH4 0xF6C00927 EQ PUSH2 0x4A4 JUMPI PUSH2 0x202 JUMP JUMPDEST DUP1 PUSH4 0x4121855F EQ PUSH2 0x374 JUMPI DUP1 PUSH4 0x47E4DD27 EQ PUSH2 0x3B1 JUMPI DUP1 PUSH4 0x74FE9BC2 EQ PUSH2 0x3EE JUMPI PUSH2 0x202 JUMP JUMPDEST DUP1 PUSH4 0x2775E02C GT PUSH2 0xBB JUMPI DUP1 PUSH4 0x2775E02C EQ PUSH2 0x29F JUMPI DUP1 PUSH4 0x2BF21ECC EQ PUSH2 0x2CF JUMPI DUP1 PUSH4 0x357965BA EQ PUSH2 0x30C JUMPI DUP1 PUSH4 0x3E6FF1A2 EQ PUSH2 0x349 JUMPI PUSH2 0x202 JUMP JUMPDEST DUP1 PUSH4 0xC66B373 EQ PUSH2 0x207 JUMPI DUP1 PUSH4 0xCE49053 EQ PUSH2 0x232 JUMPI DUP1 PUSH4 0x22D8325C EQ PUSH2 0x262 JUMPI PUSH2 0x202 JUMP JUMPDEST CALLDATASIZE PUSH2 0x202 JUMPI PUSH1 0x0 DUP1 SLOAD SWAP1 PUSH2 0x100 EXP SWAP1 DIV PUSH20 0xFFFFFFFFFFFFFFFFFFFFFFFFFFFFFFFFFFFFFFFF AND PUSH20 0xFFFFFFFFFFFFFFFFFFFFFFFFFFFFFFFFFFFFFFFF AND CALLER PUSH20 0xFFFFFFFFFFFFFFFFFFFFFFFFFFFFFFFFFFFFFFFF AND EQ PUSH2 0x1FF JUMPI PUSH2 0x153 PUSH7 0x2386F26FC10000 CALLVALUE PUSH2 0x4E3 SWAP1 SWAP2 SWAP1 PUSH4 0xFFFFFFFF AND JUMP JUMPDEST PUSH1 0x4 PUSH1 0x0 CALLER PUSH20 0xFFFFFFFFFFFFFFFFFFFFFFFFFFFFFFFFFFFFFFFF AND PUSH20 0xFFFFFFFFFFFFFFFFFFFFFFFFFFFFFFFFFFFFFFFF AND DUP2 MSTORE PUSH1 0x20 ADD SWAP1 DUP2 MSTORE PUSH1 0x20 ADD PUSH1 0x0 KECCAK256 PUSH1 0x0 DUP3 DUP3 SLOAD PUSH2 0x1A1 SWAP2 SWAP1 PUSH2 0x40A6 JUMP JUMPDEST SWAP3 POP POP DUP2 SWAP1 SSTORE POP CALLVALUE PUSH1 0x3 PUSH1 0x0 DUP3 DUP3 SLOAD PUSH2 0x1BA SWAP2 SWAP1 PUSH2 0x40A6 JUMP JUMPDEST SWAP3 POP POP DUP2 SWAP1 SSTORE POP PUSH32 0x88A5966D370B9919B20F3E2C13FF65706F196A4E32CC2C12BF57088F88525874 CALLER CALLVALUE PUSH1 0x40 MLOAD PUSH2 0x1F2 SWAP3 SWAP2 SWAP1 PUSH2 0x3DEF JUMP JUMPDEST PUSH1 0x40 MLOAD DUP1 SWAP2 SUB SWAP1 LOG1 PUSH2 0x200 JUMP JUMPDEST JUMPDEST STOP JUMPDEST PUSH1 0x0 DUP1 REVERT JUMPDEST CALLVALUE DUP1 ISZERO PUSH2 0x213 JUMPI PUSH1 0x0 DUP1 REVERT JUMPDEST POP PUSH2 0x21C PUSH2 0x50B JUMP JUMPDEST PUSH1 0x40 MLOAD PUSH2 0x229 SWAP2 SWAP1 PUSH2 0x3FD5 JUMP JUMPDEST PUSH1 0x40 MLOAD DUP1 SWAP2 SUB SWAP1 RETURN JUMPDEST PUSH2 0x24C PUSH1 0x4 DUP1 CALLDATASIZE SUB DUP2 ADD SWAP1 PUSH2 0x247 SWAP2 SWAP1 PUSH2 0x37FB JUMP JUMPDEST PUSH2 0x5A4 JUMP JUMPDEST PUSH1 0x40 MLOAD PUSH2 0x259 SWAP2 SWAP1 PUSH2 0x3E3A JUMP JUMPDEST PUSH1 0x40 MLOAD DUP1 SWAP2 SUB SWAP1 RETURN JUMPDEST CALLVALUE DUP1 ISZERO PUSH2 0x26E JUMPI PUSH1 0x0 DUP1 REVERT JUMPDEST POP PUSH2 0x289 PUSH1 0x4 DUP1 CALLDATASIZE SUB DUP2 ADD SWAP1 PUSH2 0x284 SWAP2 SWAP1 PUSH2 0x387B JUMP JUMPDEST PUSH2 0x9E0 JUMP JUMPDEST PUSH1 0x40 MLOAD PUSH2 0x296 SWAP2 SWAP1 PUSH2 0x3E3A JUMP JUMPDEST PUSH1 0x40 MLOAD DUP1 SWAP2 SUB SWAP1 RETURN JUMPDEST PUSH2 0x2B9 PUSH1 0x4 DUP1 CALLDATASIZE SUB DUP2 ADD SWAP1 PUSH2 0x2B4 SWAP2 SWAP1 PUSH2 0x37CE JUMP JUMPDEST PUSH2 0xD36 JUMP JUMPDEST PUSH1 0x40 MLOAD PUSH2 0x2C6 SWAP2 SWAP1 PUSH2 0x3E3A JUMP JUMPDEST PUSH1 0x40 MLOAD DUP1 SWAP2 SUB SWAP1 RETURN JUMPDEST CALLVALUE DUP1 ISZERO PUSH2 0x2DB JUMPI PUSH1 0x0 DUP1 REVERT JUMPDEST POP PUSH2 0x2F6 PUSH1 0x4 DUP1 CALLDATASIZE SUB DUP2 ADD SWAP1 PUSH2 0x2F1 SWAP2 SWAP1 PUSH2 0x3935 JUMP JUMPDEST PUSH2 0xE2B JUMP JUMPDEST PUSH1 0x40 MLOAD PUSH2 0x303 SWAP2 SWAP1 PUSH2 0x3E3A JUMP JUMPDEST PUSH1 0x40 MLOAD DUP1 SWAP2 SUB SWAP1 RETURN JUMPDEST CALLVALUE DUP1 ISZERO PUSH2 0x318 JUMPI PUSH1 0x0 DUP1 REVERT JUMPDEST POP PUSH2 0x333 PUSH1 0x4 DUP1 CALLDATASIZE SUB DUP2 ADD SWAP1 PUSH2 0x32E SWAP2 SWAP1 PUSH2 0x39DC JUMP JUMPDEST PUSH2 0x122A JUMP JUMPDEST PUSH1 0x40 MLOAD PUSH2 0x340 SWAP2 SWAP1 PUSH2 0x3E55 JUMP JUMPDEST PUSH1 0x40 MLOAD DUP1 SWAP2 SUB SWAP1 RETURN JUMPDEST CALLVALUE DUP1 ISZERO PUSH2 0x355 JUMPI PUSH1 0x0 DUP1 REVERT JUMPDEST POP PUSH2 0x35E PUSH2 0x151B JUMP JUMPDEST PUSH1 0x40 MLOAD PUSH2 0x36B SWAP2 SWAP1 PUSH2 0x3FD5 JUMP JUMPDEST PUSH1 0x40 MLOAD DUP1 SWAP2 SUB SWAP1 RETURN JUMPDEST CALLVALUE DUP1 ISZERO PUSH2 0x380 JUMPI PUSH1 0x0 DUP1 REVERT JUMPDEST POP PUSH2 0x39B PUSH1 0x4 DUP1 CALLDATASIZE SUB DUP2 ADD SWAP1 PUSH2 0x396 SWAP2 SWAP1 PUSH2 0x3908 JUMP JUMPDEST PUSH2 0x15B4 JUMP JUMPDEST PUSH1 0x40 MLOAD PUSH2 0x3A8 SWAP2 SWAP1 PUSH2 0x3FD5 JUMP JUMPDEST PUSH1 0x40 MLOAD DUP1 SWAP2 SUB SWAP1 RETURN JUMPDEST CALLVALUE DUP1 ISZERO PUSH2 0x3BD JUMPI PUSH1 0x0 DUP1 REVERT JUMPDEST POP PUSH2 0x3D8 PUSH1 0x4 DUP1 CALLDATASIZE SUB DUP2 ADD SWAP1 PUSH2 0x3D3 SWAP2 SWAP1 PUSH2 0x387B JUMP JUMPDEST PUSH2 0x194B JUMP JUMPDEST PUSH1 0x40 MLOAD PUSH2 0x3E5 SWAP2 SWAP1 PUSH2 0x3E3A JUMP JUMPDEST PUSH1 0x40 MLOAD DUP1 SWAP2 SUB SWAP1 RETURN JUMPDEST PUSH2 0x408 PUSH1 0x4 DUP1 CALLDATASIZE SUB DUP2 ADD SWAP1 PUSH2 0x403 SWAP2 SWAP1 PUSH2 0x3975 JUMP JUMPDEST PUSH2 0x209D JUMP JUMPDEST PUSH1 0x40 MLOAD PUSH2 0x415 SWAP2 SWAP1 PUSH2 0x3E3A JUMP JUMPDEST PUSH1 0x40 MLOAD DUP1 SWAP2 SUB SWAP1 RETURN JUMPDEST PUSH2 0x438 PUSH1 0x4 DUP1 CALLDATASIZE SUB DUP2 ADD SWAP1 PUSH2 0x433 SWAP2 SWAP1 PUSH2 0x383B JUMP JUMPDEST PUSH2 0x2B10 JUMP JUMPDEST PUSH1 0x40 MLOAD PUSH2 0x445 SWAP2 SWAP1 PUSH2 0x3E3A JUMP JUMPDEST PUSH1 0x40 MLOAD DUP1 SWAP2 SUB SWAP1 RETURN JUMPDEST CALLVALUE DUP1 ISZERO PUSH2 0x45A JUMPI PUSH1 0x0 DUP1 REVERT JUMPDEST POP PUSH2 0x463 PUSH2 0x2D0B JUMP JUMPDEST PUSH1 0x40 MLOAD PUSH2 0x470 SWAP2 SWAP1 PUSH2 0x3FD5 JUMP JUMPDEST PUSH1 0x40 MLOAD DUP1 SWAP2 SUB SWAP1 RETURN JUMPDEST CALLVALUE DUP1 ISZERO PUSH2 0x485 JUMPI PUSH1 0x0 DUP1 REVERT JUMPDEST POP PUSH2 0x48E PUSH2 0x2D52 JUMP JUMPDEST PUSH1 0x40 MLOAD PUSH2 0x49B SWAP2 SWAP1 PUSH2 0x3E18 JUMP JUMPDEST PUSH1 0x40 MLOAD DUP1 SWAP2 SUB SWAP1 RETURN JUMPDEST CALLVALUE DUP1 ISZERO PUSH2 0x4B0 JUMPI PUSH1 0x0 DUP1 REVERT JUMPDEST POP PUSH2 0x4CB PUSH1 0x4 DUP1 CALLDATASIZE SUB DUP2 ADD SWAP1 PUSH2 0x4C6 SWAP2 SWAP1 PUSH2 0x3908 JUMP JUMPDEST PUSH2 0x2DAA JUMP JUMPDEST PUSH1 0x40 MLOAD PUSH2 0x4DA SWAP4 SWAP3 SWAP2 SWAP1 PUSH2 0x3E70 JUMP JUMPDEST PUSH1 0x40 MLOAD DUP1 SWAP2 SUB SWAP1 RETURN JUMPDEST PUSH1 0x0 DUP1 DUP3 GT PUSH2 0x4F1 JUMPI PUSH1 0x0 DUP1 REVERT JUMPDEST PUSH1 0x0 DUP3 DUP5 PUSH2 0x4FF SWAP2 SWAP1 PUSH2 0x40FC JUMP JUMPDEST SWAP1 POP DUP1 SWAP2 POP POP SWAP3 SWAP2 POP POP JUMP JUMPDEST PUSH1 0x0 DUP1 PUSH1 0x0 SWAP1 SLOAD SWAP1 PUSH2 0x100 EXP SWAP1 DIV PUSH20 0xFFFFFFFFFFFFFFFFFFFFFFFFFFFFFFFFFFFFFFFF AND PUSH20 0xFFFFFFFFFFFFFFFFFFFFFFFFFFFFFFFFFFFFFFFF AND CALLER PUSH20 0xFFFFFFFFFFFFFFFFFFFFFFFFFFFFFFFFFFFFFFFF AND EQ PUSH2 0x59C JUMPI PUSH1 0x40 MLOAD PUSH32 0x8C379A000000000000000000000000000000000000000000000000000000000 DUP2 MSTORE PUSH1 0x4 ADD PUSH2 0x593 SWAP1 PUSH2 0x3EB5 JUMP JUMPDEST PUSH1 0x40 MLOAD DUP1 SWAP2 SUB SWAP1 REVERT JUMPDEST PUSH1 0x3 SLOAD SWAP1 POP SWAP1 JUMP JUMPDEST PUSH1 0x0 DUP1 PUSH1 0x0 SWAP1 SLOAD SWAP1 PUSH2 0x100 EXP SWAP1 DIV PUSH20 0xFFFFFFFFFFFFFFFFFFFFFFFFFFFFFFFFFFFFFFFF AND PUSH20 0xFFFFFFFFFFFFFFFFFFFFFFFFFFFFFFFFFFFFFFFF AND CALLER PUSH20 0xFFFFFFFFFFFFFFFFFFFFFFFFFFFFFFFFFFFFFFFF AND EQ PUSH2 0x635 JUMPI PUSH1 0x40 MLOAD PUSH32 0x8C379A000000000000000000000000000000000000000000000000000000000 DUP2 MSTORE PUSH1 0x4 ADD PUSH2 0x62C SWAP1 PUSH2 0x3EB5 JUMP JUMPDEST PUSH1 0x40 MLOAD DUP1 SWAP2 SUB SWAP1 REVERT JUMPDEST PUSH2 0x63E DUP3 PUSH2 0x30D4 JUMP JUMPDEST PUSH2 0x67D JUMPI PUSH1 0x40 MLOAD PUSH32 0x8C379A000000000000000000000000000000000000000000000000000000000 DUP2 MSTORE PUSH1 0x4 ADD PUSH2 0x674 SWAP1 PUSH2 0x3EF5 JUMP JUMPDEST PUSH1 0x40 MLOAD DUP1 SWAP2 SUB SWAP1 REVERT JUMPDEST PUSH1 0x0 PUSH1 0x5 PUSH1 0x0 DUP5 DUP2 MSTORE PUSH1 0x20 ADD SWAP1 DUP2 MSTORE PUSH1 0x20 ADD PUSH1 0x0 KECCAK256 PUSH1 0x40 MLOAD DUP1 PUSH2 0x160 ADD PUSH1 0x40 MSTORE SWAP1 DUP2 PUSH1 0x0 DUP3 ADD DUP1 SLOAD PUSH2 0x6AE SWAP1 PUSH2 0x424F JUMP JUMPDEST DUP1 PUSH1 0x1F ADD PUSH1 0x20 DUP1 SWAP2 DIV MUL PUSH1 0x20 ADD PUSH1 0x40 MLOAD SWAP1 DUP2 ADD PUSH1 0x40 MSTORE DUP1 SWAP3 SWAP2 SWAP1 DUP2 DUP2 MSTORE PUSH1 0x20 ADD DUP3 DUP1 SLOAD PUSH2 0x6DA SWAP1 PUSH2 0x424F JUMP JUMPDEST DUP1 ISZERO PUSH2 0x727 JUMPI DUP1 PUSH1 0x1F LT PUSH2 0x6FC JUMPI PUSH2 0x100 DUP1 DUP4 SLOAD DIV MUL DUP4 MSTORE SWAP2 PUSH1 0x20 ADD SWAP2 PUSH2 0x727 JUMP JUMPDEST DUP3 ADD SWAP2 SWAP1 PUSH1 0x0 MSTORE PUSH1 0x20 PUSH1 0x0 KECCAK256 SWAP1 JUMPDEST DUP2 SLOAD DUP2 MSTORE SWAP1 PUSH1 0x1 ADD SWAP1 PUSH1 0x20 ADD DUP1 DUP4 GT PUSH2 0x70A JUMPI DUP3 SWAP1 SUB PUSH1 0x1F AND DUP3 ADD SWAP2 JUMPDEST POP POP POP POP POP DUP2 MSTORE PUSH1 0x20 ADD PUSH1 0x1 DUP3 ADD DUP1 SLOAD PUSH2 0x740 SWAP1 PUSH2 0x424F JUMP JUMPDEST DUP1 PUSH1 0x1F ADD PUSH1 0x20 DUP1 SWAP2 DIV MUL PUSH1 0x20 ADD PUSH1 0x40 MLOAD SWAP1 DUP2 ADD PUSH1 0x40 MSTORE DUP1 SWAP3 SWAP2 SWAP1 DUP2 DUP2 MSTORE PUSH1 0x20 ADD DUP3 DUP1 SLOAD PUSH2 0x76C SWAP1 PUSH2 0x424F JUMP JUMPDEST DUP1 ISZERO PUSH2 0x7B9 JUMPI DUP1 PUSH1 0x1F LT PUSH2 0x78E JUMPI PUSH2 0x100 DUP1 DUP4 SLOAD DIV MUL DUP4 MSTORE SWAP2 PUSH1 0x20 ADD SWAP2 PUSH2 0x7B9 JUMP JUMPDEST DUP3 ADD SWAP2 SWAP1 PUSH1 0x0 MSTORE PUSH1 0x20 PUSH1 0x0 KECCAK256 SWAP1 JUMPDEST DUP2 SLOAD DUP2 MSTORE SWAP1 PUSH1 0x1 ADD SWAP1 PUSH1 0x20 ADD DUP1 DUP4 GT PUSH2 0x79C JUMPI DUP3 SWAP1 SUB PUSH1 0x1F AND DUP3 ADD SWAP2 JUMPDEST POP POP POP POP POP DUP2 MSTORE PUSH1 0x20 ADD PUSH1 0x2 DUP3 ADD DUP1 SLOAD PUSH2 0x7D2 SWAP1 PUSH2 0x424F JUMP JUMPDEST DUP1 PUSH1 0x1F ADD PUSH1 0x20 DUP1 SWAP2 DIV MUL PUSH1 0x20 ADD PUSH1 0x40 MLOAD SWAP1 DUP2 ADD PUSH1 0x40 MSTORE DUP1 SWAP3 SWAP2 SWAP1 DUP2 DUP2 MSTORE PUSH1 0x20 ADD DUP3 DUP1 SLOAD PUSH2 0x7FE SWAP1 PUSH2 0x424F JUMP JUMPDEST DUP1 ISZERO PUSH2 0x84B JUMPI DUP1 PUSH1 0x1F LT PUSH2 0x820 JUMPI PUSH2 0x100 DUP1 DUP4 SLOAD DIV MUL DUP4 MSTORE SWAP2 PUSH1 0x20 ADD SWAP2 PUSH2 0x84B JUMP JUMPDEST DUP3 ADD SWAP2 SWAP1 PUSH1 0x0 MSTORE PUSH1 0x20 PUSH1 0x0 KECCAK256 SWAP1 JUMPDEST DUP2 SLOAD DUP2 MSTORE SWAP1 PUSH1 0x1 ADD SWAP1 PUSH1 0x20 ADD DUP1 DUP4 GT PUSH2 0x82E JUMPI DUP3 SWAP1 SUB PUSH1 0x1F AND DUP3 ADD SWAP2 JUMPDEST POP POP POP POP POP DUP2 MSTORE PUSH1 0x20 ADD PUSH1 0x3 DUP3 ADD SLOAD DUP2 MSTORE PUSH1 0x20 ADD PUSH1 0x4 DUP3 ADD SLOAD DUP2 MSTORE PUSH1 0x20 ADD PUSH1 0x5 DUP3 ADD SLOAD DUP2 MSTORE PUSH1 0x20 ADD PUSH1 0x6 DUP3 ADD SLOAD DUP2 MSTORE PUSH1 0x20 ADD PUSH1 0x7 DUP3 ADD SLOAD DUP2 MSTORE PUSH1 0x20 ADD PUSH1 0x8 DUP3 ADD PUSH1 0x0 SWAP1 SLOAD SWAP1 PUSH2 0x100 EXP SWAP1 DIV PUSH1 0xFF AND ISZERO ISZERO ISZERO ISZERO DUP2 MSTORE PUSH1 0x20 ADD PUSH1 0x8 DUP3 ADD PUSH1 0x1 SWAP1 SLOAD SWAP1 PUSH2 0x100 EXP SWAP1 DIV PUSH1 0xFF AND ISZERO ISZERO ISZERO ISZERO DUP2 MSTORE PUSH1 0x20 ADD PUSH1 0x8 DUP3 ADD PUSH1 0x2 SWAP1 SLOAD SWAP1 PUSH2 0x100 EXP SWAP1 DIV PUSH1 0xFF AND ISZERO ISZERO ISZERO ISZERO DUP2 MSTORE POP POP SWAP1 POP PUSH1 0x0 PUSH2 0x92F PUSH1 0xA DUP4 PUSH1 0xE0 ADD MLOAD DUP5 PUSH1 0xC0 ADD MLOAD DUP6 PUSH1 0x80 ADD MLOAD DUP7 PUSH1 0xA0 ADD MLOAD DUP8 PUSH1 0x60 ADD MLOAD PUSH2 0x903 SWAP2 SWAP1 PUSH2 0x40A6 JUMP JUMPDEST PUSH2 0x90D SWAP2 SWAP1 PUSH2 0x40A6 JUMP JUMPDEST PUSH2 0x917 SWAP2 SWAP1 PUSH2 0x40A6 JUMP JUMPDEST PUSH2 0x921 SWAP2 SWAP1 PUSH2 0x40A6 JUMP JUMPDEST PUSH2 0x4E3 SWAP1 SWAP2 SWAP1 PUSH4 0xFFFFFFFF AND JUMP JUMPDEST SWAP1 POP PUSH1 0x1 DUP3 PUSH2 0x140 ADD SWAP1 ISZERO ISZERO SWAP1 DUP2 ISZERO ISZERO DUP2 MSTORE POP ISZERO PUSH2 0x999 JUMPI PUSH1 0x0 DUP6 SWAP1 POP DUP1 PUSH20 0xFFFFFFFFFFFFFFFFFFFFFFFFFFFFFFFFFFFFFFFF AND PUSH2 0x8FC DUP4 SWAP1 DUP2 ISZERO MUL SWAP1 PUSH1 0x40 MLOAD PUSH1 0x0 PUSH1 0x40 MLOAD DUP1 DUP4 SUB DUP2 DUP6 DUP9 DUP9 CALL SWAP4 POP POP POP POP ISZERO DUP1 ISZERO PUSH2 0x992 JUMPI RETURNDATASIZE PUSH1 0x0 DUP1 RETURNDATACOPY RETURNDATASIZE PUSH1 0x0 REVERT JUMPDEST POP POP PUSH2 0x9D4 JUMP JUMPDEST PUSH1 0x40 MLOAD PUSH32 0x8C379A000000000000000000000000000000000000000000000000000000000 DUP2 MSTORE PUSH1 0x4 ADD PUSH2 0x9CB SWAP1 PUSH2 0x3F55 JUMP JUMPDEST PUSH1 0x40 MLOAD DUP1 SWAP2 SUB SWAP1 REVERT JUMPDEST POP POP PUSH1 0x1 SWAP1 POP SWAP3 SWAP2 POP POP JUMP JUMPDEST PUSH1 0x0 PUSH2 0x9EB DUP6 PUSH2 0x30D4 JUMP JUMPDEST PUSH2 0xA2A JUMPI PUSH1 0x40 MLOAD PUSH32 0x8C379A000000000000000000000000000000000000000000000000000000000 DUP2 MSTORE PUSH1 0x4 ADD PUSH2 0xA21 SWAP1 PUSH2 0x3EF5 JUMP JUMPDEST PUSH1 0x40 MLOAD DUP1 SWAP2 SUB SWAP1 REVERT JUMPDEST DUP6 PUSH1 0x4 PUSH1 0x0 DUP10 PUSH20 0xFFFFFFFFFFFFFFFFFFFFFFFFFFFFFFFFFFFFFFFF AND PUSH20 0xFFFFFFFFFFFFFFFFFFFFFFFFFFFFFFFFFFFFFFFF AND DUP2 MSTORE PUSH1 0x20 ADD SWAP1 DUP2 MSTORE PUSH1 0x20 ADD PUSH1 0x0 KECCAK256 SLOAD LT ISZERO PUSH2 0xAAC JUMPI PUSH1 0x40 MLOAD PUSH32 0x8C379A000000000000000000000000000000000000000000000000000000000 DUP2 MSTORE PUSH1 0x4 ADD PUSH2 0xAA3 SWAP1 PUSH2 0x3F75 JUMP JUMPDEST PUSH1 0x40 MLOAD DUP1 SWAP2 SUB SWAP1 REVERT JUMPDEST PUSH1 0x0 PUSH1 0x5 PUSH1 0x0 DUP8 DUP2 MSTORE PUSH1 0x20 ADD SWAP1 DUP2 MSTORE PUSH1 0x20 ADD PUSH1 0x0 KECCAK256 PUSH1 0x40 MLOAD DUP1 PUSH2 0x160 ADD PUSH1 0x40 MSTORE SWAP1 DUP2 PUSH1 0x0 DUP3 ADD DUP1 SLOAD PUSH2 0xADD SWAP1 PUSH2 0x424F JUMP JUMPDEST DUP1 PUSH1 0x1F ADD PUSH1 0x20 DUP1 SWAP2 DIV MUL PUSH1 0x20 ADD PUSH1 0x40 MLOAD SWAP1 DUP2 ADD PUSH1 0x40 MSTORE DUP1 SWAP3 SWAP2 SWAP1 DUP2 DUP2 MSTORE PUSH1 0x20 ADD DUP3 DUP1 SLOAD PUSH2 0xB09 SWAP1 PUSH2 0x424F JUMP JUMPDEST DUP1 ISZERO PUSH2 0xB56 JUMPI DUP1 PUSH1 0x1F LT PUSH2 0xB2B JUMPI PUSH2 0x100 DUP1 DUP4 SLOAD DIV MUL DUP4 MSTORE SWAP2 PUSH1 0x20 ADD SWAP2 PUSH2 0xB56 JUMP JUMPDEST DUP3 ADD SWAP2 SWAP1 PUSH1 0x0 MSTORE PUSH1 0x20 PUSH1 0x0 KECCAK256 SWAP1 JUMPDEST DUP2 SLOAD DUP2 MSTORE SWAP1 PUSH1 0x1 ADD SWAP1 PUSH1 0x20 ADD DUP1 DUP4 GT PUSH2 0xB39 JUMPI DUP3 SWAP1 SUB PUSH1 0x1F AND DUP3 ADD SWAP2 JUMPDEST POP POP POP POP POP DUP2 MSTORE PUSH1 0x20 ADD PUSH1 0x1 DUP3 ADD DUP1 SLOAD PUSH2 0xB6F SWAP1 PUSH2 0x424F JUMP JUMPDEST DUP1 PUSH1 0x1F ADD PUSH1 0x20 DUP1 SWAP2 DIV MUL PUSH1 0x20 ADD PUSH1 0x40 MLOAD SWAP1 DUP2 ADD PUSH1 0x40 MSTORE DUP1 SWAP3 SWAP2 SWAP1 DUP2 DUP2 MSTORE PUSH1 0x20 ADD DUP3 DUP1 SLOAD PUSH2 0xB9B SWAP1 PUSH2 0x424F JUMP JUMPDEST DUP1 ISZERO PUSH2 0xBE8 JUMPI DUP1 PUSH1 0x1F LT PUSH2 0xBBD JUMPI PUSH2 0x100 DUP1 DUP4 SLOAD DIV MUL DUP4 MSTORE SWAP2 PUSH1 0x20 ADD SWAP2 PUSH2 0xBE8 JUMP JUMPDEST DUP3 ADD SWAP2 SWAP1 PUSH1 0x0 MSTORE PUSH1 0x20 PUSH1 0x0 KECCAK256 SWAP1 JUMPDEST DUP2 SLOAD DUP2 MSTORE SWAP1 PUSH1 0x1 ADD SWAP1 PUSH1 0x20 ADD DUP1 DUP4 GT PUSH2 0xBCB JUMPI DUP3 SWAP1 SUB PUSH1 0x1F AND DUP3 ADD SWAP2 JUMPDEST POP POP POP POP POP DUP2 MSTORE PUSH1 0x20 ADD PUSH1 0x2 DUP3 ADD DUP1 SLOAD PUSH2 0xC01 SWAP1 PUSH2 0x424F JUMP JUMPDEST DUP1 PUSH1 0x1F ADD PUSH1 0x20 DUP1 SWAP2 DIV MUL PUSH1 0x20 ADD PUSH1 0x40 MLOAD SWAP1 DUP2 ADD PUSH1 0x40 MSTORE DUP1 SWAP3 SWAP2 SWAP1 DUP2 DUP2 MSTORE PUSH1 0x20 ADD DUP3 DUP1 SLOAD PUSH2 0xC2D SWAP1 PUSH2 0x424F JUMP JUMPDEST DUP1 ISZERO PUSH2 0xC7A JUMPI DUP1 PUSH1 0x1F LT PUSH2 0xC4F JUMPI PUSH2 0x100 DUP1 DUP4 SLOAD DIV MUL DUP4 MSTORE SWAP2 PUSH1 0x20 ADD SWAP2 PUSH2 0xC7A JUMP JUMPDEST DUP3 ADD SWAP2 SWAP1 PUSH1 0x0 MSTORE PUSH1 0x20 PUSH1 0x0 KECCAK256 SWAP1 JUMPDEST DUP2 SLOAD DUP2 MSTORE SWAP1 PUSH1 0x1 ADD SWAP1 PUSH1 0x20 ADD DUP1 DUP4 GT PUSH2 0xC5D JUMPI DUP3 SWAP1 SUB PUSH1 0x1F AND DUP3 ADD SWAP2 JUMPDEST POP POP POP POP POP DUP2 MSTORE PUSH1 0x20 ADD PUSH1 0x3 DUP3 ADD SLOAD DUP2 MSTORE PUSH1 0x20 ADD PUSH1 0x4 DUP3 ADD SLOAD DUP2 MSTORE PUSH1 0x20 ADD PUSH1 0x5 DUP3 ADD SLOAD DUP2 MSTORE PUSH1 0x20 ADD PUSH1 0x6 DUP3 ADD SLOAD DUP2 MSTORE PUSH1 0x20 ADD PUSH1 0x7 DUP3 ADD SLOAD DUP2 MSTORE PUSH1 0x20 ADD PUSH1 0x8 DUP3 ADD PUSH1 0x0 SWAP1 SLOAD SWAP1 PUSH2 0x100 EXP SWAP1 DIV PUSH1 0xFF AND ISZERO ISZERO ISZERO ISZERO DUP2 MSTORE PUSH1 0x20 ADD PUSH1 0x8 DUP3 ADD PUSH1 0x1 SWAP1 SLOAD SWAP1 PUSH2 0x100 EXP SWAP1 DIV PUSH1 0xFF AND ISZERO ISZERO ISZERO ISZERO DUP2 MSTORE PUSH1 0x20 ADD PUSH1 0x8 DUP3 ADD PUSH1 0x2 SWAP1 SLOAD SWAP1 PUSH2 0x100 EXP SWAP1 DIV PUSH1 0xFF AND ISZERO ISZERO ISZERO ISZERO DUP2 MSTORE POP POP SWAP1 POP PUSH1 0x0 PUSH2 0xD24 PUSH2 0xD16 DUP8 PUSH2 0x3101 JUMP JUMPDEST PUSH2 0xD1F DUP8 PUSH2 0x3101 JUMP JUMPDEST PUSH2 0x3132 JUMP JUMPDEST SWAP1 POP POP POP PUSH1 0x1 SWAP1 POP SWAP7 SWAP6 POP POP POP POP POP POP JUMP JUMPDEST PUSH1 0x0 DUP1 PUSH1 0x0 SWAP1 SLOAD SWAP1 PUSH2 0x100 EXP SWAP1 DIV PUSH20 0xFFFFFFFFFFFFFFFFFFFFFFFFFFFFFFFFFFFFFFFF AND PUSH20 0xFFFFFFFFFFFFFFFFFFFFFFFFFFFFFFFFFFFFFFFF AND CALLER PUSH20 0xFFFFFFFFFFFFFFFFFFFFFFFFFFFFFFFFFFFFFFFF AND EQ PUSH2 0xDC7 JUMPI PUSH1 0x40 MLOAD PUSH32 0x8C379A000000000000000000000000000000000000000000000000000000000 DUP2 MSTORE PUSH1 0x4 ADD PUSH2 0xDBE SWAP1 PUSH2 0x3EB5 JUMP JUMPDEST PUSH1 0x40 MLOAD DUP1 SWAP2 SUB SWAP1 REVERT JUMPDEST PUSH1 0x0 DUP3 SWAP1 POP DUP1 PUSH20 0xFFFFFFFFFFFFFFFFFFFFFFFFFFFFFFFFFFFFFFFF AND PUSH2 0x8FC PUSH1 0x1 PUSH1 0x3 SLOAD PUSH2 0xDF5 SWAP2 SWAP1 PUSH2 0x4187 JUMP JUMPDEST SWAP1 DUP2 ISZERO MUL SWAP1 PUSH1 0x40 MLOAD PUSH1 0x0 PUSH1 0x40 MLOAD DUP1 DUP4 SUB DUP2 DUP6 DUP9 DUP9 CALL SWAP4 POP POP POP POP ISZERO DUP1 ISZERO PUSH2 0xE20 JUMPI RETURNDATASIZE PUSH1 0x0 DUP1 RETURNDATACOPY RETURNDATASIZE PUSH1 0x0 REVERT JUMPDEST POP PUSH1 0x1 SWAP2 POP POP SWAP2 SWAP1 POP JUMP JUMPDEST PUSH1 0x0 DUP1 PUSH1 0x0 SWAP1 SLOAD SWAP1 PUSH2 0x100 EXP SWAP1 DIV PUSH20 0xFFFFFFFFFFFFFFFFFFFFFFFFFFFFFFFFFFFFFFFF AND PUSH20 0xFFFFFFFFFFFFFFFFFFFFFFFFFFFFFFFFFFFFFFFF AND CALLER PUSH20 0xFFFFFFFFFFFFFFFFFFFFFFFFFFFFFFFFFFFFFFFF AND EQ PUSH2 0xEBC JUMPI PUSH1 0x40 MLOAD PUSH32 0x8C379A000000000000000000000000000000000000000000000000000000000 DUP2 MSTORE PUSH1 0x4 ADD PUSH2 0xEB3 SWAP1 PUSH2 0x3EB5 JUMP JUMPDEST PUSH1 0x40 MLOAD DUP1 SWAP2 SUB SWAP1 REVERT JUMPDEST PUSH2 0xEC5 DUP4 PUSH2 0x30D4 JUMP JUMPDEST PUSH2 0xF04 JUMPI PUSH1 0x40 MLOAD PUSH32 0x8C379A000000000000000000000000000000000000000000000000000000000 DUP2 MSTORE PUSH1 0x4 ADD PUSH2 0xEFB SWAP1 PUSH2 0x3EF5 JUMP JUMPDEST PUSH1 0x40 MLOAD DUP1 SWAP2 SUB SWAP1 REVERT JUMPDEST PUSH1 0x0 PUSH1 0x5 PUSH1 0x0 DUP6 DUP2 MSTORE PUSH1 0x20 ADD SWAP1 DUP2 MSTORE PUSH1 0x20 ADD PUSH1 0x0 KECCAK256 PUSH1 0x40 MLOAD DUP1 PUSH2 0x160 ADD PUSH1 0x40 MSTORE SWAP1 DUP2 PUSH1 0x0 DUP3 ADD DUP1 SLOAD PUSH2 0xF35 SWAP1 PUSH2 0x424F JUMP JUMPDEST DUP1 PUSH1 0x1F ADD PUSH1 0x20 DUP1 SWAP2 DIV MUL PUSH1 0x20 ADD PUSH1 0x40 MLOAD SWAP1 DUP2 ADD PUSH1 0x40 MSTORE DUP1 SWAP3 SWAP2 SWAP1 DUP2 DUP2 MSTORE PUSH1 0x20 ADD DUP3 DUP1 SLOAD PUSH2 0xF61 SWAP1 PUSH2 0x424F JUMP JUMPDEST DUP1 ISZERO PUSH2 0xFAE JUMPI DUP1 PUSH1 0x1F LT PUSH2 0xF83 JUMPI PUSH2 0x100 DUP1 DUP4 SLOAD DIV MUL DUP4 MSTORE SWAP2 PUSH1 0x20 ADD SWAP2 PUSH2 0xFAE JUMP JUMPDEST DUP3 ADD SWAP2 SWAP1 PUSH1 0x0 MSTORE PUSH1 0x20 PUSH1 0x0 KECCAK256 SWAP1 JUMPDEST DUP2 SLOAD DUP2 MSTORE SWAP1 PUSH1 0x1 ADD SWAP1 PUSH1 0x20 ADD DUP1 DUP4 GT PUSH2 0xF91 JUMPI DUP3 SWAP1 SUB PUSH1 0x1F AND DUP3 ADD SWAP2 JUMPDEST POP POP POP POP POP DUP2 MSTORE PUSH1 0x20 ADD PUSH1 0x1 DUP3 ADD DUP1 SLOAD PUSH2 0xFC7 SWAP1 PUSH2 0x424F JUMP JUMPDEST DUP1 PUSH1 0x1F ADD PUSH1 0x20 DUP1 SWAP2 DIV MUL PUSH1 0x20 ADD PUSH1 0x40 MLOAD SWAP1 DUP2 ADD PUSH1 0x40 MSTORE DUP1 SWAP3 SWAP2 SWAP1 DUP2 DUP2 MSTORE PUSH1 0x20 ADD DUP3 DUP1 SLOAD PUSH2 0xFF3 SWAP1 PUSH2 0x424F JUMP JUMPDEST DUP1 ISZERO PUSH2 0x1040 JUMPI DUP1 PUSH1 0x1F LT PUSH2 0x1015 JUMPI PUSH2 0x100 DUP1 DUP4 SLOAD DIV MUL DUP4 MSTORE SWAP2 PUSH1 0x20 ADD SWAP2 PUSH2 0x1040 JUMP JUMPDEST DUP3 ADD SWAP2 SWAP1 PUSH1 0x0 MSTORE PUSH1 0x20 PUSH1 0x0 KECCAK256 SWAP1 JUMPDEST DUP2 SLOAD DUP2 MSTORE SWAP1 PUSH1 0x1 ADD SWAP1 PUSH1 0x20 ADD DUP1 DUP4 GT PUSH2 0x1023 JUMPI DUP3 SWAP1 SUB PUSH1 0x1F AND DUP3 ADD SWAP2 JUMPDEST POP POP POP POP POP DUP2 MSTORE PUSH1 0x20 ADD PUSH1 0x2 DUP3 ADD DUP1 SLOAD PUSH2 0x1059 SWAP1 PUSH2 0x424F JUMP JUMPDEST DUP1 PUSH1 0x1F ADD PUSH1 0x20 DUP1 SWAP2 DIV MUL PUSH1 0x20 ADD PUSH1 0x40 MLOAD SWAP1 DUP2 ADD PUSH1 0x40 MSTORE DUP1 SWAP3 SWAP2 SWAP1 DUP2 DUP2 MSTORE PUSH1 0x20 ADD DUP3 DUP1 SLOAD PUSH2 0x1085 SWAP1 PUSH2 0x424F JUMP JUMPDEST DUP1 ISZERO PUSH2 0x10D2 JUMPI DUP1 PUSH1 0x1F LT PUSH2 0x10A7 JUMPI PUSH2 0x100 DUP1 DUP4 SLOAD DIV MUL DUP4 MSTORE SWAP2 PUSH1 0x20 ADD SWAP2 PUSH2 0x10D2 JUMP JUMPDEST DUP3 ADD SWAP2 SWAP1 PUSH1 0x0 MSTORE PUSH1 0x20 PUSH1 0x0 KECCAK256 SWAP1 JUMPDEST DUP2 SLOAD DUP2 MSTORE SWAP1 PUSH1 0x1 ADD SWAP1 PUSH1 0x20 ADD DUP1 DUP4 GT PUSH2 0x10B5 JUMPI DUP3 SWAP1 SUB PUSH1 0x1F AND DUP3 ADD SWAP2 JUMPDEST POP POP POP POP POP DUP2 MSTORE PUSH1 0x20 ADD PUSH1 0x3 DUP3 ADD SLOAD DUP2 MSTORE PUSH1 0x20 ADD PUSH1 0x4 DUP3 ADD SLOAD DUP2 MSTORE PUSH1 0x20 ADD PUSH1 0x5 DUP3 ADD SLOAD DUP2 MSTORE PUSH1 0x20 ADD PUSH1 0x6 DUP3 ADD SLOAD DUP2 MSTORE PUSH1 0x20 ADD PUSH1 0x7 DUP3 ADD SLOAD DUP2 MSTORE PUSH1 0x20 ADD PUSH1 0x8 DUP3 ADD PUSH1 0x0 SWAP1 SLOAD SWAP1 PUSH2 0x100 EXP SWAP1 DIV PUSH1 0xFF AND ISZERO ISZERO ISZERO ISZERO DUP2 MSTORE PUSH1 0x20 ADD PUSH1 0x8 DUP3 ADD PUSH1 0x1 SWAP1 SLOAD SWAP1 PUSH2 0x100 EXP SWAP1 DIV PUSH1 0xFF AND ISZERO ISZERO ISZERO ISZERO DUP2 MSTORE PUSH1 0x20 ADD PUSH1 0x8 DUP3 ADD PUSH1 0x2 SWAP1 SLOAD SWAP1 PUSH2 0x100 EXP SWAP1 DIV PUSH1 0xFF AND ISZERO ISZERO ISZERO ISZERO DUP2 MSTORE POP POP SWAP1 POP PUSH1 0x0 DUP2 PUSH1 0xE0 ADD MLOAD GT ISZERO PUSH2 0x11A8 JUMPI PUSH1 0x40 MLOAD PUSH32 0x8C379A000000000000000000000000000000000000000000000000000000000 DUP2 MSTORE PUSH1 0x4 ADD PUSH2 0x119F SWAP1 PUSH2 0x3F15 JUMP JUMPDEST PUSH1 0x40 MLOAD DUP1 SWAP2 SUB SWAP1 REVERT JUMPDEST DUP3 PUSH1 0x1 SLOAD GT ISZERO PUSH2 0x11ED JUMPI PUSH1 0x40 MLOAD PUSH32 0x8C379A000000000000000000000000000000000000000000000000000000000 DUP2 MSTORE PUSH1 0x4 ADD PUSH2 0x11E4 SWAP1 PUSH2 0x3F95 JUMP JUMPDEST PUSH1 0x40 MLOAD DUP1 SWAP2 SUB SWAP1 REVERT JUMPDEST DUP3 DUP2 PUSH1 0xE0 ADD DUP2 DUP2 MLOAD PUSH2 0x11FF SWAP2 SWAP1 PUSH2 0x40A6 JUMP JUMPDEST SWAP2 POP DUP2 DUP2 MSTORE POP POP DUP3 PUSH1 0x1 PUSH1 0x0 DUP3 DUP3 SLOAD PUSH2 0x1218 SWAP2 SWAP1 PUSH2 0x4187 JUMP JUMPDEST SWAP3 POP POP DUP2 SWAP1 SSTORE POP PUSH1 0x1 SWAP2 POP POP SWAP3 SWAP2 POP POP JUMP JUMPDEST PUSH1 0x0 DUP1 PUSH1 0x0 SWAP1 SLOAD SWAP1 PUSH2 0x100 EXP SWAP1 DIV PUSH20 0xFFFFFFFFFFFFFFFFFFFFFFFFFFFFFFFFFFFFFFFF AND PUSH20 0xFFFFFFFFFFFFFFFFFFFFFFFFFFFFFFFFFFFFFFFF AND CALLER PUSH20 0xFFFFFFFFFFFFFFFFFFFFFFFFFFFFFFFFFFFFFFFF AND EQ PUSH2 0x12BB JUMPI PUSH1 0x40 MLOAD PUSH32 0x8C379A000000000000000000000000000000000000000000000000000000000 DUP2 MSTORE PUSH1 0x4 ADD PUSH2 0x12B2 SWAP1 PUSH2 0x3EB5 JUMP JUMPDEST PUSH1 0x40 MLOAD DUP1 SWAP2 SUB SWAP1 REVERT JUMPDEST PUSH1 0x0 PUSH2 0x12C7 DUP7 DUP7 PUSH2 0x3132 JUMP JUMPDEST SWAP1 POP PUSH1 0x0 PUSH2 0x12D5 DUP3 DUP7 PUSH2 0x3132 JUMP JUMPDEST SWAP1 POP PUSH1 0x0 DUP2 PUSH1 0x40 MLOAD PUSH1 0x20 ADD PUSH2 0x12EA SWAP2 SWAP1 PUSH2 0x3DBD JUMP JUMPDEST PUSH1 0x40 MLOAD PUSH1 0x20 DUP2 DUP4 SUB SUB DUP2 MSTORE SWAP1 PUSH1 0x40 MSTORE DUP1 MLOAD SWAP1 PUSH1 0x20 ADD KECCAK256 SWAP1 POP PUSH2 0x130B DUP2 PUSH2 0x30D4 JUMP JUMPDEST ISZERO PUSH2 0x134B JUMPI PUSH1 0x40 MLOAD PUSH32 0x8C379A000000000000000000000000000000000000000000000000000000000 DUP2 MSTORE PUSH1 0x4 ADD PUSH2 0x1342 SWAP1 PUSH2 0x3F35 JUMP JUMPDEST PUSH1 0x40 MLOAD DUP1 SWAP2 SUB SWAP1 REVERT JUMPDEST PUSH1 0x1 PUSH1 0x5 PUSH1 0x0 DUP4 DUP2 MSTORE PUSH1 0x20 ADD SWAP1 DUP2 MSTORE PUSH1 0x20 ADD PUSH1 0x0 KECCAK256 PUSH1 0x8 ADD PUSH1 0x1 PUSH2 0x100 EXP DUP2 SLOAD DUP2 PUSH1 0xFF MUL NOT AND SWAP1 DUP4 ISZERO ISZERO MUL OR SWAP1 SSTORE POP DUP8 PUSH1 0x5 PUSH1 0x0 DUP4 DUP2 MSTORE PUSH1 0x20 ADD SWAP1 DUP2 MSTORE PUSH1 0x20 ADD PUSH1 0x0 KECCAK256 PUSH1 0x0 ADD SWAP1 DUP1 MLOAD SWAP1 PUSH1 0x20 ADD SWAP1 PUSH2 0x13A4 SWAP3 SWAP2 SWAP1 PUSH2 0x3638 JUMP JUMPDEST POP DUP7 PUSH1 0x5 PUSH1 0x0 DUP4 DUP2 MSTORE PUSH1 0x20 ADD SWAP1 DUP2 MSTORE PUSH1 0x20 ADD PUSH1 0x0 KECCAK256 PUSH1 0x1 ADD SWAP1 DUP1 MLOAD SWAP1 PUSH1 0x20 ADD SWAP1 PUSH2 0x13CF SWAP3 SWAP2 SWAP1 PUSH2 0x3638 JUMP JUMPDEST POP DUP6 PUSH1 0x5 PUSH1 0x0 DUP4 DUP2 MSTORE PUSH1 0x20 ADD SWAP1 DUP2 MSTORE PUSH1 0x20 ADD PUSH1 0x0 KECCAK256 PUSH1 0x2 ADD SWAP1 DUP1 MLOAD SWAP1 PUSH1 0x20 ADD SWAP1 PUSH2 0x13FA SWAP3 SWAP2 SWAP1 PUSH2 0x3638 JUMP JUMPDEST POP PUSH1 0x0 PUSH1 0x5 PUSH1 0x0 DUP4 DUP2 MSTORE PUSH1 0x20 ADD SWAP1 DUP2 MSTORE PUSH1 0x20 ADD PUSH1 0x0 KECCAK256 PUSH1 0x3 ADD DUP2 SWAP1 SSTORE POP PUSH1 0x0 PUSH1 0x5 PUSH1 0x0 DUP4 DUP2 MSTORE PUSH1 0x20 ADD SWAP1 DUP2 MSTORE PUSH1 0x20 ADD PUSH1 0x0 KECCAK256 PUSH1 0x4 ADD DUP2 SWAP1 SSTORE POP PUSH1 0x0 PUSH1 0x5 PUSH1 0x0 DUP4 DUP2 MSTORE PUSH1 0x20 ADD SWAP1 DUP2 MSTORE PUSH1 0x20 ADD PUSH1 0x0 KECCAK256 PUSH1 0x5 ADD DUP2 SWAP1 SSTORE POP PUSH1 0x0 PUSH1 0x5 PUSH1 0x0 DUP4 DUP2 MSTORE PUSH1 0x20 ADD SWAP1 DUP2 MSTORE PUSH1 0x20 ADD PUSH1 0x0 KECCAK256 PUSH1 0x6 ADD DUP2 SWAP1 SSTORE POP PUSH1 0x0 PUSH1 0x5 PUSH1 0x0 DUP4 DUP2 MSTORE PUSH1 0x20 ADD SWAP1 DUP2 MSTORE PUSH1 0x20 ADD PUSH1 0x0 KECCAK256 PUSH1 0x7 ADD DUP2 SWAP1 SSTORE POP DUP5 PUSH1 0x5 PUSH1 0x0 DUP4 DUP2 MSTORE PUSH1 0x20 ADD SWAP1 DUP2 MSTORE PUSH1 0x20 ADD PUSH1 0x0 KECCAK256 PUSH1 0x8 ADD PUSH1 0x0 PUSH2 0x100 EXP DUP2 SLOAD DUP2 PUSH1 0xFF MUL NOT AND SWAP1 DUP4 ISZERO ISZERO MUL OR SWAP1 SSTORE POP PUSH1 0x0 PUSH1 0x5 PUSH1 0x0 DUP4 DUP2 MSTORE PUSH1 0x20 ADD SWAP1 DUP2 MSTORE PUSH1 0x20 ADD PUSH1 0x0 KECCAK256 PUSH1 0x8 ADD PUSH1 0x2 PUSH2 0x100 EXP DUP2 SLOAD DUP2 PUSH1 0xFF MUL NOT AND SWAP1 DUP4 ISZERO ISZERO MUL OR SWAP1 SSTORE POP PUSH1 0x2 DUP2 SWAP1 DUP1 PUSH1 0x1 DUP2 SLOAD ADD DUP1 DUP3 SSTORE DUP1 SWAP2 POP POP PUSH1 0x1 SWAP1 SUB SWAP1 PUSH1 0x0 MSTORE PUSH1 0x20 PUSH1 0x0 KECCAK256 ADD PUSH1 0x0 SWAP1 SWAP2 SWAP1 SWAP2 SWAP1 SWAP2 POP SSTORE DUP1 SWAP4 POP POP POP POP SWAP5 SWAP4 POP POP POP POP JUMP JUMPDEST PUSH1 0x0 DUP1 PUSH1 0x0 SWAP1 SLOAD SWAP1 PUSH2 0x100 EXP SWAP1 DIV PUSH20 0xFFFFFFFFFFFFFFFFFFFFFFFFFFFFFFFFFFFFFFFF AND PUSH20 0xFFFFFFFFFFFFFFFFFFFFFFFFFFFFFFFFFFFFFFFF AND CALLER PUSH20 0xFFFFFFFFFFFFFFFFFFFFFFFFFFFFFFFFFFFFFFFF AND EQ PUSH2 0x15AC JUMPI PUSH1 0x40 MLOAD PUSH32 0x8C379A000000000000000000000000000000000000000000000000000000000 DUP2 MSTORE PUSH1 0x4 ADD PUSH2 0x15A3 SWAP1 PUSH2 0x3EB5 JUMP JUMPDEST PUSH1 0x40 MLOAD DUP1 SWAP2 SUB SWAP1 REVERT JUMPDEST PUSH1 0x1 SLOAD SWAP1 POP SWAP1 JUMP JUMPDEST PUSH1 0x0 DUP1 PUSH1 0x0 SWAP1 SLOAD SWAP1 PUSH2 0x100 EXP SWAP1 DIV PUSH20 0xFFFFFFFFFFFFFFFFFFFFFFFFFFFFFFFFFFFFFFFF AND PUSH20 0xFFFFFFFFFFFFFFFFFFFFFFFFFFFFFFFFFFFFFFFF AND CALLER PUSH20 0xFFFFFFFFFFFFFFFFFFFFFFFFFFFFFFFFFFFFFFFF AND EQ PUSH2 0x1645 JUMPI PUSH1 0x40 MLOAD PUSH32 0x8C379A000000000000000000000000000000000000000000000000000000000 DUP2 MSTORE PUSH1 0x4 ADD PUSH2 0x163C SWAP1 PUSH2 0x3EB5 JUMP JUMPDEST PUSH1 0x40 MLOAD DUP1 SWAP2 SUB SWAP1 REVERT JUMPDEST PUSH2 0x164E DUP3 PUSH2 0x30D4 JUMP JUMPDEST PUSH2 0x168D JUMPI PUSH1 0x40 MLOAD PUSH32 0x8C379A000000000000000000000000000000000000000000000000000000000 DUP2 MSTORE PUSH1 0x4 ADD PUSH2 0x1684 SWAP1 PUSH2 0x3EF5 JUMP JUMPDEST PUSH1 0x40 MLOAD DUP1 SWAP2 SUB SWAP1 REVERT JUMPDEST PUSH1 0x0 PUSH1 0x5 PUSH1 0x0 DUP5 DUP2 MSTORE PUSH1 0x20 ADD SWAP1 DUP2 MSTORE PUSH1 0x20 ADD PUSH1 0x0 KECCAK256 PUSH1 0x40 MLOAD DUP1 PUSH2 0x160 ADD PUSH1 0x40 MSTORE SWAP1 DUP2 PUSH1 0x0 DUP3 ADD DUP1 SLOAD PUSH2 0x16BE SWAP1 PUSH2 0x424F JUMP JUMPDEST DUP1 PUSH1 0x1F ADD PUSH1 0x20 DUP1 SWAP2 DIV MUL PUSH1 0x20 ADD PUSH1 0x40 MLOAD SWAP1 DUP2 ADD PUSH1 0x40 MSTORE DUP1 SWAP3 SWAP2 SWAP1 DUP2 DUP2 MSTORE PUSH1 0x20 ADD DUP3 DUP1 SLOAD PUSH2 0x16EA SWAP1 PUSH2 0x424F JUMP JUMPDEST DUP1 ISZERO PUSH2 0x1737 JUMPI DUP1 PUSH1 0x1F LT PUSH2 0x170C JUMPI PUSH2 0x100 DUP1 DUP4 SLOAD DIV MUL DUP4 MSTORE SWAP2 PUSH1 0x20 ADD SWAP2 PUSH2 0x1737 JUMP JUMPDEST DUP3 ADD SWAP2 SWAP1 PUSH1 0x0 MSTORE PUSH1 0x20 PUSH1 0x0 KECCAK256 SWAP1 JUMPDEST DUP2 SLOAD DUP2 MSTORE SWAP1 PUSH1 0x1 ADD SWAP1 PUSH1 0x20 ADD DUP1 DUP4 GT PUSH2 0x171A JUMPI DUP3 SWAP1 SUB PUSH1 0x1F AND DUP3 ADD SWAP2 JUMPDEST POP POP POP POP POP DUP2 MSTORE PUSH1 0x20 ADD PUSH1 0x1 DUP3 ADD DUP1 SLOAD PUSH2 0x1750 SWAP1 PUSH2 0x424F JUMP JUMPDEST DUP1 PUSH1 0x1F ADD PUSH1 0x20 DUP1 SWAP2 DIV MUL PUSH1 0x20 ADD PUSH1 0x40 MLOAD SWAP1 DUP2 ADD PUSH1 0x40 MSTORE DUP1 SWAP3 SWAP2 SWAP1 DUP2 DUP2 MSTORE PUSH1 0x20 ADD DUP3 DUP1 SLOAD PUSH2 0x177C SWAP1 PUSH2 0x424F JUMP JUMPDEST DUP1 ISZERO PUSH2 0x17C9 JUMPI DUP1 PUSH1 0x1F LT PUSH2 0x179E JUMPI PUSH2 0x100 DUP1 DUP4 SLOAD DIV MUL DUP4 MSTORE SWAP2 PUSH1 0x20 ADD SWAP2 PUSH2 0x17C9 JUMP JUMPDEST DUP3 ADD SWAP2 SWAP1 PUSH1 0x0 MSTORE PUSH1 0x20 PUSH1 0x0 KECCAK256 SWAP1 JUMPDEST DUP2 SLOAD DUP2 MSTORE SWAP1 PUSH1 0x1 ADD SWAP1 PUSH1 0x20 ADD DUP1 DUP4 GT PUSH2 0x17AC JUMPI DUP3 SWAP1 SUB PUSH1 0x1F AND DUP3 ADD SWAP2 JUMPDEST POP POP POP POP POP DUP2 MSTORE PUSH1 0x20 ADD PUSH1 0x2 DUP3 ADD DUP1 SLOAD PUSH2 0x17E2 SWAP1 PUSH2 0x424F JUMP JUMPDEST DUP1 PUSH1 0x1F ADD PUSH1 0x20 DUP1 SWAP2 DIV MUL PUSH1 0x20 ADD PUSH1 0x40 MLOAD SWAP1 DUP2 ADD PUSH1 0x40 MSTORE DUP1 SWAP3 SWAP2 SWAP1 DUP2 DUP2 MSTORE PUSH1 0x20 ADD DUP3 DUP1 SLOAD PUSH2 0x180E SWAP1 PUSH2 0x424F JUMP JUMPDEST DUP1 ISZERO PUSH2 0x185B JUMPI DUP1 PUSH1 0x1F LT PUSH2 0x1830 JUMPI PUSH2 0x100 DUP1 DUP4 SLOAD DIV MUL DUP4 MSTORE SWAP2 PUSH1 0x20 ADD SWAP2 PUSH2 0x185B JUMP JUMPDEST DUP3 ADD SWAP2 SWAP1 PUSH1 0x0 MSTORE PUSH1 0x20 PUSH1 0x0 KECCAK256 SWAP1 JUMPDEST DUP2 SLOAD DUP2 MSTORE SWAP1 PUSH1 0x1 ADD SWAP1 PUSH1 0x20 ADD DUP1 DUP4 GT PUSH2 0x183E JUMPI DUP3 SWAP1 SUB PUSH1 0x1F AND DUP3 ADD SWAP2 JUMPDEST POP POP POP POP POP DUP2 MSTORE PUSH1 0x20 ADD PUSH1 0x3 DUP3 ADD SLOAD DUP2 MSTORE PUSH1 0x20 ADD PUSH1 0x4 DUP3 ADD SLOAD DUP2 MSTORE PUSH1 0x20 ADD PUSH1 0x5 DUP3 ADD SLOAD DUP2 MSTORE PUSH1 0x20 ADD PUSH1 0x6 DUP3 ADD SLOAD DUP2 MSTORE PUSH1 0x20 ADD PUSH1 0x7 DUP3 ADD SLOAD DUP2 MSTORE PUSH1 0x20 ADD PUSH1 0x8 DUP3 ADD PUSH1 0x0 SWAP1 SLOAD SWAP1 PUSH2 0x100 EXP SWAP1 DIV PUSH1 0xFF AND ISZERO ISZERO ISZERO ISZERO DUP2 MSTORE PUSH1 0x20 ADD PUSH1 0x8 DUP3 ADD PUSH1 0x1 SWAP1 SLOAD SWAP1 PUSH2 0x100 EXP SWAP1 DIV PUSH1 0xFF AND ISZERO ISZERO ISZERO ISZERO DUP2 MSTORE PUSH1 0x20 ADD PUSH1 0x8 DUP3 ADD PUSH1 0x2 SWAP1 SLOAD SWAP1 PUSH2 0x100 EXP SWAP1 DIV PUSH1 0xFF AND ISZERO ISZERO ISZERO ISZERO DUP2 MSTORE POP POP SWAP1 POP PUSH1 0x0 PUSH2 0x193F PUSH1 0xA DUP4 PUSH1 0xE0 ADD MLOAD DUP5 PUSH1 0xC0 ADD MLOAD DUP6 PUSH1 0x80 ADD MLOAD DUP7 PUSH1 0xA0 ADD MLOAD DUP8 PUSH1 0x60 ADD MLOAD PUSH2 0x1913 SWAP2 SWAP1 PUSH2 0x40A6 JUMP JUMPDEST PUSH2 0x191D SWAP2 SWAP1 PUSH2 0x40A6 JUMP JUMPDEST PUSH2 0x1927 SWAP2 SWAP1 PUSH2 0x40A6 JUMP JUMPDEST PUSH2 0x1931 SWAP2 SWAP1 PUSH2 0x40A6 JUMP JUMPDEST PUSH2 0x4E3 SWAP1 SWAP2 SWAP1 PUSH4 0xFFFFFFFF AND JUMP JUMPDEST SWAP1 POP DUP1 SWAP3 POP POP POP SWAP2 SWAP1 POP JUMP JUMPDEST PUSH1 0x0 PUSH2 0x1956 DUP6 PUSH2 0x30D4 JUMP JUMPDEST PUSH2 0x1995 JUMPI PUSH1 0x40 MLOAD PUSH32 0x8C379A000000000000000000000000000000000000000000000000000000000 DUP2 MSTORE PUSH1 0x4 ADD PUSH2 0x198C SWAP1 PUSH2 0x3EF5 JUMP JUMPDEST PUSH1 0x40 MLOAD DUP1 SWAP2 SUB SWAP1 REVERT JUMPDEST DUP6 PUSH1 0x4 PUSH1 0x0 DUP10 PUSH20 0xFFFFFFFFFFFFFFFFFFFFFFFFFFFFFFFFFFFFFFFF AND PUSH20 0xFFFFFFFFFFFFFFFFFFFFFFFFFFFFFFFFFFFFFFFF AND DUP2 MSTORE PUSH1 0x20 ADD SWAP1 DUP2 MSTORE PUSH1 0x20 ADD PUSH1 0x0 KECCAK256 SLOAD LT ISZERO PUSH2 0x1A17 JUMPI PUSH1 0x40 MLOAD PUSH32 0x8C379A000000000000000000000000000000000000000000000000000000000 DUP2 MSTORE PUSH1 0x4 ADD PUSH2 0x1A0E SWAP1 PUSH2 0x3F75 JUMP JUMPDEST PUSH1 0x40 MLOAD DUP1 SWAP2 SUB SWAP1 REVERT JUMPDEST PUSH1 0x0 PUSH1 0x5 PUSH1 0x0 DUP8 DUP2 MSTORE PUSH1 0x20 ADD SWAP1 DUP2 MSTORE PUSH1 0x20 ADD PUSH1 0x0 KECCAK256 PUSH1 0x40 MLOAD DUP1 PUSH2 0x160 ADD PUSH1 0x40 MSTORE SWAP1 DUP2 PUSH1 0x0 DUP3 ADD DUP1 SLOAD PUSH2 0x1A48 SWAP1 PUSH2 0x424F JUMP JUMPDEST DUP1 PUSH1 0x1F ADD PUSH1 0x20 DUP1 SWAP2 DIV MUL PUSH1 0x20 ADD PUSH1 0x40 MLOAD SWAP1 DUP2 ADD PUSH1 0x40 MSTORE DUP1 SWAP3 SWAP2 SWAP1 DUP2 DUP2 MSTORE PUSH1 0x20 ADD DUP3 DUP1 SLOAD PUSH2 0x1A74 SWAP1 PUSH2 0x424F JUMP JUMPDEST DUP1 ISZERO PUSH2 0x1AC1 JUMPI DUP1 PUSH1 0x1F LT PUSH2 0x1A96 JUMPI PUSH2 0x100 DUP1 DUP4 SLOAD DIV MUL DUP4 MSTORE SWAP2 PUSH1 0x20 ADD SWAP2 PUSH2 0x1AC1 JUMP JUMPDEST DUP3 ADD SWAP2 SWAP1 PUSH1 0x0 MSTORE PUSH1 0x20 PUSH1 0x0 KECCAK256 SWAP1 JUMPDEST DUP2 SLOAD DUP2 MSTORE SWAP1 PUSH1 0x1 ADD SWAP1 PUSH1 0x20 ADD DUP1 DUP4 GT PUSH2 0x1AA4 JUMPI DUP3 SWAP1 SUB PUSH1 0x1F AND DUP3 ADD SWAP2 JUMPDEST POP POP POP POP POP DUP2 MSTORE PUSH1 0x20 ADD PUSH1 0x1 DUP3 ADD DUP1 SLOAD PUSH2 0x1ADA SWAP1 PUSH2 0x424F JUMP JUMPDEST DUP1 PUSH1 0x1F ADD PUSH1 0x20 DUP1 SWAP2 DIV MUL PUSH1 0x20 ADD PUSH1 0x40 MLOAD SWAP1 DUP2 ADD PUSH1 0x40 MSTORE DUP1 SWAP3 SWAP2 SWAP1 DUP2 DUP2 MSTORE PUSH1 0x20 ADD DUP3 DUP1 SLOAD PUSH2 0x1B06 SWAP1 PUSH2 0x424F JUMP JUMPDEST DUP1 ISZERO PUSH2 0x1B53 JUMPI DUP1 PUSH1 0x1F LT PUSH2 0x1B28 JUMPI PUSH2 0x100 DUP1 DUP4 SLOAD DIV MUL DUP4 MSTORE SWAP2 PUSH1 0x20 ADD SWAP2 PUSH2 0x1B53 JUMP JUMPDEST DUP3 ADD SWAP2 SWAP1 PUSH1 0x0 MSTORE PUSH1 0x20 PUSH1 0x0 KECCAK256 SWAP1 JUMPDEST DUP2 SLOAD DUP2 MSTORE SWAP1 PUSH1 0x1 ADD SWAP1 PUSH1 0x20 ADD DUP1 DUP4 GT PUSH2 0x1B36 JUMPI DUP3 SWAP1 SUB PUSH1 0x1F AND DUP3 ADD SWAP2 JUMPDEST POP POP POP POP POP DUP2 MSTORE PUSH1 0x20 ADD PUSH1 0x2 DUP3 ADD DUP1 SLOAD PUSH2 0x1B6C SWAP1 PUSH2 0x424F JUMP JUMPDEST DUP1 PUSH1 0x1F ADD PUSH1 0x20 DUP1 SWAP2 DIV MUL PUSH1 0x20 ADD PUSH1 0x40 MLOAD SWAP1 DUP2 ADD PUSH1 0x40 MSTORE DUP1 SWAP3 SWAP2 SWAP1 DUP2 DUP2 MSTORE PUSH1 0x20 ADD DUP3 DUP1 SLOAD PUSH2 0x1B98 SWAP1 PUSH2 0x424F JUMP JUMPDEST DUP1 ISZERO PUSH2 0x1BE5 JUMPI DUP1 PUSH1 0x1F LT PUSH2 0x1BBA JUMPI PUSH2 0x100 DUP1 DUP4 SLOAD DIV MUL DUP4 MSTORE SWAP2 PUSH1 0x20 ADD SWAP2 PUSH2 0x1BE5 JUMP JUMPDEST DUP3 ADD SWAP2 SWAP1 PUSH1 0x0 MSTORE PUSH1 0x20 PUSH1 0x0 KECCAK256 SWAP1 JUMPDEST DUP2 SLOAD DUP2 MSTORE SWAP1 PUSH1 0x1 ADD SWAP1 PUSH1 0x20 ADD DUP1 DUP4 GT PUSH2 0x1BC8 JUMPI DUP3 SWAP1 SUB PUSH1 0x1F AND DUP3 ADD SWAP2 JUMPDEST POP POP POP POP POP DUP2 MSTORE PUSH1 0x20 ADD PUSH1 0x3 DUP3 ADD SLOAD DUP2 MSTORE PUSH1 0x20 ADD PUSH1 0x4 DUP3 ADD SLOAD DUP2 MSTORE PUSH1 0x20 ADD PUSH1 0x5 DUP3 ADD SLOAD DUP2 MSTORE PUSH1 0x20 ADD PUSH1 0x6 DUP3 ADD SLOAD DUP2 MSTORE PUSH1 0x20 ADD PUSH1 0x7 DUP3 ADD SLOAD DUP2 MSTORE PUSH1 0x20 ADD PUSH1 0x8 DUP3 ADD PUSH1 0x0 SWAP1 SLOAD SWAP1 PUSH2 0x100 EXP SWAP1 DIV PUSH1 0xFF AND ISZERO ISZERO ISZERO ISZERO DUP2 MSTORE PUSH1 0x20 ADD PUSH1 0x8 DUP3 ADD PUSH1 0x1 SWAP1 SLOAD SWAP1 PUSH2 0x100 EXP SWAP1 DIV PUSH1 0xFF AND ISZERO ISZERO ISZERO ISZERO DUP2 MSTORE PUSH1 0x20 ADD PUSH1 0x8 DUP3 ADD PUSH1 0x2 SWAP1 SLOAD SWAP1 PUSH2 0x100 EXP SWAP1 DIV PUSH1 0xFF AND ISZERO ISZERO ISZERO ISZERO DUP2 MSTORE POP POP SWAP1 POP PUSH1 0x0 PUSH2 0x1C8F PUSH2 0x1C81 DUP8 PUSH2 0x3101 JUMP JUMPDEST PUSH2 0x1C8A DUP8 PUSH2 0x3101 JUMP JUMPDEST PUSH2 0x3132 JUMP JUMPDEST SWAP1 POP PUSH1 0x0 PUSH2 0x1CA5 PUSH2 0x1C9F DUP10 PUSH2 0x32C8 JUMP JUMPDEST DUP4 PUSH2 0x3132 JUMP JUMPDEST SWAP1 POP PUSH1 0x0 PUSH1 0x40 MLOAD DUP1 PUSH1 0xE0 ADD PUSH1 0x40 MSTORE DUP1 DUP12 DUP2 MSTORE PUSH1 0x20 ADD DUP8 DUP2 MSTORE PUSH1 0x20 ADD DUP10 DUP2 MSTORE PUSH1 0x20 ADD DUP9 DUP2 MSTORE PUSH1 0x20 ADD DUP13 PUSH20 0xFFFFFFFFFFFFFFFFFFFFFFFFFFFFFFFFFFFFFFFF AND DUP2 MSTORE PUSH1 0x20 ADD DUP4 DUP2 MSTORE PUSH1 0x20 ADD PUSH1 0x0 ISZERO ISZERO DUP2 MSTORE POP SWAP1 POP DUP9 PUSH1 0x6 PUSH1 0x0 DUP12 DUP2 MSTORE PUSH1 0x20 ADD SWAP1 DUP2 MSTORE PUSH1 0x20 ADD PUSH1 0x0 KECCAK256 PUSH1 0x1 ADD DUP2 SWAP1 SSTORE POP PUSH1 0x6 PUSH1 0x0 DUP11 DUP2 MSTORE PUSH1 0x20 ADD SWAP1 DUP2 MSTORE PUSH1 0x20 ADD PUSH1 0x0 KECCAK256 PUSH1 0x0 ADD DUP2 SWAP1 DUP1 PUSH1 0x1 DUP2 SLOAD ADD DUP1 DUP3 SSTORE DUP1 SWAP2 POP POP PUSH1 0x1 SWAP1 SUB SWAP1 PUSH1 0x0 MSTORE PUSH1 0x20 PUSH1 0x0 KECCAK256 SWAP1 PUSH1 0x7 MUL ADD PUSH1 0x0 SWAP1 SWAP2 SWAP1 SWAP2 SWAP1 SWAP2 POP PUSH1 0x0 DUP3 ADD MLOAD DUP2 PUSH1 0x0 ADD SSTORE PUSH1 0x20 DUP3 ADD MLOAD DUP2 PUSH1 0x1 ADD SSTORE PUSH1 0x40 DUP3 ADD MLOAD DUP2 PUSH1 0x2 ADD SSTORE PUSH1 0x60 DUP3 ADD MLOAD DUP2 PUSH1 0x3 ADD SSTORE PUSH1 0x80 DUP3 ADD MLOAD DUP2 PUSH1 0x4 ADD PUSH1 0x0 PUSH2 0x100 EXP DUP2 SLOAD DUP2 PUSH20 0xFFFFFFFFFFFFFFFFFFFFFFFFFFFFFFFFFFFFFFFF MUL NOT AND SWAP1 DUP4 PUSH20 0xFFFFFFFFFFFFFFFFFFFFFFFFFFFFFFFFFFFFFFFF AND MUL OR SWAP1 SSTORE POP PUSH1 0xA0 DUP3 ADD MLOAD DUP2 PUSH1 0x5 ADD SWAP1 DUP1 MLOAD SWAP1 PUSH1 0x20 ADD SWAP1 PUSH2 0x1DDD SWAP3 SWAP2 SWAP1 PUSH2 0x3638 JUMP JUMPDEST POP PUSH1 0xC0 DUP3 ADD MLOAD DUP2 PUSH1 0x6 ADD PUSH1 0x0 PUSH2 0x100 EXP DUP2 SLOAD DUP2 PUSH1 0xFF MUL NOT AND SWAP1 DUP4 ISZERO ISZERO MUL OR SWAP1 SSTORE POP POP POP DUP11 PUSH1 0x8 PUSH1 0x0 DUP14 PUSH20 0xFFFFFFFFFFFFFFFFFFFFFFFFFFFFFFFFFFFFFFFF AND PUSH20 0xFFFFFFFFFFFFFFFFFFFFFFFFFFFFFFFFFFFFFFFF AND DUP2 MSTORE PUSH1 0x20 ADD SWAP1 DUP2 MSTORE PUSH1 0x20 ADD PUSH1 0x0 KECCAK256 PUSH1 0x1 ADD PUSH1 0x0 PUSH2 0x100 EXP DUP2 SLOAD DUP2 PUSH20 0xFFFFFFFFFFFFFFFFFFFFFFFFFFFFFFFFFFFFFFFF MUL NOT AND SWAP1 DUP4 PUSH20 0xFFFFFFFFFFFFFFFFFFFFFFFFFFFFFFFFFFFFFFFF AND MUL OR SWAP1 SSTORE POP PUSH1 0x6 PUSH1 0x0 DUP11 DUP2 MSTORE PUSH1 0x20 ADD SWAP1 DUP2 MSTORE PUSH1 0x20 ADD PUSH1 0x0 KECCAK256 PUSH1 0x0 ADD DUP2 SWAP1 DUP1 PUSH1 0x1 DUP2 SLOAD ADD DUP1 DUP3 SSTORE DUP1 SWAP2 POP POP PUSH1 0x1 SWAP1 SUB SWAP1 PUSH1 0x0 MSTORE PUSH1 0x20 PUSH1 0x0 KECCAK256 SWAP1 PUSH1 0x7 MUL ADD PUSH1 0x0 SWAP1 SWAP2 SWAP1 SWAP2 SWAP1 SWAP2 POP PUSH1 0x0 DUP3 ADD MLOAD DUP2 PUSH1 0x0 ADD SSTORE PUSH1 0x20 DUP3 ADD MLOAD DUP2 PUSH1 0x1 ADD SSTORE PUSH1 0x40 DUP3 ADD MLOAD DUP2 PUSH1 0x2 ADD SSTORE PUSH1 0x60 DUP3 ADD MLOAD DUP2 PUSH1 0x3 ADD SSTORE PUSH1 0x80 DUP3 ADD MLOAD DUP2 PUSH1 0x4 ADD PUSH1 0x0 PUSH2 0x100 EXP DUP2 SLOAD DUP2 PUSH20 0xFFFFFFFFFFFFFFFFFFFFFFFFFFFFFFFFFFFFFFFF MUL NOT AND SWAP1 DUP4 PUSH20 0xFFFFFFFFFFFFFFFFFFFFFFFFFFFFFFFFFFFFFFFF AND MUL OR SWAP1 SSTORE POP PUSH1 0xA0 DUP3 ADD MLOAD DUP2 PUSH1 0x5 ADD SWAP1 DUP1 MLOAD SWAP1 PUSH1 0x20 ADD SWAP1 PUSH2 0x1F4C SWAP3 SWAP2 SWAP1 PUSH2 0x3638 JUMP JUMPDEST POP PUSH1 0xC0 DUP3 ADD MLOAD DUP2 PUSH1 0x6 ADD PUSH1 0x0 PUSH2 0x100 EXP DUP2 SLOAD DUP2 PUSH1 0xFF MUL NOT AND SWAP1 DUP4 ISZERO ISZERO MUL OR SWAP1 SSTORE POP POP POP PUSH1 0x2 DUP7 EQ ISZERO PUSH2 0x1FCB JUMPI DUP10 DUP5 PUSH1 0xC0 ADD DUP2 DUP2 MLOAD PUSH2 0x1F8A SWAP2 SWAP1 PUSH2 0x40A6 JUMP JUMPDEST SWAP2 POP DUP2 DUP2 MSTORE POP POP DUP10 PUSH1 0x7 DUP4 PUSH1 0x40 MLOAD PUSH2 0x1FA2 SWAP2 SWAP1 PUSH2 0x3DBD JUMP JUMPDEST SWAP1 DUP2 MSTORE PUSH1 0x20 ADD PUSH1 0x40 MLOAD DUP1 SWAP2 SUB SWAP1 KECCAK256 PUSH1 0x0 DUP3 DUP3 SLOAD PUSH2 0x1FBF SWAP2 SWAP1 PUSH2 0x40A6 JUMP JUMPDEST SWAP3 POP POP DUP2 SWAP1 SSTORE POP PUSH2 0x2035 JUMP JUMPDEST PUSH1 0x3 DUP7 EQ ISZERO PUSH2 0x1FF2 JUMPI DUP10 DUP5 PUSH1 0x60 ADD DUP2 DUP2 MLOAD PUSH2 0x1FE6 SWAP2 SWAP1 PUSH2 0x40A6 JUMP JUMPDEST SWAP2 POP DUP2 DUP2 MSTORE POP POP PUSH2 0x2034 JUMP JUMPDEST PUSH1 0x1 DUP7 EQ ISZERO PUSH2 0x2019 JUMPI DUP10 DUP5 PUSH1 0x80 ADD DUP2 DUP2 MLOAD PUSH2 0x200D SWAP2 SWAP1 PUSH2 0x40A6 JUMP JUMPDEST SWAP2 POP DUP2 DUP2 MSTORE POP POP PUSH2 0x2033 JUMP JUMPDEST DUP10 DUP5 PUSH1 0xA0 ADD DUP2 DUP2 MLOAD PUSH2 0x202B SWAP2 SWAP1 PUSH2 0x40A6 JUMP JUMPDEST SWAP2 POP DUP2 DUP2 MSTORE POP POP JUMPDEST JUMPDEST JUMPDEST DUP10 PUSH1 0x4 PUSH1 0x0 DUP14 PUSH20 0xFFFFFFFFFFFFFFFFFFFFFFFFFFFFFFFFFFFFFFFF AND PUSH20 0xFFFFFFFFFFFFFFFFFFFFFFFFFFFFFFFFFFFFFFFF AND DUP2 MSTORE PUSH1 0x20 ADD SWAP1 DUP2 MSTORE PUSH1 0x20 ADD PUSH1 0x0 KECCAK256 PUSH1 0x0 DUP3 DUP3 SLOAD PUSH2 0x2084 SWAP2 SWAP1 PUSH2 0x4187 JUMP JUMPDEST SWAP3 POP POP DUP2 SWAP1 SSTORE POP POP POP POP POP PUSH1 0x1 SWAP1 POP SWAP7 SWAP6 POP POP POP POP POP POP JUMP JUMPDEST PUSH1 0x0 DUP1 PUSH1 0x0 SWAP1 SLOAD SWAP1 PUSH2 0x100 EXP SWAP1 DIV PUSH20 0xFFFFFFFFFFFFFFFFFFFFFFFFFFFFFFFFFFFFFFFF AND PUSH20 0xFFFFFFFFFFFFFFFFFFFFFFFFFFFFFFFFFFFFFFFF AND CALLER PUSH20 0xFFFFFFFFFFFFFFFFFFFFFFFFFFFFFFFFFFFFFFFF AND EQ PUSH2 0x212E JUMPI PUSH1 0x40 MLOAD PUSH32 0x8C379A000000000000000000000000000000000000000000000000000000000 DUP2 MSTORE PUSH1 0x4 ADD PUSH2 0x2125 SWAP1 PUSH2 0x3EB5 JUMP JUMPDEST PUSH1 0x40 MLOAD DUP1 SWAP2 SUB SWAP1 REVERT JUMPDEST PUSH2 0x2137 DUP6 PUSH2 0x30D4 JUMP JUMPDEST PUSH2 0x2176 JUMPI PUSH1 0x40 MLOAD PUSH32 0x8C379A000000000000000000000000000000000000000000000000000000000 DUP2 MSTORE PUSH1 0x4 ADD PUSH2 0x216D SWAP1 PUSH2 0x3EF5 JUMP JUMPDEST PUSH1 0x40 MLOAD DUP1 SWAP2 SUB SWAP1 REVERT JUMPDEST PUSH1 0x0 PUSH1 0x5 PUSH1 0x0 DUP8 DUP2 MSTORE PUSH1 0x20 ADD SWAP1 DUP2 MSTORE PUSH1 0x20 ADD PUSH1 0x0 KECCAK256 PUSH1 0x40 MLOAD DUP1 PUSH2 0x160 ADD PUSH1 0x40 MSTORE SWAP1 DUP2 PUSH1 0x0 DUP3 ADD DUP1 SLOAD PUSH2 0x21A7 SWAP1 PUSH2 0x424F JUMP JUMPDEST DUP1 PUSH1 0x1F ADD PUSH1 0x20 DUP1 SWAP2 DIV MUL PUSH1 0x20 ADD PUSH1 0x40 MLOAD SWAP1 DUP2 ADD PUSH1 0x40 MSTORE DUP1 SWAP3 SWAP2 SWAP1 DUP2 DUP2 MSTORE PUSH1 0x20 ADD DUP3 DUP1 SLOAD PUSH2 0x21D3 SWAP1 PUSH2 0x424F JUMP JUMPDEST DUP1 ISZERO PUSH2 0x2220 JUMPI DUP1 PUSH1 0x1F LT PUSH2 0x21F5 JUMPI PUSH2 0x100 DUP1 DUP4 SLOAD DIV MUL DUP4 MSTORE SWAP2 PUSH1 0x20 ADD SWAP2 PUSH2 0x2220 JUMP JUMPDEST DUP3 ADD SWAP2 SWAP1 PUSH1 0x0 MSTORE PUSH1 0x20 PUSH1 0x0 KECCAK256 SWAP1 JUMPDEST DUP2 SLOAD DUP2 MSTORE SWAP1 PUSH1 0x1 ADD SWAP1 PUSH1 0x20 ADD DUP1 DUP4 GT PUSH2 0x2203 JUMPI DUP3 SWAP1 SUB PUSH1 0x1F AND DUP3 ADD SWAP2 JUMPDEST POP POP POP POP POP DUP2 MSTORE PUSH1 0x20 ADD PUSH1 0x1 DUP3 ADD DUP1 SLOAD PUSH2 0x2239 SWAP1 PUSH2 0x424F JUMP JUMPDEST DUP1 PUSH1 0x1F ADD PUSH1 0x20 DUP1 SWAP2 DIV MUL PUSH1 0x20 ADD PUSH1 0x40 MLOAD SWAP1 DUP2 ADD PUSH1 0x40 MSTORE DUP1 SWAP3 SWAP2 SWAP1 DUP2 DUP2 MSTORE PUSH1 0x20 ADD DUP3 DUP1 SLOAD PUSH2 0x2265 SWAP1 PUSH2 0x424F JUMP JUMPDEST DUP1 ISZERO PUSH2 0x22B2 JUMPI DUP1 PUSH1 0x1F LT PUSH2 0x2287 JUMPI PUSH2 0x100 DUP1 DUP4 SLOAD DIV MUL DUP4 MSTORE SWAP2 PUSH1 0x20 ADD SWAP2 PUSH2 0x22B2 JUMP JUMPDEST DUP3 ADD SWAP2 SWAP1 PUSH1 0x0 MSTORE PUSH1 0x20 PUSH1 0x0 KECCAK256 SWAP1 JUMPDEST DUP2 SLOAD DUP2 MSTORE SWAP1 PUSH1 0x1 ADD SWAP1 PUSH1 0x20 ADD DUP1 DUP4 GT PUSH2 0x2295 JUMPI DUP3 SWAP1 SUB PUSH1 0x1F AND DUP3 ADD SWAP2 JUMPDEST POP POP POP POP POP DUP2 MSTORE PUSH1 0x20 ADD PUSH1 0x2 DUP3 ADD DUP1 SLOAD PUSH2 0x22CB SWAP1 PUSH2 0x424F JUMP JUMPDEST DUP1 PUSH1 0x1F ADD PUSH1 0x20 DUP1 SWAP2 DIV MUL PUSH1 0x20 ADD PUSH1 0x40 MLOAD SWAP1 DUP2 ADD PUSH1 0x40 MSTORE DUP1 SWAP3 SWAP2 SWAP1 DUP2 DUP2 MSTORE PUSH1 0x20 ADD DUP3 DUP1 SLOAD PUSH2 0x22F7 SWAP1 PUSH2 0x424F JUMP JUMPDEST DUP1 ISZERO PUSH2 0x2344 JUMPI DUP1 PUSH1 0x1F LT PUSH2 0x2319 JUMPI PUSH2 0x100 DUP1 DUP4 SLOAD DIV MUL DUP4 MSTORE SWAP2 PUSH1 0x20 ADD SWAP2 PUSH2 0x2344 JUMP JUMPDEST DUP3 ADD SWAP2 SWAP1 PUSH1 0x0 MSTORE PUSH1 0x20 PUSH1 0x0 KECCAK256 SWAP1 JUMPDEST DUP2 SLOAD DUP2 MSTORE SWAP1 PUSH1 0x1 ADD SWAP1 PUSH1 0x20 ADD DUP1 DUP4 GT PUSH2 0x2327 JUMPI DUP3 SWAP1 SUB PUSH1 0x1F AND DUP3 ADD SWAP2 JUMPDEST POP POP POP POP POP DUP2 MSTORE PUSH1 0x20 ADD PUSH1 0x3 DUP3 ADD SLOAD DUP2 MSTORE PUSH1 0x20 ADD PUSH1 0x4 DUP3 ADD SLOAD DUP2 MSTORE PUSH1 0x20 ADD PUSH1 0x5 DUP3 ADD SLOAD DUP2 MSTORE PUSH1 0x20 ADD PUSH1 0x6 DUP3 ADD SLOAD DUP2 MSTORE PUSH1 0x20 ADD PUSH1 0x7 DUP3 ADD SLOAD DUP2 MSTORE PUSH1 0x20 ADD PUSH1 0x8 DUP3 ADD PUSH1 0x0 SWAP1 SLOAD SWAP1 PUSH2 0x100 EXP SWAP1 DIV PUSH1 0xFF AND ISZERO ISZERO ISZERO ISZERO DUP2 MSTORE PUSH1 0x20 ADD PUSH1 0x8 DUP3 ADD PUSH1 0x1 SWAP1 SLOAD SWAP1 PUSH2 0x100 EXP SWAP1 DIV PUSH1 0xFF AND ISZERO ISZERO ISZERO ISZERO DUP2 MSTORE PUSH1 0x20 ADD PUSH1 0x8 DUP3 ADD PUSH1 0x2 SWAP1 SLOAD SWAP1 PUSH2 0x100 EXP SWAP1 DIV PUSH1 0xFF AND ISZERO ISZERO ISZERO ISZERO DUP2 MSTORE POP POP SWAP1 POP PUSH1 0x1 DUP2 PUSH2 0x140 ADD SWAP1 ISZERO ISZERO SWAP1 DUP2 ISZERO ISZERO DUP2 MSTORE POP ISZERO PUSH2 0x2423 JUMPI PUSH1 0x40 MLOAD PUSH32 0x8C379A000000000000000000000000000000000000000000000000000000000 DUP2 MSTORE PUSH1 0x4 ADD PUSH2 0x241A SWAP1 PUSH2 0x3FB5 JUMP JUMPDEST PUSH1 0x40 MLOAD DUP1 SWAP2 SUB SWAP1 REVERT JUMPDEST PUSH1 0x0 PUSH1 0x6 PUSH1 0x0 DUP9 DUP2 MSTORE PUSH1 0x20 ADD SWAP1 DUP2 MSTORE PUSH1 0x20 ADD PUSH1 0x0 KECCAK256 PUSH1 0x0 ADD DUP1 SLOAD DUP1 PUSH1 0x20 MUL PUSH1 0x20 ADD PUSH1 0x40 MLOAD SWAP1 DUP2 ADD PUSH1 0x40 MSTORE DUP1 SWAP3 SWAP2 SWAP1 DUP2 DUP2 MSTORE PUSH1 0x20 ADD PUSH1 0x0 SWAP1 JUMPDEST DUP3 DUP3 LT ISZERO PUSH2 0x25B8 JUMPI DUP4 DUP3 SWAP1 PUSH1 0x0 MSTORE PUSH1 0x20 PUSH1 0x0 KECCAK256 SWAP1 PUSH1 0x7 MUL ADD PUSH1 0x40 MLOAD DUP1 PUSH1 0xE0 ADD PUSH1 0x40 MSTORE SWAP1 DUP2 PUSH1 0x0 DUP3 ADD SLOAD DUP2 MSTORE PUSH1 0x20 ADD PUSH1 0x1 DUP3 ADD SLOAD DUP2 MSTORE PUSH1 0x20 ADD PUSH1 0x2 DUP3 ADD SLOAD DUP2 MSTORE PUSH1 0x20 ADD PUSH1 0x3 DUP3 ADD SLOAD DUP2 MSTORE PUSH1 0x20 ADD PUSH1 0x4 DUP3 ADD PUSH1 0x0 SWAP1 SLOAD SWAP1 PUSH2 0x100 EXP SWAP1 DIV PUSH20 0xFFFFFFFFFFFFFFFFFFFFFFFFFFFFFFFFFFFFFFFF AND PUSH20 0xFFFFFFFFFFFFFFFFFFFFFFFFFFFFFFFFFFFFFFFF AND PUSH20 0xFFFFFFFFFFFFFFFFFFFFFFFFFFFFFFFFFFFFFFFF AND DUP2 MSTORE PUSH1 0x20 ADD PUSH1 0x5 DUP3 ADD DUP1 SLOAD PUSH2 0x250C SWAP1 PUSH2 0x424F JUMP JUMPDEST DUP1 PUSH1 0x1F ADD PUSH1 0x20 DUP1 SWAP2 DIV MUL PUSH1 0x20 ADD PUSH1 0x40 MLOAD SWAP1 DUP2 ADD PUSH1 0x40 MSTORE DUP1 SWAP3 SWAP2 SWAP1 DUP2 DUP2 MSTORE PUSH1 0x20 ADD DUP3 DUP1 SLOAD PUSH2 0x2538 SWAP1 PUSH2 0x424F JUMP JUMPDEST DUP1 ISZERO PUSH2 0x2585 JUMPI DUP1 PUSH1 0x1F LT PUSH2 0x255A JUMPI PUSH2 0x100 DUP1 DUP4 SLOAD DIV MUL DUP4 MSTORE SWAP2 PUSH1 0x20 ADD SWAP2 PUSH2 0x2585 JUMP JUMPDEST DUP3 ADD SWAP2 SWAP1 PUSH1 0x0 MSTORE PUSH1 0x20 PUSH1 0x0 KECCAK256 SWAP1 JUMPDEST DUP2 SLOAD DUP2 MSTORE SWAP1 PUSH1 0x1 ADD SWAP1 PUSH1 0x20 ADD DUP1 DUP4 GT PUSH2 0x2568 JUMPI DUP3 SWAP1 SUB PUSH1 0x1F AND DUP3 ADD SWAP2 JUMPDEST POP POP POP POP POP DUP2 MSTORE PUSH1 0x20 ADD PUSH1 0x6 DUP3 ADD PUSH1 0x0 SWAP1 SLOAD SWAP1 PUSH2 0x100 EXP SWAP1 DIV PUSH1 0xFF AND ISZERO ISZERO ISZERO ISZERO DUP2 MSTORE POP POP DUP2 MSTORE PUSH1 0x20 ADD SWAP1 PUSH1 0x1 ADD SWAP1 PUSH2 0x245B JUMP JUMPDEST POP POP POP POP SWAP1 POP PUSH1 0x0 PUSH2 0x2627 PUSH1 0x14 PUSH2 0x25DD PUSH1 0x2 DUP7 PUSH1 0xE0 ADD MLOAD PUSH2 0x4E3 SWAP1 SWAP2 SWAP1 PUSH4 0xFFFFFFFF AND JUMP JUMPDEST DUP6 PUSH1 0x80 ADD MLOAD DUP7 PUSH1 0xA0 ADD MLOAD DUP8 PUSH1 0x60 ADD MLOAD DUP9 PUSH1 0xC0 ADD MLOAD PUSH2 0x25FB SWAP2 SWAP1 PUSH2 0x40A6 JUMP JUMPDEST PUSH2 0x2605 SWAP2 SWAP1 PUSH2 0x40A6 JUMP JUMPDEST PUSH2 0x260F SWAP2 SWAP1 PUSH2 0x40A6 JUMP JUMPDEST PUSH2 0x2619 SWAP2 SWAP1 PUSH2 0x40A6 JUMP JUMPDEST PUSH2 0x4E3 SWAP1 SWAP2 SWAP1 PUSH4 0xFFFFFFFF AND JUMP JUMPDEST PUSH1 0x1 PUSH1 0x0 DUP3 DUP3 SLOAD PUSH2 0x2638 SWAP2 SWAP1 PUSH2 0x40A6 JUMP JUMPDEST SWAP3 POP POP DUP2 SWAP1 SSTORE POP PUSH1 0x0 JUMPDEST PUSH1 0x1 DUP4 MLOAD PUSH2 0x2650 SWAP2 SWAP1 PUSH2 0x4187 JUMP JUMPDEST DUP2 GT PUSH2 0x2AEE JUMPI PUSH1 0x0 DUP4 DUP3 DUP2 MLOAD DUP2 LT PUSH2 0x266B JUMPI PUSH2 0x266A PUSH2 0x439C JUMP JUMPDEST JUMPDEST PUSH1 0x20 MUL PUSH1 0x20 ADD ADD MLOAD PUSH1 0xC0 ADD SWAP1 ISZERO ISZERO SWAP1 DUP2 ISZERO ISZERO DUP2 MSTORE POP ISZERO PUSH2 0x2ADB JUMPI PUSH1 0x2 DUP4 DUP3 DUP2 MLOAD DUP2 LT PUSH2 0x269A JUMPI PUSH2 0x2699 PUSH2 0x439C JUMP JUMPDEST JUMPDEST PUSH1 0x20 MUL PUSH1 0x20 ADD ADD MLOAD PUSH1 0x20 ADD MLOAD EQ ISZERO PUSH2 0x286B JUMPI PUSH2 0x26F9 PUSH1 0x64 PUSH2 0x26EB PUSH1 0x55 PUSH2 0x26CE PUSH1 0x2 DUP10 PUSH1 0xE0 ADD MLOAD PUSH2 0x4E3 SWAP1 SWAP2 SWAP1 PUSH4 0xFFFFFFFF AND JUMP JUMPDEST DUP9 PUSH1 0xC0 ADD MLOAD PUSH2 0x26DD SWAP2 SWAP1 PUSH2 0x40A6 JUMP JUMPDEST PUSH2 0x32F9 SWAP1 SWAP2 SWAP1 PUSH4 0xFFFFFFFF AND JUMP JUMPDEST PUSH2 0x4E3 SWAP1 SWAP2 SWAP1 PUSH4 0xFFFFFFFF AND JUMP JUMPDEST SWAP2 POP DUP8 DUP4 DUP3 DUP2 MLOAD DUP2 LT PUSH2 0x270F JUMPI PUSH2 0x270E PUSH2 0x439C JUMP JUMPDEST JUMPDEST PUSH1 0x20 MUL PUSH1 0x20 ADD ADD MLOAD PUSH1 0x40 ADD MLOAD EQ DUP1 ISZERO PUSH2 0x2745 JUMPI POP DUP7 DUP4 DUP3 DUP2 MLOAD DUP2 LT PUSH2 0x2737 JUMPI PUSH2 0x2736 PUSH2 0x439C JUMP JUMPDEST JUMPDEST PUSH1 0x20 MUL PUSH1 0x20 ADD ADD MLOAD PUSH1 0x60 ADD MLOAD EQ JUMPDEST ISZERO PUSH2 0x2866 JUMPI PUSH1 0x0 PUSH1 0x7 DUP5 DUP4 DUP2 MLOAD DUP2 LT PUSH2 0x2761 JUMPI PUSH2 0x2760 PUSH2 0x439C JUMP JUMPDEST JUMPDEST PUSH1 0x20 MUL PUSH1 0x20 ADD ADD MLOAD PUSH1 0xA0 ADD MLOAD PUSH1 0x40 MLOAD PUSH2 0x277A SWAP2 SWAP1 PUSH2 0x3DBD JUMP JUMPDEST SWAP1 DUP2 MSTORE PUSH1 0x20 ADD PUSH1 0x40 MLOAD DUP1 SWAP2 SUB SWAP1 KECCAK256 SLOAD SWAP1 POP PUSH1 0x0 DUP2 DUP6 DUP5 DUP2 MLOAD DUP2 LT PUSH2 0x27A1 JUMPI PUSH2 0x27A0 PUSH2 0x439C JUMP JUMPDEST JUMPDEST PUSH1 0x20 MUL PUSH1 0x20 ADD ADD MLOAD PUSH1 0x0 ADD MLOAD DUP6 PUSH2 0x27B8 SWAP2 SWAP1 PUSH2 0x412D JUMP JUMPDEST PUSH2 0x27C2 SWAP2 SWAP1 PUSH2 0x40FC JUMP JUMPDEST SWAP1 POP DUP1 PUSH1 0x4 PUSH1 0x0 DUP8 DUP7 DUP2 MLOAD DUP2 LT PUSH2 0x27DC JUMPI PUSH2 0x27DB PUSH2 0x439C JUMP JUMPDEST JUMPDEST PUSH1 0x20 MUL PUSH1 0x20 ADD ADD MLOAD PUSH1 0x80 ADD MLOAD PUSH20 0xFFFFFFFFFFFFFFFFFFFFFFFFFFFFFFFFFFFFFFFF AND PUSH20 0xFFFFFFFFFFFFFFFFFFFFFFFFFFFFFFFFFFFFFFFF AND DUP2 MSTORE PUSH1 0x20 ADD SWAP1 DUP2 MSTORE PUSH1 0x20 ADD PUSH1 0x0 KECCAK256 PUSH1 0x0 DUP3 DUP3 SLOAD PUSH2 0x2831 SWAP2 SWAP1 PUSH2 0x40A6 JUMP JUMPDEST SWAP3 POP POP DUP2 SWAP1 SSTORE POP PUSH1 0x1 DUP6 DUP5 DUP2 MLOAD DUP2 LT PUSH2 0x284D JUMPI PUSH2 0x284C PUSH2 0x439C JUMP JUMPDEST JUMPDEST PUSH1 0x20 MUL PUSH1 0x20 ADD ADD MLOAD PUSH1 0xC0 ADD SWAP1 ISZERO ISZERO SWAP1 DUP2 ISZERO ISZERO DUP2 MSTORE POP POP POP POP JUMPDEST PUSH2 0x2ADA JUMP JUMPDEST DUP6 DUP4 DUP3 DUP2 MLOAD DUP2 LT PUSH2 0x287F JUMPI PUSH2 0x287E PUSH2 0x439C JUMP JUMPDEST JUMPDEST PUSH1 0x20 MUL PUSH1 0x20 ADD ADD MLOAD PUSH1 0x20 ADD MLOAD EQ ISZERO PUSH2 0x2AD9 JUMPI PUSH2 0x28FC PUSH1 0x64 PUSH2 0x28EE PUSH1 0x55 PUSH2 0x28B3 PUSH1 0x2 DUP10 PUSH1 0xE0 ADD MLOAD PUSH2 0x4E3 SWAP1 SWAP2 SWAP1 PUSH4 0xFFFFFFFF AND JUMP JUMPDEST DUP9 PUSH1 0x80 ADD MLOAD DUP10 PUSH1 0xA0 ADD MLOAD DUP11 PUSH1 0x60 ADD MLOAD PUSH2 0x28CC SWAP2 SWAP1 PUSH2 0x40A6 JUMP JUMPDEST PUSH2 0x28D6 SWAP2 SWAP1 PUSH2 0x40A6 JUMP JUMPDEST PUSH2 0x28E0 SWAP2 SWAP1 PUSH2 0x40A6 JUMP JUMPDEST PUSH2 0x32F9 SWAP1 SWAP2 SWAP1 PUSH4 0xFFFFFFFF AND JUMP JUMPDEST PUSH2 0x4E3 SWAP1 SWAP2 SWAP1 PUSH4 0xFFFFFFFF AND JUMP JUMPDEST SWAP2 POP PUSH1 0x0 DUP1 DUP5 DUP4 DUP2 MLOAD DUP2 LT PUSH2 0x2914 JUMPI PUSH2 0x2913 PUSH2 0x439C JUMP JUMPDEST JUMPDEST PUSH1 0x20 MUL PUSH1 0x20 ADD ADD MLOAD PUSH1 0x20 ADD MLOAD EQ ISZERO PUSH2 0x2954 JUMPI PUSH2 0x2951 PUSH1 0x64 PUSH2 0x2943 PUSH1 0x55 DUP9 PUSH1 0xA0 ADD MLOAD PUSH2 0x32F9 SWAP1 SWAP2 SWAP1 PUSH4 0xFFFFFFFF AND JUMP JUMPDEST PUSH2 0x4E3 SWAP1 SWAP2 SWAP1 PUSH4 0xFFFFFFFF AND JUMP JUMPDEST SWAP1 POP JUMPDEST PUSH1 0x1 DUP5 DUP4 DUP2 MLOAD DUP2 LT PUSH2 0x2969 JUMPI PUSH2 0x2968 PUSH2 0x439C JUMP JUMPDEST JUMPDEST PUSH1 0x20 MUL PUSH1 0x20 ADD ADD MLOAD PUSH1 0x20 ADD MLOAD EQ ISZERO PUSH2 0x29A9 JUMPI PUSH2 0x29A6 PUSH1 0x64 PUSH2 0x2998 PUSH1 0x55 DUP9 PUSH1 0x80 ADD MLOAD PUSH2 0x32F9 SWAP1 SWAP2 SWAP1 PUSH4 0xFFFFFFFF AND JUMP JUMPDEST PUSH2 0x4E3 SWAP1 SWAP2 SWAP1 PUSH4 0xFFFFFFFF AND JUMP JUMPDEST SWAP1 POP JUMPDEST PUSH1 0x3 DUP5 DUP4 DUP2 MLOAD DUP2 LT PUSH2 0x29BE JUMPI PUSH2 0x29BD PUSH2 0x439C JUMP JUMPDEST JUMPDEST PUSH1 0x20 MUL PUSH1 0x20 ADD ADD MLOAD PUSH1 0x20 ADD MLOAD EQ ISZERO PUSH2 0x29FE JUMPI PUSH2 0x29FB PUSH1 0x64 PUSH2 0x29ED PUSH1 0x55 DUP9 PUSH1 0x60 ADD MLOAD PUSH2 0x32F9 SWAP1 SWAP2 SWAP1 PUSH4 0xFFFFFFFF AND JUMP JUMPDEST PUSH2 0x4E3 SWAP1 SWAP2 SWAP1 PUSH4 0xFFFFFFFF AND JUMP JUMPDEST SWAP1 POP JUMPDEST PUSH1 0x0 DUP2 DUP6 DUP5 DUP2 MLOAD DUP2 LT PUSH2 0x2A14 JUMPI PUSH2 0x2A13 PUSH2 0x439C JUMP JUMPDEST JUMPDEST PUSH1 0x20 MUL PUSH1 0x20 ADD ADD MLOAD PUSH1 0x0 ADD MLOAD DUP6 PUSH2 0x2A2B SWAP2 SWAP1 PUSH2 0x412D JUMP JUMPDEST PUSH2 0x2A35 SWAP2 SWAP1 PUSH2 0x40FC JUMP JUMPDEST SWAP1 POP DUP1 PUSH1 0x4 PUSH1 0x0 DUP8 DUP7 DUP2 MLOAD DUP2 LT PUSH2 0x2A4F JUMPI PUSH2 0x2A4E PUSH2 0x439C JUMP JUMPDEST JUMPDEST PUSH1 0x20 MUL PUSH1 0x20 ADD ADD MLOAD PUSH1 0x80 ADD MLOAD PUSH20 0xFFFFFFFFFFFFFFFFFFFFFFFFFFFFFFFFFFFFFFFF AND PUSH20 0xFFFFFFFFFFFFFFFFFFFFFFFFFFFFFFFFFFFFFFFF AND DUP2 MSTORE PUSH1 0x20 ADD SWAP1 DUP2 MSTORE PUSH1 0x20 ADD PUSH1 0x0 KECCAK256 PUSH1 0x0 DUP3 DUP3 SLOAD PUSH2 0x2AA4 SWAP2 SWAP1 PUSH2 0x40A6 JUMP JUMPDEST SWAP3 POP POP DUP2 SWAP1 SSTORE POP PUSH1 0x1 DUP6 DUP5 DUP2 MLOAD DUP2 LT PUSH2 0x2AC0 JUMPI PUSH2 0x2ABF PUSH2 0x439C JUMP JUMPDEST JUMPDEST PUSH1 0x20 MUL PUSH1 0x20 ADD ADD MLOAD PUSH1 0xC0 ADD SWAP1 ISZERO ISZERO SWAP1 DUP2 ISZERO ISZERO DUP2 MSTORE POP POP POP POP JUMPDEST JUMPDEST JUMPDEST DUP1 DUP1 PUSH2 0x2AE6 SWAP1 PUSH2 0x42B2 JUMP JUMPDEST SWAP2 POP POP PUSH2 0x2642 JUMP JUMPDEST POP PUSH1 0x1 DUP4 PUSH2 0x140 ADD SWAP1 ISZERO ISZERO SWAP1 DUP2 ISZERO ISZERO DUP2 MSTORE POP POP POP POP POP PUSH1 0x1 SWAP1 POP SWAP5 SWAP4 POP POP POP POP JUMP JUMPDEST PUSH1 0x0 DUP1 PUSH1 0x0 SWAP1 SLOAD SWAP1 PUSH2 0x100 EXP SWAP1 DIV PUSH20 0xFFFFFFFFFFFFFFFFFFFFFFFFFFFFFFFFFFFFFFFF AND PUSH20 0xFFFFFFFFFFFFFFFFFFFFFFFFFFFFFFFFFFFFFFFF AND CALLER PUSH20 0xFFFFFFFFFFFFFFFFFFFFFFFFFFFFFFFFFFFFFFFF AND EQ PUSH2 0x2BA1 JUMPI PUSH1 0x40 MLOAD PUSH32 0x8C379A000000000000000000000000000000000000000000000000000000000 DUP2 MSTORE PUSH1 0x4 ADD PUSH2 0x2B98 SWAP1 PUSH2 0x3EB5 JUMP JUMPDEST PUSH1 0x40 MLOAD DUP1 SWAP2 SUB SWAP1 REVERT JUMPDEST DUP2 PUSH1 0x4 PUSH1 0x0 DUP6 PUSH20 0xFFFFFFFFFFFFFFFFFFFFFFFFFFFFFFFFFFFFFFFF AND PUSH20 0xFFFFFFFFFFFFFFFFFFFFFFFFFFFFFFFFFFFFFFFF AND DUP2 MSTORE PUSH1 0x20 ADD SWAP1 DUP2 MSTORE PUSH1 0x20 ADD PUSH1 0x0 KECCAK256 SLOAD LT ISZERO DUP1 ISZERO PUSH2 0x2C30 JUMPI POP PUSH1 0x0 PUSH1 0x4 PUSH1 0x0 DUP6 PUSH20 0xFFFFFFFFFFFFFFFFFFFFFFFFFFFFFFFFFFFFFFFF AND PUSH20 0xFFFFFFFFFFFFFFFFFFFFFFFFFFFFFFFFFFFFFFFF AND DUP2 MSTORE PUSH1 0x20 ADD SWAP1 DUP2 MSTORE PUSH1 0x20 ADD PUSH1 0x0 KECCAK256 SLOAD LT ISZERO JUMPDEST ISZERO PUSH2 0x2CC6 JUMPI PUSH1 0x0 DUP4 SWAP1 POP DUP1 PUSH20 0xFFFFFFFFFFFFFFFFFFFFFFFFFFFFFFFFFFFFFFFF AND PUSH2 0x8FC PUSH1 0x4 PUSH1 0x0 DUP8 PUSH20 0xFFFFFFFFFFFFFFFFFFFFFFFFFFFFFFFFFFFFFFFF AND PUSH20 0xFFFFFFFFFFFFFFFFFFFFFFFFFFFFFFFFFFFFFFFF AND DUP2 MSTORE PUSH1 0x20 ADD SWAP1 DUP2 MSTORE PUSH1 0x20 ADD PUSH1 0x0 KECCAK256 SLOAD SWAP1 DUP2 ISZERO MUL SWAP1 PUSH1 0x40 MLOAD PUSH1 0x0 PUSH1 0x40 MLOAD DUP1 DUP4 SUB DUP2 DUP6 DUP9 DUP9 CALL SWAP4 POP POP POP POP ISZERO DUP1 ISZERO PUSH2 0x2CBF JUMPI RETURNDATASIZE PUSH1 0x0 DUP1 RETURNDATACOPY RETURNDATASIZE PUSH1 0x0 REVERT JUMPDEST POP POP PUSH2 0x2D01 JUMP JUMPDEST PUSH1 0x40 MLOAD PUSH32 0x8C379A000000000000000000000000000000000000000000000000000000000 DUP2 MSTORE PUSH1 0x4 ADD PUSH2 0x2CF8 SWAP1 PUSH2 0x3F75 JUMP JUMPDEST PUSH1 0x40 MLOAD DUP1 SWAP2 SUB SWAP1 REVERT JUMPDEST PUSH1 0x1 SWAP1 POP SWAP3 SWAP2 POP POP JUMP JUMPDEST PUSH1 0x0 PUSH1 0x4 PUSH1 0x0 CALLER PUSH20 0xFFFFFFFFFFFFFFFFFFFFFFFFFFFFFFFFFFFFFFFF AND PUSH20 0xFFFFFFFFFFFFFFFFFFFFFFFFFFFFFFFFFFFFFFFF AND DUP2 MSTORE PUSH1 0x20 ADD SWAP1 DUP2 MSTORE PUSH1 0x20 ADD PUSH1 0x0 KECCAK256 SLOAD SWAP1 POP SWAP1 JUMP JUMPDEST PUSH1 0x60 PUSH1 0x2 DUP1 SLOAD DUP1 PUSH1 0x20 MUL PUSH1 0x20 ADD PUSH1 0x40 MLOAD SWAP1 DUP2 ADD PUSH1 0x40 MSTORE DUP1 SWAP3 SWAP2 SWAP1 DUP2 DUP2 MSTORE PUSH1 0x20 ADD DUP3 DUP1 SLOAD DUP1 ISZERO PUSH2 0x2DA0 JUMPI PUSH1 0x20 MUL DUP3 ADD SWAP2 SWAP1 PUSH1 0x0 MSTORE PUSH1 0x20 PUSH1 0x0 KECCAK256 SWAP1 JUMPDEST DUP2 SLOAD DUP2 MSTORE PUSH1 0x20 ADD SWAP1 PUSH1 0x1 ADD SWAP1 DUP1 DUP4 GT PUSH2 0x2D8C JUMPI JUMPDEST POP POP POP POP POP SWAP1 POP SWAP1 JUMP JUMPDEST PUSH1 0x60 DUP1 PUSH2 0x2DB5 PUSH2 0x36BE JUMP JUMPDEST PUSH2 0x2DBE DUP5 PUSH2 0x30D4 JUMP JUMPDEST PUSH2 0x2DFD JUMPI PUSH1 0x40 MLOAD PUSH32 0x8C379A000000000000000000000000000000000000000000000000000000000 DUP2 MSTORE PUSH1 0x4 ADD PUSH2 0x2DF4 SWAP1 PUSH2 0x3ED5 JUMP JUMPDEST PUSH1 0x40 MLOAD DUP1 SWAP2 SUB SWAP1 REVERT JUMPDEST PUSH1 0x0 PUSH2 0x2EDC PUSH1 0x5 PUSH1 0x0 DUP8 DUP2 MSTORE PUSH1 0x20 ADD SWAP1 DUP2 MSTORE PUSH1 0x20 ADD PUSH1 0x0 KECCAK256 PUSH1 0x0 ADD DUP1 SLOAD PUSH2 0x2E23 SWAP1 PUSH2 0x424F JUMP JUMPDEST DUP1 PUSH1 0x1F ADD PUSH1 0x20 DUP1 SWAP2 DIV MUL PUSH1 0x20 ADD PUSH1 0x40 MLOAD SWAP1 DUP2 ADD PUSH1 0x40 MSTORE DUP1 SWAP3 SWAP2 SWAP1 DUP2 DUP2 MSTORE PUSH1 0x20 ADD DUP3 DUP1 SLOAD PUSH2 0x2E4F SWAP1 PUSH2 0x424F JUMP JUMPDEST DUP1 ISZERO PUSH2 0x2E9C JUMPI DUP1 PUSH1 0x1F LT PUSH2 0x2E71 JUMPI PUSH2 0x100 DUP1 DUP4 SLOAD DIV MUL DUP4 MSTORE SWAP2 PUSH1 0x20 ADD SWAP2 PUSH2 0x2E9C JUMP JUMPDEST DUP3 ADD SWAP2 SWAP1 PUSH1 0x0 MSTORE PUSH1 0x20 PUSH1 0x0 KECCAK256 SWAP1 JUMPDEST DUP2 SLOAD DUP2 MSTORE SWAP1 PUSH1 0x1 ADD SWAP1 PUSH1 0x20 ADD DUP1 DUP4 GT PUSH2 0x2E7F JUMPI DUP3 SWAP1 SUB PUSH1 0x1F AND DUP3 ADD SWAP2 JUMPDEST POP POP POP POP POP PUSH1 0x40 MLOAD DUP1 PUSH1 0x40 ADD PUSH1 0x40 MSTORE DUP1 PUSH1 0x4 DUP2 MSTORE PUSH1 0x20 ADD PUSH32 0x2076732000000000000000000000000000000000000000000000000000000000 DUP2 MSTORE POP PUSH2 0x3132 JUMP JUMPDEST SWAP1 POP PUSH2 0x2F86 DUP2 PUSH1 0x5 PUSH1 0x0 DUP9 DUP2 MSTORE PUSH1 0x20 ADD SWAP1 DUP2 MSTORE PUSH1 0x20 ADD PUSH1 0x0 KECCAK256 PUSH1 0x1 ADD DUP1 SLOAD PUSH2 0x2F03 SWAP1 PUSH2 0x424F JUMP JUMPDEST DUP1 PUSH1 0x1F ADD PUSH1 0x20 DUP1 SWAP2 DIV MUL PUSH1 0x20 ADD PUSH1 0x40 MLOAD SWAP1 DUP2 ADD PUSH1 0x40 MSTORE DUP1 SWAP3 SWAP2 SWAP1 DUP2 DUP2 MSTORE PUSH1 0x20 ADD DUP3 DUP1 SLOAD PUSH2 0x2F2F SWAP1 PUSH2 0x424F JUMP JUMPDEST DUP1 ISZERO PUSH2 0x2F7C JUMPI DUP1 PUSH1 0x1F LT PUSH2 0x2F51 JUMPI PUSH2 0x100 DUP1 DUP4 SLOAD DIV MUL DUP4 MSTORE SWAP2 PUSH1 0x20 ADD SWAP2 PUSH2 0x2F7C JUMP JUMPDEST DUP3 ADD SWAP2 SWAP1 PUSH1 0x0 MSTORE PUSH1 0x20 PUSH1 0x0 KECCAK256 SWAP1 JUMPDEST DUP2 SLOAD DUP2 MSTORE SWAP1 PUSH1 0x1 ADD SWAP1 PUSH1 0x20 ADD DUP1 DUP4 GT PUSH2 0x2F5F JUMPI DUP3 SWAP1 SUB PUSH1 0x1F AND DUP3 ADD SWAP2 JUMPDEST POP POP POP POP POP PUSH2 0x3132 JUMP JUMPDEST SWAP4 POP PUSH1 0x0 PUSH1 0x40 MLOAD DUP1 PUSH1 0xA0 ADD PUSH1 0x40 MSTORE DUP1 PUSH1 0x5 PUSH1 0x0 DUP10 DUP2 MSTORE PUSH1 0x20 ADD SWAP1 DUP2 MSTORE PUSH1 0x20 ADD PUSH1 0x0 KECCAK256 PUSH1 0x3 ADD SLOAD DUP2 MSTORE PUSH1 0x20 ADD PUSH1 0x5 PUSH1 0x0 DUP10 DUP2 MSTORE PUSH1 0x20 ADD SWAP1 DUP2 MSTORE PUSH1 0x20 ADD PUSH1 0x0 KECCAK256 PUSH1 0x4 ADD SLOAD DUP2 MSTORE PUSH1 0x20 ADD PUSH1 0x5 PUSH1 0x0 DUP10 DUP2 MSTORE PUSH1 0x20 ADD SWAP1 DUP2 MSTORE PUSH1 0x20 ADD PUSH1 0x0 KECCAK256 PUSH1 0x5 ADD SLOAD DUP2 MSTORE PUSH1 0x20 ADD PUSH1 0x5 PUSH1 0x0 DUP10 DUP2 MSTORE PUSH1 0x20 ADD SWAP1 DUP2 MSTORE PUSH1 0x20 ADD PUSH1 0x0 KECCAK256 PUSH1 0x6 ADD SLOAD DUP2 MSTORE PUSH1 0x20 ADD PUSH1 0x5 PUSH1 0x0 DUP10 DUP2 MSTORE PUSH1 0x20 ADD SWAP1 DUP2 MSTORE PUSH1 0x20 ADD PUSH1 0x0 KECCAK256 PUSH1 0x7 ADD SLOAD DUP2 MSTORE POP SWAP1 POP DUP5 PUSH1 0x5 PUSH1 0x0 DUP9 DUP2 MSTORE PUSH1 0x20 ADD SWAP1 DUP2 MSTORE PUSH1 0x20 ADD PUSH1 0x0 KECCAK256 PUSH1 0x2 ADD DUP3 DUP2 DUP1 SLOAD PUSH2 0x3045 SWAP1 PUSH2 0x424F JUMP JUMPDEST DUP1 PUSH1 0x1F ADD PUSH1 0x20 DUP1 SWAP2 DIV MUL PUSH1 0x20 ADD PUSH1 0x40 MLOAD SWAP1 DUP2 ADD PUSH1 0x40 MSTORE DUP1 SWAP3 SWAP2 SWAP1 DUP2 DUP2 MSTORE PUSH1 0x20 ADD DUP3 DUP1 SLOAD PUSH2 0x3071 SWAP1 PUSH2 0x424F JUMP JUMPDEST DUP1 ISZERO PUSH2 0x30BE JUMPI DUP1 PUSH1 0x1F LT PUSH2 0x3093 JUMPI PUSH2 0x100 DUP1 DUP4 SLOAD DIV MUL DUP4 MSTORE SWAP2 PUSH1 0x20 ADD SWAP2 PUSH2 0x30BE JUMP JUMPDEST DUP3 ADD SWAP2 SWAP1 PUSH1 0x0 MSTORE PUSH1 0x20 PUSH1 0x0 KECCAK256 SWAP1 JUMPDEST DUP2 SLOAD DUP2 MSTORE SWAP1 PUSH1 0x1 ADD SWAP1 PUSH1 0x20 ADD DUP1 DUP4 GT PUSH2 0x30A1 JUMPI DUP3 SWAP1 SUB PUSH1 0x1F AND DUP3 ADD SWAP2 JUMPDEST POP POP POP POP POP SWAP2 POP SWAP5 POP SWAP5 POP SWAP5 POP POP POP SWAP2 SWAP4 SWAP1 SWAP3 POP JUMP JUMPDEST PUSH1 0x0 PUSH1 0x5 PUSH1 0x0 DUP4 DUP2 MSTORE PUSH1 0x20 ADD SWAP1 DUP2 MSTORE PUSH1 0x20 ADD PUSH1 0x0 KECCAK256 PUSH1 0x8 ADD PUSH1 0x1 SWAP1 SLOAD SWAP1 PUSH2 0x100 EXP SWAP1 DIV PUSH1 0xFF AND SWAP1 POP SWAP2 SWAP1 POP JUMP JUMPDEST PUSH1 0x60 PUSH2 0x312B DUP3 PUSH1 0x40 MLOAD PUSH1 0x20 ADD PUSH2 0x3117 SWAP2 SWAP1 PUSH2 0x3DD4 JUMP JUMPDEST PUSH1 0x40 MLOAD PUSH1 0x20 DUP2 DUP4 SUB SUB DUP2 MSTORE SWAP1 PUSH1 0x40 MSTORE PUSH2 0x333E JUMP JUMPDEST SWAP1 POP SWAP2 SWAP1 POP JUMP JUMPDEST PUSH1 0x60 PUSH1 0x0 DUP4 SWAP1 POP PUSH1 0x0 DUP4 SWAP1 POP PUSH1 0x0 DUP2 MLOAD DUP4 MLOAD PUSH2 0x314E SWAP2 SWAP1 PUSH2 0x40A6 JUMP JUMPDEST PUSH8 0xFFFFFFFFFFFFFFFF DUP2 GT ISZERO PUSH2 0x3167 JUMPI PUSH2 0x3166 PUSH2 0x43CB JUMP JUMPDEST JUMPDEST PUSH1 0x40 MLOAD SWAP1 DUP1 DUP3 MSTORE DUP1 PUSH1 0x1F ADD PUSH1 0x1F NOT AND PUSH1 0x20 ADD DUP3 ADD PUSH1 0x40 MSTORE DUP1 ISZERO PUSH2 0x3199 JUMPI DUP2 PUSH1 0x20 ADD PUSH1 0x1 DUP3 MUL DUP1 CALLDATASIZE DUP4 CALLDATACOPY DUP1 DUP3 ADD SWAP2 POP POP SWAP1 POP JUMPDEST POP SWAP1 POP PUSH1 0x0 DUP2 SWAP1 POP PUSH1 0x0 DUP1 JUMPDEST DUP6 MLOAD DUP2 LT ISZERO PUSH2 0x322D JUMPI DUP6 DUP2 DUP2 MLOAD DUP2 LT PUSH2 0x31C1 JUMPI PUSH2 0x31C0 PUSH2 0x439C JUMP JUMPDEST JUMPDEST PUSH1 0x20 ADD ADD MLOAD PUSH1 0xF8 SHR PUSH1 0xF8 SHL DUP4 DUP4 DUP1 PUSH2 0x31D8 SWAP1 PUSH2 0x42B2 JUMP JUMPDEST SWAP5 POP DUP2 MLOAD DUP2 LT PUSH2 0x31EB JUMPI PUSH2 0x31EA PUSH2 0x439C JUMP JUMPDEST JUMPDEST PUSH1 0x20 ADD ADD SWAP1 PUSH31 0xFFFFFFFFFFFFFFFFFFFFFFFFFFFFFFFFFFFFFFFFFFFFFFFFFFFFFFFFFFFFFF NOT AND SWAP1 DUP2 PUSH1 0x0 BYTE SWAP1 MSTORE8 POP DUP1 DUP1 PUSH2 0x3225 SWAP1 PUSH2 0x42B2 JUMP JUMPDEST SWAP2 POP POP PUSH2 0x31A5 JUMP JUMPDEST POP PUSH1 0x0 JUMPDEST DUP5 MLOAD DUP2 LT ISZERO PUSH2 0x32B9 JUMPI DUP5 DUP2 DUP2 MLOAD DUP2 LT PUSH2 0x324D JUMPI PUSH2 0x324C PUSH2 0x439C JUMP JUMPDEST JUMPDEST PUSH1 0x20 ADD ADD MLOAD PUSH1 0xF8 SHR PUSH1 0xF8 SHL DUP4 DUP4 DUP1 PUSH2 0x3264 SWAP1 PUSH2 0x42B2 JUMP JUMPDEST SWAP5 POP DUP2 MLOAD DUP2 LT PUSH2 0x3277 JUMPI PUSH2 0x3276 PUSH2 0x439C JUMP JUMPDEST JUMPDEST PUSH1 0x20 ADD ADD SWAP1 PUSH31 0xFFFFFFFFFFFFFFFFFFFFFFFFFFFFFFFFFFFFFFFFFFFFFFFFFFFFFFFFFFFFFF NOT AND SWAP1 DUP2 PUSH1 0x0 BYTE SWAP1 MSTORE8 POP DUP1 DUP1 PUSH2 0x32B1 SWAP1 PUSH2 0x42B2 JUMP JUMPDEST SWAP2 POP POP PUSH2 0x3231 JUMP JUMPDEST POP DUP3 SWAP6 POP POP POP POP POP POP SWAP3 SWAP2 POP POP JUMP JUMPDEST PUSH1 0x60 PUSH2 0x32F2 DUP3 PUSH1 0x40 MLOAD PUSH1 0x20 ADD PUSH2 0x32DE SWAP2 SWAP1 PUSH2 0x3DA2 JUMP JUMPDEST PUSH1 0x40 MLOAD PUSH1 0x20 DUP2 DUP4 SUB SUB DUP2 MSTORE SWAP1 PUSH1 0x40 MSTORE PUSH2 0x333E JUMP JUMPDEST SWAP1 POP SWAP2 SWAP1 POP JUMP JUMPDEST PUSH1 0x0 DUP1 DUP4 EQ ISZERO PUSH2 0x330C JUMPI PUSH1 0x0 SWAP1 POP PUSH2 0x3338 JUMP JUMPDEST PUSH1 0x0 DUP3 DUP5 PUSH2 0x331A SWAP2 SWAP1 PUSH2 0x412D JUMP JUMPDEST SWAP1 POP DUP3 DUP5 DUP3 PUSH2 0x3329 SWAP2 SWAP1 PUSH2 0x40FC JUMP JUMPDEST EQ PUSH2 0x3333 JUMPI PUSH1 0x0 DUP1 REVERT JUMPDEST DUP1 SWAP2 POP POP JUMPDEST SWAP3 SWAP2 POP POP JUMP JUMPDEST PUSH1 0x60 PUSH1 0x0 PUSH1 0x40 MLOAD DUP1 PUSH1 0x40 ADD PUSH1 0x40 MSTORE DUP1 PUSH1 0x10 DUP2 MSTORE PUSH1 0x20 ADD PUSH32 0x3031323334353637383961626364656600000000000000000000000000000000 DUP2 MSTORE POP SWAP1 POP PUSH1 0x0 PUSH1 0x2 DUP5 MLOAD PUSH2 0x338A SWAP2 SWAP1 PUSH2 0x412D JUMP JUMPDEST PUSH1 0x2 PUSH2 0x3396 SWAP2 SWAP1 PUSH2 0x40A6 JUMP JUMPDEST PUSH8 0xFFFFFFFFFFFFFFFF DUP2 GT ISZERO PUSH2 0x33AF JUMPI PUSH2 0x33AE PUSH2 0x43CB JUMP JUMPDEST JUMPDEST PUSH1 0x40 MLOAD SWAP1 DUP1 DUP3 MSTORE DUP1 PUSH1 0x1F ADD PUSH1 0x1F NOT AND PUSH1 0x20 ADD DUP3 ADD PUSH1 0x40 MSTORE DUP1 ISZERO PUSH2 0x33E1 JUMPI DUP2 PUSH1 0x20 ADD PUSH1 0x1 DUP3 MUL DUP1 CALLDATASIZE DUP4 CALLDATACOPY DUP1 DUP3 ADD SWAP2 POP POP SWAP1 POP JUMPDEST POP SWAP1 POP PUSH32 0x3000000000000000000000000000000000000000000000000000000000000000 DUP2 PUSH1 0x0 DUP2 MLOAD DUP2 LT PUSH2 0x3419 JUMPI PUSH2 0x3418 PUSH2 0x439C JUMP JUMPDEST JUMPDEST PUSH1 0x20 ADD ADD SWAP1 PUSH31 0xFFFFFFFFFFFFFFFFFFFFFFFFFFFFFFFFFFFFFFFFFFFFFFFFFFFFFFFFFFFFFF NOT AND SWAP1 DUP2 PUSH1 0x0 BYTE SWAP1 MSTORE8 POP PUSH32 0x7800000000000000000000000000000000000000000000000000000000000000 DUP2 PUSH1 0x1 DUP2 MLOAD DUP2 LT PUSH2 0x347D JUMPI PUSH2 0x347C PUSH2 0x439C JUMP JUMPDEST JUMPDEST PUSH1 0x20 ADD ADD SWAP1 PUSH31 0xFFFFFFFFFFFFFFFFFFFFFFFFFFFFFFFFFFFFFFFFFFFFFFFFFFFFFFFFFFFFFF NOT AND SWAP1 DUP2 PUSH1 0x0 BYTE SWAP1 MSTORE8 POP PUSH1 0x0 JUMPDEST DUP5 MLOAD DUP2 LT ISZERO PUSH2 0x362D JUMPI DUP3 PUSH1 0x4 DUP7 DUP4 DUP2 MLOAD DUP2 LT PUSH2 0x34CE JUMPI PUSH2 0x34CD PUSH2 0x439C JUMP JUMPDEST JUMPDEST PUSH1 0x20 ADD ADD MLOAD PUSH1 0xF8 SHR PUSH1 0xF8 SHL PUSH31 0xFFFFFFFFFFFFFFFFFFFFFFFFFFFFFFFFFFFFFFFFFFFFFFFFFFFFFFFFFFFFFF NOT AND SWAP1 SHR PUSH1 0xF8 SHR PUSH1 0xFF AND DUP2 MLOAD DUP2 LT PUSH2 0x3514 JUMPI PUSH2 0x3513 PUSH2 0x439C JUMP JUMPDEST JUMPDEST PUSH1 0x20 ADD ADD MLOAD PUSH1 0xF8 SHR PUSH1 0xF8 SHL DUP3 PUSH1 0x2 DUP4 PUSH2 0x352D SWAP2 SWAP1 PUSH2 0x412D JUMP JUMPDEST PUSH1 0x2 PUSH2 0x3539 SWAP2 SWAP1 PUSH2 0x40A6 JUMP JUMPDEST DUP2 MLOAD DUP2 LT PUSH2 0x354A JUMPI PUSH2 0x3549 PUSH2 0x439C JUMP JUMPDEST JUMPDEST PUSH1 0x20 ADD ADD SWAP1 PUSH31 0xFFFFFFFFFFFFFFFFFFFFFFFFFFFFFFFFFFFFFFFFFFFFFFFFFFFFFFFFFFFFFF NOT AND SWAP1 DUP2 PUSH1 0x0 BYTE SWAP1 MSTORE8 POP DUP3 PUSH1 0xF PUSH1 0xF8 SHL DUP7 DUP4 DUP2 MLOAD DUP2 LT PUSH2 0x3592 JUMPI PUSH2 0x3591 PUSH2 0x439C JUMP JUMPDEST JUMPDEST PUSH1 0x20 ADD ADD MLOAD PUSH1 0xF8 SHR PUSH1 0xF8 SHL AND PUSH1 0xF8 SHR PUSH1 0xFF AND DUP2 MLOAD DUP2 LT PUSH2 0x35B5 JUMPI PUSH2 0x35B4 PUSH2 0x439C JUMP JUMPDEST JUMPDEST PUSH1 0x20 ADD ADD MLOAD PUSH1 0xF8 SHR PUSH1 0xF8 SHL DUP3 PUSH1 0x2 DUP4 PUSH2 0x35CE SWAP2 SWAP1 PUSH2 0x412D JUMP JUMPDEST PUSH1 0x3 PUSH2 0x35DA SWAP2 SWAP1 PUSH2 0x40A6 JUMP JUMPDEST DUP2 MLOAD DUP2 LT PUSH2 0x35EB JUMPI PUSH2 0x35EA PUSH2 0x439C JUMP JUMPDEST JUMPDEST PUSH1 0x20 ADD ADD SWAP1 PUSH31 0xFFFFFFFFFFFFFFFFFFFFFFFFFFFFFFFFFFFFFFFFFFFFFFFFFFFFFFFFFFFFFF NOT AND SWAP1 DUP2 PUSH1 0x0 BYTE SWAP1 MSTORE8 POP DUP1 DUP1 PUSH2 0x3625 SWAP1 PUSH2 0x42B2 JUMP JUMPDEST SWAP2 POP POP PUSH2 0x34AF JUMP JUMPDEST POP DUP1 SWAP3 POP POP POP SWAP2 SWAP1 POP JUMP JUMPDEST DUP3 DUP1 SLOAD PUSH2 0x3644 SWAP1 PUSH2 0x424F JUMP JUMPDEST SWAP1 PUSH1 0x0 MSTORE PUSH1 0x20 PUSH1 0x0 KECCAK256 SWAP1 PUSH1 0x1F ADD PUSH1 0x20 SWAP1 DIV DUP2 ADD SWAP3 DUP3 PUSH2 0x3666 JUMPI PUSH1 0x0 DUP6 SSTORE PUSH2 0x36AD JUMP JUMPDEST DUP3 PUSH1 0x1F LT PUSH2 0x367F JUMPI DUP1 MLOAD PUSH1 0xFF NOT AND DUP4 DUP1 ADD OR DUP6 SSTORE PUSH2 0x36AD JUMP JUMPDEST DUP3 DUP1 ADD PUSH1 0x1 ADD DUP6 SSTORE DUP3 ISZERO PUSH2 0x36AD JUMPI SWAP2 DUP3 ADD JUMPDEST DUP3 DUP2 GT ISZERO PUSH2 0x36AC JUMPI DUP3 MLOAD DUP3 SSTORE SWAP2 PUSH1 0x20 ADD SWAP2 SWAP1 PUSH1 0x1 ADD SWAP1 PUSH2 0x3691 JUMP JUMPDEST JUMPDEST POP SWAP1 POP PUSH2 0x36BA SWAP2 SWAP1 PUSH2 0x36ED JUMP JUMPDEST POP SWAP1 JUMP JUMPDEST PUSH1 0x40 MLOAD DUP1 PUSH1 0xA0 ADD PUSH1 0x40 MSTORE DUP1 PUSH1 0x0 DUP2 MSTORE PUSH1 0x20 ADD PUSH1 0x0 DUP2 MSTORE PUSH1 0x20 ADD PUSH1 0x0 DUP2 MSTORE PUSH1 0x20 ADD PUSH1 0x0 DUP2 MSTORE PUSH1 0x20 ADD PUSH1 0x0 DUP2 MSTORE POP SWAP1 JUMP JUMPDEST JUMPDEST DUP1 DUP3 GT ISZERO PUSH2 0x3706 JUMPI PUSH1 0x0 DUP2 PUSH1 0x0 SWAP1 SSTORE POP PUSH1 0x1 ADD PUSH2 0x36EE JUMP JUMPDEST POP SWAP1 JUMP JUMPDEST PUSH1 0x0 PUSH2 0x371D PUSH2 0x3718 DUP5 PUSH2 0x4015 JUMP JUMPDEST PUSH2 0x3FF0 JUMP JUMPDEST SWAP1 POP DUP3 DUP2 MSTORE PUSH1 0x20 DUP2 ADD DUP5 DUP5 DUP5 ADD GT ISZERO PUSH2 0x3739 JUMPI PUSH2 0x3738 PUSH2 0x43FF JUMP JUMPDEST JUMPDEST PUSH2 0x3744 DUP5 DUP3 DUP6 PUSH2 0x420D JUMP JUMPDEST POP SWAP4 SWAP3 POP POP POP JUMP JUMPDEST PUSH1 0x0 DUP2 CALLDATALOAD SWAP1 POP PUSH2 0x375B DUP2 PUSH2 0x4590 JUMP JUMPDEST SWAP3 SWAP2 POP POP JUMP JUMPDEST PUSH1 0x0 DUP2 CALLDATALOAD SWAP1 POP PUSH2 0x3770 DUP2 PUSH2 0x45A7 JUMP JUMPDEST SWAP3 SWAP2 POP POP JUMP JUMPDEST PUSH1 0x0 DUP2 CALLDATALOAD SWAP1 POP PUSH2 0x3785 DUP2 PUSH2 0x45BE JUMP JUMPDEST SWAP3 SWAP2 POP POP JUMP JUMPDEST PUSH1 0x0 DUP3 PUSH1 0x1F DUP4 ADD SLT PUSH2 0x37A0 JUMPI PUSH2 0x379F PUSH2 0x43FA JUMP JUMPDEST JUMPDEST DUP2 CALLDATALOAD PUSH2 0x37B0 DUP5 DUP3 PUSH1 0x20 DUP7 ADD PUSH2 0x370A JUMP JUMPDEST SWAP2 POP POP SWAP3 SWAP2 POP POP JUMP JUMPDEST PUSH1 0x0 DUP2 CALLDATALOAD SWAP1 POP PUSH2 0x37C8 DUP2 PUSH2 0x45D5 JUMP JUMPDEST SWAP3 SWAP2 POP POP JUMP JUMPDEST PUSH1 0x0 PUSH1 0x20 DUP3 DUP5 SUB SLT ISZERO PUSH2 0x37E4 JUMPI PUSH2 0x37E3 PUSH2 0x4409 JUMP JUMPDEST JUMPDEST PUSH1 0x0 PUSH2 0x37F2 DUP5 DUP3 DUP6 ADD PUSH2 0x374C JUMP JUMPDEST SWAP2 POP POP SWAP3 SWAP2 POP POP JUMP JUMPDEST PUSH1 0x0 DUP1 PUSH1 0x40 DUP4 DUP6 SUB SLT ISZERO PUSH2 0x3812 JUMPI PUSH2 0x3811 PUSH2 0x4409 JUMP JUMPDEST JUMPDEST PUSH1 0x0 PUSH2 0x3820 DUP6 DUP3 DUP7 ADD PUSH2 0x374C JUMP JUMPDEST SWAP3 POP POP PUSH1 0x20 PUSH2 0x3831 DUP6 DUP3 DUP7 ADD PUSH2 0x3776 JUMP JUMPDEST SWAP2 POP POP SWAP3 POP SWAP3 SWAP1 POP JUMP JUMPDEST PUSH1 0x0 DUP1 PUSH1 0x40 DUP4 DUP6 SUB SLT ISZERO PUSH2 0x3852 JUMPI PUSH2 0x3851 PUSH2 0x4409 JUMP JUMPDEST JUMPDEST PUSH1 0x0 PUSH2 0x3860 DUP6 DUP3 DUP7 ADD PUSH2 0x374C JUMP JUMPDEST SWAP3 POP POP PUSH1 0x20 PUSH2 0x3871 DUP6 DUP3 DUP7 ADD PUSH2 0x37B9 JUMP JUMPDEST SWAP2 POP POP SWAP3 POP SWAP3 SWAP1 POP JUMP JUMPDEST PUSH1 0x0 DUP1 PUSH1 0x0 DUP1 PUSH1 0x0 DUP1 PUSH1 0xC0 DUP8 DUP10 SUB SLT ISZERO PUSH2 0x3898 JUMPI PUSH2 0x3897 PUSH2 0x4409 JUMP JUMPDEST JUMPDEST PUSH1 0x0 PUSH2 0x38A6 DUP10 DUP3 DUP11 ADD PUSH2 0x374C JUMP JUMPDEST SWAP7 POP POP PUSH1 0x20 PUSH2 0x38B7 DUP10 DUP3 DUP11 ADD PUSH2 0x37B9 JUMP JUMPDEST SWAP6 POP POP PUSH1 0x40 PUSH2 0x38C8 DUP10 DUP3 DUP11 ADD PUSH2 0x3776 JUMP JUMPDEST SWAP5 POP POP PUSH1 0x60 PUSH2 0x38D9 DUP10 DUP3 DUP11 ADD PUSH2 0x37B9 JUMP JUMPDEST SWAP4 POP POP PUSH1 0x80 PUSH2 0x38EA DUP10 DUP3 DUP11 ADD PUSH2 0x37B9 JUMP JUMPDEST SWAP3 POP POP PUSH1 0xA0 PUSH2 0x38FB DUP10 DUP3 DUP11 ADD PUSH2 0x37B9 JUMP JUMPDEST SWAP2 POP POP SWAP3 SWAP6 POP SWAP3 SWAP6 POP SWAP3 SWAP6 JUMP JUMPDEST PUSH1 0x0 PUSH1 0x20 DUP3 DUP5 SUB SLT ISZERO PUSH2 0x391E JUMPI PUSH2 0x391D PUSH2 0x4409 JUMP JUMPDEST JUMPDEST PUSH1 0x0 PUSH2 0x392C DUP5 DUP3 DUP6 ADD PUSH2 0x3776 JUMP JUMPDEST SWAP2 POP POP SWAP3 SWAP2 POP POP JUMP JUMPDEST PUSH1 0x0 DUP1 PUSH1 0x40 DUP4 DUP6 SUB SLT ISZERO PUSH2 0x394C JUMPI PUSH2 0x394B PUSH2 0x4409 JUMP JUMPDEST JUMPDEST PUSH1 0x0 PUSH2 0x395A DUP6 DUP3 DUP7 ADD PUSH2 0x3776 JUMP JUMPDEST SWAP3 POP POP PUSH1 0x20 PUSH2 0x396B DUP6 DUP3 DUP7 ADD PUSH2 0x37B9 JUMP JUMPDEST SWAP2 POP POP SWAP3 POP SWAP3 SWAP1 POP JUMP JUMPDEST PUSH1 0x0 DUP1 PUSH1 0x0 DUP1 PUSH1 0x80 DUP6 DUP8 SUB SLT ISZERO PUSH2 0x398F JUMPI PUSH2 0x398E PUSH2 0x4409 JUMP JUMPDEST JUMPDEST PUSH1 0x0 PUSH2 0x399D DUP8 DUP3 DUP9 ADD PUSH2 0x3776 JUMP JUMPDEST SWAP5 POP POP PUSH1 0x20 PUSH2 0x39AE DUP8 DUP3 DUP9 ADD PUSH2 0x37B9 JUMP JUMPDEST SWAP4 POP POP PUSH1 0x40 PUSH2 0x39BF DUP8 DUP3 DUP9 ADD PUSH2 0x37B9 JUMP JUMPDEST SWAP3 POP POP PUSH1 0x60 PUSH2 0x39D0 DUP8 DUP3 DUP9 ADD PUSH2 0x37B9 JUMP JUMPDEST SWAP2 POP POP SWAP3 SWAP6 SWAP2 SWAP5 POP SWAP3 POP JUMP JUMPDEST PUSH1 0x0 DUP1 PUSH1 0x0 DUP1 PUSH1 0x80 DUP6 DUP8 SUB SLT ISZERO PUSH2 0x39F6 JUMPI PUSH2 0x39F5 PUSH2 0x4409 JUMP JUMPDEST JUMPDEST PUSH1 0x0 DUP6 ADD CALLDATALOAD PUSH8 0xFFFFFFFFFFFFFFFF DUP2 GT ISZERO PUSH2 0x3A14 JUMPI PUSH2 0x3A13 PUSH2 0x4404 JUMP JUMPDEST JUMPDEST PUSH2 0x3A20 DUP8 DUP3 DUP9 ADD PUSH2 0x378B JUMP JUMPDEST SWAP5 POP POP PUSH1 0x20 DUP6 ADD CALLDATALOAD PUSH8 0xFFFFFFFFFFFFFFFF DUP2 GT ISZERO PUSH2 0x3A41 JUMPI PUSH2 0x3A40 PUSH2 0x4404 JUMP JUMPDEST JUMPDEST PUSH2 0x3A4D DUP8 DUP3 DUP9 ADD PUSH2 0x378B JUMP JUMPDEST SWAP4 POP POP PUSH1 0x40 DUP6 ADD CALLDATALOAD PUSH8 0xFFFFFFFFFFFFFFFF DUP2 GT ISZERO PUSH2 0x3A6E JUMPI PUSH2 0x3A6D PUSH2 0x4404 JUMP JUMPDEST JUMPDEST PUSH2 0x3A7A DUP8 DUP3 DUP9 ADD PUSH2 0x378B JUMP JUMPDEST SWAP3 POP POP PUSH1 0x60 PUSH2 0x3A8B DUP8 DUP3 DUP9 ADD PUSH2 0x3761 JUMP JUMPDEST SWAP2 POP POP SWAP3 SWAP6 SWAP2 SWAP5 POP SWAP3 POP JUMP JUMPDEST PUSH1 0x0 PUSH2 0x3AA3 DUP4 DUP4 PUSH2 0x3B2B JUMP JUMPDEST PUSH1 0x20 DUP4 ADD SWAP1 POP SWAP3 SWAP2 POP POP JUMP JUMPDEST PUSH2 0x3AB8 DUP2 PUSH2 0x41BB JUMP JUMPDEST DUP3 MSTORE POP POP JUMP JUMPDEST PUSH1 0x0 PUSH2 0x3AC9 DUP3 PUSH2 0x4056 JUMP JUMPDEST PUSH2 0x3AD3 DUP2 DUP6 PUSH2 0x4079 JUMP JUMPDEST SWAP4 POP PUSH2 0x3ADE DUP4 PUSH2 0x4046 JUMP JUMPDEST DUP1 PUSH1 0x0 JUMPDEST DUP4 DUP2 LT ISZERO PUSH2 0x3B0F JUMPI DUP2 MLOAD PUSH2 0x3AF6 DUP9 DUP3 PUSH2 0x3A97 JUMP JUMPDEST SWAP8 POP PUSH2 0x3B01 DUP4 PUSH2 0x406C JUMP JUMPDEST SWAP3 POP POP PUSH1 0x1 DUP2 ADD SWAP1 POP PUSH2 0x3AE2 JUMP JUMPDEST POP DUP6 SWAP4 POP POP POP POP SWAP3 SWAP2 POP POP JUMP JUMPDEST PUSH2 0x3B25 DUP2 PUSH2 0x41CD JUMP JUMPDEST DUP3 MSTORE POP POP JUMP JUMPDEST PUSH2 0x3B34 DUP2 PUSH2 0x41D9 JUMP JUMPDEST DUP3 MSTORE POP POP JUMP JUMPDEST PUSH2 0x3B43 DUP2 PUSH2 0x41D9 JUMP JUMPDEST DUP3 MSTORE POP POP JUMP JUMPDEST PUSH2 0x3B5A PUSH2 0x3B55 DUP3 PUSH2 0x41D9 JUMP JUMPDEST PUSH2 0x42FB JUMP JUMPDEST DUP3 MSTORE POP POP JUMP JUMPDEST PUSH1 0x0 PUSH2 0x3B6B DUP3 PUSH2 0x4061 JUMP JUMPDEST PUSH2 0x3B75 DUP2 DUP6 PUSH2 0x408A JUMP JUMPDEST SWAP4 POP PUSH2 0x3B85 DUP2 DUP6 PUSH1 0x20 DUP7 ADD PUSH2 0x421C JUMP JUMPDEST PUSH2 0x3B8E DUP2 PUSH2 0x440E JUMP JUMPDEST DUP5 ADD SWAP2 POP POP SWAP3 SWAP2 POP POP JUMP JUMPDEST PUSH1 0x0 PUSH2 0x3BA4 DUP3 PUSH2 0x4061 JUMP JUMPDEST PUSH2 0x3BAE DUP2 DUP6 PUSH2 0x409B JUMP JUMPDEST SWAP4 POP PUSH2 0x3BBE DUP2 DUP6 PUSH1 0x20 DUP7 ADD PUSH2 0x421C JUMP JUMPDEST DUP1 DUP5 ADD SWAP2 POP POP SWAP3 SWAP2 POP POP JUMP JUMPDEST PUSH1 0x0 PUSH2 0x3BD7 PUSH1 0x19 DUP4 PUSH2 0x408A JUMP JUMPDEST SWAP2 POP PUSH2 0x3BE2 DUP3 PUSH2 0x441F JUMP JUMPDEST PUSH1 0x20 DUP3 ADD SWAP1 POP SWAP2 SWAP1 POP JUMP JUMPDEST PUSH1 0x0 PUSH2 0x3BFA PUSH1 0x9 DUP4 PUSH2 0x408A JUMP JUMPDEST SWAP2 POP PUSH2 0x3C05 DUP3 PUSH2 0x4448 JUMP JUMPDEST PUSH1 0x20 DUP3 ADD SWAP1 POP SWAP2 SWAP1 POP JUMP JUMPDEST PUSH1 0x0 PUSH2 0x3C1D PUSH1 0xE DUP4 PUSH2 0x408A JUMP JUMPDEST SWAP2 POP PUSH2 0x3C28 DUP3 PUSH2 0x4471 JUMP JUMPDEST PUSH1 0x20 DUP3 ADD SWAP1 POP SWAP2 SWAP1 POP JUMP JUMPDEST PUSH1 0x0 PUSH2 0x3C40 PUSH1 0x17 DUP4 PUSH2 0x408A JUMP JUMPDEST SWAP2 POP PUSH2 0x3C4B DUP3 PUSH2 0x449A JUMP JUMPDEST PUSH1 0x20 DUP3 ADD SWAP1 POP SWAP2 SWAP1 POP JUMP JUMPDEST PUSH1 0x0 PUSH2 0x3C63 PUSH1 0xA DUP4 PUSH2 0x408A JUMP JUMPDEST SWAP2 POP PUSH2 0x3C6E DUP3 PUSH2 0x44C3 JUMP JUMPDEST PUSH1 0x20 DUP3 ADD SWAP1 POP SWAP2 SWAP1 POP JUMP JUMPDEST PUSH1 0x0 PUSH2 0x3C86 PUSH1 0x15 DUP4 PUSH2 0x408A JUMP JUMPDEST SWAP2 POP PUSH2 0x3C91 DUP3 PUSH2 0x44EC JUMP JUMPDEST PUSH1 0x20 DUP3 ADD SWAP1 POP SWAP2 SWAP1 POP JUMP JUMPDEST PUSH1 0x0 PUSH2 0x3CA9 PUSH1 0x15 DUP4 PUSH2 0x408A JUMP JUMPDEST SWAP2 POP PUSH2 0x3CB4 DUP3 PUSH2 0x4515 JUMP JUMPDEST PUSH1 0x20 DUP3 ADD SWAP1 POP SWAP2 SWAP1 POP JUMP JUMPDEST PUSH1 0x0 PUSH2 0x3CCC PUSH1 0x10 DUP4 PUSH2 0x408A JUMP JUMPDEST SWAP2 POP PUSH2 0x3CD7 DUP3 PUSH2 0x453E JUMP JUMPDEST PUSH1 0x20 DUP3 ADD SWAP1 POP SWAP2 SWAP1 POP JUMP JUMPDEST PUSH1 0x0 PUSH2 0x3CEF PUSH1 0x11 DUP4 PUSH2 0x408A JUMP JUMPDEST SWAP2 POP PUSH2 0x3CFA DUP3 PUSH2 0x4567 JUMP JUMPDEST PUSH1 0x20 DUP3 ADD SWAP1 POP SWAP2 SWAP1 POP JUMP JUMPDEST PUSH1 0xA0 DUP3 ADD PUSH1 0x0 DUP3 ADD MLOAD PUSH2 0x3D1B PUSH1 0x0 DUP6 ADD DUP3 PUSH2 0x3D6D JUMP JUMPDEST POP PUSH1 0x20 DUP3 ADD MLOAD PUSH2 0x3D2E PUSH1 0x20 DUP6 ADD DUP3 PUSH2 0x3D6D JUMP JUMPDEST POP PUSH1 0x40 DUP3 ADD MLOAD PUSH2 0x3D41 PUSH1 0x40 DUP6 ADD DUP3 PUSH2 0x3D6D JUMP JUMPDEST POP PUSH1 0x60 DUP3 ADD MLOAD PUSH2 0x3D54 PUSH1 0x60 DUP6 ADD DUP3 PUSH2 0x3D6D JUMP JUMPDEST POP PUSH1 0x80 DUP3 ADD MLOAD PUSH2 0x3D67 PUSH1 0x80 DUP6 ADD DUP3 PUSH2 0x3D6D JUMP JUMPDEST POP POP POP POP JUMP JUMPDEST PUSH2 0x3D76 DUP2 PUSH2 0x4203 JUMP JUMPDEST DUP3 MSTORE POP POP JUMP JUMPDEST PUSH2 0x3D85 DUP2 PUSH2 0x4203 JUMP JUMPDEST DUP3 MSTORE POP POP JUMP JUMPDEST PUSH2 0x3D9C PUSH2 0x3D97 DUP3 PUSH2 0x4203 JUMP JUMPDEST PUSH2 0x4305 JUMP JUMPDEST DUP3 MSTORE POP POP JUMP JUMPDEST PUSH1 0x0 PUSH2 0x3DAE DUP3 DUP5 PUSH2 0x3B49 JUMP JUMPDEST PUSH1 0x20 DUP3 ADD SWAP2 POP DUP2 SWAP1 POP SWAP3 SWAP2 POP POP JUMP JUMPDEST PUSH1 0x0 PUSH2 0x3DC9 DUP3 DUP5 PUSH2 0x3B99 JUMP JUMPDEST SWAP2 POP DUP2 SWAP1 POP SWAP3 SWAP2 POP POP JUMP JUMPDEST PUSH1 0x0 PUSH2 0x3DE0 DUP3 DUP5 PUSH2 0x3D8B JUMP JUMPDEST PUSH1 0x20 DUP3 ADD SWAP2 POP DUP2 SWAP1 POP SWAP3 SWAP2 POP POP JUMP JUMPDEST PUSH1 0x0 PUSH1 0x40 DUP3 ADD SWAP1 POP PUSH2 0x3E04 PUSH1 0x0 DUP4 ADD DUP6 PUSH2 0x3AAF JUMP JUMPDEST PUSH2 0x3E11 PUSH1 0x20 DUP4 ADD DUP5 PUSH2 0x3D7C JUMP JUMPDEST SWAP4 SWAP3 POP POP POP JUMP JUMPDEST PUSH1 0x0 PUSH1 0x20 DUP3 ADD SWAP1 POP DUP2 DUP2 SUB PUSH1 0x0 DUP4 ADD MSTORE PUSH2 0x3E32 DUP2 DUP5 PUSH2 0x3ABE JUMP JUMPDEST SWAP1 POP SWAP3 SWAP2 POP POP JUMP JUMPDEST PUSH1 0x0 PUSH1 0x20 DUP3 ADD SWAP1 POP PUSH2 0x3E4F PUSH1 0x0 DUP4 ADD DUP5 PUSH2 0x3B1C JUMP JUMPDEST SWAP3 SWAP2 POP POP JUMP JUMPDEST PUSH1 0x0 PUSH1 0x20 DUP3 ADD SWAP1 POP PUSH2 0x3E6A PUSH1 0x0 DUP4 ADD DUP5 PUSH2 0x3B3A JUMP JUMPDEST SWAP3 SWAP2 POP POP JUMP JUMPDEST PUSH1 0x0 PUSH1 0xE0 DUP3 ADD SWAP1 POP DUP2 DUP2 SUB PUSH1 0x0 DUP4 ADD MSTORE PUSH2 0x3E8A DUP2 DUP7 PUSH2 0x3B60 JUMP JUMPDEST SWAP1 POP DUP2 DUP2 SUB PUSH1 0x20 DUP4 ADD MSTORE PUSH2 0x3E9E DUP2 DUP6 PUSH2 0x3B60 JUMP JUMPDEST SWAP1 POP PUSH2 0x3EAD PUSH1 0x40 DUP4 ADD DUP5 PUSH2 0x3D05 JUMP JUMPDEST SWAP5 SWAP4 POP POP POP POP JUMP JUMPDEST PUSH1 0x0 PUSH1 0x20 DUP3 ADD SWAP1 POP DUP2 DUP2 SUB PUSH1 0x0 DUP4 ADD MSTORE PUSH2 0x3ECE DUP2 PUSH2 0x3BCA JUMP JUMPDEST SWAP1 POP SWAP2 SWAP1 POP JUMP JUMPDEST PUSH1 0x0 PUSH1 0x20 DUP3 ADD SWAP1 POP DUP2 DUP2 SUB PUSH1 0x0 DUP4 ADD MSTORE PUSH2 0x3EEE DUP2 PUSH2 0x3BED JUMP JUMPDEST SWAP1 POP SWAP2 SWAP1 POP JUMP JUMPDEST PUSH1 0x0 PUSH1 0x20 DUP3 ADD SWAP1 POP DUP2 DUP2 SUB PUSH1 0x0 DUP4 ADD MSTORE PUSH2 0x3F0E DUP2 PUSH2 0x3C10 JUMP JUMPDEST SWAP1 POP SWAP2 SWAP1 POP JUMP JUMPDEST PUSH1 0x0 PUSH1 0x20 DUP3 ADD SWAP1 POP DUP2 DUP2 SUB PUSH1 0x0 DUP4 ADD MSTORE PUSH2 0x3F2E DUP2 PUSH2 0x3C33 JUMP JUMPDEST SWAP1 POP SWAP2 SWAP1 POP JUMP JUMPDEST PUSH1 0x0 PUSH1 0x20 DUP3 ADD SWAP1 POP DUP2 DUP2 SUB PUSH1 0x0 DUP4 ADD MSTORE PUSH2 0x3F4E DUP2 PUSH2 0x3C56 JUMP JUMPDEST SWAP1 POP SWAP2 SWAP1 POP JUMP JUMPDEST PUSH1 0x0 PUSH1 0x20 DUP3 ADD SWAP1 POP DUP2 DUP2 SUB PUSH1 0x0 DUP4 ADD MSTORE PUSH2 0x3F6E DUP2 PUSH2 0x3C79 JUMP JUMPDEST SWAP1 POP SWAP2 SWAP1 POP JUMP JUMPDEST PUSH1 0x0 PUSH1 0x20 DUP3 ADD SWAP1 POP DUP2 DUP2 SUB PUSH1 0x0 DUP4 ADD MSTORE PUSH2 0x3F8E DUP2 PUSH2 0x3C9C JUMP JUMPDEST SWAP1 POP SWAP2 SWAP1 POP JUMP JUMPDEST PUSH1 0x0 PUSH1 0x20 DUP3 ADD SWAP1 POP DUP2 DUP2 SUB PUSH1 0x0 DUP4 ADD MSTORE PUSH2 0x3FAE DUP2 PUSH2 0x3CBF JUMP JUMPDEST SWAP1 POP SWAP2 SWAP1 POP JUMP JUMPDEST PUSH1 0x0 PUSH1 0x20 DUP3 ADD SWAP1 POP DUP2 DUP2 SUB PUSH1 0x0 DUP4 ADD MSTORE PUSH2 0x3FCE DUP2 PUSH2 0x3CE2 JUMP JUMPDEST SWAP1 POP SWAP2 SWAP1 POP JUMP JUMPDEST PUSH1 0x0 PUSH1 0x20 DUP3 ADD SWAP1 POP PUSH2 0x3FEA PUSH1 0x0 DUP4 ADD DUP5 PUSH2 0x3D7C JUMP JUMPDEST SWAP3 SWAP2 POP POP JUMP JUMPDEST PUSH1 0x0 PUSH2 0x3FFA PUSH2 0x400B JUMP JUMPDEST SWAP1 POP PUSH2 0x4006 DUP3 DUP3 PUSH2 0x4281 JUMP JUMPDEST SWAP2 SWAP1 POP JUMP JUMPDEST PUSH1 0x0 PUSH1 0x40 MLOAD SWAP1 POP SWAP1 JUMP JUMPDEST PUSH1 0x0 PUSH8 0xFFFFFFFFFFFFFFFF DUP3 GT ISZERO PUSH2 0x4030 JUMPI PUSH2 0x402F PUSH2 0x43CB JUMP JUMPDEST JUMPDEST PUSH2 0x4039 DUP3 PUSH2 0x440E JUMP JUMPDEST SWAP1 POP PUSH1 0x20 DUP2 ADD SWAP1 POP SWAP2 SWAP1 POP JUMP JUMPDEST PUSH1 0x0 DUP2 SWAP1 POP PUSH1 0x20 DUP3 ADD SWAP1 POP SWAP2 SWAP1 POP JUMP JUMPDEST PUSH1 0x0 DUP2 MLOAD SWAP1 POP SWAP2 SWAP1 POP JUMP JUMPDEST PUSH1 0x0 DUP2 MLOAD SWAP1 POP SWAP2 SWAP1 POP JUMP JUMPDEST PUSH1 0x0 PUSH1 0x20 DUP3 ADD SWAP1 POP SWAP2 SWAP1 POP JUMP JUMPDEST PUSH1 0x0 DUP3 DUP3 MSTORE PUSH1 0x20 DUP3 ADD SWAP1 POP SWAP3 SWAP2 POP POP JUMP JUMPDEST PUSH1 0x0 DUP3 DUP3 MSTORE PUSH1 0x20 DUP3 ADD SWAP1 POP SWAP3 SWAP2 POP POP JUMP JUMPDEST PUSH1 0x0 DUP2 SWAP1 POP SWAP3 SWAP2 POP POP JUMP JUMPDEST PUSH1 0x0 PUSH2 0x40B1 DUP3 PUSH2 0x4203 JUMP JUMPDEST SWAP2 POP PUSH2 0x40BC DUP4 PUSH2 0x4203 JUMP JUMPDEST SWAP3 POP DUP3 PUSH32 0xFFFFFFFFFFFFFFFFFFFFFFFFFFFFFFFFFFFFFFFFFFFFFFFFFFFFFFFFFFFFFFFF SUB DUP3 GT ISZERO PUSH2 0x40F1 JUMPI PUSH2 0x40F0 PUSH2 0x430F JUMP JUMPDEST JUMPDEST DUP3 DUP3 ADD SWAP1 POP SWAP3 SWAP2 POP POP JUMP JUMPDEST PUSH1 0x0 PUSH2 0x4107 DUP3 PUSH2 0x4203 JUMP JUMPDEST SWAP2 POP PUSH2 0x4112 DUP4 PUSH2 0x4203 JUMP JUMPDEST SWAP3 POP DUP3 PUSH2 0x4122 JUMPI PUSH2 0x4121 PUSH2 0x433E JUMP JUMPDEST JUMPDEST DUP3 DUP3 DIV SWAP1 POP SWAP3 SWAP2 POP POP JUMP JUMPDEST PUSH1 0x0 PUSH2 0x4138 DUP3 PUSH2 0x4203 JUMP JUMPDEST SWAP2 POP PUSH2 0x4143 DUP4 PUSH2 0x4203 JUMP JUMPDEST SWAP3 POP DUP2 PUSH32 0xFFFFFFFFFFFFFFFFFFFFFFFFFFFFFFFFFFFFFFFFFFFFFFFFFFFFFFFFFFFFFFFF DIV DUP4 GT DUP3 ISZERO ISZERO AND ISZERO PUSH2 0x417C JUMPI PUSH2 0x417B PUSH2 0x430F JUMP JUMPDEST JUMPDEST DUP3 DUP3 MUL SWAP1 POP SWAP3 SWAP2 POP POP JUMP JUMPDEST PUSH1 0x0 PUSH2 0x4192 DUP3 PUSH2 0x4203 JUMP JUMPDEST SWAP2 POP PUSH2 0x419D DUP4 PUSH2 0x4203 JUMP JUMPDEST SWAP3 POP DUP3 DUP3 LT ISZERO PUSH2 0x41B0 JUMPI PUSH2 0x41AF PUSH2 0x430F JUMP JUMPDEST JUMPDEST DUP3 DUP3 SUB SWAP1 POP SWAP3 SWAP2 POP POP JUMP JUMPDEST PUSH1 0x0 PUSH2 0x41C6 DUP3 PUSH2 0x41E3 JUMP JUMPDEST SWAP1 POP SWAP2 SWAP1 POP JUMP JUMPDEST PUSH1 0x0 DUP2 ISZERO ISZERO SWAP1 POP SWAP2 SWAP1 POP JUMP JUMPDEST PUSH1 0x0 DUP2 SWAP1 POP SWAP2 SWAP1 POP JUMP JUMPDEST PUSH1 0x0 PUSH20 0xFFFFFFFFFFFFFFFFFFFFFFFFFFFFFFFFFFFFFFFF DUP3 AND SWAP1 POP SWAP2 SWAP1 POP JUMP JUMPDEST PUSH1 0x0 DUP2 SWAP1 POP SWAP2 SWAP1 POP JUMP JUMPDEST DUP3 DUP2 DUP4 CALLDATACOPY PUSH1 0x0 DUP4 DUP4 ADD MSTORE POP POP POP JUMP JUMPDEST PUSH1 0x0 JUMPDEST DUP4 DUP2 LT ISZERO PUSH2 0x423A JUMPI DUP1 DUP3 ADD MLOAD DUP2 DUP5 ADD MSTORE PUSH1 0x20 DUP2 ADD SWAP1 POP PUSH2 0x421F JUMP JUMPDEST DUP4 DUP2 GT ISZERO PUSH2 0x4249 JUMPI PUSH1 0x0 DUP5 DUP5 ADD MSTORE JUMPDEST POP POP POP POP JUMP JUMPDEST PUSH1 0x0 PUSH1 0x2 DUP3 DIV SWAP1 POP PUSH1 0x1 DUP3 AND DUP1 PUSH2 0x4267 JUMPI PUSH1 0x7F DUP3 AND SWAP2 POP JUMPDEST PUSH1 0x20 DUP3 LT DUP2 EQ ISZERO PUSH2 0x427B JUMPI PUSH2 0x427A PUSH2 0x436D JUMP JUMPDEST JUMPDEST POP SWAP2 SWAP1 POP JUMP JUMPDEST PUSH2 0x428A DUP3 PUSH2 0x440E JUMP JUMPDEST DUP2 ADD DUP2 DUP2 LT PUSH8 0xFFFFFFFFFFFFFFFF DUP3 GT OR ISZERO PUSH2 0x42A9 JUMPI PUSH2 0x42A8 PUSH2 0x43CB JUMP JUMPDEST JUMPDEST DUP1 PUSH1 0x40 MSTORE POP POP POP JUMP JUMPDEST PUSH1 0x0 PUSH2 0x42BD DUP3 PUSH2 0x4203 JUMP JUMPDEST SWAP2 POP PUSH32 0xFFFFFFFFFFFFFFFFFFFFFFFFFFFFFFFFFFFFFFFFFFFFFFFFFFFFFFFFFFFFFFFF DUP3 EQ ISZERO PUSH2 0x42F0 JUMPI PUSH2 0x42EF PUSH2 0x430F JUMP JUMPDEST JUMPDEST PUSH1 0x1 DUP3 ADD SWAP1 POP SWAP2 SWAP1 POP JUMP JUMPDEST PUSH1 0x0 DUP2 SWAP1 POP SWAP2 SWAP1 POP JUMP JUMPDEST PUSH1 0x0 DUP2 SWAP1 POP SWAP2 SWAP1 POP JUMP JUMPDEST PUSH32 0x4E487B7100000000000000000000000000000000000000000000000000000000 PUSH1 0x0 MSTORE PUSH1 0x11 PUSH1 0x4 MSTORE PUSH1 0x24 PUSH1 0x0 REVERT JUMPDEST PUSH32 0x4E487B7100000000000000000000000000000000000000000000000000000000 PUSH1 0x0 MSTORE PUSH1 0x12 PUSH1 0x4 MSTORE PUSH1 0x24 PUSH1 0x0 REVERT JUMPDEST PUSH32 0x4E487B7100000000000000000000000000000000000000000000000000000000 PUSH1 0x0 MSTORE PUSH1 0x22 PUSH1 0x4 MSTORE PUSH1 0x24 PUSH1 0x0 REVERT JUMPDEST PUSH32 0x4E487B7100000000000000000000000000000000000000000000000000000000 PUSH1 0x0 MSTORE PUSH1 0x32 PUSH1 0x4 MSTORE PUSH1 0x24 PUSH1 0x0 REVERT JUMPDEST PUSH32 0x4E487B7100000000000000000000000000000000000000000000000000000000 PUSH1 0x0 MSTORE PUSH1 0x41 PUSH1 0x4 MSTORE PUSH1 0x24 PUSH1 0x0 REVERT JUMPDEST PUSH1 0x0 DUP1 REVERT JUMPDEST PUSH1 0x0 DUP1 REVERT JUMPDEST PUSH1 0x0 DUP1 REVERT JUMPDEST PUSH1 0x0 DUP1 REVERT JUMPDEST PUSH1 0x0 PUSH1 0x1F NOT PUSH1 0x1F DUP4 ADD AND SWAP1 POP SWAP2 SWAP1 POP JUMP JUMPDEST PUSH32 0x4F6E6C79206F776E65722063616E2063616C6C20746869732E00000000000000 PUSH1 0x0 DUP3 ADD MSTORE POP JUMP JUMPDEST PUSH32 0x6E6F742065786973740000000000000000000000000000000000000000000000 PUSH1 0x0 DUP3 ADD MSTORE POP JUMP JUMPDEST PUSH32 0x706F6F6C206E6F74206578697374000000000000000000000000000000000000 PUSH1 0x0 DUP3 ADD MSTORE POP JUMP JUMPDEST PUSH32 0x706F6F6C20626173616C20686173206265656E20736574000000000000000000 PUSH1 0x0 DUP3 ADD MSTORE POP JUMP JUMPDEST PUSH32 0x7061697220657869737400000000000000000000000000000000000000000000 PUSH1 0x0 DUP3 ADD MSTORE POP JUMP JUMPDEST PUSH32 0x706F6F6C20686173206E6F742066696E69736865640000000000000000000000 PUSH1 0x0 DUP3 ADD MSTORE POP JUMP JUMPDEST PUSH32 0x6E6F7420656E6F75676820766F7465416D6F756E740000000000000000000000 PUSH1 0x0 DUP3 ADD MSTORE POP JUMP JUMPDEST PUSH32 0x6E6F7420656E6F75676820626173616C00000000000000000000000000000000 PUSH1 0x0 DUP3 ADD MSTORE POP JUMP JUMPDEST PUSH32 0x706F6F6C206861732066696E6973686564000000000000000000000000000000 PUSH1 0x0 DUP3 ADD MSTORE POP JUMP JUMPDEST PUSH2 0x4599 DUP2 PUSH2 0x41BB JUMP JUMPDEST DUP2 EQ PUSH2 0x45A4 JUMPI PUSH1 0x0 DUP1 REVERT JUMPDEST POP JUMP JUMPDEST PUSH2 0x45B0 DUP2 PUSH2 0x41CD JUMP JUMPDEST DUP2 EQ PUSH2 0x45BB JUMPI PUSH1 0x0 DUP1 REVERT JUMPDEST POP JUMP JUMPDEST PUSH2 0x45C7 DUP2 PUSH2 0x41D9 JUMP JUMPDEST DUP2 EQ PUSH2 0x45D2 JUMPI PUSH1 0x0 DUP1 REVERT JUMPDEST POP JUMP JUMPDEST PUSH2 0x45DE DUP2 PUSH2 0x4203 JUMP JUMPDEST DUP2 EQ PUSH2 0x45E9 JUMPI PUSH1 0x0 DUP1 REVERT JUMPDEST POP JUMP INVALID LOG2 PUSH5 0x6970667358 0x22 SLT KECCAK256 0x29 0xBF LOG0 SWAP7 PUSH6 0xA80BE91DAA76 EXP 0xE8 SSTORE CREATE2 STATICCALL PUSH20 0x401DCEA359BCF17B2222F293D5765864736F6C63 NUMBER STOP ADDMOD SMOD STOP CALLER "
				},
				"gasEstimates": {
					"creation": {
						"codeDepositCost": "3590800",
						"executionCost": "infinite",
						"totalCost": "infinite"
					},
					"external": {
						"Award(bytes32,uint256,uint256,uint256)": "infinite",
						"CheckBasal()": "4696",
						"CheckExpect(bytes32)": "infinite",
						"CheckVoteTickets()": "2570",
						"Picking(address,uint256,bytes32,uint256,uint256,uint256)": "infinite",
						"Set_Basal(bytes32,uint256)": "infinite",
						"Set_Pool(string,string,string,bool)": "infinite",
						"Test(address,uint256,bytes32,uint256,uint256,uint256)": "infinite",
						"Withdrawal(address,bytes32)": "infinite",
						"getAllPoolKeys()": "infinite",
						"getLastBNB()": "4631",
						"getPool(bytes32)": "infinite",
						"voteWithdrawal(address,uint256)": "infinite",
						"withdrawBNBInContract(address)": "infinite"
					},
					"internal": {
						"addressToString(address)": "infinite",
						"bytes32ToString(bytes32)": "infinite",
						"contains(bytes32)": "2304",
						"strConcat(string memory,string memory)": "infinite",
						"stringCompare(string memory,string memory)": "infinite",
						"toString(bytes memory)": "infinite",
						"uint256ToString(uint256)": "infinite"
					}
				},
				"methodIdentifiers": {
					"Award(bytes32,uint256,uint256,uint256)": "74fe9bc2",
					"CheckBasal()": "3e6ff1a2",
					"CheckExpect(bytes32)": "4121855f",
					"CheckVoteTickets()": "baf41269",
					"Picking(address,uint256,bytes32,uint256,uint256,uint256)": "47e4dd27",
					"Set_Basal(bytes32,uint256)": "2bf21ecc",
					"Set_Pool(string,string,string,bool)": "357965ba",
					"Test(address,uint256,bytes32,uint256,uint256,uint256)": "22d8325c",
					"Withdrawal(address,bytes32)": "0ce49053",
					"getAllPoolKeys()": "ea8870c0",
					"getLastBNB()": "0c66b373",
					"getPool(bytes32)": "f6c00927",
					"voteWithdrawal(address,uint256)": "9bd0abf1",
					"withdrawBNBInContract(address)": "2775e02c"
				}
			},
			"storageLayout": {
				"storage": [
					{
						"astId": 198,
						"contract": "wwcc-contracts/contracts/wwccPool.sol:WCPOOL",
						"label": "owner",
						"offset": 0,
						"slot": "0",
						"type": "t_address"
					},
					{
						"astId": 200,
						"contract": "wwcc-contracts/contracts/wwccPool.sol:WCPOOL",
						"label": "nextBasalLast",
						"offset": 0,
						"slot": "1",
						"type": "t_uint256"
					},
					{
						"astId": 203,
						"contract": "wwcc-contracts/contracts/wwccPool.sol:WCPOOL",
						"label": "poolKeys",
						"offset": 0,
						"slot": "2",
						"type": "t_array(t_bytes32)dyn_storage"
					},
					{
						"astId": 205,
						"contract": "wwcc-contracts/contracts/wwccPool.sol:WCPOOL",
						"label": "lastBNB",
						"offset": 0,
						"slot": "3",
						"type": "t_uint256"
					},
					{
						"astId": 209,
						"contract": "wwcc-contracts/contracts/wwccPool.sol:WCPOOL",
						"label": "voteAmount",
						"offset": 0,
						"slot": "4",
						"type": "t_mapping(t_address,t_uint256)"
					},
					{
						"astId": 214,
						"contract": "wwcc-contracts/contracts/wwccPool.sol:WCPOOL",
						"label": "WcPools",
						"offset": 0,
						"slot": "5",
						"type": "t_mapping(t_bytes32,t_struct(WcPool)153_storage)"
					},
					{
						"astId": 219,
						"contract": "wwcc-contracts/contracts/wwccPool.sol:WCPOOL",
						"label": "allScorePoolInfo",
						"offset": 0,
						"slot": "6",
						"type": "t_mapping(t_bytes32,t_struct(AllScorePool)171_storage)"
					},
					{
						"astId": 223,
						"contract": "wwcc-contracts/contracts/wwccPool.sol:WCPOOL",
						"label": "singleScorePool",
						"offset": 0,
						"slot": "7",
						"type": "t_mapping(t_string_memory_ptr,t_uint256)"
					},
					{
						"astId": 228,
						"contract": "wwcc-contracts/contracts/wwccPool.sol:WCPOOL",
						"label": "joinerAllPicking",
						"offset": 0,
						"slot": "8",
						"type": "t_mapping(t_address,t_struct(JoinerAllPicking)178_storage)"
					}
				],
				"types": {
					"t_address": {
						"encoding": "inplace",
						"label": "address",
						"numberOfBytes": "20"
					},
					"t_array(t_bytes32)dyn_storage": {
						"base": "t_bytes32",
						"encoding": "dynamic_array",
						"label": "bytes32[]",
						"numberOfBytes": "32"
					},
					"t_array(t_struct(JoinerPicking)193_storage)dyn_storage": {
						"base": "t_struct(JoinerPicking)193_storage",
						"encoding": "dynamic_array",
						"label": "struct WCPOOL.JoinerPicking[]",
						"numberOfBytes": "32"
					},
					"t_bool": {
						"encoding": "inplace",
						"label": "bool",
						"numberOfBytes": "1"
					},
					"t_bytes32": {
						"encoding": "inplace",
						"label": "bytes32",
						"numberOfBytes": "32"
					},
					"t_mapping(t_address,t_struct(JoinerAllPicking)178_storage)": {
						"encoding": "mapping",
						"key": "t_address",
						"label": "mapping(address => struct WCPOOL.JoinerAllPicking)",
						"numberOfBytes": "32",
						"value": "t_struct(JoinerAllPicking)178_storage"
					},
					"t_mapping(t_address,t_uint256)": {
						"encoding": "mapping",
						"key": "t_address",
						"label": "mapping(address => uint256)",
						"numberOfBytes": "32",
						"value": "t_uint256"
					},
					"t_mapping(t_bytes32,t_struct(AllScorePool)171_storage)": {
						"encoding": "mapping",
						"key": "t_bytes32",
						"label": "mapping(bytes32 => struct WCPOOL.AllScorePool)",
						"numberOfBytes": "32",
						"value": "t_struct(AllScorePool)171_storage"
					},
					"t_mapping(t_bytes32,t_struct(WcPool)153_storage)": {
						"encoding": "mapping",
						"key": "t_bytes32",
						"label": "mapping(bytes32 => struct WCPOOL.WcPool)",
						"numberOfBytes": "32",
						"value": "t_struct(WcPool)153_storage"
					},
					"t_mapping(t_string_memory_ptr,t_uint256)": {
						"encoding": "mapping",
						"key": "t_string_memory_ptr",
						"label": "mapping(string => uint256)",
						"numberOfBytes": "32",
						"value": "t_uint256"
					},
					"t_string_memory_ptr": {
						"encoding": "bytes",
						"label": "string",
						"numberOfBytes": "32"
					},
					"t_string_storage": {
						"encoding": "bytes",
						"label": "string",
						"numberOfBytes": "32"
					},
					"t_struct(AllScorePool)171_storage": {
						"encoding": "inplace",
						"label": "struct WCPOOL.AllScorePool",
						"members": [
							{
								"astId": 168,
								"contract": "wwcc-contracts/contracts/wwccPool.sol:WCPOOL",
								"label": "separateBet",
								"offset": 0,
								"slot": "0",
								"type": "t_array(t_struct(JoinerPicking)193_storage)dyn_storage"
							},
							{
								"astId": 170,
								"contract": "wwcc-contracts/contracts/wwccPool.sol:WCPOOL",
								"label": "poolKey",
								"offset": 0,
								"slot": "1",
								"type": "t_bytes32"
							}
						],
						"numberOfBytes": "64"
					},
					"t_struct(JoinerAllPicking)178_storage": {
						"encoding": "inplace",
						"label": "struct WCPOOL.JoinerAllPicking",
						"members": [
							{
								"astId": 175,
								"contract": "wwcc-contracts/contracts/wwccPool.sol:WCPOOL",
								"label": "separateBet",
								"offset": 0,
								"slot": "0",
								"type": "t_array(t_struct(JoinerPicking)193_storage)dyn_storage"
							},
							{
								"astId": 177,
								"contract": "wwcc-contracts/contracts/wwccPool.sol:WCPOOL",
								"label": "joiner",
								"offset": 0,
								"slot": "1",
								"type": "t_address"
							}
						],
						"numberOfBytes": "64"
					},
					"t_struct(JoinerPicking)193_storage": {
						"encoding": "inplace",
						"label": "struct WCPOOL.JoinerPicking",
						"members": [
							{
								"astId": 180,
								"contract": "wwcc-contracts/contracts/wwccPool.sol:WCPOOL",
								"label": "weight",
								"offset": 0,
								"slot": "0",
								"type": "t_uint256"
							},
							{
								"astId": 182,
								"contract": "wwcc-contracts/contracts/wwccPool.sol:WCPOOL",
								"label": "kind",
								"offset": 0,
								"slot": "1",
								"type": "t_uint256"
							},
							{
								"astId": 184,
								"contract": "wwcc-contracts/contracts/wwccPool.sol:WCPOOL",
								"label": "homeScore",
								"offset": 0,
								"slot": "2",
								"type": "t_uint256"
							},
							{
								"astId": 186,
								"contract": "wwcc-contracts/contracts/wwccPool.sol:WCPOOL",
								"label": "visitScore",
								"offset": 0,
								"slot": "3",
								"type": "t_uint256"
							},
							{
								"astId": 188,
								"contract": "wwcc-contracts/contracts/wwccPool.sol:WCPOOL",
								"label": "joiner",
								"offset": 0,
								"slot": "4",
								"type": "t_address"
							},
							{
								"astId": 190,
								"contract": "wwcc-contracts/contracts/wwccPool.sol:WCPOOL",
								"label": "pickingKey",
								"offset": 0,
								"slot": "5",
								"type": "t_string_storage"
							},
							{
								"astId": 192,
								"contract": "wwcc-contracts/contracts/wwccPool.sol:WCPOOL",
								"label": "finished",
								"offset": 0,
								"slot": "6",
								"type": "t_bool"
							}
						],
						"numberOfBytes": "224"
					},
					"t_struct(WcPool)153_storage": {
						"encoding": "inplace",
						"label": "struct WCPOOL.WcPool",
						"members": [
							{
								"astId": 132,
								"contract": "wwcc-contracts/contracts/wwccPool.sol:WCPOOL",
								"label": "home",
								"offset": 0,
								"slot": "0",
								"type": "t_string_storage"
							},
							{
								"astId": 134,
								"contract": "wwcc-contracts/contracts/wwccPool.sol:WCPOOL",
								"label": "visit",
								"offset": 0,
								"slot": "1",
								"type": "t_string_storage"
							},
							{
								"astId": 136,
								"contract": "wwcc-contracts/contracts/wwccPool.sol:WCPOOL",
								"label": "rounds",
								"offset": 0,
								"slot": "2",
								"type": "t_string_storage"
							},
							{
								"astId": 138,
								"contract": "wwcc-contracts/contracts/wwccPool.sol:WCPOOL",
								"label": "wPool",
								"offset": 0,
								"slot": "3",
								"type": "t_uint256"
							},
							{
								"astId": 140,
								"contract": "wwcc-contracts/contracts/wwccPool.sol:WCPOOL",
								"label": "dPool",
								"offset": 0,
								"slot": "4",
								"type": "t_uint256"
							},
							{
								"astId": 142,
								"contract": "wwcc-contracts/contracts/wwccPool.sol:WCPOOL",
								"label": "lPool",
								"offset": 0,
								"slot": "5",
								"type": "t_uint256"
							},
							{
								"astId": 144,
								"contract": "wwcc-contracts/contracts/wwccPool.sol:WCPOOL",
								"label": "sPool",
								"offset": 0,
								"slot": "6",
								"type": "t_uint256"
							},
							{
								"astId": 146,
								"contract": "wwcc-contracts/contracts/wwccPool.sol:WCPOOL",
								"label": "basal",
								"offset": 0,
								"slot": "7",
								"type": "t_uint256"
							},
							{
								"astId": 148,
								"contract": "wwcc-contracts/contracts/wwccPool.sol:WCPOOL",
								"label": "decided",
								"offset": 0,
								"slot": "8",
								"type": "t_bool"
							},
							{
								"astId": 150,
								"contract": "wwcc-contracts/contracts/wwccPool.sol:WCPOOL",
								"label": "used",
								"offset": 1,
								"slot": "8",
								"type": "t_bool"
							},
							{
								"astId": 152,
								"contract": "wwcc-contracts/contracts/wwccPool.sol:WCPOOL",
								"label": "finished",
								"offset": 2,
								"slot": "8",
								"type": "t_bool"
							}
						],
						"numberOfBytes": "288"
					},
					"t_uint256": {
						"encoding": "inplace",
						"label": "uint256",
						"numberOfBytes": "32"
					}
				}
			},
			"userdoc": {
				"kind": "user",
				"methods": {},
				"version": 1
			}
		}
	}
}