{
	"wwcc-contracts/contracts/wwccPool.sol": {
		"WCPOOL": {
			"abi": [
				{
					"inputs": [
						{
							"internalType": "address",
							"name": "holder",
							"type": "address"
						},
						{
							"internalType": "uint256",
							"name": "firstBasal",
							"type": "uint256"
						}
					],
					"stateMutability": "nonpayable",
					"type": "constructor"
				},
				{
					"anonymous": false,
					"inputs": [
						{
							"indexed": false,
							"internalType": "address",
							"name": "",
							"type": "address"
						},
						{
							"indexed": false,
							"internalType": "uint256",
							"name": "",
							"type": "uint256"
						}
					],
					"name": "Received",
					"type": "event"
				},
				{
					"inputs": [
						{
							"internalType": "bytes32",
							"name": "poolKey",
							"type": "bytes32"
						},
						{
							"internalType": "uint256",
							"name": "homeScore",
							"type": "uint256"
						},
						{
							"internalType": "uint256",
							"name": "visitScore",
							"type": "uint256"
						},
						{
							"internalType": "uint256",
							"name": "result",
							"type": "uint256"
						}
					],
					"name": "Award",
					"outputs": [
						{
							"internalType": "bool",
							"name": "",
							"type": "bool"
						}
					],
					"stateMutability": "payable",
					"type": "function"
				},
				{
					"inputs": [],
					"name": "CheckBasal",
					"outputs": [
						{
							"internalType": "uint256",
							"name": "",
							"type": "uint256"
						}
					],
					"stateMutability": "view",
					"type": "function"
				},
				{
					"inputs": [
						{
							"internalType": "bytes32",
							"name": "poolKey",
							"type": "bytes32"
						}
					],
					"name": "CheckExpect",
					"outputs": [
						{
							"internalType": "uint256",
							"name": "",
							"type": "uint256"
						}
					],
					"stateMutability": "view",
					"type": "function"
				},
				{
					"inputs": [],
					"name": "CheckVoteTickets",
					"outputs": [
						{
							"internalType": "uint256",
							"name": "",
							"type": "uint256"
						}
					],
					"stateMutability": "view",
					"type": "function"
				},
				{
					"inputs": [
						{
							"internalType": "address",
							"name": "joiner",
							"type": "address"
						},
						{
							"internalType": "uint256",
							"name": "weight",
							"type": "uint256"
						},
						{
							"internalType": "bytes32",
							"name": "poolKey",
							"type": "bytes32"
						},
						{
							"internalType": "uint256",
							"name": "homeScore",
							"type": "uint256"
						},
						{
							"internalType": "uint256",
							"name": "visitScore",
							"type": "uint256"
						},
						{
							"internalType": "uint256",
							"name": "kind",
							"type": "uint256"
						}
					],
					"name": "Picking",
					"outputs": [
						{
							"internalType": "bool",
							"name": "",
							"type": "bool"
						}
					],
					"stateMutability": "nonpayable",
					"type": "function"
				},
				{
					"inputs": [
						{
							"internalType": "bytes32",
							"name": "poolKey",
							"type": "bytes32"
						},
						{
							"internalType": "uint256",
							"name": "basal",
							"type": "uint256"
						}
					],
					"name": "Set_Basal",
					"outputs": [
						{
							"internalType": "bool",
							"name": "",
							"type": "bool"
						}
					],
					"stateMutability": "nonpayable",
					"type": "function"
				},
				{
					"inputs": [
						{
							"internalType": "string",
							"name": "home",
							"type": "string"
						},
						{
							"internalType": "string",
							"name": "visit",
							"type": "string"
						},
						{
							"internalType": "string",
							"name": "rounds",
							"type": "string"
						},
						{
							"internalType": "bool",
							"name": "decided",
							"type": "bool"
						}
					],
					"name": "Set_Pool",
					"outputs": [
						{
							"internalType": "bytes32",
							"name": "",
							"type": "bytes32"
						}
					],
					"stateMutability": "nonpayable",
					"type": "function"
				},
				{
					"inputs": [
						{
							"internalType": "address",
							"name": "joiner",
							"type": "address"
						},
						{
							"internalType": "uint256",
							"name": "weight",
							"type": "uint256"
						},
						{
							"internalType": "bytes32",
							"name": "poolKey",
							"type": "bytes32"
						},
						{
							"internalType": "uint256",
							"name": "homeScore",
							"type": "uint256"
						},
						{
							"internalType": "uint256",
							"name": "visitScore",
							"type": "uint256"
						},
						{
							"internalType": "uint256",
							"name": "kind",
							"type": "uint256"
						}
					],
					"name": "Test",
					"outputs": [
						{
							"internalType": "bool",
							"name": "",
							"type": "bool"
						}
					],
					"stateMutability": "nonpayable",
					"type": "function"
				},
				{
					"inputs": [
						{
							"internalType": "address",
							"name": "toAddress",
							"type": "address"
						},
						{
							"internalType": "bytes32",
							"name": "poolKey",
							"type": "bytes32"
						}
					],
					"name": "Withdrawal",
					"outputs": [
						{
							"internalType": "bool",
							"name": "",
							"type": "bool"
						}
					],
					"stateMutability": "payable",
					"type": "function"
				},
				{
					"inputs": [],
					"name": "getAllPoolKeys",
					"outputs": [
						{
							"internalType": "bytes32[]",
							"name": "",
							"type": "bytes32[]"
						}
					],
					"stateMutability": "view",
					"type": "function"
				},
				{
					"inputs": [],
					"name": "getLastBNB",
					"outputs": [
						{
							"internalType": "uint256",
							"name": "",
							"type": "uint256"
						}
					],
					"stateMutability": "view",
					"type": "function"
				},
				{
					"inputs": [
						{
							"internalType": "bytes32",
							"name": "poolKey",
							"type": "bytes32"
						}
					],
					"name": "getPool",
					"outputs": [
						{
							"internalType": "string",
							"name": "vs",
							"type": "string"
						},
						{
							"internalType": "string",
							"name": "rounds",
							"type": "string"
						},
						{
							"components": [
								{
									"internalType": "uint256",
									"name": "wPool",
									"type": "uint256"
								},
								{
									"internalType": "uint256",
									"name": "dPool",
									"type": "uint256"
								},
								{
									"internalType": "uint256",
									"name": "lPool",
									"type": "uint256"
								},
								{
									"internalType": "uint256",
									"name": "sPool",
									"type": "uint256"
								},
								{
									"internalType": "uint256",
									"name": "basal",
									"type": "uint256"
								}
							],
							"internalType": "struct WCPOOL.PoolViewInfo",
							"name": "viewInfo",
							"type": "tuple"
						}
					],
					"stateMutability": "view",
					"type": "function"
				},
				{
					"inputs": [
						{
							"internalType": "address",
							"name": "joiner",
							"type": "address"
						},
						{
							"internalType": "uint256",
							"name": "amount",
							"type": "uint256"
						}
					],
					"name": "voteWithdrawal",
					"outputs": [
						{
							"internalType": "bool",
							"name": "",
							"type": "bool"
						}
					],
					"stateMutability": "payable",
					"type": "function"
				},
				{
					"inputs": [
						{
							"internalType": "address",
							"name": "toAddress",
							"type": "address"
						}
					],
					"name": "withdrawBNBInContract",
					"outputs": [
						{
							"internalType": "bool",
							"name": "",
							"type": "bool"
						}
					],
					"stateMutability": "payable",
					"type": "function"
				},
				{
					"stateMutability": "payable",
					"type": "receive"
				}
			],
			"devdoc": {
				"kind": "dev",
				"methods": {},
				"version": 1
			},
			"evm": {
				"assembly": "    /* \"wwcc-contracts/contracts/wwccPool.sol\":96:14576  contract WCPOOL {... */\n  mstore(0x40, 0x80)\n    /* \"wwcc-contracts/contracts/wwccPool.sol\":1776:1997  constructor(... */\n  callvalue\n  dup1\n  iszero\n  tag_1\n  jumpi\n  0x00\n  dup1\n  revert\ntag_1:\n  pop\n  mload(0x40)\n  sub(codesize, bytecodeSize)\n  dup1\n  bytecodeSize\n  dup4\n  codecopy\n  dup2\n  dup2\n  add\n  0x40\n  mstore\n  dup2\n  add\n  swap1\n  tag_2\n  swap2\n  swap1\n  tag_3\n  jump\t// in\ntag_2:\n    /* \"wwcc-contracts/contracts/wwccPool.sol\":1857:1863  holder */\n  dup2\n    /* \"wwcc-contracts/contracts/wwccPool.sol\":1849:1854  owner */\n  0x00\n  dup1\n    /* \"wwcc-contracts/contracts/wwccPool.sol\":1849:1863  owner = holder */\n  0x0100\n  exp\n  dup2\n  sload\n  dup2\n  0xffffffffffffffffffffffffffffffffffffffff\n  mul\n  not\n  and\n  swap1\n  dup4\n  0xffffffffffffffffffffffffffffffffffffffff\n  and\n  mul\n  or\n  swap1\n  sstore\n  pop\n    /* \"wwcc-contracts/contracts/wwccPool.sol\":1883:1884  0 */\n  0x00\n    /* \"wwcc-contracts/contracts/wwccPool.sol\":1873:1880  lastBNB */\n  0x03\n    /* \"wwcc-contracts/contracts/wwccPool.sol\":1873:1884  lastBNB = 0 */\n  dup2\n  swap1\n  sstore\n  pop\n    /* \"wwcc-contracts/contracts/wwccPool.sol\":1910:1920  firstBasal */\n  dup1\n    /* \"wwcc-contracts/contracts/wwccPool.sol\":1894:1907  nextBasalLast */\n  0x01\n    /* \"wwcc-contracts/contracts/wwccPool.sol\":1894:1920  nextBasalLast = firstBasal */\n  dup2\n  swap1\n  sstore\n  pop\n    /* \"wwcc-contracts/contracts/wwccPool.sol\":1776:1997  constructor(... */\n  pop\n  pop\n    /* \"wwcc-contracts/contracts/wwccPool.sol\":96:14576  contract WCPOOL {... */\n  jump(tag_6)\n    /* \"#utility.yul\":7:150   */\ntag_8:\n    /* \"#utility.yul\":64:69   */\n  0x00\n    /* \"#utility.yul\":95:101   */\n  dup2\n    /* \"#utility.yul\":89:102   */\n  mload\n    /* \"#utility.yul\":80:102   */\n  swap1\n  pop\n    /* \"#utility.yul\":111:144   */\n  tag_10\n    /* \"#utility.yul\":138:143   */\n  dup2\n    /* \"#utility.yul\":111:144   */\n  tag_11\n  jump\t// in\ntag_10:\n    /* \"#utility.yul\":7:150   */\n  swap3\n  swap2\n  pop\n  pop\n  jump\t// out\n    /* \"#utility.yul\":156:299   */\ntag_12:\n    /* \"#utility.yul\":213:218   */\n  0x00\n    /* \"#utility.yul\":244:250   */\n  dup2\n    /* \"#utility.yul\":238:251   */\n  mload\n    /* \"#utility.yul\":229:251   */\n  swap1\n  pop\n    /* \"#utility.yul\":260:293   */\n  tag_14\n    /* \"#utility.yul\":287:292   */\n  dup2\n    /* \"#utility.yul\":260:293   */\n  tag_15\n  jump\t// in\ntag_14:\n    /* \"#utility.yul\":156:299   */\n  swap3\n  swap2\n  pop\n  pop\n  jump\t// out\n    /* \"#utility.yul\":305:812   */\ntag_3:\n    /* \"#utility.yul\":384:390   */\n  0x00\n    /* \"#utility.yul\":392:398   */\n  dup1\n    /* \"#utility.yul\":441:443   */\n  0x40\n    /* \"#utility.yul\":429:438   */\n  dup4\n    /* \"#utility.yul\":420:427   */\n  dup6\n    /* \"#utility.yul\":416:439   */\n  sub\n    /* \"#utility.yul\":412:444   */\n  slt\n    /* \"#utility.yul\":409:528   */\n  iszero\n  tag_17\n  jumpi\n    /* \"#utility.yul\":447:526   */\n  tag_18\n  tag_19\n  jump\t// in\ntag_18:\n    /* \"#utility.yul\":409:528   */\ntag_17:\n    /* \"#utility.yul\":567:568   */\n  0x00\n    /* \"#utility.yul\":592:656   */\n  tag_20\n    /* \"#utility.yul\":648:655   */\n  dup6\n    /* \"#utility.yul\":639:645   */\n  dup3\n    /* \"#utility.yul\":628:637   */\n  dup7\n    /* \"#utility.yul\":624:646   */\n  add\n    /* \"#utility.yul\":592:656   */\n  tag_8\n  jump\t// in\ntag_20:\n    /* \"#utility.yul\":582:656   */\n  swap3\n  pop\n    /* \"#utility.yul\":538:666   */\n  pop\n    /* \"#utility.yul\":705:707   */\n  0x20\n    /* \"#utility.yul\":731:795   */\n  tag_21\n    /* \"#utility.yul\":787:794   */\n  dup6\n    /* \"#utility.yul\":778:784   */\n  dup3\n    /* \"#utility.yul\":767:776   */\n  dup7\n    /* \"#utility.yul\":763:785   */\n  add\n    /* \"#utility.yul\":731:795   */\n  tag_12\n  jump\t// in\ntag_21:\n    /* \"#utility.yul\":721:795   */\n  swap2\n  pop\n    /* \"#utility.yul\":676:805   */\n  pop\n    /* \"#utility.yul\":305:812   */\n  swap3\n  pop\n  swap3\n  swap1\n  pop\n  jump\t// out\n    /* \"#utility.yul\":899:995   */\ntag_24:\n    /* \"#utility.yul\":936:943   */\n  0x00\n    /* \"#utility.yul\":965:989   */\n  tag_26\n    /* \"#utility.yul\":983:988   */\n  dup3\n    /* \"#utility.yul\":965:989   */\n  tag_27\n  jump\t// in\ntag_26:\n    /* \"#utility.yul\":954:989   */\n  swap1\n  pop\n    /* \"#utility.yul\":899:995   */\n  swap2\n  swap1\n  pop\n  jump\t// out\n    /* \"#utility.yul\":1001:1127   */\ntag_27:\n    /* \"#utility.yul\":1038:1045   */\n  0x00\n    /* \"#utility.yul\":1078:1120   */\n  0xffffffffffffffffffffffffffffffffffffffff\n    /* \"#utility.yul\":1071:1076   */\n  dup3\n    /* \"#utility.yul\":1067:1121   */\n  and\n    /* \"#utility.yul\":1056:1121   */\n  swap1\n  pop\n    /* \"#utility.yul\":1001:1127   */\n  swap2\n  swap1\n  pop\n  jump\t// out\n    /* \"#utility.yul\":1133:1210   */\ntag_29:\n    /* \"#utility.yul\":1170:1177   */\n  0x00\n    /* \"#utility.yul\":1199:1204   */\n  dup2\n    /* \"#utility.yul\":1188:1204   */\n  swap1\n  pop\n    /* \"#utility.yul\":1133:1210   */\n  swap2\n  swap1\n  pop\n  jump\t// out\n    /* \"#utility.yul\":1339:1456   */\ntag_19:\n    /* \"#utility.yul\":1448:1449   */\n  0x00\n    /* \"#utility.yul\":1445:1446   */\n  dup1\n    /* \"#utility.yul\":1438:1450   */\n  revert\n    /* \"#utility.yul\":1462:1584   */\ntag_11:\n    /* \"#utility.yul\":1535:1559   */\n  tag_35\n    /* \"#utility.yul\":1553:1558   */\n  dup2\n    /* \"#utility.yul\":1535:1559   */\n  tag_24\n  jump\t// in\ntag_35:\n    /* \"#utility.yul\":1528:1533   */\n  dup2\n    /* \"#utility.yul\":1525:1560   */\n  eq\n    /* \"#utility.yul\":1515:1578   */\n  tag_36\n  jumpi\n    /* \"#utility.yul\":1574:1575   */\n  0x00\n    /* \"#utility.yul\":1571:1572   */\n  dup1\n    /* \"#utility.yul\":1564:1576   */\n  revert\n    /* \"#utility.yul\":1515:1578   */\ntag_36:\n    /* \"#utility.yul\":1462:1584   */\n  pop\n  jump\t// out\n    /* \"#utility.yul\":1590:1712   */\ntag_15:\n    /* \"#utility.yul\":1663:1687   */\n  tag_38\n    /* \"#utility.yul\":1681:1686   */\n  dup2\n    /* \"#utility.yul\":1663:1687   */\n  tag_29\n  jump\t// in\ntag_38:\n    /* \"#utility.yul\":1656:1661   */\n  dup2\n    /* \"#utility.yul\":1653:1688   */\n  eq\n    /* \"#utility.yul\":1643:1706   */\n  tag_39\n  jumpi\n    /* \"#utility.yul\":1702:1703   */\n  0x00\n    /* \"#utility.yul\":1699:1700   */\n  dup1\n    /* \"#utility.yul\":1692:1704   */\n  revert\n    /* \"#utility.yul\":1643:1706   */\ntag_39:\n    /* \"#utility.yul\":1590:1712   */\n  pop\n  jump\t// out\n    /* \"wwcc-contracts/contracts/wwccPool.sol\":96:14576  contract WCPOOL {... */\ntag_6:\n  dataSize(sub_0)\n  dup1\n  dataOffset(sub_0)\n  0x00\n  codecopy\n  0x00\n  return\nstop\n\nsub_0: assembly {\n        /* \"wwcc-contracts/contracts/wwccPool.sol\":96:14576  contract WCPOOL {... */\n      mstore(0x40, 0x80)\n      jumpi(tag_1, lt(calldatasize, 0x04))\n      shr(0xe0, calldataload(0x00))\n      dup1\n      0x4121855f\n      gt\n      tag_17\n      jumpi\n      dup1\n      0x9bd0abf1\n      gt\n      tag_18\n      jumpi\n      dup1\n      0x9bd0abf1\n      eq\n      tag_13\n      jumpi\n      dup1\n      0xbaf41269\n      eq\n      tag_14\n      jumpi\n      dup1\n      0xea8870c0\n      eq\n      tag_15\n      jumpi\n      dup1\n      0xf6c00927\n      eq\n      tag_16\n      jumpi\n      jump(tag_2)\n    tag_18:\n      dup1\n      0x4121855f\n      eq\n      tag_10\n      jumpi\n      dup1\n      0x47e4dd27\n      eq\n      tag_11\n      jumpi\n      dup1\n      0x74fe9bc2\n      eq\n      tag_12\n      jumpi\n      jump(tag_2)\n    tag_17:\n      dup1\n      0x2775e02c\n      gt\n      tag_19\n      jumpi\n      dup1\n      0x2775e02c\n      eq\n      tag_6\n      jumpi\n      dup1\n      0x2bf21ecc\n      eq\n      tag_7\n      jumpi\n      dup1\n      0x357965ba\n      eq\n      tag_8\n      jumpi\n      dup1\n      0x3e6ff1a2\n      eq\n      tag_9\n      jumpi\n      jump(tag_2)\n    tag_19:\n      dup1\n      0x0c66b373\n      eq\n      tag_3\n      jumpi\n      dup1\n      0x0ce49053\n      eq\n      tag_4\n      jumpi\n      dup1\n      0x22d8325c\n      eq\n      tag_5\n      jumpi\n      jump(tag_2)\n    tag_1:\n      jumpi(tag_2, calldatasize)\n        /* \"wwcc-contracts/contracts/wwccPool.sol\":14381:14386  owner */\n      0x00\n      dup1\n      sload\n      swap1\n      0x0100\n      exp\n      swap1\n      div\n      0xffffffffffffffffffffffffffffffffffffffff\n      and\n        /* \"wwcc-contracts/contracts/wwccPool.sol\":14367:14386  msg.sender != owner */\n      0xffffffffffffffffffffffffffffffffffffffff\n      and\n        /* \"wwcc-contracts/contracts/wwccPool.sol\":14367:14377  msg.sender */\n      caller\n        /* \"wwcc-contracts/contracts/wwccPool.sol\":14367:14386  msg.sender != owner */\n      0xffffffffffffffffffffffffffffffffffffffff\n      and\n      eq\n        /* \"wwcc-contracts/contracts/wwccPool.sol\":14364:14569  if(msg.sender != owner){... */\n      tag_22\n      jumpi\n        /* \"wwcc-contracts/contracts/wwccPool.sol\":14426:14458  msg.value.div(10000000000000000) */\n      tag_23\n        /* \"wwcc-contracts/contracts/wwccPool.sol\":14440:14457  10000000000000000 */\n      0x2386f26fc10000\n        /* \"wwcc-contracts/contracts/wwccPool.sol\":14426:14435  msg.value */\n      callvalue\n        /* \"wwcc-contracts/contracts/wwccPool.sol\":14426:14439  msg.value.div */\n      tag_24\n      swap1\n        /* \"wwcc-contracts/contracts/wwccPool.sol\":14426:14458  msg.value.div(10000000000000000) */\n      swap2\n      swap1\n      0xffffffff\n      and\n      jump\t// in\n    tag_23:\n        /* \"wwcc-contracts/contracts/wwccPool.sol\":14400:14410  voteAmount */\n      0x04\n        /* \"wwcc-contracts/contracts/wwccPool.sol\":14400:14422  voteAmount[msg.sender] */\n      0x00\n        /* \"wwcc-contracts/contracts/wwccPool.sol\":14411:14421  msg.sender */\n      caller\n        /* \"wwcc-contracts/contracts/wwccPool.sol\":14400:14422  voteAmount[msg.sender] */\n      0xffffffffffffffffffffffffffffffffffffffff\n      and\n      0xffffffffffffffffffffffffffffffffffffffff\n      and\n      dup2\n      mstore\n      0x20\n      add\n      swap1\n      dup2\n      mstore\n      0x20\n      add\n      0x00\n      keccak256\n      0x00\n        /* \"wwcc-contracts/contracts/wwccPool.sol\":14400:14458  voteAmount[msg.sender] += msg.value.div(10000000000000000) */\n      dup3\n      dup3\n      sload\n      tag_25\n      swap2\n      swap1\n      tag_26\n      jump\t// in\n    tag_25:\n      swap3\n      pop\n      pop\n      dup2\n      swap1\n      sstore\n      pop\n        /* \"wwcc-contracts/contracts/wwccPool.sol\":14482:14491  msg.value */\n      callvalue\n        /* \"wwcc-contracts/contracts/wwccPool.sol\":14471:14478  lastBNB */\n      0x03\n      0x00\n        /* \"wwcc-contracts/contracts/wwccPool.sol\":14471:14491  lastBNB += msg.value */\n      dup3\n      dup3\n      sload\n      tag_27\n      swap2\n      swap1\n      tag_26\n      jump\t// in\n    tag_27:\n      swap3\n      pop\n      pop\n      dup2\n      swap1\n      sstore\n      pop\n        /* \"wwcc-contracts/contracts/wwccPool.sol\":14509:14540  Received(msg.sender, msg.value) */\n      0x88a5966d370b9919b20f3e2c13ff65706f196a4e32cc2c12bf57088f88525874\n        /* \"wwcc-contracts/contracts/wwccPool.sol\":14518:14528  msg.sender */\n      caller\n        /* \"wwcc-contracts/contracts/wwccPool.sol\":14530:14539  msg.value */\n      callvalue\n        /* \"wwcc-contracts/contracts/wwccPool.sol\":14509:14540  Received(msg.sender, msg.value) */\n      mload(0x40)\n      tag_28\n      swap3\n      swap2\n      swap1\n      tag_29\n      jump\t// in\n    tag_28:\n      mload(0x40)\n      dup1\n      swap2\n      sub\n      swap1\n      log1\n        /* \"wwcc-contracts/contracts/wwccPool.sol\":14364:14569  if(msg.sender != owner){... */\n      jump(tag_30)\n    tag_22:\n    tag_30:\n        /* \"wwcc-contracts/contracts/wwccPool.sol\":96:14576  contract WCPOOL {... */\n      stop\n    tag_2:\n      0x00\n      dup1\n      revert\n        /* \"wwcc-contracts/contracts/wwccPool.sol\":7211:7307  function getLastBNB() external onlyManager view returns (uint256){... */\n    tag_3:\n      callvalue\n      dup1\n      iszero\n      tag_31\n      jumpi\n      0x00\n      dup1\n      revert\n    tag_31:\n      pop\n      tag_32\n      tag_33\n      jump\t// in\n    tag_32:\n      mload(0x40)\n      tag_34\n      swap2\n      swap1\n      tag_35\n      jump\t// in\n    tag_34:\n      mload(0x40)\n      dup1\n      swap2\n      sub\n      swap1\n      return\n        /* \"wwcc-contracts/contracts/wwccPool.sol\":5513:6192  function Withdrawal(address toAddress,bytes32 poolKey) external onlyManager payable returns (bool){... */\n    tag_4:\n      tag_36\n      0x04\n      dup1\n      calldatasize\n      sub\n      dup2\n      add\n      swap1\n      tag_37\n      swap2\n      swap1\n      tag_38\n      jump\t// in\n    tag_37:\n      tag_39\n      jump\t// in\n    tag_36:\n      mload(0x40)\n      tag_40\n      swap2\n      swap1\n      tag_41\n      jump\t// in\n    tag_40:\n      mload(0x40)\n      dup1\n      swap2\n      sub\n      swap1\n      return\n        /* \"wwcc-contracts/contracts/wwccPool.sol\":4313:4893  function Test(address joiner,uint256 weight,bytes32 poolKey,uint256 homeScore,uint256 visitScore,uint256 kind) external returns(bool){... */\n    tag_5:\n      callvalue\n      dup1\n      iszero\n      tag_42\n      jumpi\n      0x00\n      dup1\n      revert\n    tag_42:\n      pop\n      tag_43\n      0x04\n      dup1\n      calldatasize\n      sub\n      dup2\n      add\n      swap1\n      tag_44\n      swap2\n      swap1\n      tag_45\n      jump\t// in\n    tag_44:\n      tag_46\n      jump\t// in\n    tag_43:\n      mload(0x40)\n      tag_47\n      swap2\n      swap1\n      tag_41\n      jump\t// in\n    tag_47:\n      mload(0x40)\n      dup1\n      swap2\n      sub\n      swap1\n      return\n        /* \"wwcc-contracts/contracts/wwccPool.sol\":11155:11399  function withdrawBNBInContract(address toAddress)external onlyManager payable returns(bool){... */\n    tag_6:\n      tag_48\n      0x04\n      dup1\n      calldatasize\n      sub\n      dup2\n      add\n      swap1\n      tag_49\n      swap2\n      swap1\n      tag_50\n      jump\t// in\n    tag_49:\n      tag_51\n      jump\t// in\n    tag_48:\n      mload(0x40)\n      tag_52\n      swap2\n      swap1\n      tag_41\n      jump\t// in\n    tag_52:\n      mload(0x40)\n      dup1\n      swap2\n      sub\n      swap1\n      return\n        /* \"wwcc-contracts/contracts/wwccPool.sol\":4948:5470  function Set_Basal(bytes32 poolKey,uint256 basal) external onlyManager  returns (bool){... */\n    tag_7:\n      callvalue\n      dup1\n      iszero\n      tag_53\n      jumpi\n      0x00\n      dup1\n      revert\n    tag_53:\n      pop\n      tag_54\n      0x04\n      dup1\n      calldatasize\n      sub\n      dup2\n      add\n      swap1\n      tag_55\n      swap2\n      swap1\n      tag_56\n      jump\t// in\n    tag_55:\n      tag_57\n      jump\t// in\n    tag_54:\n      mload(0x40)\n      tag_58\n      swap2\n      swap1\n      tag_41\n      jump\t// in\n    tag_58:\n      mload(0x40)\n      dup1\n      swap2\n      sub\n      swap1\n      return\n        /* \"wwcc-contracts/contracts/wwccPool.sol\":2039:2959  function Set_Pool(... */\n    tag_8:\n      callvalue\n      dup1\n      iszero\n      tag_59\n      jumpi\n      0x00\n      dup1\n      revert\n    tag_59:\n      pop\n      tag_60\n      0x04\n      dup1\n      calldatasize\n      sub\n      dup2\n      add\n      swap1\n      tag_61\n      swap2\n      swap1\n      tag_62\n      jump\t// in\n    tag_61:\n      tag_63\n      jump\t// in\n    tag_60:\n      mload(0x40)\n      tag_64\n      swap2\n      swap1\n      tag_65\n      jump\t// in\n    tag_64:\n      mload(0x40)\n      dup1\n      swap2\n      sub\n      swap1\n      return\n        /* \"wwcc-contracts/contracts/wwccPool.sol\":7369:7475  function CheckBasal() external onlyManager view  returns (uint256){... */\n    tag_9:\n      callvalue\n      dup1\n      iszero\n      tag_66\n      jumpi\n      0x00\n      dup1\n      revert\n    tag_66:\n      pop\n      tag_67\n      tag_68\n      jump\t// in\n    tag_67:\n      mload(0x40)\n      tag_69\n      swap2\n      swap1\n      tag_35\n      jump\t// in\n    tag_69:\n      mload(0x40)\n      dup1\n      swap2\n      sub\n      swap1\n      return\n        /* \"wwcc-contracts/contracts/wwccPool.sol\":6731:7103  function CheckExpect(bytes32 poolKey) external onlyManager view  returns (uint256){... */\n    tag_10:\n      callvalue\n      dup1\n      iszero\n      tag_70\n      jumpi\n      0x00\n      dup1\n      revert\n    tag_70:\n      pop\n      tag_71\n      0x04\n      dup1\n      calldatasize\n      sub\n      dup2\n      add\n      swap1\n      tag_72\n      swap2\n      swap1\n      tag_73\n      jump\t// in\n    tag_72:\n      tag_74\n      jump\t// in\n    tag_71:\n      mload(0x40)\n      tag_75\n      swap2\n      swap1\n      tag_35\n      jump\t// in\n    tag_75:\n      mload(0x40)\n      dup1\n      swap2\n      sub\n      swap1\n      return\n        /* \"wwcc-contracts/contracts/wwccPool.sol\":2982:4308  function Picking(address joiner,uint256 weight,bytes32 poolKey,uint256 homeScore,uint256 visitScore,uint256 kind) external returns(bool){... */\n    tag_11:\n      callvalue\n      dup1\n      iszero\n      tag_76\n      jumpi\n      0x00\n      dup1\n      revert\n    tag_76:\n      pop\n      tag_77\n      0x04\n      dup1\n      calldatasize\n      sub\n      dup2\n      add\n      swap1\n      tag_78\n      swap2\n      swap1\n      tag_45\n      jump\t// in\n    tag_78:\n      tag_79\n      jump\t// in\n    tag_77:\n      mload(0x40)\n      tag_80\n      swap2\n      swap1\n      tag_41\n      jump\t// in\n    tag_80:\n      mload(0x40)\n      dup1\n      swap2\n      sub\n      swap1\n      return\n        /* \"wwcc-contracts/contracts/wwccPool.sol\":7693:11150  function Award(bytes32 poolKey,uint256 homeScore,uint256 visitScore,uint256 result)  external onlyManager  payable returns(bool){... */\n    tag_12:\n      tag_81\n      0x04\n      dup1\n      calldatasize\n      sub\n      dup2\n      add\n      swap1\n      tag_82\n      swap2\n      swap1\n      tag_83\n      jump\t// in\n    tag_82:\n      tag_84\n      jump\t// in\n    tag_81:\n      mload(0x40)\n      tag_85\n      swap2\n      swap1\n      tag_41\n      jump\t// in\n    tag_85:\n      mload(0x40)\n      dup1\n      swap2\n      sub\n      swap1\n      return\n        /* \"wwcc-contracts/contracts/wwccPool.sol\":6253:6666  function voteWithdrawal(address joiner,uint256 amount) external onlyManager payable returns (bool){... */\n    tag_13:\n      tag_86\n      0x04\n      dup1\n      calldatasize\n      sub\n      dup2\n      add\n      swap1\n      tag_87\n      swap2\n      swap1\n      tag_88\n      jump\t// in\n    tag_87:\n      tag_89\n      jump\t// in\n    tag_86:\n      mload(0x40)\n      tag_90\n      swap2\n      swap1\n      tag_41\n      jump\t// in\n    tag_90:\n      mload(0x40)\n      dup1\n      swap2\n      sub\n      swap1\n      return\n        /* \"wwcc-contracts/contracts/wwccPool.sol\":7517:7622  function CheckVoteTickets() external view returns (uint256){... */\n    tag_14:\n      callvalue\n      dup1\n      iszero\n      tag_91\n      jumpi\n      0x00\n      dup1\n      revert\n    tag_91:\n      pop\n      tag_92\n      tag_93\n      jump\t// in\n    tag_92:\n      mload(0x40)\n      tag_94\n      swap2\n      swap1\n      tag_35\n      jump\t// in\n    tag_94:\n      mload(0x40)\n      dup1\n      swap2\n      sub\n      swap1\n      return\n        /* \"wwcc-contracts/contracts/wwccPool.sol\":7108:7206  function getAllPoolKeys() external view returns (bytes32[] memory){... */\n    tag_15:\n      callvalue\n      dup1\n      iszero\n      tag_95\n      jumpi\n      0x00\n      dup1\n      revert\n    tag_95:\n      pop\n      tag_96\n      tag_97\n      jump\t// in\n    tag_96:\n      mload(0x40)\n      tag_98\n      swap2\n      swap1\n      tag_99\n      jump\t// in\n    tag_98:\n      mload(0x40)\n      dup1\n      swap2\n      sub\n      swap1\n      return\n        /* \"wwcc-contracts/contracts/wwccPool.sol\":11449:12097  function getPool(bytes32 poolKey) external view returns (string memory vs,string memory rounds,PoolViewInfo memory viewInfo){... */\n    tag_16:\n      callvalue\n      dup1\n      iszero\n      tag_100\n      jumpi\n      0x00\n      dup1\n      revert\n    tag_100:\n      pop\n      tag_101\n      0x04\n      dup1\n      calldatasize\n      sub\n      dup2\n      add\n      swap1\n      tag_102\n      swap2\n      swap1\n      tag_73\n      jump\t// in\n    tag_102:\n      tag_103\n      jump\t// in\n    tag_101:\n      mload(0x40)\n      tag_104\n      swap4\n      swap3\n      swap2\n      swap1\n      tag_105\n      jump\t// in\n    tag_104:\n      mload(0x40)\n      dup1\n      swap2\n      sub\n      swap1\n      return\n        /* \"wwcc-contracts/contracts/safemath.sol\":274:417  function div(uint256 a, uint256 b) internal pure returns (uint256) {... */\n    tag_24:\n        /* \"wwcc-contracts/contracts/safemath.sol\":332:339  uint256 */\n      0x00\n        /* \"wwcc-contracts/contracts/safemath.sol\":363:364  0 */\n      dup1\n        /* \"wwcc-contracts/contracts/safemath.sol\":359:360  b */\n      dup3\n        /* \"wwcc-contracts/contracts/safemath.sol\":359:364  b > 0 */\n      gt\n        /* \"wwcc-contracts/contracts/safemath.sol\":351:365  require(b > 0) */\n      tag_107\n      jumpi\n      0x00\n      dup1\n      revert\n    tag_107:\n        /* \"wwcc-contracts/contracts/safemath.sol\":375:384  uint256 c */\n      0x00\n        /* \"wwcc-contracts/contracts/safemath.sol\":391:392  b */\n      dup3\n        /* \"wwcc-contracts/contracts/safemath.sol\":387:388  a */\n      dup5\n        /* \"wwcc-contracts/contracts/safemath.sol\":387:392  a / b */\n      tag_108\n      swap2\n      swap1\n      tag_109\n      jump\t// in\n    tag_108:\n        /* \"wwcc-contracts/contracts/safemath.sol\":375:392  uint256 c = a / b */\n      swap1\n      pop\n        /* \"wwcc-contracts/contracts/safemath.sol\":409:410  c */\n      dup1\n        /* \"wwcc-contracts/contracts/safemath.sol\":402:410  return c */\n      swap2\n      pop\n      pop\n        /* \"wwcc-contracts/contracts/safemath.sol\":274:417  function div(uint256 a, uint256 b) internal pure returns (uint256) {... */\n      swap3\n      swap2\n      pop\n      pop\n      jump\t// out\n        /* \"wwcc-contracts/contracts/wwccPool.sol\":7211:7307  function getLastBNB() external onlyManager view returns (uint256){... */\n    tag_33:\n        /* \"wwcc-contracts/contracts/wwccPool.sol\":7268:7275  uint256 */\n      0x00\n        /* \"wwcc-contracts/contracts/wwccPool.sol\":14197:14202  owner */\n      dup1\n      0x00\n      swap1\n      sload\n      swap1\n      0x0100\n      exp\n      swap1\n      div\n      0xffffffffffffffffffffffffffffffffffffffff\n      and\n        /* \"wwcc-contracts/contracts/wwccPool.sol\":14183:14202  msg.sender == owner */\n      0xffffffffffffffffffffffffffffffffffffffff\n      and\n        /* \"wwcc-contracts/contracts/wwccPool.sol\":14183:14193  msg.sender */\n      caller\n        /* \"wwcc-contracts/contracts/wwccPool.sol\":14183:14202  msg.sender == owner */\n      0xffffffffffffffffffffffffffffffffffffffff\n      and\n      eq\n        /* \"wwcc-contracts/contracts/wwccPool.sol\":14162:14253  require(... */\n      tag_111\n      jumpi\n      mload(0x40)\n      0x08c379a000000000000000000000000000000000000000000000000000000000\n      dup2\n      mstore\n      0x04\n      add\n      tag_112\n      swap1\n      tag_113\n      jump\t// in\n    tag_112:\n      mload(0x40)\n      dup1\n      swap2\n      sub\n      swap1\n      revert\n    tag_111:\n        /* \"wwcc-contracts/contracts/wwccPool.sol\":7293:7300  lastBNB */\n      sload(0x03)\n        /* \"wwcc-contracts/contracts/wwccPool.sol\":7286:7300  return lastBNB */\n      swap1\n      pop\n        /* \"wwcc-contracts/contracts/wwccPool.sol\":7211:7307  function getLastBNB() external onlyManager view returns (uint256){... */\n      swap1\n      jump\t// out\n        /* \"wwcc-contracts/contracts/wwccPool.sol\":5513:6192  function Withdrawal(address toAddress,bytes32 poolKey) external onlyManager payable returns (bool){... */\n    tag_39:\n        /* \"wwcc-contracts/contracts/wwccPool.sol\":5606:5610  bool */\n      0x00\n        /* \"wwcc-contracts/contracts/wwccPool.sol\":14197:14202  owner */\n      dup1\n      0x00\n      swap1\n      sload\n      swap1\n      0x0100\n      exp\n      swap1\n      div\n      0xffffffffffffffffffffffffffffffffffffffff\n      and\n        /* \"wwcc-contracts/contracts/wwccPool.sol\":14183:14202  msg.sender == owner */\n      0xffffffffffffffffffffffffffffffffffffffff\n      and\n        /* \"wwcc-contracts/contracts/wwccPool.sol\":14183:14193  msg.sender */\n      caller\n        /* \"wwcc-contracts/contracts/wwccPool.sol\":14183:14202  msg.sender == owner */\n      0xffffffffffffffffffffffffffffffffffffffff\n      and\n      eq\n        /* \"wwcc-contracts/contracts/wwccPool.sol\":14162:14253  require(... */\n      tag_116\n      jumpi\n      mload(0x40)\n      0x08c379a000000000000000000000000000000000000000000000000000000000\n      dup2\n      mstore\n      0x04\n      add\n      tag_117\n      swap1\n      tag_113\n      jump\t// in\n    tag_117:\n      mload(0x40)\n      dup1\n      swap2\n      sub\n      swap1\n      revert\n    tag_116:\n        /* \"wwcc-contracts/contracts/wwccPool.sol\":5628:5645  contains(poolKey) */\n      tag_119\n        /* \"wwcc-contracts/contracts/wwccPool.sol\":5637:5644  poolKey */\n      dup3\n        /* \"wwcc-contracts/contracts/wwccPool.sol\":5628:5636  contains */\n      tag_120\n        /* \"wwcc-contracts/contracts/wwccPool.sol\":5628:5645  contains(poolKey) */\n      jump\t// in\n    tag_119:\n        /* \"wwcc-contracts/contracts/wwccPool.sol\":5624:6162  if(!contains(poolKey)) { ... */\n      tag_121\n      jumpi\n        /* \"wwcc-contracts/contracts/wwccPool.sol\":5666:5690  revert(\"pool not exist\") */\n      mload(0x40)\n      0x08c379a000000000000000000000000000000000000000000000000000000000\n      dup2\n      mstore\n      0x04\n      add\n      tag_122\n      swap1\n      tag_123\n      jump\t// in\n    tag_122:\n      mload(0x40)\n      dup1\n      swap2\n      sub\n      swap1\n      revert\n        /* \"wwcc-contracts/contracts/wwccPool.sol\":5624:6162  if(!contains(poolKey)) { ... */\n    tag_121:\n        /* \"wwcc-contracts/contracts/wwccPool.sol\":5726:5744  WcPool memory pool */\n      0x00\n        /* \"wwcc-contracts/contracts/wwccPool.sol\":5747:5754  WcPools */\n      0x05\n        /* \"wwcc-contracts/contracts/wwccPool.sol\":5747:5763  WcPools[poolKey] */\n      0x00\n        /* \"wwcc-contracts/contracts/wwccPool.sol\":5755:5762  poolKey */\n      dup5\n        /* \"wwcc-contracts/contracts/wwccPool.sol\":5747:5763  WcPools[poolKey] */\n      dup2\n      mstore\n      0x20\n      add\n      swap1\n      dup2\n      mstore\n      0x20\n      add\n      0x00\n      keccak256\n        /* \"wwcc-contracts/contracts/wwccPool.sol\":5726:5763  WcPool memory pool = WcPools[poolKey] */\n      mload(0x40)\n      dup1\n      0x0160\n      add\n      0x40\n      mstore\n      swap1\n      dup2\n      0x00\n      dup3\n      add\n      dup1\n      sload\n      tag_125\n      swap1\n      tag_126\n      jump\t// in\n    tag_125:\n      dup1\n      0x1f\n      add\n      0x20\n      dup1\n      swap2\n      div\n      mul\n      0x20\n      add\n      mload(0x40)\n      swap1\n      dup2\n      add\n      0x40\n      mstore\n      dup1\n      swap3\n      swap2\n      swap1\n      dup2\n      dup2\n      mstore\n      0x20\n      add\n      dup3\n      dup1\n      sload\n      tag_127\n      swap1\n      tag_126\n      jump\t// in\n    tag_127:\n      dup1\n      iszero\n      tag_128\n      jumpi\n      dup1\n      0x1f\n      lt\n      tag_129\n      jumpi\n      0x0100\n      dup1\n      dup4\n      sload\n      div\n      mul\n      dup4\n      mstore\n      swap2\n      0x20\n      add\n      swap2\n      jump(tag_128)\n    tag_129:\n      dup3\n      add\n      swap2\n      swap1\n      0x00\n      mstore\n      keccak256(0x00, 0x20)\n      swap1\n    tag_130:\n      dup2\n      sload\n      dup2\n      mstore\n      swap1\n      0x01\n      add\n      swap1\n      0x20\n      add\n      dup1\n      dup4\n      gt\n      tag_130\n      jumpi\n      dup3\n      swap1\n      sub\n      0x1f\n      and\n      dup3\n      add\n      swap2\n    tag_128:\n      pop\n      pop\n      pop\n      pop\n      pop\n      dup2\n      mstore\n      0x20\n      add\n      0x01\n      dup3\n      add\n      dup1\n      sload\n      tag_131\n      swap1\n      tag_126\n      jump\t// in\n    tag_131:\n      dup1\n      0x1f\n      add\n      0x20\n      dup1\n      swap2\n      div\n      mul\n      0x20\n      add\n      mload(0x40)\n      swap1\n      dup2\n      add\n      0x40\n      mstore\n      dup1\n      swap3\n      swap2\n      swap1\n      dup2\n      dup2\n      mstore\n      0x20\n      add\n      dup3\n      dup1\n      sload\n      tag_132\n      swap1\n      tag_126\n      jump\t// in\n    tag_132:\n      dup1\n      iszero\n      tag_133\n      jumpi\n      dup1\n      0x1f\n      lt\n      tag_134\n      jumpi\n      0x0100\n      dup1\n      dup4\n      sload\n      div\n      mul\n      dup4\n      mstore\n      swap2\n      0x20\n      add\n      swap2\n      jump(tag_133)\n    tag_134:\n      dup3\n      add\n      swap2\n      swap1\n      0x00\n      mstore\n      keccak256(0x00, 0x20)\n      swap1\n    tag_135:\n      dup2\n      sload\n      dup2\n      mstore\n      swap1\n      0x01\n      add\n      swap1\n      0x20\n      add\n      dup1\n      dup4\n      gt\n      tag_135\n      jumpi\n      dup3\n      swap1\n      sub\n      0x1f\n      and\n      dup3\n      add\n      swap2\n    tag_133:\n      pop\n      pop\n      pop\n      pop\n      pop\n      dup2\n      mstore\n      0x20\n      add\n      0x02\n      dup3\n      add\n      dup1\n      sload\n      tag_136\n      swap1\n      tag_126\n      jump\t// in\n    tag_136:\n      dup1\n      0x1f\n      add\n      0x20\n      dup1\n      swap2\n      div\n      mul\n      0x20\n      add\n      mload(0x40)\n      swap1\n      dup2\n      add\n      0x40\n      mstore\n      dup1\n      swap3\n      swap2\n      swap1\n      dup2\n      dup2\n      mstore\n      0x20\n      add\n      dup3\n      dup1\n      sload\n      tag_137\n      swap1\n      tag_126\n      jump\t// in\n    tag_137:\n      dup1\n      iszero\n      tag_138\n      jumpi\n      dup1\n      0x1f\n      lt\n      tag_139\n      jumpi\n      0x0100\n      dup1\n      dup4\n      sload\n      div\n      mul\n      dup4\n      mstore\n      swap2\n      0x20\n      add\n      swap2\n      jump(tag_138)\n    tag_139:\n      dup3\n      add\n      swap2\n      swap1\n      0x00\n      mstore\n      keccak256(0x00, 0x20)\n      swap1\n    tag_140:\n      dup2\n      sload\n      dup2\n      mstore\n      swap1\n      0x01\n      add\n      swap1\n      0x20\n      add\n      dup1\n      dup4\n      gt\n      tag_140\n      jumpi\n      dup3\n      swap1\n      sub\n      0x1f\n      and\n      dup3\n      add\n      swap2\n    tag_138:\n      pop\n      pop\n      pop\n      pop\n      pop\n      dup2\n      mstore\n      0x20\n      add\n      0x03\n      dup3\n      add\n      sload\n      dup2\n      mstore\n      0x20\n      add\n      0x04\n      dup3\n      add\n      sload\n      dup2\n      mstore\n      0x20\n      add\n      0x05\n      dup3\n      add\n      sload\n      dup2\n      mstore\n      0x20\n      add\n      0x06\n      dup3\n      add\n      sload\n      dup2\n      mstore\n      0x20\n      add\n      0x07\n      dup3\n      add\n      sload\n      dup2\n      mstore\n      0x20\n      add\n      0x08\n      dup3\n      add\n      0x00\n      swap1\n      sload\n      swap1\n      0x0100\n      exp\n      swap1\n      div\n      0xff\n      and\n      iszero\n      iszero\n      iszero\n      iszero\n      dup2\n      mstore\n      0x20\n      add\n      0x08\n      dup3\n      add\n      0x01\n      swap1\n      sload\n      swap1\n      0x0100\n      exp\n      swap1\n      div\n      0xff\n      and\n      iszero\n      iszero\n      iszero\n      iszero\n      dup2\n      mstore\n      0x20\n      add\n      0x08\n      dup3\n      add\n      0x02\n      swap1\n      sload\n      swap1\n      0x0100\n      exp\n      swap1\n      div\n      0xff\n      and\n      iszero\n      iszero\n      iszero\n      iszero\n      dup2\n      mstore\n      pop\n      pop\n      swap1\n      pop\n        /* \"wwcc-contracts/contracts/wwccPool.sol\":5781:5795  uint256 expect */\n      0x00\n        /* \"wwcc-contracts/contracts/wwccPool.sol\":5798:5864  (pool.wPool+pool.lPool+pool.dPool+pool.sPool + pool.basal).div(10) */\n      tag_141\n        /* \"wwcc-contracts/contracts/wwccPool.sol\":5861:5863  10 */\n      0x0a\n        /* \"wwcc-contracts/contracts/wwccPool.sol\":5845:5849  pool */\n      dup4\n        /* \"wwcc-contracts/contracts/wwccPool.sol\":5845:5855  pool.basal */\n      0xe0\n      add\n      mload\n        /* \"wwcc-contracts/contracts/wwccPool.sol\":5832:5836  pool */\n      dup5\n        /* \"wwcc-contracts/contracts/wwccPool.sol\":5832:5842  pool.sPool */\n      0xc0\n      add\n      mload\n        /* \"wwcc-contracts/contracts/wwccPool.sol\":5821:5825  pool */\n      dup6\n        /* \"wwcc-contracts/contracts/wwccPool.sol\":5821:5831  pool.dPool */\n      0x80\n      add\n      mload\n        /* \"wwcc-contracts/contracts/wwccPool.sol\":5810:5814  pool */\n      dup7\n        /* \"wwcc-contracts/contracts/wwccPool.sol\":5810:5820  pool.lPool */\n      0xa0\n      add\n      mload\n        /* \"wwcc-contracts/contracts/wwccPool.sol\":5799:5803  pool */\n      dup8\n        /* \"wwcc-contracts/contracts/wwccPool.sol\":5799:5809  pool.wPool */\n      0x60\n      add\n      mload\n        /* \"wwcc-contracts/contracts/wwccPool.sol\":5799:5820  pool.wPool+pool.lPool */\n      tag_142\n      swap2\n      swap1\n      tag_26\n      jump\t// in\n    tag_142:\n        /* \"wwcc-contracts/contracts/wwccPool.sol\":5799:5831  pool.wPool+pool.lPool+pool.dPool */\n      tag_143\n      swap2\n      swap1\n      tag_26\n      jump\t// in\n    tag_143:\n        /* \"wwcc-contracts/contracts/wwccPool.sol\":5799:5842  pool.wPool+pool.lPool+pool.dPool+pool.sPool */\n      tag_144\n      swap2\n      swap1\n      tag_26\n      jump\t// in\n    tag_144:\n        /* \"wwcc-contracts/contracts/wwccPool.sol\":5799:5855  pool.wPool+pool.lPool+pool.dPool+pool.sPool + pool.basal */\n      tag_145\n      swap2\n      swap1\n      tag_26\n      jump\t// in\n    tag_145:\n        /* \"wwcc-contracts/contracts/wwccPool.sol\":5798:5860  (pool.wPool+pool.lPool+pool.dPool+pool.sPool + pool.basal).div */\n      tag_24\n      swap1\n        /* \"wwcc-contracts/contracts/wwccPool.sol\":5798:5864  (pool.wPool+pool.lPool+pool.dPool+pool.sPool + pool.basal).div(10) */\n      swap2\n      swap1\n      0xffffffff\n      and\n      jump\t// in\n    tag_141:\n        /* \"wwcc-contracts/contracts/wwccPool.sol\":5781:5864  uint256 expect = (pool.wPool+pool.lPool+pool.dPool+pool.sPool + pool.basal).div(10) */\n      swap1\n      pop\n        /* \"wwcc-contracts/contracts/wwccPool.sol\":5902:5906  true */\n      0x01\n        /* \"wwcc-contracts/contracts/wwccPool.sol\":5886:5890  pool */\n      dup3\n        /* \"wwcc-contracts/contracts/wwccPool.sol\":5886:5899  pool.finished */\n      0x0140\n      add\n        /* \"wwcc-contracts/contracts/wwccPool.sol\":5886:5906  pool.finished = true */\n      swap1\n      iszero\n      iszero\n      swap1\n      dup2\n      iszero\n      iszero\n      dup2\n      mstore\n      pop\n        /* \"wwcc-contracts/contracts/wwccPool.sol\":5882:6134  if (pool.finished = true){... */\n      iszero\n      tag_146\n      jumpi\n        /* \"wwcc-contracts/contracts/wwccPool.sol\":5929:5962  address payable toAddress_address */\n      0x00\n        /* \"wwcc-contracts/contracts/wwccPool.sol\":5973:5982  toAddress */\n      dup6\n        /* \"wwcc-contracts/contracts/wwccPool.sol\":5929:5983  address payable toAddress_address = payable(toAddress) */\n      swap1\n      pop\n        /* \"wwcc-contracts/contracts/wwccPool.sol\":6005:6022  toAddress_address */\n      dup1\n        /* \"wwcc-contracts/contracts/wwccPool.sol\":6005:6031  toAddress_address.transfer */\n      0xffffffffffffffffffffffffffffffffffffffff\n      and\n        /* \"wwcc-contracts/contracts/wwccPool.sol\":6005:6039  toAddress_address.transfer(expect) */\n      0x08fc\n        /* \"wwcc-contracts/contracts/wwccPool.sol\":6032:6038  expect */\n      dup4\n        /* \"wwcc-contracts/contracts/wwccPool.sol\":6005:6039  toAddress_address.transfer(expect) */\n      swap1\n      dup2\n      iszero\n      mul\n      swap1\n      mload(0x40)\n      0x00\n      mload(0x40)\n      dup1\n      dup4\n      sub\n      dup2\n      dup6\n      dup9\n      dup9\n      call\n      swap4\n      pop\n      pop\n      pop\n      pop\n      iszero\n      dup1\n      iszero\n      tag_148\n      jumpi\n      returndatasize\n      0x00\n      dup1\n      returndatacopy\n      revert(0x00, returndatasize)\n    tag_148:\n      pop\n        /* \"wwcc-contracts/contracts/wwccPool.sol\":5907:6058  {... */\n      pop\n        /* \"wwcc-contracts/contracts/wwccPool.sol\":5882:6134  if (pool.finished = true){... */\n      jump(tag_149)\n    tag_146:\n        /* \"wwcc-contracts/contracts/wwccPool.sol\":6084:6115  revert(\"pool has not finished\") */\n      mload(0x40)\n      0x08c379a000000000000000000000000000000000000000000000000000000000\n      dup2\n      mstore\n      0x04\n      add\n      tag_150\n      swap1\n      tag_151\n      jump\t// in\n    tag_150:\n      mload(0x40)\n      dup1\n      swap2\n      sub\n      swap1\n      revert\n        /* \"wwcc-contracts/contracts/wwccPool.sol\":5882:6134  if (pool.finished = true){... */\n    tag_149:\n        /* \"wwcc-contracts/contracts/wwccPool.sol\":5708:6162  {... */\n      pop\n      pop\n        /* \"wwcc-contracts/contracts/wwccPool.sol\":6181:6185  true */\n      0x01\n        /* \"wwcc-contracts/contracts/wwccPool.sol\":6174:6185  return true */\n      swap1\n      pop\n        /* \"wwcc-contracts/contracts/wwccPool.sol\":5513:6192  function Withdrawal(address toAddress,bytes32 poolKey) external onlyManager payable returns (bool){... */\n      swap3\n      swap2\n      pop\n      pop\n      jump\t// out\n        /* \"wwcc-contracts/contracts/wwccPool.sol\":4313:4893  function Test(address joiner,uint256 weight,bytes32 poolKey,uint256 homeScore,uint256 visitScore,uint256 kind) external returns(bool){... */\n    tag_46:\n        /* \"wwcc-contracts/contracts/wwccPool.sol\":4441:4445  bool */\n      0x00\n        /* \"wwcc-contracts/contracts/wwccPool.sol\":4460:4477  contains(poolKey) */\n      tag_153\n        /* \"wwcc-contracts/contracts/wwccPool.sol\":4469:4476  poolKey */\n      dup6\n        /* \"wwcc-contracts/contracts/wwccPool.sol\":4460:4468  contains */\n      tag_120\n        /* \"wwcc-contracts/contracts/wwccPool.sol\":4460:4477  contains(poolKey) */\n      jump\t// in\n    tag_153:\n        /* \"wwcc-contracts/contracts/wwccPool.sol\":4456:4865  if(!contains(poolKey)) { ... */\n      tag_154\n      jumpi\n        /* \"wwcc-contracts/contracts/wwccPool.sol\":4494:4518  revert(\"pool not exist\") */\n      mload(0x40)\n      0x08c379a000000000000000000000000000000000000000000000000000000000\n      dup2\n      mstore\n      0x04\n      add\n      tag_155\n      swap1\n      tag_123\n      jump\t// in\n    tag_155:\n      mload(0x40)\n      dup1\n      swap2\n      sub\n      swap1\n      revert\n        /* \"wwcc-contracts/contracts/wwccPool.sol\":4456:4865  if(!contains(poolKey)) { ... */\n    tag_154:\n        /* \"wwcc-contracts/contracts/wwccPool.sol\":4567:4573  weight */\n      dup6\n        /* \"wwcc-contracts/contracts/wwccPool.sol\":4548:4558  voteAmount */\n      0x04\n        /* \"wwcc-contracts/contracts/wwccPool.sol\":4548:4566  voteAmount[joiner] */\n      0x00\n        /* \"wwcc-contracts/contracts/wwccPool.sol\":4559:4565  joiner */\n      dup10\n        /* \"wwcc-contracts/contracts/wwccPool.sol\":4548:4566  voteAmount[joiner] */\n      0xffffffffffffffffffffffffffffffffffffffff\n      and\n      0xffffffffffffffffffffffffffffffffffffffff\n      and\n      dup2\n      mstore\n      0x20\n      add\n      swap1\n      dup2\n      mstore\n      0x20\n      add\n      0x00\n      keccak256\n      sload\n        /* \"wwcc-contracts/contracts/wwccPool.sol\":4548:4573  voteAmount[joiner]<weight */\n      lt\n        /* \"wwcc-contracts/contracts/wwccPool.sol\":4545:4636  if(voteAmount[joiner]<weight){... */\n      iszero\n      tag_157\n      jumpi\n        /* \"wwcc-contracts/contracts/wwccPool.sol\":4591:4622  revert(\"not enough voteAmount\") */\n      mload(0x40)\n      0x08c379a000000000000000000000000000000000000000000000000000000000\n      dup2\n      mstore\n      0x04\n      add\n      tag_158\n      swap1\n      tag_159\n      jump\t// in\n    tag_158:\n      mload(0x40)\n      dup1\n      swap2\n      sub\n      swap1\n      revert\n        /* \"wwcc-contracts/contracts/wwccPool.sol\":4545:4636  if(voteAmount[joiner]<weight){... */\n    tag_157:\n        /* \"wwcc-contracts/contracts/wwccPool.sol\":4645:4663  WcPool memory pool */\n      0x00\n        /* \"wwcc-contracts/contracts/wwccPool.sol\":4666:4673  WcPools */\n      0x05\n        /* \"wwcc-contracts/contracts/wwccPool.sol\":4666:4682  WcPools[poolKey] */\n      0x00\n        /* \"wwcc-contracts/contracts/wwccPool.sol\":4674:4681  poolKey */\n      dup8\n        /* \"wwcc-contracts/contracts/wwccPool.sol\":4666:4682  WcPools[poolKey] */\n      dup2\n      mstore\n      0x20\n      add\n      swap1\n      dup2\n      mstore\n      0x20\n      add\n      0x00\n      keccak256\n        /* \"wwcc-contracts/contracts/wwccPool.sol\":4645:4682  WcPool memory pool = WcPools[poolKey] */\n      mload(0x40)\n      dup1\n      0x0160\n      add\n      0x40\n      mstore\n      swap1\n      dup2\n      0x00\n      dup3\n      add\n      dup1\n      sload\n      tag_160\n      swap1\n      tag_126\n      jump\t// in\n    tag_160:\n      dup1\n      0x1f\n      add\n      0x20\n      dup1\n      swap2\n      div\n      mul\n      0x20\n      add\n      mload(0x40)\n      swap1\n      dup2\n      add\n      0x40\n      mstore\n      dup1\n      swap3\n      swap2\n      swap1\n      dup2\n      dup2\n      mstore\n      0x20\n      add\n      dup3\n      dup1\n      sload\n      tag_161\n      swap1\n      tag_126\n      jump\t// in\n    tag_161:\n      dup1\n      iszero\n      tag_162\n      jumpi\n      dup1\n      0x1f\n      lt\n      tag_163\n      jumpi\n      0x0100\n      dup1\n      dup4\n      sload\n      div\n      mul\n      dup4\n      mstore\n      swap2\n      0x20\n      add\n      swap2\n      jump(tag_162)\n    tag_163:\n      dup3\n      add\n      swap2\n      swap1\n      0x00\n      mstore\n      keccak256(0x00, 0x20)\n      swap1\n    tag_164:\n      dup2\n      sload\n      dup2\n      mstore\n      swap1\n      0x01\n      add\n      swap1\n      0x20\n      add\n      dup1\n      dup4\n      gt\n      tag_164\n      jumpi\n      dup3\n      swap1\n      sub\n      0x1f\n      and\n      dup3\n      add\n      swap2\n    tag_162:\n      pop\n      pop\n      pop\n      pop\n      pop\n      dup2\n      mstore\n      0x20\n      add\n      0x01\n      dup3\n      add\n      dup1\n      sload\n      tag_165\n      swap1\n      tag_126\n      jump\t// in\n    tag_165:\n      dup1\n      0x1f\n      add\n      0x20\n      dup1\n      swap2\n      div\n      mul\n      0x20\n      add\n      mload(0x40)\n      swap1\n      dup2\n      add\n      0x40\n      mstore\n      dup1\n      swap3\n      swap2\n      swap1\n      dup2\n      dup2\n      mstore\n      0x20\n      add\n      dup3\n      dup1\n      sload\n      tag_166\n      swap1\n      tag_126\n      jump\t// in\n    tag_166:\n      dup1\n      iszero\n      tag_167\n      jumpi\n      dup1\n      0x1f\n      lt\n      tag_168\n      jumpi\n      0x0100\n      dup1\n      dup4\n      sload\n      div\n      mul\n      dup4\n      mstore\n      swap2\n      0x20\n      add\n      swap2\n      jump(tag_167)\n    tag_168:\n      dup3\n      add\n      swap2\n      swap1\n      0x00\n      mstore\n      keccak256(0x00, 0x20)\n      swap1\n    tag_169:\n      dup2\n      sload\n      dup2\n      mstore\n      swap1\n      0x01\n      add\n      swap1\n      0x20\n      add\n      dup1\n      dup4\n      gt\n      tag_169\n      jumpi\n      dup3\n      swap1\n      sub\n      0x1f\n      and\n      dup3\n      add\n      swap2\n    tag_167:\n      pop\n      pop\n      pop\n      pop\n      pop\n      dup2\n      mstore\n      0x20\n      add\n      0x02\n      dup3\n      add\n      dup1\n      sload\n      tag_170\n      swap1\n      tag_126\n      jump\t// in\n    tag_170:\n      dup1\n      0x1f\n      add\n      0x20\n      dup1\n      swap2\n      div\n      mul\n      0x20\n      add\n      mload(0x40)\n      swap1\n      dup2\n      add\n      0x40\n      mstore\n      dup1\n      swap3\n      swap2\n      swap1\n      dup2\n      dup2\n      mstore\n      0x20\n      add\n      dup3\n      dup1\n      sload\n      tag_171\n      swap1\n      tag_126\n      jump\t// in\n    tag_171:\n      dup1\n      iszero\n      tag_172\n      jumpi\n      dup1\n      0x1f\n      lt\n      tag_173\n      jumpi\n      0x0100\n      dup1\n      dup4\n      sload\n      div\n      mul\n      dup4\n      mstore\n      swap2\n      0x20\n      add\n      swap2\n      jump(tag_172)\n    tag_173:\n      dup3\n      add\n      swap2\n      swap1\n      0x00\n      mstore\n      keccak256(0x00, 0x20)\n      swap1\n    tag_174:\n      dup2\n      sload\n      dup2\n      mstore\n      swap1\n      0x01\n      add\n      swap1\n      0x20\n      add\n      dup1\n      dup4\n      gt\n      tag_174\n      jumpi\n      dup3\n      swap1\n      sub\n      0x1f\n      and\n      dup3\n      add\n      swap2\n    tag_172:\n      pop\n      pop\n      pop\n      pop\n      pop\n      dup2\n      mstore\n      0x20\n      add\n      0x03\n      dup3\n      add\n      sload\n      dup2\n      mstore\n      0x20\n      add\n      0x04\n      dup3\n      add\n      sload\n      dup2\n      mstore\n      0x20\n      add\n      0x05\n      dup3\n      add\n      sload\n      dup2\n      mstore\n      0x20\n      add\n      0x06\n      dup3\n      add\n      sload\n      dup2\n      mstore\n      0x20\n      add\n      0x07\n      dup3\n      add\n      sload\n      dup2\n      mstore\n      0x20\n      add\n      0x08\n      dup3\n      add\n      0x00\n      swap1\n      sload\n      swap1\n      0x0100\n      exp\n      swap1\n      div\n      0xff\n      and\n      iszero\n      iszero\n      iszero\n      iszero\n      dup2\n      mstore\n      0x20\n      add\n      0x08\n      dup3\n      add\n      0x01\n      swap1\n      sload\n      swap1\n      0x0100\n      exp\n      swap1\n      div\n      0xff\n      and\n      iszero\n      iszero\n      iszero\n      iszero\n      dup2\n      mstore\n      0x20\n      add\n      0x08\n      dup3\n      add\n      0x02\n      swap1\n      sload\n      swap1\n      0x0100\n      exp\n      swap1\n      div\n      0xff\n      and\n      iszero\n      iszero\n      iszero\n      iszero\n      dup2\n      mstore\n      pop\n      pop\n      swap1\n      pop\n        /* \"wwcc-contracts/contracts/wwccPool.sol\":4694:4711  string  memory si */\n      0x00\n        /* \"wwcc-contracts/contracts/wwccPool.sol\":4714:4779  strConcat(uint256ToString(homeScore),uint256ToString(visitScore)) */\n      tag_175\n        /* \"wwcc-contracts/contracts/wwccPool.sol\":4724:4750  uint256ToString(homeScore) */\n      tag_176\n        /* \"wwcc-contracts/contracts/wwccPool.sol\":4740:4749  homeScore */\n      dup8\n        /* \"wwcc-contracts/contracts/wwccPool.sol\":4724:4739  uint256ToString */\n      tag_177\n        /* \"wwcc-contracts/contracts/wwccPool.sol\":4724:4750  uint256ToString(homeScore) */\n      jump\t// in\n    tag_176:\n        /* \"wwcc-contracts/contracts/wwccPool.sol\":4751:4778  uint256ToString(visitScore) */\n      tag_178\n        /* \"wwcc-contracts/contracts/wwccPool.sol\":4767:4777  visitScore */\n      dup8\n        /* \"wwcc-contracts/contracts/wwccPool.sol\":4751:4766  uint256ToString */\n      tag_177\n        /* \"wwcc-contracts/contracts/wwccPool.sol\":4751:4778  uint256ToString(visitScore) */\n      jump\t// in\n    tag_178:\n        /* \"wwcc-contracts/contracts/wwccPool.sol\":4714:4723  strConcat */\n      tag_179\n        /* \"wwcc-contracts/contracts/wwccPool.sol\":4714:4779  strConcat(uint256ToString(homeScore),uint256ToString(visitScore)) */\n      jump\t// in\n    tag_175:\n        /* \"wwcc-contracts/contracts/wwccPool.sol\":4694:4779  string  memory si = strConcat(uint256ToString(homeScore),uint256ToString(visitScore)) */\n      swap1\n      pop\n        /* \"wwcc-contracts/contracts/wwccPool.sol\":4789:4814  string  memory pickingKey */\n      0x00\n        /* \"wwcc-contracts/contracts/wwccPool.sol\":4817:4855  strConcat(bytes32ToString(poolKey),si) */\n      tag_180\n        /* \"wwcc-contracts/contracts/wwccPool.sol\":4827:4851  bytes32ToString(poolKey) */\n      tag_181\n        /* \"wwcc-contracts/contracts/wwccPool.sol\":4843:4850  poolKey */\n      dup10\n        /* \"wwcc-contracts/contracts/wwccPool.sol\":4827:4842  bytes32ToString */\n      tag_182\n        /* \"wwcc-contracts/contracts/wwccPool.sol\":4827:4851  bytes32ToString(poolKey) */\n      jump\t// in\n    tag_181:\n        /* \"wwcc-contracts/contracts/wwccPool.sol\":4852:4854  si */\n      dup4\n        /* \"wwcc-contracts/contracts/wwccPool.sol\":4817:4826  strConcat */\n      tag_179\n        /* \"wwcc-contracts/contracts/wwccPool.sol\":4817:4855  strConcat(bytes32ToString(poolKey),si) */\n      jump\t// in\n    tag_180:\n        /* \"wwcc-contracts/contracts/wwccPool.sol\":4789:4855  string  memory pickingKey = strConcat(bytes32ToString(poolKey),si) */\n      swap1\n      pop\n        /* \"wwcc-contracts/contracts/wwccPool.sol\":4532:4865  {... */\n      pop\n      pop\n      pop\n        /* \"wwcc-contracts/contracts/wwccPool.sol\":4881:4885  true */\n      0x01\n        /* \"wwcc-contracts/contracts/wwccPool.sol\":4874:4885  return true */\n      swap1\n      pop\n        /* \"wwcc-contracts/contracts/wwccPool.sol\":4313:4893  function Test(address joiner,uint256 weight,bytes32 poolKey,uint256 homeScore,uint256 visitScore,uint256 kind) external returns(bool){... */\n      swap7\n      swap6\n      pop\n      pop\n      pop\n      pop\n      pop\n      pop\n      jump\t// out\n        /* \"wwcc-contracts/contracts/wwccPool.sol\":11155:11399  function withdrawBNBInContract(address toAddress)external onlyManager payable returns(bool){... */\n    tag_51:\n        /* \"wwcc-contracts/contracts/wwccPool.sol\":11241:11245  bool */\n      0x00\n        /* \"wwcc-contracts/contracts/wwccPool.sol\":14197:14202  owner */\n      dup1\n      0x00\n      swap1\n      sload\n      swap1\n      0x0100\n      exp\n      swap1\n      div\n      0xffffffffffffffffffffffffffffffffffffffff\n      and\n        /* \"wwcc-contracts/contracts/wwccPool.sol\":14183:14202  msg.sender == owner */\n      0xffffffffffffffffffffffffffffffffffffffff\n      and\n        /* \"wwcc-contracts/contracts/wwccPool.sol\":14183:14193  msg.sender */\n      caller\n        /* \"wwcc-contracts/contracts/wwccPool.sol\":14183:14202  msg.sender == owner */\n      0xffffffffffffffffffffffffffffffffffffffff\n      and\n      eq\n        /* \"wwcc-contracts/contracts/wwccPool.sol\":14162:14253  require(... */\n      tag_184\n      jumpi\n      mload(0x40)\n      0x08c379a000000000000000000000000000000000000000000000000000000000\n      dup2\n      mstore\n      0x04\n      add\n      tag_185\n      swap1\n      tag_113\n      jump\t// in\n    tag_185:\n      mload(0x40)\n      dup1\n      swap2\n      sub\n      swap1\n      revert\n    tag_184:\n        /* \"wwcc-contracts/contracts/wwccPool.sol\":11260:11293  address payable toAddress_address */\n      0x00\n        /* \"wwcc-contracts/contracts/wwccPool.sol\":11304:11313  toAddress */\n      dup3\n        /* \"wwcc-contracts/contracts/wwccPool.sol\":11260:11314  address payable toAddress_address = payable(toAddress) */\n      swap1\n      pop\n        /* \"wwcc-contracts/contracts/wwccPool.sol\":11328:11345  toAddress_address */\n      dup1\n        /* \"wwcc-contracts/contracts/wwccPool.sol\":11328:11354  toAddress_address.transfer */\n      0xffffffffffffffffffffffffffffffffffffffff\n      and\n        /* \"wwcc-contracts/contracts/wwccPool.sol\":11328:11367  toAddress_address.transfer(lastBNB - 1) */\n      0x08fc\n        /* \"wwcc-contracts/contracts/wwccPool.sol\":11365:11366  1 */\n      0x01\n        /* \"wwcc-contracts/contracts/wwccPool.sol\":11355:11362  lastBNB */\n      sload(0x03)\n        /* \"wwcc-contracts/contracts/wwccPool.sol\":11355:11366  lastBNB - 1 */\n      tag_187\n      swap2\n      swap1\n      tag_188\n      jump\t// in\n    tag_187:\n        /* \"wwcc-contracts/contracts/wwccPool.sol\":11328:11367  toAddress_address.transfer(lastBNB - 1) */\n      swap1\n      dup2\n      iszero\n      mul\n      swap1\n      mload(0x40)\n      0x00\n      mload(0x40)\n      dup1\n      dup4\n      sub\n      dup2\n      dup6\n      dup9\n      dup9\n      call\n      swap4\n      pop\n      pop\n      pop\n      pop\n      iszero\n      dup1\n      iszero\n      tag_190\n      jumpi\n      returndatasize\n      0x00\n      dup1\n      returndatacopy\n      revert(0x00, returndatasize)\n    tag_190:\n      pop\n        /* \"wwcc-contracts/contracts/wwccPool.sol\":11388:11392  true */\n      0x01\n        /* \"wwcc-contracts/contracts/wwccPool.sol\":11381:11392  return true */\n      swap2\n      pop\n      pop\n        /* \"wwcc-contracts/contracts/wwccPool.sol\":11155:11399  function withdrawBNBInContract(address toAddress)external onlyManager payable returns(bool){... */\n      swap2\n      swap1\n      pop\n      jump\t// out\n        /* \"wwcc-contracts/contracts/wwccPool.sol\":4948:5470  function Set_Basal(bytes32 poolKey,uint256 basal) external onlyManager  returns (bool){... */\n    tag_57:\n        /* \"wwcc-contracts/contracts/wwccPool.sol\":5029:5033  bool */\n      0x00\n        /* \"wwcc-contracts/contracts/wwccPool.sol\":14197:14202  owner */\n      dup1\n      0x00\n      swap1\n      sload\n      swap1\n      0x0100\n      exp\n      swap1\n      div\n      0xffffffffffffffffffffffffffffffffffffffff\n      and\n        /* \"wwcc-contracts/contracts/wwccPool.sol\":14183:14202  msg.sender == owner */\n      0xffffffffffffffffffffffffffffffffffffffff\n      and\n        /* \"wwcc-contracts/contracts/wwccPool.sol\":14183:14193  msg.sender */\n      caller\n        /* \"wwcc-contracts/contracts/wwccPool.sol\":14183:14202  msg.sender == owner */\n      0xffffffffffffffffffffffffffffffffffffffff\n      and\n      eq\n        /* \"wwcc-contracts/contracts/wwccPool.sol\":14162:14253  require(... */\n      tag_192\n      jumpi\n      mload(0x40)\n      0x08c379a000000000000000000000000000000000000000000000000000000000\n      dup2\n      mstore\n      0x04\n      add\n      tag_193\n      swap1\n      tag_113\n      jump\t// in\n    tag_193:\n      mload(0x40)\n      dup1\n      swap2\n      sub\n      swap1\n      revert\n    tag_192:\n        /* \"wwcc-contracts/contracts/wwccPool.sol\":5048:5065  contains(poolKey) */\n      tag_195\n        /* \"wwcc-contracts/contracts/wwccPool.sol\":5057:5064  poolKey */\n      dup4\n        /* \"wwcc-contracts/contracts/wwccPool.sol\":5048:5056  contains */\n      tag_120\n        /* \"wwcc-contracts/contracts/wwccPool.sol\":5048:5065  contains(poolKey) */\n      jump\t// in\n    tag_195:\n        /* \"wwcc-contracts/contracts/wwccPool.sol\":5044:5464  if(!contains(poolKey)) { ... */\n      tag_196\n      jumpi\n        /* \"wwcc-contracts/contracts/wwccPool.sol\":5082:5106  revert(\"pool not exist\") */\n      mload(0x40)\n      0x08c379a000000000000000000000000000000000000000000000000000000000\n      dup2\n      mstore\n      0x04\n      add\n      tag_197\n      swap1\n      tag_123\n      jump\t// in\n    tag_197:\n      mload(0x40)\n      dup1\n      swap2\n      sub\n      swap1\n      revert\n        /* \"wwcc-contracts/contracts/wwccPool.sol\":5044:5464  if(!contains(poolKey)) { ... */\n    tag_196:\n        /* \"wwcc-contracts/contracts/wwccPool.sol\":5134:5152  WcPool memory pool */\n      0x00\n        /* \"wwcc-contracts/contracts/wwccPool.sol\":5155:5162  WcPools */\n      0x05\n        /* \"wwcc-contracts/contracts/wwccPool.sol\":5155:5171  WcPools[poolKey] */\n      0x00\n        /* \"wwcc-contracts/contracts/wwccPool.sol\":5163:5170  poolKey */\n      dup6\n        /* \"wwcc-contracts/contracts/wwccPool.sol\":5155:5171  WcPools[poolKey] */\n      dup2\n      mstore\n      0x20\n      add\n      swap1\n      dup2\n      mstore\n      0x20\n      add\n      0x00\n      keccak256\n        /* \"wwcc-contracts/contracts/wwccPool.sol\":5134:5171  WcPool memory pool = WcPools[poolKey] */\n      mload(0x40)\n      dup1\n      0x0160\n      add\n      0x40\n      mstore\n      swap1\n      dup2\n      0x00\n      dup3\n      add\n      dup1\n      sload\n      tag_199\n      swap1\n      tag_126\n      jump\t// in\n    tag_199:\n      dup1\n      0x1f\n      add\n      0x20\n      dup1\n      swap2\n      div\n      mul\n      0x20\n      add\n      mload(0x40)\n      swap1\n      dup2\n      add\n      0x40\n      mstore\n      dup1\n      swap3\n      swap2\n      swap1\n      dup2\n      dup2\n      mstore\n      0x20\n      add\n      dup3\n      dup1\n      sload\n      tag_200\n      swap1\n      tag_126\n      jump\t// in\n    tag_200:\n      dup1\n      iszero\n      tag_201\n      jumpi\n      dup1\n      0x1f\n      lt\n      tag_202\n      jumpi\n      0x0100\n      dup1\n      dup4\n      sload\n      div\n      mul\n      dup4\n      mstore\n      swap2\n      0x20\n      add\n      swap2\n      jump(tag_201)\n    tag_202:\n      dup3\n      add\n      swap2\n      swap1\n      0x00\n      mstore\n      keccak256(0x00, 0x20)\n      swap1\n    tag_203:\n      dup2\n      sload\n      dup2\n      mstore\n      swap1\n      0x01\n      add\n      swap1\n      0x20\n      add\n      dup1\n      dup4\n      gt\n      tag_203\n      jumpi\n      dup3\n      swap1\n      sub\n      0x1f\n      and\n      dup3\n      add\n      swap2\n    tag_201:\n      pop\n      pop\n      pop\n      pop\n      pop\n      dup2\n      mstore\n      0x20\n      add\n      0x01\n      dup3\n      add\n      dup1\n      sload\n      tag_204\n      swap1\n      tag_126\n      jump\t// in\n    tag_204:\n      dup1\n      0x1f\n      add\n      0x20\n      dup1\n      swap2\n      div\n      mul\n      0x20\n      add\n      mload(0x40)\n      swap1\n      dup2\n      add\n      0x40\n      mstore\n      dup1\n      swap3\n      swap2\n      swap1\n      dup2\n      dup2\n      mstore\n      0x20\n      add\n      dup3\n      dup1\n      sload\n      tag_205\n      swap1\n      tag_126\n      jump\t// in\n    tag_205:\n      dup1\n      iszero\n      tag_206\n      jumpi\n      dup1\n      0x1f\n      lt\n      tag_207\n      jumpi\n      0x0100\n      dup1\n      dup4\n      sload\n      div\n      mul\n      dup4\n      mstore\n      swap2\n      0x20\n      add\n      swap2\n      jump(tag_206)\n    tag_207:\n      dup3\n      add\n      swap2\n      swap1\n      0x00\n      mstore\n      keccak256(0x00, 0x20)\n      swap1\n    tag_208:\n      dup2\n      sload\n      dup2\n      mstore\n      swap1\n      0x01\n      add\n      swap1\n      0x20\n      add\n      dup1\n      dup4\n      gt\n      tag_208\n      jumpi\n      dup3\n      swap1\n      sub\n      0x1f\n      and\n      dup3\n      add\n      swap2\n    tag_206:\n      pop\n      pop\n      pop\n      pop\n      pop\n      dup2\n      mstore\n      0x20\n      add\n      0x02\n      dup3\n      add\n      dup1\n      sload\n      tag_209\n      swap1\n      tag_126\n      jump\t// in\n    tag_209:\n      dup1\n      0x1f\n      add\n      0x20\n      dup1\n      swap2\n      div\n      mul\n      0x20\n      add\n      mload(0x40)\n      swap1\n      dup2\n      add\n      0x40\n      mstore\n      dup1\n      swap3\n      swap2\n      swap1\n      dup2\n      dup2\n      mstore\n      0x20\n      add\n      dup3\n      dup1\n      sload\n      tag_210\n      swap1\n      tag_126\n      jump\t// in\n    tag_210:\n      dup1\n      iszero\n      tag_211\n      jumpi\n      dup1\n      0x1f\n      lt\n      tag_212\n      jumpi\n      0x0100\n      dup1\n      dup4\n      sload\n      div\n      mul\n      dup4\n      mstore\n      swap2\n      0x20\n      add\n      swap2\n      jump(tag_211)\n    tag_212:\n      dup3\n      add\n      swap2\n      swap1\n      0x00\n      mstore\n      keccak256(0x00, 0x20)\n      swap1\n    tag_213:\n      dup2\n      sload\n      dup2\n      mstore\n      swap1\n      0x01\n      add\n      swap1\n      0x20\n      add\n      dup1\n      dup4\n      gt\n      tag_213\n      jumpi\n      dup3\n      swap1\n      sub\n      0x1f\n      and\n      dup3\n      add\n      swap2\n    tag_211:\n      pop\n      pop\n      pop\n      pop\n      pop\n      dup2\n      mstore\n      0x20\n      add\n      0x03\n      dup3\n      add\n      sload\n      dup2\n      mstore\n      0x20\n      add\n      0x04\n      dup3\n      add\n      sload\n      dup2\n      mstore\n      0x20\n      add\n      0x05\n      dup3\n      add\n      sload\n      dup2\n      mstore\n      0x20\n      add\n      0x06\n      dup3\n      add\n      sload\n      dup2\n      mstore\n      0x20\n      add\n      0x07\n      dup3\n      add\n      sload\n      dup2\n      mstore\n      0x20\n      add\n      0x08\n      dup3\n      add\n      0x00\n      swap1\n      sload\n      swap1\n      0x0100\n      exp\n      swap1\n      div\n      0xff\n      and\n      iszero\n      iszero\n      iszero\n      iszero\n      dup2\n      mstore\n      0x20\n      add\n      0x08\n      dup3\n      add\n      0x01\n      swap1\n      sload\n      swap1\n      0x0100\n      exp\n      swap1\n      div\n      0xff\n      and\n      iszero\n      iszero\n      iszero\n      iszero\n      dup2\n      mstore\n      0x20\n      add\n      0x08\n      dup3\n      add\n      0x02\n      swap1\n      sload\n      swap1\n      0x0100\n      exp\n      swap1\n      div\n      0xff\n      and\n      iszero\n      iszero\n      iszero\n      iszero\n      dup2\n      mstore\n      pop\n      pop\n      swap1\n      pop\n        /* \"wwcc-contracts/contracts/wwccPool.sol\":5201:5202  0 */\n      0x00\n        /* \"wwcc-contracts/contracts/wwccPool.sol\":5188:5192  pool */\n      dup2\n        /* \"wwcc-contracts/contracts/wwccPool.sol\":5188:5198  pool.basal */\n      0xe0\n      add\n      mload\n        /* \"wwcc-contracts/contracts/wwccPool.sol\":5188:5202  pool.basal > 0 */\n      gt\n        /* \"wwcc-contracts/contracts/wwccPool.sol\":5184:5267  if (pool.basal > 0){... */\n      iszero\n      tag_214\n      jumpi\n        /* \"wwcc-contracts/contracts/wwccPool.sol\":5220:5253  revert(\"pool basal has been set\") */\n      mload(0x40)\n      0x08c379a000000000000000000000000000000000000000000000000000000000\n      dup2\n      mstore\n      0x04\n      add\n      tag_215\n      swap1\n      tag_216\n      jump\t// in\n    tag_215:\n      mload(0x40)\n      dup1\n      swap2\n      sub\n      swap1\n      revert\n        /* \"wwcc-contracts/contracts/wwccPool.sol\":5184:5267  if (pool.basal > 0){... */\n    tag_214:\n        /* \"wwcc-contracts/contracts/wwccPool.sol\":5299:5304  basal */\n      dup3\n        /* \"wwcc-contracts/contracts/wwccPool.sol\":5283:5296  nextBasalLast */\n      sload(0x01)\n        /* \"wwcc-contracts/contracts/wwccPool.sol\":5283:5304  nextBasalLast > basal */\n      gt\n        /* \"wwcc-contracts/contracts/wwccPool.sol\":5279:5362  if (nextBasalLast > basal){... */\n      iszero\n      tag_217\n      jumpi\n        /* \"wwcc-contracts/contracts/wwccPool.sol\":5322:5348  revert(\"not enough basal\") */\n      mload(0x40)\n      0x08c379a000000000000000000000000000000000000000000000000000000000\n      dup2\n      mstore\n      0x04\n      add\n      tag_218\n      swap1\n      tag_219\n      jump\t// in\n    tag_218:\n      mload(0x40)\n      dup1\n      swap2\n      sub\n      swap1\n      revert\n        /* \"wwcc-contracts/contracts/wwccPool.sol\":5279:5362  if (nextBasalLast > basal){... */\n    tag_217:\n        /* \"wwcc-contracts/contracts/wwccPool.sol\":5388:5393  basal */\n      dup3\n        /* \"wwcc-contracts/contracts/wwccPool.sol\":5374:5378  pool */\n      dup2\n        /* \"wwcc-contracts/contracts/wwccPool.sol\":5374:5384  pool.basal */\n      0xe0\n      add\n        /* \"wwcc-contracts/contracts/wwccPool.sol\":5374:5393  pool.basal += basal */\n      dup2\n      dup2\n      mload\n      tag_220\n      swap2\n      swap1\n      tag_26\n      jump\t// in\n    tag_220:\n      swap2\n      pop\n      dup2\n      dup2\n      mstore\n      pop\n      pop\n        /* \"wwcc-contracts/contracts/wwccPool.sol\":5424:5429  basal */\n      dup3\n        /* \"wwcc-contracts/contracts/wwccPool.sol\":5406:5419  nextBasalLast */\n      0x01\n      0x00\n        /* \"wwcc-contracts/contracts/wwccPool.sol\":5406:5429  nextBasalLast -=  basal */\n      dup3\n      dup3\n      sload\n      tag_221\n      swap2\n      swap1\n      tag_188\n      jump\t// in\n    tag_221:\n      swap3\n      pop\n      pop\n      dup2\n      swap1\n      sstore\n      pop\n        /* \"wwcc-contracts/contracts/wwccPool.sol\":5449:5453  true */\n      0x01\n        /* \"wwcc-contracts/contracts/wwccPool.sol\":5442:5453  return true */\n      swap2\n      pop\n      pop\n        /* \"wwcc-contracts/contracts/wwccPool.sol\":4948:5470  function Set_Basal(bytes32 poolKey,uint256 basal) external onlyManager  returns (bool){... */\n      swap3\n      swap2\n      pop\n      pop\n      jump\t// out\n        /* \"wwcc-contracts/contracts/wwccPool.sol\":2039:2959  function Set_Pool(... */\n    tag_63:\n        /* \"wwcc-contracts/contracts/wwccPool.sol\":2186:2193  bytes32 */\n      0x00\n        /* \"wwcc-contracts/contracts/wwccPool.sol\":14197:14202  owner */\n      dup1\n      0x00\n      swap1\n      sload\n      swap1\n      0x0100\n      exp\n      swap1\n      div\n      0xffffffffffffffffffffffffffffffffffffffff\n      and\n        /* \"wwcc-contracts/contracts/wwccPool.sol\":14183:14202  msg.sender == owner */\n      0xffffffffffffffffffffffffffffffffffffffff\n      and\n        /* \"wwcc-contracts/contracts/wwccPool.sol\":14183:14193  msg.sender */\n      caller\n        /* \"wwcc-contracts/contracts/wwccPool.sol\":14183:14202  msg.sender == owner */\n      0xffffffffffffffffffffffffffffffffffffffff\n      and\n      eq\n        /* \"wwcc-contracts/contracts/wwccPool.sol\":14162:14253  require(... */\n      tag_223\n      jumpi\n      mload(0x40)\n      0x08c379a000000000000000000000000000000000000000000000000000000000\n      dup2\n      mstore\n      0x04\n      add\n      tag_224\n      swap1\n      tag_113\n      jump\t// in\n    tag_224:\n      mload(0x40)\n      dup1\n      swap2\n      sub\n      swap1\n      revert\n    tag_223:\n        /* \"wwcc-contracts/contracts/wwccPool.sol\":2204:2220  string memory s1 */\n      0x00\n        /* \"wwcc-contracts/contracts/wwccPool.sol\":2223:2244  strConcat(home,visit) */\n      tag_226\n        /* \"wwcc-contracts/contracts/wwccPool.sol\":2233:2237  home */\n      dup7\n        /* \"wwcc-contracts/contracts/wwccPool.sol\":2238:2243  visit */\n      dup7\n        /* \"wwcc-contracts/contracts/wwccPool.sol\":2223:2232  strConcat */\n      tag_179\n        /* \"wwcc-contracts/contracts/wwccPool.sol\":2223:2244  strConcat(home,visit) */\n      jump\t// in\n    tag_226:\n        /* \"wwcc-contracts/contracts/wwccPool.sol\":2204:2244  string memory s1 = strConcat(home,visit) */\n      swap1\n      pop\n        /* \"wwcc-contracts/contracts/wwccPool.sol\":2253:2269  string memory s2 */\n      0x00\n        /* \"wwcc-contracts/contracts/wwccPool.sol\":2272:2292  strConcat(s1,rounds) */\n      tag_227\n        /* \"wwcc-contracts/contracts/wwccPool.sol\":2282:2284  s1 */\n      dup3\n        /* \"wwcc-contracts/contracts/wwccPool.sol\":2285:2291  rounds */\n      dup7\n        /* \"wwcc-contracts/contracts/wwccPool.sol\":2272:2281  strConcat */\n      tag_179\n        /* \"wwcc-contracts/contracts/wwccPool.sol\":2272:2292  strConcat(s1,rounds) */\n      jump\t// in\n    tag_227:\n        /* \"wwcc-contracts/contracts/wwccPool.sol\":2253:2292  string memory s2 = strConcat(s1,rounds) */\n      swap1\n      pop\n        /* \"wwcc-contracts/contracts/wwccPool.sol\":2301:2316  bytes32 poolKey */\n      0x00\n        /* \"wwcc-contracts/contracts/wwccPool.sol\":2346:2348  s2 */\n      dup2\n        /* \"wwcc-contracts/contracts/wwccPool.sol\":2329:2349  abi.encodePacked(s2) */\n      add(0x20, mload(0x40))\n      tag_228\n      swap2\n      swap1\n      tag_229\n      jump\t// in\n    tag_228:\n      mload(0x40)\n      0x20\n      dup2\n      dup4\n      sub\n      sub\n      dup2\n      mstore\n      swap1\n      0x40\n      mstore\n        /* \"wwcc-contracts/contracts/wwccPool.sol\":2319:2350  keccak256(abi.encodePacked(s2)) */\n      dup1\n      mload\n      swap1\n      0x20\n      add\n      keccak256\n        /* \"wwcc-contracts/contracts/wwccPool.sol\":2301:2350  bytes32 poolKey = keccak256(abi.encodePacked(s2)) */\n      swap1\n      pop\n        /* \"wwcc-contracts/contracts/wwccPool.sol\":2362:2379  contains(poolKey) */\n      tag_230\n        /* \"wwcc-contracts/contracts/wwccPool.sol\":2371:2378  poolKey */\n      dup2\n        /* \"wwcc-contracts/contracts/wwccPool.sol\":2362:2370  contains */\n      tag_120\n        /* \"wwcc-contracts/contracts/wwccPool.sol\":2362:2379  contains(poolKey) */\n      jump\t// in\n    tag_230:\n        /* \"wwcc-contracts/contracts/wwccPool.sol\":2359:2899  if(contains(poolKey)) { ... */\n      iszero\n      tag_231\n      jumpi\n        /* \"wwcc-contracts/contracts/wwccPool.sol\":2396:2416  revert(\"pair exist\") */\n      mload(0x40)\n      0x08c379a000000000000000000000000000000000000000000000000000000000\n      dup2\n      mstore\n      0x04\n      add\n      tag_232\n      swap1\n      tag_233\n      jump\t// in\n    tag_232:\n      mload(0x40)\n      dup1\n      swap2\n      sub\n      swap1\n      revert\n        /* \"wwcc-contracts/contracts/wwccPool.sol\":2359:2899  if(contains(poolKey)) { ... */\n    tag_231:\n        /* \"wwcc-contracts/contracts/wwccPool.sol\":2467:2471  true */\n      0x01\n        /* \"wwcc-contracts/contracts/wwccPool.sol\":2443:2450  WcPools */\n      0x05\n        /* \"wwcc-contracts/contracts/wwccPool.sol\":2443:2459  WcPools[poolKey] */\n      0x00\n        /* \"wwcc-contracts/contracts/wwccPool.sol\":2451:2458  poolKey */\n      dup4\n        /* \"wwcc-contracts/contracts/wwccPool.sol\":2443:2459  WcPools[poolKey] */\n      dup2\n      mstore\n      0x20\n      add\n      swap1\n      dup2\n      mstore\n      0x20\n      add\n      0x00\n      keccak256\n        /* \"wwcc-contracts/contracts/wwccPool.sol\":2443:2464  WcPools[poolKey].used */\n      0x08\n      add\n      0x01\n        /* \"wwcc-contracts/contracts/wwccPool.sol\":2443:2471  WcPools[poolKey].used = true */\n      0x0100\n      exp\n      dup2\n      sload\n      dup2\n      0xff\n      mul\n      not\n      and\n      swap1\n      dup4\n      iszero\n      iszero\n      mul\n      or\n      swap1\n      sstore\n      pop\n        /* \"wwcc-contracts/contracts/wwccPool.sol\":2508:2512  home */\n      dup8\n        /* \"wwcc-contracts/contracts/wwccPool.sol\":2484:2491  WcPools */\n      0x05\n        /* \"wwcc-contracts/contracts/wwccPool.sol\":2484:2500  WcPools[poolKey] */\n      0x00\n        /* \"wwcc-contracts/contracts/wwccPool.sol\":2492:2499  poolKey */\n      dup4\n        /* \"wwcc-contracts/contracts/wwccPool.sol\":2484:2500  WcPools[poolKey] */\n      dup2\n      mstore\n      0x20\n      add\n      swap1\n      dup2\n      mstore\n      0x20\n      add\n      0x00\n      keccak256\n        /* \"wwcc-contracts/contracts/wwccPool.sol\":2484:2505  WcPools[poolKey].home */\n      0x00\n      add\n        /* \"wwcc-contracts/contracts/wwccPool.sol\":2484:2512  WcPools[poolKey].home = home */\n      swap1\n      dup1\n      mload\n      swap1\n      0x20\n      add\n      swap1\n      tag_235\n      swap3\n      swap2\n      swap1\n      tag_236\n      jump\t// in\n    tag_235:\n      pop\n        /* \"wwcc-contracts/contracts/wwccPool.sol\":2550:2555  visit */\n      dup7\n        /* \"wwcc-contracts/contracts/wwccPool.sol\":2525:2532  WcPools */\n      0x05\n        /* \"wwcc-contracts/contracts/wwccPool.sol\":2525:2541  WcPools[poolKey] */\n      0x00\n        /* \"wwcc-contracts/contracts/wwccPool.sol\":2533:2540  poolKey */\n      dup4\n        /* \"wwcc-contracts/contracts/wwccPool.sol\":2525:2541  WcPools[poolKey] */\n      dup2\n      mstore\n      0x20\n      add\n      swap1\n      dup2\n      mstore\n      0x20\n      add\n      0x00\n      keccak256\n        /* \"wwcc-contracts/contracts/wwccPool.sol\":2525:2547  WcPools[poolKey].visit */\n      0x01\n      add\n        /* \"wwcc-contracts/contracts/wwccPool.sol\":2525:2555  WcPools[poolKey].visit = visit */\n      swap1\n      dup1\n      mload\n      swap1\n      0x20\n      add\n      swap1\n      tag_237\n      swap3\n      swap2\n      swap1\n      tag_236\n      jump\t// in\n    tag_237:\n      pop\n        /* \"wwcc-contracts/contracts/wwccPool.sol\":2594:2600  rounds */\n      dup6\n        /* \"wwcc-contracts/contracts/wwccPool.sol\":2568:2575  WcPools */\n      0x05\n        /* \"wwcc-contracts/contracts/wwccPool.sol\":2568:2584  WcPools[poolKey] */\n      0x00\n        /* \"wwcc-contracts/contracts/wwccPool.sol\":2576:2583  poolKey */\n      dup4\n        /* \"wwcc-contracts/contracts/wwccPool.sol\":2568:2584  WcPools[poolKey] */\n      dup2\n      mstore\n      0x20\n      add\n      swap1\n      dup2\n      mstore\n      0x20\n      add\n      0x00\n      keccak256\n        /* \"wwcc-contracts/contracts/wwccPool.sol\":2568:2591  WcPools[poolKey].rounds */\n      0x02\n      add\n        /* \"wwcc-contracts/contracts/wwccPool.sol\":2568:2600  WcPools[poolKey].rounds = rounds */\n      swap1\n      dup1\n      mload\n      swap1\n      0x20\n      add\n      swap1\n      tag_238\n      swap3\n      swap2\n      swap1\n      tag_236\n      jump\t// in\n    tag_238:\n      pop\n        /* \"wwcc-contracts/contracts/wwccPool.sol\":2638:2639  0 */\n      0x00\n        /* \"wwcc-contracts/contracts/wwccPool.sol\":2613:2620  WcPools */\n      0x05\n        /* \"wwcc-contracts/contracts/wwccPool.sol\":2613:2629  WcPools[poolKey] */\n      0x00\n        /* \"wwcc-contracts/contracts/wwccPool.sol\":2621:2628  poolKey */\n      dup4\n        /* \"wwcc-contracts/contracts/wwccPool.sol\":2613:2629  WcPools[poolKey] */\n      dup2\n      mstore\n      0x20\n      add\n      swap1\n      dup2\n      mstore\n      0x20\n      add\n      0x00\n      keccak256\n        /* \"wwcc-contracts/contracts/wwccPool.sol\":2613:2635  WcPools[poolKey].wPool */\n      0x03\n      add\n        /* \"wwcc-contracts/contracts/wwccPool.sol\":2613:2639  WcPools[poolKey].wPool = 0 */\n      dup2\n      swap1\n      sstore\n      pop\n        /* \"wwcc-contracts/contracts/wwccPool.sol\":2677:2678  0 */\n      0x00\n        /* \"wwcc-contracts/contracts/wwccPool.sol\":2652:2659  WcPools */\n      0x05\n        /* \"wwcc-contracts/contracts/wwccPool.sol\":2652:2668  WcPools[poolKey] */\n      0x00\n        /* \"wwcc-contracts/contracts/wwccPool.sol\":2660:2667  poolKey */\n      dup4\n        /* \"wwcc-contracts/contracts/wwccPool.sol\":2652:2668  WcPools[poolKey] */\n      dup2\n      mstore\n      0x20\n      add\n      swap1\n      dup2\n      mstore\n      0x20\n      add\n      0x00\n      keccak256\n        /* \"wwcc-contracts/contracts/wwccPool.sol\":2652:2674  WcPools[poolKey].dPool */\n      0x04\n      add\n        /* \"wwcc-contracts/contracts/wwccPool.sol\":2652:2678  WcPools[poolKey].dPool = 0 */\n      dup2\n      swap1\n      sstore\n      pop\n        /* \"wwcc-contracts/contracts/wwccPool.sol\":2716:2717  0 */\n      0x00\n        /* \"wwcc-contracts/contracts/wwccPool.sol\":2691:2698  WcPools */\n      0x05\n        /* \"wwcc-contracts/contracts/wwccPool.sol\":2691:2707  WcPools[poolKey] */\n      0x00\n        /* \"wwcc-contracts/contracts/wwccPool.sol\":2699:2706  poolKey */\n      dup4\n        /* \"wwcc-contracts/contracts/wwccPool.sol\":2691:2707  WcPools[poolKey] */\n      dup2\n      mstore\n      0x20\n      add\n      swap1\n      dup2\n      mstore\n      0x20\n      add\n      0x00\n      keccak256\n        /* \"wwcc-contracts/contracts/wwccPool.sol\":2691:2713  WcPools[poolKey].lPool */\n      0x05\n      add\n        /* \"wwcc-contracts/contracts/wwccPool.sol\":2691:2717  WcPools[poolKey].lPool = 0 */\n      dup2\n      swap1\n      sstore\n      pop\n        /* \"wwcc-contracts/contracts/wwccPool.sol\":2755:2756  0 */\n      0x00\n        /* \"wwcc-contracts/contracts/wwccPool.sol\":2730:2737  WcPools */\n      0x05\n        /* \"wwcc-contracts/contracts/wwccPool.sol\":2730:2746  WcPools[poolKey] */\n      0x00\n        /* \"wwcc-contracts/contracts/wwccPool.sol\":2738:2745  poolKey */\n      dup4\n        /* \"wwcc-contracts/contracts/wwccPool.sol\":2730:2746  WcPools[poolKey] */\n      dup2\n      mstore\n      0x20\n      add\n      swap1\n      dup2\n      mstore\n      0x20\n      add\n      0x00\n      keccak256\n        /* \"wwcc-contracts/contracts/wwccPool.sol\":2730:2752  WcPools[poolKey].sPool */\n      0x06\n      add\n        /* \"wwcc-contracts/contracts/wwccPool.sol\":2730:2756  WcPools[poolKey].sPool = 0 */\n      dup2\n      swap1\n      sstore\n      pop\n        /* \"wwcc-contracts/contracts/wwccPool.sol\":2794:2795  0 */\n      0x00\n        /* \"wwcc-contracts/contracts/wwccPool.sol\":2769:2776  WcPools */\n      0x05\n        /* \"wwcc-contracts/contracts/wwccPool.sol\":2769:2785  WcPools[poolKey] */\n      0x00\n        /* \"wwcc-contracts/contracts/wwccPool.sol\":2777:2784  poolKey */\n      dup4\n        /* \"wwcc-contracts/contracts/wwccPool.sol\":2769:2785  WcPools[poolKey] */\n      dup2\n      mstore\n      0x20\n      add\n      swap1\n      dup2\n      mstore\n      0x20\n      add\n      0x00\n      keccak256\n        /* \"wwcc-contracts/contracts/wwccPool.sol\":2769:2791  WcPools[poolKey].basal */\n      0x07\n      add\n        /* \"wwcc-contracts/contracts/wwccPool.sol\":2769:2795  WcPools[poolKey].basal = 0 */\n      dup2\n      swap1\n      sstore\n      pop\n        /* \"wwcc-contracts/contracts/wwccPool.sol\":2835:2842  decided */\n      dup5\n        /* \"wwcc-contracts/contracts/wwccPool.sol\":2808:2815  WcPools */\n      0x05\n        /* \"wwcc-contracts/contracts/wwccPool.sol\":2808:2824  WcPools[poolKey] */\n      0x00\n        /* \"wwcc-contracts/contracts/wwccPool.sol\":2816:2823  poolKey */\n      dup4\n        /* \"wwcc-contracts/contracts/wwccPool.sol\":2808:2824  WcPools[poolKey] */\n      dup2\n      mstore\n      0x20\n      add\n      swap1\n      dup2\n      mstore\n      0x20\n      add\n      0x00\n      keccak256\n        /* \"wwcc-contracts/contracts/wwccPool.sol\":2808:2832  WcPools[poolKey].decided */\n      0x08\n      add\n      0x00\n        /* \"wwcc-contracts/contracts/wwccPool.sol\":2808:2842  WcPools[poolKey].decided = decided */\n      0x0100\n      exp\n      dup2\n      sload\n      dup2\n      0xff\n      mul\n      not\n      and\n      swap1\n      dup4\n      iszero\n      iszero\n      mul\n      or\n      swap1\n      sstore\n      pop\n        /* \"wwcc-contracts/contracts/wwccPool.sol\":2883:2888  false */\n      0x00\n        /* \"wwcc-contracts/contracts/wwccPool.sol\":2855:2862  WcPools */\n      0x05\n        /* \"wwcc-contracts/contracts/wwccPool.sol\":2855:2871  WcPools[poolKey] */\n      0x00\n        /* \"wwcc-contracts/contracts/wwccPool.sol\":2863:2870  poolKey */\n      dup4\n        /* \"wwcc-contracts/contracts/wwccPool.sol\":2855:2871  WcPools[poolKey] */\n      dup2\n      mstore\n      0x20\n      add\n      swap1\n      dup2\n      mstore\n      0x20\n      add\n      0x00\n      keccak256\n        /* \"wwcc-contracts/contracts/wwccPool.sol\":2855:2880  WcPools[poolKey].finished */\n      0x08\n      add\n      0x02\n        /* \"wwcc-contracts/contracts/wwccPool.sol\":2855:2888  WcPools[poolKey].finished = false */\n      0x0100\n      exp\n      dup2\n      sload\n      dup2\n      0xff\n      mul\n      not\n      and\n      swap1\n      dup4\n      iszero\n      iszero\n      mul\n      or\n      swap1\n      sstore\n      pop\n        /* \"wwcc-contracts/contracts/wwccPool.sol\":2907:2915  poolKeys */\n      0x02\n        /* \"wwcc-contracts/contracts/wwccPool.sol\":2921:2928  poolKey */\n      dup2\n        /* \"wwcc-contracts/contracts/wwccPool.sol\":2907:2929  poolKeys.push(poolKey) */\n      swap1\n      dup1\n      0x01\n      dup2\n      sload\n      add\n      dup1\n      dup3\n      sstore\n      dup1\n      swap2\n      pop\n      pop\n      0x01\n      swap1\n      sub\n      swap1\n      0x00\n      mstore\n      keccak256(0x00, 0x20)\n      add\n      0x00\n      swap1\n      swap2\n      swap1\n      swap2\n      swap1\n      swap2\n      pop\n      sstore\n        /* \"wwcc-contracts/contracts/wwccPool.sol\":2945:2952  poolKey */\n      dup1\n        /* \"wwcc-contracts/contracts/wwccPool.sol\":2938:2952  return poolKey */\n      swap4\n      pop\n      pop\n      pop\n      pop\n        /* \"wwcc-contracts/contracts/wwccPool.sol\":2039:2959  function Set_Pool(... */\n      swap5\n      swap4\n      pop\n      pop\n      pop\n      pop\n      jump\t// out\n        /* \"wwcc-contracts/contracts/wwccPool.sol\":7369:7475  function CheckBasal() external onlyManager view  returns (uint256){... */\n    tag_68:\n        /* \"wwcc-contracts/contracts/wwccPool.sol\":7427:7434  uint256 */\n      0x00\n        /* \"wwcc-contracts/contracts/wwccPool.sol\":14197:14202  owner */\n      dup1\n      0x00\n      swap1\n      sload\n      swap1\n      0x0100\n      exp\n      swap1\n      div\n      0xffffffffffffffffffffffffffffffffffffffff\n      and\n        /* \"wwcc-contracts/contracts/wwccPool.sol\":14183:14202  msg.sender == owner */\n      0xffffffffffffffffffffffffffffffffffffffff\n      and\n        /* \"wwcc-contracts/contracts/wwccPool.sol\":14183:14193  msg.sender */\n      caller\n        /* \"wwcc-contracts/contracts/wwccPool.sol\":14183:14202  msg.sender == owner */\n      0xffffffffffffffffffffffffffffffffffffffff\n      and\n      eq\n        /* \"wwcc-contracts/contracts/wwccPool.sol\":14162:14253  require(... */\n      tag_241\n      jumpi\n      mload(0x40)\n      0x08c379a000000000000000000000000000000000000000000000000000000000\n      dup2\n      mstore\n      0x04\n      add\n      tag_242\n      swap1\n      tag_113\n      jump\t// in\n    tag_242:\n      mload(0x40)\n      dup1\n      swap2\n      sub\n      swap1\n      revert\n    tag_241:\n        /* \"wwcc-contracts/contracts/wwccPool.sol\":7455:7468  nextBasalLast */\n      sload(0x01)\n        /* \"wwcc-contracts/contracts/wwccPool.sol\":7448:7468  return nextBasalLast */\n      swap1\n      pop\n        /* \"wwcc-contracts/contracts/wwccPool.sol\":7369:7475  function CheckBasal() external onlyManager view  returns (uint256){... */\n      swap1\n      jump\t// out\n        /* \"wwcc-contracts/contracts/wwccPool.sol\":6731:7103  function CheckExpect(bytes32 poolKey) external onlyManager view  returns (uint256){... */\n    tag_74:\n        /* \"wwcc-contracts/contracts/wwccPool.sol\":6805:6812  uint256 */\n      0x00\n        /* \"wwcc-contracts/contracts/wwccPool.sol\":14197:14202  owner */\n      dup1\n      0x00\n      swap1\n      sload\n      swap1\n      0x0100\n      exp\n      swap1\n      div\n      0xffffffffffffffffffffffffffffffffffffffff\n      and\n        /* \"wwcc-contracts/contracts/wwccPool.sol\":14183:14202  msg.sender == owner */\n      0xffffffffffffffffffffffffffffffffffffffff\n      and\n        /* \"wwcc-contracts/contracts/wwccPool.sol\":14183:14193  msg.sender */\n      caller\n        /* \"wwcc-contracts/contracts/wwccPool.sol\":14183:14202  msg.sender == owner */\n      0xffffffffffffffffffffffffffffffffffffffff\n      and\n      eq\n        /* \"wwcc-contracts/contracts/wwccPool.sol\":14162:14253  require(... */\n      tag_245\n      jumpi\n      mload(0x40)\n      0x08c379a000000000000000000000000000000000000000000000000000000000\n      dup2\n      mstore\n      0x04\n      add\n      tag_246\n      swap1\n      tag_113\n      jump\t// in\n    tag_246:\n      mload(0x40)\n      dup1\n      swap2\n      sub\n      swap1\n      revert\n    tag_245:\n        /* \"wwcc-contracts/contracts/wwccPool.sol\":6827:6844  contains(poolKey) */\n      tag_248\n        /* \"wwcc-contracts/contracts/wwccPool.sol\":6836:6843  poolKey */\n      dup3\n        /* \"wwcc-contracts/contracts/wwccPool.sol\":6827:6835  contains */\n      tag_120\n        /* \"wwcc-contracts/contracts/wwccPool.sol\":6827:6844  contains(poolKey) */\n      jump\t// in\n    tag_248:\n        /* \"wwcc-contracts/contracts/wwccPool.sol\":6823:7097  if(!contains(poolKey)) { ... */\n      tag_249\n      jumpi\n        /* \"wwcc-contracts/contracts/wwccPool.sol\":6861:6885  revert(\"pool not exist\") */\n      mload(0x40)\n      0x08c379a000000000000000000000000000000000000000000000000000000000\n      dup2\n      mstore\n      0x04\n      add\n      tag_250\n      swap1\n      tag_123\n      jump\t// in\n    tag_250:\n      mload(0x40)\n      dup1\n      swap2\n      sub\n      swap1\n      revert\n        /* \"wwcc-contracts/contracts/wwccPool.sol\":6823:7097  if(!contains(poolKey)) { ... */\n    tag_249:\n        /* \"wwcc-contracts/contracts/wwccPool.sol\":6913:6931  WcPool memory pool */\n      0x00\n        /* \"wwcc-contracts/contracts/wwccPool.sol\":6934:6941  WcPools */\n      0x05\n        /* \"wwcc-contracts/contracts/wwccPool.sol\":6934:6950  WcPools[poolKey] */\n      0x00\n        /* \"wwcc-contracts/contracts/wwccPool.sol\":6942:6949  poolKey */\n      dup5\n        /* \"wwcc-contracts/contracts/wwccPool.sol\":6934:6950  WcPools[poolKey] */\n      dup2\n      mstore\n      0x20\n      add\n      swap1\n      dup2\n      mstore\n      0x20\n      add\n      0x00\n      keccak256\n        /* \"wwcc-contracts/contracts/wwccPool.sol\":6913:6950  WcPool memory pool = WcPools[poolKey] */\n      mload(0x40)\n      dup1\n      0x0160\n      add\n      0x40\n      mstore\n      swap1\n      dup2\n      0x00\n      dup3\n      add\n      dup1\n      sload\n      tag_252\n      swap1\n      tag_126\n      jump\t// in\n    tag_252:\n      dup1\n      0x1f\n      add\n      0x20\n      dup1\n      swap2\n      div\n      mul\n      0x20\n      add\n      mload(0x40)\n      swap1\n      dup2\n      add\n      0x40\n      mstore\n      dup1\n      swap3\n      swap2\n      swap1\n      dup2\n      dup2\n      mstore\n      0x20\n      add\n      dup3\n      dup1\n      sload\n      tag_253\n      swap1\n      tag_126\n      jump\t// in\n    tag_253:\n      dup1\n      iszero\n      tag_254\n      jumpi\n      dup1\n      0x1f\n      lt\n      tag_255\n      jumpi\n      0x0100\n      dup1\n      dup4\n      sload\n      div\n      mul\n      dup4\n      mstore\n      swap2\n      0x20\n      add\n      swap2\n      jump(tag_254)\n    tag_255:\n      dup3\n      add\n      swap2\n      swap1\n      0x00\n      mstore\n      keccak256(0x00, 0x20)\n      swap1\n    tag_256:\n      dup2\n      sload\n      dup2\n      mstore\n      swap1\n      0x01\n      add\n      swap1\n      0x20\n      add\n      dup1\n      dup4\n      gt\n      tag_256\n      jumpi\n      dup3\n      swap1\n      sub\n      0x1f\n      and\n      dup3\n      add\n      swap2\n    tag_254:\n      pop\n      pop\n      pop\n      pop\n      pop\n      dup2\n      mstore\n      0x20\n      add\n      0x01\n      dup3\n      add\n      dup1\n      sload\n      tag_257\n      swap1\n      tag_126\n      jump\t// in\n    tag_257:\n      dup1\n      0x1f\n      add\n      0x20\n      dup1\n      swap2\n      div\n      mul\n      0x20\n      add\n      mload(0x40)\n      swap1\n      dup2\n      add\n      0x40\n      mstore\n      dup1\n      swap3\n      swap2\n      swap1\n      dup2\n      dup2\n      mstore\n      0x20\n      add\n      dup3\n      dup1\n      sload\n      tag_258\n      swap1\n      tag_126\n      jump\t// in\n    tag_258:\n      dup1\n      iszero\n      tag_259\n      jumpi\n      dup1\n      0x1f\n      lt\n      tag_260\n      jumpi\n      0x0100\n      dup1\n      dup4\n      sload\n      div\n      mul\n      dup4\n      mstore\n      swap2\n      0x20\n      add\n      swap2\n      jump(tag_259)\n    tag_260:\n      dup3\n      add\n      swap2\n      swap1\n      0x00\n      mstore\n      keccak256(0x00, 0x20)\n      swap1\n    tag_261:\n      dup2\n      sload\n      dup2\n      mstore\n      swap1\n      0x01\n      add\n      swap1\n      0x20\n      add\n      dup1\n      dup4\n      gt\n      tag_261\n      jumpi\n      dup3\n      swap1\n      sub\n      0x1f\n      and\n      dup3\n      add\n      swap2\n    tag_259:\n      pop\n      pop\n      pop\n      pop\n      pop\n      dup2\n      mstore\n      0x20\n      add\n      0x02\n      dup3\n      add\n      dup1\n      sload\n      tag_262\n      swap1\n      tag_126\n      jump\t// in\n    tag_262:\n      dup1\n      0x1f\n      add\n      0x20\n      dup1\n      swap2\n      div\n      mul\n      0x20\n      add\n      mload(0x40)\n      swap1\n      dup2\n      add\n      0x40\n      mstore\n      dup1\n      swap3\n      swap2\n      swap1\n      dup2\n      dup2\n      mstore\n      0x20\n      add\n      dup3\n      dup1\n      sload\n      tag_263\n      swap1\n      tag_126\n      jump\t// in\n    tag_263:\n      dup1\n      iszero\n      tag_264\n      jumpi\n      dup1\n      0x1f\n      lt\n      tag_265\n      jumpi\n      0x0100\n      dup1\n      dup4\n      sload\n      div\n      mul\n      dup4\n      mstore\n      swap2\n      0x20\n      add\n      swap2\n      jump(tag_264)\n    tag_265:\n      dup3\n      add\n      swap2\n      swap1\n      0x00\n      mstore\n      keccak256(0x00, 0x20)\n      swap1\n    tag_266:\n      dup2\n      sload\n      dup2\n      mstore\n      swap1\n      0x01\n      add\n      swap1\n      0x20\n      add\n      dup1\n      dup4\n      gt\n      tag_266\n      jumpi\n      dup3\n      swap1\n      sub\n      0x1f\n      and\n      dup3\n      add\n      swap2\n    tag_264:\n      pop\n      pop\n      pop\n      pop\n      pop\n      dup2\n      mstore\n      0x20\n      add\n      0x03\n      dup3\n      add\n      sload\n      dup2\n      mstore\n      0x20\n      add\n      0x04\n      dup3\n      add\n      sload\n      dup2\n      mstore\n      0x20\n      add\n      0x05\n      dup3\n      add\n      sload\n      dup2\n      mstore\n      0x20\n      add\n      0x06\n      dup3\n      add\n      sload\n      dup2\n      mstore\n      0x20\n      add\n      0x07\n      dup3\n      add\n      sload\n      dup2\n      mstore\n      0x20\n      add\n      0x08\n      dup3\n      add\n      0x00\n      swap1\n      sload\n      swap1\n      0x0100\n      exp\n      swap1\n      div\n      0xff\n      and\n      iszero\n      iszero\n      iszero\n      iszero\n      dup2\n      mstore\n      0x20\n      add\n      0x08\n      dup3\n      add\n      0x01\n      swap1\n      sload\n      swap1\n      0x0100\n      exp\n      swap1\n      div\n      0xff\n      and\n      iszero\n      iszero\n      iszero\n      iszero\n      dup2\n      mstore\n      0x20\n      add\n      0x08\n      dup3\n      add\n      0x02\n      swap1\n      sload\n      swap1\n      0x0100\n      exp\n      swap1\n      div\n      0xff\n      and\n      iszero\n      iszero\n      iszero\n      iszero\n      dup2\n      mstore\n      pop\n      pop\n      swap1\n      pop\n        /* \"wwcc-contracts/contracts/wwccPool.sol\":6963:6977  uint256 expect */\n      0x00\n        /* \"wwcc-contracts/contracts/wwccPool.sol\":6980:7060  (pool.wPool+pool.lPool+pool.dPool+pool.sPool + pool.basal).mul(1000000000000000) */\n      tag_267\n        /* \"wwcc-contracts/contracts/wwccPool.sol\":7043:7059  1000000000000000 */\n      0x038d7ea4c68000\n        /* \"wwcc-contracts/contracts/wwccPool.sol\":7027:7031  pool */\n      dup4\n        /* \"wwcc-contracts/contracts/wwccPool.sol\":7027:7037  pool.basal */\n      0xe0\n      add\n      mload\n        /* \"wwcc-contracts/contracts/wwccPool.sol\":7014:7018  pool */\n      dup5\n        /* \"wwcc-contracts/contracts/wwccPool.sol\":7014:7024  pool.sPool */\n      0xc0\n      add\n      mload\n        /* \"wwcc-contracts/contracts/wwccPool.sol\":7003:7007  pool */\n      dup6\n        /* \"wwcc-contracts/contracts/wwccPool.sol\":7003:7013  pool.dPool */\n      0x80\n      add\n      mload\n        /* \"wwcc-contracts/contracts/wwccPool.sol\":6992:6996  pool */\n      dup7\n        /* \"wwcc-contracts/contracts/wwccPool.sol\":6992:7002  pool.lPool */\n      0xa0\n      add\n      mload\n        /* \"wwcc-contracts/contracts/wwccPool.sol\":6981:6985  pool */\n      dup8\n        /* \"wwcc-contracts/contracts/wwccPool.sol\":6981:6991  pool.wPool */\n      0x60\n      add\n      mload\n        /* \"wwcc-contracts/contracts/wwccPool.sol\":6981:7002  pool.wPool+pool.lPool */\n      tag_268\n      swap2\n      swap1\n      tag_26\n      jump\t// in\n    tag_268:\n        /* \"wwcc-contracts/contracts/wwccPool.sol\":6981:7013  pool.wPool+pool.lPool+pool.dPool */\n      tag_269\n      swap2\n      swap1\n      tag_26\n      jump\t// in\n    tag_269:\n        /* \"wwcc-contracts/contracts/wwccPool.sol\":6981:7024  pool.wPool+pool.lPool+pool.dPool+pool.sPool */\n      tag_270\n      swap2\n      swap1\n      tag_26\n      jump\t// in\n    tag_270:\n        /* \"wwcc-contracts/contracts/wwccPool.sol\":6981:7037  pool.wPool+pool.lPool+pool.dPool+pool.sPool + pool.basal */\n      tag_271\n      swap2\n      swap1\n      tag_26\n      jump\t// in\n    tag_271:\n        /* \"wwcc-contracts/contracts/wwccPool.sol\":6980:7042  (pool.wPool+pool.lPool+pool.dPool+pool.sPool + pool.basal).mul */\n      tag_272\n      swap1\n        /* \"wwcc-contracts/contracts/wwccPool.sol\":6980:7060  (pool.wPool+pool.lPool+pool.dPool+pool.sPool + pool.basal).mul(1000000000000000) */\n      swap2\n      swap1\n      0xffffffff\n      and\n      jump\t// in\n    tag_267:\n        /* \"wwcc-contracts/contracts/wwccPool.sol\":6963:7060  uint256 expect = (pool.wPool+pool.lPool+pool.dPool+pool.sPool + pool.basal).mul(1000000000000000) */\n      swap1\n      pop\n        /* \"wwcc-contracts/contracts/wwccPool.sol\":7080:7086  expect */\n      dup1\n        /* \"wwcc-contracts/contracts/wwccPool.sol\":7073:7086  return expect */\n      swap3\n      pop\n      pop\n      pop\n        /* \"wwcc-contracts/contracts/wwccPool.sol\":6731:7103  function CheckExpect(bytes32 poolKey) external onlyManager view  returns (uint256){... */\n      swap2\n      swap1\n      pop\n      jump\t// out\n        /* \"wwcc-contracts/contracts/wwccPool.sol\":2982:4308  function Picking(address joiner,uint256 weight,bytes32 poolKey,uint256 homeScore,uint256 visitScore,uint256 kind) external returns(bool){... */\n    tag_79:\n        /* \"wwcc-contracts/contracts/wwccPool.sol\":3113:3117  bool */\n      0x00\n        /* \"wwcc-contracts/contracts/wwccPool.sol\":3132:3149  contains(poolKey) */\n      tag_274\n        /* \"wwcc-contracts/contracts/wwccPool.sol\":3141:3148  poolKey */\n      dup6\n        /* \"wwcc-contracts/contracts/wwccPool.sol\":3132:3140  contains */\n      tag_120\n        /* \"wwcc-contracts/contracts/wwccPool.sol\":3132:3149  contains(poolKey) */\n      jump\t// in\n    tag_274:\n        /* \"wwcc-contracts/contracts/wwccPool.sol\":3128:4282  if(!contains(poolKey)) { ... */\n      tag_275\n      jumpi\n        /* \"wwcc-contracts/contracts/wwccPool.sol\":3166:3190  revert(\"pool not exist\") */\n      mload(0x40)\n      0x08c379a000000000000000000000000000000000000000000000000000000000\n      dup2\n      mstore\n      0x04\n      add\n      tag_276\n      swap1\n      tag_123\n      jump\t// in\n    tag_276:\n      mload(0x40)\n      dup1\n      swap2\n      sub\n      swap1\n      revert\n        /* \"wwcc-contracts/contracts/wwccPool.sol\":3128:4282  if(!contains(poolKey)) { ... */\n    tag_275:\n        /* \"wwcc-contracts/contracts/wwccPool.sol\":3239:3245  weight */\n      dup6\n        /* \"wwcc-contracts/contracts/wwccPool.sol\":3220:3230  voteAmount */\n      0x04\n        /* \"wwcc-contracts/contracts/wwccPool.sol\":3220:3238  voteAmount[joiner] */\n      0x00\n        /* \"wwcc-contracts/contracts/wwccPool.sol\":3231:3237  joiner */\n      dup10\n        /* \"wwcc-contracts/contracts/wwccPool.sol\":3220:3238  voteAmount[joiner] */\n      0xffffffffffffffffffffffffffffffffffffffff\n      and\n      0xffffffffffffffffffffffffffffffffffffffff\n      and\n      dup2\n      mstore\n      0x20\n      add\n      swap1\n      dup2\n      mstore\n      0x20\n      add\n      0x00\n      keccak256\n      sload\n        /* \"wwcc-contracts/contracts/wwccPool.sol\":3220:3245  voteAmount[joiner]<weight */\n      lt\n        /* \"wwcc-contracts/contracts/wwccPool.sol\":3217:3308  if(voteAmount[joiner]<weight){... */\n      iszero\n      tag_278\n      jumpi\n        /* \"wwcc-contracts/contracts/wwccPool.sol\":3263:3294  revert(\"not enough voteAmount\") */\n      mload(0x40)\n      0x08c379a000000000000000000000000000000000000000000000000000000000\n      dup2\n      mstore\n      0x04\n      add\n      tag_279\n      swap1\n      tag_159\n      jump\t// in\n    tag_279:\n      mload(0x40)\n      dup1\n      swap2\n      sub\n      swap1\n      revert\n        /* \"wwcc-contracts/contracts/wwccPool.sol\":3217:3308  if(voteAmount[joiner]<weight){... */\n    tag_278:\n        /* \"wwcc-contracts/contracts/wwccPool.sol\":3320:3338  WcPool memory pool */\n      0x00\n        /* \"wwcc-contracts/contracts/wwccPool.sol\":3341:3348  WcPools */\n      0x05\n        /* \"wwcc-contracts/contracts/wwccPool.sol\":3341:3357  WcPools[poolKey] */\n      0x00\n        /* \"wwcc-contracts/contracts/wwccPool.sol\":3349:3356  poolKey */\n      dup8\n        /* \"wwcc-contracts/contracts/wwccPool.sol\":3341:3357  WcPools[poolKey] */\n      dup2\n      mstore\n      0x20\n      add\n      swap1\n      dup2\n      mstore\n      0x20\n      add\n      0x00\n      keccak256\n        /* \"wwcc-contracts/contracts/wwccPool.sol\":3320:3357  WcPool memory pool = WcPools[poolKey] */\n      mload(0x40)\n      dup1\n      0x0160\n      add\n      0x40\n      mstore\n      swap1\n      dup2\n      0x00\n      dup3\n      add\n      dup1\n      sload\n      tag_280\n      swap1\n      tag_126\n      jump\t// in\n    tag_280:\n      dup1\n      0x1f\n      add\n      0x20\n      dup1\n      swap2\n      div\n      mul\n      0x20\n      add\n      mload(0x40)\n      swap1\n      dup2\n      add\n      0x40\n      mstore\n      dup1\n      swap3\n      swap2\n      swap1\n      dup2\n      dup2\n      mstore\n      0x20\n      add\n      dup3\n      dup1\n      sload\n      tag_281\n      swap1\n      tag_126\n      jump\t// in\n    tag_281:\n      dup1\n      iszero\n      tag_282\n      jumpi\n      dup1\n      0x1f\n      lt\n      tag_283\n      jumpi\n      0x0100\n      dup1\n      dup4\n      sload\n      div\n      mul\n      dup4\n      mstore\n      swap2\n      0x20\n      add\n      swap2\n      jump(tag_282)\n    tag_283:\n      dup3\n      add\n      swap2\n      swap1\n      0x00\n      mstore\n      keccak256(0x00, 0x20)\n      swap1\n    tag_284:\n      dup2\n      sload\n      dup2\n      mstore\n      swap1\n      0x01\n      add\n      swap1\n      0x20\n      add\n      dup1\n      dup4\n      gt\n      tag_284\n      jumpi\n      dup3\n      swap1\n      sub\n      0x1f\n      and\n      dup3\n      add\n      swap2\n    tag_282:\n      pop\n      pop\n      pop\n      pop\n      pop\n      dup2\n      mstore\n      0x20\n      add\n      0x01\n      dup3\n      add\n      dup1\n      sload\n      tag_285\n      swap1\n      tag_126\n      jump\t// in\n    tag_285:\n      dup1\n      0x1f\n      add\n      0x20\n      dup1\n      swap2\n      div\n      mul\n      0x20\n      add\n      mload(0x40)\n      swap1\n      dup2\n      add\n      0x40\n      mstore\n      dup1\n      swap3\n      swap2\n      swap1\n      dup2\n      dup2\n      mstore\n      0x20\n      add\n      dup3\n      dup1\n      sload\n      tag_286\n      swap1\n      tag_126\n      jump\t// in\n    tag_286:\n      dup1\n      iszero\n      tag_287\n      jumpi\n      dup1\n      0x1f\n      lt\n      tag_288\n      jumpi\n      0x0100\n      dup1\n      dup4\n      sload\n      div\n      mul\n      dup4\n      mstore\n      swap2\n      0x20\n      add\n      swap2\n      jump(tag_287)\n    tag_288:\n      dup3\n      add\n      swap2\n      swap1\n      0x00\n      mstore\n      keccak256(0x00, 0x20)\n      swap1\n    tag_289:\n      dup2\n      sload\n      dup2\n      mstore\n      swap1\n      0x01\n      add\n      swap1\n      0x20\n      add\n      dup1\n      dup4\n      gt\n      tag_289\n      jumpi\n      dup3\n      swap1\n      sub\n      0x1f\n      and\n      dup3\n      add\n      swap2\n    tag_287:\n      pop\n      pop\n      pop\n      pop\n      pop\n      dup2\n      mstore\n      0x20\n      add\n      0x02\n      dup3\n      add\n      dup1\n      sload\n      tag_290\n      swap1\n      tag_126\n      jump\t// in\n    tag_290:\n      dup1\n      0x1f\n      add\n      0x20\n      dup1\n      swap2\n      div\n      mul\n      0x20\n      add\n      mload(0x40)\n      swap1\n      dup2\n      add\n      0x40\n      mstore\n      dup1\n      swap3\n      swap2\n      swap1\n      dup2\n      dup2\n      mstore\n      0x20\n      add\n      dup3\n      dup1\n      sload\n      tag_291\n      swap1\n      tag_126\n      jump\t// in\n    tag_291:\n      dup1\n      iszero\n      tag_292\n      jumpi\n      dup1\n      0x1f\n      lt\n      tag_293\n      jumpi\n      0x0100\n      dup1\n      dup4\n      sload\n      div\n      mul\n      dup4\n      mstore\n      swap2\n      0x20\n      add\n      swap2\n      jump(tag_292)\n    tag_293:\n      dup3\n      add\n      swap2\n      swap1\n      0x00\n      mstore\n      keccak256(0x00, 0x20)\n      swap1\n    tag_294:\n      dup2\n      sload\n      dup2\n      mstore\n      swap1\n      0x01\n      add\n      swap1\n      0x20\n      add\n      dup1\n      dup4\n      gt\n      tag_294\n      jumpi\n      dup3\n      swap1\n      sub\n      0x1f\n      and\n      dup3\n      add\n      swap2\n    tag_292:\n      pop\n      pop\n      pop\n      pop\n      pop\n      dup2\n      mstore\n      0x20\n      add\n      0x03\n      dup3\n      add\n      sload\n      dup2\n      mstore\n      0x20\n      add\n      0x04\n      dup3\n      add\n      sload\n      dup2\n      mstore\n      0x20\n      add\n      0x05\n      dup3\n      add\n      sload\n      dup2\n      mstore\n      0x20\n      add\n      0x06\n      dup3\n      add\n      sload\n      dup2\n      mstore\n      0x20\n      add\n      0x07\n      dup3\n      add\n      sload\n      dup2\n      mstore\n      0x20\n      add\n      0x08\n      dup3\n      add\n      0x00\n      swap1\n      sload\n      swap1\n      0x0100\n      exp\n      swap1\n      div\n      0xff\n      and\n      iszero\n      iszero\n      iszero\n      iszero\n      dup2\n      mstore\n      0x20\n      add\n      0x08\n      dup3\n      add\n      0x01\n      swap1\n      sload\n      swap1\n      0x0100\n      exp\n      swap1\n      div\n      0xff\n      and\n      iszero\n      iszero\n      iszero\n      iszero\n      dup2\n      mstore\n      0x20\n      add\n      0x08\n      dup3\n      add\n      0x02\n      swap1\n      sload\n      swap1\n      0x0100\n      exp\n      swap1\n      div\n      0xff\n      and\n      iszero\n      iszero\n      iszero\n      iszero\n      dup2\n      mstore\n      pop\n      pop\n      swap1\n      pop\n        /* \"wwcc-contracts/contracts/wwccPool.sol\":3370:3387  string  memory si */\n      0x00\n        /* \"wwcc-contracts/contracts/wwccPool.sol\":3390:3455  strConcat(uint256ToString(homeScore),uint256ToString(visitScore)) */\n      tag_295\n        /* \"wwcc-contracts/contracts/wwccPool.sol\":3400:3426  uint256ToString(homeScore) */\n      tag_296\n        /* \"wwcc-contracts/contracts/wwccPool.sol\":3416:3425  homeScore */\n      dup8\n        /* \"wwcc-contracts/contracts/wwccPool.sol\":3400:3415  uint256ToString */\n      tag_177\n        /* \"wwcc-contracts/contracts/wwccPool.sol\":3400:3426  uint256ToString(homeScore) */\n      jump\t// in\n    tag_296:\n        /* \"wwcc-contracts/contracts/wwccPool.sol\":3427:3454  uint256ToString(visitScore) */\n      tag_297\n        /* \"wwcc-contracts/contracts/wwccPool.sol\":3443:3453  visitScore */\n      dup8\n        /* \"wwcc-contracts/contracts/wwccPool.sol\":3427:3442  uint256ToString */\n      tag_177\n        /* \"wwcc-contracts/contracts/wwccPool.sol\":3427:3454  uint256ToString(visitScore) */\n      jump\t// in\n    tag_297:\n        /* \"wwcc-contracts/contracts/wwccPool.sol\":3390:3399  strConcat */\n      tag_179\n        /* \"wwcc-contracts/contracts/wwccPool.sol\":3390:3455  strConcat(uint256ToString(homeScore),uint256ToString(visitScore)) */\n      jump\t// in\n    tag_295:\n        /* \"wwcc-contracts/contracts/wwccPool.sol\":3370:3455  string  memory si = strConcat(uint256ToString(homeScore),uint256ToString(visitScore)) */\n      swap1\n      pop\n        /* \"wwcc-contracts/contracts/wwccPool.sol\":3468:3493  string  memory pickingKey */\n      0x00\n        /* \"wwcc-contracts/contracts/wwccPool.sol\":3496:3534  strConcat(bytes32ToString(poolKey),si) */\n      tag_298\n        /* \"wwcc-contracts/contracts/wwccPool.sol\":3506:3530  bytes32ToString(poolKey) */\n      tag_299\n        /* \"wwcc-contracts/contracts/wwccPool.sol\":3522:3529  poolKey */\n      dup10\n        /* \"wwcc-contracts/contracts/wwccPool.sol\":3506:3521  bytes32ToString */\n      tag_182\n        /* \"wwcc-contracts/contracts/wwccPool.sol\":3506:3530  bytes32ToString(poolKey) */\n      jump\t// in\n    tag_299:\n        /* \"wwcc-contracts/contracts/wwccPool.sol\":3531:3533  si */\n      dup4\n        /* \"wwcc-contracts/contracts/wwccPool.sol\":3496:3505  strConcat */\n      tag_179\n        /* \"wwcc-contracts/contracts/wwccPool.sol\":3496:3534  strConcat(bytes32ToString(poolKey),si) */\n      jump\t// in\n    tag_298:\n        /* \"wwcc-contracts/contracts/wwccPool.sol\":3468:3534  string  memory pickingKey = strConcat(bytes32ToString(poolKey),si) */\n      swap1\n      pop\n        /* \"wwcc-contracts/contracts/wwccPool.sol\":3547:3570  JoinerPicking memory jp */\n      0x00\n        /* \"wwcc-contracts/contracts/wwccPool.sol\":3573:3644  JoinerPicking(weight,kind,homeScore,visitScore,joiner,pickingKey,false) */\n      mload(0x40)\n      dup1\n      0xe0\n      add\n      0x40\n      mstore\n      dup1\n        /* \"wwcc-contracts/contracts/wwccPool.sol\":3587:3593  weight */\n      dup12\n        /* \"wwcc-contracts/contracts/wwccPool.sol\":3573:3644  JoinerPicking(weight,kind,homeScore,visitScore,joiner,pickingKey,false) */\n      dup2\n      mstore\n      0x20\n      add\n        /* \"wwcc-contracts/contracts/wwccPool.sol\":3594:3598  kind */\n      dup8\n        /* \"wwcc-contracts/contracts/wwccPool.sol\":3573:3644  JoinerPicking(weight,kind,homeScore,visitScore,joiner,pickingKey,false) */\n      dup2\n      mstore\n      0x20\n      add\n        /* \"wwcc-contracts/contracts/wwccPool.sol\":3599:3608  homeScore */\n      dup10\n        /* \"wwcc-contracts/contracts/wwccPool.sol\":3573:3644  JoinerPicking(weight,kind,homeScore,visitScore,joiner,pickingKey,false) */\n      dup2\n      mstore\n      0x20\n      add\n        /* \"wwcc-contracts/contracts/wwccPool.sol\":3609:3619  visitScore */\n      dup9\n        /* \"wwcc-contracts/contracts/wwccPool.sol\":3573:3644  JoinerPicking(weight,kind,homeScore,visitScore,joiner,pickingKey,false) */\n      dup2\n      mstore\n      0x20\n      add\n        /* \"wwcc-contracts/contracts/wwccPool.sol\":3620:3626  joiner */\n      dup13\n        /* \"wwcc-contracts/contracts/wwccPool.sol\":3573:3644  JoinerPicking(weight,kind,homeScore,visitScore,joiner,pickingKey,false) */\n      0xffffffffffffffffffffffffffffffffffffffff\n      and\n      dup2\n      mstore\n      0x20\n      add\n        /* \"wwcc-contracts/contracts/wwccPool.sol\":3627:3637  pickingKey */\n      dup4\n        /* \"wwcc-contracts/contracts/wwccPool.sol\":3573:3644  JoinerPicking(weight,kind,homeScore,visitScore,joiner,pickingKey,false) */\n      dup2\n      mstore\n      0x20\n      add\n        /* \"wwcc-contracts/contracts/wwccPool.sol\":3638:3643  false */\n      0x00\n        /* \"wwcc-contracts/contracts/wwccPool.sol\":3573:3644  JoinerPicking(weight,kind,homeScore,visitScore,joiner,pickingKey,false) */\n      iszero\n      iszero\n      dup2\n      mstore\n      pop\n        /* \"wwcc-contracts/contracts/wwccPool.sol\":3547:3644  JoinerPicking memory jp = JoinerPicking(weight,kind,homeScore,visitScore,joiner,pickingKey,false) */\n      swap1\n      pop\n        /* \"wwcc-contracts/contracts/wwccPool.sol\":3693:3700  poolKey */\n      dup9\n        /* \"wwcc-contracts/contracts/wwccPool.sol\":3657:3673  allScorePoolInfo */\n      0x06\n        /* \"wwcc-contracts/contracts/wwccPool.sol\":3657:3682  allScorePoolInfo[poolKey] */\n      0x00\n        /* \"wwcc-contracts/contracts/wwccPool.sol\":3674:3681  poolKey */\n      dup12\n        /* \"wwcc-contracts/contracts/wwccPool.sol\":3657:3682  allScorePoolInfo[poolKey] */\n      dup2\n      mstore\n      0x20\n      add\n      swap1\n      dup2\n      mstore\n      0x20\n      add\n      0x00\n      keccak256\n        /* \"wwcc-contracts/contracts/wwccPool.sol\":3657:3690  allScorePoolInfo[poolKey].poolKey */\n      0x01\n      add\n        /* \"wwcc-contracts/contracts/wwccPool.sol\":3657:3700  allScorePoolInfo[poolKey].poolKey = poolKey */\n      dup2\n      swap1\n      sstore\n      pop\n        /* \"wwcc-contracts/contracts/wwccPool.sol\":3713:3729  allScorePoolInfo */\n      0x06\n        /* \"wwcc-contracts/contracts/wwccPool.sol\":3713:3738  allScorePoolInfo[poolKey] */\n      0x00\n        /* \"wwcc-contracts/contracts/wwccPool.sol\":3730:3737  poolKey */\n      dup11\n        /* \"wwcc-contracts/contracts/wwccPool.sol\":3713:3738  allScorePoolInfo[poolKey] */\n      dup2\n      mstore\n      0x20\n      add\n      swap1\n      dup2\n      mstore\n      0x20\n      add\n      0x00\n      keccak256\n        /* \"wwcc-contracts/contracts/wwccPool.sol\":3713:3750  allScorePoolInfo[poolKey].separateBet */\n      0x00\n      add\n        /* \"wwcc-contracts/contracts/wwccPool.sol\":3756:3758  jp */\n      dup2\n        /* \"wwcc-contracts/contracts/wwccPool.sol\":3713:3759  allScorePoolInfo[poolKey].separateBet.push(jp) */\n      swap1\n      dup1\n      0x01\n      dup2\n      sload\n      add\n      dup1\n      dup3\n      sstore\n      dup1\n      swap2\n      pop\n      pop\n      0x01\n      swap1\n      sub\n      swap1\n      0x00\n      mstore\n      keccak256(0x00, 0x20)\n      swap1\n      0x07\n      mul\n      add\n      0x00\n      swap1\n      swap2\n      swap1\n      swap2\n      swap1\n      swap2\n      pop\n      0x00\n      dup3\n      add\n      mload\n      dup2\n      0x00\n      add\n      sstore\n      0x20\n      dup3\n      add\n      mload\n      dup2\n      0x01\n      add\n      sstore\n      0x40\n      dup3\n      add\n      mload\n      dup2\n      0x02\n      add\n      sstore\n      0x60\n      dup3\n      add\n      mload\n      dup2\n      0x03\n      add\n      sstore\n      0x80\n      dup3\n      add\n      mload\n      dup2\n      0x04\n      add\n      exp(0x0100, 0x00)\n      dup2\n      sload\n      dup2\n      0xffffffffffffffffffffffffffffffffffffffff\n      mul\n      not\n      and\n      swap1\n      dup4\n      0xffffffffffffffffffffffffffffffffffffffff\n      and\n      mul\n      or\n      swap1\n      sstore\n      pop\n      0xa0\n      dup3\n      add\n      mload\n      dup2\n      0x05\n      add\n      swap1\n      dup1\n      mload\n      swap1\n      0x20\n      add\n      swap1\n      tag_301\n      swap3\n      swap2\n      swap1\n      tag_236\n      jump\t// in\n    tag_301:\n      pop\n      0xc0\n      dup3\n      add\n      mload\n      dup2\n      0x06\n      add\n      exp(0x0100, 0x00)\n      dup2\n      sload\n      dup2\n      0xff\n      mul\n      not\n      and\n      swap1\n      dup4\n      iszero\n      iszero\n      mul\n      or\n      swap1\n      sstore\n      pop\n      pop\n      pop\n        /* \"wwcc-contracts/contracts/wwccPool.sol\":3807:3813  joiner */\n      dup11\n        /* \"wwcc-contracts/contracts/wwccPool.sol\":3773:3789  joinerAllPicking */\n      0x08\n        /* \"wwcc-contracts/contracts/wwccPool.sol\":3773:3797  joinerAllPicking[joiner] */\n      0x00\n        /* \"wwcc-contracts/contracts/wwccPool.sol\":3790:3796  joiner */\n      dup14\n        /* \"wwcc-contracts/contracts/wwccPool.sol\":3773:3797  joinerAllPicking[joiner] */\n      0xffffffffffffffffffffffffffffffffffffffff\n      and\n      0xffffffffffffffffffffffffffffffffffffffff\n      and\n      dup2\n      mstore\n      0x20\n      add\n      swap1\n      dup2\n      mstore\n      0x20\n      add\n      0x00\n      keccak256\n        /* \"wwcc-contracts/contracts/wwccPool.sol\":3773:3804  joinerAllPicking[joiner].joiner */\n      0x01\n      add\n      0x00\n        /* \"wwcc-contracts/contracts/wwccPool.sol\":3773:3813  joinerAllPicking[joiner].joiner = joiner */\n      0x0100\n      exp\n      dup2\n      sload\n      dup2\n      0xffffffffffffffffffffffffffffffffffffffff\n      mul\n      not\n      and\n      swap1\n      dup4\n      0xffffffffffffffffffffffffffffffffffffffff\n      and\n      mul\n      or\n      swap1\n      sstore\n      pop\n        /* \"wwcc-contracts/contracts/wwccPool.sol\":3826:3842  allScorePoolInfo */\n      0x06\n        /* \"wwcc-contracts/contracts/wwccPool.sol\":3826:3851  allScorePoolInfo[poolKey] */\n      0x00\n        /* \"wwcc-contracts/contracts/wwccPool.sol\":3843:3850  poolKey */\n      dup11\n        /* \"wwcc-contracts/contracts/wwccPool.sol\":3826:3851  allScorePoolInfo[poolKey] */\n      dup2\n      mstore\n      0x20\n      add\n      swap1\n      dup2\n      mstore\n      0x20\n      add\n      0x00\n      keccak256\n        /* \"wwcc-contracts/contracts/wwccPool.sol\":3826:3863  allScorePoolInfo[poolKey].separateBet */\n      0x00\n      add\n        /* \"wwcc-contracts/contracts/wwccPool.sol\":3869:3871  jp */\n      dup2\n        /* \"wwcc-contracts/contracts/wwccPool.sol\":3826:3872  allScorePoolInfo[poolKey].separateBet.push(jp) */\n      swap1\n      dup1\n      0x01\n      dup2\n      sload\n      add\n      dup1\n      dup3\n      sstore\n      dup1\n      swap2\n      pop\n      pop\n      0x01\n      swap1\n      sub\n      swap1\n      0x00\n      mstore\n      keccak256(0x00, 0x20)\n      swap1\n      0x07\n      mul\n      add\n      0x00\n      swap1\n      swap2\n      swap1\n      swap2\n      swap1\n      swap2\n      pop\n      0x00\n      dup3\n      add\n      mload\n      dup2\n      0x00\n      add\n      sstore\n      0x20\n      dup3\n      add\n      mload\n      dup2\n      0x01\n      add\n      sstore\n      0x40\n      dup3\n      add\n      mload\n      dup2\n      0x02\n      add\n      sstore\n      0x60\n      dup3\n      add\n      mload\n      dup2\n      0x03\n      add\n      sstore\n      0x80\n      dup3\n      add\n      mload\n      dup2\n      0x04\n      add\n      exp(0x0100, 0x00)\n      dup2\n      sload\n      dup2\n      0xffffffffffffffffffffffffffffffffffffffff\n      mul\n      not\n      and\n      swap1\n      dup4\n      0xffffffffffffffffffffffffffffffffffffffff\n      and\n      mul\n      or\n      swap1\n      sstore\n      pop\n      0xa0\n      dup3\n      add\n      mload\n      dup2\n      0x05\n      add\n      swap1\n      dup1\n      mload\n      swap1\n      0x20\n      add\n      swap1\n      tag_303\n      swap3\n      swap2\n      swap1\n      tag_236\n      jump\t// in\n    tag_303:\n      pop\n      0xc0\n      dup3\n      add\n      mload\n      dup2\n      0x06\n      add\n      exp(0x0100, 0x00)\n      dup2\n      sload\n      dup2\n      0xff\n      mul\n      not\n      and\n      swap1\n      dup4\n      iszero\n      iszero\n      mul\n      or\n      swap1\n      sstore\n      pop\n      pop\n      pop\n        /* \"wwcc-contracts/contracts/wwccPool.sol\":3899:3900  2 */\n      0x02\n        /* \"wwcc-contracts/contracts/wwccPool.sol\":3891:3895  kind */\n      dup7\n        /* \"wwcc-contracts/contracts/wwccPool.sol\":3891:3900  kind == 2 */\n      eq\n        /* \"wwcc-contracts/contracts/wwccPool.sol\":3887:4219  if (kind == 2){... */\n      iszero\n      tag_304\n      jumpi\n        /* \"wwcc-contracts/contracts/wwccPool.sol\":3931:3937  weight */\n      dup10\n        /* \"wwcc-contracts/contracts/wwccPool.sol\":3917:3921  pool */\n      dup5\n        /* \"wwcc-contracts/contracts/wwccPool.sol\":3917:3927  pool.sPool */\n      0xc0\n      add\n        /* \"wwcc-contracts/contracts/wwccPool.sol\":3917:3937  pool.sPool += weight */\n      dup2\n      dup2\n      mload\n      tag_305\n      swap2\n      swap1\n      tag_26\n      jump\t// in\n    tag_305:\n      swap2\n      pop\n      dup2\n      dup2\n      mstore\n      pop\n      pop\n        /* \"wwcc-contracts/contracts/wwccPool.sol\":3984:3990  weight */\n      dup10\n        /* \"wwcc-contracts/contracts/wwccPool.sol\":3953:3968  singleScorePool */\n      0x07\n        /* \"wwcc-contracts/contracts/wwccPool.sol\":3969:3979  pickingKey */\n      dup4\n        /* \"wwcc-contracts/contracts/wwccPool.sol\":3953:3980  singleScorePool[pickingKey] */\n      mload(0x40)\n      tag_306\n      swap2\n      swap1\n      tag_229\n      jump\t// in\n    tag_306:\n      swap1\n      dup2\n      mstore\n      0x20\n      add\n      mload(0x40)\n      dup1\n      swap2\n      sub\n      swap1\n      keccak256\n      0x00\n        /* \"wwcc-contracts/contracts/wwccPool.sol\":3953:3990  singleScorePool[pickingKey] += weight */\n      dup3\n      dup3\n      sload\n      tag_307\n      swap2\n      swap1\n      tag_26\n      jump\t// in\n    tag_307:\n      swap3\n      pop\n      pop\n      dup2\n      swap1\n      sstore\n      pop\n        /* \"wwcc-contracts/contracts/wwccPool.sol\":3887:4219  if (kind == 2){... */\n      jump(tag_308)\n    tag_304:\n        /* \"wwcc-contracts/contracts/wwccPool.sol\":4034:4035  3 */\n      0x03\n        /* \"wwcc-contracts/contracts/wwccPool.sol\":4026:4030  kind */\n      dup7\n        /* \"wwcc-contracts/contracts/wwccPool.sol\":4026:4035  kind == 3 */\n      eq\n        /* \"wwcc-contracts/contracts/wwccPool.sol\":4023:4219  if(kind == 3){... */\n      iszero\n      tag_309\n      jumpi\n        /* \"wwcc-contracts/contracts/wwccPool.sol\":4068:4074  weight */\n      dup10\n        /* \"wwcc-contracts/contracts/wwccPool.sol\":4054:4058  pool */\n      dup5\n        /* \"wwcc-contracts/contracts/wwccPool.sol\":4054:4064  pool.wPool */\n      0x60\n      add\n        /* \"wwcc-contracts/contracts/wwccPool.sol\":4054:4074  pool.wPool += weight */\n      dup2\n      dup2\n      mload\n      tag_310\n      swap2\n      swap1\n      tag_26\n      jump\t// in\n    tag_310:\n      swap2\n      pop\n      dup2\n      dup2\n      mstore\n      pop\n      pop\n        /* \"wwcc-contracts/contracts/wwccPool.sol\":4023:4219  if(kind == 3){... */\n      jump(tag_311)\n    tag_309:\n        /* \"wwcc-contracts/contracts/wwccPool.sol\":4106:4107  1 */\n      0x01\n        /* \"wwcc-contracts/contracts/wwccPool.sol\":4098:4102  kind */\n      dup7\n        /* \"wwcc-contracts/contracts/wwccPool.sol\":4098:4107  kind == 1 */\n      eq\n        /* \"wwcc-contracts/contracts/wwccPool.sol\":4094:4219  if (kind == 1){... */\n      iszero\n      tag_312\n      jumpi\n        /* \"wwcc-contracts/contracts/wwccPool.sol\":4140:4146  weight */\n      dup10\n        /* \"wwcc-contracts/contracts/wwccPool.sol\":4126:4130  pool */\n      dup5\n        /* \"wwcc-contracts/contracts/wwccPool.sol\":4126:4136  pool.dPool */\n      0x80\n      add\n        /* \"wwcc-contracts/contracts/wwccPool.sol\":4126:4146  pool.dPool += weight */\n      dup2\n      dup2\n      mload\n      tag_313\n      swap2\n      swap1\n      tag_26\n      jump\t// in\n    tag_313:\n      swap2\n      pop\n      dup2\n      dup2\n      mstore\n      pop\n      pop\n        /* \"wwcc-contracts/contracts/wwccPool.sol\":4094:4219  if (kind == 1){... */\n      jump(tag_314)\n    tag_312:\n        /* \"wwcc-contracts/contracts/wwccPool.sol\":4198:4204  weight */\n      dup10\n        /* \"wwcc-contracts/contracts/wwccPool.sol\":4184:4188  pool */\n      dup5\n        /* \"wwcc-contracts/contracts/wwccPool.sol\":4184:4194  pool.lPool */\n      0xa0\n      add\n        /* \"wwcc-contracts/contracts/wwccPool.sol\":4184:4204  pool.lPool += weight */\n      dup2\n      dup2\n      mload\n      tag_315\n      swap2\n      swap1\n      tag_26\n      jump\t// in\n    tag_315:\n      swap2\n      pop\n      dup2\n      dup2\n      mstore\n      pop\n      pop\n        /* \"wwcc-contracts/contracts/wwccPool.sol\":4094:4219  if (kind == 1){... */\n    tag_314:\n        /* \"wwcc-contracts/contracts/wwccPool.sol\":4023:4219  if(kind == 3){... */\n    tag_311:\n        /* \"wwcc-contracts/contracts/wwccPool.sol\":3887:4219  if (kind == 2){... */\n    tag_308:\n        /* \"wwcc-contracts/contracts/wwccPool.sol\":4254:4260  weight */\n      dup10\n        /* \"wwcc-contracts/contracts/wwccPool.sol\":4232:4242  voteAmount */\n      0x04\n        /* \"wwcc-contracts/contracts/wwccPool.sol\":4232:4250  voteAmount[joiner] */\n      0x00\n        /* \"wwcc-contracts/contracts/wwccPool.sol\":4243:4249  joiner */\n      dup14\n        /* \"wwcc-contracts/contracts/wwccPool.sol\":4232:4250  voteAmount[joiner] */\n      0xffffffffffffffffffffffffffffffffffffffff\n      and\n      0xffffffffffffffffffffffffffffffffffffffff\n      and\n      dup2\n      mstore\n      0x20\n      add\n      swap1\n      dup2\n      mstore\n      0x20\n      add\n      0x00\n      keccak256\n      0x00\n        /* \"wwcc-contracts/contracts/wwccPool.sol\":4232:4260  voteAmount[joiner] -= weight */\n      dup3\n      dup3\n      sload\n      tag_316\n      swap2\n      swap1\n      tag_188\n      jump\t// in\n    tag_316:\n      swap3\n      pop\n      pop\n      dup2\n      swap1\n      sstore\n      pop\n        /* \"wwcc-contracts/contracts/wwccPool.sol\":3204:4282  {... */\n      pop\n      pop\n      pop\n      pop\n        /* \"wwcc-contracts/contracts/wwccPool.sol\":4297:4301  true */\n      0x01\n        /* \"wwcc-contracts/contracts/wwccPool.sol\":4290:4301  return true */\n      swap1\n      pop\n        /* \"wwcc-contracts/contracts/wwccPool.sol\":2982:4308  function Picking(address joiner,uint256 weight,bytes32 poolKey,uint256 homeScore,uint256 visitScore,uint256 kind) external returns(bool){... */\n      swap7\n      swap6\n      pop\n      pop\n      pop\n      pop\n      pop\n      pop\n      jump\t// out\n        /* \"wwcc-contracts/contracts/wwccPool.sol\":7693:11150  function Award(bytes32 poolKey,uint256 homeScore,uint256 visitScore,uint256 result)  external onlyManager  payable returns(bool){... */\n    tag_84:\n        /* \"wwcc-contracts/contracts/wwccPool.sol\":7816:7820  bool */\n      0x00\n        /* \"wwcc-contracts/contracts/wwccPool.sol\":14197:14202  owner */\n      dup1\n      0x00\n      swap1\n      sload\n      swap1\n      0x0100\n      exp\n      swap1\n      div\n      0xffffffffffffffffffffffffffffffffffffffff\n      and\n        /* \"wwcc-contracts/contracts/wwccPool.sol\":14183:14202  msg.sender == owner */\n      0xffffffffffffffffffffffffffffffffffffffff\n      and\n        /* \"wwcc-contracts/contracts/wwccPool.sol\":14183:14193  msg.sender */\n      caller\n        /* \"wwcc-contracts/contracts/wwccPool.sol\":14183:14202  msg.sender == owner */\n      0xffffffffffffffffffffffffffffffffffffffff\n      and\n      eq\n        /* \"wwcc-contracts/contracts/wwccPool.sol\":14162:14253  require(... */\n      tag_318\n      jumpi\n      mload(0x40)\n      0x08c379a000000000000000000000000000000000000000000000000000000000\n      dup2\n      mstore\n      0x04\n      add\n      tag_319\n      swap1\n      tag_113\n      jump\t// in\n    tag_319:\n      mload(0x40)\n      dup1\n      swap2\n      sub\n      swap1\n      revert\n    tag_318:\n        /* \"wwcc-contracts/contracts/wwccPool.sol\":7835:7852  contains(poolKey) */\n      tag_321\n        /* \"wwcc-contracts/contracts/wwccPool.sol\":7844:7851  poolKey */\n      dup6\n        /* \"wwcc-contracts/contracts/wwccPool.sol\":7835:7843  contains */\n      tag_120\n        /* \"wwcc-contracts/contracts/wwccPool.sol\":7835:7852  contains(poolKey) */\n      jump\t// in\n    tag_321:\n        /* \"wwcc-contracts/contracts/wwccPool.sol\":7831:11124  if(!contains(poolKey)) { ... */\n      tag_322\n      jumpi\n        /* \"wwcc-contracts/contracts/wwccPool.sol\":7869:7893  revert(\"pool not exist\") */\n      mload(0x40)\n      0x08c379a000000000000000000000000000000000000000000000000000000000\n      dup2\n      mstore\n      0x04\n      add\n      tag_323\n      swap1\n      tag_123\n      jump\t// in\n    tag_323:\n      mload(0x40)\n      dup1\n      swap2\n      sub\n      swap1\n      revert\n        /* \"wwcc-contracts/contracts/wwccPool.sol\":7831:11124  if(!contains(poolKey)) { ... */\n    tag_322:\n        /* \"wwcc-contracts/contracts/wwccPool.sol\":7920:7938  WcPool memory pool */\n      0x00\n        /* \"wwcc-contracts/contracts/wwccPool.sol\":7941:7948  WcPools */\n      0x05\n        /* \"wwcc-contracts/contracts/wwccPool.sol\":7941:7957  WcPools[poolKey] */\n      0x00\n        /* \"wwcc-contracts/contracts/wwccPool.sol\":7949:7956  poolKey */\n      dup8\n        /* \"wwcc-contracts/contracts/wwccPool.sol\":7941:7957  WcPools[poolKey] */\n      dup2\n      mstore\n      0x20\n      add\n      swap1\n      dup2\n      mstore\n      0x20\n      add\n      0x00\n      keccak256\n        /* \"wwcc-contracts/contracts/wwccPool.sol\":7920:7957  WcPool memory pool = WcPools[poolKey] */\n      mload(0x40)\n      dup1\n      0x0160\n      add\n      0x40\n      mstore\n      swap1\n      dup2\n      0x00\n      dup3\n      add\n      dup1\n      sload\n      tag_325\n      swap1\n      tag_126\n      jump\t// in\n    tag_325:\n      dup1\n      0x1f\n      add\n      0x20\n      dup1\n      swap2\n      div\n      mul\n      0x20\n      add\n      mload(0x40)\n      swap1\n      dup2\n      add\n      0x40\n      mstore\n      dup1\n      swap3\n      swap2\n      swap1\n      dup2\n      dup2\n      mstore\n      0x20\n      add\n      dup3\n      dup1\n      sload\n      tag_326\n      swap1\n      tag_126\n      jump\t// in\n    tag_326:\n      dup1\n      iszero\n      tag_327\n      jumpi\n      dup1\n      0x1f\n      lt\n      tag_328\n      jumpi\n      0x0100\n      dup1\n      dup4\n      sload\n      div\n      mul\n      dup4\n      mstore\n      swap2\n      0x20\n      add\n      swap2\n      jump(tag_327)\n    tag_328:\n      dup3\n      add\n      swap2\n      swap1\n      0x00\n      mstore\n      keccak256(0x00, 0x20)\n      swap1\n    tag_329:\n      dup2\n      sload\n      dup2\n      mstore\n      swap1\n      0x01\n      add\n      swap1\n      0x20\n      add\n      dup1\n      dup4\n      gt\n      tag_329\n      jumpi\n      dup3\n      swap1\n      sub\n      0x1f\n      and\n      dup3\n      add\n      swap2\n    tag_327:\n      pop\n      pop\n      pop\n      pop\n      pop\n      dup2\n      mstore\n      0x20\n      add\n      0x01\n      dup3\n      add\n      dup1\n      sload\n      tag_330\n      swap1\n      tag_126\n      jump\t// in\n    tag_330:\n      dup1\n      0x1f\n      add\n      0x20\n      dup1\n      swap2\n      div\n      mul\n      0x20\n      add\n      mload(0x40)\n      swap1\n      dup2\n      add\n      0x40\n      mstore\n      dup1\n      swap3\n      swap2\n      swap1\n      dup2\n      dup2\n      mstore\n      0x20\n      add\n      dup3\n      dup1\n      sload\n      tag_331\n      swap1\n      tag_126\n      jump\t// in\n    tag_331:\n      dup1\n      iszero\n      tag_332\n      jumpi\n      dup1\n      0x1f\n      lt\n      tag_333\n      jumpi\n      0x0100\n      dup1\n      dup4\n      sload\n      div\n      mul\n      dup4\n      mstore\n      swap2\n      0x20\n      add\n      swap2\n      jump(tag_332)\n    tag_333:\n      dup3\n      add\n      swap2\n      swap1\n      0x00\n      mstore\n      keccak256(0x00, 0x20)\n      swap1\n    tag_334:\n      dup2\n      sload\n      dup2\n      mstore\n      swap1\n      0x01\n      add\n      swap1\n      0x20\n      add\n      dup1\n      dup4\n      gt\n      tag_334\n      jumpi\n      dup3\n      swap1\n      sub\n      0x1f\n      and\n      dup3\n      add\n      swap2\n    tag_332:\n      pop\n      pop\n      pop\n      pop\n      pop\n      dup2\n      mstore\n      0x20\n      add\n      0x02\n      dup3\n      add\n      dup1\n      sload\n      tag_335\n      swap1\n      tag_126\n      jump\t// in\n    tag_335:\n      dup1\n      0x1f\n      add\n      0x20\n      dup1\n      swap2\n      div\n      mul\n      0x20\n      add\n      mload(0x40)\n      swap1\n      dup2\n      add\n      0x40\n      mstore\n      dup1\n      swap3\n      swap2\n      swap1\n      dup2\n      dup2\n      mstore\n      0x20\n      add\n      dup3\n      dup1\n      sload\n      tag_336\n      swap1\n      tag_126\n      jump\t// in\n    tag_336:\n      dup1\n      iszero\n      tag_337\n      jumpi\n      dup1\n      0x1f\n      lt\n      tag_338\n      jumpi\n      0x0100\n      dup1\n      dup4\n      sload\n      div\n      mul\n      dup4\n      mstore\n      swap2\n      0x20\n      add\n      swap2\n      jump(tag_337)\n    tag_338:\n      dup3\n      add\n      swap2\n      swap1\n      0x00\n      mstore\n      keccak256(0x00, 0x20)\n      swap1\n    tag_339:\n      dup2\n      sload\n      dup2\n      mstore\n      swap1\n      0x01\n      add\n      swap1\n      0x20\n      add\n      dup1\n      dup4\n      gt\n      tag_339\n      jumpi\n      dup3\n      swap1\n      sub\n      0x1f\n      and\n      dup3\n      add\n      swap2\n    tag_337:\n      pop\n      pop\n      pop\n      pop\n      pop\n      dup2\n      mstore\n      0x20\n      add\n      0x03\n      dup3\n      add\n      sload\n      dup2\n      mstore\n      0x20\n      add\n      0x04\n      dup3\n      add\n      sload\n      dup2\n      mstore\n      0x20\n      add\n      0x05\n      dup3\n      add\n      sload\n      dup2\n      mstore\n      0x20\n      add\n      0x06\n      dup3\n      add\n      sload\n      dup2\n      mstore\n      0x20\n      add\n      0x07\n      dup3\n      add\n      sload\n      dup2\n      mstore\n      0x20\n      add\n      0x08\n      dup3\n      add\n      0x00\n      swap1\n      sload\n      swap1\n      0x0100\n      exp\n      swap1\n      div\n      0xff\n      and\n      iszero\n      iszero\n      iszero\n      iszero\n      dup2\n      mstore\n      0x20\n      add\n      0x08\n      dup3\n      add\n      0x01\n      swap1\n      sload\n      swap1\n      0x0100\n      exp\n      swap1\n      div\n      0xff\n      and\n      iszero\n      iszero\n      iszero\n      iszero\n      dup2\n      mstore\n      0x20\n      add\n      0x08\n      dup3\n      add\n      0x02\n      swap1\n      sload\n      swap1\n      0x0100\n      exp\n      swap1\n      div\n      0xff\n      and\n      iszero\n      iszero\n      iszero\n      iszero\n      dup2\n      mstore\n      pop\n      pop\n      swap1\n      pop\n        /* \"wwcc-contracts/contracts/wwccPool.sol\":7988:7992  true */\n      0x01\n        /* \"wwcc-contracts/contracts/wwccPool.sol\":7974:7978  pool */\n      dup2\n        /* \"wwcc-contracts/contracts/wwccPool.sol\":7974:7987  pool.finished */\n      0x0140\n      add\n        /* \"wwcc-contracts/contracts/wwccPool.sol\":7974:7992  pool.finished=true */\n      swap1\n      iszero\n      iszero\n      swap1\n      dup2\n      iszero\n      iszero\n      dup2\n      mstore\n      pop\n        /* \"wwcc-contracts/contracts/wwccPool.sol\":7970:8051  if (pool.finished=true){... */\n      iszero\n      tag_340\n      jumpi\n        /* \"wwcc-contracts/contracts/wwccPool.sol\":8010:8037  revert(\"pool has finished\") */\n      mload(0x40)\n      0x08c379a000000000000000000000000000000000000000000000000000000000\n      dup2\n      mstore\n      0x04\n      add\n      tag_341\n      swap1\n      tag_342\n      jump\t// in\n    tag_341:\n      mload(0x40)\n      dup1\n      swap2\n      sub\n      swap1\n      revert\n        /* \"wwcc-contracts/contracts/wwccPool.sol\":7970:8051  if (pool.finished=true){... */\n    tag_340:\n        /* \"wwcc-contracts/contracts/wwccPool.sol\":8063:8098  JoinerPicking[] memory separateBets */\n      0x00\n        /* \"wwcc-contracts/contracts/wwccPool.sol\":8101:8117  allScorePoolInfo */\n      0x06\n        /* \"wwcc-contracts/contracts/wwccPool.sol\":8101:8126  allScorePoolInfo[poolKey] */\n      0x00\n        /* \"wwcc-contracts/contracts/wwccPool.sol\":8118:8125  poolKey */\n      dup9\n        /* \"wwcc-contracts/contracts/wwccPool.sol\":8101:8126  allScorePoolInfo[poolKey] */\n      dup2\n      mstore\n      0x20\n      add\n      swap1\n      dup2\n      mstore\n      0x20\n      add\n      0x00\n      keccak256\n        /* \"wwcc-contracts/contracts/wwccPool.sol\":8101:8138  allScorePoolInfo[poolKey].separateBet */\n      0x00\n      add\n        /* \"wwcc-contracts/contracts/wwccPool.sol\":8063:8138  JoinerPicking[] memory separateBets = allScorePoolInfo[poolKey].separateBet */\n      dup1\n      sload\n      dup1\n      0x20\n      mul\n      0x20\n      add\n      mload(0x40)\n      swap1\n      dup2\n      add\n      0x40\n      mstore\n      dup1\n      swap3\n      swap2\n      swap1\n      dup2\n      dup2\n      mstore\n      0x20\n      add\n      0x00\n      swap1\n    tag_343:\n      dup3\n      dup3\n      lt\n      iszero\n      tag_344\n      jumpi\n      dup4\n      dup3\n      swap1\n      0x00\n      mstore\n      keccak256(0x00, 0x20)\n      swap1\n      0x07\n      mul\n      add\n      mload(0x40)\n      dup1\n      0xe0\n      add\n      0x40\n      mstore\n      swap1\n      dup2\n      0x00\n      dup3\n      add\n      sload\n      dup2\n      mstore\n      0x20\n      add\n      0x01\n      dup3\n      add\n      sload\n      dup2\n      mstore\n      0x20\n      add\n      0x02\n      dup3\n      add\n      sload\n      dup2\n      mstore\n      0x20\n      add\n      0x03\n      dup3\n      add\n      sload\n      dup2\n      mstore\n      0x20\n      add\n      0x04\n      dup3\n      add\n      0x00\n      swap1\n      sload\n      swap1\n      0x0100\n      exp\n      swap1\n      div\n      0xffffffffffffffffffffffffffffffffffffffff\n      and\n      0xffffffffffffffffffffffffffffffffffffffff\n      and\n      0xffffffffffffffffffffffffffffffffffffffff\n      and\n      dup2\n      mstore\n      0x20\n      add\n      0x05\n      dup3\n      add\n      dup1\n      sload\n      tag_346\n      swap1\n      tag_126\n      jump\t// in\n    tag_346:\n      dup1\n      0x1f\n      add\n      0x20\n      dup1\n      swap2\n      div\n      mul\n      0x20\n      add\n      mload(0x40)\n      swap1\n      dup2\n      add\n      0x40\n      mstore\n      dup1\n      swap3\n      swap2\n      swap1\n      dup2\n      dup2\n      mstore\n      0x20\n      add\n      dup3\n      dup1\n      sload\n      tag_347\n      swap1\n      tag_126\n      jump\t// in\n    tag_347:\n      dup1\n      iszero\n      tag_348\n      jumpi\n      dup1\n      0x1f\n      lt\n      tag_349\n      jumpi\n      0x0100\n      dup1\n      dup4\n      sload\n      div\n      mul\n      dup4\n      mstore\n      swap2\n      0x20\n      add\n      swap2\n      jump(tag_348)\n    tag_349:\n      dup3\n      add\n      swap2\n      swap1\n      0x00\n      mstore\n      keccak256(0x00, 0x20)\n      swap1\n    tag_350:\n      dup2\n      sload\n      dup2\n      mstore\n      swap1\n      0x01\n      add\n      swap1\n      0x20\n      add\n      dup1\n      dup4\n      gt\n      tag_350\n      jumpi\n      dup3\n      swap1\n      sub\n      0x1f\n      and\n      dup3\n      add\n      swap2\n    tag_348:\n      pop\n      pop\n      pop\n      pop\n      pop\n      dup2\n      mstore\n      0x20\n      add\n      0x06\n      dup3\n      add\n      0x00\n      swap1\n      sload\n      swap1\n      0x0100\n      exp\n      swap1\n      div\n      0xff\n      and\n      iszero\n      iszero\n      iszero\n      iszero\n      dup2\n      mstore\n      pop\n      pop\n      dup2\n      mstore\n      0x20\n      add\n      swap1\n      0x01\n      add\n      swap1\n      jump(tag_343)\n    tag_344:\n      pop\n      pop\n      pop\n      pop\n      swap1\n      pop\n        /* \"wwcc-contracts/contracts/wwccPool.sol\":8151:8174  uint256 allRewardAmount */\n      0x00\n        /* \"wwcc-contracts/contracts/wwccPool.sol\":8208:8283  (pool.sPool + pool.wPool+pool.lPool+pool.dPool + pool.basal.div(2)).div(20) */\n      tag_351\n        /* \"wwcc-contracts/contracts/wwccPool.sol\":8280:8282  20 */\n      0x14\n        /* \"wwcc-contracts/contracts/wwccPool.sol\":8257:8274  pool.basal.div(2) */\n      tag_352\n        /* \"wwcc-contracts/contracts/wwccPool.sol\":8272:8273  2 */\n      0x02\n        /* \"wwcc-contracts/contracts/wwccPool.sol\":8257:8261  pool */\n      dup7\n        /* \"wwcc-contracts/contracts/wwccPool.sol\":8257:8267  pool.basal */\n      0xe0\n      add\n      mload\n        /* \"wwcc-contracts/contracts/wwccPool.sol\":8257:8271  pool.basal.div */\n      tag_24\n      swap1\n        /* \"wwcc-contracts/contracts/wwccPool.sol\":8257:8274  pool.basal.div(2) */\n      swap2\n      swap1\n      0xffffffff\n      and\n      jump\t// in\n    tag_352:\n        /* \"wwcc-contracts/contracts/wwccPool.sol\":8244:8248  pool */\n      dup6\n        /* \"wwcc-contracts/contracts/wwccPool.sol\":8244:8254  pool.dPool */\n      0x80\n      add\n      mload\n        /* \"wwcc-contracts/contracts/wwccPool.sol\":8233:8237  pool */\n      dup7\n        /* \"wwcc-contracts/contracts/wwccPool.sol\":8233:8243  pool.lPool */\n      0xa0\n      add\n      mload\n        /* \"wwcc-contracts/contracts/wwccPool.sol\":8222:8226  pool */\n      dup8\n        /* \"wwcc-contracts/contracts/wwccPool.sol\":8222:8232  pool.wPool */\n      0x60\n      add\n      mload\n        /* \"wwcc-contracts/contracts/wwccPool.sol\":8209:8213  pool */\n      dup9\n        /* \"wwcc-contracts/contracts/wwccPool.sol\":8209:8219  pool.sPool */\n      0xc0\n      add\n      mload\n        /* \"wwcc-contracts/contracts/wwccPool.sol\":8209:8232  pool.sPool + pool.wPool */\n      tag_353\n      swap2\n      swap1\n      tag_26\n      jump\t// in\n    tag_353:\n        /* \"wwcc-contracts/contracts/wwccPool.sol\":8209:8243  pool.sPool + pool.wPool+pool.lPool */\n      tag_354\n      swap2\n      swap1\n      tag_26\n      jump\t// in\n    tag_354:\n        /* \"wwcc-contracts/contracts/wwccPool.sol\":8209:8254  pool.sPool + pool.wPool+pool.lPool+pool.dPool */\n      tag_355\n      swap2\n      swap1\n      tag_26\n      jump\t// in\n    tag_355:\n        /* \"wwcc-contracts/contracts/wwccPool.sol\":8209:8274  pool.sPool + pool.wPool+pool.lPool+pool.dPool + pool.basal.div(2) */\n      tag_356\n      swap2\n      swap1\n      tag_26\n      jump\t// in\n    tag_356:\n        /* \"wwcc-contracts/contracts/wwccPool.sol\":8208:8279  (pool.sPool + pool.wPool+pool.lPool+pool.dPool + pool.basal.div(2)).div */\n      tag_24\n      swap1\n        /* \"wwcc-contracts/contracts/wwccPool.sol\":8208:8283  (pool.sPool + pool.wPool+pool.lPool+pool.dPool + pool.basal.div(2)).div(20) */\n      swap2\n      swap1\n      0xffffffff\n      and\n      jump\t// in\n    tag_351:\n        /* \"wwcc-contracts/contracts/wwccPool.sol\":8191:8204  nextBasalLast */\n      0x01\n      0x00\n        /* \"wwcc-contracts/contracts/wwccPool.sol\":8191:8283  nextBasalLast += (pool.sPool + pool.wPool+pool.lPool+pool.dPool + pool.basal.div(2)).div(20) */\n      dup3\n      dup3\n      sload\n      tag_357\n      swap2\n      swap1\n      tag_26\n      jump\t// in\n    tag_357:\n      swap3\n      pop\n      pop\n      dup2\n      swap1\n      sstore\n      pop\n        /* \"wwcc-contracts/contracts/wwccPool.sol\":8457:8463  uint j */\n      0x00\n        /* \"wwcc-contracts/contracts/wwccPool.sol\":8435:10952  for (... */\n    tag_358:\n        /* \"wwcc-contracts/contracts/wwccPool.sol\":8510:8511  1 */\n      0x01\n        /* \"wwcc-contracts/contracts/wwccPool.sol\":8490:8502  separateBets */\n      dup4\n        /* \"wwcc-contracts/contracts/wwccPool.sol\":8490:8509  separateBets.length */\n      mload\n        /* \"wwcc-contracts/contracts/wwccPool.sol\":8490:8511  separateBets.length-1 */\n      tag_361\n      swap2\n      swap1\n      tag_188\n      jump\t// in\n    tag_361:\n        /* \"wwcc-contracts/contracts/wwccPool.sol\":8485:8486  j */\n      dup2\n        /* \"wwcc-contracts/contracts/wwccPool.sol\":8485:8511  j <= separateBets.length-1 */\n      gt\n        /* \"wwcc-contracts/contracts/wwccPool.sol\":8435:10952  for (... */\n      tag_359\n      jumpi\n        /* \"wwcc-contracts/contracts/wwccPool.sol\":8601:8606  false */\n      0x00\n        /* \"wwcc-contracts/contracts/wwccPool.sol\":8574:8586  separateBets */\n      dup4\n        /* \"wwcc-contracts/contracts/wwccPool.sol\":8587:8588  j */\n      dup3\n        /* \"wwcc-contracts/contracts/wwccPool.sol\":8574:8589  separateBets[j] */\n      dup2\n      mload\n      dup2\n      lt\n      tag_362\n      jumpi\n      tag_363\n      tag_364\n      jump\t// in\n    tag_363:\n    tag_362:\n      0x20\n      mul\n      0x20\n      add\n      add\n      mload\n        /* \"wwcc-contracts/contracts/wwccPool.sol\":8574:8598  separateBets[j].finished */\n      0xc0\n      add\n        /* \"wwcc-contracts/contracts/wwccPool.sol\":8574:8606  separateBets[j].finished = false */\n      swap1\n      iszero\n      iszero\n      swap1\n      dup2\n      iszero\n      iszero\n      dup2\n      mstore\n      pop\n        /* \"wwcc-contracts/contracts/wwccPool.sol\":8571:10932  if(separateBets[j].finished = false){... */\n      iszero\n      tag_365\n      jumpi\n        /* \"wwcc-contracts/contracts/wwccPool.sol\":8656:8657  2 */\n      0x02\n        /* \"wwcc-contracts/contracts/wwccPool.sol\":8634:8646  separateBets */\n      dup4\n        /* \"wwcc-contracts/contracts/wwccPool.sol\":8647:8648  j */\n      dup3\n        /* \"wwcc-contracts/contracts/wwccPool.sol\":8634:8649  separateBets[j] */\n      dup2\n      mload\n      dup2\n      lt\n      tag_366\n      jumpi\n      tag_367\n      tag_364\n      jump\t// in\n    tag_367:\n    tag_366:\n      0x20\n      mul\n      0x20\n      add\n      add\n      mload\n        /* \"wwcc-contracts/contracts/wwccPool.sol\":8634:8654  separateBets[j].kind */\n      0x20\n      add\n      mload\n        /* \"wwcc-contracts/contracts/wwccPool.sol\":8634:8657  separateBets[j].kind==2 */\n      eq\n        /* \"wwcc-contracts/contracts/wwccPool.sol\":8631:10912  if(separateBets[j].kind==2){... */\n      iszero\n      tag_368\n      jumpi\n        /* \"wwcc-contracts/contracts/wwccPool.sol\":8704:8753  (pool.sPool + pool.basal.div(2)).mul(85).div(100) */\n      tag_369\n        /* \"wwcc-contracts/contracts/wwccPool.sol\":8749:8752  100 */\n      0x64\n        /* \"wwcc-contracts/contracts/wwccPool.sol\":8704:8744  (pool.sPool + pool.basal.div(2)).mul(85) */\n      tag_370\n        /* \"wwcc-contracts/contracts/wwccPool.sol\":8741:8743  85 */\n      0x55\n        /* \"wwcc-contracts/contracts/wwccPool.sol\":8718:8735  pool.basal.div(2) */\n      tag_371\n        /* \"wwcc-contracts/contracts/wwccPool.sol\":8733:8734  2 */\n      0x02\n        /* \"wwcc-contracts/contracts/wwccPool.sol\":8718:8722  pool */\n      dup10\n        /* \"wwcc-contracts/contracts/wwccPool.sol\":8718:8728  pool.basal */\n      0xe0\n      add\n      mload\n        /* \"wwcc-contracts/contracts/wwccPool.sol\":8718:8732  pool.basal.div */\n      tag_24\n      swap1\n        /* \"wwcc-contracts/contracts/wwccPool.sol\":8718:8735  pool.basal.div(2) */\n      swap2\n      swap1\n      0xffffffff\n      and\n      jump\t// in\n    tag_371:\n        /* \"wwcc-contracts/contracts/wwccPool.sol\":8705:8709  pool */\n      dup9\n        /* \"wwcc-contracts/contracts/wwccPool.sol\":8705:8715  pool.sPool */\n      0xc0\n      add\n      mload\n        /* \"wwcc-contracts/contracts/wwccPool.sol\":8705:8735  pool.sPool + pool.basal.div(2) */\n      tag_372\n      swap2\n      swap1\n      tag_26\n      jump\t// in\n    tag_372:\n        /* \"wwcc-contracts/contracts/wwccPool.sol\":8704:8740  (pool.sPool + pool.basal.div(2)).mul */\n      tag_272\n      swap1\n        /* \"wwcc-contracts/contracts/wwccPool.sol\":8704:8744  (pool.sPool + pool.basal.div(2)).mul(85) */\n      swap2\n      swap1\n      0xffffffff\n      and\n      jump\t// in\n    tag_370:\n        /* \"wwcc-contracts/contracts/wwccPool.sol\":8704:8748  (pool.sPool + pool.basal.div(2)).mul(85).div */\n      tag_24\n      swap1\n        /* \"wwcc-contracts/contracts/wwccPool.sol\":8704:8753  (pool.sPool + pool.basal.div(2)).mul(85).div(100) */\n      swap2\n      swap1\n      0xffffffff\n      and\n      jump\t// in\n    tag_369:\n        /* \"wwcc-contracts/contracts/wwccPool.sol\":8686:8753  allRewardAmount = (pool.sPool + pool.basal.div(2)).mul(85).div(100) */\n      swap2\n      pop\n        /* \"wwcc-contracts/contracts/wwccPool.sol\":8808:8817  homeScore */\n      dup8\n        /* \"wwcc-contracts/contracts/wwccPool.sol\":8781:8793  separateBets */\n      dup4\n        /* \"wwcc-contracts/contracts/wwccPool.sol\":8794:8795  j */\n      dup3\n        /* \"wwcc-contracts/contracts/wwccPool.sol\":8781:8796  separateBets[j] */\n      dup2\n      mload\n      dup2\n      lt\n      tag_373\n      jumpi\n      tag_374\n      tag_364\n      jump\t// in\n    tag_374:\n    tag_373:\n      0x20\n      mul\n      0x20\n      add\n      add\n      mload\n        /* \"wwcc-contracts/contracts/wwccPool.sol\":8781:8806  separateBets[j].homeScore */\n      0x40\n      add\n      mload\n        /* \"wwcc-contracts/contracts/wwccPool.sol\":8781:8817  separateBets[j].homeScore==homeScore */\n      eq\n        /* \"wwcc-contracts/contracts/wwccPool.sol\":8781:8859  separateBets[j].homeScore==homeScore && separateBets[j].visitScore==visitScore */\n      dup1\n      iszero\n      tag_375\n      jumpi\n      pop\n        /* \"wwcc-contracts/contracts/wwccPool.sol\":8849:8859  visitScore */\n      dup7\n        /* \"wwcc-contracts/contracts/wwccPool.sol\":8821:8833  separateBets */\n      dup4\n        /* \"wwcc-contracts/contracts/wwccPool.sol\":8834:8835  j */\n      dup3\n        /* \"wwcc-contracts/contracts/wwccPool.sol\":8821:8836  separateBets[j] */\n      dup2\n      mload\n      dup2\n      lt\n      tag_376\n      jumpi\n      tag_377\n      tag_364\n      jump\t// in\n    tag_377:\n    tag_376:\n      0x20\n      mul\n      0x20\n      add\n      add\n      mload\n        /* \"wwcc-contracts/contracts/wwccPool.sol\":8821:8847  separateBets[j].visitScore */\n      0x60\n      add\n      mload\n        /* \"wwcc-contracts/contracts/wwccPool.sol\":8821:8859  separateBets[j].visitScore==visitScore */\n      eq\n        /* \"wwcc-contracts/contracts/wwccPool.sol\":8781:8859  separateBets[j].homeScore==homeScore && separateBets[j].visitScore==visitScore */\n    tag_375:\n        /* \"wwcc-contracts/contracts/wwccPool.sol\":8777:9575  if (separateBets[j].homeScore==homeScore && separateBets[j].visitScore==visitScore){... */\n      iszero\n      tag_378\n      jumpi\n        /* \"wwcc-contracts/contracts/wwccPool.sol\":8888:8917  uint256 singleScorePoolAmount */\n      0x00\n        /* \"wwcc-contracts/contracts/wwccPool.sol\":8920:8935  singleScorePool */\n      0x07\n        /* \"wwcc-contracts/contracts/wwccPool.sol\":8936:8948  separateBets */\n      dup5\n        /* \"wwcc-contracts/contracts/wwccPool.sol\":8949:8950  j */\n      dup4\n        /* \"wwcc-contracts/contracts/wwccPool.sol\":8936:8951  separateBets[j] */\n      dup2\n      mload\n      dup2\n      lt\n      tag_379\n      jumpi\n      tag_380\n      tag_364\n      jump\t// in\n    tag_380:\n    tag_379:\n      0x20\n      mul\n      0x20\n      add\n      add\n      mload\n        /* \"wwcc-contracts/contracts/wwccPool.sol\":8936:8962  separateBets[j].pickingKey */\n      0xa0\n      add\n      mload\n        /* \"wwcc-contracts/contracts/wwccPool.sol\":8920:8963  singleScorePool[separateBets[j].pickingKey] */\n      mload(0x40)\n      tag_381\n      swap2\n      swap1\n      tag_229\n      jump\t// in\n    tag_381:\n      swap1\n      dup2\n      mstore\n      0x20\n      add\n      mload(0x40)\n      dup1\n      swap2\n      sub\n      swap1\n      keccak256\n      sload\n        /* \"wwcc-contracts/contracts/wwccPool.sol\":8888:8963  uint256 singleScorePoolAmount = singleScorePool[separateBets[j].pickingKey] */\n      swap1\n      pop\n        /* \"wwcc-contracts/contracts/wwccPool.sol\":8991:9011  uint256 rewardAmount */\n      0x00\n        /* \"wwcc-contracts/contracts/wwccPool.sol\":9058:9079  singleScorePoolAmount */\n      dup2\n        /* \"wwcc-contracts/contracts/wwccPool.sol\":9032:9044  separateBets */\n      dup6\n        /* \"wwcc-contracts/contracts/wwccPool.sol\":9045:9046  j */\n      dup5\n        /* \"wwcc-contracts/contracts/wwccPool.sol\":9032:9047  separateBets[j] */\n      dup2\n      mload\n      dup2\n      lt\n      tag_382\n      jumpi\n      tag_383\n      tag_364\n      jump\t// in\n    tag_383:\n    tag_382:\n      0x20\n      mul\n      0x20\n      add\n      add\n      mload\n        /* \"wwcc-contracts/contracts/wwccPool.sol\":9032:9054  separateBets[j].weight */\n      0x00\n      add\n      mload\n        /* \"wwcc-contracts/contracts/wwccPool.sol\":9014:9029  allRewardAmount */\n      dup6\n        /* \"wwcc-contracts/contracts/wwccPool.sol\":9014:9054  allRewardAmount * separateBets[j].weight */\n      tag_384\n      swap2\n      swap1\n      tag_385\n      jump\t// in\n    tag_384:\n        /* \"wwcc-contracts/contracts/wwccPool.sol\":9014:9079  allRewardAmount * separateBets[j].weight /  singleScorePoolAmount */\n      tag_386\n      swap2\n      swap1\n      tag_109\n      jump\t// in\n    tag_386:\n        /* \"wwcc-contracts/contracts/wwccPool.sol\":8991:9079  uint256 rewardAmount = allRewardAmount * separateBets[j].weight /  singleScorePoolAmount */\n      swap1\n      pop\n        /* \"wwcc-contracts/contracts/wwccPool.sol\":9451:9463  rewardAmount */\n      dup1\n        /* \"wwcc-contracts/contracts/wwccPool.sol\":9413:9423  voteAmount */\n      0x04\n        /* \"wwcc-contracts/contracts/wwccPool.sol\":9413:9447  voteAmount[separateBets[j].joiner] */\n      0x00\n        /* \"wwcc-contracts/contracts/wwccPool.sol\":9424:9436  separateBets */\n      dup8\n        /* \"wwcc-contracts/contracts/wwccPool.sol\":9437:9438  j */\n      dup7\n        /* \"wwcc-contracts/contracts/wwccPool.sol\":9424:9439  separateBets[j] */\n      dup2\n      mload\n      dup2\n      lt\n      tag_387\n      jumpi\n      tag_388\n      tag_364\n      jump\t// in\n    tag_388:\n    tag_387:\n      0x20\n      mul\n      0x20\n      add\n      add\n      mload\n        /* \"wwcc-contracts/contracts/wwccPool.sol\":9424:9446  separateBets[j].joiner */\n      0x80\n      add\n      mload\n        /* \"wwcc-contracts/contracts/wwccPool.sol\":9413:9447  voteAmount[separateBets[j].joiner] */\n      0xffffffffffffffffffffffffffffffffffffffff\n      and\n      0xffffffffffffffffffffffffffffffffffffffff\n      and\n      dup2\n      mstore\n      0x20\n      add\n      swap1\n      dup2\n      mstore\n      0x20\n      add\n      0x00\n      keccak256\n      0x00\n        /* \"wwcc-contracts/contracts/wwccPool.sol\":9413:9463  voteAmount[separateBets[j].joiner] += rewardAmount */\n      dup3\n      dup3\n      sload\n      tag_389\n      swap2\n      swap1\n      tag_26\n      jump\t// in\n    tag_389:\n      swap3\n      pop\n      pop\n      dup2\n      swap1\n      sstore\n      pop\n        /* \"wwcc-contracts/contracts/wwccPool.sol\":9518:9522  true */\n      0x01\n        /* \"wwcc-contracts/contracts/wwccPool.sol\":9491:9503  separateBets */\n      dup6\n        /* \"wwcc-contracts/contracts/wwccPool.sol\":9504:9505  j */\n      dup5\n        /* \"wwcc-contracts/contracts/wwccPool.sol\":9491:9506  separateBets[j] */\n      dup2\n      mload\n      dup2\n      lt\n      tag_390\n      jumpi\n      tag_391\n      tag_364\n      jump\t// in\n    tag_391:\n    tag_390:\n      0x20\n      mul\n      0x20\n      add\n      add\n      mload\n        /* \"wwcc-contracts/contracts/wwccPool.sol\":9491:9515  separateBets[j].finished */\n      0xc0\n      add\n        /* \"wwcc-contracts/contracts/wwccPool.sol\":9491:9522  separateBets[j].finished = true */\n      swap1\n      iszero\n      iszero\n      swap1\n      dup2\n      iszero\n      iszero\n      dup2\n      mstore\n      pop\n      pop\n        /* \"wwcc-contracts/contracts/wwccPool.sol\":8860:9575  {... */\n      pop\n      pop\n        /* \"wwcc-contracts/contracts/wwccPool.sol\":8777:9575  if (separateBets[j].homeScore==homeScore && separateBets[j].visitScore==visitScore){... */\n    tag_378:\n        /* \"wwcc-contracts/contracts/wwccPool.sol\":8631:10912  if(separateBets[j].kind==2){... */\n      jump(tag_392)\n    tag_368:\n        /* \"wwcc-contracts/contracts/wwccPool.sol\":9650:9656  result */\n      dup6\n        /* \"wwcc-contracts/contracts/wwccPool.sol\":9628:9640  separateBets */\n      dup4\n        /* \"wwcc-contracts/contracts/wwccPool.sol\":9641:9642  j */\n      dup3\n        /* \"wwcc-contracts/contracts/wwccPool.sol\":9628:9643  separateBets[j] */\n      dup2\n      mload\n      dup2\n      lt\n      tag_393\n      jumpi\n      tag_394\n      tag_364\n      jump\t// in\n    tag_394:\n    tag_393:\n      0x20\n      mul\n      0x20\n      add\n      add\n      mload\n        /* \"wwcc-contracts/contracts/wwccPool.sol\":9628:9648  separateBets[j].kind */\n      0x20\n      add\n      mload\n        /* \"wwcc-contracts/contracts/wwccPool.sol\":9628:9656  separateBets[j].kind==result */\n      eq\n        /* \"wwcc-contracts/contracts/wwccPool.sol\":9625:10890  if(separateBets[j].kind==result){... */\n      iszero\n      tag_395\n      jumpi\n        /* \"wwcc-contracts/contracts/wwccPool.sol\":9703:9773  (pool.wPool+pool.lPool+pool.dPool+ pool.basal.div(2)).mul(85).div(100) */\n      tag_396\n        /* \"wwcc-contracts/contracts/wwccPool.sol\":9769:9772  100 */\n      0x64\n        /* \"wwcc-contracts/contracts/wwccPool.sol\":9703:9764  (pool.wPool+pool.lPool+pool.dPool+ pool.basal.div(2)).mul(85) */\n      tag_397\n        /* \"wwcc-contracts/contracts/wwccPool.sol\":9761:9763  85 */\n      0x55\n        /* \"wwcc-contracts/contracts/wwccPool.sol\":9738:9755  pool.basal.div(2) */\n      tag_398\n        /* \"wwcc-contracts/contracts/wwccPool.sol\":9753:9754  2 */\n      0x02\n        /* \"wwcc-contracts/contracts/wwccPool.sol\":9738:9742  pool */\n      dup10\n        /* \"wwcc-contracts/contracts/wwccPool.sol\":9738:9748  pool.basal */\n      0xe0\n      add\n      mload\n        /* \"wwcc-contracts/contracts/wwccPool.sol\":9738:9752  pool.basal.div */\n      tag_24\n      swap1\n        /* \"wwcc-contracts/contracts/wwccPool.sol\":9738:9755  pool.basal.div(2) */\n      swap2\n      swap1\n      0xffffffff\n      and\n      jump\t// in\n    tag_398:\n        /* \"wwcc-contracts/contracts/wwccPool.sol\":9726:9730  pool */\n      dup9\n        /* \"wwcc-contracts/contracts/wwccPool.sol\":9726:9736  pool.dPool */\n      0x80\n      add\n      mload\n        /* \"wwcc-contracts/contracts/wwccPool.sol\":9715:9719  pool */\n      dup10\n        /* \"wwcc-contracts/contracts/wwccPool.sol\":9715:9725  pool.lPool */\n      0xa0\n      add\n      mload\n        /* \"wwcc-contracts/contracts/wwccPool.sol\":9704:9708  pool */\n      dup11\n        /* \"wwcc-contracts/contracts/wwccPool.sol\":9704:9714  pool.wPool */\n      0x60\n      add\n      mload\n        /* \"wwcc-contracts/contracts/wwccPool.sol\":9704:9725  pool.wPool+pool.lPool */\n      tag_399\n      swap2\n      swap1\n      tag_26\n      jump\t// in\n    tag_399:\n        /* \"wwcc-contracts/contracts/wwccPool.sol\":9704:9736  pool.wPool+pool.lPool+pool.dPool */\n      tag_400\n      swap2\n      swap1\n      tag_26\n      jump\t// in\n    tag_400:\n        /* \"wwcc-contracts/contracts/wwccPool.sol\":9704:9755  pool.wPool+pool.lPool+pool.dPool+ pool.basal.div(2) */\n      tag_401\n      swap2\n      swap1\n      tag_26\n      jump\t// in\n    tag_401:\n        /* \"wwcc-contracts/contracts/wwccPool.sol\":9703:9760  (pool.wPool+pool.lPool+pool.dPool+ pool.basal.div(2)).mul */\n      tag_272\n      swap1\n        /* \"wwcc-contracts/contracts/wwccPool.sol\":9703:9764  (pool.wPool+pool.lPool+pool.dPool+ pool.basal.div(2)).mul(85) */\n      swap2\n      swap1\n      0xffffffff\n      and\n      jump\t// in\n    tag_397:\n        /* \"wwcc-contracts/contracts/wwccPool.sol\":9703:9768  (pool.wPool+pool.lPool+pool.dPool+ pool.basal.div(2)).mul(85).div */\n      tag_24\n      swap1\n        /* \"wwcc-contracts/contracts/wwccPool.sol\":9703:9773  (pool.wPool+pool.lPool+pool.dPool+ pool.basal.div(2)).mul(85).div(100) */\n      swap2\n      swap1\n      0xffffffff\n      and\n      jump\t// in\n    tag_396:\n        /* \"wwcc-contracts/contracts/wwccPool.sol\":9685:9773  allRewardAmount = (pool.wPool+pool.lPool+pool.dPool+ pool.basal.div(2)).mul(85).div(100) */\n      swap2\n      pop\n        /* \"wwcc-contracts/contracts/wwccPool.sol\":9801:9823  uint256 pickPoolAmount */\n      0x00\n        /* \"wwcc-contracts/contracts/wwccPool.sol\":9883:9884  0 */\n      dup1\n        /* \"wwcc-contracts/contracts/wwccPool.sol\":9859:9871  separateBets */\n      dup5\n        /* \"wwcc-contracts/contracts/wwccPool.sol\":9872:9873  j */\n      dup4\n        /* \"wwcc-contracts/contracts/wwccPool.sol\":9859:9874  separateBets[j] */\n      dup2\n      mload\n      dup2\n      lt\n      tag_402\n      jumpi\n      tag_403\n      tag_364\n      jump\t// in\n    tag_403:\n    tag_402:\n      0x20\n      mul\n      0x20\n      add\n      add\n      mload\n        /* \"wwcc-contracts/contracts/wwccPool.sol\":9859:9879  separateBets[j].kind */\n      0x20\n      add\n      mload\n        /* \"wwcc-contracts/contracts/wwccPool.sol\":9859:9884  separateBets[j].kind == 0 */\n      eq\n        /* \"wwcc-contracts/contracts/wwccPool.sol\":9855:9990  if (separateBets[j].kind == 0){... */\n      iszero\n      tag_404\n      jumpi\n        /* \"wwcc-contracts/contracts/wwccPool.sol\":9934:9961  pool.lPool.mul(85).div(100) */\n      tag_405\n        /* \"wwcc-contracts/contracts/wwccPool.sol\":9957:9960  100 */\n      0x64\n        /* \"wwcc-contracts/contracts/wwccPool.sol\":9934:9952  pool.lPool.mul(85) */\n      tag_406\n        /* \"wwcc-contracts/contracts/wwccPool.sol\":9949:9951  85 */\n      0x55\n        /* \"wwcc-contracts/contracts/wwccPool.sol\":9934:9938  pool */\n      dup9\n        /* \"wwcc-contracts/contracts/wwccPool.sol\":9934:9944  pool.lPool */\n      0xa0\n      add\n      mload\n        /* \"wwcc-contracts/contracts/wwccPool.sol\":9934:9948  pool.lPool.mul */\n      tag_272\n      swap1\n        /* \"wwcc-contracts/contracts/wwccPool.sol\":9934:9952  pool.lPool.mul(85) */\n      swap2\n      swap1\n      0xffffffff\n      and\n      jump\t// in\n    tag_406:\n        /* \"wwcc-contracts/contracts/wwccPool.sol\":9934:9956  pool.lPool.mul(85).div */\n      tag_24\n      swap1\n        /* \"wwcc-contracts/contracts/wwccPool.sol\":9934:9961  pool.lPool.mul(85).div(100) */\n      swap2\n      swap1\n      0xffffffff\n      and\n      jump\t// in\n    tag_405:\n        /* \"wwcc-contracts/contracts/wwccPool.sol\":9917:9961  pickPoolAmount = pool.lPool.mul(85).div(100) */\n      swap1\n      pop\n        /* \"wwcc-contracts/contracts/wwccPool.sol\":9855:9990  if (separateBets[j].kind == 0){... */\n    tag_404:\n        /* \"wwcc-contracts/contracts/wwccPool.sol\":10045:10046  1 */\n      0x01\n        /* \"wwcc-contracts/contracts/wwccPool.sol\":10021:10033  separateBets */\n      dup5\n        /* \"wwcc-contracts/contracts/wwccPool.sol\":10034:10035  j */\n      dup4\n        /* \"wwcc-contracts/contracts/wwccPool.sol\":10021:10036  separateBets[j] */\n      dup2\n      mload\n      dup2\n      lt\n      tag_407\n      jumpi\n      tag_408\n      tag_364\n      jump\t// in\n    tag_408:\n    tag_407:\n      0x20\n      mul\n      0x20\n      add\n      add\n      mload\n        /* \"wwcc-contracts/contracts/wwccPool.sol\":10021:10041  separateBets[j].kind */\n      0x20\n      add\n      mload\n        /* \"wwcc-contracts/contracts/wwccPool.sol\":10021:10046  separateBets[j].kind == 1 */\n      eq\n        /* \"wwcc-contracts/contracts/wwccPool.sol\":10017:10152  if (separateBets[j].kind == 1){... */\n      iszero\n      tag_409\n      jumpi\n        /* \"wwcc-contracts/contracts/wwccPool.sol\":10096:10123  pool.dPool.mul(85).div(100) */\n      tag_410\n        /* \"wwcc-contracts/contracts/wwccPool.sol\":10119:10122  100 */\n      0x64\n        /* \"wwcc-contracts/contracts/wwccPool.sol\":10096:10114  pool.dPool.mul(85) */\n      tag_411\n        /* \"wwcc-contracts/contracts/wwccPool.sol\":10111:10113  85 */\n      0x55\n        /* \"wwcc-contracts/contracts/wwccPool.sol\":10096:10100  pool */\n      dup9\n        /* \"wwcc-contracts/contracts/wwccPool.sol\":10096:10106  pool.dPool */\n      0x80\n      add\n      mload\n        /* \"wwcc-contracts/contracts/wwccPool.sol\":10096:10110  pool.dPool.mul */\n      tag_272\n      swap1\n        /* \"wwcc-contracts/contracts/wwccPool.sol\":10096:10114  pool.dPool.mul(85) */\n      swap2\n      swap1\n      0xffffffff\n      and\n      jump\t// in\n    tag_411:\n        /* \"wwcc-contracts/contracts/wwccPool.sol\":10096:10118  pool.dPool.mul(85).div */\n      tag_24\n      swap1\n        /* \"wwcc-contracts/contracts/wwccPool.sol\":10096:10123  pool.dPool.mul(85).div(100) */\n      swap2\n      swap1\n      0xffffffff\n      and\n      jump\t// in\n    tag_410:\n        /* \"wwcc-contracts/contracts/wwccPool.sol\":10079:10123  pickPoolAmount = pool.dPool.mul(85).div(100) */\n      swap1\n      pop\n        /* \"wwcc-contracts/contracts/wwccPool.sol\":10017:10152  if (separateBets[j].kind == 1){... */\n    tag_409:\n        /* \"wwcc-contracts/contracts/wwccPool.sol\":10207:10208  3 */\n      0x03\n        /* \"wwcc-contracts/contracts/wwccPool.sol\":10183:10195  separateBets */\n      dup5\n        /* \"wwcc-contracts/contracts/wwccPool.sol\":10196:10197  j */\n      dup4\n        /* \"wwcc-contracts/contracts/wwccPool.sol\":10183:10198  separateBets[j] */\n      dup2\n      mload\n      dup2\n      lt\n      tag_412\n      jumpi\n      tag_413\n      tag_364\n      jump\t// in\n    tag_413:\n    tag_412:\n      0x20\n      mul\n      0x20\n      add\n      add\n      mload\n        /* \"wwcc-contracts/contracts/wwccPool.sol\":10183:10203  separateBets[j].kind */\n      0x20\n      add\n      mload\n        /* \"wwcc-contracts/contracts/wwccPool.sol\":10183:10208  separateBets[j].kind == 3 */\n      eq\n        /* \"wwcc-contracts/contracts/wwccPool.sol\":10179:10314  if (separateBets[j].kind == 3){... */\n      iszero\n      tag_414\n      jumpi\n        /* \"wwcc-contracts/contracts/wwccPool.sol\":10258:10285  pool.wPool.mul(85).div(100) */\n      tag_415\n        /* \"wwcc-contracts/contracts/wwccPool.sol\":10281:10284  100 */\n      0x64\n        /* \"wwcc-contracts/contracts/wwccPool.sol\":10258:10276  pool.wPool.mul(85) */\n      tag_416\n        /* \"wwcc-contracts/contracts/wwccPool.sol\":10273:10275  85 */\n      0x55\n        /* \"wwcc-contracts/contracts/wwccPool.sol\":10258:10262  pool */\n      dup9\n        /* \"wwcc-contracts/contracts/wwccPool.sol\":10258:10268  pool.wPool */\n      0x60\n      add\n      mload\n        /* \"wwcc-contracts/contracts/wwccPool.sol\":10258:10272  pool.wPool.mul */\n      tag_272\n      swap1\n        /* \"wwcc-contracts/contracts/wwccPool.sol\":10258:10276  pool.wPool.mul(85) */\n      swap2\n      swap1\n      0xffffffff\n      and\n      jump\t// in\n    tag_416:\n        /* \"wwcc-contracts/contracts/wwccPool.sol\":10258:10280  pool.wPool.mul(85).div */\n      tag_24\n      swap1\n        /* \"wwcc-contracts/contracts/wwccPool.sol\":10258:10285  pool.wPool.mul(85).div(100) */\n      swap2\n      swap1\n      0xffffffff\n      and\n      jump\t// in\n    tag_415:\n        /* \"wwcc-contracts/contracts/wwccPool.sol\":10241:10285  pickPoolAmount = pool.wPool.mul(85).div(100) */\n      swap1\n      pop\n        /* \"wwcc-contracts/contracts/wwccPool.sol\":10179:10314  if (separateBets[j].kind == 3){... */\n    tag_414:\n        /* \"wwcc-contracts/contracts/wwccPool.sol\":10341:10361  uint256 rewardAmount */\n      0x00\n        /* \"wwcc-contracts/contracts/wwccPool.sol\":10408:10422  pickPoolAmount */\n      dup2\n        /* \"wwcc-contracts/contracts/wwccPool.sol\":10382:10394  separateBets */\n      dup6\n        /* \"wwcc-contracts/contracts/wwccPool.sol\":10395:10396  j */\n      dup5\n        /* \"wwcc-contracts/contracts/wwccPool.sol\":10382:10397  separateBets[j] */\n      dup2\n      mload\n      dup2\n      lt\n      tag_417\n      jumpi\n      tag_418\n      tag_364\n      jump\t// in\n    tag_418:\n    tag_417:\n      0x20\n      mul\n      0x20\n      add\n      add\n      mload\n        /* \"wwcc-contracts/contracts/wwccPool.sol\":10382:10404  separateBets[j].weight */\n      0x00\n      add\n      mload\n        /* \"wwcc-contracts/contracts/wwccPool.sol\":10364:10379  allRewardAmount */\n      dup6\n        /* \"wwcc-contracts/contracts/wwccPool.sol\":10364:10404  allRewardAmount * separateBets[j].weight */\n      tag_419\n      swap2\n      swap1\n      tag_385\n      jump\t// in\n    tag_419:\n        /* \"wwcc-contracts/contracts/wwccPool.sol\":10364:10422  allRewardAmount * separateBets[j].weight /  pickPoolAmount */\n      tag_420\n      swap2\n      swap1\n      tag_109\n      jump\t// in\n    tag_420:\n        /* \"wwcc-contracts/contracts/wwccPool.sol\":10341:10422  uint256 rewardAmount = allRewardAmount * separateBets[j].weight /  pickPoolAmount */\n      swap1\n      pop\n        /* \"wwcc-contracts/contracts/wwccPool.sol\":10794:10806  rewardAmount */\n      dup1\n        /* \"wwcc-contracts/contracts/wwccPool.sol\":10756:10766  voteAmount */\n      0x04\n        /* \"wwcc-contracts/contracts/wwccPool.sol\":10756:10790  voteAmount[separateBets[j].joiner] */\n      0x00\n        /* \"wwcc-contracts/contracts/wwccPool.sol\":10767:10779  separateBets */\n      dup8\n        /* \"wwcc-contracts/contracts/wwccPool.sol\":10780:10781  j */\n      dup7\n        /* \"wwcc-contracts/contracts/wwccPool.sol\":10767:10782  separateBets[j] */\n      dup2\n      mload\n      dup2\n      lt\n      tag_421\n      jumpi\n      tag_422\n      tag_364\n      jump\t// in\n    tag_422:\n    tag_421:\n      0x20\n      mul\n      0x20\n      add\n      add\n      mload\n        /* \"wwcc-contracts/contracts/wwccPool.sol\":10767:10789  separateBets[j].joiner */\n      0x80\n      add\n      mload\n        /* \"wwcc-contracts/contracts/wwccPool.sol\":10756:10790  voteAmount[separateBets[j].joiner] */\n      0xffffffffffffffffffffffffffffffffffffffff\n      and\n      0xffffffffffffffffffffffffffffffffffffffff\n      and\n      dup2\n      mstore\n      0x20\n      add\n      swap1\n      dup2\n      mstore\n      0x20\n      add\n      0x00\n      keccak256\n      0x00\n        /* \"wwcc-contracts/contracts/wwccPool.sol\":10756:10806  voteAmount[separateBets[j].joiner] += rewardAmount */\n      dup3\n      dup3\n      sload\n      tag_423\n      swap2\n      swap1\n      tag_26\n      jump\t// in\n    tag_423:\n      swap3\n      pop\n      pop\n      dup2\n      swap1\n      sstore\n      pop\n        /* \"wwcc-contracts/contracts/wwccPool.sol\":10861:10865  true */\n      0x01\n        /* \"wwcc-contracts/contracts/wwccPool.sol\":10834:10846  separateBets */\n      dup6\n        /* \"wwcc-contracts/contracts/wwccPool.sol\":10847:10848  j */\n      dup5\n        /* \"wwcc-contracts/contracts/wwccPool.sol\":10834:10849  separateBets[j] */\n      dup2\n      mload\n      dup2\n      lt\n      tag_424\n      jumpi\n      tag_425\n      tag_364\n      jump\t// in\n    tag_425:\n    tag_424:\n      0x20\n      mul\n      0x20\n      add\n      add\n      mload\n        /* \"wwcc-contracts/contracts/wwccPool.sol\":10834:10858  separateBets[j].finished */\n      0xc0\n      add\n        /* \"wwcc-contracts/contracts/wwccPool.sol\":10834:10865  separateBets[j].finished = true */\n      swap1\n      iszero\n      iszero\n      swap1\n      dup2\n      iszero\n      iszero\n      dup2\n      mstore\n      pop\n      pop\n        /* \"wwcc-contracts/contracts/wwccPool.sol\":9657:10890  {... */\n      pop\n      pop\n        /* \"wwcc-contracts/contracts/wwccPool.sol\":9625:10890  if(separateBets[j].kind==result){... */\n    tag_395:\n        /* \"wwcc-contracts/contracts/wwccPool.sol\":8631:10912  if(separateBets[j].kind==2){... */\n    tag_392:\n        /* \"wwcc-contracts/contracts/wwccPool.sol\":8571:10932  if(separateBets[j].finished = false){... */\n    tag_365:\n        /* \"wwcc-contracts/contracts/wwccPool.sol\":8529:8533  j ++ */\n      dup1\n      dup1\n      tag_426\n      swap1\n      tag_427\n      jump\t// in\n    tag_426:\n      swap2\n      pop\n      pop\n        /* \"wwcc-contracts/contracts/wwccPool.sol\":8435:10952  for (... */\n      jump(tag_358)\n    tag_359:\n      pop\n        /* \"wwcc-contracts/contracts/wwccPool.sol\":10985:10989  true */\n      0x01\n        /* \"wwcc-contracts/contracts/wwccPool.sol\":10969:10973  pool */\n      dup4\n        /* \"wwcc-contracts/contracts/wwccPool.sol\":10969:10982  pool.finished */\n      0x0140\n      add\n        /* \"wwcc-contracts/contracts/wwccPool.sol\":10969:10989  pool.finished = true */\n      swap1\n      iszero\n      iszero\n      swap1\n      dup2\n      iszero\n      iszero\n      dup2\n      mstore\n      pop\n      pop\n        /* \"wwcc-contracts/contracts/wwccPool.sol\":7907:11124  {... */\n      pop\n      pop\n      pop\n        /* \"wwcc-contracts/contracts/wwccPool.sol\":11139:11143  true */\n      0x01\n        /* \"wwcc-contracts/contracts/wwccPool.sol\":11132:11143  return true */\n      swap1\n      pop\n        /* \"wwcc-contracts/contracts/wwccPool.sol\":7693:11150  function Award(bytes32 poolKey,uint256 homeScore,uint256 visitScore,uint256 result)  external onlyManager  payable returns(bool){... */\n      swap5\n      swap4\n      pop\n      pop\n      pop\n      pop\n      jump\t// out\n        /* \"wwcc-contracts/contracts/wwccPool.sol\":6253:6666  function voteWithdrawal(address joiner,uint256 amount) external onlyManager payable returns (bool){... */\n    tag_89:\n        /* \"wwcc-contracts/contracts/wwccPool.sol\":6346:6350  bool */\n      0x00\n        /* \"wwcc-contracts/contracts/wwccPool.sol\":14197:14202  owner */\n      dup1\n      0x00\n      swap1\n      sload\n      swap1\n      0x0100\n      exp\n      swap1\n      div\n      0xffffffffffffffffffffffffffffffffffffffff\n      and\n        /* \"wwcc-contracts/contracts/wwccPool.sol\":14183:14202  msg.sender == owner */\n      0xffffffffffffffffffffffffffffffffffffffff\n      and\n        /* \"wwcc-contracts/contracts/wwccPool.sol\":14183:14193  msg.sender */\n      caller\n        /* \"wwcc-contracts/contracts/wwccPool.sol\":14183:14202  msg.sender == owner */\n      0xffffffffffffffffffffffffffffffffffffffff\n      and\n      eq\n        /* \"wwcc-contracts/contracts/wwccPool.sol\":14162:14253  require(... */\n      tag_429\n      jumpi\n      mload(0x40)\n      0x08c379a000000000000000000000000000000000000000000000000000000000\n      dup2\n      mstore\n      0x04\n      add\n      tag_430\n      swap1\n      tag_113\n      jump\t// in\n    tag_430:\n      mload(0x40)\n      dup1\n      swap2\n      sub\n      swap1\n      revert\n    tag_429:\n        /* \"wwcc-contracts/contracts/wwccPool.sol\":6386:6392  amount */\n      dup2\n        /* \"wwcc-contracts/contracts/wwccPool.sol\":6364:6374  voteAmount */\n      0x04\n        /* \"wwcc-contracts/contracts/wwccPool.sol\":6364:6382  voteAmount[joiner] */\n      0x00\n        /* \"wwcc-contracts/contracts/wwccPool.sol\":6375:6381  joiner */\n      dup6\n        /* \"wwcc-contracts/contracts/wwccPool.sol\":6364:6382  voteAmount[joiner] */\n      0xffffffffffffffffffffffffffffffffffffffff\n      and\n      0xffffffffffffffffffffffffffffffffffffffff\n      and\n      dup2\n      mstore\n      0x20\n      add\n      swap1\n      dup2\n      mstore\n      0x20\n      add\n      0x00\n      keccak256\n      sload\n        /* \"wwcc-contracts/contracts/wwccPool.sol\":6364:6392  voteAmount[joiner] >= amount */\n      lt\n      iszero\n        /* \"wwcc-contracts/contracts/wwccPool.sol\":6364:6419  voteAmount[joiner] >= amount && voteAmount[joiner] >= 0 */\n      dup1\n      iszero\n      tag_432\n      jumpi\n      pop\n        /* \"wwcc-contracts/contracts/wwccPool.sol\":6418:6419  0 */\n      0x00\n        /* \"wwcc-contracts/contracts/wwccPool.sol\":6396:6406  voteAmount */\n      0x04\n        /* \"wwcc-contracts/contracts/wwccPool.sol\":6396:6414  voteAmount[joiner] */\n      0x00\n        /* \"wwcc-contracts/contracts/wwccPool.sol\":6407:6413  joiner */\n      dup6\n        /* \"wwcc-contracts/contracts/wwccPool.sol\":6396:6414  voteAmount[joiner] */\n      0xffffffffffffffffffffffffffffffffffffffff\n      and\n      0xffffffffffffffffffffffffffffffffffffffff\n      and\n      dup2\n      mstore\n      0x20\n      add\n      swap1\n      dup2\n      mstore\n      0x20\n      add\n      0x00\n      keccak256\n      sload\n        /* \"wwcc-contracts/contracts/wwccPool.sol\":6396:6419  voteAmount[joiner] >= 0 */\n      lt\n      iszero\n        /* \"wwcc-contracts/contracts/wwccPool.sol\":6364:6419  voteAmount[joiner] >= amount && voteAmount[joiner] >= 0 */\n    tag_432:\n        /* \"wwcc-contracts/contracts/wwccPool.sol\":6361:6639  if(voteAmount[joiner] >= amount && voteAmount[joiner] >= 0){... */\n      iszero\n      tag_433\n      jumpi\n        /* \"wwcc-contracts/contracts/wwccPool.sol\":6434:6467  address payable toAddress_address */\n      0x00\n        /* \"wwcc-contracts/contracts/wwccPool.sol\":6478:6484  joiner */\n      dup4\n        /* \"wwcc-contracts/contracts/wwccPool.sol\":6434:6485  address payable toAddress_address = payable(joiner) */\n      swap1\n      pop\n        /* \"wwcc-contracts/contracts/wwccPool.sol\":6499:6516  toAddress_address */\n      dup1\n        /* \"wwcc-contracts/contracts/wwccPool.sol\":6499:6525  toAddress_address.transfer */\n      0xffffffffffffffffffffffffffffffffffffffff\n      and\n        /* \"wwcc-contracts/contracts/wwccPool.sol\":6499:6568  toAddress_address.transfer(voteAmount[joiner].mul(10000000000000000)) */\n      0x08fc\n        /* \"wwcc-contracts/contracts/wwccPool.sol\":6526:6567  voteAmount[joiner].mul(10000000000000000) */\n      tag_434\n        /* \"wwcc-contracts/contracts/wwccPool.sol\":6549:6566  10000000000000000 */\n      0x2386f26fc10000\n        /* \"wwcc-contracts/contracts/wwccPool.sol\":6526:6536  voteAmount */\n      0x04\n        /* \"wwcc-contracts/contracts/wwccPool.sol\":6526:6544  voteAmount[joiner] */\n      0x00\n        /* \"wwcc-contracts/contracts/wwccPool.sol\":6537:6543  joiner */\n      dup10\n        /* \"wwcc-contracts/contracts/wwccPool.sol\":6526:6544  voteAmount[joiner] */\n      0xffffffffffffffffffffffffffffffffffffffff\n      and\n      0xffffffffffffffffffffffffffffffffffffffff\n      and\n      dup2\n      mstore\n      0x20\n      add\n      swap1\n      dup2\n      mstore\n      0x20\n      add\n      0x00\n      keccak256\n      sload\n        /* \"wwcc-contracts/contracts/wwccPool.sol\":6526:6548  voteAmount[joiner].mul */\n      tag_272\n      swap1\n        /* \"wwcc-contracts/contracts/wwccPool.sol\":6526:6567  voteAmount[joiner].mul(10000000000000000) */\n      swap2\n      swap1\n      0xffffffff\n      and\n      jump\t// in\n    tag_434:\n        /* \"wwcc-contracts/contracts/wwccPool.sol\":6499:6568  toAddress_address.transfer(voteAmount[joiner].mul(10000000000000000)) */\n      swap1\n      dup2\n      iszero\n      mul\n      swap1\n      mload(0x40)\n      0x00\n      mload(0x40)\n      dup1\n      dup4\n      sub\n      dup2\n      dup6\n      dup9\n      dup9\n      call\n      swap4\n      pop\n      pop\n      pop\n      pop\n      iszero\n      dup1\n      iszero\n      tag_436\n      jumpi\n      returndatasize\n      0x00\n      dup1\n      returndatacopy\n      revert(0x00, returndatasize)\n    tag_436:\n      pop\n        /* \"wwcc-contracts/contracts/wwccPool.sol\":6420:6579  {... */\n      pop\n        /* \"wwcc-contracts/contracts/wwccPool.sol\":6361:6639  if(voteAmount[joiner] >= amount && voteAmount[joiner] >= 0){... */\n      jump(tag_437)\n    tag_433:\n        /* \"wwcc-contracts/contracts/wwccPool.sol\":6597:6628  revert(\"not enough voteAmount\") */\n      mload(0x40)\n      0x08c379a000000000000000000000000000000000000000000000000000000000\n      dup2\n      mstore\n      0x04\n      add\n      tag_438\n      swap1\n      tag_159\n      jump\t// in\n    tag_438:\n      mload(0x40)\n      dup1\n      swap2\n      sub\n      swap1\n      revert\n        /* \"wwcc-contracts/contracts/wwccPool.sol\":6361:6639  if(voteAmount[joiner] >= amount && voteAmount[joiner] >= 0){... */\n    tag_437:\n        /* \"wwcc-contracts/contracts/wwccPool.sol\":6655:6659  true */\n      0x01\n        /* \"wwcc-contracts/contracts/wwccPool.sol\":6648:6659  return true */\n      swap1\n      pop\n        /* \"wwcc-contracts/contracts/wwccPool.sol\":6253:6666  function voteWithdrawal(address joiner,uint256 amount) external onlyManager payable returns (bool){... */\n      swap3\n      swap2\n      pop\n      pop\n      jump\t// out\n        /* \"wwcc-contracts/contracts/wwccPool.sol\":7517:7622  function CheckVoteTickets() external view returns (uint256){... */\n    tag_93:\n        /* \"wwcc-contracts/contracts/wwccPool.sol\":7568:7575  uint256 */\n      0x00\n        /* \"wwcc-contracts/contracts/wwccPool.sol\":7593:7603  voteAmount */\n      0x04\n        /* \"wwcc-contracts/contracts/wwccPool.sol\":7593:7615  voteAmount[msg.sender] */\n      0x00\n        /* \"wwcc-contracts/contracts/wwccPool.sol\":7604:7614  msg.sender */\n      caller\n        /* \"wwcc-contracts/contracts/wwccPool.sol\":7593:7615  voteAmount[msg.sender] */\n      0xffffffffffffffffffffffffffffffffffffffff\n      and\n      0xffffffffffffffffffffffffffffffffffffffff\n      and\n      dup2\n      mstore\n      0x20\n      add\n      swap1\n      dup2\n      mstore\n      0x20\n      add\n      0x00\n      keccak256\n      sload\n        /* \"wwcc-contracts/contracts/wwccPool.sol\":7586:7615  return voteAmount[msg.sender] */\n      swap1\n      pop\n        /* \"wwcc-contracts/contracts/wwccPool.sol\":7517:7622  function CheckVoteTickets() external view returns (uint256){... */\n      swap1\n      jump\t// out\n        /* \"wwcc-contracts/contracts/wwccPool.sol\":7108:7206  function getAllPoolKeys() external view returns (bytes32[] memory){... */\n    tag_97:\n        /* \"wwcc-contracts/contracts/wwccPool.sol\":7157:7173  bytes32[] memory */\n      0x60\n        /* \"wwcc-contracts/contracts/wwccPool.sol\":7191:7199  poolKeys */\n      0x02\n        /* \"wwcc-contracts/contracts/wwccPool.sol\":7184:7199  return poolKeys */\n      dup1\n      sload\n      dup1\n      0x20\n      mul\n      0x20\n      add\n      mload(0x40)\n      swap1\n      dup2\n      add\n      0x40\n      mstore\n      dup1\n      swap3\n      swap2\n      swap1\n      dup2\n      dup2\n      mstore\n      0x20\n      add\n      dup3\n      dup1\n      sload\n      dup1\n      iszero\n      tag_441\n      jumpi\n      0x20\n      mul\n      dup3\n      add\n      swap2\n      swap1\n      0x00\n      mstore\n      keccak256(0x00, 0x20)\n      swap1\n    tag_442:\n      dup2\n      sload\n      dup2\n      mstore\n      0x20\n      add\n      swap1\n      0x01\n      add\n      swap1\n      dup1\n      dup4\n      gt\n      tag_442\n      jumpi\n    tag_441:\n      pop\n      pop\n      pop\n      pop\n      pop\n      swap1\n      pop\n        /* \"wwcc-contracts/contracts/wwccPool.sol\":7108:7206  function getAllPoolKeys() external view returns (bytes32[] memory){... */\n      swap1\n      jump\t// out\n        /* \"wwcc-contracts/contracts/wwccPool.sol\":11449:12097  function getPool(bytes32 poolKey) external view returns (string memory vs,string memory rounds,PoolViewInfo memory viewInfo){... */\n    tag_103:\n        /* \"wwcc-contracts/contracts/wwccPool.sol\":11506:11522  string memory vs */\n      0x60\n        /* \"wwcc-contracts/contracts/wwccPool.sol\":11523:11543  string memory rounds */\n      dup1\n        /* \"wwcc-contracts/contracts/wwccPool.sol\":11544:11572  PoolViewInfo memory viewInfo */\n      tag_443\n      tag_444\n      jump\t// in\n    tag_443:\n        /* \"wwcc-contracts/contracts/wwccPool.sol\":11587:11604  contains(poolKey) */\n      tag_446\n        /* \"wwcc-contracts/contracts/wwccPool.sol\":11596:11603  poolKey */\n      dup5\n        /* \"wwcc-contracts/contracts/wwccPool.sol\":11587:11595  contains */\n      tag_120\n        /* \"wwcc-contracts/contracts/wwccPool.sol\":11587:11604  contains(poolKey) */\n      jump\t// in\n    tag_446:\n        /* \"wwcc-contracts/contracts/wwccPool.sol\":11583:12091  if(!contains(poolKey)) { ... */\n      tag_447\n      jumpi\n        /* \"wwcc-contracts/contracts/wwccPool.sol\":11621:11640  revert(\"not exist\") */\n      mload(0x40)\n      0x08c379a000000000000000000000000000000000000000000000000000000000\n      dup2\n      mstore\n      0x04\n      add\n      tag_448\n      swap1\n      tag_449\n      jump\t// in\n    tag_448:\n      mload(0x40)\n      dup1\n      swap2\n      sub\n      swap1\n      revert\n        /* \"wwcc-contracts/contracts/wwccPool.sol\":11583:12091  if(!contains(poolKey)) { ... */\n    tag_447:\n        /* \"wwcc-contracts/contracts/wwccPool.sol\":11669:11686  string  memory hv */\n      0x00\n        /* \"wwcc-contracts/contracts/wwccPool.sol\":11689:11728  strConcat(WcPools[poolKey].home,\" vs \") */\n      tag_451\n        /* \"wwcc-contracts/contracts/wwccPool.sol\":11699:11706  WcPools */\n      0x05\n        /* \"wwcc-contracts/contracts/wwccPool.sol\":11699:11715  WcPools[poolKey] */\n      0x00\n        /* \"wwcc-contracts/contracts/wwccPool.sol\":11707:11714  poolKey */\n      dup8\n        /* \"wwcc-contracts/contracts/wwccPool.sol\":11699:11715  WcPools[poolKey] */\n      dup2\n      mstore\n      0x20\n      add\n      swap1\n      dup2\n      mstore\n      0x20\n      add\n      0x00\n      keccak256\n        /* \"wwcc-contracts/contracts/wwccPool.sol\":11699:11720  WcPools[poolKey].home */\n      0x00\n      add\n        /* \"wwcc-contracts/contracts/wwccPool.sol\":11689:11728  strConcat(WcPools[poolKey].home,\" vs \") */\n      dup1\n      sload\n      tag_452\n      swap1\n      tag_126\n      jump\t// in\n    tag_452:\n      dup1\n      0x1f\n      add\n      0x20\n      dup1\n      swap2\n      div\n      mul\n      0x20\n      add\n      mload(0x40)\n      swap1\n      dup2\n      add\n      0x40\n      mstore\n      dup1\n      swap3\n      swap2\n      swap1\n      dup2\n      dup2\n      mstore\n      0x20\n      add\n      dup3\n      dup1\n      sload\n      tag_453\n      swap1\n      tag_126\n      jump\t// in\n    tag_453:\n      dup1\n      iszero\n      tag_454\n      jumpi\n      dup1\n      0x1f\n      lt\n      tag_455\n      jumpi\n      0x0100\n      dup1\n      dup4\n      sload\n      div\n      mul\n      dup4\n      mstore\n      swap2\n      0x20\n      add\n      swap2\n      jump(tag_454)\n    tag_455:\n      dup3\n      add\n      swap2\n      swap1\n      0x00\n      mstore\n      keccak256(0x00, 0x20)\n      swap1\n    tag_456:\n      dup2\n      sload\n      dup2\n      mstore\n      swap1\n      0x01\n      add\n      swap1\n      0x20\n      add\n      dup1\n      dup4\n      gt\n      tag_456\n      jumpi\n      dup3\n      swap1\n      sub\n      0x1f\n      and\n      dup3\n      add\n      swap2\n    tag_454:\n      pop\n      pop\n      pop\n      pop\n      pop\n      mload(0x40)\n      dup1\n      0x40\n      add\n      0x40\n      mstore\n      dup1\n      0x04\n      dup2\n      mstore\n      0x20\n      add\n      0x2076732000000000000000000000000000000000000000000000000000000000\n      dup2\n      mstore\n      pop\n        /* \"wwcc-contracts/contracts/wwccPool.sol\":11689:11698  strConcat */\n      tag_179\n        /* \"wwcc-contracts/contracts/wwccPool.sol\":11689:11728  strConcat(WcPools[poolKey].home,\" vs \") */\n      jump\t// in\n    tag_451:\n        /* \"wwcc-contracts/contracts/wwccPool.sol\":11669:11728  string  memory hv = strConcat(WcPools[poolKey].home,\" vs \") */\n      swap1\n      pop\n        /* \"wwcc-contracts/contracts/wwccPool.sol\":11747:11783  strConcat(hv,WcPools[poolKey].visit) */\n      tag_457\n        /* \"wwcc-contracts/contracts/wwccPool.sol\":11757:11759  hv */\n      dup2\n        /* \"wwcc-contracts/contracts/wwccPool.sol\":11760:11767  WcPools */\n      0x05\n        /* \"wwcc-contracts/contracts/wwccPool.sol\":11760:11776  WcPools[poolKey] */\n      0x00\n        /* \"wwcc-contracts/contracts/wwccPool.sol\":11768:11775  poolKey */\n      dup9\n        /* \"wwcc-contracts/contracts/wwccPool.sol\":11760:11776  WcPools[poolKey] */\n      dup2\n      mstore\n      0x20\n      add\n      swap1\n      dup2\n      mstore\n      0x20\n      add\n      0x00\n      keccak256\n        /* \"wwcc-contracts/contracts/wwccPool.sol\":11760:11782  WcPools[poolKey].visit */\n      0x01\n      add\n        /* \"wwcc-contracts/contracts/wwccPool.sol\":11747:11783  strConcat(hv,WcPools[poolKey].visit) */\n      dup1\n      sload\n      tag_458\n      swap1\n      tag_126\n      jump\t// in\n    tag_458:\n      dup1\n      0x1f\n      add\n      0x20\n      dup1\n      swap2\n      div\n      mul\n      0x20\n      add\n      mload(0x40)\n      swap1\n      dup2\n      add\n      0x40\n      mstore\n      dup1\n      swap3\n      swap2\n      swap1\n      dup2\n      dup2\n      mstore\n      0x20\n      add\n      dup3\n      dup1\n      sload\n      tag_459\n      swap1\n      tag_126\n      jump\t// in\n    tag_459:\n      dup1\n      iszero\n      tag_460\n      jumpi\n      dup1\n      0x1f\n      lt\n      tag_461\n      jumpi\n      0x0100\n      dup1\n      dup4\n      sload\n      div\n      mul\n      dup4\n      mstore\n      swap2\n      0x20\n      add\n      swap2\n      jump(tag_460)\n    tag_461:\n      dup3\n      add\n      swap2\n      swap1\n      0x00\n      mstore\n      keccak256(0x00, 0x20)\n      swap1\n    tag_462:\n      dup2\n      sload\n      dup2\n      mstore\n      swap1\n      0x01\n      add\n      swap1\n      0x20\n      add\n      dup1\n      dup4\n      gt\n      tag_462\n      jumpi\n      dup3\n      swap1\n      sub\n      0x1f\n      and\n      dup3\n      add\n      swap2\n    tag_460:\n      pop\n      pop\n      pop\n      pop\n      pop\n        /* \"wwcc-contracts/contracts/wwccPool.sol\":11747:11756  strConcat */\n      tag_179\n        /* \"wwcc-contracts/contracts/wwccPool.sol\":11747:11783  strConcat(hv,WcPools[poolKey].visit) */\n      jump\t// in\n    tag_457:\n        /* \"wwcc-contracts/contracts/wwccPool.sol\":11742:11783  vs = strConcat(hv,WcPools[poolKey].visit) */\n      swap4\n      pop\n        /* \"wwcc-contracts/contracts/wwccPool.sol\":11797:11819  PoolViewInfo memory vi */\n      0x00\n        /* \"wwcc-contracts/contracts/wwccPool.sol\":11822:12002  PoolViewInfo(WcPools[poolKey].wPool,... */\n      mload(0x40)\n      dup1\n      0xa0\n      add\n      0x40\n      mstore\n      dup1\n        /* \"wwcc-contracts/contracts/wwccPool.sol\":11835:11842  WcPools */\n      0x05\n        /* \"wwcc-contracts/contracts/wwccPool.sol\":11835:11851  WcPools[poolKey] */\n      0x00\n        /* \"wwcc-contracts/contracts/wwccPool.sol\":11843:11850  poolKey */\n      dup10\n        /* \"wwcc-contracts/contracts/wwccPool.sol\":11835:11851  WcPools[poolKey] */\n      dup2\n      mstore\n      0x20\n      add\n      swap1\n      dup2\n      mstore\n      0x20\n      add\n      0x00\n      keccak256\n        /* \"wwcc-contracts/contracts/wwccPool.sol\":11835:11857  WcPools[poolKey].wPool */\n      0x03\n      add\n      sload\n        /* \"wwcc-contracts/contracts/wwccPool.sol\":11822:12002  PoolViewInfo(WcPools[poolKey].wPool,... */\n      dup2\n      mstore\n      0x20\n      add\n        /* \"wwcc-contracts/contracts/wwccPool.sol\":11871:11878  WcPools */\n      0x05\n        /* \"wwcc-contracts/contracts/wwccPool.sol\":11871:11887  WcPools[poolKey] */\n      0x00\n        /* \"wwcc-contracts/contracts/wwccPool.sol\":11879:11886  poolKey */\n      dup10\n        /* \"wwcc-contracts/contracts/wwccPool.sol\":11871:11887  WcPools[poolKey] */\n      dup2\n      mstore\n      0x20\n      add\n      swap1\n      dup2\n      mstore\n      0x20\n      add\n      0x00\n      keccak256\n        /* \"wwcc-contracts/contracts/wwccPool.sol\":11871:11893  WcPools[poolKey].dPool */\n      0x04\n      add\n      sload\n        /* \"wwcc-contracts/contracts/wwccPool.sol\":11822:12002  PoolViewInfo(WcPools[poolKey].wPool,... */\n      dup2\n      mstore\n      0x20\n      add\n        /* \"wwcc-contracts/contracts/wwccPool.sol\":11907:11914  WcPools */\n      0x05\n        /* \"wwcc-contracts/contracts/wwccPool.sol\":11907:11923  WcPools[poolKey] */\n      0x00\n        /* \"wwcc-contracts/contracts/wwccPool.sol\":11915:11922  poolKey */\n      dup10\n        /* \"wwcc-contracts/contracts/wwccPool.sol\":11907:11923  WcPools[poolKey] */\n      dup2\n      mstore\n      0x20\n      add\n      swap1\n      dup2\n      mstore\n      0x20\n      add\n      0x00\n      keccak256\n        /* \"wwcc-contracts/contracts/wwccPool.sol\":11907:11929  WcPools[poolKey].lPool */\n      0x05\n      add\n      sload\n        /* \"wwcc-contracts/contracts/wwccPool.sol\":11822:12002  PoolViewInfo(WcPools[poolKey].wPool,... */\n      dup2\n      mstore\n      0x20\n      add\n        /* \"wwcc-contracts/contracts/wwccPool.sol\":11943:11950  WcPools */\n      0x05\n        /* \"wwcc-contracts/contracts/wwccPool.sol\":11943:11959  WcPools[poolKey] */\n      0x00\n        /* \"wwcc-contracts/contracts/wwccPool.sol\":11951:11958  poolKey */\n      dup10\n        /* \"wwcc-contracts/contracts/wwccPool.sol\":11943:11959  WcPools[poolKey] */\n      dup2\n      mstore\n      0x20\n      add\n      swap1\n      dup2\n      mstore\n      0x20\n      add\n      0x00\n      keccak256\n        /* \"wwcc-contracts/contracts/wwccPool.sol\":11943:11965  WcPools[poolKey].sPool */\n      0x06\n      add\n      sload\n        /* \"wwcc-contracts/contracts/wwccPool.sol\":11822:12002  PoolViewInfo(WcPools[poolKey].wPool,... */\n      dup2\n      mstore\n      0x20\n      add\n        /* \"wwcc-contracts/contracts/wwccPool.sol\":11979:11986  WcPools */\n      0x05\n        /* \"wwcc-contracts/contracts/wwccPool.sol\":11979:11995  WcPools[poolKey] */\n      0x00\n        /* \"wwcc-contracts/contracts/wwccPool.sol\":11987:11994  poolKey */\n      dup10\n        /* \"wwcc-contracts/contracts/wwccPool.sol\":11979:11995  WcPools[poolKey] */\n      dup2\n      mstore\n      0x20\n      add\n      swap1\n      dup2\n      mstore\n      0x20\n      add\n      0x00\n      keccak256\n        /* \"wwcc-contracts/contracts/wwccPool.sol\":11979:12001  WcPools[poolKey].basal */\n      0x07\n      add\n      sload\n        /* \"wwcc-contracts/contracts/wwccPool.sol\":11822:12002  PoolViewInfo(WcPools[poolKey].wPool,... */\n      dup2\n      mstore\n      pop\n        /* \"wwcc-contracts/contracts/wwccPool.sol\":11797:12002  PoolViewInfo memory vi = PoolViewInfo(WcPools[poolKey].wPool,... */\n      swap1\n      pop\n        /* \"wwcc-contracts/contracts/wwccPool.sol\":12024:12026  vs */\n      dup5\n        /* \"wwcc-contracts/contracts/wwccPool.sol\":12040:12047  WcPools */\n      0x05\n        /* \"wwcc-contracts/contracts/wwccPool.sol\":12040:12056  WcPools[poolKey] */\n      0x00\n        /* \"wwcc-contracts/contracts/wwccPool.sol\":12048:12055  poolKey */\n      dup9\n        /* \"wwcc-contracts/contracts/wwccPool.sol\":12040:12056  WcPools[poolKey] */\n      dup2\n      mstore\n      0x20\n      add\n      swap1\n      dup2\n      mstore\n      0x20\n      add\n      0x00\n      keccak256\n        /* \"wwcc-contracts/contracts/wwccPool.sol\":12040:12063  WcPools[poolKey].rounds */\n      0x02\n      add\n        /* \"wwcc-contracts/contracts/wwccPool.sol\":12077:12079  vi */\n      dup3\n        /* \"wwcc-contracts/contracts/wwccPool.sol\":12016:12080  return (vs,... */\n      dup2\n      dup1\n      sload\n      tag_463\n      swap1\n      tag_126\n      jump\t// in\n    tag_463:\n      dup1\n      0x1f\n      add\n      0x20\n      dup1\n      swap2\n      div\n      mul\n      0x20\n      add\n      mload(0x40)\n      swap1\n      dup2\n      add\n      0x40\n      mstore\n      dup1\n      swap3\n      swap2\n      swap1\n      dup2\n      dup2\n      mstore\n      0x20\n      add\n      dup3\n      dup1\n      sload\n      tag_464\n      swap1\n      tag_126\n      jump\t// in\n    tag_464:\n      dup1\n      iszero\n      tag_465\n      jumpi\n      dup1\n      0x1f\n      lt\n      tag_466\n      jumpi\n      0x0100\n      dup1\n      dup4\n      sload\n      div\n      mul\n      dup4\n      mstore\n      swap2\n      0x20\n      add\n      swap2\n      jump(tag_465)\n    tag_466:\n      dup3\n      add\n      swap2\n      swap1\n      0x00\n      mstore\n      keccak256(0x00, 0x20)\n      swap1\n    tag_467:\n      dup2\n      sload\n      dup2\n      mstore\n      swap1\n      0x01\n      add\n      swap1\n      0x20\n      add\n      dup1\n      dup4\n      gt\n      tag_467\n      jumpi\n      dup3\n      swap1\n      sub\n      0x1f\n      and\n      dup3\n      add\n      swap2\n    tag_465:\n      pop\n      pop\n      pop\n      pop\n      pop\n      swap2\n      pop\n      swap5\n      pop\n      swap5\n      pop\n      swap5\n      pop\n      pop\n      pop\n        /* \"wwcc-contracts/contracts/wwccPool.sol\":11449:12097  function getPool(bytes32 poolKey) external view returns (string memory vs,string memory rounds,PoolViewInfo memory viewInfo){... */\n      swap2\n      swap4\n      swap1\n      swap3\n      pop\n      jump\t// out\n        /* \"wwcc-contracts/contracts/wwccPool.sol\":12161:12274  function contains(bytes32 poolKey) internal view returns (bool) {... */\n    tag_120:\n        /* \"wwcc-contracts/contracts/wwccPool.sol\":12219:12223  bool */\n      0x00\n        /* \"wwcc-contracts/contracts/wwccPool.sol\":12246:12253  WcPools */\n      0x05\n        /* \"wwcc-contracts/contracts/wwccPool.sol\":12246:12262  WcPools[poolKey] */\n      0x00\n        /* \"wwcc-contracts/contracts/wwccPool.sol\":12254:12261  poolKey */\n      dup4\n        /* \"wwcc-contracts/contracts/wwccPool.sol\":12246:12262  WcPools[poolKey] */\n      dup2\n      mstore\n      0x20\n      add\n      swap1\n      dup2\n      mstore\n      0x20\n      add\n      0x00\n      keccak256\n        /* \"wwcc-contracts/contracts/wwccPool.sol\":12246:12267  WcPools[poolKey].used */\n      0x08\n      add\n      0x01\n      swap1\n      sload\n      swap1\n      0x0100\n      exp\n      swap1\n      div\n      0xff\n      and\n        /* \"wwcc-contracts/contracts/wwccPool.sol\":12239:12267  return WcPools[poolKey].used */\n      swap1\n      pop\n        /* \"wwcc-contracts/contracts/wwccPool.sol\":12161:12274  function contains(bytes32 poolKey) internal view returns (bool) {... */\n      swap2\n      swap1\n      pop\n      jump\t// out\n        /* \"wwcc-contracts/contracts/wwccPool.sol\":12957:13086  function uint256ToString(uint256 u) internal pure returns(string memory){... */\n    tag_177:\n        /* \"wwcc-contracts/contracts/wwccPool.sol\":13015:13028  string memory */\n      0x60\n        /* \"wwcc-contracts/contracts/wwccPool.sol\":13050:13079  toString(abi.encodePacked(u)) */\n      tag_470\n        /* \"wwcc-contracts/contracts/wwccPool.sol\":13076:13077  u */\n      dup3\n        /* \"wwcc-contracts/contracts/wwccPool.sol\":13059:13078  abi.encodePacked(u) */\n      add(0x20, mload(0x40))\n      tag_471\n      swap2\n      swap1\n      tag_472\n      jump\t// in\n    tag_471:\n      mload(0x40)\n      0x20\n      dup2\n      dup4\n      sub\n      sub\n      dup2\n      mstore\n      swap1\n      0x40\n      mstore\n        /* \"wwcc-contracts/contracts/wwccPool.sol\":13050:13058  toString */\n      tag_473\n        /* \"wwcc-contracts/contracts/wwccPool.sol\":13050:13079  toString(abi.encodePacked(u)) */\n      jump\t// in\n    tag_470:\n        /* \"wwcc-contracts/contracts/wwccPool.sol\":13043:13079  return toString(abi.encodePacked(u)) */\n      swap1\n      pop\n        /* \"wwcc-contracts/contracts/wwccPool.sol\":12957:13086  function uint256ToString(uint256 u) internal pure returns(string memory){... */\n      swap2\n      swap1\n      pop\n      jump\t// out\n        /* \"wwcc-contracts/contracts/wwccPool.sol\":12304:12793  function strConcat(string memory _a,string memory _b) internal pure returns (string memory){... */\n    tag_179:\n        /* \"wwcc-contracts/contracts/wwccPool.sol\":12381:12394  string memory */\n      0x60\n        /* \"wwcc-contracts/contracts/wwccPool.sol\":12409:12425  bytes memory _ba */\n      0x00\n        /* \"wwcc-contracts/contracts/wwccPool.sol\":12434:12436  _a */\n      dup4\n        /* \"wwcc-contracts/contracts/wwccPool.sol\":12409:12437  bytes memory _ba = bytes(_a) */\n      swap1\n      pop\n        /* \"wwcc-contracts/contracts/wwccPool.sol\":12451:12467  bytes memory _bb */\n      0x00\n        /* \"wwcc-contracts/contracts/wwccPool.sol\":12476:12478  _b */\n      dup4\n        /* \"wwcc-contracts/contracts/wwccPool.sol\":12451:12479  bytes memory _bb = bytes(_b) */\n      swap1\n      pop\n        /* \"wwcc-contracts/contracts/wwccPool.sol\":12493:12510  string memory ret */\n      0x00\n        /* \"wwcc-contracts/contracts/wwccPool.sol\":12537:12540  _bb */\n      dup2\n        /* \"wwcc-contracts/contracts/wwccPool.sol\":12537:12547  _bb.length */\n      mload\n        /* \"wwcc-contracts/contracts/wwccPool.sol\":12524:12527  _ba */\n      dup4\n        /* \"wwcc-contracts/contracts/wwccPool.sol\":12524:12534  _ba.length */\n      mload\n        /* \"wwcc-contracts/contracts/wwccPool.sol\":12524:12547  _ba.length + _bb.length */\n      tag_475\n      swap2\n      swap1\n      tag_26\n      jump\t// in\n    tag_475:\n        /* \"wwcc-contracts/contracts/wwccPool.sol\":12513:12548  new string(_ba.length + _bb.length) */\n      0xffffffffffffffff\n      dup2\n      gt\n      iszero\n      tag_476\n      jumpi\n      tag_477\n      tag_478\n      jump\t// in\n    tag_477:\n    tag_476:\n      mload(0x40)\n      swap1\n      dup1\n      dup3\n      mstore\n      dup1\n      0x1f\n      add\n      not(0x1f)\n      and\n      0x20\n      add\n      dup3\n      add\n      0x40\n      mstore\n      dup1\n      iszero\n      tag_479\n      jumpi\n      dup2\n      0x20\n      add\n      0x01\n      dup3\n      mul\n      dup1\n      calldatasize\n      dup4\n      calldatacopy\n      dup1\n      dup3\n      add\n      swap2\n      pop\n      pop\n      swap1\n      pop\n    tag_479:\n      pop\n        /* \"wwcc-contracts/contracts/wwccPool.sol\":12493:12548  string memory ret = new string(_ba.length + _bb.length) */\n      swap1\n      pop\n        /* \"wwcc-contracts/contracts/wwccPool.sol\":12562:12579  bytes memory bret */\n      0x00\n        /* \"wwcc-contracts/contracts/wwccPool.sol\":12588:12591  ret */\n      dup2\n        /* \"wwcc-contracts/contracts/wwccPool.sol\":12562:12592  bytes memory bret = bytes(ret) */\n      swap1\n      pop\n        /* \"wwcc-contracts/contracts/wwccPool.sol\":12606:12612  uint k */\n      0x00\n        /* \"wwcc-contracts/contracts/wwccPool.sol\":12634:12640  uint i */\n      dup1\n        /* \"wwcc-contracts/contracts/wwccPool.sol\":12630:12683  for(uint i = 0;i < _ba.length;i++) bret[k++] = _ba[i] */\n    tag_480:\n        /* \"wwcc-contracts/contracts/wwccPool.sol\":12649:12652  _ba */\n      dup6\n        /* \"wwcc-contracts/contracts/wwccPool.sol\":12649:12659  _ba.length */\n      mload\n        /* \"wwcc-contracts/contracts/wwccPool.sol\":12645:12646  i */\n      dup2\n        /* \"wwcc-contracts/contracts/wwccPool.sol\":12645:12659  i < _ba.length */\n      lt\n        /* \"wwcc-contracts/contracts/wwccPool.sol\":12630:12683  for(uint i = 0;i < _ba.length;i++) bret[k++] = _ba[i] */\n      iszero\n      tag_481\n      jumpi\n        /* \"wwcc-contracts/contracts/wwccPool.sol\":12677:12680  _ba */\n      dup6\n        /* \"wwcc-contracts/contracts/wwccPool.sol\":12681:12682  i */\n      dup2\n        /* \"wwcc-contracts/contracts/wwccPool.sol\":12677:12683  _ba[i] */\n      dup2\n      mload\n      dup2\n      lt\n      tag_483\n      jumpi\n      tag_484\n      tag_364\n      jump\t// in\n    tag_484:\n    tag_483:\n      0x20\n      add\n      add\n      mload\n      0xf8\n      shr\n      0xf8\n      shl\n        /* \"wwcc-contracts/contracts/wwccPool.sol\":12665:12669  bret */\n      dup4\n        /* \"wwcc-contracts/contracts/wwccPool.sol\":12670:12673  k++ */\n      dup4\n      dup1\n      tag_485\n      swap1\n      tag_427\n      jump\t// in\n    tag_485:\n      swap5\n      pop\n        /* \"wwcc-contracts/contracts/wwccPool.sol\":12665:12674  bret[k++] */\n      dup2\n      mload\n      dup2\n      lt\n      tag_486\n      jumpi\n      tag_487\n      tag_364\n      jump\t// in\n    tag_487:\n    tag_486:\n      0x20\n      add\n      add\n        /* \"wwcc-contracts/contracts/wwccPool.sol\":12665:12683  bret[k++] = _ba[i] */\n      swap1\n      not(0xffffffffffffffffffffffffffffffffffffffffffffffffffffffffffffff)\n      and\n      swap1\n      dup2\n      0x00\n      byte\n      swap1\n      mstore8\n      pop\n        /* \"wwcc-contracts/contracts/wwccPool.sol\":12660:12663  i++ */\n      dup1\n      dup1\n      tag_488\n      swap1\n      tag_427\n      jump\t// in\n    tag_488:\n      swap2\n      pop\n      pop\n        /* \"wwcc-contracts/contracts/wwccPool.sol\":12630:12683  for(uint i = 0;i < _ba.length;i++) bret[k++] = _ba[i] */\n      jump(tag_480)\n    tag_481:\n      pop\n        /* \"wwcc-contracts/contracts/wwccPool.sol\":12701:12707  uint i */\n      0x00\n        /* \"wwcc-contracts/contracts/wwccPool.sol\":12697:12750  for(uint i = 0;i < _bb.length;i++) bret[k++] = _bb[i] */\n    tag_489:\n        /* \"wwcc-contracts/contracts/wwccPool.sol\":12716:12719  _bb */\n      dup5\n        /* \"wwcc-contracts/contracts/wwccPool.sol\":12716:12726  _bb.length */\n      mload\n        /* \"wwcc-contracts/contracts/wwccPool.sol\":12712:12713  i */\n      dup2\n        /* \"wwcc-contracts/contracts/wwccPool.sol\":12712:12726  i < _bb.length */\n      lt\n        /* \"wwcc-contracts/contracts/wwccPool.sol\":12697:12750  for(uint i = 0;i < _bb.length;i++) bret[k++] = _bb[i] */\n      iszero\n      tag_490\n      jumpi\n        /* \"wwcc-contracts/contracts/wwccPool.sol\":12744:12747  _bb */\n      dup5\n        /* \"wwcc-contracts/contracts/wwccPool.sol\":12748:12749  i */\n      dup2\n        /* \"wwcc-contracts/contracts/wwccPool.sol\":12744:12750  _bb[i] */\n      dup2\n      mload\n      dup2\n      lt\n      tag_492\n      jumpi\n      tag_493\n      tag_364\n      jump\t// in\n    tag_493:\n    tag_492:\n      0x20\n      add\n      add\n      mload\n      0xf8\n      shr\n      0xf8\n      shl\n        /* \"wwcc-contracts/contracts/wwccPool.sol\":12732:12736  bret */\n      dup4\n        /* \"wwcc-contracts/contracts/wwccPool.sol\":12737:12740  k++ */\n      dup4\n      dup1\n      tag_494\n      swap1\n      tag_427\n      jump\t// in\n    tag_494:\n      swap5\n      pop\n        /* \"wwcc-contracts/contracts/wwccPool.sol\":12732:12741  bret[k++] */\n      dup2\n      mload\n      dup2\n      lt\n      tag_495\n      jumpi\n      tag_496\n      tag_364\n      jump\t// in\n    tag_496:\n    tag_495:\n      0x20\n      add\n      add\n        /* \"wwcc-contracts/contracts/wwccPool.sol\":12732:12750  bret[k++] = _bb[i] */\n      swap1\n      not(0xffffffffffffffffffffffffffffffffffffffffffffffffffffffffffffff)\n      and\n      swap1\n      dup2\n      0x00\n      byte\n      swap1\n      mstore8\n      pop\n        /* \"wwcc-contracts/contracts/wwccPool.sol\":12727:12730  i++ */\n      dup1\n      dup1\n      tag_497\n      swap1\n      tag_427\n      jump\t// in\n    tag_497:\n      swap2\n      pop\n      pop\n        /* \"wwcc-contracts/contracts/wwccPool.sol\":12697:12750  for(uint i = 0;i < _bb.length;i++) bret[k++] = _bb[i] */\n      jump(tag_489)\n    tag_490:\n      pop\n        /* \"wwcc-contracts/contracts/wwccPool.sol\":12778:12781  ret */\n      dup3\n        /* \"wwcc-contracts/contracts/wwccPool.sol\":12764:12782  return string(ret) */\n      swap6\n      pop\n      pop\n      pop\n      pop\n      pop\n      pop\n        /* \"wwcc-contracts/contracts/wwccPool.sol\":12304:12793  function strConcat(string memory _a,string memory _b) internal pure returns (string memory){... */\n      swap3\n      swap2\n      pop\n      pop\n      jump\t// out\n        /* \"wwcc-contracts/contracts/wwccPool.sol\":13091:13220  function bytes32ToString(bytes32 b) internal pure returns(string memory){... */\n    tag_182:\n        /* \"wwcc-contracts/contracts/wwccPool.sol\":13149:13162  string memory */\n      0x60\n        /* \"wwcc-contracts/contracts/wwccPool.sol\":13184:13213  toString(abi.encodePacked(b)) */\n      tag_499\n        /* \"wwcc-contracts/contracts/wwccPool.sol\":13210:13211  b */\n      dup3\n        /* \"wwcc-contracts/contracts/wwccPool.sol\":13193:13212  abi.encodePacked(b) */\n      add(0x20, mload(0x40))\n      tag_500\n      swap2\n      swap1\n      tag_501\n      jump\t// in\n    tag_500:\n      mload(0x40)\n      0x20\n      dup2\n      dup4\n      sub\n      sub\n      dup2\n      mstore\n      swap1\n      0x40\n      mstore\n        /* \"wwcc-contracts/contracts/wwccPool.sol\":13184:13192  toString */\n      tag_473\n        /* \"wwcc-contracts/contracts/wwccPool.sol\":13184:13213  toString(abi.encodePacked(b)) */\n      jump\t// in\n    tag_499:\n        /* \"wwcc-contracts/contracts/wwccPool.sol\":13177:13213  return toString(abi.encodePacked(b)) */\n      swap1\n      pop\n        /* \"wwcc-contracts/contracts/wwccPool.sol\":13091:13220  function bytes32ToString(bytes32 b) internal pure returns(string memory){... */\n      swap2\n      swap1\n      pop\n      jump\t// out\n        /* \"wwcc-contracts/contracts/safemath.sol\":62:266  function mul(uint256 a, uint256 b) internal pure returns (uint256) {... */\n    tag_272:\n        /* \"wwcc-contracts/contracts/safemath.sol\":120:127  uint256 */\n      0x00\n        /* \"wwcc-contracts/contracts/safemath.sol\":148:149  0 */\n      dup1\n        /* \"wwcc-contracts/contracts/safemath.sol\":143:144  a */\n      dup4\n        /* \"wwcc-contracts/contracts/safemath.sol\":143:149  a == 0 */\n      eq\n        /* \"wwcc-contracts/contracts/safemath.sol\":139:184  if (a == 0) {... */\n      iszero\n      tag_503\n      jumpi\n        /* \"wwcc-contracts/contracts/safemath.sol\":172:173  0 */\n      0x00\n        /* \"wwcc-contracts/contracts/safemath.sol\":165:173  return 0 */\n      swap1\n      pop\n      jump(tag_502)\n        /* \"wwcc-contracts/contracts/safemath.sol\":139:184  if (a == 0) {... */\n    tag_503:\n        /* \"wwcc-contracts/contracts/safemath.sol\":195:204  uint256 c */\n      0x00\n        /* \"wwcc-contracts/contracts/safemath.sol\":211:212  b */\n      dup3\n        /* \"wwcc-contracts/contracts/safemath.sol\":207:208  a */\n      dup5\n        /* \"wwcc-contracts/contracts/safemath.sol\":207:212  a * b */\n      tag_504\n      swap2\n      swap1\n      tag_385\n      jump\t// in\n    tag_504:\n        /* \"wwcc-contracts/contracts/safemath.sol\":195:212  uint256 c = a * b */\n      swap1\n      pop\n        /* \"wwcc-contracts/contracts/safemath.sol\":239:240  b */\n      dup3\n        /* \"wwcc-contracts/contracts/safemath.sol\":234:235  a */\n      dup5\n        /* \"wwcc-contracts/contracts/safemath.sol\":230:231  c */\n      dup3\n        /* \"wwcc-contracts/contracts/safemath.sol\":230:235  c / a */\n      tag_505\n      swap2\n      swap1\n      tag_109\n      jump\t// in\n    tag_505:\n        /* \"wwcc-contracts/contracts/safemath.sol\":230:240  c / a == b */\n      eq\n        /* \"wwcc-contracts/contracts/safemath.sol\":222:241  require(c / a == b) */\n      tag_506\n      jumpi\n      0x00\n      dup1\n      revert\n    tag_506:\n        /* \"wwcc-contracts/contracts/safemath.sol\":258:259  c */\n      dup1\n        /* \"wwcc-contracts/contracts/safemath.sol\":251:259  return c */\n      swap2\n      pop\n      pop\n        /* \"wwcc-contracts/contracts/safemath.sol\":62:266  function mul(uint256 a, uint256 b) internal pure returns (uint256) {... */\n    tag_502:\n      swap3\n      swap2\n      pop\n      pop\n      jump\t// out\n        /* \"wwcc-contracts/contracts/wwccPool.sol\":13225:13762  function toString(bytes memory data) internal pure returns(string memory){... */\n    tag_473:\n        /* \"wwcc-contracts/contracts/wwccPool.sol\":13284:13297  string memory */\n      0x60\n        /* \"wwcc-contracts/contracts/wwccPool.sol\":13312:13333  bytes memory alphabet */\n      0x00\n        /* \"wwcc-contracts/contracts/wwccPool.sol\":13312:13404  bytes memory alphabet = \"0xed634dea044fe92f6d8c9612c3844c4951054c5417a8e35c842720c22633a04d\" */\n      mload(0x40)\n      dup1\n      0x80\n      add\n      0x40\n      mstore\n      dup1\n      0x42\n      dup2\n      mstore\n      0x20\n      add\n      data_63d529c162db78e8ed8a28913883ad9c6a8ef7b79a0d650da6d67fd958da5109\n      0x42\n      swap2\n      codecopy\n      swap1\n      pop\n        /* \"wwcc-contracts/contracts/wwccPool.sol\":13418:13434  bytes memory str */\n      0x00\n        /* \"wwcc-contracts/contracts/wwccPool.sol\":13465:13466  2 */\n      0x02\n        /* \"wwcc-contracts/contracts/wwccPool.sol\":13451:13455  data */\n      dup5\n        /* \"wwcc-contracts/contracts/wwccPool.sol\":13451:13462  data.length */\n      mload\n        /* \"wwcc-contracts/contracts/wwccPool.sol\":13451:13466  data.length * 2 */\n      tag_508\n      swap2\n      swap1\n      tag_385\n      jump\t// in\n    tag_508:\n        /* \"wwcc-contracts/contracts/wwccPool.sol\":13447:13448  2 */\n      0x02\n        /* \"wwcc-contracts/contracts/wwccPool.sol\":13447:13466  2 + data.length * 2 */\n      tag_509\n      swap2\n      swap1\n      tag_26\n      jump\t// in\n    tag_509:\n        /* \"wwcc-contracts/contracts/wwccPool.sol\":13437:13467  new bytes(2 + data.length * 2) */\n      0xffffffffffffffff\n      dup2\n      gt\n      iszero\n      tag_510\n      jumpi\n      tag_511\n      tag_478\n      jump\t// in\n    tag_511:\n    tag_510:\n      mload(0x40)\n      swap1\n      dup1\n      dup3\n      mstore\n      dup1\n      0x1f\n      add\n      not(0x1f)\n      and\n      0x20\n      add\n      dup3\n      add\n      0x40\n      mstore\n      dup1\n      iszero\n      tag_512\n      jumpi\n      dup2\n      0x20\n      add\n      0x01\n      dup3\n      mul\n      dup1\n      calldatasize\n      dup4\n      calldatacopy\n      dup1\n      dup3\n      add\n      swap2\n      pop\n      pop\n      swap1\n      pop\n    tag_512:\n      pop\n        /* \"wwcc-contracts/contracts/wwccPool.sol\":13418:13467  bytes memory str = new bytes(2 + data.length * 2) */\n      swap1\n      pop\n        /* \"wwcc-contracts/contracts/wwccPool.sol\":13481:13493  str[0] = \"0\" */\n      0x3000000000000000000000000000000000000000000000000000000000000000\n        /* \"wwcc-contracts/contracts/wwccPool.sol\":13481:13484  str */\n      dup2\n        /* \"wwcc-contracts/contracts/wwccPool.sol\":13485:13486  0 */\n      0x00\n        /* \"wwcc-contracts/contracts/wwccPool.sol\":13481:13487  str[0] */\n      dup2\n      mload\n      dup2\n      lt\n      tag_513\n      jumpi\n      tag_514\n      tag_364\n      jump\t// in\n    tag_514:\n    tag_513:\n      0x20\n      add\n      add\n        /* \"wwcc-contracts/contracts/wwccPool.sol\":13481:13493  str[0] = \"0\" */\n      swap1\n      not(0xffffffffffffffffffffffffffffffffffffffffffffffffffffffffffffff)\n      and\n      swap1\n      dup2\n      0x00\n      byte\n      swap1\n      mstore8\n      pop\n        /* \"wwcc-contracts/contracts/wwccPool.sol\":13507:13519  str[1] = \"x\" */\n      0x7800000000000000000000000000000000000000000000000000000000000000\n        /* \"wwcc-contracts/contracts/wwccPool.sol\":13507:13510  str */\n      dup2\n        /* \"wwcc-contracts/contracts/wwccPool.sol\":13511:13512  1 */\n      0x01\n        /* \"wwcc-contracts/contracts/wwccPool.sol\":13507:13513  str[1] */\n      dup2\n      mload\n      dup2\n      lt\n      tag_515\n      jumpi\n      tag_516\n      tag_364\n      jump\t// in\n    tag_516:\n    tag_515:\n      0x20\n      add\n      add\n        /* \"wwcc-contracts/contracts/wwccPool.sol\":13507:13519  str[1] = \"x\" */\n      swap1\n      not(0xffffffffffffffffffffffffffffffffffffffffffffffffffffffffffffff)\n      and\n      swap1\n      dup2\n      0x00\n      byte\n      swap1\n      mstore8\n      pop\n        /* \"wwcc-contracts/contracts/wwccPool.sol\":13537:13543  uint i */\n      0x00\n        /* \"wwcc-contracts/contracts/wwccPool.sol\":13533:13724  for(uint i =0;i < data.length;i++){... */\n    tag_517:\n        /* \"wwcc-contracts/contracts/wwccPool.sol\":13551:13555  data */\n      dup5\n        /* \"wwcc-contracts/contracts/wwccPool.sol\":13551:13562  data.length */\n      mload\n        /* \"wwcc-contracts/contracts/wwccPool.sol\":13547:13548  i */\n      dup2\n        /* \"wwcc-contracts/contracts/wwccPool.sol\":13547:13562  i < data.length */\n      lt\n        /* \"wwcc-contracts/contracts/wwccPool.sol\":13533:13724  for(uint i =0;i < data.length;i++){... */\n      iszero\n      tag_518\n      jumpi\n        /* \"wwcc-contracts/contracts/wwccPool.sol\":13602:13610  alphabet */\n      dup3\n        /* \"wwcc-contracts/contracts/wwccPool.sol\":13633:13634  4 */\n      0x04\n        /* \"wwcc-contracts/contracts/wwccPool.sol\":13622:13626  data */\n      dup7\n        /* \"wwcc-contracts/contracts/wwccPool.sol\":13627:13628  i */\n      dup4\n        /* \"wwcc-contracts/contracts/wwccPool.sol\":13622:13629  data[i] */\n      dup2\n      mload\n      dup2\n      lt\n      tag_520\n      jumpi\n      tag_521\n      tag_364\n      jump\t// in\n    tag_521:\n    tag_520:\n      0x20\n      add\n      add\n      mload\n      0xf8\n      shr\n      0xf8\n      shl\n        /* \"wwcc-contracts/contracts/wwccPool.sol\":13622:13634  data[i] >> 4 */\n      not(0xffffffffffffffffffffffffffffffffffffffffffffffffffffffffffffff)\n      and\n      swap1\n      shr\n        /* \"wwcc-contracts/contracts/wwccPool.sol\":13616:13635  uint8(data[i] >> 4) */\n      0xf8\n      shr\n        /* \"wwcc-contracts/contracts/wwccPool.sol\":13611:13636  uint(uint8(data[i] >> 4)) */\n      0xff\n      and\n        /* \"wwcc-contracts/contracts/wwccPool.sol\":13602:13637  alphabet[uint(uint8(data[i] >> 4))] */\n      dup2\n      mload\n      dup2\n      lt\n      tag_522\n      jumpi\n      tag_523\n      tag_364\n      jump\t// in\n    tag_523:\n    tag_522:\n      0x20\n      add\n      add\n      mload\n      0xf8\n      shr\n      0xf8\n      shl\n        /* \"wwcc-contracts/contracts/wwccPool.sol\":13585:13588  str */\n      dup3\n        /* \"wwcc-contracts/contracts/wwccPool.sol\":13597:13598  2 */\n      0x02\n        /* \"wwcc-contracts/contracts/wwccPool.sol\":13593:13594  i */\n      dup4\n        /* \"wwcc-contracts/contracts/wwccPool.sol\":13593:13598  i * 2 */\n      tag_524\n      swap2\n      swap1\n      tag_385\n      jump\t// in\n    tag_524:\n        /* \"wwcc-contracts/contracts/wwccPool.sol\":13589:13590  2 */\n      0x02\n        /* \"wwcc-contracts/contracts/wwccPool.sol\":13589:13598  2 + i * 2 */\n      tag_525\n      swap2\n      swap1\n      tag_26\n      jump\t// in\n    tag_525:\n        /* \"wwcc-contracts/contracts/wwccPool.sol\":13585:13599  str[2 + i * 2] */\n      dup2\n      mload\n      dup2\n      lt\n      tag_526\n      jumpi\n      tag_527\n      tag_364\n      jump\t// in\n    tag_527:\n    tag_526:\n      0x20\n      add\n      add\n        /* \"wwcc-contracts/contracts/wwccPool.sol\":13585:13637  str[2 + i * 2] = alphabet[uint(uint8(data[i] >> 4))] */\n      swap1\n      not(0xffffffffffffffffffffffffffffffffffffffffffffffffffffffffffffff)\n      and\n      swap1\n      dup2\n      0x00\n      byte\n      swap1\n      mstore8\n      pop\n        /* \"wwcc-contracts/contracts/wwccPool.sol\":13672:13680  alphabet */\n      dup3\n        /* \"wwcc-contracts/contracts/wwccPool.sol\":13702:13706  0x0f */\n      0x0f\n        /* \"wwcc-contracts/contracts/wwccPool.sol\":13692:13706  data[i] & 0x0f */\n      0xf8\n      shl\n        /* \"wwcc-contracts/contracts/wwccPool.sol\":13692:13696  data */\n      dup7\n        /* \"wwcc-contracts/contracts/wwccPool.sol\":13697:13698  i */\n      dup4\n        /* \"wwcc-contracts/contracts/wwccPool.sol\":13692:13699  data[i] */\n      dup2\n      mload\n      dup2\n      lt\n      tag_528\n      jumpi\n      tag_529\n      tag_364\n      jump\t// in\n    tag_529:\n    tag_528:\n      0x20\n      add\n      add\n      mload\n      0xf8\n      shr\n      0xf8\n      shl\n        /* \"wwcc-contracts/contracts/wwccPool.sol\":13692:13706  data[i] & 0x0f */\n      and\n        /* \"wwcc-contracts/contracts/wwccPool.sol\":13686:13707  uint8(data[i] & 0x0f) */\n      0xf8\n      shr\n        /* \"wwcc-contracts/contracts/wwccPool.sol\":13681:13708  uint(uint8(data[i] & 0x0f)) */\n      0xff\n      and\n        /* \"wwcc-contracts/contracts/wwccPool.sol\":13672:13709  alphabet[uint(uint8(data[i] & 0x0f))] */\n      dup2\n      mload\n      dup2\n      lt\n      tag_530\n      jumpi\n      tag_531\n      tag_364\n      jump\t// in\n    tag_531:\n    tag_530:\n      0x20\n      add\n      add\n      mload\n      0xf8\n      shr\n      0xf8\n      shl\n        /* \"wwcc-contracts/contracts/wwccPool.sol\":13655:13658  str */\n      dup3\n        /* \"wwcc-contracts/contracts/wwccPool.sol\":13667:13668  2 */\n      0x02\n        /* \"wwcc-contracts/contracts/wwccPool.sol\":13663:13664  i */\n      dup4\n        /* \"wwcc-contracts/contracts/wwccPool.sol\":13663:13668  i * 2 */\n      tag_532\n      swap2\n      swap1\n      tag_385\n      jump\t// in\n    tag_532:\n        /* \"wwcc-contracts/contracts/wwccPool.sol\":13659:13660  3 */\n      0x03\n        /* \"wwcc-contracts/contracts/wwccPool.sol\":13659:13668  3 + i * 2 */\n      tag_533\n      swap2\n      swap1\n      tag_26\n      jump\t// in\n    tag_533:\n        /* \"wwcc-contracts/contracts/wwccPool.sol\":13655:13669  str[3 + i * 2] */\n      dup2\n      mload\n      dup2\n      lt\n      tag_534\n      jumpi\n      tag_535\n      tag_364\n      jump\t// in\n    tag_535:\n    tag_534:\n      0x20\n      add\n      add\n        /* \"wwcc-contracts/contracts/wwccPool.sol\":13655:13709  str[3 + i * 2] = alphabet[uint(uint8(data[i] & 0x0f))] */\n      swap1\n      not(0xffffffffffffffffffffffffffffffffffffffffffffffffffffffffffffff)\n      and\n      swap1\n      dup2\n      0x00\n      byte\n      swap1\n      mstore8\n      pop\n        /* \"wwcc-contracts/contracts/wwccPool.sol\":13563:13566  i++ */\n      dup1\n      dup1\n      tag_536\n      swap1\n      tag_427\n      jump\t// in\n    tag_536:\n      swap2\n      pop\n      pop\n        /* \"wwcc-contracts/contracts/wwccPool.sol\":13533:13724  for(uint i =0;i < data.length;i++){... */\n      jump(tag_517)\n    tag_518:\n      pop\n        /* \"wwcc-contracts/contracts/wwccPool.sol\":13751:13754  str */\n      dup1\n        /* \"wwcc-contracts/contracts/wwccPool.sol\":13737:13755  return string(str) */\n      swap3\n      pop\n      pop\n      pop\n        /* \"wwcc-contracts/contracts/wwccPool.sol\":13225:13762  function toString(bytes memory data) internal pure returns(string memory){... */\n      swap2\n      swap1\n      pop\n      jump\t// out\n    tag_236:\n      dup3\n      dup1\n      sload\n      tag_537\n      swap1\n      tag_126\n      jump\t// in\n    tag_537:\n      swap1\n      0x00\n      mstore\n      keccak256(0x00, 0x20)\n      swap1\n      0x1f\n      add\n      0x20\n      swap1\n      div\n      dup2\n      add\n      swap3\n      dup3\n      tag_539\n      jumpi\n      0x00\n      dup6\n      sstore\n      jump(tag_538)\n    tag_539:\n      dup3\n      0x1f\n      lt\n      tag_540\n      jumpi\n      dup1\n      mload\n      not(0xff)\n      and\n      dup4\n      dup1\n      add\n      or\n      dup6\n      sstore\n      jump(tag_538)\n    tag_540:\n      dup3\n      dup1\n      add\n      0x01\n      add\n      dup6\n      sstore\n      dup3\n      iszero\n      tag_538\n      jumpi\n      swap2\n      dup3\n      add\n    tag_541:\n      dup3\n      dup2\n      gt\n      iszero\n      tag_542\n      jumpi\n      dup3\n      mload\n      dup3\n      sstore\n      swap2\n      0x20\n      add\n      swap2\n      swap1\n      0x01\n      add\n      swap1\n      jump(tag_541)\n    tag_542:\n    tag_538:\n      pop\n      swap1\n      pop\n      tag_543\n      swap2\n      swap1\n      tag_544\n      jump\t// in\n    tag_543:\n      pop\n      swap1\n      jump\t// out\n    tag_444:\n      mload(0x40)\n      dup1\n      0xa0\n      add\n      0x40\n      mstore\n      dup1\n      0x00\n      dup2\n      mstore\n      0x20\n      add\n      0x00\n      dup2\n      mstore\n      0x20\n      add\n      0x00\n      dup2\n      mstore\n      0x20\n      add\n      0x00\n      dup2\n      mstore\n      0x20\n      add\n      0x00\n      dup2\n      mstore\n      pop\n      swap1\n      jump\t// out\n    tag_544:\n    tag_545:\n      dup1\n      dup3\n      gt\n      iszero\n      tag_546\n      jumpi\n      0x00\n      dup2\n      0x00\n      swap1\n      sstore\n      pop\n      0x01\n      add\n      jump(tag_545)\n    tag_546:\n      pop\n      swap1\n      jump\t// out\n        /* \"#utility.yul\":7:419   */\n    tag_548:\n        /* \"#utility.yul\":85:90   */\n      0x00\n        /* \"#utility.yul\":110:176   */\n      tag_550\n        /* \"#utility.yul\":126:175   */\n      tag_551\n        /* \"#utility.yul\":168:174   */\n      dup5\n        /* \"#utility.yul\":126:175   */\n      tag_552\n      jump\t// in\n    tag_551:\n        /* \"#utility.yul\":110:176   */\n      tag_553\n      jump\t// in\n    tag_550:\n        /* \"#utility.yul\":101:176   */\n      swap1\n      pop\n        /* \"#utility.yul\":199:205   */\n      dup3\n        /* \"#utility.yul\":192:197   */\n      dup2\n        /* \"#utility.yul\":185:206   */\n      mstore\n        /* \"#utility.yul\":237:241   */\n      0x20\n        /* \"#utility.yul\":230:235   */\n      dup2\n        /* \"#utility.yul\":226:242   */\n      add\n        /* \"#utility.yul\":275:278   */\n      dup5\n        /* \"#utility.yul\":266:272   */\n      dup5\n        /* \"#utility.yul\":261:264   */\n      dup5\n        /* \"#utility.yul\":257:273   */\n      add\n        /* \"#utility.yul\":254:279   */\n      gt\n        /* \"#utility.yul\":251:363   */\n      iszero\n      tag_554\n      jumpi\n        /* \"#utility.yul\":282:361   */\n      tag_555\n      tag_556\n      jump\t// in\n    tag_555:\n        /* \"#utility.yul\":251:363   */\n    tag_554:\n        /* \"#utility.yul\":372:413   */\n      tag_557\n        /* \"#utility.yul\":406:412   */\n      dup5\n        /* \"#utility.yul\":401:404   */\n      dup3\n        /* \"#utility.yul\":396:399   */\n      dup6\n        /* \"#utility.yul\":372:413   */\n      tag_558\n      jump\t// in\n    tag_557:\n        /* \"#utility.yul\":91:419   */\n      pop\n        /* \"#utility.yul\":7:419   */\n      swap4\n      swap3\n      pop\n      pop\n      pop\n      jump\t// out\n        /* \"#utility.yul\":425:564   */\n    tag_559:\n        /* \"#utility.yul\":471:476   */\n      0x00\n        /* \"#utility.yul\":509:515   */\n      dup2\n        /* \"#utility.yul\":496:516   */\n      calldataload\n        /* \"#utility.yul\":487:516   */\n      swap1\n      pop\n        /* \"#utility.yul\":525:558   */\n      tag_561\n        /* \"#utility.yul\":552:557   */\n      dup2\n        /* \"#utility.yul\":525:558   */\n      tag_562\n      jump\t// in\n    tag_561:\n        /* \"#utility.yul\":425:564   */\n      swap3\n      swap2\n      pop\n      pop\n      jump\t// out\n        /* \"#utility.yul\":570:703   */\n    tag_563:\n        /* \"#utility.yul\":613:618   */\n      0x00\n        /* \"#utility.yul\":651:657   */\n      dup2\n        /* \"#utility.yul\":638:658   */\n      calldataload\n        /* \"#utility.yul\":629:658   */\n      swap1\n      pop\n        /* \"#utility.yul\":667:697   */\n      tag_565\n        /* \"#utility.yul\":691:696   */\n      dup2\n        /* \"#utility.yul\":667:697   */\n      tag_566\n      jump\t// in\n    tag_565:\n        /* \"#utility.yul\":570:703   */\n      swap3\n      swap2\n      pop\n      pop\n      jump\t// out\n        /* \"#utility.yul\":709:848   */\n    tag_567:\n        /* \"#utility.yul\":755:760   */\n      0x00\n        /* \"#utility.yul\":793:799   */\n      dup2\n        /* \"#utility.yul\":780:800   */\n      calldataload\n        /* \"#utility.yul\":771:800   */\n      swap1\n      pop\n        /* \"#utility.yul\":809:842   */\n      tag_569\n        /* \"#utility.yul\":836:841   */\n      dup2\n        /* \"#utility.yul\":809:842   */\n      tag_570\n      jump\t// in\n    tag_569:\n        /* \"#utility.yul\":709:848   */\n      swap3\n      swap2\n      pop\n      pop\n      jump\t// out\n        /* \"#utility.yul\":868:1208   */\n    tag_571:\n        /* \"#utility.yul\":924:929   */\n      0x00\n        /* \"#utility.yul\":973:976   */\n      dup3\n        /* \"#utility.yul\":966:970   */\n      0x1f\n        /* \"#utility.yul\":958:964   */\n      dup4\n        /* \"#utility.yul\":954:971   */\n      add\n        /* \"#utility.yul\":950:977   */\n      slt\n        /* \"#utility.yul\":940:1062   */\n      tag_573\n      jumpi\n        /* \"#utility.yul\":981:1060   */\n      tag_574\n      tag_575\n      jump\t// in\n    tag_574:\n        /* \"#utility.yul\":940:1062   */\n    tag_573:\n        /* \"#utility.yul\":1098:1104   */\n      dup2\n        /* \"#utility.yul\":1085:1105   */\n      calldataload\n        /* \"#utility.yul\":1123:1202   */\n      tag_576\n        /* \"#utility.yul\":1198:1201   */\n      dup5\n        /* \"#utility.yul\":1190:1196   */\n      dup3\n        /* \"#utility.yul\":1183:1187   */\n      0x20\n        /* \"#utility.yul\":1175:1181   */\n      dup7\n        /* \"#utility.yul\":1171:1188   */\n      add\n        /* \"#utility.yul\":1123:1202   */\n      tag_548\n      jump\t// in\n    tag_576:\n        /* \"#utility.yul\":1114:1202   */\n      swap2\n      pop\n        /* \"#utility.yul\":930:1208   */\n      pop\n        /* \"#utility.yul\":868:1208   */\n      swap3\n      swap2\n      pop\n      pop\n      jump\t// out\n        /* \"#utility.yul\":1214:1353   */\n    tag_577:\n        /* \"#utility.yul\":1260:1265   */\n      0x00\n        /* \"#utility.yul\":1298:1304   */\n      dup2\n        /* \"#utility.yul\":1285:1305   */\n      calldataload\n        /* \"#utility.yul\":1276:1305   */\n      swap1\n      pop\n        /* \"#utility.yul\":1314:1347   */\n      tag_579\n        /* \"#utility.yul\":1341:1346   */\n      dup2\n        /* \"#utility.yul\":1314:1347   */\n      tag_580\n      jump\t// in\n    tag_579:\n        /* \"#utility.yul\":1214:1353   */\n      swap3\n      swap2\n      pop\n      pop\n      jump\t// out\n        /* \"#utility.yul\":1359:1688   */\n    tag_50:\n        /* \"#utility.yul\":1418:1424   */\n      0x00\n        /* \"#utility.yul\":1467:1469   */\n      0x20\n        /* \"#utility.yul\":1455:1464   */\n      dup3\n        /* \"#utility.yul\":1446:1453   */\n      dup5\n        /* \"#utility.yul\":1442:1465   */\n      sub\n        /* \"#utility.yul\":1438:1470   */\n      slt\n        /* \"#utility.yul\":1435:1554   */\n      iszero\n      tag_582\n      jumpi\n        /* \"#utility.yul\":1473:1552   */\n      tag_583\n      tag_584\n      jump\t// in\n    tag_583:\n        /* \"#utility.yul\":1435:1554   */\n    tag_582:\n        /* \"#utility.yul\":1593:1594   */\n      0x00\n        /* \"#utility.yul\":1618:1671   */\n      tag_585\n        /* \"#utility.yul\":1663:1670   */\n      dup5\n        /* \"#utility.yul\":1654:1660   */\n      dup3\n        /* \"#utility.yul\":1643:1652   */\n      dup6\n        /* \"#utility.yul\":1639:1661   */\n      add\n        /* \"#utility.yul\":1618:1671   */\n      tag_559\n      jump\t// in\n    tag_585:\n        /* \"#utility.yul\":1608:1671   */\n      swap2\n      pop\n        /* \"#utility.yul\":1564:1681   */\n      pop\n        /* \"#utility.yul\":1359:1688   */\n      swap3\n      swap2\n      pop\n      pop\n      jump\t// out\n        /* \"#utility.yul\":1694:2168   */\n    tag_38:\n        /* \"#utility.yul\":1762:1768   */\n      0x00\n        /* \"#utility.yul\":1770:1776   */\n      dup1\n        /* \"#utility.yul\":1819:1821   */\n      0x40\n        /* \"#utility.yul\":1807:1816   */\n      dup4\n        /* \"#utility.yul\":1798:1805   */\n      dup6\n        /* \"#utility.yul\":1794:1817   */\n      sub\n        /* \"#utility.yul\":1790:1822   */\n      slt\n        /* \"#utility.yul\":1787:1906   */\n      iszero\n      tag_587\n      jumpi\n        /* \"#utility.yul\":1825:1904   */\n      tag_588\n      tag_584\n      jump\t// in\n    tag_588:\n        /* \"#utility.yul\":1787:1906   */\n    tag_587:\n        /* \"#utility.yul\":1945:1946   */\n      0x00\n        /* \"#utility.yul\":1970:2023   */\n      tag_589\n        /* \"#utility.yul\":2015:2022   */\n      dup6\n        /* \"#utility.yul\":2006:2012   */\n      dup3\n        /* \"#utility.yul\":1995:2004   */\n      dup7\n        /* \"#utility.yul\":1991:2013   */\n      add\n        /* \"#utility.yul\":1970:2023   */\n      tag_559\n      jump\t// in\n    tag_589:\n        /* \"#utility.yul\":1960:2023   */\n      swap3\n      pop\n        /* \"#utility.yul\":1916:2033   */\n      pop\n        /* \"#utility.yul\":2072:2074   */\n      0x20\n        /* \"#utility.yul\":2098:2151   */\n      tag_590\n        /* \"#utility.yul\":2143:2150   */\n      dup6\n        /* \"#utility.yul\":2134:2140   */\n      dup3\n        /* \"#utility.yul\":2123:2132   */\n      dup7\n        /* \"#utility.yul\":2119:2141   */\n      add\n        /* \"#utility.yul\":2098:2151   */\n      tag_567\n      jump\t// in\n    tag_590:\n        /* \"#utility.yul\":2088:2151   */\n      swap2\n      pop\n        /* \"#utility.yul\":2043:2161   */\n      pop\n        /* \"#utility.yul\":1694:2168   */\n      swap3\n      pop\n      swap3\n      swap1\n      pop\n      jump\t// out\n        /* \"#utility.yul\":2174:2648   */\n    tag_88:\n        /* \"#utility.yul\":2242:2248   */\n      0x00\n        /* \"#utility.yul\":2250:2256   */\n      dup1\n        /* \"#utility.yul\":2299:2301   */\n      0x40\n        /* \"#utility.yul\":2287:2296   */\n      dup4\n        /* \"#utility.yul\":2278:2285   */\n      dup6\n        /* \"#utility.yul\":2274:2297   */\n      sub\n        /* \"#utility.yul\":2270:2302   */\n      slt\n        /* \"#utility.yul\":2267:2386   */\n      iszero\n      tag_592\n      jumpi\n        /* \"#utility.yul\":2305:2384   */\n      tag_593\n      tag_584\n      jump\t// in\n    tag_593:\n        /* \"#utility.yul\":2267:2386   */\n    tag_592:\n        /* \"#utility.yul\":2425:2426   */\n      0x00\n        /* \"#utility.yul\":2450:2503   */\n      tag_594\n        /* \"#utility.yul\":2495:2502   */\n      dup6\n        /* \"#utility.yul\":2486:2492   */\n      dup3\n        /* \"#utility.yul\":2475:2484   */\n      dup7\n        /* \"#utility.yul\":2471:2493   */\n      add\n        /* \"#utility.yul\":2450:2503   */\n      tag_559\n      jump\t// in\n    tag_594:\n        /* \"#utility.yul\":2440:2503   */\n      swap3\n      pop\n        /* \"#utility.yul\":2396:2513   */\n      pop\n        /* \"#utility.yul\":2552:2554   */\n      0x20\n        /* \"#utility.yul\":2578:2631   */\n      tag_595\n        /* \"#utility.yul\":2623:2630   */\n      dup6\n        /* \"#utility.yul\":2614:2620   */\n      dup3\n        /* \"#utility.yul\":2603:2612   */\n      dup7\n        /* \"#utility.yul\":2599:2621   */\n      add\n        /* \"#utility.yul\":2578:2631   */\n      tag_577\n      jump\t// in\n    tag_595:\n        /* \"#utility.yul\":2568:2631   */\n      swap2\n      pop\n        /* \"#utility.yul\":2523:2641   */\n      pop\n        /* \"#utility.yul\":2174:2648   */\n      swap3\n      pop\n      swap3\n      swap1\n      pop\n      jump\t// out\n        /* \"#utility.yul\":2654:3711   */\n    tag_45:\n        /* \"#utility.yul\":2758:2764   */\n      0x00\n        /* \"#utility.yul\":2766:2772   */\n      dup1\n        /* \"#utility.yul\":2774:2780   */\n      0x00\n        /* \"#utility.yul\":2782:2788   */\n      dup1\n        /* \"#utility.yul\":2790:2796   */\n      0x00\n        /* \"#utility.yul\":2798:2804   */\n      dup1\n        /* \"#utility.yul\":2847:2850   */\n      0xc0\n        /* \"#utility.yul\":2835:2844   */\n      dup8\n        /* \"#utility.yul\":2826:2833   */\n      dup10\n        /* \"#utility.yul\":2822:2845   */\n      sub\n        /* \"#utility.yul\":2818:2851   */\n      slt\n        /* \"#utility.yul\":2815:2935   */\n      iszero\n      tag_597\n      jumpi\n        /* \"#utility.yul\":2854:2933   */\n      tag_598\n      tag_584\n      jump\t// in\n    tag_598:\n        /* \"#utility.yul\":2815:2935   */\n    tag_597:\n        /* \"#utility.yul\":2974:2975   */\n      0x00\n        /* \"#utility.yul\":2999:3052   */\n      tag_599\n        /* \"#utility.yul\":3044:3051   */\n      dup10\n        /* \"#utility.yul\":3035:3041   */\n      dup3\n        /* \"#utility.yul\":3024:3033   */\n      dup11\n        /* \"#utility.yul\":3020:3042   */\n      add\n        /* \"#utility.yul\":2999:3052   */\n      tag_559\n      jump\t// in\n    tag_599:\n        /* \"#utility.yul\":2989:3052   */\n      swap7\n      pop\n        /* \"#utility.yul\":2945:3062   */\n      pop\n        /* \"#utility.yul\":3101:3103   */\n      0x20\n        /* \"#utility.yul\":3127:3180   */\n      tag_600\n        /* \"#utility.yul\":3172:3179   */\n      dup10\n        /* \"#utility.yul\":3163:3169   */\n      dup3\n        /* \"#utility.yul\":3152:3161   */\n      dup11\n        /* \"#utility.yul\":3148:3170   */\n      add\n        /* \"#utility.yul\":3127:3180   */\n      tag_577\n      jump\t// in\n    tag_600:\n        /* \"#utility.yul\":3117:3180   */\n      swap6\n      pop\n        /* \"#utility.yul\":3072:3190   */\n      pop\n        /* \"#utility.yul\":3229:3231   */\n      0x40\n        /* \"#utility.yul\":3255:3308   */\n      tag_601\n        /* \"#utility.yul\":3300:3307   */\n      dup10\n        /* \"#utility.yul\":3291:3297   */\n      dup3\n        /* \"#utility.yul\":3280:3289   */\n      dup11\n        /* \"#utility.yul\":3276:3298   */\n      add\n        /* \"#utility.yul\":3255:3308   */\n      tag_567\n      jump\t// in\n    tag_601:\n        /* \"#utility.yul\":3245:3308   */\n      swap5\n      pop\n        /* \"#utility.yul\":3200:3318   */\n      pop\n        /* \"#utility.yul\":3357:3359   */\n      0x60\n        /* \"#utility.yul\":3383:3436   */\n      tag_602\n        /* \"#utility.yul\":3428:3435   */\n      dup10\n        /* \"#utility.yul\":3419:3425   */\n      dup3\n        /* \"#utility.yul\":3408:3417   */\n      dup11\n        /* \"#utility.yul\":3404:3426   */\n      add\n        /* \"#utility.yul\":3383:3436   */\n      tag_577\n      jump\t// in\n    tag_602:\n        /* \"#utility.yul\":3373:3436   */\n      swap4\n      pop\n        /* \"#utility.yul\":3328:3446   */\n      pop\n        /* \"#utility.yul\":3485:3488   */\n      0x80\n        /* \"#utility.yul\":3512:3565   */\n      tag_603\n        /* \"#utility.yul\":3557:3564   */\n      dup10\n        /* \"#utility.yul\":3548:3554   */\n      dup3\n        /* \"#utility.yul\":3537:3546   */\n      dup11\n        /* \"#utility.yul\":3533:3555   */\n      add\n        /* \"#utility.yul\":3512:3565   */\n      tag_577\n      jump\t// in\n    tag_603:\n        /* \"#utility.yul\":3502:3565   */\n      swap3\n      pop\n        /* \"#utility.yul\":3456:3575   */\n      pop\n        /* \"#utility.yul\":3614:3617   */\n      0xa0\n        /* \"#utility.yul\":3641:3694   */\n      tag_604\n        /* \"#utility.yul\":3686:3693   */\n      dup10\n        /* \"#utility.yul\":3677:3683   */\n      dup3\n        /* \"#utility.yul\":3666:3675   */\n      dup11\n        /* \"#utility.yul\":3662:3684   */\n      add\n        /* \"#utility.yul\":3641:3694   */\n      tag_577\n      jump\t// in\n    tag_604:\n        /* \"#utility.yul\":3631:3694   */\n      swap2\n      pop\n        /* \"#utility.yul\":3585:3704   */\n      pop\n        /* \"#utility.yul\":2654:3711   */\n      swap3\n      swap6\n      pop\n      swap3\n      swap6\n      pop\n      swap3\n      swap6\n      jump\t// out\n        /* \"#utility.yul\":3717:4046   */\n    tag_73:\n        /* \"#utility.yul\":3776:3782   */\n      0x00\n        /* \"#utility.yul\":3825:3827   */\n      0x20\n        /* \"#utility.yul\":3813:3822   */\n      dup3\n        /* \"#utility.yul\":3804:3811   */\n      dup5\n        /* \"#utility.yul\":3800:3823   */\n      sub\n        /* \"#utility.yul\":3796:3828   */\n      slt\n        /* \"#utility.yul\":3793:3912   */\n      iszero\n      tag_606\n      jumpi\n        /* \"#utility.yul\":3831:3910   */\n      tag_607\n      tag_584\n      jump\t// in\n    tag_607:\n        /* \"#utility.yul\":3793:3912   */\n    tag_606:\n        /* \"#utility.yul\":3951:3952   */\n      0x00\n        /* \"#utility.yul\":3976:4029   */\n      tag_608\n        /* \"#utility.yul\":4021:4028   */\n      dup5\n        /* \"#utility.yul\":4012:4018   */\n      dup3\n        /* \"#utility.yul\":4001:4010   */\n      dup6\n        /* \"#utility.yul\":3997:4019   */\n      add\n        /* \"#utility.yul\":3976:4029   */\n      tag_567\n      jump\t// in\n    tag_608:\n        /* \"#utility.yul\":3966:4029   */\n      swap2\n      pop\n        /* \"#utility.yul\":3922:4039   */\n      pop\n        /* \"#utility.yul\":3717:4046   */\n      swap3\n      swap2\n      pop\n      pop\n      jump\t// out\n        /* \"#utility.yul\":4052:4526   */\n    tag_56:\n        /* \"#utility.yul\":4120:4126   */\n      0x00\n        /* \"#utility.yul\":4128:4134   */\n      dup1\n        /* \"#utility.yul\":4177:4179   */\n      0x40\n        /* \"#utility.yul\":4165:4174   */\n      dup4\n        /* \"#utility.yul\":4156:4163   */\n      dup6\n        /* \"#utility.yul\":4152:4175   */\n      sub\n        /* \"#utility.yul\":4148:4180   */\n      slt\n        /* \"#utility.yul\":4145:4264   */\n      iszero\n      tag_610\n      jumpi\n        /* \"#utility.yul\":4183:4262   */\n      tag_611\n      tag_584\n      jump\t// in\n    tag_611:\n        /* \"#utility.yul\":4145:4264   */\n    tag_610:\n        /* \"#utility.yul\":4303:4304   */\n      0x00\n        /* \"#utility.yul\":4328:4381   */\n      tag_612\n        /* \"#utility.yul\":4373:4380   */\n      dup6\n        /* \"#utility.yul\":4364:4370   */\n      dup3\n        /* \"#utility.yul\":4353:4362   */\n      dup7\n        /* \"#utility.yul\":4349:4371   */\n      add\n        /* \"#utility.yul\":4328:4381   */\n      tag_567\n      jump\t// in\n    tag_612:\n        /* \"#utility.yul\":4318:4381   */\n      swap3\n      pop\n        /* \"#utility.yul\":4274:4391   */\n      pop\n        /* \"#utility.yul\":4430:4432   */\n      0x20\n        /* \"#utility.yul\":4456:4509   */\n      tag_613\n        /* \"#utility.yul\":4501:4508   */\n      dup6\n        /* \"#utility.yul\":4492:4498   */\n      dup3\n        /* \"#utility.yul\":4481:4490   */\n      dup7\n        /* \"#utility.yul\":4477:4499   */\n      add\n        /* \"#utility.yul\":4456:4509   */\n      tag_577\n      jump\t// in\n    tag_613:\n        /* \"#utility.yul\":4446:4509   */\n      swap2\n      pop\n        /* \"#utility.yul\":4401:4519   */\n      pop\n        /* \"#utility.yul\":4052:4526   */\n      swap3\n      pop\n      swap3\n      swap1\n      pop\n      jump\t// out\n        /* \"#utility.yul\":4532:5297   */\n    tag_83:\n        /* \"#utility.yul\":4618:4624   */\n      0x00\n        /* \"#utility.yul\":4626:4632   */\n      dup1\n        /* \"#utility.yul\":4634:4640   */\n      0x00\n        /* \"#utility.yul\":4642:4648   */\n      dup1\n        /* \"#utility.yul\":4691:4694   */\n      0x80\n        /* \"#utility.yul\":4679:4688   */\n      dup6\n        /* \"#utility.yul\":4670:4677   */\n      dup8\n        /* \"#utility.yul\":4666:4689   */\n      sub\n        /* \"#utility.yul\":4662:4695   */\n      slt\n        /* \"#utility.yul\":4659:4779   */\n      iszero\n      tag_615\n      jumpi\n        /* \"#utility.yul\":4698:4777   */\n      tag_616\n      tag_584\n      jump\t// in\n    tag_616:\n        /* \"#utility.yul\":4659:4779   */\n    tag_615:\n        /* \"#utility.yul\":4818:4819   */\n      0x00\n        /* \"#utility.yul\":4843:4896   */\n      tag_617\n        /* \"#utility.yul\":4888:4895   */\n      dup8\n        /* \"#utility.yul\":4879:4885   */\n      dup3\n        /* \"#utility.yul\":4868:4877   */\n      dup9\n        /* \"#utility.yul\":4864:4886   */\n      add\n        /* \"#utility.yul\":4843:4896   */\n      tag_567\n      jump\t// in\n    tag_617:\n        /* \"#utility.yul\":4833:4896   */\n      swap5\n      pop\n        /* \"#utility.yul\":4789:4906   */\n      pop\n        /* \"#utility.yul\":4945:4947   */\n      0x20\n        /* \"#utility.yul\":4971:5024   */\n      tag_618\n        /* \"#utility.yul\":5016:5023   */\n      dup8\n        /* \"#utility.yul\":5007:5013   */\n      dup3\n        /* \"#utility.yul\":4996:5005   */\n      dup9\n        /* \"#utility.yul\":4992:5014   */\n      add\n        /* \"#utility.yul\":4971:5024   */\n      tag_577\n      jump\t// in\n    tag_618:\n        /* \"#utility.yul\":4961:5024   */\n      swap4\n      pop\n        /* \"#utility.yul\":4916:5034   */\n      pop\n        /* \"#utility.yul\":5073:5075   */\n      0x40\n        /* \"#utility.yul\":5099:5152   */\n      tag_619\n        /* \"#utility.yul\":5144:5151   */\n      dup8\n        /* \"#utility.yul\":5135:5141   */\n      dup3\n        /* \"#utility.yul\":5124:5133   */\n      dup9\n        /* \"#utility.yul\":5120:5142   */\n      add\n        /* \"#utility.yul\":5099:5152   */\n      tag_577\n      jump\t// in\n    tag_619:\n        /* \"#utility.yul\":5089:5152   */\n      swap3\n      pop\n        /* \"#utility.yul\":5044:5162   */\n      pop\n        /* \"#utility.yul\":5201:5203   */\n      0x60\n        /* \"#utility.yul\":5227:5280   */\n      tag_620\n        /* \"#utility.yul\":5272:5279   */\n      dup8\n        /* \"#utility.yul\":5263:5269   */\n      dup3\n        /* \"#utility.yul\":5252:5261   */\n      dup9\n        /* \"#utility.yul\":5248:5270   */\n      add\n        /* \"#utility.yul\":5227:5280   */\n      tag_577\n      jump\t// in\n    tag_620:\n        /* \"#utility.yul\":5217:5280   */\n      swap2\n      pop\n        /* \"#utility.yul\":5172:5290   */\n      pop\n        /* \"#utility.yul\":4532:5297   */\n      swap3\n      swap6\n      swap2\n      swap5\n      pop\n      swap3\n      pop\n      jump\t// out\n        /* \"#utility.yul\":5303:6602   */\n    tag_62:\n        /* \"#utility.yul\":5416:5422   */\n      0x00\n        /* \"#utility.yul\":5424:5430   */\n      dup1\n        /* \"#utility.yul\":5432:5438   */\n      0x00\n        /* \"#utility.yul\":5440:5446   */\n      dup1\n        /* \"#utility.yul\":5489:5492   */\n      0x80\n        /* \"#utility.yul\":5477:5486   */\n      dup6\n        /* \"#utility.yul\":5468:5475   */\n      dup8\n        /* \"#utility.yul\":5464:5487   */\n      sub\n        /* \"#utility.yul\":5460:5493   */\n      slt\n        /* \"#utility.yul\":5457:5577   */\n      iszero\n      tag_622\n      jumpi\n        /* \"#utility.yul\":5496:5575   */\n      tag_623\n      tag_584\n      jump\t// in\n    tag_623:\n        /* \"#utility.yul\":5457:5577   */\n    tag_622:\n        /* \"#utility.yul\":5644:5645   */\n      0x00\n        /* \"#utility.yul\":5633:5642   */\n      dup6\n        /* \"#utility.yul\":5629:5646   */\n      add\n        /* \"#utility.yul\":5616:5647   */\n      calldataload\n        /* \"#utility.yul\":5674:5692   */\n      0xffffffffffffffff\n        /* \"#utility.yul\":5666:5672   */\n      dup2\n        /* \"#utility.yul\":5663:5693   */\n      gt\n        /* \"#utility.yul\":5660:5777   */\n      iszero\n      tag_624\n      jumpi\n        /* \"#utility.yul\":5696:5775   */\n      tag_625\n      tag_626\n      jump\t// in\n    tag_625:\n        /* \"#utility.yul\":5660:5777   */\n    tag_624:\n        /* \"#utility.yul\":5801:5864   */\n      tag_627\n        /* \"#utility.yul\":5856:5863   */\n      dup8\n        /* \"#utility.yul\":5847:5853   */\n      dup3\n        /* \"#utility.yul\":5836:5845   */\n      dup9\n        /* \"#utility.yul\":5832:5854   */\n      add\n        /* \"#utility.yul\":5801:5864   */\n      tag_571\n      jump\t// in\n    tag_627:\n        /* \"#utility.yul\":5791:5864   */\n      swap5\n      pop\n        /* \"#utility.yul\":5587:5874   */\n      pop\n        /* \"#utility.yul\":5941:5943   */\n      0x20\n        /* \"#utility.yul\":5930:5939   */\n      dup6\n        /* \"#utility.yul\":5926:5944   */\n      add\n        /* \"#utility.yul\":5913:5945   */\n      calldataload\n        /* \"#utility.yul\":5972:5990   */\n      0xffffffffffffffff\n        /* \"#utility.yul\":5964:5970   */\n      dup2\n        /* \"#utility.yul\":5961:5991   */\n      gt\n        /* \"#utility.yul\":5958:6075   */\n      iszero\n      tag_628\n      jumpi\n        /* \"#utility.yul\":5994:6073   */\n      tag_629\n      tag_626\n      jump\t// in\n    tag_629:\n        /* \"#utility.yul\":5958:6075   */\n    tag_628:\n        /* \"#utility.yul\":6099:6162   */\n      tag_630\n        /* \"#utility.yul\":6154:6161   */\n      dup8\n        /* \"#utility.yul\":6145:6151   */\n      dup3\n        /* \"#utility.yul\":6134:6143   */\n      dup9\n        /* \"#utility.yul\":6130:6152   */\n      add\n        /* \"#utility.yul\":6099:6162   */\n      tag_571\n      jump\t// in\n    tag_630:\n        /* \"#utility.yul\":6089:6162   */\n      swap4\n      pop\n        /* \"#utility.yul\":5884:6172   */\n      pop\n        /* \"#utility.yul\":6239:6241   */\n      0x40\n        /* \"#utility.yul\":6228:6237   */\n      dup6\n        /* \"#utility.yul\":6224:6242   */\n      add\n        /* \"#utility.yul\":6211:6243   */\n      calldataload\n        /* \"#utility.yul\":6270:6288   */\n      0xffffffffffffffff\n        /* \"#utility.yul\":6262:6268   */\n      dup2\n        /* \"#utility.yul\":6259:6289   */\n      gt\n        /* \"#utility.yul\":6256:6373   */\n      iszero\n      tag_631\n      jumpi\n        /* \"#utility.yul\":6292:6371   */\n      tag_632\n      tag_626\n      jump\t// in\n    tag_632:\n        /* \"#utility.yul\":6256:6373   */\n    tag_631:\n        /* \"#utility.yul\":6397:6460   */\n      tag_633\n        /* \"#utility.yul\":6452:6459   */\n      dup8\n        /* \"#utility.yul\":6443:6449   */\n      dup3\n        /* \"#utility.yul\":6432:6441   */\n      dup9\n        /* \"#utility.yul\":6428:6450   */\n      add\n        /* \"#utility.yul\":6397:6460   */\n      tag_571\n      jump\t// in\n    tag_633:\n        /* \"#utility.yul\":6387:6460   */\n      swap3\n      pop\n        /* \"#utility.yul\":6182:6470   */\n      pop\n        /* \"#utility.yul\":6509:6511   */\n      0x60\n        /* \"#utility.yul\":6535:6585   */\n      tag_634\n        /* \"#utility.yul\":6577:6584   */\n      dup8\n        /* \"#utility.yul\":6568:6574   */\n      dup3\n        /* \"#utility.yul\":6557:6566   */\n      dup9\n        /* \"#utility.yul\":6553:6575   */\n      add\n        /* \"#utility.yul\":6535:6585   */\n      tag_563\n      jump\t// in\n    tag_634:\n        /* \"#utility.yul\":6525:6585   */\n      swap2\n      pop\n        /* \"#utility.yul\":6480:6595   */\n      pop\n        /* \"#utility.yul\":5303:6602   */\n      swap3\n      swap6\n      swap2\n      swap5\n      pop\n      swap3\n      pop\n      jump\t// out\n        /* \"#utility.yul\":6608:6787   */\n    tag_635:\n        /* \"#utility.yul\":6677:6687   */\n      0x00\n        /* \"#utility.yul\":6698:6744   */\n      tag_637\n        /* \"#utility.yul\":6740:6743   */\n      dup4\n        /* \"#utility.yul\":6732:6738   */\n      dup4\n        /* \"#utility.yul\":6698:6744   */\n      tag_638\n      jump\t// in\n    tag_637:\n        /* \"#utility.yul\":6776:6780   */\n      0x20\n        /* \"#utility.yul\":6771:6774   */\n      dup4\n        /* \"#utility.yul\":6767:6781   */\n      add\n        /* \"#utility.yul\":6753:6781   */\n      swap1\n      pop\n        /* \"#utility.yul\":6608:6787   */\n      swap3\n      swap2\n      pop\n      pop\n      jump\t// out\n        /* \"#utility.yul\":6793:6911   */\n    tag_639:\n        /* \"#utility.yul\":6880:6904   */\n      tag_641\n        /* \"#utility.yul\":6898:6903   */\n      dup2\n        /* \"#utility.yul\":6880:6904   */\n      tag_642\n      jump\t// in\n    tag_641:\n        /* \"#utility.yul\":6875:6878   */\n      dup3\n        /* \"#utility.yul\":6868:6905   */\n      mstore\n        /* \"#utility.yul\":6793:6911   */\n      pop\n      pop\n      jump\t// out\n        /* \"#utility.yul\":6947:7679   */\n    tag_643:\n        /* \"#utility.yul\":7066:7069   */\n      0x00\n        /* \"#utility.yul\":7095:7149   */\n      tag_645\n        /* \"#utility.yul\":7143:7148   */\n      dup3\n        /* \"#utility.yul\":7095:7149   */\n      tag_646\n      jump\t// in\n    tag_645:\n        /* \"#utility.yul\":7165:7251   */\n      tag_647\n        /* \"#utility.yul\":7244:7250   */\n      dup2\n        /* \"#utility.yul\":7239:7242   */\n      dup6\n        /* \"#utility.yul\":7165:7251   */\n      tag_648\n      jump\t// in\n    tag_647:\n        /* \"#utility.yul\":7158:7251   */\n      swap4\n      pop\n        /* \"#utility.yul\":7275:7331   */\n      tag_649\n        /* \"#utility.yul\":7325:7330   */\n      dup4\n        /* \"#utility.yul\":7275:7331   */\n      tag_650\n      jump\t// in\n    tag_649:\n        /* \"#utility.yul\":7354:7361   */\n      dup1\n        /* \"#utility.yul\":7385:7386   */\n      0x00\n        /* \"#utility.yul\":7370:7654   */\n    tag_651:\n        /* \"#utility.yul\":7395:7401   */\n      dup4\n        /* \"#utility.yul\":7392:7393   */\n      dup2\n        /* \"#utility.yul\":7389:7402   */\n      lt\n        /* \"#utility.yul\":7370:7654   */\n      iszero\n      tag_653\n      jumpi\n        /* \"#utility.yul\":7471:7477   */\n      dup2\n        /* \"#utility.yul\":7465:7478   */\n      mload\n        /* \"#utility.yul\":7498:7561   */\n      tag_654\n        /* \"#utility.yul\":7557:7560   */\n      dup9\n        /* \"#utility.yul\":7542:7555   */\n      dup3\n        /* \"#utility.yul\":7498:7561   */\n      tag_635\n      jump\t// in\n    tag_654:\n        /* \"#utility.yul\":7491:7561   */\n      swap8\n      pop\n        /* \"#utility.yul\":7584:7644   */\n      tag_655\n        /* \"#utility.yul\":7637:7643   */\n      dup4\n        /* \"#utility.yul\":7584:7644   */\n      tag_656\n      jump\t// in\n    tag_655:\n        /* \"#utility.yul\":7574:7644   */\n      swap3\n      pop\n        /* \"#utility.yul\":7430:7654   */\n      pop\n        /* \"#utility.yul\":7417:7418   */\n      0x01\n        /* \"#utility.yul\":7414:7415   */\n      dup2\n        /* \"#utility.yul\":7410:7419   */\n      add\n        /* \"#utility.yul\":7405:7419   */\n      swap1\n      pop\n        /* \"#utility.yul\":7370:7654   */\n      jump(tag_651)\n    tag_653:\n        /* \"#utility.yul\":7374:7388   */\n      pop\n        /* \"#utility.yul\":7670:7673   */\n      dup6\n        /* \"#utility.yul\":7663:7673   */\n      swap4\n      pop\n        /* \"#utility.yul\":7071:7679   */\n      pop\n      pop\n      pop\n        /* \"#utility.yul\":6947:7679   */\n      swap3\n      swap2\n      pop\n      pop\n      jump\t// out\n        /* \"#utility.yul\":7685:7794   */\n    tag_657:\n        /* \"#utility.yul\":7766:7787   */\n      tag_659\n        /* \"#utility.yul\":7781:7786   */\n      dup2\n        /* \"#utility.yul\":7766:7787   */\n      tag_660\n      jump\t// in\n    tag_659:\n        /* \"#utility.yul\":7761:7764   */\n      dup3\n        /* \"#utility.yul\":7754:7788   */\n      mstore\n        /* \"#utility.yul\":7685:7794   */\n      pop\n      pop\n      jump\t// out\n        /* \"#utility.yul\":7800:7908   */\n    tag_638:\n        /* \"#utility.yul\":7877:7901   */\n      tag_662\n        /* \"#utility.yul\":7895:7900   */\n      dup2\n        /* \"#utility.yul\":7877:7901   */\n      tag_663\n      jump\t// in\n    tag_662:\n        /* \"#utility.yul\":7872:7875   */\n      dup3\n        /* \"#utility.yul\":7865:7902   */\n      mstore\n        /* \"#utility.yul\":7800:7908   */\n      pop\n      pop\n      jump\t// out\n        /* \"#utility.yul\":7914:8032   */\n    tag_664:\n        /* \"#utility.yul\":8001:8025   */\n      tag_666\n        /* \"#utility.yul\":8019:8024   */\n      dup2\n        /* \"#utility.yul\":8001:8025   */\n      tag_663\n      jump\t// in\n    tag_666:\n        /* \"#utility.yul\":7996:7999   */\n      dup3\n        /* \"#utility.yul\":7989:8026   */\n      mstore\n        /* \"#utility.yul\":7914:8032   */\n      pop\n      pop\n      jump\t// out\n        /* \"#utility.yul\":8038:8195   */\n    tag_667:\n        /* \"#utility.yul\":8143:8188   */\n      tag_669\n        /* \"#utility.yul\":8163:8187   */\n      tag_670\n        /* \"#utility.yul\":8181:8186   */\n      dup3\n        /* \"#utility.yul\":8163:8187   */\n      tag_663\n      jump\t// in\n    tag_670:\n        /* \"#utility.yul\":8143:8188   */\n      tag_671\n      jump\t// in\n    tag_669:\n        /* \"#utility.yul\":8138:8141   */\n      dup3\n        /* \"#utility.yul\":8131:8189   */\n      mstore\n        /* \"#utility.yul\":8038:8195   */\n      pop\n      pop\n      jump\t// out\n        /* \"#utility.yul\":8201:8565   */\n    tag_672:\n        /* \"#utility.yul\":8289:8292   */\n      0x00\n        /* \"#utility.yul\":8317:8356   */\n      tag_674\n        /* \"#utility.yul\":8350:8355   */\n      dup3\n        /* \"#utility.yul\":8317:8356   */\n      tag_675\n      jump\t// in\n    tag_674:\n        /* \"#utility.yul\":8372:8443   */\n      tag_676\n        /* \"#utility.yul\":8436:8442   */\n      dup2\n        /* \"#utility.yul\":8431:8434   */\n      dup6\n        /* \"#utility.yul\":8372:8443   */\n      tag_677\n      jump\t// in\n    tag_676:\n        /* \"#utility.yul\":8365:8443   */\n      swap4\n      pop\n        /* \"#utility.yul\":8452:8504   */\n      tag_678\n        /* \"#utility.yul\":8497:8503   */\n      dup2\n        /* \"#utility.yul\":8492:8495   */\n      dup6\n        /* \"#utility.yul\":8485:8489   */\n      0x20\n        /* \"#utility.yul\":8478:8483   */\n      dup7\n        /* \"#utility.yul\":8474:8490   */\n      add\n        /* \"#utility.yul\":8452:8504   */\n      tag_679\n      jump\t// in\n    tag_678:\n        /* \"#utility.yul\":8529:8558   */\n      tag_680\n        /* \"#utility.yul\":8551:8557   */\n      dup2\n        /* \"#utility.yul\":8529:8558   */\n      tag_681\n      jump\t// in\n    tag_680:\n        /* \"#utility.yul\":8524:8527   */\n      dup5\n        /* \"#utility.yul\":8520:8559   */\n      add\n        /* \"#utility.yul\":8513:8559   */\n      swap2\n      pop\n        /* \"#utility.yul\":8293:8565   */\n      pop\n        /* \"#utility.yul\":8201:8565   */\n      swap3\n      swap2\n      pop\n      pop\n      jump\t// out\n        /* \"#utility.yul\":8571:8948   */\n    tag_682:\n        /* \"#utility.yul\":8677:8680   */\n      0x00\n        /* \"#utility.yul\":8705:8744   */\n      tag_684\n        /* \"#utility.yul\":8738:8743   */\n      dup3\n        /* \"#utility.yul\":8705:8744   */\n      tag_675\n      jump\t// in\n    tag_684:\n        /* \"#utility.yul\":8760:8849   */\n      tag_685\n        /* \"#utility.yul\":8842:8848   */\n      dup2\n        /* \"#utility.yul\":8837:8840   */\n      dup6\n        /* \"#utility.yul\":8760:8849   */\n      tag_686\n      jump\t// in\n    tag_685:\n        /* \"#utility.yul\":8753:8849   */\n      swap4\n      pop\n        /* \"#utility.yul\":8858:8910   */\n      tag_687\n        /* \"#utility.yul\":8903:8909   */\n      dup2\n        /* \"#utility.yul\":8898:8901   */\n      dup6\n        /* \"#utility.yul\":8891:8895   */\n      0x20\n        /* \"#utility.yul\":8884:8889   */\n      dup7\n        /* \"#utility.yul\":8880:8896   */\n      add\n        /* \"#utility.yul\":8858:8910   */\n      tag_679\n      jump\t// in\n    tag_687:\n        /* \"#utility.yul\":8935:8941   */\n      dup1\n        /* \"#utility.yul\":8930:8933   */\n      dup5\n        /* \"#utility.yul\":8926:8942   */\n      add\n        /* \"#utility.yul\":8919:8942   */\n      swap2\n      pop\n        /* \"#utility.yul\":8681:8948   */\n      pop\n        /* \"#utility.yul\":8571:8948   */\n      swap3\n      swap2\n      pop\n      pop\n      jump\t// out\n        /* \"#utility.yul\":8954:9320   */\n    tag_688:\n        /* \"#utility.yul\":9096:9099   */\n      0x00\n        /* \"#utility.yul\":9117:9184   */\n      tag_690\n        /* \"#utility.yul\":9181:9183   */\n      0x19\n        /* \"#utility.yul\":9176:9179   */\n      dup4\n        /* \"#utility.yul\":9117:9184   */\n      tag_677\n      jump\t// in\n    tag_690:\n        /* \"#utility.yul\":9110:9184   */\n      swap2\n      pop\n        /* \"#utility.yul\":9193:9286   */\n      tag_691\n        /* \"#utility.yul\":9282:9285   */\n      dup3\n        /* \"#utility.yul\":9193:9286   */\n      tag_692\n      jump\t// in\n    tag_691:\n        /* \"#utility.yul\":9311:9313   */\n      0x20\n        /* \"#utility.yul\":9306:9309   */\n      dup3\n        /* \"#utility.yul\":9302:9314   */\n      add\n        /* \"#utility.yul\":9295:9314   */\n      swap1\n      pop\n        /* \"#utility.yul\":8954:9320   */\n      swap2\n      swap1\n      pop\n      jump\t// out\n        /* \"#utility.yul\":9326:9691   */\n    tag_693:\n        /* \"#utility.yul\":9468:9471   */\n      0x00\n        /* \"#utility.yul\":9489:9555   */\n      tag_695\n        /* \"#utility.yul\":9553:9554   */\n      0x09\n        /* \"#utility.yul\":9548:9551   */\n      dup4\n        /* \"#utility.yul\":9489:9555   */\n      tag_677\n      jump\t// in\n    tag_695:\n        /* \"#utility.yul\":9482:9555   */\n      swap2\n      pop\n        /* \"#utility.yul\":9564:9657   */\n      tag_696\n        /* \"#utility.yul\":9653:9656   */\n      dup3\n        /* \"#utility.yul\":9564:9657   */\n      tag_697\n      jump\t// in\n    tag_696:\n        /* \"#utility.yul\":9682:9684   */\n      0x20\n        /* \"#utility.yul\":9677:9680   */\n      dup3\n        /* \"#utility.yul\":9673:9685   */\n      add\n        /* \"#utility.yul\":9666:9685   */\n      swap1\n      pop\n        /* \"#utility.yul\":9326:9691   */\n      swap2\n      swap1\n      pop\n      jump\t// out\n        /* \"#utility.yul\":9697:10063   */\n    tag_698:\n        /* \"#utility.yul\":9839:9842   */\n      0x00\n        /* \"#utility.yul\":9860:9927   */\n      tag_700\n        /* \"#utility.yul\":9924:9926   */\n      0x0e\n        /* \"#utility.yul\":9919:9922   */\n      dup4\n        /* \"#utility.yul\":9860:9927   */\n      tag_677\n      jump\t// in\n    tag_700:\n        /* \"#utility.yul\":9853:9927   */\n      swap2\n      pop\n        /* \"#utility.yul\":9936:10029   */\n      tag_701\n        /* \"#utility.yul\":10025:10028   */\n      dup3\n        /* \"#utility.yul\":9936:10029   */\n      tag_702\n      jump\t// in\n    tag_701:\n        /* \"#utility.yul\":10054:10056   */\n      0x20\n        /* \"#utility.yul\":10049:10052   */\n      dup3\n        /* \"#utility.yul\":10045:10057   */\n      add\n        /* \"#utility.yul\":10038:10057   */\n      swap1\n      pop\n        /* \"#utility.yul\":9697:10063   */\n      swap2\n      swap1\n      pop\n      jump\t// out\n        /* \"#utility.yul\":10069:10435   */\n    tag_703:\n        /* \"#utility.yul\":10211:10214   */\n      0x00\n        /* \"#utility.yul\":10232:10299   */\n      tag_705\n        /* \"#utility.yul\":10296:10298   */\n      0x17\n        /* \"#utility.yul\":10291:10294   */\n      dup4\n        /* \"#utility.yul\":10232:10299   */\n      tag_677\n      jump\t// in\n    tag_705:\n        /* \"#utility.yul\":10225:10299   */\n      swap2\n      pop\n        /* \"#utility.yul\":10308:10401   */\n      tag_706\n        /* \"#utility.yul\":10397:10400   */\n      dup3\n        /* \"#utility.yul\":10308:10401   */\n      tag_707\n      jump\t// in\n    tag_706:\n        /* \"#utility.yul\":10426:10428   */\n      0x20\n        /* \"#utility.yul\":10421:10424   */\n      dup3\n        /* \"#utility.yul\":10417:10429   */\n      add\n        /* \"#utility.yul\":10410:10429   */\n      swap1\n      pop\n        /* \"#utility.yul\":10069:10435   */\n      swap2\n      swap1\n      pop\n      jump\t// out\n        /* \"#utility.yul\":10441:10807   */\n    tag_708:\n        /* \"#utility.yul\":10583:10586   */\n      0x00\n        /* \"#utility.yul\":10604:10671   */\n      tag_710\n        /* \"#utility.yul\":10668:10670   */\n      0x0a\n        /* \"#utility.yul\":10663:10666   */\n      dup4\n        /* \"#utility.yul\":10604:10671   */\n      tag_677\n      jump\t// in\n    tag_710:\n        /* \"#utility.yul\":10597:10671   */\n      swap2\n      pop\n        /* \"#utility.yul\":10680:10773   */\n      tag_711\n        /* \"#utility.yul\":10769:10772   */\n      dup3\n        /* \"#utility.yul\":10680:10773   */\n      tag_712\n      jump\t// in\n    tag_711:\n        /* \"#utility.yul\":10798:10800   */\n      0x20\n        /* \"#utility.yul\":10793:10796   */\n      dup3\n        /* \"#utility.yul\":10789:10801   */\n      add\n        /* \"#utility.yul\":10782:10801   */\n      swap1\n      pop\n        /* \"#utility.yul\":10441:10807   */\n      swap2\n      swap1\n      pop\n      jump\t// out\n        /* \"#utility.yul\":10813:11179   */\n    tag_713:\n        /* \"#utility.yul\":10955:10958   */\n      0x00\n        /* \"#utility.yul\":10976:11043   */\n      tag_715\n        /* \"#utility.yul\":11040:11042   */\n      0x15\n        /* \"#utility.yul\":11035:11038   */\n      dup4\n        /* \"#utility.yul\":10976:11043   */\n      tag_677\n      jump\t// in\n    tag_715:\n        /* \"#utility.yul\":10969:11043   */\n      swap2\n      pop\n        /* \"#utility.yul\":11052:11145   */\n      tag_716\n        /* \"#utility.yul\":11141:11144   */\n      dup3\n        /* \"#utility.yul\":11052:11145   */\n      tag_717\n      jump\t// in\n    tag_716:\n        /* \"#utility.yul\":11170:11172   */\n      0x20\n        /* \"#utility.yul\":11165:11168   */\n      dup3\n        /* \"#utility.yul\":11161:11173   */\n      add\n        /* \"#utility.yul\":11154:11173   */\n      swap1\n      pop\n        /* \"#utility.yul\":10813:11179   */\n      swap2\n      swap1\n      pop\n      jump\t// out\n        /* \"#utility.yul\":11185:11551   */\n    tag_718:\n        /* \"#utility.yul\":11327:11330   */\n      0x00\n        /* \"#utility.yul\":11348:11415   */\n      tag_720\n        /* \"#utility.yul\":11412:11414   */\n      0x15\n        /* \"#utility.yul\":11407:11410   */\n      dup4\n        /* \"#utility.yul\":11348:11415   */\n      tag_677\n      jump\t// in\n    tag_720:\n        /* \"#utility.yul\":11341:11415   */\n      swap2\n      pop\n        /* \"#utility.yul\":11424:11517   */\n      tag_721\n        /* \"#utility.yul\":11513:11516   */\n      dup3\n        /* \"#utility.yul\":11424:11517   */\n      tag_722\n      jump\t// in\n    tag_721:\n        /* \"#utility.yul\":11542:11544   */\n      0x20\n        /* \"#utility.yul\":11537:11540   */\n      dup3\n        /* \"#utility.yul\":11533:11545   */\n      add\n        /* \"#utility.yul\":11526:11545   */\n      swap1\n      pop\n        /* \"#utility.yul\":11185:11551   */\n      swap2\n      swap1\n      pop\n      jump\t// out\n        /* \"#utility.yul\":11557:11923   */\n    tag_723:\n        /* \"#utility.yul\":11699:11702   */\n      0x00\n        /* \"#utility.yul\":11720:11787   */\n      tag_725\n        /* \"#utility.yul\":11784:11786   */\n      0x10\n        /* \"#utility.yul\":11779:11782   */\n      dup4\n        /* \"#utility.yul\":11720:11787   */\n      tag_677\n      jump\t// in\n    tag_725:\n        /* \"#utility.yul\":11713:11787   */\n      swap2\n      pop\n        /* \"#utility.yul\":11796:11889   */\n      tag_726\n        /* \"#utility.yul\":11885:11888   */\n      dup3\n        /* \"#utility.yul\":11796:11889   */\n      tag_727\n      jump\t// in\n    tag_726:\n        /* \"#utility.yul\":11914:11916   */\n      0x20\n        /* \"#utility.yul\":11909:11912   */\n      dup3\n        /* \"#utility.yul\":11905:11917   */\n      add\n        /* \"#utility.yul\":11898:11917   */\n      swap1\n      pop\n        /* \"#utility.yul\":11557:11923   */\n      swap2\n      swap1\n      pop\n      jump\t// out\n        /* \"#utility.yul\":11929:12295   */\n    tag_728:\n        /* \"#utility.yul\":12071:12074   */\n      0x00\n        /* \"#utility.yul\":12092:12159   */\n      tag_730\n        /* \"#utility.yul\":12156:12158   */\n      0x11\n        /* \"#utility.yul\":12151:12154   */\n      dup4\n        /* \"#utility.yul\":12092:12159   */\n      tag_677\n      jump\t// in\n    tag_730:\n        /* \"#utility.yul\":12085:12159   */\n      swap2\n      pop\n        /* \"#utility.yul\":12168:12261   */\n      tag_731\n        /* \"#utility.yul\":12257:12260   */\n      dup3\n        /* \"#utility.yul\":12168:12261   */\n      tag_732\n      jump\t// in\n    tag_731:\n        /* \"#utility.yul\":12286:12288   */\n      0x20\n        /* \"#utility.yul\":12281:12284   */\n      dup3\n        /* \"#utility.yul\":12277:12289   */\n      add\n        /* \"#utility.yul\":12270:12289   */\n      swap1\n      pop\n        /* \"#utility.yul\":11929:12295   */\n      swap2\n      swap1\n      pop\n      jump\t// out\n        /* \"#utility.yul\":12365:13407   */\n    tag_733:\n        /* \"#utility.yul\":12520:12524   */\n      0xa0\n        /* \"#utility.yul\":12515:12518   */\n      dup3\n        /* \"#utility.yul\":12511:12525   */\n      add\n        /* \"#utility.yul\":12608:12612   */\n      0x00\n        /* \"#utility.yul\":12601:12606   */\n      dup3\n        /* \"#utility.yul\":12597:12613   */\n      add\n        /* \"#utility.yul\":12591:12614   */\n      mload\n        /* \"#utility.yul\":12627:12690   */\n      tag_735\n        /* \"#utility.yul\":12684:12688   */\n      0x00\n        /* \"#utility.yul\":12679:12682   */\n      dup6\n        /* \"#utility.yul\":12675:12689   */\n      add\n        /* \"#utility.yul\":12661:12673   */\n      dup3\n        /* \"#utility.yul\":12627:12690   */\n      tag_736\n      jump\t// in\n    tag_735:\n        /* \"#utility.yul\":12535:12700   */\n      pop\n        /* \"#utility.yul\":12783:12787   */\n      0x20\n        /* \"#utility.yul\":12776:12781   */\n      dup3\n        /* \"#utility.yul\":12772:12788   */\n      add\n        /* \"#utility.yul\":12766:12789   */\n      mload\n        /* \"#utility.yul\":12802:12865   */\n      tag_737\n        /* \"#utility.yul\":12859:12863   */\n      0x20\n        /* \"#utility.yul\":12854:12857   */\n      dup6\n        /* \"#utility.yul\":12850:12864   */\n      add\n        /* \"#utility.yul\":12836:12848   */\n      dup3\n        /* \"#utility.yul\":12802:12865   */\n      tag_736\n      jump\t// in\n    tag_737:\n        /* \"#utility.yul\":12710:12875   */\n      pop\n        /* \"#utility.yul\":12958:12962   */\n      0x40\n        /* \"#utility.yul\":12951:12956   */\n      dup3\n        /* \"#utility.yul\":12947:12963   */\n      add\n        /* \"#utility.yul\":12941:12964   */\n      mload\n        /* \"#utility.yul\":12977:13040   */\n      tag_738\n        /* \"#utility.yul\":13034:13038   */\n      0x40\n        /* \"#utility.yul\":13029:13032   */\n      dup6\n        /* \"#utility.yul\":13025:13039   */\n      add\n        /* \"#utility.yul\":13011:13023   */\n      dup3\n        /* \"#utility.yul\":12977:13040   */\n      tag_736\n      jump\t// in\n    tag_738:\n        /* \"#utility.yul\":12885:13050   */\n      pop\n        /* \"#utility.yul\":13133:13137   */\n      0x60\n        /* \"#utility.yul\":13126:13131   */\n      dup3\n        /* \"#utility.yul\":13122:13138   */\n      add\n        /* \"#utility.yul\":13116:13139   */\n      mload\n        /* \"#utility.yul\":13152:13215   */\n      tag_739\n        /* \"#utility.yul\":13209:13213   */\n      0x60\n        /* \"#utility.yul\":13204:13207   */\n      dup6\n        /* \"#utility.yul\":13200:13214   */\n      add\n        /* \"#utility.yul\":13186:13198   */\n      dup3\n        /* \"#utility.yul\":13152:13215   */\n      tag_736\n      jump\t// in\n    tag_739:\n        /* \"#utility.yul\":13060:13225   */\n      pop\n        /* \"#utility.yul\":13308:13312   */\n      0x80\n        /* \"#utility.yul\":13301:13306   */\n      dup3\n        /* \"#utility.yul\":13297:13313   */\n      add\n        /* \"#utility.yul\":13291:13314   */\n      mload\n        /* \"#utility.yul\":13327:13390   */\n      tag_740\n        /* \"#utility.yul\":13384:13388   */\n      0x80\n        /* \"#utility.yul\":13379:13382   */\n      dup6\n        /* \"#utility.yul\":13375:13389   */\n      add\n        /* \"#utility.yul\":13361:13373   */\n      dup3\n        /* \"#utility.yul\":13327:13390   */\n      tag_736\n      jump\t// in\n    tag_740:\n        /* \"#utility.yul\":13235:13400   */\n      pop\n        /* \"#utility.yul\":12489:13407   */\n      pop\n        /* \"#utility.yul\":12365:13407   */\n      pop\n      pop\n      jump\t// out\n        /* \"#utility.yul\":13413:13521   */\n    tag_736:\n        /* \"#utility.yul\":13490:13514   */\n      tag_742\n        /* \"#utility.yul\":13508:13513   */\n      dup2\n        /* \"#utility.yul\":13490:13514   */\n      tag_743\n      jump\t// in\n    tag_742:\n        /* \"#utility.yul\":13485:13488   */\n      dup3\n        /* \"#utility.yul\":13478:13515   */\n      mstore\n        /* \"#utility.yul\":13413:13521   */\n      pop\n      pop\n      jump\t// out\n        /* \"#utility.yul\":13527:13645   */\n    tag_744:\n        /* \"#utility.yul\":13614:13638   */\n      tag_746\n        /* \"#utility.yul\":13632:13637   */\n      dup2\n        /* \"#utility.yul\":13614:13638   */\n      tag_743\n      jump\t// in\n    tag_746:\n        /* \"#utility.yul\":13609:13612   */\n      dup3\n        /* \"#utility.yul\":13602:13639   */\n      mstore\n        /* \"#utility.yul\":13527:13645   */\n      pop\n      pop\n      jump\t// out\n        /* \"#utility.yul\":13651:13808   */\n    tag_747:\n        /* \"#utility.yul\":13756:13801   */\n      tag_749\n        /* \"#utility.yul\":13776:13800   */\n      tag_750\n        /* \"#utility.yul\":13794:13799   */\n      dup3\n        /* \"#utility.yul\":13776:13800   */\n      tag_743\n      jump\t// in\n    tag_750:\n        /* \"#utility.yul\":13756:13801   */\n      tag_751\n      jump\t// in\n    tag_749:\n        /* \"#utility.yul\":13751:13754   */\n      dup3\n        /* \"#utility.yul\":13744:13802   */\n      mstore\n        /* \"#utility.yul\":13651:13808   */\n      pop\n      pop\n      jump\t// out\n        /* \"#utility.yul\":13814:14070   */\n    tag_501:\n        /* \"#utility.yul\":13926:13929   */\n      0x00\n        /* \"#utility.yul\":13941:14016   */\n      tag_753\n        /* \"#utility.yul\":14012:14015   */\n      dup3\n        /* \"#utility.yul\":14003:14009   */\n      dup5\n        /* \"#utility.yul\":13941:14016   */\n      tag_667\n      jump\t// in\n    tag_753:\n        /* \"#utility.yul\":14041:14043   */\n      0x20\n        /* \"#utility.yul\":14036:14039   */\n      dup3\n        /* \"#utility.yul\":14032:14044   */\n      add\n        /* \"#utility.yul\":14025:14044   */\n      swap2\n      pop\n        /* \"#utility.yul\":14061:14064   */\n      dup2\n        /* \"#utility.yul\":14054:14064   */\n      swap1\n      pop\n        /* \"#utility.yul\":13814:14070   */\n      swap3\n      swap2\n      pop\n      pop\n      jump\t// out\n        /* \"#utility.yul\":14076:14351   */\n    tag_229:\n        /* \"#utility.yul\":14208:14211   */\n      0x00\n        /* \"#utility.yul\":14230:14325   */\n      tag_755\n        /* \"#utility.yul\":14321:14324   */\n      dup3\n        /* \"#utility.yul\":14312:14318   */\n      dup5\n        /* \"#utility.yul\":14230:14325   */\n      tag_682\n      jump\t// in\n    tag_755:\n        /* \"#utility.yul\":14223:14325   */\n      swap2\n      pop\n        /* \"#utility.yul\":14342:14345   */\n      dup2\n        /* \"#utility.yul\":14335:14345   */\n      swap1\n      pop\n        /* \"#utility.yul\":14076:14351   */\n      swap3\n      swap2\n      pop\n      pop\n      jump\t// out\n        /* \"#utility.yul\":14357:14613   */\n    tag_472:\n        /* \"#utility.yul\":14469:14472   */\n      0x00\n        /* \"#utility.yul\":14484:14559   */\n      tag_757\n        /* \"#utility.yul\":14555:14558   */\n      dup3\n        /* \"#utility.yul\":14546:14552   */\n      dup5\n        /* \"#utility.yul\":14484:14559   */\n      tag_747\n      jump\t// in\n    tag_757:\n        /* \"#utility.yul\":14584:14586   */\n      0x20\n        /* \"#utility.yul\":14579:14582   */\n      dup3\n        /* \"#utility.yul\":14575:14587   */\n      add\n        /* \"#utility.yul\":14568:14587   */\n      swap2\n      pop\n        /* \"#utility.yul\":14604:14607   */\n      dup2\n        /* \"#utility.yul\":14597:14607   */\n      swap1\n      pop\n        /* \"#utility.yul\":14357:14613   */\n      swap3\n      swap2\n      pop\n      pop\n      jump\t// out\n        /* \"#utility.yul\":14619:14951   */\n    tag_29:\n        /* \"#utility.yul\":14740:14744   */\n      0x00\n        /* \"#utility.yul\":14778:14780   */\n      0x40\n        /* \"#utility.yul\":14767:14776   */\n      dup3\n        /* \"#utility.yul\":14763:14781   */\n      add\n        /* \"#utility.yul\":14755:14781   */\n      swap1\n      pop\n        /* \"#utility.yul\":14791:14862   */\n      tag_759\n        /* \"#utility.yul\":14859:14860   */\n      0x00\n        /* \"#utility.yul\":14848:14857   */\n      dup4\n        /* \"#utility.yul\":14844:14861   */\n      add\n        /* \"#utility.yul\":14835:14841   */\n      dup6\n        /* \"#utility.yul\":14791:14862   */\n      tag_639\n      jump\t// in\n    tag_759:\n        /* \"#utility.yul\":14872:14944   */\n      tag_760\n        /* \"#utility.yul\":14940:14942   */\n      0x20\n        /* \"#utility.yul\":14929:14938   */\n      dup4\n        /* \"#utility.yul\":14925:14943   */\n      add\n        /* \"#utility.yul\":14916:14922   */\n      dup5\n        /* \"#utility.yul\":14872:14944   */\n      tag_744\n      jump\t// in\n    tag_760:\n        /* \"#utility.yul\":14619:14951   */\n      swap4\n      swap3\n      pop\n      pop\n      pop\n      jump\t// out\n        /* \"#utility.yul\":14957:15330   */\n    tag_99:\n        /* \"#utility.yul\":15100:15104   */\n      0x00\n        /* \"#utility.yul\":15138:15140   */\n      0x20\n        /* \"#utility.yul\":15127:15136   */\n      dup3\n        /* \"#utility.yul\":15123:15141   */\n      add\n        /* \"#utility.yul\":15115:15141   */\n      swap1\n      pop\n        /* \"#utility.yul\":15187:15196   */\n      dup2\n        /* \"#utility.yul\":15181:15185   */\n      dup2\n        /* \"#utility.yul\":15177:15197   */\n      sub\n        /* \"#utility.yul\":15173:15174   */\n      0x00\n        /* \"#utility.yul\":15162:15171   */\n      dup4\n        /* \"#utility.yul\":15158:15175   */\n      add\n        /* \"#utility.yul\":15151:15198   */\n      mstore\n        /* \"#utility.yul\":15215:15323   */\n      tag_762\n        /* \"#utility.yul\":15318:15322   */\n      dup2\n        /* \"#utility.yul\":15309:15315   */\n      dup5\n        /* \"#utility.yul\":15215:15323   */\n      tag_643\n      jump\t// in\n    tag_762:\n        /* \"#utility.yul\":15207:15323   */\n      swap1\n      pop\n        /* \"#utility.yul\":14957:15330   */\n      swap3\n      swap2\n      pop\n      pop\n      jump\t// out\n        /* \"#utility.yul\":15336:15546   */\n    tag_41:\n        /* \"#utility.yul\":15423:15427   */\n      0x00\n        /* \"#utility.yul\":15461:15463   */\n      0x20\n        /* \"#utility.yul\":15450:15459   */\n      dup3\n        /* \"#utility.yul\":15446:15464   */\n      add\n        /* \"#utility.yul\":15438:15464   */\n      swap1\n      pop\n        /* \"#utility.yul\":15474:15539   */\n      tag_764\n        /* \"#utility.yul\":15536:15537   */\n      0x00\n        /* \"#utility.yul\":15525:15534   */\n      dup4\n        /* \"#utility.yul\":15521:15538   */\n      add\n        /* \"#utility.yul\":15512:15518   */\n      dup5\n        /* \"#utility.yul\":15474:15539   */\n      tag_657\n      jump\t// in\n    tag_764:\n        /* \"#utility.yul\":15336:15546   */\n      swap3\n      swap2\n      pop\n      pop\n      jump\t// out\n        /* \"#utility.yul\":15552:15774   */\n    tag_65:\n        /* \"#utility.yul\":15645:15649   */\n      0x00\n        /* \"#utility.yul\":15683:15685   */\n      0x20\n        /* \"#utility.yul\":15672:15681   */\n      dup3\n        /* \"#utility.yul\":15668:15686   */\n      add\n        /* \"#utility.yul\":15660:15686   */\n      swap1\n      pop\n        /* \"#utility.yul\":15696:15767   */\n      tag_766\n        /* \"#utility.yul\":15764:15765   */\n      0x00\n        /* \"#utility.yul\":15753:15762   */\n      dup4\n        /* \"#utility.yul\":15749:15766   */\n      add\n        /* \"#utility.yul\":15740:15746   */\n      dup5\n        /* \"#utility.yul\":15696:15767   */\n      tag_664\n      jump\t// in\n    tag_766:\n        /* \"#utility.yul\":15552:15774   */\n      swap3\n      swap2\n      pop\n      pop\n      jump\t// out\n        /* \"#utility.yul\":15780:16521   */\n    tag_105:\n        /* \"#utility.yul\":16027:16031   */\n      0x00\n        /* \"#utility.yul\":16065:16068   */\n      0xe0\n        /* \"#utility.yul\":16054:16063   */\n      dup3\n        /* \"#utility.yul\":16050:16069   */\n      add\n        /* \"#utility.yul\":16042:16069   */\n      swap1\n      pop\n        /* \"#utility.yul\":16115:16124   */\n      dup2\n        /* \"#utility.yul\":16109:16113   */\n      dup2\n        /* \"#utility.yul\":16105:16125   */\n      sub\n        /* \"#utility.yul\":16101:16102   */\n      0x00\n        /* \"#utility.yul\":16090:16099   */\n      dup4\n        /* \"#utility.yul\":16086:16103   */\n      add\n        /* \"#utility.yul\":16079:16126   */\n      mstore\n        /* \"#utility.yul\":16143:16221   */\n      tag_768\n        /* \"#utility.yul\":16216:16220   */\n      dup2\n        /* \"#utility.yul\":16207:16213   */\n      dup7\n        /* \"#utility.yul\":16143:16221   */\n      tag_672\n      jump\t// in\n    tag_768:\n        /* \"#utility.yul\":16135:16221   */\n      swap1\n      pop\n        /* \"#utility.yul\":16268:16277   */\n      dup2\n        /* \"#utility.yul\":16262:16266   */\n      dup2\n        /* \"#utility.yul\":16258:16278   */\n      sub\n        /* \"#utility.yul\":16253:16255   */\n      0x20\n        /* \"#utility.yul\":16242:16251   */\n      dup4\n        /* \"#utility.yul\":16238:16256   */\n      add\n        /* \"#utility.yul\":16231:16279   */\n      mstore\n        /* \"#utility.yul\":16296:16374   */\n      tag_769\n        /* \"#utility.yul\":16369:16373   */\n      dup2\n        /* \"#utility.yul\":16360:16366   */\n      dup6\n        /* \"#utility.yul\":16296:16374   */\n      tag_672\n      jump\t// in\n    tag_769:\n        /* \"#utility.yul\":16288:16374   */\n      swap1\n      pop\n        /* \"#utility.yul\":16384:16514   */\n      tag_770\n        /* \"#utility.yul\":16510:16512   */\n      0x40\n        /* \"#utility.yul\":16499:16508   */\n      dup4\n        /* \"#utility.yul\":16495:16513   */\n      add\n        /* \"#utility.yul\":16486:16492   */\n      dup5\n        /* \"#utility.yul\":16384:16514   */\n      tag_733\n      jump\t// in\n    tag_770:\n        /* \"#utility.yul\":15780:16521   */\n      swap5\n      swap4\n      pop\n      pop\n      pop\n      pop\n      jump\t// out\n        /* \"#utility.yul\":16527:16946   */\n    tag_113:\n        /* \"#utility.yul\":16693:16697   */\n      0x00\n        /* \"#utility.yul\":16731:16733   */\n      0x20\n        /* \"#utility.yul\":16720:16729   */\n      dup3\n        /* \"#utility.yul\":16716:16734   */\n      add\n        /* \"#utility.yul\":16708:16734   */\n      swap1\n      pop\n        /* \"#utility.yul\":16780:16789   */\n      dup2\n        /* \"#utility.yul\":16774:16778   */\n      dup2\n        /* \"#utility.yul\":16770:16790   */\n      sub\n        /* \"#utility.yul\":16766:16767   */\n      0x00\n        /* \"#utility.yul\":16755:16764   */\n      dup4\n        /* \"#utility.yul\":16751:16768   */\n      add\n        /* \"#utility.yul\":16744:16791   */\n      mstore\n        /* \"#utility.yul\":16808:16939   */\n      tag_772\n        /* \"#utility.yul\":16934:16938   */\n      dup2\n        /* \"#utility.yul\":16808:16939   */\n      tag_688\n      jump\t// in\n    tag_772:\n        /* \"#utility.yul\":16800:16939   */\n      swap1\n      pop\n        /* \"#utility.yul\":16527:16946   */\n      swap2\n      swap1\n      pop\n      jump\t// out\n        /* \"#utility.yul\":16952:17371   */\n    tag_449:\n        /* \"#utility.yul\":17118:17122   */\n      0x00\n        /* \"#utility.yul\":17156:17158   */\n      0x20\n        /* \"#utility.yul\":17145:17154   */\n      dup3\n        /* \"#utility.yul\":17141:17159   */\n      add\n        /* \"#utility.yul\":17133:17159   */\n      swap1\n      pop\n        /* \"#utility.yul\":17205:17214   */\n      dup2\n        /* \"#utility.yul\":17199:17203   */\n      dup2\n        /* \"#utility.yul\":17195:17215   */\n      sub\n        /* \"#utility.yul\":17191:17192   */\n      0x00\n        /* \"#utility.yul\":17180:17189   */\n      dup4\n        /* \"#utility.yul\":17176:17193   */\n      add\n        /* \"#utility.yul\":17169:17216   */\n      mstore\n        /* \"#utility.yul\":17233:17364   */\n      tag_774\n        /* \"#utility.yul\":17359:17363   */\n      dup2\n        /* \"#utility.yul\":17233:17364   */\n      tag_693\n      jump\t// in\n    tag_774:\n        /* \"#utility.yul\":17225:17364   */\n      swap1\n      pop\n        /* \"#utility.yul\":16952:17371   */\n      swap2\n      swap1\n      pop\n      jump\t// out\n        /* \"#utility.yul\":17377:17796   */\n    tag_123:\n        /* \"#utility.yul\":17543:17547   */\n      0x00\n        /* \"#utility.yul\":17581:17583   */\n      0x20\n        /* \"#utility.yul\":17570:17579   */\n      dup3\n        /* \"#utility.yul\":17566:17584   */\n      add\n        /* \"#utility.yul\":17558:17584   */\n      swap1\n      pop\n        /* \"#utility.yul\":17630:17639   */\n      dup2\n        /* \"#utility.yul\":17624:17628   */\n      dup2\n        /* \"#utility.yul\":17620:17640   */\n      sub\n        /* \"#utility.yul\":17616:17617   */\n      0x00\n        /* \"#utility.yul\":17605:17614   */\n      dup4\n        /* \"#utility.yul\":17601:17618   */\n      add\n        /* \"#utility.yul\":17594:17641   */\n      mstore\n        /* \"#utility.yul\":17658:17789   */\n      tag_776\n        /* \"#utility.yul\":17784:17788   */\n      dup2\n        /* \"#utility.yul\":17658:17789   */\n      tag_698\n      jump\t// in\n    tag_776:\n        /* \"#utility.yul\":17650:17789   */\n      swap1\n      pop\n        /* \"#utility.yul\":17377:17796   */\n      swap2\n      swap1\n      pop\n      jump\t// out\n        /* \"#utility.yul\":17802:18221   */\n    tag_216:\n        /* \"#utility.yul\":17968:17972   */\n      0x00\n        /* \"#utility.yul\":18006:18008   */\n      0x20\n        /* \"#utility.yul\":17995:18004   */\n      dup3\n        /* \"#utility.yul\":17991:18009   */\n      add\n        /* \"#utility.yul\":17983:18009   */\n      swap1\n      pop\n        /* \"#utility.yul\":18055:18064   */\n      dup2\n        /* \"#utility.yul\":18049:18053   */\n      dup2\n        /* \"#utility.yul\":18045:18065   */\n      sub\n        /* \"#utility.yul\":18041:18042   */\n      0x00\n        /* \"#utility.yul\":18030:18039   */\n      dup4\n        /* \"#utility.yul\":18026:18043   */\n      add\n        /* \"#utility.yul\":18019:18066   */\n      mstore\n        /* \"#utility.yul\":18083:18214   */\n      tag_778\n        /* \"#utility.yul\":18209:18213   */\n      dup2\n        /* \"#utility.yul\":18083:18214   */\n      tag_703\n      jump\t// in\n    tag_778:\n        /* \"#utility.yul\":18075:18214   */\n      swap1\n      pop\n        /* \"#utility.yul\":17802:18221   */\n      swap2\n      swap1\n      pop\n      jump\t// out\n        /* \"#utility.yul\":18227:18646   */\n    tag_233:\n        /* \"#utility.yul\":18393:18397   */\n      0x00\n        /* \"#utility.yul\":18431:18433   */\n      0x20\n        /* \"#utility.yul\":18420:18429   */\n      dup3\n        /* \"#utility.yul\":18416:18434   */\n      add\n        /* \"#utility.yul\":18408:18434   */\n      swap1\n      pop\n        /* \"#utility.yul\":18480:18489   */\n      dup2\n        /* \"#utility.yul\":18474:18478   */\n      dup2\n        /* \"#utility.yul\":18470:18490   */\n      sub\n        /* \"#utility.yul\":18466:18467   */\n      0x00\n        /* \"#utility.yul\":18455:18464   */\n      dup4\n        /* \"#utility.yul\":18451:18468   */\n      add\n        /* \"#utility.yul\":18444:18491   */\n      mstore\n        /* \"#utility.yul\":18508:18639   */\n      tag_780\n        /* \"#utility.yul\":18634:18638   */\n      dup2\n        /* \"#utility.yul\":18508:18639   */\n      tag_708\n      jump\t// in\n    tag_780:\n        /* \"#utility.yul\":18500:18639   */\n      swap1\n      pop\n        /* \"#utility.yul\":18227:18646   */\n      swap2\n      swap1\n      pop\n      jump\t// out\n        /* \"#utility.yul\":18652:19071   */\n    tag_151:\n        /* \"#utility.yul\":18818:18822   */\n      0x00\n        /* \"#utility.yul\":18856:18858   */\n      0x20\n        /* \"#utility.yul\":18845:18854   */\n      dup3\n        /* \"#utility.yul\":18841:18859   */\n      add\n        /* \"#utility.yul\":18833:18859   */\n      swap1\n      pop\n        /* \"#utility.yul\":18905:18914   */\n      dup2\n        /* \"#utility.yul\":18899:18903   */\n      dup2\n        /* \"#utility.yul\":18895:18915   */\n      sub\n        /* \"#utility.yul\":18891:18892   */\n      0x00\n        /* \"#utility.yul\":18880:18889   */\n      dup4\n        /* \"#utility.yul\":18876:18893   */\n      add\n        /* \"#utility.yul\":18869:18916   */\n      mstore\n        /* \"#utility.yul\":18933:19064   */\n      tag_782\n        /* \"#utility.yul\":19059:19063   */\n      dup2\n        /* \"#utility.yul\":18933:19064   */\n      tag_713\n      jump\t// in\n    tag_782:\n        /* \"#utility.yul\":18925:19064   */\n      swap1\n      pop\n        /* \"#utility.yul\":18652:19071   */\n      swap2\n      swap1\n      pop\n      jump\t// out\n        /* \"#utility.yul\":19077:19496   */\n    tag_159:\n        /* \"#utility.yul\":19243:19247   */\n      0x00\n        /* \"#utility.yul\":19281:19283   */\n      0x20\n        /* \"#utility.yul\":19270:19279   */\n      dup3\n        /* \"#utility.yul\":19266:19284   */\n      add\n        /* \"#utility.yul\":19258:19284   */\n      swap1\n      pop\n        /* \"#utility.yul\":19330:19339   */\n      dup2\n        /* \"#utility.yul\":19324:19328   */\n      dup2\n        /* \"#utility.yul\":19320:19340   */\n      sub\n        /* \"#utility.yul\":19316:19317   */\n      0x00\n        /* \"#utility.yul\":19305:19314   */\n      dup4\n        /* \"#utility.yul\":19301:19318   */\n      add\n        /* \"#utility.yul\":19294:19341   */\n      mstore\n        /* \"#utility.yul\":19358:19489   */\n      tag_784\n        /* \"#utility.yul\":19484:19488   */\n      dup2\n        /* \"#utility.yul\":19358:19489   */\n      tag_718\n      jump\t// in\n    tag_784:\n        /* \"#utility.yul\":19350:19489   */\n      swap1\n      pop\n        /* \"#utility.yul\":19077:19496   */\n      swap2\n      swap1\n      pop\n      jump\t// out\n        /* \"#utility.yul\":19502:19921   */\n    tag_219:\n        /* \"#utility.yul\":19668:19672   */\n      0x00\n        /* \"#utility.yul\":19706:19708   */\n      0x20\n        /* \"#utility.yul\":19695:19704   */\n      dup3\n        /* \"#utility.yul\":19691:19709   */\n      add\n        /* \"#utility.yul\":19683:19709   */\n      swap1\n      pop\n        /* \"#utility.yul\":19755:19764   */\n      dup2\n        /* \"#utility.yul\":19749:19753   */\n      dup2\n        /* \"#utility.yul\":19745:19765   */\n      sub\n        /* \"#utility.yul\":19741:19742   */\n      0x00\n        /* \"#utility.yul\":19730:19739   */\n      dup4\n        /* \"#utility.yul\":19726:19743   */\n      add\n        /* \"#utility.yul\":19719:19766   */\n      mstore\n        /* \"#utility.yul\":19783:19914   */\n      tag_786\n        /* \"#utility.yul\":19909:19913   */\n      dup2\n        /* \"#utility.yul\":19783:19914   */\n      tag_723\n      jump\t// in\n    tag_786:\n        /* \"#utility.yul\":19775:19914   */\n      swap1\n      pop\n        /* \"#utility.yul\":19502:19921   */\n      swap2\n      swap1\n      pop\n      jump\t// out\n        /* \"#utility.yul\":19927:20346   */\n    tag_342:\n        /* \"#utility.yul\":20093:20097   */\n      0x00\n        /* \"#utility.yul\":20131:20133   */\n      0x20\n        /* \"#utility.yul\":20120:20129   */\n      dup3\n        /* \"#utility.yul\":20116:20134   */\n      add\n        /* \"#utility.yul\":20108:20134   */\n      swap1\n      pop\n        /* \"#utility.yul\":20180:20189   */\n      dup2\n        /* \"#utility.yul\":20174:20178   */\n      dup2\n        /* \"#utility.yul\":20170:20190   */\n      sub\n        /* \"#utility.yul\":20166:20167   */\n      0x00\n        /* \"#utility.yul\":20155:20164   */\n      dup4\n        /* \"#utility.yul\":20151:20168   */\n      add\n        /* \"#utility.yul\":20144:20191   */\n      mstore\n        /* \"#utility.yul\":20208:20339   */\n      tag_788\n        /* \"#utility.yul\":20334:20338   */\n      dup2\n        /* \"#utility.yul\":20208:20339   */\n      tag_728\n      jump\t// in\n    tag_788:\n        /* \"#utility.yul\":20200:20339   */\n      swap1\n      pop\n        /* \"#utility.yul\":19927:20346   */\n      swap2\n      swap1\n      pop\n      jump\t// out\n        /* \"#utility.yul\":20352:20574   */\n    tag_35:\n        /* \"#utility.yul\":20445:20449   */\n      0x00\n        /* \"#utility.yul\":20483:20485   */\n      0x20\n        /* \"#utility.yul\":20472:20481   */\n      dup3\n        /* \"#utility.yul\":20468:20486   */\n      add\n        /* \"#utility.yul\":20460:20486   */\n      swap1\n      pop\n        /* \"#utility.yul\":20496:20567   */\n      tag_790\n        /* \"#utility.yul\":20564:20565   */\n      0x00\n        /* \"#utility.yul\":20553:20562   */\n      dup4\n        /* \"#utility.yul\":20549:20566   */\n      add\n        /* \"#utility.yul\":20540:20546   */\n      dup5\n        /* \"#utility.yul\":20496:20567   */\n      tag_744\n      jump\t// in\n    tag_790:\n        /* \"#utility.yul\":20352:20574   */\n      swap3\n      swap2\n      pop\n      pop\n      jump\t// out\n        /* \"#utility.yul\":20580:20709   */\n    tag_553:\n        /* \"#utility.yul\":20614:20620   */\n      0x00\n        /* \"#utility.yul\":20641:20661   */\n      tag_792\n      tag_793\n      jump\t// in\n    tag_792:\n        /* \"#utility.yul\":20631:20661   */\n      swap1\n      pop\n        /* \"#utility.yul\":20670:20703   */\n      tag_794\n        /* \"#utility.yul\":20698:20702   */\n      dup3\n        /* \"#utility.yul\":20690:20696   */\n      dup3\n        /* \"#utility.yul\":20670:20703   */\n      tag_795\n      jump\t// in\n    tag_794:\n        /* \"#utility.yul\":20580:20709   */\n      swap2\n      swap1\n      pop\n      jump\t// out\n        /* \"#utility.yul\":20715:20790   */\n    tag_793:\n        /* \"#utility.yul\":20748:20754   */\n      0x00\n        /* \"#utility.yul\":20781:20783   */\n      0x40\n        /* \"#utility.yul\":20775:20784   */\n      mload\n        /* \"#utility.yul\":20765:20784   */\n      swap1\n      pop\n        /* \"#utility.yul\":20715:20790   */\n      swap1\n      jump\t// out\n        /* \"#utility.yul\":20796:21104   */\n    tag_552:\n        /* \"#utility.yul\":20858:20862   */\n      0x00\n        /* \"#utility.yul\":20948:20966   */\n      0xffffffffffffffff\n        /* \"#utility.yul\":20940:20946   */\n      dup3\n        /* \"#utility.yul\":20937:20967   */\n      gt\n        /* \"#utility.yul\":20934:20990   */\n      iszero\n      tag_798\n      jumpi\n        /* \"#utility.yul\":20970:20988   */\n      tag_799\n      tag_478\n      jump\t// in\n    tag_799:\n        /* \"#utility.yul\":20934:20990   */\n    tag_798:\n        /* \"#utility.yul\":21008:21037   */\n      tag_800\n        /* \"#utility.yul\":21030:21036   */\n      dup3\n        /* \"#utility.yul\":21008:21037   */\n      tag_681\n      jump\t// in\n    tag_800:\n        /* \"#utility.yul\":21000:21037   */\n      swap1\n      pop\n        /* \"#utility.yul\":21092:21096   */\n      0x20\n        /* \"#utility.yul\":21086:21090   */\n      dup2\n        /* \"#utility.yul\":21082:21097   */\n      add\n        /* \"#utility.yul\":21074:21097   */\n      swap1\n      pop\n        /* \"#utility.yul\":20796:21104   */\n      swap2\n      swap1\n      pop\n      jump\t// out\n        /* \"#utility.yul\":21110:21242   */\n    tag_650:\n        /* \"#utility.yul\":21177:21181   */\n      0x00\n        /* \"#utility.yul\":21200:21203   */\n      dup2\n        /* \"#utility.yul\":21192:21203   */\n      swap1\n      pop\n        /* \"#utility.yul\":21230:21234   */\n      0x20\n        /* \"#utility.yul\":21225:21228   */\n      dup3\n        /* \"#utility.yul\":21221:21235   */\n      add\n        /* \"#utility.yul\":21213:21235   */\n      swap1\n      pop\n        /* \"#utility.yul\":21110:21242   */\n      swap2\n      swap1\n      pop\n      jump\t// out\n        /* \"#utility.yul\":21248:21362   */\n    tag_646:\n        /* \"#utility.yul\":21315:21321   */\n      0x00\n        /* \"#utility.yul\":21349:21354   */\n      dup2\n        /* \"#utility.yul\":21343:21355   */\n      mload\n        /* \"#utility.yul\":21333:21355   */\n      swap1\n      pop\n        /* \"#utility.yul\":21248:21362   */\n      swap2\n      swap1\n      pop\n      jump\t// out\n        /* \"#utility.yul\":21368:21467   */\n    tag_675:\n        /* \"#utility.yul\":21420:21426   */\n      0x00\n        /* \"#utility.yul\":21454:21459   */\n      dup2\n        /* \"#utility.yul\":21448:21460   */\n      mload\n        /* \"#utility.yul\":21438:21460   */\n      swap1\n      pop\n        /* \"#utility.yul\":21368:21467   */\n      swap2\n      swap1\n      pop\n      jump\t// out\n        /* \"#utility.yul\":21473:21586   */\n    tag_656:\n        /* \"#utility.yul\":21543:21547   */\n      0x00\n        /* \"#utility.yul\":21575:21579   */\n      0x20\n        /* \"#utility.yul\":21570:21573   */\n      dup3\n        /* \"#utility.yul\":21566:21580   */\n      add\n        /* \"#utility.yul\":21558:21580   */\n      swap1\n      pop\n        /* \"#utility.yul\":21473:21586   */\n      swap2\n      swap1\n      pop\n      jump\t// out\n        /* \"#utility.yul\":21592:21776   */\n    tag_648:\n        /* \"#utility.yul\":21691:21702   */\n      0x00\n        /* \"#utility.yul\":21725:21731   */\n      dup3\n        /* \"#utility.yul\":21720:21723   */\n      dup3\n        /* \"#utility.yul\":21713:21732   */\n      mstore\n        /* \"#utility.yul\":21765:21769   */\n      0x20\n        /* \"#utility.yul\":21760:21763   */\n      dup3\n        /* \"#utility.yul\":21756:21770   */\n      add\n        /* \"#utility.yul\":21741:21770   */\n      swap1\n      pop\n        /* \"#utility.yul\":21592:21776   */\n      swap3\n      swap2\n      pop\n      pop\n      jump\t// out\n        /* \"#utility.yul\":21782:21951   */\n    tag_677:\n        /* \"#utility.yul\":21866:21877   */\n      0x00\n        /* \"#utility.yul\":21900:21906   */\n      dup3\n        /* \"#utility.yul\":21895:21898   */\n      dup3\n        /* \"#utility.yul\":21888:21907   */\n      mstore\n        /* \"#utility.yul\":21940:21944   */\n      0x20\n        /* \"#utility.yul\":21935:21938   */\n      dup3\n        /* \"#utility.yul\":21931:21945   */\n      add\n        /* \"#utility.yul\":21916:21945   */\n      swap1\n      pop\n        /* \"#utility.yul\":21782:21951   */\n      swap3\n      swap2\n      pop\n      pop\n      jump\t// out\n        /* \"#utility.yul\":21957:22105   */\n    tag_686:\n        /* \"#utility.yul\":22059:22070   */\n      0x00\n        /* \"#utility.yul\":22096:22099   */\n      dup2\n        /* \"#utility.yul\":22081:22099   */\n      swap1\n      pop\n        /* \"#utility.yul\":21957:22105   */\n      swap3\n      swap2\n      pop\n      pop\n      jump\t// out\n        /* \"#utility.yul\":22111:22416   */\n    tag_26:\n        /* \"#utility.yul\":22151:22154   */\n      0x00\n        /* \"#utility.yul\":22170:22190   */\n      tag_809\n        /* \"#utility.yul\":22188:22189   */\n      dup3\n        /* \"#utility.yul\":22170:22190   */\n      tag_743\n      jump\t// in\n    tag_809:\n        /* \"#utility.yul\":22165:22190   */\n      swap2\n      pop\n        /* \"#utility.yul\":22204:22224   */\n      tag_810\n        /* \"#utility.yul\":22222:22223   */\n      dup4\n        /* \"#utility.yul\":22204:22224   */\n      tag_743\n      jump\t// in\n    tag_810:\n        /* \"#utility.yul\":22199:22224   */\n      swap3\n      pop\n        /* \"#utility.yul\":22358:22359   */\n      dup3\n        /* \"#utility.yul\":22290:22356   */\n      0xffffffffffffffffffffffffffffffffffffffffffffffffffffffffffffffff\n        /* \"#utility.yul\":22286:22360   */\n      sub\n        /* \"#utility.yul\":22283:22284   */\n      dup3\n        /* \"#utility.yul\":22280:22361   */\n      gt\n        /* \"#utility.yul\":22277:22384   */\n      iszero\n      tag_811\n      jumpi\n        /* \"#utility.yul\":22364:22382   */\n      tag_812\n      tag_813\n      jump\t// in\n    tag_812:\n        /* \"#utility.yul\":22277:22384   */\n    tag_811:\n        /* \"#utility.yul\":22408:22409   */\n      dup3\n        /* \"#utility.yul\":22405:22406   */\n      dup3\n        /* \"#utility.yul\":22401:22410   */\n      add\n        /* \"#utility.yul\":22394:22410   */\n      swap1\n      pop\n        /* \"#utility.yul\":22111:22416   */\n      swap3\n      swap2\n      pop\n      pop\n      jump\t// out\n        /* \"#utility.yul\":22422:22607   */\n    tag_109:\n        /* \"#utility.yul\":22462:22463   */\n      0x00\n        /* \"#utility.yul\":22479:22499   */\n      tag_815\n        /* \"#utility.yul\":22497:22498   */\n      dup3\n        /* \"#utility.yul\":22479:22499   */\n      tag_743\n      jump\t// in\n    tag_815:\n        /* \"#utility.yul\":22474:22499   */\n      swap2\n      pop\n        /* \"#utility.yul\":22513:22533   */\n      tag_816\n        /* \"#utility.yul\":22531:22532   */\n      dup4\n        /* \"#utility.yul\":22513:22533   */\n      tag_743\n      jump\t// in\n    tag_816:\n        /* \"#utility.yul\":22508:22533   */\n      swap3\n      pop\n        /* \"#utility.yul\":22552:22553   */\n      dup3\n        /* \"#utility.yul\":22542:22577   */\n      tag_817\n      jumpi\n        /* \"#utility.yul\":22557:22575   */\n      tag_818\n      tag_819\n      jump\t// in\n    tag_818:\n        /* \"#utility.yul\":22542:22577   */\n    tag_817:\n        /* \"#utility.yul\":22599:22600   */\n      dup3\n        /* \"#utility.yul\":22596:22597   */\n      dup3\n        /* \"#utility.yul\":22592:22601   */\n      div\n        /* \"#utility.yul\":22587:22601   */\n      swap1\n      pop\n        /* \"#utility.yul\":22422:22607   */\n      swap3\n      swap2\n      pop\n      pop\n      jump\t// out\n        /* \"#utility.yul\":22613:22961   */\n    tag_385:\n        /* \"#utility.yul\":22653:22660   */\n      0x00\n        /* \"#utility.yul\":22676:22696   */\n      tag_821\n        /* \"#utility.yul\":22694:22695   */\n      dup3\n        /* \"#utility.yul\":22676:22696   */\n      tag_743\n      jump\t// in\n    tag_821:\n        /* \"#utility.yul\":22671:22696   */\n      swap2\n      pop\n        /* \"#utility.yul\":22710:22730   */\n      tag_822\n        /* \"#utility.yul\":22728:22729   */\n      dup4\n        /* \"#utility.yul\":22710:22730   */\n      tag_743\n      jump\t// in\n    tag_822:\n        /* \"#utility.yul\":22705:22730   */\n      swap3\n      pop\n        /* \"#utility.yul\":22898:22899   */\n      dup2\n        /* \"#utility.yul\":22830:22896   */\n      0xffffffffffffffffffffffffffffffffffffffffffffffffffffffffffffffff\n        /* \"#utility.yul\":22826:22900   */\n      div\n        /* \"#utility.yul\":22823:22824   */\n      dup4\n        /* \"#utility.yul\":22820:22901   */\n      gt\n        /* \"#utility.yul\":22815:22816   */\n      dup3\n        /* \"#utility.yul\":22808:22817   */\n      iszero\n        /* \"#utility.yul\":22801:22818   */\n      iszero\n        /* \"#utility.yul\":22797:22902   */\n      and\n        /* \"#utility.yul\":22794:22925   */\n      iszero\n      tag_823\n      jumpi\n        /* \"#utility.yul\":22905:22923   */\n      tag_824\n      tag_813\n      jump\t// in\n    tag_824:\n        /* \"#utility.yul\":22794:22925   */\n    tag_823:\n        /* \"#utility.yul\":22953:22954   */\n      dup3\n        /* \"#utility.yul\":22950:22951   */\n      dup3\n        /* \"#utility.yul\":22946:22955   */\n      mul\n        /* \"#utility.yul\":22935:22955   */\n      swap1\n      pop\n        /* \"#utility.yul\":22613:22961   */\n      swap3\n      swap2\n      pop\n      pop\n      jump\t// out\n        /* \"#utility.yul\":22967:23158   */\n    tag_188:\n        /* \"#utility.yul\":23007:23011   */\n      0x00\n        /* \"#utility.yul\":23027:23047   */\n      tag_826\n        /* \"#utility.yul\":23045:23046   */\n      dup3\n        /* \"#utility.yul\":23027:23047   */\n      tag_743\n      jump\t// in\n    tag_826:\n        /* \"#utility.yul\":23022:23047   */\n      swap2\n      pop\n        /* \"#utility.yul\":23061:23081   */\n      tag_827\n        /* \"#utility.yul\":23079:23080   */\n      dup4\n        /* \"#utility.yul\":23061:23081   */\n      tag_743\n      jump\t// in\n    tag_827:\n        /* \"#utility.yul\":23056:23081   */\n      swap3\n      pop\n        /* \"#utility.yul\":23100:23101   */\n      dup3\n        /* \"#utility.yul\":23097:23098   */\n      dup3\n        /* \"#utility.yul\":23094:23102   */\n      lt\n        /* \"#utility.yul\":23091:23125   */\n      iszero\n      tag_828\n      jumpi\n        /* \"#utility.yul\":23105:23123   */\n      tag_829\n      tag_813\n      jump\t// in\n    tag_829:\n        /* \"#utility.yul\":23091:23125   */\n    tag_828:\n        /* \"#utility.yul\":23150:23151   */\n      dup3\n        /* \"#utility.yul\":23147:23148   */\n      dup3\n        /* \"#utility.yul\":23143:23152   */\n      sub\n        /* \"#utility.yul\":23135:23152   */\n      swap1\n      pop\n        /* \"#utility.yul\":22967:23158   */\n      swap3\n      swap2\n      pop\n      pop\n      jump\t// out\n        /* \"#utility.yul\":23164:23260   */\n    tag_642:\n        /* \"#utility.yul\":23201:23208   */\n      0x00\n        /* \"#utility.yul\":23230:23254   */\n      tag_831\n        /* \"#utility.yul\":23248:23253   */\n      dup3\n        /* \"#utility.yul\":23230:23254   */\n      tag_832\n      jump\t// in\n    tag_831:\n        /* \"#utility.yul\":23219:23254   */\n      swap1\n      pop\n        /* \"#utility.yul\":23164:23260   */\n      swap2\n      swap1\n      pop\n      jump\t// out\n        /* \"#utility.yul\":23266:23356   */\n    tag_660:\n        /* \"#utility.yul\":23300:23307   */\n      0x00\n        /* \"#utility.yul\":23343:23348   */\n      dup2\n        /* \"#utility.yul\":23336:23349   */\n      iszero\n        /* \"#utility.yul\":23329:23350   */\n      iszero\n        /* \"#utility.yul\":23318:23350   */\n      swap1\n      pop\n        /* \"#utility.yul\":23266:23356   */\n      swap2\n      swap1\n      pop\n      jump\t// out\n        /* \"#utility.yul\":23362:23439   */\n    tag_663:\n        /* \"#utility.yul\":23399:23406   */\n      0x00\n        /* \"#utility.yul\":23428:23433   */\n      dup2\n        /* \"#utility.yul\":23417:23433   */\n      swap1\n      pop\n        /* \"#utility.yul\":23362:23439   */\n      swap2\n      swap1\n      pop\n      jump\t// out\n        /* \"#utility.yul\":23445:23571   */\n    tag_832:\n        /* \"#utility.yul\":23482:23489   */\n      0x00\n        /* \"#utility.yul\":23522:23564   */\n      0xffffffffffffffffffffffffffffffffffffffff\n        /* \"#utility.yul\":23515:23520   */\n      dup3\n        /* \"#utility.yul\":23511:23565   */\n      and\n        /* \"#utility.yul\":23500:23565   */\n      swap1\n      pop\n        /* \"#utility.yul\":23445:23571   */\n      swap2\n      swap1\n      pop\n      jump\t// out\n        /* \"#utility.yul\":23577:23654   */\n    tag_743:\n        /* \"#utility.yul\":23614:23621   */\n      0x00\n        /* \"#utility.yul\":23643:23648   */\n      dup2\n        /* \"#utility.yul\":23632:23648   */\n      swap1\n      pop\n        /* \"#utility.yul\":23577:23654   */\n      swap2\n      swap1\n      pop\n      jump\t// out\n        /* \"#utility.yul\":23660:23814   */\n    tag_558:\n        /* \"#utility.yul\":23744:23750   */\n      dup3\n        /* \"#utility.yul\":23739:23742   */\n      dup2\n        /* \"#utility.yul\":23734:23737   */\n      dup4\n        /* \"#utility.yul\":23721:23751   */\n      calldatacopy\n        /* \"#utility.yul\":23806:23807   */\n      0x00\n        /* \"#utility.yul\":23797:23803   */\n      dup4\n        /* \"#utility.yul\":23792:23795   */\n      dup4\n        /* \"#utility.yul\":23788:23804   */\n      add\n        /* \"#utility.yul\":23781:23808   */\n      mstore\n        /* \"#utility.yul\":23660:23814   */\n      pop\n      pop\n      pop\n      jump\t// out\n        /* \"#utility.yul\":23820:24127   */\n    tag_679:\n        /* \"#utility.yul\":23888:23889   */\n      0x00\n        /* \"#utility.yul\":23898:24011   */\n    tag_839:\n        /* \"#utility.yul\":23912:23918   */\n      dup4\n        /* \"#utility.yul\":23909:23910   */\n      dup2\n        /* \"#utility.yul\":23906:23919   */\n      lt\n        /* \"#utility.yul\":23898:24011   */\n      iszero\n      tag_841\n      jumpi\n        /* \"#utility.yul\":23997:23998   */\n      dup1\n        /* \"#utility.yul\":23992:23995   */\n      dup3\n        /* \"#utility.yul\":23988:23999   */\n      add\n        /* \"#utility.yul\":23982:24000   */\n      mload\n        /* \"#utility.yul\":23978:23979   */\n      dup2\n        /* \"#utility.yul\":23973:23976   */\n      dup5\n        /* \"#utility.yul\":23969:23980   */\n      add\n        /* \"#utility.yul\":23962:24001   */\n      mstore\n        /* \"#utility.yul\":23934:23936   */\n      0x20\n        /* \"#utility.yul\":23931:23932   */\n      dup2\n        /* \"#utility.yul\":23927:23937   */\n      add\n        /* \"#utility.yul\":23922:23937   */\n      swap1\n      pop\n        /* \"#utility.yul\":23898:24011   */\n      jump(tag_839)\n    tag_841:\n        /* \"#utility.yul\":24029:24035   */\n      dup4\n        /* \"#utility.yul\":24026:24027   */\n      dup2\n        /* \"#utility.yul\":24023:24036   */\n      gt\n        /* \"#utility.yul\":24020:24121   */\n      iszero\n      tag_842\n      jumpi\n        /* \"#utility.yul\":24109:24110   */\n      0x00\n        /* \"#utility.yul\":24100:24106   */\n      dup5\n        /* \"#utility.yul\":24095:24098   */\n      dup5\n        /* \"#utility.yul\":24091:24107   */\n      add\n        /* \"#utility.yul\":24084:24111   */\n      mstore\n        /* \"#utility.yul\":24020:24121   */\n    tag_842:\n        /* \"#utility.yul\":23869:24127   */\n      pop\n        /* \"#utility.yul\":23820:24127   */\n      pop\n      pop\n      pop\n      jump\t// out\n        /* \"#utility.yul\":24133:24453   */\n    tag_126:\n        /* \"#utility.yul\":24177:24183   */\n      0x00\n        /* \"#utility.yul\":24214:24215   */\n      0x02\n        /* \"#utility.yul\":24208:24212   */\n      dup3\n        /* \"#utility.yul\":24204:24216   */\n      div\n        /* \"#utility.yul\":24194:24216   */\n      swap1\n      pop\n        /* \"#utility.yul\":24261:24262   */\n      0x01\n        /* \"#utility.yul\":24255:24259   */\n      dup3\n        /* \"#utility.yul\":24251:24263   */\n      and\n        /* \"#utility.yul\":24282:24300   */\n      dup1\n        /* \"#utility.yul\":24272:24353   */\n      tag_844\n      jumpi\n        /* \"#utility.yul\":24338:24342   */\n      0x7f\n        /* \"#utility.yul\":24330:24336   */\n      dup3\n        /* \"#utility.yul\":24326:24343   */\n      and\n        /* \"#utility.yul\":24316:24343   */\n      swap2\n      pop\n        /* \"#utility.yul\":24272:24353   */\n    tag_844:\n        /* \"#utility.yul\":24400:24402   */\n      0x20\n        /* \"#utility.yul\":24392:24398   */\n      dup3\n        /* \"#utility.yul\":24389:24403   */\n      lt\n        /* \"#utility.yul\":24369:24387   */\n      dup2\n        /* \"#utility.yul\":24366:24404   */\n      eq\n        /* \"#utility.yul\":24363:24447   */\n      iszero\n      tag_845\n      jumpi\n        /* \"#utility.yul\":24419:24437   */\n      tag_846\n      tag_847\n      jump\t// in\n    tag_846:\n        /* \"#utility.yul\":24363:24447   */\n    tag_845:\n        /* \"#utility.yul\":24184:24453   */\n      pop\n        /* \"#utility.yul\":24133:24453   */\n      swap2\n      swap1\n      pop\n      jump\t// out\n        /* \"#utility.yul\":24459:24740   */\n    tag_795:\n        /* \"#utility.yul\":24542:24569   */\n      tag_849\n        /* \"#utility.yul\":24564:24568   */\n      dup3\n        /* \"#utility.yul\":24542:24569   */\n      tag_681\n      jump\t// in\n    tag_849:\n        /* \"#utility.yul\":24534:24540   */\n      dup2\n        /* \"#utility.yul\":24530:24570   */\n      add\n        /* \"#utility.yul\":24672:24678   */\n      dup2\n        /* \"#utility.yul\":24660:24670   */\n      dup2\n        /* \"#utility.yul\":24657:24679   */\n      lt\n        /* \"#utility.yul\":24636:24654   */\n      0xffffffffffffffff\n        /* \"#utility.yul\":24624:24634   */\n      dup3\n        /* \"#utility.yul\":24621:24655   */\n      gt\n        /* \"#utility.yul\":24618:24680   */\n      or\n        /* \"#utility.yul\":24615:24703   */\n      iszero\n      tag_850\n      jumpi\n        /* \"#utility.yul\":24683:24701   */\n      tag_851\n      tag_478\n      jump\t// in\n    tag_851:\n        /* \"#utility.yul\":24615:24703   */\n    tag_850:\n        /* \"#utility.yul\":24723:24733   */\n      dup1\n        /* \"#utility.yul\":24719:24721   */\n      0x40\n        /* \"#utility.yul\":24712:24734   */\n      mstore\n        /* \"#utility.yul\":24502:24740   */\n      pop\n        /* \"#utility.yul\":24459:24740   */\n      pop\n      pop\n      jump\t// out\n        /* \"#utility.yul\":24746:24979   */\n    tag_427:\n        /* \"#utility.yul\":24785:24788   */\n      0x00\n        /* \"#utility.yul\":24808:24832   */\n      tag_853\n        /* \"#utility.yul\":24826:24831   */\n      dup3\n        /* \"#utility.yul\":24808:24832   */\n      tag_743\n      jump\t// in\n    tag_853:\n        /* \"#utility.yul\":24799:24832   */\n      swap2\n      pop\n        /* \"#utility.yul\":24854:24920   */\n      0xffffffffffffffffffffffffffffffffffffffffffffffffffffffffffffffff\n        /* \"#utility.yul\":24847:24852   */\n      dup3\n        /* \"#utility.yul\":24844:24921   */\n      eq\n        /* \"#utility.yul\":24841:24944   */\n      iszero\n      tag_854\n      jumpi\n        /* \"#utility.yul\":24924:24942   */\n      tag_855\n      tag_813\n      jump\t// in\n    tag_855:\n        /* \"#utility.yul\":24841:24944   */\n    tag_854:\n        /* \"#utility.yul\":24971:24972   */\n      0x01\n        /* \"#utility.yul\":24964:24969   */\n      dup3\n        /* \"#utility.yul\":24960:24973   */\n      add\n        /* \"#utility.yul\":24953:24973   */\n      swap1\n      pop\n        /* \"#utility.yul\":24746:24979   */\n      swap2\n      swap1\n      pop\n      jump\t// out\n        /* \"#utility.yul\":24985:25064   */\n    tag_671:\n        /* \"#utility.yul\":25024:25031   */\n      0x00\n        /* \"#utility.yul\":25053:25058   */\n      dup2\n        /* \"#utility.yul\":25042:25058   */\n      swap1\n      pop\n        /* \"#utility.yul\":24985:25064   */\n      swap2\n      swap1\n      pop\n      jump\t// out\n        /* \"#utility.yul\":25070:25149   */\n    tag_751:\n        /* \"#utility.yul\":25109:25116   */\n      0x00\n        /* \"#utility.yul\":25138:25143   */\n      dup2\n        /* \"#utility.yul\":25127:25143   */\n      swap1\n      pop\n        /* \"#utility.yul\":25070:25149   */\n      swap2\n      swap1\n      pop\n      jump\t// out\n        /* \"#utility.yul\":25155:25335   */\n    tag_813:\n        /* \"#utility.yul\":25203:25280   */\n      0x4e487b7100000000000000000000000000000000000000000000000000000000\n        /* \"#utility.yul\":25200:25201   */\n      0x00\n        /* \"#utility.yul\":25193:25281   */\n      mstore\n        /* \"#utility.yul\":25300:25304   */\n      0x11\n        /* \"#utility.yul\":25297:25298   */\n      0x04\n        /* \"#utility.yul\":25290:25305   */\n      mstore\n        /* \"#utility.yul\":25324:25328   */\n      0x24\n        /* \"#utility.yul\":25321:25322   */\n      0x00\n        /* \"#utility.yul\":25314:25329   */\n      revert\n        /* \"#utility.yul\":25341:25521   */\n    tag_819:\n        /* \"#utility.yul\":25389:25466   */\n      0x4e487b7100000000000000000000000000000000000000000000000000000000\n        /* \"#utility.yul\":25386:25387   */\n      0x00\n        /* \"#utility.yul\":25379:25467   */\n      mstore\n        /* \"#utility.yul\":25486:25490   */\n      0x12\n        /* \"#utility.yul\":25483:25484   */\n      0x04\n        /* \"#utility.yul\":25476:25491   */\n      mstore\n        /* \"#utility.yul\":25510:25514   */\n      0x24\n        /* \"#utility.yul\":25507:25508   */\n      0x00\n        /* \"#utility.yul\":25500:25515   */\n      revert\n        /* \"#utility.yul\":25527:25707   */\n    tag_847:\n        /* \"#utility.yul\":25575:25652   */\n      0x4e487b7100000000000000000000000000000000000000000000000000000000\n        /* \"#utility.yul\":25572:25573   */\n      0x00\n        /* \"#utility.yul\":25565:25653   */\n      mstore\n        /* \"#utility.yul\":25672:25676   */\n      0x22\n        /* \"#utility.yul\":25669:25670   */\n      0x04\n        /* \"#utility.yul\":25662:25677   */\n      mstore\n        /* \"#utility.yul\":25696:25700   */\n      0x24\n        /* \"#utility.yul\":25693:25694   */\n      0x00\n        /* \"#utility.yul\":25686:25701   */\n      revert\n        /* \"#utility.yul\":25713:25893   */\n    tag_364:\n        /* \"#utility.yul\":25761:25838   */\n      0x4e487b7100000000000000000000000000000000000000000000000000000000\n        /* \"#utility.yul\":25758:25759   */\n      0x00\n        /* \"#utility.yul\":25751:25839   */\n      mstore\n        /* \"#utility.yul\":25858:25862   */\n      0x32\n        /* \"#utility.yul\":25855:25856   */\n      0x04\n        /* \"#utility.yul\":25848:25863   */\n      mstore\n        /* \"#utility.yul\":25882:25886   */\n      0x24\n        /* \"#utility.yul\":25879:25880   */\n      0x00\n        /* \"#utility.yul\":25872:25887   */\n      revert\n        /* \"#utility.yul\":25899:26079   */\n    tag_478:\n        /* \"#utility.yul\":25947:26024   */\n      0x4e487b7100000000000000000000000000000000000000000000000000000000\n        /* \"#utility.yul\":25944:25945   */\n      0x00\n        /* \"#utility.yul\":25937:26025   */\n      mstore\n        /* \"#utility.yul\":26044:26048   */\n      0x41\n        /* \"#utility.yul\":26041:26042   */\n      0x04\n        /* \"#utility.yul\":26034:26049   */\n      mstore\n        /* \"#utility.yul\":26068:26072   */\n      0x24\n        /* \"#utility.yul\":26065:26066   */\n      0x00\n        /* \"#utility.yul\":26058:26073   */\n      revert\n        /* \"#utility.yul\":26085:26202   */\n    tag_575:\n        /* \"#utility.yul\":26194:26195   */\n      0x00\n        /* \"#utility.yul\":26191:26192   */\n      dup1\n        /* \"#utility.yul\":26184:26196   */\n      revert\n        /* \"#utility.yul\":26208:26325   */\n    tag_556:\n        /* \"#utility.yul\":26317:26318   */\n      0x00\n        /* \"#utility.yul\":26314:26315   */\n      dup1\n        /* \"#utility.yul\":26307:26319   */\n      revert\n        /* \"#utility.yul\":26331:26448   */\n    tag_626:\n        /* \"#utility.yul\":26440:26441   */\n      0x00\n        /* \"#utility.yul\":26437:26438   */\n      dup1\n        /* \"#utility.yul\":26430:26442   */\n      revert\n        /* \"#utility.yul\":26454:26571   */\n    tag_584:\n        /* \"#utility.yul\":26563:26564   */\n      0x00\n        /* \"#utility.yul\":26560:26561   */\n      dup1\n        /* \"#utility.yul\":26553:26565   */\n      revert\n        /* \"#utility.yul\":26577:26679   */\n    tag_681:\n        /* \"#utility.yul\":26618:26624   */\n      0x00\n        /* \"#utility.yul\":26669:26671   */\n      0x1f\n        /* \"#utility.yul\":26665:26672   */\n      not\n        /* \"#utility.yul\":26660:26662   */\n      0x1f\n        /* \"#utility.yul\":26653:26658   */\n      dup4\n        /* \"#utility.yul\":26649:26663   */\n      add\n        /* \"#utility.yul\":26645:26673   */\n      and\n        /* \"#utility.yul\":26635:26673   */\n      swap1\n      pop\n        /* \"#utility.yul\":26577:26679   */\n      swap2\n      swap1\n      pop\n      jump\t// out\n        /* \"#utility.yul\":26685:26860   */\n    tag_692:\n        /* \"#utility.yul\":26825:26852   */\n      0x4f6e6c79206f776e65722063616e2063616c6c20746869732e00000000000000\n        /* \"#utility.yul\":26821:26822   */\n      0x00\n        /* \"#utility.yul\":26813:26819   */\n      dup3\n        /* \"#utility.yul\":26809:26823   */\n      add\n        /* \"#utility.yul\":26802:26853   */\n      mstore\n        /* \"#utility.yul\":26685:26860   */\n      pop\n      jump\t// out\n        /* \"#utility.yul\":26866:27025   */\n    tag_697:\n        /* \"#utility.yul\":27006:27017   */\n      0x6e6f742065786973740000000000000000000000000000000000000000000000\n        /* \"#utility.yul\":27002:27003   */\n      0x00\n        /* \"#utility.yul\":26994:27000   */\n      dup3\n        /* \"#utility.yul\":26990:27004   */\n      add\n        /* \"#utility.yul\":26983:27018   */\n      mstore\n        /* \"#utility.yul\":26866:27025   */\n      pop\n      jump\t// out\n        /* \"#utility.yul\":27031:27195   */\n    tag_702:\n        /* \"#utility.yul\":27171:27187   */\n      0x706f6f6c206e6f74206578697374000000000000000000000000000000000000\n        /* \"#utility.yul\":27167:27168   */\n      0x00\n        /* \"#utility.yul\":27159:27165   */\n      dup3\n        /* \"#utility.yul\":27155:27169   */\n      add\n        /* \"#utility.yul\":27148:27188   */\n      mstore\n        /* \"#utility.yul\":27031:27195   */\n      pop\n      jump\t// out\n        /* \"#utility.yul\":27201:27374   */\n    tag_707:\n        /* \"#utility.yul\":27341:27366   */\n      0x706f6f6c20626173616c20686173206265656e20736574000000000000000000\n        /* \"#utility.yul\":27337:27338   */\n      0x00\n        /* \"#utility.yul\":27329:27335   */\n      dup3\n        /* \"#utility.yul\":27325:27339   */\n      add\n        /* \"#utility.yul\":27318:27367   */\n      mstore\n        /* \"#utility.yul\":27201:27374   */\n      pop\n      jump\t// out\n        /* \"#utility.yul\":27380:27540   */\n    tag_712:\n        /* \"#utility.yul\":27520:27532   */\n      0x7061697220657869737400000000000000000000000000000000000000000000\n        /* \"#utility.yul\":27516:27517   */\n      0x00\n        /* \"#utility.yul\":27508:27514   */\n      dup3\n        /* \"#utility.yul\":27504:27518   */\n      add\n        /* \"#utility.yul\":27497:27533   */\n      mstore\n        /* \"#utility.yul\":27380:27540   */\n      pop\n      jump\t// out\n        /* \"#utility.yul\":27546:27717   */\n    tag_717:\n        /* \"#utility.yul\":27686:27709   */\n      0x706f6f6c20686173206e6f742066696e69736865640000000000000000000000\n        /* \"#utility.yul\":27682:27683   */\n      0x00\n        /* \"#utility.yul\":27674:27680   */\n      dup3\n        /* \"#utility.yul\":27670:27684   */\n      add\n        /* \"#utility.yul\":27663:27710   */\n      mstore\n        /* \"#utility.yul\":27546:27717   */\n      pop\n      jump\t// out\n        /* \"#utility.yul\":27723:27894   */\n    tag_722:\n        /* \"#utility.yul\":27863:27886   */\n      0x6e6f7420656e6f75676820766f7465416d6f756e740000000000000000000000\n        /* \"#utility.yul\":27859:27860   */\n      0x00\n        /* \"#utility.yul\":27851:27857   */\n      dup3\n        /* \"#utility.yul\":27847:27861   */\n      add\n        /* \"#utility.yul\":27840:27887   */\n      mstore\n        /* \"#utility.yul\":27723:27894   */\n      pop\n      jump\t// out\n        /* \"#utility.yul\":27900:28066   */\n    tag_727:\n        /* \"#utility.yul\":28040:28058   */\n      0x6e6f7420656e6f75676820626173616c00000000000000000000000000000000\n        /* \"#utility.yul\":28036:28037   */\n      0x00\n        /* \"#utility.yul\":28028:28034   */\n      dup3\n        /* \"#utility.yul\":28024:28038   */\n      add\n        /* \"#utility.yul\":28017:28059   */\n      mstore\n        /* \"#utility.yul\":27900:28066   */\n      pop\n      jump\t// out\n        /* \"#utility.yul\":28072:28239   */\n    tag_732:\n        /* \"#utility.yul\":28212:28231   */\n      0x706f6f6c206861732066696e6973686564000000000000000000000000000000\n        /* \"#utility.yul\":28208:28209   */\n      0x00\n        /* \"#utility.yul\":28200:28206   */\n      dup3\n        /* \"#utility.yul\":28196:28210   */\n      add\n        /* \"#utility.yul\":28189:28232   */\n      mstore\n        /* \"#utility.yul\":28072:28239   */\n      pop\n      jump\t// out\n        /* \"#utility.yul\":28245:28367   */\n    tag_562:\n        /* \"#utility.yul\":28318:28342   */\n      tag_878\n        /* \"#utility.yul\":28336:28341   */\n      dup2\n        /* \"#utility.yul\":28318:28342   */\n      tag_642\n      jump\t// in\n    tag_878:\n        /* \"#utility.yul\":28311:28316   */\n      dup2\n        /* \"#utility.yul\":28308:28343   */\n      eq\n        /* \"#utility.yul\":28298:28361   */\n      tag_879\n      jumpi\n        /* \"#utility.yul\":28357:28358   */\n      0x00\n        /* \"#utility.yul\":28354:28355   */\n      dup1\n        /* \"#utility.yul\":28347:28359   */\n      revert\n        /* \"#utility.yul\":28298:28361   */\n    tag_879:\n        /* \"#utility.yul\":28245:28367   */\n      pop\n      jump\t// out\n        /* \"#utility.yul\":28373:28489   */\n    tag_566:\n        /* \"#utility.yul\":28443:28464   */\n      tag_881\n        /* \"#utility.yul\":28458:28463   */\n      dup2\n        /* \"#utility.yul\":28443:28464   */\n      tag_660\n      jump\t// in\n    tag_881:\n        /* \"#utility.yul\":28436:28441   */\n      dup2\n        /* \"#utility.yul\":28433:28465   */\n      eq\n        /* \"#utility.yul\":28423:28483   */\n      tag_882\n      jumpi\n        /* \"#utility.yul\":28479:28480   */\n      0x00\n        /* \"#utility.yul\":28476:28477   */\n      dup1\n        /* \"#utility.yul\":28469:28481   */\n      revert\n        /* \"#utility.yul\":28423:28483   */\n    tag_882:\n        /* \"#utility.yul\":28373:28489   */\n      pop\n      jump\t// out\n        /* \"#utility.yul\":28495:28617   */\n    tag_570:\n        /* \"#utility.yul\":28568:28592   */\n      tag_884\n        /* \"#utility.yul\":28586:28591   */\n      dup2\n        /* \"#utility.yul\":28568:28592   */\n      tag_663\n      jump\t// in\n    tag_884:\n        /* \"#utility.yul\":28561:28566   */\n      dup2\n        /* \"#utility.yul\":28558:28593   */\n      eq\n        /* \"#utility.yul\":28548:28611   */\n      tag_885\n      jumpi\n        /* \"#utility.yul\":28607:28608   */\n      0x00\n        /* \"#utility.yul\":28604:28605   */\n      dup1\n        /* \"#utility.yul\":28597:28609   */\n      revert\n        /* \"#utility.yul\":28548:28611   */\n    tag_885:\n        /* \"#utility.yul\":28495:28617   */\n      pop\n      jump\t// out\n        /* \"#utility.yul\":28623:28745   */\n    tag_580:\n        /* \"#utility.yul\":28696:28720   */\n      tag_887\n        /* \"#utility.yul\":28714:28719   */\n      dup2\n        /* \"#utility.yul\":28696:28720   */\n      tag_743\n      jump\t// in\n    tag_887:\n        /* \"#utility.yul\":28689:28694   */\n      dup2\n        /* \"#utility.yul\":28686:28721   */\n      eq\n        /* \"#utility.yul\":28676:28739   */\n      tag_888\n      jumpi\n        /* \"#utility.yul\":28735:28736   */\n      0x00\n        /* \"#utility.yul\":28732:28733   */\n      dup1\n        /* \"#utility.yul\":28725:28737   */\n      revert\n        /* \"#utility.yul\":28676:28739   */\n    tag_888:\n        /* \"#utility.yul\":28623:28745   */\n      pop\n      jump\t// out\n    stop\n    data_63d529c162db78e8ed8a28913883ad9c6a8ef7b79a0d650da6d67fd958da5109 307865643633346465613034346665393266366438633936313263333834346334393531303534633534313761386533356338343237323063323236333361303464\n\n    auxdata: 0xa26469706673582212205653556a6c78dce88b46d77d04e32bd6b9e0ecce03b692c7a6e4821cf0db611364736f6c63430008070033\n}\n",
				"bytecode": {
					"linkReferences": {},
					"object": "60806040523480156200001157600080fd5b5060405162004807380380620048078339818101604052810190620000379190620000bc565b816000806101000a81548173ffffffffffffffffffffffffffffffffffffffff021916908373ffffffffffffffffffffffffffffffffffffffff16021790555060006003819055508060018190555050506200017a565b6000815190506200009f8162000146565b92915050565b600081519050620000b68162000160565b92915050565b60008060408385031215620000d657620000d562000141565b5b6000620000e6858286016200008e565b9250506020620000f985828601620000a5565b9150509250929050565b6000620001108262000117565b9050919050565b600073ffffffffffffffffffffffffffffffffffffffff82169050919050565b6000819050919050565b600080fd5b620001518162000103565b81146200015d57600080fd5b50565b6200016b8162000137565b81146200017757600080fd5b50565b61467d806200018a6000396000f3fe6080604052600436106100e15760003560e01c80634121855f1161007f5780639bd0abf1116100595780639bd0abf11461041e578063baf412691461044e578063ea8870c014610479578063f6c00927146104a457610202565b80634121855f1461037457806347e4dd27146103b157806374fe9bc2146103ee57610202565b80632775e02c116100bb5780632775e02c1461029f5780632bf21ecc146102cf578063357965ba1461030c5780633e6ff1a21461034957610202565b80630c66b373146102075780630ce490531461023257806322d8325c1461026257610202565b366102025760008054906101000a900473ffffffffffffffffffffffffffffffffffffffff1673ffffffffffffffffffffffffffffffffffffffff163373ffffffffffffffffffffffffffffffffffffffff16146101ff57610153662386f26fc10000346104e390919063ffffffff16565b600460003373ffffffffffffffffffffffffffffffffffffffff1673ffffffffffffffffffffffffffffffffffffffff16815260200190815260200160002060008282546101a191906140bf565b9250508190555034600360008282546101ba91906140bf565b925050819055507f88a5966d370b9919b20f3e2c13ff65706f196a4e32cc2c12bf57088f8852587433346040516101f2929190613e08565b60405180910390a1610200565b5b005b600080fd5b34801561021357600080fd5b5061021c61050b565b6040516102299190613fee565b60405180910390f35b61024c60048036038101906102479190613814565b6105a4565b6040516102599190613e53565b60405180910390f35b34801561026e57600080fd5b5061028960048036038101906102849190613894565b6109e0565b6040516102969190613e53565b60405180910390f35b6102b960048036038101906102b491906137e7565b610d4d565b6040516102c69190613e53565b60405180910390f35b3480156102db57600080fd5b506102f660048036038101906102f1919061394e565b610e42565b6040516103039190613e53565b60405180910390f35b34801561031857600080fd5b50610333600480360381019061032e91906139f5565b611241565b6040516103409190613e6e565b60405180910390f35b34801561035557600080fd5b5061035e611532565b60405161036b9190613fee565b60405180910390f35b34801561038057600080fd5b5061039b60048036038101906103969190613921565b6115cb565b6040516103a89190613fee565b60405180910390f35b3480156103bd57600080fd5b506103d860048036038101906103d39190613894565b611968565b6040516103e59190613e53565b60405180910390f35b6104086004803603810190610403919061398e565b6120ba565b6040516104159190613e53565b60405180910390f35b61043860048036038101906104339190613854565b612b2d565b6040516104459190613e53565b60405180910390f35b34801561045a57600080fd5b50610463612d41565b6040516104709190613fee565b60405180910390f35b34801561048557600080fd5b5061048e612d88565b60405161049b9190613e31565b60405180910390f35b3480156104b057600080fd5b506104cb60048036038101906104c69190613921565b612de0565b6040516104da93929190613e89565b60405180910390f35b60008082116104f157600080fd5b600082846104ff9190614115565b90508091505092915050565b60008060009054906101000a900473ffffffffffffffffffffffffffffffffffffffff1673ffffffffffffffffffffffffffffffffffffffff163373ffffffffffffffffffffffffffffffffffffffff161461059c576040517f08c379a000000000000000000000000000000000000000000000000000000000815260040161059390613ece565b60405180910390fd5b600354905090565b60008060009054906101000a900473ffffffffffffffffffffffffffffffffffffffff1673ffffffffffffffffffffffffffffffffffffffff163373ffffffffffffffffffffffffffffffffffffffff1614610635576040517f08c379a000000000000000000000000000000000000000000000000000000000815260040161062c90613ece565b60405180910390fd5b61063e8261310a565b61067d576040517f08c379a000000000000000000000000000000000000000000000000000000000815260040161067490613f0e565b60405180910390fd5b600060056000848152602001908152602001600020604051806101600160405290816000820180546106ae90614268565b80601f01602080910402602001604051908101604052809291908181526020018280546106da90614268565b80156107275780601f106106fc57610100808354040283529160200191610727565b820191906000526020600020905b81548152906001019060200180831161070a57829003601f168201915b5050505050815260200160018201805461074090614268565b80601f016020809104026020016040519081016040528092919081815260200182805461076c90614268565b80156107b95780601f1061078e576101008083540402835291602001916107b9565b820191906000526020600020905b81548152906001019060200180831161079c57829003601f168201915b505050505081526020016002820180546107d290614268565b80601f01602080910402602001604051908101604052809291908181526020018280546107fe90614268565b801561084b5780601f106108205761010080835404028352916020019161084b565b820191906000526020600020905b81548152906001019060200180831161082e57829003601f168201915b5050505050815260200160038201548152602001600482015481526020016005820154815260200160068201548152602001600782015481526020016008820160009054906101000a900460ff161515151581526020016008820160019054906101000a900460ff161515151581526020016008820160029054906101000a900460ff1615151515815250509050600061092f600a8360e001518460c0015185608001518660a00151876060015161090391906140bf565b61090d91906140bf565b61091791906140bf565b61092191906140bf565b6104e390919063ffffffff16565b90506001826101400190151590811515815250156109995760008590508073ffffffffffffffffffffffffffffffffffffffff166108fc839081150290604051600060405180830381858888f19350505050158015610992573d6000803e3d6000fd5b50506109d4565b6040517f08c379a00000000000000000000000000000000000000000000000000000000081526004016109cb90613f6e565b60405180910390fd5b50506001905092915050565b60006109eb8561310a565b610a2a576040517f08c379a0000000000000000000000000000000000000000000000000000000008152600401610a2190613f0e565b60405180910390fd5b85600460008973ffffffffffffffffffffffffffffffffffffffff1673ffffffffffffffffffffffffffffffffffffffff168152602001908152602001600020541015610aac576040517f08c379a0000000000000000000000000000000000000000000000000000000008152600401610aa390613f8e565b60405180910390fd5b60006005600087815260200190815260200160002060405180610160016040529081600082018054610add90614268565b80601f0160208091040260200160405190810160405280929190818152602001828054610b0990614268565b8015610b565780601f10610b2b57610100808354040283529160200191610b56565b820191906000526020600020905b815481529060010190602001808311610b3957829003601f168201915b50505050508152602001600182018054610b6f90614268565b80601f0160208091040260200160405190810160405280929190818152602001828054610b9b90614268565b8015610be85780601f10610bbd57610100808354040283529160200191610be8565b820191906000526020600020905b815481529060010190602001808311610bcb57829003601f168201915b50505050508152602001600282018054610c0190614268565b80601f0160208091040260200160405190810160405280929190818152602001828054610c2d90614268565b8015610c7a5780601f10610c4f57610100808354040283529160200191610c7a565b820191906000526020600020905b815481529060010190602001808311610c5d57829003601f168201915b5050505050815260200160038201548152602001600482015481526020016005820154815260200160068201548152602001600782015481526020016008820160009054906101000a900460ff161515151581526020016008820160019054906101000a900460ff161515151581526020016008820160029054906101000a900460ff16151515158152505090506000610d24610d1687613137565b610d1f87613137565b613168565b90506000610d3a610d34896132fe565b83613168565b9050505050600190509695505050505050565b60008060009054906101000a900473ffffffffffffffffffffffffffffffffffffffff1673ffffffffffffffffffffffffffffffffffffffff163373ffffffffffffffffffffffffffffffffffffffff1614610dde576040517f08c379a0000000000000000000000000000000000000000000000000000000008152600401610dd590613ece565b60405180910390fd5b60008290508073ffffffffffffffffffffffffffffffffffffffff166108fc6001600354610e0c91906141a0565b9081150290604051600060405180830381858888f19350505050158015610e37573d6000803e3d6000fd5b506001915050919050565b60008060009054906101000a900473ffffffffffffffffffffffffffffffffffffffff1673ffffffffffffffffffffffffffffffffffffffff163373ffffffffffffffffffffffffffffffffffffffff1614610ed3576040517f08c379a0000000000000000000000000000000000000000000000000000000008152600401610eca90613ece565b60405180910390fd5b610edc8361310a565b610f1b576040517f08c379a0000000000000000000000000000000000000000000000000000000008152600401610f1290613f0e565b60405180910390fd5b60006005600085815260200190815260200160002060405180610160016040529081600082018054610f4c90614268565b80601f0160208091040260200160405190810160405280929190818152602001828054610f7890614268565b8015610fc55780601f10610f9a57610100808354040283529160200191610fc5565b820191906000526020600020905b815481529060010190602001808311610fa857829003601f168201915b50505050508152602001600182018054610fde90614268565b80601f016020809104026020016040519081016040528092919081815260200182805461100a90614268565b80156110575780601f1061102c57610100808354040283529160200191611057565b820191906000526020600020905b81548152906001019060200180831161103a57829003601f168201915b5050505050815260200160028201805461107090614268565b80601f016020809104026020016040519081016040528092919081815260200182805461109c90614268565b80156110e95780601f106110be576101008083540402835291602001916110e9565b820191906000526020600020905b8154815290600101906020018083116110cc57829003601f168201915b5050505050815260200160038201548152602001600482015481526020016005820154815260200160068201548152602001600782015481526020016008820160009054906101000a900460ff161515151581526020016008820160019054906101000a900460ff161515151581526020016008820160029054906101000a900460ff161515151581525050905060008160e0015111156111bf576040517f08c379a00000000000000000000000000000000000000000000000000000000081526004016111b690613f2e565b60405180910390fd5b826001541115611204576040517f08c379a00000000000000000000000000000000000000000000000000000000081526004016111fb90613fae565b60405180910390fd5b828160e00181815161121691906140bf565b91508181525050826001600082825461122f91906141a0565b92505081905550600191505092915050565b60008060009054906101000a900473ffffffffffffffffffffffffffffffffffffffff1673ffffffffffffffffffffffffffffffffffffffff163373ffffffffffffffffffffffffffffffffffffffff16146112d2576040517f08c379a00000000000000000000000000000000000000000000000000000000081526004016112c990613ece565b60405180910390fd5b60006112de8686613168565b905060006112ec8286613168565b90506000816040516020016113019190613dd6565b6040516020818303038152906040528051906020012090506113228161310a565b15611362576040517f08c379a000000000000000000000000000000000000000000000000000000000815260040161135990613f4e565b60405180910390fd5b60016005600083815260200190815260200160002060080160016101000a81548160ff021916908315150217905550876005600083815260200190815260200160002060000190805190602001906113bb929190613651565b50866005600083815260200190815260200160002060010190805190602001906113e6929190613651565b5085600560008381526020019081526020016000206002019080519060200190611411929190613651565b506000600560008381526020019081526020016000206003018190555060006005600083815260200190815260200160002060040181905550600060056000838152602001908152602001600020600501819055506000600560008381526020019081526020016000206006018190555060006005600083815260200190815260200160002060070181905550846005600083815260200190815260200160002060080160006101000a81548160ff02191690831515021790555060006005600083815260200190815260200160002060080160026101000a81548160ff0219169083151502179055506002819080600181540180825580915050600190039060005260206000200160009091909190915055809350505050949350505050565b60008060009054906101000a900473ffffffffffffffffffffffffffffffffffffffff1673ffffffffffffffffffffffffffffffffffffffff163373ffffffffffffffffffffffffffffffffffffffff16146115c3576040517f08c379a00000000000000000000000000000000000000000000000000000000081526004016115ba90613ece565b60405180910390fd5b600154905090565b60008060009054906101000a900473ffffffffffffffffffffffffffffffffffffffff1673ffffffffffffffffffffffffffffffffffffffff163373ffffffffffffffffffffffffffffffffffffffff161461165c576040517f08c379a000000000000000000000000000000000000000000000000000000000815260040161165390613ece565b60405180910390fd5b6116658261310a565b6116a4576040517f08c379a000000000000000000000000000000000000000000000000000000000815260040161169b90613f0e565b60405180910390fd5b600060056000848152602001908152602001600020604051806101600160405290816000820180546116d590614268565b80601f016020809104026020016040519081016040528092919081815260200182805461170190614268565b801561174e5780601f106117235761010080835404028352916020019161174e565b820191906000526020600020905b81548152906001019060200180831161173157829003601f168201915b5050505050815260200160018201805461176790614268565b80601f016020809104026020016040519081016040528092919081815260200182805461179390614268565b80156117e05780601f106117b5576101008083540402835291602001916117e0565b820191906000526020600020905b8154815290600101906020018083116117c357829003601f168201915b505050505081526020016002820180546117f990614268565b80601f016020809104026020016040519081016040528092919081815260200182805461182590614268565b80156118725780601f1061184757610100808354040283529160200191611872565b820191906000526020600020905b81548152906001019060200180831161185557829003601f168201915b5050505050815260200160038201548152602001600482015481526020016005820154815260200160068201548152602001600782015481526020016008820160009054906101000a900460ff161515151581526020016008820160019054906101000a900460ff161515151581526020016008820160029054906101000a900460ff1615151515815250509050600061195c66038d7ea4c680008360e001518460c0015185608001518660a00151876060015161193091906140bf565b61193a91906140bf565b61194491906140bf565b61194e91906140bf565b61332f90919063ffffffff16565b90508092505050919050565b60006119738561310a565b6119b2576040517f08c379a00000000000000000000000000000000000000000000000000000000081526004016119a990613f0e565b60405180910390fd5b85600460008973ffffffffffffffffffffffffffffffffffffffff1673ffffffffffffffffffffffffffffffffffffffff168152602001908152602001600020541015611a34576040517f08c379a0000000000000000000000000000000000000000000000000000000008152600401611a2b90613f8e565b60405180910390fd5b60006005600087815260200190815260200160002060405180610160016040529081600082018054611a6590614268565b80601f0160208091040260200160405190810160405280929190818152602001828054611a9190614268565b8015611ade5780601f10611ab357610100808354040283529160200191611ade565b820191906000526020600020905b815481529060010190602001808311611ac157829003601f168201915b50505050508152602001600182018054611af790614268565b80601f0160208091040260200160405190810160405280929190818152602001828054611b2390614268565b8015611b705780601f10611b4557610100808354040283529160200191611b70565b820191906000526020600020905b815481529060010190602001808311611b5357829003601f168201915b50505050508152602001600282018054611b8990614268565b80601f0160208091040260200160405190810160405280929190818152602001828054611bb590614268565b8015611c025780601f10611bd757610100808354040283529160200191611c02565b820191906000526020600020905b815481529060010190602001808311611be557829003601f168201915b5050505050815260200160038201548152602001600482015481526020016005820154815260200160068201548152602001600782015481526020016008820160009054906101000a900460ff161515151581526020016008820160019054906101000a900460ff161515151581526020016008820160029054906101000a900460ff16151515158152505090506000611cac611c9e87613137565b611ca787613137565b613168565b90506000611cc2611cbc896132fe565b83613168565b905060006040518060e001604052808b81526020018781526020018981526020018881526020018c73ffffffffffffffffffffffffffffffffffffffff16815260200183815260200160001515815250905088600660008b815260200190815260200160002060010181905550600660008a81526020019081526020016000206000018190806001815401808255809150506001900390600052602060002090600702016000909190919091506000820151816000015560208201518160010155604082015181600201556060820151816003015560808201518160040160006101000a81548173ffffffffffffffffffffffffffffffffffffffff021916908373ffffffffffffffffffffffffffffffffffffffff16021790555060a0820151816005019080519060200190611dfa929190613651565b5060c08201518160060160006101000a81548160ff02191690831515021790555050508a600860008d73ffffffffffffffffffffffffffffffffffffffff1673ffffffffffffffffffffffffffffffffffffffff16815260200190815260200160002060010160006101000a81548173ffffffffffffffffffffffffffffffffffffffff021916908373ffffffffffffffffffffffffffffffffffffffff160217905550600660008a81526020019081526020016000206000018190806001815401808255809150506001900390600052602060002090600702016000909190919091506000820151816000015560208201518160010155604082015181600201556060820151816003015560808201518160040160006101000a81548173ffffffffffffffffffffffffffffffffffffffff021916908373ffffffffffffffffffffffffffffffffffffffff16021790555060a0820151816005019080519060200190611f69929190613651565b5060c08201518160060160006101000a81548160ff02191690831515021790555050506002861415611fe857898460c001818151611fa791906140bf565b9150818152505089600783604051611fbf9190613dd6565b90815260200160405180910390206000828254611fdc91906140bf565b92505081905550612052565b600386141561200f57898460600181815161200391906140bf565b91508181525050612051565b600186141561203657898460800181815161202a91906140bf565b91508181525050612050565b898460a00181815161204891906140bf565b915081815250505b5b5b89600460008d73ffffffffffffffffffffffffffffffffffffffff1673ffffffffffffffffffffffffffffffffffffffff16815260200190815260200160002060008282546120a191906141a0565b9250508190555050505050600190509695505050505050565b60008060009054906101000a900473ffffffffffffffffffffffffffffffffffffffff1673ffffffffffffffffffffffffffffffffffffffff163373ffffffffffffffffffffffffffffffffffffffff161461214b576040517f08c379a000000000000000000000000000000000000000000000000000000000815260040161214290613ece565b60405180910390fd5b6121548561310a565b612193576040517f08c379a000000000000000000000000000000000000000000000000000000000815260040161218a90613f0e565b60405180910390fd5b600060056000878152602001908152602001600020604051806101600160405290816000820180546121c490614268565b80601f01602080910402602001604051908101604052809291908181526020018280546121f090614268565b801561223d5780601f106122125761010080835404028352916020019161223d565b820191906000526020600020905b81548152906001019060200180831161222057829003601f168201915b5050505050815260200160018201805461225690614268565b80601f016020809104026020016040519081016040528092919081815260200182805461228290614268565b80156122cf5780601f106122a4576101008083540402835291602001916122cf565b820191906000526020600020905b8154815290600101906020018083116122b257829003601f168201915b505050505081526020016002820180546122e890614268565b80601f016020809104026020016040519081016040528092919081815260200182805461231490614268565b80156123615780601f1061233657610100808354040283529160200191612361565b820191906000526020600020905b81548152906001019060200180831161234457829003601f168201915b5050505050815260200160038201548152602001600482015481526020016005820154815260200160068201548152602001600782015481526020016008820160009054906101000a900460ff161515151581526020016008820160019054906101000a900460ff161515151581526020016008820160029054906101000a900460ff1615151515815250509050600181610140019015159081151581525015612440576040517f08c379a000000000000000000000000000000000000000000000000000000000815260040161243790613fce565b60405180910390fd5b600060066000888152602001908152602001600020600001805480602002602001604051908101604052809291908181526020016000905b828210156125d557838290600052602060002090600702016040518060e0016040529081600082015481526020016001820154815260200160028201548152602001600382015481526020016004820160009054906101000a900473ffffffffffffffffffffffffffffffffffffffff1673ffffffffffffffffffffffffffffffffffffffff1673ffffffffffffffffffffffffffffffffffffffff16815260200160058201805461252990614268565b80601f016020809104026020016040519081016040528092919081815260200182805461255590614268565b80156125a25780601f10612577576101008083540402835291602001916125a2565b820191906000526020600020905b81548152906001019060200180831161258557829003601f168201915b505050505081526020016006820160009054906101000a900460ff16151515158152505081526020019060010190612478565b505050509050600061264460146125fa60028660e001516104e390919063ffffffff16565b85608001518660a0015187606001518860c0015161261891906140bf565b61262291906140bf565b61262c91906140bf565b61263691906140bf565b6104e390919063ffffffff16565b6001600082825461265591906140bf565b9250508190555060005b6001835161266d91906141a0565b8111612b0b576000838281518110612688576126876143b5565b5b602002602001015160c0019015159081151581525015612af85760028382815181106126b7576126b66143b5565b5b602002602001015160200151141561288857612716606461270860556126eb60028960e001516104e390919063ffffffff16565b8860c001516126fa91906140bf565b61332f90919063ffffffff16565b6104e390919063ffffffff16565b91508783828151811061272c5761272b6143b5565b5b602002602001015160400151148015612762575086838281518110612754576127536143b5565b5b602002602001015160600151145b15612883576000600784838151811061277e5761277d6143b5565b5b602002602001015160a001516040516127979190613dd6565b90815260200160405180910390205490506000818584815181106127be576127bd6143b5565b5b602002602001015160000151856127d59190614146565b6127df9190614115565b905080600460008786815181106127f9576127f86143b5565b5b60200260200101516080015173ffffffffffffffffffffffffffffffffffffffff1673ffffffffffffffffffffffffffffffffffffffff168152602001908152602001600020600082825461284e91906140bf565b92505081905550600185848151811061286a576128696143b5565b5b602002602001015160c001901515908115158152505050505b612af7565b8583828151811061289c5761289b6143b5565b5b6020026020010151602001511415612af657612919606461290b60556128d060028960e001516104e390919063ffffffff16565b88608001518960a001518a606001516128e991906140bf565b6128f391906140bf565b6128fd91906140bf565b61332f90919063ffffffff16565b6104e390919063ffffffff16565b9150600080848381518110612931576129306143b5565b5b60200260200101516020015114156129715761296e606461296060558860a0015161332f90919063ffffffff16565b6104e390919063ffffffff16565b90505b6001848381518110612986576129856143b5565b5b60200260200101516020015114156129c6576129c360646129b56055886080015161332f90919063ffffffff16565b6104e390919063ffffffff16565b90505b60038483815181106129db576129da6143b5565b5b6020026020010151602001511415612a1b57612a186064612a0a6055886060015161332f90919063ffffffff16565b6104e390919063ffffffff16565b90505b600081858481518110612a3157612a306143b5565b5b60200260200101516000015185612a489190614146565b612a529190614115565b90508060046000878681518110612a6c57612a6b6143b5565b5b60200260200101516080015173ffffffffffffffffffffffffffffffffffffffff1673ffffffffffffffffffffffffffffffffffffffff1681526020019081526020016000206000828254612ac191906140bf565b925050819055506001858481518110612add57612adc6143b5565b5b602002602001015160c001901515908115158152505050505b5b5b8080612b03906142cb565b91505061265f565b5060018361014001901515908115158152505050505060019050949350505050565b60008060009054906101000a900473ffffffffffffffffffffffffffffffffffffffff1673ffffffffffffffffffffffffffffffffffffffff163373ffffffffffffffffffffffffffffffffffffffff1614612bbe576040517f08c379a0000000000000000000000000000000000000000000000000000000008152600401612bb590613ece565b60405180910390fd5b81600460008573ffffffffffffffffffffffffffffffffffffffff1673ffffffffffffffffffffffffffffffffffffffff1681526020019081526020016000205410158015612c4d57506000600460008573ffffffffffffffffffffffffffffffffffffffff1673ffffffffffffffffffffffffffffffffffffffff1681526020019081526020016000205410155b15612cfc5760008390508073ffffffffffffffffffffffffffffffffffffffff166108fc612cca662386f26fc10000600460008973ffffffffffffffffffffffffffffffffffffffff1673ffffffffffffffffffffffffffffffffffffffff1681526020019081526020016000205461332f90919063ffffffff16565b9081150290604051600060405180830381858888f19350505050158015612cf5573d6000803e3d6000fd5b5050612d37565b6040517f08c379a0000000000000000000000000000000000000000000000000000000008152600401612d2e90613f8e565b60405180910390fd5b6001905092915050565b6000600460003373ffffffffffffffffffffffffffffffffffffffff1673ffffffffffffffffffffffffffffffffffffffff16815260200190815260200160002054905090565b60606002805480602002602001604051908101604052809291908181526020018280548015612dd657602002820191906000526020600020905b815481526020019060010190808311612dc2575b5050505050905090565b606080612deb6136d7565b612df48461310a565b612e33576040517f08c379a0000000000000000000000000000000000000000000000000000000008152600401612e2a90613eee565b60405180910390fd5b6000612f12600560008781526020019081526020016000206000018054612e5990614268565b80601f0160208091040260200160405190810160405280929190818152602001828054612e8590614268565b8015612ed25780601f10612ea757610100808354040283529160200191612ed2565b820191906000526020600020905b815481529060010190602001808311612eb557829003601f168201915b50505050506040518060400160405280600481526020017f2076732000000000000000000000000000000000000000000000000000000000815250613168565b9050612fbc81600560008881526020019081526020016000206001018054612f3990614268565b80601f0160208091040260200160405190810160405280929190818152602001828054612f6590614268565b8015612fb25780601f10612f8757610100808354040283529160200191612fb2565b820191906000526020600020905b815481529060010190602001808311612f9557829003601f168201915b5050505050613168565b935060006040518060a00160405280600560008981526020019081526020016000206003015481526020016005600089815260200190815260200160002060040154815260200160056000898152602001908152602001600020600501548152602001600560008981526020019081526020016000206006015481526020016005600089815260200190815260200160002060070154815250905084600560008881526020019081526020016000206002018281805461307b90614268565b80601f01602080910402602001604051908101604052809291908181526020018280546130a790614268565b80156130f45780601f106130c9576101008083540402835291602001916130f4565b820191906000526020600020905b8154815290600101906020018083116130d757829003601f168201915b5050505050915094509450945050509193909250565b60006005600083815260200190815260200160002060080160019054906101000a900460ff169050919050565b60606131618260405160200161314d9190613ded565b604051602081830303815290604052613374565b9050919050565b60606000839050600083905060008151835161318491906140bf565b67ffffffffffffffff81111561319d5761319c6143e4565b5b6040519080825280601f01601f1916602001820160405280156131cf5781602001600182028036833780820191505090505b50905060008190506000805b8551811015613263578581815181106131f7576131f66143b5565b5b602001015160f81c60f81b83838061320e906142cb565b945081518110613221576132206143b5565b5b60200101907effffffffffffffffffffffffffffffffffffffffffffffffffffffffffffff1916908160001a905350808061325b906142cb565b9150506131db565b5060005b84518110156132ef57848181518110613283576132826143b5565b5b602001015160f81c60f81b83838061329a906142cb565b9450815181106132ad576132ac6143b5565b5b60200101907effffffffffffffffffffffffffffffffffffffffffffffffffffffffffffff1916908160001a90535080806132e7906142cb565b915050613267565b50829550505050505092915050565b6060613328826040516020016133149190613dbb565b604051602081830303815290604052613374565b9050919050565b600080831415613342576000905061336e565b600082846133509190614146565b905082848261335f9190614115565b1461336957600080fd5b809150505b92915050565b606060006040518060800160405280604281526020016146066042913990506000600284516133a39190614146565b60026133af91906140bf565b67ffffffffffffffff8111156133c8576133c76143e4565b5b6040519080825280601f01601f1916602001820160405280156133fa5781602001600182028036833780820191505090505b5090507f300000000000000000000000000000000000000000000000000000000000000081600081518110613432576134316143b5565b5b60200101907effffffffffffffffffffffffffffffffffffffffffffffffffffffffffffff1916908160001a9053507f780000000000000000000000000000000000000000000000000000000000000081600181518110613496576134956143b5565b5b60200101907effffffffffffffffffffffffffffffffffffffffffffffffffffffffffffff1916908160001a90535060005b8451811015613646578260048683815181106134e7576134e66143b5565b5b602001015160f81c60f81b7effffffffffffffffffffffffffffffffffffffffffffffffffffffffffffff1916901c60f81c60ff168151811061352d5761352c6143b5565b5b602001015160f81c60f81b826002836135469190614146565b600261355291906140bf565b81518110613563576135626143b5565b5b60200101907effffffffffffffffffffffffffffffffffffffffffffffffffffffffffffff1916908160001a90535082600f60f81b8683815181106135ab576135aa6143b5565b5b602001015160f81c60f81b1660f81c60ff16815181106135ce576135cd6143b5565b5b602001015160f81c60f81b826002836135e79190614146565b60036135f391906140bf565b81518110613604576136036143b5565b5b60200101907effffffffffffffffffffffffffffffffffffffffffffffffffffffffffffff1916908160001a905350808061363e906142cb565b9150506134c8565b508092505050919050565b82805461365d90614268565b90600052602060002090601f01602090048101928261367f57600085556136c6565b82601f1061369857805160ff19168380011785556136c6565b828001600101855582156136c6579182015b828111156136c55782518255916020019190600101906136aa565b5b5090506136d39190613706565b5090565b6040518060a0016040528060008152602001600081526020016000815260200160008152602001600081525090565b5b8082111561371f576000816000905550600101613707565b5090565b60006137366137318461402e565b614009565b90508281526020810184848401111561375257613751614418565b5b61375d848285614226565b509392505050565b600081359050613774816145a9565b92915050565b600081359050613789816145c0565b92915050565b60008135905061379e816145d7565b92915050565b600082601f8301126137b9576137b8614413565b5b81356137c9848260208601613723565b91505092915050565b6000813590506137e1816145ee565b92915050565b6000602082840312156137fd576137fc614422565b5b600061380b84828501613765565b91505092915050565b6000806040838503121561382b5761382a614422565b5b600061383985828601613765565b925050602061384a8582860161378f565b9150509250929050565b6000806040838503121561386b5761386a614422565b5b600061387985828601613765565b925050602061388a858286016137d2565b9150509250929050565b60008060008060008060c087890312156138b1576138b0614422565b5b60006138bf89828a01613765565b96505060206138d089828a016137d2565b95505060406138e189828a0161378f565b94505060606138f289828a016137d2565b935050608061390389828a016137d2565b92505060a061391489828a016137d2565b9150509295509295509295565b60006020828403121561393757613936614422565b5b60006139458482850161378f565b91505092915050565b6000806040838503121561396557613964614422565b5b60006139738582860161378f565b9250506020613984858286016137d2565b9150509250929050565b600080600080608085870312156139a8576139a7614422565b5b60006139b68782880161378f565b94505060206139c7878288016137d2565b93505060406139d8878288016137d2565b92505060606139e9878288016137d2565b91505092959194509250565b60008060008060808587031215613a0f57613a0e614422565b5b600085013567ffffffffffffffff811115613a2d57613a2c61441d565b5b613a39878288016137a4565b945050602085013567ffffffffffffffff811115613a5a57613a5961441d565b5b613a66878288016137a4565b935050604085013567ffffffffffffffff811115613a8757613a8661441d565b5b613a93878288016137a4565b9250506060613aa48782880161377a565b91505092959194509250565b6000613abc8383613b44565b60208301905092915050565b613ad1816141d4565b82525050565b6000613ae28261406f565b613aec8185614092565b9350613af78361405f565b8060005b83811015613b28578151613b0f8882613ab0565b9750613b1a83614085565b925050600181019050613afb565b5085935050505092915050565b613b3e816141e6565b82525050565b613b4d816141f2565b82525050565b613b5c816141f2565b82525050565b613b73613b6e826141f2565b614314565b82525050565b6000613b848261407a565b613b8e81856140a3565b9350613b9e818560208601614235565b613ba781614427565b840191505092915050565b6000613bbd8261407a565b613bc781856140b4565b9350613bd7818560208601614235565b80840191505092915050565b6000613bf06019836140a3565b9150613bfb82614438565b602082019050919050565b6000613c136009836140a3565b9150613c1e82614461565b602082019050919050565b6000613c36600e836140a3565b9150613c418261448a565b602082019050919050565b6000613c596017836140a3565b9150613c64826144b3565b602082019050919050565b6000613c7c600a836140a3565b9150613c87826144dc565b602082019050919050565b6000613c9f6015836140a3565b9150613caa82614505565b602082019050919050565b6000613cc26015836140a3565b9150613ccd8261452e565b602082019050919050565b6000613ce56010836140a3565b9150613cf082614557565b602082019050919050565b6000613d086011836140a3565b9150613d1382614580565b602082019050919050565b60a082016000820151613d346000850182613d86565b506020820151613d476020850182613d86565b506040820151613d5a6040850182613d86565b506060820151613d6d6060850182613d86565b506080820151613d806080850182613d86565b50505050565b613d8f8161421c565b82525050565b613d9e8161421c565b82525050565b613db5613db08261421c565b61431e565b82525050565b6000613dc78284613b62565b60208201915081905092915050565b6000613de28284613bb2565b915081905092915050565b6000613df98284613da4565b60208201915081905092915050565b6000604082019050613e1d6000830185613ac8565b613e2a6020830184613d95565b9392505050565b60006020820190508181036000830152613e4b8184613ad7565b905092915050565b6000602082019050613e686000830184613b35565b92915050565b6000602082019050613e836000830184613b53565b92915050565b600060e0820190508181036000830152613ea38186613b79565b90508181036020830152613eb78185613b79565b9050613ec66040830184613d1e565b949350505050565b60006020820190508181036000830152613ee781613be3565b9050919050565b60006020820190508181036000830152613f0781613c06565b9050919050565b60006020820190508181036000830152613f2781613c29565b9050919050565b60006020820190508181036000830152613f4781613c4c565b9050919050565b60006020820190508181036000830152613f6781613c6f565b9050919050565b60006020820190508181036000830152613f8781613c92565b9050919050565b60006020820190508181036000830152613fa781613cb5565b9050919050565b60006020820190508181036000830152613fc781613cd8565b9050919050565b60006020820190508181036000830152613fe781613cfb565b9050919050565b60006020820190506140036000830184613d95565b92915050565b6000614013614024565b905061401f828261429a565b919050565b6000604051905090565b600067ffffffffffffffff821115614049576140486143e4565b5b61405282614427565b9050602081019050919050565b6000819050602082019050919050565b600081519050919050565b600081519050919050565b6000602082019050919050565b600082825260208201905092915050565b600082825260208201905092915050565b600081905092915050565b60006140ca8261421c565b91506140d58361421c565b9250827fffffffffffffffffffffffffffffffffffffffffffffffffffffffffffffffff0382111561410a57614109614328565b5b828201905092915050565b60006141208261421c565b915061412b8361421c565b92508261413b5761413a614357565b5b828204905092915050565b60006141518261421c565b915061415c8361421c565b9250817fffffffffffffffffffffffffffffffffffffffffffffffffffffffffffffffff048311821515161561419557614194614328565b5b828202905092915050565b60006141ab8261421c565b91506141b68361421c565b9250828210156141c9576141c8614328565b5b828203905092915050565b60006141df826141fc565b9050919050565b60008115159050919050565b6000819050919050565b600073ffffffffffffffffffffffffffffffffffffffff82169050919050565b6000819050919050565b82818337600083830152505050565b60005b83811015614253578082015181840152602081019050614238565b83811115614262576000848401525b50505050565b6000600282049050600182168061428057607f821691505b6020821081141561429457614293614386565b5b50919050565b6142a382614427565b810181811067ffffffffffffffff821117156142c2576142c16143e4565b5b80604052505050565b60006142d68261421c565b91507fffffffffffffffffffffffffffffffffffffffffffffffffffffffffffffffff82141561430957614308614328565b5b600182019050919050565b6000819050919050565b6000819050919050565b7f4e487b7100000000000000000000000000000000000000000000000000000000600052601160045260246000fd5b7f4e487b7100000000000000000000000000000000000000000000000000000000600052601260045260246000fd5b7f4e487b7100000000000000000000000000000000000000000000000000000000600052602260045260246000fd5b7f4e487b7100000000000000000000000000000000000000000000000000000000600052603260045260246000fd5b7f4e487b7100000000000000000000000000000000000000000000000000000000600052604160045260246000fd5b600080fd5b600080fd5b600080fd5b600080fd5b6000601f19601f8301169050919050565b7f4f6e6c79206f776e65722063616e2063616c6c20746869732e00000000000000600082015250565b7f6e6f742065786973740000000000000000000000000000000000000000000000600082015250565b7f706f6f6c206e6f74206578697374000000000000000000000000000000000000600082015250565b7f706f6f6c20626173616c20686173206265656e20736574000000000000000000600082015250565b7f7061697220657869737400000000000000000000000000000000000000000000600082015250565b7f706f6f6c20686173206e6f742066696e69736865640000000000000000000000600082015250565b7f6e6f7420656e6f75676820766f7465416d6f756e740000000000000000000000600082015250565b7f6e6f7420656e6f75676820626173616c00000000000000000000000000000000600082015250565b7f706f6f6c206861732066696e6973686564000000000000000000000000000000600082015250565b6145b2816141d4565b81146145bd57600080fd5b50565b6145c9816141e6565b81146145d457600080fd5b50565b6145e0816141f2565b81146145eb57600080fd5b50565b6145f78161421c565b811461460257600080fd5b5056fe307865643633346465613034346665393266366438633936313263333834346334393531303534633534313761386533356338343237323063323236333361303464a26469706673582212205653556a6c78dce88b46d77d04e32bd6b9e0ecce03b692c7a6e4821cf0db611364736f6c63430008070033",
					"opcodes": "PUSH1 0x80 PUSH1 0x40 MSTORE CALLVALUE DUP1 ISZERO PUSH3 0x11 JUMPI PUSH1 0x0 DUP1 REVERT JUMPDEST POP PUSH1 0x40 MLOAD PUSH3 0x4807 CODESIZE SUB DUP1 PUSH3 0x4807 DUP4 CODECOPY DUP2 DUP2 ADD PUSH1 0x40 MSTORE DUP2 ADD SWAP1 PUSH3 0x37 SWAP2 SWAP1 PUSH3 0xBC JUMP JUMPDEST DUP2 PUSH1 0x0 DUP1 PUSH2 0x100 EXP DUP2 SLOAD DUP2 PUSH20 0xFFFFFFFFFFFFFFFFFFFFFFFFFFFFFFFFFFFFFFFF MUL NOT AND SWAP1 DUP4 PUSH20 0xFFFFFFFFFFFFFFFFFFFFFFFFFFFFFFFFFFFFFFFF AND MUL OR SWAP1 SSTORE POP PUSH1 0x0 PUSH1 0x3 DUP2 SWAP1 SSTORE POP DUP1 PUSH1 0x1 DUP2 SWAP1 SSTORE POP POP POP PUSH3 0x17A JUMP JUMPDEST PUSH1 0x0 DUP2 MLOAD SWAP1 POP PUSH3 0x9F DUP2 PUSH3 0x146 JUMP JUMPDEST SWAP3 SWAP2 POP POP JUMP JUMPDEST PUSH1 0x0 DUP2 MLOAD SWAP1 POP PUSH3 0xB6 DUP2 PUSH3 0x160 JUMP JUMPDEST SWAP3 SWAP2 POP POP JUMP JUMPDEST PUSH1 0x0 DUP1 PUSH1 0x40 DUP4 DUP6 SUB SLT ISZERO PUSH3 0xD6 JUMPI PUSH3 0xD5 PUSH3 0x141 JUMP JUMPDEST JUMPDEST PUSH1 0x0 PUSH3 0xE6 DUP6 DUP3 DUP7 ADD PUSH3 0x8E JUMP JUMPDEST SWAP3 POP POP PUSH1 0x20 PUSH3 0xF9 DUP6 DUP3 DUP7 ADD PUSH3 0xA5 JUMP JUMPDEST SWAP2 POP POP SWAP3 POP SWAP3 SWAP1 POP JUMP JUMPDEST PUSH1 0x0 PUSH3 0x110 DUP3 PUSH3 0x117 JUMP JUMPDEST SWAP1 POP SWAP2 SWAP1 POP JUMP JUMPDEST PUSH1 0x0 PUSH20 0xFFFFFFFFFFFFFFFFFFFFFFFFFFFFFFFFFFFFFFFF DUP3 AND SWAP1 POP SWAP2 SWAP1 POP JUMP JUMPDEST PUSH1 0x0 DUP2 SWAP1 POP SWAP2 SWAP1 POP JUMP JUMPDEST PUSH1 0x0 DUP1 REVERT JUMPDEST PUSH3 0x151 DUP2 PUSH3 0x103 JUMP JUMPDEST DUP2 EQ PUSH3 0x15D JUMPI PUSH1 0x0 DUP1 REVERT JUMPDEST POP JUMP JUMPDEST PUSH3 0x16B DUP2 PUSH3 0x137 JUMP JUMPDEST DUP2 EQ PUSH3 0x177 JUMPI PUSH1 0x0 DUP1 REVERT JUMPDEST POP JUMP JUMPDEST PUSH2 0x467D DUP1 PUSH3 0x18A PUSH1 0x0 CODECOPY PUSH1 0x0 RETURN INVALID PUSH1 0x80 PUSH1 0x40 MSTORE PUSH1 0x4 CALLDATASIZE LT PUSH2 0xE1 JUMPI PUSH1 0x0 CALLDATALOAD PUSH1 0xE0 SHR DUP1 PUSH4 0x4121855F GT PUSH2 0x7F JUMPI DUP1 PUSH4 0x9BD0ABF1 GT PUSH2 0x59 JUMPI DUP1 PUSH4 0x9BD0ABF1 EQ PUSH2 0x41E JUMPI DUP1 PUSH4 0xBAF41269 EQ PUSH2 0x44E JUMPI DUP1 PUSH4 0xEA8870C0 EQ PUSH2 0x479 JUMPI DUP1 PUSH4 0xF6C00927 EQ PUSH2 0x4A4 JUMPI PUSH2 0x202 JUMP JUMPDEST DUP1 PUSH4 0x4121855F EQ PUSH2 0x374 JUMPI DUP1 PUSH4 0x47E4DD27 EQ PUSH2 0x3B1 JUMPI DUP1 PUSH4 0x74FE9BC2 EQ PUSH2 0x3EE JUMPI PUSH2 0x202 JUMP JUMPDEST DUP1 PUSH4 0x2775E02C GT PUSH2 0xBB JUMPI DUP1 PUSH4 0x2775E02C EQ PUSH2 0x29F JUMPI DUP1 PUSH4 0x2BF21ECC EQ PUSH2 0x2CF JUMPI DUP1 PUSH4 0x357965BA EQ PUSH2 0x30C JUMPI DUP1 PUSH4 0x3E6FF1A2 EQ PUSH2 0x349 JUMPI PUSH2 0x202 JUMP JUMPDEST DUP1 PUSH4 0xC66B373 EQ PUSH2 0x207 JUMPI DUP1 PUSH4 0xCE49053 EQ PUSH2 0x232 JUMPI DUP1 PUSH4 0x22D8325C EQ PUSH2 0x262 JUMPI PUSH2 0x202 JUMP JUMPDEST CALLDATASIZE PUSH2 0x202 JUMPI PUSH1 0x0 DUP1 SLOAD SWAP1 PUSH2 0x100 EXP SWAP1 DIV PUSH20 0xFFFFFFFFFFFFFFFFFFFFFFFFFFFFFFFFFFFFFFFF AND PUSH20 0xFFFFFFFFFFFFFFFFFFFFFFFFFFFFFFFFFFFFFFFF AND CALLER PUSH20 0xFFFFFFFFFFFFFFFFFFFFFFFFFFFFFFFFFFFFFFFF AND EQ PUSH2 0x1FF JUMPI PUSH2 0x153 PUSH7 0x2386F26FC10000 CALLVALUE PUSH2 0x4E3 SWAP1 SWAP2 SWAP1 PUSH4 0xFFFFFFFF AND JUMP JUMPDEST PUSH1 0x4 PUSH1 0x0 CALLER PUSH20 0xFFFFFFFFFFFFFFFFFFFFFFFFFFFFFFFFFFFFFFFF AND PUSH20 0xFFFFFFFFFFFFFFFFFFFFFFFFFFFFFFFFFFFFFFFF AND DUP2 MSTORE PUSH1 0x20 ADD SWAP1 DUP2 MSTORE PUSH1 0x20 ADD PUSH1 0x0 KECCAK256 PUSH1 0x0 DUP3 DUP3 SLOAD PUSH2 0x1A1 SWAP2 SWAP1 PUSH2 0x40BF JUMP JUMPDEST SWAP3 POP POP DUP2 SWAP1 SSTORE POP CALLVALUE PUSH1 0x3 PUSH1 0x0 DUP3 DUP3 SLOAD PUSH2 0x1BA SWAP2 SWAP1 PUSH2 0x40BF JUMP JUMPDEST SWAP3 POP POP DUP2 SWAP1 SSTORE POP PUSH32 0x88A5966D370B9919B20F3E2C13FF65706F196A4E32CC2C12BF57088F88525874 CALLER CALLVALUE PUSH1 0x40 MLOAD PUSH2 0x1F2 SWAP3 SWAP2 SWAP1 PUSH2 0x3E08 JUMP JUMPDEST PUSH1 0x40 MLOAD DUP1 SWAP2 SUB SWAP1 LOG1 PUSH2 0x200 JUMP JUMPDEST JUMPDEST STOP JUMPDEST PUSH1 0x0 DUP1 REVERT JUMPDEST CALLVALUE DUP1 ISZERO PUSH2 0x213 JUMPI PUSH1 0x0 DUP1 REVERT JUMPDEST POP PUSH2 0x21C PUSH2 0x50B JUMP JUMPDEST PUSH1 0x40 MLOAD PUSH2 0x229 SWAP2 SWAP1 PUSH2 0x3FEE JUMP JUMPDEST PUSH1 0x40 MLOAD DUP1 SWAP2 SUB SWAP1 RETURN JUMPDEST PUSH2 0x24C PUSH1 0x4 DUP1 CALLDATASIZE SUB DUP2 ADD SWAP1 PUSH2 0x247 SWAP2 SWAP1 PUSH2 0x3814 JUMP JUMPDEST PUSH2 0x5A4 JUMP JUMPDEST PUSH1 0x40 MLOAD PUSH2 0x259 SWAP2 SWAP1 PUSH2 0x3E53 JUMP JUMPDEST PUSH1 0x40 MLOAD DUP1 SWAP2 SUB SWAP1 RETURN JUMPDEST CALLVALUE DUP1 ISZERO PUSH2 0x26E JUMPI PUSH1 0x0 DUP1 REVERT JUMPDEST POP PUSH2 0x289 PUSH1 0x4 DUP1 CALLDATASIZE SUB DUP2 ADD SWAP1 PUSH2 0x284 SWAP2 SWAP1 PUSH2 0x3894 JUMP JUMPDEST PUSH2 0x9E0 JUMP JUMPDEST PUSH1 0x40 MLOAD PUSH2 0x296 SWAP2 SWAP1 PUSH2 0x3E53 JUMP JUMPDEST PUSH1 0x40 MLOAD DUP1 SWAP2 SUB SWAP1 RETURN JUMPDEST PUSH2 0x2B9 PUSH1 0x4 DUP1 CALLDATASIZE SUB DUP2 ADD SWAP1 PUSH2 0x2B4 SWAP2 SWAP1 PUSH2 0x37E7 JUMP JUMPDEST PUSH2 0xD4D JUMP JUMPDEST PUSH1 0x40 MLOAD PUSH2 0x2C6 SWAP2 SWAP1 PUSH2 0x3E53 JUMP JUMPDEST PUSH1 0x40 MLOAD DUP1 SWAP2 SUB SWAP1 RETURN JUMPDEST CALLVALUE DUP1 ISZERO PUSH2 0x2DB JUMPI PUSH1 0x0 DUP1 REVERT JUMPDEST POP PUSH2 0x2F6 PUSH1 0x4 DUP1 CALLDATASIZE SUB DUP2 ADD SWAP1 PUSH2 0x2F1 SWAP2 SWAP1 PUSH2 0x394E JUMP JUMPDEST PUSH2 0xE42 JUMP JUMPDEST PUSH1 0x40 MLOAD PUSH2 0x303 SWAP2 SWAP1 PUSH2 0x3E53 JUMP JUMPDEST PUSH1 0x40 MLOAD DUP1 SWAP2 SUB SWAP1 RETURN JUMPDEST CALLVALUE DUP1 ISZERO PUSH2 0x318 JUMPI PUSH1 0x0 DUP1 REVERT JUMPDEST POP PUSH2 0x333 PUSH1 0x4 DUP1 CALLDATASIZE SUB DUP2 ADD SWAP1 PUSH2 0x32E SWAP2 SWAP1 PUSH2 0x39F5 JUMP JUMPDEST PUSH2 0x1241 JUMP JUMPDEST PUSH1 0x40 MLOAD PUSH2 0x340 SWAP2 SWAP1 PUSH2 0x3E6E JUMP JUMPDEST PUSH1 0x40 MLOAD DUP1 SWAP2 SUB SWAP1 RETURN JUMPDEST CALLVALUE DUP1 ISZERO PUSH2 0x355 JUMPI PUSH1 0x0 DUP1 REVERT JUMPDEST POP PUSH2 0x35E PUSH2 0x1532 JUMP JUMPDEST PUSH1 0x40 MLOAD PUSH2 0x36B SWAP2 SWAP1 PUSH2 0x3FEE JUMP JUMPDEST PUSH1 0x40 MLOAD DUP1 SWAP2 SUB SWAP1 RETURN JUMPDEST CALLVALUE DUP1 ISZERO PUSH2 0x380 JUMPI PUSH1 0x0 DUP1 REVERT JUMPDEST POP PUSH2 0x39B PUSH1 0x4 DUP1 CALLDATASIZE SUB DUP2 ADD SWAP1 PUSH2 0x396 SWAP2 SWAP1 PUSH2 0x3921 JUMP JUMPDEST PUSH2 0x15CB JUMP JUMPDEST PUSH1 0x40 MLOAD PUSH2 0x3A8 SWAP2 SWAP1 PUSH2 0x3FEE JUMP JUMPDEST PUSH1 0x40 MLOAD DUP1 SWAP2 SUB SWAP1 RETURN JUMPDEST CALLVALUE DUP1 ISZERO PUSH2 0x3BD JUMPI PUSH1 0x0 DUP1 REVERT JUMPDEST POP PUSH2 0x3D8 PUSH1 0x4 DUP1 CALLDATASIZE SUB DUP2 ADD SWAP1 PUSH2 0x3D3 SWAP2 SWAP1 PUSH2 0x3894 JUMP JUMPDEST PUSH2 0x1968 JUMP JUMPDEST PUSH1 0x40 MLOAD PUSH2 0x3E5 SWAP2 SWAP1 PUSH2 0x3E53 JUMP JUMPDEST PUSH1 0x40 MLOAD DUP1 SWAP2 SUB SWAP1 RETURN JUMPDEST PUSH2 0x408 PUSH1 0x4 DUP1 CALLDATASIZE SUB DUP2 ADD SWAP1 PUSH2 0x403 SWAP2 SWAP1 PUSH2 0x398E JUMP JUMPDEST PUSH2 0x20BA JUMP JUMPDEST PUSH1 0x40 MLOAD PUSH2 0x415 SWAP2 SWAP1 PUSH2 0x3E53 JUMP JUMPDEST PUSH1 0x40 MLOAD DUP1 SWAP2 SUB SWAP1 RETURN JUMPDEST PUSH2 0x438 PUSH1 0x4 DUP1 CALLDATASIZE SUB DUP2 ADD SWAP1 PUSH2 0x433 SWAP2 SWAP1 PUSH2 0x3854 JUMP JUMPDEST PUSH2 0x2B2D JUMP JUMPDEST PUSH1 0x40 MLOAD PUSH2 0x445 SWAP2 SWAP1 PUSH2 0x3E53 JUMP JUMPDEST PUSH1 0x40 MLOAD DUP1 SWAP2 SUB SWAP1 RETURN JUMPDEST CALLVALUE DUP1 ISZERO PUSH2 0x45A JUMPI PUSH1 0x0 DUP1 REVERT JUMPDEST POP PUSH2 0x463 PUSH2 0x2D41 JUMP JUMPDEST PUSH1 0x40 MLOAD PUSH2 0x470 SWAP2 SWAP1 PUSH2 0x3FEE JUMP JUMPDEST PUSH1 0x40 MLOAD DUP1 SWAP2 SUB SWAP1 RETURN JUMPDEST CALLVALUE DUP1 ISZERO PUSH2 0x485 JUMPI PUSH1 0x0 DUP1 REVERT JUMPDEST POP PUSH2 0x48E PUSH2 0x2D88 JUMP JUMPDEST PUSH1 0x40 MLOAD PUSH2 0x49B SWAP2 SWAP1 PUSH2 0x3E31 JUMP JUMPDEST PUSH1 0x40 MLOAD DUP1 SWAP2 SUB SWAP1 RETURN JUMPDEST CALLVALUE DUP1 ISZERO PUSH2 0x4B0 JUMPI PUSH1 0x0 DUP1 REVERT JUMPDEST POP PUSH2 0x4CB PUSH1 0x4 DUP1 CALLDATASIZE SUB DUP2 ADD SWAP1 PUSH2 0x4C6 SWAP2 SWAP1 PUSH2 0x3921 JUMP JUMPDEST PUSH2 0x2DE0 JUMP JUMPDEST PUSH1 0x40 MLOAD PUSH2 0x4DA SWAP4 SWAP3 SWAP2 SWAP1 PUSH2 0x3E89 JUMP JUMPDEST PUSH1 0x40 MLOAD DUP1 SWAP2 SUB SWAP1 RETURN JUMPDEST PUSH1 0x0 DUP1 DUP3 GT PUSH2 0x4F1 JUMPI PUSH1 0x0 DUP1 REVERT JUMPDEST PUSH1 0x0 DUP3 DUP5 PUSH2 0x4FF SWAP2 SWAP1 PUSH2 0x4115 JUMP JUMPDEST SWAP1 POP DUP1 SWAP2 POP POP SWAP3 SWAP2 POP POP JUMP JUMPDEST PUSH1 0x0 DUP1 PUSH1 0x0 SWAP1 SLOAD SWAP1 PUSH2 0x100 EXP SWAP1 DIV PUSH20 0xFFFFFFFFFFFFFFFFFFFFFFFFFFFFFFFFFFFFFFFF AND PUSH20 0xFFFFFFFFFFFFFFFFFFFFFFFFFFFFFFFFFFFFFFFF AND CALLER PUSH20 0xFFFFFFFFFFFFFFFFFFFFFFFFFFFFFFFFFFFFFFFF AND EQ PUSH2 0x59C JUMPI PUSH1 0x40 MLOAD PUSH32 0x8C379A000000000000000000000000000000000000000000000000000000000 DUP2 MSTORE PUSH1 0x4 ADD PUSH2 0x593 SWAP1 PUSH2 0x3ECE JUMP JUMPDEST PUSH1 0x40 MLOAD DUP1 SWAP2 SUB SWAP1 REVERT JUMPDEST PUSH1 0x3 SLOAD SWAP1 POP SWAP1 JUMP JUMPDEST PUSH1 0x0 DUP1 PUSH1 0x0 SWAP1 SLOAD SWAP1 PUSH2 0x100 EXP SWAP1 DIV PUSH20 0xFFFFFFFFFFFFFFFFFFFFFFFFFFFFFFFFFFFFFFFF AND PUSH20 0xFFFFFFFFFFFFFFFFFFFFFFFFFFFFFFFFFFFFFFFF AND CALLER PUSH20 0xFFFFFFFFFFFFFFFFFFFFFFFFFFFFFFFFFFFFFFFF AND EQ PUSH2 0x635 JUMPI PUSH1 0x40 MLOAD PUSH32 0x8C379A000000000000000000000000000000000000000000000000000000000 DUP2 MSTORE PUSH1 0x4 ADD PUSH2 0x62C SWAP1 PUSH2 0x3ECE JUMP JUMPDEST PUSH1 0x40 MLOAD DUP1 SWAP2 SUB SWAP1 REVERT JUMPDEST PUSH2 0x63E DUP3 PUSH2 0x310A JUMP JUMPDEST PUSH2 0x67D JUMPI PUSH1 0x40 MLOAD PUSH32 0x8C379A000000000000000000000000000000000000000000000000000000000 DUP2 MSTORE PUSH1 0x4 ADD PUSH2 0x674 SWAP1 PUSH2 0x3F0E JUMP JUMPDEST PUSH1 0x40 MLOAD DUP1 SWAP2 SUB SWAP1 REVERT JUMPDEST PUSH1 0x0 PUSH1 0x5 PUSH1 0x0 DUP5 DUP2 MSTORE PUSH1 0x20 ADD SWAP1 DUP2 MSTORE PUSH1 0x20 ADD PUSH1 0x0 KECCAK256 PUSH1 0x40 MLOAD DUP1 PUSH2 0x160 ADD PUSH1 0x40 MSTORE SWAP1 DUP2 PUSH1 0x0 DUP3 ADD DUP1 SLOAD PUSH2 0x6AE SWAP1 PUSH2 0x4268 JUMP JUMPDEST DUP1 PUSH1 0x1F ADD PUSH1 0x20 DUP1 SWAP2 DIV MUL PUSH1 0x20 ADD PUSH1 0x40 MLOAD SWAP1 DUP2 ADD PUSH1 0x40 MSTORE DUP1 SWAP3 SWAP2 SWAP1 DUP2 DUP2 MSTORE PUSH1 0x20 ADD DUP3 DUP1 SLOAD PUSH2 0x6DA SWAP1 PUSH2 0x4268 JUMP JUMPDEST DUP1 ISZERO PUSH2 0x727 JUMPI DUP1 PUSH1 0x1F LT PUSH2 0x6FC JUMPI PUSH2 0x100 DUP1 DUP4 SLOAD DIV MUL DUP4 MSTORE SWAP2 PUSH1 0x20 ADD SWAP2 PUSH2 0x727 JUMP JUMPDEST DUP3 ADD SWAP2 SWAP1 PUSH1 0x0 MSTORE PUSH1 0x20 PUSH1 0x0 KECCAK256 SWAP1 JUMPDEST DUP2 SLOAD DUP2 MSTORE SWAP1 PUSH1 0x1 ADD SWAP1 PUSH1 0x20 ADD DUP1 DUP4 GT PUSH2 0x70A JUMPI DUP3 SWAP1 SUB PUSH1 0x1F AND DUP3 ADD SWAP2 JUMPDEST POP POP POP POP POP DUP2 MSTORE PUSH1 0x20 ADD PUSH1 0x1 DUP3 ADD DUP1 SLOAD PUSH2 0x740 SWAP1 PUSH2 0x4268 JUMP JUMPDEST DUP1 PUSH1 0x1F ADD PUSH1 0x20 DUP1 SWAP2 DIV MUL PUSH1 0x20 ADD PUSH1 0x40 MLOAD SWAP1 DUP2 ADD PUSH1 0x40 MSTORE DUP1 SWAP3 SWAP2 SWAP1 DUP2 DUP2 MSTORE PUSH1 0x20 ADD DUP3 DUP1 SLOAD PUSH2 0x76C SWAP1 PUSH2 0x4268 JUMP JUMPDEST DUP1 ISZERO PUSH2 0x7B9 JUMPI DUP1 PUSH1 0x1F LT PUSH2 0x78E JUMPI PUSH2 0x100 DUP1 DUP4 SLOAD DIV MUL DUP4 MSTORE SWAP2 PUSH1 0x20 ADD SWAP2 PUSH2 0x7B9 JUMP JUMPDEST DUP3 ADD SWAP2 SWAP1 PUSH1 0x0 MSTORE PUSH1 0x20 PUSH1 0x0 KECCAK256 SWAP1 JUMPDEST DUP2 SLOAD DUP2 MSTORE SWAP1 PUSH1 0x1 ADD SWAP1 PUSH1 0x20 ADD DUP1 DUP4 GT PUSH2 0x79C JUMPI DUP3 SWAP1 SUB PUSH1 0x1F AND DUP3 ADD SWAP2 JUMPDEST POP POP POP POP POP DUP2 MSTORE PUSH1 0x20 ADD PUSH1 0x2 DUP3 ADD DUP1 SLOAD PUSH2 0x7D2 SWAP1 PUSH2 0x4268 JUMP JUMPDEST DUP1 PUSH1 0x1F ADD PUSH1 0x20 DUP1 SWAP2 DIV MUL PUSH1 0x20 ADD PUSH1 0x40 MLOAD SWAP1 DUP2 ADD PUSH1 0x40 MSTORE DUP1 SWAP3 SWAP2 SWAP1 DUP2 DUP2 MSTORE PUSH1 0x20 ADD DUP3 DUP1 SLOAD PUSH2 0x7FE SWAP1 PUSH2 0x4268 JUMP JUMPDEST DUP1 ISZERO PUSH2 0x84B JUMPI DUP1 PUSH1 0x1F LT PUSH2 0x820 JUMPI PUSH2 0x100 DUP1 DUP4 SLOAD DIV MUL DUP4 MSTORE SWAP2 PUSH1 0x20 ADD SWAP2 PUSH2 0x84B JUMP JUMPDEST DUP3 ADD SWAP2 SWAP1 PUSH1 0x0 MSTORE PUSH1 0x20 PUSH1 0x0 KECCAK256 SWAP1 JUMPDEST DUP2 SLOAD DUP2 MSTORE SWAP1 PUSH1 0x1 ADD SWAP1 PUSH1 0x20 ADD DUP1 DUP4 GT PUSH2 0x82E JUMPI DUP3 SWAP1 SUB PUSH1 0x1F AND DUP3 ADD SWAP2 JUMPDEST POP POP POP POP POP DUP2 MSTORE PUSH1 0x20 ADD PUSH1 0x3 DUP3 ADD SLOAD DUP2 MSTORE PUSH1 0x20 ADD PUSH1 0x4 DUP3 ADD SLOAD DUP2 MSTORE PUSH1 0x20 ADD PUSH1 0x5 DUP3 ADD SLOAD DUP2 MSTORE PUSH1 0x20 ADD PUSH1 0x6 DUP3 ADD SLOAD DUP2 MSTORE PUSH1 0x20 ADD PUSH1 0x7 DUP3 ADD SLOAD DUP2 MSTORE PUSH1 0x20 ADD PUSH1 0x8 DUP3 ADD PUSH1 0x0 SWAP1 SLOAD SWAP1 PUSH2 0x100 EXP SWAP1 DIV PUSH1 0xFF AND ISZERO ISZERO ISZERO ISZERO DUP2 MSTORE PUSH1 0x20 ADD PUSH1 0x8 DUP3 ADD PUSH1 0x1 SWAP1 SLOAD SWAP1 PUSH2 0x100 EXP SWAP1 DIV PUSH1 0xFF AND ISZERO ISZERO ISZERO ISZERO DUP2 MSTORE PUSH1 0x20 ADD PUSH1 0x8 DUP3 ADD PUSH1 0x2 SWAP1 SLOAD SWAP1 PUSH2 0x100 EXP SWAP1 DIV PUSH1 0xFF AND ISZERO ISZERO ISZERO ISZERO DUP2 MSTORE POP POP SWAP1 POP PUSH1 0x0 PUSH2 0x92F PUSH1 0xA DUP4 PUSH1 0xE0 ADD MLOAD DUP5 PUSH1 0xC0 ADD MLOAD DUP6 PUSH1 0x80 ADD MLOAD DUP7 PUSH1 0xA0 ADD MLOAD DUP8 PUSH1 0x60 ADD MLOAD PUSH2 0x903 SWAP2 SWAP1 PUSH2 0x40BF JUMP JUMPDEST PUSH2 0x90D SWAP2 SWAP1 PUSH2 0x40BF JUMP JUMPDEST PUSH2 0x917 SWAP2 SWAP1 PUSH2 0x40BF JUMP JUMPDEST PUSH2 0x921 SWAP2 SWAP1 PUSH2 0x40BF JUMP JUMPDEST PUSH2 0x4E3 SWAP1 SWAP2 SWAP1 PUSH4 0xFFFFFFFF AND JUMP JUMPDEST SWAP1 POP PUSH1 0x1 DUP3 PUSH2 0x140 ADD SWAP1 ISZERO ISZERO SWAP1 DUP2 ISZERO ISZERO DUP2 MSTORE POP ISZERO PUSH2 0x999 JUMPI PUSH1 0x0 DUP6 SWAP1 POP DUP1 PUSH20 0xFFFFFFFFFFFFFFFFFFFFFFFFFFFFFFFFFFFFFFFF AND PUSH2 0x8FC DUP4 SWAP1 DUP2 ISZERO MUL SWAP1 PUSH1 0x40 MLOAD PUSH1 0x0 PUSH1 0x40 MLOAD DUP1 DUP4 SUB DUP2 DUP6 DUP9 DUP9 CALL SWAP4 POP POP POP POP ISZERO DUP1 ISZERO PUSH2 0x992 JUMPI RETURNDATASIZE PUSH1 0x0 DUP1 RETURNDATACOPY RETURNDATASIZE PUSH1 0x0 REVERT JUMPDEST POP POP PUSH2 0x9D4 JUMP JUMPDEST PUSH1 0x40 MLOAD PUSH32 0x8C379A000000000000000000000000000000000000000000000000000000000 DUP2 MSTORE PUSH1 0x4 ADD PUSH2 0x9CB SWAP1 PUSH2 0x3F6E JUMP JUMPDEST PUSH1 0x40 MLOAD DUP1 SWAP2 SUB SWAP1 REVERT JUMPDEST POP POP PUSH1 0x1 SWAP1 POP SWAP3 SWAP2 POP POP JUMP JUMPDEST PUSH1 0x0 PUSH2 0x9EB DUP6 PUSH2 0x310A JUMP JUMPDEST PUSH2 0xA2A JUMPI PUSH1 0x40 MLOAD PUSH32 0x8C379A000000000000000000000000000000000000000000000000000000000 DUP2 MSTORE PUSH1 0x4 ADD PUSH2 0xA21 SWAP1 PUSH2 0x3F0E JUMP JUMPDEST PUSH1 0x40 MLOAD DUP1 SWAP2 SUB SWAP1 REVERT JUMPDEST DUP6 PUSH1 0x4 PUSH1 0x0 DUP10 PUSH20 0xFFFFFFFFFFFFFFFFFFFFFFFFFFFFFFFFFFFFFFFF AND PUSH20 0xFFFFFFFFFFFFFFFFFFFFFFFFFFFFFFFFFFFFFFFF AND DUP2 MSTORE PUSH1 0x20 ADD SWAP1 DUP2 MSTORE PUSH1 0x20 ADD PUSH1 0x0 KECCAK256 SLOAD LT ISZERO PUSH2 0xAAC JUMPI PUSH1 0x40 MLOAD PUSH32 0x8C379A000000000000000000000000000000000000000000000000000000000 DUP2 MSTORE PUSH1 0x4 ADD PUSH2 0xAA3 SWAP1 PUSH2 0x3F8E JUMP JUMPDEST PUSH1 0x40 MLOAD DUP1 SWAP2 SUB SWAP1 REVERT JUMPDEST PUSH1 0x0 PUSH1 0x5 PUSH1 0x0 DUP8 DUP2 MSTORE PUSH1 0x20 ADD SWAP1 DUP2 MSTORE PUSH1 0x20 ADD PUSH1 0x0 KECCAK256 PUSH1 0x40 MLOAD DUP1 PUSH2 0x160 ADD PUSH1 0x40 MSTORE SWAP1 DUP2 PUSH1 0x0 DUP3 ADD DUP1 SLOAD PUSH2 0xADD SWAP1 PUSH2 0x4268 JUMP JUMPDEST DUP1 PUSH1 0x1F ADD PUSH1 0x20 DUP1 SWAP2 DIV MUL PUSH1 0x20 ADD PUSH1 0x40 MLOAD SWAP1 DUP2 ADD PUSH1 0x40 MSTORE DUP1 SWAP3 SWAP2 SWAP1 DUP2 DUP2 MSTORE PUSH1 0x20 ADD DUP3 DUP1 SLOAD PUSH2 0xB09 SWAP1 PUSH2 0x4268 JUMP JUMPDEST DUP1 ISZERO PUSH2 0xB56 JUMPI DUP1 PUSH1 0x1F LT PUSH2 0xB2B JUMPI PUSH2 0x100 DUP1 DUP4 SLOAD DIV MUL DUP4 MSTORE SWAP2 PUSH1 0x20 ADD SWAP2 PUSH2 0xB56 JUMP JUMPDEST DUP3 ADD SWAP2 SWAP1 PUSH1 0x0 MSTORE PUSH1 0x20 PUSH1 0x0 KECCAK256 SWAP1 JUMPDEST DUP2 SLOAD DUP2 MSTORE SWAP1 PUSH1 0x1 ADD SWAP1 PUSH1 0x20 ADD DUP1 DUP4 GT PUSH2 0xB39 JUMPI DUP3 SWAP1 SUB PUSH1 0x1F AND DUP3 ADD SWAP2 JUMPDEST POP POP POP POP POP DUP2 MSTORE PUSH1 0x20 ADD PUSH1 0x1 DUP3 ADD DUP1 SLOAD PUSH2 0xB6F SWAP1 PUSH2 0x4268 JUMP JUMPDEST DUP1 PUSH1 0x1F ADD PUSH1 0x20 DUP1 SWAP2 DIV MUL PUSH1 0x20 ADD PUSH1 0x40 MLOAD SWAP1 DUP2 ADD PUSH1 0x40 MSTORE DUP1 SWAP3 SWAP2 SWAP1 DUP2 DUP2 MSTORE PUSH1 0x20 ADD DUP3 DUP1 SLOAD PUSH2 0xB9B SWAP1 PUSH2 0x4268 JUMP JUMPDEST DUP1 ISZERO PUSH2 0xBE8 JUMPI DUP1 PUSH1 0x1F LT PUSH2 0xBBD JUMPI PUSH2 0x100 DUP1 DUP4 SLOAD DIV MUL DUP4 MSTORE SWAP2 PUSH1 0x20 ADD SWAP2 PUSH2 0xBE8 JUMP JUMPDEST DUP3 ADD SWAP2 SWAP1 PUSH1 0x0 MSTORE PUSH1 0x20 PUSH1 0x0 KECCAK256 SWAP1 JUMPDEST DUP2 SLOAD DUP2 MSTORE SWAP1 PUSH1 0x1 ADD SWAP1 PUSH1 0x20 ADD DUP1 DUP4 GT PUSH2 0xBCB JUMPI DUP3 SWAP1 SUB PUSH1 0x1F AND DUP3 ADD SWAP2 JUMPDEST POP POP POP POP POP DUP2 MSTORE PUSH1 0x20 ADD PUSH1 0x2 DUP3 ADD DUP1 SLOAD PUSH2 0xC01 SWAP1 PUSH2 0x4268 JUMP JUMPDEST DUP1 PUSH1 0x1F ADD PUSH1 0x20 DUP1 SWAP2 DIV MUL PUSH1 0x20 ADD PUSH1 0x40 MLOAD SWAP1 DUP2 ADD PUSH1 0x40 MSTORE DUP1 SWAP3 SWAP2 SWAP1 DUP2 DUP2 MSTORE PUSH1 0x20 ADD DUP3 DUP1 SLOAD PUSH2 0xC2D SWAP1 PUSH2 0x4268 JUMP JUMPDEST DUP1 ISZERO PUSH2 0xC7A JUMPI DUP1 PUSH1 0x1F LT PUSH2 0xC4F JUMPI PUSH2 0x100 DUP1 DUP4 SLOAD DIV MUL DUP4 MSTORE SWAP2 PUSH1 0x20 ADD SWAP2 PUSH2 0xC7A JUMP JUMPDEST DUP3 ADD SWAP2 SWAP1 PUSH1 0x0 MSTORE PUSH1 0x20 PUSH1 0x0 KECCAK256 SWAP1 JUMPDEST DUP2 SLOAD DUP2 MSTORE SWAP1 PUSH1 0x1 ADD SWAP1 PUSH1 0x20 ADD DUP1 DUP4 GT PUSH2 0xC5D JUMPI DUP3 SWAP1 SUB PUSH1 0x1F AND DUP3 ADD SWAP2 JUMPDEST POP POP POP POP POP DUP2 MSTORE PUSH1 0x20 ADD PUSH1 0x3 DUP3 ADD SLOAD DUP2 MSTORE PUSH1 0x20 ADD PUSH1 0x4 DUP3 ADD SLOAD DUP2 MSTORE PUSH1 0x20 ADD PUSH1 0x5 DUP3 ADD SLOAD DUP2 MSTORE PUSH1 0x20 ADD PUSH1 0x6 DUP3 ADD SLOAD DUP2 MSTORE PUSH1 0x20 ADD PUSH1 0x7 DUP3 ADD SLOAD DUP2 MSTORE PUSH1 0x20 ADD PUSH1 0x8 DUP3 ADD PUSH1 0x0 SWAP1 SLOAD SWAP1 PUSH2 0x100 EXP SWAP1 DIV PUSH1 0xFF AND ISZERO ISZERO ISZERO ISZERO DUP2 MSTORE PUSH1 0x20 ADD PUSH1 0x8 DUP3 ADD PUSH1 0x1 SWAP1 SLOAD SWAP1 PUSH2 0x100 EXP SWAP1 DIV PUSH1 0xFF AND ISZERO ISZERO ISZERO ISZERO DUP2 MSTORE PUSH1 0x20 ADD PUSH1 0x8 DUP3 ADD PUSH1 0x2 SWAP1 SLOAD SWAP1 PUSH2 0x100 EXP SWAP1 DIV PUSH1 0xFF AND ISZERO ISZERO ISZERO ISZERO DUP2 MSTORE POP POP SWAP1 POP PUSH1 0x0 PUSH2 0xD24 PUSH2 0xD16 DUP8 PUSH2 0x3137 JUMP JUMPDEST PUSH2 0xD1F DUP8 PUSH2 0x3137 JUMP JUMPDEST PUSH2 0x3168 JUMP JUMPDEST SWAP1 POP PUSH1 0x0 PUSH2 0xD3A PUSH2 0xD34 DUP10 PUSH2 0x32FE JUMP JUMPDEST DUP4 PUSH2 0x3168 JUMP JUMPDEST SWAP1 POP POP POP POP PUSH1 0x1 SWAP1 POP SWAP7 SWAP6 POP POP POP POP POP POP JUMP JUMPDEST PUSH1 0x0 DUP1 PUSH1 0x0 SWAP1 SLOAD SWAP1 PUSH2 0x100 EXP SWAP1 DIV PUSH20 0xFFFFFFFFFFFFFFFFFFFFFFFFFFFFFFFFFFFFFFFF AND PUSH20 0xFFFFFFFFFFFFFFFFFFFFFFFFFFFFFFFFFFFFFFFF AND CALLER PUSH20 0xFFFFFFFFFFFFFFFFFFFFFFFFFFFFFFFFFFFFFFFF AND EQ PUSH2 0xDDE JUMPI PUSH1 0x40 MLOAD PUSH32 0x8C379A000000000000000000000000000000000000000000000000000000000 DUP2 MSTORE PUSH1 0x4 ADD PUSH2 0xDD5 SWAP1 PUSH2 0x3ECE JUMP JUMPDEST PUSH1 0x40 MLOAD DUP1 SWAP2 SUB SWAP1 REVERT JUMPDEST PUSH1 0x0 DUP3 SWAP1 POP DUP1 PUSH20 0xFFFFFFFFFFFFFFFFFFFFFFFFFFFFFFFFFFFFFFFF AND PUSH2 0x8FC PUSH1 0x1 PUSH1 0x3 SLOAD PUSH2 0xE0C SWAP2 SWAP1 PUSH2 0x41A0 JUMP JUMPDEST SWAP1 DUP2 ISZERO MUL SWAP1 PUSH1 0x40 MLOAD PUSH1 0x0 PUSH1 0x40 MLOAD DUP1 DUP4 SUB DUP2 DUP6 DUP9 DUP9 CALL SWAP4 POP POP POP POP ISZERO DUP1 ISZERO PUSH2 0xE37 JUMPI RETURNDATASIZE PUSH1 0x0 DUP1 RETURNDATACOPY RETURNDATASIZE PUSH1 0x0 REVERT JUMPDEST POP PUSH1 0x1 SWAP2 POP POP SWAP2 SWAP1 POP JUMP JUMPDEST PUSH1 0x0 DUP1 PUSH1 0x0 SWAP1 SLOAD SWAP1 PUSH2 0x100 EXP SWAP1 DIV PUSH20 0xFFFFFFFFFFFFFFFFFFFFFFFFFFFFFFFFFFFFFFFF AND PUSH20 0xFFFFFFFFFFFFFFFFFFFFFFFFFFFFFFFFFFFFFFFF AND CALLER PUSH20 0xFFFFFFFFFFFFFFFFFFFFFFFFFFFFFFFFFFFFFFFF AND EQ PUSH2 0xED3 JUMPI PUSH1 0x40 MLOAD PUSH32 0x8C379A000000000000000000000000000000000000000000000000000000000 DUP2 MSTORE PUSH1 0x4 ADD PUSH2 0xECA SWAP1 PUSH2 0x3ECE JUMP JUMPDEST PUSH1 0x40 MLOAD DUP1 SWAP2 SUB SWAP1 REVERT JUMPDEST PUSH2 0xEDC DUP4 PUSH2 0x310A JUMP JUMPDEST PUSH2 0xF1B JUMPI PUSH1 0x40 MLOAD PUSH32 0x8C379A000000000000000000000000000000000000000000000000000000000 DUP2 MSTORE PUSH1 0x4 ADD PUSH2 0xF12 SWAP1 PUSH2 0x3F0E JUMP JUMPDEST PUSH1 0x40 MLOAD DUP1 SWAP2 SUB SWAP1 REVERT JUMPDEST PUSH1 0x0 PUSH1 0x5 PUSH1 0x0 DUP6 DUP2 MSTORE PUSH1 0x20 ADD SWAP1 DUP2 MSTORE PUSH1 0x20 ADD PUSH1 0x0 KECCAK256 PUSH1 0x40 MLOAD DUP1 PUSH2 0x160 ADD PUSH1 0x40 MSTORE SWAP1 DUP2 PUSH1 0x0 DUP3 ADD DUP1 SLOAD PUSH2 0xF4C SWAP1 PUSH2 0x4268 JUMP JUMPDEST DUP1 PUSH1 0x1F ADD PUSH1 0x20 DUP1 SWAP2 DIV MUL PUSH1 0x20 ADD PUSH1 0x40 MLOAD SWAP1 DUP2 ADD PUSH1 0x40 MSTORE DUP1 SWAP3 SWAP2 SWAP1 DUP2 DUP2 MSTORE PUSH1 0x20 ADD DUP3 DUP1 SLOAD PUSH2 0xF78 SWAP1 PUSH2 0x4268 JUMP JUMPDEST DUP1 ISZERO PUSH2 0xFC5 JUMPI DUP1 PUSH1 0x1F LT PUSH2 0xF9A JUMPI PUSH2 0x100 DUP1 DUP4 SLOAD DIV MUL DUP4 MSTORE SWAP2 PUSH1 0x20 ADD SWAP2 PUSH2 0xFC5 JUMP JUMPDEST DUP3 ADD SWAP2 SWAP1 PUSH1 0x0 MSTORE PUSH1 0x20 PUSH1 0x0 KECCAK256 SWAP1 JUMPDEST DUP2 SLOAD DUP2 MSTORE SWAP1 PUSH1 0x1 ADD SWAP1 PUSH1 0x20 ADD DUP1 DUP4 GT PUSH2 0xFA8 JUMPI DUP3 SWAP1 SUB PUSH1 0x1F AND DUP3 ADD SWAP2 JUMPDEST POP POP POP POP POP DUP2 MSTORE PUSH1 0x20 ADD PUSH1 0x1 DUP3 ADD DUP1 SLOAD PUSH2 0xFDE SWAP1 PUSH2 0x4268 JUMP JUMPDEST DUP1 PUSH1 0x1F ADD PUSH1 0x20 DUP1 SWAP2 DIV MUL PUSH1 0x20 ADD PUSH1 0x40 MLOAD SWAP1 DUP2 ADD PUSH1 0x40 MSTORE DUP1 SWAP3 SWAP2 SWAP1 DUP2 DUP2 MSTORE PUSH1 0x20 ADD DUP3 DUP1 SLOAD PUSH2 0x100A SWAP1 PUSH2 0x4268 JUMP JUMPDEST DUP1 ISZERO PUSH2 0x1057 JUMPI DUP1 PUSH1 0x1F LT PUSH2 0x102C JUMPI PUSH2 0x100 DUP1 DUP4 SLOAD DIV MUL DUP4 MSTORE SWAP2 PUSH1 0x20 ADD SWAP2 PUSH2 0x1057 JUMP JUMPDEST DUP3 ADD SWAP2 SWAP1 PUSH1 0x0 MSTORE PUSH1 0x20 PUSH1 0x0 KECCAK256 SWAP1 JUMPDEST DUP2 SLOAD DUP2 MSTORE SWAP1 PUSH1 0x1 ADD SWAP1 PUSH1 0x20 ADD DUP1 DUP4 GT PUSH2 0x103A JUMPI DUP3 SWAP1 SUB PUSH1 0x1F AND DUP3 ADD SWAP2 JUMPDEST POP POP POP POP POP DUP2 MSTORE PUSH1 0x20 ADD PUSH1 0x2 DUP3 ADD DUP1 SLOAD PUSH2 0x1070 SWAP1 PUSH2 0x4268 JUMP JUMPDEST DUP1 PUSH1 0x1F ADD PUSH1 0x20 DUP1 SWAP2 DIV MUL PUSH1 0x20 ADD PUSH1 0x40 MLOAD SWAP1 DUP2 ADD PUSH1 0x40 MSTORE DUP1 SWAP3 SWAP2 SWAP1 DUP2 DUP2 MSTORE PUSH1 0x20 ADD DUP3 DUP1 SLOAD PUSH2 0x109C SWAP1 PUSH2 0x4268 JUMP JUMPDEST DUP1 ISZERO PUSH2 0x10E9 JUMPI DUP1 PUSH1 0x1F LT PUSH2 0x10BE JUMPI PUSH2 0x100 DUP1 DUP4 SLOAD DIV MUL DUP4 MSTORE SWAP2 PUSH1 0x20 ADD SWAP2 PUSH2 0x10E9 JUMP JUMPDEST DUP3 ADD SWAP2 SWAP1 PUSH1 0x0 MSTORE PUSH1 0x20 PUSH1 0x0 KECCAK256 SWAP1 JUMPDEST DUP2 SLOAD DUP2 MSTORE SWAP1 PUSH1 0x1 ADD SWAP1 PUSH1 0x20 ADD DUP1 DUP4 GT PUSH2 0x10CC JUMPI DUP3 SWAP1 SUB PUSH1 0x1F AND DUP3 ADD SWAP2 JUMPDEST POP POP POP POP POP DUP2 MSTORE PUSH1 0x20 ADD PUSH1 0x3 DUP3 ADD SLOAD DUP2 MSTORE PUSH1 0x20 ADD PUSH1 0x4 DUP3 ADD SLOAD DUP2 MSTORE PUSH1 0x20 ADD PUSH1 0x5 DUP3 ADD SLOAD DUP2 MSTORE PUSH1 0x20 ADD PUSH1 0x6 DUP3 ADD SLOAD DUP2 MSTORE PUSH1 0x20 ADD PUSH1 0x7 DUP3 ADD SLOAD DUP2 MSTORE PUSH1 0x20 ADD PUSH1 0x8 DUP3 ADD PUSH1 0x0 SWAP1 SLOAD SWAP1 PUSH2 0x100 EXP SWAP1 DIV PUSH1 0xFF AND ISZERO ISZERO ISZERO ISZERO DUP2 MSTORE PUSH1 0x20 ADD PUSH1 0x8 DUP3 ADD PUSH1 0x1 SWAP1 SLOAD SWAP1 PUSH2 0x100 EXP SWAP1 DIV PUSH1 0xFF AND ISZERO ISZERO ISZERO ISZERO DUP2 MSTORE PUSH1 0x20 ADD PUSH1 0x8 DUP3 ADD PUSH1 0x2 SWAP1 SLOAD SWAP1 PUSH2 0x100 EXP SWAP1 DIV PUSH1 0xFF AND ISZERO ISZERO ISZERO ISZERO DUP2 MSTORE POP POP SWAP1 POP PUSH1 0x0 DUP2 PUSH1 0xE0 ADD MLOAD GT ISZERO PUSH2 0x11BF JUMPI PUSH1 0x40 MLOAD PUSH32 0x8C379A000000000000000000000000000000000000000000000000000000000 DUP2 MSTORE PUSH1 0x4 ADD PUSH2 0x11B6 SWAP1 PUSH2 0x3F2E JUMP JUMPDEST PUSH1 0x40 MLOAD DUP1 SWAP2 SUB SWAP1 REVERT JUMPDEST DUP3 PUSH1 0x1 SLOAD GT ISZERO PUSH2 0x1204 JUMPI PUSH1 0x40 MLOAD PUSH32 0x8C379A000000000000000000000000000000000000000000000000000000000 DUP2 MSTORE PUSH1 0x4 ADD PUSH2 0x11FB SWAP1 PUSH2 0x3FAE JUMP JUMPDEST PUSH1 0x40 MLOAD DUP1 SWAP2 SUB SWAP1 REVERT JUMPDEST DUP3 DUP2 PUSH1 0xE0 ADD DUP2 DUP2 MLOAD PUSH2 0x1216 SWAP2 SWAP1 PUSH2 0x40BF JUMP JUMPDEST SWAP2 POP DUP2 DUP2 MSTORE POP POP DUP3 PUSH1 0x1 PUSH1 0x0 DUP3 DUP3 SLOAD PUSH2 0x122F SWAP2 SWAP1 PUSH2 0x41A0 JUMP JUMPDEST SWAP3 POP POP DUP2 SWAP1 SSTORE POP PUSH1 0x1 SWAP2 POP POP SWAP3 SWAP2 POP POP JUMP JUMPDEST PUSH1 0x0 DUP1 PUSH1 0x0 SWAP1 SLOAD SWAP1 PUSH2 0x100 EXP SWAP1 DIV PUSH20 0xFFFFFFFFFFFFFFFFFFFFFFFFFFFFFFFFFFFFFFFF AND PUSH20 0xFFFFFFFFFFFFFFFFFFFFFFFFFFFFFFFFFFFFFFFF AND CALLER PUSH20 0xFFFFFFFFFFFFFFFFFFFFFFFFFFFFFFFFFFFFFFFF AND EQ PUSH2 0x12D2 JUMPI PUSH1 0x40 MLOAD PUSH32 0x8C379A000000000000000000000000000000000000000000000000000000000 DUP2 MSTORE PUSH1 0x4 ADD PUSH2 0x12C9 SWAP1 PUSH2 0x3ECE JUMP JUMPDEST PUSH1 0x40 MLOAD DUP1 SWAP2 SUB SWAP1 REVERT JUMPDEST PUSH1 0x0 PUSH2 0x12DE DUP7 DUP7 PUSH2 0x3168 JUMP JUMPDEST SWAP1 POP PUSH1 0x0 PUSH2 0x12EC DUP3 DUP7 PUSH2 0x3168 JUMP JUMPDEST SWAP1 POP PUSH1 0x0 DUP2 PUSH1 0x40 MLOAD PUSH1 0x20 ADD PUSH2 0x1301 SWAP2 SWAP1 PUSH2 0x3DD6 JUMP JUMPDEST PUSH1 0x40 MLOAD PUSH1 0x20 DUP2 DUP4 SUB SUB DUP2 MSTORE SWAP1 PUSH1 0x40 MSTORE DUP1 MLOAD SWAP1 PUSH1 0x20 ADD KECCAK256 SWAP1 POP PUSH2 0x1322 DUP2 PUSH2 0x310A JUMP JUMPDEST ISZERO PUSH2 0x1362 JUMPI PUSH1 0x40 MLOAD PUSH32 0x8C379A000000000000000000000000000000000000000000000000000000000 DUP2 MSTORE PUSH1 0x4 ADD PUSH2 0x1359 SWAP1 PUSH2 0x3F4E JUMP JUMPDEST PUSH1 0x40 MLOAD DUP1 SWAP2 SUB SWAP1 REVERT JUMPDEST PUSH1 0x1 PUSH1 0x5 PUSH1 0x0 DUP4 DUP2 MSTORE PUSH1 0x20 ADD SWAP1 DUP2 MSTORE PUSH1 0x20 ADD PUSH1 0x0 KECCAK256 PUSH1 0x8 ADD PUSH1 0x1 PUSH2 0x100 EXP DUP2 SLOAD DUP2 PUSH1 0xFF MUL NOT AND SWAP1 DUP4 ISZERO ISZERO MUL OR SWAP1 SSTORE POP DUP8 PUSH1 0x5 PUSH1 0x0 DUP4 DUP2 MSTORE PUSH1 0x20 ADD SWAP1 DUP2 MSTORE PUSH1 0x20 ADD PUSH1 0x0 KECCAK256 PUSH1 0x0 ADD SWAP1 DUP1 MLOAD SWAP1 PUSH1 0x20 ADD SWAP1 PUSH2 0x13BB SWAP3 SWAP2 SWAP1 PUSH2 0x3651 JUMP JUMPDEST POP DUP7 PUSH1 0x5 PUSH1 0x0 DUP4 DUP2 MSTORE PUSH1 0x20 ADD SWAP1 DUP2 MSTORE PUSH1 0x20 ADD PUSH1 0x0 KECCAK256 PUSH1 0x1 ADD SWAP1 DUP1 MLOAD SWAP1 PUSH1 0x20 ADD SWAP1 PUSH2 0x13E6 SWAP3 SWAP2 SWAP1 PUSH2 0x3651 JUMP JUMPDEST POP DUP6 PUSH1 0x5 PUSH1 0x0 DUP4 DUP2 MSTORE PUSH1 0x20 ADD SWAP1 DUP2 MSTORE PUSH1 0x20 ADD PUSH1 0x0 KECCAK256 PUSH1 0x2 ADD SWAP1 DUP1 MLOAD SWAP1 PUSH1 0x20 ADD SWAP1 PUSH2 0x1411 SWAP3 SWAP2 SWAP1 PUSH2 0x3651 JUMP JUMPDEST POP PUSH1 0x0 PUSH1 0x5 PUSH1 0x0 DUP4 DUP2 MSTORE PUSH1 0x20 ADD SWAP1 DUP2 MSTORE PUSH1 0x20 ADD PUSH1 0x0 KECCAK256 PUSH1 0x3 ADD DUP2 SWAP1 SSTORE POP PUSH1 0x0 PUSH1 0x5 PUSH1 0x0 DUP4 DUP2 MSTORE PUSH1 0x20 ADD SWAP1 DUP2 MSTORE PUSH1 0x20 ADD PUSH1 0x0 KECCAK256 PUSH1 0x4 ADD DUP2 SWAP1 SSTORE POP PUSH1 0x0 PUSH1 0x5 PUSH1 0x0 DUP4 DUP2 MSTORE PUSH1 0x20 ADD SWAP1 DUP2 MSTORE PUSH1 0x20 ADD PUSH1 0x0 KECCAK256 PUSH1 0x5 ADD DUP2 SWAP1 SSTORE POP PUSH1 0x0 PUSH1 0x5 PUSH1 0x0 DUP4 DUP2 MSTORE PUSH1 0x20 ADD SWAP1 DUP2 MSTORE PUSH1 0x20 ADD PUSH1 0x0 KECCAK256 PUSH1 0x6 ADD DUP2 SWAP1 SSTORE POP PUSH1 0x0 PUSH1 0x5 PUSH1 0x0 DUP4 DUP2 MSTORE PUSH1 0x20 ADD SWAP1 DUP2 MSTORE PUSH1 0x20 ADD PUSH1 0x0 KECCAK256 PUSH1 0x7 ADD DUP2 SWAP1 SSTORE POP DUP5 PUSH1 0x5 PUSH1 0x0 DUP4 DUP2 MSTORE PUSH1 0x20 ADD SWAP1 DUP2 MSTORE PUSH1 0x20 ADD PUSH1 0x0 KECCAK256 PUSH1 0x8 ADD PUSH1 0x0 PUSH2 0x100 EXP DUP2 SLOAD DUP2 PUSH1 0xFF MUL NOT AND SWAP1 DUP4 ISZERO ISZERO MUL OR SWAP1 SSTORE POP PUSH1 0x0 PUSH1 0x5 PUSH1 0x0 DUP4 DUP2 MSTORE PUSH1 0x20 ADD SWAP1 DUP2 MSTORE PUSH1 0x20 ADD PUSH1 0x0 KECCAK256 PUSH1 0x8 ADD PUSH1 0x2 PUSH2 0x100 EXP DUP2 SLOAD DUP2 PUSH1 0xFF MUL NOT AND SWAP1 DUP4 ISZERO ISZERO MUL OR SWAP1 SSTORE POP PUSH1 0x2 DUP2 SWAP1 DUP1 PUSH1 0x1 DUP2 SLOAD ADD DUP1 DUP3 SSTORE DUP1 SWAP2 POP POP PUSH1 0x1 SWAP1 SUB SWAP1 PUSH1 0x0 MSTORE PUSH1 0x20 PUSH1 0x0 KECCAK256 ADD PUSH1 0x0 SWAP1 SWAP2 SWAP1 SWAP2 SWAP1 SWAP2 POP SSTORE DUP1 SWAP4 POP POP POP POP SWAP5 SWAP4 POP POP POP POP JUMP JUMPDEST PUSH1 0x0 DUP1 PUSH1 0x0 SWAP1 SLOAD SWAP1 PUSH2 0x100 EXP SWAP1 DIV PUSH20 0xFFFFFFFFFFFFFFFFFFFFFFFFFFFFFFFFFFFFFFFF AND PUSH20 0xFFFFFFFFFFFFFFFFFFFFFFFFFFFFFFFFFFFFFFFF AND CALLER PUSH20 0xFFFFFFFFFFFFFFFFFFFFFFFFFFFFFFFFFFFFFFFF AND EQ PUSH2 0x15C3 JUMPI PUSH1 0x40 MLOAD PUSH32 0x8C379A000000000000000000000000000000000000000000000000000000000 DUP2 MSTORE PUSH1 0x4 ADD PUSH2 0x15BA SWAP1 PUSH2 0x3ECE JUMP JUMPDEST PUSH1 0x40 MLOAD DUP1 SWAP2 SUB SWAP1 REVERT JUMPDEST PUSH1 0x1 SLOAD SWAP1 POP SWAP1 JUMP JUMPDEST PUSH1 0x0 DUP1 PUSH1 0x0 SWAP1 SLOAD SWAP1 PUSH2 0x100 EXP SWAP1 DIV PUSH20 0xFFFFFFFFFFFFFFFFFFFFFFFFFFFFFFFFFFFFFFFF AND PUSH20 0xFFFFFFFFFFFFFFFFFFFFFFFFFFFFFFFFFFFFFFFF AND CALLER PUSH20 0xFFFFFFFFFFFFFFFFFFFFFFFFFFFFFFFFFFFFFFFF AND EQ PUSH2 0x165C JUMPI PUSH1 0x40 MLOAD PUSH32 0x8C379A000000000000000000000000000000000000000000000000000000000 DUP2 MSTORE PUSH1 0x4 ADD PUSH2 0x1653 SWAP1 PUSH2 0x3ECE JUMP JUMPDEST PUSH1 0x40 MLOAD DUP1 SWAP2 SUB SWAP1 REVERT JUMPDEST PUSH2 0x1665 DUP3 PUSH2 0x310A JUMP JUMPDEST PUSH2 0x16A4 JUMPI PUSH1 0x40 MLOAD PUSH32 0x8C379A000000000000000000000000000000000000000000000000000000000 DUP2 MSTORE PUSH1 0x4 ADD PUSH2 0x169B SWAP1 PUSH2 0x3F0E JUMP JUMPDEST PUSH1 0x40 MLOAD DUP1 SWAP2 SUB SWAP1 REVERT JUMPDEST PUSH1 0x0 PUSH1 0x5 PUSH1 0x0 DUP5 DUP2 MSTORE PUSH1 0x20 ADD SWAP1 DUP2 MSTORE PUSH1 0x20 ADD PUSH1 0x0 KECCAK256 PUSH1 0x40 MLOAD DUP1 PUSH2 0x160 ADD PUSH1 0x40 MSTORE SWAP1 DUP2 PUSH1 0x0 DUP3 ADD DUP1 SLOAD PUSH2 0x16D5 SWAP1 PUSH2 0x4268 JUMP JUMPDEST DUP1 PUSH1 0x1F ADD PUSH1 0x20 DUP1 SWAP2 DIV MUL PUSH1 0x20 ADD PUSH1 0x40 MLOAD SWAP1 DUP2 ADD PUSH1 0x40 MSTORE DUP1 SWAP3 SWAP2 SWAP1 DUP2 DUP2 MSTORE PUSH1 0x20 ADD DUP3 DUP1 SLOAD PUSH2 0x1701 SWAP1 PUSH2 0x4268 JUMP JUMPDEST DUP1 ISZERO PUSH2 0x174E JUMPI DUP1 PUSH1 0x1F LT PUSH2 0x1723 JUMPI PUSH2 0x100 DUP1 DUP4 SLOAD DIV MUL DUP4 MSTORE SWAP2 PUSH1 0x20 ADD SWAP2 PUSH2 0x174E JUMP JUMPDEST DUP3 ADD SWAP2 SWAP1 PUSH1 0x0 MSTORE PUSH1 0x20 PUSH1 0x0 KECCAK256 SWAP1 JUMPDEST DUP2 SLOAD DUP2 MSTORE SWAP1 PUSH1 0x1 ADD SWAP1 PUSH1 0x20 ADD DUP1 DUP4 GT PUSH2 0x1731 JUMPI DUP3 SWAP1 SUB PUSH1 0x1F AND DUP3 ADD SWAP2 JUMPDEST POP POP POP POP POP DUP2 MSTORE PUSH1 0x20 ADD PUSH1 0x1 DUP3 ADD DUP1 SLOAD PUSH2 0x1767 SWAP1 PUSH2 0x4268 JUMP JUMPDEST DUP1 PUSH1 0x1F ADD PUSH1 0x20 DUP1 SWAP2 DIV MUL PUSH1 0x20 ADD PUSH1 0x40 MLOAD SWAP1 DUP2 ADD PUSH1 0x40 MSTORE DUP1 SWAP3 SWAP2 SWAP1 DUP2 DUP2 MSTORE PUSH1 0x20 ADD DUP3 DUP1 SLOAD PUSH2 0x1793 SWAP1 PUSH2 0x4268 JUMP JUMPDEST DUP1 ISZERO PUSH2 0x17E0 JUMPI DUP1 PUSH1 0x1F LT PUSH2 0x17B5 JUMPI PUSH2 0x100 DUP1 DUP4 SLOAD DIV MUL DUP4 MSTORE SWAP2 PUSH1 0x20 ADD SWAP2 PUSH2 0x17E0 JUMP JUMPDEST DUP3 ADD SWAP2 SWAP1 PUSH1 0x0 MSTORE PUSH1 0x20 PUSH1 0x0 KECCAK256 SWAP1 JUMPDEST DUP2 SLOAD DUP2 MSTORE SWAP1 PUSH1 0x1 ADD SWAP1 PUSH1 0x20 ADD DUP1 DUP4 GT PUSH2 0x17C3 JUMPI DUP3 SWAP1 SUB PUSH1 0x1F AND DUP3 ADD SWAP2 JUMPDEST POP POP POP POP POP DUP2 MSTORE PUSH1 0x20 ADD PUSH1 0x2 DUP3 ADD DUP1 SLOAD PUSH2 0x17F9 SWAP1 PUSH2 0x4268 JUMP JUMPDEST DUP1 PUSH1 0x1F ADD PUSH1 0x20 DUP1 SWAP2 DIV MUL PUSH1 0x20 ADD PUSH1 0x40 MLOAD SWAP1 DUP2 ADD PUSH1 0x40 MSTORE DUP1 SWAP3 SWAP2 SWAP1 DUP2 DUP2 MSTORE PUSH1 0x20 ADD DUP3 DUP1 SLOAD PUSH2 0x1825 SWAP1 PUSH2 0x4268 JUMP JUMPDEST DUP1 ISZERO PUSH2 0x1872 JUMPI DUP1 PUSH1 0x1F LT PUSH2 0x1847 JUMPI PUSH2 0x100 DUP1 DUP4 SLOAD DIV MUL DUP4 MSTORE SWAP2 PUSH1 0x20 ADD SWAP2 PUSH2 0x1872 JUMP JUMPDEST DUP3 ADD SWAP2 SWAP1 PUSH1 0x0 MSTORE PUSH1 0x20 PUSH1 0x0 KECCAK256 SWAP1 JUMPDEST DUP2 SLOAD DUP2 MSTORE SWAP1 PUSH1 0x1 ADD SWAP1 PUSH1 0x20 ADD DUP1 DUP4 GT PUSH2 0x1855 JUMPI DUP3 SWAP1 SUB PUSH1 0x1F AND DUP3 ADD SWAP2 JUMPDEST POP POP POP POP POP DUP2 MSTORE PUSH1 0x20 ADD PUSH1 0x3 DUP3 ADD SLOAD DUP2 MSTORE PUSH1 0x20 ADD PUSH1 0x4 DUP3 ADD SLOAD DUP2 MSTORE PUSH1 0x20 ADD PUSH1 0x5 DUP3 ADD SLOAD DUP2 MSTORE PUSH1 0x20 ADD PUSH1 0x6 DUP3 ADD SLOAD DUP2 MSTORE PUSH1 0x20 ADD PUSH1 0x7 DUP3 ADD SLOAD DUP2 MSTORE PUSH1 0x20 ADD PUSH1 0x8 DUP3 ADD PUSH1 0x0 SWAP1 SLOAD SWAP1 PUSH2 0x100 EXP SWAP1 DIV PUSH1 0xFF AND ISZERO ISZERO ISZERO ISZERO DUP2 MSTORE PUSH1 0x20 ADD PUSH1 0x8 DUP3 ADD PUSH1 0x1 SWAP1 SLOAD SWAP1 PUSH2 0x100 EXP SWAP1 DIV PUSH1 0xFF AND ISZERO ISZERO ISZERO ISZERO DUP2 MSTORE PUSH1 0x20 ADD PUSH1 0x8 DUP3 ADD PUSH1 0x2 SWAP1 SLOAD SWAP1 PUSH2 0x100 EXP SWAP1 DIV PUSH1 0xFF AND ISZERO ISZERO ISZERO ISZERO DUP2 MSTORE POP POP SWAP1 POP PUSH1 0x0 PUSH2 0x195C PUSH7 0x38D7EA4C68000 DUP4 PUSH1 0xE0 ADD MLOAD DUP5 PUSH1 0xC0 ADD MLOAD DUP6 PUSH1 0x80 ADD MLOAD DUP7 PUSH1 0xA0 ADD MLOAD DUP8 PUSH1 0x60 ADD MLOAD PUSH2 0x1930 SWAP2 SWAP1 PUSH2 0x40BF JUMP JUMPDEST PUSH2 0x193A SWAP2 SWAP1 PUSH2 0x40BF JUMP JUMPDEST PUSH2 0x1944 SWAP2 SWAP1 PUSH2 0x40BF JUMP JUMPDEST PUSH2 0x194E SWAP2 SWAP1 PUSH2 0x40BF JUMP JUMPDEST PUSH2 0x332F SWAP1 SWAP2 SWAP1 PUSH4 0xFFFFFFFF AND JUMP JUMPDEST SWAP1 POP DUP1 SWAP3 POP POP POP SWAP2 SWAP1 POP JUMP JUMPDEST PUSH1 0x0 PUSH2 0x1973 DUP6 PUSH2 0x310A JUMP JUMPDEST PUSH2 0x19B2 JUMPI PUSH1 0x40 MLOAD PUSH32 0x8C379A000000000000000000000000000000000000000000000000000000000 DUP2 MSTORE PUSH1 0x4 ADD PUSH2 0x19A9 SWAP1 PUSH2 0x3F0E JUMP JUMPDEST PUSH1 0x40 MLOAD DUP1 SWAP2 SUB SWAP1 REVERT JUMPDEST DUP6 PUSH1 0x4 PUSH1 0x0 DUP10 PUSH20 0xFFFFFFFFFFFFFFFFFFFFFFFFFFFFFFFFFFFFFFFF AND PUSH20 0xFFFFFFFFFFFFFFFFFFFFFFFFFFFFFFFFFFFFFFFF AND DUP2 MSTORE PUSH1 0x20 ADD SWAP1 DUP2 MSTORE PUSH1 0x20 ADD PUSH1 0x0 KECCAK256 SLOAD LT ISZERO PUSH2 0x1A34 JUMPI PUSH1 0x40 MLOAD PUSH32 0x8C379A000000000000000000000000000000000000000000000000000000000 DUP2 MSTORE PUSH1 0x4 ADD PUSH2 0x1A2B SWAP1 PUSH2 0x3F8E JUMP JUMPDEST PUSH1 0x40 MLOAD DUP1 SWAP2 SUB SWAP1 REVERT JUMPDEST PUSH1 0x0 PUSH1 0x5 PUSH1 0x0 DUP8 DUP2 MSTORE PUSH1 0x20 ADD SWAP1 DUP2 MSTORE PUSH1 0x20 ADD PUSH1 0x0 KECCAK256 PUSH1 0x40 MLOAD DUP1 PUSH2 0x160 ADD PUSH1 0x40 MSTORE SWAP1 DUP2 PUSH1 0x0 DUP3 ADD DUP1 SLOAD PUSH2 0x1A65 SWAP1 PUSH2 0x4268 JUMP JUMPDEST DUP1 PUSH1 0x1F ADD PUSH1 0x20 DUP1 SWAP2 DIV MUL PUSH1 0x20 ADD PUSH1 0x40 MLOAD SWAP1 DUP2 ADD PUSH1 0x40 MSTORE DUP1 SWAP3 SWAP2 SWAP1 DUP2 DUP2 MSTORE PUSH1 0x20 ADD DUP3 DUP1 SLOAD PUSH2 0x1A91 SWAP1 PUSH2 0x4268 JUMP JUMPDEST DUP1 ISZERO PUSH2 0x1ADE JUMPI DUP1 PUSH1 0x1F LT PUSH2 0x1AB3 JUMPI PUSH2 0x100 DUP1 DUP4 SLOAD DIV MUL DUP4 MSTORE SWAP2 PUSH1 0x20 ADD SWAP2 PUSH2 0x1ADE JUMP JUMPDEST DUP3 ADD SWAP2 SWAP1 PUSH1 0x0 MSTORE PUSH1 0x20 PUSH1 0x0 KECCAK256 SWAP1 JUMPDEST DUP2 SLOAD DUP2 MSTORE SWAP1 PUSH1 0x1 ADD SWAP1 PUSH1 0x20 ADD DUP1 DUP4 GT PUSH2 0x1AC1 JUMPI DUP3 SWAP1 SUB PUSH1 0x1F AND DUP3 ADD SWAP2 JUMPDEST POP POP POP POP POP DUP2 MSTORE PUSH1 0x20 ADD PUSH1 0x1 DUP3 ADD DUP1 SLOAD PUSH2 0x1AF7 SWAP1 PUSH2 0x4268 JUMP JUMPDEST DUP1 PUSH1 0x1F ADD PUSH1 0x20 DUP1 SWAP2 DIV MUL PUSH1 0x20 ADD PUSH1 0x40 MLOAD SWAP1 DUP2 ADD PUSH1 0x40 MSTORE DUP1 SWAP3 SWAP2 SWAP1 DUP2 DUP2 MSTORE PUSH1 0x20 ADD DUP3 DUP1 SLOAD PUSH2 0x1B23 SWAP1 PUSH2 0x4268 JUMP JUMPDEST DUP1 ISZERO PUSH2 0x1B70 JUMPI DUP1 PUSH1 0x1F LT PUSH2 0x1B45 JUMPI PUSH2 0x100 DUP1 DUP4 SLOAD DIV MUL DUP4 MSTORE SWAP2 PUSH1 0x20 ADD SWAP2 PUSH2 0x1B70 JUMP JUMPDEST DUP3 ADD SWAP2 SWAP1 PUSH1 0x0 MSTORE PUSH1 0x20 PUSH1 0x0 KECCAK256 SWAP1 JUMPDEST DUP2 SLOAD DUP2 MSTORE SWAP1 PUSH1 0x1 ADD SWAP1 PUSH1 0x20 ADD DUP1 DUP4 GT PUSH2 0x1B53 JUMPI DUP3 SWAP1 SUB PUSH1 0x1F AND DUP3 ADD SWAP2 JUMPDEST POP POP POP POP POP DUP2 MSTORE PUSH1 0x20 ADD PUSH1 0x2 DUP3 ADD DUP1 SLOAD PUSH2 0x1B89 SWAP1 PUSH2 0x4268 JUMP JUMPDEST DUP1 PUSH1 0x1F ADD PUSH1 0x20 DUP1 SWAP2 DIV MUL PUSH1 0x20 ADD PUSH1 0x40 MLOAD SWAP1 DUP2 ADD PUSH1 0x40 MSTORE DUP1 SWAP3 SWAP2 SWAP1 DUP2 DUP2 MSTORE PUSH1 0x20 ADD DUP3 DUP1 SLOAD PUSH2 0x1BB5 SWAP1 PUSH2 0x4268 JUMP JUMPDEST DUP1 ISZERO PUSH2 0x1C02 JUMPI DUP1 PUSH1 0x1F LT PUSH2 0x1BD7 JUMPI PUSH2 0x100 DUP1 DUP4 SLOAD DIV MUL DUP4 MSTORE SWAP2 PUSH1 0x20 ADD SWAP2 PUSH2 0x1C02 JUMP JUMPDEST DUP3 ADD SWAP2 SWAP1 PUSH1 0x0 MSTORE PUSH1 0x20 PUSH1 0x0 KECCAK256 SWAP1 JUMPDEST DUP2 SLOAD DUP2 MSTORE SWAP1 PUSH1 0x1 ADD SWAP1 PUSH1 0x20 ADD DUP1 DUP4 GT PUSH2 0x1BE5 JUMPI DUP3 SWAP1 SUB PUSH1 0x1F AND DUP3 ADD SWAP2 JUMPDEST POP POP POP POP POP DUP2 MSTORE PUSH1 0x20 ADD PUSH1 0x3 DUP3 ADD SLOAD DUP2 MSTORE PUSH1 0x20 ADD PUSH1 0x4 DUP3 ADD SLOAD DUP2 MSTORE PUSH1 0x20 ADD PUSH1 0x5 DUP3 ADD SLOAD DUP2 MSTORE PUSH1 0x20 ADD PUSH1 0x6 DUP3 ADD SLOAD DUP2 MSTORE PUSH1 0x20 ADD PUSH1 0x7 DUP3 ADD SLOAD DUP2 MSTORE PUSH1 0x20 ADD PUSH1 0x8 DUP3 ADD PUSH1 0x0 SWAP1 SLOAD SWAP1 PUSH2 0x100 EXP SWAP1 DIV PUSH1 0xFF AND ISZERO ISZERO ISZERO ISZERO DUP2 MSTORE PUSH1 0x20 ADD PUSH1 0x8 DUP3 ADD PUSH1 0x1 SWAP1 SLOAD SWAP1 PUSH2 0x100 EXP SWAP1 DIV PUSH1 0xFF AND ISZERO ISZERO ISZERO ISZERO DUP2 MSTORE PUSH1 0x20 ADD PUSH1 0x8 DUP3 ADD PUSH1 0x2 SWAP1 SLOAD SWAP1 PUSH2 0x100 EXP SWAP1 DIV PUSH1 0xFF AND ISZERO ISZERO ISZERO ISZERO DUP2 MSTORE POP POP SWAP1 POP PUSH1 0x0 PUSH2 0x1CAC PUSH2 0x1C9E DUP8 PUSH2 0x3137 JUMP JUMPDEST PUSH2 0x1CA7 DUP8 PUSH2 0x3137 JUMP JUMPDEST PUSH2 0x3168 JUMP JUMPDEST SWAP1 POP PUSH1 0x0 PUSH2 0x1CC2 PUSH2 0x1CBC DUP10 PUSH2 0x32FE JUMP JUMPDEST DUP4 PUSH2 0x3168 JUMP JUMPDEST SWAP1 POP PUSH1 0x0 PUSH1 0x40 MLOAD DUP1 PUSH1 0xE0 ADD PUSH1 0x40 MSTORE DUP1 DUP12 DUP2 MSTORE PUSH1 0x20 ADD DUP8 DUP2 MSTORE PUSH1 0x20 ADD DUP10 DUP2 MSTORE PUSH1 0x20 ADD DUP9 DUP2 MSTORE PUSH1 0x20 ADD DUP13 PUSH20 0xFFFFFFFFFFFFFFFFFFFFFFFFFFFFFFFFFFFFFFFF AND DUP2 MSTORE PUSH1 0x20 ADD DUP4 DUP2 MSTORE PUSH1 0x20 ADD PUSH1 0x0 ISZERO ISZERO DUP2 MSTORE POP SWAP1 POP DUP9 PUSH1 0x6 PUSH1 0x0 DUP12 DUP2 MSTORE PUSH1 0x20 ADD SWAP1 DUP2 MSTORE PUSH1 0x20 ADD PUSH1 0x0 KECCAK256 PUSH1 0x1 ADD DUP2 SWAP1 SSTORE POP PUSH1 0x6 PUSH1 0x0 DUP11 DUP2 MSTORE PUSH1 0x20 ADD SWAP1 DUP2 MSTORE PUSH1 0x20 ADD PUSH1 0x0 KECCAK256 PUSH1 0x0 ADD DUP2 SWAP1 DUP1 PUSH1 0x1 DUP2 SLOAD ADD DUP1 DUP3 SSTORE DUP1 SWAP2 POP POP PUSH1 0x1 SWAP1 SUB SWAP1 PUSH1 0x0 MSTORE PUSH1 0x20 PUSH1 0x0 KECCAK256 SWAP1 PUSH1 0x7 MUL ADD PUSH1 0x0 SWAP1 SWAP2 SWAP1 SWAP2 SWAP1 SWAP2 POP PUSH1 0x0 DUP3 ADD MLOAD DUP2 PUSH1 0x0 ADD SSTORE PUSH1 0x20 DUP3 ADD MLOAD DUP2 PUSH1 0x1 ADD SSTORE PUSH1 0x40 DUP3 ADD MLOAD DUP2 PUSH1 0x2 ADD SSTORE PUSH1 0x60 DUP3 ADD MLOAD DUP2 PUSH1 0x3 ADD SSTORE PUSH1 0x80 DUP3 ADD MLOAD DUP2 PUSH1 0x4 ADD PUSH1 0x0 PUSH2 0x100 EXP DUP2 SLOAD DUP2 PUSH20 0xFFFFFFFFFFFFFFFFFFFFFFFFFFFFFFFFFFFFFFFF MUL NOT AND SWAP1 DUP4 PUSH20 0xFFFFFFFFFFFFFFFFFFFFFFFFFFFFFFFFFFFFFFFF AND MUL OR SWAP1 SSTORE POP PUSH1 0xA0 DUP3 ADD MLOAD DUP2 PUSH1 0x5 ADD SWAP1 DUP1 MLOAD SWAP1 PUSH1 0x20 ADD SWAP1 PUSH2 0x1DFA SWAP3 SWAP2 SWAP1 PUSH2 0x3651 JUMP JUMPDEST POP PUSH1 0xC0 DUP3 ADD MLOAD DUP2 PUSH1 0x6 ADD PUSH1 0x0 PUSH2 0x100 EXP DUP2 SLOAD DUP2 PUSH1 0xFF MUL NOT AND SWAP1 DUP4 ISZERO ISZERO MUL OR SWAP1 SSTORE POP POP POP DUP11 PUSH1 0x8 PUSH1 0x0 DUP14 PUSH20 0xFFFFFFFFFFFFFFFFFFFFFFFFFFFFFFFFFFFFFFFF AND PUSH20 0xFFFFFFFFFFFFFFFFFFFFFFFFFFFFFFFFFFFFFFFF AND DUP2 MSTORE PUSH1 0x20 ADD SWAP1 DUP2 MSTORE PUSH1 0x20 ADD PUSH1 0x0 KECCAK256 PUSH1 0x1 ADD PUSH1 0x0 PUSH2 0x100 EXP DUP2 SLOAD DUP2 PUSH20 0xFFFFFFFFFFFFFFFFFFFFFFFFFFFFFFFFFFFFFFFF MUL NOT AND SWAP1 DUP4 PUSH20 0xFFFFFFFFFFFFFFFFFFFFFFFFFFFFFFFFFFFFFFFF AND MUL OR SWAP1 SSTORE POP PUSH1 0x6 PUSH1 0x0 DUP11 DUP2 MSTORE PUSH1 0x20 ADD SWAP1 DUP2 MSTORE PUSH1 0x20 ADD PUSH1 0x0 KECCAK256 PUSH1 0x0 ADD DUP2 SWAP1 DUP1 PUSH1 0x1 DUP2 SLOAD ADD DUP1 DUP3 SSTORE DUP1 SWAP2 POP POP PUSH1 0x1 SWAP1 SUB SWAP1 PUSH1 0x0 MSTORE PUSH1 0x20 PUSH1 0x0 KECCAK256 SWAP1 PUSH1 0x7 MUL ADD PUSH1 0x0 SWAP1 SWAP2 SWAP1 SWAP2 SWAP1 SWAP2 POP PUSH1 0x0 DUP3 ADD MLOAD DUP2 PUSH1 0x0 ADD SSTORE PUSH1 0x20 DUP3 ADD MLOAD DUP2 PUSH1 0x1 ADD SSTORE PUSH1 0x40 DUP3 ADD MLOAD DUP2 PUSH1 0x2 ADD SSTORE PUSH1 0x60 DUP3 ADD MLOAD DUP2 PUSH1 0x3 ADD SSTORE PUSH1 0x80 DUP3 ADD MLOAD DUP2 PUSH1 0x4 ADD PUSH1 0x0 PUSH2 0x100 EXP DUP2 SLOAD DUP2 PUSH20 0xFFFFFFFFFFFFFFFFFFFFFFFFFFFFFFFFFFFFFFFF MUL NOT AND SWAP1 DUP4 PUSH20 0xFFFFFFFFFFFFFFFFFFFFFFFFFFFFFFFFFFFFFFFF AND MUL OR SWAP1 SSTORE POP PUSH1 0xA0 DUP3 ADD MLOAD DUP2 PUSH1 0x5 ADD SWAP1 DUP1 MLOAD SWAP1 PUSH1 0x20 ADD SWAP1 PUSH2 0x1F69 SWAP3 SWAP2 SWAP1 PUSH2 0x3651 JUMP JUMPDEST POP PUSH1 0xC0 DUP3 ADD MLOAD DUP2 PUSH1 0x6 ADD PUSH1 0x0 PUSH2 0x100 EXP DUP2 SLOAD DUP2 PUSH1 0xFF MUL NOT AND SWAP1 DUP4 ISZERO ISZERO MUL OR SWAP1 SSTORE POP POP POP PUSH1 0x2 DUP7 EQ ISZERO PUSH2 0x1FE8 JUMPI DUP10 DUP5 PUSH1 0xC0 ADD DUP2 DUP2 MLOAD PUSH2 0x1FA7 SWAP2 SWAP1 PUSH2 0x40BF JUMP JUMPDEST SWAP2 POP DUP2 DUP2 MSTORE POP POP DUP10 PUSH1 0x7 DUP4 PUSH1 0x40 MLOAD PUSH2 0x1FBF SWAP2 SWAP1 PUSH2 0x3DD6 JUMP JUMPDEST SWAP1 DUP2 MSTORE PUSH1 0x20 ADD PUSH1 0x40 MLOAD DUP1 SWAP2 SUB SWAP1 KECCAK256 PUSH1 0x0 DUP3 DUP3 SLOAD PUSH2 0x1FDC SWAP2 SWAP1 PUSH2 0x40BF JUMP JUMPDEST SWAP3 POP POP DUP2 SWAP1 SSTORE POP PUSH2 0x2052 JUMP JUMPDEST PUSH1 0x3 DUP7 EQ ISZERO PUSH2 0x200F JUMPI DUP10 DUP5 PUSH1 0x60 ADD DUP2 DUP2 MLOAD PUSH2 0x2003 SWAP2 SWAP1 PUSH2 0x40BF JUMP JUMPDEST SWAP2 POP DUP2 DUP2 MSTORE POP POP PUSH2 0x2051 JUMP JUMPDEST PUSH1 0x1 DUP7 EQ ISZERO PUSH2 0x2036 JUMPI DUP10 DUP5 PUSH1 0x80 ADD DUP2 DUP2 MLOAD PUSH2 0x202A SWAP2 SWAP1 PUSH2 0x40BF JUMP JUMPDEST SWAP2 POP DUP2 DUP2 MSTORE POP POP PUSH2 0x2050 JUMP JUMPDEST DUP10 DUP5 PUSH1 0xA0 ADD DUP2 DUP2 MLOAD PUSH2 0x2048 SWAP2 SWAP1 PUSH2 0x40BF JUMP JUMPDEST SWAP2 POP DUP2 DUP2 MSTORE POP POP JUMPDEST JUMPDEST JUMPDEST DUP10 PUSH1 0x4 PUSH1 0x0 DUP14 PUSH20 0xFFFFFFFFFFFFFFFFFFFFFFFFFFFFFFFFFFFFFFFF AND PUSH20 0xFFFFFFFFFFFFFFFFFFFFFFFFFFFFFFFFFFFFFFFF AND DUP2 MSTORE PUSH1 0x20 ADD SWAP1 DUP2 MSTORE PUSH1 0x20 ADD PUSH1 0x0 KECCAK256 PUSH1 0x0 DUP3 DUP3 SLOAD PUSH2 0x20A1 SWAP2 SWAP1 PUSH2 0x41A0 JUMP JUMPDEST SWAP3 POP POP DUP2 SWAP1 SSTORE POP POP POP POP POP PUSH1 0x1 SWAP1 POP SWAP7 SWAP6 POP POP POP POP POP POP JUMP JUMPDEST PUSH1 0x0 DUP1 PUSH1 0x0 SWAP1 SLOAD SWAP1 PUSH2 0x100 EXP SWAP1 DIV PUSH20 0xFFFFFFFFFFFFFFFFFFFFFFFFFFFFFFFFFFFFFFFF AND PUSH20 0xFFFFFFFFFFFFFFFFFFFFFFFFFFFFFFFFFFFFFFFF AND CALLER PUSH20 0xFFFFFFFFFFFFFFFFFFFFFFFFFFFFFFFFFFFFFFFF AND EQ PUSH2 0x214B JUMPI PUSH1 0x40 MLOAD PUSH32 0x8C379A000000000000000000000000000000000000000000000000000000000 DUP2 MSTORE PUSH1 0x4 ADD PUSH2 0x2142 SWAP1 PUSH2 0x3ECE JUMP JUMPDEST PUSH1 0x40 MLOAD DUP1 SWAP2 SUB SWAP1 REVERT JUMPDEST PUSH2 0x2154 DUP6 PUSH2 0x310A JUMP JUMPDEST PUSH2 0x2193 JUMPI PUSH1 0x40 MLOAD PUSH32 0x8C379A000000000000000000000000000000000000000000000000000000000 DUP2 MSTORE PUSH1 0x4 ADD PUSH2 0x218A SWAP1 PUSH2 0x3F0E JUMP JUMPDEST PUSH1 0x40 MLOAD DUP1 SWAP2 SUB SWAP1 REVERT JUMPDEST PUSH1 0x0 PUSH1 0x5 PUSH1 0x0 DUP8 DUP2 MSTORE PUSH1 0x20 ADD SWAP1 DUP2 MSTORE PUSH1 0x20 ADD PUSH1 0x0 KECCAK256 PUSH1 0x40 MLOAD DUP1 PUSH2 0x160 ADD PUSH1 0x40 MSTORE SWAP1 DUP2 PUSH1 0x0 DUP3 ADD DUP1 SLOAD PUSH2 0x21C4 SWAP1 PUSH2 0x4268 JUMP JUMPDEST DUP1 PUSH1 0x1F ADD PUSH1 0x20 DUP1 SWAP2 DIV MUL PUSH1 0x20 ADD PUSH1 0x40 MLOAD SWAP1 DUP2 ADD PUSH1 0x40 MSTORE DUP1 SWAP3 SWAP2 SWAP1 DUP2 DUP2 MSTORE PUSH1 0x20 ADD DUP3 DUP1 SLOAD PUSH2 0x21F0 SWAP1 PUSH2 0x4268 JUMP JUMPDEST DUP1 ISZERO PUSH2 0x223D JUMPI DUP1 PUSH1 0x1F LT PUSH2 0x2212 JUMPI PUSH2 0x100 DUP1 DUP4 SLOAD DIV MUL DUP4 MSTORE SWAP2 PUSH1 0x20 ADD SWAP2 PUSH2 0x223D JUMP JUMPDEST DUP3 ADD SWAP2 SWAP1 PUSH1 0x0 MSTORE PUSH1 0x20 PUSH1 0x0 KECCAK256 SWAP1 JUMPDEST DUP2 SLOAD DUP2 MSTORE SWAP1 PUSH1 0x1 ADD SWAP1 PUSH1 0x20 ADD DUP1 DUP4 GT PUSH2 0x2220 JUMPI DUP3 SWAP1 SUB PUSH1 0x1F AND DUP3 ADD SWAP2 JUMPDEST POP POP POP POP POP DUP2 MSTORE PUSH1 0x20 ADD PUSH1 0x1 DUP3 ADD DUP1 SLOAD PUSH2 0x2256 SWAP1 PUSH2 0x4268 JUMP JUMPDEST DUP1 PUSH1 0x1F ADD PUSH1 0x20 DUP1 SWAP2 DIV MUL PUSH1 0x20 ADD PUSH1 0x40 MLOAD SWAP1 DUP2 ADD PUSH1 0x40 MSTORE DUP1 SWAP3 SWAP2 SWAP1 DUP2 DUP2 MSTORE PUSH1 0x20 ADD DUP3 DUP1 SLOAD PUSH2 0x2282 SWAP1 PUSH2 0x4268 JUMP JUMPDEST DUP1 ISZERO PUSH2 0x22CF JUMPI DUP1 PUSH1 0x1F LT PUSH2 0x22A4 JUMPI PUSH2 0x100 DUP1 DUP4 SLOAD DIV MUL DUP4 MSTORE SWAP2 PUSH1 0x20 ADD SWAP2 PUSH2 0x22CF JUMP JUMPDEST DUP3 ADD SWAP2 SWAP1 PUSH1 0x0 MSTORE PUSH1 0x20 PUSH1 0x0 KECCAK256 SWAP1 JUMPDEST DUP2 SLOAD DUP2 MSTORE SWAP1 PUSH1 0x1 ADD SWAP1 PUSH1 0x20 ADD DUP1 DUP4 GT PUSH2 0x22B2 JUMPI DUP3 SWAP1 SUB PUSH1 0x1F AND DUP3 ADD SWAP2 JUMPDEST POP POP POP POP POP DUP2 MSTORE PUSH1 0x20 ADD PUSH1 0x2 DUP3 ADD DUP1 SLOAD PUSH2 0x22E8 SWAP1 PUSH2 0x4268 JUMP JUMPDEST DUP1 PUSH1 0x1F ADD PUSH1 0x20 DUP1 SWAP2 DIV MUL PUSH1 0x20 ADD PUSH1 0x40 MLOAD SWAP1 DUP2 ADD PUSH1 0x40 MSTORE DUP1 SWAP3 SWAP2 SWAP1 DUP2 DUP2 MSTORE PUSH1 0x20 ADD DUP3 DUP1 SLOAD PUSH2 0x2314 SWAP1 PUSH2 0x4268 JUMP JUMPDEST DUP1 ISZERO PUSH2 0x2361 JUMPI DUP1 PUSH1 0x1F LT PUSH2 0x2336 JUMPI PUSH2 0x100 DUP1 DUP4 SLOAD DIV MUL DUP4 MSTORE SWAP2 PUSH1 0x20 ADD SWAP2 PUSH2 0x2361 JUMP JUMPDEST DUP3 ADD SWAP2 SWAP1 PUSH1 0x0 MSTORE PUSH1 0x20 PUSH1 0x0 KECCAK256 SWAP1 JUMPDEST DUP2 SLOAD DUP2 MSTORE SWAP1 PUSH1 0x1 ADD SWAP1 PUSH1 0x20 ADD DUP1 DUP4 GT PUSH2 0x2344 JUMPI DUP3 SWAP1 SUB PUSH1 0x1F AND DUP3 ADD SWAP2 JUMPDEST POP POP POP POP POP DUP2 MSTORE PUSH1 0x20 ADD PUSH1 0x3 DUP3 ADD SLOAD DUP2 MSTORE PUSH1 0x20 ADD PUSH1 0x4 DUP3 ADD SLOAD DUP2 MSTORE PUSH1 0x20 ADD PUSH1 0x5 DUP3 ADD SLOAD DUP2 MSTORE PUSH1 0x20 ADD PUSH1 0x6 DUP3 ADD SLOAD DUP2 MSTORE PUSH1 0x20 ADD PUSH1 0x7 DUP3 ADD SLOAD DUP2 MSTORE PUSH1 0x20 ADD PUSH1 0x8 DUP3 ADD PUSH1 0x0 SWAP1 SLOAD SWAP1 PUSH2 0x100 EXP SWAP1 DIV PUSH1 0xFF AND ISZERO ISZERO ISZERO ISZERO DUP2 MSTORE PUSH1 0x20 ADD PUSH1 0x8 DUP3 ADD PUSH1 0x1 SWAP1 SLOAD SWAP1 PUSH2 0x100 EXP SWAP1 DIV PUSH1 0xFF AND ISZERO ISZERO ISZERO ISZERO DUP2 MSTORE PUSH1 0x20 ADD PUSH1 0x8 DUP3 ADD PUSH1 0x2 SWAP1 SLOAD SWAP1 PUSH2 0x100 EXP SWAP1 DIV PUSH1 0xFF AND ISZERO ISZERO ISZERO ISZERO DUP2 MSTORE POP POP SWAP1 POP PUSH1 0x1 DUP2 PUSH2 0x140 ADD SWAP1 ISZERO ISZERO SWAP1 DUP2 ISZERO ISZERO DUP2 MSTORE POP ISZERO PUSH2 0x2440 JUMPI PUSH1 0x40 MLOAD PUSH32 0x8C379A000000000000000000000000000000000000000000000000000000000 DUP2 MSTORE PUSH1 0x4 ADD PUSH2 0x2437 SWAP1 PUSH2 0x3FCE JUMP JUMPDEST PUSH1 0x40 MLOAD DUP1 SWAP2 SUB SWAP1 REVERT JUMPDEST PUSH1 0x0 PUSH1 0x6 PUSH1 0x0 DUP9 DUP2 MSTORE PUSH1 0x20 ADD SWAP1 DUP2 MSTORE PUSH1 0x20 ADD PUSH1 0x0 KECCAK256 PUSH1 0x0 ADD DUP1 SLOAD DUP1 PUSH1 0x20 MUL PUSH1 0x20 ADD PUSH1 0x40 MLOAD SWAP1 DUP2 ADD PUSH1 0x40 MSTORE DUP1 SWAP3 SWAP2 SWAP1 DUP2 DUP2 MSTORE PUSH1 0x20 ADD PUSH1 0x0 SWAP1 JUMPDEST DUP3 DUP3 LT ISZERO PUSH2 0x25D5 JUMPI DUP4 DUP3 SWAP1 PUSH1 0x0 MSTORE PUSH1 0x20 PUSH1 0x0 KECCAK256 SWAP1 PUSH1 0x7 MUL ADD PUSH1 0x40 MLOAD DUP1 PUSH1 0xE0 ADD PUSH1 0x40 MSTORE SWAP1 DUP2 PUSH1 0x0 DUP3 ADD SLOAD DUP2 MSTORE PUSH1 0x20 ADD PUSH1 0x1 DUP3 ADD SLOAD DUP2 MSTORE PUSH1 0x20 ADD PUSH1 0x2 DUP3 ADD SLOAD DUP2 MSTORE PUSH1 0x20 ADD PUSH1 0x3 DUP3 ADD SLOAD DUP2 MSTORE PUSH1 0x20 ADD PUSH1 0x4 DUP3 ADD PUSH1 0x0 SWAP1 SLOAD SWAP1 PUSH2 0x100 EXP SWAP1 DIV PUSH20 0xFFFFFFFFFFFFFFFFFFFFFFFFFFFFFFFFFFFFFFFF AND PUSH20 0xFFFFFFFFFFFFFFFFFFFFFFFFFFFFFFFFFFFFFFFF AND PUSH20 0xFFFFFFFFFFFFFFFFFFFFFFFFFFFFFFFFFFFFFFFF AND DUP2 MSTORE PUSH1 0x20 ADD PUSH1 0x5 DUP3 ADD DUP1 SLOAD PUSH2 0x2529 SWAP1 PUSH2 0x4268 JUMP JUMPDEST DUP1 PUSH1 0x1F ADD PUSH1 0x20 DUP1 SWAP2 DIV MUL PUSH1 0x20 ADD PUSH1 0x40 MLOAD SWAP1 DUP2 ADD PUSH1 0x40 MSTORE DUP1 SWAP3 SWAP2 SWAP1 DUP2 DUP2 MSTORE PUSH1 0x20 ADD DUP3 DUP1 SLOAD PUSH2 0x2555 SWAP1 PUSH2 0x4268 JUMP JUMPDEST DUP1 ISZERO PUSH2 0x25A2 JUMPI DUP1 PUSH1 0x1F LT PUSH2 0x2577 JUMPI PUSH2 0x100 DUP1 DUP4 SLOAD DIV MUL DUP4 MSTORE SWAP2 PUSH1 0x20 ADD SWAP2 PUSH2 0x25A2 JUMP JUMPDEST DUP3 ADD SWAP2 SWAP1 PUSH1 0x0 MSTORE PUSH1 0x20 PUSH1 0x0 KECCAK256 SWAP1 JUMPDEST DUP2 SLOAD DUP2 MSTORE SWAP1 PUSH1 0x1 ADD SWAP1 PUSH1 0x20 ADD DUP1 DUP4 GT PUSH2 0x2585 JUMPI DUP3 SWAP1 SUB PUSH1 0x1F AND DUP3 ADD SWAP2 JUMPDEST POP POP POP POP POP DUP2 MSTORE PUSH1 0x20 ADD PUSH1 0x6 DUP3 ADD PUSH1 0x0 SWAP1 SLOAD SWAP1 PUSH2 0x100 EXP SWAP1 DIV PUSH1 0xFF AND ISZERO ISZERO ISZERO ISZERO DUP2 MSTORE POP POP DUP2 MSTORE PUSH1 0x20 ADD SWAP1 PUSH1 0x1 ADD SWAP1 PUSH2 0x2478 JUMP JUMPDEST POP POP POP POP SWAP1 POP PUSH1 0x0 PUSH2 0x2644 PUSH1 0x14 PUSH2 0x25FA PUSH1 0x2 DUP7 PUSH1 0xE0 ADD MLOAD PUSH2 0x4E3 SWAP1 SWAP2 SWAP1 PUSH4 0xFFFFFFFF AND JUMP JUMPDEST DUP6 PUSH1 0x80 ADD MLOAD DUP7 PUSH1 0xA0 ADD MLOAD DUP8 PUSH1 0x60 ADD MLOAD DUP9 PUSH1 0xC0 ADD MLOAD PUSH2 0x2618 SWAP2 SWAP1 PUSH2 0x40BF JUMP JUMPDEST PUSH2 0x2622 SWAP2 SWAP1 PUSH2 0x40BF JUMP JUMPDEST PUSH2 0x262C SWAP2 SWAP1 PUSH2 0x40BF JUMP JUMPDEST PUSH2 0x2636 SWAP2 SWAP1 PUSH2 0x40BF JUMP JUMPDEST PUSH2 0x4E3 SWAP1 SWAP2 SWAP1 PUSH4 0xFFFFFFFF AND JUMP JUMPDEST PUSH1 0x1 PUSH1 0x0 DUP3 DUP3 SLOAD PUSH2 0x2655 SWAP2 SWAP1 PUSH2 0x40BF JUMP JUMPDEST SWAP3 POP POP DUP2 SWAP1 SSTORE POP PUSH1 0x0 JUMPDEST PUSH1 0x1 DUP4 MLOAD PUSH2 0x266D SWAP2 SWAP1 PUSH2 0x41A0 JUMP JUMPDEST DUP2 GT PUSH2 0x2B0B JUMPI PUSH1 0x0 DUP4 DUP3 DUP2 MLOAD DUP2 LT PUSH2 0x2688 JUMPI PUSH2 0x2687 PUSH2 0x43B5 JUMP JUMPDEST JUMPDEST PUSH1 0x20 MUL PUSH1 0x20 ADD ADD MLOAD PUSH1 0xC0 ADD SWAP1 ISZERO ISZERO SWAP1 DUP2 ISZERO ISZERO DUP2 MSTORE POP ISZERO PUSH2 0x2AF8 JUMPI PUSH1 0x2 DUP4 DUP3 DUP2 MLOAD DUP2 LT PUSH2 0x26B7 JUMPI PUSH2 0x26B6 PUSH2 0x43B5 JUMP JUMPDEST JUMPDEST PUSH1 0x20 MUL PUSH1 0x20 ADD ADD MLOAD PUSH1 0x20 ADD MLOAD EQ ISZERO PUSH2 0x2888 JUMPI PUSH2 0x2716 PUSH1 0x64 PUSH2 0x2708 PUSH1 0x55 PUSH2 0x26EB PUSH1 0x2 DUP10 PUSH1 0xE0 ADD MLOAD PUSH2 0x4E3 SWAP1 SWAP2 SWAP1 PUSH4 0xFFFFFFFF AND JUMP JUMPDEST DUP9 PUSH1 0xC0 ADD MLOAD PUSH2 0x26FA SWAP2 SWAP1 PUSH2 0x40BF JUMP JUMPDEST PUSH2 0x332F SWAP1 SWAP2 SWAP1 PUSH4 0xFFFFFFFF AND JUMP JUMPDEST PUSH2 0x4E3 SWAP1 SWAP2 SWAP1 PUSH4 0xFFFFFFFF AND JUMP JUMPDEST SWAP2 POP DUP8 DUP4 DUP3 DUP2 MLOAD DUP2 LT PUSH2 0x272C JUMPI PUSH2 0x272B PUSH2 0x43B5 JUMP JUMPDEST JUMPDEST PUSH1 0x20 MUL PUSH1 0x20 ADD ADD MLOAD PUSH1 0x40 ADD MLOAD EQ DUP1 ISZERO PUSH2 0x2762 JUMPI POP DUP7 DUP4 DUP3 DUP2 MLOAD DUP2 LT PUSH2 0x2754 JUMPI PUSH2 0x2753 PUSH2 0x43B5 JUMP JUMPDEST JUMPDEST PUSH1 0x20 MUL PUSH1 0x20 ADD ADD MLOAD PUSH1 0x60 ADD MLOAD EQ JUMPDEST ISZERO PUSH2 0x2883 JUMPI PUSH1 0x0 PUSH1 0x7 DUP5 DUP4 DUP2 MLOAD DUP2 LT PUSH2 0x277E JUMPI PUSH2 0x277D PUSH2 0x43B5 JUMP JUMPDEST JUMPDEST PUSH1 0x20 MUL PUSH1 0x20 ADD ADD MLOAD PUSH1 0xA0 ADD MLOAD PUSH1 0x40 MLOAD PUSH2 0x2797 SWAP2 SWAP1 PUSH2 0x3DD6 JUMP JUMPDEST SWAP1 DUP2 MSTORE PUSH1 0x20 ADD PUSH1 0x40 MLOAD DUP1 SWAP2 SUB SWAP1 KECCAK256 SLOAD SWAP1 POP PUSH1 0x0 DUP2 DUP6 DUP5 DUP2 MLOAD DUP2 LT PUSH2 0x27BE JUMPI PUSH2 0x27BD PUSH2 0x43B5 JUMP JUMPDEST JUMPDEST PUSH1 0x20 MUL PUSH1 0x20 ADD ADD MLOAD PUSH1 0x0 ADD MLOAD DUP6 PUSH2 0x27D5 SWAP2 SWAP1 PUSH2 0x4146 JUMP JUMPDEST PUSH2 0x27DF SWAP2 SWAP1 PUSH2 0x4115 JUMP JUMPDEST SWAP1 POP DUP1 PUSH1 0x4 PUSH1 0x0 DUP8 DUP7 DUP2 MLOAD DUP2 LT PUSH2 0x27F9 JUMPI PUSH2 0x27F8 PUSH2 0x43B5 JUMP JUMPDEST JUMPDEST PUSH1 0x20 MUL PUSH1 0x20 ADD ADD MLOAD PUSH1 0x80 ADD MLOAD PUSH20 0xFFFFFFFFFFFFFFFFFFFFFFFFFFFFFFFFFFFFFFFF AND PUSH20 0xFFFFFFFFFFFFFFFFFFFFFFFFFFFFFFFFFFFFFFFF AND DUP2 MSTORE PUSH1 0x20 ADD SWAP1 DUP2 MSTORE PUSH1 0x20 ADD PUSH1 0x0 KECCAK256 PUSH1 0x0 DUP3 DUP3 SLOAD PUSH2 0x284E SWAP2 SWAP1 PUSH2 0x40BF JUMP JUMPDEST SWAP3 POP POP DUP2 SWAP1 SSTORE POP PUSH1 0x1 DUP6 DUP5 DUP2 MLOAD DUP2 LT PUSH2 0x286A JUMPI PUSH2 0x2869 PUSH2 0x43B5 JUMP JUMPDEST JUMPDEST PUSH1 0x20 MUL PUSH1 0x20 ADD ADD MLOAD PUSH1 0xC0 ADD SWAP1 ISZERO ISZERO SWAP1 DUP2 ISZERO ISZERO DUP2 MSTORE POP POP POP POP JUMPDEST PUSH2 0x2AF7 JUMP JUMPDEST DUP6 DUP4 DUP3 DUP2 MLOAD DUP2 LT PUSH2 0x289C JUMPI PUSH2 0x289B PUSH2 0x43B5 JUMP JUMPDEST JUMPDEST PUSH1 0x20 MUL PUSH1 0x20 ADD ADD MLOAD PUSH1 0x20 ADD MLOAD EQ ISZERO PUSH2 0x2AF6 JUMPI PUSH2 0x2919 PUSH1 0x64 PUSH2 0x290B PUSH1 0x55 PUSH2 0x28D0 PUSH1 0x2 DUP10 PUSH1 0xE0 ADD MLOAD PUSH2 0x4E3 SWAP1 SWAP2 SWAP1 PUSH4 0xFFFFFFFF AND JUMP JUMPDEST DUP9 PUSH1 0x80 ADD MLOAD DUP10 PUSH1 0xA0 ADD MLOAD DUP11 PUSH1 0x60 ADD MLOAD PUSH2 0x28E9 SWAP2 SWAP1 PUSH2 0x40BF JUMP JUMPDEST PUSH2 0x28F3 SWAP2 SWAP1 PUSH2 0x40BF JUMP JUMPDEST PUSH2 0x28FD SWAP2 SWAP1 PUSH2 0x40BF JUMP JUMPDEST PUSH2 0x332F SWAP1 SWAP2 SWAP1 PUSH4 0xFFFFFFFF AND JUMP JUMPDEST PUSH2 0x4E3 SWAP1 SWAP2 SWAP1 PUSH4 0xFFFFFFFF AND JUMP JUMPDEST SWAP2 POP PUSH1 0x0 DUP1 DUP5 DUP4 DUP2 MLOAD DUP2 LT PUSH2 0x2931 JUMPI PUSH2 0x2930 PUSH2 0x43B5 JUMP JUMPDEST JUMPDEST PUSH1 0x20 MUL PUSH1 0x20 ADD ADD MLOAD PUSH1 0x20 ADD MLOAD EQ ISZERO PUSH2 0x2971 JUMPI PUSH2 0x296E PUSH1 0x64 PUSH2 0x2960 PUSH1 0x55 DUP9 PUSH1 0xA0 ADD MLOAD PUSH2 0x332F SWAP1 SWAP2 SWAP1 PUSH4 0xFFFFFFFF AND JUMP JUMPDEST PUSH2 0x4E3 SWAP1 SWAP2 SWAP1 PUSH4 0xFFFFFFFF AND JUMP JUMPDEST SWAP1 POP JUMPDEST PUSH1 0x1 DUP5 DUP4 DUP2 MLOAD DUP2 LT PUSH2 0x2986 JUMPI PUSH2 0x2985 PUSH2 0x43B5 JUMP JUMPDEST JUMPDEST PUSH1 0x20 MUL PUSH1 0x20 ADD ADD MLOAD PUSH1 0x20 ADD MLOAD EQ ISZERO PUSH2 0x29C6 JUMPI PUSH2 0x29C3 PUSH1 0x64 PUSH2 0x29B5 PUSH1 0x55 DUP9 PUSH1 0x80 ADD MLOAD PUSH2 0x332F SWAP1 SWAP2 SWAP1 PUSH4 0xFFFFFFFF AND JUMP JUMPDEST PUSH2 0x4E3 SWAP1 SWAP2 SWAP1 PUSH4 0xFFFFFFFF AND JUMP JUMPDEST SWAP1 POP JUMPDEST PUSH1 0x3 DUP5 DUP4 DUP2 MLOAD DUP2 LT PUSH2 0x29DB JUMPI PUSH2 0x29DA PUSH2 0x43B5 JUMP JUMPDEST JUMPDEST PUSH1 0x20 MUL PUSH1 0x20 ADD ADD MLOAD PUSH1 0x20 ADD MLOAD EQ ISZERO PUSH2 0x2A1B JUMPI PUSH2 0x2A18 PUSH1 0x64 PUSH2 0x2A0A PUSH1 0x55 DUP9 PUSH1 0x60 ADD MLOAD PUSH2 0x332F SWAP1 SWAP2 SWAP1 PUSH4 0xFFFFFFFF AND JUMP JUMPDEST PUSH2 0x4E3 SWAP1 SWAP2 SWAP1 PUSH4 0xFFFFFFFF AND JUMP JUMPDEST SWAP1 POP JUMPDEST PUSH1 0x0 DUP2 DUP6 DUP5 DUP2 MLOAD DUP2 LT PUSH2 0x2A31 JUMPI PUSH2 0x2A30 PUSH2 0x43B5 JUMP JUMPDEST JUMPDEST PUSH1 0x20 MUL PUSH1 0x20 ADD ADD MLOAD PUSH1 0x0 ADD MLOAD DUP6 PUSH2 0x2A48 SWAP2 SWAP1 PUSH2 0x4146 JUMP JUMPDEST PUSH2 0x2A52 SWAP2 SWAP1 PUSH2 0x4115 JUMP JUMPDEST SWAP1 POP DUP1 PUSH1 0x4 PUSH1 0x0 DUP8 DUP7 DUP2 MLOAD DUP2 LT PUSH2 0x2A6C JUMPI PUSH2 0x2A6B PUSH2 0x43B5 JUMP JUMPDEST JUMPDEST PUSH1 0x20 MUL PUSH1 0x20 ADD ADD MLOAD PUSH1 0x80 ADD MLOAD PUSH20 0xFFFFFFFFFFFFFFFFFFFFFFFFFFFFFFFFFFFFFFFF AND PUSH20 0xFFFFFFFFFFFFFFFFFFFFFFFFFFFFFFFFFFFFFFFF AND DUP2 MSTORE PUSH1 0x20 ADD SWAP1 DUP2 MSTORE PUSH1 0x20 ADD PUSH1 0x0 KECCAK256 PUSH1 0x0 DUP3 DUP3 SLOAD PUSH2 0x2AC1 SWAP2 SWAP1 PUSH2 0x40BF JUMP JUMPDEST SWAP3 POP POP DUP2 SWAP1 SSTORE POP PUSH1 0x1 DUP6 DUP5 DUP2 MLOAD DUP2 LT PUSH2 0x2ADD JUMPI PUSH2 0x2ADC PUSH2 0x43B5 JUMP JUMPDEST JUMPDEST PUSH1 0x20 MUL PUSH1 0x20 ADD ADD MLOAD PUSH1 0xC0 ADD SWAP1 ISZERO ISZERO SWAP1 DUP2 ISZERO ISZERO DUP2 MSTORE POP POP POP POP JUMPDEST JUMPDEST JUMPDEST DUP1 DUP1 PUSH2 0x2B03 SWAP1 PUSH2 0x42CB JUMP JUMPDEST SWAP2 POP POP PUSH2 0x265F JUMP JUMPDEST POP PUSH1 0x1 DUP4 PUSH2 0x140 ADD SWAP1 ISZERO ISZERO SWAP1 DUP2 ISZERO ISZERO DUP2 MSTORE POP POP POP POP POP PUSH1 0x1 SWAP1 POP SWAP5 SWAP4 POP POP POP POP JUMP JUMPDEST PUSH1 0x0 DUP1 PUSH1 0x0 SWAP1 SLOAD SWAP1 PUSH2 0x100 EXP SWAP1 DIV PUSH20 0xFFFFFFFFFFFFFFFFFFFFFFFFFFFFFFFFFFFFFFFF AND PUSH20 0xFFFFFFFFFFFFFFFFFFFFFFFFFFFFFFFFFFFFFFFF AND CALLER PUSH20 0xFFFFFFFFFFFFFFFFFFFFFFFFFFFFFFFFFFFFFFFF AND EQ PUSH2 0x2BBE JUMPI PUSH1 0x40 MLOAD PUSH32 0x8C379A000000000000000000000000000000000000000000000000000000000 DUP2 MSTORE PUSH1 0x4 ADD PUSH2 0x2BB5 SWAP1 PUSH2 0x3ECE JUMP JUMPDEST PUSH1 0x40 MLOAD DUP1 SWAP2 SUB SWAP1 REVERT JUMPDEST DUP2 PUSH1 0x4 PUSH1 0x0 DUP6 PUSH20 0xFFFFFFFFFFFFFFFFFFFFFFFFFFFFFFFFFFFFFFFF AND PUSH20 0xFFFFFFFFFFFFFFFFFFFFFFFFFFFFFFFFFFFFFFFF AND DUP2 MSTORE PUSH1 0x20 ADD SWAP1 DUP2 MSTORE PUSH1 0x20 ADD PUSH1 0x0 KECCAK256 SLOAD LT ISZERO DUP1 ISZERO PUSH2 0x2C4D JUMPI POP PUSH1 0x0 PUSH1 0x4 PUSH1 0x0 DUP6 PUSH20 0xFFFFFFFFFFFFFFFFFFFFFFFFFFFFFFFFFFFFFFFF AND PUSH20 0xFFFFFFFFFFFFFFFFFFFFFFFFFFFFFFFFFFFFFFFF AND DUP2 MSTORE PUSH1 0x20 ADD SWAP1 DUP2 MSTORE PUSH1 0x20 ADD PUSH1 0x0 KECCAK256 SLOAD LT ISZERO JUMPDEST ISZERO PUSH2 0x2CFC JUMPI PUSH1 0x0 DUP4 SWAP1 POP DUP1 PUSH20 0xFFFFFFFFFFFFFFFFFFFFFFFFFFFFFFFFFFFFFFFF AND PUSH2 0x8FC PUSH2 0x2CCA PUSH7 0x2386F26FC10000 PUSH1 0x4 PUSH1 0x0 DUP10 PUSH20 0xFFFFFFFFFFFFFFFFFFFFFFFFFFFFFFFFFFFFFFFF AND PUSH20 0xFFFFFFFFFFFFFFFFFFFFFFFFFFFFFFFFFFFFFFFF AND DUP2 MSTORE PUSH1 0x20 ADD SWAP1 DUP2 MSTORE PUSH1 0x20 ADD PUSH1 0x0 KECCAK256 SLOAD PUSH2 0x332F SWAP1 SWAP2 SWAP1 PUSH4 0xFFFFFFFF AND JUMP JUMPDEST SWAP1 DUP2 ISZERO MUL SWAP1 PUSH1 0x40 MLOAD PUSH1 0x0 PUSH1 0x40 MLOAD DUP1 DUP4 SUB DUP2 DUP6 DUP9 DUP9 CALL SWAP4 POP POP POP POP ISZERO DUP1 ISZERO PUSH2 0x2CF5 JUMPI RETURNDATASIZE PUSH1 0x0 DUP1 RETURNDATACOPY RETURNDATASIZE PUSH1 0x0 REVERT JUMPDEST POP POP PUSH2 0x2D37 JUMP JUMPDEST PUSH1 0x40 MLOAD PUSH32 0x8C379A000000000000000000000000000000000000000000000000000000000 DUP2 MSTORE PUSH1 0x4 ADD PUSH2 0x2D2E SWAP1 PUSH2 0x3F8E JUMP JUMPDEST PUSH1 0x40 MLOAD DUP1 SWAP2 SUB SWAP1 REVERT JUMPDEST PUSH1 0x1 SWAP1 POP SWAP3 SWAP2 POP POP JUMP JUMPDEST PUSH1 0x0 PUSH1 0x4 PUSH1 0x0 CALLER PUSH20 0xFFFFFFFFFFFFFFFFFFFFFFFFFFFFFFFFFFFFFFFF AND PUSH20 0xFFFFFFFFFFFFFFFFFFFFFFFFFFFFFFFFFFFFFFFF AND DUP2 MSTORE PUSH1 0x20 ADD SWAP1 DUP2 MSTORE PUSH1 0x20 ADD PUSH1 0x0 KECCAK256 SLOAD SWAP1 POP SWAP1 JUMP JUMPDEST PUSH1 0x60 PUSH1 0x2 DUP1 SLOAD DUP1 PUSH1 0x20 MUL PUSH1 0x20 ADD PUSH1 0x40 MLOAD SWAP1 DUP2 ADD PUSH1 0x40 MSTORE DUP1 SWAP3 SWAP2 SWAP1 DUP2 DUP2 MSTORE PUSH1 0x20 ADD DUP3 DUP1 SLOAD DUP1 ISZERO PUSH2 0x2DD6 JUMPI PUSH1 0x20 MUL DUP3 ADD SWAP2 SWAP1 PUSH1 0x0 MSTORE PUSH1 0x20 PUSH1 0x0 KECCAK256 SWAP1 JUMPDEST DUP2 SLOAD DUP2 MSTORE PUSH1 0x20 ADD SWAP1 PUSH1 0x1 ADD SWAP1 DUP1 DUP4 GT PUSH2 0x2DC2 JUMPI JUMPDEST POP POP POP POP POP SWAP1 POP SWAP1 JUMP JUMPDEST PUSH1 0x60 DUP1 PUSH2 0x2DEB PUSH2 0x36D7 JUMP JUMPDEST PUSH2 0x2DF4 DUP5 PUSH2 0x310A JUMP JUMPDEST PUSH2 0x2E33 JUMPI PUSH1 0x40 MLOAD PUSH32 0x8C379A000000000000000000000000000000000000000000000000000000000 DUP2 MSTORE PUSH1 0x4 ADD PUSH2 0x2E2A SWAP1 PUSH2 0x3EEE JUMP JUMPDEST PUSH1 0x40 MLOAD DUP1 SWAP2 SUB SWAP1 REVERT JUMPDEST PUSH1 0x0 PUSH2 0x2F12 PUSH1 0x5 PUSH1 0x0 DUP8 DUP2 MSTORE PUSH1 0x20 ADD SWAP1 DUP2 MSTORE PUSH1 0x20 ADD PUSH1 0x0 KECCAK256 PUSH1 0x0 ADD DUP1 SLOAD PUSH2 0x2E59 SWAP1 PUSH2 0x4268 JUMP JUMPDEST DUP1 PUSH1 0x1F ADD PUSH1 0x20 DUP1 SWAP2 DIV MUL PUSH1 0x20 ADD PUSH1 0x40 MLOAD SWAP1 DUP2 ADD PUSH1 0x40 MSTORE DUP1 SWAP3 SWAP2 SWAP1 DUP2 DUP2 MSTORE PUSH1 0x20 ADD DUP3 DUP1 SLOAD PUSH2 0x2E85 SWAP1 PUSH2 0x4268 JUMP JUMPDEST DUP1 ISZERO PUSH2 0x2ED2 JUMPI DUP1 PUSH1 0x1F LT PUSH2 0x2EA7 JUMPI PUSH2 0x100 DUP1 DUP4 SLOAD DIV MUL DUP4 MSTORE SWAP2 PUSH1 0x20 ADD SWAP2 PUSH2 0x2ED2 JUMP JUMPDEST DUP3 ADD SWAP2 SWAP1 PUSH1 0x0 MSTORE PUSH1 0x20 PUSH1 0x0 KECCAK256 SWAP1 JUMPDEST DUP2 SLOAD DUP2 MSTORE SWAP1 PUSH1 0x1 ADD SWAP1 PUSH1 0x20 ADD DUP1 DUP4 GT PUSH2 0x2EB5 JUMPI DUP3 SWAP1 SUB PUSH1 0x1F AND DUP3 ADD SWAP2 JUMPDEST POP POP POP POP POP PUSH1 0x40 MLOAD DUP1 PUSH1 0x40 ADD PUSH1 0x40 MSTORE DUP1 PUSH1 0x4 DUP2 MSTORE PUSH1 0x20 ADD PUSH32 0x2076732000000000000000000000000000000000000000000000000000000000 DUP2 MSTORE POP PUSH2 0x3168 JUMP JUMPDEST SWAP1 POP PUSH2 0x2FBC DUP2 PUSH1 0x5 PUSH1 0x0 DUP9 DUP2 MSTORE PUSH1 0x20 ADD SWAP1 DUP2 MSTORE PUSH1 0x20 ADD PUSH1 0x0 KECCAK256 PUSH1 0x1 ADD DUP1 SLOAD PUSH2 0x2F39 SWAP1 PUSH2 0x4268 JUMP JUMPDEST DUP1 PUSH1 0x1F ADD PUSH1 0x20 DUP1 SWAP2 DIV MUL PUSH1 0x20 ADD PUSH1 0x40 MLOAD SWAP1 DUP2 ADD PUSH1 0x40 MSTORE DUP1 SWAP3 SWAP2 SWAP1 DUP2 DUP2 MSTORE PUSH1 0x20 ADD DUP3 DUP1 SLOAD PUSH2 0x2F65 SWAP1 PUSH2 0x4268 JUMP JUMPDEST DUP1 ISZERO PUSH2 0x2FB2 JUMPI DUP1 PUSH1 0x1F LT PUSH2 0x2F87 JUMPI PUSH2 0x100 DUP1 DUP4 SLOAD DIV MUL DUP4 MSTORE SWAP2 PUSH1 0x20 ADD SWAP2 PUSH2 0x2FB2 JUMP JUMPDEST DUP3 ADD SWAP2 SWAP1 PUSH1 0x0 MSTORE PUSH1 0x20 PUSH1 0x0 KECCAK256 SWAP1 JUMPDEST DUP2 SLOAD DUP2 MSTORE SWAP1 PUSH1 0x1 ADD SWAP1 PUSH1 0x20 ADD DUP1 DUP4 GT PUSH2 0x2F95 JUMPI DUP3 SWAP1 SUB PUSH1 0x1F AND DUP3 ADD SWAP2 JUMPDEST POP POP POP POP POP PUSH2 0x3168 JUMP JUMPDEST SWAP4 POP PUSH1 0x0 PUSH1 0x40 MLOAD DUP1 PUSH1 0xA0 ADD PUSH1 0x40 MSTORE DUP1 PUSH1 0x5 PUSH1 0x0 DUP10 DUP2 MSTORE PUSH1 0x20 ADD SWAP1 DUP2 MSTORE PUSH1 0x20 ADD PUSH1 0x0 KECCAK256 PUSH1 0x3 ADD SLOAD DUP2 MSTORE PUSH1 0x20 ADD PUSH1 0x5 PUSH1 0x0 DUP10 DUP2 MSTORE PUSH1 0x20 ADD SWAP1 DUP2 MSTORE PUSH1 0x20 ADD PUSH1 0x0 KECCAK256 PUSH1 0x4 ADD SLOAD DUP2 MSTORE PUSH1 0x20 ADD PUSH1 0x5 PUSH1 0x0 DUP10 DUP2 MSTORE PUSH1 0x20 ADD SWAP1 DUP2 MSTORE PUSH1 0x20 ADD PUSH1 0x0 KECCAK256 PUSH1 0x5 ADD SLOAD DUP2 MSTORE PUSH1 0x20 ADD PUSH1 0x5 PUSH1 0x0 DUP10 DUP2 MSTORE PUSH1 0x20 ADD SWAP1 DUP2 MSTORE PUSH1 0x20 ADD PUSH1 0x0 KECCAK256 PUSH1 0x6 ADD SLOAD DUP2 MSTORE PUSH1 0x20 ADD PUSH1 0x5 PUSH1 0x0 DUP10 DUP2 MSTORE PUSH1 0x20 ADD SWAP1 DUP2 MSTORE PUSH1 0x20 ADD PUSH1 0x0 KECCAK256 PUSH1 0x7 ADD SLOAD DUP2 MSTORE POP SWAP1 POP DUP5 PUSH1 0x5 PUSH1 0x0 DUP9 DUP2 MSTORE PUSH1 0x20 ADD SWAP1 DUP2 MSTORE PUSH1 0x20 ADD PUSH1 0x0 KECCAK256 PUSH1 0x2 ADD DUP3 DUP2 DUP1 SLOAD PUSH2 0x307B SWAP1 PUSH2 0x4268 JUMP JUMPDEST DUP1 PUSH1 0x1F ADD PUSH1 0x20 DUP1 SWAP2 DIV MUL PUSH1 0x20 ADD PUSH1 0x40 MLOAD SWAP1 DUP2 ADD PUSH1 0x40 MSTORE DUP1 SWAP3 SWAP2 SWAP1 DUP2 DUP2 MSTORE PUSH1 0x20 ADD DUP3 DUP1 SLOAD PUSH2 0x30A7 SWAP1 PUSH2 0x4268 JUMP JUMPDEST DUP1 ISZERO PUSH2 0x30F4 JUMPI DUP1 PUSH1 0x1F LT PUSH2 0x30C9 JUMPI PUSH2 0x100 DUP1 DUP4 SLOAD DIV MUL DUP4 MSTORE SWAP2 PUSH1 0x20 ADD SWAP2 PUSH2 0x30F4 JUMP JUMPDEST DUP3 ADD SWAP2 SWAP1 PUSH1 0x0 MSTORE PUSH1 0x20 PUSH1 0x0 KECCAK256 SWAP1 JUMPDEST DUP2 SLOAD DUP2 MSTORE SWAP1 PUSH1 0x1 ADD SWAP1 PUSH1 0x20 ADD DUP1 DUP4 GT PUSH2 0x30D7 JUMPI DUP3 SWAP1 SUB PUSH1 0x1F AND DUP3 ADD SWAP2 JUMPDEST POP POP POP POP POP SWAP2 POP SWAP5 POP SWAP5 POP SWAP5 POP POP POP SWAP2 SWAP4 SWAP1 SWAP3 POP JUMP JUMPDEST PUSH1 0x0 PUSH1 0x5 PUSH1 0x0 DUP4 DUP2 MSTORE PUSH1 0x20 ADD SWAP1 DUP2 MSTORE PUSH1 0x20 ADD PUSH1 0x0 KECCAK256 PUSH1 0x8 ADD PUSH1 0x1 SWAP1 SLOAD SWAP1 PUSH2 0x100 EXP SWAP1 DIV PUSH1 0xFF AND SWAP1 POP SWAP2 SWAP1 POP JUMP JUMPDEST PUSH1 0x60 PUSH2 0x3161 DUP3 PUSH1 0x40 MLOAD PUSH1 0x20 ADD PUSH2 0x314D SWAP2 SWAP1 PUSH2 0x3DED JUMP JUMPDEST PUSH1 0x40 MLOAD PUSH1 0x20 DUP2 DUP4 SUB SUB DUP2 MSTORE SWAP1 PUSH1 0x40 MSTORE PUSH2 0x3374 JUMP JUMPDEST SWAP1 POP SWAP2 SWAP1 POP JUMP JUMPDEST PUSH1 0x60 PUSH1 0x0 DUP4 SWAP1 POP PUSH1 0x0 DUP4 SWAP1 POP PUSH1 0x0 DUP2 MLOAD DUP4 MLOAD PUSH2 0x3184 SWAP2 SWAP1 PUSH2 0x40BF JUMP JUMPDEST PUSH8 0xFFFFFFFFFFFFFFFF DUP2 GT ISZERO PUSH2 0x319D JUMPI PUSH2 0x319C PUSH2 0x43E4 JUMP JUMPDEST JUMPDEST PUSH1 0x40 MLOAD SWAP1 DUP1 DUP3 MSTORE DUP1 PUSH1 0x1F ADD PUSH1 0x1F NOT AND PUSH1 0x20 ADD DUP3 ADD PUSH1 0x40 MSTORE DUP1 ISZERO PUSH2 0x31CF JUMPI DUP2 PUSH1 0x20 ADD PUSH1 0x1 DUP3 MUL DUP1 CALLDATASIZE DUP4 CALLDATACOPY DUP1 DUP3 ADD SWAP2 POP POP SWAP1 POP JUMPDEST POP SWAP1 POP PUSH1 0x0 DUP2 SWAP1 POP PUSH1 0x0 DUP1 JUMPDEST DUP6 MLOAD DUP2 LT ISZERO PUSH2 0x3263 JUMPI DUP6 DUP2 DUP2 MLOAD DUP2 LT PUSH2 0x31F7 JUMPI PUSH2 0x31F6 PUSH2 0x43B5 JUMP JUMPDEST JUMPDEST PUSH1 0x20 ADD ADD MLOAD PUSH1 0xF8 SHR PUSH1 0xF8 SHL DUP4 DUP4 DUP1 PUSH2 0x320E SWAP1 PUSH2 0x42CB JUMP JUMPDEST SWAP5 POP DUP2 MLOAD DUP2 LT PUSH2 0x3221 JUMPI PUSH2 0x3220 PUSH2 0x43B5 JUMP JUMPDEST JUMPDEST PUSH1 0x20 ADD ADD SWAP1 PUSH31 0xFFFFFFFFFFFFFFFFFFFFFFFFFFFFFFFFFFFFFFFFFFFFFFFFFFFFFFFFFFFFFF NOT AND SWAP1 DUP2 PUSH1 0x0 BYTE SWAP1 MSTORE8 POP DUP1 DUP1 PUSH2 0x325B SWAP1 PUSH2 0x42CB JUMP JUMPDEST SWAP2 POP POP PUSH2 0x31DB JUMP JUMPDEST POP PUSH1 0x0 JUMPDEST DUP5 MLOAD DUP2 LT ISZERO PUSH2 0x32EF JUMPI DUP5 DUP2 DUP2 MLOAD DUP2 LT PUSH2 0x3283 JUMPI PUSH2 0x3282 PUSH2 0x43B5 JUMP JUMPDEST JUMPDEST PUSH1 0x20 ADD ADD MLOAD PUSH1 0xF8 SHR PUSH1 0xF8 SHL DUP4 DUP4 DUP1 PUSH2 0x329A SWAP1 PUSH2 0x42CB JUMP JUMPDEST SWAP5 POP DUP2 MLOAD DUP2 LT PUSH2 0x32AD JUMPI PUSH2 0x32AC PUSH2 0x43B5 JUMP JUMPDEST JUMPDEST PUSH1 0x20 ADD ADD SWAP1 PUSH31 0xFFFFFFFFFFFFFFFFFFFFFFFFFFFFFFFFFFFFFFFFFFFFFFFFFFFFFFFFFFFFFF NOT AND SWAP1 DUP2 PUSH1 0x0 BYTE SWAP1 MSTORE8 POP DUP1 DUP1 PUSH2 0x32E7 SWAP1 PUSH2 0x42CB JUMP JUMPDEST SWAP2 POP POP PUSH2 0x3267 JUMP JUMPDEST POP DUP3 SWAP6 POP POP POP POP POP POP SWAP3 SWAP2 POP POP JUMP JUMPDEST PUSH1 0x60 PUSH2 0x3328 DUP3 PUSH1 0x40 MLOAD PUSH1 0x20 ADD PUSH2 0x3314 SWAP2 SWAP1 PUSH2 0x3DBB JUMP JUMPDEST PUSH1 0x40 MLOAD PUSH1 0x20 DUP2 DUP4 SUB SUB DUP2 MSTORE SWAP1 PUSH1 0x40 MSTORE PUSH2 0x3374 JUMP JUMPDEST SWAP1 POP SWAP2 SWAP1 POP JUMP JUMPDEST PUSH1 0x0 DUP1 DUP4 EQ ISZERO PUSH2 0x3342 JUMPI PUSH1 0x0 SWAP1 POP PUSH2 0x336E JUMP JUMPDEST PUSH1 0x0 DUP3 DUP5 PUSH2 0x3350 SWAP2 SWAP1 PUSH2 0x4146 JUMP JUMPDEST SWAP1 POP DUP3 DUP5 DUP3 PUSH2 0x335F SWAP2 SWAP1 PUSH2 0x4115 JUMP JUMPDEST EQ PUSH2 0x3369 JUMPI PUSH1 0x0 DUP1 REVERT JUMPDEST DUP1 SWAP2 POP POP JUMPDEST SWAP3 SWAP2 POP POP JUMP JUMPDEST PUSH1 0x60 PUSH1 0x0 PUSH1 0x40 MLOAD DUP1 PUSH1 0x80 ADD PUSH1 0x40 MSTORE DUP1 PUSH1 0x42 DUP2 MSTORE PUSH1 0x20 ADD PUSH2 0x4606 PUSH1 0x42 SWAP2 CODECOPY SWAP1 POP PUSH1 0x0 PUSH1 0x2 DUP5 MLOAD PUSH2 0x33A3 SWAP2 SWAP1 PUSH2 0x4146 JUMP JUMPDEST PUSH1 0x2 PUSH2 0x33AF SWAP2 SWAP1 PUSH2 0x40BF JUMP JUMPDEST PUSH8 0xFFFFFFFFFFFFFFFF DUP2 GT ISZERO PUSH2 0x33C8 JUMPI PUSH2 0x33C7 PUSH2 0x43E4 JUMP JUMPDEST JUMPDEST PUSH1 0x40 MLOAD SWAP1 DUP1 DUP3 MSTORE DUP1 PUSH1 0x1F ADD PUSH1 0x1F NOT AND PUSH1 0x20 ADD DUP3 ADD PUSH1 0x40 MSTORE DUP1 ISZERO PUSH2 0x33FA JUMPI DUP2 PUSH1 0x20 ADD PUSH1 0x1 DUP3 MUL DUP1 CALLDATASIZE DUP4 CALLDATACOPY DUP1 DUP3 ADD SWAP2 POP POP SWAP1 POP JUMPDEST POP SWAP1 POP PUSH32 0x3000000000000000000000000000000000000000000000000000000000000000 DUP2 PUSH1 0x0 DUP2 MLOAD DUP2 LT PUSH2 0x3432 JUMPI PUSH2 0x3431 PUSH2 0x43B5 JUMP JUMPDEST JUMPDEST PUSH1 0x20 ADD ADD SWAP1 PUSH31 0xFFFFFFFFFFFFFFFFFFFFFFFFFFFFFFFFFFFFFFFFFFFFFFFFFFFFFFFFFFFFFF NOT AND SWAP1 DUP2 PUSH1 0x0 BYTE SWAP1 MSTORE8 POP PUSH32 0x7800000000000000000000000000000000000000000000000000000000000000 DUP2 PUSH1 0x1 DUP2 MLOAD DUP2 LT PUSH2 0x3496 JUMPI PUSH2 0x3495 PUSH2 0x43B5 JUMP JUMPDEST JUMPDEST PUSH1 0x20 ADD ADD SWAP1 PUSH31 0xFFFFFFFFFFFFFFFFFFFFFFFFFFFFFFFFFFFFFFFFFFFFFFFFFFFFFFFFFFFFFF NOT AND SWAP1 DUP2 PUSH1 0x0 BYTE SWAP1 MSTORE8 POP PUSH1 0x0 JUMPDEST DUP5 MLOAD DUP2 LT ISZERO PUSH2 0x3646 JUMPI DUP3 PUSH1 0x4 DUP7 DUP4 DUP2 MLOAD DUP2 LT PUSH2 0x34E7 JUMPI PUSH2 0x34E6 PUSH2 0x43B5 JUMP JUMPDEST JUMPDEST PUSH1 0x20 ADD ADD MLOAD PUSH1 0xF8 SHR PUSH1 0xF8 SHL PUSH31 0xFFFFFFFFFFFFFFFFFFFFFFFFFFFFFFFFFFFFFFFFFFFFFFFFFFFFFFFFFFFFFF NOT AND SWAP1 SHR PUSH1 0xF8 SHR PUSH1 0xFF AND DUP2 MLOAD DUP2 LT PUSH2 0x352D JUMPI PUSH2 0x352C PUSH2 0x43B5 JUMP JUMPDEST JUMPDEST PUSH1 0x20 ADD ADD MLOAD PUSH1 0xF8 SHR PUSH1 0xF8 SHL DUP3 PUSH1 0x2 DUP4 PUSH2 0x3546 SWAP2 SWAP1 PUSH2 0x4146 JUMP JUMPDEST PUSH1 0x2 PUSH2 0x3552 SWAP2 SWAP1 PUSH2 0x40BF JUMP JUMPDEST DUP2 MLOAD DUP2 LT PUSH2 0x3563 JUMPI PUSH2 0x3562 PUSH2 0x43B5 JUMP JUMPDEST JUMPDEST PUSH1 0x20 ADD ADD SWAP1 PUSH31 0xFFFFFFFFFFFFFFFFFFFFFFFFFFFFFFFFFFFFFFFFFFFFFFFFFFFFFFFFFFFFFF NOT AND SWAP1 DUP2 PUSH1 0x0 BYTE SWAP1 MSTORE8 POP DUP3 PUSH1 0xF PUSH1 0xF8 SHL DUP7 DUP4 DUP2 MLOAD DUP2 LT PUSH2 0x35AB JUMPI PUSH2 0x35AA PUSH2 0x43B5 JUMP JUMPDEST JUMPDEST PUSH1 0x20 ADD ADD MLOAD PUSH1 0xF8 SHR PUSH1 0xF8 SHL AND PUSH1 0xF8 SHR PUSH1 0xFF AND DUP2 MLOAD DUP2 LT PUSH2 0x35CE JUMPI PUSH2 0x35CD PUSH2 0x43B5 JUMP JUMPDEST JUMPDEST PUSH1 0x20 ADD ADD MLOAD PUSH1 0xF8 SHR PUSH1 0xF8 SHL DUP3 PUSH1 0x2 DUP4 PUSH2 0x35E7 SWAP2 SWAP1 PUSH2 0x4146 JUMP JUMPDEST PUSH1 0x3 PUSH2 0x35F3 SWAP2 SWAP1 PUSH2 0x40BF JUMP JUMPDEST DUP2 MLOAD DUP2 LT PUSH2 0x3604 JUMPI PUSH2 0x3603 PUSH2 0x43B5 JUMP JUMPDEST JUMPDEST PUSH1 0x20 ADD ADD SWAP1 PUSH31 0xFFFFFFFFFFFFFFFFFFFFFFFFFFFFFFFFFFFFFFFFFFFFFFFFFFFFFFFFFFFFFF NOT AND SWAP1 DUP2 PUSH1 0x0 BYTE SWAP1 MSTORE8 POP DUP1 DUP1 PUSH2 0x363E SWAP1 PUSH2 0x42CB JUMP JUMPDEST SWAP2 POP POP PUSH2 0x34C8 JUMP JUMPDEST POP DUP1 SWAP3 POP POP POP SWAP2 SWAP1 POP JUMP JUMPDEST DUP3 DUP1 SLOAD PUSH2 0x365D SWAP1 PUSH2 0x4268 JUMP JUMPDEST SWAP1 PUSH1 0x0 MSTORE PUSH1 0x20 PUSH1 0x0 KECCAK256 SWAP1 PUSH1 0x1F ADD PUSH1 0x20 SWAP1 DIV DUP2 ADD SWAP3 DUP3 PUSH2 0x367F JUMPI PUSH1 0x0 DUP6 SSTORE PUSH2 0x36C6 JUMP JUMPDEST DUP3 PUSH1 0x1F LT PUSH2 0x3698 JUMPI DUP1 MLOAD PUSH1 0xFF NOT AND DUP4 DUP1 ADD OR DUP6 SSTORE PUSH2 0x36C6 JUMP JUMPDEST DUP3 DUP1 ADD PUSH1 0x1 ADD DUP6 SSTORE DUP3 ISZERO PUSH2 0x36C6 JUMPI SWAP2 DUP3 ADD JUMPDEST DUP3 DUP2 GT ISZERO PUSH2 0x36C5 JUMPI DUP3 MLOAD DUP3 SSTORE SWAP2 PUSH1 0x20 ADD SWAP2 SWAP1 PUSH1 0x1 ADD SWAP1 PUSH2 0x36AA JUMP JUMPDEST JUMPDEST POP SWAP1 POP PUSH2 0x36D3 SWAP2 SWAP1 PUSH2 0x3706 JUMP JUMPDEST POP SWAP1 JUMP JUMPDEST PUSH1 0x40 MLOAD DUP1 PUSH1 0xA0 ADD PUSH1 0x40 MSTORE DUP1 PUSH1 0x0 DUP2 MSTORE PUSH1 0x20 ADD PUSH1 0x0 DUP2 MSTORE PUSH1 0x20 ADD PUSH1 0x0 DUP2 MSTORE PUSH1 0x20 ADD PUSH1 0x0 DUP2 MSTORE PUSH1 0x20 ADD PUSH1 0x0 DUP2 MSTORE POP SWAP1 JUMP JUMPDEST JUMPDEST DUP1 DUP3 GT ISZERO PUSH2 0x371F JUMPI PUSH1 0x0 DUP2 PUSH1 0x0 SWAP1 SSTORE POP PUSH1 0x1 ADD PUSH2 0x3707 JUMP JUMPDEST POP SWAP1 JUMP JUMPDEST PUSH1 0x0 PUSH2 0x3736 PUSH2 0x3731 DUP5 PUSH2 0x402E JUMP JUMPDEST PUSH2 0x4009 JUMP JUMPDEST SWAP1 POP DUP3 DUP2 MSTORE PUSH1 0x20 DUP2 ADD DUP5 DUP5 DUP5 ADD GT ISZERO PUSH2 0x3752 JUMPI PUSH2 0x3751 PUSH2 0x4418 JUMP JUMPDEST JUMPDEST PUSH2 0x375D DUP5 DUP3 DUP6 PUSH2 0x4226 JUMP JUMPDEST POP SWAP4 SWAP3 POP POP POP JUMP JUMPDEST PUSH1 0x0 DUP2 CALLDATALOAD SWAP1 POP PUSH2 0x3774 DUP2 PUSH2 0x45A9 JUMP JUMPDEST SWAP3 SWAP2 POP POP JUMP JUMPDEST PUSH1 0x0 DUP2 CALLDATALOAD SWAP1 POP PUSH2 0x3789 DUP2 PUSH2 0x45C0 JUMP JUMPDEST SWAP3 SWAP2 POP POP JUMP JUMPDEST PUSH1 0x0 DUP2 CALLDATALOAD SWAP1 POP PUSH2 0x379E DUP2 PUSH2 0x45D7 JUMP JUMPDEST SWAP3 SWAP2 POP POP JUMP JUMPDEST PUSH1 0x0 DUP3 PUSH1 0x1F DUP4 ADD SLT PUSH2 0x37B9 JUMPI PUSH2 0x37B8 PUSH2 0x4413 JUMP JUMPDEST JUMPDEST DUP2 CALLDATALOAD PUSH2 0x37C9 DUP5 DUP3 PUSH1 0x20 DUP7 ADD PUSH2 0x3723 JUMP JUMPDEST SWAP2 POP POP SWAP3 SWAP2 POP POP JUMP JUMPDEST PUSH1 0x0 DUP2 CALLDATALOAD SWAP1 POP PUSH2 0x37E1 DUP2 PUSH2 0x45EE JUMP JUMPDEST SWAP3 SWAP2 POP POP JUMP JUMPDEST PUSH1 0x0 PUSH1 0x20 DUP3 DUP5 SUB SLT ISZERO PUSH2 0x37FD JUMPI PUSH2 0x37FC PUSH2 0x4422 JUMP JUMPDEST JUMPDEST PUSH1 0x0 PUSH2 0x380B DUP5 DUP3 DUP6 ADD PUSH2 0x3765 JUMP JUMPDEST SWAP2 POP POP SWAP3 SWAP2 POP POP JUMP JUMPDEST PUSH1 0x0 DUP1 PUSH1 0x40 DUP4 DUP6 SUB SLT ISZERO PUSH2 0x382B JUMPI PUSH2 0x382A PUSH2 0x4422 JUMP JUMPDEST JUMPDEST PUSH1 0x0 PUSH2 0x3839 DUP6 DUP3 DUP7 ADD PUSH2 0x3765 JUMP JUMPDEST SWAP3 POP POP PUSH1 0x20 PUSH2 0x384A DUP6 DUP3 DUP7 ADD PUSH2 0x378F JUMP JUMPDEST SWAP2 POP POP SWAP3 POP SWAP3 SWAP1 POP JUMP JUMPDEST PUSH1 0x0 DUP1 PUSH1 0x40 DUP4 DUP6 SUB SLT ISZERO PUSH2 0x386B JUMPI PUSH2 0x386A PUSH2 0x4422 JUMP JUMPDEST JUMPDEST PUSH1 0x0 PUSH2 0x3879 DUP6 DUP3 DUP7 ADD PUSH2 0x3765 JUMP JUMPDEST SWAP3 POP POP PUSH1 0x20 PUSH2 0x388A DUP6 DUP3 DUP7 ADD PUSH2 0x37D2 JUMP JUMPDEST SWAP2 POP POP SWAP3 POP SWAP3 SWAP1 POP JUMP JUMPDEST PUSH1 0x0 DUP1 PUSH1 0x0 DUP1 PUSH1 0x0 DUP1 PUSH1 0xC0 DUP8 DUP10 SUB SLT ISZERO PUSH2 0x38B1 JUMPI PUSH2 0x38B0 PUSH2 0x4422 JUMP JUMPDEST JUMPDEST PUSH1 0x0 PUSH2 0x38BF DUP10 DUP3 DUP11 ADD PUSH2 0x3765 JUMP JUMPDEST SWAP7 POP POP PUSH1 0x20 PUSH2 0x38D0 DUP10 DUP3 DUP11 ADD PUSH2 0x37D2 JUMP JUMPDEST SWAP6 POP POP PUSH1 0x40 PUSH2 0x38E1 DUP10 DUP3 DUP11 ADD PUSH2 0x378F JUMP JUMPDEST SWAP5 POP POP PUSH1 0x60 PUSH2 0x38F2 DUP10 DUP3 DUP11 ADD PUSH2 0x37D2 JUMP JUMPDEST SWAP4 POP POP PUSH1 0x80 PUSH2 0x3903 DUP10 DUP3 DUP11 ADD PUSH2 0x37D2 JUMP JUMPDEST SWAP3 POP POP PUSH1 0xA0 PUSH2 0x3914 DUP10 DUP3 DUP11 ADD PUSH2 0x37D2 JUMP JUMPDEST SWAP2 POP POP SWAP3 SWAP6 POP SWAP3 SWAP6 POP SWAP3 SWAP6 JUMP JUMPDEST PUSH1 0x0 PUSH1 0x20 DUP3 DUP5 SUB SLT ISZERO PUSH2 0x3937 JUMPI PUSH2 0x3936 PUSH2 0x4422 JUMP JUMPDEST JUMPDEST PUSH1 0x0 PUSH2 0x3945 DUP5 DUP3 DUP6 ADD PUSH2 0x378F JUMP JUMPDEST SWAP2 POP POP SWAP3 SWAP2 POP POP JUMP JUMPDEST PUSH1 0x0 DUP1 PUSH1 0x40 DUP4 DUP6 SUB SLT ISZERO PUSH2 0x3965 JUMPI PUSH2 0x3964 PUSH2 0x4422 JUMP JUMPDEST JUMPDEST PUSH1 0x0 PUSH2 0x3973 DUP6 DUP3 DUP7 ADD PUSH2 0x378F JUMP JUMPDEST SWAP3 POP POP PUSH1 0x20 PUSH2 0x3984 DUP6 DUP3 DUP7 ADD PUSH2 0x37D2 JUMP JUMPDEST SWAP2 POP POP SWAP3 POP SWAP3 SWAP1 POP JUMP JUMPDEST PUSH1 0x0 DUP1 PUSH1 0x0 DUP1 PUSH1 0x80 DUP6 DUP8 SUB SLT ISZERO PUSH2 0x39A8 JUMPI PUSH2 0x39A7 PUSH2 0x4422 JUMP JUMPDEST JUMPDEST PUSH1 0x0 PUSH2 0x39B6 DUP8 DUP3 DUP9 ADD PUSH2 0x378F JUMP JUMPDEST SWAP5 POP POP PUSH1 0x20 PUSH2 0x39C7 DUP8 DUP3 DUP9 ADD PUSH2 0x37D2 JUMP JUMPDEST SWAP4 POP POP PUSH1 0x40 PUSH2 0x39D8 DUP8 DUP3 DUP9 ADD PUSH2 0x37D2 JUMP JUMPDEST SWAP3 POP POP PUSH1 0x60 PUSH2 0x39E9 DUP8 DUP3 DUP9 ADD PUSH2 0x37D2 JUMP JUMPDEST SWAP2 POP POP SWAP3 SWAP6 SWAP2 SWAP5 POP SWAP3 POP JUMP JUMPDEST PUSH1 0x0 DUP1 PUSH1 0x0 DUP1 PUSH1 0x80 DUP6 DUP8 SUB SLT ISZERO PUSH2 0x3A0F JUMPI PUSH2 0x3A0E PUSH2 0x4422 JUMP JUMPDEST JUMPDEST PUSH1 0x0 DUP6 ADD CALLDATALOAD PUSH8 0xFFFFFFFFFFFFFFFF DUP2 GT ISZERO PUSH2 0x3A2D JUMPI PUSH2 0x3A2C PUSH2 0x441D JUMP JUMPDEST JUMPDEST PUSH2 0x3A39 DUP8 DUP3 DUP9 ADD PUSH2 0x37A4 JUMP JUMPDEST SWAP5 POP POP PUSH1 0x20 DUP6 ADD CALLDATALOAD PUSH8 0xFFFFFFFFFFFFFFFF DUP2 GT ISZERO PUSH2 0x3A5A JUMPI PUSH2 0x3A59 PUSH2 0x441D JUMP JUMPDEST JUMPDEST PUSH2 0x3A66 DUP8 DUP3 DUP9 ADD PUSH2 0x37A4 JUMP JUMPDEST SWAP4 POP POP PUSH1 0x40 DUP6 ADD CALLDATALOAD PUSH8 0xFFFFFFFFFFFFFFFF DUP2 GT ISZERO PUSH2 0x3A87 JUMPI PUSH2 0x3A86 PUSH2 0x441D JUMP JUMPDEST JUMPDEST PUSH2 0x3A93 DUP8 DUP3 DUP9 ADD PUSH2 0x37A4 JUMP JUMPDEST SWAP3 POP POP PUSH1 0x60 PUSH2 0x3AA4 DUP8 DUP3 DUP9 ADD PUSH2 0x377A JUMP JUMPDEST SWAP2 POP POP SWAP3 SWAP6 SWAP2 SWAP5 POP SWAP3 POP JUMP JUMPDEST PUSH1 0x0 PUSH2 0x3ABC DUP4 DUP4 PUSH2 0x3B44 JUMP JUMPDEST PUSH1 0x20 DUP4 ADD SWAP1 POP SWAP3 SWAP2 POP POP JUMP JUMPDEST PUSH2 0x3AD1 DUP2 PUSH2 0x41D4 JUMP JUMPDEST DUP3 MSTORE POP POP JUMP JUMPDEST PUSH1 0x0 PUSH2 0x3AE2 DUP3 PUSH2 0x406F JUMP JUMPDEST PUSH2 0x3AEC DUP2 DUP6 PUSH2 0x4092 JUMP JUMPDEST SWAP4 POP PUSH2 0x3AF7 DUP4 PUSH2 0x405F JUMP JUMPDEST DUP1 PUSH1 0x0 JUMPDEST DUP4 DUP2 LT ISZERO PUSH2 0x3B28 JUMPI DUP2 MLOAD PUSH2 0x3B0F DUP9 DUP3 PUSH2 0x3AB0 JUMP JUMPDEST SWAP8 POP PUSH2 0x3B1A DUP4 PUSH2 0x4085 JUMP JUMPDEST SWAP3 POP POP PUSH1 0x1 DUP2 ADD SWAP1 POP PUSH2 0x3AFB JUMP JUMPDEST POP DUP6 SWAP4 POP POP POP POP SWAP3 SWAP2 POP POP JUMP JUMPDEST PUSH2 0x3B3E DUP2 PUSH2 0x41E6 JUMP JUMPDEST DUP3 MSTORE POP POP JUMP JUMPDEST PUSH2 0x3B4D DUP2 PUSH2 0x41F2 JUMP JUMPDEST DUP3 MSTORE POP POP JUMP JUMPDEST PUSH2 0x3B5C DUP2 PUSH2 0x41F2 JUMP JUMPDEST DUP3 MSTORE POP POP JUMP JUMPDEST PUSH2 0x3B73 PUSH2 0x3B6E DUP3 PUSH2 0x41F2 JUMP JUMPDEST PUSH2 0x4314 JUMP JUMPDEST DUP3 MSTORE POP POP JUMP JUMPDEST PUSH1 0x0 PUSH2 0x3B84 DUP3 PUSH2 0x407A JUMP JUMPDEST PUSH2 0x3B8E DUP2 DUP6 PUSH2 0x40A3 JUMP JUMPDEST SWAP4 POP PUSH2 0x3B9E DUP2 DUP6 PUSH1 0x20 DUP7 ADD PUSH2 0x4235 JUMP JUMPDEST PUSH2 0x3BA7 DUP2 PUSH2 0x4427 JUMP JUMPDEST DUP5 ADD SWAP2 POP POP SWAP3 SWAP2 POP POP JUMP JUMPDEST PUSH1 0x0 PUSH2 0x3BBD DUP3 PUSH2 0x407A JUMP JUMPDEST PUSH2 0x3BC7 DUP2 DUP6 PUSH2 0x40B4 JUMP JUMPDEST SWAP4 POP PUSH2 0x3BD7 DUP2 DUP6 PUSH1 0x20 DUP7 ADD PUSH2 0x4235 JUMP JUMPDEST DUP1 DUP5 ADD SWAP2 POP POP SWAP3 SWAP2 POP POP JUMP JUMPDEST PUSH1 0x0 PUSH2 0x3BF0 PUSH1 0x19 DUP4 PUSH2 0x40A3 JUMP JUMPDEST SWAP2 POP PUSH2 0x3BFB DUP3 PUSH2 0x4438 JUMP JUMPDEST PUSH1 0x20 DUP3 ADD SWAP1 POP SWAP2 SWAP1 POP JUMP JUMPDEST PUSH1 0x0 PUSH2 0x3C13 PUSH1 0x9 DUP4 PUSH2 0x40A3 JUMP JUMPDEST SWAP2 POP PUSH2 0x3C1E DUP3 PUSH2 0x4461 JUMP JUMPDEST PUSH1 0x20 DUP3 ADD SWAP1 POP SWAP2 SWAP1 POP JUMP JUMPDEST PUSH1 0x0 PUSH2 0x3C36 PUSH1 0xE DUP4 PUSH2 0x40A3 JUMP JUMPDEST SWAP2 POP PUSH2 0x3C41 DUP3 PUSH2 0x448A JUMP JUMPDEST PUSH1 0x20 DUP3 ADD SWAP1 POP SWAP2 SWAP1 POP JUMP JUMPDEST PUSH1 0x0 PUSH2 0x3C59 PUSH1 0x17 DUP4 PUSH2 0x40A3 JUMP JUMPDEST SWAP2 POP PUSH2 0x3C64 DUP3 PUSH2 0x44B3 JUMP JUMPDEST PUSH1 0x20 DUP3 ADD SWAP1 POP SWAP2 SWAP1 POP JUMP JUMPDEST PUSH1 0x0 PUSH2 0x3C7C PUSH1 0xA DUP4 PUSH2 0x40A3 JUMP JUMPDEST SWAP2 POP PUSH2 0x3C87 DUP3 PUSH2 0x44DC JUMP JUMPDEST PUSH1 0x20 DUP3 ADD SWAP1 POP SWAP2 SWAP1 POP JUMP JUMPDEST PUSH1 0x0 PUSH2 0x3C9F PUSH1 0x15 DUP4 PUSH2 0x40A3 JUMP JUMPDEST SWAP2 POP PUSH2 0x3CAA DUP3 PUSH2 0x4505 JUMP JUMPDEST PUSH1 0x20 DUP3 ADD SWAP1 POP SWAP2 SWAP1 POP JUMP JUMPDEST PUSH1 0x0 PUSH2 0x3CC2 PUSH1 0x15 DUP4 PUSH2 0x40A3 JUMP JUMPDEST SWAP2 POP PUSH2 0x3CCD DUP3 PUSH2 0x452E JUMP JUMPDEST PUSH1 0x20 DUP3 ADD SWAP1 POP SWAP2 SWAP1 POP JUMP JUMPDEST PUSH1 0x0 PUSH2 0x3CE5 PUSH1 0x10 DUP4 PUSH2 0x40A3 JUMP JUMPDEST SWAP2 POP PUSH2 0x3CF0 DUP3 PUSH2 0x4557 JUMP JUMPDEST PUSH1 0x20 DUP3 ADD SWAP1 POP SWAP2 SWAP1 POP JUMP JUMPDEST PUSH1 0x0 PUSH2 0x3D08 PUSH1 0x11 DUP4 PUSH2 0x40A3 JUMP JUMPDEST SWAP2 POP PUSH2 0x3D13 DUP3 PUSH2 0x4580 JUMP JUMPDEST PUSH1 0x20 DUP3 ADD SWAP1 POP SWAP2 SWAP1 POP JUMP JUMPDEST PUSH1 0xA0 DUP3 ADD PUSH1 0x0 DUP3 ADD MLOAD PUSH2 0x3D34 PUSH1 0x0 DUP6 ADD DUP3 PUSH2 0x3D86 JUMP JUMPDEST POP PUSH1 0x20 DUP3 ADD MLOAD PUSH2 0x3D47 PUSH1 0x20 DUP6 ADD DUP3 PUSH2 0x3D86 JUMP JUMPDEST POP PUSH1 0x40 DUP3 ADD MLOAD PUSH2 0x3D5A PUSH1 0x40 DUP6 ADD DUP3 PUSH2 0x3D86 JUMP JUMPDEST POP PUSH1 0x60 DUP3 ADD MLOAD PUSH2 0x3D6D PUSH1 0x60 DUP6 ADD DUP3 PUSH2 0x3D86 JUMP JUMPDEST POP PUSH1 0x80 DUP3 ADD MLOAD PUSH2 0x3D80 PUSH1 0x80 DUP6 ADD DUP3 PUSH2 0x3D86 JUMP JUMPDEST POP POP POP POP JUMP JUMPDEST PUSH2 0x3D8F DUP2 PUSH2 0x421C JUMP JUMPDEST DUP3 MSTORE POP POP JUMP JUMPDEST PUSH2 0x3D9E DUP2 PUSH2 0x421C JUMP JUMPDEST DUP3 MSTORE POP POP JUMP JUMPDEST PUSH2 0x3DB5 PUSH2 0x3DB0 DUP3 PUSH2 0x421C JUMP JUMPDEST PUSH2 0x431E JUMP JUMPDEST DUP3 MSTORE POP POP JUMP JUMPDEST PUSH1 0x0 PUSH2 0x3DC7 DUP3 DUP5 PUSH2 0x3B62 JUMP JUMPDEST PUSH1 0x20 DUP3 ADD SWAP2 POP DUP2 SWAP1 POP SWAP3 SWAP2 POP POP JUMP JUMPDEST PUSH1 0x0 PUSH2 0x3DE2 DUP3 DUP5 PUSH2 0x3BB2 JUMP JUMPDEST SWAP2 POP DUP2 SWAP1 POP SWAP3 SWAP2 POP POP JUMP JUMPDEST PUSH1 0x0 PUSH2 0x3DF9 DUP3 DUP5 PUSH2 0x3DA4 JUMP JUMPDEST PUSH1 0x20 DUP3 ADD SWAP2 POP DUP2 SWAP1 POP SWAP3 SWAP2 POP POP JUMP JUMPDEST PUSH1 0x0 PUSH1 0x40 DUP3 ADD SWAP1 POP PUSH2 0x3E1D PUSH1 0x0 DUP4 ADD DUP6 PUSH2 0x3AC8 JUMP JUMPDEST PUSH2 0x3E2A PUSH1 0x20 DUP4 ADD DUP5 PUSH2 0x3D95 JUMP JUMPDEST SWAP4 SWAP3 POP POP POP JUMP JUMPDEST PUSH1 0x0 PUSH1 0x20 DUP3 ADD SWAP1 POP DUP2 DUP2 SUB PUSH1 0x0 DUP4 ADD MSTORE PUSH2 0x3E4B DUP2 DUP5 PUSH2 0x3AD7 JUMP JUMPDEST SWAP1 POP SWAP3 SWAP2 POP POP JUMP JUMPDEST PUSH1 0x0 PUSH1 0x20 DUP3 ADD SWAP1 POP PUSH2 0x3E68 PUSH1 0x0 DUP4 ADD DUP5 PUSH2 0x3B35 JUMP JUMPDEST SWAP3 SWAP2 POP POP JUMP JUMPDEST PUSH1 0x0 PUSH1 0x20 DUP3 ADD SWAP1 POP PUSH2 0x3E83 PUSH1 0x0 DUP4 ADD DUP5 PUSH2 0x3B53 JUMP JUMPDEST SWAP3 SWAP2 POP POP JUMP JUMPDEST PUSH1 0x0 PUSH1 0xE0 DUP3 ADD SWAP1 POP DUP2 DUP2 SUB PUSH1 0x0 DUP4 ADD MSTORE PUSH2 0x3EA3 DUP2 DUP7 PUSH2 0x3B79 JUMP JUMPDEST SWAP1 POP DUP2 DUP2 SUB PUSH1 0x20 DUP4 ADD MSTORE PUSH2 0x3EB7 DUP2 DUP6 PUSH2 0x3B79 JUMP JUMPDEST SWAP1 POP PUSH2 0x3EC6 PUSH1 0x40 DUP4 ADD DUP5 PUSH2 0x3D1E JUMP JUMPDEST SWAP5 SWAP4 POP POP POP POP JUMP JUMPDEST PUSH1 0x0 PUSH1 0x20 DUP3 ADD SWAP1 POP DUP2 DUP2 SUB PUSH1 0x0 DUP4 ADD MSTORE PUSH2 0x3EE7 DUP2 PUSH2 0x3BE3 JUMP JUMPDEST SWAP1 POP SWAP2 SWAP1 POP JUMP JUMPDEST PUSH1 0x0 PUSH1 0x20 DUP3 ADD SWAP1 POP DUP2 DUP2 SUB PUSH1 0x0 DUP4 ADD MSTORE PUSH2 0x3F07 DUP2 PUSH2 0x3C06 JUMP JUMPDEST SWAP1 POP SWAP2 SWAP1 POP JUMP JUMPDEST PUSH1 0x0 PUSH1 0x20 DUP3 ADD SWAP1 POP DUP2 DUP2 SUB PUSH1 0x0 DUP4 ADD MSTORE PUSH2 0x3F27 DUP2 PUSH2 0x3C29 JUMP JUMPDEST SWAP1 POP SWAP2 SWAP1 POP JUMP JUMPDEST PUSH1 0x0 PUSH1 0x20 DUP3 ADD SWAP1 POP DUP2 DUP2 SUB PUSH1 0x0 DUP4 ADD MSTORE PUSH2 0x3F47 DUP2 PUSH2 0x3C4C JUMP JUMPDEST SWAP1 POP SWAP2 SWAP1 POP JUMP JUMPDEST PUSH1 0x0 PUSH1 0x20 DUP3 ADD SWAP1 POP DUP2 DUP2 SUB PUSH1 0x0 DUP4 ADD MSTORE PUSH2 0x3F67 DUP2 PUSH2 0x3C6F JUMP JUMPDEST SWAP1 POP SWAP2 SWAP1 POP JUMP JUMPDEST PUSH1 0x0 PUSH1 0x20 DUP3 ADD SWAP1 POP DUP2 DUP2 SUB PUSH1 0x0 DUP4 ADD MSTORE PUSH2 0x3F87 DUP2 PUSH2 0x3C92 JUMP JUMPDEST SWAP1 POP SWAP2 SWAP1 POP JUMP JUMPDEST PUSH1 0x0 PUSH1 0x20 DUP3 ADD SWAP1 POP DUP2 DUP2 SUB PUSH1 0x0 DUP4 ADD MSTORE PUSH2 0x3FA7 DUP2 PUSH2 0x3CB5 JUMP JUMPDEST SWAP1 POP SWAP2 SWAP1 POP JUMP JUMPDEST PUSH1 0x0 PUSH1 0x20 DUP3 ADD SWAP1 POP DUP2 DUP2 SUB PUSH1 0x0 DUP4 ADD MSTORE PUSH2 0x3FC7 DUP2 PUSH2 0x3CD8 JUMP JUMPDEST SWAP1 POP SWAP2 SWAP1 POP JUMP JUMPDEST PUSH1 0x0 PUSH1 0x20 DUP3 ADD SWAP1 POP DUP2 DUP2 SUB PUSH1 0x0 DUP4 ADD MSTORE PUSH2 0x3FE7 DUP2 PUSH2 0x3CFB JUMP JUMPDEST SWAP1 POP SWAP2 SWAP1 POP JUMP JUMPDEST PUSH1 0x0 PUSH1 0x20 DUP3 ADD SWAP1 POP PUSH2 0x4003 PUSH1 0x0 DUP4 ADD DUP5 PUSH2 0x3D95 JUMP JUMPDEST SWAP3 SWAP2 POP POP JUMP JUMPDEST PUSH1 0x0 PUSH2 0x4013 PUSH2 0x4024 JUMP JUMPDEST SWAP1 POP PUSH2 0x401F DUP3 DUP3 PUSH2 0x429A JUMP JUMPDEST SWAP2 SWAP1 POP JUMP JUMPDEST PUSH1 0x0 PUSH1 0x40 MLOAD SWAP1 POP SWAP1 JUMP JUMPDEST PUSH1 0x0 PUSH8 0xFFFFFFFFFFFFFFFF DUP3 GT ISZERO PUSH2 0x4049 JUMPI PUSH2 0x4048 PUSH2 0x43E4 JUMP JUMPDEST JUMPDEST PUSH2 0x4052 DUP3 PUSH2 0x4427 JUMP JUMPDEST SWAP1 POP PUSH1 0x20 DUP2 ADD SWAP1 POP SWAP2 SWAP1 POP JUMP JUMPDEST PUSH1 0x0 DUP2 SWAP1 POP PUSH1 0x20 DUP3 ADD SWAP1 POP SWAP2 SWAP1 POP JUMP JUMPDEST PUSH1 0x0 DUP2 MLOAD SWAP1 POP SWAP2 SWAP1 POP JUMP JUMPDEST PUSH1 0x0 DUP2 MLOAD SWAP1 POP SWAP2 SWAP1 POP JUMP JUMPDEST PUSH1 0x0 PUSH1 0x20 DUP3 ADD SWAP1 POP SWAP2 SWAP1 POP JUMP JUMPDEST PUSH1 0x0 DUP3 DUP3 MSTORE PUSH1 0x20 DUP3 ADD SWAP1 POP SWAP3 SWAP2 POP POP JUMP JUMPDEST PUSH1 0x0 DUP3 DUP3 MSTORE PUSH1 0x20 DUP3 ADD SWAP1 POP SWAP3 SWAP2 POP POP JUMP JUMPDEST PUSH1 0x0 DUP2 SWAP1 POP SWAP3 SWAP2 POP POP JUMP JUMPDEST PUSH1 0x0 PUSH2 0x40CA DUP3 PUSH2 0x421C JUMP JUMPDEST SWAP2 POP PUSH2 0x40D5 DUP4 PUSH2 0x421C JUMP JUMPDEST SWAP3 POP DUP3 PUSH32 0xFFFFFFFFFFFFFFFFFFFFFFFFFFFFFFFFFFFFFFFFFFFFFFFFFFFFFFFFFFFFFFFF SUB DUP3 GT ISZERO PUSH2 0x410A JUMPI PUSH2 0x4109 PUSH2 0x4328 JUMP JUMPDEST JUMPDEST DUP3 DUP3 ADD SWAP1 POP SWAP3 SWAP2 POP POP JUMP JUMPDEST PUSH1 0x0 PUSH2 0x4120 DUP3 PUSH2 0x421C JUMP JUMPDEST SWAP2 POP PUSH2 0x412B DUP4 PUSH2 0x421C JUMP JUMPDEST SWAP3 POP DUP3 PUSH2 0x413B JUMPI PUSH2 0x413A PUSH2 0x4357 JUMP JUMPDEST JUMPDEST DUP3 DUP3 DIV SWAP1 POP SWAP3 SWAP2 POP POP JUMP JUMPDEST PUSH1 0x0 PUSH2 0x4151 DUP3 PUSH2 0x421C JUMP JUMPDEST SWAP2 POP PUSH2 0x415C DUP4 PUSH2 0x421C JUMP JUMPDEST SWAP3 POP DUP2 PUSH32 0xFFFFFFFFFFFFFFFFFFFFFFFFFFFFFFFFFFFFFFFFFFFFFFFFFFFFFFFFFFFFFFFF DIV DUP4 GT DUP3 ISZERO ISZERO AND ISZERO PUSH2 0x4195 JUMPI PUSH2 0x4194 PUSH2 0x4328 JUMP JUMPDEST JUMPDEST DUP3 DUP3 MUL SWAP1 POP SWAP3 SWAP2 POP POP JUMP JUMPDEST PUSH1 0x0 PUSH2 0x41AB DUP3 PUSH2 0x421C JUMP JUMPDEST SWAP2 POP PUSH2 0x41B6 DUP4 PUSH2 0x421C JUMP JUMPDEST SWAP3 POP DUP3 DUP3 LT ISZERO PUSH2 0x41C9 JUMPI PUSH2 0x41C8 PUSH2 0x4328 JUMP JUMPDEST JUMPDEST DUP3 DUP3 SUB SWAP1 POP SWAP3 SWAP2 POP POP JUMP JUMPDEST PUSH1 0x0 PUSH2 0x41DF DUP3 PUSH2 0x41FC JUMP JUMPDEST SWAP1 POP SWAP2 SWAP1 POP JUMP JUMPDEST PUSH1 0x0 DUP2 ISZERO ISZERO SWAP1 POP SWAP2 SWAP1 POP JUMP JUMPDEST PUSH1 0x0 DUP2 SWAP1 POP SWAP2 SWAP1 POP JUMP JUMPDEST PUSH1 0x0 PUSH20 0xFFFFFFFFFFFFFFFFFFFFFFFFFFFFFFFFFFFFFFFF DUP3 AND SWAP1 POP SWAP2 SWAP1 POP JUMP JUMPDEST PUSH1 0x0 DUP2 SWAP1 POP SWAP2 SWAP1 POP JUMP JUMPDEST DUP3 DUP2 DUP4 CALLDATACOPY PUSH1 0x0 DUP4 DUP4 ADD MSTORE POP POP POP JUMP JUMPDEST PUSH1 0x0 JUMPDEST DUP4 DUP2 LT ISZERO PUSH2 0x4253 JUMPI DUP1 DUP3 ADD MLOAD DUP2 DUP5 ADD MSTORE PUSH1 0x20 DUP2 ADD SWAP1 POP PUSH2 0x4238 JUMP JUMPDEST DUP4 DUP2 GT ISZERO PUSH2 0x4262 JUMPI PUSH1 0x0 DUP5 DUP5 ADD MSTORE JUMPDEST POP POP POP POP JUMP JUMPDEST PUSH1 0x0 PUSH1 0x2 DUP3 DIV SWAP1 POP PUSH1 0x1 DUP3 AND DUP1 PUSH2 0x4280 JUMPI PUSH1 0x7F DUP3 AND SWAP2 POP JUMPDEST PUSH1 0x20 DUP3 LT DUP2 EQ ISZERO PUSH2 0x4294 JUMPI PUSH2 0x4293 PUSH2 0x4386 JUMP JUMPDEST JUMPDEST POP SWAP2 SWAP1 POP JUMP JUMPDEST PUSH2 0x42A3 DUP3 PUSH2 0x4427 JUMP JUMPDEST DUP2 ADD DUP2 DUP2 LT PUSH8 0xFFFFFFFFFFFFFFFF DUP3 GT OR ISZERO PUSH2 0x42C2 JUMPI PUSH2 0x42C1 PUSH2 0x43E4 JUMP JUMPDEST JUMPDEST DUP1 PUSH1 0x40 MSTORE POP POP POP JUMP JUMPDEST PUSH1 0x0 PUSH2 0x42D6 DUP3 PUSH2 0x421C JUMP JUMPDEST SWAP2 POP PUSH32 0xFFFFFFFFFFFFFFFFFFFFFFFFFFFFFFFFFFFFFFFFFFFFFFFFFFFFFFFFFFFFFFFF DUP3 EQ ISZERO PUSH2 0x4309 JUMPI PUSH2 0x4308 PUSH2 0x4328 JUMP JUMPDEST JUMPDEST PUSH1 0x1 DUP3 ADD SWAP1 POP SWAP2 SWAP1 POP JUMP JUMPDEST PUSH1 0x0 DUP2 SWAP1 POP SWAP2 SWAP1 POP JUMP JUMPDEST PUSH1 0x0 DUP2 SWAP1 POP SWAP2 SWAP1 POP JUMP JUMPDEST PUSH32 0x4E487B7100000000000000000000000000000000000000000000000000000000 PUSH1 0x0 MSTORE PUSH1 0x11 PUSH1 0x4 MSTORE PUSH1 0x24 PUSH1 0x0 REVERT JUMPDEST PUSH32 0x4E487B7100000000000000000000000000000000000000000000000000000000 PUSH1 0x0 MSTORE PUSH1 0x12 PUSH1 0x4 MSTORE PUSH1 0x24 PUSH1 0x0 REVERT JUMPDEST PUSH32 0x4E487B7100000000000000000000000000000000000000000000000000000000 PUSH1 0x0 MSTORE PUSH1 0x22 PUSH1 0x4 MSTORE PUSH1 0x24 PUSH1 0x0 REVERT JUMPDEST PUSH32 0x4E487B7100000000000000000000000000000000000000000000000000000000 PUSH1 0x0 MSTORE PUSH1 0x32 PUSH1 0x4 MSTORE PUSH1 0x24 PUSH1 0x0 REVERT JUMPDEST PUSH32 0x4E487B7100000000000000000000000000000000000000000000000000000000 PUSH1 0x0 MSTORE PUSH1 0x41 PUSH1 0x4 MSTORE PUSH1 0x24 PUSH1 0x0 REVERT JUMPDEST PUSH1 0x0 DUP1 REVERT JUMPDEST PUSH1 0x0 DUP1 REVERT JUMPDEST PUSH1 0x0 DUP1 REVERT JUMPDEST PUSH1 0x0 DUP1 REVERT JUMPDEST PUSH1 0x0 PUSH1 0x1F NOT PUSH1 0x1F DUP4 ADD AND SWAP1 POP SWAP2 SWAP1 POP JUMP JUMPDEST PUSH32 0x4F6E6C79206F776E65722063616E2063616C6C20746869732E00000000000000 PUSH1 0x0 DUP3 ADD MSTORE POP JUMP JUMPDEST PUSH32 0x6E6F742065786973740000000000000000000000000000000000000000000000 PUSH1 0x0 DUP3 ADD MSTORE POP JUMP JUMPDEST PUSH32 0x706F6F6C206E6F74206578697374000000000000000000000000000000000000 PUSH1 0x0 DUP3 ADD MSTORE POP JUMP JUMPDEST PUSH32 0x706F6F6C20626173616C20686173206265656E20736574000000000000000000 PUSH1 0x0 DUP3 ADD MSTORE POP JUMP JUMPDEST PUSH32 0x7061697220657869737400000000000000000000000000000000000000000000 PUSH1 0x0 DUP3 ADD MSTORE POP JUMP JUMPDEST PUSH32 0x706F6F6C20686173206E6F742066696E69736865640000000000000000000000 PUSH1 0x0 DUP3 ADD MSTORE POP JUMP JUMPDEST PUSH32 0x6E6F7420656E6F75676820766F7465416D6F756E740000000000000000000000 PUSH1 0x0 DUP3 ADD MSTORE POP JUMP JUMPDEST PUSH32 0x6E6F7420656E6F75676820626173616C00000000000000000000000000000000 PUSH1 0x0 DUP3 ADD MSTORE POP JUMP JUMPDEST PUSH32 0x706F6F6C206861732066696E6973686564000000000000000000000000000000 PUSH1 0x0 DUP3 ADD MSTORE POP JUMP JUMPDEST PUSH2 0x45B2 DUP2 PUSH2 0x41D4 JUMP JUMPDEST DUP2 EQ PUSH2 0x45BD JUMPI PUSH1 0x0 DUP1 REVERT JUMPDEST POP JUMP JUMPDEST PUSH2 0x45C9 DUP2 PUSH2 0x41E6 JUMP JUMPDEST DUP2 EQ PUSH2 0x45D4 JUMPI PUSH1 0x0 DUP1 REVERT JUMPDEST POP JUMP JUMPDEST PUSH2 0x45E0 DUP2 PUSH2 0x41F2 JUMP JUMPDEST DUP2 EQ PUSH2 0x45EB JUMPI PUSH1 0x0 DUP1 REVERT JUMPDEST POP JUMP JUMPDEST PUSH2 0x45F7 DUP2 PUSH2 0x421C JUMP JUMPDEST DUP2 EQ PUSH2 0x4602 JUMPI PUSH1 0x0 DUP1 REVERT JUMPDEST POP JUMP INVALID ADDRESS PUSH25 0x65643633346465613034346665393266366438633936313263 CALLER CODESIZE CALLVALUE CALLVALUE PUSH4 0x34393531 ADDRESS CALLDATALOAD CALLVALUE PUSH4 0x35343137 PUSH2 0x3865 CALLER CALLDATALOAD PUSH4 0x38343237 ORIGIN ADDRESS PUSH4 0x32323633 CALLER PUSH2 0x3034 PUSH5 0xA264697066 PUSH20 0x582212205653556A6C78DCE88B46D77D04E32BD6 0xB9 0xE0 0xEC 0xCE SUB 0xB6 SWAP3 0xC7 0xA6 0xE4 DUP3 SHR CREATE 0xDB PUSH2 0x1364 PUSH20 0x6F6C634300080700330000000000000000000000 "
				},
				"gasEstimates": {
					"creation": {
						"codeDepositCost": "3609000",
						"executionCost": "infinite",
						"totalCost": "infinite"
					},
					"external": {
						"Award(bytes32,uint256,uint256,uint256)": "infinite",
						"CheckBasal()": "4696",
						"CheckExpect(bytes32)": "infinite",
						"CheckVoteTickets()": "2570",
						"Picking(address,uint256,bytes32,uint256,uint256,uint256)": "infinite",
						"Set_Basal(bytes32,uint256)": "infinite",
						"Set_Pool(string,string,string,bool)": "infinite",
						"Test(address,uint256,bytes32,uint256,uint256,uint256)": "infinite",
						"Withdrawal(address,bytes32)": "infinite",
						"getAllPoolKeys()": "infinite",
						"getLastBNB()": "4631",
						"getPool(bytes32)": "infinite",
						"voteWithdrawal(address,uint256)": "infinite",
						"withdrawBNBInContract(address)": "infinite"
					},
					"internal": {
						"addressToString(address)": "infinite",
						"bytes32ToString(bytes32)": "infinite",
						"contains(bytes32)": "2304",
						"strConcat(string memory,string memory)": "infinite",
						"stringCompare(string memory,string memory)": "infinite",
						"toString(bytes memory)": "infinite",
						"uint256ToString(uint256)": "infinite"
					}
				},
				"methodIdentifiers": {
					"Award(bytes32,uint256,uint256,uint256)": "74fe9bc2",
					"CheckBasal()": "3e6ff1a2",
					"CheckExpect(bytes32)": "4121855f",
					"CheckVoteTickets()": "baf41269",
					"Picking(address,uint256,bytes32,uint256,uint256,uint256)": "47e4dd27",
					"Set_Basal(bytes32,uint256)": "2bf21ecc",
					"Set_Pool(string,string,string,bool)": "357965ba",
					"Test(address,uint256,bytes32,uint256,uint256,uint256)": "22d8325c",
					"Withdrawal(address,bytes32)": "0ce49053",
					"getAllPoolKeys()": "ea8870c0",
					"getLastBNB()": "0c66b373",
					"getPool(bytes32)": "f6c00927",
					"voteWithdrawal(address,uint256)": "9bd0abf1",
					"withdrawBNBInContract(address)": "2775e02c"
				}
			},
			"storageLayout": {
				"storage": [
					{
						"astId": 198,
						"contract": "wwcc-contracts/contracts/wwccPool.sol:WCPOOL",
						"label": "owner",
						"offset": 0,
						"slot": "0",
						"type": "t_address"
					},
					{
						"astId": 200,
						"contract": "wwcc-contracts/contracts/wwccPool.sol:WCPOOL",
						"label": "nextBasalLast",
						"offset": 0,
						"slot": "1",
						"type": "t_uint256"
					},
					{
						"astId": 203,
						"contract": "wwcc-contracts/contracts/wwccPool.sol:WCPOOL",
						"label": "poolKeys",
						"offset": 0,
						"slot": "2",
						"type": "t_array(t_bytes32)dyn_storage"
					},
					{
						"astId": 205,
						"contract": "wwcc-contracts/contracts/wwccPool.sol:WCPOOL",
						"label": "lastBNB",
						"offset": 0,
						"slot": "3",
						"type": "t_uint256"
					},
					{
						"astId": 209,
						"contract": "wwcc-contracts/contracts/wwccPool.sol:WCPOOL",
						"label": "voteAmount",
						"offset": 0,
						"slot": "4",
						"type": "t_mapping(t_address,t_uint256)"
					},
					{
						"astId": 214,
						"contract": "wwcc-contracts/contracts/wwccPool.sol:WCPOOL",
						"label": "WcPools",
						"offset": 0,
						"slot": "5",
						"type": "t_mapping(t_bytes32,t_struct(WcPool)153_storage)"
					},
					{
						"astId": 219,
						"contract": "wwcc-contracts/contracts/wwccPool.sol:WCPOOL",
						"label": "allScorePoolInfo",
						"offset": 0,
						"slot": "6",
						"type": "t_mapping(t_bytes32,t_struct(AllScorePool)171_storage)"
					},
					{
						"astId": 223,
						"contract": "wwcc-contracts/contracts/wwccPool.sol:WCPOOL",
						"label": "singleScorePool",
						"offset": 0,
						"slot": "7",
						"type": "t_mapping(t_string_memory_ptr,t_uint256)"
					},
					{
						"astId": 228,
						"contract": "wwcc-contracts/contracts/wwccPool.sol:WCPOOL",
						"label": "joinerAllPicking",
						"offset": 0,
						"slot": "8",
						"type": "t_mapping(t_address,t_struct(JoinerAllPicking)178_storage)"
					}
				],
				"types": {
					"t_address": {
						"encoding": "inplace",
						"label": "address",
						"numberOfBytes": "20"
					},
					"t_array(t_bytes32)dyn_storage": {
						"base": "t_bytes32",
						"encoding": "dynamic_array",
						"label": "bytes32[]",
						"numberOfBytes": "32"
					},
					"t_array(t_struct(JoinerPicking)193_storage)dyn_storage": {
						"base": "t_struct(JoinerPicking)193_storage",
						"encoding": "dynamic_array",
						"label": "struct WCPOOL.JoinerPicking[]",
						"numberOfBytes": "32"
					},
					"t_bool": {
						"encoding": "inplace",
						"label": "bool",
						"numberOfBytes": "1"
					},
					"t_bytes32": {
						"encoding": "inplace",
						"label": "bytes32",
						"numberOfBytes": "32"
					},
					"t_mapping(t_address,t_struct(JoinerAllPicking)178_storage)": {
						"encoding": "mapping",
						"key": "t_address",
						"label": "mapping(address => struct WCPOOL.JoinerAllPicking)",
						"numberOfBytes": "32",
						"value": "t_struct(JoinerAllPicking)178_storage"
					},
					"t_mapping(t_address,t_uint256)": {
						"encoding": "mapping",
						"key": "t_address",
						"label": "mapping(address => uint256)",
						"numberOfBytes": "32",
						"value": "t_uint256"
					},
					"t_mapping(t_bytes32,t_struct(AllScorePool)171_storage)": {
						"encoding": "mapping",
						"key": "t_bytes32",
						"label": "mapping(bytes32 => struct WCPOOL.AllScorePool)",
						"numberOfBytes": "32",
						"value": "t_struct(AllScorePool)171_storage"
					},
					"t_mapping(t_bytes32,t_struct(WcPool)153_storage)": {
						"encoding": "mapping",
						"key": "t_bytes32",
						"label": "mapping(bytes32 => struct WCPOOL.WcPool)",
						"numberOfBytes": "32",
						"value": "t_struct(WcPool)153_storage"
					},
					"t_mapping(t_string_memory_ptr,t_uint256)": {
						"encoding": "mapping",
						"key": "t_string_memory_ptr",
						"label": "mapping(string => uint256)",
						"numberOfBytes": "32",
						"value": "t_uint256"
					},
					"t_string_memory_ptr": {
						"encoding": "bytes",
						"label": "string",
						"numberOfBytes": "32"
					},
					"t_string_storage": {
						"encoding": "bytes",
						"label": "string",
						"numberOfBytes": "32"
					},
					"t_struct(AllScorePool)171_storage": {
						"encoding": "inplace",
						"label": "struct WCPOOL.AllScorePool",
						"members": [
							{
								"astId": 168,
								"contract": "wwcc-contracts/contracts/wwccPool.sol:WCPOOL",
								"label": "separateBet",
								"offset": 0,
								"slot": "0",
								"type": "t_array(t_struct(JoinerPicking)193_storage)dyn_storage"
							},
							{
								"astId": 170,
								"contract": "wwcc-contracts/contracts/wwccPool.sol:WCPOOL",
								"label": "poolKey",
								"offset": 0,
								"slot": "1",
								"type": "t_bytes32"
							}
						],
						"numberOfBytes": "64"
					},
					"t_struct(JoinerAllPicking)178_storage": {
						"encoding": "inplace",
						"label": "struct WCPOOL.JoinerAllPicking",
						"members": [
							{
								"astId": 175,
								"contract": "wwcc-contracts/contracts/wwccPool.sol:WCPOOL",
								"label": "separateBet",
								"offset": 0,
								"slot": "0",
								"type": "t_array(t_struct(JoinerPicking)193_storage)dyn_storage"
							},
							{
								"astId": 177,
								"contract": "wwcc-contracts/contracts/wwccPool.sol:WCPOOL",
								"label": "joiner",
								"offset": 0,
								"slot": "1",
								"type": "t_address"
							}
						],
						"numberOfBytes": "64"
					},
					"t_struct(JoinerPicking)193_storage": {
						"encoding": "inplace",
						"label": "struct WCPOOL.JoinerPicking",
						"members": [
							{
								"astId": 180,
								"contract": "wwcc-contracts/contracts/wwccPool.sol:WCPOOL",
								"label": "weight",
								"offset": 0,
								"slot": "0",
								"type": "t_uint256"
							},
							{
								"astId": 182,
								"contract": "wwcc-contracts/contracts/wwccPool.sol:WCPOOL",
								"label": "kind",
								"offset": 0,
								"slot": "1",
								"type": "t_uint256"
							},
							{
								"astId": 184,
								"contract": "wwcc-contracts/contracts/wwccPool.sol:WCPOOL",
								"label": "homeScore",
								"offset": 0,
								"slot": "2",
								"type": "t_uint256"
							},
							{
								"astId": 186,
								"contract": "wwcc-contracts/contracts/wwccPool.sol:WCPOOL",
								"label": "visitScore",
								"offset": 0,
								"slot": "3",
								"type": "t_uint256"
							},
							{
								"astId": 188,
								"contract": "wwcc-contracts/contracts/wwccPool.sol:WCPOOL",
								"label": "joiner",
								"offset": 0,
								"slot": "4",
								"type": "t_address"
							},
							{
								"astId": 190,
								"contract": "wwcc-contracts/contracts/wwccPool.sol:WCPOOL",
								"label": "pickingKey",
								"offset": 0,
								"slot": "5",
								"type": "t_string_storage"
							},
							{
								"astId": 192,
								"contract": "wwcc-contracts/contracts/wwccPool.sol:WCPOOL",
								"label": "finished",
								"offset": 0,
								"slot": "6",
								"type": "t_bool"
							}
						],
						"numberOfBytes": "224"
					},
					"t_struct(WcPool)153_storage": {
						"encoding": "inplace",
						"label": "struct WCPOOL.WcPool",
						"members": [
							{
								"astId": 132,
								"contract": "wwcc-contracts/contracts/wwccPool.sol:WCPOOL",
								"label": "home",
								"offset": 0,
								"slot": "0",
								"type": "t_string_storage"
							},
							{
								"astId": 134,
								"contract": "wwcc-contracts/contracts/wwccPool.sol:WCPOOL",
								"label": "visit",
								"offset": 0,
								"slot": "1",
								"type": "t_string_storage"
							},
							{
								"astId": 136,
								"contract": "wwcc-contracts/contracts/wwccPool.sol:WCPOOL",
								"label": "rounds",
								"offset": 0,
								"slot": "2",
								"type": "t_string_storage"
							},
							{
								"astId": 138,
								"contract": "wwcc-contracts/contracts/wwccPool.sol:WCPOOL",
								"label": "wPool",
								"offset": 0,
								"slot": "3",
								"type": "t_uint256"
							},
							{
								"astId": 140,
								"contract": "wwcc-contracts/contracts/wwccPool.sol:WCPOOL",
								"label": "dPool",
								"offset": 0,
								"slot": "4",
								"type": "t_uint256"
							},
							{
								"astId": 142,
								"contract": "wwcc-contracts/contracts/wwccPool.sol:WCPOOL",
								"label": "lPool",
								"offset": 0,
								"slot": "5",
								"type": "t_uint256"
							},
							{
								"astId": 144,
								"contract": "wwcc-contracts/contracts/wwccPool.sol:WCPOOL",
								"label": "sPool",
								"offset": 0,
								"slot": "6",
								"type": "t_uint256"
							},
							{
								"astId": 146,
								"contract": "wwcc-contracts/contracts/wwccPool.sol:WCPOOL",
								"label": "basal",
								"offset": 0,
								"slot": "7",
								"type": "t_uint256"
							},
							{
								"astId": 148,
								"contract": "wwcc-contracts/contracts/wwccPool.sol:WCPOOL",
								"label": "decided",
								"offset": 0,
								"slot": "8",
								"type": "t_bool"
							},
							{
								"astId": 150,
								"contract": "wwcc-contracts/contracts/wwccPool.sol:WCPOOL",
								"label": "used",
								"offset": 1,
								"slot": "8",
								"type": "t_bool"
							},
							{
								"astId": 152,
								"contract": "wwcc-contracts/contracts/wwccPool.sol:WCPOOL",
								"label": "finished",
								"offset": 2,
								"slot": "8",
								"type": "t_bool"
							}
						],
						"numberOfBytes": "288"
					},
					"t_uint256": {
						"encoding": "inplace",
						"label": "uint256",
						"numberOfBytes": "32"
					}
				}
			},
			"userdoc": {
				"kind": "user",
				"methods": {},
				"version": 1
			}
		}
	}
}