{
	"wwcc-contracts/contracts/wwccPool.sol": {
		"WCPOOL": {
			"abi": [
				{
					"inputs": [
						{
							"internalType": "address",
							"name": "holder",
							"type": "address"
						},
						{
							"internalType": "uint256",
							"name": "firstBasal",
							"type": "uint256"
						}
					],
					"stateMutability": "nonpayable",
					"type": "constructor"
				},
				{
					"anonymous": false,
					"inputs": [
						{
							"indexed": false,
							"internalType": "address",
							"name": "",
							"type": "address"
						},
						{
							"indexed": false,
							"internalType": "uint256",
							"name": "",
							"type": "uint256"
						}
					],
					"name": "Received",
					"type": "event"
				},
				{
					"inputs": [
						{
							"internalType": "bytes32",
							"name": "poolKey",
							"type": "bytes32"
						},
						{
							"internalType": "uint256",
							"name": "homeScore",
							"type": "uint256"
						},
						{
							"internalType": "uint256",
							"name": "visitScore",
							"type": "uint256"
						},
						{
							"internalType": "uint256",
							"name": "result",
							"type": "uint256"
						}
					],
					"name": "Award",
					"outputs": [
						{
							"internalType": "bool",
							"name": "",
							"type": "bool"
						}
					],
					"stateMutability": "payable",
					"type": "function"
				},
				{
					"inputs": [],
					"name": "CheckBasal",
					"outputs": [
						{
							"internalType": "uint256",
							"name": "",
							"type": "uint256"
						}
					],
					"stateMutability": "view",
					"type": "function"
				},
				{
					"inputs": [
						{
							"internalType": "bytes32",
							"name": "poolKey",
							"type": "bytes32"
						}
					],
					"name": "CheckExpect",
					"outputs": [
						{
							"internalType": "uint256",
							"name": "",
							"type": "uint256"
						}
					],
					"stateMutability": "view",
					"type": "function"
				},
				{
					"inputs": [],
					"name": "CheckVoteTickets",
					"outputs": [
						{
							"internalType": "uint256",
							"name": "",
							"type": "uint256"
						}
					],
					"stateMutability": "view",
					"type": "function"
				},
				{
					"inputs": [
						{
							"internalType": "address",
							"name": "joiner",
							"type": "address"
						},
						{
							"internalType": "uint256",
							"name": "weight",
							"type": "uint256"
						},
						{
							"internalType": "bytes32",
							"name": "poolKey",
							"type": "bytes32"
						},
						{
							"internalType": "uint256",
							"name": "homeScore",
							"type": "uint256"
						},
						{
							"internalType": "uint256",
							"name": "visitScore",
							"type": "uint256"
						},
						{
							"internalType": "uint256",
							"name": "kind",
							"type": "uint256"
						}
					],
					"name": "Picking",
					"outputs": [
						{
							"internalType": "bool",
							"name": "",
							"type": "bool"
						}
					],
					"stateMutability": "nonpayable",
					"type": "function"
				},
				{
					"inputs": [
						{
							"internalType": "string",
							"name": "home",
							"type": "string"
						},
						{
							"internalType": "string",
							"name": "visit",
							"type": "string"
						},
						{
							"internalType": "string",
							"name": "rounds",
							"type": "string"
						},
						{
							"internalType": "bool",
							"name": "decided",
							"type": "bool"
						}
					],
					"name": "Set_Pool",
					"outputs": [
						{
							"internalType": "bytes32",
							"name": "",
							"type": "bytes32"
						}
					],
					"stateMutability": "nonpayable",
					"type": "function"
				},
				{
					"inputs": [
						{
							"internalType": "address",
							"name": "toAddress",
							"type": "address"
						},
						{
							"internalType": "bytes32",
							"name": "poolKey",
							"type": "bytes32"
						}
					],
					"name": "Withdrawal",
					"outputs": [
						{
							"internalType": "bool",
							"name": "",
							"type": "bool"
						}
					],
					"stateMutability": "payable",
					"type": "function"
				},
				{
					"inputs": [],
					"name": "getAllPoolKeys",
					"outputs": [
						{
							"internalType": "bytes32[]",
							"name": "",
							"type": "bytes32[]"
						}
					],
					"stateMutability": "view",
					"type": "function"
				},
				{
					"inputs": [],
					"name": "getLastBNB",
					"outputs": [
						{
							"internalType": "uint256",
							"name": "",
							"type": "uint256"
						}
					],
					"stateMutability": "view",
					"type": "function"
				},
				{
					"inputs": [
						{
							"internalType": "bytes32",
							"name": "poolKey",
							"type": "bytes32"
						}
					],
					"name": "getPool",
					"outputs": [
						{
							"internalType": "string",
							"name": "vs",
							"type": "string"
						},
						{
							"internalType": "string",
							"name": "rounds",
							"type": "string"
						},
						{
							"components": [
								{
									"internalType": "uint256",
									"name": "wPool",
									"type": "uint256"
								},
								{
									"internalType": "uint256",
									"name": "dPool",
									"type": "uint256"
								},
								{
									"internalType": "uint256",
									"name": "lPool",
									"type": "uint256"
								},
								{
									"internalType": "uint256",
									"name": "sPool",
									"type": "uint256"
								},
								{
									"internalType": "uint256",
									"name": "basal",
									"type": "uint256"
								}
							],
							"internalType": "struct WCPOOL.PoolViewInfo",
							"name": "viewInfo",
							"type": "tuple"
						}
					],
					"stateMutability": "view",
					"type": "function"
				},
				{
					"inputs": [
						{
							"internalType": "address",
							"name": "joiner",
							"type": "address"
						},
						{
							"internalType": "uint256",
							"name": "amount",
							"type": "uint256"
						}
					],
					"name": "voteWithdrawal",
					"outputs": [
						{
							"internalType": "bool",
							"name": "",
							"type": "bool"
						}
					],
					"stateMutability": "payable",
					"type": "function"
				},
				{
					"inputs": [
						{
							"internalType": "address",
							"name": "toAddress",
							"type": "address"
						}
					],
					"name": "withdrawBNBInContract",
					"outputs": [
						{
							"internalType": "bool",
							"name": "",
							"type": "bool"
						}
					],
					"stateMutability": "payable",
					"type": "function"
				},
				{
					"stateMutability": "payable",
					"type": "receive"
				}
			],
			"devdoc": {
				"kind": "dev",
				"methods": {},
				"version": 1
			},
			"evm": {
				"assembly": "    /* \"wwcc-contracts/contracts/wwccPool.sol\":96:13414  contract WCPOOL {... */\n  mstore(0x40, 0x80)\n    /* \"wwcc-contracts/contracts/wwccPool.sol\":1776:1997  constructor(... */\n  callvalue\n  dup1\n  iszero\n  tag_1\n  jumpi\n  0x00\n  dup1\n  revert\ntag_1:\n  pop\n  mload(0x40)\n  sub(codesize, bytecodeSize)\n  dup1\n  bytecodeSize\n  dup4\n  codecopy\n  dup2\n  dup2\n  add\n  0x40\n  mstore\n  dup2\n  add\n  swap1\n  tag_2\n  swap2\n  swap1\n  tag_3\n  jump\t// in\ntag_2:\n    /* \"wwcc-contracts/contracts/wwccPool.sol\":1857:1863  holder */\n  dup2\n    /* \"wwcc-contracts/contracts/wwccPool.sol\":1849:1854  owner */\n  0x00\n  dup1\n    /* \"wwcc-contracts/contracts/wwccPool.sol\":1849:1863  owner = holder */\n  0x0100\n  exp\n  dup2\n  sload\n  dup2\n  0xffffffffffffffffffffffffffffffffffffffff\n  mul\n  not\n  and\n  swap1\n  dup4\n  0xffffffffffffffffffffffffffffffffffffffff\n  and\n  mul\n  or\n  swap1\n  sstore\n  pop\n    /* \"wwcc-contracts/contracts/wwccPool.sol\":1883:1884  0 */\n  0x00\n    /* \"wwcc-contracts/contracts/wwccPool.sol\":1873:1880  lastBNB */\n  0x03\n    /* \"wwcc-contracts/contracts/wwccPool.sol\":1873:1884  lastBNB = 0 */\n  dup2\n  swap1\n  sstore\n  pop\n    /* \"wwcc-contracts/contracts/wwccPool.sol\":1910:1920  firstBasal */\n  dup1\n    /* \"wwcc-contracts/contracts/wwccPool.sol\":1894:1907  nextBasalLast */\n  0x01\n    /* \"wwcc-contracts/contracts/wwccPool.sol\":1894:1920  nextBasalLast = firstBasal */\n  dup2\n  swap1\n  sstore\n  pop\n    /* \"wwcc-contracts/contracts/wwccPool.sol\":1776:1997  constructor(... */\n  pop\n  pop\n    /* \"wwcc-contracts/contracts/wwccPool.sol\":96:13414  contract WCPOOL {... */\n  jump(tag_6)\n    /* \"#utility.yul\":7:150   */\ntag_8:\n    /* \"#utility.yul\":64:69   */\n  0x00\n    /* \"#utility.yul\":95:101   */\n  dup2\n    /* \"#utility.yul\":89:102   */\n  mload\n    /* \"#utility.yul\":80:102   */\n  swap1\n  pop\n    /* \"#utility.yul\":111:144   */\n  tag_10\n    /* \"#utility.yul\":138:143   */\n  dup2\n    /* \"#utility.yul\":111:144   */\n  tag_11\n  jump\t// in\ntag_10:\n    /* \"#utility.yul\":7:150   */\n  swap3\n  swap2\n  pop\n  pop\n  jump\t// out\n    /* \"#utility.yul\":156:299   */\ntag_12:\n    /* \"#utility.yul\":213:218   */\n  0x00\n    /* \"#utility.yul\":244:250   */\n  dup2\n    /* \"#utility.yul\":238:251   */\n  mload\n    /* \"#utility.yul\":229:251   */\n  swap1\n  pop\n    /* \"#utility.yul\":260:293   */\n  tag_14\n    /* \"#utility.yul\":287:292   */\n  dup2\n    /* \"#utility.yul\":260:293   */\n  tag_15\n  jump\t// in\ntag_14:\n    /* \"#utility.yul\":156:299   */\n  swap3\n  swap2\n  pop\n  pop\n  jump\t// out\n    /* \"#utility.yul\":305:812   */\ntag_3:\n    /* \"#utility.yul\":384:390   */\n  0x00\n    /* \"#utility.yul\":392:398   */\n  dup1\n    /* \"#utility.yul\":441:443   */\n  0x40\n    /* \"#utility.yul\":429:438   */\n  dup4\n    /* \"#utility.yul\":420:427   */\n  dup6\n    /* \"#utility.yul\":416:439   */\n  sub\n    /* \"#utility.yul\":412:444   */\n  slt\n    /* \"#utility.yul\":409:528   */\n  iszero\n  tag_17\n  jumpi\n    /* \"#utility.yul\":447:526   */\n  tag_18\n  tag_19\n  jump\t// in\ntag_18:\n    /* \"#utility.yul\":409:528   */\ntag_17:\n    /* \"#utility.yul\":567:568   */\n  0x00\n    /* \"#utility.yul\":592:656   */\n  tag_20\n    /* \"#utility.yul\":648:655   */\n  dup6\n    /* \"#utility.yul\":639:645   */\n  dup3\n    /* \"#utility.yul\":628:637   */\n  dup7\n    /* \"#utility.yul\":624:646   */\n  add\n    /* \"#utility.yul\":592:656   */\n  tag_8\n  jump\t// in\ntag_20:\n    /* \"#utility.yul\":582:656   */\n  swap3\n  pop\n    /* \"#utility.yul\":538:666   */\n  pop\n    /* \"#utility.yul\":705:707   */\n  0x20\n    /* \"#utility.yul\":731:795   */\n  tag_21\n    /* \"#utility.yul\":787:794   */\n  dup6\n    /* \"#utility.yul\":778:784   */\n  dup3\n    /* \"#utility.yul\":767:776   */\n  dup7\n    /* \"#utility.yul\":763:785   */\n  add\n    /* \"#utility.yul\":731:795   */\n  tag_12\n  jump\t// in\ntag_21:\n    /* \"#utility.yul\":721:795   */\n  swap2\n  pop\n    /* \"#utility.yul\":676:805   */\n  pop\n    /* \"#utility.yul\":305:812   */\n  swap3\n  pop\n  swap3\n  swap1\n  pop\n  jump\t// out\n    /* \"#utility.yul\":899:995   */\ntag_24:\n    /* \"#utility.yul\":936:943   */\n  0x00\n    /* \"#utility.yul\":965:989   */\n  tag_26\n    /* \"#utility.yul\":983:988   */\n  dup3\n    /* \"#utility.yul\":965:989   */\n  tag_27\n  jump\t// in\ntag_26:\n    /* \"#utility.yul\":954:989   */\n  swap1\n  pop\n    /* \"#utility.yul\":899:995   */\n  swap2\n  swap1\n  pop\n  jump\t// out\n    /* \"#utility.yul\":1001:1127   */\ntag_27:\n    /* \"#utility.yul\":1038:1045   */\n  0x00\n    /* \"#utility.yul\":1078:1120   */\n  0xffffffffffffffffffffffffffffffffffffffff\n    /* \"#utility.yul\":1071:1076   */\n  dup3\n    /* \"#utility.yul\":1067:1121   */\n  and\n    /* \"#utility.yul\":1056:1121   */\n  swap1\n  pop\n    /* \"#utility.yul\":1001:1127   */\n  swap2\n  swap1\n  pop\n  jump\t// out\n    /* \"#utility.yul\":1133:1210   */\ntag_29:\n    /* \"#utility.yul\":1170:1177   */\n  0x00\n    /* \"#utility.yul\":1199:1204   */\n  dup2\n    /* \"#utility.yul\":1188:1204   */\n  swap1\n  pop\n    /* \"#utility.yul\":1133:1210   */\n  swap2\n  swap1\n  pop\n  jump\t// out\n    /* \"#utility.yul\":1339:1456   */\ntag_19:\n    /* \"#utility.yul\":1448:1449   */\n  0x00\n    /* \"#utility.yul\":1445:1446   */\n  dup1\n    /* \"#utility.yul\":1438:1450   */\n  revert\n    /* \"#utility.yul\":1462:1584   */\ntag_11:\n    /* \"#utility.yul\":1535:1559   */\n  tag_35\n    /* \"#utility.yul\":1553:1558   */\n  dup2\n    /* \"#utility.yul\":1535:1559   */\n  tag_24\n  jump\t// in\ntag_35:\n    /* \"#utility.yul\":1528:1533   */\n  dup2\n    /* \"#utility.yul\":1525:1560   */\n  eq\n    /* \"#utility.yul\":1515:1578   */\n  tag_36\n  jumpi\n    /* \"#utility.yul\":1574:1575   */\n  0x00\n    /* \"#utility.yul\":1571:1572   */\n  dup1\n    /* \"#utility.yul\":1564:1576   */\n  revert\n    /* \"#utility.yul\":1515:1578   */\ntag_36:\n    /* \"#utility.yul\":1462:1584   */\n  pop\n  jump\t// out\n    /* \"#utility.yul\":1590:1712   */\ntag_15:\n    /* \"#utility.yul\":1663:1687   */\n  tag_38\n    /* \"#utility.yul\":1681:1686   */\n  dup2\n    /* \"#utility.yul\":1663:1687   */\n  tag_29\n  jump\t// in\ntag_38:\n    /* \"#utility.yul\":1656:1661   */\n  dup2\n    /* \"#utility.yul\":1653:1688   */\n  eq\n    /* \"#utility.yul\":1643:1706   */\n  tag_39\n  jumpi\n    /* \"#utility.yul\":1702:1703   */\n  0x00\n    /* \"#utility.yul\":1699:1700   */\n  dup1\n    /* \"#utility.yul\":1692:1704   */\n  revert\n    /* \"#utility.yul\":1643:1706   */\ntag_39:\n    /* \"#utility.yul\":1590:1712   */\n  pop\n  jump\t// out\n    /* \"wwcc-contracts/contracts/wwccPool.sol\":96:13414  contract WCPOOL {... */\ntag_6:\n  dataSize(sub_0)\n  dup1\n  dataOffset(sub_0)\n  0x00\n  codecopy\n  0x00\n  return\nstop\n\nsub_0: assembly {\n        /* \"wwcc-contracts/contracts/wwccPool.sol\":96:13414  contract WCPOOL {... */\n      mstore(0x40, 0x80)\n      jumpi(tag_1, lt(calldatasize, 0x04))\n      shr(0xe0, calldataload(0x00))\n      dup1\n      0x47e4dd27\n      gt\n      tag_15\n      jumpi\n      dup1\n      0x47e4dd27\n      eq\n      tag_9\n      jumpi\n      dup1\n      0x74fe9bc2\n      eq\n      tag_10\n      jumpi\n      dup1\n      0x9bd0abf1\n      eq\n      tag_11\n      jumpi\n      dup1\n      0xbaf41269\n      eq\n      tag_12\n      jumpi\n      dup1\n      0xea8870c0\n      eq\n      tag_13\n      jumpi\n      dup1\n      0xf6c00927\n      eq\n      tag_14\n      jumpi\n      jump(tag_2)\n    tag_15:\n      dup1\n      0x0c66b373\n      eq\n      tag_3\n      jumpi\n      dup1\n      0x0ce49053\n      eq\n      tag_4\n      jumpi\n      dup1\n      0x2775e02c\n      eq\n      tag_5\n      jumpi\n      dup1\n      0x357965ba\n      eq\n      tag_6\n      jumpi\n      dup1\n      0x3e6ff1a2\n      eq\n      tag_7\n      jumpi\n      dup1\n      0x4121855f\n      eq\n      tag_8\n      jumpi\n      jump(tag_2)\n    tag_1:\n      jumpi(tag_2, calldatasize)\n        /* \"wwcc-contracts/contracts/wwccPool.sol\":13219:13224  owner */\n      0x00\n      dup1\n      sload\n      swap1\n      0x0100\n      exp\n      swap1\n      div\n      0xffffffffffffffffffffffffffffffffffffffff\n      and\n        /* \"wwcc-contracts/contracts/wwccPool.sol\":13205:13224  msg.sender != owner */\n      0xffffffffffffffffffffffffffffffffffffffff\n      and\n        /* \"wwcc-contracts/contracts/wwccPool.sol\":13205:13215  msg.sender */\n      caller\n        /* \"wwcc-contracts/contracts/wwccPool.sol\":13205:13224  msg.sender != owner */\n      0xffffffffffffffffffffffffffffffffffffffff\n      and\n      eq\n        /* \"wwcc-contracts/contracts/wwccPool.sol\":13202:13407  if(msg.sender != owner){... */\n      tag_18\n      jumpi\n        /* \"wwcc-contracts/contracts/wwccPool.sol\":13264:13296  msg.value.div(10000000000000000) */\n      tag_19\n        /* \"wwcc-contracts/contracts/wwccPool.sol\":13278:13295  10000000000000000 */\n      0x2386f26fc10000\n        /* \"wwcc-contracts/contracts/wwccPool.sol\":13264:13273  msg.value */\n      callvalue\n        /* \"wwcc-contracts/contracts/wwccPool.sol\":13264:13277  msg.value.div */\n      tag_20\n      swap1\n        /* \"wwcc-contracts/contracts/wwccPool.sol\":13264:13296  msg.value.div(10000000000000000) */\n      swap2\n      swap1\n      0xffffffff\n      and\n      jump\t// in\n    tag_19:\n        /* \"wwcc-contracts/contracts/wwccPool.sol\":13238:13248  voteAmount */\n      0x04\n        /* \"wwcc-contracts/contracts/wwccPool.sol\":13238:13260  voteAmount[msg.sender] */\n      0x00\n        /* \"wwcc-contracts/contracts/wwccPool.sol\":13249:13259  msg.sender */\n      caller\n        /* \"wwcc-contracts/contracts/wwccPool.sol\":13238:13260  voteAmount[msg.sender] */\n      0xffffffffffffffffffffffffffffffffffffffff\n      and\n      0xffffffffffffffffffffffffffffffffffffffff\n      and\n      dup2\n      mstore\n      0x20\n      add\n      swap1\n      dup2\n      mstore\n      0x20\n      add\n      0x00\n      keccak256\n      0x00\n        /* \"wwcc-contracts/contracts/wwccPool.sol\":13238:13296  voteAmount[msg.sender] += msg.value.div(10000000000000000) */\n      dup3\n      dup3\n      sload\n      tag_21\n      swap2\n      swap1\n      tag_22\n      jump\t// in\n    tag_21:\n      swap3\n      pop\n      pop\n      dup2\n      swap1\n      sstore\n      pop\n        /* \"wwcc-contracts/contracts/wwccPool.sol\":13320:13329  msg.value */\n      callvalue\n        /* \"wwcc-contracts/contracts/wwccPool.sol\":13309:13316  lastBNB */\n      0x03\n      0x00\n        /* \"wwcc-contracts/contracts/wwccPool.sol\":13309:13329  lastBNB += msg.value */\n      dup3\n      dup3\n      sload\n      tag_23\n      swap2\n      swap1\n      tag_22\n      jump\t// in\n    tag_23:\n      swap3\n      pop\n      pop\n      dup2\n      swap1\n      sstore\n      pop\n        /* \"wwcc-contracts/contracts/wwccPool.sol\":13347:13378  Received(msg.sender, msg.value) */\n      0x88a5966d370b9919b20f3e2c13ff65706f196a4e32cc2c12bf57088f88525874\n        /* \"wwcc-contracts/contracts/wwccPool.sol\":13356:13366  msg.sender */\n      caller\n        /* \"wwcc-contracts/contracts/wwccPool.sol\":13368:13377  msg.value */\n      callvalue\n        /* \"wwcc-contracts/contracts/wwccPool.sol\":13347:13378  Received(msg.sender, msg.value) */\n      mload(0x40)\n      tag_24\n      swap3\n      swap2\n      swap1\n      tag_25\n      jump\t// in\n    tag_24:\n      mload(0x40)\n      dup1\n      swap2\n      sub\n      swap1\n      log1\n        /* \"wwcc-contracts/contracts/wwccPool.sol\":13202:13407  if(msg.sender != owner){... */\n      jump(tag_26)\n    tag_18:\n    tag_26:\n        /* \"wwcc-contracts/contracts/wwccPool.sol\":96:13414  contract WCPOOL {... */\n      stop\n    tag_2:\n      0x00\n      dup1\n      revert\n        /* \"wwcc-contracts/contracts/wwccPool.sol\":6049:6145  function getLastBNB() external onlyManager view returns (uint256){... */\n    tag_3:\n      callvalue\n      dup1\n      iszero\n      tag_27\n      jumpi\n      0x00\n      dup1\n      revert\n    tag_27:\n      pop\n      tag_28\n      tag_29\n      jump\t// in\n    tag_28:\n      mload(0x40)\n      tag_30\n      swap2\n      swap1\n      tag_31\n      jump\t// in\n    tag_30:\n      mload(0x40)\n      dup1\n      swap2\n      sub\n      swap1\n      return\n        /* \"wwcc-contracts/contracts/wwccPool.sol\":4351:5030  function Withdrawal(address toAddress,bytes32 poolKey) external onlyManager payable returns (bool){... */\n    tag_4:\n      tag_32\n      0x04\n      dup1\n      calldatasize\n      sub\n      dup2\n      add\n      swap1\n      tag_33\n      swap2\n      swap1\n      tag_34\n      jump\t// in\n    tag_33:\n      tag_35\n      jump\t// in\n    tag_32:\n      mload(0x40)\n      tag_36\n      swap2\n      swap1\n      tag_37\n      jump\t// in\n    tag_36:\n      mload(0x40)\n      dup1\n      swap2\n      sub\n      swap1\n      return\n        /* \"wwcc-contracts/contracts/wwccPool.sol\":9993:10237  function withdrawBNBInContract(address toAddress)external onlyManager payable returns(bool){... */\n    tag_5:\n      tag_38\n      0x04\n      dup1\n      calldatasize\n      sub\n      dup2\n      add\n      swap1\n      tag_39\n      swap2\n      swap1\n      tag_40\n      jump\t// in\n    tag_39:\n      tag_41\n      jump\t// in\n    tag_38:\n      mload(0x40)\n      tag_42\n      swap2\n      swap1\n      tag_37\n      jump\t// in\n    tag_42:\n      mload(0x40)\n      dup1\n      swap2\n      sub\n      swap1\n      return\n        /* \"wwcc-contracts/contracts/wwccPool.sol\":2039:2959  function Set_Pool(... */\n    tag_6:\n      callvalue\n      dup1\n      iszero\n      tag_43\n      jumpi\n      0x00\n      dup1\n      revert\n    tag_43:\n      pop\n      tag_44\n      0x04\n      dup1\n      calldatasize\n      sub\n      dup2\n      add\n      swap1\n      tag_45\n      swap2\n      swap1\n      tag_46\n      jump\t// in\n    tag_45:\n      tag_47\n      jump\t// in\n    tag_44:\n      mload(0x40)\n      tag_48\n      swap2\n      swap1\n      tag_49\n      jump\t// in\n    tag_48:\n      mload(0x40)\n      dup1\n      swap2\n      sub\n      swap1\n      return\n        /* \"wwcc-contracts/contracts/wwccPool.sol\":6207:6313  function CheckBasal() external onlyManager view  returns (uint256){... */\n    tag_7:\n      callvalue\n      dup1\n      iszero\n      tag_50\n      jumpi\n      0x00\n      dup1\n      revert\n    tag_50:\n      pop\n      tag_51\n      tag_52\n      jump\t// in\n    tag_51:\n      mload(0x40)\n      tag_53\n      swap2\n      swap1\n      tag_31\n      jump\t// in\n    tag_53:\n      mload(0x40)\n      dup1\n      swap2\n      sub\n      swap1\n      return\n        /* \"wwcc-contracts/contracts/wwccPool.sol\":5569:5941  function CheckExpect(bytes32 poolKey) external onlyManager view  returns (uint256){... */\n    tag_8:\n      callvalue\n      dup1\n      iszero\n      tag_54\n      jumpi\n      0x00\n      dup1\n      revert\n    tag_54:\n      pop\n      tag_55\n      0x04\n      dup1\n      calldatasize\n      sub\n      dup2\n      add\n      swap1\n      tag_56\n      swap2\n      swap1\n      tag_57\n      jump\t// in\n    tag_56:\n      tag_58\n      jump\t// in\n    tag_55:\n      mload(0x40)\n      tag_59\n      swap2\n      swap1\n      tag_31\n      jump\t// in\n    tag_59:\n      mload(0x40)\n      dup1\n      swap2\n      sub\n      swap1\n      return\n        /* \"wwcc-contracts/contracts/wwccPool.sol\":2982:4308  function Picking(address joiner,uint256 weight,bytes32 poolKey,uint256 homeScore,uint256 visitScore,uint256 kind) external returns(bool){... */\n    tag_9:\n      callvalue\n      dup1\n      iszero\n      tag_60\n      jumpi\n      0x00\n      dup1\n      revert\n    tag_60:\n      pop\n      tag_61\n      0x04\n      dup1\n      calldatasize\n      sub\n      dup2\n      add\n      swap1\n      tag_62\n      swap2\n      swap1\n      tag_63\n      jump\t// in\n    tag_62:\n      tag_64\n      jump\t// in\n    tag_61:\n      mload(0x40)\n      tag_65\n      swap2\n      swap1\n      tag_37\n      jump\t// in\n    tag_65:\n      mload(0x40)\n      dup1\n      swap2\n      sub\n      swap1\n      return\n        /* \"wwcc-contracts/contracts/wwccPool.sol\":6531:9988  function Award(bytes32 poolKey,uint256 homeScore,uint256 visitScore,uint256 result)  external onlyManager  payable returns(bool){... */\n    tag_10:\n      tag_66\n      0x04\n      dup1\n      calldatasize\n      sub\n      dup2\n      add\n      swap1\n      tag_67\n      swap2\n      swap1\n      tag_68\n      jump\t// in\n    tag_67:\n      tag_69\n      jump\t// in\n    tag_66:\n      mload(0x40)\n      tag_70\n      swap2\n      swap1\n      tag_37\n      jump\t// in\n    tag_70:\n      mload(0x40)\n      dup1\n      swap2\n      sub\n      swap1\n      return\n        /* \"wwcc-contracts/contracts/wwccPool.sol\":5091:5504  function voteWithdrawal(address joiner,uint256 amount) external onlyManager payable returns (bool){... */\n    tag_11:\n      tag_71\n      0x04\n      dup1\n      calldatasize\n      sub\n      dup2\n      add\n      swap1\n      tag_72\n      swap2\n      swap1\n      tag_73\n      jump\t// in\n    tag_72:\n      tag_74\n      jump\t// in\n    tag_71:\n      mload(0x40)\n      tag_75\n      swap2\n      swap1\n      tag_37\n      jump\t// in\n    tag_75:\n      mload(0x40)\n      dup1\n      swap2\n      sub\n      swap1\n      return\n        /* \"wwcc-contracts/contracts/wwccPool.sol\":6355:6460  function CheckVoteTickets() external view returns (uint256){... */\n    tag_12:\n      callvalue\n      dup1\n      iszero\n      tag_76\n      jumpi\n      0x00\n      dup1\n      revert\n    tag_76:\n      pop\n      tag_77\n      tag_78\n      jump\t// in\n    tag_77:\n      mload(0x40)\n      tag_79\n      swap2\n      swap1\n      tag_31\n      jump\t// in\n    tag_79:\n      mload(0x40)\n      dup1\n      swap2\n      sub\n      swap1\n      return\n        /* \"wwcc-contracts/contracts/wwccPool.sol\":5946:6044  function getAllPoolKeys() external view returns (bytes32[] memory){... */\n    tag_13:\n      callvalue\n      dup1\n      iszero\n      tag_80\n      jumpi\n      0x00\n      dup1\n      revert\n    tag_80:\n      pop\n      tag_81\n      tag_82\n      jump\t// in\n    tag_81:\n      mload(0x40)\n      tag_83\n      swap2\n      swap1\n      tag_84\n      jump\t// in\n    tag_83:\n      mload(0x40)\n      dup1\n      swap2\n      sub\n      swap1\n      return\n        /* \"wwcc-contracts/contracts/wwccPool.sol\":10287:10935  function getPool(bytes32 poolKey) external view returns (string memory vs,string memory rounds,PoolViewInfo memory viewInfo){... */\n    tag_14:\n      callvalue\n      dup1\n      iszero\n      tag_85\n      jumpi\n      0x00\n      dup1\n      revert\n    tag_85:\n      pop\n      tag_86\n      0x04\n      dup1\n      calldatasize\n      sub\n      dup2\n      add\n      swap1\n      tag_87\n      swap2\n      swap1\n      tag_57\n      jump\t// in\n    tag_87:\n      tag_88\n      jump\t// in\n    tag_86:\n      mload(0x40)\n      tag_89\n      swap4\n      swap3\n      swap2\n      swap1\n      tag_90\n      jump\t// in\n    tag_89:\n      mload(0x40)\n      dup1\n      swap2\n      sub\n      swap1\n      return\n        /* \"wwcc-contracts/contracts/safemath.sol\":274:417  function div(uint256 a, uint256 b) internal pure returns (uint256) {... */\n    tag_20:\n        /* \"wwcc-contracts/contracts/safemath.sol\":332:339  uint256 */\n      0x00\n        /* \"wwcc-contracts/contracts/safemath.sol\":363:364  0 */\n      dup1\n        /* \"wwcc-contracts/contracts/safemath.sol\":359:360  b */\n      dup3\n        /* \"wwcc-contracts/contracts/safemath.sol\":359:364  b > 0 */\n      gt\n        /* \"wwcc-contracts/contracts/safemath.sol\":351:365  require(b > 0) */\n      tag_92\n      jumpi\n      0x00\n      dup1\n      revert\n    tag_92:\n        /* \"wwcc-contracts/contracts/safemath.sol\":375:384  uint256 c */\n      0x00\n        /* \"wwcc-contracts/contracts/safemath.sol\":391:392  b */\n      dup3\n        /* \"wwcc-contracts/contracts/safemath.sol\":387:388  a */\n      dup5\n        /* \"wwcc-contracts/contracts/safemath.sol\":387:392  a / b */\n      tag_93\n      swap2\n      swap1\n      tag_94\n      jump\t// in\n    tag_93:\n        /* \"wwcc-contracts/contracts/safemath.sol\":375:392  uint256 c = a / b */\n      swap1\n      pop\n        /* \"wwcc-contracts/contracts/safemath.sol\":409:410  c */\n      dup1\n        /* \"wwcc-contracts/contracts/safemath.sol\":402:410  return c */\n      swap2\n      pop\n      pop\n        /* \"wwcc-contracts/contracts/safemath.sol\":274:417  function div(uint256 a, uint256 b) internal pure returns (uint256) {... */\n      swap3\n      swap2\n      pop\n      pop\n      jump\t// out\n        /* \"wwcc-contracts/contracts/wwccPool.sol\":6049:6145  function getLastBNB() external onlyManager view returns (uint256){... */\n    tag_29:\n        /* \"wwcc-contracts/contracts/wwccPool.sol\":6106:6113  uint256 */\n      0x00\n        /* \"wwcc-contracts/contracts/wwccPool.sol\":13035:13040  owner */\n      dup1\n      0x00\n      swap1\n      sload\n      swap1\n      0x0100\n      exp\n      swap1\n      div\n      0xffffffffffffffffffffffffffffffffffffffff\n      and\n        /* \"wwcc-contracts/contracts/wwccPool.sol\":13021:13040  msg.sender == owner */\n      0xffffffffffffffffffffffffffffffffffffffff\n      and\n        /* \"wwcc-contracts/contracts/wwccPool.sol\":13021:13031  msg.sender */\n      caller\n        /* \"wwcc-contracts/contracts/wwccPool.sol\":13021:13040  msg.sender == owner */\n      0xffffffffffffffffffffffffffffffffffffffff\n      and\n      eq\n        /* \"wwcc-contracts/contracts/wwccPool.sol\":13000:13091  require(... */\n      tag_96\n      jumpi\n      mload(0x40)\n      0x08c379a000000000000000000000000000000000000000000000000000000000\n      dup2\n      mstore\n      0x04\n      add\n      tag_97\n      swap1\n      tag_98\n      jump\t// in\n    tag_97:\n      mload(0x40)\n      dup1\n      swap2\n      sub\n      swap1\n      revert\n    tag_96:\n        /* \"wwcc-contracts/contracts/wwccPool.sol\":6131:6138  lastBNB */\n      sload(0x03)\n        /* \"wwcc-contracts/contracts/wwccPool.sol\":6124:6138  return lastBNB */\n      swap1\n      pop\n        /* \"wwcc-contracts/contracts/wwccPool.sol\":6049:6145  function getLastBNB() external onlyManager view returns (uint256){... */\n      swap1\n      jump\t// out\n        /* \"wwcc-contracts/contracts/wwccPool.sol\":4351:5030  function Withdrawal(address toAddress,bytes32 poolKey) external onlyManager payable returns (bool){... */\n    tag_35:\n        /* \"wwcc-contracts/contracts/wwccPool.sol\":4444:4448  bool */\n      0x00\n        /* \"wwcc-contracts/contracts/wwccPool.sol\":13035:13040  owner */\n      dup1\n      0x00\n      swap1\n      sload\n      swap1\n      0x0100\n      exp\n      swap1\n      div\n      0xffffffffffffffffffffffffffffffffffffffff\n      and\n        /* \"wwcc-contracts/contracts/wwccPool.sol\":13021:13040  msg.sender == owner */\n      0xffffffffffffffffffffffffffffffffffffffff\n      and\n        /* \"wwcc-contracts/contracts/wwccPool.sol\":13021:13031  msg.sender */\n      caller\n        /* \"wwcc-contracts/contracts/wwccPool.sol\":13021:13040  msg.sender == owner */\n      0xffffffffffffffffffffffffffffffffffffffff\n      and\n      eq\n        /* \"wwcc-contracts/contracts/wwccPool.sol\":13000:13091  require(... */\n      tag_101\n      jumpi\n      mload(0x40)\n      0x08c379a000000000000000000000000000000000000000000000000000000000\n      dup2\n      mstore\n      0x04\n      add\n      tag_102\n      swap1\n      tag_98\n      jump\t// in\n    tag_102:\n      mload(0x40)\n      dup1\n      swap2\n      sub\n      swap1\n      revert\n    tag_101:\n        /* \"wwcc-contracts/contracts/wwccPool.sol\":4466:4483  contains(poolKey) */\n      tag_104\n        /* \"wwcc-contracts/contracts/wwccPool.sol\":4475:4482  poolKey */\n      dup3\n        /* \"wwcc-contracts/contracts/wwccPool.sol\":4466:4474  contains */\n      tag_105\n        /* \"wwcc-contracts/contracts/wwccPool.sol\":4466:4483  contains(poolKey) */\n      jump\t// in\n    tag_104:\n        /* \"wwcc-contracts/contracts/wwccPool.sol\":4462:5000  if(!contains(poolKey)) { ... */\n      tag_106\n      jumpi\n        /* \"wwcc-contracts/contracts/wwccPool.sol\":4504:4528  revert(\"pool not exist\") */\n      mload(0x40)\n      0x08c379a000000000000000000000000000000000000000000000000000000000\n      dup2\n      mstore\n      0x04\n      add\n      tag_107\n      swap1\n      tag_108\n      jump\t// in\n    tag_107:\n      mload(0x40)\n      dup1\n      swap2\n      sub\n      swap1\n      revert\n        /* \"wwcc-contracts/contracts/wwccPool.sol\":4462:5000  if(!contains(poolKey)) { ... */\n    tag_106:\n        /* \"wwcc-contracts/contracts/wwccPool.sol\":4564:4582  WcPool memory pool */\n      0x00\n        /* \"wwcc-contracts/contracts/wwccPool.sol\":4585:4592  WcPools */\n      0x05\n        /* \"wwcc-contracts/contracts/wwccPool.sol\":4585:4601  WcPools[poolKey] */\n      0x00\n        /* \"wwcc-contracts/contracts/wwccPool.sol\":4593:4600  poolKey */\n      dup5\n        /* \"wwcc-contracts/contracts/wwccPool.sol\":4585:4601  WcPools[poolKey] */\n      dup2\n      mstore\n      0x20\n      add\n      swap1\n      dup2\n      mstore\n      0x20\n      add\n      0x00\n      keccak256\n        /* \"wwcc-contracts/contracts/wwccPool.sol\":4564:4601  WcPool memory pool = WcPools[poolKey] */\n      mload(0x40)\n      dup1\n      0x0160\n      add\n      0x40\n      mstore\n      swap1\n      dup2\n      0x00\n      dup3\n      add\n      dup1\n      sload\n      tag_110\n      swap1\n      tag_111\n      jump\t// in\n    tag_110:\n      dup1\n      0x1f\n      add\n      0x20\n      dup1\n      swap2\n      div\n      mul\n      0x20\n      add\n      mload(0x40)\n      swap1\n      dup2\n      add\n      0x40\n      mstore\n      dup1\n      swap3\n      swap2\n      swap1\n      dup2\n      dup2\n      mstore\n      0x20\n      add\n      dup3\n      dup1\n      sload\n      tag_112\n      swap1\n      tag_111\n      jump\t// in\n    tag_112:\n      dup1\n      iszero\n      tag_113\n      jumpi\n      dup1\n      0x1f\n      lt\n      tag_114\n      jumpi\n      0x0100\n      dup1\n      dup4\n      sload\n      div\n      mul\n      dup4\n      mstore\n      swap2\n      0x20\n      add\n      swap2\n      jump(tag_113)\n    tag_114:\n      dup3\n      add\n      swap2\n      swap1\n      0x00\n      mstore\n      keccak256(0x00, 0x20)\n      swap1\n    tag_115:\n      dup2\n      sload\n      dup2\n      mstore\n      swap1\n      0x01\n      add\n      swap1\n      0x20\n      add\n      dup1\n      dup4\n      gt\n      tag_115\n      jumpi\n      dup3\n      swap1\n      sub\n      0x1f\n      and\n      dup3\n      add\n      swap2\n    tag_113:\n      pop\n      pop\n      pop\n      pop\n      pop\n      dup2\n      mstore\n      0x20\n      add\n      0x01\n      dup3\n      add\n      dup1\n      sload\n      tag_116\n      swap1\n      tag_111\n      jump\t// in\n    tag_116:\n      dup1\n      0x1f\n      add\n      0x20\n      dup1\n      swap2\n      div\n      mul\n      0x20\n      add\n      mload(0x40)\n      swap1\n      dup2\n      add\n      0x40\n      mstore\n      dup1\n      swap3\n      swap2\n      swap1\n      dup2\n      dup2\n      mstore\n      0x20\n      add\n      dup3\n      dup1\n      sload\n      tag_117\n      swap1\n      tag_111\n      jump\t// in\n    tag_117:\n      dup1\n      iszero\n      tag_118\n      jumpi\n      dup1\n      0x1f\n      lt\n      tag_119\n      jumpi\n      0x0100\n      dup1\n      dup4\n      sload\n      div\n      mul\n      dup4\n      mstore\n      swap2\n      0x20\n      add\n      swap2\n      jump(tag_118)\n    tag_119:\n      dup3\n      add\n      swap2\n      swap1\n      0x00\n      mstore\n      keccak256(0x00, 0x20)\n      swap1\n    tag_120:\n      dup2\n      sload\n      dup2\n      mstore\n      swap1\n      0x01\n      add\n      swap1\n      0x20\n      add\n      dup1\n      dup4\n      gt\n      tag_120\n      jumpi\n      dup3\n      swap1\n      sub\n      0x1f\n      and\n      dup3\n      add\n      swap2\n    tag_118:\n      pop\n      pop\n      pop\n      pop\n      pop\n      dup2\n      mstore\n      0x20\n      add\n      0x02\n      dup3\n      add\n      dup1\n      sload\n      tag_121\n      swap1\n      tag_111\n      jump\t// in\n    tag_121:\n      dup1\n      0x1f\n      add\n      0x20\n      dup1\n      swap2\n      div\n      mul\n      0x20\n      add\n      mload(0x40)\n      swap1\n      dup2\n      add\n      0x40\n      mstore\n      dup1\n      swap3\n      swap2\n      swap1\n      dup2\n      dup2\n      mstore\n      0x20\n      add\n      dup3\n      dup1\n      sload\n      tag_122\n      swap1\n      tag_111\n      jump\t// in\n    tag_122:\n      dup1\n      iszero\n      tag_123\n      jumpi\n      dup1\n      0x1f\n      lt\n      tag_124\n      jumpi\n      0x0100\n      dup1\n      dup4\n      sload\n      div\n      mul\n      dup4\n      mstore\n      swap2\n      0x20\n      add\n      swap2\n      jump(tag_123)\n    tag_124:\n      dup3\n      add\n      swap2\n      swap1\n      0x00\n      mstore\n      keccak256(0x00, 0x20)\n      swap1\n    tag_125:\n      dup2\n      sload\n      dup2\n      mstore\n      swap1\n      0x01\n      add\n      swap1\n      0x20\n      add\n      dup1\n      dup4\n      gt\n      tag_125\n      jumpi\n      dup3\n      swap1\n      sub\n      0x1f\n      and\n      dup3\n      add\n      swap2\n    tag_123:\n      pop\n      pop\n      pop\n      pop\n      pop\n      dup2\n      mstore\n      0x20\n      add\n      0x03\n      dup3\n      add\n      sload\n      dup2\n      mstore\n      0x20\n      add\n      0x04\n      dup3\n      add\n      sload\n      dup2\n      mstore\n      0x20\n      add\n      0x05\n      dup3\n      add\n      sload\n      dup2\n      mstore\n      0x20\n      add\n      0x06\n      dup3\n      add\n      sload\n      dup2\n      mstore\n      0x20\n      add\n      0x07\n      dup3\n      add\n      sload\n      dup2\n      mstore\n      0x20\n      add\n      0x08\n      dup3\n      add\n      0x00\n      swap1\n      sload\n      swap1\n      0x0100\n      exp\n      swap1\n      div\n      0xff\n      and\n      iszero\n      iszero\n      iszero\n      iszero\n      dup2\n      mstore\n      0x20\n      add\n      0x08\n      dup3\n      add\n      0x01\n      swap1\n      sload\n      swap1\n      0x0100\n      exp\n      swap1\n      div\n      0xff\n      and\n      iszero\n      iszero\n      iszero\n      iszero\n      dup2\n      mstore\n      0x20\n      add\n      0x08\n      dup3\n      add\n      0x02\n      swap1\n      sload\n      swap1\n      0x0100\n      exp\n      swap1\n      div\n      0xff\n      and\n      iszero\n      iszero\n      iszero\n      iszero\n      dup2\n      mstore\n      pop\n      pop\n      swap1\n      pop\n        /* \"wwcc-contracts/contracts/wwccPool.sol\":4619:4633  uint256 expect */\n      0x00\n        /* \"wwcc-contracts/contracts/wwccPool.sol\":4636:4702  (pool.wPool+pool.lPool+pool.dPool+pool.sPool + pool.basal).div(10) */\n      tag_126\n        /* \"wwcc-contracts/contracts/wwccPool.sol\":4699:4701  10 */\n      0x0a\n        /* \"wwcc-contracts/contracts/wwccPool.sol\":4683:4687  pool */\n      dup4\n        /* \"wwcc-contracts/contracts/wwccPool.sol\":4683:4693  pool.basal */\n      0xe0\n      add\n      mload\n        /* \"wwcc-contracts/contracts/wwccPool.sol\":4670:4674  pool */\n      dup5\n        /* \"wwcc-contracts/contracts/wwccPool.sol\":4670:4680  pool.sPool */\n      0xc0\n      add\n      mload\n        /* \"wwcc-contracts/contracts/wwccPool.sol\":4659:4663  pool */\n      dup6\n        /* \"wwcc-contracts/contracts/wwccPool.sol\":4659:4669  pool.dPool */\n      0x80\n      add\n      mload\n        /* \"wwcc-contracts/contracts/wwccPool.sol\":4648:4652  pool */\n      dup7\n        /* \"wwcc-contracts/contracts/wwccPool.sol\":4648:4658  pool.lPool */\n      0xa0\n      add\n      mload\n        /* \"wwcc-contracts/contracts/wwccPool.sol\":4637:4641  pool */\n      dup8\n        /* \"wwcc-contracts/contracts/wwccPool.sol\":4637:4647  pool.wPool */\n      0x60\n      add\n      mload\n        /* \"wwcc-contracts/contracts/wwccPool.sol\":4637:4658  pool.wPool+pool.lPool */\n      tag_127\n      swap2\n      swap1\n      tag_22\n      jump\t// in\n    tag_127:\n        /* \"wwcc-contracts/contracts/wwccPool.sol\":4637:4669  pool.wPool+pool.lPool+pool.dPool */\n      tag_128\n      swap2\n      swap1\n      tag_22\n      jump\t// in\n    tag_128:\n        /* \"wwcc-contracts/contracts/wwccPool.sol\":4637:4680  pool.wPool+pool.lPool+pool.dPool+pool.sPool */\n      tag_129\n      swap2\n      swap1\n      tag_22\n      jump\t// in\n    tag_129:\n        /* \"wwcc-contracts/contracts/wwccPool.sol\":4637:4693  pool.wPool+pool.lPool+pool.dPool+pool.sPool + pool.basal */\n      tag_130\n      swap2\n      swap1\n      tag_22\n      jump\t// in\n    tag_130:\n        /* \"wwcc-contracts/contracts/wwccPool.sol\":4636:4698  (pool.wPool+pool.lPool+pool.dPool+pool.sPool + pool.basal).div */\n      tag_20\n      swap1\n        /* \"wwcc-contracts/contracts/wwccPool.sol\":4636:4702  (pool.wPool+pool.lPool+pool.dPool+pool.sPool + pool.basal).div(10) */\n      swap2\n      swap1\n      0xffffffff\n      and\n      jump\t// in\n    tag_126:\n        /* \"wwcc-contracts/contracts/wwccPool.sol\":4619:4702  uint256 expect = (pool.wPool+pool.lPool+pool.dPool+pool.sPool + pool.basal).div(10) */\n      swap1\n      pop\n        /* \"wwcc-contracts/contracts/wwccPool.sol\":4740:4744  true */\n      0x01\n        /* \"wwcc-contracts/contracts/wwccPool.sol\":4724:4728  pool */\n      dup3\n        /* \"wwcc-contracts/contracts/wwccPool.sol\":4724:4737  pool.finished */\n      0x0140\n      add\n        /* \"wwcc-contracts/contracts/wwccPool.sol\":4724:4744  pool.finished = true */\n      swap1\n      iszero\n      iszero\n      swap1\n      dup2\n      iszero\n      iszero\n      dup2\n      mstore\n      pop\n        /* \"wwcc-contracts/contracts/wwccPool.sol\":4720:4972  if (pool.finished = true){... */\n      iszero\n      tag_131\n      jumpi\n        /* \"wwcc-contracts/contracts/wwccPool.sol\":4767:4800  address payable toAddress_address */\n      0x00\n        /* \"wwcc-contracts/contracts/wwccPool.sol\":4811:4820  toAddress */\n      dup6\n        /* \"wwcc-contracts/contracts/wwccPool.sol\":4767:4821  address payable toAddress_address = payable(toAddress) */\n      swap1\n      pop\n        /* \"wwcc-contracts/contracts/wwccPool.sol\":4843:4860  toAddress_address */\n      dup1\n        /* \"wwcc-contracts/contracts/wwccPool.sol\":4843:4869  toAddress_address.transfer */\n      0xffffffffffffffffffffffffffffffffffffffff\n      and\n        /* \"wwcc-contracts/contracts/wwccPool.sol\":4843:4877  toAddress_address.transfer(expect) */\n      0x08fc\n        /* \"wwcc-contracts/contracts/wwccPool.sol\":4870:4876  expect */\n      dup4\n        /* \"wwcc-contracts/contracts/wwccPool.sol\":4843:4877  toAddress_address.transfer(expect) */\n      swap1\n      dup2\n      iszero\n      mul\n      swap1\n      mload(0x40)\n      0x00\n      mload(0x40)\n      dup1\n      dup4\n      sub\n      dup2\n      dup6\n      dup9\n      dup9\n      call\n      swap4\n      pop\n      pop\n      pop\n      pop\n      iszero\n      dup1\n      iszero\n      tag_133\n      jumpi\n      returndatasize\n      0x00\n      dup1\n      returndatacopy\n      revert(0x00, returndatasize)\n    tag_133:\n      pop\n        /* \"wwcc-contracts/contracts/wwccPool.sol\":4745:4896  {... */\n      pop\n        /* \"wwcc-contracts/contracts/wwccPool.sol\":4720:4972  if (pool.finished = true){... */\n      jump(tag_134)\n    tag_131:\n        /* \"wwcc-contracts/contracts/wwccPool.sol\":4922:4953  revert(\"pool has not finished\") */\n      mload(0x40)\n      0x08c379a000000000000000000000000000000000000000000000000000000000\n      dup2\n      mstore\n      0x04\n      add\n      tag_135\n      swap1\n      tag_136\n      jump\t// in\n    tag_135:\n      mload(0x40)\n      dup1\n      swap2\n      sub\n      swap1\n      revert\n        /* \"wwcc-contracts/contracts/wwccPool.sol\":4720:4972  if (pool.finished = true){... */\n    tag_134:\n        /* \"wwcc-contracts/contracts/wwccPool.sol\":4546:5000  {... */\n      pop\n      pop\n        /* \"wwcc-contracts/contracts/wwccPool.sol\":5019:5023  true */\n      0x01\n        /* \"wwcc-contracts/contracts/wwccPool.sol\":5012:5023  return true */\n      swap1\n      pop\n        /* \"wwcc-contracts/contracts/wwccPool.sol\":4351:5030  function Withdrawal(address toAddress,bytes32 poolKey) external onlyManager payable returns (bool){... */\n      swap3\n      swap2\n      pop\n      pop\n      jump\t// out\n        /* \"wwcc-contracts/contracts/wwccPool.sol\":9993:10237  function withdrawBNBInContract(address toAddress)external onlyManager payable returns(bool){... */\n    tag_41:\n        /* \"wwcc-contracts/contracts/wwccPool.sol\":10079:10083  bool */\n      0x00\n        /* \"wwcc-contracts/contracts/wwccPool.sol\":13035:13040  owner */\n      dup1\n      0x00\n      swap1\n      sload\n      swap1\n      0x0100\n      exp\n      swap1\n      div\n      0xffffffffffffffffffffffffffffffffffffffff\n      and\n        /* \"wwcc-contracts/contracts/wwccPool.sol\":13021:13040  msg.sender == owner */\n      0xffffffffffffffffffffffffffffffffffffffff\n      and\n        /* \"wwcc-contracts/contracts/wwccPool.sol\":13021:13031  msg.sender */\n      caller\n        /* \"wwcc-contracts/contracts/wwccPool.sol\":13021:13040  msg.sender == owner */\n      0xffffffffffffffffffffffffffffffffffffffff\n      and\n      eq\n        /* \"wwcc-contracts/contracts/wwccPool.sol\":13000:13091  require(... */\n      tag_138\n      jumpi\n      mload(0x40)\n      0x08c379a000000000000000000000000000000000000000000000000000000000\n      dup2\n      mstore\n      0x04\n      add\n      tag_139\n      swap1\n      tag_98\n      jump\t// in\n    tag_139:\n      mload(0x40)\n      dup1\n      swap2\n      sub\n      swap1\n      revert\n    tag_138:\n        /* \"wwcc-contracts/contracts/wwccPool.sol\":10098:10131  address payable toAddress_address */\n      0x00\n        /* \"wwcc-contracts/contracts/wwccPool.sol\":10142:10151  toAddress */\n      dup3\n        /* \"wwcc-contracts/contracts/wwccPool.sol\":10098:10152  address payable toAddress_address = payable(toAddress) */\n      swap1\n      pop\n        /* \"wwcc-contracts/contracts/wwccPool.sol\":10166:10183  toAddress_address */\n      dup1\n        /* \"wwcc-contracts/contracts/wwccPool.sol\":10166:10192  toAddress_address.transfer */\n      0xffffffffffffffffffffffffffffffffffffffff\n      and\n        /* \"wwcc-contracts/contracts/wwccPool.sol\":10166:10205  toAddress_address.transfer(lastBNB - 1) */\n      0x08fc\n        /* \"wwcc-contracts/contracts/wwccPool.sol\":10203:10204  1 */\n      0x01\n        /* \"wwcc-contracts/contracts/wwccPool.sol\":10193:10200  lastBNB */\n      sload(0x03)\n        /* \"wwcc-contracts/contracts/wwccPool.sol\":10193:10204  lastBNB - 1 */\n      tag_141\n      swap2\n      swap1\n      tag_142\n      jump\t// in\n    tag_141:\n        /* \"wwcc-contracts/contracts/wwccPool.sol\":10166:10205  toAddress_address.transfer(lastBNB - 1) */\n      swap1\n      dup2\n      iszero\n      mul\n      swap1\n      mload(0x40)\n      0x00\n      mload(0x40)\n      dup1\n      dup4\n      sub\n      dup2\n      dup6\n      dup9\n      dup9\n      call\n      swap4\n      pop\n      pop\n      pop\n      pop\n      iszero\n      dup1\n      iszero\n      tag_144\n      jumpi\n      returndatasize\n      0x00\n      dup1\n      returndatacopy\n      revert(0x00, returndatasize)\n    tag_144:\n      pop\n        /* \"wwcc-contracts/contracts/wwccPool.sol\":10226:10230  true */\n      0x01\n        /* \"wwcc-contracts/contracts/wwccPool.sol\":10219:10230  return true */\n      swap2\n      pop\n      pop\n        /* \"wwcc-contracts/contracts/wwccPool.sol\":9993:10237  function withdrawBNBInContract(address toAddress)external onlyManager payable returns(bool){... */\n      swap2\n      swap1\n      pop\n      jump\t// out\n        /* \"wwcc-contracts/contracts/wwccPool.sol\":2039:2959  function Set_Pool(... */\n    tag_47:\n        /* \"wwcc-contracts/contracts/wwccPool.sol\":2186:2193  bytes32 */\n      0x00\n        /* \"wwcc-contracts/contracts/wwccPool.sol\":13035:13040  owner */\n      dup1\n      0x00\n      swap1\n      sload\n      swap1\n      0x0100\n      exp\n      swap1\n      div\n      0xffffffffffffffffffffffffffffffffffffffff\n      and\n        /* \"wwcc-contracts/contracts/wwccPool.sol\":13021:13040  msg.sender == owner */\n      0xffffffffffffffffffffffffffffffffffffffff\n      and\n        /* \"wwcc-contracts/contracts/wwccPool.sol\":13021:13031  msg.sender */\n      caller\n        /* \"wwcc-contracts/contracts/wwccPool.sol\":13021:13040  msg.sender == owner */\n      0xffffffffffffffffffffffffffffffffffffffff\n      and\n      eq\n        /* \"wwcc-contracts/contracts/wwccPool.sol\":13000:13091  require(... */\n      tag_146\n      jumpi\n      mload(0x40)\n      0x08c379a000000000000000000000000000000000000000000000000000000000\n      dup2\n      mstore\n      0x04\n      add\n      tag_147\n      swap1\n      tag_98\n      jump\t// in\n    tag_147:\n      mload(0x40)\n      dup1\n      swap2\n      sub\n      swap1\n      revert\n    tag_146:\n        /* \"wwcc-contracts/contracts/wwccPool.sol\":2204:2220  string memory s1 */\n      0x00\n        /* \"wwcc-contracts/contracts/wwccPool.sol\":2223:2244  strConcat(home,visit) */\n      tag_149\n        /* \"wwcc-contracts/contracts/wwccPool.sol\":2233:2237  home */\n      dup7\n        /* \"wwcc-contracts/contracts/wwccPool.sol\":2238:2243  visit */\n      dup7\n        /* \"wwcc-contracts/contracts/wwccPool.sol\":2223:2232  strConcat */\n      tag_150\n        /* \"wwcc-contracts/contracts/wwccPool.sol\":2223:2244  strConcat(home,visit) */\n      jump\t// in\n    tag_149:\n        /* \"wwcc-contracts/contracts/wwccPool.sol\":2204:2244  string memory s1 = strConcat(home,visit) */\n      swap1\n      pop\n        /* \"wwcc-contracts/contracts/wwccPool.sol\":2253:2269  string memory s2 */\n      0x00\n        /* \"wwcc-contracts/contracts/wwccPool.sol\":2272:2292  strConcat(s1,rounds) */\n      tag_151\n        /* \"wwcc-contracts/contracts/wwccPool.sol\":2282:2284  s1 */\n      dup3\n        /* \"wwcc-contracts/contracts/wwccPool.sol\":2285:2291  rounds */\n      dup7\n        /* \"wwcc-contracts/contracts/wwccPool.sol\":2272:2281  strConcat */\n      tag_150\n        /* \"wwcc-contracts/contracts/wwccPool.sol\":2272:2292  strConcat(s1,rounds) */\n      jump\t// in\n    tag_151:\n        /* \"wwcc-contracts/contracts/wwccPool.sol\":2253:2292  string memory s2 = strConcat(s1,rounds) */\n      swap1\n      pop\n        /* \"wwcc-contracts/contracts/wwccPool.sol\":2301:2316  bytes32 poolKey */\n      0x00\n        /* \"wwcc-contracts/contracts/wwccPool.sol\":2346:2348  s2 */\n      dup2\n        /* \"wwcc-contracts/contracts/wwccPool.sol\":2329:2349  abi.encodePacked(s2) */\n      add(0x20, mload(0x40))\n      tag_152\n      swap2\n      swap1\n      tag_153\n      jump\t// in\n    tag_152:\n      mload(0x40)\n      0x20\n      dup2\n      dup4\n      sub\n      sub\n      dup2\n      mstore\n      swap1\n      0x40\n      mstore\n        /* \"wwcc-contracts/contracts/wwccPool.sol\":2319:2350  keccak256(abi.encodePacked(s2)) */\n      dup1\n      mload\n      swap1\n      0x20\n      add\n      keccak256\n        /* \"wwcc-contracts/contracts/wwccPool.sol\":2301:2350  bytes32 poolKey = keccak256(abi.encodePacked(s2)) */\n      swap1\n      pop\n        /* \"wwcc-contracts/contracts/wwccPool.sol\":2362:2379  contains(poolKey) */\n      tag_154\n        /* \"wwcc-contracts/contracts/wwccPool.sol\":2371:2378  poolKey */\n      dup2\n        /* \"wwcc-contracts/contracts/wwccPool.sol\":2362:2370  contains */\n      tag_105\n        /* \"wwcc-contracts/contracts/wwccPool.sol\":2362:2379  contains(poolKey) */\n      jump\t// in\n    tag_154:\n        /* \"wwcc-contracts/contracts/wwccPool.sol\":2359:2899  if(contains(poolKey)) { ... */\n      iszero\n      tag_155\n      jumpi\n        /* \"wwcc-contracts/contracts/wwccPool.sol\":2396:2416  revert(\"pair exist\") */\n      mload(0x40)\n      0x08c379a000000000000000000000000000000000000000000000000000000000\n      dup2\n      mstore\n      0x04\n      add\n      tag_156\n      swap1\n      tag_157\n      jump\t// in\n    tag_156:\n      mload(0x40)\n      dup1\n      swap2\n      sub\n      swap1\n      revert\n        /* \"wwcc-contracts/contracts/wwccPool.sol\":2359:2899  if(contains(poolKey)) { ... */\n    tag_155:\n        /* \"wwcc-contracts/contracts/wwccPool.sol\":2467:2471  true */\n      0x01\n        /* \"wwcc-contracts/contracts/wwccPool.sol\":2443:2450  WcPools */\n      0x05\n        /* \"wwcc-contracts/contracts/wwccPool.sol\":2443:2459  WcPools[poolKey] */\n      0x00\n        /* \"wwcc-contracts/contracts/wwccPool.sol\":2451:2458  poolKey */\n      dup4\n        /* \"wwcc-contracts/contracts/wwccPool.sol\":2443:2459  WcPools[poolKey] */\n      dup2\n      mstore\n      0x20\n      add\n      swap1\n      dup2\n      mstore\n      0x20\n      add\n      0x00\n      keccak256\n        /* \"wwcc-contracts/contracts/wwccPool.sol\":2443:2464  WcPools[poolKey].used */\n      0x08\n      add\n      0x01\n        /* \"wwcc-contracts/contracts/wwccPool.sol\":2443:2471  WcPools[poolKey].used = true */\n      0x0100\n      exp\n      dup2\n      sload\n      dup2\n      0xff\n      mul\n      not\n      and\n      swap1\n      dup4\n      iszero\n      iszero\n      mul\n      or\n      swap1\n      sstore\n      pop\n        /* \"wwcc-contracts/contracts/wwccPool.sol\":2508:2512  home */\n      dup8\n        /* \"wwcc-contracts/contracts/wwccPool.sol\":2484:2491  WcPools */\n      0x05\n        /* \"wwcc-contracts/contracts/wwccPool.sol\":2484:2500  WcPools[poolKey] */\n      0x00\n        /* \"wwcc-contracts/contracts/wwccPool.sol\":2492:2499  poolKey */\n      dup4\n        /* \"wwcc-contracts/contracts/wwccPool.sol\":2484:2500  WcPools[poolKey] */\n      dup2\n      mstore\n      0x20\n      add\n      swap1\n      dup2\n      mstore\n      0x20\n      add\n      0x00\n      keccak256\n        /* \"wwcc-contracts/contracts/wwccPool.sol\":2484:2505  WcPools[poolKey].home */\n      0x00\n      add\n        /* \"wwcc-contracts/contracts/wwccPool.sol\":2484:2512  WcPools[poolKey].home = home */\n      swap1\n      dup1\n      mload\n      swap1\n      0x20\n      add\n      swap1\n      tag_159\n      swap3\n      swap2\n      swap1\n      tag_160\n      jump\t// in\n    tag_159:\n      pop\n        /* \"wwcc-contracts/contracts/wwccPool.sol\":2550:2555  visit */\n      dup7\n        /* \"wwcc-contracts/contracts/wwccPool.sol\":2525:2532  WcPools */\n      0x05\n        /* \"wwcc-contracts/contracts/wwccPool.sol\":2525:2541  WcPools[poolKey] */\n      0x00\n        /* \"wwcc-contracts/contracts/wwccPool.sol\":2533:2540  poolKey */\n      dup4\n        /* \"wwcc-contracts/contracts/wwccPool.sol\":2525:2541  WcPools[poolKey] */\n      dup2\n      mstore\n      0x20\n      add\n      swap1\n      dup2\n      mstore\n      0x20\n      add\n      0x00\n      keccak256\n        /* \"wwcc-contracts/contracts/wwccPool.sol\":2525:2547  WcPools[poolKey].visit */\n      0x01\n      add\n        /* \"wwcc-contracts/contracts/wwccPool.sol\":2525:2555  WcPools[poolKey].visit = visit */\n      swap1\n      dup1\n      mload\n      swap1\n      0x20\n      add\n      swap1\n      tag_161\n      swap3\n      swap2\n      swap1\n      tag_160\n      jump\t// in\n    tag_161:\n      pop\n        /* \"wwcc-contracts/contracts/wwccPool.sol\":2594:2600  rounds */\n      dup6\n        /* \"wwcc-contracts/contracts/wwccPool.sol\":2568:2575  WcPools */\n      0x05\n        /* \"wwcc-contracts/contracts/wwccPool.sol\":2568:2584  WcPools[poolKey] */\n      0x00\n        /* \"wwcc-contracts/contracts/wwccPool.sol\":2576:2583  poolKey */\n      dup4\n        /* \"wwcc-contracts/contracts/wwccPool.sol\":2568:2584  WcPools[poolKey] */\n      dup2\n      mstore\n      0x20\n      add\n      swap1\n      dup2\n      mstore\n      0x20\n      add\n      0x00\n      keccak256\n        /* \"wwcc-contracts/contracts/wwccPool.sol\":2568:2591  WcPools[poolKey].rounds */\n      0x02\n      add\n        /* \"wwcc-contracts/contracts/wwccPool.sol\":2568:2600  WcPools[poolKey].rounds = rounds */\n      swap1\n      dup1\n      mload\n      swap1\n      0x20\n      add\n      swap1\n      tag_162\n      swap3\n      swap2\n      swap1\n      tag_160\n      jump\t// in\n    tag_162:\n      pop\n        /* \"wwcc-contracts/contracts/wwccPool.sol\":2638:2639  0 */\n      0x00\n        /* \"wwcc-contracts/contracts/wwccPool.sol\":2613:2620  WcPools */\n      0x05\n        /* \"wwcc-contracts/contracts/wwccPool.sol\":2613:2629  WcPools[poolKey] */\n      0x00\n        /* \"wwcc-contracts/contracts/wwccPool.sol\":2621:2628  poolKey */\n      dup4\n        /* \"wwcc-contracts/contracts/wwccPool.sol\":2613:2629  WcPools[poolKey] */\n      dup2\n      mstore\n      0x20\n      add\n      swap1\n      dup2\n      mstore\n      0x20\n      add\n      0x00\n      keccak256\n        /* \"wwcc-contracts/contracts/wwccPool.sol\":2613:2635  WcPools[poolKey].wPool */\n      0x03\n      add\n        /* \"wwcc-contracts/contracts/wwccPool.sol\":2613:2639  WcPools[poolKey].wPool = 0 */\n      dup2\n      swap1\n      sstore\n      pop\n        /* \"wwcc-contracts/contracts/wwccPool.sol\":2677:2678  0 */\n      0x00\n        /* \"wwcc-contracts/contracts/wwccPool.sol\":2652:2659  WcPools */\n      0x05\n        /* \"wwcc-contracts/contracts/wwccPool.sol\":2652:2668  WcPools[poolKey] */\n      0x00\n        /* \"wwcc-contracts/contracts/wwccPool.sol\":2660:2667  poolKey */\n      dup4\n        /* \"wwcc-contracts/contracts/wwccPool.sol\":2652:2668  WcPools[poolKey] */\n      dup2\n      mstore\n      0x20\n      add\n      swap1\n      dup2\n      mstore\n      0x20\n      add\n      0x00\n      keccak256\n        /* \"wwcc-contracts/contracts/wwccPool.sol\":2652:2674  WcPools[poolKey].dPool */\n      0x04\n      add\n        /* \"wwcc-contracts/contracts/wwccPool.sol\":2652:2678  WcPools[poolKey].dPool = 0 */\n      dup2\n      swap1\n      sstore\n      pop\n        /* \"wwcc-contracts/contracts/wwccPool.sol\":2716:2717  0 */\n      0x00\n        /* \"wwcc-contracts/contracts/wwccPool.sol\":2691:2698  WcPools */\n      0x05\n        /* \"wwcc-contracts/contracts/wwccPool.sol\":2691:2707  WcPools[poolKey] */\n      0x00\n        /* \"wwcc-contracts/contracts/wwccPool.sol\":2699:2706  poolKey */\n      dup4\n        /* \"wwcc-contracts/contracts/wwccPool.sol\":2691:2707  WcPools[poolKey] */\n      dup2\n      mstore\n      0x20\n      add\n      swap1\n      dup2\n      mstore\n      0x20\n      add\n      0x00\n      keccak256\n        /* \"wwcc-contracts/contracts/wwccPool.sol\":2691:2713  WcPools[poolKey].lPool */\n      0x05\n      add\n        /* \"wwcc-contracts/contracts/wwccPool.sol\":2691:2717  WcPools[poolKey].lPool = 0 */\n      dup2\n      swap1\n      sstore\n      pop\n        /* \"wwcc-contracts/contracts/wwccPool.sol\":2755:2756  0 */\n      0x00\n        /* \"wwcc-contracts/contracts/wwccPool.sol\":2730:2737  WcPools */\n      0x05\n        /* \"wwcc-contracts/contracts/wwccPool.sol\":2730:2746  WcPools[poolKey] */\n      0x00\n        /* \"wwcc-contracts/contracts/wwccPool.sol\":2738:2745  poolKey */\n      dup4\n        /* \"wwcc-contracts/contracts/wwccPool.sol\":2730:2746  WcPools[poolKey] */\n      dup2\n      mstore\n      0x20\n      add\n      swap1\n      dup2\n      mstore\n      0x20\n      add\n      0x00\n      keccak256\n        /* \"wwcc-contracts/contracts/wwccPool.sol\":2730:2752  WcPools[poolKey].sPool */\n      0x06\n      add\n        /* \"wwcc-contracts/contracts/wwccPool.sol\":2730:2756  WcPools[poolKey].sPool = 0 */\n      dup2\n      swap1\n      sstore\n      pop\n        /* \"wwcc-contracts/contracts/wwccPool.sol\":2794:2795  0 */\n      0x00\n        /* \"wwcc-contracts/contracts/wwccPool.sol\":2769:2776  WcPools */\n      0x05\n        /* \"wwcc-contracts/contracts/wwccPool.sol\":2769:2785  WcPools[poolKey] */\n      0x00\n        /* \"wwcc-contracts/contracts/wwccPool.sol\":2777:2784  poolKey */\n      dup4\n        /* \"wwcc-contracts/contracts/wwccPool.sol\":2769:2785  WcPools[poolKey] */\n      dup2\n      mstore\n      0x20\n      add\n      swap1\n      dup2\n      mstore\n      0x20\n      add\n      0x00\n      keccak256\n        /* \"wwcc-contracts/contracts/wwccPool.sol\":2769:2791  WcPools[poolKey].basal */\n      0x07\n      add\n        /* \"wwcc-contracts/contracts/wwccPool.sol\":2769:2795  WcPools[poolKey].basal = 0 */\n      dup2\n      swap1\n      sstore\n      pop\n        /* \"wwcc-contracts/contracts/wwccPool.sol\":2835:2842  decided */\n      dup5\n        /* \"wwcc-contracts/contracts/wwccPool.sol\":2808:2815  WcPools */\n      0x05\n        /* \"wwcc-contracts/contracts/wwccPool.sol\":2808:2824  WcPools[poolKey] */\n      0x00\n        /* \"wwcc-contracts/contracts/wwccPool.sol\":2816:2823  poolKey */\n      dup4\n        /* \"wwcc-contracts/contracts/wwccPool.sol\":2808:2824  WcPools[poolKey] */\n      dup2\n      mstore\n      0x20\n      add\n      swap1\n      dup2\n      mstore\n      0x20\n      add\n      0x00\n      keccak256\n        /* \"wwcc-contracts/contracts/wwccPool.sol\":2808:2832  WcPools[poolKey].decided */\n      0x08\n      add\n      0x00\n        /* \"wwcc-contracts/contracts/wwccPool.sol\":2808:2842  WcPools[poolKey].decided = decided */\n      0x0100\n      exp\n      dup2\n      sload\n      dup2\n      0xff\n      mul\n      not\n      and\n      swap1\n      dup4\n      iszero\n      iszero\n      mul\n      or\n      swap1\n      sstore\n      pop\n        /* \"wwcc-contracts/contracts/wwccPool.sol\":2883:2888  false */\n      0x00\n        /* \"wwcc-contracts/contracts/wwccPool.sol\":2855:2862  WcPools */\n      0x05\n        /* \"wwcc-contracts/contracts/wwccPool.sol\":2855:2871  WcPools[poolKey] */\n      0x00\n        /* \"wwcc-contracts/contracts/wwccPool.sol\":2863:2870  poolKey */\n      dup4\n        /* \"wwcc-contracts/contracts/wwccPool.sol\":2855:2871  WcPools[poolKey] */\n      dup2\n      mstore\n      0x20\n      add\n      swap1\n      dup2\n      mstore\n      0x20\n      add\n      0x00\n      keccak256\n        /* \"wwcc-contracts/contracts/wwccPool.sol\":2855:2880  WcPools[poolKey].finished */\n      0x08\n      add\n      0x02\n        /* \"wwcc-contracts/contracts/wwccPool.sol\":2855:2888  WcPools[poolKey].finished = false */\n      0x0100\n      exp\n      dup2\n      sload\n      dup2\n      0xff\n      mul\n      not\n      and\n      swap1\n      dup4\n      iszero\n      iszero\n      mul\n      or\n      swap1\n      sstore\n      pop\n        /* \"wwcc-contracts/contracts/wwccPool.sol\":2907:2915  poolKeys */\n      0x02\n        /* \"wwcc-contracts/contracts/wwccPool.sol\":2921:2928  poolKey */\n      dup2\n        /* \"wwcc-contracts/contracts/wwccPool.sol\":2907:2929  poolKeys.push(poolKey) */\n      swap1\n      dup1\n      0x01\n      dup2\n      sload\n      add\n      dup1\n      dup3\n      sstore\n      dup1\n      swap2\n      pop\n      pop\n      0x01\n      swap1\n      sub\n      swap1\n      0x00\n      mstore\n      keccak256(0x00, 0x20)\n      add\n      0x00\n      swap1\n      swap2\n      swap1\n      swap2\n      swap1\n      swap2\n      pop\n      sstore\n        /* \"wwcc-contracts/contracts/wwccPool.sol\":2945:2952  poolKey */\n      dup1\n        /* \"wwcc-contracts/contracts/wwccPool.sol\":2938:2952  return poolKey */\n      swap4\n      pop\n      pop\n      pop\n      pop\n        /* \"wwcc-contracts/contracts/wwccPool.sol\":2039:2959  function Set_Pool(... */\n      swap5\n      swap4\n      pop\n      pop\n      pop\n      pop\n      jump\t// out\n        /* \"wwcc-contracts/contracts/wwccPool.sol\":6207:6313  function CheckBasal() external onlyManager view  returns (uint256){... */\n    tag_52:\n        /* \"wwcc-contracts/contracts/wwccPool.sol\":6265:6272  uint256 */\n      0x00\n        /* \"wwcc-contracts/contracts/wwccPool.sol\":13035:13040  owner */\n      dup1\n      0x00\n      swap1\n      sload\n      swap1\n      0x0100\n      exp\n      swap1\n      div\n      0xffffffffffffffffffffffffffffffffffffffff\n      and\n        /* \"wwcc-contracts/contracts/wwccPool.sol\":13021:13040  msg.sender == owner */\n      0xffffffffffffffffffffffffffffffffffffffff\n      and\n        /* \"wwcc-contracts/contracts/wwccPool.sol\":13021:13031  msg.sender */\n      caller\n        /* \"wwcc-contracts/contracts/wwccPool.sol\":13021:13040  msg.sender == owner */\n      0xffffffffffffffffffffffffffffffffffffffff\n      and\n      eq\n        /* \"wwcc-contracts/contracts/wwccPool.sol\":13000:13091  require(... */\n      tag_165\n      jumpi\n      mload(0x40)\n      0x08c379a000000000000000000000000000000000000000000000000000000000\n      dup2\n      mstore\n      0x04\n      add\n      tag_166\n      swap1\n      tag_98\n      jump\t// in\n    tag_166:\n      mload(0x40)\n      dup1\n      swap2\n      sub\n      swap1\n      revert\n    tag_165:\n        /* \"wwcc-contracts/contracts/wwccPool.sol\":6293:6306  nextBasalLast */\n      sload(0x01)\n        /* \"wwcc-contracts/contracts/wwccPool.sol\":6286:6306  return nextBasalLast */\n      swap1\n      pop\n        /* \"wwcc-contracts/contracts/wwccPool.sol\":6207:6313  function CheckBasal() external onlyManager view  returns (uint256){... */\n      swap1\n      jump\t// out\n        /* \"wwcc-contracts/contracts/wwccPool.sol\":5569:5941  function CheckExpect(bytes32 poolKey) external onlyManager view  returns (uint256){... */\n    tag_58:\n        /* \"wwcc-contracts/contracts/wwccPool.sol\":5643:5650  uint256 */\n      0x00\n        /* \"wwcc-contracts/contracts/wwccPool.sol\":13035:13040  owner */\n      dup1\n      0x00\n      swap1\n      sload\n      swap1\n      0x0100\n      exp\n      swap1\n      div\n      0xffffffffffffffffffffffffffffffffffffffff\n      and\n        /* \"wwcc-contracts/contracts/wwccPool.sol\":13021:13040  msg.sender == owner */\n      0xffffffffffffffffffffffffffffffffffffffff\n      and\n        /* \"wwcc-contracts/contracts/wwccPool.sol\":13021:13031  msg.sender */\n      caller\n        /* \"wwcc-contracts/contracts/wwccPool.sol\":13021:13040  msg.sender == owner */\n      0xffffffffffffffffffffffffffffffffffffffff\n      and\n      eq\n        /* \"wwcc-contracts/contracts/wwccPool.sol\":13000:13091  require(... */\n      tag_169\n      jumpi\n      mload(0x40)\n      0x08c379a000000000000000000000000000000000000000000000000000000000\n      dup2\n      mstore\n      0x04\n      add\n      tag_170\n      swap1\n      tag_98\n      jump\t// in\n    tag_170:\n      mload(0x40)\n      dup1\n      swap2\n      sub\n      swap1\n      revert\n    tag_169:\n        /* \"wwcc-contracts/contracts/wwccPool.sol\":5665:5682  contains(poolKey) */\n      tag_172\n        /* \"wwcc-contracts/contracts/wwccPool.sol\":5674:5681  poolKey */\n      dup3\n        /* \"wwcc-contracts/contracts/wwccPool.sol\":5665:5673  contains */\n      tag_105\n        /* \"wwcc-contracts/contracts/wwccPool.sol\":5665:5682  contains(poolKey) */\n      jump\t// in\n    tag_172:\n        /* \"wwcc-contracts/contracts/wwccPool.sol\":5661:5935  if(!contains(poolKey)) { ... */\n      tag_173\n      jumpi\n        /* \"wwcc-contracts/contracts/wwccPool.sol\":5699:5723  revert(\"pool not exist\") */\n      mload(0x40)\n      0x08c379a000000000000000000000000000000000000000000000000000000000\n      dup2\n      mstore\n      0x04\n      add\n      tag_174\n      swap1\n      tag_108\n      jump\t// in\n    tag_174:\n      mload(0x40)\n      dup1\n      swap2\n      sub\n      swap1\n      revert\n        /* \"wwcc-contracts/contracts/wwccPool.sol\":5661:5935  if(!contains(poolKey)) { ... */\n    tag_173:\n        /* \"wwcc-contracts/contracts/wwccPool.sol\":5751:5769  WcPool memory pool */\n      0x00\n        /* \"wwcc-contracts/contracts/wwccPool.sol\":5772:5779  WcPools */\n      0x05\n        /* \"wwcc-contracts/contracts/wwccPool.sol\":5772:5788  WcPools[poolKey] */\n      0x00\n        /* \"wwcc-contracts/contracts/wwccPool.sol\":5780:5787  poolKey */\n      dup5\n        /* \"wwcc-contracts/contracts/wwccPool.sol\":5772:5788  WcPools[poolKey] */\n      dup2\n      mstore\n      0x20\n      add\n      swap1\n      dup2\n      mstore\n      0x20\n      add\n      0x00\n      keccak256\n        /* \"wwcc-contracts/contracts/wwccPool.sol\":5751:5788  WcPool memory pool = WcPools[poolKey] */\n      mload(0x40)\n      dup1\n      0x0160\n      add\n      0x40\n      mstore\n      swap1\n      dup2\n      0x00\n      dup3\n      add\n      dup1\n      sload\n      tag_176\n      swap1\n      tag_111\n      jump\t// in\n    tag_176:\n      dup1\n      0x1f\n      add\n      0x20\n      dup1\n      swap2\n      div\n      mul\n      0x20\n      add\n      mload(0x40)\n      swap1\n      dup2\n      add\n      0x40\n      mstore\n      dup1\n      swap3\n      swap2\n      swap1\n      dup2\n      dup2\n      mstore\n      0x20\n      add\n      dup3\n      dup1\n      sload\n      tag_177\n      swap1\n      tag_111\n      jump\t// in\n    tag_177:\n      dup1\n      iszero\n      tag_178\n      jumpi\n      dup1\n      0x1f\n      lt\n      tag_179\n      jumpi\n      0x0100\n      dup1\n      dup4\n      sload\n      div\n      mul\n      dup4\n      mstore\n      swap2\n      0x20\n      add\n      swap2\n      jump(tag_178)\n    tag_179:\n      dup3\n      add\n      swap2\n      swap1\n      0x00\n      mstore\n      keccak256(0x00, 0x20)\n      swap1\n    tag_180:\n      dup2\n      sload\n      dup2\n      mstore\n      swap1\n      0x01\n      add\n      swap1\n      0x20\n      add\n      dup1\n      dup4\n      gt\n      tag_180\n      jumpi\n      dup3\n      swap1\n      sub\n      0x1f\n      and\n      dup3\n      add\n      swap2\n    tag_178:\n      pop\n      pop\n      pop\n      pop\n      pop\n      dup2\n      mstore\n      0x20\n      add\n      0x01\n      dup3\n      add\n      dup1\n      sload\n      tag_181\n      swap1\n      tag_111\n      jump\t// in\n    tag_181:\n      dup1\n      0x1f\n      add\n      0x20\n      dup1\n      swap2\n      div\n      mul\n      0x20\n      add\n      mload(0x40)\n      swap1\n      dup2\n      add\n      0x40\n      mstore\n      dup1\n      swap3\n      swap2\n      swap1\n      dup2\n      dup2\n      mstore\n      0x20\n      add\n      dup3\n      dup1\n      sload\n      tag_182\n      swap1\n      tag_111\n      jump\t// in\n    tag_182:\n      dup1\n      iszero\n      tag_183\n      jumpi\n      dup1\n      0x1f\n      lt\n      tag_184\n      jumpi\n      0x0100\n      dup1\n      dup4\n      sload\n      div\n      mul\n      dup4\n      mstore\n      swap2\n      0x20\n      add\n      swap2\n      jump(tag_183)\n    tag_184:\n      dup3\n      add\n      swap2\n      swap1\n      0x00\n      mstore\n      keccak256(0x00, 0x20)\n      swap1\n    tag_185:\n      dup2\n      sload\n      dup2\n      mstore\n      swap1\n      0x01\n      add\n      swap1\n      0x20\n      add\n      dup1\n      dup4\n      gt\n      tag_185\n      jumpi\n      dup3\n      swap1\n      sub\n      0x1f\n      and\n      dup3\n      add\n      swap2\n    tag_183:\n      pop\n      pop\n      pop\n      pop\n      pop\n      dup2\n      mstore\n      0x20\n      add\n      0x02\n      dup3\n      add\n      dup1\n      sload\n      tag_186\n      swap1\n      tag_111\n      jump\t// in\n    tag_186:\n      dup1\n      0x1f\n      add\n      0x20\n      dup1\n      swap2\n      div\n      mul\n      0x20\n      add\n      mload(0x40)\n      swap1\n      dup2\n      add\n      0x40\n      mstore\n      dup1\n      swap3\n      swap2\n      swap1\n      dup2\n      dup2\n      mstore\n      0x20\n      add\n      dup3\n      dup1\n      sload\n      tag_187\n      swap1\n      tag_111\n      jump\t// in\n    tag_187:\n      dup1\n      iszero\n      tag_188\n      jumpi\n      dup1\n      0x1f\n      lt\n      tag_189\n      jumpi\n      0x0100\n      dup1\n      dup4\n      sload\n      div\n      mul\n      dup4\n      mstore\n      swap2\n      0x20\n      add\n      swap2\n      jump(tag_188)\n    tag_189:\n      dup3\n      add\n      swap2\n      swap1\n      0x00\n      mstore\n      keccak256(0x00, 0x20)\n      swap1\n    tag_190:\n      dup2\n      sload\n      dup2\n      mstore\n      swap1\n      0x01\n      add\n      swap1\n      0x20\n      add\n      dup1\n      dup4\n      gt\n      tag_190\n      jumpi\n      dup3\n      swap1\n      sub\n      0x1f\n      and\n      dup3\n      add\n      swap2\n    tag_188:\n      pop\n      pop\n      pop\n      pop\n      pop\n      dup2\n      mstore\n      0x20\n      add\n      0x03\n      dup3\n      add\n      sload\n      dup2\n      mstore\n      0x20\n      add\n      0x04\n      dup3\n      add\n      sload\n      dup2\n      mstore\n      0x20\n      add\n      0x05\n      dup3\n      add\n      sload\n      dup2\n      mstore\n      0x20\n      add\n      0x06\n      dup3\n      add\n      sload\n      dup2\n      mstore\n      0x20\n      add\n      0x07\n      dup3\n      add\n      sload\n      dup2\n      mstore\n      0x20\n      add\n      0x08\n      dup3\n      add\n      0x00\n      swap1\n      sload\n      swap1\n      0x0100\n      exp\n      swap1\n      div\n      0xff\n      and\n      iszero\n      iszero\n      iszero\n      iszero\n      dup2\n      mstore\n      0x20\n      add\n      0x08\n      dup3\n      add\n      0x01\n      swap1\n      sload\n      swap1\n      0x0100\n      exp\n      swap1\n      div\n      0xff\n      and\n      iszero\n      iszero\n      iszero\n      iszero\n      dup2\n      mstore\n      0x20\n      add\n      0x08\n      dup3\n      add\n      0x02\n      swap1\n      sload\n      swap1\n      0x0100\n      exp\n      swap1\n      div\n      0xff\n      and\n      iszero\n      iszero\n      iszero\n      iszero\n      dup2\n      mstore\n      pop\n      pop\n      swap1\n      pop\n        /* \"wwcc-contracts/contracts/wwccPool.sol\":5801:5815  uint256 expect */\n      0x00\n        /* \"wwcc-contracts/contracts/wwccPool.sol\":5818:5898  (pool.wPool+pool.lPool+pool.dPool+pool.sPool + pool.basal).mul(1000000000000000) */\n      tag_191\n        /* \"wwcc-contracts/contracts/wwccPool.sol\":5881:5897  1000000000000000 */\n      0x038d7ea4c68000\n        /* \"wwcc-contracts/contracts/wwccPool.sol\":5865:5869  pool */\n      dup4\n        /* \"wwcc-contracts/contracts/wwccPool.sol\":5865:5875  pool.basal */\n      0xe0\n      add\n      mload\n        /* \"wwcc-contracts/contracts/wwccPool.sol\":5852:5856  pool */\n      dup5\n        /* \"wwcc-contracts/contracts/wwccPool.sol\":5852:5862  pool.sPool */\n      0xc0\n      add\n      mload\n        /* \"wwcc-contracts/contracts/wwccPool.sol\":5841:5845  pool */\n      dup6\n        /* \"wwcc-contracts/contracts/wwccPool.sol\":5841:5851  pool.dPool */\n      0x80\n      add\n      mload\n        /* \"wwcc-contracts/contracts/wwccPool.sol\":5830:5834  pool */\n      dup7\n        /* \"wwcc-contracts/contracts/wwccPool.sol\":5830:5840  pool.lPool */\n      0xa0\n      add\n      mload\n        /* \"wwcc-contracts/contracts/wwccPool.sol\":5819:5823  pool */\n      dup8\n        /* \"wwcc-contracts/contracts/wwccPool.sol\":5819:5829  pool.wPool */\n      0x60\n      add\n      mload\n        /* \"wwcc-contracts/contracts/wwccPool.sol\":5819:5840  pool.wPool+pool.lPool */\n      tag_192\n      swap2\n      swap1\n      tag_22\n      jump\t// in\n    tag_192:\n        /* \"wwcc-contracts/contracts/wwccPool.sol\":5819:5851  pool.wPool+pool.lPool+pool.dPool */\n      tag_193\n      swap2\n      swap1\n      tag_22\n      jump\t// in\n    tag_193:\n        /* \"wwcc-contracts/contracts/wwccPool.sol\":5819:5862  pool.wPool+pool.lPool+pool.dPool+pool.sPool */\n      tag_194\n      swap2\n      swap1\n      tag_22\n      jump\t// in\n    tag_194:\n        /* \"wwcc-contracts/contracts/wwccPool.sol\":5819:5875  pool.wPool+pool.lPool+pool.dPool+pool.sPool + pool.basal */\n      tag_195\n      swap2\n      swap1\n      tag_22\n      jump\t// in\n    tag_195:\n        /* \"wwcc-contracts/contracts/wwccPool.sol\":5818:5880  (pool.wPool+pool.lPool+pool.dPool+pool.sPool + pool.basal).mul */\n      tag_196\n      swap1\n        /* \"wwcc-contracts/contracts/wwccPool.sol\":5818:5898  (pool.wPool+pool.lPool+pool.dPool+pool.sPool + pool.basal).mul(1000000000000000) */\n      swap2\n      swap1\n      0xffffffff\n      and\n      jump\t// in\n    tag_191:\n        /* \"wwcc-contracts/contracts/wwccPool.sol\":5801:5898  uint256 expect = (pool.wPool+pool.lPool+pool.dPool+pool.sPool + pool.basal).mul(1000000000000000) */\n      swap1\n      pop\n        /* \"wwcc-contracts/contracts/wwccPool.sol\":5918:5924  expect */\n      dup1\n        /* \"wwcc-contracts/contracts/wwccPool.sol\":5911:5924  return expect */\n      swap3\n      pop\n      pop\n      pop\n        /* \"wwcc-contracts/contracts/wwccPool.sol\":5569:5941  function CheckExpect(bytes32 poolKey) external onlyManager view  returns (uint256){... */\n      swap2\n      swap1\n      pop\n      jump\t// out\n        /* \"wwcc-contracts/contracts/wwccPool.sol\":2982:4308  function Picking(address joiner,uint256 weight,bytes32 poolKey,uint256 homeScore,uint256 visitScore,uint256 kind) external returns(bool){... */\n    tag_64:\n        /* \"wwcc-contracts/contracts/wwccPool.sol\":3113:3117  bool */\n      0x00\n        /* \"wwcc-contracts/contracts/wwccPool.sol\":3132:3149  contains(poolKey) */\n      tag_198\n        /* \"wwcc-contracts/contracts/wwccPool.sol\":3141:3148  poolKey */\n      dup6\n        /* \"wwcc-contracts/contracts/wwccPool.sol\":3132:3140  contains */\n      tag_105\n        /* \"wwcc-contracts/contracts/wwccPool.sol\":3132:3149  contains(poolKey) */\n      jump\t// in\n    tag_198:\n        /* \"wwcc-contracts/contracts/wwccPool.sol\":3128:4282  if(!contains(poolKey)) { ... */\n      tag_199\n      jumpi\n        /* \"wwcc-contracts/contracts/wwccPool.sol\":3166:3190  revert(\"pool not exist\") */\n      mload(0x40)\n      0x08c379a000000000000000000000000000000000000000000000000000000000\n      dup2\n      mstore\n      0x04\n      add\n      tag_200\n      swap1\n      tag_108\n      jump\t// in\n    tag_200:\n      mload(0x40)\n      dup1\n      swap2\n      sub\n      swap1\n      revert\n        /* \"wwcc-contracts/contracts/wwccPool.sol\":3128:4282  if(!contains(poolKey)) { ... */\n    tag_199:\n        /* \"wwcc-contracts/contracts/wwccPool.sol\":3239:3245  weight */\n      dup6\n        /* \"wwcc-contracts/contracts/wwccPool.sol\":3220:3230  voteAmount */\n      0x04\n        /* \"wwcc-contracts/contracts/wwccPool.sol\":3220:3238  voteAmount[joiner] */\n      0x00\n        /* \"wwcc-contracts/contracts/wwccPool.sol\":3231:3237  joiner */\n      dup10\n        /* \"wwcc-contracts/contracts/wwccPool.sol\":3220:3238  voteAmount[joiner] */\n      0xffffffffffffffffffffffffffffffffffffffff\n      and\n      0xffffffffffffffffffffffffffffffffffffffff\n      and\n      dup2\n      mstore\n      0x20\n      add\n      swap1\n      dup2\n      mstore\n      0x20\n      add\n      0x00\n      keccak256\n      sload\n        /* \"wwcc-contracts/contracts/wwccPool.sol\":3220:3245  voteAmount[joiner]<weight */\n      lt\n        /* \"wwcc-contracts/contracts/wwccPool.sol\":3217:3308  if(voteAmount[joiner]<weight){... */\n      iszero\n      tag_202\n      jumpi\n        /* \"wwcc-contracts/contracts/wwccPool.sol\":3263:3294  revert(\"not enough voteAmount\") */\n      mload(0x40)\n      0x08c379a000000000000000000000000000000000000000000000000000000000\n      dup2\n      mstore\n      0x04\n      add\n      tag_203\n      swap1\n      tag_204\n      jump\t// in\n    tag_203:\n      mload(0x40)\n      dup1\n      swap2\n      sub\n      swap1\n      revert\n        /* \"wwcc-contracts/contracts/wwccPool.sol\":3217:3308  if(voteAmount[joiner]<weight){... */\n    tag_202:\n        /* \"wwcc-contracts/contracts/wwccPool.sol\":3320:3338  WcPool memory pool */\n      0x00\n        /* \"wwcc-contracts/contracts/wwccPool.sol\":3341:3348  WcPools */\n      0x05\n        /* \"wwcc-contracts/contracts/wwccPool.sol\":3341:3357  WcPools[poolKey] */\n      0x00\n        /* \"wwcc-contracts/contracts/wwccPool.sol\":3349:3356  poolKey */\n      dup8\n        /* \"wwcc-contracts/contracts/wwccPool.sol\":3341:3357  WcPools[poolKey] */\n      dup2\n      mstore\n      0x20\n      add\n      swap1\n      dup2\n      mstore\n      0x20\n      add\n      0x00\n      keccak256\n        /* \"wwcc-contracts/contracts/wwccPool.sol\":3320:3357  WcPool memory pool = WcPools[poolKey] */\n      mload(0x40)\n      dup1\n      0x0160\n      add\n      0x40\n      mstore\n      swap1\n      dup2\n      0x00\n      dup3\n      add\n      dup1\n      sload\n      tag_205\n      swap1\n      tag_111\n      jump\t// in\n    tag_205:\n      dup1\n      0x1f\n      add\n      0x20\n      dup1\n      swap2\n      div\n      mul\n      0x20\n      add\n      mload(0x40)\n      swap1\n      dup2\n      add\n      0x40\n      mstore\n      dup1\n      swap3\n      swap2\n      swap1\n      dup2\n      dup2\n      mstore\n      0x20\n      add\n      dup3\n      dup1\n      sload\n      tag_206\n      swap1\n      tag_111\n      jump\t// in\n    tag_206:\n      dup1\n      iszero\n      tag_207\n      jumpi\n      dup1\n      0x1f\n      lt\n      tag_208\n      jumpi\n      0x0100\n      dup1\n      dup4\n      sload\n      div\n      mul\n      dup4\n      mstore\n      swap2\n      0x20\n      add\n      swap2\n      jump(tag_207)\n    tag_208:\n      dup3\n      add\n      swap2\n      swap1\n      0x00\n      mstore\n      keccak256(0x00, 0x20)\n      swap1\n    tag_209:\n      dup2\n      sload\n      dup2\n      mstore\n      swap1\n      0x01\n      add\n      swap1\n      0x20\n      add\n      dup1\n      dup4\n      gt\n      tag_209\n      jumpi\n      dup3\n      swap1\n      sub\n      0x1f\n      and\n      dup3\n      add\n      swap2\n    tag_207:\n      pop\n      pop\n      pop\n      pop\n      pop\n      dup2\n      mstore\n      0x20\n      add\n      0x01\n      dup3\n      add\n      dup1\n      sload\n      tag_210\n      swap1\n      tag_111\n      jump\t// in\n    tag_210:\n      dup1\n      0x1f\n      add\n      0x20\n      dup1\n      swap2\n      div\n      mul\n      0x20\n      add\n      mload(0x40)\n      swap1\n      dup2\n      add\n      0x40\n      mstore\n      dup1\n      swap3\n      swap2\n      swap1\n      dup2\n      dup2\n      mstore\n      0x20\n      add\n      dup3\n      dup1\n      sload\n      tag_211\n      swap1\n      tag_111\n      jump\t// in\n    tag_211:\n      dup1\n      iszero\n      tag_212\n      jumpi\n      dup1\n      0x1f\n      lt\n      tag_213\n      jumpi\n      0x0100\n      dup1\n      dup4\n      sload\n      div\n      mul\n      dup4\n      mstore\n      swap2\n      0x20\n      add\n      swap2\n      jump(tag_212)\n    tag_213:\n      dup3\n      add\n      swap2\n      swap1\n      0x00\n      mstore\n      keccak256(0x00, 0x20)\n      swap1\n    tag_214:\n      dup2\n      sload\n      dup2\n      mstore\n      swap1\n      0x01\n      add\n      swap1\n      0x20\n      add\n      dup1\n      dup4\n      gt\n      tag_214\n      jumpi\n      dup3\n      swap1\n      sub\n      0x1f\n      and\n      dup3\n      add\n      swap2\n    tag_212:\n      pop\n      pop\n      pop\n      pop\n      pop\n      dup2\n      mstore\n      0x20\n      add\n      0x02\n      dup3\n      add\n      dup1\n      sload\n      tag_215\n      swap1\n      tag_111\n      jump\t// in\n    tag_215:\n      dup1\n      0x1f\n      add\n      0x20\n      dup1\n      swap2\n      div\n      mul\n      0x20\n      add\n      mload(0x40)\n      swap1\n      dup2\n      add\n      0x40\n      mstore\n      dup1\n      swap3\n      swap2\n      swap1\n      dup2\n      dup2\n      mstore\n      0x20\n      add\n      dup3\n      dup1\n      sload\n      tag_216\n      swap1\n      tag_111\n      jump\t// in\n    tag_216:\n      dup1\n      iszero\n      tag_217\n      jumpi\n      dup1\n      0x1f\n      lt\n      tag_218\n      jumpi\n      0x0100\n      dup1\n      dup4\n      sload\n      div\n      mul\n      dup4\n      mstore\n      swap2\n      0x20\n      add\n      swap2\n      jump(tag_217)\n    tag_218:\n      dup3\n      add\n      swap2\n      swap1\n      0x00\n      mstore\n      keccak256(0x00, 0x20)\n      swap1\n    tag_219:\n      dup2\n      sload\n      dup2\n      mstore\n      swap1\n      0x01\n      add\n      swap1\n      0x20\n      add\n      dup1\n      dup4\n      gt\n      tag_219\n      jumpi\n      dup3\n      swap1\n      sub\n      0x1f\n      and\n      dup3\n      add\n      swap2\n    tag_217:\n      pop\n      pop\n      pop\n      pop\n      pop\n      dup2\n      mstore\n      0x20\n      add\n      0x03\n      dup3\n      add\n      sload\n      dup2\n      mstore\n      0x20\n      add\n      0x04\n      dup3\n      add\n      sload\n      dup2\n      mstore\n      0x20\n      add\n      0x05\n      dup3\n      add\n      sload\n      dup2\n      mstore\n      0x20\n      add\n      0x06\n      dup3\n      add\n      sload\n      dup2\n      mstore\n      0x20\n      add\n      0x07\n      dup3\n      add\n      sload\n      dup2\n      mstore\n      0x20\n      add\n      0x08\n      dup3\n      add\n      0x00\n      swap1\n      sload\n      swap1\n      0x0100\n      exp\n      swap1\n      div\n      0xff\n      and\n      iszero\n      iszero\n      iszero\n      iszero\n      dup2\n      mstore\n      0x20\n      add\n      0x08\n      dup3\n      add\n      0x01\n      swap1\n      sload\n      swap1\n      0x0100\n      exp\n      swap1\n      div\n      0xff\n      and\n      iszero\n      iszero\n      iszero\n      iszero\n      dup2\n      mstore\n      0x20\n      add\n      0x08\n      dup3\n      add\n      0x02\n      swap1\n      sload\n      swap1\n      0x0100\n      exp\n      swap1\n      div\n      0xff\n      and\n      iszero\n      iszero\n      iszero\n      iszero\n      dup2\n      mstore\n      pop\n      pop\n      swap1\n      pop\n        /* \"wwcc-contracts/contracts/wwccPool.sol\":3370:3387  string  memory si */\n      0x00\n        /* \"wwcc-contracts/contracts/wwccPool.sol\":3390:3455  strConcat(uint256ToString(homeScore),uint256ToString(visitScore)) */\n      tag_220\n        /* \"wwcc-contracts/contracts/wwccPool.sol\":3400:3426  uint256ToString(homeScore) */\n      tag_221\n        /* \"wwcc-contracts/contracts/wwccPool.sol\":3416:3425  homeScore */\n      dup8\n        /* \"wwcc-contracts/contracts/wwccPool.sol\":3400:3415  uint256ToString */\n      tag_222\n        /* \"wwcc-contracts/contracts/wwccPool.sol\":3400:3426  uint256ToString(homeScore) */\n      jump\t// in\n    tag_221:\n        /* \"wwcc-contracts/contracts/wwccPool.sol\":3427:3454  uint256ToString(visitScore) */\n      tag_223\n        /* \"wwcc-contracts/contracts/wwccPool.sol\":3443:3453  visitScore */\n      dup8\n        /* \"wwcc-contracts/contracts/wwccPool.sol\":3427:3442  uint256ToString */\n      tag_222\n        /* \"wwcc-contracts/contracts/wwccPool.sol\":3427:3454  uint256ToString(visitScore) */\n      jump\t// in\n    tag_223:\n        /* \"wwcc-contracts/contracts/wwccPool.sol\":3390:3399  strConcat */\n      tag_150\n        /* \"wwcc-contracts/contracts/wwccPool.sol\":3390:3455  strConcat(uint256ToString(homeScore),uint256ToString(visitScore)) */\n      jump\t// in\n    tag_220:\n        /* \"wwcc-contracts/contracts/wwccPool.sol\":3370:3455  string  memory si = strConcat(uint256ToString(homeScore),uint256ToString(visitScore)) */\n      swap1\n      pop\n        /* \"wwcc-contracts/contracts/wwccPool.sol\":3468:3493  string  memory pickingKey */\n      0x00\n        /* \"wwcc-contracts/contracts/wwccPool.sol\":3496:3534  strConcat(bytes32ToString(poolKey),si) */\n      tag_224\n        /* \"wwcc-contracts/contracts/wwccPool.sol\":3506:3530  bytes32ToString(poolKey) */\n      tag_225\n        /* \"wwcc-contracts/contracts/wwccPool.sol\":3522:3529  poolKey */\n      dup10\n        /* \"wwcc-contracts/contracts/wwccPool.sol\":3506:3521  bytes32ToString */\n      tag_226\n        /* \"wwcc-contracts/contracts/wwccPool.sol\":3506:3530  bytes32ToString(poolKey) */\n      jump\t// in\n    tag_225:\n        /* \"wwcc-contracts/contracts/wwccPool.sol\":3531:3533  si */\n      dup4\n        /* \"wwcc-contracts/contracts/wwccPool.sol\":3496:3505  strConcat */\n      tag_150\n        /* \"wwcc-contracts/contracts/wwccPool.sol\":3496:3534  strConcat(bytes32ToString(poolKey),si) */\n      jump\t// in\n    tag_224:\n        /* \"wwcc-contracts/contracts/wwccPool.sol\":3468:3534  string  memory pickingKey = strConcat(bytes32ToString(poolKey),si) */\n      swap1\n      pop\n        /* \"wwcc-contracts/contracts/wwccPool.sol\":3547:3570  JoinerPicking memory jp */\n      0x00\n        /* \"wwcc-contracts/contracts/wwccPool.sol\":3573:3644  JoinerPicking(weight,kind,homeScore,visitScore,joiner,pickingKey,false) */\n      mload(0x40)\n      dup1\n      0xe0\n      add\n      0x40\n      mstore\n      dup1\n        /* \"wwcc-contracts/contracts/wwccPool.sol\":3587:3593  weight */\n      dup12\n        /* \"wwcc-contracts/contracts/wwccPool.sol\":3573:3644  JoinerPicking(weight,kind,homeScore,visitScore,joiner,pickingKey,false) */\n      dup2\n      mstore\n      0x20\n      add\n        /* \"wwcc-contracts/contracts/wwccPool.sol\":3594:3598  kind */\n      dup8\n        /* \"wwcc-contracts/contracts/wwccPool.sol\":3573:3644  JoinerPicking(weight,kind,homeScore,visitScore,joiner,pickingKey,false) */\n      dup2\n      mstore\n      0x20\n      add\n        /* \"wwcc-contracts/contracts/wwccPool.sol\":3599:3608  homeScore */\n      dup10\n        /* \"wwcc-contracts/contracts/wwccPool.sol\":3573:3644  JoinerPicking(weight,kind,homeScore,visitScore,joiner,pickingKey,false) */\n      dup2\n      mstore\n      0x20\n      add\n        /* \"wwcc-contracts/contracts/wwccPool.sol\":3609:3619  visitScore */\n      dup9\n        /* \"wwcc-contracts/contracts/wwccPool.sol\":3573:3644  JoinerPicking(weight,kind,homeScore,visitScore,joiner,pickingKey,false) */\n      dup2\n      mstore\n      0x20\n      add\n        /* \"wwcc-contracts/contracts/wwccPool.sol\":3620:3626  joiner */\n      dup13\n        /* \"wwcc-contracts/contracts/wwccPool.sol\":3573:3644  JoinerPicking(weight,kind,homeScore,visitScore,joiner,pickingKey,false) */\n      0xffffffffffffffffffffffffffffffffffffffff\n      and\n      dup2\n      mstore\n      0x20\n      add\n        /* \"wwcc-contracts/contracts/wwccPool.sol\":3627:3637  pickingKey */\n      dup4\n        /* \"wwcc-contracts/contracts/wwccPool.sol\":3573:3644  JoinerPicking(weight,kind,homeScore,visitScore,joiner,pickingKey,false) */\n      dup2\n      mstore\n      0x20\n      add\n        /* \"wwcc-contracts/contracts/wwccPool.sol\":3638:3643  false */\n      0x00\n        /* \"wwcc-contracts/contracts/wwccPool.sol\":3573:3644  JoinerPicking(weight,kind,homeScore,visitScore,joiner,pickingKey,false) */\n      iszero\n      iszero\n      dup2\n      mstore\n      pop\n        /* \"wwcc-contracts/contracts/wwccPool.sol\":3547:3644  JoinerPicking memory jp = JoinerPicking(weight,kind,homeScore,visitScore,joiner,pickingKey,false) */\n      swap1\n      pop\n        /* \"wwcc-contracts/contracts/wwccPool.sol\":3693:3700  poolKey */\n      dup9\n        /* \"wwcc-contracts/contracts/wwccPool.sol\":3657:3673  allScorePoolInfo */\n      0x06\n        /* \"wwcc-contracts/contracts/wwccPool.sol\":3657:3682  allScorePoolInfo[poolKey] */\n      0x00\n        /* \"wwcc-contracts/contracts/wwccPool.sol\":3674:3681  poolKey */\n      dup12\n        /* \"wwcc-contracts/contracts/wwccPool.sol\":3657:3682  allScorePoolInfo[poolKey] */\n      dup2\n      mstore\n      0x20\n      add\n      swap1\n      dup2\n      mstore\n      0x20\n      add\n      0x00\n      keccak256\n        /* \"wwcc-contracts/contracts/wwccPool.sol\":3657:3690  allScorePoolInfo[poolKey].poolKey */\n      0x01\n      add\n        /* \"wwcc-contracts/contracts/wwccPool.sol\":3657:3700  allScorePoolInfo[poolKey].poolKey = poolKey */\n      dup2\n      swap1\n      sstore\n      pop\n        /* \"wwcc-contracts/contracts/wwccPool.sol\":3713:3729  allScorePoolInfo */\n      0x06\n        /* \"wwcc-contracts/contracts/wwccPool.sol\":3713:3738  allScorePoolInfo[poolKey] */\n      0x00\n        /* \"wwcc-contracts/contracts/wwccPool.sol\":3730:3737  poolKey */\n      dup11\n        /* \"wwcc-contracts/contracts/wwccPool.sol\":3713:3738  allScorePoolInfo[poolKey] */\n      dup2\n      mstore\n      0x20\n      add\n      swap1\n      dup2\n      mstore\n      0x20\n      add\n      0x00\n      keccak256\n        /* \"wwcc-contracts/contracts/wwccPool.sol\":3713:3750  allScorePoolInfo[poolKey].separateBet */\n      0x00\n      add\n        /* \"wwcc-contracts/contracts/wwccPool.sol\":3756:3758  jp */\n      dup2\n        /* \"wwcc-contracts/contracts/wwccPool.sol\":3713:3759  allScorePoolInfo[poolKey].separateBet.push(jp) */\n      swap1\n      dup1\n      0x01\n      dup2\n      sload\n      add\n      dup1\n      dup3\n      sstore\n      dup1\n      swap2\n      pop\n      pop\n      0x01\n      swap1\n      sub\n      swap1\n      0x00\n      mstore\n      keccak256(0x00, 0x20)\n      swap1\n      0x07\n      mul\n      add\n      0x00\n      swap1\n      swap2\n      swap1\n      swap2\n      swap1\n      swap2\n      pop\n      0x00\n      dup3\n      add\n      mload\n      dup2\n      0x00\n      add\n      sstore\n      0x20\n      dup3\n      add\n      mload\n      dup2\n      0x01\n      add\n      sstore\n      0x40\n      dup3\n      add\n      mload\n      dup2\n      0x02\n      add\n      sstore\n      0x60\n      dup3\n      add\n      mload\n      dup2\n      0x03\n      add\n      sstore\n      0x80\n      dup3\n      add\n      mload\n      dup2\n      0x04\n      add\n      exp(0x0100, 0x00)\n      dup2\n      sload\n      dup2\n      0xffffffffffffffffffffffffffffffffffffffff\n      mul\n      not\n      and\n      swap1\n      dup4\n      0xffffffffffffffffffffffffffffffffffffffff\n      and\n      mul\n      or\n      swap1\n      sstore\n      pop\n      0xa0\n      dup3\n      add\n      mload\n      dup2\n      0x05\n      add\n      swap1\n      dup1\n      mload\n      swap1\n      0x20\n      add\n      swap1\n      tag_228\n      swap3\n      swap2\n      swap1\n      tag_160\n      jump\t// in\n    tag_228:\n      pop\n      0xc0\n      dup3\n      add\n      mload\n      dup2\n      0x06\n      add\n      exp(0x0100, 0x00)\n      dup2\n      sload\n      dup2\n      0xff\n      mul\n      not\n      and\n      swap1\n      dup4\n      iszero\n      iszero\n      mul\n      or\n      swap1\n      sstore\n      pop\n      pop\n      pop\n        /* \"wwcc-contracts/contracts/wwccPool.sol\":3807:3813  joiner */\n      dup11\n        /* \"wwcc-contracts/contracts/wwccPool.sol\":3773:3789  joinerAllPicking */\n      0x08\n        /* \"wwcc-contracts/contracts/wwccPool.sol\":3773:3797  joinerAllPicking[joiner] */\n      0x00\n        /* \"wwcc-contracts/contracts/wwccPool.sol\":3790:3796  joiner */\n      dup14\n        /* \"wwcc-contracts/contracts/wwccPool.sol\":3773:3797  joinerAllPicking[joiner] */\n      0xffffffffffffffffffffffffffffffffffffffff\n      and\n      0xffffffffffffffffffffffffffffffffffffffff\n      and\n      dup2\n      mstore\n      0x20\n      add\n      swap1\n      dup2\n      mstore\n      0x20\n      add\n      0x00\n      keccak256\n        /* \"wwcc-contracts/contracts/wwccPool.sol\":3773:3804  joinerAllPicking[joiner].joiner */\n      0x01\n      add\n      0x00\n        /* \"wwcc-contracts/contracts/wwccPool.sol\":3773:3813  joinerAllPicking[joiner].joiner = joiner */\n      0x0100\n      exp\n      dup2\n      sload\n      dup2\n      0xffffffffffffffffffffffffffffffffffffffff\n      mul\n      not\n      and\n      swap1\n      dup4\n      0xffffffffffffffffffffffffffffffffffffffff\n      and\n      mul\n      or\n      swap1\n      sstore\n      pop\n        /* \"wwcc-contracts/contracts/wwccPool.sol\":3826:3842  allScorePoolInfo */\n      0x06\n        /* \"wwcc-contracts/contracts/wwccPool.sol\":3826:3851  allScorePoolInfo[poolKey] */\n      0x00\n        /* \"wwcc-contracts/contracts/wwccPool.sol\":3843:3850  poolKey */\n      dup11\n        /* \"wwcc-contracts/contracts/wwccPool.sol\":3826:3851  allScorePoolInfo[poolKey] */\n      dup2\n      mstore\n      0x20\n      add\n      swap1\n      dup2\n      mstore\n      0x20\n      add\n      0x00\n      keccak256\n        /* \"wwcc-contracts/contracts/wwccPool.sol\":3826:3863  allScorePoolInfo[poolKey].separateBet */\n      0x00\n      add\n        /* \"wwcc-contracts/contracts/wwccPool.sol\":3869:3871  jp */\n      dup2\n        /* \"wwcc-contracts/contracts/wwccPool.sol\":3826:3872  allScorePoolInfo[poolKey].separateBet.push(jp) */\n      swap1\n      dup1\n      0x01\n      dup2\n      sload\n      add\n      dup1\n      dup3\n      sstore\n      dup1\n      swap2\n      pop\n      pop\n      0x01\n      swap1\n      sub\n      swap1\n      0x00\n      mstore\n      keccak256(0x00, 0x20)\n      swap1\n      0x07\n      mul\n      add\n      0x00\n      swap1\n      swap2\n      swap1\n      swap2\n      swap1\n      swap2\n      pop\n      0x00\n      dup3\n      add\n      mload\n      dup2\n      0x00\n      add\n      sstore\n      0x20\n      dup3\n      add\n      mload\n      dup2\n      0x01\n      add\n      sstore\n      0x40\n      dup3\n      add\n      mload\n      dup2\n      0x02\n      add\n      sstore\n      0x60\n      dup3\n      add\n      mload\n      dup2\n      0x03\n      add\n      sstore\n      0x80\n      dup3\n      add\n      mload\n      dup2\n      0x04\n      add\n      exp(0x0100, 0x00)\n      dup2\n      sload\n      dup2\n      0xffffffffffffffffffffffffffffffffffffffff\n      mul\n      not\n      and\n      swap1\n      dup4\n      0xffffffffffffffffffffffffffffffffffffffff\n      and\n      mul\n      or\n      swap1\n      sstore\n      pop\n      0xa0\n      dup3\n      add\n      mload\n      dup2\n      0x05\n      add\n      swap1\n      dup1\n      mload\n      swap1\n      0x20\n      add\n      swap1\n      tag_230\n      swap3\n      swap2\n      swap1\n      tag_160\n      jump\t// in\n    tag_230:\n      pop\n      0xc0\n      dup3\n      add\n      mload\n      dup2\n      0x06\n      add\n      exp(0x0100, 0x00)\n      dup2\n      sload\n      dup2\n      0xff\n      mul\n      not\n      and\n      swap1\n      dup4\n      iszero\n      iszero\n      mul\n      or\n      swap1\n      sstore\n      pop\n      pop\n      pop\n        /* \"wwcc-contracts/contracts/wwccPool.sol\":3899:3900  2 */\n      0x02\n        /* \"wwcc-contracts/contracts/wwccPool.sol\":3891:3895  kind */\n      dup7\n        /* \"wwcc-contracts/contracts/wwccPool.sol\":3891:3900  kind == 2 */\n      eq\n        /* \"wwcc-contracts/contracts/wwccPool.sol\":3887:4219  if (kind == 2){... */\n      iszero\n      tag_231\n      jumpi\n        /* \"wwcc-contracts/contracts/wwccPool.sol\":3931:3937  weight */\n      dup10\n        /* \"wwcc-contracts/contracts/wwccPool.sol\":3917:3921  pool */\n      dup5\n        /* \"wwcc-contracts/contracts/wwccPool.sol\":3917:3927  pool.sPool */\n      0xc0\n      add\n        /* \"wwcc-contracts/contracts/wwccPool.sol\":3917:3937  pool.sPool += weight */\n      dup2\n      dup2\n      mload\n      tag_232\n      swap2\n      swap1\n      tag_22\n      jump\t// in\n    tag_232:\n      swap2\n      pop\n      dup2\n      dup2\n      mstore\n      pop\n      pop\n        /* \"wwcc-contracts/contracts/wwccPool.sol\":3984:3990  weight */\n      dup10\n        /* \"wwcc-contracts/contracts/wwccPool.sol\":3953:3968  singleScorePool */\n      0x07\n        /* \"wwcc-contracts/contracts/wwccPool.sol\":3969:3979  pickingKey */\n      dup4\n        /* \"wwcc-contracts/contracts/wwccPool.sol\":3953:3980  singleScorePool[pickingKey] */\n      mload(0x40)\n      tag_233\n      swap2\n      swap1\n      tag_153\n      jump\t// in\n    tag_233:\n      swap1\n      dup2\n      mstore\n      0x20\n      add\n      mload(0x40)\n      dup1\n      swap2\n      sub\n      swap1\n      keccak256\n      0x00\n        /* \"wwcc-contracts/contracts/wwccPool.sol\":3953:3990  singleScorePool[pickingKey] += weight */\n      dup3\n      dup3\n      sload\n      tag_234\n      swap2\n      swap1\n      tag_22\n      jump\t// in\n    tag_234:\n      swap3\n      pop\n      pop\n      dup2\n      swap1\n      sstore\n      pop\n        /* \"wwcc-contracts/contracts/wwccPool.sol\":3887:4219  if (kind == 2){... */\n      jump(tag_235)\n    tag_231:\n        /* \"wwcc-contracts/contracts/wwccPool.sol\":4034:4035  3 */\n      0x03\n        /* \"wwcc-contracts/contracts/wwccPool.sol\":4026:4030  kind */\n      dup7\n        /* \"wwcc-contracts/contracts/wwccPool.sol\":4026:4035  kind == 3 */\n      eq\n        /* \"wwcc-contracts/contracts/wwccPool.sol\":4023:4219  if(kind == 3){... */\n      iszero\n      tag_236\n      jumpi\n        /* \"wwcc-contracts/contracts/wwccPool.sol\":4068:4074  weight */\n      dup10\n        /* \"wwcc-contracts/contracts/wwccPool.sol\":4054:4058  pool */\n      dup5\n        /* \"wwcc-contracts/contracts/wwccPool.sol\":4054:4064  pool.wPool */\n      0x60\n      add\n        /* \"wwcc-contracts/contracts/wwccPool.sol\":4054:4074  pool.wPool += weight */\n      dup2\n      dup2\n      mload\n      tag_237\n      swap2\n      swap1\n      tag_22\n      jump\t// in\n    tag_237:\n      swap2\n      pop\n      dup2\n      dup2\n      mstore\n      pop\n      pop\n        /* \"wwcc-contracts/contracts/wwccPool.sol\":4023:4219  if(kind == 3){... */\n      jump(tag_238)\n    tag_236:\n        /* \"wwcc-contracts/contracts/wwccPool.sol\":4106:4107  1 */\n      0x01\n        /* \"wwcc-contracts/contracts/wwccPool.sol\":4098:4102  kind */\n      dup7\n        /* \"wwcc-contracts/contracts/wwccPool.sol\":4098:4107  kind == 1 */\n      eq\n        /* \"wwcc-contracts/contracts/wwccPool.sol\":4094:4219  if (kind == 1){... */\n      iszero\n      tag_239\n      jumpi\n        /* \"wwcc-contracts/contracts/wwccPool.sol\":4140:4146  weight */\n      dup10\n        /* \"wwcc-contracts/contracts/wwccPool.sol\":4126:4130  pool */\n      dup5\n        /* \"wwcc-contracts/contracts/wwccPool.sol\":4126:4136  pool.dPool */\n      0x80\n      add\n        /* \"wwcc-contracts/contracts/wwccPool.sol\":4126:4146  pool.dPool += weight */\n      dup2\n      dup2\n      mload\n      tag_240\n      swap2\n      swap1\n      tag_22\n      jump\t// in\n    tag_240:\n      swap2\n      pop\n      dup2\n      dup2\n      mstore\n      pop\n      pop\n        /* \"wwcc-contracts/contracts/wwccPool.sol\":4094:4219  if (kind == 1){... */\n      jump(tag_241)\n    tag_239:\n        /* \"wwcc-contracts/contracts/wwccPool.sol\":4198:4204  weight */\n      dup10\n        /* \"wwcc-contracts/contracts/wwccPool.sol\":4184:4188  pool */\n      dup5\n        /* \"wwcc-contracts/contracts/wwccPool.sol\":4184:4194  pool.lPool */\n      0xa0\n      add\n        /* \"wwcc-contracts/contracts/wwccPool.sol\":4184:4204  pool.lPool += weight */\n      dup2\n      dup2\n      mload\n      tag_242\n      swap2\n      swap1\n      tag_22\n      jump\t// in\n    tag_242:\n      swap2\n      pop\n      dup2\n      dup2\n      mstore\n      pop\n      pop\n        /* \"wwcc-contracts/contracts/wwccPool.sol\":4094:4219  if (kind == 1){... */\n    tag_241:\n        /* \"wwcc-contracts/contracts/wwccPool.sol\":4023:4219  if(kind == 3){... */\n    tag_238:\n        /* \"wwcc-contracts/contracts/wwccPool.sol\":3887:4219  if (kind == 2){... */\n    tag_235:\n        /* \"wwcc-contracts/contracts/wwccPool.sol\":4254:4260  weight */\n      dup10\n        /* \"wwcc-contracts/contracts/wwccPool.sol\":4232:4242  voteAmount */\n      0x04\n        /* \"wwcc-contracts/contracts/wwccPool.sol\":4232:4250  voteAmount[joiner] */\n      0x00\n        /* \"wwcc-contracts/contracts/wwccPool.sol\":4243:4249  joiner */\n      dup14\n        /* \"wwcc-contracts/contracts/wwccPool.sol\":4232:4250  voteAmount[joiner] */\n      0xffffffffffffffffffffffffffffffffffffffff\n      and\n      0xffffffffffffffffffffffffffffffffffffffff\n      and\n      dup2\n      mstore\n      0x20\n      add\n      swap1\n      dup2\n      mstore\n      0x20\n      add\n      0x00\n      keccak256\n      0x00\n        /* \"wwcc-contracts/contracts/wwccPool.sol\":4232:4260  voteAmount[joiner] -= weight */\n      dup3\n      dup3\n      sload\n      tag_243\n      swap2\n      swap1\n      tag_142\n      jump\t// in\n    tag_243:\n      swap3\n      pop\n      pop\n      dup2\n      swap1\n      sstore\n      pop\n        /* \"wwcc-contracts/contracts/wwccPool.sol\":3204:4282  {... */\n      pop\n      pop\n      pop\n      pop\n        /* \"wwcc-contracts/contracts/wwccPool.sol\":4297:4301  true */\n      0x01\n        /* \"wwcc-contracts/contracts/wwccPool.sol\":4290:4301  return true */\n      swap1\n      pop\n        /* \"wwcc-contracts/contracts/wwccPool.sol\":2982:4308  function Picking(address joiner,uint256 weight,bytes32 poolKey,uint256 homeScore,uint256 visitScore,uint256 kind) external returns(bool){... */\n      swap7\n      swap6\n      pop\n      pop\n      pop\n      pop\n      pop\n      pop\n      jump\t// out\n        /* \"wwcc-contracts/contracts/wwccPool.sol\":6531:9988  function Award(bytes32 poolKey,uint256 homeScore,uint256 visitScore,uint256 result)  external onlyManager  payable returns(bool){... */\n    tag_69:\n        /* \"wwcc-contracts/contracts/wwccPool.sol\":6654:6658  bool */\n      0x00\n        /* \"wwcc-contracts/contracts/wwccPool.sol\":13035:13040  owner */\n      dup1\n      0x00\n      swap1\n      sload\n      swap1\n      0x0100\n      exp\n      swap1\n      div\n      0xffffffffffffffffffffffffffffffffffffffff\n      and\n        /* \"wwcc-contracts/contracts/wwccPool.sol\":13021:13040  msg.sender == owner */\n      0xffffffffffffffffffffffffffffffffffffffff\n      and\n        /* \"wwcc-contracts/contracts/wwccPool.sol\":13021:13031  msg.sender */\n      caller\n        /* \"wwcc-contracts/contracts/wwccPool.sol\":13021:13040  msg.sender == owner */\n      0xffffffffffffffffffffffffffffffffffffffff\n      and\n      eq\n        /* \"wwcc-contracts/contracts/wwccPool.sol\":13000:13091  require(... */\n      tag_245\n      jumpi\n      mload(0x40)\n      0x08c379a000000000000000000000000000000000000000000000000000000000\n      dup2\n      mstore\n      0x04\n      add\n      tag_246\n      swap1\n      tag_98\n      jump\t// in\n    tag_246:\n      mload(0x40)\n      dup1\n      swap2\n      sub\n      swap1\n      revert\n    tag_245:\n        /* \"wwcc-contracts/contracts/wwccPool.sol\":6673:6690  contains(poolKey) */\n      tag_248\n        /* \"wwcc-contracts/contracts/wwccPool.sol\":6682:6689  poolKey */\n      dup6\n        /* \"wwcc-contracts/contracts/wwccPool.sol\":6673:6681  contains */\n      tag_105\n        /* \"wwcc-contracts/contracts/wwccPool.sol\":6673:6690  contains(poolKey) */\n      jump\t// in\n    tag_248:\n        /* \"wwcc-contracts/contracts/wwccPool.sol\":6669:9962  if(!contains(poolKey)) { ... */\n      tag_249\n      jumpi\n        /* \"wwcc-contracts/contracts/wwccPool.sol\":6707:6731  revert(\"pool not exist\") */\n      mload(0x40)\n      0x08c379a000000000000000000000000000000000000000000000000000000000\n      dup2\n      mstore\n      0x04\n      add\n      tag_250\n      swap1\n      tag_108\n      jump\t// in\n    tag_250:\n      mload(0x40)\n      dup1\n      swap2\n      sub\n      swap1\n      revert\n        /* \"wwcc-contracts/contracts/wwccPool.sol\":6669:9962  if(!contains(poolKey)) { ... */\n    tag_249:\n        /* \"wwcc-contracts/contracts/wwccPool.sol\":6758:6776  WcPool memory pool */\n      0x00\n        /* \"wwcc-contracts/contracts/wwccPool.sol\":6779:6786  WcPools */\n      0x05\n        /* \"wwcc-contracts/contracts/wwccPool.sol\":6779:6795  WcPools[poolKey] */\n      0x00\n        /* \"wwcc-contracts/contracts/wwccPool.sol\":6787:6794  poolKey */\n      dup8\n        /* \"wwcc-contracts/contracts/wwccPool.sol\":6779:6795  WcPools[poolKey] */\n      dup2\n      mstore\n      0x20\n      add\n      swap1\n      dup2\n      mstore\n      0x20\n      add\n      0x00\n      keccak256\n        /* \"wwcc-contracts/contracts/wwccPool.sol\":6758:6795  WcPool memory pool = WcPools[poolKey] */\n      mload(0x40)\n      dup1\n      0x0160\n      add\n      0x40\n      mstore\n      swap1\n      dup2\n      0x00\n      dup3\n      add\n      dup1\n      sload\n      tag_252\n      swap1\n      tag_111\n      jump\t// in\n    tag_252:\n      dup1\n      0x1f\n      add\n      0x20\n      dup1\n      swap2\n      div\n      mul\n      0x20\n      add\n      mload(0x40)\n      swap1\n      dup2\n      add\n      0x40\n      mstore\n      dup1\n      swap3\n      swap2\n      swap1\n      dup2\n      dup2\n      mstore\n      0x20\n      add\n      dup3\n      dup1\n      sload\n      tag_253\n      swap1\n      tag_111\n      jump\t// in\n    tag_253:\n      dup1\n      iszero\n      tag_254\n      jumpi\n      dup1\n      0x1f\n      lt\n      tag_255\n      jumpi\n      0x0100\n      dup1\n      dup4\n      sload\n      div\n      mul\n      dup4\n      mstore\n      swap2\n      0x20\n      add\n      swap2\n      jump(tag_254)\n    tag_255:\n      dup3\n      add\n      swap2\n      swap1\n      0x00\n      mstore\n      keccak256(0x00, 0x20)\n      swap1\n    tag_256:\n      dup2\n      sload\n      dup2\n      mstore\n      swap1\n      0x01\n      add\n      swap1\n      0x20\n      add\n      dup1\n      dup4\n      gt\n      tag_256\n      jumpi\n      dup3\n      swap1\n      sub\n      0x1f\n      and\n      dup3\n      add\n      swap2\n    tag_254:\n      pop\n      pop\n      pop\n      pop\n      pop\n      dup2\n      mstore\n      0x20\n      add\n      0x01\n      dup3\n      add\n      dup1\n      sload\n      tag_257\n      swap1\n      tag_111\n      jump\t// in\n    tag_257:\n      dup1\n      0x1f\n      add\n      0x20\n      dup1\n      swap2\n      div\n      mul\n      0x20\n      add\n      mload(0x40)\n      swap1\n      dup2\n      add\n      0x40\n      mstore\n      dup1\n      swap3\n      swap2\n      swap1\n      dup2\n      dup2\n      mstore\n      0x20\n      add\n      dup3\n      dup1\n      sload\n      tag_258\n      swap1\n      tag_111\n      jump\t// in\n    tag_258:\n      dup1\n      iszero\n      tag_259\n      jumpi\n      dup1\n      0x1f\n      lt\n      tag_260\n      jumpi\n      0x0100\n      dup1\n      dup4\n      sload\n      div\n      mul\n      dup4\n      mstore\n      swap2\n      0x20\n      add\n      swap2\n      jump(tag_259)\n    tag_260:\n      dup3\n      add\n      swap2\n      swap1\n      0x00\n      mstore\n      keccak256(0x00, 0x20)\n      swap1\n    tag_261:\n      dup2\n      sload\n      dup2\n      mstore\n      swap1\n      0x01\n      add\n      swap1\n      0x20\n      add\n      dup1\n      dup4\n      gt\n      tag_261\n      jumpi\n      dup3\n      swap1\n      sub\n      0x1f\n      and\n      dup3\n      add\n      swap2\n    tag_259:\n      pop\n      pop\n      pop\n      pop\n      pop\n      dup2\n      mstore\n      0x20\n      add\n      0x02\n      dup3\n      add\n      dup1\n      sload\n      tag_262\n      swap1\n      tag_111\n      jump\t// in\n    tag_262:\n      dup1\n      0x1f\n      add\n      0x20\n      dup1\n      swap2\n      div\n      mul\n      0x20\n      add\n      mload(0x40)\n      swap1\n      dup2\n      add\n      0x40\n      mstore\n      dup1\n      swap3\n      swap2\n      swap1\n      dup2\n      dup2\n      mstore\n      0x20\n      add\n      dup3\n      dup1\n      sload\n      tag_263\n      swap1\n      tag_111\n      jump\t// in\n    tag_263:\n      dup1\n      iszero\n      tag_264\n      jumpi\n      dup1\n      0x1f\n      lt\n      tag_265\n      jumpi\n      0x0100\n      dup1\n      dup4\n      sload\n      div\n      mul\n      dup4\n      mstore\n      swap2\n      0x20\n      add\n      swap2\n      jump(tag_264)\n    tag_265:\n      dup3\n      add\n      swap2\n      swap1\n      0x00\n      mstore\n      keccak256(0x00, 0x20)\n      swap1\n    tag_266:\n      dup2\n      sload\n      dup2\n      mstore\n      swap1\n      0x01\n      add\n      swap1\n      0x20\n      add\n      dup1\n      dup4\n      gt\n      tag_266\n      jumpi\n      dup3\n      swap1\n      sub\n      0x1f\n      and\n      dup3\n      add\n      swap2\n    tag_264:\n      pop\n      pop\n      pop\n      pop\n      pop\n      dup2\n      mstore\n      0x20\n      add\n      0x03\n      dup3\n      add\n      sload\n      dup2\n      mstore\n      0x20\n      add\n      0x04\n      dup3\n      add\n      sload\n      dup2\n      mstore\n      0x20\n      add\n      0x05\n      dup3\n      add\n      sload\n      dup2\n      mstore\n      0x20\n      add\n      0x06\n      dup3\n      add\n      sload\n      dup2\n      mstore\n      0x20\n      add\n      0x07\n      dup3\n      add\n      sload\n      dup2\n      mstore\n      0x20\n      add\n      0x08\n      dup3\n      add\n      0x00\n      swap1\n      sload\n      swap1\n      0x0100\n      exp\n      swap1\n      div\n      0xff\n      and\n      iszero\n      iszero\n      iszero\n      iszero\n      dup2\n      mstore\n      0x20\n      add\n      0x08\n      dup3\n      add\n      0x01\n      swap1\n      sload\n      swap1\n      0x0100\n      exp\n      swap1\n      div\n      0xff\n      and\n      iszero\n      iszero\n      iszero\n      iszero\n      dup2\n      mstore\n      0x20\n      add\n      0x08\n      dup3\n      add\n      0x02\n      swap1\n      sload\n      swap1\n      0x0100\n      exp\n      swap1\n      div\n      0xff\n      and\n      iszero\n      iszero\n      iszero\n      iszero\n      dup2\n      mstore\n      pop\n      pop\n      swap1\n      pop\n        /* \"wwcc-contracts/contracts/wwccPool.sol\":6826:6830  true */\n      0x01\n        /* \"wwcc-contracts/contracts/wwccPool.sol\":6812:6816  pool */\n      dup2\n        /* \"wwcc-contracts/contracts/wwccPool.sol\":6812:6825  pool.finished */\n      0x0140\n      add\n        /* \"wwcc-contracts/contracts/wwccPool.sol\":6812:6830  pool.finished=true */\n      swap1\n      iszero\n      iszero\n      swap1\n      dup2\n      iszero\n      iszero\n      dup2\n      mstore\n      pop\n        /* \"wwcc-contracts/contracts/wwccPool.sol\":6808:6889  if (pool.finished=true){... */\n      iszero\n      tag_267\n      jumpi\n        /* \"wwcc-contracts/contracts/wwccPool.sol\":6848:6875  revert(\"pool has finished\") */\n      mload(0x40)\n      0x08c379a000000000000000000000000000000000000000000000000000000000\n      dup2\n      mstore\n      0x04\n      add\n      tag_268\n      swap1\n      tag_269\n      jump\t// in\n    tag_268:\n      mload(0x40)\n      dup1\n      swap2\n      sub\n      swap1\n      revert\n        /* \"wwcc-contracts/contracts/wwccPool.sol\":6808:6889  if (pool.finished=true){... */\n    tag_267:\n        /* \"wwcc-contracts/contracts/wwccPool.sol\":6901:6936  JoinerPicking[] memory separateBets */\n      0x00\n        /* \"wwcc-contracts/contracts/wwccPool.sol\":6939:6955  allScorePoolInfo */\n      0x06\n        /* \"wwcc-contracts/contracts/wwccPool.sol\":6939:6964  allScorePoolInfo[poolKey] */\n      0x00\n        /* \"wwcc-contracts/contracts/wwccPool.sol\":6956:6963  poolKey */\n      dup9\n        /* \"wwcc-contracts/contracts/wwccPool.sol\":6939:6964  allScorePoolInfo[poolKey] */\n      dup2\n      mstore\n      0x20\n      add\n      swap1\n      dup2\n      mstore\n      0x20\n      add\n      0x00\n      keccak256\n        /* \"wwcc-contracts/contracts/wwccPool.sol\":6939:6976  allScorePoolInfo[poolKey].separateBet */\n      0x00\n      add\n        /* \"wwcc-contracts/contracts/wwccPool.sol\":6901:6976  JoinerPicking[] memory separateBets = allScorePoolInfo[poolKey].separateBet */\n      dup1\n      sload\n      dup1\n      0x20\n      mul\n      0x20\n      add\n      mload(0x40)\n      swap1\n      dup2\n      add\n      0x40\n      mstore\n      dup1\n      swap3\n      swap2\n      swap1\n      dup2\n      dup2\n      mstore\n      0x20\n      add\n      0x00\n      swap1\n    tag_270:\n      dup3\n      dup3\n      lt\n      iszero\n      tag_271\n      jumpi\n      dup4\n      dup3\n      swap1\n      0x00\n      mstore\n      keccak256(0x00, 0x20)\n      swap1\n      0x07\n      mul\n      add\n      mload(0x40)\n      dup1\n      0xe0\n      add\n      0x40\n      mstore\n      swap1\n      dup2\n      0x00\n      dup3\n      add\n      sload\n      dup2\n      mstore\n      0x20\n      add\n      0x01\n      dup3\n      add\n      sload\n      dup2\n      mstore\n      0x20\n      add\n      0x02\n      dup3\n      add\n      sload\n      dup2\n      mstore\n      0x20\n      add\n      0x03\n      dup3\n      add\n      sload\n      dup2\n      mstore\n      0x20\n      add\n      0x04\n      dup3\n      add\n      0x00\n      swap1\n      sload\n      swap1\n      0x0100\n      exp\n      swap1\n      div\n      0xffffffffffffffffffffffffffffffffffffffff\n      and\n      0xffffffffffffffffffffffffffffffffffffffff\n      and\n      0xffffffffffffffffffffffffffffffffffffffff\n      and\n      dup2\n      mstore\n      0x20\n      add\n      0x05\n      dup3\n      add\n      dup1\n      sload\n      tag_273\n      swap1\n      tag_111\n      jump\t// in\n    tag_273:\n      dup1\n      0x1f\n      add\n      0x20\n      dup1\n      swap2\n      div\n      mul\n      0x20\n      add\n      mload(0x40)\n      swap1\n      dup2\n      add\n      0x40\n      mstore\n      dup1\n      swap3\n      swap2\n      swap1\n      dup2\n      dup2\n      mstore\n      0x20\n      add\n      dup3\n      dup1\n      sload\n      tag_274\n      swap1\n      tag_111\n      jump\t// in\n    tag_274:\n      dup1\n      iszero\n      tag_275\n      jumpi\n      dup1\n      0x1f\n      lt\n      tag_276\n      jumpi\n      0x0100\n      dup1\n      dup4\n      sload\n      div\n      mul\n      dup4\n      mstore\n      swap2\n      0x20\n      add\n      swap2\n      jump(tag_275)\n    tag_276:\n      dup3\n      add\n      swap2\n      swap1\n      0x00\n      mstore\n      keccak256(0x00, 0x20)\n      swap1\n    tag_277:\n      dup2\n      sload\n      dup2\n      mstore\n      swap1\n      0x01\n      add\n      swap1\n      0x20\n      add\n      dup1\n      dup4\n      gt\n      tag_277\n      jumpi\n      dup3\n      swap1\n      sub\n      0x1f\n      and\n      dup3\n      add\n      swap2\n    tag_275:\n      pop\n      pop\n      pop\n      pop\n      pop\n      dup2\n      mstore\n      0x20\n      add\n      0x06\n      dup3\n      add\n      0x00\n      swap1\n      sload\n      swap1\n      0x0100\n      exp\n      swap1\n      div\n      0xff\n      and\n      iszero\n      iszero\n      iszero\n      iszero\n      dup2\n      mstore\n      pop\n      pop\n      dup2\n      mstore\n      0x20\n      add\n      swap1\n      0x01\n      add\n      swap1\n      jump(tag_270)\n    tag_271:\n      pop\n      pop\n      pop\n      pop\n      swap1\n      pop\n        /* \"wwcc-contracts/contracts/wwccPool.sol\":6989:7012  uint256 allRewardAmount */\n      0x00\n        /* \"wwcc-contracts/contracts/wwccPool.sol\":7046:7121  (pool.sPool + pool.wPool+pool.lPool+pool.dPool + pool.basal.div(2)).div(20) */\n      tag_278\n        /* \"wwcc-contracts/contracts/wwccPool.sol\":7118:7120  20 */\n      0x14\n        /* \"wwcc-contracts/contracts/wwccPool.sol\":7095:7112  pool.basal.div(2) */\n      tag_279\n        /* \"wwcc-contracts/contracts/wwccPool.sol\":7110:7111  2 */\n      0x02\n        /* \"wwcc-contracts/contracts/wwccPool.sol\":7095:7099  pool */\n      dup7\n        /* \"wwcc-contracts/contracts/wwccPool.sol\":7095:7105  pool.basal */\n      0xe0\n      add\n      mload\n        /* \"wwcc-contracts/contracts/wwccPool.sol\":7095:7109  pool.basal.div */\n      tag_20\n      swap1\n        /* \"wwcc-contracts/contracts/wwccPool.sol\":7095:7112  pool.basal.div(2) */\n      swap2\n      swap1\n      0xffffffff\n      and\n      jump\t// in\n    tag_279:\n        /* \"wwcc-contracts/contracts/wwccPool.sol\":7082:7086  pool */\n      dup6\n        /* \"wwcc-contracts/contracts/wwccPool.sol\":7082:7092  pool.dPool */\n      0x80\n      add\n      mload\n        /* \"wwcc-contracts/contracts/wwccPool.sol\":7071:7075  pool */\n      dup7\n        /* \"wwcc-contracts/contracts/wwccPool.sol\":7071:7081  pool.lPool */\n      0xa0\n      add\n      mload\n        /* \"wwcc-contracts/contracts/wwccPool.sol\":7060:7064  pool */\n      dup8\n        /* \"wwcc-contracts/contracts/wwccPool.sol\":7060:7070  pool.wPool */\n      0x60\n      add\n      mload\n        /* \"wwcc-contracts/contracts/wwccPool.sol\":7047:7051  pool */\n      dup9\n        /* \"wwcc-contracts/contracts/wwccPool.sol\":7047:7057  pool.sPool */\n      0xc0\n      add\n      mload\n        /* \"wwcc-contracts/contracts/wwccPool.sol\":7047:7070  pool.sPool + pool.wPool */\n      tag_280\n      swap2\n      swap1\n      tag_22\n      jump\t// in\n    tag_280:\n        /* \"wwcc-contracts/contracts/wwccPool.sol\":7047:7081  pool.sPool + pool.wPool+pool.lPool */\n      tag_281\n      swap2\n      swap1\n      tag_22\n      jump\t// in\n    tag_281:\n        /* \"wwcc-contracts/contracts/wwccPool.sol\":7047:7092  pool.sPool + pool.wPool+pool.lPool+pool.dPool */\n      tag_282\n      swap2\n      swap1\n      tag_22\n      jump\t// in\n    tag_282:\n        /* \"wwcc-contracts/contracts/wwccPool.sol\":7047:7112  pool.sPool + pool.wPool+pool.lPool+pool.dPool + pool.basal.div(2) */\n      tag_283\n      swap2\n      swap1\n      tag_22\n      jump\t// in\n    tag_283:\n        /* \"wwcc-contracts/contracts/wwccPool.sol\":7046:7117  (pool.sPool + pool.wPool+pool.lPool+pool.dPool + pool.basal.div(2)).div */\n      tag_20\n      swap1\n        /* \"wwcc-contracts/contracts/wwccPool.sol\":7046:7121  (pool.sPool + pool.wPool+pool.lPool+pool.dPool + pool.basal.div(2)).div(20) */\n      swap2\n      swap1\n      0xffffffff\n      and\n      jump\t// in\n    tag_278:\n        /* \"wwcc-contracts/contracts/wwccPool.sol\":7029:7042  nextBasalLast */\n      0x01\n      0x00\n        /* \"wwcc-contracts/contracts/wwccPool.sol\":7029:7121  nextBasalLast += (pool.sPool + pool.wPool+pool.lPool+pool.dPool + pool.basal.div(2)).div(20) */\n      dup3\n      dup3\n      sload\n      tag_284\n      swap2\n      swap1\n      tag_22\n      jump\t// in\n    tag_284:\n      swap3\n      pop\n      pop\n      dup2\n      swap1\n      sstore\n      pop\n        /* \"wwcc-contracts/contracts/wwccPool.sol\":7295:7301  uint j */\n      0x00\n        /* \"wwcc-contracts/contracts/wwccPool.sol\":7273:9790  for (... */\n    tag_285:\n        /* \"wwcc-contracts/contracts/wwccPool.sol\":7348:7349  1 */\n      0x01\n        /* \"wwcc-contracts/contracts/wwccPool.sol\":7328:7340  separateBets */\n      dup4\n        /* \"wwcc-contracts/contracts/wwccPool.sol\":7328:7347  separateBets.length */\n      mload\n        /* \"wwcc-contracts/contracts/wwccPool.sol\":7328:7349  separateBets.length-1 */\n      tag_288\n      swap2\n      swap1\n      tag_142\n      jump\t// in\n    tag_288:\n        /* \"wwcc-contracts/contracts/wwccPool.sol\":7323:7324  j */\n      dup2\n        /* \"wwcc-contracts/contracts/wwccPool.sol\":7323:7349  j <= separateBets.length-1 */\n      gt\n        /* \"wwcc-contracts/contracts/wwccPool.sol\":7273:9790  for (... */\n      tag_286\n      jumpi\n        /* \"wwcc-contracts/contracts/wwccPool.sol\":7439:7444  false */\n      0x00\n        /* \"wwcc-contracts/contracts/wwccPool.sol\":7412:7424  separateBets */\n      dup4\n        /* \"wwcc-contracts/contracts/wwccPool.sol\":7425:7426  j */\n      dup3\n        /* \"wwcc-contracts/contracts/wwccPool.sol\":7412:7427  separateBets[j] */\n      dup2\n      mload\n      dup2\n      lt\n      tag_289\n      jumpi\n      tag_290\n      tag_291\n      jump\t// in\n    tag_290:\n    tag_289:\n      0x20\n      mul\n      0x20\n      add\n      add\n      mload\n        /* \"wwcc-contracts/contracts/wwccPool.sol\":7412:7436  separateBets[j].finished */\n      0xc0\n      add\n        /* \"wwcc-contracts/contracts/wwccPool.sol\":7412:7444  separateBets[j].finished = false */\n      swap1\n      iszero\n      iszero\n      swap1\n      dup2\n      iszero\n      iszero\n      dup2\n      mstore\n      pop\n        /* \"wwcc-contracts/contracts/wwccPool.sol\":7409:9770  if(separateBets[j].finished = false){... */\n      iszero\n      tag_292\n      jumpi\n        /* \"wwcc-contracts/contracts/wwccPool.sol\":7494:7495  2 */\n      0x02\n        /* \"wwcc-contracts/contracts/wwccPool.sol\":7472:7484  separateBets */\n      dup4\n        /* \"wwcc-contracts/contracts/wwccPool.sol\":7485:7486  j */\n      dup3\n        /* \"wwcc-contracts/contracts/wwccPool.sol\":7472:7487  separateBets[j] */\n      dup2\n      mload\n      dup2\n      lt\n      tag_293\n      jumpi\n      tag_294\n      tag_291\n      jump\t// in\n    tag_294:\n    tag_293:\n      0x20\n      mul\n      0x20\n      add\n      add\n      mload\n        /* \"wwcc-contracts/contracts/wwccPool.sol\":7472:7492  separateBets[j].kind */\n      0x20\n      add\n      mload\n        /* \"wwcc-contracts/contracts/wwccPool.sol\":7472:7495  separateBets[j].kind==2 */\n      eq\n        /* \"wwcc-contracts/contracts/wwccPool.sol\":7469:9750  if(separateBets[j].kind==2){... */\n      iszero\n      tag_295\n      jumpi\n        /* \"wwcc-contracts/contracts/wwccPool.sol\":7542:7591  (pool.sPool + pool.basal.div(2)).mul(85).div(100) */\n      tag_296\n        /* \"wwcc-contracts/contracts/wwccPool.sol\":7587:7590  100 */\n      0x64\n        /* \"wwcc-contracts/contracts/wwccPool.sol\":7542:7582  (pool.sPool + pool.basal.div(2)).mul(85) */\n      tag_297\n        /* \"wwcc-contracts/contracts/wwccPool.sol\":7579:7581  85 */\n      0x55\n        /* \"wwcc-contracts/contracts/wwccPool.sol\":7556:7573  pool.basal.div(2) */\n      tag_298\n        /* \"wwcc-contracts/contracts/wwccPool.sol\":7571:7572  2 */\n      0x02\n        /* \"wwcc-contracts/contracts/wwccPool.sol\":7556:7560  pool */\n      dup10\n        /* \"wwcc-contracts/contracts/wwccPool.sol\":7556:7566  pool.basal */\n      0xe0\n      add\n      mload\n        /* \"wwcc-contracts/contracts/wwccPool.sol\":7556:7570  pool.basal.div */\n      tag_20\n      swap1\n        /* \"wwcc-contracts/contracts/wwccPool.sol\":7556:7573  pool.basal.div(2) */\n      swap2\n      swap1\n      0xffffffff\n      and\n      jump\t// in\n    tag_298:\n        /* \"wwcc-contracts/contracts/wwccPool.sol\":7543:7547  pool */\n      dup9\n        /* \"wwcc-contracts/contracts/wwccPool.sol\":7543:7553  pool.sPool */\n      0xc0\n      add\n      mload\n        /* \"wwcc-contracts/contracts/wwccPool.sol\":7543:7573  pool.sPool + pool.basal.div(2) */\n      tag_299\n      swap2\n      swap1\n      tag_22\n      jump\t// in\n    tag_299:\n        /* \"wwcc-contracts/contracts/wwccPool.sol\":7542:7578  (pool.sPool + pool.basal.div(2)).mul */\n      tag_196\n      swap1\n        /* \"wwcc-contracts/contracts/wwccPool.sol\":7542:7582  (pool.sPool + pool.basal.div(2)).mul(85) */\n      swap2\n      swap1\n      0xffffffff\n      and\n      jump\t// in\n    tag_297:\n        /* \"wwcc-contracts/contracts/wwccPool.sol\":7542:7586  (pool.sPool + pool.basal.div(2)).mul(85).div */\n      tag_20\n      swap1\n        /* \"wwcc-contracts/contracts/wwccPool.sol\":7542:7591  (pool.sPool + pool.basal.div(2)).mul(85).div(100) */\n      swap2\n      swap1\n      0xffffffff\n      and\n      jump\t// in\n    tag_296:\n        /* \"wwcc-contracts/contracts/wwccPool.sol\":7524:7591  allRewardAmount = (pool.sPool + pool.basal.div(2)).mul(85).div(100) */\n      swap2\n      pop\n        /* \"wwcc-contracts/contracts/wwccPool.sol\":7646:7655  homeScore */\n      dup8\n        /* \"wwcc-contracts/contracts/wwccPool.sol\":7619:7631  separateBets */\n      dup4\n        /* \"wwcc-contracts/contracts/wwccPool.sol\":7632:7633  j */\n      dup3\n        /* \"wwcc-contracts/contracts/wwccPool.sol\":7619:7634  separateBets[j] */\n      dup2\n      mload\n      dup2\n      lt\n      tag_300\n      jumpi\n      tag_301\n      tag_291\n      jump\t// in\n    tag_301:\n    tag_300:\n      0x20\n      mul\n      0x20\n      add\n      add\n      mload\n        /* \"wwcc-contracts/contracts/wwccPool.sol\":7619:7644  separateBets[j].homeScore */\n      0x40\n      add\n      mload\n        /* \"wwcc-contracts/contracts/wwccPool.sol\":7619:7655  separateBets[j].homeScore==homeScore */\n      eq\n        /* \"wwcc-contracts/contracts/wwccPool.sol\":7619:7697  separateBets[j].homeScore==homeScore && separateBets[j].visitScore==visitScore */\n      dup1\n      iszero\n      tag_302\n      jumpi\n      pop\n        /* \"wwcc-contracts/contracts/wwccPool.sol\":7687:7697  visitScore */\n      dup7\n        /* \"wwcc-contracts/contracts/wwccPool.sol\":7659:7671  separateBets */\n      dup4\n        /* \"wwcc-contracts/contracts/wwccPool.sol\":7672:7673  j */\n      dup3\n        /* \"wwcc-contracts/contracts/wwccPool.sol\":7659:7674  separateBets[j] */\n      dup2\n      mload\n      dup2\n      lt\n      tag_303\n      jumpi\n      tag_304\n      tag_291\n      jump\t// in\n    tag_304:\n    tag_303:\n      0x20\n      mul\n      0x20\n      add\n      add\n      mload\n        /* \"wwcc-contracts/contracts/wwccPool.sol\":7659:7685  separateBets[j].visitScore */\n      0x60\n      add\n      mload\n        /* \"wwcc-contracts/contracts/wwccPool.sol\":7659:7697  separateBets[j].visitScore==visitScore */\n      eq\n        /* \"wwcc-contracts/contracts/wwccPool.sol\":7619:7697  separateBets[j].homeScore==homeScore && separateBets[j].visitScore==visitScore */\n    tag_302:\n        /* \"wwcc-contracts/contracts/wwccPool.sol\":7615:8413  if (separateBets[j].homeScore==homeScore && separateBets[j].visitScore==visitScore){... */\n      iszero\n      tag_305\n      jumpi\n        /* \"wwcc-contracts/contracts/wwccPool.sol\":7726:7755  uint256 singleScorePoolAmount */\n      0x00\n        /* \"wwcc-contracts/contracts/wwccPool.sol\":7758:7773  singleScorePool */\n      0x07\n        /* \"wwcc-contracts/contracts/wwccPool.sol\":7774:7786  separateBets */\n      dup5\n        /* \"wwcc-contracts/contracts/wwccPool.sol\":7787:7788  j */\n      dup4\n        /* \"wwcc-contracts/contracts/wwccPool.sol\":7774:7789  separateBets[j] */\n      dup2\n      mload\n      dup2\n      lt\n      tag_306\n      jumpi\n      tag_307\n      tag_291\n      jump\t// in\n    tag_307:\n    tag_306:\n      0x20\n      mul\n      0x20\n      add\n      add\n      mload\n        /* \"wwcc-contracts/contracts/wwccPool.sol\":7774:7800  separateBets[j].pickingKey */\n      0xa0\n      add\n      mload\n        /* \"wwcc-contracts/contracts/wwccPool.sol\":7758:7801  singleScorePool[separateBets[j].pickingKey] */\n      mload(0x40)\n      tag_308\n      swap2\n      swap1\n      tag_153\n      jump\t// in\n    tag_308:\n      swap1\n      dup2\n      mstore\n      0x20\n      add\n      mload(0x40)\n      dup1\n      swap2\n      sub\n      swap1\n      keccak256\n      sload\n        /* \"wwcc-contracts/contracts/wwccPool.sol\":7726:7801  uint256 singleScorePoolAmount = singleScorePool[separateBets[j].pickingKey] */\n      swap1\n      pop\n        /* \"wwcc-contracts/contracts/wwccPool.sol\":7829:7849  uint256 rewardAmount */\n      0x00\n        /* \"wwcc-contracts/contracts/wwccPool.sol\":7896:7917  singleScorePoolAmount */\n      dup2\n        /* \"wwcc-contracts/contracts/wwccPool.sol\":7870:7882  separateBets */\n      dup6\n        /* \"wwcc-contracts/contracts/wwccPool.sol\":7883:7884  j */\n      dup5\n        /* \"wwcc-contracts/contracts/wwccPool.sol\":7870:7885  separateBets[j] */\n      dup2\n      mload\n      dup2\n      lt\n      tag_309\n      jumpi\n      tag_310\n      tag_291\n      jump\t// in\n    tag_310:\n    tag_309:\n      0x20\n      mul\n      0x20\n      add\n      add\n      mload\n        /* \"wwcc-contracts/contracts/wwccPool.sol\":7870:7892  separateBets[j].weight */\n      0x00\n      add\n      mload\n        /* \"wwcc-contracts/contracts/wwccPool.sol\":7852:7867  allRewardAmount */\n      dup6\n        /* \"wwcc-contracts/contracts/wwccPool.sol\":7852:7892  allRewardAmount * separateBets[j].weight */\n      tag_311\n      swap2\n      swap1\n      tag_312\n      jump\t// in\n    tag_311:\n        /* \"wwcc-contracts/contracts/wwccPool.sol\":7852:7917  allRewardAmount * separateBets[j].weight /  singleScorePoolAmount */\n      tag_313\n      swap2\n      swap1\n      tag_94\n      jump\t// in\n    tag_313:\n        /* \"wwcc-contracts/contracts/wwccPool.sol\":7829:7917  uint256 rewardAmount = allRewardAmount * separateBets[j].weight /  singleScorePoolAmount */\n      swap1\n      pop\n        /* \"wwcc-contracts/contracts/wwccPool.sol\":8289:8301  rewardAmount */\n      dup1\n        /* \"wwcc-contracts/contracts/wwccPool.sol\":8251:8261  voteAmount */\n      0x04\n        /* \"wwcc-contracts/contracts/wwccPool.sol\":8251:8285  voteAmount[separateBets[j].joiner] */\n      0x00\n        /* \"wwcc-contracts/contracts/wwccPool.sol\":8262:8274  separateBets */\n      dup8\n        /* \"wwcc-contracts/contracts/wwccPool.sol\":8275:8276  j */\n      dup7\n        /* \"wwcc-contracts/contracts/wwccPool.sol\":8262:8277  separateBets[j] */\n      dup2\n      mload\n      dup2\n      lt\n      tag_314\n      jumpi\n      tag_315\n      tag_291\n      jump\t// in\n    tag_315:\n    tag_314:\n      0x20\n      mul\n      0x20\n      add\n      add\n      mload\n        /* \"wwcc-contracts/contracts/wwccPool.sol\":8262:8284  separateBets[j].joiner */\n      0x80\n      add\n      mload\n        /* \"wwcc-contracts/contracts/wwccPool.sol\":8251:8285  voteAmount[separateBets[j].joiner] */\n      0xffffffffffffffffffffffffffffffffffffffff\n      and\n      0xffffffffffffffffffffffffffffffffffffffff\n      and\n      dup2\n      mstore\n      0x20\n      add\n      swap1\n      dup2\n      mstore\n      0x20\n      add\n      0x00\n      keccak256\n      0x00\n        /* \"wwcc-contracts/contracts/wwccPool.sol\":8251:8301  voteAmount[separateBets[j].joiner] += rewardAmount */\n      dup3\n      dup3\n      sload\n      tag_316\n      swap2\n      swap1\n      tag_22\n      jump\t// in\n    tag_316:\n      swap3\n      pop\n      pop\n      dup2\n      swap1\n      sstore\n      pop\n        /* \"wwcc-contracts/contracts/wwccPool.sol\":8356:8360  true */\n      0x01\n        /* \"wwcc-contracts/contracts/wwccPool.sol\":8329:8341  separateBets */\n      dup6\n        /* \"wwcc-contracts/contracts/wwccPool.sol\":8342:8343  j */\n      dup5\n        /* \"wwcc-contracts/contracts/wwccPool.sol\":8329:8344  separateBets[j] */\n      dup2\n      mload\n      dup2\n      lt\n      tag_317\n      jumpi\n      tag_318\n      tag_291\n      jump\t// in\n    tag_318:\n    tag_317:\n      0x20\n      mul\n      0x20\n      add\n      add\n      mload\n        /* \"wwcc-contracts/contracts/wwccPool.sol\":8329:8353  separateBets[j].finished */\n      0xc0\n      add\n        /* \"wwcc-contracts/contracts/wwccPool.sol\":8329:8360  separateBets[j].finished = true */\n      swap1\n      iszero\n      iszero\n      swap1\n      dup2\n      iszero\n      iszero\n      dup2\n      mstore\n      pop\n      pop\n        /* \"wwcc-contracts/contracts/wwccPool.sol\":7698:8413  {... */\n      pop\n      pop\n        /* \"wwcc-contracts/contracts/wwccPool.sol\":7615:8413  if (separateBets[j].homeScore==homeScore && separateBets[j].visitScore==visitScore){... */\n    tag_305:\n        /* \"wwcc-contracts/contracts/wwccPool.sol\":7469:9750  if(separateBets[j].kind==2){... */\n      jump(tag_319)\n    tag_295:\n        /* \"wwcc-contracts/contracts/wwccPool.sol\":8488:8494  result */\n      dup6\n        /* \"wwcc-contracts/contracts/wwccPool.sol\":8466:8478  separateBets */\n      dup4\n        /* \"wwcc-contracts/contracts/wwccPool.sol\":8479:8480  j */\n      dup3\n        /* \"wwcc-contracts/contracts/wwccPool.sol\":8466:8481  separateBets[j] */\n      dup2\n      mload\n      dup2\n      lt\n      tag_320\n      jumpi\n      tag_321\n      tag_291\n      jump\t// in\n    tag_321:\n    tag_320:\n      0x20\n      mul\n      0x20\n      add\n      add\n      mload\n        /* \"wwcc-contracts/contracts/wwccPool.sol\":8466:8486  separateBets[j].kind */\n      0x20\n      add\n      mload\n        /* \"wwcc-contracts/contracts/wwccPool.sol\":8466:8494  separateBets[j].kind==result */\n      eq\n        /* \"wwcc-contracts/contracts/wwccPool.sol\":8463:9728  if(separateBets[j].kind==result){... */\n      iszero\n      tag_322\n      jumpi\n        /* \"wwcc-contracts/contracts/wwccPool.sol\":8541:8611  (pool.wPool+pool.lPool+pool.dPool+ pool.basal.div(2)).mul(85).div(100) */\n      tag_323\n        /* \"wwcc-contracts/contracts/wwccPool.sol\":8607:8610  100 */\n      0x64\n        /* \"wwcc-contracts/contracts/wwccPool.sol\":8541:8602  (pool.wPool+pool.lPool+pool.dPool+ pool.basal.div(2)).mul(85) */\n      tag_324\n        /* \"wwcc-contracts/contracts/wwccPool.sol\":8599:8601  85 */\n      0x55\n        /* \"wwcc-contracts/contracts/wwccPool.sol\":8576:8593  pool.basal.div(2) */\n      tag_325\n        /* \"wwcc-contracts/contracts/wwccPool.sol\":8591:8592  2 */\n      0x02\n        /* \"wwcc-contracts/contracts/wwccPool.sol\":8576:8580  pool */\n      dup10\n        /* \"wwcc-contracts/contracts/wwccPool.sol\":8576:8586  pool.basal */\n      0xe0\n      add\n      mload\n        /* \"wwcc-contracts/contracts/wwccPool.sol\":8576:8590  pool.basal.div */\n      tag_20\n      swap1\n        /* \"wwcc-contracts/contracts/wwccPool.sol\":8576:8593  pool.basal.div(2) */\n      swap2\n      swap1\n      0xffffffff\n      and\n      jump\t// in\n    tag_325:\n        /* \"wwcc-contracts/contracts/wwccPool.sol\":8564:8568  pool */\n      dup9\n        /* \"wwcc-contracts/contracts/wwccPool.sol\":8564:8574  pool.dPool */\n      0x80\n      add\n      mload\n        /* \"wwcc-contracts/contracts/wwccPool.sol\":8553:8557  pool */\n      dup10\n        /* \"wwcc-contracts/contracts/wwccPool.sol\":8553:8563  pool.lPool */\n      0xa0\n      add\n      mload\n        /* \"wwcc-contracts/contracts/wwccPool.sol\":8542:8546  pool */\n      dup11\n        /* \"wwcc-contracts/contracts/wwccPool.sol\":8542:8552  pool.wPool */\n      0x60\n      add\n      mload\n        /* \"wwcc-contracts/contracts/wwccPool.sol\":8542:8563  pool.wPool+pool.lPool */\n      tag_326\n      swap2\n      swap1\n      tag_22\n      jump\t// in\n    tag_326:\n        /* \"wwcc-contracts/contracts/wwccPool.sol\":8542:8574  pool.wPool+pool.lPool+pool.dPool */\n      tag_327\n      swap2\n      swap1\n      tag_22\n      jump\t// in\n    tag_327:\n        /* \"wwcc-contracts/contracts/wwccPool.sol\":8542:8593  pool.wPool+pool.lPool+pool.dPool+ pool.basal.div(2) */\n      tag_328\n      swap2\n      swap1\n      tag_22\n      jump\t// in\n    tag_328:\n        /* \"wwcc-contracts/contracts/wwccPool.sol\":8541:8598  (pool.wPool+pool.lPool+pool.dPool+ pool.basal.div(2)).mul */\n      tag_196\n      swap1\n        /* \"wwcc-contracts/contracts/wwccPool.sol\":8541:8602  (pool.wPool+pool.lPool+pool.dPool+ pool.basal.div(2)).mul(85) */\n      swap2\n      swap1\n      0xffffffff\n      and\n      jump\t// in\n    tag_324:\n        /* \"wwcc-contracts/contracts/wwccPool.sol\":8541:8606  (pool.wPool+pool.lPool+pool.dPool+ pool.basal.div(2)).mul(85).div */\n      tag_20\n      swap1\n        /* \"wwcc-contracts/contracts/wwccPool.sol\":8541:8611  (pool.wPool+pool.lPool+pool.dPool+ pool.basal.div(2)).mul(85).div(100) */\n      swap2\n      swap1\n      0xffffffff\n      and\n      jump\t// in\n    tag_323:\n        /* \"wwcc-contracts/contracts/wwccPool.sol\":8523:8611  allRewardAmount = (pool.wPool+pool.lPool+pool.dPool+ pool.basal.div(2)).mul(85).div(100) */\n      swap2\n      pop\n        /* \"wwcc-contracts/contracts/wwccPool.sol\":8639:8661  uint256 pickPoolAmount */\n      0x00\n        /* \"wwcc-contracts/contracts/wwccPool.sol\":8721:8722  0 */\n      dup1\n        /* \"wwcc-contracts/contracts/wwccPool.sol\":8697:8709  separateBets */\n      dup5\n        /* \"wwcc-contracts/contracts/wwccPool.sol\":8710:8711  j */\n      dup4\n        /* \"wwcc-contracts/contracts/wwccPool.sol\":8697:8712  separateBets[j] */\n      dup2\n      mload\n      dup2\n      lt\n      tag_329\n      jumpi\n      tag_330\n      tag_291\n      jump\t// in\n    tag_330:\n    tag_329:\n      0x20\n      mul\n      0x20\n      add\n      add\n      mload\n        /* \"wwcc-contracts/contracts/wwccPool.sol\":8697:8717  separateBets[j].kind */\n      0x20\n      add\n      mload\n        /* \"wwcc-contracts/contracts/wwccPool.sol\":8697:8722  separateBets[j].kind == 0 */\n      eq\n        /* \"wwcc-contracts/contracts/wwccPool.sol\":8693:8828  if (separateBets[j].kind == 0){... */\n      iszero\n      tag_331\n      jumpi\n        /* \"wwcc-contracts/contracts/wwccPool.sol\":8772:8799  pool.lPool.mul(85).div(100) */\n      tag_332\n        /* \"wwcc-contracts/contracts/wwccPool.sol\":8795:8798  100 */\n      0x64\n        /* \"wwcc-contracts/contracts/wwccPool.sol\":8772:8790  pool.lPool.mul(85) */\n      tag_333\n        /* \"wwcc-contracts/contracts/wwccPool.sol\":8787:8789  85 */\n      0x55\n        /* \"wwcc-contracts/contracts/wwccPool.sol\":8772:8776  pool */\n      dup9\n        /* \"wwcc-contracts/contracts/wwccPool.sol\":8772:8782  pool.lPool */\n      0xa0\n      add\n      mload\n        /* \"wwcc-contracts/contracts/wwccPool.sol\":8772:8786  pool.lPool.mul */\n      tag_196\n      swap1\n        /* \"wwcc-contracts/contracts/wwccPool.sol\":8772:8790  pool.lPool.mul(85) */\n      swap2\n      swap1\n      0xffffffff\n      and\n      jump\t// in\n    tag_333:\n        /* \"wwcc-contracts/contracts/wwccPool.sol\":8772:8794  pool.lPool.mul(85).div */\n      tag_20\n      swap1\n        /* \"wwcc-contracts/contracts/wwccPool.sol\":8772:8799  pool.lPool.mul(85).div(100) */\n      swap2\n      swap1\n      0xffffffff\n      and\n      jump\t// in\n    tag_332:\n        /* \"wwcc-contracts/contracts/wwccPool.sol\":8755:8799  pickPoolAmount = pool.lPool.mul(85).div(100) */\n      swap1\n      pop\n        /* \"wwcc-contracts/contracts/wwccPool.sol\":8693:8828  if (separateBets[j].kind == 0){... */\n    tag_331:\n        /* \"wwcc-contracts/contracts/wwccPool.sol\":8883:8884  1 */\n      0x01\n        /* \"wwcc-contracts/contracts/wwccPool.sol\":8859:8871  separateBets */\n      dup5\n        /* \"wwcc-contracts/contracts/wwccPool.sol\":8872:8873  j */\n      dup4\n        /* \"wwcc-contracts/contracts/wwccPool.sol\":8859:8874  separateBets[j] */\n      dup2\n      mload\n      dup2\n      lt\n      tag_334\n      jumpi\n      tag_335\n      tag_291\n      jump\t// in\n    tag_335:\n    tag_334:\n      0x20\n      mul\n      0x20\n      add\n      add\n      mload\n        /* \"wwcc-contracts/contracts/wwccPool.sol\":8859:8879  separateBets[j].kind */\n      0x20\n      add\n      mload\n        /* \"wwcc-contracts/contracts/wwccPool.sol\":8859:8884  separateBets[j].kind == 1 */\n      eq\n        /* \"wwcc-contracts/contracts/wwccPool.sol\":8855:8990  if (separateBets[j].kind == 1){... */\n      iszero\n      tag_336\n      jumpi\n        /* \"wwcc-contracts/contracts/wwccPool.sol\":8934:8961  pool.dPool.mul(85).div(100) */\n      tag_337\n        /* \"wwcc-contracts/contracts/wwccPool.sol\":8957:8960  100 */\n      0x64\n        /* \"wwcc-contracts/contracts/wwccPool.sol\":8934:8952  pool.dPool.mul(85) */\n      tag_338\n        /* \"wwcc-contracts/contracts/wwccPool.sol\":8949:8951  85 */\n      0x55\n        /* \"wwcc-contracts/contracts/wwccPool.sol\":8934:8938  pool */\n      dup9\n        /* \"wwcc-contracts/contracts/wwccPool.sol\":8934:8944  pool.dPool */\n      0x80\n      add\n      mload\n        /* \"wwcc-contracts/contracts/wwccPool.sol\":8934:8948  pool.dPool.mul */\n      tag_196\n      swap1\n        /* \"wwcc-contracts/contracts/wwccPool.sol\":8934:8952  pool.dPool.mul(85) */\n      swap2\n      swap1\n      0xffffffff\n      and\n      jump\t// in\n    tag_338:\n        /* \"wwcc-contracts/contracts/wwccPool.sol\":8934:8956  pool.dPool.mul(85).div */\n      tag_20\n      swap1\n        /* \"wwcc-contracts/contracts/wwccPool.sol\":8934:8961  pool.dPool.mul(85).div(100) */\n      swap2\n      swap1\n      0xffffffff\n      and\n      jump\t// in\n    tag_337:\n        /* \"wwcc-contracts/contracts/wwccPool.sol\":8917:8961  pickPoolAmount = pool.dPool.mul(85).div(100) */\n      swap1\n      pop\n        /* \"wwcc-contracts/contracts/wwccPool.sol\":8855:8990  if (separateBets[j].kind == 1){... */\n    tag_336:\n        /* \"wwcc-contracts/contracts/wwccPool.sol\":9045:9046  3 */\n      0x03\n        /* \"wwcc-contracts/contracts/wwccPool.sol\":9021:9033  separateBets */\n      dup5\n        /* \"wwcc-contracts/contracts/wwccPool.sol\":9034:9035  j */\n      dup4\n        /* \"wwcc-contracts/contracts/wwccPool.sol\":9021:9036  separateBets[j] */\n      dup2\n      mload\n      dup2\n      lt\n      tag_339\n      jumpi\n      tag_340\n      tag_291\n      jump\t// in\n    tag_340:\n    tag_339:\n      0x20\n      mul\n      0x20\n      add\n      add\n      mload\n        /* \"wwcc-contracts/contracts/wwccPool.sol\":9021:9041  separateBets[j].kind */\n      0x20\n      add\n      mload\n        /* \"wwcc-contracts/contracts/wwccPool.sol\":9021:9046  separateBets[j].kind == 3 */\n      eq\n        /* \"wwcc-contracts/contracts/wwccPool.sol\":9017:9152  if (separateBets[j].kind == 3){... */\n      iszero\n      tag_341\n      jumpi\n        /* \"wwcc-contracts/contracts/wwccPool.sol\":9096:9123  pool.wPool.mul(85).div(100) */\n      tag_342\n        /* \"wwcc-contracts/contracts/wwccPool.sol\":9119:9122  100 */\n      0x64\n        /* \"wwcc-contracts/contracts/wwccPool.sol\":9096:9114  pool.wPool.mul(85) */\n      tag_343\n        /* \"wwcc-contracts/contracts/wwccPool.sol\":9111:9113  85 */\n      0x55\n        /* \"wwcc-contracts/contracts/wwccPool.sol\":9096:9100  pool */\n      dup9\n        /* \"wwcc-contracts/contracts/wwccPool.sol\":9096:9106  pool.wPool */\n      0x60\n      add\n      mload\n        /* \"wwcc-contracts/contracts/wwccPool.sol\":9096:9110  pool.wPool.mul */\n      tag_196\n      swap1\n        /* \"wwcc-contracts/contracts/wwccPool.sol\":9096:9114  pool.wPool.mul(85) */\n      swap2\n      swap1\n      0xffffffff\n      and\n      jump\t// in\n    tag_343:\n        /* \"wwcc-contracts/contracts/wwccPool.sol\":9096:9118  pool.wPool.mul(85).div */\n      tag_20\n      swap1\n        /* \"wwcc-contracts/contracts/wwccPool.sol\":9096:9123  pool.wPool.mul(85).div(100) */\n      swap2\n      swap1\n      0xffffffff\n      and\n      jump\t// in\n    tag_342:\n        /* \"wwcc-contracts/contracts/wwccPool.sol\":9079:9123  pickPoolAmount = pool.wPool.mul(85).div(100) */\n      swap1\n      pop\n        /* \"wwcc-contracts/contracts/wwccPool.sol\":9017:9152  if (separateBets[j].kind == 3){... */\n    tag_341:\n        /* \"wwcc-contracts/contracts/wwccPool.sol\":9179:9199  uint256 rewardAmount */\n      0x00\n        /* \"wwcc-contracts/contracts/wwccPool.sol\":9246:9260  pickPoolAmount */\n      dup2\n        /* \"wwcc-contracts/contracts/wwccPool.sol\":9220:9232  separateBets */\n      dup6\n        /* \"wwcc-contracts/contracts/wwccPool.sol\":9233:9234  j */\n      dup5\n        /* \"wwcc-contracts/contracts/wwccPool.sol\":9220:9235  separateBets[j] */\n      dup2\n      mload\n      dup2\n      lt\n      tag_344\n      jumpi\n      tag_345\n      tag_291\n      jump\t// in\n    tag_345:\n    tag_344:\n      0x20\n      mul\n      0x20\n      add\n      add\n      mload\n        /* \"wwcc-contracts/contracts/wwccPool.sol\":9220:9242  separateBets[j].weight */\n      0x00\n      add\n      mload\n        /* \"wwcc-contracts/contracts/wwccPool.sol\":9202:9217  allRewardAmount */\n      dup6\n        /* \"wwcc-contracts/contracts/wwccPool.sol\":9202:9242  allRewardAmount * separateBets[j].weight */\n      tag_346\n      swap2\n      swap1\n      tag_312\n      jump\t// in\n    tag_346:\n        /* \"wwcc-contracts/contracts/wwccPool.sol\":9202:9260  allRewardAmount * separateBets[j].weight /  pickPoolAmount */\n      tag_347\n      swap2\n      swap1\n      tag_94\n      jump\t// in\n    tag_347:\n        /* \"wwcc-contracts/contracts/wwccPool.sol\":9179:9260  uint256 rewardAmount = allRewardAmount * separateBets[j].weight /  pickPoolAmount */\n      swap1\n      pop\n        /* \"wwcc-contracts/contracts/wwccPool.sol\":9632:9644  rewardAmount */\n      dup1\n        /* \"wwcc-contracts/contracts/wwccPool.sol\":9594:9604  voteAmount */\n      0x04\n        /* \"wwcc-contracts/contracts/wwccPool.sol\":9594:9628  voteAmount[separateBets[j].joiner] */\n      0x00\n        /* \"wwcc-contracts/contracts/wwccPool.sol\":9605:9617  separateBets */\n      dup8\n        /* \"wwcc-contracts/contracts/wwccPool.sol\":9618:9619  j */\n      dup7\n        /* \"wwcc-contracts/contracts/wwccPool.sol\":9605:9620  separateBets[j] */\n      dup2\n      mload\n      dup2\n      lt\n      tag_348\n      jumpi\n      tag_349\n      tag_291\n      jump\t// in\n    tag_349:\n    tag_348:\n      0x20\n      mul\n      0x20\n      add\n      add\n      mload\n        /* \"wwcc-contracts/contracts/wwccPool.sol\":9605:9627  separateBets[j].joiner */\n      0x80\n      add\n      mload\n        /* \"wwcc-contracts/contracts/wwccPool.sol\":9594:9628  voteAmount[separateBets[j].joiner] */\n      0xffffffffffffffffffffffffffffffffffffffff\n      and\n      0xffffffffffffffffffffffffffffffffffffffff\n      and\n      dup2\n      mstore\n      0x20\n      add\n      swap1\n      dup2\n      mstore\n      0x20\n      add\n      0x00\n      keccak256\n      0x00\n        /* \"wwcc-contracts/contracts/wwccPool.sol\":9594:9644  voteAmount[separateBets[j].joiner] += rewardAmount */\n      dup3\n      dup3\n      sload\n      tag_350\n      swap2\n      swap1\n      tag_22\n      jump\t// in\n    tag_350:\n      swap3\n      pop\n      pop\n      dup2\n      swap1\n      sstore\n      pop\n        /* \"wwcc-contracts/contracts/wwccPool.sol\":9699:9703  true */\n      0x01\n        /* \"wwcc-contracts/contracts/wwccPool.sol\":9672:9684  separateBets */\n      dup6\n        /* \"wwcc-contracts/contracts/wwccPool.sol\":9685:9686  j */\n      dup5\n        /* \"wwcc-contracts/contracts/wwccPool.sol\":9672:9687  separateBets[j] */\n      dup2\n      mload\n      dup2\n      lt\n      tag_351\n      jumpi\n      tag_352\n      tag_291\n      jump\t// in\n    tag_352:\n    tag_351:\n      0x20\n      mul\n      0x20\n      add\n      add\n      mload\n        /* \"wwcc-contracts/contracts/wwccPool.sol\":9672:9696  separateBets[j].finished */\n      0xc0\n      add\n        /* \"wwcc-contracts/contracts/wwccPool.sol\":9672:9703  separateBets[j].finished = true */\n      swap1\n      iszero\n      iszero\n      swap1\n      dup2\n      iszero\n      iszero\n      dup2\n      mstore\n      pop\n      pop\n        /* \"wwcc-contracts/contracts/wwccPool.sol\":8495:9728  {... */\n      pop\n      pop\n        /* \"wwcc-contracts/contracts/wwccPool.sol\":8463:9728  if(separateBets[j].kind==result){... */\n    tag_322:\n        /* \"wwcc-contracts/contracts/wwccPool.sol\":7469:9750  if(separateBets[j].kind==2){... */\n    tag_319:\n        /* \"wwcc-contracts/contracts/wwccPool.sol\":7409:9770  if(separateBets[j].finished = false){... */\n    tag_292:\n        /* \"wwcc-contracts/contracts/wwccPool.sol\":7367:7371  j ++ */\n      dup1\n      dup1\n      tag_353\n      swap1\n      tag_354\n      jump\t// in\n    tag_353:\n      swap2\n      pop\n      pop\n        /* \"wwcc-contracts/contracts/wwccPool.sol\":7273:9790  for (... */\n      jump(tag_285)\n    tag_286:\n      pop\n        /* \"wwcc-contracts/contracts/wwccPool.sol\":9823:9827  true */\n      0x01\n        /* \"wwcc-contracts/contracts/wwccPool.sol\":9807:9811  pool */\n      dup4\n        /* \"wwcc-contracts/contracts/wwccPool.sol\":9807:9820  pool.finished */\n      0x0140\n      add\n        /* \"wwcc-contracts/contracts/wwccPool.sol\":9807:9827  pool.finished = true */\n      swap1\n      iszero\n      iszero\n      swap1\n      dup2\n      iszero\n      iszero\n      dup2\n      mstore\n      pop\n      pop\n        /* \"wwcc-contracts/contracts/wwccPool.sol\":6745:9962  {... */\n      pop\n      pop\n      pop\n        /* \"wwcc-contracts/contracts/wwccPool.sol\":9977:9981  true */\n      0x01\n        /* \"wwcc-contracts/contracts/wwccPool.sol\":9970:9981  return true */\n      swap1\n      pop\n        /* \"wwcc-contracts/contracts/wwccPool.sol\":6531:9988  function Award(bytes32 poolKey,uint256 homeScore,uint256 visitScore,uint256 result)  external onlyManager  payable returns(bool){... */\n      swap5\n      swap4\n      pop\n      pop\n      pop\n      pop\n      jump\t// out\n        /* \"wwcc-contracts/contracts/wwccPool.sol\":5091:5504  function voteWithdrawal(address joiner,uint256 amount) external onlyManager payable returns (bool){... */\n    tag_74:\n        /* \"wwcc-contracts/contracts/wwccPool.sol\":5184:5188  bool */\n      0x00\n        /* \"wwcc-contracts/contracts/wwccPool.sol\":13035:13040  owner */\n      dup1\n      0x00\n      swap1\n      sload\n      swap1\n      0x0100\n      exp\n      swap1\n      div\n      0xffffffffffffffffffffffffffffffffffffffff\n      and\n        /* \"wwcc-contracts/contracts/wwccPool.sol\":13021:13040  msg.sender == owner */\n      0xffffffffffffffffffffffffffffffffffffffff\n      and\n        /* \"wwcc-contracts/contracts/wwccPool.sol\":13021:13031  msg.sender */\n      caller\n        /* \"wwcc-contracts/contracts/wwccPool.sol\":13021:13040  msg.sender == owner */\n      0xffffffffffffffffffffffffffffffffffffffff\n      and\n      eq\n        /* \"wwcc-contracts/contracts/wwccPool.sol\":13000:13091  require(... */\n      tag_356\n      jumpi\n      mload(0x40)\n      0x08c379a000000000000000000000000000000000000000000000000000000000\n      dup2\n      mstore\n      0x04\n      add\n      tag_357\n      swap1\n      tag_98\n      jump\t// in\n    tag_357:\n      mload(0x40)\n      dup1\n      swap2\n      sub\n      swap1\n      revert\n    tag_356:\n        /* \"wwcc-contracts/contracts/wwccPool.sol\":5224:5230  amount */\n      dup2\n        /* \"wwcc-contracts/contracts/wwccPool.sol\":5202:5212  voteAmount */\n      0x04\n        /* \"wwcc-contracts/contracts/wwccPool.sol\":5202:5220  voteAmount[joiner] */\n      0x00\n        /* \"wwcc-contracts/contracts/wwccPool.sol\":5213:5219  joiner */\n      dup6\n        /* \"wwcc-contracts/contracts/wwccPool.sol\":5202:5220  voteAmount[joiner] */\n      0xffffffffffffffffffffffffffffffffffffffff\n      and\n      0xffffffffffffffffffffffffffffffffffffffff\n      and\n      dup2\n      mstore\n      0x20\n      add\n      swap1\n      dup2\n      mstore\n      0x20\n      add\n      0x00\n      keccak256\n      sload\n        /* \"wwcc-contracts/contracts/wwccPool.sol\":5202:5230  voteAmount[joiner] >= amount */\n      lt\n      iszero\n        /* \"wwcc-contracts/contracts/wwccPool.sol\":5202:5257  voteAmount[joiner] >= amount && voteAmount[joiner] >= 0 */\n      dup1\n      iszero\n      tag_359\n      jumpi\n      pop\n        /* \"wwcc-contracts/contracts/wwccPool.sol\":5256:5257  0 */\n      0x00\n        /* \"wwcc-contracts/contracts/wwccPool.sol\":5234:5244  voteAmount */\n      0x04\n        /* \"wwcc-contracts/contracts/wwccPool.sol\":5234:5252  voteAmount[joiner] */\n      0x00\n        /* \"wwcc-contracts/contracts/wwccPool.sol\":5245:5251  joiner */\n      dup6\n        /* \"wwcc-contracts/contracts/wwccPool.sol\":5234:5252  voteAmount[joiner] */\n      0xffffffffffffffffffffffffffffffffffffffff\n      and\n      0xffffffffffffffffffffffffffffffffffffffff\n      and\n      dup2\n      mstore\n      0x20\n      add\n      swap1\n      dup2\n      mstore\n      0x20\n      add\n      0x00\n      keccak256\n      sload\n        /* \"wwcc-contracts/contracts/wwccPool.sol\":5234:5257  voteAmount[joiner] >= 0 */\n      lt\n      iszero\n        /* \"wwcc-contracts/contracts/wwccPool.sol\":5202:5257  voteAmount[joiner] >= amount && voteAmount[joiner] >= 0 */\n    tag_359:\n        /* \"wwcc-contracts/contracts/wwccPool.sol\":5199:5477  if(voteAmount[joiner] >= amount && voteAmount[joiner] >= 0){... */\n      iszero\n      tag_360\n      jumpi\n        /* \"wwcc-contracts/contracts/wwccPool.sol\":5272:5305  address payable toAddress_address */\n      0x00\n        /* \"wwcc-contracts/contracts/wwccPool.sol\":5316:5322  joiner */\n      dup4\n        /* \"wwcc-contracts/contracts/wwccPool.sol\":5272:5323  address payable toAddress_address = payable(joiner) */\n      swap1\n      pop\n        /* \"wwcc-contracts/contracts/wwccPool.sol\":5337:5354  toAddress_address */\n      dup1\n        /* \"wwcc-contracts/contracts/wwccPool.sol\":5337:5363  toAddress_address.transfer */\n      0xffffffffffffffffffffffffffffffffffffffff\n      and\n        /* \"wwcc-contracts/contracts/wwccPool.sol\":5337:5406  toAddress_address.transfer(voteAmount[joiner].mul(10000000000000000)) */\n      0x08fc\n        /* \"wwcc-contracts/contracts/wwccPool.sol\":5364:5405  voteAmount[joiner].mul(10000000000000000) */\n      tag_361\n        /* \"wwcc-contracts/contracts/wwccPool.sol\":5387:5404  10000000000000000 */\n      0x2386f26fc10000\n        /* \"wwcc-contracts/contracts/wwccPool.sol\":5364:5374  voteAmount */\n      0x04\n        /* \"wwcc-contracts/contracts/wwccPool.sol\":5364:5382  voteAmount[joiner] */\n      0x00\n        /* \"wwcc-contracts/contracts/wwccPool.sol\":5375:5381  joiner */\n      dup10\n        /* \"wwcc-contracts/contracts/wwccPool.sol\":5364:5382  voteAmount[joiner] */\n      0xffffffffffffffffffffffffffffffffffffffff\n      and\n      0xffffffffffffffffffffffffffffffffffffffff\n      and\n      dup2\n      mstore\n      0x20\n      add\n      swap1\n      dup2\n      mstore\n      0x20\n      add\n      0x00\n      keccak256\n      sload\n        /* \"wwcc-contracts/contracts/wwccPool.sol\":5364:5386  voteAmount[joiner].mul */\n      tag_196\n      swap1\n        /* \"wwcc-contracts/contracts/wwccPool.sol\":5364:5405  voteAmount[joiner].mul(10000000000000000) */\n      swap2\n      swap1\n      0xffffffff\n      and\n      jump\t// in\n    tag_361:\n        /* \"wwcc-contracts/contracts/wwccPool.sol\":5337:5406  toAddress_address.transfer(voteAmount[joiner].mul(10000000000000000)) */\n      swap1\n      dup2\n      iszero\n      mul\n      swap1\n      mload(0x40)\n      0x00\n      mload(0x40)\n      dup1\n      dup4\n      sub\n      dup2\n      dup6\n      dup9\n      dup9\n      call\n      swap4\n      pop\n      pop\n      pop\n      pop\n      iszero\n      dup1\n      iszero\n      tag_363\n      jumpi\n      returndatasize\n      0x00\n      dup1\n      returndatacopy\n      revert(0x00, returndatasize)\n    tag_363:\n      pop\n        /* \"wwcc-contracts/contracts/wwccPool.sol\":5258:5417  {... */\n      pop\n        /* \"wwcc-contracts/contracts/wwccPool.sol\":5199:5477  if(voteAmount[joiner] >= amount && voteAmount[joiner] >= 0){... */\n      jump(tag_364)\n    tag_360:\n        /* \"wwcc-contracts/contracts/wwccPool.sol\":5435:5466  revert(\"not enough voteAmount\") */\n      mload(0x40)\n      0x08c379a000000000000000000000000000000000000000000000000000000000\n      dup2\n      mstore\n      0x04\n      add\n      tag_365\n      swap1\n      tag_204\n      jump\t// in\n    tag_365:\n      mload(0x40)\n      dup1\n      swap2\n      sub\n      swap1\n      revert\n        /* \"wwcc-contracts/contracts/wwccPool.sol\":5199:5477  if(voteAmount[joiner] >= amount && voteAmount[joiner] >= 0){... */\n    tag_364:\n        /* \"wwcc-contracts/contracts/wwccPool.sol\":5493:5497  true */\n      0x01\n        /* \"wwcc-contracts/contracts/wwccPool.sol\":5486:5497  return true */\n      swap1\n      pop\n        /* \"wwcc-contracts/contracts/wwccPool.sol\":5091:5504  function voteWithdrawal(address joiner,uint256 amount) external onlyManager payable returns (bool){... */\n      swap3\n      swap2\n      pop\n      pop\n      jump\t// out\n        /* \"wwcc-contracts/contracts/wwccPool.sol\":6355:6460  function CheckVoteTickets() external view returns (uint256){... */\n    tag_78:\n        /* \"wwcc-contracts/contracts/wwccPool.sol\":6406:6413  uint256 */\n      0x00\n        /* \"wwcc-contracts/contracts/wwccPool.sol\":6431:6441  voteAmount */\n      0x04\n        /* \"wwcc-contracts/contracts/wwccPool.sol\":6431:6453  voteAmount[msg.sender] */\n      0x00\n        /* \"wwcc-contracts/contracts/wwccPool.sol\":6442:6452  msg.sender */\n      caller\n        /* \"wwcc-contracts/contracts/wwccPool.sol\":6431:6453  voteAmount[msg.sender] */\n      0xffffffffffffffffffffffffffffffffffffffff\n      and\n      0xffffffffffffffffffffffffffffffffffffffff\n      and\n      dup2\n      mstore\n      0x20\n      add\n      swap1\n      dup2\n      mstore\n      0x20\n      add\n      0x00\n      keccak256\n      sload\n        /* \"wwcc-contracts/contracts/wwccPool.sol\":6424:6453  return voteAmount[msg.sender] */\n      swap1\n      pop\n        /* \"wwcc-contracts/contracts/wwccPool.sol\":6355:6460  function CheckVoteTickets() external view returns (uint256){... */\n      swap1\n      jump\t// out\n        /* \"wwcc-contracts/contracts/wwccPool.sol\":5946:6044  function getAllPoolKeys() external view returns (bytes32[] memory){... */\n    tag_82:\n        /* \"wwcc-contracts/contracts/wwccPool.sol\":5995:6011  bytes32[] memory */\n      0x60\n        /* \"wwcc-contracts/contracts/wwccPool.sol\":6029:6037  poolKeys */\n      0x02\n        /* \"wwcc-contracts/contracts/wwccPool.sol\":6022:6037  return poolKeys */\n      dup1\n      sload\n      dup1\n      0x20\n      mul\n      0x20\n      add\n      mload(0x40)\n      swap1\n      dup2\n      add\n      0x40\n      mstore\n      dup1\n      swap3\n      swap2\n      swap1\n      dup2\n      dup2\n      mstore\n      0x20\n      add\n      dup3\n      dup1\n      sload\n      dup1\n      iszero\n      tag_368\n      jumpi\n      0x20\n      mul\n      dup3\n      add\n      swap2\n      swap1\n      0x00\n      mstore\n      keccak256(0x00, 0x20)\n      swap1\n    tag_369:\n      dup2\n      sload\n      dup2\n      mstore\n      0x20\n      add\n      swap1\n      0x01\n      add\n      swap1\n      dup1\n      dup4\n      gt\n      tag_369\n      jumpi\n    tag_368:\n      pop\n      pop\n      pop\n      pop\n      pop\n      swap1\n      pop\n        /* \"wwcc-contracts/contracts/wwccPool.sol\":5946:6044  function getAllPoolKeys() external view returns (bytes32[] memory){... */\n      swap1\n      jump\t// out\n        /* \"wwcc-contracts/contracts/wwccPool.sol\":10287:10935  function getPool(bytes32 poolKey) external view returns (string memory vs,string memory rounds,PoolViewInfo memory viewInfo){... */\n    tag_88:\n        /* \"wwcc-contracts/contracts/wwccPool.sol\":10344:10360  string memory vs */\n      0x60\n        /* \"wwcc-contracts/contracts/wwccPool.sol\":10361:10381  string memory rounds */\n      dup1\n        /* \"wwcc-contracts/contracts/wwccPool.sol\":10382:10410  PoolViewInfo memory viewInfo */\n      tag_370\n      tag_371\n      jump\t// in\n    tag_370:\n        /* \"wwcc-contracts/contracts/wwccPool.sol\":10425:10442  contains(poolKey) */\n      tag_373\n        /* \"wwcc-contracts/contracts/wwccPool.sol\":10434:10441  poolKey */\n      dup5\n        /* \"wwcc-contracts/contracts/wwccPool.sol\":10425:10433  contains */\n      tag_105\n        /* \"wwcc-contracts/contracts/wwccPool.sol\":10425:10442  contains(poolKey) */\n      jump\t// in\n    tag_373:\n        /* \"wwcc-contracts/contracts/wwccPool.sol\":10421:10929  if(!contains(poolKey)) { ... */\n      tag_374\n      jumpi\n        /* \"wwcc-contracts/contracts/wwccPool.sol\":10459:10478  revert(\"not exist\") */\n      mload(0x40)\n      0x08c379a000000000000000000000000000000000000000000000000000000000\n      dup2\n      mstore\n      0x04\n      add\n      tag_375\n      swap1\n      tag_376\n      jump\t// in\n    tag_375:\n      mload(0x40)\n      dup1\n      swap2\n      sub\n      swap1\n      revert\n        /* \"wwcc-contracts/contracts/wwccPool.sol\":10421:10929  if(!contains(poolKey)) { ... */\n    tag_374:\n        /* \"wwcc-contracts/contracts/wwccPool.sol\":10507:10524  string  memory hv */\n      0x00\n        /* \"wwcc-contracts/contracts/wwccPool.sol\":10527:10566  strConcat(WcPools[poolKey].home,\" vs \") */\n      tag_378\n        /* \"wwcc-contracts/contracts/wwccPool.sol\":10537:10544  WcPools */\n      0x05\n        /* \"wwcc-contracts/contracts/wwccPool.sol\":10537:10553  WcPools[poolKey] */\n      0x00\n        /* \"wwcc-contracts/contracts/wwccPool.sol\":10545:10552  poolKey */\n      dup8\n        /* \"wwcc-contracts/contracts/wwccPool.sol\":10537:10553  WcPools[poolKey] */\n      dup2\n      mstore\n      0x20\n      add\n      swap1\n      dup2\n      mstore\n      0x20\n      add\n      0x00\n      keccak256\n        /* \"wwcc-contracts/contracts/wwccPool.sol\":10537:10558  WcPools[poolKey].home */\n      0x00\n      add\n        /* \"wwcc-contracts/contracts/wwccPool.sol\":10527:10566  strConcat(WcPools[poolKey].home,\" vs \") */\n      dup1\n      sload\n      tag_379\n      swap1\n      tag_111\n      jump\t// in\n    tag_379:\n      dup1\n      0x1f\n      add\n      0x20\n      dup1\n      swap2\n      div\n      mul\n      0x20\n      add\n      mload(0x40)\n      swap1\n      dup2\n      add\n      0x40\n      mstore\n      dup1\n      swap3\n      swap2\n      swap1\n      dup2\n      dup2\n      mstore\n      0x20\n      add\n      dup3\n      dup1\n      sload\n      tag_380\n      swap1\n      tag_111\n      jump\t// in\n    tag_380:\n      dup1\n      iszero\n      tag_381\n      jumpi\n      dup1\n      0x1f\n      lt\n      tag_382\n      jumpi\n      0x0100\n      dup1\n      dup4\n      sload\n      div\n      mul\n      dup4\n      mstore\n      swap2\n      0x20\n      add\n      swap2\n      jump(tag_381)\n    tag_382:\n      dup3\n      add\n      swap2\n      swap1\n      0x00\n      mstore\n      keccak256(0x00, 0x20)\n      swap1\n    tag_383:\n      dup2\n      sload\n      dup2\n      mstore\n      swap1\n      0x01\n      add\n      swap1\n      0x20\n      add\n      dup1\n      dup4\n      gt\n      tag_383\n      jumpi\n      dup3\n      swap1\n      sub\n      0x1f\n      and\n      dup3\n      add\n      swap2\n    tag_381:\n      pop\n      pop\n      pop\n      pop\n      pop\n      mload(0x40)\n      dup1\n      0x40\n      add\n      0x40\n      mstore\n      dup1\n      0x04\n      dup2\n      mstore\n      0x20\n      add\n      0x2076732000000000000000000000000000000000000000000000000000000000\n      dup2\n      mstore\n      pop\n        /* \"wwcc-contracts/contracts/wwccPool.sol\":10527:10536  strConcat */\n      tag_150\n        /* \"wwcc-contracts/contracts/wwccPool.sol\":10527:10566  strConcat(WcPools[poolKey].home,\" vs \") */\n      jump\t// in\n    tag_378:\n        /* \"wwcc-contracts/contracts/wwccPool.sol\":10507:10566  string  memory hv = strConcat(WcPools[poolKey].home,\" vs \") */\n      swap1\n      pop\n        /* \"wwcc-contracts/contracts/wwccPool.sol\":10585:10621  strConcat(hv,WcPools[poolKey].visit) */\n      tag_384\n        /* \"wwcc-contracts/contracts/wwccPool.sol\":10595:10597  hv */\n      dup2\n        /* \"wwcc-contracts/contracts/wwccPool.sol\":10598:10605  WcPools */\n      0x05\n        /* \"wwcc-contracts/contracts/wwccPool.sol\":10598:10614  WcPools[poolKey] */\n      0x00\n        /* \"wwcc-contracts/contracts/wwccPool.sol\":10606:10613  poolKey */\n      dup9\n        /* \"wwcc-contracts/contracts/wwccPool.sol\":10598:10614  WcPools[poolKey] */\n      dup2\n      mstore\n      0x20\n      add\n      swap1\n      dup2\n      mstore\n      0x20\n      add\n      0x00\n      keccak256\n        /* \"wwcc-contracts/contracts/wwccPool.sol\":10598:10620  WcPools[poolKey].visit */\n      0x01\n      add\n        /* \"wwcc-contracts/contracts/wwccPool.sol\":10585:10621  strConcat(hv,WcPools[poolKey].visit) */\n      dup1\n      sload\n      tag_385\n      swap1\n      tag_111\n      jump\t// in\n    tag_385:\n      dup1\n      0x1f\n      add\n      0x20\n      dup1\n      swap2\n      div\n      mul\n      0x20\n      add\n      mload(0x40)\n      swap1\n      dup2\n      add\n      0x40\n      mstore\n      dup1\n      swap3\n      swap2\n      swap1\n      dup2\n      dup2\n      mstore\n      0x20\n      add\n      dup3\n      dup1\n      sload\n      tag_386\n      swap1\n      tag_111\n      jump\t// in\n    tag_386:\n      dup1\n      iszero\n      tag_387\n      jumpi\n      dup1\n      0x1f\n      lt\n      tag_388\n      jumpi\n      0x0100\n      dup1\n      dup4\n      sload\n      div\n      mul\n      dup4\n      mstore\n      swap2\n      0x20\n      add\n      swap2\n      jump(tag_387)\n    tag_388:\n      dup3\n      add\n      swap2\n      swap1\n      0x00\n      mstore\n      keccak256(0x00, 0x20)\n      swap1\n    tag_389:\n      dup2\n      sload\n      dup2\n      mstore\n      swap1\n      0x01\n      add\n      swap1\n      0x20\n      add\n      dup1\n      dup4\n      gt\n      tag_389\n      jumpi\n      dup3\n      swap1\n      sub\n      0x1f\n      and\n      dup3\n      add\n      swap2\n    tag_387:\n      pop\n      pop\n      pop\n      pop\n      pop\n        /* \"wwcc-contracts/contracts/wwccPool.sol\":10585:10594  strConcat */\n      tag_150\n        /* \"wwcc-contracts/contracts/wwccPool.sol\":10585:10621  strConcat(hv,WcPools[poolKey].visit) */\n      jump\t// in\n    tag_384:\n        /* \"wwcc-contracts/contracts/wwccPool.sol\":10580:10621  vs = strConcat(hv,WcPools[poolKey].visit) */\n      swap4\n      pop\n        /* \"wwcc-contracts/contracts/wwccPool.sol\":10635:10657  PoolViewInfo memory vi */\n      0x00\n        /* \"wwcc-contracts/contracts/wwccPool.sol\":10660:10840  PoolViewInfo(WcPools[poolKey].wPool,... */\n      mload(0x40)\n      dup1\n      0xa0\n      add\n      0x40\n      mstore\n      dup1\n        /* \"wwcc-contracts/contracts/wwccPool.sol\":10673:10680  WcPools */\n      0x05\n        /* \"wwcc-contracts/contracts/wwccPool.sol\":10673:10689  WcPools[poolKey] */\n      0x00\n        /* \"wwcc-contracts/contracts/wwccPool.sol\":10681:10688  poolKey */\n      dup10\n        /* \"wwcc-contracts/contracts/wwccPool.sol\":10673:10689  WcPools[poolKey] */\n      dup2\n      mstore\n      0x20\n      add\n      swap1\n      dup2\n      mstore\n      0x20\n      add\n      0x00\n      keccak256\n        /* \"wwcc-contracts/contracts/wwccPool.sol\":10673:10695  WcPools[poolKey].wPool */\n      0x03\n      add\n      sload\n        /* \"wwcc-contracts/contracts/wwccPool.sol\":10660:10840  PoolViewInfo(WcPools[poolKey].wPool,... */\n      dup2\n      mstore\n      0x20\n      add\n        /* \"wwcc-contracts/contracts/wwccPool.sol\":10709:10716  WcPools */\n      0x05\n        /* \"wwcc-contracts/contracts/wwccPool.sol\":10709:10725  WcPools[poolKey] */\n      0x00\n        /* \"wwcc-contracts/contracts/wwccPool.sol\":10717:10724  poolKey */\n      dup10\n        /* \"wwcc-contracts/contracts/wwccPool.sol\":10709:10725  WcPools[poolKey] */\n      dup2\n      mstore\n      0x20\n      add\n      swap1\n      dup2\n      mstore\n      0x20\n      add\n      0x00\n      keccak256\n        /* \"wwcc-contracts/contracts/wwccPool.sol\":10709:10731  WcPools[poolKey].dPool */\n      0x04\n      add\n      sload\n        /* \"wwcc-contracts/contracts/wwccPool.sol\":10660:10840  PoolViewInfo(WcPools[poolKey].wPool,... */\n      dup2\n      mstore\n      0x20\n      add\n        /* \"wwcc-contracts/contracts/wwccPool.sol\":10745:10752  WcPools */\n      0x05\n        /* \"wwcc-contracts/contracts/wwccPool.sol\":10745:10761  WcPools[poolKey] */\n      0x00\n        /* \"wwcc-contracts/contracts/wwccPool.sol\":10753:10760  poolKey */\n      dup10\n        /* \"wwcc-contracts/contracts/wwccPool.sol\":10745:10761  WcPools[poolKey] */\n      dup2\n      mstore\n      0x20\n      add\n      swap1\n      dup2\n      mstore\n      0x20\n      add\n      0x00\n      keccak256\n        /* \"wwcc-contracts/contracts/wwccPool.sol\":10745:10767  WcPools[poolKey].lPool */\n      0x05\n      add\n      sload\n        /* \"wwcc-contracts/contracts/wwccPool.sol\":10660:10840  PoolViewInfo(WcPools[poolKey].wPool,... */\n      dup2\n      mstore\n      0x20\n      add\n        /* \"wwcc-contracts/contracts/wwccPool.sol\":10781:10788  WcPools */\n      0x05\n        /* \"wwcc-contracts/contracts/wwccPool.sol\":10781:10797  WcPools[poolKey] */\n      0x00\n        /* \"wwcc-contracts/contracts/wwccPool.sol\":10789:10796  poolKey */\n      dup10\n        /* \"wwcc-contracts/contracts/wwccPool.sol\":10781:10797  WcPools[poolKey] */\n      dup2\n      mstore\n      0x20\n      add\n      swap1\n      dup2\n      mstore\n      0x20\n      add\n      0x00\n      keccak256\n        /* \"wwcc-contracts/contracts/wwccPool.sol\":10781:10803  WcPools[poolKey].sPool */\n      0x06\n      add\n      sload\n        /* \"wwcc-contracts/contracts/wwccPool.sol\":10660:10840  PoolViewInfo(WcPools[poolKey].wPool,... */\n      dup2\n      mstore\n      0x20\n      add\n        /* \"wwcc-contracts/contracts/wwccPool.sol\":10817:10824  WcPools */\n      0x05\n        /* \"wwcc-contracts/contracts/wwccPool.sol\":10817:10833  WcPools[poolKey] */\n      0x00\n        /* \"wwcc-contracts/contracts/wwccPool.sol\":10825:10832  poolKey */\n      dup10\n        /* \"wwcc-contracts/contracts/wwccPool.sol\":10817:10833  WcPools[poolKey] */\n      dup2\n      mstore\n      0x20\n      add\n      swap1\n      dup2\n      mstore\n      0x20\n      add\n      0x00\n      keccak256\n        /* \"wwcc-contracts/contracts/wwccPool.sol\":10817:10839  WcPools[poolKey].basal */\n      0x07\n      add\n      sload\n        /* \"wwcc-contracts/contracts/wwccPool.sol\":10660:10840  PoolViewInfo(WcPools[poolKey].wPool,... */\n      dup2\n      mstore\n      pop\n        /* \"wwcc-contracts/contracts/wwccPool.sol\":10635:10840  PoolViewInfo memory vi = PoolViewInfo(WcPools[poolKey].wPool,... */\n      swap1\n      pop\n        /* \"wwcc-contracts/contracts/wwccPool.sol\":10862:10864  vs */\n      dup5\n        /* \"wwcc-contracts/contracts/wwccPool.sol\":10878:10885  WcPools */\n      0x05\n        /* \"wwcc-contracts/contracts/wwccPool.sol\":10878:10894  WcPools[poolKey] */\n      0x00\n        /* \"wwcc-contracts/contracts/wwccPool.sol\":10886:10893  poolKey */\n      dup9\n        /* \"wwcc-contracts/contracts/wwccPool.sol\":10878:10894  WcPools[poolKey] */\n      dup2\n      mstore\n      0x20\n      add\n      swap1\n      dup2\n      mstore\n      0x20\n      add\n      0x00\n      keccak256\n        /* \"wwcc-contracts/contracts/wwccPool.sol\":10878:10901  WcPools[poolKey].rounds */\n      0x02\n      add\n        /* \"wwcc-contracts/contracts/wwccPool.sol\":10915:10917  vi */\n      dup3\n        /* \"wwcc-contracts/contracts/wwccPool.sol\":10854:10918  return (vs,... */\n      dup2\n      dup1\n      sload\n      tag_390\n      swap1\n      tag_111\n      jump\t// in\n    tag_390:\n      dup1\n      0x1f\n      add\n      0x20\n      dup1\n      swap2\n      div\n      mul\n      0x20\n      add\n      mload(0x40)\n      swap1\n      dup2\n      add\n      0x40\n      mstore\n      dup1\n      swap3\n      swap2\n      swap1\n      dup2\n      dup2\n      mstore\n      0x20\n      add\n      dup3\n      dup1\n      sload\n      tag_391\n      swap1\n      tag_111\n      jump\t// in\n    tag_391:\n      dup1\n      iszero\n      tag_392\n      jumpi\n      dup1\n      0x1f\n      lt\n      tag_393\n      jumpi\n      0x0100\n      dup1\n      dup4\n      sload\n      div\n      mul\n      dup4\n      mstore\n      swap2\n      0x20\n      add\n      swap2\n      jump(tag_392)\n    tag_393:\n      dup3\n      add\n      swap2\n      swap1\n      0x00\n      mstore\n      keccak256(0x00, 0x20)\n      swap1\n    tag_394:\n      dup2\n      sload\n      dup2\n      mstore\n      swap1\n      0x01\n      add\n      swap1\n      0x20\n      add\n      dup1\n      dup4\n      gt\n      tag_394\n      jumpi\n      dup3\n      swap1\n      sub\n      0x1f\n      and\n      dup3\n      add\n      swap2\n    tag_392:\n      pop\n      pop\n      pop\n      pop\n      pop\n      swap2\n      pop\n      swap5\n      pop\n      swap5\n      pop\n      swap5\n      pop\n      pop\n      pop\n        /* \"wwcc-contracts/contracts/wwccPool.sol\":10287:10935  function getPool(bytes32 poolKey) external view returns (string memory vs,string memory rounds,PoolViewInfo memory viewInfo){... */\n      swap2\n      swap4\n      swap1\n      swap3\n      pop\n      jump\t// out\n        /* \"wwcc-contracts/contracts/wwccPool.sol\":10999:11112  function contains(bytes32 poolKey) internal view returns (bool) {... */\n    tag_105:\n        /* \"wwcc-contracts/contracts/wwccPool.sol\":11057:11061  bool */\n      0x00\n        /* \"wwcc-contracts/contracts/wwccPool.sol\":11084:11091  WcPools */\n      0x05\n        /* \"wwcc-contracts/contracts/wwccPool.sol\":11084:11100  WcPools[poolKey] */\n      0x00\n        /* \"wwcc-contracts/contracts/wwccPool.sol\":11092:11099  poolKey */\n      dup4\n        /* \"wwcc-contracts/contracts/wwccPool.sol\":11084:11100  WcPools[poolKey] */\n      dup2\n      mstore\n      0x20\n      add\n      swap1\n      dup2\n      mstore\n      0x20\n      add\n      0x00\n      keccak256\n        /* \"wwcc-contracts/contracts/wwccPool.sol\":11084:11105  WcPools[poolKey].used */\n      0x08\n      add\n      0x01\n      swap1\n      sload\n      swap1\n      0x0100\n      exp\n      swap1\n      div\n      0xff\n      and\n        /* \"wwcc-contracts/contracts/wwccPool.sol\":11077:11105  return WcPools[poolKey].used */\n      swap1\n      pop\n        /* \"wwcc-contracts/contracts/wwccPool.sol\":10999:11112  function contains(bytes32 poolKey) internal view returns (bool) {... */\n      swap2\n      swap1\n      pop\n      jump\t// out\n        /* \"wwcc-contracts/contracts/wwccPool.sol\":11142:11631  function strConcat(string memory _a,string memory _b) internal pure returns (string memory){... */\n    tag_150:\n        /* \"wwcc-contracts/contracts/wwccPool.sol\":11219:11232  string memory */\n      0x60\n        /* \"wwcc-contracts/contracts/wwccPool.sol\":11247:11263  bytes memory _ba */\n      0x00\n        /* \"wwcc-contracts/contracts/wwccPool.sol\":11272:11274  _a */\n      dup4\n        /* \"wwcc-contracts/contracts/wwccPool.sol\":11247:11275  bytes memory _ba = bytes(_a) */\n      swap1\n      pop\n        /* \"wwcc-contracts/contracts/wwccPool.sol\":11289:11305  bytes memory _bb */\n      0x00\n        /* \"wwcc-contracts/contracts/wwccPool.sol\":11314:11316  _b */\n      dup4\n        /* \"wwcc-contracts/contracts/wwccPool.sol\":11289:11317  bytes memory _bb = bytes(_b) */\n      swap1\n      pop\n        /* \"wwcc-contracts/contracts/wwccPool.sol\":11331:11348  string memory ret */\n      0x00\n        /* \"wwcc-contracts/contracts/wwccPool.sol\":11375:11378  _bb */\n      dup2\n        /* \"wwcc-contracts/contracts/wwccPool.sol\":11375:11385  _bb.length */\n      mload\n        /* \"wwcc-contracts/contracts/wwccPool.sol\":11362:11365  _ba */\n      dup4\n        /* \"wwcc-contracts/contracts/wwccPool.sol\":11362:11372  _ba.length */\n      mload\n        /* \"wwcc-contracts/contracts/wwccPool.sol\":11362:11385  _ba.length + _bb.length */\n      tag_397\n      swap2\n      swap1\n      tag_22\n      jump\t// in\n    tag_397:\n        /* \"wwcc-contracts/contracts/wwccPool.sol\":11351:11386  new string(_ba.length + _bb.length) */\n      0xffffffffffffffff\n      dup2\n      gt\n      iszero\n      tag_398\n      jumpi\n      tag_399\n      tag_400\n      jump\t// in\n    tag_399:\n    tag_398:\n      mload(0x40)\n      swap1\n      dup1\n      dup3\n      mstore\n      dup1\n      0x1f\n      add\n      not(0x1f)\n      and\n      0x20\n      add\n      dup3\n      add\n      0x40\n      mstore\n      dup1\n      iszero\n      tag_401\n      jumpi\n      dup2\n      0x20\n      add\n      0x01\n      dup3\n      mul\n      dup1\n      calldatasize\n      dup4\n      calldatacopy\n      dup1\n      dup3\n      add\n      swap2\n      pop\n      pop\n      swap1\n      pop\n    tag_401:\n      pop\n        /* \"wwcc-contracts/contracts/wwccPool.sol\":11331:11386  string memory ret = new string(_ba.length + _bb.length) */\n      swap1\n      pop\n        /* \"wwcc-contracts/contracts/wwccPool.sol\":11400:11417  bytes memory bret */\n      0x00\n        /* \"wwcc-contracts/contracts/wwccPool.sol\":11426:11429  ret */\n      dup2\n        /* \"wwcc-contracts/contracts/wwccPool.sol\":11400:11430  bytes memory bret = bytes(ret) */\n      swap1\n      pop\n        /* \"wwcc-contracts/contracts/wwccPool.sol\":11444:11450  uint k */\n      0x00\n        /* \"wwcc-contracts/contracts/wwccPool.sol\":11472:11478  uint i */\n      dup1\n        /* \"wwcc-contracts/contracts/wwccPool.sol\":11468:11521  for(uint i = 0;i < _ba.length;i++) bret[k++] = _ba[i] */\n    tag_402:\n        /* \"wwcc-contracts/contracts/wwccPool.sol\":11487:11490  _ba */\n      dup6\n        /* \"wwcc-contracts/contracts/wwccPool.sol\":11487:11497  _ba.length */\n      mload\n        /* \"wwcc-contracts/contracts/wwccPool.sol\":11483:11484  i */\n      dup2\n        /* \"wwcc-contracts/contracts/wwccPool.sol\":11483:11497  i < _ba.length */\n      lt\n        /* \"wwcc-contracts/contracts/wwccPool.sol\":11468:11521  for(uint i = 0;i < _ba.length;i++) bret[k++] = _ba[i] */\n      iszero\n      tag_403\n      jumpi\n        /* \"wwcc-contracts/contracts/wwccPool.sol\":11515:11518  _ba */\n      dup6\n        /* \"wwcc-contracts/contracts/wwccPool.sol\":11519:11520  i */\n      dup2\n        /* \"wwcc-contracts/contracts/wwccPool.sol\":11515:11521  _ba[i] */\n      dup2\n      mload\n      dup2\n      lt\n      tag_405\n      jumpi\n      tag_406\n      tag_291\n      jump\t// in\n    tag_406:\n    tag_405:\n      0x20\n      add\n      add\n      mload\n      0xf8\n      shr\n      0xf8\n      shl\n        /* \"wwcc-contracts/contracts/wwccPool.sol\":11503:11507  bret */\n      dup4\n        /* \"wwcc-contracts/contracts/wwccPool.sol\":11508:11511  k++ */\n      dup4\n      dup1\n      tag_407\n      swap1\n      tag_354\n      jump\t// in\n    tag_407:\n      swap5\n      pop\n        /* \"wwcc-contracts/contracts/wwccPool.sol\":11503:11512  bret[k++] */\n      dup2\n      mload\n      dup2\n      lt\n      tag_408\n      jumpi\n      tag_409\n      tag_291\n      jump\t// in\n    tag_409:\n    tag_408:\n      0x20\n      add\n      add\n        /* \"wwcc-contracts/contracts/wwccPool.sol\":11503:11521  bret[k++] = _ba[i] */\n      swap1\n      not(0xffffffffffffffffffffffffffffffffffffffffffffffffffffffffffffff)\n      and\n      swap1\n      dup2\n      0x00\n      byte\n      swap1\n      mstore8\n      pop\n        /* \"wwcc-contracts/contracts/wwccPool.sol\":11498:11501  i++ */\n      dup1\n      dup1\n      tag_410\n      swap1\n      tag_354\n      jump\t// in\n    tag_410:\n      swap2\n      pop\n      pop\n        /* \"wwcc-contracts/contracts/wwccPool.sol\":11468:11521  for(uint i = 0;i < _ba.length;i++) bret[k++] = _ba[i] */\n      jump(tag_402)\n    tag_403:\n      pop\n        /* \"wwcc-contracts/contracts/wwccPool.sol\":11539:11545  uint i */\n      0x00\n        /* \"wwcc-contracts/contracts/wwccPool.sol\":11535:11588  for(uint i = 0;i < _bb.length;i++) bret[k++] = _bb[i] */\n    tag_411:\n        /* \"wwcc-contracts/contracts/wwccPool.sol\":11554:11557  _bb */\n      dup5\n        /* \"wwcc-contracts/contracts/wwccPool.sol\":11554:11564  _bb.length */\n      mload\n        /* \"wwcc-contracts/contracts/wwccPool.sol\":11550:11551  i */\n      dup2\n        /* \"wwcc-contracts/contracts/wwccPool.sol\":11550:11564  i < _bb.length */\n      lt\n        /* \"wwcc-contracts/contracts/wwccPool.sol\":11535:11588  for(uint i = 0;i < _bb.length;i++) bret[k++] = _bb[i] */\n      iszero\n      tag_412\n      jumpi\n        /* \"wwcc-contracts/contracts/wwccPool.sol\":11582:11585  _bb */\n      dup5\n        /* \"wwcc-contracts/contracts/wwccPool.sol\":11586:11587  i */\n      dup2\n        /* \"wwcc-contracts/contracts/wwccPool.sol\":11582:11588  _bb[i] */\n      dup2\n      mload\n      dup2\n      lt\n      tag_414\n      jumpi\n      tag_415\n      tag_291\n      jump\t// in\n    tag_415:\n    tag_414:\n      0x20\n      add\n      add\n      mload\n      0xf8\n      shr\n      0xf8\n      shl\n        /* \"wwcc-contracts/contracts/wwccPool.sol\":11570:11574  bret */\n      dup4\n        /* \"wwcc-contracts/contracts/wwccPool.sol\":11575:11578  k++ */\n      dup4\n      dup1\n      tag_416\n      swap1\n      tag_354\n      jump\t// in\n    tag_416:\n      swap5\n      pop\n        /* \"wwcc-contracts/contracts/wwccPool.sol\":11570:11579  bret[k++] */\n      dup2\n      mload\n      dup2\n      lt\n      tag_417\n      jumpi\n      tag_418\n      tag_291\n      jump\t// in\n    tag_418:\n    tag_417:\n      0x20\n      add\n      add\n        /* \"wwcc-contracts/contracts/wwccPool.sol\":11570:11588  bret[k++] = _bb[i] */\n      swap1\n      not(0xffffffffffffffffffffffffffffffffffffffffffffffffffffffffffffff)\n      and\n      swap1\n      dup2\n      0x00\n      byte\n      swap1\n      mstore8\n      pop\n        /* \"wwcc-contracts/contracts/wwccPool.sol\":11565:11568  i++ */\n      dup1\n      dup1\n      tag_419\n      swap1\n      tag_354\n      jump\t// in\n    tag_419:\n      swap2\n      pop\n      pop\n        /* \"wwcc-contracts/contracts/wwccPool.sol\":11535:11588  for(uint i = 0;i < _bb.length;i++) bret[k++] = _bb[i] */\n      jump(tag_411)\n    tag_412:\n      pop\n        /* \"wwcc-contracts/contracts/wwccPool.sol\":11616:11619  ret */\n      dup3\n        /* \"wwcc-contracts/contracts/wwccPool.sol\":11602:11620  return string(ret) */\n      swap6\n      pop\n      pop\n      pop\n      pop\n      pop\n      pop\n        /* \"wwcc-contracts/contracts/wwccPool.sol\":11142:11631  function strConcat(string memory _a,string memory _b) internal pure returns (string memory){... */\n      swap3\n      swap2\n      pop\n      pop\n      jump\t// out\n        /* \"wwcc-contracts/contracts/safemath.sol\":62:266  function mul(uint256 a, uint256 b) internal pure returns (uint256) {... */\n    tag_196:\n        /* \"wwcc-contracts/contracts/safemath.sol\":120:127  uint256 */\n      0x00\n        /* \"wwcc-contracts/contracts/safemath.sol\":148:149  0 */\n      dup1\n        /* \"wwcc-contracts/contracts/safemath.sol\":143:144  a */\n      dup4\n        /* \"wwcc-contracts/contracts/safemath.sol\":143:149  a == 0 */\n      eq\n        /* \"wwcc-contracts/contracts/safemath.sol\":139:184  if (a == 0) {... */\n      iszero\n      tag_421\n      jumpi\n        /* \"wwcc-contracts/contracts/safemath.sol\":172:173  0 */\n      0x00\n        /* \"wwcc-contracts/contracts/safemath.sol\":165:173  return 0 */\n      swap1\n      pop\n      jump(tag_420)\n        /* \"wwcc-contracts/contracts/safemath.sol\":139:184  if (a == 0) {... */\n    tag_421:\n        /* \"wwcc-contracts/contracts/safemath.sol\":195:204  uint256 c */\n      0x00\n        /* \"wwcc-contracts/contracts/safemath.sol\":211:212  b */\n      dup3\n        /* \"wwcc-contracts/contracts/safemath.sol\":207:208  a */\n      dup5\n        /* \"wwcc-contracts/contracts/safemath.sol\":207:212  a * b */\n      tag_422\n      swap2\n      swap1\n      tag_312\n      jump\t// in\n    tag_422:\n        /* \"wwcc-contracts/contracts/safemath.sol\":195:212  uint256 c = a * b */\n      swap1\n      pop\n        /* \"wwcc-contracts/contracts/safemath.sol\":239:240  b */\n      dup3\n        /* \"wwcc-contracts/contracts/safemath.sol\":234:235  a */\n      dup5\n        /* \"wwcc-contracts/contracts/safemath.sol\":230:231  c */\n      dup3\n        /* \"wwcc-contracts/contracts/safemath.sol\":230:235  c / a */\n      tag_423\n      swap2\n      swap1\n      tag_94\n      jump\t// in\n    tag_423:\n        /* \"wwcc-contracts/contracts/safemath.sol\":230:240  c / a == b */\n      eq\n        /* \"wwcc-contracts/contracts/safemath.sol\":222:241  require(c / a == b) */\n      tag_424\n      jumpi\n      0x00\n      dup1\n      revert\n    tag_424:\n        /* \"wwcc-contracts/contracts/safemath.sol\":258:259  c */\n      dup1\n        /* \"wwcc-contracts/contracts/safemath.sol\":251:259  return c */\n      swap2\n      pop\n      pop\n        /* \"wwcc-contracts/contracts/safemath.sol\":62:266  function mul(uint256 a, uint256 b) internal pure returns (uint256) {... */\n    tag_420:\n      swap3\n      swap2\n      pop\n      pop\n      jump\t// out\n        /* \"wwcc-contracts/contracts/wwccPool.sol\":11795:11924  function uint256ToString(uint256 u) internal pure returns(string memory){... */\n    tag_222:\n        /* \"wwcc-contracts/contracts/wwccPool.sol\":11853:11866  string memory */\n      0x60\n        /* \"wwcc-contracts/contracts/wwccPool.sol\":11888:11917  toString(abi.encodePacked(u)) */\n      tag_426\n        /* \"wwcc-contracts/contracts/wwccPool.sol\":11914:11915  u */\n      dup3\n        /* \"wwcc-contracts/contracts/wwccPool.sol\":11897:11916  abi.encodePacked(u) */\n      add(0x20, mload(0x40))\n      tag_427\n      swap2\n      swap1\n      tag_428\n      jump\t// in\n    tag_427:\n      mload(0x40)\n      0x20\n      dup2\n      dup4\n      sub\n      sub\n      dup2\n      mstore\n      swap1\n      0x40\n      mstore\n        /* \"wwcc-contracts/contracts/wwccPool.sol\":11888:11896  toString */\n      tag_429\n        /* \"wwcc-contracts/contracts/wwccPool.sol\":11888:11917  toString(abi.encodePacked(u)) */\n      jump\t// in\n    tag_426:\n        /* \"wwcc-contracts/contracts/wwccPool.sol\":11881:11917  return toString(abi.encodePacked(u)) */\n      swap1\n      pop\n        /* \"wwcc-contracts/contracts/wwccPool.sol\":11795:11924  function uint256ToString(uint256 u) internal pure returns(string memory){... */\n      swap2\n      swap1\n      pop\n      jump\t// out\n        /* \"wwcc-contracts/contracts/wwccPool.sol\":11929:12058  function bytes32ToString(bytes32 b) internal pure returns(string memory){... */\n    tag_226:\n        /* \"wwcc-contracts/contracts/wwccPool.sol\":11987:12000  string memory */\n      0x60\n        /* \"wwcc-contracts/contracts/wwccPool.sol\":12022:12051  toString(abi.encodePacked(b)) */\n      tag_431\n        /* \"wwcc-contracts/contracts/wwccPool.sol\":12048:12049  b */\n      dup3\n        /* \"wwcc-contracts/contracts/wwccPool.sol\":12031:12050  abi.encodePacked(b) */\n      add(0x20, mload(0x40))\n      tag_432\n      swap2\n      swap1\n      tag_433\n      jump\t// in\n    tag_432:\n      mload(0x40)\n      0x20\n      dup2\n      dup4\n      sub\n      sub\n      dup2\n      mstore\n      swap1\n      0x40\n      mstore\n        /* \"wwcc-contracts/contracts/wwccPool.sol\":12022:12030  toString */\n      tag_429\n        /* \"wwcc-contracts/contracts/wwccPool.sol\":12022:12051  toString(abi.encodePacked(b)) */\n      jump\t// in\n    tag_431:\n        /* \"wwcc-contracts/contracts/wwccPool.sol\":12015:12051  return toString(abi.encodePacked(b)) */\n      swap1\n      pop\n        /* \"wwcc-contracts/contracts/wwccPool.sol\":11929:12058  function bytes32ToString(bytes32 b) internal pure returns(string memory){... */\n      swap2\n      swap1\n      pop\n      jump\t// out\n        /* \"wwcc-contracts/contracts/wwccPool.sol\":12063:12600  function toString(bytes memory data) internal pure returns(string memory){... */\n    tag_429:\n        /* \"wwcc-contracts/contracts/wwccPool.sol\":12122:12135  string memory */\n      0x60\n        /* \"wwcc-contracts/contracts/wwccPool.sol\":12150:12171  bytes memory alphabet */\n      0x00\n        /* \"wwcc-contracts/contracts/wwccPool.sol\":12150:12242  bytes memory alphabet = \"0xed634dea044fe92f6d8c9612c3844c4951054c5417a8e35c842720c22633a04d\" */\n      mload(0x40)\n      dup1\n      0x80\n      add\n      0x40\n      mstore\n      dup1\n      0x42\n      dup2\n      mstore\n      0x20\n      add\n      data_63d529c162db78e8ed8a28913883ad9c6a8ef7b79a0d650da6d67fd958da5109\n      0x42\n      swap2\n      codecopy\n      swap1\n      pop\n        /* \"wwcc-contracts/contracts/wwccPool.sol\":12256:12272  bytes memory str */\n      0x00\n        /* \"wwcc-contracts/contracts/wwccPool.sol\":12303:12304  2 */\n      0x02\n        /* \"wwcc-contracts/contracts/wwccPool.sol\":12289:12293  data */\n      dup5\n        /* \"wwcc-contracts/contracts/wwccPool.sol\":12289:12300  data.length */\n      mload\n        /* \"wwcc-contracts/contracts/wwccPool.sol\":12289:12304  data.length * 2 */\n      tag_435\n      swap2\n      swap1\n      tag_312\n      jump\t// in\n    tag_435:\n        /* \"wwcc-contracts/contracts/wwccPool.sol\":12285:12286  2 */\n      0x02\n        /* \"wwcc-contracts/contracts/wwccPool.sol\":12285:12304  2 + data.length * 2 */\n      tag_436\n      swap2\n      swap1\n      tag_22\n      jump\t// in\n    tag_436:\n        /* \"wwcc-contracts/contracts/wwccPool.sol\":12275:12305  new bytes(2 + data.length * 2) */\n      0xffffffffffffffff\n      dup2\n      gt\n      iszero\n      tag_437\n      jumpi\n      tag_438\n      tag_400\n      jump\t// in\n    tag_438:\n    tag_437:\n      mload(0x40)\n      swap1\n      dup1\n      dup3\n      mstore\n      dup1\n      0x1f\n      add\n      not(0x1f)\n      and\n      0x20\n      add\n      dup3\n      add\n      0x40\n      mstore\n      dup1\n      iszero\n      tag_439\n      jumpi\n      dup2\n      0x20\n      add\n      0x01\n      dup3\n      mul\n      dup1\n      calldatasize\n      dup4\n      calldatacopy\n      dup1\n      dup3\n      add\n      swap2\n      pop\n      pop\n      swap1\n      pop\n    tag_439:\n      pop\n        /* \"wwcc-contracts/contracts/wwccPool.sol\":12256:12305  bytes memory str = new bytes(2 + data.length * 2) */\n      swap1\n      pop\n        /* \"wwcc-contracts/contracts/wwccPool.sol\":12319:12331  str[0] = \"0\" */\n      0x3000000000000000000000000000000000000000000000000000000000000000\n        /* \"wwcc-contracts/contracts/wwccPool.sol\":12319:12322  str */\n      dup2\n        /* \"wwcc-contracts/contracts/wwccPool.sol\":12323:12324  0 */\n      0x00\n        /* \"wwcc-contracts/contracts/wwccPool.sol\":12319:12325  str[0] */\n      dup2\n      mload\n      dup2\n      lt\n      tag_440\n      jumpi\n      tag_441\n      tag_291\n      jump\t// in\n    tag_441:\n    tag_440:\n      0x20\n      add\n      add\n        /* \"wwcc-contracts/contracts/wwccPool.sol\":12319:12331  str[0] = \"0\" */\n      swap1\n      not(0xffffffffffffffffffffffffffffffffffffffffffffffffffffffffffffff)\n      and\n      swap1\n      dup2\n      0x00\n      byte\n      swap1\n      mstore8\n      pop\n        /* \"wwcc-contracts/contracts/wwccPool.sol\":12345:12357  str[1] = \"x\" */\n      0x7800000000000000000000000000000000000000000000000000000000000000\n        /* \"wwcc-contracts/contracts/wwccPool.sol\":12345:12348  str */\n      dup2\n        /* \"wwcc-contracts/contracts/wwccPool.sol\":12349:12350  1 */\n      0x01\n        /* \"wwcc-contracts/contracts/wwccPool.sol\":12345:12351  str[1] */\n      dup2\n      mload\n      dup2\n      lt\n      tag_442\n      jumpi\n      tag_443\n      tag_291\n      jump\t// in\n    tag_443:\n    tag_442:\n      0x20\n      add\n      add\n        /* \"wwcc-contracts/contracts/wwccPool.sol\":12345:12357  str[1] = \"x\" */\n      swap1\n      not(0xffffffffffffffffffffffffffffffffffffffffffffffffffffffffffffff)\n      and\n      swap1\n      dup2\n      0x00\n      byte\n      swap1\n      mstore8\n      pop\n        /* \"wwcc-contracts/contracts/wwccPool.sol\":12375:12381  uint i */\n      0x00\n        /* \"wwcc-contracts/contracts/wwccPool.sol\":12371:12562  for(uint i =0;i < data.length;i++){... */\n    tag_444:\n        /* \"wwcc-contracts/contracts/wwccPool.sol\":12389:12393  data */\n      dup5\n        /* \"wwcc-contracts/contracts/wwccPool.sol\":12389:12400  data.length */\n      mload\n        /* \"wwcc-contracts/contracts/wwccPool.sol\":12385:12386  i */\n      dup2\n        /* \"wwcc-contracts/contracts/wwccPool.sol\":12385:12400  i < data.length */\n      lt\n        /* \"wwcc-contracts/contracts/wwccPool.sol\":12371:12562  for(uint i =0;i < data.length;i++){... */\n      iszero\n      tag_445\n      jumpi\n        /* \"wwcc-contracts/contracts/wwccPool.sol\":12440:12448  alphabet */\n      dup3\n        /* \"wwcc-contracts/contracts/wwccPool.sol\":12471:12472  4 */\n      0x04\n        /* \"wwcc-contracts/contracts/wwccPool.sol\":12460:12464  data */\n      dup7\n        /* \"wwcc-contracts/contracts/wwccPool.sol\":12465:12466  i */\n      dup4\n        /* \"wwcc-contracts/contracts/wwccPool.sol\":12460:12467  data[i] */\n      dup2\n      mload\n      dup2\n      lt\n      tag_447\n      jumpi\n      tag_448\n      tag_291\n      jump\t// in\n    tag_448:\n    tag_447:\n      0x20\n      add\n      add\n      mload\n      0xf8\n      shr\n      0xf8\n      shl\n        /* \"wwcc-contracts/contracts/wwccPool.sol\":12460:12472  data[i] >> 4 */\n      not(0xffffffffffffffffffffffffffffffffffffffffffffffffffffffffffffff)\n      and\n      swap1\n      shr\n        /* \"wwcc-contracts/contracts/wwccPool.sol\":12454:12473  uint8(data[i] >> 4) */\n      0xf8\n      shr\n        /* \"wwcc-contracts/contracts/wwccPool.sol\":12449:12474  uint(uint8(data[i] >> 4)) */\n      0xff\n      and\n        /* \"wwcc-contracts/contracts/wwccPool.sol\":12440:12475  alphabet[uint(uint8(data[i] >> 4))] */\n      dup2\n      mload\n      dup2\n      lt\n      tag_449\n      jumpi\n      tag_450\n      tag_291\n      jump\t// in\n    tag_450:\n    tag_449:\n      0x20\n      add\n      add\n      mload\n      0xf8\n      shr\n      0xf8\n      shl\n        /* \"wwcc-contracts/contracts/wwccPool.sol\":12423:12426  str */\n      dup3\n        /* \"wwcc-contracts/contracts/wwccPool.sol\":12435:12436  2 */\n      0x02\n        /* \"wwcc-contracts/contracts/wwccPool.sol\":12431:12432  i */\n      dup4\n        /* \"wwcc-contracts/contracts/wwccPool.sol\":12431:12436  i * 2 */\n      tag_451\n      swap2\n      swap1\n      tag_312\n      jump\t// in\n    tag_451:\n        /* \"wwcc-contracts/contracts/wwccPool.sol\":12427:12428  2 */\n      0x02\n        /* \"wwcc-contracts/contracts/wwccPool.sol\":12427:12436  2 + i * 2 */\n      tag_452\n      swap2\n      swap1\n      tag_22\n      jump\t// in\n    tag_452:\n        /* \"wwcc-contracts/contracts/wwccPool.sol\":12423:12437  str[2 + i * 2] */\n      dup2\n      mload\n      dup2\n      lt\n      tag_453\n      jumpi\n      tag_454\n      tag_291\n      jump\t// in\n    tag_454:\n    tag_453:\n      0x20\n      add\n      add\n        /* \"wwcc-contracts/contracts/wwccPool.sol\":12423:12475  str[2 + i * 2] = alphabet[uint(uint8(data[i] >> 4))] */\n      swap1\n      not(0xffffffffffffffffffffffffffffffffffffffffffffffffffffffffffffff)\n      and\n      swap1\n      dup2\n      0x00\n      byte\n      swap1\n      mstore8\n      pop\n        /* \"wwcc-contracts/contracts/wwccPool.sol\":12510:12518  alphabet */\n      dup3\n        /* \"wwcc-contracts/contracts/wwccPool.sol\":12540:12544  0x0f */\n      0x0f\n        /* \"wwcc-contracts/contracts/wwccPool.sol\":12530:12544  data[i] & 0x0f */\n      0xf8\n      shl\n        /* \"wwcc-contracts/contracts/wwccPool.sol\":12530:12534  data */\n      dup7\n        /* \"wwcc-contracts/contracts/wwccPool.sol\":12535:12536  i */\n      dup4\n        /* \"wwcc-contracts/contracts/wwccPool.sol\":12530:12537  data[i] */\n      dup2\n      mload\n      dup2\n      lt\n      tag_455\n      jumpi\n      tag_456\n      tag_291\n      jump\t// in\n    tag_456:\n    tag_455:\n      0x20\n      add\n      add\n      mload\n      0xf8\n      shr\n      0xf8\n      shl\n        /* \"wwcc-contracts/contracts/wwccPool.sol\":12530:12544  data[i] & 0x0f */\n      and\n        /* \"wwcc-contracts/contracts/wwccPool.sol\":12524:12545  uint8(data[i] & 0x0f) */\n      0xf8\n      shr\n        /* \"wwcc-contracts/contracts/wwccPool.sol\":12519:12546  uint(uint8(data[i] & 0x0f)) */\n      0xff\n      and\n        /* \"wwcc-contracts/contracts/wwccPool.sol\":12510:12547  alphabet[uint(uint8(data[i] & 0x0f))] */\n      dup2\n      mload\n      dup2\n      lt\n      tag_457\n      jumpi\n      tag_458\n      tag_291\n      jump\t// in\n    tag_458:\n    tag_457:\n      0x20\n      add\n      add\n      mload\n      0xf8\n      shr\n      0xf8\n      shl\n        /* \"wwcc-contracts/contracts/wwccPool.sol\":12493:12496  str */\n      dup3\n        /* \"wwcc-contracts/contracts/wwccPool.sol\":12505:12506  2 */\n      0x02\n        /* \"wwcc-contracts/contracts/wwccPool.sol\":12501:12502  i */\n      dup4\n        /* \"wwcc-contracts/contracts/wwccPool.sol\":12501:12506  i * 2 */\n      tag_459\n      swap2\n      swap1\n      tag_312\n      jump\t// in\n    tag_459:\n        /* \"wwcc-contracts/contracts/wwccPool.sol\":12497:12498  3 */\n      0x03\n        /* \"wwcc-contracts/contracts/wwccPool.sol\":12497:12506  3 + i * 2 */\n      tag_460\n      swap2\n      swap1\n      tag_22\n      jump\t// in\n    tag_460:\n        /* \"wwcc-contracts/contracts/wwccPool.sol\":12493:12507  str[3 + i * 2] */\n      dup2\n      mload\n      dup2\n      lt\n      tag_461\n      jumpi\n      tag_462\n      tag_291\n      jump\t// in\n    tag_462:\n    tag_461:\n      0x20\n      add\n      add\n        /* \"wwcc-contracts/contracts/wwccPool.sol\":12493:12547  str[3 + i * 2] = alphabet[uint(uint8(data[i] & 0x0f))] */\n      swap1\n      not(0xffffffffffffffffffffffffffffffffffffffffffffffffffffffffffffff)\n      and\n      swap1\n      dup2\n      0x00\n      byte\n      swap1\n      mstore8\n      pop\n        /* \"wwcc-contracts/contracts/wwccPool.sol\":12401:12404  i++ */\n      dup1\n      dup1\n      tag_463\n      swap1\n      tag_354\n      jump\t// in\n    tag_463:\n      swap2\n      pop\n      pop\n        /* \"wwcc-contracts/contracts/wwccPool.sol\":12371:12562  for(uint i =0;i < data.length;i++){... */\n      jump(tag_444)\n    tag_445:\n      pop\n        /* \"wwcc-contracts/contracts/wwccPool.sol\":12589:12592  str */\n      dup1\n        /* \"wwcc-contracts/contracts/wwccPool.sol\":12575:12593  return string(str) */\n      swap3\n      pop\n      pop\n      pop\n        /* \"wwcc-contracts/contracts/wwccPool.sol\":12063:12600  function toString(bytes memory data) internal pure returns(string memory){... */\n      swap2\n      swap1\n      pop\n      jump\t// out\n    tag_160:\n      dup3\n      dup1\n      sload\n      tag_464\n      swap1\n      tag_111\n      jump\t// in\n    tag_464:\n      swap1\n      0x00\n      mstore\n      keccak256(0x00, 0x20)\n      swap1\n      0x1f\n      add\n      0x20\n      swap1\n      div\n      dup2\n      add\n      swap3\n      dup3\n      tag_466\n      jumpi\n      0x00\n      dup6\n      sstore\n      jump(tag_465)\n    tag_466:\n      dup3\n      0x1f\n      lt\n      tag_467\n      jumpi\n      dup1\n      mload\n      not(0xff)\n      and\n      dup4\n      dup1\n      add\n      or\n      dup6\n      sstore\n      jump(tag_465)\n    tag_467:\n      dup3\n      dup1\n      add\n      0x01\n      add\n      dup6\n      sstore\n      dup3\n      iszero\n      tag_465\n      jumpi\n      swap2\n      dup3\n      add\n    tag_468:\n      dup3\n      dup2\n      gt\n      iszero\n      tag_469\n      jumpi\n      dup3\n      mload\n      dup3\n      sstore\n      swap2\n      0x20\n      add\n      swap2\n      swap1\n      0x01\n      add\n      swap1\n      jump(tag_468)\n    tag_469:\n    tag_465:\n      pop\n      swap1\n      pop\n      tag_470\n      swap2\n      swap1\n      tag_471\n      jump\t// in\n    tag_470:\n      pop\n      swap1\n      jump\t// out\n    tag_371:\n      mload(0x40)\n      dup1\n      0xa0\n      add\n      0x40\n      mstore\n      dup1\n      0x00\n      dup2\n      mstore\n      0x20\n      add\n      0x00\n      dup2\n      mstore\n      0x20\n      add\n      0x00\n      dup2\n      mstore\n      0x20\n      add\n      0x00\n      dup2\n      mstore\n      0x20\n      add\n      0x00\n      dup2\n      mstore\n      pop\n      swap1\n      jump\t// out\n    tag_471:\n    tag_472:\n      dup1\n      dup3\n      gt\n      iszero\n      tag_473\n      jumpi\n      0x00\n      dup2\n      0x00\n      swap1\n      sstore\n      pop\n      0x01\n      add\n      jump(tag_472)\n    tag_473:\n      pop\n      swap1\n      jump\t// out\n        /* \"#utility.yul\":7:419   */\n    tag_475:\n        /* \"#utility.yul\":85:90   */\n      0x00\n        /* \"#utility.yul\":110:176   */\n      tag_477\n        /* \"#utility.yul\":126:175   */\n      tag_478\n        /* \"#utility.yul\":168:174   */\n      dup5\n        /* \"#utility.yul\":126:175   */\n      tag_479\n      jump\t// in\n    tag_478:\n        /* \"#utility.yul\":110:176   */\n      tag_480\n      jump\t// in\n    tag_477:\n        /* \"#utility.yul\":101:176   */\n      swap1\n      pop\n        /* \"#utility.yul\":199:205   */\n      dup3\n        /* \"#utility.yul\":192:197   */\n      dup2\n        /* \"#utility.yul\":185:206   */\n      mstore\n        /* \"#utility.yul\":237:241   */\n      0x20\n        /* \"#utility.yul\":230:235   */\n      dup2\n        /* \"#utility.yul\":226:242   */\n      add\n        /* \"#utility.yul\":275:278   */\n      dup5\n        /* \"#utility.yul\":266:272   */\n      dup5\n        /* \"#utility.yul\":261:264   */\n      dup5\n        /* \"#utility.yul\":257:273   */\n      add\n        /* \"#utility.yul\":254:279   */\n      gt\n        /* \"#utility.yul\":251:363   */\n      iszero\n      tag_481\n      jumpi\n        /* \"#utility.yul\":282:361   */\n      tag_482\n      tag_483\n      jump\t// in\n    tag_482:\n        /* \"#utility.yul\":251:363   */\n    tag_481:\n        /* \"#utility.yul\":372:413   */\n      tag_484\n        /* \"#utility.yul\":406:412   */\n      dup5\n        /* \"#utility.yul\":401:404   */\n      dup3\n        /* \"#utility.yul\":396:399   */\n      dup6\n        /* \"#utility.yul\":372:413   */\n      tag_485\n      jump\t// in\n    tag_484:\n        /* \"#utility.yul\":91:419   */\n      pop\n        /* \"#utility.yul\":7:419   */\n      swap4\n      swap3\n      pop\n      pop\n      pop\n      jump\t// out\n        /* \"#utility.yul\":425:564   */\n    tag_486:\n        /* \"#utility.yul\":471:476   */\n      0x00\n        /* \"#utility.yul\":509:515   */\n      dup2\n        /* \"#utility.yul\":496:516   */\n      calldataload\n        /* \"#utility.yul\":487:516   */\n      swap1\n      pop\n        /* \"#utility.yul\":525:558   */\n      tag_488\n        /* \"#utility.yul\":552:557   */\n      dup2\n        /* \"#utility.yul\":525:558   */\n      tag_489\n      jump\t// in\n    tag_488:\n        /* \"#utility.yul\":425:564   */\n      swap3\n      swap2\n      pop\n      pop\n      jump\t// out\n        /* \"#utility.yul\":570:703   */\n    tag_490:\n        /* \"#utility.yul\":613:618   */\n      0x00\n        /* \"#utility.yul\":651:657   */\n      dup2\n        /* \"#utility.yul\":638:658   */\n      calldataload\n        /* \"#utility.yul\":629:658   */\n      swap1\n      pop\n        /* \"#utility.yul\":667:697   */\n      tag_492\n        /* \"#utility.yul\":691:696   */\n      dup2\n        /* \"#utility.yul\":667:697   */\n      tag_493\n      jump\t// in\n    tag_492:\n        /* \"#utility.yul\":570:703   */\n      swap3\n      swap2\n      pop\n      pop\n      jump\t// out\n        /* \"#utility.yul\":709:848   */\n    tag_494:\n        /* \"#utility.yul\":755:760   */\n      0x00\n        /* \"#utility.yul\":793:799   */\n      dup2\n        /* \"#utility.yul\":780:800   */\n      calldataload\n        /* \"#utility.yul\":771:800   */\n      swap1\n      pop\n        /* \"#utility.yul\":809:842   */\n      tag_496\n        /* \"#utility.yul\":836:841   */\n      dup2\n        /* \"#utility.yul\":809:842   */\n      tag_497\n      jump\t// in\n    tag_496:\n        /* \"#utility.yul\":709:848   */\n      swap3\n      swap2\n      pop\n      pop\n      jump\t// out\n        /* \"#utility.yul\":868:1208   */\n    tag_498:\n        /* \"#utility.yul\":924:929   */\n      0x00\n        /* \"#utility.yul\":973:976   */\n      dup3\n        /* \"#utility.yul\":966:970   */\n      0x1f\n        /* \"#utility.yul\":958:964   */\n      dup4\n        /* \"#utility.yul\":954:971   */\n      add\n        /* \"#utility.yul\":950:977   */\n      slt\n        /* \"#utility.yul\":940:1062   */\n      tag_500\n      jumpi\n        /* \"#utility.yul\":981:1060   */\n      tag_501\n      tag_502\n      jump\t// in\n    tag_501:\n        /* \"#utility.yul\":940:1062   */\n    tag_500:\n        /* \"#utility.yul\":1098:1104   */\n      dup2\n        /* \"#utility.yul\":1085:1105   */\n      calldataload\n        /* \"#utility.yul\":1123:1202   */\n      tag_503\n        /* \"#utility.yul\":1198:1201   */\n      dup5\n        /* \"#utility.yul\":1190:1196   */\n      dup3\n        /* \"#utility.yul\":1183:1187   */\n      0x20\n        /* \"#utility.yul\":1175:1181   */\n      dup7\n        /* \"#utility.yul\":1171:1188   */\n      add\n        /* \"#utility.yul\":1123:1202   */\n      tag_475\n      jump\t// in\n    tag_503:\n        /* \"#utility.yul\":1114:1202   */\n      swap2\n      pop\n        /* \"#utility.yul\":930:1208   */\n      pop\n        /* \"#utility.yul\":868:1208   */\n      swap3\n      swap2\n      pop\n      pop\n      jump\t// out\n        /* \"#utility.yul\":1214:1353   */\n    tag_504:\n        /* \"#utility.yul\":1260:1265   */\n      0x00\n        /* \"#utility.yul\":1298:1304   */\n      dup2\n        /* \"#utility.yul\":1285:1305   */\n      calldataload\n        /* \"#utility.yul\":1276:1305   */\n      swap1\n      pop\n        /* \"#utility.yul\":1314:1347   */\n      tag_506\n        /* \"#utility.yul\":1341:1346   */\n      dup2\n        /* \"#utility.yul\":1314:1347   */\n      tag_507\n      jump\t// in\n    tag_506:\n        /* \"#utility.yul\":1214:1353   */\n      swap3\n      swap2\n      pop\n      pop\n      jump\t// out\n        /* \"#utility.yul\":1359:1688   */\n    tag_40:\n        /* \"#utility.yul\":1418:1424   */\n      0x00\n        /* \"#utility.yul\":1467:1469   */\n      0x20\n        /* \"#utility.yul\":1455:1464   */\n      dup3\n        /* \"#utility.yul\":1446:1453   */\n      dup5\n        /* \"#utility.yul\":1442:1465   */\n      sub\n        /* \"#utility.yul\":1438:1470   */\n      slt\n        /* \"#utility.yul\":1435:1554   */\n      iszero\n      tag_509\n      jumpi\n        /* \"#utility.yul\":1473:1552   */\n      tag_510\n      tag_511\n      jump\t// in\n    tag_510:\n        /* \"#utility.yul\":1435:1554   */\n    tag_509:\n        /* \"#utility.yul\":1593:1594   */\n      0x00\n        /* \"#utility.yul\":1618:1671   */\n      tag_512\n        /* \"#utility.yul\":1663:1670   */\n      dup5\n        /* \"#utility.yul\":1654:1660   */\n      dup3\n        /* \"#utility.yul\":1643:1652   */\n      dup6\n        /* \"#utility.yul\":1639:1661   */\n      add\n        /* \"#utility.yul\":1618:1671   */\n      tag_486\n      jump\t// in\n    tag_512:\n        /* \"#utility.yul\":1608:1671   */\n      swap2\n      pop\n        /* \"#utility.yul\":1564:1681   */\n      pop\n        /* \"#utility.yul\":1359:1688   */\n      swap3\n      swap2\n      pop\n      pop\n      jump\t// out\n        /* \"#utility.yul\":1694:2168   */\n    tag_34:\n        /* \"#utility.yul\":1762:1768   */\n      0x00\n        /* \"#utility.yul\":1770:1776   */\n      dup1\n        /* \"#utility.yul\":1819:1821   */\n      0x40\n        /* \"#utility.yul\":1807:1816   */\n      dup4\n        /* \"#utility.yul\":1798:1805   */\n      dup6\n        /* \"#utility.yul\":1794:1817   */\n      sub\n        /* \"#utility.yul\":1790:1822   */\n      slt\n        /* \"#utility.yul\":1787:1906   */\n      iszero\n      tag_514\n      jumpi\n        /* \"#utility.yul\":1825:1904   */\n      tag_515\n      tag_511\n      jump\t// in\n    tag_515:\n        /* \"#utility.yul\":1787:1906   */\n    tag_514:\n        /* \"#utility.yul\":1945:1946   */\n      0x00\n        /* \"#utility.yul\":1970:2023   */\n      tag_516\n        /* \"#utility.yul\":2015:2022   */\n      dup6\n        /* \"#utility.yul\":2006:2012   */\n      dup3\n        /* \"#utility.yul\":1995:2004   */\n      dup7\n        /* \"#utility.yul\":1991:2013   */\n      add\n        /* \"#utility.yul\":1970:2023   */\n      tag_486\n      jump\t// in\n    tag_516:\n        /* \"#utility.yul\":1960:2023   */\n      swap3\n      pop\n        /* \"#utility.yul\":1916:2033   */\n      pop\n        /* \"#utility.yul\":2072:2074   */\n      0x20\n        /* \"#utility.yul\":2098:2151   */\n      tag_517\n        /* \"#utility.yul\":2143:2150   */\n      dup6\n        /* \"#utility.yul\":2134:2140   */\n      dup3\n        /* \"#utility.yul\":2123:2132   */\n      dup7\n        /* \"#utility.yul\":2119:2141   */\n      add\n        /* \"#utility.yul\":2098:2151   */\n      tag_494\n      jump\t// in\n    tag_517:\n        /* \"#utility.yul\":2088:2151   */\n      swap2\n      pop\n        /* \"#utility.yul\":2043:2161   */\n      pop\n        /* \"#utility.yul\":1694:2168   */\n      swap3\n      pop\n      swap3\n      swap1\n      pop\n      jump\t// out\n        /* \"#utility.yul\":2174:2648   */\n    tag_73:\n        /* \"#utility.yul\":2242:2248   */\n      0x00\n        /* \"#utility.yul\":2250:2256   */\n      dup1\n        /* \"#utility.yul\":2299:2301   */\n      0x40\n        /* \"#utility.yul\":2287:2296   */\n      dup4\n        /* \"#utility.yul\":2278:2285   */\n      dup6\n        /* \"#utility.yul\":2274:2297   */\n      sub\n        /* \"#utility.yul\":2270:2302   */\n      slt\n        /* \"#utility.yul\":2267:2386   */\n      iszero\n      tag_519\n      jumpi\n        /* \"#utility.yul\":2305:2384   */\n      tag_520\n      tag_511\n      jump\t// in\n    tag_520:\n        /* \"#utility.yul\":2267:2386   */\n    tag_519:\n        /* \"#utility.yul\":2425:2426   */\n      0x00\n        /* \"#utility.yul\":2450:2503   */\n      tag_521\n        /* \"#utility.yul\":2495:2502   */\n      dup6\n        /* \"#utility.yul\":2486:2492   */\n      dup3\n        /* \"#utility.yul\":2475:2484   */\n      dup7\n        /* \"#utility.yul\":2471:2493   */\n      add\n        /* \"#utility.yul\":2450:2503   */\n      tag_486\n      jump\t// in\n    tag_521:\n        /* \"#utility.yul\":2440:2503   */\n      swap3\n      pop\n        /* \"#utility.yul\":2396:2513   */\n      pop\n        /* \"#utility.yul\":2552:2554   */\n      0x20\n        /* \"#utility.yul\":2578:2631   */\n      tag_522\n        /* \"#utility.yul\":2623:2630   */\n      dup6\n        /* \"#utility.yul\":2614:2620   */\n      dup3\n        /* \"#utility.yul\":2603:2612   */\n      dup7\n        /* \"#utility.yul\":2599:2621   */\n      add\n        /* \"#utility.yul\":2578:2631   */\n      tag_504\n      jump\t// in\n    tag_522:\n        /* \"#utility.yul\":2568:2631   */\n      swap2\n      pop\n        /* \"#utility.yul\":2523:2641   */\n      pop\n        /* \"#utility.yul\":2174:2648   */\n      swap3\n      pop\n      swap3\n      swap1\n      pop\n      jump\t// out\n        /* \"#utility.yul\":2654:3711   */\n    tag_63:\n        /* \"#utility.yul\":2758:2764   */\n      0x00\n        /* \"#utility.yul\":2766:2772   */\n      dup1\n        /* \"#utility.yul\":2774:2780   */\n      0x00\n        /* \"#utility.yul\":2782:2788   */\n      dup1\n        /* \"#utility.yul\":2790:2796   */\n      0x00\n        /* \"#utility.yul\":2798:2804   */\n      dup1\n        /* \"#utility.yul\":2847:2850   */\n      0xc0\n        /* \"#utility.yul\":2835:2844   */\n      dup8\n        /* \"#utility.yul\":2826:2833   */\n      dup10\n        /* \"#utility.yul\":2822:2845   */\n      sub\n        /* \"#utility.yul\":2818:2851   */\n      slt\n        /* \"#utility.yul\":2815:2935   */\n      iszero\n      tag_524\n      jumpi\n        /* \"#utility.yul\":2854:2933   */\n      tag_525\n      tag_511\n      jump\t// in\n    tag_525:\n        /* \"#utility.yul\":2815:2935   */\n    tag_524:\n        /* \"#utility.yul\":2974:2975   */\n      0x00\n        /* \"#utility.yul\":2999:3052   */\n      tag_526\n        /* \"#utility.yul\":3044:3051   */\n      dup10\n        /* \"#utility.yul\":3035:3041   */\n      dup3\n        /* \"#utility.yul\":3024:3033   */\n      dup11\n        /* \"#utility.yul\":3020:3042   */\n      add\n        /* \"#utility.yul\":2999:3052   */\n      tag_486\n      jump\t// in\n    tag_526:\n        /* \"#utility.yul\":2989:3052   */\n      swap7\n      pop\n        /* \"#utility.yul\":2945:3062   */\n      pop\n        /* \"#utility.yul\":3101:3103   */\n      0x20\n        /* \"#utility.yul\":3127:3180   */\n      tag_527\n        /* \"#utility.yul\":3172:3179   */\n      dup10\n        /* \"#utility.yul\":3163:3169   */\n      dup3\n        /* \"#utility.yul\":3152:3161   */\n      dup11\n        /* \"#utility.yul\":3148:3170   */\n      add\n        /* \"#utility.yul\":3127:3180   */\n      tag_504\n      jump\t// in\n    tag_527:\n        /* \"#utility.yul\":3117:3180   */\n      swap6\n      pop\n        /* \"#utility.yul\":3072:3190   */\n      pop\n        /* \"#utility.yul\":3229:3231   */\n      0x40\n        /* \"#utility.yul\":3255:3308   */\n      tag_528\n        /* \"#utility.yul\":3300:3307   */\n      dup10\n        /* \"#utility.yul\":3291:3297   */\n      dup3\n        /* \"#utility.yul\":3280:3289   */\n      dup11\n        /* \"#utility.yul\":3276:3298   */\n      add\n        /* \"#utility.yul\":3255:3308   */\n      tag_494\n      jump\t// in\n    tag_528:\n        /* \"#utility.yul\":3245:3308   */\n      swap5\n      pop\n        /* \"#utility.yul\":3200:3318   */\n      pop\n        /* \"#utility.yul\":3357:3359   */\n      0x60\n        /* \"#utility.yul\":3383:3436   */\n      tag_529\n        /* \"#utility.yul\":3428:3435   */\n      dup10\n        /* \"#utility.yul\":3419:3425   */\n      dup3\n        /* \"#utility.yul\":3408:3417   */\n      dup11\n        /* \"#utility.yul\":3404:3426   */\n      add\n        /* \"#utility.yul\":3383:3436   */\n      tag_504\n      jump\t// in\n    tag_529:\n        /* \"#utility.yul\":3373:3436   */\n      swap4\n      pop\n        /* \"#utility.yul\":3328:3446   */\n      pop\n        /* \"#utility.yul\":3485:3488   */\n      0x80\n        /* \"#utility.yul\":3512:3565   */\n      tag_530\n        /* \"#utility.yul\":3557:3564   */\n      dup10\n        /* \"#utility.yul\":3548:3554   */\n      dup3\n        /* \"#utility.yul\":3537:3546   */\n      dup11\n        /* \"#utility.yul\":3533:3555   */\n      add\n        /* \"#utility.yul\":3512:3565   */\n      tag_504\n      jump\t// in\n    tag_530:\n        /* \"#utility.yul\":3502:3565   */\n      swap3\n      pop\n        /* \"#utility.yul\":3456:3575   */\n      pop\n        /* \"#utility.yul\":3614:3617   */\n      0xa0\n        /* \"#utility.yul\":3641:3694   */\n      tag_531\n        /* \"#utility.yul\":3686:3693   */\n      dup10\n        /* \"#utility.yul\":3677:3683   */\n      dup3\n        /* \"#utility.yul\":3666:3675   */\n      dup11\n        /* \"#utility.yul\":3662:3684   */\n      add\n        /* \"#utility.yul\":3641:3694   */\n      tag_504\n      jump\t// in\n    tag_531:\n        /* \"#utility.yul\":3631:3694   */\n      swap2\n      pop\n        /* \"#utility.yul\":3585:3704   */\n      pop\n        /* \"#utility.yul\":2654:3711   */\n      swap3\n      swap6\n      pop\n      swap3\n      swap6\n      pop\n      swap3\n      swap6\n      jump\t// out\n        /* \"#utility.yul\":3717:4046   */\n    tag_57:\n        /* \"#utility.yul\":3776:3782   */\n      0x00\n        /* \"#utility.yul\":3825:3827   */\n      0x20\n        /* \"#utility.yul\":3813:3822   */\n      dup3\n        /* \"#utility.yul\":3804:3811   */\n      dup5\n        /* \"#utility.yul\":3800:3823   */\n      sub\n        /* \"#utility.yul\":3796:3828   */\n      slt\n        /* \"#utility.yul\":3793:3912   */\n      iszero\n      tag_533\n      jumpi\n        /* \"#utility.yul\":3831:3910   */\n      tag_534\n      tag_511\n      jump\t// in\n    tag_534:\n        /* \"#utility.yul\":3793:3912   */\n    tag_533:\n        /* \"#utility.yul\":3951:3952   */\n      0x00\n        /* \"#utility.yul\":3976:4029   */\n      tag_535\n        /* \"#utility.yul\":4021:4028   */\n      dup5\n        /* \"#utility.yul\":4012:4018   */\n      dup3\n        /* \"#utility.yul\":4001:4010   */\n      dup6\n        /* \"#utility.yul\":3997:4019   */\n      add\n        /* \"#utility.yul\":3976:4029   */\n      tag_494\n      jump\t// in\n    tag_535:\n        /* \"#utility.yul\":3966:4029   */\n      swap2\n      pop\n        /* \"#utility.yul\":3922:4039   */\n      pop\n        /* \"#utility.yul\":3717:4046   */\n      swap3\n      swap2\n      pop\n      pop\n      jump\t// out\n        /* \"#utility.yul\":4052:4817   */\n    tag_68:\n        /* \"#utility.yul\":4138:4144   */\n      0x00\n        /* \"#utility.yul\":4146:4152   */\n      dup1\n        /* \"#utility.yul\":4154:4160   */\n      0x00\n        /* \"#utility.yul\":4162:4168   */\n      dup1\n        /* \"#utility.yul\":4211:4214   */\n      0x80\n        /* \"#utility.yul\":4199:4208   */\n      dup6\n        /* \"#utility.yul\":4190:4197   */\n      dup8\n        /* \"#utility.yul\":4186:4209   */\n      sub\n        /* \"#utility.yul\":4182:4215   */\n      slt\n        /* \"#utility.yul\":4179:4299   */\n      iszero\n      tag_537\n      jumpi\n        /* \"#utility.yul\":4218:4297   */\n      tag_538\n      tag_511\n      jump\t// in\n    tag_538:\n        /* \"#utility.yul\":4179:4299   */\n    tag_537:\n        /* \"#utility.yul\":4338:4339   */\n      0x00\n        /* \"#utility.yul\":4363:4416   */\n      tag_539\n        /* \"#utility.yul\":4408:4415   */\n      dup8\n        /* \"#utility.yul\":4399:4405   */\n      dup3\n        /* \"#utility.yul\":4388:4397   */\n      dup9\n        /* \"#utility.yul\":4384:4406   */\n      add\n        /* \"#utility.yul\":4363:4416   */\n      tag_494\n      jump\t// in\n    tag_539:\n        /* \"#utility.yul\":4353:4416   */\n      swap5\n      pop\n        /* \"#utility.yul\":4309:4426   */\n      pop\n        /* \"#utility.yul\":4465:4467   */\n      0x20\n        /* \"#utility.yul\":4491:4544   */\n      tag_540\n        /* \"#utility.yul\":4536:4543   */\n      dup8\n        /* \"#utility.yul\":4527:4533   */\n      dup3\n        /* \"#utility.yul\":4516:4525   */\n      dup9\n        /* \"#utility.yul\":4512:4534   */\n      add\n        /* \"#utility.yul\":4491:4544   */\n      tag_504\n      jump\t// in\n    tag_540:\n        /* \"#utility.yul\":4481:4544   */\n      swap4\n      pop\n        /* \"#utility.yul\":4436:4554   */\n      pop\n        /* \"#utility.yul\":4593:4595   */\n      0x40\n        /* \"#utility.yul\":4619:4672   */\n      tag_541\n        /* \"#utility.yul\":4664:4671   */\n      dup8\n        /* \"#utility.yul\":4655:4661   */\n      dup3\n        /* \"#utility.yul\":4644:4653   */\n      dup9\n        /* \"#utility.yul\":4640:4662   */\n      add\n        /* \"#utility.yul\":4619:4672   */\n      tag_504\n      jump\t// in\n    tag_541:\n        /* \"#utility.yul\":4609:4672   */\n      swap3\n      pop\n        /* \"#utility.yul\":4564:4682   */\n      pop\n        /* \"#utility.yul\":4721:4723   */\n      0x60\n        /* \"#utility.yul\":4747:4800   */\n      tag_542\n        /* \"#utility.yul\":4792:4799   */\n      dup8\n        /* \"#utility.yul\":4783:4789   */\n      dup3\n        /* \"#utility.yul\":4772:4781   */\n      dup9\n        /* \"#utility.yul\":4768:4790   */\n      add\n        /* \"#utility.yul\":4747:4800   */\n      tag_504\n      jump\t// in\n    tag_542:\n        /* \"#utility.yul\":4737:4800   */\n      swap2\n      pop\n        /* \"#utility.yul\":4692:4810   */\n      pop\n        /* \"#utility.yul\":4052:4817   */\n      swap3\n      swap6\n      swap2\n      swap5\n      pop\n      swap3\n      pop\n      jump\t// out\n        /* \"#utility.yul\":4823:6122   */\n    tag_46:\n        /* \"#utility.yul\":4936:4942   */\n      0x00\n        /* \"#utility.yul\":4944:4950   */\n      dup1\n        /* \"#utility.yul\":4952:4958   */\n      0x00\n        /* \"#utility.yul\":4960:4966   */\n      dup1\n        /* \"#utility.yul\":5009:5012   */\n      0x80\n        /* \"#utility.yul\":4997:5006   */\n      dup6\n        /* \"#utility.yul\":4988:4995   */\n      dup8\n        /* \"#utility.yul\":4984:5007   */\n      sub\n        /* \"#utility.yul\":4980:5013   */\n      slt\n        /* \"#utility.yul\":4977:5097   */\n      iszero\n      tag_544\n      jumpi\n        /* \"#utility.yul\":5016:5095   */\n      tag_545\n      tag_511\n      jump\t// in\n    tag_545:\n        /* \"#utility.yul\":4977:5097   */\n    tag_544:\n        /* \"#utility.yul\":5164:5165   */\n      0x00\n        /* \"#utility.yul\":5153:5162   */\n      dup6\n        /* \"#utility.yul\":5149:5166   */\n      add\n        /* \"#utility.yul\":5136:5167   */\n      calldataload\n        /* \"#utility.yul\":5194:5212   */\n      0xffffffffffffffff\n        /* \"#utility.yul\":5186:5192   */\n      dup2\n        /* \"#utility.yul\":5183:5213   */\n      gt\n        /* \"#utility.yul\":5180:5297   */\n      iszero\n      tag_546\n      jumpi\n        /* \"#utility.yul\":5216:5295   */\n      tag_547\n      tag_548\n      jump\t// in\n    tag_547:\n        /* \"#utility.yul\":5180:5297   */\n    tag_546:\n        /* \"#utility.yul\":5321:5384   */\n      tag_549\n        /* \"#utility.yul\":5376:5383   */\n      dup8\n        /* \"#utility.yul\":5367:5373   */\n      dup3\n        /* \"#utility.yul\":5356:5365   */\n      dup9\n        /* \"#utility.yul\":5352:5374   */\n      add\n        /* \"#utility.yul\":5321:5384   */\n      tag_498\n      jump\t// in\n    tag_549:\n        /* \"#utility.yul\":5311:5384   */\n      swap5\n      pop\n        /* \"#utility.yul\":5107:5394   */\n      pop\n        /* \"#utility.yul\":5461:5463   */\n      0x20\n        /* \"#utility.yul\":5450:5459   */\n      dup6\n        /* \"#utility.yul\":5446:5464   */\n      add\n        /* \"#utility.yul\":5433:5465   */\n      calldataload\n        /* \"#utility.yul\":5492:5510   */\n      0xffffffffffffffff\n        /* \"#utility.yul\":5484:5490   */\n      dup2\n        /* \"#utility.yul\":5481:5511   */\n      gt\n        /* \"#utility.yul\":5478:5595   */\n      iszero\n      tag_550\n      jumpi\n        /* \"#utility.yul\":5514:5593   */\n      tag_551\n      tag_548\n      jump\t// in\n    tag_551:\n        /* \"#utility.yul\":5478:5595   */\n    tag_550:\n        /* \"#utility.yul\":5619:5682   */\n      tag_552\n        /* \"#utility.yul\":5674:5681   */\n      dup8\n        /* \"#utility.yul\":5665:5671   */\n      dup3\n        /* \"#utility.yul\":5654:5663   */\n      dup9\n        /* \"#utility.yul\":5650:5672   */\n      add\n        /* \"#utility.yul\":5619:5682   */\n      tag_498\n      jump\t// in\n    tag_552:\n        /* \"#utility.yul\":5609:5682   */\n      swap4\n      pop\n        /* \"#utility.yul\":5404:5692   */\n      pop\n        /* \"#utility.yul\":5759:5761   */\n      0x40\n        /* \"#utility.yul\":5748:5757   */\n      dup6\n        /* \"#utility.yul\":5744:5762   */\n      add\n        /* \"#utility.yul\":5731:5763   */\n      calldataload\n        /* \"#utility.yul\":5790:5808   */\n      0xffffffffffffffff\n        /* \"#utility.yul\":5782:5788   */\n      dup2\n        /* \"#utility.yul\":5779:5809   */\n      gt\n        /* \"#utility.yul\":5776:5893   */\n      iszero\n      tag_553\n      jumpi\n        /* \"#utility.yul\":5812:5891   */\n      tag_554\n      tag_548\n      jump\t// in\n    tag_554:\n        /* \"#utility.yul\":5776:5893   */\n    tag_553:\n        /* \"#utility.yul\":5917:5980   */\n      tag_555\n        /* \"#utility.yul\":5972:5979   */\n      dup8\n        /* \"#utility.yul\":5963:5969   */\n      dup3\n        /* \"#utility.yul\":5952:5961   */\n      dup9\n        /* \"#utility.yul\":5948:5970   */\n      add\n        /* \"#utility.yul\":5917:5980   */\n      tag_498\n      jump\t// in\n    tag_555:\n        /* \"#utility.yul\":5907:5980   */\n      swap3\n      pop\n        /* \"#utility.yul\":5702:5990   */\n      pop\n        /* \"#utility.yul\":6029:6031   */\n      0x60\n        /* \"#utility.yul\":6055:6105   */\n      tag_556\n        /* \"#utility.yul\":6097:6104   */\n      dup8\n        /* \"#utility.yul\":6088:6094   */\n      dup3\n        /* \"#utility.yul\":6077:6086   */\n      dup9\n        /* \"#utility.yul\":6073:6095   */\n      add\n        /* \"#utility.yul\":6055:6105   */\n      tag_490\n      jump\t// in\n    tag_556:\n        /* \"#utility.yul\":6045:6105   */\n      swap2\n      pop\n        /* \"#utility.yul\":6000:6115   */\n      pop\n        /* \"#utility.yul\":4823:6122   */\n      swap3\n      swap6\n      swap2\n      swap5\n      pop\n      swap3\n      pop\n      jump\t// out\n        /* \"#utility.yul\":6128:6307   */\n    tag_557:\n        /* \"#utility.yul\":6197:6207   */\n      0x00\n        /* \"#utility.yul\":6218:6264   */\n      tag_559\n        /* \"#utility.yul\":6260:6263   */\n      dup4\n        /* \"#utility.yul\":6252:6258   */\n      dup4\n        /* \"#utility.yul\":6218:6264   */\n      tag_560\n      jump\t// in\n    tag_559:\n        /* \"#utility.yul\":6296:6300   */\n      0x20\n        /* \"#utility.yul\":6291:6294   */\n      dup4\n        /* \"#utility.yul\":6287:6301   */\n      add\n        /* \"#utility.yul\":6273:6301   */\n      swap1\n      pop\n        /* \"#utility.yul\":6128:6307   */\n      swap3\n      swap2\n      pop\n      pop\n      jump\t// out\n        /* \"#utility.yul\":6313:6431   */\n    tag_561:\n        /* \"#utility.yul\":6400:6424   */\n      tag_563\n        /* \"#utility.yul\":6418:6423   */\n      dup2\n        /* \"#utility.yul\":6400:6424   */\n      tag_564\n      jump\t// in\n    tag_563:\n        /* \"#utility.yul\":6395:6398   */\n      dup3\n        /* \"#utility.yul\":6388:6425   */\n      mstore\n        /* \"#utility.yul\":6313:6431   */\n      pop\n      pop\n      jump\t// out\n        /* \"#utility.yul\":6467:7199   */\n    tag_565:\n        /* \"#utility.yul\":6586:6589   */\n      0x00\n        /* \"#utility.yul\":6615:6669   */\n      tag_567\n        /* \"#utility.yul\":6663:6668   */\n      dup3\n        /* \"#utility.yul\":6615:6669   */\n      tag_568\n      jump\t// in\n    tag_567:\n        /* \"#utility.yul\":6685:6771   */\n      tag_569\n        /* \"#utility.yul\":6764:6770   */\n      dup2\n        /* \"#utility.yul\":6759:6762   */\n      dup6\n        /* \"#utility.yul\":6685:6771   */\n      tag_570\n      jump\t// in\n    tag_569:\n        /* \"#utility.yul\":6678:6771   */\n      swap4\n      pop\n        /* \"#utility.yul\":6795:6851   */\n      tag_571\n        /* \"#utility.yul\":6845:6850   */\n      dup4\n        /* \"#utility.yul\":6795:6851   */\n      tag_572\n      jump\t// in\n    tag_571:\n        /* \"#utility.yul\":6874:6881   */\n      dup1\n        /* \"#utility.yul\":6905:6906   */\n      0x00\n        /* \"#utility.yul\":6890:7174   */\n    tag_573:\n        /* \"#utility.yul\":6915:6921   */\n      dup4\n        /* \"#utility.yul\":6912:6913   */\n      dup2\n        /* \"#utility.yul\":6909:6922   */\n      lt\n        /* \"#utility.yul\":6890:7174   */\n      iszero\n      tag_575\n      jumpi\n        /* \"#utility.yul\":6991:6997   */\n      dup2\n        /* \"#utility.yul\":6985:6998   */\n      mload\n        /* \"#utility.yul\":7018:7081   */\n      tag_576\n        /* \"#utility.yul\":7077:7080   */\n      dup9\n        /* \"#utility.yul\":7062:7075   */\n      dup3\n        /* \"#utility.yul\":7018:7081   */\n      tag_557\n      jump\t// in\n    tag_576:\n        /* \"#utility.yul\":7011:7081   */\n      swap8\n      pop\n        /* \"#utility.yul\":7104:7164   */\n      tag_577\n        /* \"#utility.yul\":7157:7163   */\n      dup4\n        /* \"#utility.yul\":7104:7164   */\n      tag_578\n      jump\t// in\n    tag_577:\n        /* \"#utility.yul\":7094:7164   */\n      swap3\n      pop\n        /* \"#utility.yul\":6950:7174   */\n      pop\n        /* \"#utility.yul\":6937:6938   */\n      0x01\n        /* \"#utility.yul\":6934:6935   */\n      dup2\n        /* \"#utility.yul\":6930:6939   */\n      add\n        /* \"#utility.yul\":6925:6939   */\n      swap1\n      pop\n        /* \"#utility.yul\":6890:7174   */\n      jump(tag_573)\n    tag_575:\n        /* \"#utility.yul\":6894:6908   */\n      pop\n        /* \"#utility.yul\":7190:7193   */\n      dup6\n        /* \"#utility.yul\":7183:7193   */\n      swap4\n      pop\n        /* \"#utility.yul\":6591:7199   */\n      pop\n      pop\n      pop\n        /* \"#utility.yul\":6467:7199   */\n      swap3\n      swap2\n      pop\n      pop\n      jump\t// out\n        /* \"#utility.yul\":7205:7314   */\n    tag_579:\n        /* \"#utility.yul\":7286:7307   */\n      tag_581\n        /* \"#utility.yul\":7301:7306   */\n      dup2\n        /* \"#utility.yul\":7286:7307   */\n      tag_582\n      jump\t// in\n    tag_581:\n        /* \"#utility.yul\":7281:7284   */\n      dup3\n        /* \"#utility.yul\":7274:7308   */\n      mstore\n        /* \"#utility.yul\":7205:7314   */\n      pop\n      pop\n      jump\t// out\n        /* \"#utility.yul\":7320:7428   */\n    tag_560:\n        /* \"#utility.yul\":7397:7421   */\n      tag_584\n        /* \"#utility.yul\":7415:7420   */\n      dup2\n        /* \"#utility.yul\":7397:7421   */\n      tag_585\n      jump\t// in\n    tag_584:\n        /* \"#utility.yul\":7392:7395   */\n      dup3\n        /* \"#utility.yul\":7385:7422   */\n      mstore\n        /* \"#utility.yul\":7320:7428   */\n      pop\n      pop\n      jump\t// out\n        /* \"#utility.yul\":7434:7552   */\n    tag_586:\n        /* \"#utility.yul\":7521:7545   */\n      tag_588\n        /* \"#utility.yul\":7539:7544   */\n      dup2\n        /* \"#utility.yul\":7521:7545   */\n      tag_585\n      jump\t// in\n    tag_588:\n        /* \"#utility.yul\":7516:7519   */\n      dup3\n        /* \"#utility.yul\":7509:7546   */\n      mstore\n        /* \"#utility.yul\":7434:7552   */\n      pop\n      pop\n      jump\t// out\n        /* \"#utility.yul\":7558:7715   */\n    tag_589:\n        /* \"#utility.yul\":7663:7708   */\n      tag_591\n        /* \"#utility.yul\":7683:7707   */\n      tag_592\n        /* \"#utility.yul\":7701:7706   */\n      dup3\n        /* \"#utility.yul\":7683:7707   */\n      tag_585\n      jump\t// in\n    tag_592:\n        /* \"#utility.yul\":7663:7708   */\n      tag_593\n      jump\t// in\n    tag_591:\n        /* \"#utility.yul\":7658:7661   */\n      dup3\n        /* \"#utility.yul\":7651:7709   */\n      mstore\n        /* \"#utility.yul\":7558:7715   */\n      pop\n      pop\n      jump\t// out\n        /* \"#utility.yul\":7721:8085   */\n    tag_594:\n        /* \"#utility.yul\":7809:7812   */\n      0x00\n        /* \"#utility.yul\":7837:7876   */\n      tag_596\n        /* \"#utility.yul\":7870:7875   */\n      dup3\n        /* \"#utility.yul\":7837:7876   */\n      tag_597\n      jump\t// in\n    tag_596:\n        /* \"#utility.yul\":7892:7963   */\n      tag_598\n        /* \"#utility.yul\":7956:7962   */\n      dup2\n        /* \"#utility.yul\":7951:7954   */\n      dup6\n        /* \"#utility.yul\":7892:7963   */\n      tag_599\n      jump\t// in\n    tag_598:\n        /* \"#utility.yul\":7885:7963   */\n      swap4\n      pop\n        /* \"#utility.yul\":7972:8024   */\n      tag_600\n        /* \"#utility.yul\":8017:8023   */\n      dup2\n        /* \"#utility.yul\":8012:8015   */\n      dup6\n        /* \"#utility.yul\":8005:8009   */\n      0x20\n        /* \"#utility.yul\":7998:8003   */\n      dup7\n        /* \"#utility.yul\":7994:8010   */\n      add\n        /* \"#utility.yul\":7972:8024   */\n      tag_601\n      jump\t// in\n    tag_600:\n        /* \"#utility.yul\":8049:8078   */\n      tag_602\n        /* \"#utility.yul\":8071:8077   */\n      dup2\n        /* \"#utility.yul\":8049:8078   */\n      tag_603\n      jump\t// in\n    tag_602:\n        /* \"#utility.yul\":8044:8047   */\n      dup5\n        /* \"#utility.yul\":8040:8079   */\n      add\n        /* \"#utility.yul\":8033:8079   */\n      swap2\n      pop\n        /* \"#utility.yul\":7813:8085   */\n      pop\n        /* \"#utility.yul\":7721:8085   */\n      swap3\n      swap2\n      pop\n      pop\n      jump\t// out\n        /* \"#utility.yul\":8091:8468   */\n    tag_604:\n        /* \"#utility.yul\":8197:8200   */\n      0x00\n        /* \"#utility.yul\":8225:8264   */\n      tag_606\n        /* \"#utility.yul\":8258:8263   */\n      dup3\n        /* \"#utility.yul\":8225:8264   */\n      tag_597\n      jump\t// in\n    tag_606:\n        /* \"#utility.yul\":8280:8369   */\n      tag_607\n        /* \"#utility.yul\":8362:8368   */\n      dup2\n        /* \"#utility.yul\":8357:8360   */\n      dup6\n        /* \"#utility.yul\":8280:8369   */\n      tag_608\n      jump\t// in\n    tag_607:\n        /* \"#utility.yul\":8273:8369   */\n      swap4\n      pop\n        /* \"#utility.yul\":8378:8430   */\n      tag_609\n        /* \"#utility.yul\":8423:8429   */\n      dup2\n        /* \"#utility.yul\":8418:8421   */\n      dup6\n        /* \"#utility.yul\":8411:8415   */\n      0x20\n        /* \"#utility.yul\":8404:8409   */\n      dup7\n        /* \"#utility.yul\":8400:8416   */\n      add\n        /* \"#utility.yul\":8378:8430   */\n      tag_601\n      jump\t// in\n    tag_609:\n        /* \"#utility.yul\":8455:8461   */\n      dup1\n        /* \"#utility.yul\":8450:8453   */\n      dup5\n        /* \"#utility.yul\":8446:8462   */\n      add\n        /* \"#utility.yul\":8439:8462   */\n      swap2\n      pop\n        /* \"#utility.yul\":8201:8468   */\n      pop\n        /* \"#utility.yul\":8091:8468   */\n      swap3\n      swap2\n      pop\n      pop\n      jump\t// out\n        /* \"#utility.yul\":8474:8840   */\n    tag_610:\n        /* \"#utility.yul\":8616:8619   */\n      0x00\n        /* \"#utility.yul\":8637:8704   */\n      tag_612\n        /* \"#utility.yul\":8701:8703   */\n      0x19\n        /* \"#utility.yul\":8696:8699   */\n      dup4\n        /* \"#utility.yul\":8637:8704   */\n      tag_599\n      jump\t// in\n    tag_612:\n        /* \"#utility.yul\":8630:8704   */\n      swap2\n      pop\n        /* \"#utility.yul\":8713:8806   */\n      tag_613\n        /* \"#utility.yul\":8802:8805   */\n      dup3\n        /* \"#utility.yul\":8713:8806   */\n      tag_614\n      jump\t// in\n    tag_613:\n        /* \"#utility.yul\":8831:8833   */\n      0x20\n        /* \"#utility.yul\":8826:8829   */\n      dup3\n        /* \"#utility.yul\":8822:8834   */\n      add\n        /* \"#utility.yul\":8815:8834   */\n      swap1\n      pop\n        /* \"#utility.yul\":8474:8840   */\n      swap2\n      swap1\n      pop\n      jump\t// out\n        /* \"#utility.yul\":8846:9211   */\n    tag_615:\n        /* \"#utility.yul\":8988:8991   */\n      0x00\n        /* \"#utility.yul\":9009:9075   */\n      tag_617\n        /* \"#utility.yul\":9073:9074   */\n      0x09\n        /* \"#utility.yul\":9068:9071   */\n      dup4\n        /* \"#utility.yul\":9009:9075   */\n      tag_599\n      jump\t// in\n    tag_617:\n        /* \"#utility.yul\":9002:9075   */\n      swap2\n      pop\n        /* \"#utility.yul\":9084:9177   */\n      tag_618\n        /* \"#utility.yul\":9173:9176   */\n      dup3\n        /* \"#utility.yul\":9084:9177   */\n      tag_619\n      jump\t// in\n    tag_618:\n        /* \"#utility.yul\":9202:9204   */\n      0x20\n        /* \"#utility.yul\":9197:9200   */\n      dup3\n        /* \"#utility.yul\":9193:9205   */\n      add\n        /* \"#utility.yul\":9186:9205   */\n      swap1\n      pop\n        /* \"#utility.yul\":8846:9211   */\n      swap2\n      swap1\n      pop\n      jump\t// out\n        /* \"#utility.yul\":9217:9583   */\n    tag_620:\n        /* \"#utility.yul\":9359:9362   */\n      0x00\n        /* \"#utility.yul\":9380:9447   */\n      tag_622\n        /* \"#utility.yul\":9444:9446   */\n      0x0e\n        /* \"#utility.yul\":9439:9442   */\n      dup4\n        /* \"#utility.yul\":9380:9447   */\n      tag_599\n      jump\t// in\n    tag_622:\n        /* \"#utility.yul\":9373:9447   */\n      swap2\n      pop\n        /* \"#utility.yul\":9456:9549   */\n      tag_623\n        /* \"#utility.yul\":9545:9548   */\n      dup3\n        /* \"#utility.yul\":9456:9549   */\n      tag_624\n      jump\t// in\n    tag_623:\n        /* \"#utility.yul\":9574:9576   */\n      0x20\n        /* \"#utility.yul\":9569:9572   */\n      dup3\n        /* \"#utility.yul\":9565:9577   */\n      add\n        /* \"#utility.yul\":9558:9577   */\n      swap1\n      pop\n        /* \"#utility.yul\":9217:9583   */\n      swap2\n      swap1\n      pop\n      jump\t// out\n        /* \"#utility.yul\":9589:9955   */\n    tag_625:\n        /* \"#utility.yul\":9731:9734   */\n      0x00\n        /* \"#utility.yul\":9752:9819   */\n      tag_627\n        /* \"#utility.yul\":9816:9818   */\n      0x0a\n        /* \"#utility.yul\":9811:9814   */\n      dup4\n        /* \"#utility.yul\":9752:9819   */\n      tag_599\n      jump\t// in\n    tag_627:\n        /* \"#utility.yul\":9745:9819   */\n      swap2\n      pop\n        /* \"#utility.yul\":9828:9921   */\n      tag_628\n        /* \"#utility.yul\":9917:9920   */\n      dup3\n        /* \"#utility.yul\":9828:9921   */\n      tag_629\n      jump\t// in\n    tag_628:\n        /* \"#utility.yul\":9946:9948   */\n      0x20\n        /* \"#utility.yul\":9941:9944   */\n      dup3\n        /* \"#utility.yul\":9937:9949   */\n      add\n        /* \"#utility.yul\":9930:9949   */\n      swap1\n      pop\n        /* \"#utility.yul\":9589:9955   */\n      swap2\n      swap1\n      pop\n      jump\t// out\n        /* \"#utility.yul\":9961:10327   */\n    tag_630:\n        /* \"#utility.yul\":10103:10106   */\n      0x00\n        /* \"#utility.yul\":10124:10191   */\n      tag_632\n        /* \"#utility.yul\":10188:10190   */\n      0x15\n        /* \"#utility.yul\":10183:10186   */\n      dup4\n        /* \"#utility.yul\":10124:10191   */\n      tag_599\n      jump\t// in\n    tag_632:\n        /* \"#utility.yul\":10117:10191   */\n      swap2\n      pop\n        /* \"#utility.yul\":10200:10293   */\n      tag_633\n        /* \"#utility.yul\":10289:10292   */\n      dup3\n        /* \"#utility.yul\":10200:10293   */\n      tag_634\n      jump\t// in\n    tag_633:\n        /* \"#utility.yul\":10318:10320   */\n      0x20\n        /* \"#utility.yul\":10313:10316   */\n      dup3\n        /* \"#utility.yul\":10309:10321   */\n      add\n        /* \"#utility.yul\":10302:10321   */\n      swap1\n      pop\n        /* \"#utility.yul\":9961:10327   */\n      swap2\n      swap1\n      pop\n      jump\t// out\n        /* \"#utility.yul\":10333:10699   */\n    tag_635:\n        /* \"#utility.yul\":10475:10478   */\n      0x00\n        /* \"#utility.yul\":10496:10563   */\n      tag_637\n        /* \"#utility.yul\":10560:10562   */\n      0x15\n        /* \"#utility.yul\":10555:10558   */\n      dup4\n        /* \"#utility.yul\":10496:10563   */\n      tag_599\n      jump\t// in\n    tag_637:\n        /* \"#utility.yul\":10489:10563   */\n      swap2\n      pop\n        /* \"#utility.yul\":10572:10665   */\n      tag_638\n        /* \"#utility.yul\":10661:10664   */\n      dup3\n        /* \"#utility.yul\":10572:10665   */\n      tag_639\n      jump\t// in\n    tag_638:\n        /* \"#utility.yul\":10690:10692   */\n      0x20\n        /* \"#utility.yul\":10685:10688   */\n      dup3\n        /* \"#utility.yul\":10681:10693   */\n      add\n        /* \"#utility.yul\":10674:10693   */\n      swap1\n      pop\n        /* \"#utility.yul\":10333:10699   */\n      swap2\n      swap1\n      pop\n      jump\t// out\n        /* \"#utility.yul\":10705:11071   */\n    tag_640:\n        /* \"#utility.yul\":10847:10850   */\n      0x00\n        /* \"#utility.yul\":10868:10935   */\n      tag_642\n        /* \"#utility.yul\":10932:10934   */\n      0x11\n        /* \"#utility.yul\":10927:10930   */\n      dup4\n        /* \"#utility.yul\":10868:10935   */\n      tag_599\n      jump\t// in\n    tag_642:\n        /* \"#utility.yul\":10861:10935   */\n      swap2\n      pop\n        /* \"#utility.yul\":10944:11037   */\n      tag_643\n        /* \"#utility.yul\":11033:11036   */\n      dup3\n        /* \"#utility.yul\":10944:11037   */\n      tag_644\n      jump\t// in\n    tag_643:\n        /* \"#utility.yul\":11062:11064   */\n      0x20\n        /* \"#utility.yul\":11057:11060   */\n      dup3\n        /* \"#utility.yul\":11053:11065   */\n      add\n        /* \"#utility.yul\":11046:11065   */\n      swap1\n      pop\n        /* \"#utility.yul\":10705:11071   */\n      swap2\n      swap1\n      pop\n      jump\t// out\n        /* \"#utility.yul\":11141:12183   */\n    tag_645:\n        /* \"#utility.yul\":11296:11300   */\n      0xa0\n        /* \"#utility.yul\":11291:11294   */\n      dup3\n        /* \"#utility.yul\":11287:11301   */\n      add\n        /* \"#utility.yul\":11384:11388   */\n      0x00\n        /* \"#utility.yul\":11377:11382   */\n      dup3\n        /* \"#utility.yul\":11373:11389   */\n      add\n        /* \"#utility.yul\":11367:11390   */\n      mload\n        /* \"#utility.yul\":11403:11466   */\n      tag_647\n        /* \"#utility.yul\":11460:11464   */\n      0x00\n        /* \"#utility.yul\":11455:11458   */\n      dup6\n        /* \"#utility.yul\":11451:11465   */\n      add\n        /* \"#utility.yul\":11437:11449   */\n      dup3\n        /* \"#utility.yul\":11403:11466   */\n      tag_648\n      jump\t// in\n    tag_647:\n        /* \"#utility.yul\":11311:11476   */\n      pop\n        /* \"#utility.yul\":11559:11563   */\n      0x20\n        /* \"#utility.yul\":11552:11557   */\n      dup3\n        /* \"#utility.yul\":11548:11564   */\n      add\n        /* \"#utility.yul\":11542:11565   */\n      mload\n        /* \"#utility.yul\":11578:11641   */\n      tag_649\n        /* \"#utility.yul\":11635:11639   */\n      0x20\n        /* \"#utility.yul\":11630:11633   */\n      dup6\n        /* \"#utility.yul\":11626:11640   */\n      add\n        /* \"#utility.yul\":11612:11624   */\n      dup3\n        /* \"#utility.yul\":11578:11641   */\n      tag_648\n      jump\t// in\n    tag_649:\n        /* \"#utility.yul\":11486:11651   */\n      pop\n        /* \"#utility.yul\":11734:11738   */\n      0x40\n        /* \"#utility.yul\":11727:11732   */\n      dup3\n        /* \"#utility.yul\":11723:11739   */\n      add\n        /* \"#utility.yul\":11717:11740   */\n      mload\n        /* \"#utility.yul\":11753:11816   */\n      tag_650\n        /* \"#utility.yul\":11810:11814   */\n      0x40\n        /* \"#utility.yul\":11805:11808   */\n      dup6\n        /* \"#utility.yul\":11801:11815   */\n      add\n        /* \"#utility.yul\":11787:11799   */\n      dup3\n        /* \"#utility.yul\":11753:11816   */\n      tag_648\n      jump\t// in\n    tag_650:\n        /* \"#utility.yul\":11661:11826   */\n      pop\n        /* \"#utility.yul\":11909:11913   */\n      0x60\n        /* \"#utility.yul\":11902:11907   */\n      dup3\n        /* \"#utility.yul\":11898:11914   */\n      add\n        /* \"#utility.yul\":11892:11915   */\n      mload\n        /* \"#utility.yul\":11928:11991   */\n      tag_651\n        /* \"#utility.yul\":11985:11989   */\n      0x60\n        /* \"#utility.yul\":11980:11983   */\n      dup6\n        /* \"#utility.yul\":11976:11990   */\n      add\n        /* \"#utility.yul\":11962:11974   */\n      dup3\n        /* \"#utility.yul\":11928:11991   */\n      tag_648\n      jump\t// in\n    tag_651:\n        /* \"#utility.yul\":11836:12001   */\n      pop\n        /* \"#utility.yul\":12084:12088   */\n      0x80\n        /* \"#utility.yul\":12077:12082   */\n      dup3\n        /* \"#utility.yul\":12073:12089   */\n      add\n        /* \"#utility.yul\":12067:12090   */\n      mload\n        /* \"#utility.yul\":12103:12166   */\n      tag_652\n        /* \"#utility.yul\":12160:12164   */\n      0x80\n        /* \"#utility.yul\":12155:12158   */\n      dup6\n        /* \"#utility.yul\":12151:12165   */\n      add\n        /* \"#utility.yul\":12137:12149   */\n      dup3\n        /* \"#utility.yul\":12103:12166   */\n      tag_648\n      jump\t// in\n    tag_652:\n        /* \"#utility.yul\":12011:12176   */\n      pop\n        /* \"#utility.yul\":11265:12183   */\n      pop\n        /* \"#utility.yul\":11141:12183   */\n      pop\n      pop\n      jump\t// out\n        /* \"#utility.yul\":12189:12297   */\n    tag_648:\n        /* \"#utility.yul\":12266:12290   */\n      tag_654\n        /* \"#utility.yul\":12284:12289   */\n      dup2\n        /* \"#utility.yul\":12266:12290   */\n      tag_655\n      jump\t// in\n    tag_654:\n        /* \"#utility.yul\":12261:12264   */\n      dup3\n        /* \"#utility.yul\":12254:12291   */\n      mstore\n        /* \"#utility.yul\":12189:12297   */\n      pop\n      pop\n      jump\t// out\n        /* \"#utility.yul\":12303:12421   */\n    tag_656:\n        /* \"#utility.yul\":12390:12414   */\n      tag_658\n        /* \"#utility.yul\":12408:12413   */\n      dup2\n        /* \"#utility.yul\":12390:12414   */\n      tag_655\n      jump\t// in\n    tag_658:\n        /* \"#utility.yul\":12385:12388   */\n      dup3\n        /* \"#utility.yul\":12378:12415   */\n      mstore\n        /* \"#utility.yul\":12303:12421   */\n      pop\n      pop\n      jump\t// out\n        /* \"#utility.yul\":12427:12584   */\n    tag_659:\n        /* \"#utility.yul\":12532:12577   */\n      tag_661\n        /* \"#utility.yul\":12552:12576   */\n      tag_662\n        /* \"#utility.yul\":12570:12575   */\n      dup3\n        /* \"#utility.yul\":12552:12576   */\n      tag_655\n      jump\t// in\n    tag_662:\n        /* \"#utility.yul\":12532:12577   */\n      tag_663\n      jump\t// in\n    tag_661:\n        /* \"#utility.yul\":12527:12530   */\n      dup3\n        /* \"#utility.yul\":12520:12578   */\n      mstore\n        /* \"#utility.yul\":12427:12584   */\n      pop\n      pop\n      jump\t// out\n        /* \"#utility.yul\":12590:12846   */\n    tag_433:\n        /* \"#utility.yul\":12702:12705   */\n      0x00\n        /* \"#utility.yul\":12717:12792   */\n      tag_665\n        /* \"#utility.yul\":12788:12791   */\n      dup3\n        /* \"#utility.yul\":12779:12785   */\n      dup5\n        /* \"#utility.yul\":12717:12792   */\n      tag_589\n      jump\t// in\n    tag_665:\n        /* \"#utility.yul\":12817:12819   */\n      0x20\n        /* \"#utility.yul\":12812:12815   */\n      dup3\n        /* \"#utility.yul\":12808:12820   */\n      add\n        /* \"#utility.yul\":12801:12820   */\n      swap2\n      pop\n        /* \"#utility.yul\":12837:12840   */\n      dup2\n        /* \"#utility.yul\":12830:12840   */\n      swap1\n      pop\n        /* \"#utility.yul\":12590:12846   */\n      swap3\n      swap2\n      pop\n      pop\n      jump\t// out\n        /* \"#utility.yul\":12852:13127   */\n    tag_153:\n        /* \"#utility.yul\":12984:12987   */\n      0x00\n        /* \"#utility.yul\":13006:13101   */\n      tag_667\n        /* \"#utility.yul\":13097:13100   */\n      dup3\n        /* \"#utility.yul\":13088:13094   */\n      dup5\n        /* \"#utility.yul\":13006:13101   */\n      tag_604\n      jump\t// in\n    tag_667:\n        /* \"#utility.yul\":12999:13101   */\n      swap2\n      pop\n        /* \"#utility.yul\":13118:13121   */\n      dup2\n        /* \"#utility.yul\":13111:13121   */\n      swap1\n      pop\n        /* \"#utility.yul\":12852:13127   */\n      swap3\n      swap2\n      pop\n      pop\n      jump\t// out\n        /* \"#utility.yul\":13133:13389   */\n    tag_428:\n        /* \"#utility.yul\":13245:13248   */\n      0x00\n        /* \"#utility.yul\":13260:13335   */\n      tag_669\n        /* \"#utility.yul\":13331:13334   */\n      dup3\n        /* \"#utility.yul\":13322:13328   */\n      dup5\n        /* \"#utility.yul\":13260:13335   */\n      tag_659\n      jump\t// in\n    tag_669:\n        /* \"#utility.yul\":13360:13362   */\n      0x20\n        /* \"#utility.yul\":13355:13358   */\n      dup3\n        /* \"#utility.yul\":13351:13363   */\n      add\n        /* \"#utility.yul\":13344:13363   */\n      swap2\n      pop\n        /* \"#utility.yul\":13380:13383   */\n      dup2\n        /* \"#utility.yul\":13373:13383   */\n      swap1\n      pop\n        /* \"#utility.yul\":13133:13389   */\n      swap3\n      swap2\n      pop\n      pop\n      jump\t// out\n        /* \"#utility.yul\":13395:13727   */\n    tag_25:\n        /* \"#utility.yul\":13516:13520   */\n      0x00\n        /* \"#utility.yul\":13554:13556   */\n      0x40\n        /* \"#utility.yul\":13543:13552   */\n      dup3\n        /* \"#utility.yul\":13539:13557   */\n      add\n        /* \"#utility.yul\":13531:13557   */\n      swap1\n      pop\n        /* \"#utility.yul\":13567:13638   */\n      tag_671\n        /* \"#utility.yul\":13635:13636   */\n      0x00\n        /* \"#utility.yul\":13624:13633   */\n      dup4\n        /* \"#utility.yul\":13620:13637   */\n      add\n        /* \"#utility.yul\":13611:13617   */\n      dup6\n        /* \"#utility.yul\":13567:13638   */\n      tag_561\n      jump\t// in\n    tag_671:\n        /* \"#utility.yul\":13648:13720   */\n      tag_672\n        /* \"#utility.yul\":13716:13718   */\n      0x20\n        /* \"#utility.yul\":13705:13714   */\n      dup4\n        /* \"#utility.yul\":13701:13719   */\n      add\n        /* \"#utility.yul\":13692:13698   */\n      dup5\n        /* \"#utility.yul\":13648:13720   */\n      tag_656\n      jump\t// in\n    tag_672:\n        /* \"#utility.yul\":13395:13727   */\n      swap4\n      swap3\n      pop\n      pop\n      pop\n      jump\t// out\n        /* \"#utility.yul\":13733:14106   */\n    tag_84:\n        /* \"#utility.yul\":13876:13880   */\n      0x00\n        /* \"#utility.yul\":13914:13916   */\n      0x20\n        /* \"#utility.yul\":13903:13912   */\n      dup3\n        /* \"#utility.yul\":13899:13917   */\n      add\n        /* \"#utility.yul\":13891:13917   */\n      swap1\n      pop\n        /* \"#utility.yul\":13963:13972   */\n      dup2\n        /* \"#utility.yul\":13957:13961   */\n      dup2\n        /* \"#utility.yul\":13953:13973   */\n      sub\n        /* \"#utility.yul\":13949:13950   */\n      0x00\n        /* \"#utility.yul\":13938:13947   */\n      dup4\n        /* \"#utility.yul\":13934:13951   */\n      add\n        /* \"#utility.yul\":13927:13974   */\n      mstore\n        /* \"#utility.yul\":13991:14099   */\n      tag_674\n        /* \"#utility.yul\":14094:14098   */\n      dup2\n        /* \"#utility.yul\":14085:14091   */\n      dup5\n        /* \"#utility.yul\":13991:14099   */\n      tag_565\n      jump\t// in\n    tag_674:\n        /* \"#utility.yul\":13983:14099   */\n      swap1\n      pop\n        /* \"#utility.yul\":13733:14106   */\n      swap3\n      swap2\n      pop\n      pop\n      jump\t// out\n        /* \"#utility.yul\":14112:14322   */\n    tag_37:\n        /* \"#utility.yul\":14199:14203   */\n      0x00\n        /* \"#utility.yul\":14237:14239   */\n      0x20\n        /* \"#utility.yul\":14226:14235   */\n      dup3\n        /* \"#utility.yul\":14222:14240   */\n      add\n        /* \"#utility.yul\":14214:14240   */\n      swap1\n      pop\n        /* \"#utility.yul\":14250:14315   */\n      tag_676\n        /* \"#utility.yul\":14312:14313   */\n      0x00\n        /* \"#utility.yul\":14301:14310   */\n      dup4\n        /* \"#utility.yul\":14297:14314   */\n      add\n        /* \"#utility.yul\":14288:14294   */\n      dup5\n        /* \"#utility.yul\":14250:14315   */\n      tag_579\n      jump\t// in\n    tag_676:\n        /* \"#utility.yul\":14112:14322   */\n      swap3\n      swap2\n      pop\n      pop\n      jump\t// out\n        /* \"#utility.yul\":14328:14550   */\n    tag_49:\n        /* \"#utility.yul\":14421:14425   */\n      0x00\n        /* \"#utility.yul\":14459:14461   */\n      0x20\n        /* \"#utility.yul\":14448:14457   */\n      dup3\n        /* \"#utility.yul\":14444:14462   */\n      add\n        /* \"#utility.yul\":14436:14462   */\n      swap1\n      pop\n        /* \"#utility.yul\":14472:14543   */\n      tag_678\n        /* \"#utility.yul\":14540:14541   */\n      0x00\n        /* \"#utility.yul\":14529:14538   */\n      dup4\n        /* \"#utility.yul\":14525:14542   */\n      add\n        /* \"#utility.yul\":14516:14522   */\n      dup5\n        /* \"#utility.yul\":14472:14543   */\n      tag_586\n      jump\t// in\n    tag_678:\n        /* \"#utility.yul\":14328:14550   */\n      swap3\n      swap2\n      pop\n      pop\n      jump\t// out\n        /* \"#utility.yul\":14556:15297   */\n    tag_90:\n        /* \"#utility.yul\":14803:14807   */\n      0x00\n        /* \"#utility.yul\":14841:14844   */\n      0xe0\n        /* \"#utility.yul\":14830:14839   */\n      dup3\n        /* \"#utility.yul\":14826:14845   */\n      add\n        /* \"#utility.yul\":14818:14845   */\n      swap1\n      pop\n        /* \"#utility.yul\":14891:14900   */\n      dup2\n        /* \"#utility.yul\":14885:14889   */\n      dup2\n        /* \"#utility.yul\":14881:14901   */\n      sub\n        /* \"#utility.yul\":14877:14878   */\n      0x00\n        /* \"#utility.yul\":14866:14875   */\n      dup4\n        /* \"#utility.yul\":14862:14879   */\n      add\n        /* \"#utility.yul\":14855:14902   */\n      mstore\n        /* \"#utility.yul\":14919:14997   */\n      tag_680\n        /* \"#utility.yul\":14992:14996   */\n      dup2\n        /* \"#utility.yul\":14983:14989   */\n      dup7\n        /* \"#utility.yul\":14919:14997   */\n      tag_594\n      jump\t// in\n    tag_680:\n        /* \"#utility.yul\":14911:14997   */\n      swap1\n      pop\n        /* \"#utility.yul\":15044:15053   */\n      dup2\n        /* \"#utility.yul\":15038:15042   */\n      dup2\n        /* \"#utility.yul\":15034:15054   */\n      sub\n        /* \"#utility.yul\":15029:15031   */\n      0x20\n        /* \"#utility.yul\":15018:15027   */\n      dup4\n        /* \"#utility.yul\":15014:15032   */\n      add\n        /* \"#utility.yul\":15007:15055   */\n      mstore\n        /* \"#utility.yul\":15072:15150   */\n      tag_681\n        /* \"#utility.yul\":15145:15149   */\n      dup2\n        /* \"#utility.yul\":15136:15142   */\n      dup6\n        /* \"#utility.yul\":15072:15150   */\n      tag_594\n      jump\t// in\n    tag_681:\n        /* \"#utility.yul\":15064:15150   */\n      swap1\n      pop\n        /* \"#utility.yul\":15160:15290   */\n      tag_682\n        /* \"#utility.yul\":15286:15288   */\n      0x40\n        /* \"#utility.yul\":15275:15284   */\n      dup4\n        /* \"#utility.yul\":15271:15289   */\n      add\n        /* \"#utility.yul\":15262:15268   */\n      dup5\n        /* \"#utility.yul\":15160:15290   */\n      tag_645\n      jump\t// in\n    tag_682:\n        /* \"#utility.yul\":14556:15297   */\n      swap5\n      swap4\n      pop\n      pop\n      pop\n      pop\n      jump\t// out\n        /* \"#utility.yul\":15303:15722   */\n    tag_98:\n        /* \"#utility.yul\":15469:15473   */\n      0x00\n        /* \"#utility.yul\":15507:15509   */\n      0x20\n        /* \"#utility.yul\":15496:15505   */\n      dup3\n        /* \"#utility.yul\":15492:15510   */\n      add\n        /* \"#utility.yul\":15484:15510   */\n      swap1\n      pop\n        /* \"#utility.yul\":15556:15565   */\n      dup2\n        /* \"#utility.yul\":15550:15554   */\n      dup2\n        /* \"#utility.yul\":15546:15566   */\n      sub\n        /* \"#utility.yul\":15542:15543   */\n      0x00\n        /* \"#utility.yul\":15531:15540   */\n      dup4\n        /* \"#utility.yul\":15527:15544   */\n      add\n        /* \"#utility.yul\":15520:15567   */\n      mstore\n        /* \"#utility.yul\":15584:15715   */\n      tag_684\n        /* \"#utility.yul\":15710:15714   */\n      dup2\n        /* \"#utility.yul\":15584:15715   */\n      tag_610\n      jump\t// in\n    tag_684:\n        /* \"#utility.yul\":15576:15715   */\n      swap1\n      pop\n        /* \"#utility.yul\":15303:15722   */\n      swap2\n      swap1\n      pop\n      jump\t// out\n        /* \"#utility.yul\":15728:16147   */\n    tag_376:\n        /* \"#utility.yul\":15894:15898   */\n      0x00\n        /* \"#utility.yul\":15932:15934   */\n      0x20\n        /* \"#utility.yul\":15921:15930   */\n      dup3\n        /* \"#utility.yul\":15917:15935   */\n      add\n        /* \"#utility.yul\":15909:15935   */\n      swap1\n      pop\n        /* \"#utility.yul\":15981:15990   */\n      dup2\n        /* \"#utility.yul\":15975:15979   */\n      dup2\n        /* \"#utility.yul\":15971:15991   */\n      sub\n        /* \"#utility.yul\":15967:15968   */\n      0x00\n        /* \"#utility.yul\":15956:15965   */\n      dup4\n        /* \"#utility.yul\":15952:15969   */\n      add\n        /* \"#utility.yul\":15945:15992   */\n      mstore\n        /* \"#utility.yul\":16009:16140   */\n      tag_686\n        /* \"#utility.yul\":16135:16139   */\n      dup2\n        /* \"#utility.yul\":16009:16140   */\n      tag_615\n      jump\t// in\n    tag_686:\n        /* \"#utility.yul\":16001:16140   */\n      swap1\n      pop\n        /* \"#utility.yul\":15728:16147   */\n      swap2\n      swap1\n      pop\n      jump\t// out\n        /* \"#utility.yul\":16153:16572   */\n    tag_108:\n        /* \"#utility.yul\":16319:16323   */\n      0x00\n        /* \"#utility.yul\":16357:16359   */\n      0x20\n        /* \"#utility.yul\":16346:16355   */\n      dup3\n        /* \"#utility.yul\":16342:16360   */\n      add\n        /* \"#utility.yul\":16334:16360   */\n      swap1\n      pop\n        /* \"#utility.yul\":16406:16415   */\n      dup2\n        /* \"#utility.yul\":16400:16404   */\n      dup2\n        /* \"#utility.yul\":16396:16416   */\n      sub\n        /* \"#utility.yul\":16392:16393   */\n      0x00\n        /* \"#utility.yul\":16381:16390   */\n      dup4\n        /* \"#utility.yul\":16377:16394   */\n      add\n        /* \"#utility.yul\":16370:16417   */\n      mstore\n        /* \"#utility.yul\":16434:16565   */\n      tag_688\n        /* \"#utility.yul\":16560:16564   */\n      dup2\n        /* \"#utility.yul\":16434:16565   */\n      tag_620\n      jump\t// in\n    tag_688:\n        /* \"#utility.yul\":16426:16565   */\n      swap1\n      pop\n        /* \"#utility.yul\":16153:16572   */\n      swap2\n      swap1\n      pop\n      jump\t// out\n        /* \"#utility.yul\":16578:16997   */\n    tag_157:\n        /* \"#utility.yul\":16744:16748   */\n      0x00\n        /* \"#utility.yul\":16782:16784   */\n      0x20\n        /* \"#utility.yul\":16771:16780   */\n      dup3\n        /* \"#utility.yul\":16767:16785   */\n      add\n        /* \"#utility.yul\":16759:16785   */\n      swap1\n      pop\n        /* \"#utility.yul\":16831:16840   */\n      dup2\n        /* \"#utility.yul\":16825:16829   */\n      dup2\n        /* \"#utility.yul\":16821:16841   */\n      sub\n        /* \"#utility.yul\":16817:16818   */\n      0x00\n        /* \"#utility.yul\":16806:16815   */\n      dup4\n        /* \"#utility.yul\":16802:16819   */\n      add\n        /* \"#utility.yul\":16795:16842   */\n      mstore\n        /* \"#utility.yul\":16859:16990   */\n      tag_690\n        /* \"#utility.yul\":16985:16989   */\n      dup2\n        /* \"#utility.yul\":16859:16990   */\n      tag_625\n      jump\t// in\n    tag_690:\n        /* \"#utility.yul\":16851:16990   */\n      swap1\n      pop\n        /* \"#utility.yul\":16578:16997   */\n      swap2\n      swap1\n      pop\n      jump\t// out\n        /* \"#utility.yul\":17003:17422   */\n    tag_136:\n        /* \"#utility.yul\":17169:17173   */\n      0x00\n        /* \"#utility.yul\":17207:17209   */\n      0x20\n        /* \"#utility.yul\":17196:17205   */\n      dup3\n        /* \"#utility.yul\":17192:17210   */\n      add\n        /* \"#utility.yul\":17184:17210   */\n      swap1\n      pop\n        /* \"#utility.yul\":17256:17265   */\n      dup2\n        /* \"#utility.yul\":17250:17254   */\n      dup2\n        /* \"#utility.yul\":17246:17266   */\n      sub\n        /* \"#utility.yul\":17242:17243   */\n      0x00\n        /* \"#utility.yul\":17231:17240   */\n      dup4\n        /* \"#utility.yul\":17227:17244   */\n      add\n        /* \"#utility.yul\":17220:17267   */\n      mstore\n        /* \"#utility.yul\":17284:17415   */\n      tag_692\n        /* \"#utility.yul\":17410:17414   */\n      dup2\n        /* \"#utility.yul\":17284:17415   */\n      tag_630\n      jump\t// in\n    tag_692:\n        /* \"#utility.yul\":17276:17415   */\n      swap1\n      pop\n        /* \"#utility.yul\":17003:17422   */\n      swap2\n      swap1\n      pop\n      jump\t// out\n        /* \"#utility.yul\":17428:17847   */\n    tag_204:\n        /* \"#utility.yul\":17594:17598   */\n      0x00\n        /* \"#utility.yul\":17632:17634   */\n      0x20\n        /* \"#utility.yul\":17621:17630   */\n      dup3\n        /* \"#utility.yul\":17617:17635   */\n      add\n        /* \"#utility.yul\":17609:17635   */\n      swap1\n      pop\n        /* \"#utility.yul\":17681:17690   */\n      dup2\n        /* \"#utility.yul\":17675:17679   */\n      dup2\n        /* \"#utility.yul\":17671:17691   */\n      sub\n        /* \"#utility.yul\":17667:17668   */\n      0x00\n        /* \"#utility.yul\":17656:17665   */\n      dup4\n        /* \"#utility.yul\":17652:17669   */\n      add\n        /* \"#utility.yul\":17645:17692   */\n      mstore\n        /* \"#utility.yul\":17709:17840   */\n      tag_694\n        /* \"#utility.yul\":17835:17839   */\n      dup2\n        /* \"#utility.yul\":17709:17840   */\n      tag_635\n      jump\t// in\n    tag_694:\n        /* \"#utility.yul\":17701:17840   */\n      swap1\n      pop\n        /* \"#utility.yul\":17428:17847   */\n      swap2\n      swap1\n      pop\n      jump\t// out\n        /* \"#utility.yul\":17853:18272   */\n    tag_269:\n        /* \"#utility.yul\":18019:18023   */\n      0x00\n        /* \"#utility.yul\":18057:18059   */\n      0x20\n        /* \"#utility.yul\":18046:18055   */\n      dup3\n        /* \"#utility.yul\":18042:18060   */\n      add\n        /* \"#utility.yul\":18034:18060   */\n      swap1\n      pop\n        /* \"#utility.yul\":18106:18115   */\n      dup2\n        /* \"#utility.yul\":18100:18104   */\n      dup2\n        /* \"#utility.yul\":18096:18116   */\n      sub\n        /* \"#utility.yul\":18092:18093   */\n      0x00\n        /* \"#utility.yul\":18081:18090   */\n      dup4\n        /* \"#utility.yul\":18077:18094   */\n      add\n        /* \"#utility.yul\":18070:18117   */\n      mstore\n        /* \"#utility.yul\":18134:18265   */\n      tag_696\n        /* \"#utility.yul\":18260:18264   */\n      dup2\n        /* \"#utility.yul\":18134:18265   */\n      tag_640\n      jump\t// in\n    tag_696:\n        /* \"#utility.yul\":18126:18265   */\n      swap1\n      pop\n        /* \"#utility.yul\":17853:18272   */\n      swap2\n      swap1\n      pop\n      jump\t// out\n        /* \"#utility.yul\":18278:18500   */\n    tag_31:\n        /* \"#utility.yul\":18371:18375   */\n      0x00\n        /* \"#utility.yul\":18409:18411   */\n      0x20\n        /* \"#utility.yul\":18398:18407   */\n      dup3\n        /* \"#utility.yul\":18394:18412   */\n      add\n        /* \"#utility.yul\":18386:18412   */\n      swap1\n      pop\n        /* \"#utility.yul\":18422:18493   */\n      tag_698\n        /* \"#utility.yul\":18490:18491   */\n      0x00\n        /* \"#utility.yul\":18479:18488   */\n      dup4\n        /* \"#utility.yul\":18475:18492   */\n      add\n        /* \"#utility.yul\":18466:18472   */\n      dup5\n        /* \"#utility.yul\":18422:18493   */\n      tag_656\n      jump\t// in\n    tag_698:\n        /* \"#utility.yul\":18278:18500   */\n      swap3\n      swap2\n      pop\n      pop\n      jump\t// out\n        /* \"#utility.yul\":18506:18635   */\n    tag_480:\n        /* \"#utility.yul\":18540:18546   */\n      0x00\n        /* \"#utility.yul\":18567:18587   */\n      tag_700\n      tag_701\n      jump\t// in\n    tag_700:\n        /* \"#utility.yul\":18557:18587   */\n      swap1\n      pop\n        /* \"#utility.yul\":18596:18629   */\n      tag_702\n        /* \"#utility.yul\":18624:18628   */\n      dup3\n        /* \"#utility.yul\":18616:18622   */\n      dup3\n        /* \"#utility.yul\":18596:18629   */\n      tag_703\n      jump\t// in\n    tag_702:\n        /* \"#utility.yul\":18506:18635   */\n      swap2\n      swap1\n      pop\n      jump\t// out\n        /* \"#utility.yul\":18641:18716   */\n    tag_701:\n        /* \"#utility.yul\":18674:18680   */\n      0x00\n        /* \"#utility.yul\":18707:18709   */\n      0x40\n        /* \"#utility.yul\":18701:18710   */\n      mload\n        /* \"#utility.yul\":18691:18710   */\n      swap1\n      pop\n        /* \"#utility.yul\":18641:18716   */\n      swap1\n      jump\t// out\n        /* \"#utility.yul\":18722:19030   */\n    tag_479:\n        /* \"#utility.yul\":18784:18788   */\n      0x00\n        /* \"#utility.yul\":18874:18892   */\n      0xffffffffffffffff\n        /* \"#utility.yul\":18866:18872   */\n      dup3\n        /* \"#utility.yul\":18863:18893   */\n      gt\n        /* \"#utility.yul\":18860:18916   */\n      iszero\n      tag_706\n      jumpi\n        /* \"#utility.yul\":18896:18914   */\n      tag_707\n      tag_400\n      jump\t// in\n    tag_707:\n        /* \"#utility.yul\":18860:18916   */\n    tag_706:\n        /* \"#utility.yul\":18934:18963   */\n      tag_708\n        /* \"#utility.yul\":18956:18962   */\n      dup3\n        /* \"#utility.yul\":18934:18963   */\n      tag_603\n      jump\t// in\n    tag_708:\n        /* \"#utility.yul\":18926:18963   */\n      swap1\n      pop\n        /* \"#utility.yul\":19018:19022   */\n      0x20\n        /* \"#utility.yul\":19012:19016   */\n      dup2\n        /* \"#utility.yul\":19008:19023   */\n      add\n        /* \"#utility.yul\":19000:19023   */\n      swap1\n      pop\n        /* \"#utility.yul\":18722:19030   */\n      swap2\n      swap1\n      pop\n      jump\t// out\n        /* \"#utility.yul\":19036:19168   */\n    tag_572:\n        /* \"#utility.yul\":19103:19107   */\n      0x00\n        /* \"#utility.yul\":19126:19129   */\n      dup2\n        /* \"#utility.yul\":19118:19129   */\n      swap1\n      pop\n        /* \"#utility.yul\":19156:19160   */\n      0x20\n        /* \"#utility.yul\":19151:19154   */\n      dup3\n        /* \"#utility.yul\":19147:19161   */\n      add\n        /* \"#utility.yul\":19139:19161   */\n      swap1\n      pop\n        /* \"#utility.yul\":19036:19168   */\n      swap2\n      swap1\n      pop\n      jump\t// out\n        /* \"#utility.yul\":19174:19288   */\n    tag_568:\n        /* \"#utility.yul\":19241:19247   */\n      0x00\n        /* \"#utility.yul\":19275:19280   */\n      dup2\n        /* \"#utility.yul\":19269:19281   */\n      mload\n        /* \"#utility.yul\":19259:19281   */\n      swap1\n      pop\n        /* \"#utility.yul\":19174:19288   */\n      swap2\n      swap1\n      pop\n      jump\t// out\n        /* \"#utility.yul\":19294:19393   */\n    tag_597:\n        /* \"#utility.yul\":19346:19352   */\n      0x00\n        /* \"#utility.yul\":19380:19385   */\n      dup2\n        /* \"#utility.yul\":19374:19386   */\n      mload\n        /* \"#utility.yul\":19364:19386   */\n      swap1\n      pop\n        /* \"#utility.yul\":19294:19393   */\n      swap2\n      swap1\n      pop\n      jump\t// out\n        /* \"#utility.yul\":19399:19512   */\n    tag_578:\n        /* \"#utility.yul\":19469:19473   */\n      0x00\n        /* \"#utility.yul\":19501:19505   */\n      0x20\n        /* \"#utility.yul\":19496:19499   */\n      dup3\n        /* \"#utility.yul\":19492:19506   */\n      add\n        /* \"#utility.yul\":19484:19506   */\n      swap1\n      pop\n        /* \"#utility.yul\":19399:19512   */\n      swap2\n      swap1\n      pop\n      jump\t// out\n        /* \"#utility.yul\":19518:19702   */\n    tag_570:\n        /* \"#utility.yul\":19617:19628   */\n      0x00\n        /* \"#utility.yul\":19651:19657   */\n      dup3\n        /* \"#utility.yul\":19646:19649   */\n      dup3\n        /* \"#utility.yul\":19639:19658   */\n      mstore\n        /* \"#utility.yul\":19691:19695   */\n      0x20\n        /* \"#utility.yul\":19686:19689   */\n      dup3\n        /* \"#utility.yul\":19682:19696   */\n      add\n        /* \"#utility.yul\":19667:19696   */\n      swap1\n      pop\n        /* \"#utility.yul\":19518:19702   */\n      swap3\n      swap2\n      pop\n      pop\n      jump\t// out\n        /* \"#utility.yul\":19708:19877   */\n    tag_599:\n        /* \"#utility.yul\":19792:19803   */\n      0x00\n        /* \"#utility.yul\":19826:19832   */\n      dup3\n        /* \"#utility.yul\":19821:19824   */\n      dup3\n        /* \"#utility.yul\":19814:19833   */\n      mstore\n        /* \"#utility.yul\":19866:19870   */\n      0x20\n        /* \"#utility.yul\":19861:19864   */\n      dup3\n        /* \"#utility.yul\":19857:19871   */\n      add\n        /* \"#utility.yul\":19842:19871   */\n      swap1\n      pop\n        /* \"#utility.yul\":19708:19877   */\n      swap3\n      swap2\n      pop\n      pop\n      jump\t// out\n        /* \"#utility.yul\":19883:20031   */\n    tag_608:\n        /* \"#utility.yul\":19985:19996   */\n      0x00\n        /* \"#utility.yul\":20022:20025   */\n      dup2\n        /* \"#utility.yul\":20007:20025   */\n      swap1\n      pop\n        /* \"#utility.yul\":19883:20031   */\n      swap3\n      swap2\n      pop\n      pop\n      jump\t// out\n        /* \"#utility.yul\":20037:20342   */\n    tag_22:\n        /* \"#utility.yul\":20077:20080   */\n      0x00\n        /* \"#utility.yul\":20096:20116   */\n      tag_717\n        /* \"#utility.yul\":20114:20115   */\n      dup3\n        /* \"#utility.yul\":20096:20116   */\n      tag_655\n      jump\t// in\n    tag_717:\n        /* \"#utility.yul\":20091:20116   */\n      swap2\n      pop\n        /* \"#utility.yul\":20130:20150   */\n      tag_718\n        /* \"#utility.yul\":20148:20149   */\n      dup4\n        /* \"#utility.yul\":20130:20150   */\n      tag_655\n      jump\t// in\n    tag_718:\n        /* \"#utility.yul\":20125:20150   */\n      swap3\n      pop\n        /* \"#utility.yul\":20284:20285   */\n      dup3\n        /* \"#utility.yul\":20216:20282   */\n      0xffffffffffffffffffffffffffffffffffffffffffffffffffffffffffffffff\n        /* \"#utility.yul\":20212:20286   */\n      sub\n        /* \"#utility.yul\":20209:20210   */\n      dup3\n        /* \"#utility.yul\":20206:20287   */\n      gt\n        /* \"#utility.yul\":20203:20310   */\n      iszero\n      tag_719\n      jumpi\n        /* \"#utility.yul\":20290:20308   */\n      tag_720\n      tag_721\n      jump\t// in\n    tag_720:\n        /* \"#utility.yul\":20203:20310   */\n    tag_719:\n        /* \"#utility.yul\":20334:20335   */\n      dup3\n        /* \"#utility.yul\":20331:20332   */\n      dup3\n        /* \"#utility.yul\":20327:20336   */\n      add\n        /* \"#utility.yul\":20320:20336   */\n      swap1\n      pop\n        /* \"#utility.yul\":20037:20342   */\n      swap3\n      swap2\n      pop\n      pop\n      jump\t// out\n        /* \"#utility.yul\":20348:20533   */\n    tag_94:\n        /* \"#utility.yul\":20388:20389   */\n      0x00\n        /* \"#utility.yul\":20405:20425   */\n      tag_723\n        /* \"#utility.yul\":20423:20424   */\n      dup3\n        /* \"#utility.yul\":20405:20425   */\n      tag_655\n      jump\t// in\n    tag_723:\n        /* \"#utility.yul\":20400:20425   */\n      swap2\n      pop\n        /* \"#utility.yul\":20439:20459   */\n      tag_724\n        /* \"#utility.yul\":20457:20458   */\n      dup4\n        /* \"#utility.yul\":20439:20459   */\n      tag_655\n      jump\t// in\n    tag_724:\n        /* \"#utility.yul\":20434:20459   */\n      swap3\n      pop\n        /* \"#utility.yul\":20478:20479   */\n      dup3\n        /* \"#utility.yul\":20468:20503   */\n      tag_725\n      jumpi\n        /* \"#utility.yul\":20483:20501   */\n      tag_726\n      tag_727\n      jump\t// in\n    tag_726:\n        /* \"#utility.yul\":20468:20503   */\n    tag_725:\n        /* \"#utility.yul\":20525:20526   */\n      dup3\n        /* \"#utility.yul\":20522:20523   */\n      dup3\n        /* \"#utility.yul\":20518:20527   */\n      div\n        /* \"#utility.yul\":20513:20527   */\n      swap1\n      pop\n        /* \"#utility.yul\":20348:20533   */\n      swap3\n      swap2\n      pop\n      pop\n      jump\t// out\n        /* \"#utility.yul\":20539:20887   */\n    tag_312:\n        /* \"#utility.yul\":20579:20586   */\n      0x00\n        /* \"#utility.yul\":20602:20622   */\n      tag_729\n        /* \"#utility.yul\":20620:20621   */\n      dup3\n        /* \"#utility.yul\":20602:20622   */\n      tag_655\n      jump\t// in\n    tag_729:\n        /* \"#utility.yul\":20597:20622   */\n      swap2\n      pop\n        /* \"#utility.yul\":20636:20656   */\n      tag_730\n        /* \"#utility.yul\":20654:20655   */\n      dup4\n        /* \"#utility.yul\":20636:20656   */\n      tag_655\n      jump\t// in\n    tag_730:\n        /* \"#utility.yul\":20631:20656   */\n      swap3\n      pop\n        /* \"#utility.yul\":20824:20825   */\n      dup2\n        /* \"#utility.yul\":20756:20822   */\n      0xffffffffffffffffffffffffffffffffffffffffffffffffffffffffffffffff\n        /* \"#utility.yul\":20752:20826   */\n      div\n        /* \"#utility.yul\":20749:20750   */\n      dup4\n        /* \"#utility.yul\":20746:20827   */\n      gt\n        /* \"#utility.yul\":20741:20742   */\n      dup3\n        /* \"#utility.yul\":20734:20743   */\n      iszero\n        /* \"#utility.yul\":20727:20744   */\n      iszero\n        /* \"#utility.yul\":20723:20828   */\n      and\n        /* \"#utility.yul\":20720:20851   */\n      iszero\n      tag_731\n      jumpi\n        /* \"#utility.yul\":20831:20849   */\n      tag_732\n      tag_721\n      jump\t// in\n    tag_732:\n        /* \"#utility.yul\":20720:20851   */\n    tag_731:\n        /* \"#utility.yul\":20879:20880   */\n      dup3\n        /* \"#utility.yul\":20876:20877   */\n      dup3\n        /* \"#utility.yul\":20872:20881   */\n      mul\n        /* \"#utility.yul\":20861:20881   */\n      swap1\n      pop\n        /* \"#utility.yul\":20539:20887   */\n      swap3\n      swap2\n      pop\n      pop\n      jump\t// out\n        /* \"#utility.yul\":20893:21084   */\n    tag_142:\n        /* \"#utility.yul\":20933:20937   */\n      0x00\n        /* \"#utility.yul\":20953:20973   */\n      tag_734\n        /* \"#utility.yul\":20971:20972   */\n      dup3\n        /* \"#utility.yul\":20953:20973   */\n      tag_655\n      jump\t// in\n    tag_734:\n        /* \"#utility.yul\":20948:20973   */\n      swap2\n      pop\n        /* \"#utility.yul\":20987:21007   */\n      tag_735\n        /* \"#utility.yul\":21005:21006   */\n      dup4\n        /* \"#utility.yul\":20987:21007   */\n      tag_655\n      jump\t// in\n    tag_735:\n        /* \"#utility.yul\":20982:21007   */\n      swap3\n      pop\n        /* \"#utility.yul\":21026:21027   */\n      dup3\n        /* \"#utility.yul\":21023:21024   */\n      dup3\n        /* \"#utility.yul\":21020:21028   */\n      lt\n        /* \"#utility.yul\":21017:21051   */\n      iszero\n      tag_736\n      jumpi\n        /* \"#utility.yul\":21031:21049   */\n      tag_737\n      tag_721\n      jump\t// in\n    tag_737:\n        /* \"#utility.yul\":21017:21051   */\n    tag_736:\n        /* \"#utility.yul\":21076:21077   */\n      dup3\n        /* \"#utility.yul\":21073:21074   */\n      dup3\n        /* \"#utility.yul\":21069:21078   */\n      sub\n        /* \"#utility.yul\":21061:21078   */\n      swap1\n      pop\n        /* \"#utility.yul\":20893:21084   */\n      swap3\n      swap2\n      pop\n      pop\n      jump\t// out\n        /* \"#utility.yul\":21090:21186   */\n    tag_564:\n        /* \"#utility.yul\":21127:21134   */\n      0x00\n        /* \"#utility.yul\":21156:21180   */\n      tag_739\n        /* \"#utility.yul\":21174:21179   */\n      dup3\n        /* \"#utility.yul\":21156:21180   */\n      tag_740\n      jump\t// in\n    tag_739:\n        /* \"#utility.yul\":21145:21180   */\n      swap1\n      pop\n        /* \"#utility.yul\":21090:21186   */\n      swap2\n      swap1\n      pop\n      jump\t// out\n        /* \"#utility.yul\":21192:21282   */\n    tag_582:\n        /* \"#utility.yul\":21226:21233   */\n      0x00\n        /* \"#utility.yul\":21269:21274   */\n      dup2\n        /* \"#utility.yul\":21262:21275   */\n      iszero\n        /* \"#utility.yul\":21255:21276   */\n      iszero\n        /* \"#utility.yul\":21244:21276   */\n      swap1\n      pop\n        /* \"#utility.yul\":21192:21282   */\n      swap2\n      swap1\n      pop\n      jump\t// out\n        /* \"#utility.yul\":21288:21365   */\n    tag_585:\n        /* \"#utility.yul\":21325:21332   */\n      0x00\n        /* \"#utility.yul\":21354:21359   */\n      dup2\n        /* \"#utility.yul\":21343:21359   */\n      swap1\n      pop\n        /* \"#utility.yul\":21288:21365   */\n      swap2\n      swap1\n      pop\n      jump\t// out\n        /* \"#utility.yul\":21371:21497   */\n    tag_740:\n        /* \"#utility.yul\":21408:21415   */\n      0x00\n        /* \"#utility.yul\":21448:21490   */\n      0xffffffffffffffffffffffffffffffffffffffff\n        /* \"#utility.yul\":21441:21446   */\n      dup3\n        /* \"#utility.yul\":21437:21491   */\n      and\n        /* \"#utility.yul\":21426:21491   */\n      swap1\n      pop\n        /* \"#utility.yul\":21371:21497   */\n      swap2\n      swap1\n      pop\n      jump\t// out\n        /* \"#utility.yul\":21503:21580   */\n    tag_655:\n        /* \"#utility.yul\":21540:21547   */\n      0x00\n        /* \"#utility.yul\":21569:21574   */\n      dup2\n        /* \"#utility.yul\":21558:21574   */\n      swap1\n      pop\n        /* \"#utility.yul\":21503:21580   */\n      swap2\n      swap1\n      pop\n      jump\t// out\n        /* \"#utility.yul\":21586:21740   */\n    tag_485:\n        /* \"#utility.yul\":21670:21676   */\n      dup3\n        /* \"#utility.yul\":21665:21668   */\n      dup2\n        /* \"#utility.yul\":21660:21663   */\n      dup4\n        /* \"#utility.yul\":21647:21677   */\n      calldatacopy\n        /* \"#utility.yul\":21732:21733   */\n      0x00\n        /* \"#utility.yul\":21723:21729   */\n      dup4\n        /* \"#utility.yul\":21718:21721   */\n      dup4\n        /* \"#utility.yul\":21714:21730   */\n      add\n        /* \"#utility.yul\":21707:21734   */\n      mstore\n        /* \"#utility.yul\":21586:21740   */\n      pop\n      pop\n      pop\n      jump\t// out\n        /* \"#utility.yul\":21746:22053   */\n    tag_601:\n        /* \"#utility.yul\":21814:21815   */\n      0x00\n        /* \"#utility.yul\":21824:21937   */\n    tag_747:\n        /* \"#utility.yul\":21838:21844   */\n      dup4\n        /* \"#utility.yul\":21835:21836   */\n      dup2\n        /* \"#utility.yul\":21832:21845   */\n      lt\n        /* \"#utility.yul\":21824:21937   */\n      iszero\n      tag_749\n      jumpi\n        /* \"#utility.yul\":21923:21924   */\n      dup1\n        /* \"#utility.yul\":21918:21921   */\n      dup3\n        /* \"#utility.yul\":21914:21925   */\n      add\n        /* \"#utility.yul\":21908:21926   */\n      mload\n        /* \"#utility.yul\":21904:21905   */\n      dup2\n        /* \"#utility.yul\":21899:21902   */\n      dup5\n        /* \"#utility.yul\":21895:21906   */\n      add\n        /* \"#utility.yul\":21888:21927   */\n      mstore\n        /* \"#utility.yul\":21860:21862   */\n      0x20\n        /* \"#utility.yul\":21857:21858   */\n      dup2\n        /* \"#utility.yul\":21853:21863   */\n      add\n        /* \"#utility.yul\":21848:21863   */\n      swap1\n      pop\n        /* \"#utility.yul\":21824:21937   */\n      jump(tag_747)\n    tag_749:\n        /* \"#utility.yul\":21955:21961   */\n      dup4\n        /* \"#utility.yul\":21952:21953   */\n      dup2\n        /* \"#utility.yul\":21949:21962   */\n      gt\n        /* \"#utility.yul\":21946:22047   */\n      iszero\n      tag_750\n      jumpi\n        /* \"#utility.yul\":22035:22036   */\n      0x00\n        /* \"#utility.yul\":22026:22032   */\n      dup5\n        /* \"#utility.yul\":22021:22024   */\n      dup5\n        /* \"#utility.yul\":22017:22033   */\n      add\n        /* \"#utility.yul\":22010:22037   */\n      mstore\n        /* \"#utility.yul\":21946:22047   */\n    tag_750:\n        /* \"#utility.yul\":21795:22053   */\n      pop\n        /* \"#utility.yul\":21746:22053   */\n      pop\n      pop\n      pop\n      jump\t// out\n        /* \"#utility.yul\":22059:22379   */\n    tag_111:\n        /* \"#utility.yul\":22103:22109   */\n      0x00\n        /* \"#utility.yul\":22140:22141   */\n      0x02\n        /* \"#utility.yul\":22134:22138   */\n      dup3\n        /* \"#utility.yul\":22130:22142   */\n      div\n        /* \"#utility.yul\":22120:22142   */\n      swap1\n      pop\n        /* \"#utility.yul\":22187:22188   */\n      0x01\n        /* \"#utility.yul\":22181:22185   */\n      dup3\n        /* \"#utility.yul\":22177:22189   */\n      and\n        /* \"#utility.yul\":22208:22226   */\n      dup1\n        /* \"#utility.yul\":22198:22279   */\n      tag_752\n      jumpi\n        /* \"#utility.yul\":22264:22268   */\n      0x7f\n        /* \"#utility.yul\":22256:22262   */\n      dup3\n        /* \"#utility.yul\":22252:22269   */\n      and\n        /* \"#utility.yul\":22242:22269   */\n      swap2\n      pop\n        /* \"#utility.yul\":22198:22279   */\n    tag_752:\n        /* \"#utility.yul\":22326:22328   */\n      0x20\n        /* \"#utility.yul\":22318:22324   */\n      dup3\n        /* \"#utility.yul\":22315:22329   */\n      lt\n        /* \"#utility.yul\":22295:22313   */\n      dup2\n        /* \"#utility.yul\":22292:22330   */\n      eq\n        /* \"#utility.yul\":22289:22373   */\n      iszero\n      tag_753\n      jumpi\n        /* \"#utility.yul\":22345:22363   */\n      tag_754\n      tag_755\n      jump\t// in\n    tag_754:\n        /* \"#utility.yul\":22289:22373   */\n    tag_753:\n        /* \"#utility.yul\":22110:22379   */\n      pop\n        /* \"#utility.yul\":22059:22379   */\n      swap2\n      swap1\n      pop\n      jump\t// out\n        /* \"#utility.yul\":22385:22666   */\n    tag_703:\n        /* \"#utility.yul\":22468:22495   */\n      tag_757\n        /* \"#utility.yul\":22490:22494   */\n      dup3\n        /* \"#utility.yul\":22468:22495   */\n      tag_603\n      jump\t// in\n    tag_757:\n        /* \"#utility.yul\":22460:22466   */\n      dup2\n        /* \"#utility.yul\":22456:22496   */\n      add\n        /* \"#utility.yul\":22598:22604   */\n      dup2\n        /* \"#utility.yul\":22586:22596   */\n      dup2\n        /* \"#utility.yul\":22583:22605   */\n      lt\n        /* \"#utility.yul\":22562:22580   */\n      0xffffffffffffffff\n        /* \"#utility.yul\":22550:22560   */\n      dup3\n        /* \"#utility.yul\":22547:22581   */\n      gt\n        /* \"#utility.yul\":22544:22606   */\n      or\n        /* \"#utility.yul\":22541:22629   */\n      iszero\n      tag_758\n      jumpi\n        /* \"#utility.yul\":22609:22627   */\n      tag_759\n      tag_400\n      jump\t// in\n    tag_759:\n        /* \"#utility.yul\":22541:22629   */\n    tag_758:\n        /* \"#utility.yul\":22649:22659   */\n      dup1\n        /* \"#utility.yul\":22645:22647   */\n      0x40\n        /* \"#utility.yul\":22638:22660   */\n      mstore\n        /* \"#utility.yul\":22428:22666   */\n      pop\n        /* \"#utility.yul\":22385:22666   */\n      pop\n      pop\n      jump\t// out\n        /* \"#utility.yul\":22672:22905   */\n    tag_354:\n        /* \"#utility.yul\":22711:22714   */\n      0x00\n        /* \"#utility.yul\":22734:22758   */\n      tag_761\n        /* \"#utility.yul\":22752:22757   */\n      dup3\n        /* \"#utility.yul\":22734:22758   */\n      tag_655\n      jump\t// in\n    tag_761:\n        /* \"#utility.yul\":22725:22758   */\n      swap2\n      pop\n        /* \"#utility.yul\":22780:22846   */\n      0xffffffffffffffffffffffffffffffffffffffffffffffffffffffffffffffff\n        /* \"#utility.yul\":22773:22778   */\n      dup3\n        /* \"#utility.yul\":22770:22847   */\n      eq\n        /* \"#utility.yul\":22767:22870   */\n      iszero\n      tag_762\n      jumpi\n        /* \"#utility.yul\":22850:22868   */\n      tag_763\n      tag_721\n      jump\t// in\n    tag_763:\n        /* \"#utility.yul\":22767:22870   */\n    tag_762:\n        /* \"#utility.yul\":22897:22898   */\n      0x01\n        /* \"#utility.yul\":22890:22895   */\n      dup3\n        /* \"#utility.yul\":22886:22899   */\n      add\n        /* \"#utility.yul\":22879:22899   */\n      swap1\n      pop\n        /* \"#utility.yul\":22672:22905   */\n      swap2\n      swap1\n      pop\n      jump\t// out\n        /* \"#utility.yul\":22911:22990   */\n    tag_593:\n        /* \"#utility.yul\":22950:22957   */\n      0x00\n        /* \"#utility.yul\":22979:22984   */\n      dup2\n        /* \"#utility.yul\":22968:22984   */\n      swap1\n      pop\n        /* \"#utility.yul\":22911:22990   */\n      swap2\n      swap1\n      pop\n      jump\t// out\n        /* \"#utility.yul\":22996:23075   */\n    tag_663:\n        /* \"#utility.yul\":23035:23042   */\n      0x00\n        /* \"#utility.yul\":23064:23069   */\n      dup2\n        /* \"#utility.yul\":23053:23069   */\n      swap1\n      pop\n        /* \"#utility.yul\":22996:23075   */\n      swap2\n      swap1\n      pop\n      jump\t// out\n        /* \"#utility.yul\":23081:23261   */\n    tag_721:\n        /* \"#utility.yul\":23129:23206   */\n      0x4e487b7100000000000000000000000000000000000000000000000000000000\n        /* \"#utility.yul\":23126:23127   */\n      0x00\n        /* \"#utility.yul\":23119:23207   */\n      mstore\n        /* \"#utility.yul\":23226:23230   */\n      0x11\n        /* \"#utility.yul\":23223:23224   */\n      0x04\n        /* \"#utility.yul\":23216:23231   */\n      mstore\n        /* \"#utility.yul\":23250:23254   */\n      0x24\n        /* \"#utility.yul\":23247:23248   */\n      0x00\n        /* \"#utility.yul\":23240:23255   */\n      revert\n        /* \"#utility.yul\":23267:23447   */\n    tag_727:\n        /* \"#utility.yul\":23315:23392   */\n      0x4e487b7100000000000000000000000000000000000000000000000000000000\n        /* \"#utility.yul\":23312:23313   */\n      0x00\n        /* \"#utility.yul\":23305:23393   */\n      mstore\n        /* \"#utility.yul\":23412:23416   */\n      0x12\n        /* \"#utility.yul\":23409:23410   */\n      0x04\n        /* \"#utility.yul\":23402:23417   */\n      mstore\n        /* \"#utility.yul\":23436:23440   */\n      0x24\n        /* \"#utility.yul\":23433:23434   */\n      0x00\n        /* \"#utility.yul\":23426:23441   */\n      revert\n        /* \"#utility.yul\":23453:23633   */\n    tag_755:\n        /* \"#utility.yul\":23501:23578   */\n      0x4e487b7100000000000000000000000000000000000000000000000000000000\n        /* \"#utility.yul\":23498:23499   */\n      0x00\n        /* \"#utility.yul\":23491:23579   */\n      mstore\n        /* \"#utility.yul\":23598:23602   */\n      0x22\n        /* \"#utility.yul\":23595:23596   */\n      0x04\n        /* \"#utility.yul\":23588:23603   */\n      mstore\n        /* \"#utility.yul\":23622:23626   */\n      0x24\n        /* \"#utility.yul\":23619:23620   */\n      0x00\n        /* \"#utility.yul\":23612:23627   */\n      revert\n        /* \"#utility.yul\":23639:23819   */\n    tag_291:\n        /* \"#utility.yul\":23687:23764   */\n      0x4e487b7100000000000000000000000000000000000000000000000000000000\n        /* \"#utility.yul\":23684:23685   */\n      0x00\n        /* \"#utility.yul\":23677:23765   */\n      mstore\n        /* \"#utility.yul\":23784:23788   */\n      0x32\n        /* \"#utility.yul\":23781:23782   */\n      0x04\n        /* \"#utility.yul\":23774:23789   */\n      mstore\n        /* \"#utility.yul\":23808:23812   */\n      0x24\n        /* \"#utility.yul\":23805:23806   */\n      0x00\n        /* \"#utility.yul\":23798:23813   */\n      revert\n        /* \"#utility.yul\":23825:24005   */\n    tag_400:\n        /* \"#utility.yul\":23873:23950   */\n      0x4e487b7100000000000000000000000000000000000000000000000000000000\n        /* \"#utility.yul\":23870:23871   */\n      0x00\n        /* \"#utility.yul\":23863:23951   */\n      mstore\n        /* \"#utility.yul\":23970:23974   */\n      0x41\n        /* \"#utility.yul\":23967:23968   */\n      0x04\n        /* \"#utility.yul\":23960:23975   */\n      mstore\n        /* \"#utility.yul\":23994:23998   */\n      0x24\n        /* \"#utility.yul\":23991:23992   */\n      0x00\n        /* \"#utility.yul\":23984:23999   */\n      revert\n        /* \"#utility.yul\":24011:24128   */\n    tag_502:\n        /* \"#utility.yul\":24120:24121   */\n      0x00\n        /* \"#utility.yul\":24117:24118   */\n      dup1\n        /* \"#utility.yul\":24110:24122   */\n      revert\n        /* \"#utility.yul\":24134:24251   */\n    tag_483:\n        /* \"#utility.yul\":24243:24244   */\n      0x00\n        /* \"#utility.yul\":24240:24241   */\n      dup1\n        /* \"#utility.yul\":24233:24245   */\n      revert\n        /* \"#utility.yul\":24257:24374   */\n    tag_548:\n        /* \"#utility.yul\":24366:24367   */\n      0x00\n        /* \"#utility.yul\":24363:24364   */\n      dup1\n        /* \"#utility.yul\":24356:24368   */\n      revert\n        /* \"#utility.yul\":24380:24497   */\n    tag_511:\n        /* \"#utility.yul\":24489:24490   */\n      0x00\n        /* \"#utility.yul\":24486:24487   */\n      dup1\n        /* \"#utility.yul\":24479:24491   */\n      revert\n        /* \"#utility.yul\":24503:24605   */\n    tag_603:\n        /* \"#utility.yul\":24544:24550   */\n      0x00\n        /* \"#utility.yul\":24595:24597   */\n      0x1f\n        /* \"#utility.yul\":24591:24598   */\n      not\n        /* \"#utility.yul\":24586:24588   */\n      0x1f\n        /* \"#utility.yul\":24579:24584   */\n      dup4\n        /* \"#utility.yul\":24575:24589   */\n      add\n        /* \"#utility.yul\":24571:24599   */\n      and\n        /* \"#utility.yul\":24561:24599   */\n      swap1\n      pop\n        /* \"#utility.yul\":24503:24605   */\n      swap2\n      swap1\n      pop\n      jump\t// out\n        /* \"#utility.yul\":24611:24786   */\n    tag_614:\n        /* \"#utility.yul\":24751:24778   */\n      0x4f6e6c79206f776e65722063616e2063616c6c20746869732e00000000000000\n        /* \"#utility.yul\":24747:24748   */\n      0x00\n        /* \"#utility.yul\":24739:24745   */\n      dup3\n        /* \"#utility.yul\":24735:24749   */\n      add\n        /* \"#utility.yul\":24728:24779   */\n      mstore\n        /* \"#utility.yul\":24611:24786   */\n      pop\n      jump\t// out\n        /* \"#utility.yul\":24792:24951   */\n    tag_619:\n        /* \"#utility.yul\":24932:24943   */\n      0x6e6f742065786973740000000000000000000000000000000000000000000000\n        /* \"#utility.yul\":24928:24929   */\n      0x00\n        /* \"#utility.yul\":24920:24926   */\n      dup3\n        /* \"#utility.yul\":24916:24930   */\n      add\n        /* \"#utility.yul\":24909:24944   */\n      mstore\n        /* \"#utility.yul\":24792:24951   */\n      pop\n      jump\t// out\n        /* \"#utility.yul\":24957:25121   */\n    tag_624:\n        /* \"#utility.yul\":25097:25113   */\n      0x706f6f6c206e6f74206578697374000000000000000000000000000000000000\n        /* \"#utility.yul\":25093:25094   */\n      0x00\n        /* \"#utility.yul\":25085:25091   */\n      dup3\n        /* \"#utility.yul\":25081:25095   */\n      add\n        /* \"#utility.yul\":25074:25114   */\n      mstore\n        /* \"#utility.yul\":24957:25121   */\n      pop\n      jump\t// out\n        /* \"#utility.yul\":25127:25287   */\n    tag_629:\n        /* \"#utility.yul\":25267:25279   */\n      0x7061697220657869737400000000000000000000000000000000000000000000\n        /* \"#utility.yul\":25263:25264   */\n      0x00\n        /* \"#utility.yul\":25255:25261   */\n      dup3\n        /* \"#utility.yul\":25251:25265   */\n      add\n        /* \"#utility.yul\":25244:25280   */\n      mstore\n        /* \"#utility.yul\":25127:25287   */\n      pop\n      jump\t// out\n        /* \"#utility.yul\":25293:25464   */\n    tag_634:\n        /* \"#utility.yul\":25433:25456   */\n      0x706f6f6c20686173206e6f742066696e69736865640000000000000000000000\n        /* \"#utility.yul\":25429:25430   */\n      0x00\n        /* \"#utility.yul\":25421:25427   */\n      dup3\n        /* \"#utility.yul\":25417:25431   */\n      add\n        /* \"#utility.yul\":25410:25457   */\n      mstore\n        /* \"#utility.yul\":25293:25464   */\n      pop\n      jump\t// out\n        /* \"#utility.yul\":25470:25641   */\n    tag_639:\n        /* \"#utility.yul\":25610:25633   */\n      0x6e6f7420656e6f75676820766f7465416d6f756e740000000000000000000000\n        /* \"#utility.yul\":25606:25607   */\n      0x00\n        /* \"#utility.yul\":25598:25604   */\n      dup3\n        /* \"#utility.yul\":25594:25608   */\n      add\n        /* \"#utility.yul\":25587:25634   */\n      mstore\n        /* \"#utility.yul\":25470:25641   */\n      pop\n      jump\t// out\n        /* \"#utility.yul\":25647:25814   */\n    tag_644:\n        /* \"#utility.yul\":25787:25806   */\n      0x706f6f6c206861732066696e6973686564000000000000000000000000000000\n        /* \"#utility.yul\":25783:25784   */\n      0x00\n        /* \"#utility.yul\":25775:25781   */\n      dup3\n        /* \"#utility.yul\":25771:25785   */\n      add\n        /* \"#utility.yul\":25764:25807   */\n      mstore\n        /* \"#utility.yul\":25647:25814   */\n      pop\n      jump\t// out\n        /* \"#utility.yul\":25820:25942   */\n    tag_489:\n        /* \"#utility.yul\":25893:25917   */\n      tag_784\n        /* \"#utility.yul\":25911:25916   */\n      dup2\n        /* \"#utility.yul\":25893:25917   */\n      tag_564\n      jump\t// in\n    tag_784:\n        /* \"#utility.yul\":25886:25891   */\n      dup2\n        /* \"#utility.yul\":25883:25918   */\n      eq\n        /* \"#utility.yul\":25873:25936   */\n      tag_785\n      jumpi\n        /* \"#utility.yul\":25932:25933   */\n      0x00\n        /* \"#utility.yul\":25929:25930   */\n      dup1\n        /* \"#utility.yul\":25922:25934   */\n      revert\n        /* \"#utility.yul\":25873:25936   */\n    tag_785:\n        /* \"#utility.yul\":25820:25942   */\n      pop\n      jump\t// out\n        /* \"#utility.yul\":25948:26064   */\n    tag_493:\n        /* \"#utility.yul\":26018:26039   */\n      tag_787\n        /* \"#utility.yul\":26033:26038   */\n      dup2\n        /* \"#utility.yul\":26018:26039   */\n      tag_582\n      jump\t// in\n    tag_787:\n        /* \"#utility.yul\":26011:26016   */\n      dup2\n        /* \"#utility.yul\":26008:26040   */\n      eq\n        /* \"#utility.yul\":25998:26058   */\n      tag_788\n      jumpi\n        /* \"#utility.yul\":26054:26055   */\n      0x00\n        /* \"#utility.yul\":26051:26052   */\n      dup1\n        /* \"#utility.yul\":26044:26056   */\n      revert\n        /* \"#utility.yul\":25998:26058   */\n    tag_788:\n        /* \"#utility.yul\":25948:26064   */\n      pop\n      jump\t// out\n        /* \"#utility.yul\":26070:26192   */\n    tag_497:\n        /* \"#utility.yul\":26143:26167   */\n      tag_790\n        /* \"#utility.yul\":26161:26166   */\n      dup2\n        /* \"#utility.yul\":26143:26167   */\n      tag_585\n      jump\t// in\n    tag_790:\n        /* \"#utility.yul\":26136:26141   */\n      dup2\n        /* \"#utility.yul\":26133:26168   */\n      eq\n        /* \"#utility.yul\":26123:26186   */\n      tag_791\n      jumpi\n        /* \"#utility.yul\":26182:26183   */\n      0x00\n        /* \"#utility.yul\":26179:26180   */\n      dup1\n        /* \"#utility.yul\":26172:26184   */\n      revert\n        /* \"#utility.yul\":26123:26186   */\n    tag_791:\n        /* \"#utility.yul\":26070:26192   */\n      pop\n      jump\t// out\n        /* \"#utility.yul\":26198:26320   */\n    tag_507:\n        /* \"#utility.yul\":26271:26295   */\n      tag_793\n        /* \"#utility.yul\":26289:26294   */\n      dup2\n        /* \"#utility.yul\":26271:26295   */\n      tag_655\n      jump\t// in\n    tag_793:\n        /* \"#utility.yul\":26264:26269   */\n      dup2\n        /* \"#utility.yul\":26261:26296   */\n      eq\n        /* \"#utility.yul\":26251:26314   */\n      tag_794\n      jumpi\n        /* \"#utility.yul\":26310:26311   */\n      0x00\n        /* \"#utility.yul\":26307:26308   */\n      dup1\n        /* \"#utility.yul\":26300:26312   */\n      revert\n        /* \"#utility.yul\":26251:26314   */\n    tag_794:\n        /* \"#utility.yul\":26198:26320   */\n      pop\n      jump\t// out\n    stop\n    data_63d529c162db78e8ed8a28913883ad9c6a8ef7b79a0d650da6d67fd958da5109 307865643633346465613034346665393266366438633936313263333834346334393531303534633534313761386533356338343237323063323236333361303464\n\n    auxdata: 0xa26469706673582212209ca632d7fa5f448a46c66d9b863ba71a104631bf6ba97cf327d222e899b7f29f64736f6c63430008070033\n}\n",
				"bytecode": {
					"linkReferences": {},
					"object": "60806040523480156200001157600080fd5b5060405162003ed338038062003ed38339818101604052810190620000379190620000bc565b816000806101000a81548173ffffffffffffffffffffffffffffffffffffffff021916908373ffffffffffffffffffffffffffffffffffffffff16021790555060006003819055508060018190555050506200017a565b6000815190506200009f8162000146565b92915050565b600081519050620000b68162000160565b92915050565b60008060408385031215620000d657620000d562000141565b5b6000620000e6858286016200008e565b9250506020620000f985828601620000a5565b9150509250929050565b6000620001108262000117565b9050919050565b600073ffffffffffffffffffffffffffffffffffffffff82169050919050565b6000819050919050565b600080fd5b620001518162000103565b81146200015d57600080fd5b50565b6200016b8162000137565b81146200017757600080fd5b50565b613d49806200018a6000396000f3fe6080604052600436106100ab5760003560e01c806347e4dd271161006457806347e4dd271461030157806374fe9bc21461033e5780639bd0abf11461036e578063baf412691461039e578063ea8870c0146103c9578063f6c00927146103f4576101cc565b80630c66b373146101d15780630ce49053146101fc5780632775e02c1461022c578063357965ba1461025c5780633e6ff1a2146102995780634121855f146102c4576101cc565b366101cc5760008054906101000a900473ffffffffffffffffffffffffffffffffffffffff1673ffffffffffffffffffffffffffffffffffffffff163373ffffffffffffffffffffffffffffffffffffffff16146101c95761011d662386f26fc100003461043390919063ffffffff16565b600460003373ffffffffffffffffffffffffffffffffffffffff1673ffffffffffffffffffffffffffffffffffffffff168152602001908152602001600020600082825461016b91906137dd565b92505081905550346003600082825461018491906137dd565b925050819055507f88a5966d370b9919b20f3e2c13ff65706f196a4e32cc2c12bf57088f8852587433346040516101bc929190613566565b60405180910390a16101ca565b5b005b600080fd5b3480156101dd57600080fd5b506101e661045b565b6040516101f3919061370c565b60405180910390f35b61021660048036038101906102119190612ff8565b6104f4565b60405161022391906135b1565b60405180910390f35b61024660048036038101906102419190612fcb565b610930565b60405161025391906135b1565b60405180910390f35b34801561026857600080fd5b50610283600480360381019061027e9190613199565b610a25565b60405161029091906135cc565b60405180910390f35b3480156102a557600080fd5b506102ae610d16565b6040516102bb919061370c565b60405180910390f35b3480156102d057600080fd5b506102eb60048036038101906102e69190613105565b610daf565b6040516102f8919061370c565b60405180910390f35b34801561030d57600080fd5b5061032860048036038101906103239190613078565b61114c565b60405161033591906135b1565b60405180910390f35b61035860048036038101906103539190613132565b61189e565b60405161036591906135b1565b60405180910390f35b61038860048036038101906103839190613038565b612311565b60405161039591906135b1565b60405180910390f35b3480156103aa57600080fd5b506103b3612525565b6040516103c0919061370c565b60405180910390f35b3480156103d557600080fd5b506103de61256c565b6040516103eb919061358f565b60405180910390f35b34801561040057600080fd5b5061041b60048036038101906104169190613105565b6125c4565b60405161042a939291906135e7565b60405180910390f35b600080821161044157600080fd5b6000828461044f9190613833565b90508091505092915050565b60008060009054906101000a900473ffffffffffffffffffffffffffffffffffffffff1673ffffffffffffffffffffffffffffffffffffffff163373ffffffffffffffffffffffffffffffffffffffff16146104ec576040517f08c379a00000000000000000000000000000000000000000000000000000000081526004016104e39061362c565b60405180910390fd5b600354905090565b60008060009054906101000a900473ffffffffffffffffffffffffffffffffffffffff1673ffffffffffffffffffffffffffffffffffffffff163373ffffffffffffffffffffffffffffffffffffffff1614610585576040517f08c379a000000000000000000000000000000000000000000000000000000000815260040161057c9061362c565b60405180910390fd5b61058e826128ee565b6105cd576040517f08c379a00000000000000000000000000000000000000000000000000000000081526004016105c49061366c565b60405180910390fd5b600060056000848152602001908152602001600020604051806101600160405290816000820180546105fe90613986565b80601f016020809104026020016040519081016040528092919081815260200182805461062a90613986565b80156106775780601f1061064c57610100808354040283529160200191610677565b820191906000526020600020905b81548152906001019060200180831161065a57829003601f168201915b5050505050815260200160018201805461069090613986565b80601f01602080910402602001604051908101604052809291908181526020018280546106bc90613986565b80156107095780601f106106de57610100808354040283529160200191610709565b820191906000526020600020905b8154815290600101906020018083116106ec57829003601f168201915b5050505050815260200160028201805461072290613986565b80601f016020809104026020016040519081016040528092919081815260200182805461074e90613986565b801561079b5780601f106107705761010080835404028352916020019161079b565b820191906000526020600020905b81548152906001019060200180831161077e57829003601f168201915b5050505050815260200160038201548152602001600482015481526020016005820154815260200160068201548152602001600782015481526020016008820160009054906101000a900460ff161515151581526020016008820160019054906101000a900460ff161515151581526020016008820160029054906101000a900460ff1615151515815250509050600061087f600a8360e001518460c0015185608001518660a00151876060015161085391906137dd565b61085d91906137dd565b61086791906137dd565b61087191906137dd565b61043390919063ffffffff16565b90506001826101400190151590811515815250156108e95760008590508073ffffffffffffffffffffffffffffffffffffffff166108fc839081150290604051600060405180830381858888f193505050501580156108e2573d6000803e3d6000fd5b5050610924565b6040517f08c379a000000000000000000000000000000000000000000000000000000000815260040161091b906136ac565b60405180910390fd5b50506001905092915050565b60008060009054906101000a900473ffffffffffffffffffffffffffffffffffffffff1673ffffffffffffffffffffffffffffffffffffffff163373ffffffffffffffffffffffffffffffffffffffff16146109c1576040517f08c379a00000000000000000000000000000000000000000000000000000000081526004016109b89061362c565b60405180910390fd5b60008290508073ffffffffffffffffffffffffffffffffffffffff166108fc60016003546109ef91906138be565b9081150290604051600060405180830381858888f19350505050158015610a1a573d6000803e3d6000fd5b506001915050919050565b60008060009054906101000a900473ffffffffffffffffffffffffffffffffffffffff1673ffffffffffffffffffffffffffffffffffffffff163373ffffffffffffffffffffffffffffffffffffffff1614610ab6576040517f08c379a0000000000000000000000000000000000000000000000000000000008152600401610aad9061362c565b60405180910390fd5b6000610ac2868661291b565b90506000610ad0828661291b565b9050600081604051602001610ae59190613534565b604051602081830303815290604052805190602001209050610b06816128ee565b15610b46576040517f08c379a0000000000000000000000000000000000000000000000000000000008152600401610b3d9061368c565b60405180910390fd5b60016005600083815260200190815260200160002060080160016101000a81548160ff02191690831515021790555087600560008381526020019081526020016000206000019080519060200190610b9f929190612e35565b5086600560008381526020019081526020016000206001019080519060200190610bca929190612e35565b5085600560008381526020019081526020016000206002019080519060200190610bf5929190612e35565b506000600560008381526020019081526020016000206003018190555060006005600083815260200190815260200160002060040181905550600060056000838152602001908152602001600020600501819055506000600560008381526020019081526020016000206006018190555060006005600083815260200190815260200160002060070181905550846005600083815260200190815260200160002060080160006101000a81548160ff02191690831515021790555060006005600083815260200190815260200160002060080160026101000a81548160ff0219169083151502179055506002819080600181540180825580915050600190039060005260206000200160009091909190915055809350505050949350505050565b60008060009054906101000a900473ffffffffffffffffffffffffffffffffffffffff1673ffffffffffffffffffffffffffffffffffffffff163373ffffffffffffffffffffffffffffffffffffffff1614610da7576040517f08c379a0000000000000000000000000000000000000000000000000000000008152600401610d9e9061362c565b60405180910390fd5b600154905090565b60008060009054906101000a900473ffffffffffffffffffffffffffffffffffffffff1673ffffffffffffffffffffffffffffffffffffffff163373ffffffffffffffffffffffffffffffffffffffff1614610e40576040517f08c379a0000000000000000000000000000000000000000000000000000000008152600401610e379061362c565b60405180910390fd5b610e49826128ee565b610e88576040517f08c379a0000000000000000000000000000000000000000000000000000000008152600401610e7f9061366c565b60405180910390fd5b60006005600084815260200190815260200160002060405180610160016040529081600082018054610eb990613986565b80601f0160208091040260200160405190810160405280929190818152602001828054610ee590613986565b8015610f325780601f10610f0757610100808354040283529160200191610f32565b820191906000526020600020905b815481529060010190602001808311610f1557829003601f168201915b50505050508152602001600182018054610f4b90613986565b80601f0160208091040260200160405190810160405280929190818152602001828054610f7790613986565b8015610fc45780601f10610f9957610100808354040283529160200191610fc4565b820191906000526020600020905b815481529060010190602001808311610fa757829003601f168201915b50505050508152602001600282018054610fdd90613986565b80601f016020809104026020016040519081016040528092919081815260200182805461100990613986565b80156110565780601f1061102b57610100808354040283529160200191611056565b820191906000526020600020905b81548152906001019060200180831161103957829003601f168201915b5050505050815260200160038201548152602001600482015481526020016005820154815260200160068201548152602001600782015481526020016008820160009054906101000a900460ff161515151581526020016008820160019054906101000a900460ff161515151581526020016008820160029054906101000a900460ff1615151515815250509050600061114066038d7ea4c680008360e001518460c0015185608001518660a00151876060015161111491906137dd565b61111e91906137dd565b61112891906137dd565b61113291906137dd565b612ab190919063ffffffff16565b90508092505050919050565b6000611157856128ee565b611196576040517f08c379a000000000000000000000000000000000000000000000000000000000815260040161118d9061366c565b60405180910390fd5b85600460008973ffffffffffffffffffffffffffffffffffffffff1673ffffffffffffffffffffffffffffffffffffffff168152602001908152602001600020541015611218576040517f08c379a000000000000000000000000000000000000000000000000000000000815260040161120f906136cc565b60405180910390fd5b6000600560008781526020019081526020016000206040518061016001604052908160008201805461124990613986565b80601f016020809104026020016040519081016040528092919081815260200182805461127590613986565b80156112c25780601f10611297576101008083540402835291602001916112c2565b820191906000526020600020905b8154815290600101906020018083116112a557829003601f168201915b505050505081526020016001820180546112db90613986565b80601f016020809104026020016040519081016040528092919081815260200182805461130790613986565b80156113545780601f1061132957610100808354040283529160200191611354565b820191906000526020600020905b81548152906001019060200180831161133757829003601f168201915b5050505050815260200160028201805461136d90613986565b80601f016020809104026020016040519081016040528092919081815260200182805461139990613986565b80156113e65780601f106113bb576101008083540402835291602001916113e6565b820191906000526020600020905b8154815290600101906020018083116113c957829003601f168201915b5050505050815260200160038201548152602001600482015481526020016005820154815260200160068201548152602001600782015481526020016008820160009054906101000a900460ff161515151581526020016008820160019054906101000a900460ff161515151581526020016008820160029054906101000a900460ff1615151515815250509050600061149061148287612af6565b61148b87612af6565b61291b565b905060006114a66114a089612b27565b8361291b565b905060006040518060e001604052808b81526020018781526020018981526020018881526020018c73ffffffffffffffffffffffffffffffffffffffff16815260200183815260200160001515815250905088600660008b815260200190815260200160002060010181905550600660008a81526020019081526020016000206000018190806001815401808255809150506001900390600052602060002090600702016000909190919091506000820151816000015560208201518160010155604082015181600201556060820151816003015560808201518160040160006101000a81548173ffffffffffffffffffffffffffffffffffffffff021916908373ffffffffffffffffffffffffffffffffffffffff16021790555060a08201518160050190805190602001906115de929190612e35565b5060c08201518160060160006101000a81548160ff02191690831515021790555050508a600860008d73ffffffffffffffffffffffffffffffffffffffff1673ffffffffffffffffffffffffffffffffffffffff16815260200190815260200160002060010160006101000a81548173ffffffffffffffffffffffffffffffffffffffff021916908373ffffffffffffffffffffffffffffffffffffffff160217905550600660008a81526020019081526020016000206000018190806001815401808255809150506001900390600052602060002090600702016000909190919091506000820151816000015560208201518160010155604082015181600201556060820151816003015560808201518160040160006101000a81548173ffffffffffffffffffffffffffffffffffffffff021916908373ffffffffffffffffffffffffffffffffffffffff16021790555060a082015181600501908051906020019061174d929190612e35565b5060c08201518160060160006101000a81548160ff021916908315150217905550505060028614156117cc57898460c00181815161178b91906137dd565b91508181525050896007836040516117a39190613534565b908152602001604051809103902060008282546117c091906137dd565b92505081905550611836565b60038614156117f35789846060018181516117e791906137dd565b91508181525050611835565b600186141561181a57898460800181815161180e91906137dd565b91508181525050611834565b898460a00181815161182c91906137dd565b915081815250505b5b5b89600460008d73ffffffffffffffffffffffffffffffffffffffff1673ffffffffffffffffffffffffffffffffffffffff168152602001908152602001600020600082825461188591906138be565b9250508190555050505050600190509695505050505050565b60008060009054906101000a900473ffffffffffffffffffffffffffffffffffffffff1673ffffffffffffffffffffffffffffffffffffffff163373ffffffffffffffffffffffffffffffffffffffff161461192f576040517f08c379a00000000000000000000000000000000000000000000000000000000081526004016119269061362c565b60405180910390fd5b611938856128ee565b611977576040517f08c379a000000000000000000000000000000000000000000000000000000000815260040161196e9061366c565b60405180910390fd5b600060056000878152602001908152602001600020604051806101600160405290816000820180546119a890613986565b80601f01602080910402602001604051908101604052809291908181526020018280546119d490613986565b8015611a215780601f106119f657610100808354040283529160200191611a21565b820191906000526020600020905b815481529060010190602001808311611a0457829003601f168201915b50505050508152602001600182018054611a3a90613986565b80601f0160208091040260200160405190810160405280929190818152602001828054611a6690613986565b8015611ab35780601f10611a8857610100808354040283529160200191611ab3565b820191906000526020600020905b815481529060010190602001808311611a9657829003601f168201915b50505050508152602001600282018054611acc90613986565b80601f0160208091040260200160405190810160405280929190818152602001828054611af890613986565b8015611b455780601f10611b1a57610100808354040283529160200191611b45565b820191906000526020600020905b815481529060010190602001808311611b2857829003601f168201915b5050505050815260200160038201548152602001600482015481526020016005820154815260200160068201548152602001600782015481526020016008820160009054906101000a900460ff161515151581526020016008820160019054906101000a900460ff161515151581526020016008820160029054906101000a900460ff1615151515815250509050600181610140019015159081151581525015611c24576040517f08c379a0000000000000000000000000000000000000000000000000000000008152600401611c1b906136ec565b60405180910390fd5b600060066000888152602001908152602001600020600001805480602002602001604051908101604052809291908181526020016000905b82821015611db957838290600052602060002090600702016040518060e0016040529081600082015481526020016001820154815260200160028201548152602001600382015481526020016004820160009054906101000a900473ffffffffffffffffffffffffffffffffffffffff1673ffffffffffffffffffffffffffffffffffffffff1673ffffffffffffffffffffffffffffffffffffffff168152602001600582018054611d0d90613986565b80601f0160208091040260200160405190810160405280929190818152602001828054611d3990613986565b8015611d865780601f10611d5b57610100808354040283529160200191611d86565b820191906000526020600020905b815481529060010190602001808311611d6957829003601f168201915b505050505081526020016006820160009054906101000a900460ff16151515158152505081526020019060010190611c5c565b5050505090506000611e286014611dde60028660e0015161043390919063ffffffff16565b85608001518660a0015187606001518860c00151611dfc91906137dd565b611e0691906137dd565b611e1091906137dd565b611e1a91906137dd565b61043390919063ffffffff16565b60016000828254611e3991906137dd565b9250508190555060005b60018351611e5191906138be565b81116122ef576000838281518110611e6c57611e6b613ad3565b5b602002602001015160c00190151590811515815250156122dc576002838281518110611e9b57611e9a613ad3565b5b602002602001015160200151141561206c57611efa6064611eec6055611ecf60028960e0015161043390919063ffffffff16565b8860c00151611ede91906137dd565b612ab190919063ffffffff16565b61043390919063ffffffff16565b915087838281518110611f1057611f0f613ad3565b5b602002602001015160400151148015611f46575086838281518110611f3857611f37613ad3565b5b602002602001015160600151145b156120675760006007848381518110611f6257611f61613ad3565b5b602002602001015160a00151604051611f7b9190613534565b9081526020016040518091039020549050600081858481518110611fa257611fa1613ad3565b5b60200260200101516000015185611fb99190613864565b611fc39190613833565b90508060046000878681518110611fdd57611fdc613ad3565b5b60200260200101516080015173ffffffffffffffffffffffffffffffffffffffff1673ffffffffffffffffffffffffffffffffffffffff168152602001908152602001600020600082825461203291906137dd565b92505081905550600185848151811061204e5761204d613ad3565b5b602002602001015160c001901515908115158152505050505b6122db565b858382815181106120805761207f613ad3565b5b60200260200101516020015114156122da576120fd60646120ef60556120b460028960e0015161043390919063ffffffff16565b88608001518960a001518a606001516120cd91906137dd565b6120d791906137dd565b6120e191906137dd565b612ab190919063ffffffff16565b61043390919063ffffffff16565b915060008084838151811061211557612114613ad3565b5b602002602001015160200151141561215557612152606461214460558860a00151612ab190919063ffffffff16565b61043390919063ffffffff16565b90505b600184838151811061216a57612169613ad3565b5b60200260200101516020015114156121aa576121a7606461219960558860800151612ab190919063ffffffff16565b61043390919063ffffffff16565b90505b60038483815181106121bf576121be613ad3565b5b60200260200101516020015114156121ff576121fc60646121ee60558860600151612ab190919063ffffffff16565b61043390919063ffffffff16565b90505b60008185848151811061221557612214613ad3565b5b6020026020010151600001518561222c9190613864565b6122369190613833565b905080600460008786815181106122505761224f613ad3565b5b60200260200101516080015173ffffffffffffffffffffffffffffffffffffffff1673ffffffffffffffffffffffffffffffffffffffff16815260200190815260200160002060008282546122a591906137dd565b9250508190555060018584815181106122c1576122c0613ad3565b5b602002602001015160c001901515908115158152505050505b5b5b80806122e7906139e9565b915050611e43565b5060018361014001901515908115158152505050505060019050949350505050565b60008060009054906101000a900473ffffffffffffffffffffffffffffffffffffffff1673ffffffffffffffffffffffffffffffffffffffff163373ffffffffffffffffffffffffffffffffffffffff16146123a2576040517f08c379a00000000000000000000000000000000000000000000000000000000081526004016123999061362c565b60405180910390fd5b81600460008573ffffffffffffffffffffffffffffffffffffffff1673ffffffffffffffffffffffffffffffffffffffff168152602001908152602001600020541015801561243157506000600460008573ffffffffffffffffffffffffffffffffffffffff1673ffffffffffffffffffffffffffffffffffffffff1681526020019081526020016000205410155b156124e05760008390508073ffffffffffffffffffffffffffffffffffffffff166108fc6124ae662386f26fc10000600460008973ffffffffffffffffffffffffffffffffffffffff1673ffffffffffffffffffffffffffffffffffffffff16815260200190815260200160002054612ab190919063ffffffff16565b9081150290604051600060405180830381858888f193505050501580156124d9573d6000803e3d6000fd5b505061251b565b6040517f08c379a0000000000000000000000000000000000000000000000000000000008152600401612512906136cc565b60405180910390fd5b6001905092915050565b6000600460003373ffffffffffffffffffffffffffffffffffffffff1673ffffffffffffffffffffffffffffffffffffffff16815260200190815260200160002054905090565b606060028054806020026020016040519081016040528092919081815260200182805480156125ba57602002820191906000526020600020905b8154815260200190600101908083116125a6575b5050505050905090565b6060806125cf612ebb565b6125d8846128ee565b612617576040517f08c379a000000000000000000000000000000000000000000000000000000000815260040161260e9061364c565b60405180910390fd5b60006126f660056000878152602001908152602001600020600001805461263d90613986565b80601f016020809104026020016040519081016040528092919081815260200182805461266990613986565b80156126b65780601f1061268b576101008083540402835291602001916126b6565b820191906000526020600020905b81548152906001019060200180831161269957829003601f168201915b50505050506040518060400160405280600481526020017f207673200000000000000000000000000000000000000000000000000000000081525061291b565b90506127a08160056000888152602001908152602001600020600101805461271d90613986565b80601f016020809104026020016040519081016040528092919081815260200182805461274990613986565b80156127965780601f1061276b57610100808354040283529160200191612796565b820191906000526020600020905b81548152906001019060200180831161277957829003601f168201915b505050505061291b565b935060006040518060a00160405280600560008981526020019081526020016000206003015481526020016005600089815260200190815260200160002060040154815260200160056000898152602001908152602001600020600501548152602001600560008981526020019081526020016000206006015481526020016005600089815260200190815260200160002060070154815250905084600560008881526020019081526020016000206002018281805461285f90613986565b80601f016020809104026020016040519081016040528092919081815260200182805461288b90613986565b80156128d85780601f106128ad576101008083540402835291602001916128d8565b820191906000526020600020905b8154815290600101906020018083116128bb57829003601f168201915b5050505050915094509450945050509193909250565b60006005600083815260200190815260200160002060080160019054906101000a900460ff169050919050565b60606000839050600083905060008151835161293791906137dd565b67ffffffffffffffff8111156129505761294f613b02565b5b6040519080825280601f01601f1916602001820160405280156129825781602001600182028036833780820191505090505b50905060008190506000805b8551811015612a16578581815181106129aa576129a9613ad3565b5b602001015160f81c60f81b8383806129c1906139e9565b9450815181106129d4576129d3613ad3565b5b60200101907effffffffffffffffffffffffffffffffffffffffffffffffffffffffffffff1916908160001a9053508080612a0e906139e9565b91505061298e565b5060005b8451811015612aa257848181518110612a3657612a35613ad3565b5b602001015160f81c60f81b838380612a4d906139e9565b945081518110612a6057612a5f613ad3565b5b60200101907effffffffffffffffffffffffffffffffffffffffffffffffffffffffffffff1916908160001a9053508080612a9a906139e9565b915050612a1a565b50829550505050505092915050565b600080831415612ac45760009050612af0565b60008284612ad29190613864565b9050828482612ae19190613833565b14612aeb57600080fd5b809150505b92915050565b6060612b2082604051602001612b0c919061354b565b604051602081830303815290604052612b58565b9050919050565b6060612b5182604051602001612b3d9190613519565b604051602081830303815290604052612b58565b9050919050565b60606000604051806080016040528060428152602001613cd2604291399050600060028451612b879190613864565b6002612b9391906137dd565b67ffffffffffffffff811115612bac57612bab613b02565b5b6040519080825280601f01601f191660200182016040528015612bde5781602001600182028036833780820191505090505b5090507f300000000000000000000000000000000000000000000000000000000000000081600081518110612c1657612c15613ad3565b5b60200101907effffffffffffffffffffffffffffffffffffffffffffffffffffffffffffff1916908160001a9053507f780000000000000000000000000000000000000000000000000000000000000081600181518110612c7a57612c79613ad3565b5b60200101907effffffffffffffffffffffffffffffffffffffffffffffffffffffffffffff1916908160001a90535060005b8451811015612e2a57826004868381518110612ccb57612cca613ad3565b5b602001015160f81c60f81b7effffffffffffffffffffffffffffffffffffffffffffffffffffffffffffff1916901c60f81c60ff1681518110612d1157612d10613ad3565b5b602001015160f81c60f81b82600283612d2a9190613864565b6002612d3691906137dd565b81518110612d4757612d46613ad3565b5b60200101907effffffffffffffffffffffffffffffffffffffffffffffffffffffffffffff1916908160001a90535082600f60f81b868381518110612d8f57612d8e613ad3565b5b602001015160f81c60f81b1660f81c60ff1681518110612db257612db1613ad3565b5b602001015160f81c60f81b82600283612dcb9190613864565b6003612dd791906137dd565b81518110612de857612de7613ad3565b5b60200101907effffffffffffffffffffffffffffffffffffffffffffffffffffffffffffff1916908160001a9053508080612e22906139e9565b915050612cac565b508092505050919050565b828054612e4190613986565b90600052602060002090601f016020900481019282612e635760008555612eaa565b82601f10612e7c57805160ff1916838001178555612eaa565b82800160010185558215612eaa579182015b82811115612ea9578251825591602001919060010190612e8e565b5b509050612eb79190612eea565b5090565b6040518060a0016040528060008152602001600081526020016000815260200160008152602001600081525090565b5b80821115612f03576000816000905550600101612eeb565b5090565b6000612f1a612f158461374c565b613727565b905082815260208101848484011115612f3657612f35613b36565b5b612f41848285613944565b509392505050565b600081359050612f5881613c75565b92915050565b600081359050612f6d81613c8c565b92915050565b600081359050612f8281613ca3565b92915050565b600082601f830112612f9d57612f9c613b31565b5b8135612fad848260208601612f07565b91505092915050565b600081359050612fc581613cba565b92915050565b600060208284031215612fe157612fe0613b40565b5b6000612fef84828501612f49565b91505092915050565b6000806040838503121561300f5761300e613b40565b5b600061301d85828601612f49565b925050602061302e85828601612f73565b9150509250929050565b6000806040838503121561304f5761304e613b40565b5b600061305d85828601612f49565b925050602061306e85828601612fb6565b9150509250929050565b60008060008060008060c0878903121561309557613094613b40565b5b60006130a389828a01612f49565b96505060206130b489828a01612fb6565b95505060406130c589828a01612f73565b94505060606130d689828a01612fb6565b93505060806130e789828a01612fb6565b92505060a06130f889828a01612fb6565b9150509295509295509295565b60006020828403121561311b5761311a613b40565b5b600061312984828501612f73565b91505092915050565b6000806000806080858703121561314c5761314b613b40565b5b600061315a87828801612f73565b945050602061316b87828801612fb6565b935050604061317c87828801612fb6565b925050606061318d87828801612fb6565b91505092959194509250565b600080600080608085870312156131b3576131b2613b40565b5b600085013567ffffffffffffffff8111156131d1576131d0613b3b565b5b6131dd87828801612f88565b945050602085013567ffffffffffffffff8111156131fe576131fd613b3b565b5b61320a87828801612f88565b935050604085013567ffffffffffffffff81111561322b5761322a613b3b565b5b61323787828801612f88565b925050606061324887828801612f5e565b91505092959194509250565b600061326083836132e8565b60208301905092915050565b613275816138f2565b82525050565b60006132868261378d565b61329081856137b0565b935061329b8361377d565b8060005b838110156132cc5781516132b38882613254565b97506132be836137a3565b92505060018101905061329f565b5085935050505092915050565b6132e281613904565b82525050565b6132f181613910565b82525050565b61330081613910565b82525050565b61331761331282613910565b613a32565b82525050565b600061332882613798565b61333281856137c1565b9350613342818560208601613953565b61334b81613b45565b840191505092915050565b600061336182613798565b61336b81856137d2565b935061337b818560208601613953565b80840191505092915050565b60006133946019836137c1565b915061339f82613b56565b602082019050919050565b60006133b76009836137c1565b91506133c282613b7f565b602082019050919050565b60006133da600e836137c1565b91506133e582613ba8565b602082019050919050565b60006133fd600a836137c1565b915061340882613bd1565b602082019050919050565b60006134206015836137c1565b915061342b82613bfa565b602082019050919050565b60006134436015836137c1565b915061344e82613c23565b602082019050919050565b60006134666011836137c1565b915061347182613c4c565b602082019050919050565b60a08201600082015161349260008501826134e4565b5060208201516134a560208501826134e4565b5060408201516134b860408501826134e4565b5060608201516134cb60608501826134e4565b5060808201516134de60808501826134e4565b50505050565b6134ed8161393a565b82525050565b6134fc8161393a565b82525050565b61351361350e8261393a565b613a3c565b82525050565b60006135258284613306565b60208201915081905092915050565b60006135408284613356565b915081905092915050565b60006135578284613502565b60208201915081905092915050565b600060408201905061357b600083018561326c565b61358860208301846134f3565b9392505050565b600060208201905081810360008301526135a9818461327b565b905092915050565b60006020820190506135c660008301846132d9565b92915050565b60006020820190506135e160008301846132f7565b92915050565b600060e0820190508181036000830152613601818661331d565b90508181036020830152613615818561331d565b9050613624604083018461347c565b949350505050565b6000602082019050818103600083015261364581613387565b9050919050565b60006020820190508181036000830152613665816133aa565b9050919050565b60006020820190508181036000830152613685816133cd565b9050919050565b600060208201905081810360008301526136a5816133f0565b9050919050565b600060208201905081810360008301526136c581613413565b9050919050565b600060208201905081810360008301526136e581613436565b9050919050565b6000602082019050818103600083015261370581613459565b9050919050565b600060208201905061372160008301846134f3565b92915050565b6000613731613742565b905061373d82826139b8565b919050565b6000604051905090565b600067ffffffffffffffff82111561376757613766613b02565b5b61377082613b45565b9050602081019050919050565b6000819050602082019050919050565b600081519050919050565b600081519050919050565b6000602082019050919050565b600082825260208201905092915050565b600082825260208201905092915050565b600081905092915050565b60006137e88261393a565b91506137f38361393a565b9250827fffffffffffffffffffffffffffffffffffffffffffffffffffffffffffffffff0382111561382857613827613a46565b5b828201905092915050565b600061383e8261393a565b91506138498361393a565b92508261385957613858613a75565b5b828204905092915050565b600061386f8261393a565b915061387a8361393a565b9250817fffffffffffffffffffffffffffffffffffffffffffffffffffffffffffffffff04831182151516156138b3576138b2613a46565b5b828202905092915050565b60006138c98261393a565b91506138d48361393a565b9250828210156138e7576138e6613a46565b5b828203905092915050565b60006138fd8261391a565b9050919050565b60008115159050919050565b6000819050919050565b600073ffffffffffffffffffffffffffffffffffffffff82169050919050565b6000819050919050565b82818337600083830152505050565b60005b83811015613971578082015181840152602081019050613956565b83811115613980576000848401525b50505050565b6000600282049050600182168061399e57607f821691505b602082108114156139b2576139b1613aa4565b5b50919050565b6139c182613b45565b810181811067ffffffffffffffff821117156139e0576139df613b02565b5b80604052505050565b60006139f48261393a565b91507fffffffffffffffffffffffffffffffffffffffffffffffffffffffffffffffff821415613a2757613a26613a46565b5b600182019050919050565b6000819050919050565b6000819050919050565b7f4e487b7100000000000000000000000000000000000000000000000000000000600052601160045260246000fd5b7f4e487b7100000000000000000000000000000000000000000000000000000000600052601260045260246000fd5b7f4e487b7100000000000000000000000000000000000000000000000000000000600052602260045260246000fd5b7f4e487b7100000000000000000000000000000000000000000000000000000000600052603260045260246000fd5b7f4e487b7100000000000000000000000000000000000000000000000000000000600052604160045260246000fd5b600080fd5b600080fd5b600080fd5b600080fd5b6000601f19601f8301169050919050565b7f4f6e6c79206f776e65722063616e2063616c6c20746869732e00000000000000600082015250565b7f6e6f742065786973740000000000000000000000000000000000000000000000600082015250565b7f706f6f6c206e6f74206578697374000000000000000000000000000000000000600082015250565b7f7061697220657869737400000000000000000000000000000000000000000000600082015250565b7f706f6f6c20686173206e6f742066696e69736865640000000000000000000000600082015250565b7f6e6f7420656e6f75676820766f7465416d6f756e740000000000000000000000600082015250565b7f706f6f6c206861732066696e6973686564000000000000000000000000000000600082015250565b613c7e816138f2565b8114613c8957600080fd5b50565b613c9581613904565b8114613ca057600080fd5b50565b613cac81613910565b8114613cb757600080fd5b50565b613cc38161393a565b8114613cce57600080fd5b5056fe307865643633346465613034346665393266366438633936313263333834346334393531303534633534313761386533356338343237323063323236333361303464a26469706673582212209ca632d7fa5f448a46c66d9b863ba71a104631bf6ba97cf327d222e899b7f29f64736f6c63430008070033",
					"opcodes": "PUSH1 0x80 PUSH1 0x40 MSTORE CALLVALUE DUP1 ISZERO PUSH3 0x11 JUMPI PUSH1 0x0 DUP1 REVERT JUMPDEST POP PUSH1 0x40 MLOAD PUSH3 0x3ED3 CODESIZE SUB DUP1 PUSH3 0x3ED3 DUP4 CODECOPY DUP2 DUP2 ADD PUSH1 0x40 MSTORE DUP2 ADD SWAP1 PUSH3 0x37 SWAP2 SWAP1 PUSH3 0xBC JUMP JUMPDEST DUP2 PUSH1 0x0 DUP1 PUSH2 0x100 EXP DUP2 SLOAD DUP2 PUSH20 0xFFFFFFFFFFFFFFFFFFFFFFFFFFFFFFFFFFFFFFFF MUL NOT AND SWAP1 DUP4 PUSH20 0xFFFFFFFFFFFFFFFFFFFFFFFFFFFFFFFFFFFFFFFF AND MUL OR SWAP1 SSTORE POP PUSH1 0x0 PUSH1 0x3 DUP2 SWAP1 SSTORE POP DUP1 PUSH1 0x1 DUP2 SWAP1 SSTORE POP POP POP PUSH3 0x17A JUMP JUMPDEST PUSH1 0x0 DUP2 MLOAD SWAP1 POP PUSH3 0x9F DUP2 PUSH3 0x146 JUMP JUMPDEST SWAP3 SWAP2 POP POP JUMP JUMPDEST PUSH1 0x0 DUP2 MLOAD SWAP1 POP PUSH3 0xB6 DUP2 PUSH3 0x160 JUMP JUMPDEST SWAP3 SWAP2 POP POP JUMP JUMPDEST PUSH1 0x0 DUP1 PUSH1 0x40 DUP4 DUP6 SUB SLT ISZERO PUSH3 0xD6 JUMPI PUSH3 0xD5 PUSH3 0x141 JUMP JUMPDEST JUMPDEST PUSH1 0x0 PUSH3 0xE6 DUP6 DUP3 DUP7 ADD PUSH3 0x8E JUMP JUMPDEST SWAP3 POP POP PUSH1 0x20 PUSH3 0xF9 DUP6 DUP3 DUP7 ADD PUSH3 0xA5 JUMP JUMPDEST SWAP2 POP POP SWAP3 POP SWAP3 SWAP1 POP JUMP JUMPDEST PUSH1 0x0 PUSH3 0x110 DUP3 PUSH3 0x117 JUMP JUMPDEST SWAP1 POP SWAP2 SWAP1 POP JUMP JUMPDEST PUSH1 0x0 PUSH20 0xFFFFFFFFFFFFFFFFFFFFFFFFFFFFFFFFFFFFFFFF DUP3 AND SWAP1 POP SWAP2 SWAP1 POP JUMP JUMPDEST PUSH1 0x0 DUP2 SWAP1 POP SWAP2 SWAP1 POP JUMP JUMPDEST PUSH1 0x0 DUP1 REVERT JUMPDEST PUSH3 0x151 DUP2 PUSH3 0x103 JUMP JUMPDEST DUP2 EQ PUSH3 0x15D JUMPI PUSH1 0x0 DUP1 REVERT JUMPDEST POP JUMP JUMPDEST PUSH3 0x16B DUP2 PUSH3 0x137 JUMP JUMPDEST DUP2 EQ PUSH3 0x177 JUMPI PUSH1 0x0 DUP1 REVERT JUMPDEST POP JUMP JUMPDEST PUSH2 0x3D49 DUP1 PUSH3 0x18A PUSH1 0x0 CODECOPY PUSH1 0x0 RETURN INVALID PUSH1 0x80 PUSH1 0x40 MSTORE PUSH1 0x4 CALLDATASIZE LT PUSH2 0xAB JUMPI PUSH1 0x0 CALLDATALOAD PUSH1 0xE0 SHR DUP1 PUSH4 0x47E4DD27 GT PUSH2 0x64 JUMPI DUP1 PUSH4 0x47E4DD27 EQ PUSH2 0x301 JUMPI DUP1 PUSH4 0x74FE9BC2 EQ PUSH2 0x33E JUMPI DUP1 PUSH4 0x9BD0ABF1 EQ PUSH2 0x36E JUMPI DUP1 PUSH4 0xBAF41269 EQ PUSH2 0x39E JUMPI DUP1 PUSH4 0xEA8870C0 EQ PUSH2 0x3C9 JUMPI DUP1 PUSH4 0xF6C00927 EQ PUSH2 0x3F4 JUMPI PUSH2 0x1CC JUMP JUMPDEST DUP1 PUSH4 0xC66B373 EQ PUSH2 0x1D1 JUMPI DUP1 PUSH4 0xCE49053 EQ PUSH2 0x1FC JUMPI DUP1 PUSH4 0x2775E02C EQ PUSH2 0x22C JUMPI DUP1 PUSH4 0x357965BA EQ PUSH2 0x25C JUMPI DUP1 PUSH4 0x3E6FF1A2 EQ PUSH2 0x299 JUMPI DUP1 PUSH4 0x4121855F EQ PUSH2 0x2C4 JUMPI PUSH2 0x1CC JUMP JUMPDEST CALLDATASIZE PUSH2 0x1CC JUMPI PUSH1 0x0 DUP1 SLOAD SWAP1 PUSH2 0x100 EXP SWAP1 DIV PUSH20 0xFFFFFFFFFFFFFFFFFFFFFFFFFFFFFFFFFFFFFFFF AND PUSH20 0xFFFFFFFFFFFFFFFFFFFFFFFFFFFFFFFFFFFFFFFF AND CALLER PUSH20 0xFFFFFFFFFFFFFFFFFFFFFFFFFFFFFFFFFFFFFFFF AND EQ PUSH2 0x1C9 JUMPI PUSH2 0x11D PUSH7 0x2386F26FC10000 CALLVALUE PUSH2 0x433 SWAP1 SWAP2 SWAP1 PUSH4 0xFFFFFFFF AND JUMP JUMPDEST PUSH1 0x4 PUSH1 0x0 CALLER PUSH20 0xFFFFFFFFFFFFFFFFFFFFFFFFFFFFFFFFFFFFFFFF AND PUSH20 0xFFFFFFFFFFFFFFFFFFFFFFFFFFFFFFFFFFFFFFFF AND DUP2 MSTORE PUSH1 0x20 ADD SWAP1 DUP2 MSTORE PUSH1 0x20 ADD PUSH1 0x0 KECCAK256 PUSH1 0x0 DUP3 DUP3 SLOAD PUSH2 0x16B SWAP2 SWAP1 PUSH2 0x37DD JUMP JUMPDEST SWAP3 POP POP DUP2 SWAP1 SSTORE POP CALLVALUE PUSH1 0x3 PUSH1 0x0 DUP3 DUP3 SLOAD PUSH2 0x184 SWAP2 SWAP1 PUSH2 0x37DD JUMP JUMPDEST SWAP3 POP POP DUP2 SWAP1 SSTORE POP PUSH32 0x88A5966D370B9919B20F3E2C13FF65706F196A4E32CC2C12BF57088F88525874 CALLER CALLVALUE PUSH1 0x40 MLOAD PUSH2 0x1BC SWAP3 SWAP2 SWAP1 PUSH2 0x3566 JUMP JUMPDEST PUSH1 0x40 MLOAD DUP1 SWAP2 SUB SWAP1 LOG1 PUSH2 0x1CA JUMP JUMPDEST JUMPDEST STOP JUMPDEST PUSH1 0x0 DUP1 REVERT JUMPDEST CALLVALUE DUP1 ISZERO PUSH2 0x1DD JUMPI PUSH1 0x0 DUP1 REVERT JUMPDEST POP PUSH2 0x1E6 PUSH2 0x45B JUMP JUMPDEST PUSH1 0x40 MLOAD PUSH2 0x1F3 SWAP2 SWAP1 PUSH2 0x370C JUMP JUMPDEST PUSH1 0x40 MLOAD DUP1 SWAP2 SUB SWAP1 RETURN JUMPDEST PUSH2 0x216 PUSH1 0x4 DUP1 CALLDATASIZE SUB DUP2 ADD SWAP1 PUSH2 0x211 SWAP2 SWAP1 PUSH2 0x2FF8 JUMP JUMPDEST PUSH2 0x4F4 JUMP JUMPDEST PUSH1 0x40 MLOAD PUSH2 0x223 SWAP2 SWAP1 PUSH2 0x35B1 JUMP JUMPDEST PUSH1 0x40 MLOAD DUP1 SWAP2 SUB SWAP1 RETURN JUMPDEST PUSH2 0x246 PUSH1 0x4 DUP1 CALLDATASIZE SUB DUP2 ADD SWAP1 PUSH2 0x241 SWAP2 SWAP1 PUSH2 0x2FCB JUMP JUMPDEST PUSH2 0x930 JUMP JUMPDEST PUSH1 0x40 MLOAD PUSH2 0x253 SWAP2 SWAP1 PUSH2 0x35B1 JUMP JUMPDEST PUSH1 0x40 MLOAD DUP1 SWAP2 SUB SWAP1 RETURN JUMPDEST CALLVALUE DUP1 ISZERO PUSH2 0x268 JUMPI PUSH1 0x0 DUP1 REVERT JUMPDEST POP PUSH2 0x283 PUSH1 0x4 DUP1 CALLDATASIZE SUB DUP2 ADD SWAP1 PUSH2 0x27E SWAP2 SWAP1 PUSH2 0x3199 JUMP JUMPDEST PUSH2 0xA25 JUMP JUMPDEST PUSH1 0x40 MLOAD PUSH2 0x290 SWAP2 SWAP1 PUSH2 0x35CC JUMP JUMPDEST PUSH1 0x40 MLOAD DUP1 SWAP2 SUB SWAP1 RETURN JUMPDEST CALLVALUE DUP1 ISZERO PUSH2 0x2A5 JUMPI PUSH1 0x0 DUP1 REVERT JUMPDEST POP PUSH2 0x2AE PUSH2 0xD16 JUMP JUMPDEST PUSH1 0x40 MLOAD PUSH2 0x2BB SWAP2 SWAP1 PUSH2 0x370C JUMP JUMPDEST PUSH1 0x40 MLOAD DUP1 SWAP2 SUB SWAP1 RETURN JUMPDEST CALLVALUE DUP1 ISZERO PUSH2 0x2D0 JUMPI PUSH1 0x0 DUP1 REVERT JUMPDEST POP PUSH2 0x2EB PUSH1 0x4 DUP1 CALLDATASIZE SUB DUP2 ADD SWAP1 PUSH2 0x2E6 SWAP2 SWAP1 PUSH2 0x3105 JUMP JUMPDEST PUSH2 0xDAF JUMP JUMPDEST PUSH1 0x40 MLOAD PUSH2 0x2F8 SWAP2 SWAP1 PUSH2 0x370C JUMP JUMPDEST PUSH1 0x40 MLOAD DUP1 SWAP2 SUB SWAP1 RETURN JUMPDEST CALLVALUE DUP1 ISZERO PUSH2 0x30D JUMPI PUSH1 0x0 DUP1 REVERT JUMPDEST POP PUSH2 0x328 PUSH1 0x4 DUP1 CALLDATASIZE SUB DUP2 ADD SWAP1 PUSH2 0x323 SWAP2 SWAP1 PUSH2 0x3078 JUMP JUMPDEST PUSH2 0x114C JUMP JUMPDEST PUSH1 0x40 MLOAD PUSH2 0x335 SWAP2 SWAP1 PUSH2 0x35B1 JUMP JUMPDEST PUSH1 0x40 MLOAD DUP1 SWAP2 SUB SWAP1 RETURN JUMPDEST PUSH2 0x358 PUSH1 0x4 DUP1 CALLDATASIZE SUB DUP2 ADD SWAP1 PUSH2 0x353 SWAP2 SWAP1 PUSH2 0x3132 JUMP JUMPDEST PUSH2 0x189E JUMP JUMPDEST PUSH1 0x40 MLOAD PUSH2 0x365 SWAP2 SWAP1 PUSH2 0x35B1 JUMP JUMPDEST PUSH1 0x40 MLOAD DUP1 SWAP2 SUB SWAP1 RETURN JUMPDEST PUSH2 0x388 PUSH1 0x4 DUP1 CALLDATASIZE SUB DUP2 ADD SWAP1 PUSH2 0x383 SWAP2 SWAP1 PUSH2 0x3038 JUMP JUMPDEST PUSH2 0x2311 JUMP JUMPDEST PUSH1 0x40 MLOAD PUSH2 0x395 SWAP2 SWAP1 PUSH2 0x35B1 JUMP JUMPDEST PUSH1 0x40 MLOAD DUP1 SWAP2 SUB SWAP1 RETURN JUMPDEST CALLVALUE DUP1 ISZERO PUSH2 0x3AA JUMPI PUSH1 0x0 DUP1 REVERT JUMPDEST POP PUSH2 0x3B3 PUSH2 0x2525 JUMP JUMPDEST PUSH1 0x40 MLOAD PUSH2 0x3C0 SWAP2 SWAP1 PUSH2 0x370C JUMP JUMPDEST PUSH1 0x40 MLOAD DUP1 SWAP2 SUB SWAP1 RETURN JUMPDEST CALLVALUE DUP1 ISZERO PUSH2 0x3D5 JUMPI PUSH1 0x0 DUP1 REVERT JUMPDEST POP PUSH2 0x3DE PUSH2 0x256C JUMP JUMPDEST PUSH1 0x40 MLOAD PUSH2 0x3EB SWAP2 SWAP1 PUSH2 0x358F JUMP JUMPDEST PUSH1 0x40 MLOAD DUP1 SWAP2 SUB SWAP1 RETURN JUMPDEST CALLVALUE DUP1 ISZERO PUSH2 0x400 JUMPI PUSH1 0x0 DUP1 REVERT JUMPDEST POP PUSH2 0x41B PUSH1 0x4 DUP1 CALLDATASIZE SUB DUP2 ADD SWAP1 PUSH2 0x416 SWAP2 SWAP1 PUSH2 0x3105 JUMP JUMPDEST PUSH2 0x25C4 JUMP JUMPDEST PUSH1 0x40 MLOAD PUSH2 0x42A SWAP4 SWAP3 SWAP2 SWAP1 PUSH2 0x35E7 JUMP JUMPDEST PUSH1 0x40 MLOAD DUP1 SWAP2 SUB SWAP1 RETURN JUMPDEST PUSH1 0x0 DUP1 DUP3 GT PUSH2 0x441 JUMPI PUSH1 0x0 DUP1 REVERT JUMPDEST PUSH1 0x0 DUP3 DUP5 PUSH2 0x44F SWAP2 SWAP1 PUSH2 0x3833 JUMP JUMPDEST SWAP1 POP DUP1 SWAP2 POP POP SWAP3 SWAP2 POP POP JUMP JUMPDEST PUSH1 0x0 DUP1 PUSH1 0x0 SWAP1 SLOAD SWAP1 PUSH2 0x100 EXP SWAP1 DIV PUSH20 0xFFFFFFFFFFFFFFFFFFFFFFFFFFFFFFFFFFFFFFFF AND PUSH20 0xFFFFFFFFFFFFFFFFFFFFFFFFFFFFFFFFFFFFFFFF AND CALLER PUSH20 0xFFFFFFFFFFFFFFFFFFFFFFFFFFFFFFFFFFFFFFFF AND EQ PUSH2 0x4EC JUMPI PUSH1 0x40 MLOAD PUSH32 0x8C379A000000000000000000000000000000000000000000000000000000000 DUP2 MSTORE PUSH1 0x4 ADD PUSH2 0x4E3 SWAP1 PUSH2 0x362C JUMP JUMPDEST PUSH1 0x40 MLOAD DUP1 SWAP2 SUB SWAP1 REVERT JUMPDEST PUSH1 0x3 SLOAD SWAP1 POP SWAP1 JUMP JUMPDEST PUSH1 0x0 DUP1 PUSH1 0x0 SWAP1 SLOAD SWAP1 PUSH2 0x100 EXP SWAP1 DIV PUSH20 0xFFFFFFFFFFFFFFFFFFFFFFFFFFFFFFFFFFFFFFFF AND PUSH20 0xFFFFFFFFFFFFFFFFFFFFFFFFFFFFFFFFFFFFFFFF AND CALLER PUSH20 0xFFFFFFFFFFFFFFFFFFFFFFFFFFFFFFFFFFFFFFFF AND EQ PUSH2 0x585 JUMPI PUSH1 0x40 MLOAD PUSH32 0x8C379A000000000000000000000000000000000000000000000000000000000 DUP2 MSTORE PUSH1 0x4 ADD PUSH2 0x57C SWAP1 PUSH2 0x362C JUMP JUMPDEST PUSH1 0x40 MLOAD DUP1 SWAP2 SUB SWAP1 REVERT JUMPDEST PUSH2 0x58E DUP3 PUSH2 0x28EE JUMP JUMPDEST PUSH2 0x5CD JUMPI PUSH1 0x40 MLOAD PUSH32 0x8C379A000000000000000000000000000000000000000000000000000000000 DUP2 MSTORE PUSH1 0x4 ADD PUSH2 0x5C4 SWAP1 PUSH2 0x366C JUMP JUMPDEST PUSH1 0x40 MLOAD DUP1 SWAP2 SUB SWAP1 REVERT JUMPDEST PUSH1 0x0 PUSH1 0x5 PUSH1 0x0 DUP5 DUP2 MSTORE PUSH1 0x20 ADD SWAP1 DUP2 MSTORE PUSH1 0x20 ADD PUSH1 0x0 KECCAK256 PUSH1 0x40 MLOAD DUP1 PUSH2 0x160 ADD PUSH1 0x40 MSTORE SWAP1 DUP2 PUSH1 0x0 DUP3 ADD DUP1 SLOAD PUSH2 0x5FE SWAP1 PUSH2 0x3986 JUMP JUMPDEST DUP1 PUSH1 0x1F ADD PUSH1 0x20 DUP1 SWAP2 DIV MUL PUSH1 0x20 ADD PUSH1 0x40 MLOAD SWAP1 DUP2 ADD PUSH1 0x40 MSTORE DUP1 SWAP3 SWAP2 SWAP1 DUP2 DUP2 MSTORE PUSH1 0x20 ADD DUP3 DUP1 SLOAD PUSH2 0x62A SWAP1 PUSH2 0x3986 JUMP JUMPDEST DUP1 ISZERO PUSH2 0x677 JUMPI DUP1 PUSH1 0x1F LT PUSH2 0x64C JUMPI PUSH2 0x100 DUP1 DUP4 SLOAD DIV MUL DUP4 MSTORE SWAP2 PUSH1 0x20 ADD SWAP2 PUSH2 0x677 JUMP JUMPDEST DUP3 ADD SWAP2 SWAP1 PUSH1 0x0 MSTORE PUSH1 0x20 PUSH1 0x0 KECCAK256 SWAP1 JUMPDEST DUP2 SLOAD DUP2 MSTORE SWAP1 PUSH1 0x1 ADD SWAP1 PUSH1 0x20 ADD DUP1 DUP4 GT PUSH2 0x65A JUMPI DUP3 SWAP1 SUB PUSH1 0x1F AND DUP3 ADD SWAP2 JUMPDEST POP POP POP POP POP DUP2 MSTORE PUSH1 0x20 ADD PUSH1 0x1 DUP3 ADD DUP1 SLOAD PUSH2 0x690 SWAP1 PUSH2 0x3986 JUMP JUMPDEST DUP1 PUSH1 0x1F ADD PUSH1 0x20 DUP1 SWAP2 DIV MUL PUSH1 0x20 ADD PUSH1 0x40 MLOAD SWAP1 DUP2 ADD PUSH1 0x40 MSTORE DUP1 SWAP3 SWAP2 SWAP1 DUP2 DUP2 MSTORE PUSH1 0x20 ADD DUP3 DUP1 SLOAD PUSH2 0x6BC SWAP1 PUSH2 0x3986 JUMP JUMPDEST DUP1 ISZERO PUSH2 0x709 JUMPI DUP1 PUSH1 0x1F LT PUSH2 0x6DE JUMPI PUSH2 0x100 DUP1 DUP4 SLOAD DIV MUL DUP4 MSTORE SWAP2 PUSH1 0x20 ADD SWAP2 PUSH2 0x709 JUMP JUMPDEST DUP3 ADD SWAP2 SWAP1 PUSH1 0x0 MSTORE PUSH1 0x20 PUSH1 0x0 KECCAK256 SWAP1 JUMPDEST DUP2 SLOAD DUP2 MSTORE SWAP1 PUSH1 0x1 ADD SWAP1 PUSH1 0x20 ADD DUP1 DUP4 GT PUSH2 0x6EC JUMPI DUP3 SWAP1 SUB PUSH1 0x1F AND DUP3 ADD SWAP2 JUMPDEST POP POP POP POP POP DUP2 MSTORE PUSH1 0x20 ADD PUSH1 0x2 DUP3 ADD DUP1 SLOAD PUSH2 0x722 SWAP1 PUSH2 0x3986 JUMP JUMPDEST DUP1 PUSH1 0x1F ADD PUSH1 0x20 DUP1 SWAP2 DIV MUL PUSH1 0x20 ADD PUSH1 0x40 MLOAD SWAP1 DUP2 ADD PUSH1 0x40 MSTORE DUP1 SWAP3 SWAP2 SWAP1 DUP2 DUP2 MSTORE PUSH1 0x20 ADD DUP3 DUP1 SLOAD PUSH2 0x74E SWAP1 PUSH2 0x3986 JUMP JUMPDEST DUP1 ISZERO PUSH2 0x79B JUMPI DUP1 PUSH1 0x1F LT PUSH2 0x770 JUMPI PUSH2 0x100 DUP1 DUP4 SLOAD DIV MUL DUP4 MSTORE SWAP2 PUSH1 0x20 ADD SWAP2 PUSH2 0x79B JUMP JUMPDEST DUP3 ADD SWAP2 SWAP1 PUSH1 0x0 MSTORE PUSH1 0x20 PUSH1 0x0 KECCAK256 SWAP1 JUMPDEST DUP2 SLOAD DUP2 MSTORE SWAP1 PUSH1 0x1 ADD SWAP1 PUSH1 0x20 ADD DUP1 DUP4 GT PUSH2 0x77E JUMPI DUP3 SWAP1 SUB PUSH1 0x1F AND DUP3 ADD SWAP2 JUMPDEST POP POP POP POP POP DUP2 MSTORE PUSH1 0x20 ADD PUSH1 0x3 DUP3 ADD SLOAD DUP2 MSTORE PUSH1 0x20 ADD PUSH1 0x4 DUP3 ADD SLOAD DUP2 MSTORE PUSH1 0x20 ADD PUSH1 0x5 DUP3 ADD SLOAD DUP2 MSTORE PUSH1 0x20 ADD PUSH1 0x6 DUP3 ADD SLOAD DUP2 MSTORE PUSH1 0x20 ADD PUSH1 0x7 DUP3 ADD SLOAD DUP2 MSTORE PUSH1 0x20 ADD PUSH1 0x8 DUP3 ADD PUSH1 0x0 SWAP1 SLOAD SWAP1 PUSH2 0x100 EXP SWAP1 DIV PUSH1 0xFF AND ISZERO ISZERO ISZERO ISZERO DUP2 MSTORE PUSH1 0x20 ADD PUSH1 0x8 DUP3 ADD PUSH1 0x1 SWAP1 SLOAD SWAP1 PUSH2 0x100 EXP SWAP1 DIV PUSH1 0xFF AND ISZERO ISZERO ISZERO ISZERO DUP2 MSTORE PUSH1 0x20 ADD PUSH1 0x8 DUP3 ADD PUSH1 0x2 SWAP1 SLOAD SWAP1 PUSH2 0x100 EXP SWAP1 DIV PUSH1 0xFF AND ISZERO ISZERO ISZERO ISZERO DUP2 MSTORE POP POP SWAP1 POP PUSH1 0x0 PUSH2 0x87F PUSH1 0xA DUP4 PUSH1 0xE0 ADD MLOAD DUP5 PUSH1 0xC0 ADD MLOAD DUP6 PUSH1 0x80 ADD MLOAD DUP7 PUSH1 0xA0 ADD MLOAD DUP8 PUSH1 0x60 ADD MLOAD PUSH2 0x853 SWAP2 SWAP1 PUSH2 0x37DD JUMP JUMPDEST PUSH2 0x85D SWAP2 SWAP1 PUSH2 0x37DD JUMP JUMPDEST PUSH2 0x867 SWAP2 SWAP1 PUSH2 0x37DD JUMP JUMPDEST PUSH2 0x871 SWAP2 SWAP1 PUSH2 0x37DD JUMP JUMPDEST PUSH2 0x433 SWAP1 SWAP2 SWAP1 PUSH4 0xFFFFFFFF AND JUMP JUMPDEST SWAP1 POP PUSH1 0x1 DUP3 PUSH2 0x140 ADD SWAP1 ISZERO ISZERO SWAP1 DUP2 ISZERO ISZERO DUP2 MSTORE POP ISZERO PUSH2 0x8E9 JUMPI PUSH1 0x0 DUP6 SWAP1 POP DUP1 PUSH20 0xFFFFFFFFFFFFFFFFFFFFFFFFFFFFFFFFFFFFFFFF AND PUSH2 0x8FC DUP4 SWAP1 DUP2 ISZERO MUL SWAP1 PUSH1 0x40 MLOAD PUSH1 0x0 PUSH1 0x40 MLOAD DUP1 DUP4 SUB DUP2 DUP6 DUP9 DUP9 CALL SWAP4 POP POP POP POP ISZERO DUP1 ISZERO PUSH2 0x8E2 JUMPI RETURNDATASIZE PUSH1 0x0 DUP1 RETURNDATACOPY RETURNDATASIZE PUSH1 0x0 REVERT JUMPDEST POP POP PUSH2 0x924 JUMP JUMPDEST PUSH1 0x40 MLOAD PUSH32 0x8C379A000000000000000000000000000000000000000000000000000000000 DUP2 MSTORE PUSH1 0x4 ADD PUSH2 0x91B SWAP1 PUSH2 0x36AC JUMP JUMPDEST PUSH1 0x40 MLOAD DUP1 SWAP2 SUB SWAP1 REVERT JUMPDEST POP POP PUSH1 0x1 SWAP1 POP SWAP3 SWAP2 POP POP JUMP JUMPDEST PUSH1 0x0 DUP1 PUSH1 0x0 SWAP1 SLOAD SWAP1 PUSH2 0x100 EXP SWAP1 DIV PUSH20 0xFFFFFFFFFFFFFFFFFFFFFFFFFFFFFFFFFFFFFFFF AND PUSH20 0xFFFFFFFFFFFFFFFFFFFFFFFFFFFFFFFFFFFFFFFF AND CALLER PUSH20 0xFFFFFFFFFFFFFFFFFFFFFFFFFFFFFFFFFFFFFFFF AND EQ PUSH2 0x9C1 JUMPI PUSH1 0x40 MLOAD PUSH32 0x8C379A000000000000000000000000000000000000000000000000000000000 DUP2 MSTORE PUSH1 0x4 ADD PUSH2 0x9B8 SWAP1 PUSH2 0x362C JUMP JUMPDEST PUSH1 0x40 MLOAD DUP1 SWAP2 SUB SWAP1 REVERT JUMPDEST PUSH1 0x0 DUP3 SWAP1 POP DUP1 PUSH20 0xFFFFFFFFFFFFFFFFFFFFFFFFFFFFFFFFFFFFFFFF AND PUSH2 0x8FC PUSH1 0x1 PUSH1 0x3 SLOAD PUSH2 0x9EF SWAP2 SWAP1 PUSH2 0x38BE JUMP JUMPDEST SWAP1 DUP2 ISZERO MUL SWAP1 PUSH1 0x40 MLOAD PUSH1 0x0 PUSH1 0x40 MLOAD DUP1 DUP4 SUB DUP2 DUP6 DUP9 DUP9 CALL SWAP4 POP POP POP POP ISZERO DUP1 ISZERO PUSH2 0xA1A JUMPI RETURNDATASIZE PUSH1 0x0 DUP1 RETURNDATACOPY RETURNDATASIZE PUSH1 0x0 REVERT JUMPDEST POP PUSH1 0x1 SWAP2 POP POP SWAP2 SWAP1 POP JUMP JUMPDEST PUSH1 0x0 DUP1 PUSH1 0x0 SWAP1 SLOAD SWAP1 PUSH2 0x100 EXP SWAP1 DIV PUSH20 0xFFFFFFFFFFFFFFFFFFFFFFFFFFFFFFFFFFFFFFFF AND PUSH20 0xFFFFFFFFFFFFFFFFFFFFFFFFFFFFFFFFFFFFFFFF AND CALLER PUSH20 0xFFFFFFFFFFFFFFFFFFFFFFFFFFFFFFFFFFFFFFFF AND EQ PUSH2 0xAB6 JUMPI PUSH1 0x40 MLOAD PUSH32 0x8C379A000000000000000000000000000000000000000000000000000000000 DUP2 MSTORE PUSH1 0x4 ADD PUSH2 0xAAD SWAP1 PUSH2 0x362C JUMP JUMPDEST PUSH1 0x40 MLOAD DUP1 SWAP2 SUB SWAP1 REVERT JUMPDEST PUSH1 0x0 PUSH2 0xAC2 DUP7 DUP7 PUSH2 0x291B JUMP JUMPDEST SWAP1 POP PUSH1 0x0 PUSH2 0xAD0 DUP3 DUP7 PUSH2 0x291B JUMP JUMPDEST SWAP1 POP PUSH1 0x0 DUP2 PUSH1 0x40 MLOAD PUSH1 0x20 ADD PUSH2 0xAE5 SWAP2 SWAP1 PUSH2 0x3534 JUMP JUMPDEST PUSH1 0x40 MLOAD PUSH1 0x20 DUP2 DUP4 SUB SUB DUP2 MSTORE SWAP1 PUSH1 0x40 MSTORE DUP1 MLOAD SWAP1 PUSH1 0x20 ADD KECCAK256 SWAP1 POP PUSH2 0xB06 DUP2 PUSH2 0x28EE JUMP JUMPDEST ISZERO PUSH2 0xB46 JUMPI PUSH1 0x40 MLOAD PUSH32 0x8C379A000000000000000000000000000000000000000000000000000000000 DUP2 MSTORE PUSH1 0x4 ADD PUSH2 0xB3D SWAP1 PUSH2 0x368C JUMP JUMPDEST PUSH1 0x40 MLOAD DUP1 SWAP2 SUB SWAP1 REVERT JUMPDEST PUSH1 0x1 PUSH1 0x5 PUSH1 0x0 DUP4 DUP2 MSTORE PUSH1 0x20 ADD SWAP1 DUP2 MSTORE PUSH1 0x20 ADD PUSH1 0x0 KECCAK256 PUSH1 0x8 ADD PUSH1 0x1 PUSH2 0x100 EXP DUP2 SLOAD DUP2 PUSH1 0xFF MUL NOT AND SWAP1 DUP4 ISZERO ISZERO MUL OR SWAP1 SSTORE POP DUP8 PUSH1 0x5 PUSH1 0x0 DUP4 DUP2 MSTORE PUSH1 0x20 ADD SWAP1 DUP2 MSTORE PUSH1 0x20 ADD PUSH1 0x0 KECCAK256 PUSH1 0x0 ADD SWAP1 DUP1 MLOAD SWAP1 PUSH1 0x20 ADD SWAP1 PUSH2 0xB9F SWAP3 SWAP2 SWAP1 PUSH2 0x2E35 JUMP JUMPDEST POP DUP7 PUSH1 0x5 PUSH1 0x0 DUP4 DUP2 MSTORE PUSH1 0x20 ADD SWAP1 DUP2 MSTORE PUSH1 0x20 ADD PUSH1 0x0 KECCAK256 PUSH1 0x1 ADD SWAP1 DUP1 MLOAD SWAP1 PUSH1 0x20 ADD SWAP1 PUSH2 0xBCA SWAP3 SWAP2 SWAP1 PUSH2 0x2E35 JUMP JUMPDEST POP DUP6 PUSH1 0x5 PUSH1 0x0 DUP4 DUP2 MSTORE PUSH1 0x20 ADD SWAP1 DUP2 MSTORE PUSH1 0x20 ADD PUSH1 0x0 KECCAK256 PUSH1 0x2 ADD SWAP1 DUP1 MLOAD SWAP1 PUSH1 0x20 ADD SWAP1 PUSH2 0xBF5 SWAP3 SWAP2 SWAP1 PUSH2 0x2E35 JUMP JUMPDEST POP PUSH1 0x0 PUSH1 0x5 PUSH1 0x0 DUP4 DUP2 MSTORE PUSH1 0x20 ADD SWAP1 DUP2 MSTORE PUSH1 0x20 ADD PUSH1 0x0 KECCAK256 PUSH1 0x3 ADD DUP2 SWAP1 SSTORE POP PUSH1 0x0 PUSH1 0x5 PUSH1 0x0 DUP4 DUP2 MSTORE PUSH1 0x20 ADD SWAP1 DUP2 MSTORE PUSH1 0x20 ADD PUSH1 0x0 KECCAK256 PUSH1 0x4 ADD DUP2 SWAP1 SSTORE POP PUSH1 0x0 PUSH1 0x5 PUSH1 0x0 DUP4 DUP2 MSTORE PUSH1 0x20 ADD SWAP1 DUP2 MSTORE PUSH1 0x20 ADD PUSH1 0x0 KECCAK256 PUSH1 0x5 ADD DUP2 SWAP1 SSTORE POP PUSH1 0x0 PUSH1 0x5 PUSH1 0x0 DUP4 DUP2 MSTORE PUSH1 0x20 ADD SWAP1 DUP2 MSTORE PUSH1 0x20 ADD PUSH1 0x0 KECCAK256 PUSH1 0x6 ADD DUP2 SWAP1 SSTORE POP PUSH1 0x0 PUSH1 0x5 PUSH1 0x0 DUP4 DUP2 MSTORE PUSH1 0x20 ADD SWAP1 DUP2 MSTORE PUSH1 0x20 ADD PUSH1 0x0 KECCAK256 PUSH1 0x7 ADD DUP2 SWAP1 SSTORE POP DUP5 PUSH1 0x5 PUSH1 0x0 DUP4 DUP2 MSTORE PUSH1 0x20 ADD SWAP1 DUP2 MSTORE PUSH1 0x20 ADD PUSH1 0x0 KECCAK256 PUSH1 0x8 ADD PUSH1 0x0 PUSH2 0x100 EXP DUP2 SLOAD DUP2 PUSH1 0xFF MUL NOT AND SWAP1 DUP4 ISZERO ISZERO MUL OR SWAP1 SSTORE POP PUSH1 0x0 PUSH1 0x5 PUSH1 0x0 DUP4 DUP2 MSTORE PUSH1 0x20 ADD SWAP1 DUP2 MSTORE PUSH1 0x20 ADD PUSH1 0x0 KECCAK256 PUSH1 0x8 ADD PUSH1 0x2 PUSH2 0x100 EXP DUP2 SLOAD DUP2 PUSH1 0xFF MUL NOT AND SWAP1 DUP4 ISZERO ISZERO MUL OR SWAP1 SSTORE POP PUSH1 0x2 DUP2 SWAP1 DUP1 PUSH1 0x1 DUP2 SLOAD ADD DUP1 DUP3 SSTORE DUP1 SWAP2 POP POP PUSH1 0x1 SWAP1 SUB SWAP1 PUSH1 0x0 MSTORE PUSH1 0x20 PUSH1 0x0 KECCAK256 ADD PUSH1 0x0 SWAP1 SWAP2 SWAP1 SWAP2 SWAP1 SWAP2 POP SSTORE DUP1 SWAP4 POP POP POP POP SWAP5 SWAP4 POP POP POP POP JUMP JUMPDEST PUSH1 0x0 DUP1 PUSH1 0x0 SWAP1 SLOAD SWAP1 PUSH2 0x100 EXP SWAP1 DIV PUSH20 0xFFFFFFFFFFFFFFFFFFFFFFFFFFFFFFFFFFFFFFFF AND PUSH20 0xFFFFFFFFFFFFFFFFFFFFFFFFFFFFFFFFFFFFFFFF AND CALLER PUSH20 0xFFFFFFFFFFFFFFFFFFFFFFFFFFFFFFFFFFFFFFFF AND EQ PUSH2 0xDA7 JUMPI PUSH1 0x40 MLOAD PUSH32 0x8C379A000000000000000000000000000000000000000000000000000000000 DUP2 MSTORE PUSH1 0x4 ADD PUSH2 0xD9E SWAP1 PUSH2 0x362C JUMP JUMPDEST PUSH1 0x40 MLOAD DUP1 SWAP2 SUB SWAP1 REVERT JUMPDEST PUSH1 0x1 SLOAD SWAP1 POP SWAP1 JUMP JUMPDEST PUSH1 0x0 DUP1 PUSH1 0x0 SWAP1 SLOAD SWAP1 PUSH2 0x100 EXP SWAP1 DIV PUSH20 0xFFFFFFFFFFFFFFFFFFFFFFFFFFFFFFFFFFFFFFFF AND PUSH20 0xFFFFFFFFFFFFFFFFFFFFFFFFFFFFFFFFFFFFFFFF AND CALLER PUSH20 0xFFFFFFFFFFFFFFFFFFFFFFFFFFFFFFFFFFFFFFFF AND EQ PUSH2 0xE40 JUMPI PUSH1 0x40 MLOAD PUSH32 0x8C379A000000000000000000000000000000000000000000000000000000000 DUP2 MSTORE PUSH1 0x4 ADD PUSH2 0xE37 SWAP1 PUSH2 0x362C JUMP JUMPDEST PUSH1 0x40 MLOAD DUP1 SWAP2 SUB SWAP1 REVERT JUMPDEST PUSH2 0xE49 DUP3 PUSH2 0x28EE JUMP JUMPDEST PUSH2 0xE88 JUMPI PUSH1 0x40 MLOAD PUSH32 0x8C379A000000000000000000000000000000000000000000000000000000000 DUP2 MSTORE PUSH1 0x4 ADD PUSH2 0xE7F SWAP1 PUSH2 0x366C JUMP JUMPDEST PUSH1 0x40 MLOAD DUP1 SWAP2 SUB SWAP1 REVERT JUMPDEST PUSH1 0x0 PUSH1 0x5 PUSH1 0x0 DUP5 DUP2 MSTORE PUSH1 0x20 ADD SWAP1 DUP2 MSTORE PUSH1 0x20 ADD PUSH1 0x0 KECCAK256 PUSH1 0x40 MLOAD DUP1 PUSH2 0x160 ADD PUSH1 0x40 MSTORE SWAP1 DUP2 PUSH1 0x0 DUP3 ADD DUP1 SLOAD PUSH2 0xEB9 SWAP1 PUSH2 0x3986 JUMP JUMPDEST DUP1 PUSH1 0x1F ADD PUSH1 0x20 DUP1 SWAP2 DIV MUL PUSH1 0x20 ADD PUSH1 0x40 MLOAD SWAP1 DUP2 ADD PUSH1 0x40 MSTORE DUP1 SWAP3 SWAP2 SWAP1 DUP2 DUP2 MSTORE PUSH1 0x20 ADD DUP3 DUP1 SLOAD PUSH2 0xEE5 SWAP1 PUSH2 0x3986 JUMP JUMPDEST DUP1 ISZERO PUSH2 0xF32 JUMPI DUP1 PUSH1 0x1F LT PUSH2 0xF07 JUMPI PUSH2 0x100 DUP1 DUP4 SLOAD DIV MUL DUP4 MSTORE SWAP2 PUSH1 0x20 ADD SWAP2 PUSH2 0xF32 JUMP JUMPDEST DUP3 ADD SWAP2 SWAP1 PUSH1 0x0 MSTORE PUSH1 0x20 PUSH1 0x0 KECCAK256 SWAP1 JUMPDEST DUP2 SLOAD DUP2 MSTORE SWAP1 PUSH1 0x1 ADD SWAP1 PUSH1 0x20 ADD DUP1 DUP4 GT PUSH2 0xF15 JUMPI DUP3 SWAP1 SUB PUSH1 0x1F AND DUP3 ADD SWAP2 JUMPDEST POP POP POP POP POP DUP2 MSTORE PUSH1 0x20 ADD PUSH1 0x1 DUP3 ADD DUP1 SLOAD PUSH2 0xF4B SWAP1 PUSH2 0x3986 JUMP JUMPDEST DUP1 PUSH1 0x1F ADD PUSH1 0x20 DUP1 SWAP2 DIV MUL PUSH1 0x20 ADD PUSH1 0x40 MLOAD SWAP1 DUP2 ADD PUSH1 0x40 MSTORE DUP1 SWAP3 SWAP2 SWAP1 DUP2 DUP2 MSTORE PUSH1 0x20 ADD DUP3 DUP1 SLOAD PUSH2 0xF77 SWAP1 PUSH2 0x3986 JUMP JUMPDEST DUP1 ISZERO PUSH2 0xFC4 JUMPI DUP1 PUSH1 0x1F LT PUSH2 0xF99 JUMPI PUSH2 0x100 DUP1 DUP4 SLOAD DIV MUL DUP4 MSTORE SWAP2 PUSH1 0x20 ADD SWAP2 PUSH2 0xFC4 JUMP JUMPDEST DUP3 ADD SWAP2 SWAP1 PUSH1 0x0 MSTORE PUSH1 0x20 PUSH1 0x0 KECCAK256 SWAP1 JUMPDEST DUP2 SLOAD DUP2 MSTORE SWAP1 PUSH1 0x1 ADD SWAP1 PUSH1 0x20 ADD DUP1 DUP4 GT PUSH2 0xFA7 JUMPI DUP3 SWAP1 SUB PUSH1 0x1F AND DUP3 ADD SWAP2 JUMPDEST POP POP POP POP POP DUP2 MSTORE PUSH1 0x20 ADD PUSH1 0x2 DUP3 ADD DUP1 SLOAD PUSH2 0xFDD SWAP1 PUSH2 0x3986 JUMP JUMPDEST DUP1 PUSH1 0x1F ADD PUSH1 0x20 DUP1 SWAP2 DIV MUL PUSH1 0x20 ADD PUSH1 0x40 MLOAD SWAP1 DUP2 ADD PUSH1 0x40 MSTORE DUP1 SWAP3 SWAP2 SWAP1 DUP2 DUP2 MSTORE PUSH1 0x20 ADD DUP3 DUP1 SLOAD PUSH2 0x1009 SWAP1 PUSH2 0x3986 JUMP JUMPDEST DUP1 ISZERO PUSH2 0x1056 JUMPI DUP1 PUSH1 0x1F LT PUSH2 0x102B JUMPI PUSH2 0x100 DUP1 DUP4 SLOAD DIV MUL DUP4 MSTORE SWAP2 PUSH1 0x20 ADD SWAP2 PUSH2 0x1056 JUMP JUMPDEST DUP3 ADD SWAP2 SWAP1 PUSH1 0x0 MSTORE PUSH1 0x20 PUSH1 0x0 KECCAK256 SWAP1 JUMPDEST DUP2 SLOAD DUP2 MSTORE SWAP1 PUSH1 0x1 ADD SWAP1 PUSH1 0x20 ADD DUP1 DUP4 GT PUSH2 0x1039 JUMPI DUP3 SWAP1 SUB PUSH1 0x1F AND DUP3 ADD SWAP2 JUMPDEST POP POP POP POP POP DUP2 MSTORE PUSH1 0x20 ADD PUSH1 0x3 DUP3 ADD SLOAD DUP2 MSTORE PUSH1 0x20 ADD PUSH1 0x4 DUP3 ADD SLOAD DUP2 MSTORE PUSH1 0x20 ADD PUSH1 0x5 DUP3 ADD SLOAD DUP2 MSTORE PUSH1 0x20 ADD PUSH1 0x6 DUP3 ADD SLOAD DUP2 MSTORE PUSH1 0x20 ADD PUSH1 0x7 DUP3 ADD SLOAD DUP2 MSTORE PUSH1 0x20 ADD PUSH1 0x8 DUP3 ADD PUSH1 0x0 SWAP1 SLOAD SWAP1 PUSH2 0x100 EXP SWAP1 DIV PUSH1 0xFF AND ISZERO ISZERO ISZERO ISZERO DUP2 MSTORE PUSH1 0x20 ADD PUSH1 0x8 DUP3 ADD PUSH1 0x1 SWAP1 SLOAD SWAP1 PUSH2 0x100 EXP SWAP1 DIV PUSH1 0xFF AND ISZERO ISZERO ISZERO ISZERO DUP2 MSTORE PUSH1 0x20 ADD PUSH1 0x8 DUP3 ADD PUSH1 0x2 SWAP1 SLOAD SWAP1 PUSH2 0x100 EXP SWAP1 DIV PUSH1 0xFF AND ISZERO ISZERO ISZERO ISZERO DUP2 MSTORE POP POP SWAP1 POP PUSH1 0x0 PUSH2 0x1140 PUSH7 0x38D7EA4C68000 DUP4 PUSH1 0xE0 ADD MLOAD DUP5 PUSH1 0xC0 ADD MLOAD DUP6 PUSH1 0x80 ADD MLOAD DUP7 PUSH1 0xA0 ADD MLOAD DUP8 PUSH1 0x60 ADD MLOAD PUSH2 0x1114 SWAP2 SWAP1 PUSH2 0x37DD JUMP JUMPDEST PUSH2 0x111E SWAP2 SWAP1 PUSH2 0x37DD JUMP JUMPDEST PUSH2 0x1128 SWAP2 SWAP1 PUSH2 0x37DD JUMP JUMPDEST PUSH2 0x1132 SWAP2 SWAP1 PUSH2 0x37DD JUMP JUMPDEST PUSH2 0x2AB1 SWAP1 SWAP2 SWAP1 PUSH4 0xFFFFFFFF AND JUMP JUMPDEST SWAP1 POP DUP1 SWAP3 POP POP POP SWAP2 SWAP1 POP JUMP JUMPDEST PUSH1 0x0 PUSH2 0x1157 DUP6 PUSH2 0x28EE JUMP JUMPDEST PUSH2 0x1196 JUMPI PUSH1 0x40 MLOAD PUSH32 0x8C379A000000000000000000000000000000000000000000000000000000000 DUP2 MSTORE PUSH1 0x4 ADD PUSH2 0x118D SWAP1 PUSH2 0x366C JUMP JUMPDEST PUSH1 0x40 MLOAD DUP1 SWAP2 SUB SWAP1 REVERT JUMPDEST DUP6 PUSH1 0x4 PUSH1 0x0 DUP10 PUSH20 0xFFFFFFFFFFFFFFFFFFFFFFFFFFFFFFFFFFFFFFFF AND PUSH20 0xFFFFFFFFFFFFFFFFFFFFFFFFFFFFFFFFFFFFFFFF AND DUP2 MSTORE PUSH1 0x20 ADD SWAP1 DUP2 MSTORE PUSH1 0x20 ADD PUSH1 0x0 KECCAK256 SLOAD LT ISZERO PUSH2 0x1218 JUMPI PUSH1 0x40 MLOAD PUSH32 0x8C379A000000000000000000000000000000000000000000000000000000000 DUP2 MSTORE PUSH1 0x4 ADD PUSH2 0x120F SWAP1 PUSH2 0x36CC JUMP JUMPDEST PUSH1 0x40 MLOAD DUP1 SWAP2 SUB SWAP1 REVERT JUMPDEST PUSH1 0x0 PUSH1 0x5 PUSH1 0x0 DUP8 DUP2 MSTORE PUSH1 0x20 ADD SWAP1 DUP2 MSTORE PUSH1 0x20 ADD PUSH1 0x0 KECCAK256 PUSH1 0x40 MLOAD DUP1 PUSH2 0x160 ADD PUSH1 0x40 MSTORE SWAP1 DUP2 PUSH1 0x0 DUP3 ADD DUP1 SLOAD PUSH2 0x1249 SWAP1 PUSH2 0x3986 JUMP JUMPDEST DUP1 PUSH1 0x1F ADD PUSH1 0x20 DUP1 SWAP2 DIV MUL PUSH1 0x20 ADD PUSH1 0x40 MLOAD SWAP1 DUP2 ADD PUSH1 0x40 MSTORE DUP1 SWAP3 SWAP2 SWAP1 DUP2 DUP2 MSTORE PUSH1 0x20 ADD DUP3 DUP1 SLOAD PUSH2 0x1275 SWAP1 PUSH2 0x3986 JUMP JUMPDEST DUP1 ISZERO PUSH2 0x12C2 JUMPI DUP1 PUSH1 0x1F LT PUSH2 0x1297 JUMPI PUSH2 0x100 DUP1 DUP4 SLOAD DIV MUL DUP4 MSTORE SWAP2 PUSH1 0x20 ADD SWAP2 PUSH2 0x12C2 JUMP JUMPDEST DUP3 ADD SWAP2 SWAP1 PUSH1 0x0 MSTORE PUSH1 0x20 PUSH1 0x0 KECCAK256 SWAP1 JUMPDEST DUP2 SLOAD DUP2 MSTORE SWAP1 PUSH1 0x1 ADD SWAP1 PUSH1 0x20 ADD DUP1 DUP4 GT PUSH2 0x12A5 JUMPI DUP3 SWAP1 SUB PUSH1 0x1F AND DUP3 ADD SWAP2 JUMPDEST POP POP POP POP POP DUP2 MSTORE PUSH1 0x20 ADD PUSH1 0x1 DUP3 ADD DUP1 SLOAD PUSH2 0x12DB SWAP1 PUSH2 0x3986 JUMP JUMPDEST DUP1 PUSH1 0x1F ADD PUSH1 0x20 DUP1 SWAP2 DIV MUL PUSH1 0x20 ADD PUSH1 0x40 MLOAD SWAP1 DUP2 ADD PUSH1 0x40 MSTORE DUP1 SWAP3 SWAP2 SWAP1 DUP2 DUP2 MSTORE PUSH1 0x20 ADD DUP3 DUP1 SLOAD PUSH2 0x1307 SWAP1 PUSH2 0x3986 JUMP JUMPDEST DUP1 ISZERO PUSH2 0x1354 JUMPI DUP1 PUSH1 0x1F LT PUSH2 0x1329 JUMPI PUSH2 0x100 DUP1 DUP4 SLOAD DIV MUL DUP4 MSTORE SWAP2 PUSH1 0x20 ADD SWAP2 PUSH2 0x1354 JUMP JUMPDEST DUP3 ADD SWAP2 SWAP1 PUSH1 0x0 MSTORE PUSH1 0x20 PUSH1 0x0 KECCAK256 SWAP1 JUMPDEST DUP2 SLOAD DUP2 MSTORE SWAP1 PUSH1 0x1 ADD SWAP1 PUSH1 0x20 ADD DUP1 DUP4 GT PUSH2 0x1337 JUMPI DUP3 SWAP1 SUB PUSH1 0x1F AND DUP3 ADD SWAP2 JUMPDEST POP POP POP POP POP DUP2 MSTORE PUSH1 0x20 ADD PUSH1 0x2 DUP3 ADD DUP1 SLOAD PUSH2 0x136D SWAP1 PUSH2 0x3986 JUMP JUMPDEST DUP1 PUSH1 0x1F ADD PUSH1 0x20 DUP1 SWAP2 DIV MUL PUSH1 0x20 ADD PUSH1 0x40 MLOAD SWAP1 DUP2 ADD PUSH1 0x40 MSTORE DUP1 SWAP3 SWAP2 SWAP1 DUP2 DUP2 MSTORE PUSH1 0x20 ADD DUP3 DUP1 SLOAD PUSH2 0x1399 SWAP1 PUSH2 0x3986 JUMP JUMPDEST DUP1 ISZERO PUSH2 0x13E6 JUMPI DUP1 PUSH1 0x1F LT PUSH2 0x13BB JUMPI PUSH2 0x100 DUP1 DUP4 SLOAD DIV MUL DUP4 MSTORE SWAP2 PUSH1 0x20 ADD SWAP2 PUSH2 0x13E6 JUMP JUMPDEST DUP3 ADD SWAP2 SWAP1 PUSH1 0x0 MSTORE PUSH1 0x20 PUSH1 0x0 KECCAK256 SWAP1 JUMPDEST DUP2 SLOAD DUP2 MSTORE SWAP1 PUSH1 0x1 ADD SWAP1 PUSH1 0x20 ADD DUP1 DUP4 GT PUSH2 0x13C9 JUMPI DUP3 SWAP1 SUB PUSH1 0x1F AND DUP3 ADD SWAP2 JUMPDEST POP POP POP POP POP DUP2 MSTORE PUSH1 0x20 ADD PUSH1 0x3 DUP3 ADD SLOAD DUP2 MSTORE PUSH1 0x20 ADD PUSH1 0x4 DUP3 ADD SLOAD DUP2 MSTORE PUSH1 0x20 ADD PUSH1 0x5 DUP3 ADD SLOAD DUP2 MSTORE PUSH1 0x20 ADD PUSH1 0x6 DUP3 ADD SLOAD DUP2 MSTORE PUSH1 0x20 ADD PUSH1 0x7 DUP3 ADD SLOAD DUP2 MSTORE PUSH1 0x20 ADD PUSH1 0x8 DUP3 ADD PUSH1 0x0 SWAP1 SLOAD SWAP1 PUSH2 0x100 EXP SWAP1 DIV PUSH1 0xFF AND ISZERO ISZERO ISZERO ISZERO DUP2 MSTORE PUSH1 0x20 ADD PUSH1 0x8 DUP3 ADD PUSH1 0x1 SWAP1 SLOAD SWAP1 PUSH2 0x100 EXP SWAP1 DIV PUSH1 0xFF AND ISZERO ISZERO ISZERO ISZERO DUP2 MSTORE PUSH1 0x20 ADD PUSH1 0x8 DUP3 ADD PUSH1 0x2 SWAP1 SLOAD SWAP1 PUSH2 0x100 EXP SWAP1 DIV PUSH1 0xFF AND ISZERO ISZERO ISZERO ISZERO DUP2 MSTORE POP POP SWAP1 POP PUSH1 0x0 PUSH2 0x1490 PUSH2 0x1482 DUP8 PUSH2 0x2AF6 JUMP JUMPDEST PUSH2 0x148B DUP8 PUSH2 0x2AF6 JUMP JUMPDEST PUSH2 0x291B JUMP JUMPDEST SWAP1 POP PUSH1 0x0 PUSH2 0x14A6 PUSH2 0x14A0 DUP10 PUSH2 0x2B27 JUMP JUMPDEST DUP4 PUSH2 0x291B JUMP JUMPDEST SWAP1 POP PUSH1 0x0 PUSH1 0x40 MLOAD DUP1 PUSH1 0xE0 ADD PUSH1 0x40 MSTORE DUP1 DUP12 DUP2 MSTORE PUSH1 0x20 ADD DUP8 DUP2 MSTORE PUSH1 0x20 ADD DUP10 DUP2 MSTORE PUSH1 0x20 ADD DUP9 DUP2 MSTORE PUSH1 0x20 ADD DUP13 PUSH20 0xFFFFFFFFFFFFFFFFFFFFFFFFFFFFFFFFFFFFFFFF AND DUP2 MSTORE PUSH1 0x20 ADD DUP4 DUP2 MSTORE PUSH1 0x20 ADD PUSH1 0x0 ISZERO ISZERO DUP2 MSTORE POP SWAP1 POP DUP9 PUSH1 0x6 PUSH1 0x0 DUP12 DUP2 MSTORE PUSH1 0x20 ADD SWAP1 DUP2 MSTORE PUSH1 0x20 ADD PUSH1 0x0 KECCAK256 PUSH1 0x1 ADD DUP2 SWAP1 SSTORE POP PUSH1 0x6 PUSH1 0x0 DUP11 DUP2 MSTORE PUSH1 0x20 ADD SWAP1 DUP2 MSTORE PUSH1 0x20 ADD PUSH1 0x0 KECCAK256 PUSH1 0x0 ADD DUP2 SWAP1 DUP1 PUSH1 0x1 DUP2 SLOAD ADD DUP1 DUP3 SSTORE DUP1 SWAP2 POP POP PUSH1 0x1 SWAP1 SUB SWAP1 PUSH1 0x0 MSTORE PUSH1 0x20 PUSH1 0x0 KECCAK256 SWAP1 PUSH1 0x7 MUL ADD PUSH1 0x0 SWAP1 SWAP2 SWAP1 SWAP2 SWAP1 SWAP2 POP PUSH1 0x0 DUP3 ADD MLOAD DUP2 PUSH1 0x0 ADD SSTORE PUSH1 0x20 DUP3 ADD MLOAD DUP2 PUSH1 0x1 ADD SSTORE PUSH1 0x40 DUP3 ADD MLOAD DUP2 PUSH1 0x2 ADD SSTORE PUSH1 0x60 DUP3 ADD MLOAD DUP2 PUSH1 0x3 ADD SSTORE PUSH1 0x80 DUP3 ADD MLOAD DUP2 PUSH1 0x4 ADD PUSH1 0x0 PUSH2 0x100 EXP DUP2 SLOAD DUP2 PUSH20 0xFFFFFFFFFFFFFFFFFFFFFFFFFFFFFFFFFFFFFFFF MUL NOT AND SWAP1 DUP4 PUSH20 0xFFFFFFFFFFFFFFFFFFFFFFFFFFFFFFFFFFFFFFFF AND MUL OR SWAP1 SSTORE POP PUSH1 0xA0 DUP3 ADD MLOAD DUP2 PUSH1 0x5 ADD SWAP1 DUP1 MLOAD SWAP1 PUSH1 0x20 ADD SWAP1 PUSH2 0x15DE SWAP3 SWAP2 SWAP1 PUSH2 0x2E35 JUMP JUMPDEST POP PUSH1 0xC0 DUP3 ADD MLOAD DUP2 PUSH1 0x6 ADD PUSH1 0x0 PUSH2 0x100 EXP DUP2 SLOAD DUP2 PUSH1 0xFF MUL NOT AND SWAP1 DUP4 ISZERO ISZERO MUL OR SWAP1 SSTORE POP POP POP DUP11 PUSH1 0x8 PUSH1 0x0 DUP14 PUSH20 0xFFFFFFFFFFFFFFFFFFFFFFFFFFFFFFFFFFFFFFFF AND PUSH20 0xFFFFFFFFFFFFFFFFFFFFFFFFFFFFFFFFFFFFFFFF AND DUP2 MSTORE PUSH1 0x20 ADD SWAP1 DUP2 MSTORE PUSH1 0x20 ADD PUSH1 0x0 KECCAK256 PUSH1 0x1 ADD PUSH1 0x0 PUSH2 0x100 EXP DUP2 SLOAD DUP2 PUSH20 0xFFFFFFFFFFFFFFFFFFFFFFFFFFFFFFFFFFFFFFFF MUL NOT AND SWAP1 DUP4 PUSH20 0xFFFFFFFFFFFFFFFFFFFFFFFFFFFFFFFFFFFFFFFF AND MUL OR SWAP1 SSTORE POP PUSH1 0x6 PUSH1 0x0 DUP11 DUP2 MSTORE PUSH1 0x20 ADD SWAP1 DUP2 MSTORE PUSH1 0x20 ADD PUSH1 0x0 KECCAK256 PUSH1 0x0 ADD DUP2 SWAP1 DUP1 PUSH1 0x1 DUP2 SLOAD ADD DUP1 DUP3 SSTORE DUP1 SWAP2 POP POP PUSH1 0x1 SWAP1 SUB SWAP1 PUSH1 0x0 MSTORE PUSH1 0x20 PUSH1 0x0 KECCAK256 SWAP1 PUSH1 0x7 MUL ADD PUSH1 0x0 SWAP1 SWAP2 SWAP1 SWAP2 SWAP1 SWAP2 POP PUSH1 0x0 DUP3 ADD MLOAD DUP2 PUSH1 0x0 ADD SSTORE PUSH1 0x20 DUP3 ADD MLOAD DUP2 PUSH1 0x1 ADD SSTORE PUSH1 0x40 DUP3 ADD MLOAD DUP2 PUSH1 0x2 ADD SSTORE PUSH1 0x60 DUP3 ADD MLOAD DUP2 PUSH1 0x3 ADD SSTORE PUSH1 0x80 DUP3 ADD MLOAD DUP2 PUSH1 0x4 ADD PUSH1 0x0 PUSH2 0x100 EXP DUP2 SLOAD DUP2 PUSH20 0xFFFFFFFFFFFFFFFFFFFFFFFFFFFFFFFFFFFFFFFF MUL NOT AND SWAP1 DUP4 PUSH20 0xFFFFFFFFFFFFFFFFFFFFFFFFFFFFFFFFFFFFFFFF AND MUL OR SWAP1 SSTORE POP PUSH1 0xA0 DUP3 ADD MLOAD DUP2 PUSH1 0x5 ADD SWAP1 DUP1 MLOAD SWAP1 PUSH1 0x20 ADD SWAP1 PUSH2 0x174D SWAP3 SWAP2 SWAP1 PUSH2 0x2E35 JUMP JUMPDEST POP PUSH1 0xC0 DUP3 ADD MLOAD DUP2 PUSH1 0x6 ADD PUSH1 0x0 PUSH2 0x100 EXP DUP2 SLOAD DUP2 PUSH1 0xFF MUL NOT AND SWAP1 DUP4 ISZERO ISZERO MUL OR SWAP1 SSTORE POP POP POP PUSH1 0x2 DUP7 EQ ISZERO PUSH2 0x17CC JUMPI DUP10 DUP5 PUSH1 0xC0 ADD DUP2 DUP2 MLOAD PUSH2 0x178B SWAP2 SWAP1 PUSH2 0x37DD JUMP JUMPDEST SWAP2 POP DUP2 DUP2 MSTORE POP POP DUP10 PUSH1 0x7 DUP4 PUSH1 0x40 MLOAD PUSH2 0x17A3 SWAP2 SWAP1 PUSH2 0x3534 JUMP JUMPDEST SWAP1 DUP2 MSTORE PUSH1 0x20 ADD PUSH1 0x40 MLOAD DUP1 SWAP2 SUB SWAP1 KECCAK256 PUSH1 0x0 DUP3 DUP3 SLOAD PUSH2 0x17C0 SWAP2 SWAP1 PUSH2 0x37DD JUMP JUMPDEST SWAP3 POP POP DUP2 SWAP1 SSTORE POP PUSH2 0x1836 JUMP JUMPDEST PUSH1 0x3 DUP7 EQ ISZERO PUSH2 0x17F3 JUMPI DUP10 DUP5 PUSH1 0x60 ADD DUP2 DUP2 MLOAD PUSH2 0x17E7 SWAP2 SWAP1 PUSH2 0x37DD JUMP JUMPDEST SWAP2 POP DUP2 DUP2 MSTORE POP POP PUSH2 0x1835 JUMP JUMPDEST PUSH1 0x1 DUP7 EQ ISZERO PUSH2 0x181A JUMPI DUP10 DUP5 PUSH1 0x80 ADD DUP2 DUP2 MLOAD PUSH2 0x180E SWAP2 SWAP1 PUSH2 0x37DD JUMP JUMPDEST SWAP2 POP DUP2 DUP2 MSTORE POP POP PUSH2 0x1834 JUMP JUMPDEST DUP10 DUP5 PUSH1 0xA0 ADD DUP2 DUP2 MLOAD PUSH2 0x182C SWAP2 SWAP1 PUSH2 0x37DD JUMP JUMPDEST SWAP2 POP DUP2 DUP2 MSTORE POP POP JUMPDEST JUMPDEST JUMPDEST DUP10 PUSH1 0x4 PUSH1 0x0 DUP14 PUSH20 0xFFFFFFFFFFFFFFFFFFFFFFFFFFFFFFFFFFFFFFFF AND PUSH20 0xFFFFFFFFFFFFFFFFFFFFFFFFFFFFFFFFFFFFFFFF AND DUP2 MSTORE PUSH1 0x20 ADD SWAP1 DUP2 MSTORE PUSH1 0x20 ADD PUSH1 0x0 KECCAK256 PUSH1 0x0 DUP3 DUP3 SLOAD PUSH2 0x1885 SWAP2 SWAP1 PUSH2 0x38BE JUMP JUMPDEST SWAP3 POP POP DUP2 SWAP1 SSTORE POP POP POP POP POP PUSH1 0x1 SWAP1 POP SWAP7 SWAP6 POP POP POP POP POP POP JUMP JUMPDEST PUSH1 0x0 DUP1 PUSH1 0x0 SWAP1 SLOAD SWAP1 PUSH2 0x100 EXP SWAP1 DIV PUSH20 0xFFFFFFFFFFFFFFFFFFFFFFFFFFFFFFFFFFFFFFFF AND PUSH20 0xFFFFFFFFFFFFFFFFFFFFFFFFFFFFFFFFFFFFFFFF AND CALLER PUSH20 0xFFFFFFFFFFFFFFFFFFFFFFFFFFFFFFFFFFFFFFFF AND EQ PUSH2 0x192F JUMPI PUSH1 0x40 MLOAD PUSH32 0x8C379A000000000000000000000000000000000000000000000000000000000 DUP2 MSTORE PUSH1 0x4 ADD PUSH2 0x1926 SWAP1 PUSH2 0x362C JUMP JUMPDEST PUSH1 0x40 MLOAD DUP1 SWAP2 SUB SWAP1 REVERT JUMPDEST PUSH2 0x1938 DUP6 PUSH2 0x28EE JUMP JUMPDEST PUSH2 0x1977 JUMPI PUSH1 0x40 MLOAD PUSH32 0x8C379A000000000000000000000000000000000000000000000000000000000 DUP2 MSTORE PUSH1 0x4 ADD PUSH2 0x196E SWAP1 PUSH2 0x366C JUMP JUMPDEST PUSH1 0x40 MLOAD DUP1 SWAP2 SUB SWAP1 REVERT JUMPDEST PUSH1 0x0 PUSH1 0x5 PUSH1 0x0 DUP8 DUP2 MSTORE PUSH1 0x20 ADD SWAP1 DUP2 MSTORE PUSH1 0x20 ADD PUSH1 0x0 KECCAK256 PUSH1 0x40 MLOAD DUP1 PUSH2 0x160 ADD PUSH1 0x40 MSTORE SWAP1 DUP2 PUSH1 0x0 DUP3 ADD DUP1 SLOAD PUSH2 0x19A8 SWAP1 PUSH2 0x3986 JUMP JUMPDEST DUP1 PUSH1 0x1F ADD PUSH1 0x20 DUP1 SWAP2 DIV MUL PUSH1 0x20 ADD PUSH1 0x40 MLOAD SWAP1 DUP2 ADD PUSH1 0x40 MSTORE DUP1 SWAP3 SWAP2 SWAP1 DUP2 DUP2 MSTORE PUSH1 0x20 ADD DUP3 DUP1 SLOAD PUSH2 0x19D4 SWAP1 PUSH2 0x3986 JUMP JUMPDEST DUP1 ISZERO PUSH2 0x1A21 JUMPI DUP1 PUSH1 0x1F LT PUSH2 0x19F6 JUMPI PUSH2 0x100 DUP1 DUP4 SLOAD DIV MUL DUP4 MSTORE SWAP2 PUSH1 0x20 ADD SWAP2 PUSH2 0x1A21 JUMP JUMPDEST DUP3 ADD SWAP2 SWAP1 PUSH1 0x0 MSTORE PUSH1 0x20 PUSH1 0x0 KECCAK256 SWAP1 JUMPDEST DUP2 SLOAD DUP2 MSTORE SWAP1 PUSH1 0x1 ADD SWAP1 PUSH1 0x20 ADD DUP1 DUP4 GT PUSH2 0x1A04 JUMPI DUP3 SWAP1 SUB PUSH1 0x1F AND DUP3 ADD SWAP2 JUMPDEST POP POP POP POP POP DUP2 MSTORE PUSH1 0x20 ADD PUSH1 0x1 DUP3 ADD DUP1 SLOAD PUSH2 0x1A3A SWAP1 PUSH2 0x3986 JUMP JUMPDEST DUP1 PUSH1 0x1F ADD PUSH1 0x20 DUP1 SWAP2 DIV MUL PUSH1 0x20 ADD PUSH1 0x40 MLOAD SWAP1 DUP2 ADD PUSH1 0x40 MSTORE DUP1 SWAP3 SWAP2 SWAP1 DUP2 DUP2 MSTORE PUSH1 0x20 ADD DUP3 DUP1 SLOAD PUSH2 0x1A66 SWAP1 PUSH2 0x3986 JUMP JUMPDEST DUP1 ISZERO PUSH2 0x1AB3 JUMPI DUP1 PUSH1 0x1F LT PUSH2 0x1A88 JUMPI PUSH2 0x100 DUP1 DUP4 SLOAD DIV MUL DUP4 MSTORE SWAP2 PUSH1 0x20 ADD SWAP2 PUSH2 0x1AB3 JUMP JUMPDEST DUP3 ADD SWAP2 SWAP1 PUSH1 0x0 MSTORE PUSH1 0x20 PUSH1 0x0 KECCAK256 SWAP1 JUMPDEST DUP2 SLOAD DUP2 MSTORE SWAP1 PUSH1 0x1 ADD SWAP1 PUSH1 0x20 ADD DUP1 DUP4 GT PUSH2 0x1A96 JUMPI DUP3 SWAP1 SUB PUSH1 0x1F AND DUP3 ADD SWAP2 JUMPDEST POP POP POP POP POP DUP2 MSTORE PUSH1 0x20 ADD PUSH1 0x2 DUP3 ADD DUP1 SLOAD PUSH2 0x1ACC SWAP1 PUSH2 0x3986 JUMP JUMPDEST DUP1 PUSH1 0x1F ADD PUSH1 0x20 DUP1 SWAP2 DIV MUL PUSH1 0x20 ADD PUSH1 0x40 MLOAD SWAP1 DUP2 ADD PUSH1 0x40 MSTORE DUP1 SWAP3 SWAP2 SWAP1 DUP2 DUP2 MSTORE PUSH1 0x20 ADD DUP3 DUP1 SLOAD PUSH2 0x1AF8 SWAP1 PUSH2 0x3986 JUMP JUMPDEST DUP1 ISZERO PUSH2 0x1B45 JUMPI DUP1 PUSH1 0x1F LT PUSH2 0x1B1A JUMPI PUSH2 0x100 DUP1 DUP4 SLOAD DIV MUL DUP4 MSTORE SWAP2 PUSH1 0x20 ADD SWAP2 PUSH2 0x1B45 JUMP JUMPDEST DUP3 ADD SWAP2 SWAP1 PUSH1 0x0 MSTORE PUSH1 0x20 PUSH1 0x0 KECCAK256 SWAP1 JUMPDEST DUP2 SLOAD DUP2 MSTORE SWAP1 PUSH1 0x1 ADD SWAP1 PUSH1 0x20 ADD DUP1 DUP4 GT PUSH2 0x1B28 JUMPI DUP3 SWAP1 SUB PUSH1 0x1F AND DUP3 ADD SWAP2 JUMPDEST POP POP POP POP POP DUP2 MSTORE PUSH1 0x20 ADD PUSH1 0x3 DUP3 ADD SLOAD DUP2 MSTORE PUSH1 0x20 ADD PUSH1 0x4 DUP3 ADD SLOAD DUP2 MSTORE PUSH1 0x20 ADD PUSH1 0x5 DUP3 ADD SLOAD DUP2 MSTORE PUSH1 0x20 ADD PUSH1 0x6 DUP3 ADD SLOAD DUP2 MSTORE PUSH1 0x20 ADD PUSH1 0x7 DUP3 ADD SLOAD DUP2 MSTORE PUSH1 0x20 ADD PUSH1 0x8 DUP3 ADD PUSH1 0x0 SWAP1 SLOAD SWAP1 PUSH2 0x100 EXP SWAP1 DIV PUSH1 0xFF AND ISZERO ISZERO ISZERO ISZERO DUP2 MSTORE PUSH1 0x20 ADD PUSH1 0x8 DUP3 ADD PUSH1 0x1 SWAP1 SLOAD SWAP1 PUSH2 0x100 EXP SWAP1 DIV PUSH1 0xFF AND ISZERO ISZERO ISZERO ISZERO DUP2 MSTORE PUSH1 0x20 ADD PUSH1 0x8 DUP3 ADD PUSH1 0x2 SWAP1 SLOAD SWAP1 PUSH2 0x100 EXP SWAP1 DIV PUSH1 0xFF AND ISZERO ISZERO ISZERO ISZERO DUP2 MSTORE POP POP SWAP1 POP PUSH1 0x1 DUP2 PUSH2 0x140 ADD SWAP1 ISZERO ISZERO SWAP1 DUP2 ISZERO ISZERO DUP2 MSTORE POP ISZERO PUSH2 0x1C24 JUMPI PUSH1 0x40 MLOAD PUSH32 0x8C379A000000000000000000000000000000000000000000000000000000000 DUP2 MSTORE PUSH1 0x4 ADD PUSH2 0x1C1B SWAP1 PUSH2 0x36EC JUMP JUMPDEST PUSH1 0x40 MLOAD DUP1 SWAP2 SUB SWAP1 REVERT JUMPDEST PUSH1 0x0 PUSH1 0x6 PUSH1 0x0 DUP9 DUP2 MSTORE PUSH1 0x20 ADD SWAP1 DUP2 MSTORE PUSH1 0x20 ADD PUSH1 0x0 KECCAK256 PUSH1 0x0 ADD DUP1 SLOAD DUP1 PUSH1 0x20 MUL PUSH1 0x20 ADD PUSH1 0x40 MLOAD SWAP1 DUP2 ADD PUSH1 0x40 MSTORE DUP1 SWAP3 SWAP2 SWAP1 DUP2 DUP2 MSTORE PUSH1 0x20 ADD PUSH1 0x0 SWAP1 JUMPDEST DUP3 DUP3 LT ISZERO PUSH2 0x1DB9 JUMPI DUP4 DUP3 SWAP1 PUSH1 0x0 MSTORE PUSH1 0x20 PUSH1 0x0 KECCAK256 SWAP1 PUSH1 0x7 MUL ADD PUSH1 0x40 MLOAD DUP1 PUSH1 0xE0 ADD PUSH1 0x40 MSTORE SWAP1 DUP2 PUSH1 0x0 DUP3 ADD SLOAD DUP2 MSTORE PUSH1 0x20 ADD PUSH1 0x1 DUP3 ADD SLOAD DUP2 MSTORE PUSH1 0x20 ADD PUSH1 0x2 DUP3 ADD SLOAD DUP2 MSTORE PUSH1 0x20 ADD PUSH1 0x3 DUP3 ADD SLOAD DUP2 MSTORE PUSH1 0x20 ADD PUSH1 0x4 DUP3 ADD PUSH1 0x0 SWAP1 SLOAD SWAP1 PUSH2 0x100 EXP SWAP1 DIV PUSH20 0xFFFFFFFFFFFFFFFFFFFFFFFFFFFFFFFFFFFFFFFF AND PUSH20 0xFFFFFFFFFFFFFFFFFFFFFFFFFFFFFFFFFFFFFFFF AND PUSH20 0xFFFFFFFFFFFFFFFFFFFFFFFFFFFFFFFFFFFFFFFF AND DUP2 MSTORE PUSH1 0x20 ADD PUSH1 0x5 DUP3 ADD DUP1 SLOAD PUSH2 0x1D0D SWAP1 PUSH2 0x3986 JUMP JUMPDEST DUP1 PUSH1 0x1F ADD PUSH1 0x20 DUP1 SWAP2 DIV MUL PUSH1 0x20 ADD PUSH1 0x40 MLOAD SWAP1 DUP2 ADD PUSH1 0x40 MSTORE DUP1 SWAP3 SWAP2 SWAP1 DUP2 DUP2 MSTORE PUSH1 0x20 ADD DUP3 DUP1 SLOAD PUSH2 0x1D39 SWAP1 PUSH2 0x3986 JUMP JUMPDEST DUP1 ISZERO PUSH2 0x1D86 JUMPI DUP1 PUSH1 0x1F LT PUSH2 0x1D5B JUMPI PUSH2 0x100 DUP1 DUP4 SLOAD DIV MUL DUP4 MSTORE SWAP2 PUSH1 0x20 ADD SWAP2 PUSH2 0x1D86 JUMP JUMPDEST DUP3 ADD SWAP2 SWAP1 PUSH1 0x0 MSTORE PUSH1 0x20 PUSH1 0x0 KECCAK256 SWAP1 JUMPDEST DUP2 SLOAD DUP2 MSTORE SWAP1 PUSH1 0x1 ADD SWAP1 PUSH1 0x20 ADD DUP1 DUP4 GT PUSH2 0x1D69 JUMPI DUP3 SWAP1 SUB PUSH1 0x1F AND DUP3 ADD SWAP2 JUMPDEST POP POP POP POP POP DUP2 MSTORE PUSH1 0x20 ADD PUSH1 0x6 DUP3 ADD PUSH1 0x0 SWAP1 SLOAD SWAP1 PUSH2 0x100 EXP SWAP1 DIV PUSH1 0xFF AND ISZERO ISZERO ISZERO ISZERO DUP2 MSTORE POP POP DUP2 MSTORE PUSH1 0x20 ADD SWAP1 PUSH1 0x1 ADD SWAP1 PUSH2 0x1C5C JUMP JUMPDEST POP POP POP POP SWAP1 POP PUSH1 0x0 PUSH2 0x1E28 PUSH1 0x14 PUSH2 0x1DDE PUSH1 0x2 DUP7 PUSH1 0xE0 ADD MLOAD PUSH2 0x433 SWAP1 SWAP2 SWAP1 PUSH4 0xFFFFFFFF AND JUMP JUMPDEST DUP6 PUSH1 0x80 ADD MLOAD DUP7 PUSH1 0xA0 ADD MLOAD DUP8 PUSH1 0x60 ADD MLOAD DUP9 PUSH1 0xC0 ADD MLOAD PUSH2 0x1DFC SWAP2 SWAP1 PUSH2 0x37DD JUMP JUMPDEST PUSH2 0x1E06 SWAP2 SWAP1 PUSH2 0x37DD JUMP JUMPDEST PUSH2 0x1E10 SWAP2 SWAP1 PUSH2 0x37DD JUMP JUMPDEST PUSH2 0x1E1A SWAP2 SWAP1 PUSH2 0x37DD JUMP JUMPDEST PUSH2 0x433 SWAP1 SWAP2 SWAP1 PUSH4 0xFFFFFFFF AND JUMP JUMPDEST PUSH1 0x1 PUSH1 0x0 DUP3 DUP3 SLOAD PUSH2 0x1E39 SWAP2 SWAP1 PUSH2 0x37DD JUMP JUMPDEST SWAP3 POP POP DUP2 SWAP1 SSTORE POP PUSH1 0x0 JUMPDEST PUSH1 0x1 DUP4 MLOAD PUSH2 0x1E51 SWAP2 SWAP1 PUSH2 0x38BE JUMP JUMPDEST DUP2 GT PUSH2 0x22EF JUMPI PUSH1 0x0 DUP4 DUP3 DUP2 MLOAD DUP2 LT PUSH2 0x1E6C JUMPI PUSH2 0x1E6B PUSH2 0x3AD3 JUMP JUMPDEST JUMPDEST PUSH1 0x20 MUL PUSH1 0x20 ADD ADD MLOAD PUSH1 0xC0 ADD SWAP1 ISZERO ISZERO SWAP1 DUP2 ISZERO ISZERO DUP2 MSTORE POP ISZERO PUSH2 0x22DC JUMPI PUSH1 0x2 DUP4 DUP3 DUP2 MLOAD DUP2 LT PUSH2 0x1E9B JUMPI PUSH2 0x1E9A PUSH2 0x3AD3 JUMP JUMPDEST JUMPDEST PUSH1 0x20 MUL PUSH1 0x20 ADD ADD MLOAD PUSH1 0x20 ADD MLOAD EQ ISZERO PUSH2 0x206C JUMPI PUSH2 0x1EFA PUSH1 0x64 PUSH2 0x1EEC PUSH1 0x55 PUSH2 0x1ECF PUSH1 0x2 DUP10 PUSH1 0xE0 ADD MLOAD PUSH2 0x433 SWAP1 SWAP2 SWAP1 PUSH4 0xFFFFFFFF AND JUMP JUMPDEST DUP9 PUSH1 0xC0 ADD MLOAD PUSH2 0x1EDE SWAP2 SWAP1 PUSH2 0x37DD JUMP JUMPDEST PUSH2 0x2AB1 SWAP1 SWAP2 SWAP1 PUSH4 0xFFFFFFFF AND JUMP JUMPDEST PUSH2 0x433 SWAP1 SWAP2 SWAP1 PUSH4 0xFFFFFFFF AND JUMP JUMPDEST SWAP2 POP DUP8 DUP4 DUP3 DUP2 MLOAD DUP2 LT PUSH2 0x1F10 JUMPI PUSH2 0x1F0F PUSH2 0x3AD3 JUMP JUMPDEST JUMPDEST PUSH1 0x20 MUL PUSH1 0x20 ADD ADD MLOAD PUSH1 0x40 ADD MLOAD EQ DUP1 ISZERO PUSH2 0x1F46 JUMPI POP DUP7 DUP4 DUP3 DUP2 MLOAD DUP2 LT PUSH2 0x1F38 JUMPI PUSH2 0x1F37 PUSH2 0x3AD3 JUMP JUMPDEST JUMPDEST PUSH1 0x20 MUL PUSH1 0x20 ADD ADD MLOAD PUSH1 0x60 ADD MLOAD EQ JUMPDEST ISZERO PUSH2 0x2067 JUMPI PUSH1 0x0 PUSH1 0x7 DUP5 DUP4 DUP2 MLOAD DUP2 LT PUSH2 0x1F62 JUMPI PUSH2 0x1F61 PUSH2 0x3AD3 JUMP JUMPDEST JUMPDEST PUSH1 0x20 MUL PUSH1 0x20 ADD ADD MLOAD PUSH1 0xA0 ADD MLOAD PUSH1 0x40 MLOAD PUSH2 0x1F7B SWAP2 SWAP1 PUSH2 0x3534 JUMP JUMPDEST SWAP1 DUP2 MSTORE PUSH1 0x20 ADD PUSH1 0x40 MLOAD DUP1 SWAP2 SUB SWAP1 KECCAK256 SLOAD SWAP1 POP PUSH1 0x0 DUP2 DUP6 DUP5 DUP2 MLOAD DUP2 LT PUSH2 0x1FA2 JUMPI PUSH2 0x1FA1 PUSH2 0x3AD3 JUMP JUMPDEST JUMPDEST PUSH1 0x20 MUL PUSH1 0x20 ADD ADD MLOAD PUSH1 0x0 ADD MLOAD DUP6 PUSH2 0x1FB9 SWAP2 SWAP1 PUSH2 0x3864 JUMP JUMPDEST PUSH2 0x1FC3 SWAP2 SWAP1 PUSH2 0x3833 JUMP JUMPDEST SWAP1 POP DUP1 PUSH1 0x4 PUSH1 0x0 DUP8 DUP7 DUP2 MLOAD DUP2 LT PUSH2 0x1FDD JUMPI PUSH2 0x1FDC PUSH2 0x3AD3 JUMP JUMPDEST JUMPDEST PUSH1 0x20 MUL PUSH1 0x20 ADD ADD MLOAD PUSH1 0x80 ADD MLOAD PUSH20 0xFFFFFFFFFFFFFFFFFFFFFFFFFFFFFFFFFFFFFFFF AND PUSH20 0xFFFFFFFFFFFFFFFFFFFFFFFFFFFFFFFFFFFFFFFF AND DUP2 MSTORE PUSH1 0x20 ADD SWAP1 DUP2 MSTORE PUSH1 0x20 ADD PUSH1 0x0 KECCAK256 PUSH1 0x0 DUP3 DUP3 SLOAD PUSH2 0x2032 SWAP2 SWAP1 PUSH2 0x37DD JUMP JUMPDEST SWAP3 POP POP DUP2 SWAP1 SSTORE POP PUSH1 0x1 DUP6 DUP5 DUP2 MLOAD DUP2 LT PUSH2 0x204E JUMPI PUSH2 0x204D PUSH2 0x3AD3 JUMP JUMPDEST JUMPDEST PUSH1 0x20 MUL PUSH1 0x20 ADD ADD MLOAD PUSH1 0xC0 ADD SWAP1 ISZERO ISZERO SWAP1 DUP2 ISZERO ISZERO DUP2 MSTORE POP POP POP POP JUMPDEST PUSH2 0x22DB JUMP JUMPDEST DUP6 DUP4 DUP3 DUP2 MLOAD DUP2 LT PUSH2 0x2080 JUMPI PUSH2 0x207F PUSH2 0x3AD3 JUMP JUMPDEST JUMPDEST PUSH1 0x20 MUL PUSH1 0x20 ADD ADD MLOAD PUSH1 0x20 ADD MLOAD EQ ISZERO PUSH2 0x22DA JUMPI PUSH2 0x20FD PUSH1 0x64 PUSH2 0x20EF PUSH1 0x55 PUSH2 0x20B4 PUSH1 0x2 DUP10 PUSH1 0xE0 ADD MLOAD PUSH2 0x433 SWAP1 SWAP2 SWAP1 PUSH4 0xFFFFFFFF AND JUMP JUMPDEST DUP9 PUSH1 0x80 ADD MLOAD DUP10 PUSH1 0xA0 ADD MLOAD DUP11 PUSH1 0x60 ADD MLOAD PUSH2 0x20CD SWAP2 SWAP1 PUSH2 0x37DD JUMP JUMPDEST PUSH2 0x20D7 SWAP2 SWAP1 PUSH2 0x37DD JUMP JUMPDEST PUSH2 0x20E1 SWAP2 SWAP1 PUSH2 0x37DD JUMP JUMPDEST PUSH2 0x2AB1 SWAP1 SWAP2 SWAP1 PUSH4 0xFFFFFFFF AND JUMP JUMPDEST PUSH2 0x433 SWAP1 SWAP2 SWAP1 PUSH4 0xFFFFFFFF AND JUMP JUMPDEST SWAP2 POP PUSH1 0x0 DUP1 DUP5 DUP4 DUP2 MLOAD DUP2 LT PUSH2 0x2115 JUMPI PUSH2 0x2114 PUSH2 0x3AD3 JUMP JUMPDEST JUMPDEST PUSH1 0x20 MUL PUSH1 0x20 ADD ADD MLOAD PUSH1 0x20 ADD MLOAD EQ ISZERO PUSH2 0x2155 JUMPI PUSH2 0x2152 PUSH1 0x64 PUSH2 0x2144 PUSH1 0x55 DUP9 PUSH1 0xA0 ADD MLOAD PUSH2 0x2AB1 SWAP1 SWAP2 SWAP1 PUSH4 0xFFFFFFFF AND JUMP JUMPDEST PUSH2 0x433 SWAP1 SWAP2 SWAP1 PUSH4 0xFFFFFFFF AND JUMP JUMPDEST SWAP1 POP JUMPDEST PUSH1 0x1 DUP5 DUP4 DUP2 MLOAD DUP2 LT PUSH2 0x216A JUMPI PUSH2 0x2169 PUSH2 0x3AD3 JUMP JUMPDEST JUMPDEST PUSH1 0x20 MUL PUSH1 0x20 ADD ADD MLOAD PUSH1 0x20 ADD MLOAD EQ ISZERO PUSH2 0x21AA JUMPI PUSH2 0x21A7 PUSH1 0x64 PUSH2 0x2199 PUSH1 0x55 DUP9 PUSH1 0x80 ADD MLOAD PUSH2 0x2AB1 SWAP1 SWAP2 SWAP1 PUSH4 0xFFFFFFFF AND JUMP JUMPDEST PUSH2 0x433 SWAP1 SWAP2 SWAP1 PUSH4 0xFFFFFFFF AND JUMP JUMPDEST SWAP1 POP JUMPDEST PUSH1 0x3 DUP5 DUP4 DUP2 MLOAD DUP2 LT PUSH2 0x21BF JUMPI PUSH2 0x21BE PUSH2 0x3AD3 JUMP JUMPDEST JUMPDEST PUSH1 0x20 MUL PUSH1 0x20 ADD ADD MLOAD PUSH1 0x20 ADD MLOAD EQ ISZERO PUSH2 0x21FF JUMPI PUSH2 0x21FC PUSH1 0x64 PUSH2 0x21EE PUSH1 0x55 DUP9 PUSH1 0x60 ADD MLOAD PUSH2 0x2AB1 SWAP1 SWAP2 SWAP1 PUSH4 0xFFFFFFFF AND JUMP JUMPDEST PUSH2 0x433 SWAP1 SWAP2 SWAP1 PUSH4 0xFFFFFFFF AND JUMP JUMPDEST SWAP1 POP JUMPDEST PUSH1 0x0 DUP2 DUP6 DUP5 DUP2 MLOAD DUP2 LT PUSH2 0x2215 JUMPI PUSH2 0x2214 PUSH2 0x3AD3 JUMP JUMPDEST JUMPDEST PUSH1 0x20 MUL PUSH1 0x20 ADD ADD MLOAD PUSH1 0x0 ADD MLOAD DUP6 PUSH2 0x222C SWAP2 SWAP1 PUSH2 0x3864 JUMP JUMPDEST PUSH2 0x2236 SWAP2 SWAP1 PUSH2 0x3833 JUMP JUMPDEST SWAP1 POP DUP1 PUSH1 0x4 PUSH1 0x0 DUP8 DUP7 DUP2 MLOAD DUP2 LT PUSH2 0x2250 JUMPI PUSH2 0x224F PUSH2 0x3AD3 JUMP JUMPDEST JUMPDEST PUSH1 0x20 MUL PUSH1 0x20 ADD ADD MLOAD PUSH1 0x80 ADD MLOAD PUSH20 0xFFFFFFFFFFFFFFFFFFFFFFFFFFFFFFFFFFFFFFFF AND PUSH20 0xFFFFFFFFFFFFFFFFFFFFFFFFFFFFFFFFFFFFFFFF AND DUP2 MSTORE PUSH1 0x20 ADD SWAP1 DUP2 MSTORE PUSH1 0x20 ADD PUSH1 0x0 KECCAK256 PUSH1 0x0 DUP3 DUP3 SLOAD PUSH2 0x22A5 SWAP2 SWAP1 PUSH2 0x37DD JUMP JUMPDEST SWAP3 POP POP DUP2 SWAP1 SSTORE POP PUSH1 0x1 DUP6 DUP5 DUP2 MLOAD DUP2 LT PUSH2 0x22C1 JUMPI PUSH2 0x22C0 PUSH2 0x3AD3 JUMP JUMPDEST JUMPDEST PUSH1 0x20 MUL PUSH1 0x20 ADD ADD MLOAD PUSH1 0xC0 ADD SWAP1 ISZERO ISZERO SWAP1 DUP2 ISZERO ISZERO DUP2 MSTORE POP POP POP POP JUMPDEST JUMPDEST JUMPDEST DUP1 DUP1 PUSH2 0x22E7 SWAP1 PUSH2 0x39E9 JUMP JUMPDEST SWAP2 POP POP PUSH2 0x1E43 JUMP JUMPDEST POP PUSH1 0x1 DUP4 PUSH2 0x140 ADD SWAP1 ISZERO ISZERO SWAP1 DUP2 ISZERO ISZERO DUP2 MSTORE POP POP POP POP POP PUSH1 0x1 SWAP1 POP SWAP5 SWAP4 POP POP POP POP JUMP JUMPDEST PUSH1 0x0 DUP1 PUSH1 0x0 SWAP1 SLOAD SWAP1 PUSH2 0x100 EXP SWAP1 DIV PUSH20 0xFFFFFFFFFFFFFFFFFFFFFFFFFFFFFFFFFFFFFFFF AND PUSH20 0xFFFFFFFFFFFFFFFFFFFFFFFFFFFFFFFFFFFFFFFF AND CALLER PUSH20 0xFFFFFFFFFFFFFFFFFFFFFFFFFFFFFFFFFFFFFFFF AND EQ PUSH2 0x23A2 JUMPI PUSH1 0x40 MLOAD PUSH32 0x8C379A000000000000000000000000000000000000000000000000000000000 DUP2 MSTORE PUSH1 0x4 ADD PUSH2 0x2399 SWAP1 PUSH2 0x362C JUMP JUMPDEST PUSH1 0x40 MLOAD DUP1 SWAP2 SUB SWAP1 REVERT JUMPDEST DUP2 PUSH1 0x4 PUSH1 0x0 DUP6 PUSH20 0xFFFFFFFFFFFFFFFFFFFFFFFFFFFFFFFFFFFFFFFF AND PUSH20 0xFFFFFFFFFFFFFFFFFFFFFFFFFFFFFFFFFFFFFFFF AND DUP2 MSTORE PUSH1 0x20 ADD SWAP1 DUP2 MSTORE PUSH1 0x20 ADD PUSH1 0x0 KECCAK256 SLOAD LT ISZERO DUP1 ISZERO PUSH2 0x2431 JUMPI POP PUSH1 0x0 PUSH1 0x4 PUSH1 0x0 DUP6 PUSH20 0xFFFFFFFFFFFFFFFFFFFFFFFFFFFFFFFFFFFFFFFF AND PUSH20 0xFFFFFFFFFFFFFFFFFFFFFFFFFFFFFFFFFFFFFFFF AND DUP2 MSTORE PUSH1 0x20 ADD SWAP1 DUP2 MSTORE PUSH1 0x20 ADD PUSH1 0x0 KECCAK256 SLOAD LT ISZERO JUMPDEST ISZERO PUSH2 0x24E0 JUMPI PUSH1 0x0 DUP4 SWAP1 POP DUP1 PUSH20 0xFFFFFFFFFFFFFFFFFFFFFFFFFFFFFFFFFFFFFFFF AND PUSH2 0x8FC PUSH2 0x24AE PUSH7 0x2386F26FC10000 PUSH1 0x4 PUSH1 0x0 DUP10 PUSH20 0xFFFFFFFFFFFFFFFFFFFFFFFFFFFFFFFFFFFFFFFF AND PUSH20 0xFFFFFFFFFFFFFFFFFFFFFFFFFFFFFFFFFFFFFFFF AND DUP2 MSTORE PUSH1 0x20 ADD SWAP1 DUP2 MSTORE PUSH1 0x20 ADD PUSH1 0x0 KECCAK256 SLOAD PUSH2 0x2AB1 SWAP1 SWAP2 SWAP1 PUSH4 0xFFFFFFFF AND JUMP JUMPDEST SWAP1 DUP2 ISZERO MUL SWAP1 PUSH1 0x40 MLOAD PUSH1 0x0 PUSH1 0x40 MLOAD DUP1 DUP4 SUB DUP2 DUP6 DUP9 DUP9 CALL SWAP4 POP POP POP POP ISZERO DUP1 ISZERO PUSH2 0x24D9 JUMPI RETURNDATASIZE PUSH1 0x0 DUP1 RETURNDATACOPY RETURNDATASIZE PUSH1 0x0 REVERT JUMPDEST POP POP PUSH2 0x251B JUMP JUMPDEST PUSH1 0x40 MLOAD PUSH32 0x8C379A000000000000000000000000000000000000000000000000000000000 DUP2 MSTORE PUSH1 0x4 ADD PUSH2 0x2512 SWAP1 PUSH2 0x36CC JUMP JUMPDEST PUSH1 0x40 MLOAD DUP1 SWAP2 SUB SWAP1 REVERT JUMPDEST PUSH1 0x1 SWAP1 POP SWAP3 SWAP2 POP POP JUMP JUMPDEST PUSH1 0x0 PUSH1 0x4 PUSH1 0x0 CALLER PUSH20 0xFFFFFFFFFFFFFFFFFFFFFFFFFFFFFFFFFFFFFFFF AND PUSH20 0xFFFFFFFFFFFFFFFFFFFFFFFFFFFFFFFFFFFFFFFF AND DUP2 MSTORE PUSH1 0x20 ADD SWAP1 DUP2 MSTORE PUSH1 0x20 ADD PUSH1 0x0 KECCAK256 SLOAD SWAP1 POP SWAP1 JUMP JUMPDEST PUSH1 0x60 PUSH1 0x2 DUP1 SLOAD DUP1 PUSH1 0x20 MUL PUSH1 0x20 ADD PUSH1 0x40 MLOAD SWAP1 DUP2 ADD PUSH1 0x40 MSTORE DUP1 SWAP3 SWAP2 SWAP1 DUP2 DUP2 MSTORE PUSH1 0x20 ADD DUP3 DUP1 SLOAD DUP1 ISZERO PUSH2 0x25BA JUMPI PUSH1 0x20 MUL DUP3 ADD SWAP2 SWAP1 PUSH1 0x0 MSTORE PUSH1 0x20 PUSH1 0x0 KECCAK256 SWAP1 JUMPDEST DUP2 SLOAD DUP2 MSTORE PUSH1 0x20 ADD SWAP1 PUSH1 0x1 ADD SWAP1 DUP1 DUP4 GT PUSH2 0x25A6 JUMPI JUMPDEST POP POP POP POP POP SWAP1 POP SWAP1 JUMP JUMPDEST PUSH1 0x60 DUP1 PUSH2 0x25CF PUSH2 0x2EBB JUMP JUMPDEST PUSH2 0x25D8 DUP5 PUSH2 0x28EE JUMP JUMPDEST PUSH2 0x2617 JUMPI PUSH1 0x40 MLOAD PUSH32 0x8C379A000000000000000000000000000000000000000000000000000000000 DUP2 MSTORE PUSH1 0x4 ADD PUSH2 0x260E SWAP1 PUSH2 0x364C JUMP JUMPDEST PUSH1 0x40 MLOAD DUP1 SWAP2 SUB SWAP1 REVERT JUMPDEST PUSH1 0x0 PUSH2 0x26F6 PUSH1 0x5 PUSH1 0x0 DUP8 DUP2 MSTORE PUSH1 0x20 ADD SWAP1 DUP2 MSTORE PUSH1 0x20 ADD PUSH1 0x0 KECCAK256 PUSH1 0x0 ADD DUP1 SLOAD PUSH2 0x263D SWAP1 PUSH2 0x3986 JUMP JUMPDEST DUP1 PUSH1 0x1F ADD PUSH1 0x20 DUP1 SWAP2 DIV MUL PUSH1 0x20 ADD PUSH1 0x40 MLOAD SWAP1 DUP2 ADD PUSH1 0x40 MSTORE DUP1 SWAP3 SWAP2 SWAP1 DUP2 DUP2 MSTORE PUSH1 0x20 ADD DUP3 DUP1 SLOAD PUSH2 0x2669 SWAP1 PUSH2 0x3986 JUMP JUMPDEST DUP1 ISZERO PUSH2 0x26B6 JUMPI DUP1 PUSH1 0x1F LT PUSH2 0x268B JUMPI PUSH2 0x100 DUP1 DUP4 SLOAD DIV MUL DUP4 MSTORE SWAP2 PUSH1 0x20 ADD SWAP2 PUSH2 0x26B6 JUMP JUMPDEST DUP3 ADD SWAP2 SWAP1 PUSH1 0x0 MSTORE PUSH1 0x20 PUSH1 0x0 KECCAK256 SWAP1 JUMPDEST DUP2 SLOAD DUP2 MSTORE SWAP1 PUSH1 0x1 ADD SWAP1 PUSH1 0x20 ADD DUP1 DUP4 GT PUSH2 0x2699 JUMPI DUP3 SWAP1 SUB PUSH1 0x1F AND DUP3 ADD SWAP2 JUMPDEST POP POP POP POP POP PUSH1 0x40 MLOAD DUP1 PUSH1 0x40 ADD PUSH1 0x40 MSTORE DUP1 PUSH1 0x4 DUP2 MSTORE PUSH1 0x20 ADD PUSH32 0x2076732000000000000000000000000000000000000000000000000000000000 DUP2 MSTORE POP PUSH2 0x291B JUMP JUMPDEST SWAP1 POP PUSH2 0x27A0 DUP2 PUSH1 0x5 PUSH1 0x0 DUP9 DUP2 MSTORE PUSH1 0x20 ADD SWAP1 DUP2 MSTORE PUSH1 0x20 ADD PUSH1 0x0 KECCAK256 PUSH1 0x1 ADD DUP1 SLOAD PUSH2 0x271D SWAP1 PUSH2 0x3986 JUMP JUMPDEST DUP1 PUSH1 0x1F ADD PUSH1 0x20 DUP1 SWAP2 DIV MUL PUSH1 0x20 ADD PUSH1 0x40 MLOAD SWAP1 DUP2 ADD PUSH1 0x40 MSTORE DUP1 SWAP3 SWAP2 SWAP1 DUP2 DUP2 MSTORE PUSH1 0x20 ADD DUP3 DUP1 SLOAD PUSH2 0x2749 SWAP1 PUSH2 0x3986 JUMP JUMPDEST DUP1 ISZERO PUSH2 0x2796 JUMPI DUP1 PUSH1 0x1F LT PUSH2 0x276B JUMPI PUSH2 0x100 DUP1 DUP4 SLOAD DIV MUL DUP4 MSTORE SWAP2 PUSH1 0x20 ADD SWAP2 PUSH2 0x2796 JUMP JUMPDEST DUP3 ADD SWAP2 SWAP1 PUSH1 0x0 MSTORE PUSH1 0x20 PUSH1 0x0 KECCAK256 SWAP1 JUMPDEST DUP2 SLOAD DUP2 MSTORE SWAP1 PUSH1 0x1 ADD SWAP1 PUSH1 0x20 ADD DUP1 DUP4 GT PUSH2 0x2779 JUMPI DUP3 SWAP1 SUB PUSH1 0x1F AND DUP3 ADD SWAP2 JUMPDEST POP POP POP POP POP PUSH2 0x291B JUMP JUMPDEST SWAP4 POP PUSH1 0x0 PUSH1 0x40 MLOAD DUP1 PUSH1 0xA0 ADD PUSH1 0x40 MSTORE DUP1 PUSH1 0x5 PUSH1 0x0 DUP10 DUP2 MSTORE PUSH1 0x20 ADD SWAP1 DUP2 MSTORE PUSH1 0x20 ADD PUSH1 0x0 KECCAK256 PUSH1 0x3 ADD SLOAD DUP2 MSTORE PUSH1 0x20 ADD PUSH1 0x5 PUSH1 0x0 DUP10 DUP2 MSTORE PUSH1 0x20 ADD SWAP1 DUP2 MSTORE PUSH1 0x20 ADD PUSH1 0x0 KECCAK256 PUSH1 0x4 ADD SLOAD DUP2 MSTORE PUSH1 0x20 ADD PUSH1 0x5 PUSH1 0x0 DUP10 DUP2 MSTORE PUSH1 0x20 ADD SWAP1 DUP2 MSTORE PUSH1 0x20 ADD PUSH1 0x0 KECCAK256 PUSH1 0x5 ADD SLOAD DUP2 MSTORE PUSH1 0x20 ADD PUSH1 0x5 PUSH1 0x0 DUP10 DUP2 MSTORE PUSH1 0x20 ADD SWAP1 DUP2 MSTORE PUSH1 0x20 ADD PUSH1 0x0 KECCAK256 PUSH1 0x6 ADD SLOAD DUP2 MSTORE PUSH1 0x20 ADD PUSH1 0x5 PUSH1 0x0 DUP10 DUP2 MSTORE PUSH1 0x20 ADD SWAP1 DUP2 MSTORE PUSH1 0x20 ADD PUSH1 0x0 KECCAK256 PUSH1 0x7 ADD SLOAD DUP2 MSTORE POP SWAP1 POP DUP5 PUSH1 0x5 PUSH1 0x0 DUP9 DUP2 MSTORE PUSH1 0x20 ADD SWAP1 DUP2 MSTORE PUSH1 0x20 ADD PUSH1 0x0 KECCAK256 PUSH1 0x2 ADD DUP3 DUP2 DUP1 SLOAD PUSH2 0x285F SWAP1 PUSH2 0x3986 JUMP JUMPDEST DUP1 PUSH1 0x1F ADD PUSH1 0x20 DUP1 SWAP2 DIV MUL PUSH1 0x20 ADD PUSH1 0x40 MLOAD SWAP1 DUP2 ADD PUSH1 0x40 MSTORE DUP1 SWAP3 SWAP2 SWAP1 DUP2 DUP2 MSTORE PUSH1 0x20 ADD DUP3 DUP1 SLOAD PUSH2 0x288B SWAP1 PUSH2 0x3986 JUMP JUMPDEST DUP1 ISZERO PUSH2 0x28D8 JUMPI DUP1 PUSH1 0x1F LT PUSH2 0x28AD JUMPI PUSH2 0x100 DUP1 DUP4 SLOAD DIV MUL DUP4 MSTORE SWAP2 PUSH1 0x20 ADD SWAP2 PUSH2 0x28D8 JUMP JUMPDEST DUP3 ADD SWAP2 SWAP1 PUSH1 0x0 MSTORE PUSH1 0x20 PUSH1 0x0 KECCAK256 SWAP1 JUMPDEST DUP2 SLOAD DUP2 MSTORE SWAP1 PUSH1 0x1 ADD SWAP1 PUSH1 0x20 ADD DUP1 DUP4 GT PUSH2 0x28BB JUMPI DUP3 SWAP1 SUB PUSH1 0x1F AND DUP3 ADD SWAP2 JUMPDEST POP POP POP POP POP SWAP2 POP SWAP5 POP SWAP5 POP SWAP5 POP POP POP SWAP2 SWAP4 SWAP1 SWAP3 POP JUMP JUMPDEST PUSH1 0x0 PUSH1 0x5 PUSH1 0x0 DUP4 DUP2 MSTORE PUSH1 0x20 ADD SWAP1 DUP2 MSTORE PUSH1 0x20 ADD PUSH1 0x0 KECCAK256 PUSH1 0x8 ADD PUSH1 0x1 SWAP1 SLOAD SWAP1 PUSH2 0x100 EXP SWAP1 DIV PUSH1 0xFF AND SWAP1 POP SWAP2 SWAP1 POP JUMP JUMPDEST PUSH1 0x60 PUSH1 0x0 DUP4 SWAP1 POP PUSH1 0x0 DUP4 SWAP1 POP PUSH1 0x0 DUP2 MLOAD DUP4 MLOAD PUSH2 0x2937 SWAP2 SWAP1 PUSH2 0x37DD JUMP JUMPDEST PUSH8 0xFFFFFFFFFFFFFFFF DUP2 GT ISZERO PUSH2 0x2950 JUMPI PUSH2 0x294F PUSH2 0x3B02 JUMP JUMPDEST JUMPDEST PUSH1 0x40 MLOAD SWAP1 DUP1 DUP3 MSTORE DUP1 PUSH1 0x1F ADD PUSH1 0x1F NOT AND PUSH1 0x20 ADD DUP3 ADD PUSH1 0x40 MSTORE DUP1 ISZERO PUSH2 0x2982 JUMPI DUP2 PUSH1 0x20 ADD PUSH1 0x1 DUP3 MUL DUP1 CALLDATASIZE DUP4 CALLDATACOPY DUP1 DUP3 ADD SWAP2 POP POP SWAP1 POP JUMPDEST POP SWAP1 POP PUSH1 0x0 DUP2 SWAP1 POP PUSH1 0x0 DUP1 JUMPDEST DUP6 MLOAD DUP2 LT ISZERO PUSH2 0x2A16 JUMPI DUP6 DUP2 DUP2 MLOAD DUP2 LT PUSH2 0x29AA JUMPI PUSH2 0x29A9 PUSH2 0x3AD3 JUMP JUMPDEST JUMPDEST PUSH1 0x20 ADD ADD MLOAD PUSH1 0xF8 SHR PUSH1 0xF8 SHL DUP4 DUP4 DUP1 PUSH2 0x29C1 SWAP1 PUSH2 0x39E9 JUMP JUMPDEST SWAP5 POP DUP2 MLOAD DUP2 LT PUSH2 0x29D4 JUMPI PUSH2 0x29D3 PUSH2 0x3AD3 JUMP JUMPDEST JUMPDEST PUSH1 0x20 ADD ADD SWAP1 PUSH31 0xFFFFFFFFFFFFFFFFFFFFFFFFFFFFFFFFFFFFFFFFFFFFFFFFFFFFFFFFFFFFFF NOT AND SWAP1 DUP2 PUSH1 0x0 BYTE SWAP1 MSTORE8 POP DUP1 DUP1 PUSH2 0x2A0E SWAP1 PUSH2 0x39E9 JUMP JUMPDEST SWAP2 POP POP PUSH2 0x298E JUMP JUMPDEST POP PUSH1 0x0 JUMPDEST DUP5 MLOAD DUP2 LT ISZERO PUSH2 0x2AA2 JUMPI DUP5 DUP2 DUP2 MLOAD DUP2 LT PUSH2 0x2A36 JUMPI PUSH2 0x2A35 PUSH2 0x3AD3 JUMP JUMPDEST JUMPDEST PUSH1 0x20 ADD ADD MLOAD PUSH1 0xF8 SHR PUSH1 0xF8 SHL DUP4 DUP4 DUP1 PUSH2 0x2A4D SWAP1 PUSH2 0x39E9 JUMP JUMPDEST SWAP5 POP DUP2 MLOAD DUP2 LT PUSH2 0x2A60 JUMPI PUSH2 0x2A5F PUSH2 0x3AD3 JUMP JUMPDEST JUMPDEST PUSH1 0x20 ADD ADD SWAP1 PUSH31 0xFFFFFFFFFFFFFFFFFFFFFFFFFFFFFFFFFFFFFFFFFFFFFFFFFFFFFFFFFFFFFF NOT AND SWAP1 DUP2 PUSH1 0x0 BYTE SWAP1 MSTORE8 POP DUP1 DUP1 PUSH2 0x2A9A SWAP1 PUSH2 0x39E9 JUMP JUMPDEST SWAP2 POP POP PUSH2 0x2A1A JUMP JUMPDEST POP DUP3 SWAP6 POP POP POP POP POP POP SWAP3 SWAP2 POP POP JUMP JUMPDEST PUSH1 0x0 DUP1 DUP4 EQ ISZERO PUSH2 0x2AC4 JUMPI PUSH1 0x0 SWAP1 POP PUSH2 0x2AF0 JUMP JUMPDEST PUSH1 0x0 DUP3 DUP5 PUSH2 0x2AD2 SWAP2 SWAP1 PUSH2 0x3864 JUMP JUMPDEST SWAP1 POP DUP3 DUP5 DUP3 PUSH2 0x2AE1 SWAP2 SWAP1 PUSH2 0x3833 JUMP JUMPDEST EQ PUSH2 0x2AEB JUMPI PUSH1 0x0 DUP1 REVERT JUMPDEST DUP1 SWAP2 POP POP JUMPDEST SWAP3 SWAP2 POP POP JUMP JUMPDEST PUSH1 0x60 PUSH2 0x2B20 DUP3 PUSH1 0x40 MLOAD PUSH1 0x20 ADD PUSH2 0x2B0C SWAP2 SWAP1 PUSH2 0x354B JUMP JUMPDEST PUSH1 0x40 MLOAD PUSH1 0x20 DUP2 DUP4 SUB SUB DUP2 MSTORE SWAP1 PUSH1 0x40 MSTORE PUSH2 0x2B58 JUMP JUMPDEST SWAP1 POP SWAP2 SWAP1 POP JUMP JUMPDEST PUSH1 0x60 PUSH2 0x2B51 DUP3 PUSH1 0x40 MLOAD PUSH1 0x20 ADD PUSH2 0x2B3D SWAP2 SWAP1 PUSH2 0x3519 JUMP JUMPDEST PUSH1 0x40 MLOAD PUSH1 0x20 DUP2 DUP4 SUB SUB DUP2 MSTORE SWAP1 PUSH1 0x40 MSTORE PUSH2 0x2B58 JUMP JUMPDEST SWAP1 POP SWAP2 SWAP1 POP JUMP JUMPDEST PUSH1 0x60 PUSH1 0x0 PUSH1 0x40 MLOAD DUP1 PUSH1 0x80 ADD PUSH1 0x40 MSTORE DUP1 PUSH1 0x42 DUP2 MSTORE PUSH1 0x20 ADD PUSH2 0x3CD2 PUSH1 0x42 SWAP2 CODECOPY SWAP1 POP PUSH1 0x0 PUSH1 0x2 DUP5 MLOAD PUSH2 0x2B87 SWAP2 SWAP1 PUSH2 0x3864 JUMP JUMPDEST PUSH1 0x2 PUSH2 0x2B93 SWAP2 SWAP1 PUSH2 0x37DD JUMP JUMPDEST PUSH8 0xFFFFFFFFFFFFFFFF DUP2 GT ISZERO PUSH2 0x2BAC JUMPI PUSH2 0x2BAB PUSH2 0x3B02 JUMP JUMPDEST JUMPDEST PUSH1 0x40 MLOAD SWAP1 DUP1 DUP3 MSTORE DUP1 PUSH1 0x1F ADD PUSH1 0x1F NOT AND PUSH1 0x20 ADD DUP3 ADD PUSH1 0x40 MSTORE DUP1 ISZERO PUSH2 0x2BDE JUMPI DUP2 PUSH1 0x20 ADD PUSH1 0x1 DUP3 MUL DUP1 CALLDATASIZE DUP4 CALLDATACOPY DUP1 DUP3 ADD SWAP2 POP POP SWAP1 POP JUMPDEST POP SWAP1 POP PUSH32 0x3000000000000000000000000000000000000000000000000000000000000000 DUP2 PUSH1 0x0 DUP2 MLOAD DUP2 LT PUSH2 0x2C16 JUMPI PUSH2 0x2C15 PUSH2 0x3AD3 JUMP JUMPDEST JUMPDEST PUSH1 0x20 ADD ADD SWAP1 PUSH31 0xFFFFFFFFFFFFFFFFFFFFFFFFFFFFFFFFFFFFFFFFFFFFFFFFFFFFFFFFFFFFFF NOT AND SWAP1 DUP2 PUSH1 0x0 BYTE SWAP1 MSTORE8 POP PUSH32 0x7800000000000000000000000000000000000000000000000000000000000000 DUP2 PUSH1 0x1 DUP2 MLOAD DUP2 LT PUSH2 0x2C7A JUMPI PUSH2 0x2C79 PUSH2 0x3AD3 JUMP JUMPDEST JUMPDEST PUSH1 0x20 ADD ADD SWAP1 PUSH31 0xFFFFFFFFFFFFFFFFFFFFFFFFFFFFFFFFFFFFFFFFFFFFFFFFFFFFFFFFFFFFFF NOT AND SWAP1 DUP2 PUSH1 0x0 BYTE SWAP1 MSTORE8 POP PUSH1 0x0 JUMPDEST DUP5 MLOAD DUP2 LT ISZERO PUSH2 0x2E2A JUMPI DUP3 PUSH1 0x4 DUP7 DUP4 DUP2 MLOAD DUP2 LT PUSH2 0x2CCB JUMPI PUSH2 0x2CCA PUSH2 0x3AD3 JUMP JUMPDEST JUMPDEST PUSH1 0x20 ADD ADD MLOAD PUSH1 0xF8 SHR PUSH1 0xF8 SHL PUSH31 0xFFFFFFFFFFFFFFFFFFFFFFFFFFFFFFFFFFFFFFFFFFFFFFFFFFFFFFFFFFFFFF NOT AND SWAP1 SHR PUSH1 0xF8 SHR PUSH1 0xFF AND DUP2 MLOAD DUP2 LT PUSH2 0x2D11 JUMPI PUSH2 0x2D10 PUSH2 0x3AD3 JUMP JUMPDEST JUMPDEST PUSH1 0x20 ADD ADD MLOAD PUSH1 0xF8 SHR PUSH1 0xF8 SHL DUP3 PUSH1 0x2 DUP4 PUSH2 0x2D2A SWAP2 SWAP1 PUSH2 0x3864 JUMP JUMPDEST PUSH1 0x2 PUSH2 0x2D36 SWAP2 SWAP1 PUSH2 0x37DD JUMP JUMPDEST DUP2 MLOAD DUP2 LT PUSH2 0x2D47 JUMPI PUSH2 0x2D46 PUSH2 0x3AD3 JUMP JUMPDEST JUMPDEST PUSH1 0x20 ADD ADD SWAP1 PUSH31 0xFFFFFFFFFFFFFFFFFFFFFFFFFFFFFFFFFFFFFFFFFFFFFFFFFFFFFFFFFFFFFF NOT AND SWAP1 DUP2 PUSH1 0x0 BYTE SWAP1 MSTORE8 POP DUP3 PUSH1 0xF PUSH1 0xF8 SHL DUP7 DUP4 DUP2 MLOAD DUP2 LT PUSH2 0x2D8F JUMPI PUSH2 0x2D8E PUSH2 0x3AD3 JUMP JUMPDEST JUMPDEST PUSH1 0x20 ADD ADD MLOAD PUSH1 0xF8 SHR PUSH1 0xF8 SHL AND PUSH1 0xF8 SHR PUSH1 0xFF AND DUP2 MLOAD DUP2 LT PUSH2 0x2DB2 JUMPI PUSH2 0x2DB1 PUSH2 0x3AD3 JUMP JUMPDEST JUMPDEST PUSH1 0x20 ADD ADD MLOAD PUSH1 0xF8 SHR PUSH1 0xF8 SHL DUP3 PUSH1 0x2 DUP4 PUSH2 0x2DCB SWAP2 SWAP1 PUSH2 0x3864 JUMP JUMPDEST PUSH1 0x3 PUSH2 0x2DD7 SWAP2 SWAP1 PUSH2 0x37DD JUMP JUMPDEST DUP2 MLOAD DUP2 LT PUSH2 0x2DE8 JUMPI PUSH2 0x2DE7 PUSH2 0x3AD3 JUMP JUMPDEST JUMPDEST PUSH1 0x20 ADD ADD SWAP1 PUSH31 0xFFFFFFFFFFFFFFFFFFFFFFFFFFFFFFFFFFFFFFFFFFFFFFFFFFFFFFFFFFFFFF NOT AND SWAP1 DUP2 PUSH1 0x0 BYTE SWAP1 MSTORE8 POP DUP1 DUP1 PUSH2 0x2E22 SWAP1 PUSH2 0x39E9 JUMP JUMPDEST SWAP2 POP POP PUSH2 0x2CAC JUMP JUMPDEST POP DUP1 SWAP3 POP POP POP SWAP2 SWAP1 POP JUMP JUMPDEST DUP3 DUP1 SLOAD PUSH2 0x2E41 SWAP1 PUSH2 0x3986 JUMP JUMPDEST SWAP1 PUSH1 0x0 MSTORE PUSH1 0x20 PUSH1 0x0 KECCAK256 SWAP1 PUSH1 0x1F ADD PUSH1 0x20 SWAP1 DIV DUP2 ADD SWAP3 DUP3 PUSH2 0x2E63 JUMPI PUSH1 0x0 DUP6 SSTORE PUSH2 0x2EAA JUMP JUMPDEST DUP3 PUSH1 0x1F LT PUSH2 0x2E7C JUMPI DUP1 MLOAD PUSH1 0xFF NOT AND DUP4 DUP1 ADD OR DUP6 SSTORE PUSH2 0x2EAA JUMP JUMPDEST DUP3 DUP1 ADD PUSH1 0x1 ADD DUP6 SSTORE DUP3 ISZERO PUSH2 0x2EAA JUMPI SWAP2 DUP3 ADD JUMPDEST DUP3 DUP2 GT ISZERO PUSH2 0x2EA9 JUMPI DUP3 MLOAD DUP3 SSTORE SWAP2 PUSH1 0x20 ADD SWAP2 SWAP1 PUSH1 0x1 ADD SWAP1 PUSH2 0x2E8E JUMP JUMPDEST JUMPDEST POP SWAP1 POP PUSH2 0x2EB7 SWAP2 SWAP1 PUSH2 0x2EEA JUMP JUMPDEST POP SWAP1 JUMP JUMPDEST PUSH1 0x40 MLOAD DUP1 PUSH1 0xA0 ADD PUSH1 0x40 MSTORE DUP1 PUSH1 0x0 DUP2 MSTORE PUSH1 0x20 ADD PUSH1 0x0 DUP2 MSTORE PUSH1 0x20 ADD PUSH1 0x0 DUP2 MSTORE PUSH1 0x20 ADD PUSH1 0x0 DUP2 MSTORE PUSH1 0x20 ADD PUSH1 0x0 DUP2 MSTORE POP SWAP1 JUMP JUMPDEST JUMPDEST DUP1 DUP3 GT ISZERO PUSH2 0x2F03 JUMPI PUSH1 0x0 DUP2 PUSH1 0x0 SWAP1 SSTORE POP PUSH1 0x1 ADD PUSH2 0x2EEB JUMP JUMPDEST POP SWAP1 JUMP JUMPDEST PUSH1 0x0 PUSH2 0x2F1A PUSH2 0x2F15 DUP5 PUSH2 0x374C JUMP JUMPDEST PUSH2 0x3727 JUMP JUMPDEST SWAP1 POP DUP3 DUP2 MSTORE PUSH1 0x20 DUP2 ADD DUP5 DUP5 DUP5 ADD GT ISZERO PUSH2 0x2F36 JUMPI PUSH2 0x2F35 PUSH2 0x3B36 JUMP JUMPDEST JUMPDEST PUSH2 0x2F41 DUP5 DUP3 DUP6 PUSH2 0x3944 JUMP JUMPDEST POP SWAP4 SWAP3 POP POP POP JUMP JUMPDEST PUSH1 0x0 DUP2 CALLDATALOAD SWAP1 POP PUSH2 0x2F58 DUP2 PUSH2 0x3C75 JUMP JUMPDEST SWAP3 SWAP2 POP POP JUMP JUMPDEST PUSH1 0x0 DUP2 CALLDATALOAD SWAP1 POP PUSH2 0x2F6D DUP2 PUSH2 0x3C8C JUMP JUMPDEST SWAP3 SWAP2 POP POP JUMP JUMPDEST PUSH1 0x0 DUP2 CALLDATALOAD SWAP1 POP PUSH2 0x2F82 DUP2 PUSH2 0x3CA3 JUMP JUMPDEST SWAP3 SWAP2 POP POP JUMP JUMPDEST PUSH1 0x0 DUP3 PUSH1 0x1F DUP4 ADD SLT PUSH2 0x2F9D JUMPI PUSH2 0x2F9C PUSH2 0x3B31 JUMP JUMPDEST JUMPDEST DUP2 CALLDATALOAD PUSH2 0x2FAD DUP5 DUP3 PUSH1 0x20 DUP7 ADD PUSH2 0x2F07 JUMP JUMPDEST SWAP2 POP POP SWAP3 SWAP2 POP POP JUMP JUMPDEST PUSH1 0x0 DUP2 CALLDATALOAD SWAP1 POP PUSH2 0x2FC5 DUP2 PUSH2 0x3CBA JUMP JUMPDEST SWAP3 SWAP2 POP POP JUMP JUMPDEST PUSH1 0x0 PUSH1 0x20 DUP3 DUP5 SUB SLT ISZERO PUSH2 0x2FE1 JUMPI PUSH2 0x2FE0 PUSH2 0x3B40 JUMP JUMPDEST JUMPDEST PUSH1 0x0 PUSH2 0x2FEF DUP5 DUP3 DUP6 ADD PUSH2 0x2F49 JUMP JUMPDEST SWAP2 POP POP SWAP3 SWAP2 POP POP JUMP JUMPDEST PUSH1 0x0 DUP1 PUSH1 0x40 DUP4 DUP6 SUB SLT ISZERO PUSH2 0x300F JUMPI PUSH2 0x300E PUSH2 0x3B40 JUMP JUMPDEST JUMPDEST PUSH1 0x0 PUSH2 0x301D DUP6 DUP3 DUP7 ADD PUSH2 0x2F49 JUMP JUMPDEST SWAP3 POP POP PUSH1 0x20 PUSH2 0x302E DUP6 DUP3 DUP7 ADD PUSH2 0x2F73 JUMP JUMPDEST SWAP2 POP POP SWAP3 POP SWAP3 SWAP1 POP JUMP JUMPDEST PUSH1 0x0 DUP1 PUSH1 0x40 DUP4 DUP6 SUB SLT ISZERO PUSH2 0x304F JUMPI PUSH2 0x304E PUSH2 0x3B40 JUMP JUMPDEST JUMPDEST PUSH1 0x0 PUSH2 0x305D DUP6 DUP3 DUP7 ADD PUSH2 0x2F49 JUMP JUMPDEST SWAP3 POP POP PUSH1 0x20 PUSH2 0x306E DUP6 DUP3 DUP7 ADD PUSH2 0x2FB6 JUMP JUMPDEST SWAP2 POP POP SWAP3 POP SWAP3 SWAP1 POP JUMP JUMPDEST PUSH1 0x0 DUP1 PUSH1 0x0 DUP1 PUSH1 0x0 DUP1 PUSH1 0xC0 DUP8 DUP10 SUB SLT ISZERO PUSH2 0x3095 JUMPI PUSH2 0x3094 PUSH2 0x3B40 JUMP JUMPDEST JUMPDEST PUSH1 0x0 PUSH2 0x30A3 DUP10 DUP3 DUP11 ADD PUSH2 0x2F49 JUMP JUMPDEST SWAP7 POP POP PUSH1 0x20 PUSH2 0x30B4 DUP10 DUP3 DUP11 ADD PUSH2 0x2FB6 JUMP JUMPDEST SWAP6 POP POP PUSH1 0x40 PUSH2 0x30C5 DUP10 DUP3 DUP11 ADD PUSH2 0x2F73 JUMP JUMPDEST SWAP5 POP POP PUSH1 0x60 PUSH2 0x30D6 DUP10 DUP3 DUP11 ADD PUSH2 0x2FB6 JUMP JUMPDEST SWAP4 POP POP PUSH1 0x80 PUSH2 0x30E7 DUP10 DUP3 DUP11 ADD PUSH2 0x2FB6 JUMP JUMPDEST SWAP3 POP POP PUSH1 0xA0 PUSH2 0x30F8 DUP10 DUP3 DUP11 ADD PUSH2 0x2FB6 JUMP JUMPDEST SWAP2 POP POP SWAP3 SWAP6 POP SWAP3 SWAP6 POP SWAP3 SWAP6 JUMP JUMPDEST PUSH1 0x0 PUSH1 0x20 DUP3 DUP5 SUB SLT ISZERO PUSH2 0x311B JUMPI PUSH2 0x311A PUSH2 0x3B40 JUMP JUMPDEST JUMPDEST PUSH1 0x0 PUSH2 0x3129 DUP5 DUP3 DUP6 ADD PUSH2 0x2F73 JUMP JUMPDEST SWAP2 POP POP SWAP3 SWAP2 POP POP JUMP JUMPDEST PUSH1 0x0 DUP1 PUSH1 0x0 DUP1 PUSH1 0x80 DUP6 DUP8 SUB SLT ISZERO PUSH2 0x314C JUMPI PUSH2 0x314B PUSH2 0x3B40 JUMP JUMPDEST JUMPDEST PUSH1 0x0 PUSH2 0x315A DUP8 DUP3 DUP9 ADD PUSH2 0x2F73 JUMP JUMPDEST SWAP5 POP POP PUSH1 0x20 PUSH2 0x316B DUP8 DUP3 DUP9 ADD PUSH2 0x2FB6 JUMP JUMPDEST SWAP4 POP POP PUSH1 0x40 PUSH2 0x317C DUP8 DUP3 DUP9 ADD PUSH2 0x2FB6 JUMP JUMPDEST SWAP3 POP POP PUSH1 0x60 PUSH2 0x318D DUP8 DUP3 DUP9 ADD PUSH2 0x2FB6 JUMP JUMPDEST SWAP2 POP POP SWAP3 SWAP6 SWAP2 SWAP5 POP SWAP3 POP JUMP JUMPDEST PUSH1 0x0 DUP1 PUSH1 0x0 DUP1 PUSH1 0x80 DUP6 DUP8 SUB SLT ISZERO PUSH2 0x31B3 JUMPI PUSH2 0x31B2 PUSH2 0x3B40 JUMP JUMPDEST JUMPDEST PUSH1 0x0 DUP6 ADD CALLDATALOAD PUSH8 0xFFFFFFFFFFFFFFFF DUP2 GT ISZERO PUSH2 0x31D1 JUMPI PUSH2 0x31D0 PUSH2 0x3B3B JUMP JUMPDEST JUMPDEST PUSH2 0x31DD DUP8 DUP3 DUP9 ADD PUSH2 0x2F88 JUMP JUMPDEST SWAP5 POP POP PUSH1 0x20 DUP6 ADD CALLDATALOAD PUSH8 0xFFFFFFFFFFFFFFFF DUP2 GT ISZERO PUSH2 0x31FE JUMPI PUSH2 0x31FD PUSH2 0x3B3B JUMP JUMPDEST JUMPDEST PUSH2 0x320A DUP8 DUP3 DUP9 ADD PUSH2 0x2F88 JUMP JUMPDEST SWAP4 POP POP PUSH1 0x40 DUP6 ADD CALLDATALOAD PUSH8 0xFFFFFFFFFFFFFFFF DUP2 GT ISZERO PUSH2 0x322B JUMPI PUSH2 0x322A PUSH2 0x3B3B JUMP JUMPDEST JUMPDEST PUSH2 0x3237 DUP8 DUP3 DUP9 ADD PUSH2 0x2F88 JUMP JUMPDEST SWAP3 POP POP PUSH1 0x60 PUSH2 0x3248 DUP8 DUP3 DUP9 ADD PUSH2 0x2F5E JUMP JUMPDEST SWAP2 POP POP SWAP3 SWAP6 SWAP2 SWAP5 POP SWAP3 POP JUMP JUMPDEST PUSH1 0x0 PUSH2 0x3260 DUP4 DUP4 PUSH2 0x32E8 JUMP JUMPDEST PUSH1 0x20 DUP4 ADD SWAP1 POP SWAP3 SWAP2 POP POP JUMP JUMPDEST PUSH2 0x3275 DUP2 PUSH2 0x38F2 JUMP JUMPDEST DUP3 MSTORE POP POP JUMP JUMPDEST PUSH1 0x0 PUSH2 0x3286 DUP3 PUSH2 0x378D JUMP JUMPDEST PUSH2 0x3290 DUP2 DUP6 PUSH2 0x37B0 JUMP JUMPDEST SWAP4 POP PUSH2 0x329B DUP4 PUSH2 0x377D JUMP JUMPDEST DUP1 PUSH1 0x0 JUMPDEST DUP4 DUP2 LT ISZERO PUSH2 0x32CC JUMPI DUP2 MLOAD PUSH2 0x32B3 DUP9 DUP3 PUSH2 0x3254 JUMP JUMPDEST SWAP8 POP PUSH2 0x32BE DUP4 PUSH2 0x37A3 JUMP JUMPDEST SWAP3 POP POP PUSH1 0x1 DUP2 ADD SWAP1 POP PUSH2 0x329F JUMP JUMPDEST POP DUP6 SWAP4 POP POP POP POP SWAP3 SWAP2 POP POP JUMP JUMPDEST PUSH2 0x32E2 DUP2 PUSH2 0x3904 JUMP JUMPDEST DUP3 MSTORE POP POP JUMP JUMPDEST PUSH2 0x32F1 DUP2 PUSH2 0x3910 JUMP JUMPDEST DUP3 MSTORE POP POP JUMP JUMPDEST PUSH2 0x3300 DUP2 PUSH2 0x3910 JUMP JUMPDEST DUP3 MSTORE POP POP JUMP JUMPDEST PUSH2 0x3317 PUSH2 0x3312 DUP3 PUSH2 0x3910 JUMP JUMPDEST PUSH2 0x3A32 JUMP JUMPDEST DUP3 MSTORE POP POP JUMP JUMPDEST PUSH1 0x0 PUSH2 0x3328 DUP3 PUSH2 0x3798 JUMP JUMPDEST PUSH2 0x3332 DUP2 DUP6 PUSH2 0x37C1 JUMP JUMPDEST SWAP4 POP PUSH2 0x3342 DUP2 DUP6 PUSH1 0x20 DUP7 ADD PUSH2 0x3953 JUMP JUMPDEST PUSH2 0x334B DUP2 PUSH2 0x3B45 JUMP JUMPDEST DUP5 ADD SWAP2 POP POP SWAP3 SWAP2 POP POP JUMP JUMPDEST PUSH1 0x0 PUSH2 0x3361 DUP3 PUSH2 0x3798 JUMP JUMPDEST PUSH2 0x336B DUP2 DUP6 PUSH2 0x37D2 JUMP JUMPDEST SWAP4 POP PUSH2 0x337B DUP2 DUP6 PUSH1 0x20 DUP7 ADD PUSH2 0x3953 JUMP JUMPDEST DUP1 DUP5 ADD SWAP2 POP POP SWAP3 SWAP2 POP POP JUMP JUMPDEST PUSH1 0x0 PUSH2 0x3394 PUSH1 0x19 DUP4 PUSH2 0x37C1 JUMP JUMPDEST SWAP2 POP PUSH2 0x339F DUP3 PUSH2 0x3B56 JUMP JUMPDEST PUSH1 0x20 DUP3 ADD SWAP1 POP SWAP2 SWAP1 POP JUMP JUMPDEST PUSH1 0x0 PUSH2 0x33B7 PUSH1 0x9 DUP4 PUSH2 0x37C1 JUMP JUMPDEST SWAP2 POP PUSH2 0x33C2 DUP3 PUSH2 0x3B7F JUMP JUMPDEST PUSH1 0x20 DUP3 ADD SWAP1 POP SWAP2 SWAP1 POP JUMP JUMPDEST PUSH1 0x0 PUSH2 0x33DA PUSH1 0xE DUP4 PUSH2 0x37C1 JUMP JUMPDEST SWAP2 POP PUSH2 0x33E5 DUP3 PUSH2 0x3BA8 JUMP JUMPDEST PUSH1 0x20 DUP3 ADD SWAP1 POP SWAP2 SWAP1 POP JUMP JUMPDEST PUSH1 0x0 PUSH2 0x33FD PUSH1 0xA DUP4 PUSH2 0x37C1 JUMP JUMPDEST SWAP2 POP PUSH2 0x3408 DUP3 PUSH2 0x3BD1 JUMP JUMPDEST PUSH1 0x20 DUP3 ADD SWAP1 POP SWAP2 SWAP1 POP JUMP JUMPDEST PUSH1 0x0 PUSH2 0x3420 PUSH1 0x15 DUP4 PUSH2 0x37C1 JUMP JUMPDEST SWAP2 POP PUSH2 0x342B DUP3 PUSH2 0x3BFA JUMP JUMPDEST PUSH1 0x20 DUP3 ADD SWAP1 POP SWAP2 SWAP1 POP JUMP JUMPDEST PUSH1 0x0 PUSH2 0x3443 PUSH1 0x15 DUP4 PUSH2 0x37C1 JUMP JUMPDEST SWAP2 POP PUSH2 0x344E DUP3 PUSH2 0x3C23 JUMP JUMPDEST PUSH1 0x20 DUP3 ADD SWAP1 POP SWAP2 SWAP1 POP JUMP JUMPDEST PUSH1 0x0 PUSH2 0x3466 PUSH1 0x11 DUP4 PUSH2 0x37C1 JUMP JUMPDEST SWAP2 POP PUSH2 0x3471 DUP3 PUSH2 0x3C4C JUMP JUMPDEST PUSH1 0x20 DUP3 ADD SWAP1 POP SWAP2 SWAP1 POP JUMP JUMPDEST PUSH1 0xA0 DUP3 ADD PUSH1 0x0 DUP3 ADD MLOAD PUSH2 0x3492 PUSH1 0x0 DUP6 ADD DUP3 PUSH2 0x34E4 JUMP JUMPDEST POP PUSH1 0x20 DUP3 ADD MLOAD PUSH2 0x34A5 PUSH1 0x20 DUP6 ADD DUP3 PUSH2 0x34E4 JUMP JUMPDEST POP PUSH1 0x40 DUP3 ADD MLOAD PUSH2 0x34B8 PUSH1 0x40 DUP6 ADD DUP3 PUSH2 0x34E4 JUMP JUMPDEST POP PUSH1 0x60 DUP3 ADD MLOAD PUSH2 0x34CB PUSH1 0x60 DUP6 ADD DUP3 PUSH2 0x34E4 JUMP JUMPDEST POP PUSH1 0x80 DUP3 ADD MLOAD PUSH2 0x34DE PUSH1 0x80 DUP6 ADD DUP3 PUSH2 0x34E4 JUMP JUMPDEST POP POP POP POP JUMP JUMPDEST PUSH2 0x34ED DUP2 PUSH2 0x393A JUMP JUMPDEST DUP3 MSTORE POP POP JUMP JUMPDEST PUSH2 0x34FC DUP2 PUSH2 0x393A JUMP JUMPDEST DUP3 MSTORE POP POP JUMP JUMPDEST PUSH2 0x3513 PUSH2 0x350E DUP3 PUSH2 0x393A JUMP JUMPDEST PUSH2 0x3A3C JUMP JUMPDEST DUP3 MSTORE POP POP JUMP JUMPDEST PUSH1 0x0 PUSH2 0x3525 DUP3 DUP5 PUSH2 0x3306 JUMP JUMPDEST PUSH1 0x20 DUP3 ADD SWAP2 POP DUP2 SWAP1 POP SWAP3 SWAP2 POP POP JUMP JUMPDEST PUSH1 0x0 PUSH2 0x3540 DUP3 DUP5 PUSH2 0x3356 JUMP JUMPDEST SWAP2 POP DUP2 SWAP1 POP SWAP3 SWAP2 POP POP JUMP JUMPDEST PUSH1 0x0 PUSH2 0x3557 DUP3 DUP5 PUSH2 0x3502 JUMP JUMPDEST PUSH1 0x20 DUP3 ADD SWAP2 POP DUP2 SWAP1 POP SWAP3 SWAP2 POP POP JUMP JUMPDEST PUSH1 0x0 PUSH1 0x40 DUP3 ADD SWAP1 POP PUSH2 0x357B PUSH1 0x0 DUP4 ADD DUP6 PUSH2 0x326C JUMP JUMPDEST PUSH2 0x3588 PUSH1 0x20 DUP4 ADD DUP5 PUSH2 0x34F3 JUMP JUMPDEST SWAP4 SWAP3 POP POP POP JUMP JUMPDEST PUSH1 0x0 PUSH1 0x20 DUP3 ADD SWAP1 POP DUP2 DUP2 SUB PUSH1 0x0 DUP4 ADD MSTORE PUSH2 0x35A9 DUP2 DUP5 PUSH2 0x327B JUMP JUMPDEST SWAP1 POP SWAP3 SWAP2 POP POP JUMP JUMPDEST PUSH1 0x0 PUSH1 0x20 DUP3 ADD SWAP1 POP PUSH2 0x35C6 PUSH1 0x0 DUP4 ADD DUP5 PUSH2 0x32D9 JUMP JUMPDEST SWAP3 SWAP2 POP POP JUMP JUMPDEST PUSH1 0x0 PUSH1 0x20 DUP3 ADD SWAP1 POP PUSH2 0x35E1 PUSH1 0x0 DUP4 ADD DUP5 PUSH2 0x32F7 JUMP JUMPDEST SWAP3 SWAP2 POP POP JUMP JUMPDEST PUSH1 0x0 PUSH1 0xE0 DUP3 ADD SWAP1 POP DUP2 DUP2 SUB PUSH1 0x0 DUP4 ADD MSTORE PUSH2 0x3601 DUP2 DUP7 PUSH2 0x331D JUMP JUMPDEST SWAP1 POP DUP2 DUP2 SUB PUSH1 0x20 DUP4 ADD MSTORE PUSH2 0x3615 DUP2 DUP6 PUSH2 0x331D JUMP JUMPDEST SWAP1 POP PUSH2 0x3624 PUSH1 0x40 DUP4 ADD DUP5 PUSH2 0x347C JUMP JUMPDEST SWAP5 SWAP4 POP POP POP POP JUMP JUMPDEST PUSH1 0x0 PUSH1 0x20 DUP3 ADD SWAP1 POP DUP2 DUP2 SUB PUSH1 0x0 DUP4 ADD MSTORE PUSH2 0x3645 DUP2 PUSH2 0x3387 JUMP JUMPDEST SWAP1 POP SWAP2 SWAP1 POP JUMP JUMPDEST PUSH1 0x0 PUSH1 0x20 DUP3 ADD SWAP1 POP DUP2 DUP2 SUB PUSH1 0x0 DUP4 ADD MSTORE PUSH2 0x3665 DUP2 PUSH2 0x33AA JUMP JUMPDEST SWAP1 POP SWAP2 SWAP1 POP JUMP JUMPDEST PUSH1 0x0 PUSH1 0x20 DUP3 ADD SWAP1 POP DUP2 DUP2 SUB PUSH1 0x0 DUP4 ADD MSTORE PUSH2 0x3685 DUP2 PUSH2 0x33CD JUMP JUMPDEST SWAP1 POP SWAP2 SWAP1 POP JUMP JUMPDEST PUSH1 0x0 PUSH1 0x20 DUP3 ADD SWAP1 POP DUP2 DUP2 SUB PUSH1 0x0 DUP4 ADD MSTORE PUSH2 0x36A5 DUP2 PUSH2 0x33F0 JUMP JUMPDEST SWAP1 POP SWAP2 SWAP1 POP JUMP JUMPDEST PUSH1 0x0 PUSH1 0x20 DUP3 ADD SWAP1 POP DUP2 DUP2 SUB PUSH1 0x0 DUP4 ADD MSTORE PUSH2 0x36C5 DUP2 PUSH2 0x3413 JUMP JUMPDEST SWAP1 POP SWAP2 SWAP1 POP JUMP JUMPDEST PUSH1 0x0 PUSH1 0x20 DUP3 ADD SWAP1 POP DUP2 DUP2 SUB PUSH1 0x0 DUP4 ADD MSTORE PUSH2 0x36E5 DUP2 PUSH2 0x3436 JUMP JUMPDEST SWAP1 POP SWAP2 SWAP1 POP JUMP JUMPDEST PUSH1 0x0 PUSH1 0x20 DUP3 ADD SWAP1 POP DUP2 DUP2 SUB PUSH1 0x0 DUP4 ADD MSTORE PUSH2 0x3705 DUP2 PUSH2 0x3459 JUMP JUMPDEST SWAP1 POP SWAP2 SWAP1 POP JUMP JUMPDEST PUSH1 0x0 PUSH1 0x20 DUP3 ADD SWAP1 POP PUSH2 0x3721 PUSH1 0x0 DUP4 ADD DUP5 PUSH2 0x34F3 JUMP JUMPDEST SWAP3 SWAP2 POP POP JUMP JUMPDEST PUSH1 0x0 PUSH2 0x3731 PUSH2 0x3742 JUMP JUMPDEST SWAP1 POP PUSH2 0x373D DUP3 DUP3 PUSH2 0x39B8 JUMP JUMPDEST SWAP2 SWAP1 POP JUMP JUMPDEST PUSH1 0x0 PUSH1 0x40 MLOAD SWAP1 POP SWAP1 JUMP JUMPDEST PUSH1 0x0 PUSH8 0xFFFFFFFFFFFFFFFF DUP3 GT ISZERO PUSH2 0x3767 JUMPI PUSH2 0x3766 PUSH2 0x3B02 JUMP JUMPDEST JUMPDEST PUSH2 0x3770 DUP3 PUSH2 0x3B45 JUMP JUMPDEST SWAP1 POP PUSH1 0x20 DUP2 ADD SWAP1 POP SWAP2 SWAP1 POP JUMP JUMPDEST PUSH1 0x0 DUP2 SWAP1 POP PUSH1 0x20 DUP3 ADD SWAP1 POP SWAP2 SWAP1 POP JUMP JUMPDEST PUSH1 0x0 DUP2 MLOAD SWAP1 POP SWAP2 SWAP1 POP JUMP JUMPDEST PUSH1 0x0 DUP2 MLOAD SWAP1 POP SWAP2 SWAP1 POP JUMP JUMPDEST PUSH1 0x0 PUSH1 0x20 DUP3 ADD SWAP1 POP SWAP2 SWAP1 POP JUMP JUMPDEST PUSH1 0x0 DUP3 DUP3 MSTORE PUSH1 0x20 DUP3 ADD SWAP1 POP SWAP3 SWAP2 POP POP JUMP JUMPDEST PUSH1 0x0 DUP3 DUP3 MSTORE PUSH1 0x20 DUP3 ADD SWAP1 POP SWAP3 SWAP2 POP POP JUMP JUMPDEST PUSH1 0x0 DUP2 SWAP1 POP SWAP3 SWAP2 POP POP JUMP JUMPDEST PUSH1 0x0 PUSH2 0x37E8 DUP3 PUSH2 0x393A JUMP JUMPDEST SWAP2 POP PUSH2 0x37F3 DUP4 PUSH2 0x393A JUMP JUMPDEST SWAP3 POP DUP3 PUSH32 0xFFFFFFFFFFFFFFFFFFFFFFFFFFFFFFFFFFFFFFFFFFFFFFFFFFFFFFFFFFFFFFFF SUB DUP3 GT ISZERO PUSH2 0x3828 JUMPI PUSH2 0x3827 PUSH2 0x3A46 JUMP JUMPDEST JUMPDEST DUP3 DUP3 ADD SWAP1 POP SWAP3 SWAP2 POP POP JUMP JUMPDEST PUSH1 0x0 PUSH2 0x383E DUP3 PUSH2 0x393A JUMP JUMPDEST SWAP2 POP PUSH2 0x3849 DUP4 PUSH2 0x393A JUMP JUMPDEST SWAP3 POP DUP3 PUSH2 0x3859 JUMPI PUSH2 0x3858 PUSH2 0x3A75 JUMP JUMPDEST JUMPDEST DUP3 DUP3 DIV SWAP1 POP SWAP3 SWAP2 POP POP JUMP JUMPDEST PUSH1 0x0 PUSH2 0x386F DUP3 PUSH2 0x393A JUMP JUMPDEST SWAP2 POP PUSH2 0x387A DUP4 PUSH2 0x393A JUMP JUMPDEST SWAP3 POP DUP2 PUSH32 0xFFFFFFFFFFFFFFFFFFFFFFFFFFFFFFFFFFFFFFFFFFFFFFFFFFFFFFFFFFFFFFFF DIV DUP4 GT DUP3 ISZERO ISZERO AND ISZERO PUSH2 0x38B3 JUMPI PUSH2 0x38B2 PUSH2 0x3A46 JUMP JUMPDEST JUMPDEST DUP3 DUP3 MUL SWAP1 POP SWAP3 SWAP2 POP POP JUMP JUMPDEST PUSH1 0x0 PUSH2 0x38C9 DUP3 PUSH2 0x393A JUMP JUMPDEST SWAP2 POP PUSH2 0x38D4 DUP4 PUSH2 0x393A JUMP JUMPDEST SWAP3 POP DUP3 DUP3 LT ISZERO PUSH2 0x38E7 JUMPI PUSH2 0x38E6 PUSH2 0x3A46 JUMP JUMPDEST JUMPDEST DUP3 DUP3 SUB SWAP1 POP SWAP3 SWAP2 POP POP JUMP JUMPDEST PUSH1 0x0 PUSH2 0x38FD DUP3 PUSH2 0x391A JUMP JUMPDEST SWAP1 POP SWAP2 SWAP1 POP JUMP JUMPDEST PUSH1 0x0 DUP2 ISZERO ISZERO SWAP1 POP SWAP2 SWAP1 POP JUMP JUMPDEST PUSH1 0x0 DUP2 SWAP1 POP SWAP2 SWAP1 POP JUMP JUMPDEST PUSH1 0x0 PUSH20 0xFFFFFFFFFFFFFFFFFFFFFFFFFFFFFFFFFFFFFFFF DUP3 AND SWAP1 POP SWAP2 SWAP1 POP JUMP JUMPDEST PUSH1 0x0 DUP2 SWAP1 POP SWAP2 SWAP1 POP JUMP JUMPDEST DUP3 DUP2 DUP4 CALLDATACOPY PUSH1 0x0 DUP4 DUP4 ADD MSTORE POP POP POP JUMP JUMPDEST PUSH1 0x0 JUMPDEST DUP4 DUP2 LT ISZERO PUSH2 0x3971 JUMPI DUP1 DUP3 ADD MLOAD DUP2 DUP5 ADD MSTORE PUSH1 0x20 DUP2 ADD SWAP1 POP PUSH2 0x3956 JUMP JUMPDEST DUP4 DUP2 GT ISZERO PUSH2 0x3980 JUMPI PUSH1 0x0 DUP5 DUP5 ADD MSTORE JUMPDEST POP POP POP POP JUMP JUMPDEST PUSH1 0x0 PUSH1 0x2 DUP3 DIV SWAP1 POP PUSH1 0x1 DUP3 AND DUP1 PUSH2 0x399E JUMPI PUSH1 0x7F DUP3 AND SWAP2 POP JUMPDEST PUSH1 0x20 DUP3 LT DUP2 EQ ISZERO PUSH2 0x39B2 JUMPI PUSH2 0x39B1 PUSH2 0x3AA4 JUMP JUMPDEST JUMPDEST POP SWAP2 SWAP1 POP JUMP JUMPDEST PUSH2 0x39C1 DUP3 PUSH2 0x3B45 JUMP JUMPDEST DUP2 ADD DUP2 DUP2 LT PUSH8 0xFFFFFFFFFFFFFFFF DUP3 GT OR ISZERO PUSH2 0x39E0 JUMPI PUSH2 0x39DF PUSH2 0x3B02 JUMP JUMPDEST JUMPDEST DUP1 PUSH1 0x40 MSTORE POP POP POP JUMP JUMPDEST PUSH1 0x0 PUSH2 0x39F4 DUP3 PUSH2 0x393A JUMP JUMPDEST SWAP2 POP PUSH32 0xFFFFFFFFFFFFFFFFFFFFFFFFFFFFFFFFFFFFFFFFFFFFFFFFFFFFFFFFFFFFFFFF DUP3 EQ ISZERO PUSH2 0x3A27 JUMPI PUSH2 0x3A26 PUSH2 0x3A46 JUMP JUMPDEST JUMPDEST PUSH1 0x1 DUP3 ADD SWAP1 POP SWAP2 SWAP1 POP JUMP JUMPDEST PUSH1 0x0 DUP2 SWAP1 POP SWAP2 SWAP1 POP JUMP JUMPDEST PUSH1 0x0 DUP2 SWAP1 POP SWAP2 SWAP1 POP JUMP JUMPDEST PUSH32 0x4E487B7100000000000000000000000000000000000000000000000000000000 PUSH1 0x0 MSTORE PUSH1 0x11 PUSH1 0x4 MSTORE PUSH1 0x24 PUSH1 0x0 REVERT JUMPDEST PUSH32 0x4E487B7100000000000000000000000000000000000000000000000000000000 PUSH1 0x0 MSTORE PUSH1 0x12 PUSH1 0x4 MSTORE PUSH1 0x24 PUSH1 0x0 REVERT JUMPDEST PUSH32 0x4E487B7100000000000000000000000000000000000000000000000000000000 PUSH1 0x0 MSTORE PUSH1 0x22 PUSH1 0x4 MSTORE PUSH1 0x24 PUSH1 0x0 REVERT JUMPDEST PUSH32 0x4E487B7100000000000000000000000000000000000000000000000000000000 PUSH1 0x0 MSTORE PUSH1 0x32 PUSH1 0x4 MSTORE PUSH1 0x24 PUSH1 0x0 REVERT JUMPDEST PUSH32 0x4E487B7100000000000000000000000000000000000000000000000000000000 PUSH1 0x0 MSTORE PUSH1 0x41 PUSH1 0x4 MSTORE PUSH1 0x24 PUSH1 0x0 REVERT JUMPDEST PUSH1 0x0 DUP1 REVERT JUMPDEST PUSH1 0x0 DUP1 REVERT JUMPDEST PUSH1 0x0 DUP1 REVERT JUMPDEST PUSH1 0x0 DUP1 REVERT JUMPDEST PUSH1 0x0 PUSH1 0x1F NOT PUSH1 0x1F DUP4 ADD AND SWAP1 POP SWAP2 SWAP1 POP JUMP JUMPDEST PUSH32 0x4F6E6C79206F776E65722063616E2063616C6C20746869732E00000000000000 PUSH1 0x0 DUP3 ADD MSTORE POP JUMP JUMPDEST PUSH32 0x6E6F742065786973740000000000000000000000000000000000000000000000 PUSH1 0x0 DUP3 ADD MSTORE POP JUMP JUMPDEST PUSH32 0x706F6F6C206E6F74206578697374000000000000000000000000000000000000 PUSH1 0x0 DUP3 ADD MSTORE POP JUMP JUMPDEST PUSH32 0x7061697220657869737400000000000000000000000000000000000000000000 PUSH1 0x0 DUP3 ADD MSTORE POP JUMP JUMPDEST PUSH32 0x706F6F6C20686173206E6F742066696E69736865640000000000000000000000 PUSH1 0x0 DUP3 ADD MSTORE POP JUMP JUMPDEST PUSH32 0x6E6F7420656E6F75676820766F7465416D6F756E740000000000000000000000 PUSH1 0x0 DUP3 ADD MSTORE POP JUMP JUMPDEST PUSH32 0x706F6F6C206861732066696E6973686564000000000000000000000000000000 PUSH1 0x0 DUP3 ADD MSTORE POP JUMP JUMPDEST PUSH2 0x3C7E DUP2 PUSH2 0x38F2 JUMP JUMPDEST DUP2 EQ PUSH2 0x3C89 JUMPI PUSH1 0x0 DUP1 REVERT JUMPDEST POP JUMP JUMPDEST PUSH2 0x3C95 DUP2 PUSH2 0x3904 JUMP JUMPDEST DUP2 EQ PUSH2 0x3CA0 JUMPI PUSH1 0x0 DUP1 REVERT JUMPDEST POP JUMP JUMPDEST PUSH2 0x3CAC DUP2 PUSH2 0x3910 JUMP JUMPDEST DUP2 EQ PUSH2 0x3CB7 JUMPI PUSH1 0x0 DUP1 REVERT JUMPDEST POP JUMP JUMPDEST PUSH2 0x3CC3 DUP2 PUSH2 0x393A JUMP JUMPDEST DUP2 EQ PUSH2 0x3CCE JUMPI PUSH1 0x0 DUP1 REVERT JUMPDEST POP JUMP INVALID ADDRESS PUSH25 0x65643633346465613034346665393266366438633936313263 CALLER CODESIZE CALLVALUE CALLVALUE PUSH4 0x34393531 ADDRESS CALLDATALOAD CALLVALUE PUSH4 0x35343137 PUSH2 0x3865 CALLER CALLDATALOAD PUSH4 0x38343237 ORIGIN ADDRESS PUSH4 0x32323633 CALLER PUSH2 0x3034 PUSH5 0xA264697066 PUSH20 0x582212209CA632D7FA5F448A46C66D9B863BA71A LT CHAINID BALANCE 0xBF PUSH12 0xA97CF327D222E899B7F29F64 PUSH20 0x6F6C634300080700330000000000000000000000 "
				},
				"gasEstimates": {
					"creation": {
						"codeDepositCost": "3137800",
						"executionCost": "infinite",
						"totalCost": "infinite"
					},
					"external": {
						"Award(bytes32,uint256,uint256,uint256)": "infinite",
						"CheckBasal()": "4696",
						"CheckExpect(bytes32)": "infinite",
						"CheckVoteTickets()": "2592",
						"Picking(address,uint256,bytes32,uint256,uint256,uint256)": "infinite",
						"Set_Pool(string,string,string,bool)": "infinite",
						"Withdrawal(address,bytes32)": "infinite",
						"getAllPoolKeys()": "infinite",
						"getLastBNB()": "4608",
						"getPool(bytes32)": "infinite",
						"voteWithdrawal(address,uint256)": "infinite",
						"withdrawBNBInContract(address)": "infinite"
					},
					"internal": {
						"addressToString(address)": "infinite",
						"bytes32ToString(bytes32)": "infinite",
						"contains(bytes32)": "2304",
						"strConcat(string memory,string memory)": "infinite",
						"stringCompare(string memory,string memory)": "infinite",
						"toString(bytes memory)": "infinite",
						"uint256ToString(uint256)": "infinite"
					}
				},
				"methodIdentifiers": {
					"Award(bytes32,uint256,uint256,uint256)": "74fe9bc2",
					"CheckBasal()": "3e6ff1a2",
					"CheckExpect(bytes32)": "4121855f",
					"CheckVoteTickets()": "baf41269",
					"Picking(address,uint256,bytes32,uint256,uint256,uint256)": "47e4dd27",
					"Set_Pool(string,string,string,bool)": "357965ba",
					"Withdrawal(address,bytes32)": "0ce49053",
					"getAllPoolKeys()": "ea8870c0",
					"getLastBNB()": "0c66b373",
					"getPool(bytes32)": "f6c00927",
					"voteWithdrawal(address,uint256)": "9bd0abf1",
					"withdrawBNBInContract(address)": "2775e02c"
				}
			},
			"storageLayout": {
				"storage": [
					{
						"astId": 198,
						"contract": "wwcc-contracts/contracts/wwccPool.sol:WCPOOL",
						"label": "owner",
						"offset": 0,
						"slot": "0",
						"type": "t_address"
					},
					{
						"astId": 200,
						"contract": "wwcc-contracts/contracts/wwccPool.sol:WCPOOL",
						"label": "nextBasalLast",
						"offset": 0,
						"slot": "1",
						"type": "t_uint256"
					},
					{
						"astId": 203,
						"contract": "wwcc-contracts/contracts/wwccPool.sol:WCPOOL",
						"label": "poolKeys",
						"offset": 0,
						"slot": "2",
						"type": "t_array(t_bytes32)dyn_storage"
					},
					{
						"astId": 205,
						"contract": "wwcc-contracts/contracts/wwccPool.sol:WCPOOL",
						"label": "lastBNB",
						"offset": 0,
						"slot": "3",
						"type": "t_uint256"
					},
					{
						"astId": 209,
						"contract": "wwcc-contracts/contracts/wwccPool.sol:WCPOOL",
						"label": "voteAmount",
						"offset": 0,
						"slot": "4",
						"type": "t_mapping(t_address,t_uint256)"
					},
					{
						"astId": 214,
						"contract": "wwcc-contracts/contracts/wwccPool.sol:WCPOOL",
						"label": "WcPools",
						"offset": 0,
						"slot": "5",
						"type": "t_mapping(t_bytes32,t_struct(WcPool)153_storage)"
					},
					{
						"astId": 219,
						"contract": "wwcc-contracts/contracts/wwccPool.sol:WCPOOL",
						"label": "allScorePoolInfo",
						"offset": 0,
						"slot": "6",
						"type": "t_mapping(t_bytes32,t_struct(AllScorePool)171_storage)"
					},
					{
						"astId": 223,
						"contract": "wwcc-contracts/contracts/wwccPool.sol:WCPOOL",
						"label": "singleScorePool",
						"offset": 0,
						"slot": "7",
						"type": "t_mapping(t_string_memory_ptr,t_uint256)"
					},
					{
						"astId": 228,
						"contract": "wwcc-contracts/contracts/wwccPool.sol:WCPOOL",
						"label": "joinerAllPicking",
						"offset": 0,
						"slot": "8",
						"type": "t_mapping(t_address,t_struct(JoinerAllPicking)178_storage)"
					}
				],
				"types": {
					"t_address": {
						"encoding": "inplace",
						"label": "address",
						"numberOfBytes": "20"
					},
					"t_array(t_bytes32)dyn_storage": {
						"base": "t_bytes32",
						"encoding": "dynamic_array",
						"label": "bytes32[]",
						"numberOfBytes": "32"
					},
					"t_array(t_struct(JoinerPicking)193_storage)dyn_storage": {
						"base": "t_struct(JoinerPicking)193_storage",
						"encoding": "dynamic_array",
						"label": "struct WCPOOL.JoinerPicking[]",
						"numberOfBytes": "32"
					},
					"t_bool": {
						"encoding": "inplace",
						"label": "bool",
						"numberOfBytes": "1"
					},
					"t_bytes32": {
						"encoding": "inplace",
						"label": "bytes32",
						"numberOfBytes": "32"
					},
					"t_mapping(t_address,t_struct(JoinerAllPicking)178_storage)": {
						"encoding": "mapping",
						"key": "t_address",
						"label": "mapping(address => struct WCPOOL.JoinerAllPicking)",
						"numberOfBytes": "32",
						"value": "t_struct(JoinerAllPicking)178_storage"
					},
					"t_mapping(t_address,t_uint256)": {
						"encoding": "mapping",
						"key": "t_address",
						"label": "mapping(address => uint256)",
						"numberOfBytes": "32",
						"value": "t_uint256"
					},
					"t_mapping(t_bytes32,t_struct(AllScorePool)171_storage)": {
						"encoding": "mapping",
						"key": "t_bytes32",
						"label": "mapping(bytes32 => struct WCPOOL.AllScorePool)",
						"numberOfBytes": "32",
						"value": "t_struct(AllScorePool)171_storage"
					},
					"t_mapping(t_bytes32,t_struct(WcPool)153_storage)": {
						"encoding": "mapping",
						"key": "t_bytes32",
						"label": "mapping(bytes32 => struct WCPOOL.WcPool)",
						"numberOfBytes": "32",
						"value": "t_struct(WcPool)153_storage"
					},
					"t_mapping(t_string_memory_ptr,t_uint256)": {
						"encoding": "mapping",
						"key": "t_string_memory_ptr",
						"label": "mapping(string => uint256)",
						"numberOfBytes": "32",
						"value": "t_uint256"
					},
					"t_string_memory_ptr": {
						"encoding": "bytes",
						"label": "string",
						"numberOfBytes": "32"
					},
					"t_string_storage": {
						"encoding": "bytes",
						"label": "string",
						"numberOfBytes": "32"
					},
					"t_struct(AllScorePool)171_storage": {
						"encoding": "inplace",
						"label": "struct WCPOOL.AllScorePool",
						"members": [
							{
								"astId": 168,
								"contract": "wwcc-contracts/contracts/wwccPool.sol:WCPOOL",
								"label": "separateBet",
								"offset": 0,
								"slot": "0",
								"type": "t_array(t_struct(JoinerPicking)193_storage)dyn_storage"
							},
							{
								"astId": 170,
								"contract": "wwcc-contracts/contracts/wwccPool.sol:WCPOOL",
								"label": "poolKey",
								"offset": 0,
								"slot": "1",
								"type": "t_bytes32"
							}
						],
						"numberOfBytes": "64"
					},
					"t_struct(JoinerAllPicking)178_storage": {
						"encoding": "inplace",
						"label": "struct WCPOOL.JoinerAllPicking",
						"members": [
							{
								"astId": 175,
								"contract": "wwcc-contracts/contracts/wwccPool.sol:WCPOOL",
								"label": "separateBet",
								"offset": 0,
								"slot": "0",
								"type": "t_array(t_struct(JoinerPicking)193_storage)dyn_storage"
							},
							{
								"astId": 177,
								"contract": "wwcc-contracts/contracts/wwccPool.sol:WCPOOL",
								"label": "joiner",
								"offset": 0,
								"slot": "1",
								"type": "t_address"
							}
						],
						"numberOfBytes": "64"
					},
					"t_struct(JoinerPicking)193_storage": {
						"encoding": "inplace",
						"label": "struct WCPOOL.JoinerPicking",
						"members": [
							{
								"astId": 180,
								"contract": "wwcc-contracts/contracts/wwccPool.sol:WCPOOL",
								"label": "weight",
								"offset": 0,
								"slot": "0",
								"type": "t_uint256"
							},
							{
								"astId": 182,
								"contract": "wwcc-contracts/contracts/wwccPool.sol:WCPOOL",
								"label": "kind",
								"offset": 0,
								"slot": "1",
								"type": "t_uint256"
							},
							{
								"astId": 184,
								"contract": "wwcc-contracts/contracts/wwccPool.sol:WCPOOL",
								"label": "homeScore",
								"offset": 0,
								"slot": "2",
								"type": "t_uint256"
							},
							{
								"astId": 186,
								"contract": "wwcc-contracts/contracts/wwccPool.sol:WCPOOL",
								"label": "visitScore",
								"offset": 0,
								"slot": "3",
								"type": "t_uint256"
							},
							{
								"astId": 188,
								"contract": "wwcc-contracts/contracts/wwccPool.sol:WCPOOL",
								"label": "joiner",
								"offset": 0,
								"slot": "4",
								"type": "t_address"
							},
							{
								"astId": 190,
								"contract": "wwcc-contracts/contracts/wwccPool.sol:WCPOOL",
								"label": "pickingKey",
								"offset": 0,
								"slot": "5",
								"type": "t_string_storage"
							},
							{
								"astId": 192,
								"contract": "wwcc-contracts/contracts/wwccPool.sol:WCPOOL",
								"label": "finished",
								"offset": 0,
								"slot": "6",
								"type": "t_bool"
							}
						],
						"numberOfBytes": "224"
					},
					"t_struct(WcPool)153_storage": {
						"encoding": "inplace",
						"label": "struct WCPOOL.WcPool",
						"members": [
							{
								"astId": 132,
								"contract": "wwcc-contracts/contracts/wwccPool.sol:WCPOOL",
								"label": "home",
								"offset": 0,
								"slot": "0",
								"type": "t_string_storage"
							},
							{
								"astId": 134,
								"contract": "wwcc-contracts/contracts/wwccPool.sol:WCPOOL",
								"label": "visit",
								"offset": 0,
								"slot": "1",
								"type": "t_string_storage"
							},
							{
								"astId": 136,
								"contract": "wwcc-contracts/contracts/wwccPool.sol:WCPOOL",
								"label": "rounds",
								"offset": 0,
								"slot": "2",
								"type": "t_string_storage"
							},
							{
								"astId": 138,
								"contract": "wwcc-contracts/contracts/wwccPool.sol:WCPOOL",
								"label": "wPool",
								"offset": 0,
								"slot": "3",
								"type": "t_uint256"
							},
							{
								"astId": 140,
								"contract": "wwcc-contracts/contracts/wwccPool.sol:WCPOOL",
								"label": "dPool",
								"offset": 0,
								"slot": "4",
								"type": "t_uint256"
							},
							{
								"astId": 142,
								"contract": "wwcc-contracts/contracts/wwccPool.sol:WCPOOL",
								"label": "lPool",
								"offset": 0,
								"slot": "5",
								"type": "t_uint256"
							},
							{
								"astId": 144,
								"contract": "wwcc-contracts/contracts/wwccPool.sol:WCPOOL",
								"label": "sPool",
								"offset": 0,
								"slot": "6",
								"type": "t_uint256"
							},
							{
								"astId": 146,
								"contract": "wwcc-contracts/contracts/wwccPool.sol:WCPOOL",
								"label": "basal",
								"offset": 0,
								"slot": "7",
								"type": "t_uint256"
							},
							{
								"astId": 148,
								"contract": "wwcc-contracts/contracts/wwccPool.sol:WCPOOL",
								"label": "decided",
								"offset": 0,
								"slot": "8",
								"type": "t_bool"
							},
							{
								"astId": 150,
								"contract": "wwcc-contracts/contracts/wwccPool.sol:WCPOOL",
								"label": "used",
								"offset": 1,
								"slot": "8",
								"type": "t_bool"
							},
							{
								"astId": 152,
								"contract": "wwcc-contracts/contracts/wwccPool.sol:WCPOOL",
								"label": "finished",
								"offset": 2,
								"slot": "8",
								"type": "t_bool"
							}
						],
						"numberOfBytes": "288"
					},
					"t_uint256": {
						"encoding": "inplace",
						"label": "uint256",
						"numberOfBytes": "32"
					}
				}
			},
			"userdoc": {
				"kind": "user",
				"methods": {},
				"version": 1
			}
		}
	}
}