{
	"wwcc-contracts/contracts/wwccPool.sol": {
		"WCPOOL": {
			"abi": [
				{
					"inputs": [
						{
							"internalType": "address",
							"name": "holder",
							"type": "address"
						},
						{
							"internalType": "uint256",
							"name": "firstBasal",
							"type": "uint256"
						}
					],
					"stateMutability": "nonpayable",
					"type": "constructor"
				},
				{
					"anonymous": false,
					"inputs": [
						{
							"indexed": false,
							"internalType": "address",
							"name": "",
							"type": "address"
						},
						{
							"indexed": false,
							"internalType": "uint256",
							"name": "",
							"type": "uint256"
						}
					],
					"name": "Received",
					"type": "event"
				},
				{
					"inputs": [
						{
							"internalType": "bytes32",
							"name": "poolKey",
							"type": "bytes32"
						},
						{
							"internalType": "uint256",
							"name": "homeScore",
							"type": "uint256"
						},
						{
							"internalType": "uint256",
							"name": "visitScore",
							"type": "uint256"
						},
						{
							"internalType": "uint256",
							"name": "result",
							"type": "uint256"
						}
					],
					"name": "Award",
					"outputs": [
						{
							"internalType": "bool",
							"name": "",
							"type": "bool"
						}
					],
					"stateMutability": "payable",
					"type": "function"
				},
				{
					"inputs": [],
					"name": "CheckBasal",
					"outputs": [
						{
							"internalType": "uint256",
							"name": "",
							"type": "uint256"
						}
					],
					"stateMutability": "view",
					"type": "function"
				},
				{
					"inputs": [
						{
							"internalType": "bytes32",
							"name": "poolKey",
							"type": "bytes32"
						}
					],
					"name": "CheckExpect",
					"outputs": [
						{
							"internalType": "uint256",
							"name": "",
							"type": "uint256"
						}
					],
					"stateMutability": "view",
					"type": "function"
				},
				{
					"inputs": [],
					"name": "CheckVoteTickets",
					"outputs": [
						{
							"internalType": "uint256",
							"name": "",
							"type": "uint256"
						}
					],
					"stateMutability": "view",
					"type": "function"
				},
				{
					"inputs": [
						{
							"internalType": "address",
							"name": "joiner",
							"type": "address"
						},
						{
							"internalType": "uint256",
							"name": "weight",
							"type": "uint256"
						},
						{
							"internalType": "bytes32",
							"name": "poolKey",
							"type": "bytes32"
						},
						{
							"internalType": "uint256",
							"name": "homeScore",
							"type": "uint256"
						},
						{
							"internalType": "uint256",
							"name": "visitScore",
							"type": "uint256"
						},
						{
							"internalType": "uint256",
							"name": "kind",
							"type": "uint256"
						}
					],
					"name": "Picking",
					"outputs": [
						{
							"internalType": "bool",
							"name": "",
							"type": "bool"
						}
					],
					"stateMutability": "nonpayable",
					"type": "function"
				},
				{
					"inputs": [
						{
							"internalType": "string",
							"name": "home",
							"type": "string"
						},
						{
							"internalType": "string",
							"name": "visit",
							"type": "string"
						},
						{
							"internalType": "string",
							"name": "rounds",
							"type": "string"
						},
						{
							"internalType": "bool",
							"name": "decided",
							"type": "bool"
						}
					],
					"name": "Set_Pool",
					"outputs": [
						{
							"internalType": "bytes32",
							"name": "",
							"type": "bytes32"
						}
					],
					"stateMutability": "nonpayable",
					"type": "function"
				},
				{
					"inputs": [
						{
							"internalType": "address",
							"name": "toAddress",
							"type": "address"
						},
						{
							"internalType": "bytes32",
							"name": "poolKey",
							"type": "bytes32"
						}
					],
					"name": "Withdrawal",
					"outputs": [
						{
							"internalType": "bool",
							"name": "",
							"type": "bool"
						}
					],
					"stateMutability": "payable",
					"type": "function"
				},
				{
					"inputs": [],
					"name": "getAllPoolKeys",
					"outputs": [
						{
							"internalType": "bytes32[]",
							"name": "",
							"type": "bytes32[]"
						}
					],
					"stateMutability": "view",
					"type": "function"
				},
				{
					"inputs": [],
					"name": "getLastBNB",
					"outputs": [
						{
							"internalType": "uint256",
							"name": "",
							"type": "uint256"
						}
					],
					"stateMutability": "view",
					"type": "function"
				},
				{
					"inputs": [
						{
							"internalType": "bytes32",
							"name": "poolKey",
							"type": "bytes32"
						}
					],
					"name": "getPool",
					"outputs": [
						{
							"internalType": "string",
							"name": "vs",
							"type": "string"
						},
						{
							"internalType": "string",
							"name": "rounds",
							"type": "string"
						},
						{
							"components": [
								{
									"internalType": "uint256",
									"name": "wPool",
									"type": "uint256"
								},
								{
									"internalType": "uint256",
									"name": "dPool",
									"type": "uint256"
								},
								{
									"internalType": "uint256",
									"name": "lPool",
									"type": "uint256"
								},
								{
									"internalType": "uint256",
									"name": "sPool",
									"type": "uint256"
								},
								{
									"internalType": "uint256",
									"name": "basal",
									"type": "uint256"
								}
							],
							"internalType": "struct WCPOOL.PoolViewInfo",
							"name": "viewInfo",
							"type": "tuple"
						}
					],
					"stateMutability": "view",
					"type": "function"
				},
				{
					"inputs": [
						{
							"internalType": "address",
							"name": "joiner",
							"type": "address"
						},
						{
							"internalType": "uint256",
							"name": "amount",
							"type": "uint256"
						}
					],
					"name": "voteWithdrawal",
					"outputs": [
						{
							"internalType": "bool",
							"name": "",
							"type": "bool"
						}
					],
					"stateMutability": "payable",
					"type": "function"
				},
				{
					"inputs": [
						{
							"internalType": "address",
							"name": "toAddress",
							"type": "address"
						}
					],
					"name": "withdrawBNBInContract",
					"outputs": [
						{
							"internalType": "bool",
							"name": "",
							"type": "bool"
						}
					],
					"stateMutability": "payable",
					"type": "function"
				},
				{
					"stateMutability": "payable",
					"type": "receive"
				}
			],
			"devdoc": {
				"kind": "dev",
				"methods": {},
				"version": 1
			},
			"evm": {
				"assembly": "    /* \"wwcc-contracts/contracts/wwccPool.sol\":96:14226  contract WCPOOL {... */\n  mstore(0x40, 0x80)\n    /* \"wwcc-contracts/contracts/wwccPool.sol\":1776:1997  constructor(... */\n  callvalue\n  dup1\n  iszero\n  tag_1\n  jumpi\n  0x00\n  dup1\n  revert\ntag_1:\n  pop\n  mload(0x40)\n  sub(codesize, bytecodeSize)\n  dup1\n  bytecodeSize\n  dup4\n  codecopy\n  dup2\n  dup2\n  add\n  0x40\n  mstore\n  dup2\n  add\n  swap1\n  tag_2\n  swap2\n  swap1\n  tag_3\n  jump\t// in\ntag_2:\n    /* \"wwcc-contracts/contracts/wwccPool.sol\":1857:1863  holder */\n  dup2\n    /* \"wwcc-contracts/contracts/wwccPool.sol\":1849:1854  owner */\n  0x00\n  dup1\n    /* \"wwcc-contracts/contracts/wwccPool.sol\":1849:1863  owner = holder */\n  0x0100\n  exp\n  dup2\n  sload\n  dup2\n  0xffffffffffffffffffffffffffffffffffffffff\n  mul\n  not\n  and\n  swap1\n  dup4\n  0xffffffffffffffffffffffffffffffffffffffff\n  and\n  mul\n  or\n  swap1\n  sstore\n  pop\n    /* \"wwcc-contracts/contracts/wwccPool.sol\":1883:1884  0 */\n  0x00\n    /* \"wwcc-contracts/contracts/wwccPool.sol\":1873:1880  lastBNB */\n  0x03\n    /* \"wwcc-contracts/contracts/wwccPool.sol\":1873:1884  lastBNB = 0 */\n  dup2\n  swap1\n  sstore\n  pop\n    /* \"wwcc-contracts/contracts/wwccPool.sol\":1910:1920  firstBasal */\n  dup1\n    /* \"wwcc-contracts/contracts/wwccPool.sol\":1894:1907  nextBasalLast */\n  0x01\n    /* \"wwcc-contracts/contracts/wwccPool.sol\":1894:1920  nextBasalLast = firstBasal */\n  dup2\n  swap1\n  sstore\n  pop\n    /* \"wwcc-contracts/contracts/wwccPool.sol\":1776:1997  constructor(... */\n  pop\n  pop\n    /* \"wwcc-contracts/contracts/wwccPool.sol\":96:14226  contract WCPOOL {... */\n  jump(tag_6)\n    /* \"#utility.yul\":7:150   */\ntag_8:\n    /* \"#utility.yul\":64:69   */\n  0x00\n    /* \"#utility.yul\":95:101   */\n  dup2\n    /* \"#utility.yul\":89:102   */\n  mload\n    /* \"#utility.yul\":80:102   */\n  swap1\n  pop\n    /* \"#utility.yul\":111:144   */\n  tag_10\n    /* \"#utility.yul\":138:143   */\n  dup2\n    /* \"#utility.yul\":111:144   */\n  tag_11\n  jump\t// in\ntag_10:\n    /* \"#utility.yul\":7:150   */\n  swap3\n  swap2\n  pop\n  pop\n  jump\t// out\n    /* \"#utility.yul\":156:299   */\ntag_12:\n    /* \"#utility.yul\":213:218   */\n  0x00\n    /* \"#utility.yul\":244:250   */\n  dup2\n    /* \"#utility.yul\":238:251   */\n  mload\n    /* \"#utility.yul\":229:251   */\n  swap1\n  pop\n    /* \"#utility.yul\":260:293   */\n  tag_14\n    /* \"#utility.yul\":287:292   */\n  dup2\n    /* \"#utility.yul\":260:293   */\n  tag_15\n  jump\t// in\ntag_14:\n    /* \"#utility.yul\":156:299   */\n  swap3\n  swap2\n  pop\n  pop\n  jump\t// out\n    /* \"#utility.yul\":305:812   */\ntag_3:\n    /* \"#utility.yul\":384:390   */\n  0x00\n    /* \"#utility.yul\":392:398   */\n  dup1\n    /* \"#utility.yul\":441:443   */\n  0x40\n    /* \"#utility.yul\":429:438   */\n  dup4\n    /* \"#utility.yul\":420:427   */\n  dup6\n    /* \"#utility.yul\":416:439   */\n  sub\n    /* \"#utility.yul\":412:444   */\n  slt\n    /* \"#utility.yul\":409:528   */\n  iszero\n  tag_17\n  jumpi\n    /* \"#utility.yul\":447:526   */\n  tag_18\n  tag_19\n  jump\t// in\ntag_18:\n    /* \"#utility.yul\":409:528   */\ntag_17:\n    /* \"#utility.yul\":567:568   */\n  0x00\n    /* \"#utility.yul\":592:656   */\n  tag_20\n    /* \"#utility.yul\":648:655   */\n  dup6\n    /* \"#utility.yul\":639:645   */\n  dup3\n    /* \"#utility.yul\":628:637   */\n  dup7\n    /* \"#utility.yul\":624:646   */\n  add\n    /* \"#utility.yul\":592:656   */\n  tag_8\n  jump\t// in\ntag_20:\n    /* \"#utility.yul\":582:656   */\n  swap3\n  pop\n    /* \"#utility.yul\":538:666   */\n  pop\n    /* \"#utility.yul\":705:707   */\n  0x20\n    /* \"#utility.yul\":731:795   */\n  tag_21\n    /* \"#utility.yul\":787:794   */\n  dup6\n    /* \"#utility.yul\":778:784   */\n  dup3\n    /* \"#utility.yul\":767:776   */\n  dup7\n    /* \"#utility.yul\":763:785   */\n  add\n    /* \"#utility.yul\":731:795   */\n  tag_12\n  jump\t// in\ntag_21:\n    /* \"#utility.yul\":721:795   */\n  swap2\n  pop\n    /* \"#utility.yul\":676:805   */\n  pop\n    /* \"#utility.yul\":305:812   */\n  swap3\n  pop\n  swap3\n  swap1\n  pop\n  jump\t// out\n    /* \"#utility.yul\":899:995   */\ntag_24:\n    /* \"#utility.yul\":936:943   */\n  0x00\n    /* \"#utility.yul\":965:989   */\n  tag_26\n    /* \"#utility.yul\":983:988   */\n  dup3\n    /* \"#utility.yul\":965:989   */\n  tag_27\n  jump\t// in\ntag_26:\n    /* \"#utility.yul\":954:989   */\n  swap1\n  pop\n    /* \"#utility.yul\":899:995   */\n  swap2\n  swap1\n  pop\n  jump\t// out\n    /* \"#utility.yul\":1001:1127   */\ntag_27:\n    /* \"#utility.yul\":1038:1045   */\n  0x00\n    /* \"#utility.yul\":1078:1120   */\n  0xffffffffffffffffffffffffffffffffffffffff\n    /* \"#utility.yul\":1071:1076   */\n  dup3\n    /* \"#utility.yul\":1067:1121   */\n  and\n    /* \"#utility.yul\":1056:1121   */\n  swap1\n  pop\n    /* \"#utility.yul\":1001:1127   */\n  swap2\n  swap1\n  pop\n  jump\t// out\n    /* \"#utility.yul\":1133:1210   */\ntag_29:\n    /* \"#utility.yul\":1170:1177   */\n  0x00\n    /* \"#utility.yul\":1199:1204   */\n  dup2\n    /* \"#utility.yul\":1188:1204   */\n  swap1\n  pop\n    /* \"#utility.yul\":1133:1210   */\n  swap2\n  swap1\n  pop\n  jump\t// out\n    /* \"#utility.yul\":1339:1456   */\ntag_19:\n    /* \"#utility.yul\":1448:1449   */\n  0x00\n    /* \"#utility.yul\":1445:1446   */\n  dup1\n    /* \"#utility.yul\":1438:1450   */\n  revert\n    /* \"#utility.yul\":1462:1584   */\ntag_11:\n    /* \"#utility.yul\":1535:1559   */\n  tag_35\n    /* \"#utility.yul\":1553:1558   */\n  dup2\n    /* \"#utility.yul\":1535:1559   */\n  tag_24\n  jump\t// in\ntag_35:\n    /* \"#utility.yul\":1528:1533   */\n  dup2\n    /* \"#utility.yul\":1525:1560   */\n  eq\n    /* \"#utility.yul\":1515:1578   */\n  tag_36\n  jumpi\n    /* \"#utility.yul\":1574:1575   */\n  0x00\n    /* \"#utility.yul\":1571:1572   */\n  dup1\n    /* \"#utility.yul\":1564:1576   */\n  revert\n    /* \"#utility.yul\":1515:1578   */\ntag_36:\n    /* \"#utility.yul\":1462:1584   */\n  pop\n  jump\t// out\n    /* \"#utility.yul\":1590:1712   */\ntag_15:\n    /* \"#utility.yul\":1663:1687   */\n  tag_38\n    /* \"#utility.yul\":1681:1686   */\n  dup2\n    /* \"#utility.yul\":1663:1687   */\n  tag_29\n  jump\t// in\ntag_38:\n    /* \"#utility.yul\":1656:1661   */\n  dup2\n    /* \"#utility.yul\":1653:1688   */\n  eq\n    /* \"#utility.yul\":1643:1706   */\n  tag_39\n  jumpi\n    /* \"#utility.yul\":1702:1703   */\n  0x00\n    /* \"#utility.yul\":1699:1700   */\n  dup1\n    /* \"#utility.yul\":1692:1704   */\n  revert\n    /* \"#utility.yul\":1643:1706   */\ntag_39:\n    /* \"#utility.yul\":1590:1712   */\n  pop\n  jump\t// out\n    /* \"wwcc-contracts/contracts/wwccPool.sol\":96:14226  contract WCPOOL {... */\ntag_6:\n  dataSize(sub_0)\n  dup1\n  dataOffset(sub_0)\n  0x00\n  codecopy\n  0x00\n  return\nstop\n\nsub_0: assembly {\n        /* \"wwcc-contracts/contracts/wwccPool.sol\":96:14226  contract WCPOOL {... */\n      mstore(0x40, 0x80)\n      jumpi(tag_1, lt(calldatasize, 0x04))\n      shr(0xe0, calldataload(0x00))\n      dup1\n      0x47e4dd27\n      gt\n      tag_15\n      jumpi\n      dup1\n      0x47e4dd27\n      eq\n      tag_9\n      jumpi\n      dup1\n      0x74fe9bc2\n      eq\n      tag_10\n      jumpi\n      dup1\n      0x9bd0abf1\n      eq\n      tag_11\n      jumpi\n      dup1\n      0xbaf41269\n      eq\n      tag_12\n      jumpi\n      dup1\n      0xea8870c0\n      eq\n      tag_13\n      jumpi\n      dup1\n      0xf6c00927\n      eq\n      tag_14\n      jumpi\n      jump(tag_2)\n    tag_15:\n      dup1\n      0x0c66b373\n      eq\n      tag_3\n      jumpi\n      dup1\n      0x0ce49053\n      eq\n      tag_4\n      jumpi\n      dup1\n      0x2775e02c\n      eq\n      tag_5\n      jumpi\n      dup1\n      0x357965ba\n      eq\n      tag_6\n      jumpi\n      dup1\n      0x3e6ff1a2\n      eq\n      tag_7\n      jumpi\n      dup1\n      0x4121855f\n      eq\n      tag_8\n      jumpi\n      jump(tag_2)\n    tag_1:\n      jumpi(tag_2, calldatasize)\n        /* \"wwcc-contracts/contracts/wwccPool.sol\":14031:14036  owner */\n      0x00\n      dup1\n      sload\n      swap1\n      0x0100\n      exp\n      swap1\n      div\n      0xffffffffffffffffffffffffffffffffffffffff\n      and\n        /* \"wwcc-contracts/contracts/wwccPool.sol\":14017:14036  msg.sender != owner */\n      0xffffffffffffffffffffffffffffffffffffffff\n      and\n        /* \"wwcc-contracts/contracts/wwccPool.sol\":14017:14027  msg.sender */\n      caller\n        /* \"wwcc-contracts/contracts/wwccPool.sol\":14017:14036  msg.sender != owner */\n      0xffffffffffffffffffffffffffffffffffffffff\n      and\n      eq\n        /* \"wwcc-contracts/contracts/wwccPool.sol\":14014:14219  if(msg.sender != owner){... */\n      tag_18\n      jumpi\n        /* \"wwcc-contracts/contracts/wwccPool.sol\":14076:14108  msg.value.div(10000000000000000) */\n      tag_19\n        /* \"wwcc-contracts/contracts/wwccPool.sol\":14090:14107  10000000000000000 */\n      0x2386f26fc10000\n        /* \"wwcc-contracts/contracts/wwccPool.sol\":14076:14085  msg.value */\n      callvalue\n        /* \"wwcc-contracts/contracts/wwccPool.sol\":14076:14089  msg.value.div */\n      tag_20\n      swap1\n        /* \"wwcc-contracts/contracts/wwccPool.sol\":14076:14108  msg.value.div(10000000000000000) */\n      swap2\n      swap1\n      0xffffffff\n      and\n      jump\t// in\n    tag_19:\n        /* \"wwcc-contracts/contracts/wwccPool.sol\":14050:14060  voteAmount */\n      0x04\n        /* \"wwcc-contracts/contracts/wwccPool.sol\":14050:14072  voteAmount[msg.sender] */\n      0x00\n        /* \"wwcc-contracts/contracts/wwccPool.sol\":14061:14071  msg.sender */\n      caller\n        /* \"wwcc-contracts/contracts/wwccPool.sol\":14050:14072  voteAmount[msg.sender] */\n      0xffffffffffffffffffffffffffffffffffffffff\n      and\n      0xffffffffffffffffffffffffffffffffffffffff\n      and\n      dup2\n      mstore\n      0x20\n      add\n      swap1\n      dup2\n      mstore\n      0x20\n      add\n      0x00\n      keccak256\n      0x00\n        /* \"wwcc-contracts/contracts/wwccPool.sol\":14050:14108  voteAmount[msg.sender] += msg.value.div(10000000000000000) */\n      dup3\n      dup3\n      sload\n      tag_21\n      swap2\n      swap1\n      tag_22\n      jump\t// in\n    tag_21:\n      swap3\n      pop\n      pop\n      dup2\n      swap1\n      sstore\n      pop\n        /* \"wwcc-contracts/contracts/wwccPool.sol\":14132:14141  msg.value */\n      callvalue\n        /* \"wwcc-contracts/contracts/wwccPool.sol\":14121:14128  lastBNB */\n      0x03\n      0x00\n        /* \"wwcc-contracts/contracts/wwccPool.sol\":14121:14141  lastBNB += msg.value */\n      dup3\n      dup3\n      sload\n      tag_23\n      swap2\n      swap1\n      tag_22\n      jump\t// in\n    tag_23:\n      swap3\n      pop\n      pop\n      dup2\n      swap1\n      sstore\n      pop\n        /* \"wwcc-contracts/contracts/wwccPool.sol\":14159:14190  Received(msg.sender, msg.value) */\n      0x88a5966d370b9919b20f3e2c13ff65706f196a4e32cc2c12bf57088f88525874\n        /* \"wwcc-contracts/contracts/wwccPool.sol\":14168:14178  msg.sender */\n      caller\n        /* \"wwcc-contracts/contracts/wwccPool.sol\":14180:14189  msg.value */\n      callvalue\n        /* \"wwcc-contracts/contracts/wwccPool.sol\":14159:14190  Received(msg.sender, msg.value) */\n      mload(0x40)\n      tag_24\n      swap3\n      swap2\n      swap1\n      tag_25\n      jump\t// in\n    tag_24:\n      mload(0x40)\n      dup1\n      swap2\n      sub\n      swap1\n      log1\n        /* \"wwcc-contracts/contracts/wwccPool.sol\":14014:14219  if(msg.sender != owner){... */\n      jump(tag_26)\n    tag_18:\n    tag_26:\n        /* \"wwcc-contracts/contracts/wwccPool.sol\":96:14226  contract WCPOOL {... */\n      stop\n    tag_2:\n      0x00\n      dup1\n      revert\n        /* \"wwcc-contracts/contracts/wwccPool.sol\":6677:6773  function getLastBNB() external onlyManager view returns (uint256){... */\n    tag_3:\n      callvalue\n      dup1\n      iszero\n      tag_27\n      jumpi\n      0x00\n      dup1\n      revert\n    tag_27:\n      pop\n      tag_28\n      tag_29\n      jump\t// in\n    tag_28:\n      mload(0x40)\n      tag_30\n      swap2\n      swap1\n      tag_31\n      jump\t// in\n    tag_30:\n      mload(0x40)\n      dup1\n      swap2\n      sub\n      swap1\n      return\n        /* \"wwcc-contracts/contracts/wwccPool.sol\":4979:5658  function Withdrawal(address toAddress,bytes32 poolKey) external onlyManager payable returns (bool){... */\n    tag_4:\n      tag_32\n      0x04\n      dup1\n      calldatasize\n      sub\n      dup2\n      add\n      swap1\n      tag_33\n      swap2\n      swap1\n      tag_34\n      jump\t// in\n    tag_33:\n      tag_35\n      jump\t// in\n    tag_32:\n      mload(0x40)\n      tag_36\n      swap2\n      swap1\n      tag_37\n      jump\t// in\n    tag_36:\n      mload(0x40)\n      dup1\n      swap2\n      sub\n      swap1\n      return\n        /* \"wwcc-contracts/contracts/wwccPool.sol\":10621:10865  function withdrawBNBInContract(address toAddress)external onlyManager payable returns(bool){... */\n    tag_5:\n      tag_38\n      0x04\n      dup1\n      calldatasize\n      sub\n      dup2\n      add\n      swap1\n      tag_39\n      swap2\n      swap1\n      tag_40\n      jump\t// in\n    tag_39:\n      tag_41\n      jump\t// in\n    tag_38:\n      mload(0x40)\n      tag_42\n      swap2\n      swap1\n      tag_37\n      jump\t// in\n    tag_42:\n      mload(0x40)\n      dup1\n      swap2\n      sub\n      swap1\n      return\n        /* \"wwcc-contracts/contracts/wwccPool.sol\":2039:3161  function Set_Pool(... */\n    tag_6:\n      callvalue\n      dup1\n      iszero\n      tag_43\n      jumpi\n      0x00\n      dup1\n      revert\n    tag_43:\n      pop\n      tag_44\n      0x04\n      dup1\n      calldatasize\n      sub\n      dup2\n      add\n      swap1\n      tag_45\n      swap2\n      swap1\n      tag_46\n      jump\t// in\n    tag_45:\n      tag_47\n      jump\t// in\n    tag_44:\n      mload(0x40)\n      tag_48\n      swap2\n      swap1\n      tag_49\n      jump\t// in\n    tag_48:\n      mload(0x40)\n      dup1\n      swap2\n      sub\n      swap1\n      return\n        /* \"wwcc-contracts/contracts/wwccPool.sol\":6835:6941  function CheckBasal() external onlyManager view  returns (uint256){... */\n    tag_7:\n      callvalue\n      dup1\n      iszero\n      tag_50\n      jumpi\n      0x00\n      dup1\n      revert\n    tag_50:\n      pop\n      tag_51\n      tag_52\n      jump\t// in\n    tag_51:\n      mload(0x40)\n      tag_53\n      swap2\n      swap1\n      tag_31\n      jump\t// in\n    tag_53:\n      mload(0x40)\n      dup1\n      swap2\n      sub\n      swap1\n      return\n        /* \"wwcc-contracts/contracts/wwccPool.sol\":6197:6569  function CheckExpect(bytes32 poolKey) external onlyManager view  returns (uint256){... */\n    tag_8:\n      callvalue\n      dup1\n      iszero\n      tag_54\n      jumpi\n      0x00\n      dup1\n      revert\n    tag_54:\n      pop\n      tag_55\n      0x04\n      dup1\n      calldatasize\n      sub\n      dup2\n      add\n      swap1\n      tag_56\n      swap2\n      swap1\n      tag_57\n      jump\t// in\n    tag_56:\n      tag_58\n      jump\t// in\n    tag_55:\n      mload(0x40)\n      tag_59\n      swap2\n      swap1\n      tag_31\n      jump\t// in\n    tag_59:\n      mload(0x40)\n      dup1\n      swap2\n      sub\n      swap1\n      return\n        /* \"wwcc-contracts/contracts/wwccPool.sol\":3184:4936  function Picking(address joiner,uint256 weight,bytes32 poolKey,uint256 homeScore,uint256 visitScore,uint256 kind) external returns(bool){... */\n    tag_9:\n      callvalue\n      dup1\n      iszero\n      tag_60\n      jumpi\n      0x00\n      dup1\n      revert\n    tag_60:\n      pop\n      tag_61\n      0x04\n      dup1\n      calldatasize\n      sub\n      dup2\n      add\n      swap1\n      tag_62\n      swap2\n      swap1\n      tag_63\n      jump\t// in\n    tag_62:\n      tag_64\n      jump\t// in\n    tag_61:\n      mload(0x40)\n      tag_65\n      swap2\n      swap1\n      tag_37\n      jump\t// in\n    tag_65:\n      mload(0x40)\n      dup1\n      swap2\n      sub\n      swap1\n      return\n        /* \"wwcc-contracts/contracts/wwccPool.sol\":7159:10616  function Award(bytes32 poolKey,uint256 homeScore,uint256 visitScore,uint256 result)  external onlyManager  payable returns(bool){... */\n    tag_10:\n      tag_66\n      0x04\n      dup1\n      calldatasize\n      sub\n      dup2\n      add\n      swap1\n      tag_67\n      swap2\n      swap1\n      tag_68\n      jump\t// in\n    tag_67:\n      tag_69\n      jump\t// in\n    tag_66:\n      mload(0x40)\n      tag_70\n      swap2\n      swap1\n      tag_37\n      jump\t// in\n    tag_70:\n      mload(0x40)\n      dup1\n      swap2\n      sub\n      swap1\n      return\n        /* \"wwcc-contracts/contracts/wwccPool.sol\":5719:6132  function voteWithdrawal(address joiner,uint256 amount) external onlyManager payable returns (bool){... */\n    tag_11:\n      tag_71\n      0x04\n      dup1\n      calldatasize\n      sub\n      dup2\n      add\n      swap1\n      tag_72\n      swap2\n      swap1\n      tag_73\n      jump\t// in\n    tag_72:\n      tag_74\n      jump\t// in\n    tag_71:\n      mload(0x40)\n      tag_75\n      swap2\n      swap1\n      tag_37\n      jump\t// in\n    tag_75:\n      mload(0x40)\n      dup1\n      swap2\n      sub\n      swap1\n      return\n        /* \"wwcc-contracts/contracts/wwccPool.sol\":6983:7088  function CheckVoteTickets() external view returns (uint256){... */\n    tag_12:\n      callvalue\n      dup1\n      iszero\n      tag_76\n      jumpi\n      0x00\n      dup1\n      revert\n    tag_76:\n      pop\n      tag_77\n      tag_78\n      jump\t// in\n    tag_77:\n      mload(0x40)\n      tag_79\n      swap2\n      swap1\n      tag_31\n      jump\t// in\n    tag_79:\n      mload(0x40)\n      dup1\n      swap2\n      sub\n      swap1\n      return\n        /* \"wwcc-contracts/contracts/wwccPool.sol\":6574:6672  function getAllPoolKeys() external view returns (bytes32[] memory){... */\n    tag_13:\n      callvalue\n      dup1\n      iszero\n      tag_80\n      jumpi\n      0x00\n      dup1\n      revert\n    tag_80:\n      pop\n      tag_81\n      tag_82\n      jump\t// in\n    tag_81:\n      mload(0x40)\n      tag_83\n      swap2\n      swap1\n      tag_84\n      jump\t// in\n    tag_83:\n      mload(0x40)\n      dup1\n      swap2\n      sub\n      swap1\n      return\n        /* \"wwcc-contracts/contracts/wwccPool.sol\":10915:11563  function getPool(bytes32 poolKey) external view returns (string memory vs,string memory rounds,PoolViewInfo memory viewInfo){... */\n    tag_14:\n      callvalue\n      dup1\n      iszero\n      tag_85\n      jumpi\n      0x00\n      dup1\n      revert\n    tag_85:\n      pop\n      tag_86\n      0x04\n      dup1\n      calldatasize\n      sub\n      dup2\n      add\n      swap1\n      tag_87\n      swap2\n      swap1\n      tag_57\n      jump\t// in\n    tag_87:\n      tag_88\n      jump\t// in\n    tag_86:\n      mload(0x40)\n      tag_89\n      swap4\n      swap3\n      swap2\n      swap1\n      tag_90\n      jump\t// in\n    tag_89:\n      mload(0x40)\n      dup1\n      swap2\n      sub\n      swap1\n      return\n        /* \"wwcc-contracts/contracts/safemath.sol\":274:417  function div(uint256 a, uint256 b) internal pure returns (uint256) {... */\n    tag_20:\n        /* \"wwcc-contracts/contracts/safemath.sol\":332:339  uint256 */\n      0x00\n        /* \"wwcc-contracts/contracts/safemath.sol\":363:364  0 */\n      dup1\n        /* \"wwcc-contracts/contracts/safemath.sol\":359:360  b */\n      dup3\n        /* \"wwcc-contracts/contracts/safemath.sol\":359:364  b > 0 */\n      gt\n        /* \"wwcc-contracts/contracts/safemath.sol\":351:365  require(b > 0) */\n      tag_92\n      jumpi\n      0x00\n      dup1\n      revert\n    tag_92:\n        /* \"wwcc-contracts/contracts/safemath.sol\":375:384  uint256 c */\n      0x00\n        /* \"wwcc-contracts/contracts/safemath.sol\":391:392  b */\n      dup3\n        /* \"wwcc-contracts/contracts/safemath.sol\":387:388  a */\n      dup5\n        /* \"wwcc-contracts/contracts/safemath.sol\":387:392  a / b */\n      tag_93\n      swap2\n      swap1\n      tag_94\n      jump\t// in\n    tag_93:\n        /* \"wwcc-contracts/contracts/safemath.sol\":375:392  uint256 c = a / b */\n      swap1\n      pop\n        /* \"wwcc-contracts/contracts/safemath.sol\":409:410  c */\n      dup1\n        /* \"wwcc-contracts/contracts/safemath.sol\":402:410  return c */\n      swap2\n      pop\n      pop\n        /* \"wwcc-contracts/contracts/safemath.sol\":274:417  function div(uint256 a, uint256 b) internal pure returns (uint256) {... */\n      swap3\n      swap2\n      pop\n      pop\n      jump\t// out\n        /* \"wwcc-contracts/contracts/wwccPool.sol\":6677:6773  function getLastBNB() external onlyManager view returns (uint256){... */\n    tag_29:\n        /* \"wwcc-contracts/contracts/wwccPool.sol\":6734:6741  uint256 */\n      0x00\n        /* \"wwcc-contracts/contracts/wwccPool.sol\":13847:13852  owner */\n      dup1\n      0x00\n      swap1\n      sload\n      swap1\n      0x0100\n      exp\n      swap1\n      div\n      0xffffffffffffffffffffffffffffffffffffffff\n      and\n        /* \"wwcc-contracts/contracts/wwccPool.sol\":13833:13852  msg.sender == owner */\n      0xffffffffffffffffffffffffffffffffffffffff\n      and\n        /* \"wwcc-contracts/contracts/wwccPool.sol\":13833:13843  msg.sender */\n      caller\n        /* \"wwcc-contracts/contracts/wwccPool.sol\":13833:13852  msg.sender == owner */\n      0xffffffffffffffffffffffffffffffffffffffff\n      and\n      eq\n        /* \"wwcc-contracts/contracts/wwccPool.sol\":13812:13903  require(... */\n      tag_96\n      jumpi\n      mload(0x40)\n      0x08c379a000000000000000000000000000000000000000000000000000000000\n      dup2\n      mstore\n      0x04\n      add\n      tag_97\n      swap1\n      tag_98\n      jump\t// in\n    tag_97:\n      mload(0x40)\n      dup1\n      swap2\n      sub\n      swap1\n      revert\n    tag_96:\n        /* \"wwcc-contracts/contracts/wwccPool.sol\":6759:6766  lastBNB */\n      sload(0x03)\n        /* \"wwcc-contracts/contracts/wwccPool.sol\":6752:6766  return lastBNB */\n      swap1\n      pop\n        /* \"wwcc-contracts/contracts/wwccPool.sol\":6677:6773  function getLastBNB() external onlyManager view returns (uint256){... */\n      swap1\n      jump\t// out\n        /* \"wwcc-contracts/contracts/wwccPool.sol\":4979:5658  function Withdrawal(address toAddress,bytes32 poolKey) external onlyManager payable returns (bool){... */\n    tag_35:\n        /* \"wwcc-contracts/contracts/wwccPool.sol\":5072:5076  bool */\n      0x00\n        /* \"wwcc-contracts/contracts/wwccPool.sol\":13847:13852  owner */\n      dup1\n      0x00\n      swap1\n      sload\n      swap1\n      0x0100\n      exp\n      swap1\n      div\n      0xffffffffffffffffffffffffffffffffffffffff\n      and\n        /* \"wwcc-contracts/contracts/wwccPool.sol\":13833:13852  msg.sender == owner */\n      0xffffffffffffffffffffffffffffffffffffffff\n      and\n        /* \"wwcc-contracts/contracts/wwccPool.sol\":13833:13843  msg.sender */\n      caller\n        /* \"wwcc-contracts/contracts/wwccPool.sol\":13833:13852  msg.sender == owner */\n      0xffffffffffffffffffffffffffffffffffffffff\n      and\n      eq\n        /* \"wwcc-contracts/contracts/wwccPool.sol\":13812:13903  require(... */\n      tag_101\n      jumpi\n      mload(0x40)\n      0x08c379a000000000000000000000000000000000000000000000000000000000\n      dup2\n      mstore\n      0x04\n      add\n      tag_102\n      swap1\n      tag_98\n      jump\t// in\n    tag_102:\n      mload(0x40)\n      dup1\n      swap2\n      sub\n      swap1\n      revert\n    tag_101:\n        /* \"wwcc-contracts/contracts/wwccPool.sol\":5094:5111  contains(poolKey) */\n      tag_104\n        /* \"wwcc-contracts/contracts/wwccPool.sol\":5103:5110  poolKey */\n      dup3\n        /* \"wwcc-contracts/contracts/wwccPool.sol\":5094:5102  contains */\n      tag_105\n        /* \"wwcc-contracts/contracts/wwccPool.sol\":5094:5111  contains(poolKey) */\n      jump\t// in\n    tag_104:\n        /* \"wwcc-contracts/contracts/wwccPool.sol\":5090:5628  if(!contains(poolKey)) { ... */\n      tag_106\n      jumpi\n        /* \"wwcc-contracts/contracts/wwccPool.sol\":5132:5156  revert(\"pool not exist\") */\n      mload(0x40)\n      0x08c379a000000000000000000000000000000000000000000000000000000000\n      dup2\n      mstore\n      0x04\n      add\n      tag_107\n      swap1\n      tag_108\n      jump\t// in\n    tag_107:\n      mload(0x40)\n      dup1\n      swap2\n      sub\n      swap1\n      revert\n        /* \"wwcc-contracts/contracts/wwccPool.sol\":5090:5628  if(!contains(poolKey)) { ... */\n    tag_106:\n        /* \"wwcc-contracts/contracts/wwccPool.sol\":5192:5210  WcPool memory pool */\n      0x00\n        /* \"wwcc-contracts/contracts/wwccPool.sol\":5213:5220  WcPools */\n      0x05\n        /* \"wwcc-contracts/contracts/wwccPool.sol\":5213:5229  WcPools[poolKey] */\n      0x00\n        /* \"wwcc-contracts/contracts/wwccPool.sol\":5221:5228  poolKey */\n      dup5\n        /* \"wwcc-contracts/contracts/wwccPool.sol\":5213:5229  WcPools[poolKey] */\n      dup2\n      mstore\n      0x20\n      add\n      swap1\n      dup2\n      mstore\n      0x20\n      add\n      0x00\n      keccak256\n        /* \"wwcc-contracts/contracts/wwccPool.sol\":5192:5229  WcPool memory pool = WcPools[poolKey] */\n      mload(0x40)\n      dup1\n      0x0160\n      add\n      0x40\n      mstore\n      swap1\n      dup2\n      0x00\n      dup3\n      add\n      dup1\n      sload\n      tag_110\n      swap1\n      tag_111\n      jump\t// in\n    tag_110:\n      dup1\n      0x1f\n      add\n      0x20\n      dup1\n      swap2\n      div\n      mul\n      0x20\n      add\n      mload(0x40)\n      swap1\n      dup2\n      add\n      0x40\n      mstore\n      dup1\n      swap3\n      swap2\n      swap1\n      dup2\n      dup2\n      mstore\n      0x20\n      add\n      dup3\n      dup1\n      sload\n      tag_112\n      swap1\n      tag_111\n      jump\t// in\n    tag_112:\n      dup1\n      iszero\n      tag_113\n      jumpi\n      dup1\n      0x1f\n      lt\n      tag_114\n      jumpi\n      0x0100\n      dup1\n      dup4\n      sload\n      div\n      mul\n      dup4\n      mstore\n      swap2\n      0x20\n      add\n      swap2\n      jump(tag_113)\n    tag_114:\n      dup3\n      add\n      swap2\n      swap1\n      0x00\n      mstore\n      keccak256(0x00, 0x20)\n      swap1\n    tag_115:\n      dup2\n      sload\n      dup2\n      mstore\n      swap1\n      0x01\n      add\n      swap1\n      0x20\n      add\n      dup1\n      dup4\n      gt\n      tag_115\n      jumpi\n      dup3\n      swap1\n      sub\n      0x1f\n      and\n      dup3\n      add\n      swap2\n    tag_113:\n      pop\n      pop\n      pop\n      pop\n      pop\n      dup2\n      mstore\n      0x20\n      add\n      0x01\n      dup3\n      add\n      dup1\n      sload\n      tag_116\n      swap1\n      tag_111\n      jump\t// in\n    tag_116:\n      dup1\n      0x1f\n      add\n      0x20\n      dup1\n      swap2\n      div\n      mul\n      0x20\n      add\n      mload(0x40)\n      swap1\n      dup2\n      add\n      0x40\n      mstore\n      dup1\n      swap3\n      swap2\n      swap1\n      dup2\n      dup2\n      mstore\n      0x20\n      add\n      dup3\n      dup1\n      sload\n      tag_117\n      swap1\n      tag_111\n      jump\t// in\n    tag_117:\n      dup1\n      iszero\n      tag_118\n      jumpi\n      dup1\n      0x1f\n      lt\n      tag_119\n      jumpi\n      0x0100\n      dup1\n      dup4\n      sload\n      div\n      mul\n      dup4\n      mstore\n      swap2\n      0x20\n      add\n      swap2\n      jump(tag_118)\n    tag_119:\n      dup3\n      add\n      swap2\n      swap1\n      0x00\n      mstore\n      keccak256(0x00, 0x20)\n      swap1\n    tag_120:\n      dup2\n      sload\n      dup2\n      mstore\n      swap1\n      0x01\n      add\n      swap1\n      0x20\n      add\n      dup1\n      dup4\n      gt\n      tag_120\n      jumpi\n      dup3\n      swap1\n      sub\n      0x1f\n      and\n      dup3\n      add\n      swap2\n    tag_118:\n      pop\n      pop\n      pop\n      pop\n      pop\n      dup2\n      mstore\n      0x20\n      add\n      0x02\n      dup3\n      add\n      dup1\n      sload\n      tag_121\n      swap1\n      tag_111\n      jump\t// in\n    tag_121:\n      dup1\n      0x1f\n      add\n      0x20\n      dup1\n      swap2\n      div\n      mul\n      0x20\n      add\n      mload(0x40)\n      swap1\n      dup2\n      add\n      0x40\n      mstore\n      dup1\n      swap3\n      swap2\n      swap1\n      dup2\n      dup2\n      mstore\n      0x20\n      add\n      dup3\n      dup1\n      sload\n      tag_122\n      swap1\n      tag_111\n      jump\t// in\n    tag_122:\n      dup1\n      iszero\n      tag_123\n      jumpi\n      dup1\n      0x1f\n      lt\n      tag_124\n      jumpi\n      0x0100\n      dup1\n      dup4\n      sload\n      div\n      mul\n      dup4\n      mstore\n      swap2\n      0x20\n      add\n      swap2\n      jump(tag_123)\n    tag_124:\n      dup3\n      add\n      swap2\n      swap1\n      0x00\n      mstore\n      keccak256(0x00, 0x20)\n      swap1\n    tag_125:\n      dup2\n      sload\n      dup2\n      mstore\n      swap1\n      0x01\n      add\n      swap1\n      0x20\n      add\n      dup1\n      dup4\n      gt\n      tag_125\n      jumpi\n      dup3\n      swap1\n      sub\n      0x1f\n      and\n      dup3\n      add\n      swap2\n    tag_123:\n      pop\n      pop\n      pop\n      pop\n      pop\n      dup2\n      mstore\n      0x20\n      add\n      0x03\n      dup3\n      add\n      sload\n      dup2\n      mstore\n      0x20\n      add\n      0x04\n      dup3\n      add\n      sload\n      dup2\n      mstore\n      0x20\n      add\n      0x05\n      dup3\n      add\n      sload\n      dup2\n      mstore\n      0x20\n      add\n      0x06\n      dup3\n      add\n      sload\n      dup2\n      mstore\n      0x20\n      add\n      0x07\n      dup3\n      add\n      sload\n      dup2\n      mstore\n      0x20\n      add\n      0x08\n      dup3\n      add\n      0x00\n      swap1\n      sload\n      swap1\n      0x0100\n      exp\n      swap1\n      div\n      0xff\n      and\n      iszero\n      iszero\n      iszero\n      iszero\n      dup2\n      mstore\n      0x20\n      add\n      0x08\n      dup3\n      add\n      0x01\n      swap1\n      sload\n      swap1\n      0x0100\n      exp\n      swap1\n      div\n      0xff\n      and\n      iszero\n      iszero\n      iszero\n      iszero\n      dup2\n      mstore\n      0x20\n      add\n      0x08\n      dup3\n      add\n      0x02\n      swap1\n      sload\n      swap1\n      0x0100\n      exp\n      swap1\n      div\n      0xff\n      and\n      iszero\n      iszero\n      iszero\n      iszero\n      dup2\n      mstore\n      pop\n      pop\n      swap1\n      pop\n        /* \"wwcc-contracts/contracts/wwccPool.sol\":5247:5261  uint256 expect */\n      0x00\n        /* \"wwcc-contracts/contracts/wwccPool.sol\":5264:5330  (pool.wPool+pool.lPool+pool.dPool+pool.sPool + pool.basal).div(10) */\n      tag_126\n        /* \"wwcc-contracts/contracts/wwccPool.sol\":5327:5329  10 */\n      0x0a\n        /* \"wwcc-contracts/contracts/wwccPool.sol\":5311:5315  pool */\n      dup4\n        /* \"wwcc-contracts/contracts/wwccPool.sol\":5311:5321  pool.basal */\n      0xe0\n      add\n      mload\n        /* \"wwcc-contracts/contracts/wwccPool.sol\":5298:5302  pool */\n      dup5\n        /* \"wwcc-contracts/contracts/wwccPool.sol\":5298:5308  pool.sPool */\n      0xc0\n      add\n      mload\n        /* \"wwcc-contracts/contracts/wwccPool.sol\":5287:5291  pool */\n      dup6\n        /* \"wwcc-contracts/contracts/wwccPool.sol\":5287:5297  pool.dPool */\n      0x80\n      add\n      mload\n        /* \"wwcc-contracts/contracts/wwccPool.sol\":5276:5280  pool */\n      dup7\n        /* \"wwcc-contracts/contracts/wwccPool.sol\":5276:5286  pool.lPool */\n      0xa0\n      add\n      mload\n        /* \"wwcc-contracts/contracts/wwccPool.sol\":5265:5269  pool */\n      dup8\n        /* \"wwcc-contracts/contracts/wwccPool.sol\":5265:5275  pool.wPool */\n      0x60\n      add\n      mload\n        /* \"wwcc-contracts/contracts/wwccPool.sol\":5265:5286  pool.wPool+pool.lPool */\n      tag_127\n      swap2\n      swap1\n      tag_22\n      jump\t// in\n    tag_127:\n        /* \"wwcc-contracts/contracts/wwccPool.sol\":5265:5297  pool.wPool+pool.lPool+pool.dPool */\n      tag_128\n      swap2\n      swap1\n      tag_22\n      jump\t// in\n    tag_128:\n        /* \"wwcc-contracts/contracts/wwccPool.sol\":5265:5308  pool.wPool+pool.lPool+pool.dPool+pool.sPool */\n      tag_129\n      swap2\n      swap1\n      tag_22\n      jump\t// in\n    tag_129:\n        /* \"wwcc-contracts/contracts/wwccPool.sol\":5265:5321  pool.wPool+pool.lPool+pool.dPool+pool.sPool + pool.basal */\n      tag_130\n      swap2\n      swap1\n      tag_22\n      jump\t// in\n    tag_130:\n        /* \"wwcc-contracts/contracts/wwccPool.sol\":5264:5326  (pool.wPool+pool.lPool+pool.dPool+pool.sPool + pool.basal).div */\n      tag_20\n      swap1\n        /* \"wwcc-contracts/contracts/wwccPool.sol\":5264:5330  (pool.wPool+pool.lPool+pool.dPool+pool.sPool + pool.basal).div(10) */\n      swap2\n      swap1\n      0xffffffff\n      and\n      jump\t// in\n    tag_126:\n        /* \"wwcc-contracts/contracts/wwccPool.sol\":5247:5330  uint256 expect = (pool.wPool+pool.lPool+pool.dPool+pool.sPool + pool.basal).div(10) */\n      swap1\n      pop\n        /* \"wwcc-contracts/contracts/wwccPool.sol\":5368:5372  true */\n      0x01\n        /* \"wwcc-contracts/contracts/wwccPool.sol\":5352:5356  pool */\n      dup3\n        /* \"wwcc-contracts/contracts/wwccPool.sol\":5352:5365  pool.finished */\n      0x0140\n      add\n        /* \"wwcc-contracts/contracts/wwccPool.sol\":5352:5372  pool.finished = true */\n      swap1\n      iszero\n      iszero\n      swap1\n      dup2\n      iszero\n      iszero\n      dup2\n      mstore\n      pop\n        /* \"wwcc-contracts/contracts/wwccPool.sol\":5348:5600  if (pool.finished = true){... */\n      iszero\n      tag_131\n      jumpi\n        /* \"wwcc-contracts/contracts/wwccPool.sol\":5395:5428  address payable toAddress_address */\n      0x00\n        /* \"wwcc-contracts/contracts/wwccPool.sol\":5439:5448  toAddress */\n      dup6\n        /* \"wwcc-contracts/contracts/wwccPool.sol\":5395:5449  address payable toAddress_address = payable(toAddress) */\n      swap1\n      pop\n        /* \"wwcc-contracts/contracts/wwccPool.sol\":5471:5488  toAddress_address */\n      dup1\n        /* \"wwcc-contracts/contracts/wwccPool.sol\":5471:5497  toAddress_address.transfer */\n      0xffffffffffffffffffffffffffffffffffffffff\n      and\n        /* \"wwcc-contracts/contracts/wwccPool.sol\":5471:5505  toAddress_address.transfer(expect) */\n      0x08fc\n        /* \"wwcc-contracts/contracts/wwccPool.sol\":5498:5504  expect */\n      dup4\n        /* \"wwcc-contracts/contracts/wwccPool.sol\":5471:5505  toAddress_address.transfer(expect) */\n      swap1\n      dup2\n      iszero\n      mul\n      swap1\n      mload(0x40)\n      0x00\n      mload(0x40)\n      dup1\n      dup4\n      sub\n      dup2\n      dup6\n      dup9\n      dup9\n      call\n      swap4\n      pop\n      pop\n      pop\n      pop\n      iszero\n      dup1\n      iszero\n      tag_133\n      jumpi\n      returndatasize\n      0x00\n      dup1\n      returndatacopy\n      revert(0x00, returndatasize)\n    tag_133:\n      pop\n        /* \"wwcc-contracts/contracts/wwccPool.sol\":5373:5524  {... */\n      pop\n        /* \"wwcc-contracts/contracts/wwccPool.sol\":5348:5600  if (pool.finished = true){... */\n      jump(tag_134)\n    tag_131:\n        /* \"wwcc-contracts/contracts/wwccPool.sol\":5550:5581  revert(\"pool has not finished\") */\n      mload(0x40)\n      0x08c379a000000000000000000000000000000000000000000000000000000000\n      dup2\n      mstore\n      0x04\n      add\n      tag_135\n      swap1\n      tag_136\n      jump\t// in\n    tag_135:\n      mload(0x40)\n      dup1\n      swap2\n      sub\n      swap1\n      revert\n        /* \"wwcc-contracts/contracts/wwccPool.sol\":5348:5600  if (pool.finished = true){... */\n    tag_134:\n        /* \"wwcc-contracts/contracts/wwccPool.sol\":5174:5628  {... */\n      pop\n      pop\n        /* \"wwcc-contracts/contracts/wwccPool.sol\":5647:5651  true */\n      0x01\n        /* \"wwcc-contracts/contracts/wwccPool.sol\":5640:5651  return true */\n      swap1\n      pop\n        /* \"wwcc-contracts/contracts/wwccPool.sol\":4979:5658  function Withdrawal(address toAddress,bytes32 poolKey) external onlyManager payable returns (bool){... */\n      swap3\n      swap2\n      pop\n      pop\n      jump\t// out\n        /* \"wwcc-contracts/contracts/wwccPool.sol\":10621:10865  function withdrawBNBInContract(address toAddress)external onlyManager payable returns(bool){... */\n    tag_41:\n        /* \"wwcc-contracts/contracts/wwccPool.sol\":10707:10711  bool */\n      0x00\n        /* \"wwcc-contracts/contracts/wwccPool.sol\":13847:13852  owner */\n      dup1\n      0x00\n      swap1\n      sload\n      swap1\n      0x0100\n      exp\n      swap1\n      div\n      0xffffffffffffffffffffffffffffffffffffffff\n      and\n        /* \"wwcc-contracts/contracts/wwccPool.sol\":13833:13852  msg.sender == owner */\n      0xffffffffffffffffffffffffffffffffffffffff\n      and\n        /* \"wwcc-contracts/contracts/wwccPool.sol\":13833:13843  msg.sender */\n      caller\n        /* \"wwcc-contracts/contracts/wwccPool.sol\":13833:13852  msg.sender == owner */\n      0xffffffffffffffffffffffffffffffffffffffff\n      and\n      eq\n        /* \"wwcc-contracts/contracts/wwccPool.sol\":13812:13903  require(... */\n      tag_138\n      jumpi\n      mload(0x40)\n      0x08c379a000000000000000000000000000000000000000000000000000000000\n      dup2\n      mstore\n      0x04\n      add\n      tag_139\n      swap1\n      tag_98\n      jump\t// in\n    tag_139:\n      mload(0x40)\n      dup1\n      swap2\n      sub\n      swap1\n      revert\n    tag_138:\n        /* \"wwcc-contracts/contracts/wwccPool.sol\":10726:10759  address payable toAddress_address */\n      0x00\n        /* \"wwcc-contracts/contracts/wwccPool.sol\":10770:10779  toAddress */\n      dup3\n        /* \"wwcc-contracts/contracts/wwccPool.sol\":10726:10780  address payable toAddress_address = payable(toAddress) */\n      swap1\n      pop\n        /* \"wwcc-contracts/contracts/wwccPool.sol\":10794:10811  toAddress_address */\n      dup1\n        /* \"wwcc-contracts/contracts/wwccPool.sol\":10794:10820  toAddress_address.transfer */\n      0xffffffffffffffffffffffffffffffffffffffff\n      and\n        /* \"wwcc-contracts/contracts/wwccPool.sol\":10794:10833  toAddress_address.transfer(lastBNB - 1) */\n      0x08fc\n        /* \"wwcc-contracts/contracts/wwccPool.sol\":10831:10832  1 */\n      0x01\n        /* \"wwcc-contracts/contracts/wwccPool.sol\":10821:10828  lastBNB */\n      sload(0x03)\n        /* \"wwcc-contracts/contracts/wwccPool.sol\":10821:10832  lastBNB - 1 */\n      tag_141\n      swap2\n      swap1\n      tag_142\n      jump\t// in\n    tag_141:\n        /* \"wwcc-contracts/contracts/wwccPool.sol\":10794:10833  toAddress_address.transfer(lastBNB - 1) */\n      swap1\n      dup2\n      iszero\n      mul\n      swap1\n      mload(0x40)\n      0x00\n      mload(0x40)\n      dup1\n      dup4\n      sub\n      dup2\n      dup6\n      dup9\n      dup9\n      call\n      swap4\n      pop\n      pop\n      pop\n      pop\n      iszero\n      dup1\n      iszero\n      tag_144\n      jumpi\n      returndatasize\n      0x00\n      dup1\n      returndatacopy\n      revert(0x00, returndatasize)\n    tag_144:\n      pop\n        /* \"wwcc-contracts/contracts/wwccPool.sol\":10854:10858  true */\n      0x01\n        /* \"wwcc-contracts/contracts/wwccPool.sol\":10847:10858  return true */\n      swap2\n      pop\n      pop\n        /* \"wwcc-contracts/contracts/wwccPool.sol\":10621:10865  function withdrawBNBInContract(address toAddress)external onlyManager payable returns(bool){... */\n      swap2\n      swap1\n      pop\n      jump\t// out\n        /* \"wwcc-contracts/contracts/wwccPool.sol\":2039:3161  function Set_Pool(... */\n    tag_47:\n        /* \"wwcc-contracts/contracts/wwccPool.sol\":2186:2193  bytes32 */\n      0x00\n        /* \"wwcc-contracts/contracts/wwccPool.sol\":13847:13852  owner */\n      dup1\n      0x00\n      swap1\n      sload\n      swap1\n      0x0100\n      exp\n      swap1\n      div\n      0xffffffffffffffffffffffffffffffffffffffff\n      and\n        /* \"wwcc-contracts/contracts/wwccPool.sol\":13833:13852  msg.sender == owner */\n      0xffffffffffffffffffffffffffffffffffffffff\n      and\n        /* \"wwcc-contracts/contracts/wwccPool.sol\":13833:13843  msg.sender */\n      caller\n        /* \"wwcc-contracts/contracts/wwccPool.sol\":13833:13852  msg.sender == owner */\n      0xffffffffffffffffffffffffffffffffffffffff\n      and\n      eq\n        /* \"wwcc-contracts/contracts/wwccPool.sol\":13812:13903  require(... */\n      tag_146\n      jumpi\n      mload(0x40)\n      0x08c379a000000000000000000000000000000000000000000000000000000000\n      dup2\n      mstore\n      0x04\n      add\n      tag_147\n      swap1\n      tag_98\n      jump\t// in\n    tag_147:\n      mload(0x40)\n      dup1\n      swap2\n      sub\n      swap1\n      revert\n    tag_146:\n        /* \"wwcc-contracts/contracts/wwccPool.sol\":2204:2220  string memory s1 */\n      0x00\n        /* \"wwcc-contracts/contracts/wwccPool.sol\":2223:2244  strConcat(home,visit) */\n      tag_149\n        /* \"wwcc-contracts/contracts/wwccPool.sol\":2233:2237  home */\n      dup7\n        /* \"wwcc-contracts/contracts/wwccPool.sol\":2238:2243  visit */\n      dup7\n        /* \"wwcc-contracts/contracts/wwccPool.sol\":2223:2232  strConcat */\n      tag_150\n        /* \"wwcc-contracts/contracts/wwccPool.sol\":2223:2244  strConcat(home,visit) */\n      jump\t// in\n    tag_149:\n        /* \"wwcc-contracts/contracts/wwccPool.sol\":2204:2244  string memory s1 = strConcat(home,visit) */\n      swap1\n      pop\n        /* \"wwcc-contracts/contracts/wwccPool.sol\":2253:2269  string memory s2 */\n      0x00\n        /* \"wwcc-contracts/contracts/wwccPool.sol\":2272:2292  strConcat(s1,rounds) */\n      tag_151\n        /* \"wwcc-contracts/contracts/wwccPool.sol\":2282:2284  s1 */\n      dup3\n        /* \"wwcc-contracts/contracts/wwccPool.sol\":2285:2291  rounds */\n      dup7\n        /* \"wwcc-contracts/contracts/wwccPool.sol\":2272:2281  strConcat */\n      tag_150\n        /* \"wwcc-contracts/contracts/wwccPool.sol\":2272:2292  strConcat(s1,rounds) */\n      jump\t// in\n    tag_151:\n        /* \"wwcc-contracts/contracts/wwccPool.sol\":2253:2292  string memory s2 = strConcat(s1,rounds) */\n      swap1\n      pop\n        /* \"wwcc-contracts/contracts/wwccPool.sol\":2301:2325  string memory decidedStr */\n      0x60\n        /* \"wwcc-contracts/contracts/wwccPool.sol\":2349:2353  true */\n      0x01\n        /* \"wwcc-contracts/contracts/wwccPool.sol\":2338:2353  decided == true */\n      iszero\n      iszero\n        /* \"wwcc-contracts/contracts/wwccPool.sol\":2338:2345  decided */\n      dup6\n        /* \"wwcc-contracts/contracts/wwccPool.sol\":2338:2353  decided == true */\n      iszero\n      iszero\n      eq\n        /* \"wwcc-contracts/contracts/wwccPool.sol\":2334:2443  if (decided == true){... */\n      iszero\n      tag_152\n      jumpi\n        /* \"wwcc-contracts/contracts/wwccPool.sol\":2367:2386  decidedStr = \"true\" */\n      mload(0x40)\n      dup1\n      0x40\n      add\n      0x40\n      mstore\n      dup1\n      0x04\n      dup2\n      mstore\n      0x20\n      add\n      0x7472756500000000000000000000000000000000000000000000000000000000\n      dup2\n      mstore\n      pop\n      swap1\n      pop\n        /* \"wwcc-contracts/contracts/wwccPool.sol\":2334:2443  if (decided == true){... */\n      jump(tag_153)\n    tag_152:\n        /* \"wwcc-contracts/contracts/wwccPool.sol\":2413:2433  decidedStr = \"false\" */\n      mload(0x40)\n      dup1\n      0x40\n      add\n      0x40\n      mstore\n      dup1\n      0x05\n      dup2\n      mstore\n      0x20\n      add\n      0x66616c7365000000000000000000000000000000000000000000000000000000\n      dup2\n      mstore\n      pop\n      swap1\n      pop\n        /* \"wwcc-contracts/contracts/wwccPool.sol\":2334:2443  if (decided == true){... */\n    tag_153:\n        /* \"wwcc-contracts/contracts/wwccPool.sol\":2451:2467  string memory s3 */\n      0x00\n        /* \"wwcc-contracts/contracts/wwccPool.sol\":2470:2494  strConcat(s2,decidedStr) */\n      tag_154\n        /* \"wwcc-contracts/contracts/wwccPool.sol\":2480:2482  s2 */\n      dup4\n        /* \"wwcc-contracts/contracts/wwccPool.sol\":2483:2493  decidedStr */\n      dup4\n        /* \"wwcc-contracts/contracts/wwccPool.sol\":2470:2479  strConcat */\n      tag_150\n        /* \"wwcc-contracts/contracts/wwccPool.sol\":2470:2494  strConcat(s2,decidedStr) */\n      jump\t// in\n    tag_154:\n        /* \"wwcc-contracts/contracts/wwccPool.sol\":2451:2494  string memory s3 = strConcat(s2,decidedStr) */\n      swap1\n      pop\n        /* \"wwcc-contracts/contracts/wwccPool.sol\":2503:2518  bytes32 poolKey */\n      0x00\n        /* \"wwcc-contracts/contracts/wwccPool.sol\":2548:2550  s3 */\n      dup2\n        /* \"wwcc-contracts/contracts/wwccPool.sol\":2531:2551  abi.encodePacked(s3) */\n      add(0x20, mload(0x40))\n      tag_155\n      swap2\n      swap1\n      tag_156\n      jump\t// in\n    tag_155:\n      mload(0x40)\n      0x20\n      dup2\n      dup4\n      sub\n      sub\n      dup2\n      mstore\n      swap1\n      0x40\n      mstore\n        /* \"wwcc-contracts/contracts/wwccPool.sol\":2521:2552  keccak256(abi.encodePacked(s3)) */\n      dup1\n      mload\n      swap1\n      0x20\n      add\n      keccak256\n        /* \"wwcc-contracts/contracts/wwccPool.sol\":2503:2552  bytes32 poolKey = keccak256(abi.encodePacked(s3)) */\n      swap1\n      pop\n        /* \"wwcc-contracts/contracts/wwccPool.sol\":2564:2581  contains(poolKey) */\n      tag_157\n        /* \"wwcc-contracts/contracts/wwccPool.sol\":2573:2580  poolKey */\n      dup2\n        /* \"wwcc-contracts/contracts/wwccPool.sol\":2564:2572  contains */\n      tag_105\n        /* \"wwcc-contracts/contracts/wwccPool.sol\":2564:2581  contains(poolKey) */\n      jump\t// in\n    tag_157:\n        /* \"wwcc-contracts/contracts/wwccPool.sol\":2561:3101  if(contains(poolKey)) { ... */\n      iszero\n      tag_158\n      jumpi\n        /* \"wwcc-contracts/contracts/wwccPool.sol\":2598:2618  revert(\"pair exist\") */\n      mload(0x40)\n      0x08c379a000000000000000000000000000000000000000000000000000000000\n      dup2\n      mstore\n      0x04\n      add\n      tag_159\n      swap1\n      tag_160\n      jump\t// in\n    tag_159:\n      mload(0x40)\n      dup1\n      swap2\n      sub\n      swap1\n      revert\n        /* \"wwcc-contracts/contracts/wwccPool.sol\":2561:3101  if(contains(poolKey)) { ... */\n    tag_158:\n        /* \"wwcc-contracts/contracts/wwccPool.sol\":2669:2673  true */\n      0x01\n        /* \"wwcc-contracts/contracts/wwccPool.sol\":2645:2652  WcPools */\n      0x05\n        /* \"wwcc-contracts/contracts/wwccPool.sol\":2645:2661  WcPools[poolKey] */\n      0x00\n        /* \"wwcc-contracts/contracts/wwccPool.sol\":2653:2660  poolKey */\n      dup4\n        /* \"wwcc-contracts/contracts/wwccPool.sol\":2645:2661  WcPools[poolKey] */\n      dup2\n      mstore\n      0x20\n      add\n      swap1\n      dup2\n      mstore\n      0x20\n      add\n      0x00\n      keccak256\n        /* \"wwcc-contracts/contracts/wwccPool.sol\":2645:2666  WcPools[poolKey].used */\n      0x08\n      add\n      0x01\n        /* \"wwcc-contracts/contracts/wwccPool.sol\":2645:2673  WcPools[poolKey].used = true */\n      0x0100\n      exp\n      dup2\n      sload\n      dup2\n      0xff\n      mul\n      not\n      and\n      swap1\n      dup4\n      iszero\n      iszero\n      mul\n      or\n      swap1\n      sstore\n      pop\n        /* \"wwcc-contracts/contracts/wwccPool.sol\":2710:2714  home */\n      dup10\n        /* \"wwcc-contracts/contracts/wwccPool.sol\":2686:2693  WcPools */\n      0x05\n        /* \"wwcc-contracts/contracts/wwccPool.sol\":2686:2702  WcPools[poolKey] */\n      0x00\n        /* \"wwcc-contracts/contracts/wwccPool.sol\":2694:2701  poolKey */\n      dup4\n        /* \"wwcc-contracts/contracts/wwccPool.sol\":2686:2702  WcPools[poolKey] */\n      dup2\n      mstore\n      0x20\n      add\n      swap1\n      dup2\n      mstore\n      0x20\n      add\n      0x00\n      keccak256\n        /* \"wwcc-contracts/contracts/wwccPool.sol\":2686:2707  WcPools[poolKey].home */\n      0x00\n      add\n        /* \"wwcc-contracts/contracts/wwccPool.sol\":2686:2714  WcPools[poolKey].home = home */\n      swap1\n      dup1\n      mload\n      swap1\n      0x20\n      add\n      swap1\n      tag_162\n      swap3\n      swap2\n      swap1\n      tag_163\n      jump\t// in\n    tag_162:\n      pop\n        /* \"wwcc-contracts/contracts/wwccPool.sol\":2752:2757  visit */\n      dup9\n        /* \"wwcc-contracts/contracts/wwccPool.sol\":2727:2734  WcPools */\n      0x05\n        /* \"wwcc-contracts/contracts/wwccPool.sol\":2727:2743  WcPools[poolKey] */\n      0x00\n        /* \"wwcc-contracts/contracts/wwccPool.sol\":2735:2742  poolKey */\n      dup4\n        /* \"wwcc-contracts/contracts/wwccPool.sol\":2727:2743  WcPools[poolKey] */\n      dup2\n      mstore\n      0x20\n      add\n      swap1\n      dup2\n      mstore\n      0x20\n      add\n      0x00\n      keccak256\n        /* \"wwcc-contracts/contracts/wwccPool.sol\":2727:2749  WcPools[poolKey].visit */\n      0x01\n      add\n        /* \"wwcc-contracts/contracts/wwccPool.sol\":2727:2757  WcPools[poolKey].visit = visit */\n      swap1\n      dup1\n      mload\n      swap1\n      0x20\n      add\n      swap1\n      tag_164\n      swap3\n      swap2\n      swap1\n      tag_163\n      jump\t// in\n    tag_164:\n      pop\n        /* \"wwcc-contracts/contracts/wwccPool.sol\":2796:2802  rounds */\n      dup8\n        /* \"wwcc-contracts/contracts/wwccPool.sol\":2770:2777  WcPools */\n      0x05\n        /* \"wwcc-contracts/contracts/wwccPool.sol\":2770:2786  WcPools[poolKey] */\n      0x00\n        /* \"wwcc-contracts/contracts/wwccPool.sol\":2778:2785  poolKey */\n      dup4\n        /* \"wwcc-contracts/contracts/wwccPool.sol\":2770:2786  WcPools[poolKey] */\n      dup2\n      mstore\n      0x20\n      add\n      swap1\n      dup2\n      mstore\n      0x20\n      add\n      0x00\n      keccak256\n        /* \"wwcc-contracts/contracts/wwccPool.sol\":2770:2793  WcPools[poolKey].rounds */\n      0x02\n      add\n        /* \"wwcc-contracts/contracts/wwccPool.sol\":2770:2802  WcPools[poolKey].rounds = rounds */\n      swap1\n      dup1\n      mload\n      swap1\n      0x20\n      add\n      swap1\n      tag_165\n      swap3\n      swap2\n      swap1\n      tag_163\n      jump\t// in\n    tag_165:\n      pop\n        /* \"wwcc-contracts/contracts/wwccPool.sol\":2840:2841  0 */\n      0x00\n        /* \"wwcc-contracts/contracts/wwccPool.sol\":2815:2822  WcPools */\n      0x05\n        /* \"wwcc-contracts/contracts/wwccPool.sol\":2815:2831  WcPools[poolKey] */\n      0x00\n        /* \"wwcc-contracts/contracts/wwccPool.sol\":2823:2830  poolKey */\n      dup4\n        /* \"wwcc-contracts/contracts/wwccPool.sol\":2815:2831  WcPools[poolKey] */\n      dup2\n      mstore\n      0x20\n      add\n      swap1\n      dup2\n      mstore\n      0x20\n      add\n      0x00\n      keccak256\n        /* \"wwcc-contracts/contracts/wwccPool.sol\":2815:2837  WcPools[poolKey].wPool */\n      0x03\n      add\n        /* \"wwcc-contracts/contracts/wwccPool.sol\":2815:2841  WcPools[poolKey].wPool = 0 */\n      dup2\n      swap1\n      sstore\n      pop\n        /* \"wwcc-contracts/contracts/wwccPool.sol\":2879:2880  0 */\n      0x00\n        /* \"wwcc-contracts/contracts/wwccPool.sol\":2854:2861  WcPools */\n      0x05\n        /* \"wwcc-contracts/contracts/wwccPool.sol\":2854:2870  WcPools[poolKey] */\n      0x00\n        /* \"wwcc-contracts/contracts/wwccPool.sol\":2862:2869  poolKey */\n      dup4\n        /* \"wwcc-contracts/contracts/wwccPool.sol\":2854:2870  WcPools[poolKey] */\n      dup2\n      mstore\n      0x20\n      add\n      swap1\n      dup2\n      mstore\n      0x20\n      add\n      0x00\n      keccak256\n        /* \"wwcc-contracts/contracts/wwccPool.sol\":2854:2876  WcPools[poolKey].dPool */\n      0x04\n      add\n        /* \"wwcc-contracts/contracts/wwccPool.sol\":2854:2880  WcPools[poolKey].dPool = 0 */\n      dup2\n      swap1\n      sstore\n      pop\n        /* \"wwcc-contracts/contracts/wwccPool.sol\":2918:2919  0 */\n      0x00\n        /* \"wwcc-contracts/contracts/wwccPool.sol\":2893:2900  WcPools */\n      0x05\n        /* \"wwcc-contracts/contracts/wwccPool.sol\":2893:2909  WcPools[poolKey] */\n      0x00\n        /* \"wwcc-contracts/contracts/wwccPool.sol\":2901:2908  poolKey */\n      dup4\n        /* \"wwcc-contracts/contracts/wwccPool.sol\":2893:2909  WcPools[poolKey] */\n      dup2\n      mstore\n      0x20\n      add\n      swap1\n      dup2\n      mstore\n      0x20\n      add\n      0x00\n      keccak256\n        /* \"wwcc-contracts/contracts/wwccPool.sol\":2893:2915  WcPools[poolKey].lPool */\n      0x05\n      add\n        /* \"wwcc-contracts/contracts/wwccPool.sol\":2893:2919  WcPools[poolKey].lPool = 0 */\n      dup2\n      swap1\n      sstore\n      pop\n        /* \"wwcc-contracts/contracts/wwccPool.sol\":2957:2958  0 */\n      0x00\n        /* \"wwcc-contracts/contracts/wwccPool.sol\":2932:2939  WcPools */\n      0x05\n        /* \"wwcc-contracts/contracts/wwccPool.sol\":2932:2948  WcPools[poolKey] */\n      0x00\n        /* \"wwcc-contracts/contracts/wwccPool.sol\":2940:2947  poolKey */\n      dup4\n        /* \"wwcc-contracts/contracts/wwccPool.sol\":2932:2948  WcPools[poolKey] */\n      dup2\n      mstore\n      0x20\n      add\n      swap1\n      dup2\n      mstore\n      0x20\n      add\n      0x00\n      keccak256\n        /* \"wwcc-contracts/contracts/wwccPool.sol\":2932:2954  WcPools[poolKey].sPool */\n      0x06\n      add\n        /* \"wwcc-contracts/contracts/wwccPool.sol\":2932:2958  WcPools[poolKey].sPool = 0 */\n      dup2\n      swap1\n      sstore\n      pop\n        /* \"wwcc-contracts/contracts/wwccPool.sol\":2996:2997  0 */\n      0x00\n        /* \"wwcc-contracts/contracts/wwccPool.sol\":2971:2978  WcPools */\n      0x05\n        /* \"wwcc-contracts/contracts/wwccPool.sol\":2971:2987  WcPools[poolKey] */\n      0x00\n        /* \"wwcc-contracts/contracts/wwccPool.sol\":2979:2986  poolKey */\n      dup4\n        /* \"wwcc-contracts/contracts/wwccPool.sol\":2971:2987  WcPools[poolKey] */\n      dup2\n      mstore\n      0x20\n      add\n      swap1\n      dup2\n      mstore\n      0x20\n      add\n      0x00\n      keccak256\n        /* \"wwcc-contracts/contracts/wwccPool.sol\":2971:2993  WcPools[poolKey].basal */\n      0x07\n      add\n        /* \"wwcc-contracts/contracts/wwccPool.sol\":2971:2997  WcPools[poolKey].basal = 0 */\n      dup2\n      swap1\n      sstore\n      pop\n        /* \"wwcc-contracts/contracts/wwccPool.sol\":3037:3044  decided */\n      dup7\n        /* \"wwcc-contracts/contracts/wwccPool.sol\":3010:3017  WcPools */\n      0x05\n        /* \"wwcc-contracts/contracts/wwccPool.sol\":3010:3026  WcPools[poolKey] */\n      0x00\n        /* \"wwcc-contracts/contracts/wwccPool.sol\":3018:3025  poolKey */\n      dup4\n        /* \"wwcc-contracts/contracts/wwccPool.sol\":3010:3026  WcPools[poolKey] */\n      dup2\n      mstore\n      0x20\n      add\n      swap1\n      dup2\n      mstore\n      0x20\n      add\n      0x00\n      keccak256\n        /* \"wwcc-contracts/contracts/wwccPool.sol\":3010:3034  WcPools[poolKey].decided */\n      0x08\n      add\n      0x00\n        /* \"wwcc-contracts/contracts/wwccPool.sol\":3010:3044  WcPools[poolKey].decided = decided */\n      0x0100\n      exp\n      dup2\n      sload\n      dup2\n      0xff\n      mul\n      not\n      and\n      swap1\n      dup4\n      iszero\n      iszero\n      mul\n      or\n      swap1\n      sstore\n      pop\n        /* \"wwcc-contracts/contracts/wwccPool.sol\":3085:3090  false */\n      0x00\n        /* \"wwcc-contracts/contracts/wwccPool.sol\":3057:3064  WcPools */\n      0x05\n        /* \"wwcc-contracts/contracts/wwccPool.sol\":3057:3073  WcPools[poolKey] */\n      0x00\n        /* \"wwcc-contracts/contracts/wwccPool.sol\":3065:3072  poolKey */\n      dup4\n        /* \"wwcc-contracts/contracts/wwccPool.sol\":3057:3073  WcPools[poolKey] */\n      dup2\n      mstore\n      0x20\n      add\n      swap1\n      dup2\n      mstore\n      0x20\n      add\n      0x00\n      keccak256\n        /* \"wwcc-contracts/contracts/wwccPool.sol\":3057:3082  WcPools[poolKey].finished */\n      0x08\n      add\n      0x02\n        /* \"wwcc-contracts/contracts/wwccPool.sol\":3057:3090  WcPools[poolKey].finished = false */\n      0x0100\n      exp\n      dup2\n      sload\n      dup2\n      0xff\n      mul\n      not\n      and\n      swap1\n      dup4\n      iszero\n      iszero\n      mul\n      or\n      swap1\n      sstore\n      pop\n        /* \"wwcc-contracts/contracts/wwccPool.sol\":3109:3117  poolKeys */\n      0x02\n        /* \"wwcc-contracts/contracts/wwccPool.sol\":3123:3130  poolKey */\n      dup2\n        /* \"wwcc-contracts/contracts/wwccPool.sol\":3109:3131  poolKeys.push(poolKey) */\n      swap1\n      dup1\n      0x01\n      dup2\n      sload\n      add\n      dup1\n      dup3\n      sstore\n      dup1\n      swap2\n      pop\n      pop\n      0x01\n      swap1\n      sub\n      swap1\n      0x00\n      mstore\n      keccak256(0x00, 0x20)\n      add\n      0x00\n      swap1\n      swap2\n      swap1\n      swap2\n      swap1\n      swap2\n      pop\n      sstore\n        /* \"wwcc-contracts/contracts/wwccPool.sol\":3147:3154  poolKey */\n      dup1\n        /* \"wwcc-contracts/contracts/wwccPool.sol\":3140:3154  return poolKey */\n      swap6\n      pop\n      pop\n      pop\n      pop\n      pop\n      pop\n        /* \"wwcc-contracts/contracts/wwccPool.sol\":2039:3161  function Set_Pool(... */\n      swap5\n      swap4\n      pop\n      pop\n      pop\n      pop\n      jump\t// out\n        /* \"wwcc-contracts/contracts/wwccPool.sol\":6835:6941  function CheckBasal() external onlyManager view  returns (uint256){... */\n    tag_52:\n        /* \"wwcc-contracts/contracts/wwccPool.sol\":6893:6900  uint256 */\n      0x00\n        /* \"wwcc-contracts/contracts/wwccPool.sol\":13847:13852  owner */\n      dup1\n      0x00\n      swap1\n      sload\n      swap1\n      0x0100\n      exp\n      swap1\n      div\n      0xffffffffffffffffffffffffffffffffffffffff\n      and\n        /* \"wwcc-contracts/contracts/wwccPool.sol\":13833:13852  msg.sender == owner */\n      0xffffffffffffffffffffffffffffffffffffffff\n      and\n        /* \"wwcc-contracts/contracts/wwccPool.sol\":13833:13843  msg.sender */\n      caller\n        /* \"wwcc-contracts/contracts/wwccPool.sol\":13833:13852  msg.sender == owner */\n      0xffffffffffffffffffffffffffffffffffffffff\n      and\n      eq\n        /* \"wwcc-contracts/contracts/wwccPool.sol\":13812:13903  require(... */\n      tag_168\n      jumpi\n      mload(0x40)\n      0x08c379a000000000000000000000000000000000000000000000000000000000\n      dup2\n      mstore\n      0x04\n      add\n      tag_169\n      swap1\n      tag_98\n      jump\t// in\n    tag_169:\n      mload(0x40)\n      dup1\n      swap2\n      sub\n      swap1\n      revert\n    tag_168:\n        /* \"wwcc-contracts/contracts/wwccPool.sol\":6921:6934  nextBasalLast */\n      sload(0x01)\n        /* \"wwcc-contracts/contracts/wwccPool.sol\":6914:6934  return nextBasalLast */\n      swap1\n      pop\n        /* \"wwcc-contracts/contracts/wwccPool.sol\":6835:6941  function CheckBasal() external onlyManager view  returns (uint256){... */\n      swap1\n      jump\t// out\n        /* \"wwcc-contracts/contracts/wwccPool.sol\":6197:6569  function CheckExpect(bytes32 poolKey) external onlyManager view  returns (uint256){... */\n    tag_58:\n        /* \"wwcc-contracts/contracts/wwccPool.sol\":6271:6278  uint256 */\n      0x00\n        /* \"wwcc-contracts/contracts/wwccPool.sol\":13847:13852  owner */\n      dup1\n      0x00\n      swap1\n      sload\n      swap1\n      0x0100\n      exp\n      swap1\n      div\n      0xffffffffffffffffffffffffffffffffffffffff\n      and\n        /* \"wwcc-contracts/contracts/wwccPool.sol\":13833:13852  msg.sender == owner */\n      0xffffffffffffffffffffffffffffffffffffffff\n      and\n        /* \"wwcc-contracts/contracts/wwccPool.sol\":13833:13843  msg.sender */\n      caller\n        /* \"wwcc-contracts/contracts/wwccPool.sol\":13833:13852  msg.sender == owner */\n      0xffffffffffffffffffffffffffffffffffffffff\n      and\n      eq\n        /* \"wwcc-contracts/contracts/wwccPool.sol\":13812:13903  require(... */\n      tag_172\n      jumpi\n      mload(0x40)\n      0x08c379a000000000000000000000000000000000000000000000000000000000\n      dup2\n      mstore\n      0x04\n      add\n      tag_173\n      swap1\n      tag_98\n      jump\t// in\n    tag_173:\n      mload(0x40)\n      dup1\n      swap2\n      sub\n      swap1\n      revert\n    tag_172:\n        /* \"wwcc-contracts/contracts/wwccPool.sol\":6293:6310  contains(poolKey) */\n      tag_175\n        /* \"wwcc-contracts/contracts/wwccPool.sol\":6302:6309  poolKey */\n      dup3\n        /* \"wwcc-contracts/contracts/wwccPool.sol\":6293:6301  contains */\n      tag_105\n        /* \"wwcc-contracts/contracts/wwccPool.sol\":6293:6310  contains(poolKey) */\n      jump\t// in\n    tag_175:\n        /* \"wwcc-contracts/contracts/wwccPool.sol\":6289:6563  if(!contains(poolKey)) { ... */\n      tag_176\n      jumpi\n        /* \"wwcc-contracts/contracts/wwccPool.sol\":6327:6351  revert(\"pool not exist\") */\n      mload(0x40)\n      0x08c379a000000000000000000000000000000000000000000000000000000000\n      dup2\n      mstore\n      0x04\n      add\n      tag_177\n      swap1\n      tag_108\n      jump\t// in\n    tag_177:\n      mload(0x40)\n      dup1\n      swap2\n      sub\n      swap1\n      revert\n        /* \"wwcc-contracts/contracts/wwccPool.sol\":6289:6563  if(!contains(poolKey)) { ... */\n    tag_176:\n        /* \"wwcc-contracts/contracts/wwccPool.sol\":6379:6397  WcPool memory pool */\n      0x00\n        /* \"wwcc-contracts/contracts/wwccPool.sol\":6400:6407  WcPools */\n      0x05\n        /* \"wwcc-contracts/contracts/wwccPool.sol\":6400:6416  WcPools[poolKey] */\n      0x00\n        /* \"wwcc-contracts/contracts/wwccPool.sol\":6408:6415  poolKey */\n      dup5\n        /* \"wwcc-contracts/contracts/wwccPool.sol\":6400:6416  WcPools[poolKey] */\n      dup2\n      mstore\n      0x20\n      add\n      swap1\n      dup2\n      mstore\n      0x20\n      add\n      0x00\n      keccak256\n        /* \"wwcc-contracts/contracts/wwccPool.sol\":6379:6416  WcPool memory pool = WcPools[poolKey] */\n      mload(0x40)\n      dup1\n      0x0160\n      add\n      0x40\n      mstore\n      swap1\n      dup2\n      0x00\n      dup3\n      add\n      dup1\n      sload\n      tag_179\n      swap1\n      tag_111\n      jump\t// in\n    tag_179:\n      dup1\n      0x1f\n      add\n      0x20\n      dup1\n      swap2\n      div\n      mul\n      0x20\n      add\n      mload(0x40)\n      swap1\n      dup2\n      add\n      0x40\n      mstore\n      dup1\n      swap3\n      swap2\n      swap1\n      dup2\n      dup2\n      mstore\n      0x20\n      add\n      dup3\n      dup1\n      sload\n      tag_180\n      swap1\n      tag_111\n      jump\t// in\n    tag_180:\n      dup1\n      iszero\n      tag_181\n      jumpi\n      dup1\n      0x1f\n      lt\n      tag_182\n      jumpi\n      0x0100\n      dup1\n      dup4\n      sload\n      div\n      mul\n      dup4\n      mstore\n      swap2\n      0x20\n      add\n      swap2\n      jump(tag_181)\n    tag_182:\n      dup3\n      add\n      swap2\n      swap1\n      0x00\n      mstore\n      keccak256(0x00, 0x20)\n      swap1\n    tag_183:\n      dup2\n      sload\n      dup2\n      mstore\n      swap1\n      0x01\n      add\n      swap1\n      0x20\n      add\n      dup1\n      dup4\n      gt\n      tag_183\n      jumpi\n      dup3\n      swap1\n      sub\n      0x1f\n      and\n      dup3\n      add\n      swap2\n    tag_181:\n      pop\n      pop\n      pop\n      pop\n      pop\n      dup2\n      mstore\n      0x20\n      add\n      0x01\n      dup3\n      add\n      dup1\n      sload\n      tag_184\n      swap1\n      tag_111\n      jump\t// in\n    tag_184:\n      dup1\n      0x1f\n      add\n      0x20\n      dup1\n      swap2\n      div\n      mul\n      0x20\n      add\n      mload(0x40)\n      swap1\n      dup2\n      add\n      0x40\n      mstore\n      dup1\n      swap3\n      swap2\n      swap1\n      dup2\n      dup2\n      mstore\n      0x20\n      add\n      dup3\n      dup1\n      sload\n      tag_185\n      swap1\n      tag_111\n      jump\t// in\n    tag_185:\n      dup1\n      iszero\n      tag_186\n      jumpi\n      dup1\n      0x1f\n      lt\n      tag_187\n      jumpi\n      0x0100\n      dup1\n      dup4\n      sload\n      div\n      mul\n      dup4\n      mstore\n      swap2\n      0x20\n      add\n      swap2\n      jump(tag_186)\n    tag_187:\n      dup3\n      add\n      swap2\n      swap1\n      0x00\n      mstore\n      keccak256(0x00, 0x20)\n      swap1\n    tag_188:\n      dup2\n      sload\n      dup2\n      mstore\n      swap1\n      0x01\n      add\n      swap1\n      0x20\n      add\n      dup1\n      dup4\n      gt\n      tag_188\n      jumpi\n      dup3\n      swap1\n      sub\n      0x1f\n      and\n      dup3\n      add\n      swap2\n    tag_186:\n      pop\n      pop\n      pop\n      pop\n      pop\n      dup2\n      mstore\n      0x20\n      add\n      0x02\n      dup3\n      add\n      dup1\n      sload\n      tag_189\n      swap1\n      tag_111\n      jump\t// in\n    tag_189:\n      dup1\n      0x1f\n      add\n      0x20\n      dup1\n      swap2\n      div\n      mul\n      0x20\n      add\n      mload(0x40)\n      swap1\n      dup2\n      add\n      0x40\n      mstore\n      dup1\n      swap3\n      swap2\n      swap1\n      dup2\n      dup2\n      mstore\n      0x20\n      add\n      dup3\n      dup1\n      sload\n      tag_190\n      swap1\n      tag_111\n      jump\t// in\n    tag_190:\n      dup1\n      iszero\n      tag_191\n      jumpi\n      dup1\n      0x1f\n      lt\n      tag_192\n      jumpi\n      0x0100\n      dup1\n      dup4\n      sload\n      div\n      mul\n      dup4\n      mstore\n      swap2\n      0x20\n      add\n      swap2\n      jump(tag_191)\n    tag_192:\n      dup3\n      add\n      swap2\n      swap1\n      0x00\n      mstore\n      keccak256(0x00, 0x20)\n      swap1\n    tag_193:\n      dup2\n      sload\n      dup2\n      mstore\n      swap1\n      0x01\n      add\n      swap1\n      0x20\n      add\n      dup1\n      dup4\n      gt\n      tag_193\n      jumpi\n      dup3\n      swap1\n      sub\n      0x1f\n      and\n      dup3\n      add\n      swap2\n    tag_191:\n      pop\n      pop\n      pop\n      pop\n      pop\n      dup2\n      mstore\n      0x20\n      add\n      0x03\n      dup3\n      add\n      sload\n      dup2\n      mstore\n      0x20\n      add\n      0x04\n      dup3\n      add\n      sload\n      dup2\n      mstore\n      0x20\n      add\n      0x05\n      dup3\n      add\n      sload\n      dup2\n      mstore\n      0x20\n      add\n      0x06\n      dup3\n      add\n      sload\n      dup2\n      mstore\n      0x20\n      add\n      0x07\n      dup3\n      add\n      sload\n      dup2\n      mstore\n      0x20\n      add\n      0x08\n      dup3\n      add\n      0x00\n      swap1\n      sload\n      swap1\n      0x0100\n      exp\n      swap1\n      div\n      0xff\n      and\n      iszero\n      iszero\n      iszero\n      iszero\n      dup2\n      mstore\n      0x20\n      add\n      0x08\n      dup3\n      add\n      0x01\n      swap1\n      sload\n      swap1\n      0x0100\n      exp\n      swap1\n      div\n      0xff\n      and\n      iszero\n      iszero\n      iszero\n      iszero\n      dup2\n      mstore\n      0x20\n      add\n      0x08\n      dup3\n      add\n      0x02\n      swap1\n      sload\n      swap1\n      0x0100\n      exp\n      swap1\n      div\n      0xff\n      and\n      iszero\n      iszero\n      iszero\n      iszero\n      dup2\n      mstore\n      pop\n      pop\n      swap1\n      pop\n        /* \"wwcc-contracts/contracts/wwccPool.sol\":6429:6443  uint256 expect */\n      0x00\n        /* \"wwcc-contracts/contracts/wwccPool.sol\":6446:6526  (pool.wPool+pool.lPool+pool.dPool+pool.sPool + pool.basal).mul(1000000000000000) */\n      tag_194\n        /* \"wwcc-contracts/contracts/wwccPool.sol\":6509:6525  1000000000000000 */\n      0x038d7ea4c68000\n        /* \"wwcc-contracts/contracts/wwccPool.sol\":6493:6497  pool */\n      dup4\n        /* \"wwcc-contracts/contracts/wwccPool.sol\":6493:6503  pool.basal */\n      0xe0\n      add\n      mload\n        /* \"wwcc-contracts/contracts/wwccPool.sol\":6480:6484  pool */\n      dup5\n        /* \"wwcc-contracts/contracts/wwccPool.sol\":6480:6490  pool.sPool */\n      0xc0\n      add\n      mload\n        /* \"wwcc-contracts/contracts/wwccPool.sol\":6469:6473  pool */\n      dup6\n        /* \"wwcc-contracts/contracts/wwccPool.sol\":6469:6479  pool.dPool */\n      0x80\n      add\n      mload\n        /* \"wwcc-contracts/contracts/wwccPool.sol\":6458:6462  pool */\n      dup7\n        /* \"wwcc-contracts/contracts/wwccPool.sol\":6458:6468  pool.lPool */\n      0xa0\n      add\n      mload\n        /* \"wwcc-contracts/contracts/wwccPool.sol\":6447:6451  pool */\n      dup8\n        /* \"wwcc-contracts/contracts/wwccPool.sol\":6447:6457  pool.wPool */\n      0x60\n      add\n      mload\n        /* \"wwcc-contracts/contracts/wwccPool.sol\":6447:6468  pool.wPool+pool.lPool */\n      tag_195\n      swap2\n      swap1\n      tag_22\n      jump\t// in\n    tag_195:\n        /* \"wwcc-contracts/contracts/wwccPool.sol\":6447:6479  pool.wPool+pool.lPool+pool.dPool */\n      tag_196\n      swap2\n      swap1\n      tag_22\n      jump\t// in\n    tag_196:\n        /* \"wwcc-contracts/contracts/wwccPool.sol\":6447:6490  pool.wPool+pool.lPool+pool.dPool+pool.sPool */\n      tag_197\n      swap2\n      swap1\n      tag_22\n      jump\t// in\n    tag_197:\n        /* \"wwcc-contracts/contracts/wwccPool.sol\":6447:6503  pool.wPool+pool.lPool+pool.dPool+pool.sPool + pool.basal */\n      tag_198\n      swap2\n      swap1\n      tag_22\n      jump\t// in\n    tag_198:\n        /* \"wwcc-contracts/contracts/wwccPool.sol\":6446:6508  (pool.wPool+pool.lPool+pool.dPool+pool.sPool + pool.basal).mul */\n      tag_199\n      swap1\n        /* \"wwcc-contracts/contracts/wwccPool.sol\":6446:6526  (pool.wPool+pool.lPool+pool.dPool+pool.sPool + pool.basal).mul(1000000000000000) */\n      swap2\n      swap1\n      0xffffffff\n      and\n      jump\t// in\n    tag_194:\n        /* \"wwcc-contracts/contracts/wwccPool.sol\":6429:6526  uint256 expect = (pool.wPool+pool.lPool+pool.dPool+pool.sPool + pool.basal).mul(1000000000000000) */\n      swap1\n      pop\n        /* \"wwcc-contracts/contracts/wwccPool.sol\":6546:6552  expect */\n      dup1\n        /* \"wwcc-contracts/contracts/wwccPool.sol\":6539:6552  return expect */\n      swap3\n      pop\n      pop\n      pop\n        /* \"wwcc-contracts/contracts/wwccPool.sol\":6197:6569  function CheckExpect(bytes32 poolKey) external onlyManager view  returns (uint256){... */\n      swap2\n      swap1\n      pop\n      jump\t// out\n        /* \"wwcc-contracts/contracts/wwccPool.sol\":3184:4936  function Picking(address joiner,uint256 weight,bytes32 poolKey,uint256 homeScore,uint256 visitScore,uint256 kind) external returns(bool){... */\n    tag_64:\n        /* \"wwcc-contracts/contracts/wwccPool.sol\":3315:3319  bool */\n      0x00\n        /* \"wwcc-contracts/contracts/wwccPool.sol\":3334:3351  contains(poolKey) */\n      tag_201\n        /* \"wwcc-contracts/contracts/wwccPool.sol\":3343:3350  poolKey */\n      dup6\n        /* \"wwcc-contracts/contracts/wwccPool.sol\":3334:3342  contains */\n      tag_105\n        /* \"wwcc-contracts/contracts/wwccPool.sol\":3334:3351  contains(poolKey) */\n      jump\t// in\n    tag_201:\n        /* \"wwcc-contracts/contracts/wwccPool.sol\":3330:4910  if(!contains(poolKey)) { ... */\n      tag_202\n      jumpi\n        /* \"wwcc-contracts/contracts/wwccPool.sol\":3368:3392  revert(\"pool not exist\") */\n      mload(0x40)\n      0x08c379a000000000000000000000000000000000000000000000000000000000\n      dup2\n      mstore\n      0x04\n      add\n      tag_203\n      swap1\n      tag_108\n      jump\t// in\n    tag_203:\n      mload(0x40)\n      dup1\n      swap2\n      sub\n      swap1\n      revert\n        /* \"wwcc-contracts/contracts/wwccPool.sol\":3330:4910  if(!contains(poolKey)) { ... */\n    tag_202:\n        /* \"wwcc-contracts/contracts/wwccPool.sol\":3441:3447  weight */\n      dup6\n        /* \"wwcc-contracts/contracts/wwccPool.sol\":3422:3432  voteAmount */\n      0x04\n        /* \"wwcc-contracts/contracts/wwccPool.sol\":3422:3440  voteAmount[joiner] */\n      0x00\n        /* \"wwcc-contracts/contracts/wwccPool.sol\":3433:3439  joiner */\n      dup10\n        /* \"wwcc-contracts/contracts/wwccPool.sol\":3422:3440  voteAmount[joiner] */\n      0xffffffffffffffffffffffffffffffffffffffff\n      and\n      0xffffffffffffffffffffffffffffffffffffffff\n      and\n      dup2\n      mstore\n      0x20\n      add\n      swap1\n      dup2\n      mstore\n      0x20\n      add\n      0x00\n      keccak256\n      sload\n        /* \"wwcc-contracts/contracts/wwccPool.sol\":3422:3447  voteAmount[joiner]<weight */\n      lt\n        /* \"wwcc-contracts/contracts/wwccPool.sol\":3419:3510  if(voteAmount[joiner]<weight){... */\n      iszero\n      tag_205\n      jumpi\n        /* \"wwcc-contracts/contracts/wwccPool.sol\":3465:3496  revert(\"not enough voteAmount\") */\n      mload(0x40)\n      0x08c379a000000000000000000000000000000000000000000000000000000000\n      dup2\n      mstore\n      0x04\n      add\n      tag_206\n      swap1\n      tag_207\n      jump\t// in\n    tag_206:\n      mload(0x40)\n      dup1\n      swap2\n      sub\n      swap1\n      revert\n        /* \"wwcc-contracts/contracts/wwccPool.sol\":3419:3510  if(voteAmount[joiner]<weight){... */\n    tag_205:\n        /* \"wwcc-contracts/contracts/wwccPool.sol\":3522:3540  WcPool memory pool */\n      0x00\n        /* \"wwcc-contracts/contracts/wwccPool.sol\":3543:3550  WcPools */\n      0x05\n        /* \"wwcc-contracts/contracts/wwccPool.sol\":3543:3559  WcPools[poolKey] */\n      0x00\n        /* \"wwcc-contracts/contracts/wwccPool.sol\":3551:3558  poolKey */\n      dup8\n        /* \"wwcc-contracts/contracts/wwccPool.sol\":3543:3559  WcPools[poolKey] */\n      dup2\n      mstore\n      0x20\n      add\n      swap1\n      dup2\n      mstore\n      0x20\n      add\n      0x00\n      keccak256\n        /* \"wwcc-contracts/contracts/wwccPool.sol\":3522:3559  WcPool memory pool = WcPools[poolKey] */\n      mload(0x40)\n      dup1\n      0x0160\n      add\n      0x40\n      mstore\n      swap1\n      dup2\n      0x00\n      dup3\n      add\n      dup1\n      sload\n      tag_208\n      swap1\n      tag_111\n      jump\t// in\n    tag_208:\n      dup1\n      0x1f\n      add\n      0x20\n      dup1\n      swap2\n      div\n      mul\n      0x20\n      add\n      mload(0x40)\n      swap1\n      dup2\n      add\n      0x40\n      mstore\n      dup1\n      swap3\n      swap2\n      swap1\n      dup2\n      dup2\n      mstore\n      0x20\n      add\n      dup3\n      dup1\n      sload\n      tag_209\n      swap1\n      tag_111\n      jump\t// in\n    tag_209:\n      dup1\n      iszero\n      tag_210\n      jumpi\n      dup1\n      0x1f\n      lt\n      tag_211\n      jumpi\n      0x0100\n      dup1\n      dup4\n      sload\n      div\n      mul\n      dup4\n      mstore\n      swap2\n      0x20\n      add\n      swap2\n      jump(tag_210)\n    tag_211:\n      dup3\n      add\n      swap2\n      swap1\n      0x00\n      mstore\n      keccak256(0x00, 0x20)\n      swap1\n    tag_212:\n      dup2\n      sload\n      dup2\n      mstore\n      swap1\n      0x01\n      add\n      swap1\n      0x20\n      add\n      dup1\n      dup4\n      gt\n      tag_212\n      jumpi\n      dup3\n      swap1\n      sub\n      0x1f\n      and\n      dup3\n      add\n      swap2\n    tag_210:\n      pop\n      pop\n      pop\n      pop\n      pop\n      dup2\n      mstore\n      0x20\n      add\n      0x01\n      dup3\n      add\n      dup1\n      sload\n      tag_213\n      swap1\n      tag_111\n      jump\t// in\n    tag_213:\n      dup1\n      0x1f\n      add\n      0x20\n      dup1\n      swap2\n      div\n      mul\n      0x20\n      add\n      mload(0x40)\n      swap1\n      dup2\n      add\n      0x40\n      mstore\n      dup1\n      swap3\n      swap2\n      swap1\n      dup2\n      dup2\n      mstore\n      0x20\n      add\n      dup3\n      dup1\n      sload\n      tag_214\n      swap1\n      tag_111\n      jump\t// in\n    tag_214:\n      dup1\n      iszero\n      tag_215\n      jumpi\n      dup1\n      0x1f\n      lt\n      tag_216\n      jumpi\n      0x0100\n      dup1\n      dup4\n      sload\n      div\n      mul\n      dup4\n      mstore\n      swap2\n      0x20\n      add\n      swap2\n      jump(tag_215)\n    tag_216:\n      dup3\n      add\n      swap2\n      swap1\n      0x00\n      mstore\n      keccak256(0x00, 0x20)\n      swap1\n    tag_217:\n      dup2\n      sload\n      dup2\n      mstore\n      swap1\n      0x01\n      add\n      swap1\n      0x20\n      add\n      dup1\n      dup4\n      gt\n      tag_217\n      jumpi\n      dup3\n      swap1\n      sub\n      0x1f\n      and\n      dup3\n      add\n      swap2\n    tag_215:\n      pop\n      pop\n      pop\n      pop\n      pop\n      dup2\n      mstore\n      0x20\n      add\n      0x02\n      dup3\n      add\n      dup1\n      sload\n      tag_218\n      swap1\n      tag_111\n      jump\t// in\n    tag_218:\n      dup1\n      0x1f\n      add\n      0x20\n      dup1\n      swap2\n      div\n      mul\n      0x20\n      add\n      mload(0x40)\n      swap1\n      dup2\n      add\n      0x40\n      mstore\n      dup1\n      swap3\n      swap2\n      swap1\n      dup2\n      dup2\n      mstore\n      0x20\n      add\n      dup3\n      dup1\n      sload\n      tag_219\n      swap1\n      tag_111\n      jump\t// in\n    tag_219:\n      dup1\n      iszero\n      tag_220\n      jumpi\n      dup1\n      0x1f\n      lt\n      tag_221\n      jumpi\n      0x0100\n      dup1\n      dup4\n      sload\n      div\n      mul\n      dup4\n      mstore\n      swap2\n      0x20\n      add\n      swap2\n      jump(tag_220)\n    tag_221:\n      dup3\n      add\n      swap2\n      swap1\n      0x00\n      mstore\n      keccak256(0x00, 0x20)\n      swap1\n    tag_222:\n      dup2\n      sload\n      dup2\n      mstore\n      swap1\n      0x01\n      add\n      swap1\n      0x20\n      add\n      dup1\n      dup4\n      gt\n      tag_222\n      jumpi\n      dup3\n      swap1\n      sub\n      0x1f\n      and\n      dup3\n      add\n      swap2\n    tag_220:\n      pop\n      pop\n      pop\n      pop\n      pop\n      dup2\n      mstore\n      0x20\n      add\n      0x03\n      dup3\n      add\n      sload\n      dup2\n      mstore\n      0x20\n      add\n      0x04\n      dup3\n      add\n      sload\n      dup2\n      mstore\n      0x20\n      add\n      0x05\n      dup3\n      add\n      sload\n      dup2\n      mstore\n      0x20\n      add\n      0x06\n      dup3\n      add\n      sload\n      dup2\n      mstore\n      0x20\n      add\n      0x07\n      dup3\n      add\n      sload\n      dup2\n      mstore\n      0x20\n      add\n      0x08\n      dup3\n      add\n      0x00\n      swap1\n      sload\n      swap1\n      0x0100\n      exp\n      swap1\n      div\n      0xff\n      and\n      iszero\n      iszero\n      iszero\n      iszero\n      dup2\n      mstore\n      0x20\n      add\n      0x08\n      dup3\n      add\n      0x01\n      swap1\n      sload\n      swap1\n      0x0100\n      exp\n      swap1\n      div\n      0xff\n      and\n      iszero\n      iszero\n      iszero\n      iszero\n      dup2\n      mstore\n      0x20\n      add\n      0x08\n      dup3\n      add\n      0x02\n      swap1\n      sload\n      swap1\n      0x0100\n      exp\n      swap1\n      div\n      0xff\n      and\n      iszero\n      iszero\n      iszero\n      iszero\n      dup2\n      mstore\n      pop\n      pop\n      swap1\n      pop\n        /* \"wwcc-contracts/contracts/wwccPool.sol\":3572:3597  string  memory pickingKey */\n      0x60\n        /* \"wwcc-contracts/contracts/wwccPool.sol\":3610:3626  string memory s1 */\n      0x00\n        /* \"wwcc-contracts/contracts/wwccPool.sol\":3629:3683  strConcat(strConcat(pool.home,pool.visit),pool.rounds) */\n      tag_223\n        /* \"wwcc-contracts/contracts/wwccPool.sol\":3639:3670  strConcat(pool.home,pool.visit) */\n      tag_224\n        /* \"wwcc-contracts/contracts/wwccPool.sol\":3649:3653  pool */\n      dup5\n        /* \"wwcc-contracts/contracts/wwccPool.sol\":3649:3658  pool.home */\n      0x00\n      add\n      mload\n        /* \"wwcc-contracts/contracts/wwccPool.sol\":3659:3663  pool */\n      dup6\n        /* \"wwcc-contracts/contracts/wwccPool.sol\":3659:3669  pool.visit */\n      0x20\n      add\n      mload\n        /* \"wwcc-contracts/contracts/wwccPool.sol\":3639:3648  strConcat */\n      tag_150\n        /* \"wwcc-contracts/contracts/wwccPool.sol\":3639:3670  strConcat(pool.home,pool.visit) */\n      jump\t// in\n    tag_224:\n        /* \"wwcc-contracts/contracts/wwccPool.sol\":3671:3675  pool */\n      dup5\n        /* \"wwcc-contracts/contracts/wwccPool.sol\":3671:3682  pool.rounds */\n      0x40\n      add\n      mload\n        /* \"wwcc-contracts/contracts/wwccPool.sol\":3629:3638  strConcat */\n      tag_150\n        /* \"wwcc-contracts/contracts/wwccPool.sol\":3629:3683  strConcat(strConcat(pool.home,pool.visit),pool.rounds) */\n      jump\t// in\n    tag_223:\n        /* \"wwcc-contracts/contracts/wwccPool.sol\":3610:3683  string memory s1 = strConcat(strConcat(pool.home,pool.visit),pool.rounds) */\n      swap1\n      pop\n        /* \"wwcc-contracts/contracts/wwccPool.sol\":3716:3720  true */\n      0x01\n        /* \"wwcc-contracts/contracts/wwccPool.sol\":3700:3720  pool.decided == true */\n      iszero\n      iszero\n        /* \"wwcc-contracts/contracts/wwccPool.sol\":3700:3704  pool */\n      dup4\n        /* \"wwcc-contracts/contracts/wwccPool.sol\":3700:3712  pool.decided */\n      0x0100\n      add\n      mload\n        /* \"wwcc-contracts/contracts/wwccPool.sol\":3700:3720  pool.decided == true */\n      iszero\n      iszero\n      eq\n        /* \"wwcc-contracts/contracts/wwccPool.sol\":3696:4002  if (pool.decided == true){... */\n      iszero\n      tag_225\n      jumpi\n        /* \"wwcc-contracts/contracts/wwccPool.sol\":3748:3845  strConcat(strConcat(s1,\"true\"),strConcat(uint256ToString(homeScore),uint256ToString(visitScore))) */\n      tag_226\n        /* \"wwcc-contracts/contracts/wwccPool.sol\":3758:3778  strConcat(s1,\"true\") */\n      tag_227\n        /* \"wwcc-contracts/contracts/wwccPool.sol\":3768:3770  s1 */\n      dup3\n        /* \"wwcc-contracts/contracts/wwccPool.sol\":3758:3778  strConcat(s1,\"true\") */\n      mload(0x40)\n      dup1\n      0x40\n      add\n      0x40\n      mstore\n      dup1\n      0x04\n      dup2\n      mstore\n      0x20\n      add\n      0x7472756500000000000000000000000000000000000000000000000000000000\n      dup2\n      mstore\n      pop\n        /* \"wwcc-contracts/contracts/wwccPool.sol\":3758:3767  strConcat */\n      tag_150\n        /* \"wwcc-contracts/contracts/wwccPool.sol\":3758:3778  strConcat(s1,\"true\") */\n      jump\t// in\n    tag_227:\n        /* \"wwcc-contracts/contracts/wwccPool.sol\":3779:3844  strConcat(uint256ToString(homeScore),uint256ToString(visitScore)) */\n      tag_228\n        /* \"wwcc-contracts/contracts/wwccPool.sol\":3789:3815  uint256ToString(homeScore) */\n      tag_229\n        /* \"wwcc-contracts/contracts/wwccPool.sol\":3805:3814  homeScore */\n      dup11\n        /* \"wwcc-contracts/contracts/wwccPool.sol\":3789:3804  uint256ToString */\n      tag_230\n        /* \"wwcc-contracts/contracts/wwccPool.sol\":3789:3815  uint256ToString(homeScore) */\n      jump\t// in\n    tag_229:\n        /* \"wwcc-contracts/contracts/wwccPool.sol\":3816:3843  uint256ToString(visitScore) */\n      tag_231\n        /* \"wwcc-contracts/contracts/wwccPool.sol\":3832:3842  visitScore */\n      dup11\n        /* \"wwcc-contracts/contracts/wwccPool.sol\":3816:3831  uint256ToString */\n      tag_230\n        /* \"wwcc-contracts/contracts/wwccPool.sol\":3816:3843  uint256ToString(visitScore) */\n      jump\t// in\n    tag_231:\n        /* \"wwcc-contracts/contracts/wwccPool.sol\":3779:3788  strConcat */\n      tag_150\n        /* \"wwcc-contracts/contracts/wwccPool.sol\":3779:3844  strConcat(uint256ToString(homeScore),uint256ToString(visitScore)) */\n      jump\t// in\n    tag_228:\n        /* \"wwcc-contracts/contracts/wwccPool.sol\":3748:3757  strConcat */\n      tag_150\n        /* \"wwcc-contracts/contracts/wwccPool.sol\":3748:3845  strConcat(strConcat(s1,\"true\"),strConcat(uint256ToString(homeScore),uint256ToString(visitScore))) */\n      jump\t// in\n    tag_226:\n        /* \"wwcc-contracts/contracts/wwccPool.sol\":3735:3845  pickingKey = strConcat(strConcat(s1,\"true\"),strConcat(uint256ToString(homeScore),uint256ToString(visitScore))) */\n      swap2\n      pop\n        /* \"wwcc-contracts/contracts/wwccPool.sol\":3696:4002  if (pool.decided == true){... */\n      jump(tag_232)\n    tag_225:\n        /* \"wwcc-contracts/contracts/wwccPool.sol\":3890:3988  strConcat(strConcat(s1,\"false\"),strConcat(uint256ToString(homeScore),uint256ToString(visitScore))) */\n      tag_233\n        /* \"wwcc-contracts/contracts/wwccPool.sol\":3900:3921  strConcat(s1,\"false\") */\n      tag_234\n        /* \"wwcc-contracts/contracts/wwccPool.sol\":3910:3912  s1 */\n      dup3\n        /* \"wwcc-contracts/contracts/wwccPool.sol\":3900:3921  strConcat(s1,\"false\") */\n      mload(0x40)\n      dup1\n      0x40\n      add\n      0x40\n      mstore\n      dup1\n      0x05\n      dup2\n      mstore\n      0x20\n      add\n      0x66616c7365000000000000000000000000000000000000000000000000000000\n      dup2\n      mstore\n      pop\n        /* \"wwcc-contracts/contracts/wwccPool.sol\":3900:3909  strConcat */\n      tag_150\n        /* \"wwcc-contracts/contracts/wwccPool.sol\":3900:3921  strConcat(s1,\"false\") */\n      jump\t// in\n    tag_234:\n        /* \"wwcc-contracts/contracts/wwccPool.sol\":3922:3987  strConcat(uint256ToString(homeScore),uint256ToString(visitScore)) */\n      tag_235\n        /* \"wwcc-contracts/contracts/wwccPool.sol\":3932:3958  uint256ToString(homeScore) */\n      tag_236\n        /* \"wwcc-contracts/contracts/wwccPool.sol\":3948:3957  homeScore */\n      dup11\n        /* \"wwcc-contracts/contracts/wwccPool.sol\":3932:3947  uint256ToString */\n      tag_230\n        /* \"wwcc-contracts/contracts/wwccPool.sol\":3932:3958  uint256ToString(homeScore) */\n      jump\t// in\n    tag_236:\n        /* \"wwcc-contracts/contracts/wwccPool.sol\":3959:3986  uint256ToString(visitScore) */\n      tag_237\n        /* \"wwcc-contracts/contracts/wwccPool.sol\":3975:3985  visitScore */\n      dup11\n        /* \"wwcc-contracts/contracts/wwccPool.sol\":3959:3974  uint256ToString */\n      tag_230\n        /* \"wwcc-contracts/contracts/wwccPool.sol\":3959:3986  uint256ToString(visitScore) */\n      jump\t// in\n    tag_237:\n        /* \"wwcc-contracts/contracts/wwccPool.sol\":3922:3931  strConcat */\n      tag_150\n        /* \"wwcc-contracts/contracts/wwccPool.sol\":3922:3987  strConcat(uint256ToString(homeScore),uint256ToString(visitScore)) */\n      jump\t// in\n    tag_235:\n        /* \"wwcc-contracts/contracts/wwccPool.sol\":3890:3899  strConcat */\n      tag_150\n        /* \"wwcc-contracts/contracts/wwccPool.sol\":3890:3988  strConcat(strConcat(s1,\"false\"),strConcat(uint256ToString(homeScore),uint256ToString(visitScore))) */\n      jump\t// in\n    tag_233:\n        /* \"wwcc-contracts/contracts/wwccPool.sol\":3877:3988  pickingKey = strConcat(strConcat(s1,\"false\"),strConcat(uint256ToString(homeScore),uint256ToString(visitScore))) */\n      swap2\n      pop\n        /* \"wwcc-contracts/contracts/wwccPool.sol\":3696:4002  if (pool.decided == true){... */\n    tag_232:\n        /* \"wwcc-contracts/contracts/wwccPool.sol\":4014:4037  JoinerPicking memory jp */\n      tag_238\n      tag_239\n      jump\t// in\n    tag_238:\n        /* \"wwcc-contracts/contracts/wwccPool.sol\":4062:4068  weight */\n      dup10\n        /* \"wwcc-contracts/contracts/wwccPool.sol\":4050:4052  jp */\n      dup2\n        /* \"wwcc-contracts/contracts/wwccPool.sol\":4050:4059  jp.weight */\n      0x00\n      add\n        /* \"wwcc-contracts/contracts/wwccPool.sol\":4050:4068  jp.weight = weight */\n      dup2\n      dup2\n      mstore\n      pop\n      pop\n        /* \"wwcc-contracts/contracts/wwccPool.sol\":4091:4095  kind */\n      dup6\n        /* \"wwcc-contracts/contracts/wwccPool.sol\":4081:4083  jp */\n      dup2\n        /* \"wwcc-contracts/contracts/wwccPool.sol\":4081:4088  jp.kind */\n      0x20\n      add\n        /* \"wwcc-contracts/contracts/wwccPool.sol\":4081:4095  jp.kind = kind */\n      dup2\n      dup2\n      mstore\n      pop\n      pop\n        /* \"wwcc-contracts/contracts/wwccPool.sol\":4123:4132  homeScore */\n      dup8\n        /* \"wwcc-contracts/contracts/wwccPool.sol\":4108:4110  jp */\n      dup2\n        /* \"wwcc-contracts/contracts/wwccPool.sol\":4108:4120  jp.homeScore */\n      0x40\n      add\n        /* \"wwcc-contracts/contracts/wwccPool.sol\":4108:4132  jp.homeScore = homeScore */\n      dup2\n      dup2\n      mstore\n      pop\n      pop\n        /* \"wwcc-contracts/contracts/wwccPool.sol\":4161:4171  visitScore */\n      dup7\n        /* \"wwcc-contracts/contracts/wwccPool.sol\":4145:4147  jp */\n      dup2\n        /* \"wwcc-contracts/contracts/wwccPool.sol\":4145:4158  jp.visitScore */\n      0x60\n      add\n        /* \"wwcc-contracts/contracts/wwccPool.sol\":4145:4171  jp.visitScore = visitScore */\n      dup2\n      dup2\n      mstore\n      pop\n      pop\n        /* \"wwcc-contracts/contracts/wwccPool.sol\":4196:4202  joiner */\n      dup11\n        /* \"wwcc-contracts/contracts/wwccPool.sol\":4184:4186  jp */\n      dup2\n        /* \"wwcc-contracts/contracts/wwccPool.sol\":4184:4193  jp.joiner */\n      0x80\n      add\n        /* \"wwcc-contracts/contracts/wwccPool.sol\":4184:4202  jp.joiner = joiner */\n      swap1\n      0xffffffffffffffffffffffffffffffffffffffff\n      and\n      swap1\n      dup2\n      0xffffffffffffffffffffffffffffffffffffffff\n      and\n      dup2\n      mstore\n      pop\n      pop\n        /* \"wwcc-contracts/contracts/wwccPool.sol\":4231:4241  pickingKey */\n      dup3\n        /* \"wwcc-contracts/contracts/wwccPool.sol\":4215:4217  jp */\n      dup2\n        /* \"wwcc-contracts/contracts/wwccPool.sol\":4215:4228  jp.pickingKey */\n      0xa0\n      add\n        /* \"wwcc-contracts/contracts/wwccPool.sol\":4215:4241  jp.pickingKey = pickingKey */\n      dup2\n      swap1\n      mstore\n      pop\n        /* \"wwcc-contracts/contracts/wwccPool.sol\":4268:4273  false */\n      0x00\n        /* \"wwcc-contracts/contracts/wwccPool.sol\":4254:4256  jp */\n      dup2\n        /* \"wwcc-contracts/contracts/wwccPool.sol\":4254:4265  jp.finished */\n      0xc0\n      add\n        /* \"wwcc-contracts/contracts/wwccPool.sol\":4254:4273  jp.finished = false */\n      swap1\n      iszero\n      iszero\n      swap1\n      dup2\n      iszero\n      iszero\n      dup2\n      mstore\n      pop\n      pop\n        /* \"wwcc-contracts/contracts/wwccPool.sol\":4322:4329  poolKey */\n      dup9\n        /* \"wwcc-contracts/contracts/wwccPool.sol\":4286:4302  allScorePoolInfo */\n      0x06\n        /* \"wwcc-contracts/contracts/wwccPool.sol\":4286:4311  allScorePoolInfo[poolKey] */\n      0x00\n        /* \"wwcc-contracts/contracts/wwccPool.sol\":4303:4310  poolKey */\n      dup12\n        /* \"wwcc-contracts/contracts/wwccPool.sol\":4286:4311  allScorePoolInfo[poolKey] */\n      dup2\n      mstore\n      0x20\n      add\n      swap1\n      dup2\n      mstore\n      0x20\n      add\n      0x00\n      keccak256\n        /* \"wwcc-contracts/contracts/wwccPool.sol\":4286:4319  allScorePoolInfo[poolKey].poolKey */\n      0x01\n      add\n        /* \"wwcc-contracts/contracts/wwccPool.sol\":4286:4329  allScorePoolInfo[poolKey].poolKey = poolKey */\n      dup2\n      swap1\n      sstore\n      pop\n        /* \"wwcc-contracts/contracts/wwccPool.sol\":4342:4358  allScorePoolInfo */\n      0x06\n        /* \"wwcc-contracts/contracts/wwccPool.sol\":4342:4367  allScorePoolInfo[poolKey] */\n      0x00\n        /* \"wwcc-contracts/contracts/wwccPool.sol\":4359:4366  poolKey */\n      dup11\n        /* \"wwcc-contracts/contracts/wwccPool.sol\":4342:4367  allScorePoolInfo[poolKey] */\n      dup2\n      mstore\n      0x20\n      add\n      swap1\n      dup2\n      mstore\n      0x20\n      add\n      0x00\n      keccak256\n        /* \"wwcc-contracts/contracts/wwccPool.sol\":4342:4379  allScorePoolInfo[poolKey].separateBet */\n      0x00\n      add\n        /* \"wwcc-contracts/contracts/wwccPool.sol\":4385:4387  jp */\n      dup2\n        /* \"wwcc-contracts/contracts/wwccPool.sol\":4342:4388  allScorePoolInfo[poolKey].separateBet.push(jp) */\n      swap1\n      dup1\n      0x01\n      dup2\n      sload\n      add\n      dup1\n      dup3\n      sstore\n      dup1\n      swap2\n      pop\n      pop\n      0x01\n      swap1\n      sub\n      swap1\n      0x00\n      mstore\n      keccak256(0x00, 0x20)\n      swap1\n      0x07\n      mul\n      add\n      0x00\n      swap1\n      swap2\n      swap1\n      swap2\n      swap1\n      swap2\n      pop\n      0x00\n      dup3\n      add\n      mload\n      dup2\n      0x00\n      add\n      sstore\n      0x20\n      dup3\n      add\n      mload\n      dup2\n      0x01\n      add\n      sstore\n      0x40\n      dup3\n      add\n      mload\n      dup2\n      0x02\n      add\n      sstore\n      0x60\n      dup3\n      add\n      mload\n      dup2\n      0x03\n      add\n      sstore\n      0x80\n      dup3\n      add\n      mload\n      dup2\n      0x04\n      add\n      exp(0x0100, 0x00)\n      dup2\n      sload\n      dup2\n      0xffffffffffffffffffffffffffffffffffffffff\n      mul\n      not\n      and\n      swap1\n      dup4\n      0xffffffffffffffffffffffffffffffffffffffff\n      and\n      mul\n      or\n      swap1\n      sstore\n      pop\n      0xa0\n      dup3\n      add\n      mload\n      dup2\n      0x05\n      add\n      swap1\n      dup1\n      mload\n      swap1\n      0x20\n      add\n      swap1\n      tag_241\n      swap3\n      swap2\n      swap1\n      tag_163\n      jump\t// in\n    tag_241:\n      pop\n      0xc0\n      dup3\n      add\n      mload\n      dup2\n      0x06\n      add\n      exp(0x0100, 0x00)\n      dup2\n      sload\n      dup2\n      0xff\n      mul\n      not\n      and\n      swap1\n      dup4\n      iszero\n      iszero\n      mul\n      or\n      swap1\n      sstore\n      pop\n      pop\n      pop\n        /* \"wwcc-contracts/contracts/wwccPool.sol\":4436:4442  joiner */\n      dup11\n        /* \"wwcc-contracts/contracts/wwccPool.sol\":4402:4418  joinerAllPicking */\n      0x08\n        /* \"wwcc-contracts/contracts/wwccPool.sol\":4402:4426  joinerAllPicking[joiner] */\n      0x00\n        /* \"wwcc-contracts/contracts/wwccPool.sol\":4419:4425  joiner */\n      dup14\n        /* \"wwcc-contracts/contracts/wwccPool.sol\":4402:4426  joinerAllPicking[joiner] */\n      0xffffffffffffffffffffffffffffffffffffffff\n      and\n      0xffffffffffffffffffffffffffffffffffffffff\n      and\n      dup2\n      mstore\n      0x20\n      add\n      swap1\n      dup2\n      mstore\n      0x20\n      add\n      0x00\n      keccak256\n        /* \"wwcc-contracts/contracts/wwccPool.sol\":4402:4433  joinerAllPicking[joiner].joiner */\n      0x01\n      add\n      0x00\n        /* \"wwcc-contracts/contracts/wwccPool.sol\":4402:4442  joinerAllPicking[joiner].joiner = joiner */\n      0x0100\n      exp\n      dup2\n      sload\n      dup2\n      0xffffffffffffffffffffffffffffffffffffffff\n      mul\n      not\n      and\n      swap1\n      dup4\n      0xffffffffffffffffffffffffffffffffffffffff\n      and\n      mul\n      or\n      swap1\n      sstore\n      pop\n        /* \"wwcc-contracts/contracts/wwccPool.sol\":4455:4471  joinerAllPicking */\n      0x08\n        /* \"wwcc-contracts/contracts/wwccPool.sol\":4455:4479  joinerAllPicking[joiner] */\n      0x00\n        /* \"wwcc-contracts/contracts/wwccPool.sol\":4472:4478  joiner */\n      dup13\n        /* \"wwcc-contracts/contracts/wwccPool.sol\":4455:4479  joinerAllPicking[joiner] */\n      0xffffffffffffffffffffffffffffffffffffffff\n      and\n      0xffffffffffffffffffffffffffffffffffffffff\n      and\n      dup2\n      mstore\n      0x20\n      add\n      swap1\n      dup2\n      mstore\n      0x20\n      add\n      0x00\n      keccak256\n        /* \"wwcc-contracts/contracts/wwccPool.sol\":4455:4491  joinerAllPicking[joiner].separateBet */\n      0x00\n      add\n        /* \"wwcc-contracts/contracts/wwccPool.sol\":4497:4499  jp */\n      dup2\n        /* \"wwcc-contracts/contracts/wwccPool.sol\":4455:4500  joinerAllPicking[joiner].separateBet.push(jp) */\n      swap1\n      dup1\n      0x01\n      dup2\n      sload\n      add\n      dup1\n      dup3\n      sstore\n      dup1\n      swap2\n      pop\n      pop\n      0x01\n      swap1\n      sub\n      swap1\n      0x00\n      mstore\n      keccak256(0x00, 0x20)\n      swap1\n      0x07\n      mul\n      add\n      0x00\n      swap1\n      swap2\n      swap1\n      swap2\n      swap1\n      swap2\n      pop\n      0x00\n      dup3\n      add\n      mload\n      dup2\n      0x00\n      add\n      sstore\n      0x20\n      dup3\n      add\n      mload\n      dup2\n      0x01\n      add\n      sstore\n      0x40\n      dup3\n      add\n      mload\n      dup2\n      0x02\n      add\n      sstore\n      0x60\n      dup3\n      add\n      mload\n      dup2\n      0x03\n      add\n      sstore\n      0x80\n      dup3\n      add\n      mload\n      dup2\n      0x04\n      add\n      exp(0x0100, 0x00)\n      dup2\n      sload\n      dup2\n      0xffffffffffffffffffffffffffffffffffffffff\n      mul\n      not\n      and\n      swap1\n      dup4\n      0xffffffffffffffffffffffffffffffffffffffff\n      and\n      mul\n      or\n      swap1\n      sstore\n      pop\n      0xa0\n      dup3\n      add\n      mload\n      dup2\n      0x05\n      add\n      swap1\n      dup1\n      mload\n      swap1\n      0x20\n      add\n      swap1\n      tag_243\n      swap3\n      swap2\n      swap1\n      tag_163\n      jump\t// in\n    tag_243:\n      pop\n      0xc0\n      dup3\n      add\n      mload\n      dup2\n      0x06\n      add\n      exp(0x0100, 0x00)\n      dup2\n      sload\n      dup2\n      0xff\n      mul\n      not\n      and\n      swap1\n      dup4\n      iszero\n      iszero\n      mul\n      or\n      swap1\n      sstore\n      pop\n      pop\n      pop\n        /* \"wwcc-contracts/contracts/wwccPool.sol\":4527:4528  2 */\n      0x02\n        /* \"wwcc-contracts/contracts/wwccPool.sol\":4519:4523  kind */\n      dup7\n        /* \"wwcc-contracts/contracts/wwccPool.sol\":4519:4528  kind == 2 */\n      eq\n        /* \"wwcc-contracts/contracts/wwccPool.sol\":4515:4847  if (kind == 2){... */\n      iszero\n      tag_244\n      jumpi\n        /* \"wwcc-contracts/contracts/wwccPool.sol\":4559:4565  weight */\n      dup10\n        /* \"wwcc-contracts/contracts/wwccPool.sol\":4545:4549  pool */\n      dup5\n        /* \"wwcc-contracts/contracts/wwccPool.sol\":4545:4555  pool.sPool */\n      0xc0\n      add\n        /* \"wwcc-contracts/contracts/wwccPool.sol\":4545:4565  pool.sPool += weight */\n      dup2\n      dup2\n      mload\n      tag_245\n      swap2\n      swap1\n      tag_22\n      jump\t// in\n    tag_245:\n      swap2\n      pop\n      dup2\n      dup2\n      mstore\n      pop\n      pop\n        /* \"wwcc-contracts/contracts/wwccPool.sol\":4612:4618  weight */\n      dup10\n        /* \"wwcc-contracts/contracts/wwccPool.sol\":4581:4596  singleScorePool */\n      0x07\n        /* \"wwcc-contracts/contracts/wwccPool.sol\":4597:4607  pickingKey */\n      dup5\n        /* \"wwcc-contracts/contracts/wwccPool.sol\":4581:4608  singleScorePool[pickingKey] */\n      mload(0x40)\n      tag_246\n      swap2\n      swap1\n      tag_156\n      jump\t// in\n    tag_246:\n      swap1\n      dup2\n      mstore\n      0x20\n      add\n      mload(0x40)\n      dup1\n      swap2\n      sub\n      swap1\n      keccak256\n      0x00\n        /* \"wwcc-contracts/contracts/wwccPool.sol\":4581:4618  singleScorePool[pickingKey] += weight */\n      dup3\n      dup3\n      sload\n      tag_247\n      swap2\n      swap1\n      tag_22\n      jump\t// in\n    tag_247:\n      swap3\n      pop\n      pop\n      dup2\n      swap1\n      sstore\n      pop\n        /* \"wwcc-contracts/contracts/wwccPool.sol\":4515:4847  if (kind == 2){... */\n      jump(tag_248)\n    tag_244:\n        /* \"wwcc-contracts/contracts/wwccPool.sol\":4662:4663  3 */\n      0x03\n        /* \"wwcc-contracts/contracts/wwccPool.sol\":4654:4658  kind */\n      dup7\n        /* \"wwcc-contracts/contracts/wwccPool.sol\":4654:4663  kind == 3 */\n      eq\n        /* \"wwcc-contracts/contracts/wwccPool.sol\":4651:4847  if(kind == 3){... */\n      iszero\n      tag_249\n      jumpi\n        /* \"wwcc-contracts/contracts/wwccPool.sol\":4696:4702  weight */\n      dup10\n        /* \"wwcc-contracts/contracts/wwccPool.sol\":4682:4686  pool */\n      dup5\n        /* \"wwcc-contracts/contracts/wwccPool.sol\":4682:4692  pool.wPool */\n      0x60\n      add\n        /* \"wwcc-contracts/contracts/wwccPool.sol\":4682:4702  pool.wPool += weight */\n      dup2\n      dup2\n      mload\n      tag_250\n      swap2\n      swap1\n      tag_22\n      jump\t// in\n    tag_250:\n      swap2\n      pop\n      dup2\n      dup2\n      mstore\n      pop\n      pop\n        /* \"wwcc-contracts/contracts/wwccPool.sol\":4651:4847  if(kind == 3){... */\n      jump(tag_251)\n    tag_249:\n        /* \"wwcc-contracts/contracts/wwccPool.sol\":4734:4735  1 */\n      0x01\n        /* \"wwcc-contracts/contracts/wwccPool.sol\":4726:4730  kind */\n      dup7\n        /* \"wwcc-contracts/contracts/wwccPool.sol\":4726:4735  kind == 1 */\n      eq\n        /* \"wwcc-contracts/contracts/wwccPool.sol\":4722:4847  if (kind == 1){... */\n      iszero\n      tag_252\n      jumpi\n        /* \"wwcc-contracts/contracts/wwccPool.sol\":4768:4774  weight */\n      dup10\n        /* \"wwcc-contracts/contracts/wwccPool.sol\":4754:4758  pool */\n      dup5\n        /* \"wwcc-contracts/contracts/wwccPool.sol\":4754:4764  pool.dPool */\n      0x80\n      add\n        /* \"wwcc-contracts/contracts/wwccPool.sol\":4754:4774  pool.dPool += weight */\n      dup2\n      dup2\n      mload\n      tag_253\n      swap2\n      swap1\n      tag_22\n      jump\t// in\n    tag_253:\n      swap2\n      pop\n      dup2\n      dup2\n      mstore\n      pop\n      pop\n        /* \"wwcc-contracts/contracts/wwccPool.sol\":4722:4847  if (kind == 1){... */\n      jump(tag_254)\n    tag_252:\n        /* \"wwcc-contracts/contracts/wwccPool.sol\":4826:4832  weight */\n      dup10\n        /* \"wwcc-contracts/contracts/wwccPool.sol\":4812:4816  pool */\n      dup5\n        /* \"wwcc-contracts/contracts/wwccPool.sol\":4812:4822  pool.lPool */\n      0xa0\n      add\n        /* \"wwcc-contracts/contracts/wwccPool.sol\":4812:4832  pool.lPool += weight */\n      dup2\n      dup2\n      mload\n      tag_255\n      swap2\n      swap1\n      tag_22\n      jump\t// in\n    tag_255:\n      swap2\n      pop\n      dup2\n      dup2\n      mstore\n      pop\n      pop\n        /* \"wwcc-contracts/contracts/wwccPool.sol\":4722:4847  if (kind == 1){... */\n    tag_254:\n        /* \"wwcc-contracts/contracts/wwccPool.sol\":4651:4847  if(kind == 3){... */\n    tag_251:\n        /* \"wwcc-contracts/contracts/wwccPool.sol\":4515:4847  if (kind == 2){... */\n    tag_248:\n        /* \"wwcc-contracts/contracts/wwccPool.sol\":4882:4888  weight */\n      dup10\n        /* \"wwcc-contracts/contracts/wwccPool.sol\":4860:4870  voteAmount */\n      0x04\n        /* \"wwcc-contracts/contracts/wwccPool.sol\":4860:4878  voteAmount[joiner] */\n      0x00\n        /* \"wwcc-contracts/contracts/wwccPool.sol\":4871:4877  joiner */\n      dup14\n        /* \"wwcc-contracts/contracts/wwccPool.sol\":4860:4878  voteAmount[joiner] */\n      0xffffffffffffffffffffffffffffffffffffffff\n      and\n      0xffffffffffffffffffffffffffffffffffffffff\n      and\n      dup2\n      mstore\n      0x20\n      add\n      swap1\n      dup2\n      mstore\n      0x20\n      add\n      0x00\n      keccak256\n      0x00\n        /* \"wwcc-contracts/contracts/wwccPool.sol\":4860:4888  voteAmount[joiner] -= weight */\n      dup3\n      dup3\n      sload\n      tag_256\n      swap2\n      swap1\n      tag_142\n      jump\t// in\n    tag_256:\n      swap3\n      pop\n      pop\n      dup2\n      swap1\n      sstore\n      pop\n        /* \"wwcc-contracts/contracts/wwccPool.sol\":3406:4910  {... */\n      pop\n      pop\n      pop\n      pop\n        /* \"wwcc-contracts/contracts/wwccPool.sol\":4925:4929  true */\n      0x01\n        /* \"wwcc-contracts/contracts/wwccPool.sol\":4918:4929  return true */\n      swap1\n      pop\n        /* \"wwcc-contracts/contracts/wwccPool.sol\":3184:4936  function Picking(address joiner,uint256 weight,bytes32 poolKey,uint256 homeScore,uint256 visitScore,uint256 kind) external returns(bool){... */\n      swap7\n      swap6\n      pop\n      pop\n      pop\n      pop\n      pop\n      pop\n      jump\t// out\n        /* \"wwcc-contracts/contracts/wwccPool.sol\":7159:10616  function Award(bytes32 poolKey,uint256 homeScore,uint256 visitScore,uint256 result)  external onlyManager  payable returns(bool){... */\n    tag_69:\n        /* \"wwcc-contracts/contracts/wwccPool.sol\":7282:7286  bool */\n      0x00\n        /* \"wwcc-contracts/contracts/wwccPool.sol\":13847:13852  owner */\n      dup1\n      0x00\n      swap1\n      sload\n      swap1\n      0x0100\n      exp\n      swap1\n      div\n      0xffffffffffffffffffffffffffffffffffffffff\n      and\n        /* \"wwcc-contracts/contracts/wwccPool.sol\":13833:13852  msg.sender == owner */\n      0xffffffffffffffffffffffffffffffffffffffff\n      and\n        /* \"wwcc-contracts/contracts/wwccPool.sol\":13833:13843  msg.sender */\n      caller\n        /* \"wwcc-contracts/contracts/wwccPool.sol\":13833:13852  msg.sender == owner */\n      0xffffffffffffffffffffffffffffffffffffffff\n      and\n      eq\n        /* \"wwcc-contracts/contracts/wwccPool.sol\":13812:13903  require(... */\n      tag_258\n      jumpi\n      mload(0x40)\n      0x08c379a000000000000000000000000000000000000000000000000000000000\n      dup2\n      mstore\n      0x04\n      add\n      tag_259\n      swap1\n      tag_98\n      jump\t// in\n    tag_259:\n      mload(0x40)\n      dup1\n      swap2\n      sub\n      swap1\n      revert\n    tag_258:\n        /* \"wwcc-contracts/contracts/wwccPool.sol\":7301:7318  contains(poolKey) */\n      tag_261\n        /* \"wwcc-contracts/contracts/wwccPool.sol\":7310:7317  poolKey */\n      dup6\n        /* \"wwcc-contracts/contracts/wwccPool.sol\":7301:7309  contains */\n      tag_105\n        /* \"wwcc-contracts/contracts/wwccPool.sol\":7301:7318  contains(poolKey) */\n      jump\t// in\n    tag_261:\n        /* \"wwcc-contracts/contracts/wwccPool.sol\":7297:10590  if(!contains(poolKey)) { ... */\n      tag_262\n      jumpi\n        /* \"wwcc-contracts/contracts/wwccPool.sol\":7335:7359  revert(\"pool not exist\") */\n      mload(0x40)\n      0x08c379a000000000000000000000000000000000000000000000000000000000\n      dup2\n      mstore\n      0x04\n      add\n      tag_263\n      swap1\n      tag_108\n      jump\t// in\n    tag_263:\n      mload(0x40)\n      dup1\n      swap2\n      sub\n      swap1\n      revert\n        /* \"wwcc-contracts/contracts/wwccPool.sol\":7297:10590  if(!contains(poolKey)) { ... */\n    tag_262:\n        /* \"wwcc-contracts/contracts/wwccPool.sol\":7386:7404  WcPool memory pool */\n      0x00\n        /* \"wwcc-contracts/contracts/wwccPool.sol\":7407:7414  WcPools */\n      0x05\n        /* \"wwcc-contracts/contracts/wwccPool.sol\":7407:7423  WcPools[poolKey] */\n      0x00\n        /* \"wwcc-contracts/contracts/wwccPool.sol\":7415:7422  poolKey */\n      dup8\n        /* \"wwcc-contracts/contracts/wwccPool.sol\":7407:7423  WcPools[poolKey] */\n      dup2\n      mstore\n      0x20\n      add\n      swap1\n      dup2\n      mstore\n      0x20\n      add\n      0x00\n      keccak256\n        /* \"wwcc-contracts/contracts/wwccPool.sol\":7386:7423  WcPool memory pool = WcPools[poolKey] */\n      mload(0x40)\n      dup1\n      0x0160\n      add\n      0x40\n      mstore\n      swap1\n      dup2\n      0x00\n      dup3\n      add\n      dup1\n      sload\n      tag_265\n      swap1\n      tag_111\n      jump\t// in\n    tag_265:\n      dup1\n      0x1f\n      add\n      0x20\n      dup1\n      swap2\n      div\n      mul\n      0x20\n      add\n      mload(0x40)\n      swap1\n      dup2\n      add\n      0x40\n      mstore\n      dup1\n      swap3\n      swap2\n      swap1\n      dup2\n      dup2\n      mstore\n      0x20\n      add\n      dup3\n      dup1\n      sload\n      tag_266\n      swap1\n      tag_111\n      jump\t// in\n    tag_266:\n      dup1\n      iszero\n      tag_267\n      jumpi\n      dup1\n      0x1f\n      lt\n      tag_268\n      jumpi\n      0x0100\n      dup1\n      dup4\n      sload\n      div\n      mul\n      dup4\n      mstore\n      swap2\n      0x20\n      add\n      swap2\n      jump(tag_267)\n    tag_268:\n      dup3\n      add\n      swap2\n      swap1\n      0x00\n      mstore\n      keccak256(0x00, 0x20)\n      swap1\n    tag_269:\n      dup2\n      sload\n      dup2\n      mstore\n      swap1\n      0x01\n      add\n      swap1\n      0x20\n      add\n      dup1\n      dup4\n      gt\n      tag_269\n      jumpi\n      dup3\n      swap1\n      sub\n      0x1f\n      and\n      dup3\n      add\n      swap2\n    tag_267:\n      pop\n      pop\n      pop\n      pop\n      pop\n      dup2\n      mstore\n      0x20\n      add\n      0x01\n      dup3\n      add\n      dup1\n      sload\n      tag_270\n      swap1\n      tag_111\n      jump\t// in\n    tag_270:\n      dup1\n      0x1f\n      add\n      0x20\n      dup1\n      swap2\n      div\n      mul\n      0x20\n      add\n      mload(0x40)\n      swap1\n      dup2\n      add\n      0x40\n      mstore\n      dup1\n      swap3\n      swap2\n      swap1\n      dup2\n      dup2\n      mstore\n      0x20\n      add\n      dup3\n      dup1\n      sload\n      tag_271\n      swap1\n      tag_111\n      jump\t// in\n    tag_271:\n      dup1\n      iszero\n      tag_272\n      jumpi\n      dup1\n      0x1f\n      lt\n      tag_273\n      jumpi\n      0x0100\n      dup1\n      dup4\n      sload\n      div\n      mul\n      dup4\n      mstore\n      swap2\n      0x20\n      add\n      swap2\n      jump(tag_272)\n    tag_273:\n      dup3\n      add\n      swap2\n      swap1\n      0x00\n      mstore\n      keccak256(0x00, 0x20)\n      swap1\n    tag_274:\n      dup2\n      sload\n      dup2\n      mstore\n      swap1\n      0x01\n      add\n      swap1\n      0x20\n      add\n      dup1\n      dup4\n      gt\n      tag_274\n      jumpi\n      dup3\n      swap1\n      sub\n      0x1f\n      and\n      dup3\n      add\n      swap2\n    tag_272:\n      pop\n      pop\n      pop\n      pop\n      pop\n      dup2\n      mstore\n      0x20\n      add\n      0x02\n      dup3\n      add\n      dup1\n      sload\n      tag_275\n      swap1\n      tag_111\n      jump\t// in\n    tag_275:\n      dup1\n      0x1f\n      add\n      0x20\n      dup1\n      swap2\n      div\n      mul\n      0x20\n      add\n      mload(0x40)\n      swap1\n      dup2\n      add\n      0x40\n      mstore\n      dup1\n      swap3\n      swap2\n      swap1\n      dup2\n      dup2\n      mstore\n      0x20\n      add\n      dup3\n      dup1\n      sload\n      tag_276\n      swap1\n      tag_111\n      jump\t// in\n    tag_276:\n      dup1\n      iszero\n      tag_277\n      jumpi\n      dup1\n      0x1f\n      lt\n      tag_278\n      jumpi\n      0x0100\n      dup1\n      dup4\n      sload\n      div\n      mul\n      dup4\n      mstore\n      swap2\n      0x20\n      add\n      swap2\n      jump(tag_277)\n    tag_278:\n      dup3\n      add\n      swap2\n      swap1\n      0x00\n      mstore\n      keccak256(0x00, 0x20)\n      swap1\n    tag_279:\n      dup2\n      sload\n      dup2\n      mstore\n      swap1\n      0x01\n      add\n      swap1\n      0x20\n      add\n      dup1\n      dup4\n      gt\n      tag_279\n      jumpi\n      dup3\n      swap1\n      sub\n      0x1f\n      and\n      dup3\n      add\n      swap2\n    tag_277:\n      pop\n      pop\n      pop\n      pop\n      pop\n      dup2\n      mstore\n      0x20\n      add\n      0x03\n      dup3\n      add\n      sload\n      dup2\n      mstore\n      0x20\n      add\n      0x04\n      dup3\n      add\n      sload\n      dup2\n      mstore\n      0x20\n      add\n      0x05\n      dup3\n      add\n      sload\n      dup2\n      mstore\n      0x20\n      add\n      0x06\n      dup3\n      add\n      sload\n      dup2\n      mstore\n      0x20\n      add\n      0x07\n      dup3\n      add\n      sload\n      dup2\n      mstore\n      0x20\n      add\n      0x08\n      dup3\n      add\n      0x00\n      swap1\n      sload\n      swap1\n      0x0100\n      exp\n      swap1\n      div\n      0xff\n      and\n      iszero\n      iszero\n      iszero\n      iszero\n      dup2\n      mstore\n      0x20\n      add\n      0x08\n      dup3\n      add\n      0x01\n      swap1\n      sload\n      swap1\n      0x0100\n      exp\n      swap1\n      div\n      0xff\n      and\n      iszero\n      iszero\n      iszero\n      iszero\n      dup2\n      mstore\n      0x20\n      add\n      0x08\n      dup3\n      add\n      0x02\n      swap1\n      sload\n      swap1\n      0x0100\n      exp\n      swap1\n      div\n      0xff\n      and\n      iszero\n      iszero\n      iszero\n      iszero\n      dup2\n      mstore\n      pop\n      pop\n      swap1\n      pop\n        /* \"wwcc-contracts/contracts/wwccPool.sol\":7454:7458  true */\n      0x01\n        /* \"wwcc-contracts/contracts/wwccPool.sol\":7440:7444  pool */\n      dup2\n        /* \"wwcc-contracts/contracts/wwccPool.sol\":7440:7453  pool.finished */\n      0x0140\n      add\n        /* \"wwcc-contracts/contracts/wwccPool.sol\":7440:7458  pool.finished=true */\n      swap1\n      iszero\n      iszero\n      swap1\n      dup2\n      iszero\n      iszero\n      dup2\n      mstore\n      pop\n        /* \"wwcc-contracts/contracts/wwccPool.sol\":7436:7517  if (pool.finished=true){... */\n      iszero\n      tag_280\n      jumpi\n        /* \"wwcc-contracts/contracts/wwccPool.sol\":7476:7503  revert(\"pool has finished\") */\n      mload(0x40)\n      0x08c379a000000000000000000000000000000000000000000000000000000000\n      dup2\n      mstore\n      0x04\n      add\n      tag_281\n      swap1\n      tag_282\n      jump\t// in\n    tag_281:\n      mload(0x40)\n      dup1\n      swap2\n      sub\n      swap1\n      revert\n        /* \"wwcc-contracts/contracts/wwccPool.sol\":7436:7517  if (pool.finished=true){... */\n    tag_280:\n        /* \"wwcc-contracts/contracts/wwccPool.sol\":7529:7564  JoinerPicking[] memory separateBets */\n      0x00\n        /* \"wwcc-contracts/contracts/wwccPool.sol\":7567:7583  allScorePoolInfo */\n      0x06\n        /* \"wwcc-contracts/contracts/wwccPool.sol\":7567:7592  allScorePoolInfo[poolKey] */\n      0x00\n        /* \"wwcc-contracts/contracts/wwccPool.sol\":7584:7591  poolKey */\n      dup9\n        /* \"wwcc-contracts/contracts/wwccPool.sol\":7567:7592  allScorePoolInfo[poolKey] */\n      dup2\n      mstore\n      0x20\n      add\n      swap1\n      dup2\n      mstore\n      0x20\n      add\n      0x00\n      keccak256\n        /* \"wwcc-contracts/contracts/wwccPool.sol\":7567:7604  allScorePoolInfo[poolKey].separateBet */\n      0x00\n      add\n        /* \"wwcc-contracts/contracts/wwccPool.sol\":7529:7604  JoinerPicking[] memory separateBets = allScorePoolInfo[poolKey].separateBet */\n      dup1\n      sload\n      dup1\n      0x20\n      mul\n      0x20\n      add\n      mload(0x40)\n      swap1\n      dup2\n      add\n      0x40\n      mstore\n      dup1\n      swap3\n      swap2\n      swap1\n      dup2\n      dup2\n      mstore\n      0x20\n      add\n      0x00\n      swap1\n    tag_283:\n      dup3\n      dup3\n      lt\n      iszero\n      tag_284\n      jumpi\n      dup4\n      dup3\n      swap1\n      0x00\n      mstore\n      keccak256(0x00, 0x20)\n      swap1\n      0x07\n      mul\n      add\n      mload(0x40)\n      dup1\n      0xe0\n      add\n      0x40\n      mstore\n      swap1\n      dup2\n      0x00\n      dup3\n      add\n      sload\n      dup2\n      mstore\n      0x20\n      add\n      0x01\n      dup3\n      add\n      sload\n      dup2\n      mstore\n      0x20\n      add\n      0x02\n      dup3\n      add\n      sload\n      dup2\n      mstore\n      0x20\n      add\n      0x03\n      dup3\n      add\n      sload\n      dup2\n      mstore\n      0x20\n      add\n      0x04\n      dup3\n      add\n      0x00\n      swap1\n      sload\n      swap1\n      0x0100\n      exp\n      swap1\n      div\n      0xffffffffffffffffffffffffffffffffffffffff\n      and\n      0xffffffffffffffffffffffffffffffffffffffff\n      and\n      0xffffffffffffffffffffffffffffffffffffffff\n      and\n      dup2\n      mstore\n      0x20\n      add\n      0x05\n      dup3\n      add\n      dup1\n      sload\n      tag_286\n      swap1\n      tag_111\n      jump\t// in\n    tag_286:\n      dup1\n      0x1f\n      add\n      0x20\n      dup1\n      swap2\n      div\n      mul\n      0x20\n      add\n      mload(0x40)\n      swap1\n      dup2\n      add\n      0x40\n      mstore\n      dup1\n      swap3\n      swap2\n      swap1\n      dup2\n      dup2\n      mstore\n      0x20\n      add\n      dup3\n      dup1\n      sload\n      tag_287\n      swap1\n      tag_111\n      jump\t// in\n    tag_287:\n      dup1\n      iszero\n      tag_288\n      jumpi\n      dup1\n      0x1f\n      lt\n      tag_289\n      jumpi\n      0x0100\n      dup1\n      dup4\n      sload\n      div\n      mul\n      dup4\n      mstore\n      swap2\n      0x20\n      add\n      swap2\n      jump(tag_288)\n    tag_289:\n      dup3\n      add\n      swap2\n      swap1\n      0x00\n      mstore\n      keccak256(0x00, 0x20)\n      swap1\n    tag_290:\n      dup2\n      sload\n      dup2\n      mstore\n      swap1\n      0x01\n      add\n      swap1\n      0x20\n      add\n      dup1\n      dup4\n      gt\n      tag_290\n      jumpi\n      dup3\n      swap1\n      sub\n      0x1f\n      and\n      dup3\n      add\n      swap2\n    tag_288:\n      pop\n      pop\n      pop\n      pop\n      pop\n      dup2\n      mstore\n      0x20\n      add\n      0x06\n      dup3\n      add\n      0x00\n      swap1\n      sload\n      swap1\n      0x0100\n      exp\n      swap1\n      div\n      0xff\n      and\n      iszero\n      iszero\n      iszero\n      iszero\n      dup2\n      mstore\n      pop\n      pop\n      dup2\n      mstore\n      0x20\n      add\n      swap1\n      0x01\n      add\n      swap1\n      jump(tag_283)\n    tag_284:\n      pop\n      pop\n      pop\n      pop\n      swap1\n      pop\n        /* \"wwcc-contracts/contracts/wwccPool.sol\":7617:7640  uint256 allRewardAmount */\n      0x00\n        /* \"wwcc-contracts/contracts/wwccPool.sol\":7674:7749  (pool.sPool + pool.wPool+pool.lPool+pool.dPool + pool.basal.div(2)).div(20) */\n      tag_291\n        /* \"wwcc-contracts/contracts/wwccPool.sol\":7746:7748  20 */\n      0x14\n        /* \"wwcc-contracts/contracts/wwccPool.sol\":7723:7740  pool.basal.div(2) */\n      tag_292\n        /* \"wwcc-contracts/contracts/wwccPool.sol\":7738:7739  2 */\n      0x02\n        /* \"wwcc-contracts/contracts/wwccPool.sol\":7723:7727  pool */\n      dup7\n        /* \"wwcc-contracts/contracts/wwccPool.sol\":7723:7733  pool.basal */\n      0xe0\n      add\n      mload\n        /* \"wwcc-contracts/contracts/wwccPool.sol\":7723:7737  pool.basal.div */\n      tag_20\n      swap1\n        /* \"wwcc-contracts/contracts/wwccPool.sol\":7723:7740  pool.basal.div(2) */\n      swap2\n      swap1\n      0xffffffff\n      and\n      jump\t// in\n    tag_292:\n        /* \"wwcc-contracts/contracts/wwccPool.sol\":7710:7714  pool */\n      dup6\n        /* \"wwcc-contracts/contracts/wwccPool.sol\":7710:7720  pool.dPool */\n      0x80\n      add\n      mload\n        /* \"wwcc-contracts/contracts/wwccPool.sol\":7699:7703  pool */\n      dup7\n        /* \"wwcc-contracts/contracts/wwccPool.sol\":7699:7709  pool.lPool */\n      0xa0\n      add\n      mload\n        /* \"wwcc-contracts/contracts/wwccPool.sol\":7688:7692  pool */\n      dup8\n        /* \"wwcc-contracts/contracts/wwccPool.sol\":7688:7698  pool.wPool */\n      0x60\n      add\n      mload\n        /* \"wwcc-contracts/contracts/wwccPool.sol\":7675:7679  pool */\n      dup9\n        /* \"wwcc-contracts/contracts/wwccPool.sol\":7675:7685  pool.sPool */\n      0xc0\n      add\n      mload\n        /* \"wwcc-contracts/contracts/wwccPool.sol\":7675:7698  pool.sPool + pool.wPool */\n      tag_293\n      swap2\n      swap1\n      tag_22\n      jump\t// in\n    tag_293:\n        /* \"wwcc-contracts/contracts/wwccPool.sol\":7675:7709  pool.sPool + pool.wPool+pool.lPool */\n      tag_294\n      swap2\n      swap1\n      tag_22\n      jump\t// in\n    tag_294:\n        /* \"wwcc-contracts/contracts/wwccPool.sol\":7675:7720  pool.sPool + pool.wPool+pool.lPool+pool.dPool */\n      tag_295\n      swap2\n      swap1\n      tag_22\n      jump\t// in\n    tag_295:\n        /* \"wwcc-contracts/contracts/wwccPool.sol\":7675:7740  pool.sPool + pool.wPool+pool.lPool+pool.dPool + pool.basal.div(2) */\n      tag_296\n      swap2\n      swap1\n      tag_22\n      jump\t// in\n    tag_296:\n        /* \"wwcc-contracts/contracts/wwccPool.sol\":7674:7745  (pool.sPool + pool.wPool+pool.lPool+pool.dPool + pool.basal.div(2)).div */\n      tag_20\n      swap1\n        /* \"wwcc-contracts/contracts/wwccPool.sol\":7674:7749  (pool.sPool + pool.wPool+pool.lPool+pool.dPool + pool.basal.div(2)).div(20) */\n      swap2\n      swap1\n      0xffffffff\n      and\n      jump\t// in\n    tag_291:\n        /* \"wwcc-contracts/contracts/wwccPool.sol\":7657:7670  nextBasalLast */\n      0x01\n      0x00\n        /* \"wwcc-contracts/contracts/wwccPool.sol\":7657:7749  nextBasalLast += (pool.sPool + pool.wPool+pool.lPool+pool.dPool + pool.basal.div(2)).div(20) */\n      dup3\n      dup3\n      sload\n      tag_297\n      swap2\n      swap1\n      tag_22\n      jump\t// in\n    tag_297:\n      swap3\n      pop\n      pop\n      dup2\n      swap1\n      sstore\n      pop\n        /* \"wwcc-contracts/contracts/wwccPool.sol\":7923:7929  uint j */\n      0x00\n        /* \"wwcc-contracts/contracts/wwccPool.sol\":7901:10418  for (... */\n    tag_298:\n        /* \"wwcc-contracts/contracts/wwccPool.sol\":7976:7977  1 */\n      0x01\n        /* \"wwcc-contracts/contracts/wwccPool.sol\":7956:7968  separateBets */\n      dup4\n        /* \"wwcc-contracts/contracts/wwccPool.sol\":7956:7975  separateBets.length */\n      mload\n        /* \"wwcc-contracts/contracts/wwccPool.sol\":7956:7977  separateBets.length-1 */\n      tag_301\n      swap2\n      swap1\n      tag_142\n      jump\t// in\n    tag_301:\n        /* \"wwcc-contracts/contracts/wwccPool.sol\":7951:7952  j */\n      dup2\n        /* \"wwcc-contracts/contracts/wwccPool.sol\":7951:7977  j <= separateBets.length-1 */\n      gt\n        /* \"wwcc-contracts/contracts/wwccPool.sol\":7901:10418  for (... */\n      tag_299\n      jumpi\n        /* \"wwcc-contracts/contracts/wwccPool.sol\":8067:8072  false */\n      0x00\n        /* \"wwcc-contracts/contracts/wwccPool.sol\":8040:8052  separateBets */\n      dup4\n        /* \"wwcc-contracts/contracts/wwccPool.sol\":8053:8054  j */\n      dup3\n        /* \"wwcc-contracts/contracts/wwccPool.sol\":8040:8055  separateBets[j] */\n      dup2\n      mload\n      dup2\n      lt\n      tag_302\n      jumpi\n      tag_303\n      tag_304\n      jump\t// in\n    tag_303:\n    tag_302:\n      0x20\n      mul\n      0x20\n      add\n      add\n      mload\n        /* \"wwcc-contracts/contracts/wwccPool.sol\":8040:8064  separateBets[j].finished */\n      0xc0\n      add\n        /* \"wwcc-contracts/contracts/wwccPool.sol\":8040:8072  separateBets[j].finished = false */\n      swap1\n      iszero\n      iszero\n      swap1\n      dup2\n      iszero\n      iszero\n      dup2\n      mstore\n      pop\n        /* \"wwcc-contracts/contracts/wwccPool.sol\":8037:10398  if(separateBets[j].finished = false){... */\n      iszero\n      tag_305\n      jumpi\n        /* \"wwcc-contracts/contracts/wwccPool.sol\":8122:8123  2 */\n      0x02\n        /* \"wwcc-contracts/contracts/wwccPool.sol\":8100:8112  separateBets */\n      dup4\n        /* \"wwcc-contracts/contracts/wwccPool.sol\":8113:8114  j */\n      dup3\n        /* \"wwcc-contracts/contracts/wwccPool.sol\":8100:8115  separateBets[j] */\n      dup2\n      mload\n      dup2\n      lt\n      tag_306\n      jumpi\n      tag_307\n      tag_304\n      jump\t// in\n    tag_307:\n    tag_306:\n      0x20\n      mul\n      0x20\n      add\n      add\n      mload\n        /* \"wwcc-contracts/contracts/wwccPool.sol\":8100:8120  separateBets[j].kind */\n      0x20\n      add\n      mload\n        /* \"wwcc-contracts/contracts/wwccPool.sol\":8100:8123  separateBets[j].kind==2 */\n      eq\n        /* \"wwcc-contracts/contracts/wwccPool.sol\":8097:10378  if(separateBets[j].kind==2){... */\n      iszero\n      tag_308\n      jumpi\n        /* \"wwcc-contracts/contracts/wwccPool.sol\":8170:8219  (pool.sPool + pool.basal.div(2)).mul(85).div(100) */\n      tag_309\n        /* \"wwcc-contracts/contracts/wwccPool.sol\":8215:8218  100 */\n      0x64\n        /* \"wwcc-contracts/contracts/wwccPool.sol\":8170:8210  (pool.sPool + pool.basal.div(2)).mul(85) */\n      tag_310\n        /* \"wwcc-contracts/contracts/wwccPool.sol\":8207:8209  85 */\n      0x55\n        /* \"wwcc-contracts/contracts/wwccPool.sol\":8184:8201  pool.basal.div(2) */\n      tag_311\n        /* \"wwcc-contracts/contracts/wwccPool.sol\":8199:8200  2 */\n      0x02\n        /* \"wwcc-contracts/contracts/wwccPool.sol\":8184:8188  pool */\n      dup10\n        /* \"wwcc-contracts/contracts/wwccPool.sol\":8184:8194  pool.basal */\n      0xe0\n      add\n      mload\n        /* \"wwcc-contracts/contracts/wwccPool.sol\":8184:8198  pool.basal.div */\n      tag_20\n      swap1\n        /* \"wwcc-contracts/contracts/wwccPool.sol\":8184:8201  pool.basal.div(2) */\n      swap2\n      swap1\n      0xffffffff\n      and\n      jump\t// in\n    tag_311:\n        /* \"wwcc-contracts/contracts/wwccPool.sol\":8171:8175  pool */\n      dup9\n        /* \"wwcc-contracts/contracts/wwccPool.sol\":8171:8181  pool.sPool */\n      0xc0\n      add\n      mload\n        /* \"wwcc-contracts/contracts/wwccPool.sol\":8171:8201  pool.sPool + pool.basal.div(2) */\n      tag_312\n      swap2\n      swap1\n      tag_22\n      jump\t// in\n    tag_312:\n        /* \"wwcc-contracts/contracts/wwccPool.sol\":8170:8206  (pool.sPool + pool.basal.div(2)).mul */\n      tag_199\n      swap1\n        /* \"wwcc-contracts/contracts/wwccPool.sol\":8170:8210  (pool.sPool + pool.basal.div(2)).mul(85) */\n      swap2\n      swap1\n      0xffffffff\n      and\n      jump\t// in\n    tag_310:\n        /* \"wwcc-contracts/contracts/wwccPool.sol\":8170:8214  (pool.sPool + pool.basal.div(2)).mul(85).div */\n      tag_20\n      swap1\n        /* \"wwcc-contracts/contracts/wwccPool.sol\":8170:8219  (pool.sPool + pool.basal.div(2)).mul(85).div(100) */\n      swap2\n      swap1\n      0xffffffff\n      and\n      jump\t// in\n    tag_309:\n        /* \"wwcc-contracts/contracts/wwccPool.sol\":8152:8219  allRewardAmount = (pool.sPool + pool.basal.div(2)).mul(85).div(100) */\n      swap2\n      pop\n        /* \"wwcc-contracts/contracts/wwccPool.sol\":8274:8283  homeScore */\n      dup8\n        /* \"wwcc-contracts/contracts/wwccPool.sol\":8247:8259  separateBets */\n      dup4\n        /* \"wwcc-contracts/contracts/wwccPool.sol\":8260:8261  j */\n      dup3\n        /* \"wwcc-contracts/contracts/wwccPool.sol\":8247:8262  separateBets[j] */\n      dup2\n      mload\n      dup2\n      lt\n      tag_313\n      jumpi\n      tag_314\n      tag_304\n      jump\t// in\n    tag_314:\n    tag_313:\n      0x20\n      mul\n      0x20\n      add\n      add\n      mload\n        /* \"wwcc-contracts/contracts/wwccPool.sol\":8247:8272  separateBets[j].homeScore */\n      0x40\n      add\n      mload\n        /* \"wwcc-contracts/contracts/wwccPool.sol\":8247:8283  separateBets[j].homeScore==homeScore */\n      eq\n        /* \"wwcc-contracts/contracts/wwccPool.sol\":8247:8325  separateBets[j].homeScore==homeScore && separateBets[j].visitScore==visitScore */\n      dup1\n      iszero\n      tag_315\n      jumpi\n      pop\n        /* \"wwcc-contracts/contracts/wwccPool.sol\":8315:8325  visitScore */\n      dup7\n        /* \"wwcc-contracts/contracts/wwccPool.sol\":8287:8299  separateBets */\n      dup4\n        /* \"wwcc-contracts/contracts/wwccPool.sol\":8300:8301  j */\n      dup3\n        /* \"wwcc-contracts/contracts/wwccPool.sol\":8287:8302  separateBets[j] */\n      dup2\n      mload\n      dup2\n      lt\n      tag_316\n      jumpi\n      tag_317\n      tag_304\n      jump\t// in\n    tag_317:\n    tag_316:\n      0x20\n      mul\n      0x20\n      add\n      add\n      mload\n        /* \"wwcc-contracts/contracts/wwccPool.sol\":8287:8313  separateBets[j].visitScore */\n      0x60\n      add\n      mload\n        /* \"wwcc-contracts/contracts/wwccPool.sol\":8287:8325  separateBets[j].visitScore==visitScore */\n      eq\n        /* \"wwcc-contracts/contracts/wwccPool.sol\":8247:8325  separateBets[j].homeScore==homeScore && separateBets[j].visitScore==visitScore */\n    tag_315:\n        /* \"wwcc-contracts/contracts/wwccPool.sol\":8243:9041  if (separateBets[j].homeScore==homeScore && separateBets[j].visitScore==visitScore){... */\n      iszero\n      tag_318\n      jumpi\n        /* \"wwcc-contracts/contracts/wwccPool.sol\":8354:8383  uint256 singleScorePoolAmount */\n      0x00\n        /* \"wwcc-contracts/contracts/wwccPool.sol\":8386:8401  singleScorePool */\n      0x07\n        /* \"wwcc-contracts/contracts/wwccPool.sol\":8402:8414  separateBets */\n      dup5\n        /* \"wwcc-contracts/contracts/wwccPool.sol\":8415:8416  j */\n      dup4\n        /* \"wwcc-contracts/contracts/wwccPool.sol\":8402:8417  separateBets[j] */\n      dup2\n      mload\n      dup2\n      lt\n      tag_319\n      jumpi\n      tag_320\n      tag_304\n      jump\t// in\n    tag_320:\n    tag_319:\n      0x20\n      mul\n      0x20\n      add\n      add\n      mload\n        /* \"wwcc-contracts/contracts/wwccPool.sol\":8402:8428  separateBets[j].pickingKey */\n      0xa0\n      add\n      mload\n        /* \"wwcc-contracts/contracts/wwccPool.sol\":8386:8429  singleScorePool[separateBets[j].pickingKey] */\n      mload(0x40)\n      tag_321\n      swap2\n      swap1\n      tag_156\n      jump\t// in\n    tag_321:\n      swap1\n      dup2\n      mstore\n      0x20\n      add\n      mload(0x40)\n      dup1\n      swap2\n      sub\n      swap1\n      keccak256\n      sload\n        /* \"wwcc-contracts/contracts/wwccPool.sol\":8354:8429  uint256 singleScorePoolAmount = singleScorePool[separateBets[j].pickingKey] */\n      swap1\n      pop\n        /* \"wwcc-contracts/contracts/wwccPool.sol\":8457:8477  uint256 rewardAmount */\n      0x00\n        /* \"wwcc-contracts/contracts/wwccPool.sol\":8524:8545  singleScorePoolAmount */\n      dup2\n        /* \"wwcc-contracts/contracts/wwccPool.sol\":8498:8510  separateBets */\n      dup6\n        /* \"wwcc-contracts/contracts/wwccPool.sol\":8511:8512  j */\n      dup5\n        /* \"wwcc-contracts/contracts/wwccPool.sol\":8498:8513  separateBets[j] */\n      dup2\n      mload\n      dup2\n      lt\n      tag_322\n      jumpi\n      tag_323\n      tag_304\n      jump\t// in\n    tag_323:\n    tag_322:\n      0x20\n      mul\n      0x20\n      add\n      add\n      mload\n        /* \"wwcc-contracts/contracts/wwccPool.sol\":8498:8520  separateBets[j].weight */\n      0x00\n      add\n      mload\n        /* \"wwcc-contracts/contracts/wwccPool.sol\":8480:8495  allRewardAmount */\n      dup6\n        /* \"wwcc-contracts/contracts/wwccPool.sol\":8480:8520  allRewardAmount * separateBets[j].weight */\n      tag_324\n      swap2\n      swap1\n      tag_325\n      jump\t// in\n    tag_324:\n        /* \"wwcc-contracts/contracts/wwccPool.sol\":8480:8545  allRewardAmount * separateBets[j].weight /  singleScorePoolAmount */\n      tag_326\n      swap2\n      swap1\n      tag_94\n      jump\t// in\n    tag_326:\n        /* \"wwcc-contracts/contracts/wwccPool.sol\":8457:8545  uint256 rewardAmount = allRewardAmount * separateBets[j].weight /  singleScorePoolAmount */\n      swap1\n      pop\n        /* \"wwcc-contracts/contracts/wwccPool.sol\":8917:8929  rewardAmount */\n      dup1\n        /* \"wwcc-contracts/contracts/wwccPool.sol\":8879:8889  voteAmount */\n      0x04\n        /* \"wwcc-contracts/contracts/wwccPool.sol\":8879:8913  voteAmount[separateBets[j].joiner] */\n      0x00\n        /* \"wwcc-contracts/contracts/wwccPool.sol\":8890:8902  separateBets */\n      dup8\n        /* \"wwcc-contracts/contracts/wwccPool.sol\":8903:8904  j */\n      dup7\n        /* \"wwcc-contracts/contracts/wwccPool.sol\":8890:8905  separateBets[j] */\n      dup2\n      mload\n      dup2\n      lt\n      tag_327\n      jumpi\n      tag_328\n      tag_304\n      jump\t// in\n    tag_328:\n    tag_327:\n      0x20\n      mul\n      0x20\n      add\n      add\n      mload\n        /* \"wwcc-contracts/contracts/wwccPool.sol\":8890:8912  separateBets[j].joiner */\n      0x80\n      add\n      mload\n        /* \"wwcc-contracts/contracts/wwccPool.sol\":8879:8913  voteAmount[separateBets[j].joiner] */\n      0xffffffffffffffffffffffffffffffffffffffff\n      and\n      0xffffffffffffffffffffffffffffffffffffffff\n      and\n      dup2\n      mstore\n      0x20\n      add\n      swap1\n      dup2\n      mstore\n      0x20\n      add\n      0x00\n      keccak256\n      0x00\n        /* \"wwcc-contracts/contracts/wwccPool.sol\":8879:8929  voteAmount[separateBets[j].joiner] += rewardAmount */\n      dup3\n      dup3\n      sload\n      tag_329\n      swap2\n      swap1\n      tag_22\n      jump\t// in\n    tag_329:\n      swap3\n      pop\n      pop\n      dup2\n      swap1\n      sstore\n      pop\n        /* \"wwcc-contracts/contracts/wwccPool.sol\":8984:8988  true */\n      0x01\n        /* \"wwcc-contracts/contracts/wwccPool.sol\":8957:8969  separateBets */\n      dup6\n        /* \"wwcc-contracts/contracts/wwccPool.sol\":8970:8971  j */\n      dup5\n        /* \"wwcc-contracts/contracts/wwccPool.sol\":8957:8972  separateBets[j] */\n      dup2\n      mload\n      dup2\n      lt\n      tag_330\n      jumpi\n      tag_331\n      tag_304\n      jump\t// in\n    tag_331:\n    tag_330:\n      0x20\n      mul\n      0x20\n      add\n      add\n      mload\n        /* \"wwcc-contracts/contracts/wwccPool.sol\":8957:8981  separateBets[j].finished */\n      0xc0\n      add\n        /* \"wwcc-contracts/contracts/wwccPool.sol\":8957:8988  separateBets[j].finished = true */\n      swap1\n      iszero\n      iszero\n      swap1\n      dup2\n      iszero\n      iszero\n      dup2\n      mstore\n      pop\n      pop\n        /* \"wwcc-contracts/contracts/wwccPool.sol\":8326:9041  {... */\n      pop\n      pop\n        /* \"wwcc-contracts/contracts/wwccPool.sol\":8243:9041  if (separateBets[j].homeScore==homeScore && separateBets[j].visitScore==visitScore){... */\n    tag_318:\n        /* \"wwcc-contracts/contracts/wwccPool.sol\":8097:10378  if(separateBets[j].kind==2){... */\n      jump(tag_332)\n    tag_308:\n        /* \"wwcc-contracts/contracts/wwccPool.sol\":9116:9122  result */\n      dup6\n        /* \"wwcc-contracts/contracts/wwccPool.sol\":9094:9106  separateBets */\n      dup4\n        /* \"wwcc-contracts/contracts/wwccPool.sol\":9107:9108  j */\n      dup3\n        /* \"wwcc-contracts/contracts/wwccPool.sol\":9094:9109  separateBets[j] */\n      dup2\n      mload\n      dup2\n      lt\n      tag_333\n      jumpi\n      tag_334\n      tag_304\n      jump\t// in\n    tag_334:\n    tag_333:\n      0x20\n      mul\n      0x20\n      add\n      add\n      mload\n        /* \"wwcc-contracts/contracts/wwccPool.sol\":9094:9114  separateBets[j].kind */\n      0x20\n      add\n      mload\n        /* \"wwcc-contracts/contracts/wwccPool.sol\":9094:9122  separateBets[j].kind==result */\n      eq\n        /* \"wwcc-contracts/contracts/wwccPool.sol\":9091:10356  if(separateBets[j].kind==result){... */\n      iszero\n      tag_335\n      jumpi\n        /* \"wwcc-contracts/contracts/wwccPool.sol\":9169:9239  (pool.wPool+pool.lPool+pool.dPool+ pool.basal.div(2)).mul(85).div(100) */\n      tag_336\n        /* \"wwcc-contracts/contracts/wwccPool.sol\":9235:9238  100 */\n      0x64\n        /* \"wwcc-contracts/contracts/wwccPool.sol\":9169:9230  (pool.wPool+pool.lPool+pool.dPool+ pool.basal.div(2)).mul(85) */\n      tag_337\n        /* \"wwcc-contracts/contracts/wwccPool.sol\":9227:9229  85 */\n      0x55\n        /* \"wwcc-contracts/contracts/wwccPool.sol\":9204:9221  pool.basal.div(2) */\n      tag_338\n        /* \"wwcc-contracts/contracts/wwccPool.sol\":9219:9220  2 */\n      0x02\n        /* \"wwcc-contracts/contracts/wwccPool.sol\":9204:9208  pool */\n      dup10\n        /* \"wwcc-contracts/contracts/wwccPool.sol\":9204:9214  pool.basal */\n      0xe0\n      add\n      mload\n        /* \"wwcc-contracts/contracts/wwccPool.sol\":9204:9218  pool.basal.div */\n      tag_20\n      swap1\n        /* \"wwcc-contracts/contracts/wwccPool.sol\":9204:9221  pool.basal.div(2) */\n      swap2\n      swap1\n      0xffffffff\n      and\n      jump\t// in\n    tag_338:\n        /* \"wwcc-contracts/contracts/wwccPool.sol\":9192:9196  pool */\n      dup9\n        /* \"wwcc-contracts/contracts/wwccPool.sol\":9192:9202  pool.dPool */\n      0x80\n      add\n      mload\n        /* \"wwcc-contracts/contracts/wwccPool.sol\":9181:9185  pool */\n      dup10\n        /* \"wwcc-contracts/contracts/wwccPool.sol\":9181:9191  pool.lPool */\n      0xa0\n      add\n      mload\n        /* \"wwcc-contracts/contracts/wwccPool.sol\":9170:9174  pool */\n      dup11\n        /* \"wwcc-contracts/contracts/wwccPool.sol\":9170:9180  pool.wPool */\n      0x60\n      add\n      mload\n        /* \"wwcc-contracts/contracts/wwccPool.sol\":9170:9191  pool.wPool+pool.lPool */\n      tag_339\n      swap2\n      swap1\n      tag_22\n      jump\t// in\n    tag_339:\n        /* \"wwcc-contracts/contracts/wwccPool.sol\":9170:9202  pool.wPool+pool.lPool+pool.dPool */\n      tag_340\n      swap2\n      swap1\n      tag_22\n      jump\t// in\n    tag_340:\n        /* \"wwcc-contracts/contracts/wwccPool.sol\":9170:9221  pool.wPool+pool.lPool+pool.dPool+ pool.basal.div(2) */\n      tag_341\n      swap2\n      swap1\n      tag_22\n      jump\t// in\n    tag_341:\n        /* \"wwcc-contracts/contracts/wwccPool.sol\":9169:9226  (pool.wPool+pool.lPool+pool.dPool+ pool.basal.div(2)).mul */\n      tag_199\n      swap1\n        /* \"wwcc-contracts/contracts/wwccPool.sol\":9169:9230  (pool.wPool+pool.lPool+pool.dPool+ pool.basal.div(2)).mul(85) */\n      swap2\n      swap1\n      0xffffffff\n      and\n      jump\t// in\n    tag_337:\n        /* \"wwcc-contracts/contracts/wwccPool.sol\":9169:9234  (pool.wPool+pool.lPool+pool.dPool+ pool.basal.div(2)).mul(85).div */\n      tag_20\n      swap1\n        /* \"wwcc-contracts/contracts/wwccPool.sol\":9169:9239  (pool.wPool+pool.lPool+pool.dPool+ pool.basal.div(2)).mul(85).div(100) */\n      swap2\n      swap1\n      0xffffffff\n      and\n      jump\t// in\n    tag_336:\n        /* \"wwcc-contracts/contracts/wwccPool.sol\":9151:9239  allRewardAmount = (pool.wPool+pool.lPool+pool.dPool+ pool.basal.div(2)).mul(85).div(100) */\n      swap2\n      pop\n        /* \"wwcc-contracts/contracts/wwccPool.sol\":9267:9289  uint256 pickPoolAmount */\n      0x00\n        /* \"wwcc-contracts/contracts/wwccPool.sol\":9349:9350  0 */\n      dup1\n        /* \"wwcc-contracts/contracts/wwccPool.sol\":9325:9337  separateBets */\n      dup5\n        /* \"wwcc-contracts/contracts/wwccPool.sol\":9338:9339  j */\n      dup4\n        /* \"wwcc-contracts/contracts/wwccPool.sol\":9325:9340  separateBets[j] */\n      dup2\n      mload\n      dup2\n      lt\n      tag_342\n      jumpi\n      tag_343\n      tag_304\n      jump\t// in\n    tag_343:\n    tag_342:\n      0x20\n      mul\n      0x20\n      add\n      add\n      mload\n        /* \"wwcc-contracts/contracts/wwccPool.sol\":9325:9345  separateBets[j].kind */\n      0x20\n      add\n      mload\n        /* \"wwcc-contracts/contracts/wwccPool.sol\":9325:9350  separateBets[j].kind == 0 */\n      eq\n        /* \"wwcc-contracts/contracts/wwccPool.sol\":9321:9456  if (separateBets[j].kind == 0){... */\n      iszero\n      tag_344\n      jumpi\n        /* \"wwcc-contracts/contracts/wwccPool.sol\":9400:9427  pool.lPool.mul(85).div(100) */\n      tag_345\n        /* \"wwcc-contracts/contracts/wwccPool.sol\":9423:9426  100 */\n      0x64\n        /* \"wwcc-contracts/contracts/wwccPool.sol\":9400:9418  pool.lPool.mul(85) */\n      tag_346\n        /* \"wwcc-contracts/contracts/wwccPool.sol\":9415:9417  85 */\n      0x55\n        /* \"wwcc-contracts/contracts/wwccPool.sol\":9400:9404  pool */\n      dup9\n        /* \"wwcc-contracts/contracts/wwccPool.sol\":9400:9410  pool.lPool */\n      0xa0\n      add\n      mload\n        /* \"wwcc-contracts/contracts/wwccPool.sol\":9400:9414  pool.lPool.mul */\n      tag_199\n      swap1\n        /* \"wwcc-contracts/contracts/wwccPool.sol\":9400:9418  pool.lPool.mul(85) */\n      swap2\n      swap1\n      0xffffffff\n      and\n      jump\t// in\n    tag_346:\n        /* \"wwcc-contracts/contracts/wwccPool.sol\":9400:9422  pool.lPool.mul(85).div */\n      tag_20\n      swap1\n        /* \"wwcc-contracts/contracts/wwccPool.sol\":9400:9427  pool.lPool.mul(85).div(100) */\n      swap2\n      swap1\n      0xffffffff\n      and\n      jump\t// in\n    tag_345:\n        /* \"wwcc-contracts/contracts/wwccPool.sol\":9383:9427  pickPoolAmount = pool.lPool.mul(85).div(100) */\n      swap1\n      pop\n        /* \"wwcc-contracts/contracts/wwccPool.sol\":9321:9456  if (separateBets[j].kind == 0){... */\n    tag_344:\n        /* \"wwcc-contracts/contracts/wwccPool.sol\":9511:9512  1 */\n      0x01\n        /* \"wwcc-contracts/contracts/wwccPool.sol\":9487:9499  separateBets */\n      dup5\n        /* \"wwcc-contracts/contracts/wwccPool.sol\":9500:9501  j */\n      dup4\n        /* \"wwcc-contracts/contracts/wwccPool.sol\":9487:9502  separateBets[j] */\n      dup2\n      mload\n      dup2\n      lt\n      tag_347\n      jumpi\n      tag_348\n      tag_304\n      jump\t// in\n    tag_348:\n    tag_347:\n      0x20\n      mul\n      0x20\n      add\n      add\n      mload\n        /* \"wwcc-contracts/contracts/wwccPool.sol\":9487:9507  separateBets[j].kind */\n      0x20\n      add\n      mload\n        /* \"wwcc-contracts/contracts/wwccPool.sol\":9487:9512  separateBets[j].kind == 1 */\n      eq\n        /* \"wwcc-contracts/contracts/wwccPool.sol\":9483:9618  if (separateBets[j].kind == 1){... */\n      iszero\n      tag_349\n      jumpi\n        /* \"wwcc-contracts/contracts/wwccPool.sol\":9562:9589  pool.dPool.mul(85).div(100) */\n      tag_350\n        /* \"wwcc-contracts/contracts/wwccPool.sol\":9585:9588  100 */\n      0x64\n        /* \"wwcc-contracts/contracts/wwccPool.sol\":9562:9580  pool.dPool.mul(85) */\n      tag_351\n        /* \"wwcc-contracts/contracts/wwccPool.sol\":9577:9579  85 */\n      0x55\n        /* \"wwcc-contracts/contracts/wwccPool.sol\":9562:9566  pool */\n      dup9\n        /* \"wwcc-contracts/contracts/wwccPool.sol\":9562:9572  pool.dPool */\n      0x80\n      add\n      mload\n        /* \"wwcc-contracts/contracts/wwccPool.sol\":9562:9576  pool.dPool.mul */\n      tag_199\n      swap1\n        /* \"wwcc-contracts/contracts/wwccPool.sol\":9562:9580  pool.dPool.mul(85) */\n      swap2\n      swap1\n      0xffffffff\n      and\n      jump\t// in\n    tag_351:\n        /* \"wwcc-contracts/contracts/wwccPool.sol\":9562:9584  pool.dPool.mul(85).div */\n      tag_20\n      swap1\n        /* \"wwcc-contracts/contracts/wwccPool.sol\":9562:9589  pool.dPool.mul(85).div(100) */\n      swap2\n      swap1\n      0xffffffff\n      and\n      jump\t// in\n    tag_350:\n        /* \"wwcc-contracts/contracts/wwccPool.sol\":9545:9589  pickPoolAmount = pool.dPool.mul(85).div(100) */\n      swap1\n      pop\n        /* \"wwcc-contracts/contracts/wwccPool.sol\":9483:9618  if (separateBets[j].kind == 1){... */\n    tag_349:\n        /* \"wwcc-contracts/contracts/wwccPool.sol\":9673:9674  3 */\n      0x03\n        /* \"wwcc-contracts/contracts/wwccPool.sol\":9649:9661  separateBets */\n      dup5\n        /* \"wwcc-contracts/contracts/wwccPool.sol\":9662:9663  j */\n      dup4\n        /* \"wwcc-contracts/contracts/wwccPool.sol\":9649:9664  separateBets[j] */\n      dup2\n      mload\n      dup2\n      lt\n      tag_352\n      jumpi\n      tag_353\n      tag_304\n      jump\t// in\n    tag_353:\n    tag_352:\n      0x20\n      mul\n      0x20\n      add\n      add\n      mload\n        /* \"wwcc-contracts/contracts/wwccPool.sol\":9649:9669  separateBets[j].kind */\n      0x20\n      add\n      mload\n        /* \"wwcc-contracts/contracts/wwccPool.sol\":9649:9674  separateBets[j].kind == 3 */\n      eq\n        /* \"wwcc-contracts/contracts/wwccPool.sol\":9645:9780  if (separateBets[j].kind == 3){... */\n      iszero\n      tag_354\n      jumpi\n        /* \"wwcc-contracts/contracts/wwccPool.sol\":9724:9751  pool.wPool.mul(85).div(100) */\n      tag_355\n        /* \"wwcc-contracts/contracts/wwccPool.sol\":9747:9750  100 */\n      0x64\n        /* \"wwcc-contracts/contracts/wwccPool.sol\":9724:9742  pool.wPool.mul(85) */\n      tag_356\n        /* \"wwcc-contracts/contracts/wwccPool.sol\":9739:9741  85 */\n      0x55\n        /* \"wwcc-contracts/contracts/wwccPool.sol\":9724:9728  pool */\n      dup9\n        /* \"wwcc-contracts/contracts/wwccPool.sol\":9724:9734  pool.wPool */\n      0x60\n      add\n      mload\n        /* \"wwcc-contracts/contracts/wwccPool.sol\":9724:9738  pool.wPool.mul */\n      tag_199\n      swap1\n        /* \"wwcc-contracts/contracts/wwccPool.sol\":9724:9742  pool.wPool.mul(85) */\n      swap2\n      swap1\n      0xffffffff\n      and\n      jump\t// in\n    tag_356:\n        /* \"wwcc-contracts/contracts/wwccPool.sol\":9724:9746  pool.wPool.mul(85).div */\n      tag_20\n      swap1\n        /* \"wwcc-contracts/contracts/wwccPool.sol\":9724:9751  pool.wPool.mul(85).div(100) */\n      swap2\n      swap1\n      0xffffffff\n      and\n      jump\t// in\n    tag_355:\n        /* \"wwcc-contracts/contracts/wwccPool.sol\":9707:9751  pickPoolAmount = pool.wPool.mul(85).div(100) */\n      swap1\n      pop\n        /* \"wwcc-contracts/contracts/wwccPool.sol\":9645:9780  if (separateBets[j].kind == 3){... */\n    tag_354:\n        /* \"wwcc-contracts/contracts/wwccPool.sol\":9807:9827  uint256 rewardAmount */\n      0x00\n        /* \"wwcc-contracts/contracts/wwccPool.sol\":9874:9888  pickPoolAmount */\n      dup2\n        /* \"wwcc-contracts/contracts/wwccPool.sol\":9848:9860  separateBets */\n      dup6\n        /* \"wwcc-contracts/contracts/wwccPool.sol\":9861:9862  j */\n      dup5\n        /* \"wwcc-contracts/contracts/wwccPool.sol\":9848:9863  separateBets[j] */\n      dup2\n      mload\n      dup2\n      lt\n      tag_357\n      jumpi\n      tag_358\n      tag_304\n      jump\t// in\n    tag_358:\n    tag_357:\n      0x20\n      mul\n      0x20\n      add\n      add\n      mload\n        /* \"wwcc-contracts/contracts/wwccPool.sol\":9848:9870  separateBets[j].weight */\n      0x00\n      add\n      mload\n        /* \"wwcc-contracts/contracts/wwccPool.sol\":9830:9845  allRewardAmount */\n      dup6\n        /* \"wwcc-contracts/contracts/wwccPool.sol\":9830:9870  allRewardAmount * separateBets[j].weight */\n      tag_359\n      swap2\n      swap1\n      tag_325\n      jump\t// in\n    tag_359:\n        /* \"wwcc-contracts/contracts/wwccPool.sol\":9830:9888  allRewardAmount * separateBets[j].weight /  pickPoolAmount */\n      tag_360\n      swap2\n      swap1\n      tag_94\n      jump\t// in\n    tag_360:\n        /* \"wwcc-contracts/contracts/wwccPool.sol\":9807:9888  uint256 rewardAmount = allRewardAmount * separateBets[j].weight /  pickPoolAmount */\n      swap1\n      pop\n        /* \"wwcc-contracts/contracts/wwccPool.sol\":10260:10272  rewardAmount */\n      dup1\n        /* \"wwcc-contracts/contracts/wwccPool.sol\":10222:10232  voteAmount */\n      0x04\n        /* \"wwcc-contracts/contracts/wwccPool.sol\":10222:10256  voteAmount[separateBets[j].joiner] */\n      0x00\n        /* \"wwcc-contracts/contracts/wwccPool.sol\":10233:10245  separateBets */\n      dup8\n        /* \"wwcc-contracts/contracts/wwccPool.sol\":10246:10247  j */\n      dup7\n        /* \"wwcc-contracts/contracts/wwccPool.sol\":10233:10248  separateBets[j] */\n      dup2\n      mload\n      dup2\n      lt\n      tag_361\n      jumpi\n      tag_362\n      tag_304\n      jump\t// in\n    tag_362:\n    tag_361:\n      0x20\n      mul\n      0x20\n      add\n      add\n      mload\n        /* \"wwcc-contracts/contracts/wwccPool.sol\":10233:10255  separateBets[j].joiner */\n      0x80\n      add\n      mload\n        /* \"wwcc-contracts/contracts/wwccPool.sol\":10222:10256  voteAmount[separateBets[j].joiner] */\n      0xffffffffffffffffffffffffffffffffffffffff\n      and\n      0xffffffffffffffffffffffffffffffffffffffff\n      and\n      dup2\n      mstore\n      0x20\n      add\n      swap1\n      dup2\n      mstore\n      0x20\n      add\n      0x00\n      keccak256\n      0x00\n        /* \"wwcc-contracts/contracts/wwccPool.sol\":10222:10272  voteAmount[separateBets[j].joiner] += rewardAmount */\n      dup3\n      dup3\n      sload\n      tag_363\n      swap2\n      swap1\n      tag_22\n      jump\t// in\n    tag_363:\n      swap3\n      pop\n      pop\n      dup2\n      swap1\n      sstore\n      pop\n        /* \"wwcc-contracts/contracts/wwccPool.sol\":10327:10331  true */\n      0x01\n        /* \"wwcc-contracts/contracts/wwccPool.sol\":10300:10312  separateBets */\n      dup6\n        /* \"wwcc-contracts/contracts/wwccPool.sol\":10313:10314  j */\n      dup5\n        /* \"wwcc-contracts/contracts/wwccPool.sol\":10300:10315  separateBets[j] */\n      dup2\n      mload\n      dup2\n      lt\n      tag_364\n      jumpi\n      tag_365\n      tag_304\n      jump\t// in\n    tag_365:\n    tag_364:\n      0x20\n      mul\n      0x20\n      add\n      add\n      mload\n        /* \"wwcc-contracts/contracts/wwccPool.sol\":10300:10324  separateBets[j].finished */\n      0xc0\n      add\n        /* \"wwcc-contracts/contracts/wwccPool.sol\":10300:10331  separateBets[j].finished = true */\n      swap1\n      iszero\n      iszero\n      swap1\n      dup2\n      iszero\n      iszero\n      dup2\n      mstore\n      pop\n      pop\n        /* \"wwcc-contracts/contracts/wwccPool.sol\":9123:10356  {... */\n      pop\n      pop\n        /* \"wwcc-contracts/contracts/wwccPool.sol\":9091:10356  if(separateBets[j].kind==result){... */\n    tag_335:\n        /* \"wwcc-contracts/contracts/wwccPool.sol\":8097:10378  if(separateBets[j].kind==2){... */\n    tag_332:\n        /* \"wwcc-contracts/contracts/wwccPool.sol\":8037:10398  if(separateBets[j].finished = false){... */\n    tag_305:\n        /* \"wwcc-contracts/contracts/wwccPool.sol\":7995:7999  j ++ */\n      dup1\n      dup1\n      tag_366\n      swap1\n      tag_367\n      jump\t// in\n    tag_366:\n      swap2\n      pop\n      pop\n        /* \"wwcc-contracts/contracts/wwccPool.sol\":7901:10418  for (... */\n      jump(tag_298)\n    tag_299:\n      pop\n        /* \"wwcc-contracts/contracts/wwccPool.sol\":10451:10455  true */\n      0x01\n        /* \"wwcc-contracts/contracts/wwccPool.sol\":10435:10439  pool */\n      dup4\n        /* \"wwcc-contracts/contracts/wwccPool.sol\":10435:10448  pool.finished */\n      0x0140\n      add\n        /* \"wwcc-contracts/contracts/wwccPool.sol\":10435:10455  pool.finished = true */\n      swap1\n      iszero\n      iszero\n      swap1\n      dup2\n      iszero\n      iszero\n      dup2\n      mstore\n      pop\n      pop\n        /* \"wwcc-contracts/contracts/wwccPool.sol\":7373:10590  {... */\n      pop\n      pop\n      pop\n        /* \"wwcc-contracts/contracts/wwccPool.sol\":10605:10609  true */\n      0x01\n        /* \"wwcc-contracts/contracts/wwccPool.sol\":10598:10609  return true */\n      swap1\n      pop\n        /* \"wwcc-contracts/contracts/wwccPool.sol\":7159:10616  function Award(bytes32 poolKey,uint256 homeScore,uint256 visitScore,uint256 result)  external onlyManager  payable returns(bool){... */\n      swap5\n      swap4\n      pop\n      pop\n      pop\n      pop\n      jump\t// out\n        /* \"wwcc-contracts/contracts/wwccPool.sol\":5719:6132  function voteWithdrawal(address joiner,uint256 amount) external onlyManager payable returns (bool){... */\n    tag_74:\n        /* \"wwcc-contracts/contracts/wwccPool.sol\":5812:5816  bool */\n      0x00\n        /* \"wwcc-contracts/contracts/wwccPool.sol\":13847:13852  owner */\n      dup1\n      0x00\n      swap1\n      sload\n      swap1\n      0x0100\n      exp\n      swap1\n      div\n      0xffffffffffffffffffffffffffffffffffffffff\n      and\n        /* \"wwcc-contracts/contracts/wwccPool.sol\":13833:13852  msg.sender == owner */\n      0xffffffffffffffffffffffffffffffffffffffff\n      and\n        /* \"wwcc-contracts/contracts/wwccPool.sol\":13833:13843  msg.sender */\n      caller\n        /* \"wwcc-contracts/contracts/wwccPool.sol\":13833:13852  msg.sender == owner */\n      0xffffffffffffffffffffffffffffffffffffffff\n      and\n      eq\n        /* \"wwcc-contracts/contracts/wwccPool.sol\":13812:13903  require(... */\n      tag_369\n      jumpi\n      mload(0x40)\n      0x08c379a000000000000000000000000000000000000000000000000000000000\n      dup2\n      mstore\n      0x04\n      add\n      tag_370\n      swap1\n      tag_98\n      jump\t// in\n    tag_370:\n      mload(0x40)\n      dup1\n      swap2\n      sub\n      swap1\n      revert\n    tag_369:\n        /* \"wwcc-contracts/contracts/wwccPool.sol\":5852:5858  amount */\n      dup2\n        /* \"wwcc-contracts/contracts/wwccPool.sol\":5830:5840  voteAmount */\n      0x04\n        /* \"wwcc-contracts/contracts/wwccPool.sol\":5830:5848  voteAmount[joiner] */\n      0x00\n        /* \"wwcc-contracts/contracts/wwccPool.sol\":5841:5847  joiner */\n      dup6\n        /* \"wwcc-contracts/contracts/wwccPool.sol\":5830:5848  voteAmount[joiner] */\n      0xffffffffffffffffffffffffffffffffffffffff\n      and\n      0xffffffffffffffffffffffffffffffffffffffff\n      and\n      dup2\n      mstore\n      0x20\n      add\n      swap1\n      dup2\n      mstore\n      0x20\n      add\n      0x00\n      keccak256\n      sload\n        /* \"wwcc-contracts/contracts/wwccPool.sol\":5830:5858  voteAmount[joiner] >= amount */\n      lt\n      iszero\n        /* \"wwcc-contracts/contracts/wwccPool.sol\":5830:5885  voteAmount[joiner] >= amount && voteAmount[joiner] >= 0 */\n      dup1\n      iszero\n      tag_372\n      jumpi\n      pop\n        /* \"wwcc-contracts/contracts/wwccPool.sol\":5884:5885  0 */\n      0x00\n        /* \"wwcc-contracts/contracts/wwccPool.sol\":5862:5872  voteAmount */\n      0x04\n        /* \"wwcc-contracts/contracts/wwccPool.sol\":5862:5880  voteAmount[joiner] */\n      0x00\n        /* \"wwcc-contracts/contracts/wwccPool.sol\":5873:5879  joiner */\n      dup6\n        /* \"wwcc-contracts/contracts/wwccPool.sol\":5862:5880  voteAmount[joiner] */\n      0xffffffffffffffffffffffffffffffffffffffff\n      and\n      0xffffffffffffffffffffffffffffffffffffffff\n      and\n      dup2\n      mstore\n      0x20\n      add\n      swap1\n      dup2\n      mstore\n      0x20\n      add\n      0x00\n      keccak256\n      sload\n        /* \"wwcc-contracts/contracts/wwccPool.sol\":5862:5885  voteAmount[joiner] >= 0 */\n      lt\n      iszero\n        /* \"wwcc-contracts/contracts/wwccPool.sol\":5830:5885  voteAmount[joiner] >= amount && voteAmount[joiner] >= 0 */\n    tag_372:\n        /* \"wwcc-contracts/contracts/wwccPool.sol\":5827:6105  if(voteAmount[joiner] >= amount && voteAmount[joiner] >= 0){... */\n      iszero\n      tag_373\n      jumpi\n        /* \"wwcc-contracts/contracts/wwccPool.sol\":5900:5933  address payable toAddress_address */\n      0x00\n        /* \"wwcc-contracts/contracts/wwccPool.sol\":5944:5950  joiner */\n      dup4\n        /* \"wwcc-contracts/contracts/wwccPool.sol\":5900:5951  address payable toAddress_address = payable(joiner) */\n      swap1\n      pop\n        /* \"wwcc-contracts/contracts/wwccPool.sol\":5965:5982  toAddress_address */\n      dup1\n        /* \"wwcc-contracts/contracts/wwccPool.sol\":5965:5991  toAddress_address.transfer */\n      0xffffffffffffffffffffffffffffffffffffffff\n      and\n        /* \"wwcc-contracts/contracts/wwccPool.sol\":5965:6034  toAddress_address.transfer(voteAmount[joiner].mul(10000000000000000)) */\n      0x08fc\n        /* \"wwcc-contracts/contracts/wwccPool.sol\":5992:6033  voteAmount[joiner].mul(10000000000000000) */\n      tag_374\n        /* \"wwcc-contracts/contracts/wwccPool.sol\":6015:6032  10000000000000000 */\n      0x2386f26fc10000\n        /* \"wwcc-contracts/contracts/wwccPool.sol\":5992:6002  voteAmount */\n      0x04\n        /* \"wwcc-contracts/contracts/wwccPool.sol\":5992:6010  voteAmount[joiner] */\n      0x00\n        /* \"wwcc-contracts/contracts/wwccPool.sol\":6003:6009  joiner */\n      dup10\n        /* \"wwcc-contracts/contracts/wwccPool.sol\":5992:6010  voteAmount[joiner] */\n      0xffffffffffffffffffffffffffffffffffffffff\n      and\n      0xffffffffffffffffffffffffffffffffffffffff\n      and\n      dup2\n      mstore\n      0x20\n      add\n      swap1\n      dup2\n      mstore\n      0x20\n      add\n      0x00\n      keccak256\n      sload\n        /* \"wwcc-contracts/contracts/wwccPool.sol\":5992:6014  voteAmount[joiner].mul */\n      tag_199\n      swap1\n        /* \"wwcc-contracts/contracts/wwccPool.sol\":5992:6033  voteAmount[joiner].mul(10000000000000000) */\n      swap2\n      swap1\n      0xffffffff\n      and\n      jump\t// in\n    tag_374:\n        /* \"wwcc-contracts/contracts/wwccPool.sol\":5965:6034  toAddress_address.transfer(voteAmount[joiner].mul(10000000000000000)) */\n      swap1\n      dup2\n      iszero\n      mul\n      swap1\n      mload(0x40)\n      0x00\n      mload(0x40)\n      dup1\n      dup4\n      sub\n      dup2\n      dup6\n      dup9\n      dup9\n      call\n      swap4\n      pop\n      pop\n      pop\n      pop\n      iszero\n      dup1\n      iszero\n      tag_376\n      jumpi\n      returndatasize\n      0x00\n      dup1\n      returndatacopy\n      revert(0x00, returndatasize)\n    tag_376:\n      pop\n        /* \"wwcc-contracts/contracts/wwccPool.sol\":5886:6045  {... */\n      pop\n        /* \"wwcc-contracts/contracts/wwccPool.sol\":5827:6105  if(voteAmount[joiner] >= amount && voteAmount[joiner] >= 0){... */\n      jump(tag_377)\n    tag_373:\n        /* \"wwcc-contracts/contracts/wwccPool.sol\":6063:6094  revert(\"not enough voteAmount\") */\n      mload(0x40)\n      0x08c379a000000000000000000000000000000000000000000000000000000000\n      dup2\n      mstore\n      0x04\n      add\n      tag_378\n      swap1\n      tag_207\n      jump\t// in\n    tag_378:\n      mload(0x40)\n      dup1\n      swap2\n      sub\n      swap1\n      revert\n        /* \"wwcc-contracts/contracts/wwccPool.sol\":5827:6105  if(voteAmount[joiner] >= amount && voteAmount[joiner] >= 0){... */\n    tag_377:\n        /* \"wwcc-contracts/contracts/wwccPool.sol\":6121:6125  true */\n      0x01\n        /* \"wwcc-contracts/contracts/wwccPool.sol\":6114:6125  return true */\n      swap1\n      pop\n        /* \"wwcc-contracts/contracts/wwccPool.sol\":5719:6132  function voteWithdrawal(address joiner,uint256 amount) external onlyManager payable returns (bool){... */\n      swap3\n      swap2\n      pop\n      pop\n      jump\t// out\n        /* \"wwcc-contracts/contracts/wwccPool.sol\":6983:7088  function CheckVoteTickets() external view returns (uint256){... */\n    tag_78:\n        /* \"wwcc-contracts/contracts/wwccPool.sol\":7034:7041  uint256 */\n      0x00\n        /* \"wwcc-contracts/contracts/wwccPool.sol\":7059:7069  voteAmount */\n      0x04\n        /* \"wwcc-contracts/contracts/wwccPool.sol\":7059:7081  voteAmount[msg.sender] */\n      0x00\n        /* \"wwcc-contracts/contracts/wwccPool.sol\":7070:7080  msg.sender */\n      caller\n        /* \"wwcc-contracts/contracts/wwccPool.sol\":7059:7081  voteAmount[msg.sender] */\n      0xffffffffffffffffffffffffffffffffffffffff\n      and\n      0xffffffffffffffffffffffffffffffffffffffff\n      and\n      dup2\n      mstore\n      0x20\n      add\n      swap1\n      dup2\n      mstore\n      0x20\n      add\n      0x00\n      keccak256\n      sload\n        /* \"wwcc-contracts/contracts/wwccPool.sol\":7052:7081  return voteAmount[msg.sender] */\n      swap1\n      pop\n        /* \"wwcc-contracts/contracts/wwccPool.sol\":6983:7088  function CheckVoteTickets() external view returns (uint256){... */\n      swap1\n      jump\t// out\n        /* \"wwcc-contracts/contracts/wwccPool.sol\":6574:6672  function getAllPoolKeys() external view returns (bytes32[] memory){... */\n    tag_82:\n        /* \"wwcc-contracts/contracts/wwccPool.sol\":6623:6639  bytes32[] memory */\n      0x60\n        /* \"wwcc-contracts/contracts/wwccPool.sol\":6657:6665  poolKeys */\n      0x02\n        /* \"wwcc-contracts/contracts/wwccPool.sol\":6650:6665  return poolKeys */\n      dup1\n      sload\n      dup1\n      0x20\n      mul\n      0x20\n      add\n      mload(0x40)\n      swap1\n      dup2\n      add\n      0x40\n      mstore\n      dup1\n      swap3\n      swap2\n      swap1\n      dup2\n      dup2\n      mstore\n      0x20\n      add\n      dup3\n      dup1\n      sload\n      dup1\n      iszero\n      tag_381\n      jumpi\n      0x20\n      mul\n      dup3\n      add\n      swap2\n      swap1\n      0x00\n      mstore\n      keccak256(0x00, 0x20)\n      swap1\n    tag_382:\n      dup2\n      sload\n      dup2\n      mstore\n      0x20\n      add\n      swap1\n      0x01\n      add\n      swap1\n      dup1\n      dup4\n      gt\n      tag_382\n      jumpi\n    tag_381:\n      pop\n      pop\n      pop\n      pop\n      pop\n      swap1\n      pop\n        /* \"wwcc-contracts/contracts/wwccPool.sol\":6574:6672  function getAllPoolKeys() external view returns (bytes32[] memory){... */\n      swap1\n      jump\t// out\n        /* \"wwcc-contracts/contracts/wwccPool.sol\":10915:11563  function getPool(bytes32 poolKey) external view returns (string memory vs,string memory rounds,PoolViewInfo memory viewInfo){... */\n    tag_88:\n        /* \"wwcc-contracts/contracts/wwccPool.sol\":10972:10988  string memory vs */\n      0x60\n        /* \"wwcc-contracts/contracts/wwccPool.sol\":10989:11009  string memory rounds */\n      dup1\n        /* \"wwcc-contracts/contracts/wwccPool.sol\":11010:11038  PoolViewInfo memory viewInfo */\n      tag_383\n      tag_384\n      jump\t// in\n    tag_383:\n        /* \"wwcc-contracts/contracts/wwccPool.sol\":11053:11070  contains(poolKey) */\n      tag_386\n        /* \"wwcc-contracts/contracts/wwccPool.sol\":11062:11069  poolKey */\n      dup5\n        /* \"wwcc-contracts/contracts/wwccPool.sol\":11053:11061  contains */\n      tag_105\n        /* \"wwcc-contracts/contracts/wwccPool.sol\":11053:11070  contains(poolKey) */\n      jump\t// in\n    tag_386:\n        /* \"wwcc-contracts/contracts/wwccPool.sol\":11049:11557  if(!contains(poolKey)) { ... */\n      tag_387\n      jumpi\n        /* \"wwcc-contracts/contracts/wwccPool.sol\":11087:11106  revert(\"not exist\") */\n      mload(0x40)\n      0x08c379a000000000000000000000000000000000000000000000000000000000\n      dup2\n      mstore\n      0x04\n      add\n      tag_388\n      swap1\n      tag_389\n      jump\t// in\n    tag_388:\n      mload(0x40)\n      dup1\n      swap2\n      sub\n      swap1\n      revert\n        /* \"wwcc-contracts/contracts/wwccPool.sol\":11049:11557  if(!contains(poolKey)) { ... */\n    tag_387:\n        /* \"wwcc-contracts/contracts/wwccPool.sol\":11135:11152  string  memory hv */\n      0x00\n        /* \"wwcc-contracts/contracts/wwccPool.sol\":11155:11194  strConcat(WcPools[poolKey].home,\" vs \") */\n      tag_391\n        /* \"wwcc-contracts/contracts/wwccPool.sol\":11165:11172  WcPools */\n      0x05\n        /* \"wwcc-contracts/contracts/wwccPool.sol\":11165:11181  WcPools[poolKey] */\n      0x00\n        /* \"wwcc-contracts/contracts/wwccPool.sol\":11173:11180  poolKey */\n      dup8\n        /* \"wwcc-contracts/contracts/wwccPool.sol\":11165:11181  WcPools[poolKey] */\n      dup2\n      mstore\n      0x20\n      add\n      swap1\n      dup2\n      mstore\n      0x20\n      add\n      0x00\n      keccak256\n        /* \"wwcc-contracts/contracts/wwccPool.sol\":11165:11186  WcPools[poolKey].home */\n      0x00\n      add\n        /* \"wwcc-contracts/contracts/wwccPool.sol\":11155:11194  strConcat(WcPools[poolKey].home,\" vs \") */\n      dup1\n      sload\n      tag_392\n      swap1\n      tag_111\n      jump\t// in\n    tag_392:\n      dup1\n      0x1f\n      add\n      0x20\n      dup1\n      swap2\n      div\n      mul\n      0x20\n      add\n      mload(0x40)\n      swap1\n      dup2\n      add\n      0x40\n      mstore\n      dup1\n      swap3\n      swap2\n      swap1\n      dup2\n      dup2\n      mstore\n      0x20\n      add\n      dup3\n      dup1\n      sload\n      tag_393\n      swap1\n      tag_111\n      jump\t// in\n    tag_393:\n      dup1\n      iszero\n      tag_394\n      jumpi\n      dup1\n      0x1f\n      lt\n      tag_395\n      jumpi\n      0x0100\n      dup1\n      dup4\n      sload\n      div\n      mul\n      dup4\n      mstore\n      swap2\n      0x20\n      add\n      swap2\n      jump(tag_394)\n    tag_395:\n      dup3\n      add\n      swap2\n      swap1\n      0x00\n      mstore\n      keccak256(0x00, 0x20)\n      swap1\n    tag_396:\n      dup2\n      sload\n      dup2\n      mstore\n      swap1\n      0x01\n      add\n      swap1\n      0x20\n      add\n      dup1\n      dup4\n      gt\n      tag_396\n      jumpi\n      dup3\n      swap1\n      sub\n      0x1f\n      and\n      dup3\n      add\n      swap2\n    tag_394:\n      pop\n      pop\n      pop\n      pop\n      pop\n      mload(0x40)\n      dup1\n      0x40\n      add\n      0x40\n      mstore\n      dup1\n      0x04\n      dup2\n      mstore\n      0x20\n      add\n      0x2076732000000000000000000000000000000000000000000000000000000000\n      dup2\n      mstore\n      pop\n        /* \"wwcc-contracts/contracts/wwccPool.sol\":11155:11164  strConcat */\n      tag_150\n        /* \"wwcc-contracts/contracts/wwccPool.sol\":11155:11194  strConcat(WcPools[poolKey].home,\" vs \") */\n      jump\t// in\n    tag_391:\n        /* \"wwcc-contracts/contracts/wwccPool.sol\":11135:11194  string  memory hv = strConcat(WcPools[poolKey].home,\" vs \") */\n      swap1\n      pop\n        /* \"wwcc-contracts/contracts/wwccPool.sol\":11213:11249  strConcat(hv,WcPools[poolKey].visit) */\n      tag_397\n        /* \"wwcc-contracts/contracts/wwccPool.sol\":11223:11225  hv */\n      dup2\n        /* \"wwcc-contracts/contracts/wwccPool.sol\":11226:11233  WcPools */\n      0x05\n        /* \"wwcc-contracts/contracts/wwccPool.sol\":11226:11242  WcPools[poolKey] */\n      0x00\n        /* \"wwcc-contracts/contracts/wwccPool.sol\":11234:11241  poolKey */\n      dup9\n        /* \"wwcc-contracts/contracts/wwccPool.sol\":11226:11242  WcPools[poolKey] */\n      dup2\n      mstore\n      0x20\n      add\n      swap1\n      dup2\n      mstore\n      0x20\n      add\n      0x00\n      keccak256\n        /* \"wwcc-contracts/contracts/wwccPool.sol\":11226:11248  WcPools[poolKey].visit */\n      0x01\n      add\n        /* \"wwcc-contracts/contracts/wwccPool.sol\":11213:11249  strConcat(hv,WcPools[poolKey].visit) */\n      dup1\n      sload\n      tag_398\n      swap1\n      tag_111\n      jump\t// in\n    tag_398:\n      dup1\n      0x1f\n      add\n      0x20\n      dup1\n      swap2\n      div\n      mul\n      0x20\n      add\n      mload(0x40)\n      swap1\n      dup2\n      add\n      0x40\n      mstore\n      dup1\n      swap3\n      swap2\n      swap1\n      dup2\n      dup2\n      mstore\n      0x20\n      add\n      dup3\n      dup1\n      sload\n      tag_399\n      swap1\n      tag_111\n      jump\t// in\n    tag_399:\n      dup1\n      iszero\n      tag_400\n      jumpi\n      dup1\n      0x1f\n      lt\n      tag_401\n      jumpi\n      0x0100\n      dup1\n      dup4\n      sload\n      div\n      mul\n      dup4\n      mstore\n      swap2\n      0x20\n      add\n      swap2\n      jump(tag_400)\n    tag_401:\n      dup3\n      add\n      swap2\n      swap1\n      0x00\n      mstore\n      keccak256(0x00, 0x20)\n      swap1\n    tag_402:\n      dup2\n      sload\n      dup2\n      mstore\n      swap1\n      0x01\n      add\n      swap1\n      0x20\n      add\n      dup1\n      dup4\n      gt\n      tag_402\n      jumpi\n      dup3\n      swap1\n      sub\n      0x1f\n      and\n      dup3\n      add\n      swap2\n    tag_400:\n      pop\n      pop\n      pop\n      pop\n      pop\n        /* \"wwcc-contracts/contracts/wwccPool.sol\":11213:11222  strConcat */\n      tag_150\n        /* \"wwcc-contracts/contracts/wwccPool.sol\":11213:11249  strConcat(hv,WcPools[poolKey].visit) */\n      jump\t// in\n    tag_397:\n        /* \"wwcc-contracts/contracts/wwccPool.sol\":11208:11249  vs = strConcat(hv,WcPools[poolKey].visit) */\n      swap4\n      pop\n        /* \"wwcc-contracts/contracts/wwccPool.sol\":11263:11285  PoolViewInfo memory vi */\n      0x00\n        /* \"wwcc-contracts/contracts/wwccPool.sol\":11288:11468  PoolViewInfo(WcPools[poolKey].wPool,... */\n      mload(0x40)\n      dup1\n      0xa0\n      add\n      0x40\n      mstore\n      dup1\n        /* \"wwcc-contracts/contracts/wwccPool.sol\":11301:11308  WcPools */\n      0x05\n        /* \"wwcc-contracts/contracts/wwccPool.sol\":11301:11317  WcPools[poolKey] */\n      0x00\n        /* \"wwcc-contracts/contracts/wwccPool.sol\":11309:11316  poolKey */\n      dup10\n        /* \"wwcc-contracts/contracts/wwccPool.sol\":11301:11317  WcPools[poolKey] */\n      dup2\n      mstore\n      0x20\n      add\n      swap1\n      dup2\n      mstore\n      0x20\n      add\n      0x00\n      keccak256\n        /* \"wwcc-contracts/contracts/wwccPool.sol\":11301:11323  WcPools[poolKey].wPool */\n      0x03\n      add\n      sload\n        /* \"wwcc-contracts/contracts/wwccPool.sol\":11288:11468  PoolViewInfo(WcPools[poolKey].wPool,... */\n      dup2\n      mstore\n      0x20\n      add\n        /* \"wwcc-contracts/contracts/wwccPool.sol\":11337:11344  WcPools */\n      0x05\n        /* \"wwcc-contracts/contracts/wwccPool.sol\":11337:11353  WcPools[poolKey] */\n      0x00\n        /* \"wwcc-contracts/contracts/wwccPool.sol\":11345:11352  poolKey */\n      dup10\n        /* \"wwcc-contracts/contracts/wwccPool.sol\":11337:11353  WcPools[poolKey] */\n      dup2\n      mstore\n      0x20\n      add\n      swap1\n      dup2\n      mstore\n      0x20\n      add\n      0x00\n      keccak256\n        /* \"wwcc-contracts/contracts/wwccPool.sol\":11337:11359  WcPools[poolKey].dPool */\n      0x04\n      add\n      sload\n        /* \"wwcc-contracts/contracts/wwccPool.sol\":11288:11468  PoolViewInfo(WcPools[poolKey].wPool,... */\n      dup2\n      mstore\n      0x20\n      add\n        /* \"wwcc-contracts/contracts/wwccPool.sol\":11373:11380  WcPools */\n      0x05\n        /* \"wwcc-contracts/contracts/wwccPool.sol\":11373:11389  WcPools[poolKey] */\n      0x00\n        /* \"wwcc-contracts/contracts/wwccPool.sol\":11381:11388  poolKey */\n      dup10\n        /* \"wwcc-contracts/contracts/wwccPool.sol\":11373:11389  WcPools[poolKey] */\n      dup2\n      mstore\n      0x20\n      add\n      swap1\n      dup2\n      mstore\n      0x20\n      add\n      0x00\n      keccak256\n        /* \"wwcc-contracts/contracts/wwccPool.sol\":11373:11395  WcPools[poolKey].lPool */\n      0x05\n      add\n      sload\n        /* \"wwcc-contracts/contracts/wwccPool.sol\":11288:11468  PoolViewInfo(WcPools[poolKey].wPool,... */\n      dup2\n      mstore\n      0x20\n      add\n        /* \"wwcc-contracts/contracts/wwccPool.sol\":11409:11416  WcPools */\n      0x05\n        /* \"wwcc-contracts/contracts/wwccPool.sol\":11409:11425  WcPools[poolKey] */\n      0x00\n        /* \"wwcc-contracts/contracts/wwccPool.sol\":11417:11424  poolKey */\n      dup10\n        /* \"wwcc-contracts/contracts/wwccPool.sol\":11409:11425  WcPools[poolKey] */\n      dup2\n      mstore\n      0x20\n      add\n      swap1\n      dup2\n      mstore\n      0x20\n      add\n      0x00\n      keccak256\n        /* \"wwcc-contracts/contracts/wwccPool.sol\":11409:11431  WcPools[poolKey].sPool */\n      0x06\n      add\n      sload\n        /* \"wwcc-contracts/contracts/wwccPool.sol\":11288:11468  PoolViewInfo(WcPools[poolKey].wPool,... */\n      dup2\n      mstore\n      0x20\n      add\n        /* \"wwcc-contracts/contracts/wwccPool.sol\":11445:11452  WcPools */\n      0x05\n        /* \"wwcc-contracts/contracts/wwccPool.sol\":11445:11461  WcPools[poolKey] */\n      0x00\n        /* \"wwcc-contracts/contracts/wwccPool.sol\":11453:11460  poolKey */\n      dup10\n        /* \"wwcc-contracts/contracts/wwccPool.sol\":11445:11461  WcPools[poolKey] */\n      dup2\n      mstore\n      0x20\n      add\n      swap1\n      dup2\n      mstore\n      0x20\n      add\n      0x00\n      keccak256\n        /* \"wwcc-contracts/contracts/wwccPool.sol\":11445:11467  WcPools[poolKey].basal */\n      0x07\n      add\n      sload\n        /* \"wwcc-contracts/contracts/wwccPool.sol\":11288:11468  PoolViewInfo(WcPools[poolKey].wPool,... */\n      dup2\n      mstore\n      pop\n        /* \"wwcc-contracts/contracts/wwccPool.sol\":11263:11468  PoolViewInfo memory vi = PoolViewInfo(WcPools[poolKey].wPool,... */\n      swap1\n      pop\n        /* \"wwcc-contracts/contracts/wwccPool.sol\":11490:11492  vs */\n      dup5\n        /* \"wwcc-contracts/contracts/wwccPool.sol\":11506:11513  WcPools */\n      0x05\n        /* \"wwcc-contracts/contracts/wwccPool.sol\":11506:11522  WcPools[poolKey] */\n      0x00\n        /* \"wwcc-contracts/contracts/wwccPool.sol\":11514:11521  poolKey */\n      dup9\n        /* \"wwcc-contracts/contracts/wwccPool.sol\":11506:11522  WcPools[poolKey] */\n      dup2\n      mstore\n      0x20\n      add\n      swap1\n      dup2\n      mstore\n      0x20\n      add\n      0x00\n      keccak256\n        /* \"wwcc-contracts/contracts/wwccPool.sol\":11506:11529  WcPools[poolKey].rounds */\n      0x02\n      add\n        /* \"wwcc-contracts/contracts/wwccPool.sol\":11543:11545  vi */\n      dup3\n        /* \"wwcc-contracts/contracts/wwccPool.sol\":11482:11546  return (vs,... */\n      dup2\n      dup1\n      sload\n      tag_403\n      swap1\n      tag_111\n      jump\t// in\n    tag_403:\n      dup1\n      0x1f\n      add\n      0x20\n      dup1\n      swap2\n      div\n      mul\n      0x20\n      add\n      mload(0x40)\n      swap1\n      dup2\n      add\n      0x40\n      mstore\n      dup1\n      swap3\n      swap2\n      swap1\n      dup2\n      dup2\n      mstore\n      0x20\n      add\n      dup3\n      dup1\n      sload\n      tag_404\n      swap1\n      tag_111\n      jump\t// in\n    tag_404:\n      dup1\n      iszero\n      tag_405\n      jumpi\n      dup1\n      0x1f\n      lt\n      tag_406\n      jumpi\n      0x0100\n      dup1\n      dup4\n      sload\n      div\n      mul\n      dup4\n      mstore\n      swap2\n      0x20\n      add\n      swap2\n      jump(tag_405)\n    tag_406:\n      dup3\n      add\n      swap2\n      swap1\n      0x00\n      mstore\n      keccak256(0x00, 0x20)\n      swap1\n    tag_407:\n      dup2\n      sload\n      dup2\n      mstore\n      swap1\n      0x01\n      add\n      swap1\n      0x20\n      add\n      dup1\n      dup4\n      gt\n      tag_407\n      jumpi\n      dup3\n      swap1\n      sub\n      0x1f\n      and\n      dup3\n      add\n      swap2\n    tag_405:\n      pop\n      pop\n      pop\n      pop\n      pop\n      swap2\n      pop\n      swap5\n      pop\n      swap5\n      pop\n      swap5\n      pop\n      pop\n      pop\n        /* \"wwcc-contracts/contracts/wwccPool.sol\":10915:11563  function getPool(bytes32 poolKey) external view returns (string memory vs,string memory rounds,PoolViewInfo memory viewInfo){... */\n      swap2\n      swap4\n      swap1\n      swap3\n      pop\n      jump\t// out\n        /* \"wwcc-contracts/contracts/wwccPool.sol\":11627:11740  function contains(bytes32 poolKey) internal view returns (bool) {... */\n    tag_105:\n        /* \"wwcc-contracts/contracts/wwccPool.sol\":11685:11689  bool */\n      0x00\n        /* \"wwcc-contracts/contracts/wwccPool.sol\":11712:11719  WcPools */\n      0x05\n        /* \"wwcc-contracts/contracts/wwccPool.sol\":11712:11728  WcPools[poolKey] */\n      0x00\n        /* \"wwcc-contracts/contracts/wwccPool.sol\":11720:11727  poolKey */\n      dup4\n        /* \"wwcc-contracts/contracts/wwccPool.sol\":11712:11728  WcPools[poolKey] */\n      dup2\n      mstore\n      0x20\n      add\n      swap1\n      dup2\n      mstore\n      0x20\n      add\n      0x00\n      keccak256\n        /* \"wwcc-contracts/contracts/wwccPool.sol\":11712:11733  WcPools[poolKey].used */\n      0x08\n      add\n      0x01\n      swap1\n      sload\n      swap1\n      0x0100\n      exp\n      swap1\n      div\n      0xff\n      and\n        /* \"wwcc-contracts/contracts/wwccPool.sol\":11705:11733  return WcPools[poolKey].used */\n      swap1\n      pop\n        /* \"wwcc-contracts/contracts/wwccPool.sol\":11627:11740  function contains(bytes32 poolKey) internal view returns (bool) {... */\n      swap2\n      swap1\n      pop\n      jump\t// out\n        /* \"wwcc-contracts/contracts/wwccPool.sol\":11770:12259  function strConcat(string memory _a,string memory _b) internal pure returns (string memory){... */\n    tag_150:\n        /* \"wwcc-contracts/contracts/wwccPool.sol\":11847:11860  string memory */\n      0x60\n        /* \"wwcc-contracts/contracts/wwccPool.sol\":11875:11891  bytes memory _ba */\n      0x00\n        /* \"wwcc-contracts/contracts/wwccPool.sol\":11900:11902  _a */\n      dup4\n        /* \"wwcc-contracts/contracts/wwccPool.sol\":11875:11903  bytes memory _ba = bytes(_a) */\n      swap1\n      pop\n        /* \"wwcc-contracts/contracts/wwccPool.sol\":11917:11933  bytes memory _bb */\n      0x00\n        /* \"wwcc-contracts/contracts/wwccPool.sol\":11942:11944  _b */\n      dup4\n        /* \"wwcc-contracts/contracts/wwccPool.sol\":11917:11945  bytes memory _bb = bytes(_b) */\n      swap1\n      pop\n        /* \"wwcc-contracts/contracts/wwccPool.sol\":11959:11976  string memory ret */\n      0x00\n        /* \"wwcc-contracts/contracts/wwccPool.sol\":12003:12006  _bb */\n      dup2\n        /* \"wwcc-contracts/contracts/wwccPool.sol\":12003:12013  _bb.length */\n      mload\n        /* \"wwcc-contracts/contracts/wwccPool.sol\":11990:11993  _ba */\n      dup4\n        /* \"wwcc-contracts/contracts/wwccPool.sol\":11990:12000  _ba.length */\n      mload\n        /* \"wwcc-contracts/contracts/wwccPool.sol\":11990:12013  _ba.length + _bb.length */\n      tag_410\n      swap2\n      swap1\n      tag_22\n      jump\t// in\n    tag_410:\n        /* \"wwcc-contracts/contracts/wwccPool.sol\":11979:12014  new string(_ba.length + _bb.length) */\n      0xffffffffffffffff\n      dup2\n      gt\n      iszero\n      tag_411\n      jumpi\n      tag_412\n      tag_413\n      jump\t// in\n    tag_412:\n    tag_411:\n      mload(0x40)\n      swap1\n      dup1\n      dup3\n      mstore\n      dup1\n      0x1f\n      add\n      not(0x1f)\n      and\n      0x20\n      add\n      dup3\n      add\n      0x40\n      mstore\n      dup1\n      iszero\n      tag_414\n      jumpi\n      dup2\n      0x20\n      add\n      0x01\n      dup3\n      mul\n      dup1\n      calldatasize\n      dup4\n      calldatacopy\n      dup1\n      dup3\n      add\n      swap2\n      pop\n      pop\n      swap1\n      pop\n    tag_414:\n      pop\n        /* \"wwcc-contracts/contracts/wwccPool.sol\":11959:12014  string memory ret = new string(_ba.length + _bb.length) */\n      swap1\n      pop\n        /* \"wwcc-contracts/contracts/wwccPool.sol\":12028:12045  bytes memory bret */\n      0x00\n        /* \"wwcc-contracts/contracts/wwccPool.sol\":12054:12057  ret */\n      dup2\n        /* \"wwcc-contracts/contracts/wwccPool.sol\":12028:12058  bytes memory bret = bytes(ret) */\n      swap1\n      pop\n        /* \"wwcc-contracts/contracts/wwccPool.sol\":12072:12078  uint k */\n      0x00\n        /* \"wwcc-contracts/contracts/wwccPool.sol\":12100:12106  uint i */\n      dup1\n        /* \"wwcc-contracts/contracts/wwccPool.sol\":12096:12149  for(uint i = 0;i < _ba.length;i++) bret[k++] = _ba[i] */\n    tag_415:\n        /* \"wwcc-contracts/contracts/wwccPool.sol\":12115:12118  _ba */\n      dup6\n        /* \"wwcc-contracts/contracts/wwccPool.sol\":12115:12125  _ba.length */\n      mload\n        /* \"wwcc-contracts/contracts/wwccPool.sol\":12111:12112  i */\n      dup2\n        /* \"wwcc-contracts/contracts/wwccPool.sol\":12111:12125  i < _ba.length */\n      lt\n        /* \"wwcc-contracts/contracts/wwccPool.sol\":12096:12149  for(uint i = 0;i < _ba.length;i++) bret[k++] = _ba[i] */\n      iszero\n      tag_416\n      jumpi\n        /* \"wwcc-contracts/contracts/wwccPool.sol\":12143:12146  _ba */\n      dup6\n        /* \"wwcc-contracts/contracts/wwccPool.sol\":12147:12148  i */\n      dup2\n        /* \"wwcc-contracts/contracts/wwccPool.sol\":12143:12149  _ba[i] */\n      dup2\n      mload\n      dup2\n      lt\n      tag_418\n      jumpi\n      tag_419\n      tag_304\n      jump\t// in\n    tag_419:\n    tag_418:\n      0x20\n      add\n      add\n      mload\n      0xf8\n      shr\n      0xf8\n      shl\n        /* \"wwcc-contracts/contracts/wwccPool.sol\":12131:12135  bret */\n      dup4\n        /* \"wwcc-contracts/contracts/wwccPool.sol\":12136:12139  k++ */\n      dup4\n      dup1\n      tag_420\n      swap1\n      tag_367\n      jump\t// in\n    tag_420:\n      swap5\n      pop\n        /* \"wwcc-contracts/contracts/wwccPool.sol\":12131:12140  bret[k++] */\n      dup2\n      mload\n      dup2\n      lt\n      tag_421\n      jumpi\n      tag_422\n      tag_304\n      jump\t// in\n    tag_422:\n    tag_421:\n      0x20\n      add\n      add\n        /* \"wwcc-contracts/contracts/wwccPool.sol\":12131:12149  bret[k++] = _ba[i] */\n      swap1\n      not(0xffffffffffffffffffffffffffffffffffffffffffffffffffffffffffffff)\n      and\n      swap1\n      dup2\n      0x00\n      byte\n      swap1\n      mstore8\n      pop\n        /* \"wwcc-contracts/contracts/wwccPool.sol\":12126:12129  i++ */\n      dup1\n      dup1\n      tag_423\n      swap1\n      tag_367\n      jump\t// in\n    tag_423:\n      swap2\n      pop\n      pop\n        /* \"wwcc-contracts/contracts/wwccPool.sol\":12096:12149  for(uint i = 0;i < _ba.length;i++) bret[k++] = _ba[i] */\n      jump(tag_415)\n    tag_416:\n      pop\n        /* \"wwcc-contracts/contracts/wwccPool.sol\":12167:12173  uint i */\n      0x00\n        /* \"wwcc-contracts/contracts/wwccPool.sol\":12163:12216  for(uint i = 0;i < _bb.length;i++) bret[k++] = _bb[i] */\n    tag_424:\n        /* \"wwcc-contracts/contracts/wwccPool.sol\":12182:12185  _bb */\n      dup5\n        /* \"wwcc-contracts/contracts/wwccPool.sol\":12182:12192  _bb.length */\n      mload\n        /* \"wwcc-contracts/contracts/wwccPool.sol\":12178:12179  i */\n      dup2\n        /* \"wwcc-contracts/contracts/wwccPool.sol\":12178:12192  i < _bb.length */\n      lt\n        /* \"wwcc-contracts/contracts/wwccPool.sol\":12163:12216  for(uint i = 0;i < _bb.length;i++) bret[k++] = _bb[i] */\n      iszero\n      tag_425\n      jumpi\n        /* \"wwcc-contracts/contracts/wwccPool.sol\":12210:12213  _bb */\n      dup5\n        /* \"wwcc-contracts/contracts/wwccPool.sol\":12214:12215  i */\n      dup2\n        /* \"wwcc-contracts/contracts/wwccPool.sol\":12210:12216  _bb[i] */\n      dup2\n      mload\n      dup2\n      lt\n      tag_427\n      jumpi\n      tag_428\n      tag_304\n      jump\t// in\n    tag_428:\n    tag_427:\n      0x20\n      add\n      add\n      mload\n      0xf8\n      shr\n      0xf8\n      shl\n        /* \"wwcc-contracts/contracts/wwccPool.sol\":12198:12202  bret */\n      dup4\n        /* \"wwcc-contracts/contracts/wwccPool.sol\":12203:12206  k++ */\n      dup4\n      dup1\n      tag_429\n      swap1\n      tag_367\n      jump\t// in\n    tag_429:\n      swap5\n      pop\n        /* \"wwcc-contracts/contracts/wwccPool.sol\":12198:12207  bret[k++] */\n      dup2\n      mload\n      dup2\n      lt\n      tag_430\n      jumpi\n      tag_431\n      tag_304\n      jump\t// in\n    tag_431:\n    tag_430:\n      0x20\n      add\n      add\n        /* \"wwcc-contracts/contracts/wwccPool.sol\":12198:12216  bret[k++] = _bb[i] */\n      swap1\n      not(0xffffffffffffffffffffffffffffffffffffffffffffffffffffffffffffff)\n      and\n      swap1\n      dup2\n      0x00\n      byte\n      swap1\n      mstore8\n      pop\n        /* \"wwcc-contracts/contracts/wwccPool.sol\":12193:12196  i++ */\n      dup1\n      dup1\n      tag_432\n      swap1\n      tag_367\n      jump\t// in\n    tag_432:\n      swap2\n      pop\n      pop\n        /* \"wwcc-contracts/contracts/wwccPool.sol\":12163:12216  for(uint i = 0;i < _bb.length;i++) bret[k++] = _bb[i] */\n      jump(tag_424)\n    tag_425:\n      pop\n        /* \"wwcc-contracts/contracts/wwccPool.sol\":12244:12247  ret */\n      dup3\n        /* \"wwcc-contracts/contracts/wwccPool.sol\":12230:12248  return string(ret) */\n      swap6\n      pop\n      pop\n      pop\n      pop\n      pop\n      pop\n        /* \"wwcc-contracts/contracts/wwccPool.sol\":11770:12259  function strConcat(string memory _a,string memory _b) internal pure returns (string memory){... */\n      swap3\n      swap2\n      pop\n      pop\n      jump\t// out\n        /* \"wwcc-contracts/contracts/safemath.sol\":62:266  function mul(uint256 a, uint256 b) internal pure returns (uint256) {... */\n    tag_199:\n        /* \"wwcc-contracts/contracts/safemath.sol\":120:127  uint256 */\n      0x00\n        /* \"wwcc-contracts/contracts/safemath.sol\":148:149  0 */\n      dup1\n        /* \"wwcc-contracts/contracts/safemath.sol\":143:144  a */\n      dup4\n        /* \"wwcc-contracts/contracts/safemath.sol\":143:149  a == 0 */\n      eq\n        /* \"wwcc-contracts/contracts/safemath.sol\":139:184  if (a == 0) {... */\n      iszero\n      tag_434\n      jumpi\n        /* \"wwcc-contracts/contracts/safemath.sol\":172:173  0 */\n      0x00\n        /* \"wwcc-contracts/contracts/safemath.sol\":165:173  return 0 */\n      swap1\n      pop\n      jump(tag_433)\n        /* \"wwcc-contracts/contracts/safemath.sol\":139:184  if (a == 0) {... */\n    tag_434:\n        /* \"wwcc-contracts/contracts/safemath.sol\":195:204  uint256 c */\n      0x00\n        /* \"wwcc-contracts/contracts/safemath.sol\":211:212  b */\n      dup3\n        /* \"wwcc-contracts/contracts/safemath.sol\":207:208  a */\n      dup5\n        /* \"wwcc-contracts/contracts/safemath.sol\":207:212  a * b */\n      tag_435\n      swap2\n      swap1\n      tag_325\n      jump\t// in\n    tag_435:\n        /* \"wwcc-contracts/contracts/safemath.sol\":195:212  uint256 c = a * b */\n      swap1\n      pop\n        /* \"wwcc-contracts/contracts/safemath.sol\":239:240  b */\n      dup3\n        /* \"wwcc-contracts/contracts/safemath.sol\":234:235  a */\n      dup5\n        /* \"wwcc-contracts/contracts/safemath.sol\":230:231  c */\n      dup3\n        /* \"wwcc-contracts/contracts/safemath.sol\":230:235  c / a */\n      tag_436\n      swap2\n      swap1\n      tag_94\n      jump\t// in\n    tag_436:\n        /* \"wwcc-contracts/contracts/safemath.sol\":230:240  c / a == b */\n      eq\n        /* \"wwcc-contracts/contracts/safemath.sol\":222:241  require(c / a == b) */\n      tag_437\n      jumpi\n      0x00\n      dup1\n      revert\n    tag_437:\n        /* \"wwcc-contracts/contracts/safemath.sol\":258:259  c */\n      dup1\n        /* \"wwcc-contracts/contracts/safemath.sol\":251:259  return c */\n      swap2\n      pop\n      pop\n        /* \"wwcc-contracts/contracts/safemath.sol\":62:266  function mul(uint256 a, uint256 b) internal pure returns (uint256) {... */\n    tag_433:\n      swap3\n      swap2\n      pop\n      pop\n      jump\t// out\n        /* \"wwcc-contracts/contracts/wwccPool.sol\":12423:12786  function uint256ToString(uint256 u) internal pure returns(string memory){... */\n    tag_230:\n        /* \"wwcc-contracts/contracts/wwccPool.sol\":12481:12494  string memory */\n      0x60\n        /* \"wwcc-contracts/contracts/wwccPool.sol\":12509:12530  bytes memory alphabet */\n      0x00\n        /* \"wwcc-contracts/contracts/wwccPool.sol\":12509:12551  bytes memory alphabet = \"0123456789abcdef\" */\n      mload(0x40)\n      dup1\n      0x40\n      add\n      0x40\n      mstore\n      dup1\n      0x10\n      dup2\n      mstore\n      0x20\n      add\n      0x3031323334353637383961626364656600000000000000000000000000000000\n      dup2\n      mstore\n      pop\n      swap1\n      pop\n        /* \"wwcc-contracts/contracts/wwccPool.sol\":12565:12582  bytes memory data */\n      0x00\n        /* \"wwcc-contracts/contracts/wwccPool.sol\":12602:12603  u */\n      dup4\n        /* \"wwcc-contracts/contracts/wwccPool.sol\":12585:12604  abi.encodePacked(u) */\n      add(0x20, mload(0x40))\n      tag_439\n      swap2\n      swap1\n      tag_440\n      jump\t// in\n    tag_439:\n      mload(0x40)\n      0x20\n      dup2\n      dup4\n      sub\n      sub\n      dup2\n      mstore\n      swap1\n      0x40\n      mstore\n        /* \"wwcc-contracts/contracts/wwccPool.sol\":12565:12604  bytes memory data = abi.encodePacked(u) */\n      swap1\n      pop\n        /* \"wwcc-contracts/contracts/wwccPool.sol\":12618:12634  bytes memory str */\n      0x00\n        /* \"wwcc-contracts/contracts/wwccPool.sol\":12647:12648  1 */\n      0x01\n        /* \"wwcc-contracts/contracts/wwccPool.sol\":12637:12649  new bytes(1) */\n      0xffffffffffffffff\n      dup2\n      gt\n      iszero\n      tag_441\n      jumpi\n      tag_442\n      tag_413\n      jump\t// in\n    tag_442:\n    tag_441:\n      mload(0x40)\n      swap1\n      dup1\n      dup3\n      mstore\n      dup1\n      0x1f\n      add\n      not(0x1f)\n      and\n      0x20\n      add\n      dup3\n      add\n      0x40\n      mstore\n      dup1\n      iszero\n      tag_443\n      jumpi\n      dup2\n      0x20\n      add\n      0x01\n      dup3\n      mul\n      dup1\n      calldatasize\n      dup4\n      calldatacopy\n      dup1\n      dup3\n      add\n      swap2\n      pop\n      pop\n      swap1\n      pop\n    tag_443:\n      pop\n        /* \"wwcc-contracts/contracts/wwccPool.sol\":12618:12649  bytes memory str = new bytes(1) */\n      swap1\n      pop\n        /* \"wwcc-contracts/contracts/wwccPool.sol\":12663:12669  uint i */\n      0x00\n        /* \"wwcc-contracts/contracts/wwccPool.sol\":12686:12687  1 */\n      0x01\n        /* \"wwcc-contracts/contracts/wwccPool.sol\":12672:12676  data */\n      dup4\n        /* \"wwcc-contracts/contracts/wwccPool.sol\":12672:12683  data.length */\n      mload\n        /* \"wwcc-contracts/contracts/wwccPool.sol\":12672:12687  data.length - 1 */\n      tag_444\n      swap2\n      swap1\n      tag_142\n      jump\t// in\n    tag_444:\n        /* \"wwcc-contracts/contracts/wwccPool.sol\":12663:12687  uint i = data.length - 1 */\n      swap1\n      pop\n        /* \"wwcc-contracts/contracts/wwccPool.sol\":12710:12718  alphabet */\n      dup4\n        /* \"wwcc-contracts/contracts/wwccPool.sol\":12740:12744  0x0f */\n      0x0f\n        /* \"wwcc-contracts/contracts/wwccPool.sol\":12730:12744  data[i] & 0x0f */\n      0xf8\n      shl\n        /* \"wwcc-contracts/contracts/wwccPool.sol\":12730:12734  data */\n      dup5\n        /* \"wwcc-contracts/contracts/wwccPool.sol\":12735:12736  i */\n      dup4\n        /* \"wwcc-contracts/contracts/wwccPool.sol\":12730:12737  data[i] */\n      dup2\n      mload\n      dup2\n      lt\n      tag_445\n      jumpi\n      tag_446\n      tag_304\n      jump\t// in\n    tag_446:\n    tag_445:\n      0x20\n      add\n      add\n      mload\n      0xf8\n      shr\n      0xf8\n      shl\n        /* \"wwcc-contracts/contracts/wwccPool.sol\":12730:12744  data[i] & 0x0f */\n      and\n        /* \"wwcc-contracts/contracts/wwccPool.sol\":12724:12745  uint8(data[i] & 0x0f) */\n      0xf8\n      shr\n        /* \"wwcc-contracts/contracts/wwccPool.sol\":12719:12746  uint(uint8(data[i] & 0x0f)) */\n      0xff\n      and\n        /* \"wwcc-contracts/contracts/wwccPool.sol\":12710:12747  alphabet[uint(uint8(data[i] & 0x0f))] */\n      dup2\n      mload\n      dup2\n      lt\n      tag_447\n      jumpi\n      tag_448\n      tag_304\n      jump\t// in\n    tag_448:\n    tag_447:\n      0x20\n      add\n      add\n      mload\n      0xf8\n      shr\n      0xf8\n      shl\n        /* \"wwcc-contracts/contracts/wwccPool.sol\":12701:12704  str */\n      dup3\n        /* \"wwcc-contracts/contracts/wwccPool.sol\":12705:12706  0 */\n      0x00\n        /* \"wwcc-contracts/contracts/wwccPool.sol\":12701:12707  str[0] */\n      dup2\n      mload\n      dup2\n      lt\n      tag_449\n      jumpi\n      tag_450\n      tag_304\n      jump\t// in\n    tag_450:\n    tag_449:\n      0x20\n      add\n      add\n        /* \"wwcc-contracts/contracts/wwccPool.sol\":12701:12747  str[0] = alphabet[uint(uint8(data[i] & 0x0f))] */\n      swap1\n      not(0xffffffffffffffffffffffffffffffffffffffffffffffffffffffffffffff)\n      and\n      swap1\n      dup2\n      0x00\n      byte\n      swap1\n      mstore8\n      pop\n        /* \"wwcc-contracts/contracts/wwccPool.sol\":12775:12778  str */\n      dup2\n        /* \"wwcc-contracts/contracts/wwccPool.sol\":12761:12779  return string(str) */\n      swap5\n      pop\n      pop\n      pop\n      pop\n      pop\n        /* \"wwcc-contracts/contracts/wwccPool.sol\":12423:12786  function uint256ToString(uint256 u) internal pure returns(string memory){... */\n      swap2\n      swap1\n      pop\n      jump\t// out\n    tag_163:\n      dup3\n      dup1\n      sload\n      tag_451\n      swap1\n      tag_111\n      jump\t// in\n    tag_451:\n      swap1\n      0x00\n      mstore\n      keccak256(0x00, 0x20)\n      swap1\n      0x1f\n      add\n      0x20\n      swap1\n      div\n      dup2\n      add\n      swap3\n      dup3\n      tag_453\n      jumpi\n      0x00\n      dup6\n      sstore\n      jump(tag_452)\n    tag_453:\n      dup3\n      0x1f\n      lt\n      tag_454\n      jumpi\n      dup1\n      mload\n      not(0xff)\n      and\n      dup4\n      dup1\n      add\n      or\n      dup6\n      sstore\n      jump(tag_452)\n    tag_454:\n      dup3\n      dup1\n      add\n      0x01\n      add\n      dup6\n      sstore\n      dup3\n      iszero\n      tag_452\n      jumpi\n      swap2\n      dup3\n      add\n    tag_455:\n      dup3\n      dup2\n      gt\n      iszero\n      tag_456\n      jumpi\n      dup3\n      mload\n      dup3\n      sstore\n      swap2\n      0x20\n      add\n      swap2\n      swap1\n      0x01\n      add\n      swap1\n      jump(tag_455)\n    tag_456:\n    tag_452:\n      pop\n      swap1\n      pop\n      tag_457\n      swap2\n      swap1\n      tag_458\n      jump\t// in\n    tag_457:\n      pop\n      swap1\n      jump\t// out\n    tag_239:\n      mload(0x40)\n      dup1\n      0xe0\n      add\n      0x40\n      mstore\n      dup1\n      0x00\n      dup2\n      mstore\n      0x20\n      add\n      0x00\n      dup2\n      mstore\n      0x20\n      add\n      0x00\n      dup2\n      mstore\n      0x20\n      add\n      0x00\n      dup2\n      mstore\n      0x20\n      add\n      and(0xffffffffffffffffffffffffffffffffffffffff, 0x00)\n      dup2\n      mstore\n      0x20\n      add\n      0x60\n      dup2\n      mstore\n      0x20\n      add\n      iszero(iszero(0x00))\n      dup2\n      mstore\n      pop\n      swap1\n      jump\t// out\n    tag_384:\n      mload(0x40)\n      dup1\n      0xa0\n      add\n      0x40\n      mstore\n      dup1\n      0x00\n      dup2\n      mstore\n      0x20\n      add\n      0x00\n      dup2\n      mstore\n      0x20\n      add\n      0x00\n      dup2\n      mstore\n      0x20\n      add\n      0x00\n      dup2\n      mstore\n      0x20\n      add\n      0x00\n      dup2\n      mstore\n      pop\n      swap1\n      jump\t// out\n    tag_458:\n    tag_459:\n      dup1\n      dup3\n      gt\n      iszero\n      tag_460\n      jumpi\n      0x00\n      dup2\n      0x00\n      swap1\n      sstore\n      pop\n      0x01\n      add\n      jump(tag_459)\n    tag_460:\n      pop\n      swap1\n      jump\t// out\n        /* \"#utility.yul\":7:419   */\n    tag_462:\n        /* \"#utility.yul\":85:90   */\n      0x00\n        /* \"#utility.yul\":110:176   */\n      tag_464\n        /* \"#utility.yul\":126:175   */\n      tag_465\n        /* \"#utility.yul\":168:174   */\n      dup5\n        /* \"#utility.yul\":126:175   */\n      tag_466\n      jump\t// in\n    tag_465:\n        /* \"#utility.yul\":110:176   */\n      tag_467\n      jump\t// in\n    tag_464:\n        /* \"#utility.yul\":101:176   */\n      swap1\n      pop\n        /* \"#utility.yul\":199:205   */\n      dup3\n        /* \"#utility.yul\":192:197   */\n      dup2\n        /* \"#utility.yul\":185:206   */\n      mstore\n        /* \"#utility.yul\":237:241   */\n      0x20\n        /* \"#utility.yul\":230:235   */\n      dup2\n        /* \"#utility.yul\":226:242   */\n      add\n        /* \"#utility.yul\":275:278   */\n      dup5\n        /* \"#utility.yul\":266:272   */\n      dup5\n        /* \"#utility.yul\":261:264   */\n      dup5\n        /* \"#utility.yul\":257:273   */\n      add\n        /* \"#utility.yul\":254:279   */\n      gt\n        /* \"#utility.yul\":251:363   */\n      iszero\n      tag_468\n      jumpi\n        /* \"#utility.yul\":282:361   */\n      tag_469\n      tag_470\n      jump\t// in\n    tag_469:\n        /* \"#utility.yul\":251:363   */\n    tag_468:\n        /* \"#utility.yul\":372:413   */\n      tag_471\n        /* \"#utility.yul\":406:412   */\n      dup5\n        /* \"#utility.yul\":401:404   */\n      dup3\n        /* \"#utility.yul\":396:399   */\n      dup6\n        /* \"#utility.yul\":372:413   */\n      tag_472\n      jump\t// in\n    tag_471:\n        /* \"#utility.yul\":91:419   */\n      pop\n        /* \"#utility.yul\":7:419   */\n      swap4\n      swap3\n      pop\n      pop\n      pop\n      jump\t// out\n        /* \"#utility.yul\":425:564   */\n    tag_473:\n        /* \"#utility.yul\":471:476   */\n      0x00\n        /* \"#utility.yul\":509:515   */\n      dup2\n        /* \"#utility.yul\":496:516   */\n      calldataload\n        /* \"#utility.yul\":487:516   */\n      swap1\n      pop\n        /* \"#utility.yul\":525:558   */\n      tag_475\n        /* \"#utility.yul\":552:557   */\n      dup2\n        /* \"#utility.yul\":525:558   */\n      tag_476\n      jump\t// in\n    tag_475:\n        /* \"#utility.yul\":425:564   */\n      swap3\n      swap2\n      pop\n      pop\n      jump\t// out\n        /* \"#utility.yul\":570:703   */\n    tag_477:\n        /* \"#utility.yul\":613:618   */\n      0x00\n        /* \"#utility.yul\":651:657   */\n      dup2\n        /* \"#utility.yul\":638:658   */\n      calldataload\n        /* \"#utility.yul\":629:658   */\n      swap1\n      pop\n        /* \"#utility.yul\":667:697   */\n      tag_479\n        /* \"#utility.yul\":691:696   */\n      dup2\n        /* \"#utility.yul\":667:697   */\n      tag_480\n      jump\t// in\n    tag_479:\n        /* \"#utility.yul\":570:703   */\n      swap3\n      swap2\n      pop\n      pop\n      jump\t// out\n        /* \"#utility.yul\":709:848   */\n    tag_481:\n        /* \"#utility.yul\":755:760   */\n      0x00\n        /* \"#utility.yul\":793:799   */\n      dup2\n        /* \"#utility.yul\":780:800   */\n      calldataload\n        /* \"#utility.yul\":771:800   */\n      swap1\n      pop\n        /* \"#utility.yul\":809:842   */\n      tag_483\n        /* \"#utility.yul\":836:841   */\n      dup2\n        /* \"#utility.yul\":809:842   */\n      tag_484\n      jump\t// in\n    tag_483:\n        /* \"#utility.yul\":709:848   */\n      swap3\n      swap2\n      pop\n      pop\n      jump\t// out\n        /* \"#utility.yul\":868:1208   */\n    tag_485:\n        /* \"#utility.yul\":924:929   */\n      0x00\n        /* \"#utility.yul\":973:976   */\n      dup3\n        /* \"#utility.yul\":966:970   */\n      0x1f\n        /* \"#utility.yul\":958:964   */\n      dup4\n        /* \"#utility.yul\":954:971   */\n      add\n        /* \"#utility.yul\":950:977   */\n      slt\n        /* \"#utility.yul\":940:1062   */\n      tag_487\n      jumpi\n        /* \"#utility.yul\":981:1060   */\n      tag_488\n      tag_489\n      jump\t// in\n    tag_488:\n        /* \"#utility.yul\":940:1062   */\n    tag_487:\n        /* \"#utility.yul\":1098:1104   */\n      dup2\n        /* \"#utility.yul\":1085:1105   */\n      calldataload\n        /* \"#utility.yul\":1123:1202   */\n      tag_490\n        /* \"#utility.yul\":1198:1201   */\n      dup5\n        /* \"#utility.yul\":1190:1196   */\n      dup3\n        /* \"#utility.yul\":1183:1187   */\n      0x20\n        /* \"#utility.yul\":1175:1181   */\n      dup7\n        /* \"#utility.yul\":1171:1188   */\n      add\n        /* \"#utility.yul\":1123:1202   */\n      tag_462\n      jump\t// in\n    tag_490:\n        /* \"#utility.yul\":1114:1202   */\n      swap2\n      pop\n        /* \"#utility.yul\":930:1208   */\n      pop\n        /* \"#utility.yul\":868:1208   */\n      swap3\n      swap2\n      pop\n      pop\n      jump\t// out\n        /* \"#utility.yul\":1214:1353   */\n    tag_491:\n        /* \"#utility.yul\":1260:1265   */\n      0x00\n        /* \"#utility.yul\":1298:1304   */\n      dup2\n        /* \"#utility.yul\":1285:1305   */\n      calldataload\n        /* \"#utility.yul\":1276:1305   */\n      swap1\n      pop\n        /* \"#utility.yul\":1314:1347   */\n      tag_493\n        /* \"#utility.yul\":1341:1346   */\n      dup2\n        /* \"#utility.yul\":1314:1347   */\n      tag_494\n      jump\t// in\n    tag_493:\n        /* \"#utility.yul\":1214:1353   */\n      swap3\n      swap2\n      pop\n      pop\n      jump\t// out\n        /* \"#utility.yul\":1359:1688   */\n    tag_40:\n        /* \"#utility.yul\":1418:1424   */\n      0x00\n        /* \"#utility.yul\":1467:1469   */\n      0x20\n        /* \"#utility.yul\":1455:1464   */\n      dup3\n        /* \"#utility.yul\":1446:1453   */\n      dup5\n        /* \"#utility.yul\":1442:1465   */\n      sub\n        /* \"#utility.yul\":1438:1470   */\n      slt\n        /* \"#utility.yul\":1435:1554   */\n      iszero\n      tag_496\n      jumpi\n        /* \"#utility.yul\":1473:1552   */\n      tag_497\n      tag_498\n      jump\t// in\n    tag_497:\n        /* \"#utility.yul\":1435:1554   */\n    tag_496:\n        /* \"#utility.yul\":1593:1594   */\n      0x00\n        /* \"#utility.yul\":1618:1671   */\n      tag_499\n        /* \"#utility.yul\":1663:1670   */\n      dup5\n        /* \"#utility.yul\":1654:1660   */\n      dup3\n        /* \"#utility.yul\":1643:1652   */\n      dup6\n        /* \"#utility.yul\":1639:1661   */\n      add\n        /* \"#utility.yul\":1618:1671   */\n      tag_473\n      jump\t// in\n    tag_499:\n        /* \"#utility.yul\":1608:1671   */\n      swap2\n      pop\n        /* \"#utility.yul\":1564:1681   */\n      pop\n        /* \"#utility.yul\":1359:1688   */\n      swap3\n      swap2\n      pop\n      pop\n      jump\t// out\n        /* \"#utility.yul\":1694:2168   */\n    tag_34:\n        /* \"#utility.yul\":1762:1768   */\n      0x00\n        /* \"#utility.yul\":1770:1776   */\n      dup1\n        /* \"#utility.yul\":1819:1821   */\n      0x40\n        /* \"#utility.yul\":1807:1816   */\n      dup4\n        /* \"#utility.yul\":1798:1805   */\n      dup6\n        /* \"#utility.yul\":1794:1817   */\n      sub\n        /* \"#utility.yul\":1790:1822   */\n      slt\n        /* \"#utility.yul\":1787:1906   */\n      iszero\n      tag_501\n      jumpi\n        /* \"#utility.yul\":1825:1904   */\n      tag_502\n      tag_498\n      jump\t// in\n    tag_502:\n        /* \"#utility.yul\":1787:1906   */\n    tag_501:\n        /* \"#utility.yul\":1945:1946   */\n      0x00\n        /* \"#utility.yul\":1970:2023   */\n      tag_503\n        /* \"#utility.yul\":2015:2022   */\n      dup6\n        /* \"#utility.yul\":2006:2012   */\n      dup3\n        /* \"#utility.yul\":1995:2004   */\n      dup7\n        /* \"#utility.yul\":1991:2013   */\n      add\n        /* \"#utility.yul\":1970:2023   */\n      tag_473\n      jump\t// in\n    tag_503:\n        /* \"#utility.yul\":1960:2023   */\n      swap3\n      pop\n        /* \"#utility.yul\":1916:2033   */\n      pop\n        /* \"#utility.yul\":2072:2074   */\n      0x20\n        /* \"#utility.yul\":2098:2151   */\n      tag_504\n        /* \"#utility.yul\":2143:2150   */\n      dup6\n        /* \"#utility.yul\":2134:2140   */\n      dup3\n        /* \"#utility.yul\":2123:2132   */\n      dup7\n        /* \"#utility.yul\":2119:2141   */\n      add\n        /* \"#utility.yul\":2098:2151   */\n      tag_481\n      jump\t// in\n    tag_504:\n        /* \"#utility.yul\":2088:2151   */\n      swap2\n      pop\n        /* \"#utility.yul\":2043:2161   */\n      pop\n        /* \"#utility.yul\":1694:2168   */\n      swap3\n      pop\n      swap3\n      swap1\n      pop\n      jump\t// out\n        /* \"#utility.yul\":2174:2648   */\n    tag_73:\n        /* \"#utility.yul\":2242:2248   */\n      0x00\n        /* \"#utility.yul\":2250:2256   */\n      dup1\n        /* \"#utility.yul\":2299:2301   */\n      0x40\n        /* \"#utility.yul\":2287:2296   */\n      dup4\n        /* \"#utility.yul\":2278:2285   */\n      dup6\n        /* \"#utility.yul\":2274:2297   */\n      sub\n        /* \"#utility.yul\":2270:2302   */\n      slt\n        /* \"#utility.yul\":2267:2386   */\n      iszero\n      tag_506\n      jumpi\n        /* \"#utility.yul\":2305:2384   */\n      tag_507\n      tag_498\n      jump\t// in\n    tag_507:\n        /* \"#utility.yul\":2267:2386   */\n    tag_506:\n        /* \"#utility.yul\":2425:2426   */\n      0x00\n        /* \"#utility.yul\":2450:2503   */\n      tag_508\n        /* \"#utility.yul\":2495:2502   */\n      dup6\n        /* \"#utility.yul\":2486:2492   */\n      dup3\n        /* \"#utility.yul\":2475:2484   */\n      dup7\n        /* \"#utility.yul\":2471:2493   */\n      add\n        /* \"#utility.yul\":2450:2503   */\n      tag_473\n      jump\t// in\n    tag_508:\n        /* \"#utility.yul\":2440:2503   */\n      swap3\n      pop\n        /* \"#utility.yul\":2396:2513   */\n      pop\n        /* \"#utility.yul\":2552:2554   */\n      0x20\n        /* \"#utility.yul\":2578:2631   */\n      tag_509\n        /* \"#utility.yul\":2623:2630   */\n      dup6\n        /* \"#utility.yul\":2614:2620   */\n      dup3\n        /* \"#utility.yul\":2603:2612   */\n      dup7\n        /* \"#utility.yul\":2599:2621   */\n      add\n        /* \"#utility.yul\":2578:2631   */\n      tag_491\n      jump\t// in\n    tag_509:\n        /* \"#utility.yul\":2568:2631   */\n      swap2\n      pop\n        /* \"#utility.yul\":2523:2641   */\n      pop\n        /* \"#utility.yul\":2174:2648   */\n      swap3\n      pop\n      swap3\n      swap1\n      pop\n      jump\t// out\n        /* \"#utility.yul\":2654:3711   */\n    tag_63:\n        /* \"#utility.yul\":2758:2764   */\n      0x00\n        /* \"#utility.yul\":2766:2772   */\n      dup1\n        /* \"#utility.yul\":2774:2780   */\n      0x00\n        /* \"#utility.yul\":2782:2788   */\n      dup1\n        /* \"#utility.yul\":2790:2796   */\n      0x00\n        /* \"#utility.yul\":2798:2804   */\n      dup1\n        /* \"#utility.yul\":2847:2850   */\n      0xc0\n        /* \"#utility.yul\":2835:2844   */\n      dup8\n        /* \"#utility.yul\":2826:2833   */\n      dup10\n        /* \"#utility.yul\":2822:2845   */\n      sub\n        /* \"#utility.yul\":2818:2851   */\n      slt\n        /* \"#utility.yul\":2815:2935   */\n      iszero\n      tag_511\n      jumpi\n        /* \"#utility.yul\":2854:2933   */\n      tag_512\n      tag_498\n      jump\t// in\n    tag_512:\n        /* \"#utility.yul\":2815:2935   */\n    tag_511:\n        /* \"#utility.yul\":2974:2975   */\n      0x00\n        /* \"#utility.yul\":2999:3052   */\n      tag_513\n        /* \"#utility.yul\":3044:3051   */\n      dup10\n        /* \"#utility.yul\":3035:3041   */\n      dup3\n        /* \"#utility.yul\":3024:3033   */\n      dup11\n        /* \"#utility.yul\":3020:3042   */\n      add\n        /* \"#utility.yul\":2999:3052   */\n      tag_473\n      jump\t// in\n    tag_513:\n        /* \"#utility.yul\":2989:3052   */\n      swap7\n      pop\n        /* \"#utility.yul\":2945:3062   */\n      pop\n        /* \"#utility.yul\":3101:3103   */\n      0x20\n        /* \"#utility.yul\":3127:3180   */\n      tag_514\n        /* \"#utility.yul\":3172:3179   */\n      dup10\n        /* \"#utility.yul\":3163:3169   */\n      dup3\n        /* \"#utility.yul\":3152:3161   */\n      dup11\n        /* \"#utility.yul\":3148:3170   */\n      add\n        /* \"#utility.yul\":3127:3180   */\n      tag_491\n      jump\t// in\n    tag_514:\n        /* \"#utility.yul\":3117:3180   */\n      swap6\n      pop\n        /* \"#utility.yul\":3072:3190   */\n      pop\n        /* \"#utility.yul\":3229:3231   */\n      0x40\n        /* \"#utility.yul\":3255:3308   */\n      tag_515\n        /* \"#utility.yul\":3300:3307   */\n      dup10\n        /* \"#utility.yul\":3291:3297   */\n      dup3\n        /* \"#utility.yul\":3280:3289   */\n      dup11\n        /* \"#utility.yul\":3276:3298   */\n      add\n        /* \"#utility.yul\":3255:3308   */\n      tag_481\n      jump\t// in\n    tag_515:\n        /* \"#utility.yul\":3245:3308   */\n      swap5\n      pop\n        /* \"#utility.yul\":3200:3318   */\n      pop\n        /* \"#utility.yul\":3357:3359   */\n      0x60\n        /* \"#utility.yul\":3383:3436   */\n      tag_516\n        /* \"#utility.yul\":3428:3435   */\n      dup10\n        /* \"#utility.yul\":3419:3425   */\n      dup3\n        /* \"#utility.yul\":3408:3417   */\n      dup11\n        /* \"#utility.yul\":3404:3426   */\n      add\n        /* \"#utility.yul\":3383:3436   */\n      tag_491\n      jump\t// in\n    tag_516:\n        /* \"#utility.yul\":3373:3436   */\n      swap4\n      pop\n        /* \"#utility.yul\":3328:3446   */\n      pop\n        /* \"#utility.yul\":3485:3488   */\n      0x80\n        /* \"#utility.yul\":3512:3565   */\n      tag_517\n        /* \"#utility.yul\":3557:3564   */\n      dup10\n        /* \"#utility.yul\":3548:3554   */\n      dup3\n        /* \"#utility.yul\":3537:3546   */\n      dup11\n        /* \"#utility.yul\":3533:3555   */\n      add\n        /* \"#utility.yul\":3512:3565   */\n      tag_491\n      jump\t// in\n    tag_517:\n        /* \"#utility.yul\":3502:3565   */\n      swap3\n      pop\n        /* \"#utility.yul\":3456:3575   */\n      pop\n        /* \"#utility.yul\":3614:3617   */\n      0xa0\n        /* \"#utility.yul\":3641:3694   */\n      tag_518\n        /* \"#utility.yul\":3686:3693   */\n      dup10\n        /* \"#utility.yul\":3677:3683   */\n      dup3\n        /* \"#utility.yul\":3666:3675   */\n      dup11\n        /* \"#utility.yul\":3662:3684   */\n      add\n        /* \"#utility.yul\":3641:3694   */\n      tag_491\n      jump\t// in\n    tag_518:\n        /* \"#utility.yul\":3631:3694   */\n      swap2\n      pop\n        /* \"#utility.yul\":3585:3704   */\n      pop\n        /* \"#utility.yul\":2654:3711   */\n      swap3\n      swap6\n      pop\n      swap3\n      swap6\n      pop\n      swap3\n      swap6\n      jump\t// out\n        /* \"#utility.yul\":3717:4046   */\n    tag_57:\n        /* \"#utility.yul\":3776:3782   */\n      0x00\n        /* \"#utility.yul\":3825:3827   */\n      0x20\n        /* \"#utility.yul\":3813:3822   */\n      dup3\n        /* \"#utility.yul\":3804:3811   */\n      dup5\n        /* \"#utility.yul\":3800:3823   */\n      sub\n        /* \"#utility.yul\":3796:3828   */\n      slt\n        /* \"#utility.yul\":3793:3912   */\n      iszero\n      tag_520\n      jumpi\n        /* \"#utility.yul\":3831:3910   */\n      tag_521\n      tag_498\n      jump\t// in\n    tag_521:\n        /* \"#utility.yul\":3793:3912   */\n    tag_520:\n        /* \"#utility.yul\":3951:3952   */\n      0x00\n        /* \"#utility.yul\":3976:4029   */\n      tag_522\n        /* \"#utility.yul\":4021:4028   */\n      dup5\n        /* \"#utility.yul\":4012:4018   */\n      dup3\n        /* \"#utility.yul\":4001:4010   */\n      dup6\n        /* \"#utility.yul\":3997:4019   */\n      add\n        /* \"#utility.yul\":3976:4029   */\n      tag_481\n      jump\t// in\n    tag_522:\n        /* \"#utility.yul\":3966:4029   */\n      swap2\n      pop\n        /* \"#utility.yul\":3922:4039   */\n      pop\n        /* \"#utility.yul\":3717:4046   */\n      swap3\n      swap2\n      pop\n      pop\n      jump\t// out\n        /* \"#utility.yul\":4052:4817   */\n    tag_68:\n        /* \"#utility.yul\":4138:4144   */\n      0x00\n        /* \"#utility.yul\":4146:4152   */\n      dup1\n        /* \"#utility.yul\":4154:4160   */\n      0x00\n        /* \"#utility.yul\":4162:4168   */\n      dup1\n        /* \"#utility.yul\":4211:4214   */\n      0x80\n        /* \"#utility.yul\":4199:4208   */\n      dup6\n        /* \"#utility.yul\":4190:4197   */\n      dup8\n        /* \"#utility.yul\":4186:4209   */\n      sub\n        /* \"#utility.yul\":4182:4215   */\n      slt\n        /* \"#utility.yul\":4179:4299   */\n      iszero\n      tag_524\n      jumpi\n        /* \"#utility.yul\":4218:4297   */\n      tag_525\n      tag_498\n      jump\t// in\n    tag_525:\n        /* \"#utility.yul\":4179:4299   */\n    tag_524:\n        /* \"#utility.yul\":4338:4339   */\n      0x00\n        /* \"#utility.yul\":4363:4416   */\n      tag_526\n        /* \"#utility.yul\":4408:4415   */\n      dup8\n        /* \"#utility.yul\":4399:4405   */\n      dup3\n        /* \"#utility.yul\":4388:4397   */\n      dup9\n        /* \"#utility.yul\":4384:4406   */\n      add\n        /* \"#utility.yul\":4363:4416   */\n      tag_481\n      jump\t// in\n    tag_526:\n        /* \"#utility.yul\":4353:4416   */\n      swap5\n      pop\n        /* \"#utility.yul\":4309:4426   */\n      pop\n        /* \"#utility.yul\":4465:4467   */\n      0x20\n        /* \"#utility.yul\":4491:4544   */\n      tag_527\n        /* \"#utility.yul\":4536:4543   */\n      dup8\n        /* \"#utility.yul\":4527:4533   */\n      dup3\n        /* \"#utility.yul\":4516:4525   */\n      dup9\n        /* \"#utility.yul\":4512:4534   */\n      add\n        /* \"#utility.yul\":4491:4544   */\n      tag_491\n      jump\t// in\n    tag_527:\n        /* \"#utility.yul\":4481:4544   */\n      swap4\n      pop\n        /* \"#utility.yul\":4436:4554   */\n      pop\n        /* \"#utility.yul\":4593:4595   */\n      0x40\n        /* \"#utility.yul\":4619:4672   */\n      tag_528\n        /* \"#utility.yul\":4664:4671   */\n      dup8\n        /* \"#utility.yul\":4655:4661   */\n      dup3\n        /* \"#utility.yul\":4644:4653   */\n      dup9\n        /* \"#utility.yul\":4640:4662   */\n      add\n        /* \"#utility.yul\":4619:4672   */\n      tag_491\n      jump\t// in\n    tag_528:\n        /* \"#utility.yul\":4609:4672   */\n      swap3\n      pop\n        /* \"#utility.yul\":4564:4682   */\n      pop\n        /* \"#utility.yul\":4721:4723   */\n      0x60\n        /* \"#utility.yul\":4747:4800   */\n      tag_529\n        /* \"#utility.yul\":4792:4799   */\n      dup8\n        /* \"#utility.yul\":4783:4789   */\n      dup3\n        /* \"#utility.yul\":4772:4781   */\n      dup9\n        /* \"#utility.yul\":4768:4790   */\n      add\n        /* \"#utility.yul\":4747:4800   */\n      tag_491\n      jump\t// in\n    tag_529:\n        /* \"#utility.yul\":4737:4800   */\n      swap2\n      pop\n        /* \"#utility.yul\":4692:4810   */\n      pop\n        /* \"#utility.yul\":4052:4817   */\n      swap3\n      swap6\n      swap2\n      swap5\n      pop\n      swap3\n      pop\n      jump\t// out\n        /* \"#utility.yul\":4823:6122   */\n    tag_46:\n        /* \"#utility.yul\":4936:4942   */\n      0x00\n        /* \"#utility.yul\":4944:4950   */\n      dup1\n        /* \"#utility.yul\":4952:4958   */\n      0x00\n        /* \"#utility.yul\":4960:4966   */\n      dup1\n        /* \"#utility.yul\":5009:5012   */\n      0x80\n        /* \"#utility.yul\":4997:5006   */\n      dup6\n        /* \"#utility.yul\":4988:4995   */\n      dup8\n        /* \"#utility.yul\":4984:5007   */\n      sub\n        /* \"#utility.yul\":4980:5013   */\n      slt\n        /* \"#utility.yul\":4977:5097   */\n      iszero\n      tag_531\n      jumpi\n        /* \"#utility.yul\":5016:5095   */\n      tag_532\n      tag_498\n      jump\t// in\n    tag_532:\n        /* \"#utility.yul\":4977:5097   */\n    tag_531:\n        /* \"#utility.yul\":5164:5165   */\n      0x00\n        /* \"#utility.yul\":5153:5162   */\n      dup6\n        /* \"#utility.yul\":5149:5166   */\n      add\n        /* \"#utility.yul\":5136:5167   */\n      calldataload\n        /* \"#utility.yul\":5194:5212   */\n      0xffffffffffffffff\n        /* \"#utility.yul\":5186:5192   */\n      dup2\n        /* \"#utility.yul\":5183:5213   */\n      gt\n        /* \"#utility.yul\":5180:5297   */\n      iszero\n      tag_533\n      jumpi\n        /* \"#utility.yul\":5216:5295   */\n      tag_534\n      tag_535\n      jump\t// in\n    tag_534:\n        /* \"#utility.yul\":5180:5297   */\n    tag_533:\n        /* \"#utility.yul\":5321:5384   */\n      tag_536\n        /* \"#utility.yul\":5376:5383   */\n      dup8\n        /* \"#utility.yul\":5367:5373   */\n      dup3\n        /* \"#utility.yul\":5356:5365   */\n      dup9\n        /* \"#utility.yul\":5352:5374   */\n      add\n        /* \"#utility.yul\":5321:5384   */\n      tag_485\n      jump\t// in\n    tag_536:\n        /* \"#utility.yul\":5311:5384   */\n      swap5\n      pop\n        /* \"#utility.yul\":5107:5394   */\n      pop\n        /* \"#utility.yul\":5461:5463   */\n      0x20\n        /* \"#utility.yul\":5450:5459   */\n      dup6\n        /* \"#utility.yul\":5446:5464   */\n      add\n        /* \"#utility.yul\":5433:5465   */\n      calldataload\n        /* \"#utility.yul\":5492:5510   */\n      0xffffffffffffffff\n        /* \"#utility.yul\":5484:5490   */\n      dup2\n        /* \"#utility.yul\":5481:5511   */\n      gt\n        /* \"#utility.yul\":5478:5595   */\n      iszero\n      tag_537\n      jumpi\n        /* \"#utility.yul\":5514:5593   */\n      tag_538\n      tag_535\n      jump\t// in\n    tag_538:\n        /* \"#utility.yul\":5478:5595   */\n    tag_537:\n        /* \"#utility.yul\":5619:5682   */\n      tag_539\n        /* \"#utility.yul\":5674:5681   */\n      dup8\n        /* \"#utility.yul\":5665:5671   */\n      dup3\n        /* \"#utility.yul\":5654:5663   */\n      dup9\n        /* \"#utility.yul\":5650:5672   */\n      add\n        /* \"#utility.yul\":5619:5682   */\n      tag_485\n      jump\t// in\n    tag_539:\n        /* \"#utility.yul\":5609:5682   */\n      swap4\n      pop\n        /* \"#utility.yul\":5404:5692   */\n      pop\n        /* \"#utility.yul\":5759:5761   */\n      0x40\n        /* \"#utility.yul\":5748:5757   */\n      dup6\n        /* \"#utility.yul\":5744:5762   */\n      add\n        /* \"#utility.yul\":5731:5763   */\n      calldataload\n        /* \"#utility.yul\":5790:5808   */\n      0xffffffffffffffff\n        /* \"#utility.yul\":5782:5788   */\n      dup2\n        /* \"#utility.yul\":5779:5809   */\n      gt\n        /* \"#utility.yul\":5776:5893   */\n      iszero\n      tag_540\n      jumpi\n        /* \"#utility.yul\":5812:5891   */\n      tag_541\n      tag_535\n      jump\t// in\n    tag_541:\n        /* \"#utility.yul\":5776:5893   */\n    tag_540:\n        /* \"#utility.yul\":5917:5980   */\n      tag_542\n        /* \"#utility.yul\":5972:5979   */\n      dup8\n        /* \"#utility.yul\":5963:5969   */\n      dup3\n        /* \"#utility.yul\":5952:5961   */\n      dup9\n        /* \"#utility.yul\":5948:5970   */\n      add\n        /* \"#utility.yul\":5917:5980   */\n      tag_485\n      jump\t// in\n    tag_542:\n        /* \"#utility.yul\":5907:5980   */\n      swap3\n      pop\n        /* \"#utility.yul\":5702:5990   */\n      pop\n        /* \"#utility.yul\":6029:6031   */\n      0x60\n        /* \"#utility.yul\":6055:6105   */\n      tag_543\n        /* \"#utility.yul\":6097:6104   */\n      dup8\n        /* \"#utility.yul\":6088:6094   */\n      dup3\n        /* \"#utility.yul\":6077:6086   */\n      dup9\n        /* \"#utility.yul\":6073:6095   */\n      add\n        /* \"#utility.yul\":6055:6105   */\n      tag_477\n      jump\t// in\n    tag_543:\n        /* \"#utility.yul\":6045:6105   */\n      swap2\n      pop\n        /* \"#utility.yul\":6000:6115   */\n      pop\n        /* \"#utility.yul\":4823:6122   */\n      swap3\n      swap6\n      swap2\n      swap5\n      pop\n      swap3\n      pop\n      jump\t// out\n        /* \"#utility.yul\":6128:6307   */\n    tag_544:\n        /* \"#utility.yul\":6197:6207   */\n      0x00\n        /* \"#utility.yul\":6218:6264   */\n      tag_546\n        /* \"#utility.yul\":6260:6263   */\n      dup4\n        /* \"#utility.yul\":6252:6258   */\n      dup4\n        /* \"#utility.yul\":6218:6264   */\n      tag_547\n      jump\t// in\n    tag_546:\n        /* \"#utility.yul\":6296:6300   */\n      0x20\n        /* \"#utility.yul\":6291:6294   */\n      dup4\n        /* \"#utility.yul\":6287:6301   */\n      add\n        /* \"#utility.yul\":6273:6301   */\n      swap1\n      pop\n        /* \"#utility.yul\":6128:6307   */\n      swap3\n      swap2\n      pop\n      pop\n      jump\t// out\n        /* \"#utility.yul\":6313:6431   */\n    tag_548:\n        /* \"#utility.yul\":6400:6424   */\n      tag_550\n        /* \"#utility.yul\":6418:6423   */\n      dup2\n        /* \"#utility.yul\":6400:6424   */\n      tag_551\n      jump\t// in\n    tag_550:\n        /* \"#utility.yul\":6395:6398   */\n      dup3\n        /* \"#utility.yul\":6388:6425   */\n      mstore\n        /* \"#utility.yul\":6313:6431   */\n      pop\n      pop\n      jump\t// out\n        /* \"#utility.yul\":6467:7199   */\n    tag_552:\n        /* \"#utility.yul\":6586:6589   */\n      0x00\n        /* \"#utility.yul\":6615:6669   */\n      tag_554\n        /* \"#utility.yul\":6663:6668   */\n      dup3\n        /* \"#utility.yul\":6615:6669   */\n      tag_555\n      jump\t// in\n    tag_554:\n        /* \"#utility.yul\":6685:6771   */\n      tag_556\n        /* \"#utility.yul\":6764:6770   */\n      dup2\n        /* \"#utility.yul\":6759:6762   */\n      dup6\n        /* \"#utility.yul\":6685:6771   */\n      tag_557\n      jump\t// in\n    tag_556:\n        /* \"#utility.yul\":6678:6771   */\n      swap4\n      pop\n        /* \"#utility.yul\":6795:6851   */\n      tag_558\n        /* \"#utility.yul\":6845:6850   */\n      dup4\n        /* \"#utility.yul\":6795:6851   */\n      tag_559\n      jump\t// in\n    tag_558:\n        /* \"#utility.yul\":6874:6881   */\n      dup1\n        /* \"#utility.yul\":6905:6906   */\n      0x00\n        /* \"#utility.yul\":6890:7174   */\n    tag_560:\n        /* \"#utility.yul\":6915:6921   */\n      dup4\n        /* \"#utility.yul\":6912:6913   */\n      dup2\n        /* \"#utility.yul\":6909:6922   */\n      lt\n        /* \"#utility.yul\":6890:7174   */\n      iszero\n      tag_562\n      jumpi\n        /* \"#utility.yul\":6991:6997   */\n      dup2\n        /* \"#utility.yul\":6985:6998   */\n      mload\n        /* \"#utility.yul\":7018:7081   */\n      tag_563\n        /* \"#utility.yul\":7077:7080   */\n      dup9\n        /* \"#utility.yul\":7062:7075   */\n      dup3\n        /* \"#utility.yul\":7018:7081   */\n      tag_544\n      jump\t// in\n    tag_563:\n        /* \"#utility.yul\":7011:7081   */\n      swap8\n      pop\n        /* \"#utility.yul\":7104:7164   */\n      tag_564\n        /* \"#utility.yul\":7157:7163   */\n      dup4\n        /* \"#utility.yul\":7104:7164   */\n      tag_565\n      jump\t// in\n    tag_564:\n        /* \"#utility.yul\":7094:7164   */\n      swap3\n      pop\n        /* \"#utility.yul\":6950:7174   */\n      pop\n        /* \"#utility.yul\":6937:6938   */\n      0x01\n        /* \"#utility.yul\":6934:6935   */\n      dup2\n        /* \"#utility.yul\":6930:6939   */\n      add\n        /* \"#utility.yul\":6925:6939   */\n      swap1\n      pop\n        /* \"#utility.yul\":6890:7174   */\n      jump(tag_560)\n    tag_562:\n        /* \"#utility.yul\":6894:6908   */\n      pop\n        /* \"#utility.yul\":7190:7193   */\n      dup6\n        /* \"#utility.yul\":7183:7193   */\n      swap4\n      pop\n        /* \"#utility.yul\":6591:7199   */\n      pop\n      pop\n      pop\n        /* \"#utility.yul\":6467:7199   */\n      swap3\n      swap2\n      pop\n      pop\n      jump\t// out\n        /* \"#utility.yul\":7205:7314   */\n    tag_566:\n        /* \"#utility.yul\":7286:7307   */\n      tag_568\n        /* \"#utility.yul\":7301:7306   */\n      dup2\n        /* \"#utility.yul\":7286:7307   */\n      tag_569\n      jump\t// in\n    tag_568:\n        /* \"#utility.yul\":7281:7284   */\n      dup3\n        /* \"#utility.yul\":7274:7308   */\n      mstore\n        /* \"#utility.yul\":7205:7314   */\n      pop\n      pop\n      jump\t// out\n        /* \"#utility.yul\":7320:7428   */\n    tag_547:\n        /* \"#utility.yul\":7397:7421   */\n      tag_571\n        /* \"#utility.yul\":7415:7420   */\n      dup2\n        /* \"#utility.yul\":7397:7421   */\n      tag_572\n      jump\t// in\n    tag_571:\n        /* \"#utility.yul\":7392:7395   */\n      dup3\n        /* \"#utility.yul\":7385:7422   */\n      mstore\n        /* \"#utility.yul\":7320:7428   */\n      pop\n      pop\n      jump\t// out\n        /* \"#utility.yul\":7434:7552   */\n    tag_573:\n        /* \"#utility.yul\":7521:7545   */\n      tag_575\n        /* \"#utility.yul\":7539:7544   */\n      dup2\n        /* \"#utility.yul\":7521:7545   */\n      tag_572\n      jump\t// in\n    tag_575:\n        /* \"#utility.yul\":7516:7519   */\n      dup3\n        /* \"#utility.yul\":7509:7546   */\n      mstore\n        /* \"#utility.yul\":7434:7552   */\n      pop\n      pop\n      jump\t// out\n        /* \"#utility.yul\":7558:7922   */\n    tag_576:\n        /* \"#utility.yul\":7646:7649   */\n      0x00\n        /* \"#utility.yul\":7674:7713   */\n      tag_578\n        /* \"#utility.yul\":7707:7712   */\n      dup3\n        /* \"#utility.yul\":7674:7713   */\n      tag_579\n      jump\t// in\n    tag_578:\n        /* \"#utility.yul\":7729:7800   */\n      tag_580\n        /* \"#utility.yul\":7793:7799   */\n      dup2\n        /* \"#utility.yul\":7788:7791   */\n      dup6\n        /* \"#utility.yul\":7729:7800   */\n      tag_581\n      jump\t// in\n    tag_580:\n        /* \"#utility.yul\":7722:7800   */\n      swap4\n      pop\n        /* \"#utility.yul\":7809:7861   */\n      tag_582\n        /* \"#utility.yul\":7854:7860   */\n      dup2\n        /* \"#utility.yul\":7849:7852   */\n      dup6\n        /* \"#utility.yul\":7842:7846   */\n      0x20\n        /* \"#utility.yul\":7835:7840   */\n      dup7\n        /* \"#utility.yul\":7831:7847   */\n      add\n        /* \"#utility.yul\":7809:7861   */\n      tag_583\n      jump\t// in\n    tag_582:\n        /* \"#utility.yul\":7886:7915   */\n      tag_584\n        /* \"#utility.yul\":7908:7914   */\n      dup2\n        /* \"#utility.yul\":7886:7915   */\n      tag_585\n      jump\t// in\n    tag_584:\n        /* \"#utility.yul\":7881:7884   */\n      dup5\n        /* \"#utility.yul\":7877:7916   */\n      add\n        /* \"#utility.yul\":7870:7916   */\n      swap2\n      pop\n        /* \"#utility.yul\":7650:7922   */\n      pop\n        /* \"#utility.yul\":7558:7922   */\n      swap3\n      swap2\n      pop\n      pop\n      jump\t// out\n        /* \"#utility.yul\":7928:8305   */\n    tag_586:\n        /* \"#utility.yul\":8034:8037   */\n      0x00\n        /* \"#utility.yul\":8062:8101   */\n      tag_588\n        /* \"#utility.yul\":8095:8100   */\n      dup3\n        /* \"#utility.yul\":8062:8101   */\n      tag_579\n      jump\t// in\n    tag_588:\n        /* \"#utility.yul\":8117:8206   */\n      tag_589\n        /* \"#utility.yul\":8199:8205   */\n      dup2\n        /* \"#utility.yul\":8194:8197   */\n      dup6\n        /* \"#utility.yul\":8117:8206   */\n      tag_590\n      jump\t// in\n    tag_589:\n        /* \"#utility.yul\":8110:8206   */\n      swap4\n      pop\n        /* \"#utility.yul\":8215:8267   */\n      tag_591\n        /* \"#utility.yul\":8260:8266   */\n      dup2\n        /* \"#utility.yul\":8255:8258   */\n      dup6\n        /* \"#utility.yul\":8248:8252   */\n      0x20\n        /* \"#utility.yul\":8241:8246   */\n      dup7\n        /* \"#utility.yul\":8237:8253   */\n      add\n        /* \"#utility.yul\":8215:8267   */\n      tag_583\n      jump\t// in\n    tag_591:\n        /* \"#utility.yul\":8292:8298   */\n      dup1\n        /* \"#utility.yul\":8287:8290   */\n      dup5\n        /* \"#utility.yul\":8283:8299   */\n      add\n        /* \"#utility.yul\":8276:8299   */\n      swap2\n      pop\n        /* \"#utility.yul\":8038:8305   */\n      pop\n        /* \"#utility.yul\":7928:8305   */\n      swap3\n      swap2\n      pop\n      pop\n      jump\t// out\n        /* \"#utility.yul\":8311:8677   */\n    tag_592:\n        /* \"#utility.yul\":8453:8456   */\n      0x00\n        /* \"#utility.yul\":8474:8541   */\n      tag_594\n        /* \"#utility.yul\":8538:8540   */\n      0x19\n        /* \"#utility.yul\":8533:8536   */\n      dup4\n        /* \"#utility.yul\":8474:8541   */\n      tag_581\n      jump\t// in\n    tag_594:\n        /* \"#utility.yul\":8467:8541   */\n      swap2\n      pop\n        /* \"#utility.yul\":8550:8643   */\n      tag_595\n        /* \"#utility.yul\":8639:8642   */\n      dup3\n        /* \"#utility.yul\":8550:8643   */\n      tag_596\n      jump\t// in\n    tag_595:\n        /* \"#utility.yul\":8668:8670   */\n      0x20\n        /* \"#utility.yul\":8663:8666   */\n      dup3\n        /* \"#utility.yul\":8659:8671   */\n      add\n        /* \"#utility.yul\":8652:8671   */\n      swap1\n      pop\n        /* \"#utility.yul\":8311:8677   */\n      swap2\n      swap1\n      pop\n      jump\t// out\n        /* \"#utility.yul\":8683:9048   */\n    tag_597:\n        /* \"#utility.yul\":8825:8828   */\n      0x00\n        /* \"#utility.yul\":8846:8912   */\n      tag_599\n        /* \"#utility.yul\":8910:8911   */\n      0x09\n        /* \"#utility.yul\":8905:8908   */\n      dup4\n        /* \"#utility.yul\":8846:8912   */\n      tag_581\n      jump\t// in\n    tag_599:\n        /* \"#utility.yul\":8839:8912   */\n      swap2\n      pop\n        /* \"#utility.yul\":8921:9014   */\n      tag_600\n        /* \"#utility.yul\":9010:9013   */\n      dup3\n        /* \"#utility.yul\":8921:9014   */\n      tag_601\n      jump\t// in\n    tag_600:\n        /* \"#utility.yul\":9039:9041   */\n      0x20\n        /* \"#utility.yul\":9034:9037   */\n      dup3\n        /* \"#utility.yul\":9030:9042   */\n      add\n        /* \"#utility.yul\":9023:9042   */\n      swap1\n      pop\n        /* \"#utility.yul\":8683:9048   */\n      swap2\n      swap1\n      pop\n      jump\t// out\n        /* \"#utility.yul\":9054:9420   */\n    tag_602:\n        /* \"#utility.yul\":9196:9199   */\n      0x00\n        /* \"#utility.yul\":9217:9284   */\n      tag_604\n        /* \"#utility.yul\":9281:9283   */\n      0x0e\n        /* \"#utility.yul\":9276:9279   */\n      dup4\n        /* \"#utility.yul\":9217:9284   */\n      tag_581\n      jump\t// in\n    tag_604:\n        /* \"#utility.yul\":9210:9284   */\n      swap2\n      pop\n        /* \"#utility.yul\":9293:9386   */\n      tag_605\n        /* \"#utility.yul\":9382:9385   */\n      dup3\n        /* \"#utility.yul\":9293:9386   */\n      tag_606\n      jump\t// in\n    tag_605:\n        /* \"#utility.yul\":9411:9413   */\n      0x20\n        /* \"#utility.yul\":9406:9409   */\n      dup3\n        /* \"#utility.yul\":9402:9414   */\n      add\n        /* \"#utility.yul\":9395:9414   */\n      swap1\n      pop\n        /* \"#utility.yul\":9054:9420   */\n      swap2\n      swap1\n      pop\n      jump\t// out\n        /* \"#utility.yul\":9426:9792   */\n    tag_607:\n        /* \"#utility.yul\":9568:9571   */\n      0x00\n        /* \"#utility.yul\":9589:9656   */\n      tag_609\n        /* \"#utility.yul\":9653:9655   */\n      0x0a\n        /* \"#utility.yul\":9648:9651   */\n      dup4\n        /* \"#utility.yul\":9589:9656   */\n      tag_581\n      jump\t// in\n    tag_609:\n        /* \"#utility.yul\":9582:9656   */\n      swap2\n      pop\n        /* \"#utility.yul\":9665:9758   */\n      tag_610\n        /* \"#utility.yul\":9754:9757   */\n      dup3\n        /* \"#utility.yul\":9665:9758   */\n      tag_611\n      jump\t// in\n    tag_610:\n        /* \"#utility.yul\":9783:9785   */\n      0x20\n        /* \"#utility.yul\":9778:9781   */\n      dup3\n        /* \"#utility.yul\":9774:9786   */\n      add\n        /* \"#utility.yul\":9767:9786   */\n      swap1\n      pop\n        /* \"#utility.yul\":9426:9792   */\n      swap2\n      swap1\n      pop\n      jump\t// out\n        /* \"#utility.yul\":9798:10164   */\n    tag_612:\n        /* \"#utility.yul\":9940:9943   */\n      0x00\n        /* \"#utility.yul\":9961:10028   */\n      tag_614\n        /* \"#utility.yul\":10025:10027   */\n      0x15\n        /* \"#utility.yul\":10020:10023   */\n      dup4\n        /* \"#utility.yul\":9961:10028   */\n      tag_581\n      jump\t// in\n    tag_614:\n        /* \"#utility.yul\":9954:10028   */\n      swap2\n      pop\n        /* \"#utility.yul\":10037:10130   */\n      tag_615\n        /* \"#utility.yul\":10126:10129   */\n      dup3\n        /* \"#utility.yul\":10037:10130   */\n      tag_616\n      jump\t// in\n    tag_615:\n        /* \"#utility.yul\":10155:10157   */\n      0x20\n        /* \"#utility.yul\":10150:10153   */\n      dup3\n        /* \"#utility.yul\":10146:10158   */\n      add\n        /* \"#utility.yul\":10139:10158   */\n      swap1\n      pop\n        /* \"#utility.yul\":9798:10164   */\n      swap2\n      swap1\n      pop\n      jump\t// out\n        /* \"#utility.yul\":10170:10536   */\n    tag_617:\n        /* \"#utility.yul\":10312:10315   */\n      0x00\n        /* \"#utility.yul\":10333:10400   */\n      tag_619\n        /* \"#utility.yul\":10397:10399   */\n      0x15\n        /* \"#utility.yul\":10392:10395   */\n      dup4\n        /* \"#utility.yul\":10333:10400   */\n      tag_581\n      jump\t// in\n    tag_619:\n        /* \"#utility.yul\":10326:10400   */\n      swap2\n      pop\n        /* \"#utility.yul\":10409:10502   */\n      tag_620\n        /* \"#utility.yul\":10498:10501   */\n      dup3\n        /* \"#utility.yul\":10409:10502   */\n      tag_621\n      jump\t// in\n    tag_620:\n        /* \"#utility.yul\":10527:10529   */\n      0x20\n        /* \"#utility.yul\":10522:10525   */\n      dup3\n        /* \"#utility.yul\":10518:10530   */\n      add\n        /* \"#utility.yul\":10511:10530   */\n      swap1\n      pop\n        /* \"#utility.yul\":10170:10536   */\n      swap2\n      swap1\n      pop\n      jump\t// out\n        /* \"#utility.yul\":10542:10908   */\n    tag_622:\n        /* \"#utility.yul\":10684:10687   */\n      0x00\n        /* \"#utility.yul\":10705:10772   */\n      tag_624\n        /* \"#utility.yul\":10769:10771   */\n      0x11\n        /* \"#utility.yul\":10764:10767   */\n      dup4\n        /* \"#utility.yul\":10705:10772   */\n      tag_581\n      jump\t// in\n    tag_624:\n        /* \"#utility.yul\":10698:10772   */\n      swap2\n      pop\n        /* \"#utility.yul\":10781:10874   */\n      tag_625\n        /* \"#utility.yul\":10870:10873   */\n      dup3\n        /* \"#utility.yul\":10781:10874   */\n      tag_626\n      jump\t// in\n    tag_625:\n        /* \"#utility.yul\":10899:10901   */\n      0x20\n        /* \"#utility.yul\":10894:10897   */\n      dup3\n        /* \"#utility.yul\":10890:10902   */\n      add\n        /* \"#utility.yul\":10883:10902   */\n      swap1\n      pop\n        /* \"#utility.yul\":10542:10908   */\n      swap2\n      swap1\n      pop\n      jump\t// out\n        /* \"#utility.yul\":10978:12020   */\n    tag_627:\n        /* \"#utility.yul\":11133:11137   */\n      0xa0\n        /* \"#utility.yul\":11128:11131   */\n      dup3\n        /* \"#utility.yul\":11124:11138   */\n      add\n        /* \"#utility.yul\":11221:11225   */\n      0x00\n        /* \"#utility.yul\":11214:11219   */\n      dup3\n        /* \"#utility.yul\":11210:11226   */\n      add\n        /* \"#utility.yul\":11204:11227   */\n      mload\n        /* \"#utility.yul\":11240:11303   */\n      tag_629\n        /* \"#utility.yul\":11297:11301   */\n      0x00\n        /* \"#utility.yul\":11292:11295   */\n      dup6\n        /* \"#utility.yul\":11288:11302   */\n      add\n        /* \"#utility.yul\":11274:11286   */\n      dup3\n        /* \"#utility.yul\":11240:11303   */\n      tag_630\n      jump\t// in\n    tag_629:\n        /* \"#utility.yul\":11148:11313   */\n      pop\n        /* \"#utility.yul\":11396:11400   */\n      0x20\n        /* \"#utility.yul\":11389:11394   */\n      dup3\n        /* \"#utility.yul\":11385:11401   */\n      add\n        /* \"#utility.yul\":11379:11402   */\n      mload\n        /* \"#utility.yul\":11415:11478   */\n      tag_631\n        /* \"#utility.yul\":11472:11476   */\n      0x20\n        /* \"#utility.yul\":11467:11470   */\n      dup6\n        /* \"#utility.yul\":11463:11477   */\n      add\n        /* \"#utility.yul\":11449:11461   */\n      dup3\n        /* \"#utility.yul\":11415:11478   */\n      tag_630\n      jump\t// in\n    tag_631:\n        /* \"#utility.yul\":11323:11488   */\n      pop\n        /* \"#utility.yul\":11571:11575   */\n      0x40\n        /* \"#utility.yul\":11564:11569   */\n      dup3\n        /* \"#utility.yul\":11560:11576   */\n      add\n        /* \"#utility.yul\":11554:11577   */\n      mload\n        /* \"#utility.yul\":11590:11653   */\n      tag_632\n        /* \"#utility.yul\":11647:11651   */\n      0x40\n        /* \"#utility.yul\":11642:11645   */\n      dup6\n        /* \"#utility.yul\":11638:11652   */\n      add\n        /* \"#utility.yul\":11624:11636   */\n      dup3\n        /* \"#utility.yul\":11590:11653   */\n      tag_630\n      jump\t// in\n    tag_632:\n        /* \"#utility.yul\":11498:11663   */\n      pop\n        /* \"#utility.yul\":11746:11750   */\n      0x60\n        /* \"#utility.yul\":11739:11744   */\n      dup3\n        /* \"#utility.yul\":11735:11751   */\n      add\n        /* \"#utility.yul\":11729:11752   */\n      mload\n        /* \"#utility.yul\":11765:11828   */\n      tag_633\n        /* \"#utility.yul\":11822:11826   */\n      0x60\n        /* \"#utility.yul\":11817:11820   */\n      dup6\n        /* \"#utility.yul\":11813:11827   */\n      add\n        /* \"#utility.yul\":11799:11811   */\n      dup3\n        /* \"#utility.yul\":11765:11828   */\n      tag_630\n      jump\t// in\n    tag_633:\n        /* \"#utility.yul\":11673:11838   */\n      pop\n        /* \"#utility.yul\":11921:11925   */\n      0x80\n        /* \"#utility.yul\":11914:11919   */\n      dup3\n        /* \"#utility.yul\":11910:11926   */\n      add\n        /* \"#utility.yul\":11904:11927   */\n      mload\n        /* \"#utility.yul\":11940:12003   */\n      tag_634\n        /* \"#utility.yul\":11997:12001   */\n      0x80\n        /* \"#utility.yul\":11992:11995   */\n      dup6\n        /* \"#utility.yul\":11988:12002   */\n      add\n        /* \"#utility.yul\":11974:11986   */\n      dup3\n        /* \"#utility.yul\":11940:12003   */\n      tag_630\n      jump\t// in\n    tag_634:\n        /* \"#utility.yul\":11848:12013   */\n      pop\n        /* \"#utility.yul\":11102:12020   */\n      pop\n        /* \"#utility.yul\":10978:12020   */\n      pop\n      pop\n      jump\t// out\n        /* \"#utility.yul\":12026:12134   */\n    tag_630:\n        /* \"#utility.yul\":12103:12127   */\n      tag_636\n        /* \"#utility.yul\":12121:12126   */\n      dup2\n        /* \"#utility.yul\":12103:12127   */\n      tag_637\n      jump\t// in\n    tag_636:\n        /* \"#utility.yul\":12098:12101   */\n      dup3\n        /* \"#utility.yul\":12091:12128   */\n      mstore\n        /* \"#utility.yul\":12026:12134   */\n      pop\n      pop\n      jump\t// out\n        /* \"#utility.yul\":12140:12258   */\n    tag_638:\n        /* \"#utility.yul\":12227:12251   */\n      tag_640\n        /* \"#utility.yul\":12245:12250   */\n      dup2\n        /* \"#utility.yul\":12227:12251   */\n      tag_637\n      jump\t// in\n    tag_640:\n        /* \"#utility.yul\":12222:12225   */\n      dup3\n        /* \"#utility.yul\":12215:12252   */\n      mstore\n        /* \"#utility.yul\":12140:12258   */\n      pop\n      pop\n      jump\t// out\n        /* \"#utility.yul\":12264:12421   */\n    tag_641:\n        /* \"#utility.yul\":12369:12414   */\n      tag_643\n        /* \"#utility.yul\":12389:12413   */\n      tag_644\n        /* \"#utility.yul\":12407:12412   */\n      dup3\n        /* \"#utility.yul\":12389:12413   */\n      tag_637\n      jump\t// in\n    tag_644:\n        /* \"#utility.yul\":12369:12414   */\n      tag_645\n      jump\t// in\n    tag_643:\n        /* \"#utility.yul\":12364:12367   */\n      dup3\n        /* \"#utility.yul\":12357:12415   */\n      mstore\n        /* \"#utility.yul\":12264:12421   */\n      pop\n      pop\n      jump\t// out\n        /* \"#utility.yul\":12427:12702   */\n    tag_156:\n        /* \"#utility.yul\":12559:12562   */\n      0x00\n        /* \"#utility.yul\":12581:12676   */\n      tag_647\n        /* \"#utility.yul\":12672:12675   */\n      dup3\n        /* \"#utility.yul\":12663:12669   */\n      dup5\n        /* \"#utility.yul\":12581:12676   */\n      tag_586\n      jump\t// in\n    tag_647:\n        /* \"#utility.yul\":12574:12676   */\n      swap2\n      pop\n        /* \"#utility.yul\":12693:12696   */\n      dup2\n        /* \"#utility.yul\":12686:12696   */\n      swap1\n      pop\n        /* \"#utility.yul\":12427:12702   */\n      swap3\n      swap2\n      pop\n      pop\n      jump\t// out\n        /* \"#utility.yul\":12708:12964   */\n    tag_440:\n        /* \"#utility.yul\":12820:12823   */\n      0x00\n        /* \"#utility.yul\":12835:12910   */\n      tag_649\n        /* \"#utility.yul\":12906:12909   */\n      dup3\n        /* \"#utility.yul\":12897:12903   */\n      dup5\n        /* \"#utility.yul\":12835:12910   */\n      tag_641\n      jump\t// in\n    tag_649:\n        /* \"#utility.yul\":12935:12937   */\n      0x20\n        /* \"#utility.yul\":12930:12933   */\n      dup3\n        /* \"#utility.yul\":12926:12938   */\n      add\n        /* \"#utility.yul\":12919:12938   */\n      swap2\n      pop\n        /* \"#utility.yul\":12955:12958   */\n      dup2\n        /* \"#utility.yul\":12948:12958   */\n      swap1\n      pop\n        /* \"#utility.yul\":12708:12964   */\n      swap3\n      swap2\n      pop\n      pop\n      jump\t// out\n        /* \"#utility.yul\":12970:13302   */\n    tag_25:\n        /* \"#utility.yul\":13091:13095   */\n      0x00\n        /* \"#utility.yul\":13129:13131   */\n      0x40\n        /* \"#utility.yul\":13118:13127   */\n      dup3\n        /* \"#utility.yul\":13114:13132   */\n      add\n        /* \"#utility.yul\":13106:13132   */\n      swap1\n      pop\n        /* \"#utility.yul\":13142:13213   */\n      tag_651\n        /* \"#utility.yul\":13210:13211   */\n      0x00\n        /* \"#utility.yul\":13199:13208   */\n      dup4\n        /* \"#utility.yul\":13195:13212   */\n      add\n        /* \"#utility.yul\":13186:13192   */\n      dup6\n        /* \"#utility.yul\":13142:13213   */\n      tag_548\n      jump\t// in\n    tag_651:\n        /* \"#utility.yul\":13223:13295   */\n      tag_652\n        /* \"#utility.yul\":13291:13293   */\n      0x20\n        /* \"#utility.yul\":13280:13289   */\n      dup4\n        /* \"#utility.yul\":13276:13294   */\n      add\n        /* \"#utility.yul\":13267:13273   */\n      dup5\n        /* \"#utility.yul\":13223:13295   */\n      tag_638\n      jump\t// in\n    tag_652:\n        /* \"#utility.yul\":12970:13302   */\n      swap4\n      swap3\n      pop\n      pop\n      pop\n      jump\t// out\n        /* \"#utility.yul\":13308:13681   */\n    tag_84:\n        /* \"#utility.yul\":13451:13455   */\n      0x00\n        /* \"#utility.yul\":13489:13491   */\n      0x20\n        /* \"#utility.yul\":13478:13487   */\n      dup3\n        /* \"#utility.yul\":13474:13492   */\n      add\n        /* \"#utility.yul\":13466:13492   */\n      swap1\n      pop\n        /* \"#utility.yul\":13538:13547   */\n      dup2\n        /* \"#utility.yul\":13532:13536   */\n      dup2\n        /* \"#utility.yul\":13528:13548   */\n      sub\n        /* \"#utility.yul\":13524:13525   */\n      0x00\n        /* \"#utility.yul\":13513:13522   */\n      dup4\n        /* \"#utility.yul\":13509:13526   */\n      add\n        /* \"#utility.yul\":13502:13549   */\n      mstore\n        /* \"#utility.yul\":13566:13674   */\n      tag_654\n        /* \"#utility.yul\":13669:13673   */\n      dup2\n        /* \"#utility.yul\":13660:13666   */\n      dup5\n        /* \"#utility.yul\":13566:13674   */\n      tag_552\n      jump\t// in\n    tag_654:\n        /* \"#utility.yul\":13558:13674   */\n      swap1\n      pop\n        /* \"#utility.yul\":13308:13681   */\n      swap3\n      swap2\n      pop\n      pop\n      jump\t// out\n        /* \"#utility.yul\":13687:13897   */\n    tag_37:\n        /* \"#utility.yul\":13774:13778   */\n      0x00\n        /* \"#utility.yul\":13812:13814   */\n      0x20\n        /* \"#utility.yul\":13801:13810   */\n      dup3\n        /* \"#utility.yul\":13797:13815   */\n      add\n        /* \"#utility.yul\":13789:13815   */\n      swap1\n      pop\n        /* \"#utility.yul\":13825:13890   */\n      tag_656\n        /* \"#utility.yul\":13887:13888   */\n      0x00\n        /* \"#utility.yul\":13876:13885   */\n      dup4\n        /* \"#utility.yul\":13872:13889   */\n      add\n        /* \"#utility.yul\":13863:13869   */\n      dup5\n        /* \"#utility.yul\":13825:13890   */\n      tag_566\n      jump\t// in\n    tag_656:\n        /* \"#utility.yul\":13687:13897   */\n      swap3\n      swap2\n      pop\n      pop\n      jump\t// out\n        /* \"#utility.yul\":13903:14125   */\n    tag_49:\n        /* \"#utility.yul\":13996:14000   */\n      0x00\n        /* \"#utility.yul\":14034:14036   */\n      0x20\n        /* \"#utility.yul\":14023:14032   */\n      dup3\n        /* \"#utility.yul\":14019:14037   */\n      add\n        /* \"#utility.yul\":14011:14037   */\n      swap1\n      pop\n        /* \"#utility.yul\":14047:14118   */\n      tag_658\n        /* \"#utility.yul\":14115:14116   */\n      0x00\n        /* \"#utility.yul\":14104:14113   */\n      dup4\n        /* \"#utility.yul\":14100:14117   */\n      add\n        /* \"#utility.yul\":14091:14097   */\n      dup5\n        /* \"#utility.yul\":14047:14118   */\n      tag_573\n      jump\t// in\n    tag_658:\n        /* \"#utility.yul\":13903:14125   */\n      swap3\n      swap2\n      pop\n      pop\n      jump\t// out\n        /* \"#utility.yul\":14131:14872   */\n    tag_90:\n        /* \"#utility.yul\":14378:14382   */\n      0x00\n        /* \"#utility.yul\":14416:14419   */\n      0xe0\n        /* \"#utility.yul\":14405:14414   */\n      dup3\n        /* \"#utility.yul\":14401:14420   */\n      add\n        /* \"#utility.yul\":14393:14420   */\n      swap1\n      pop\n        /* \"#utility.yul\":14466:14475   */\n      dup2\n        /* \"#utility.yul\":14460:14464   */\n      dup2\n        /* \"#utility.yul\":14456:14476   */\n      sub\n        /* \"#utility.yul\":14452:14453   */\n      0x00\n        /* \"#utility.yul\":14441:14450   */\n      dup4\n        /* \"#utility.yul\":14437:14454   */\n      add\n        /* \"#utility.yul\":14430:14477   */\n      mstore\n        /* \"#utility.yul\":14494:14572   */\n      tag_660\n        /* \"#utility.yul\":14567:14571   */\n      dup2\n        /* \"#utility.yul\":14558:14564   */\n      dup7\n        /* \"#utility.yul\":14494:14572   */\n      tag_576\n      jump\t// in\n    tag_660:\n        /* \"#utility.yul\":14486:14572   */\n      swap1\n      pop\n        /* \"#utility.yul\":14619:14628   */\n      dup2\n        /* \"#utility.yul\":14613:14617   */\n      dup2\n        /* \"#utility.yul\":14609:14629   */\n      sub\n        /* \"#utility.yul\":14604:14606   */\n      0x20\n        /* \"#utility.yul\":14593:14602   */\n      dup4\n        /* \"#utility.yul\":14589:14607   */\n      add\n        /* \"#utility.yul\":14582:14630   */\n      mstore\n        /* \"#utility.yul\":14647:14725   */\n      tag_661\n        /* \"#utility.yul\":14720:14724   */\n      dup2\n        /* \"#utility.yul\":14711:14717   */\n      dup6\n        /* \"#utility.yul\":14647:14725   */\n      tag_576\n      jump\t// in\n    tag_661:\n        /* \"#utility.yul\":14639:14725   */\n      swap1\n      pop\n        /* \"#utility.yul\":14735:14865   */\n      tag_662\n        /* \"#utility.yul\":14861:14863   */\n      0x40\n        /* \"#utility.yul\":14850:14859   */\n      dup4\n        /* \"#utility.yul\":14846:14864   */\n      add\n        /* \"#utility.yul\":14837:14843   */\n      dup5\n        /* \"#utility.yul\":14735:14865   */\n      tag_627\n      jump\t// in\n    tag_662:\n        /* \"#utility.yul\":14131:14872   */\n      swap5\n      swap4\n      pop\n      pop\n      pop\n      pop\n      jump\t// out\n        /* \"#utility.yul\":14878:15297   */\n    tag_98:\n        /* \"#utility.yul\":15044:15048   */\n      0x00\n        /* \"#utility.yul\":15082:15084   */\n      0x20\n        /* \"#utility.yul\":15071:15080   */\n      dup3\n        /* \"#utility.yul\":15067:15085   */\n      add\n        /* \"#utility.yul\":15059:15085   */\n      swap1\n      pop\n        /* \"#utility.yul\":15131:15140   */\n      dup2\n        /* \"#utility.yul\":15125:15129   */\n      dup2\n        /* \"#utility.yul\":15121:15141   */\n      sub\n        /* \"#utility.yul\":15117:15118   */\n      0x00\n        /* \"#utility.yul\":15106:15115   */\n      dup4\n        /* \"#utility.yul\":15102:15119   */\n      add\n        /* \"#utility.yul\":15095:15142   */\n      mstore\n        /* \"#utility.yul\":15159:15290   */\n      tag_664\n        /* \"#utility.yul\":15285:15289   */\n      dup2\n        /* \"#utility.yul\":15159:15290   */\n      tag_592\n      jump\t// in\n    tag_664:\n        /* \"#utility.yul\":15151:15290   */\n      swap1\n      pop\n        /* \"#utility.yul\":14878:15297   */\n      swap2\n      swap1\n      pop\n      jump\t// out\n        /* \"#utility.yul\":15303:15722   */\n    tag_389:\n        /* \"#utility.yul\":15469:15473   */\n      0x00\n        /* \"#utility.yul\":15507:15509   */\n      0x20\n        /* \"#utility.yul\":15496:15505   */\n      dup3\n        /* \"#utility.yul\":15492:15510   */\n      add\n        /* \"#utility.yul\":15484:15510   */\n      swap1\n      pop\n        /* \"#utility.yul\":15556:15565   */\n      dup2\n        /* \"#utility.yul\":15550:15554   */\n      dup2\n        /* \"#utility.yul\":15546:15566   */\n      sub\n        /* \"#utility.yul\":15542:15543   */\n      0x00\n        /* \"#utility.yul\":15531:15540   */\n      dup4\n        /* \"#utility.yul\":15527:15544   */\n      add\n        /* \"#utility.yul\":15520:15567   */\n      mstore\n        /* \"#utility.yul\":15584:15715   */\n      tag_666\n        /* \"#utility.yul\":15710:15714   */\n      dup2\n        /* \"#utility.yul\":15584:15715   */\n      tag_597\n      jump\t// in\n    tag_666:\n        /* \"#utility.yul\":15576:15715   */\n      swap1\n      pop\n        /* \"#utility.yul\":15303:15722   */\n      swap2\n      swap1\n      pop\n      jump\t// out\n        /* \"#utility.yul\":15728:16147   */\n    tag_108:\n        /* \"#utility.yul\":15894:15898   */\n      0x00\n        /* \"#utility.yul\":15932:15934   */\n      0x20\n        /* \"#utility.yul\":15921:15930   */\n      dup3\n        /* \"#utility.yul\":15917:15935   */\n      add\n        /* \"#utility.yul\":15909:15935   */\n      swap1\n      pop\n        /* \"#utility.yul\":15981:15990   */\n      dup2\n        /* \"#utility.yul\":15975:15979   */\n      dup2\n        /* \"#utility.yul\":15971:15991   */\n      sub\n        /* \"#utility.yul\":15967:15968   */\n      0x00\n        /* \"#utility.yul\":15956:15965   */\n      dup4\n        /* \"#utility.yul\":15952:15969   */\n      add\n        /* \"#utility.yul\":15945:15992   */\n      mstore\n        /* \"#utility.yul\":16009:16140   */\n      tag_668\n        /* \"#utility.yul\":16135:16139   */\n      dup2\n        /* \"#utility.yul\":16009:16140   */\n      tag_602\n      jump\t// in\n    tag_668:\n        /* \"#utility.yul\":16001:16140   */\n      swap1\n      pop\n        /* \"#utility.yul\":15728:16147   */\n      swap2\n      swap1\n      pop\n      jump\t// out\n        /* \"#utility.yul\":16153:16572   */\n    tag_160:\n        /* \"#utility.yul\":16319:16323   */\n      0x00\n        /* \"#utility.yul\":16357:16359   */\n      0x20\n        /* \"#utility.yul\":16346:16355   */\n      dup3\n        /* \"#utility.yul\":16342:16360   */\n      add\n        /* \"#utility.yul\":16334:16360   */\n      swap1\n      pop\n        /* \"#utility.yul\":16406:16415   */\n      dup2\n        /* \"#utility.yul\":16400:16404   */\n      dup2\n        /* \"#utility.yul\":16396:16416   */\n      sub\n        /* \"#utility.yul\":16392:16393   */\n      0x00\n        /* \"#utility.yul\":16381:16390   */\n      dup4\n        /* \"#utility.yul\":16377:16394   */\n      add\n        /* \"#utility.yul\":16370:16417   */\n      mstore\n        /* \"#utility.yul\":16434:16565   */\n      tag_670\n        /* \"#utility.yul\":16560:16564   */\n      dup2\n        /* \"#utility.yul\":16434:16565   */\n      tag_607\n      jump\t// in\n    tag_670:\n        /* \"#utility.yul\":16426:16565   */\n      swap1\n      pop\n        /* \"#utility.yul\":16153:16572   */\n      swap2\n      swap1\n      pop\n      jump\t// out\n        /* \"#utility.yul\":16578:16997   */\n    tag_136:\n        /* \"#utility.yul\":16744:16748   */\n      0x00\n        /* \"#utility.yul\":16782:16784   */\n      0x20\n        /* \"#utility.yul\":16771:16780   */\n      dup3\n        /* \"#utility.yul\":16767:16785   */\n      add\n        /* \"#utility.yul\":16759:16785   */\n      swap1\n      pop\n        /* \"#utility.yul\":16831:16840   */\n      dup2\n        /* \"#utility.yul\":16825:16829   */\n      dup2\n        /* \"#utility.yul\":16821:16841   */\n      sub\n        /* \"#utility.yul\":16817:16818   */\n      0x00\n        /* \"#utility.yul\":16806:16815   */\n      dup4\n        /* \"#utility.yul\":16802:16819   */\n      add\n        /* \"#utility.yul\":16795:16842   */\n      mstore\n        /* \"#utility.yul\":16859:16990   */\n      tag_672\n        /* \"#utility.yul\":16985:16989   */\n      dup2\n        /* \"#utility.yul\":16859:16990   */\n      tag_612\n      jump\t// in\n    tag_672:\n        /* \"#utility.yul\":16851:16990   */\n      swap1\n      pop\n        /* \"#utility.yul\":16578:16997   */\n      swap2\n      swap1\n      pop\n      jump\t// out\n        /* \"#utility.yul\":17003:17422   */\n    tag_207:\n        /* \"#utility.yul\":17169:17173   */\n      0x00\n        /* \"#utility.yul\":17207:17209   */\n      0x20\n        /* \"#utility.yul\":17196:17205   */\n      dup3\n        /* \"#utility.yul\":17192:17210   */\n      add\n        /* \"#utility.yul\":17184:17210   */\n      swap1\n      pop\n        /* \"#utility.yul\":17256:17265   */\n      dup2\n        /* \"#utility.yul\":17250:17254   */\n      dup2\n        /* \"#utility.yul\":17246:17266   */\n      sub\n        /* \"#utility.yul\":17242:17243   */\n      0x00\n        /* \"#utility.yul\":17231:17240   */\n      dup4\n        /* \"#utility.yul\":17227:17244   */\n      add\n        /* \"#utility.yul\":17220:17267   */\n      mstore\n        /* \"#utility.yul\":17284:17415   */\n      tag_674\n        /* \"#utility.yul\":17410:17414   */\n      dup2\n        /* \"#utility.yul\":17284:17415   */\n      tag_617\n      jump\t// in\n    tag_674:\n        /* \"#utility.yul\":17276:17415   */\n      swap1\n      pop\n        /* \"#utility.yul\":17003:17422   */\n      swap2\n      swap1\n      pop\n      jump\t// out\n        /* \"#utility.yul\":17428:17847   */\n    tag_282:\n        /* \"#utility.yul\":17594:17598   */\n      0x00\n        /* \"#utility.yul\":17632:17634   */\n      0x20\n        /* \"#utility.yul\":17621:17630   */\n      dup3\n        /* \"#utility.yul\":17617:17635   */\n      add\n        /* \"#utility.yul\":17609:17635   */\n      swap1\n      pop\n        /* \"#utility.yul\":17681:17690   */\n      dup2\n        /* \"#utility.yul\":17675:17679   */\n      dup2\n        /* \"#utility.yul\":17671:17691   */\n      sub\n        /* \"#utility.yul\":17667:17668   */\n      0x00\n        /* \"#utility.yul\":17656:17665   */\n      dup4\n        /* \"#utility.yul\":17652:17669   */\n      add\n        /* \"#utility.yul\":17645:17692   */\n      mstore\n        /* \"#utility.yul\":17709:17840   */\n      tag_676\n        /* \"#utility.yul\":17835:17839   */\n      dup2\n        /* \"#utility.yul\":17709:17840   */\n      tag_622\n      jump\t// in\n    tag_676:\n        /* \"#utility.yul\":17701:17840   */\n      swap1\n      pop\n        /* \"#utility.yul\":17428:17847   */\n      swap2\n      swap1\n      pop\n      jump\t// out\n        /* \"#utility.yul\":17853:18075   */\n    tag_31:\n        /* \"#utility.yul\":17946:17950   */\n      0x00\n        /* \"#utility.yul\":17984:17986   */\n      0x20\n        /* \"#utility.yul\":17973:17982   */\n      dup3\n        /* \"#utility.yul\":17969:17987   */\n      add\n        /* \"#utility.yul\":17961:17987   */\n      swap1\n      pop\n        /* \"#utility.yul\":17997:18068   */\n      tag_678\n        /* \"#utility.yul\":18065:18066   */\n      0x00\n        /* \"#utility.yul\":18054:18063   */\n      dup4\n        /* \"#utility.yul\":18050:18067   */\n      add\n        /* \"#utility.yul\":18041:18047   */\n      dup5\n        /* \"#utility.yul\":17997:18068   */\n      tag_638\n      jump\t// in\n    tag_678:\n        /* \"#utility.yul\":17853:18075   */\n      swap3\n      swap2\n      pop\n      pop\n      jump\t// out\n        /* \"#utility.yul\":18081:18210   */\n    tag_467:\n        /* \"#utility.yul\":18115:18121   */\n      0x00\n        /* \"#utility.yul\":18142:18162   */\n      tag_680\n      tag_681\n      jump\t// in\n    tag_680:\n        /* \"#utility.yul\":18132:18162   */\n      swap1\n      pop\n        /* \"#utility.yul\":18171:18204   */\n      tag_682\n        /* \"#utility.yul\":18199:18203   */\n      dup3\n        /* \"#utility.yul\":18191:18197   */\n      dup3\n        /* \"#utility.yul\":18171:18204   */\n      tag_683\n      jump\t// in\n    tag_682:\n        /* \"#utility.yul\":18081:18210   */\n      swap2\n      swap1\n      pop\n      jump\t// out\n        /* \"#utility.yul\":18216:18291   */\n    tag_681:\n        /* \"#utility.yul\":18249:18255   */\n      0x00\n        /* \"#utility.yul\":18282:18284   */\n      0x40\n        /* \"#utility.yul\":18276:18285   */\n      mload\n        /* \"#utility.yul\":18266:18285   */\n      swap1\n      pop\n        /* \"#utility.yul\":18216:18291   */\n      swap1\n      jump\t// out\n        /* \"#utility.yul\":18297:18605   */\n    tag_466:\n        /* \"#utility.yul\":18359:18363   */\n      0x00\n        /* \"#utility.yul\":18449:18467   */\n      0xffffffffffffffff\n        /* \"#utility.yul\":18441:18447   */\n      dup3\n        /* \"#utility.yul\":18438:18468   */\n      gt\n        /* \"#utility.yul\":18435:18491   */\n      iszero\n      tag_686\n      jumpi\n        /* \"#utility.yul\":18471:18489   */\n      tag_687\n      tag_413\n      jump\t// in\n    tag_687:\n        /* \"#utility.yul\":18435:18491   */\n    tag_686:\n        /* \"#utility.yul\":18509:18538   */\n      tag_688\n        /* \"#utility.yul\":18531:18537   */\n      dup3\n        /* \"#utility.yul\":18509:18538   */\n      tag_585\n      jump\t// in\n    tag_688:\n        /* \"#utility.yul\":18501:18538   */\n      swap1\n      pop\n        /* \"#utility.yul\":18593:18597   */\n      0x20\n        /* \"#utility.yul\":18587:18591   */\n      dup2\n        /* \"#utility.yul\":18583:18598   */\n      add\n        /* \"#utility.yul\":18575:18598   */\n      swap1\n      pop\n        /* \"#utility.yul\":18297:18605   */\n      swap2\n      swap1\n      pop\n      jump\t// out\n        /* \"#utility.yul\":18611:18743   */\n    tag_559:\n        /* \"#utility.yul\":18678:18682   */\n      0x00\n        /* \"#utility.yul\":18701:18704   */\n      dup2\n        /* \"#utility.yul\":18693:18704   */\n      swap1\n      pop\n        /* \"#utility.yul\":18731:18735   */\n      0x20\n        /* \"#utility.yul\":18726:18729   */\n      dup3\n        /* \"#utility.yul\":18722:18736   */\n      add\n        /* \"#utility.yul\":18714:18736   */\n      swap1\n      pop\n        /* \"#utility.yul\":18611:18743   */\n      swap2\n      swap1\n      pop\n      jump\t// out\n        /* \"#utility.yul\":18749:18863   */\n    tag_555:\n        /* \"#utility.yul\":18816:18822   */\n      0x00\n        /* \"#utility.yul\":18850:18855   */\n      dup2\n        /* \"#utility.yul\":18844:18856   */\n      mload\n        /* \"#utility.yul\":18834:18856   */\n      swap1\n      pop\n        /* \"#utility.yul\":18749:18863   */\n      swap2\n      swap1\n      pop\n      jump\t// out\n        /* \"#utility.yul\":18869:18968   */\n    tag_579:\n        /* \"#utility.yul\":18921:18927   */\n      0x00\n        /* \"#utility.yul\":18955:18960   */\n      dup2\n        /* \"#utility.yul\":18949:18961   */\n      mload\n        /* \"#utility.yul\":18939:18961   */\n      swap1\n      pop\n        /* \"#utility.yul\":18869:18968   */\n      swap2\n      swap1\n      pop\n      jump\t// out\n        /* \"#utility.yul\":18974:19087   */\n    tag_565:\n        /* \"#utility.yul\":19044:19048   */\n      0x00\n        /* \"#utility.yul\":19076:19080   */\n      0x20\n        /* \"#utility.yul\":19071:19074   */\n      dup3\n        /* \"#utility.yul\":19067:19081   */\n      add\n        /* \"#utility.yul\":19059:19081   */\n      swap1\n      pop\n        /* \"#utility.yul\":18974:19087   */\n      swap2\n      swap1\n      pop\n      jump\t// out\n        /* \"#utility.yul\":19093:19277   */\n    tag_557:\n        /* \"#utility.yul\":19192:19203   */\n      0x00\n        /* \"#utility.yul\":19226:19232   */\n      dup3\n        /* \"#utility.yul\":19221:19224   */\n      dup3\n        /* \"#utility.yul\":19214:19233   */\n      mstore\n        /* \"#utility.yul\":19266:19270   */\n      0x20\n        /* \"#utility.yul\":19261:19264   */\n      dup3\n        /* \"#utility.yul\":19257:19271   */\n      add\n        /* \"#utility.yul\":19242:19271   */\n      swap1\n      pop\n        /* \"#utility.yul\":19093:19277   */\n      swap3\n      swap2\n      pop\n      pop\n      jump\t// out\n        /* \"#utility.yul\":19283:19452   */\n    tag_581:\n        /* \"#utility.yul\":19367:19378   */\n      0x00\n        /* \"#utility.yul\":19401:19407   */\n      dup3\n        /* \"#utility.yul\":19396:19399   */\n      dup3\n        /* \"#utility.yul\":19389:19408   */\n      mstore\n        /* \"#utility.yul\":19441:19445   */\n      0x20\n        /* \"#utility.yul\":19436:19439   */\n      dup3\n        /* \"#utility.yul\":19432:19446   */\n      add\n        /* \"#utility.yul\":19417:19446   */\n      swap1\n      pop\n        /* \"#utility.yul\":19283:19452   */\n      swap3\n      swap2\n      pop\n      pop\n      jump\t// out\n        /* \"#utility.yul\":19458:19606   */\n    tag_590:\n        /* \"#utility.yul\":19560:19571   */\n      0x00\n        /* \"#utility.yul\":19597:19600   */\n      dup2\n        /* \"#utility.yul\":19582:19600   */\n      swap1\n      pop\n        /* \"#utility.yul\":19458:19606   */\n      swap3\n      swap2\n      pop\n      pop\n      jump\t// out\n        /* \"#utility.yul\":19612:19917   */\n    tag_22:\n        /* \"#utility.yul\":19652:19655   */\n      0x00\n        /* \"#utility.yul\":19671:19691   */\n      tag_697\n        /* \"#utility.yul\":19689:19690   */\n      dup3\n        /* \"#utility.yul\":19671:19691   */\n      tag_637\n      jump\t// in\n    tag_697:\n        /* \"#utility.yul\":19666:19691   */\n      swap2\n      pop\n        /* \"#utility.yul\":19705:19725   */\n      tag_698\n        /* \"#utility.yul\":19723:19724   */\n      dup4\n        /* \"#utility.yul\":19705:19725   */\n      tag_637\n      jump\t// in\n    tag_698:\n        /* \"#utility.yul\":19700:19725   */\n      swap3\n      pop\n        /* \"#utility.yul\":19859:19860   */\n      dup3\n        /* \"#utility.yul\":19791:19857   */\n      0xffffffffffffffffffffffffffffffffffffffffffffffffffffffffffffffff\n        /* \"#utility.yul\":19787:19861   */\n      sub\n        /* \"#utility.yul\":19784:19785   */\n      dup3\n        /* \"#utility.yul\":19781:19862   */\n      gt\n        /* \"#utility.yul\":19778:19885   */\n      iszero\n      tag_699\n      jumpi\n        /* \"#utility.yul\":19865:19883   */\n      tag_700\n      tag_701\n      jump\t// in\n    tag_700:\n        /* \"#utility.yul\":19778:19885   */\n    tag_699:\n        /* \"#utility.yul\":19909:19910   */\n      dup3\n        /* \"#utility.yul\":19906:19907   */\n      dup3\n        /* \"#utility.yul\":19902:19911   */\n      add\n        /* \"#utility.yul\":19895:19911   */\n      swap1\n      pop\n        /* \"#utility.yul\":19612:19917   */\n      swap3\n      swap2\n      pop\n      pop\n      jump\t// out\n        /* \"#utility.yul\":19923:20108   */\n    tag_94:\n        /* \"#utility.yul\":19963:19964   */\n      0x00\n        /* \"#utility.yul\":19980:20000   */\n      tag_703\n        /* \"#utility.yul\":19998:19999   */\n      dup3\n        /* \"#utility.yul\":19980:20000   */\n      tag_637\n      jump\t// in\n    tag_703:\n        /* \"#utility.yul\":19975:20000   */\n      swap2\n      pop\n        /* \"#utility.yul\":20014:20034   */\n      tag_704\n        /* \"#utility.yul\":20032:20033   */\n      dup4\n        /* \"#utility.yul\":20014:20034   */\n      tag_637\n      jump\t// in\n    tag_704:\n        /* \"#utility.yul\":20009:20034   */\n      swap3\n      pop\n        /* \"#utility.yul\":20053:20054   */\n      dup3\n        /* \"#utility.yul\":20043:20078   */\n      tag_705\n      jumpi\n        /* \"#utility.yul\":20058:20076   */\n      tag_706\n      tag_707\n      jump\t// in\n    tag_706:\n        /* \"#utility.yul\":20043:20078   */\n    tag_705:\n        /* \"#utility.yul\":20100:20101   */\n      dup3\n        /* \"#utility.yul\":20097:20098   */\n      dup3\n        /* \"#utility.yul\":20093:20102   */\n      div\n        /* \"#utility.yul\":20088:20102   */\n      swap1\n      pop\n        /* \"#utility.yul\":19923:20108   */\n      swap3\n      swap2\n      pop\n      pop\n      jump\t// out\n        /* \"#utility.yul\":20114:20462   */\n    tag_325:\n        /* \"#utility.yul\":20154:20161   */\n      0x00\n        /* \"#utility.yul\":20177:20197   */\n      tag_709\n        /* \"#utility.yul\":20195:20196   */\n      dup3\n        /* \"#utility.yul\":20177:20197   */\n      tag_637\n      jump\t// in\n    tag_709:\n        /* \"#utility.yul\":20172:20197   */\n      swap2\n      pop\n        /* \"#utility.yul\":20211:20231   */\n      tag_710\n        /* \"#utility.yul\":20229:20230   */\n      dup4\n        /* \"#utility.yul\":20211:20231   */\n      tag_637\n      jump\t// in\n    tag_710:\n        /* \"#utility.yul\":20206:20231   */\n      swap3\n      pop\n        /* \"#utility.yul\":20399:20400   */\n      dup2\n        /* \"#utility.yul\":20331:20397   */\n      0xffffffffffffffffffffffffffffffffffffffffffffffffffffffffffffffff\n        /* \"#utility.yul\":20327:20401   */\n      div\n        /* \"#utility.yul\":20324:20325   */\n      dup4\n        /* \"#utility.yul\":20321:20402   */\n      gt\n        /* \"#utility.yul\":20316:20317   */\n      dup3\n        /* \"#utility.yul\":20309:20318   */\n      iszero\n        /* \"#utility.yul\":20302:20319   */\n      iszero\n        /* \"#utility.yul\":20298:20403   */\n      and\n        /* \"#utility.yul\":20295:20426   */\n      iszero\n      tag_711\n      jumpi\n        /* \"#utility.yul\":20406:20424   */\n      tag_712\n      tag_701\n      jump\t// in\n    tag_712:\n        /* \"#utility.yul\":20295:20426   */\n    tag_711:\n        /* \"#utility.yul\":20454:20455   */\n      dup3\n        /* \"#utility.yul\":20451:20452   */\n      dup3\n        /* \"#utility.yul\":20447:20456   */\n      mul\n        /* \"#utility.yul\":20436:20456   */\n      swap1\n      pop\n        /* \"#utility.yul\":20114:20462   */\n      swap3\n      swap2\n      pop\n      pop\n      jump\t// out\n        /* \"#utility.yul\":20468:20659   */\n    tag_142:\n        /* \"#utility.yul\":20508:20512   */\n      0x00\n        /* \"#utility.yul\":20528:20548   */\n      tag_714\n        /* \"#utility.yul\":20546:20547   */\n      dup3\n        /* \"#utility.yul\":20528:20548   */\n      tag_637\n      jump\t// in\n    tag_714:\n        /* \"#utility.yul\":20523:20548   */\n      swap2\n      pop\n        /* \"#utility.yul\":20562:20582   */\n      tag_715\n        /* \"#utility.yul\":20580:20581   */\n      dup4\n        /* \"#utility.yul\":20562:20582   */\n      tag_637\n      jump\t// in\n    tag_715:\n        /* \"#utility.yul\":20557:20582   */\n      swap3\n      pop\n        /* \"#utility.yul\":20601:20602   */\n      dup3\n        /* \"#utility.yul\":20598:20599   */\n      dup3\n        /* \"#utility.yul\":20595:20603   */\n      lt\n        /* \"#utility.yul\":20592:20626   */\n      iszero\n      tag_716\n      jumpi\n        /* \"#utility.yul\":20606:20624   */\n      tag_717\n      tag_701\n      jump\t// in\n    tag_717:\n        /* \"#utility.yul\":20592:20626   */\n    tag_716:\n        /* \"#utility.yul\":20651:20652   */\n      dup3\n        /* \"#utility.yul\":20648:20649   */\n      dup3\n        /* \"#utility.yul\":20644:20653   */\n      sub\n        /* \"#utility.yul\":20636:20653   */\n      swap1\n      pop\n        /* \"#utility.yul\":20468:20659   */\n      swap3\n      swap2\n      pop\n      pop\n      jump\t// out\n        /* \"#utility.yul\":20665:20761   */\n    tag_551:\n        /* \"#utility.yul\":20702:20709   */\n      0x00\n        /* \"#utility.yul\":20731:20755   */\n      tag_719\n        /* \"#utility.yul\":20749:20754   */\n      dup3\n        /* \"#utility.yul\":20731:20755   */\n      tag_720\n      jump\t// in\n    tag_719:\n        /* \"#utility.yul\":20720:20755   */\n      swap1\n      pop\n        /* \"#utility.yul\":20665:20761   */\n      swap2\n      swap1\n      pop\n      jump\t// out\n        /* \"#utility.yul\":20767:20857   */\n    tag_569:\n        /* \"#utility.yul\":20801:20808   */\n      0x00\n        /* \"#utility.yul\":20844:20849   */\n      dup2\n        /* \"#utility.yul\":20837:20850   */\n      iszero\n        /* \"#utility.yul\":20830:20851   */\n      iszero\n        /* \"#utility.yul\":20819:20851   */\n      swap1\n      pop\n        /* \"#utility.yul\":20767:20857   */\n      swap2\n      swap1\n      pop\n      jump\t// out\n        /* \"#utility.yul\":20863:20940   */\n    tag_572:\n        /* \"#utility.yul\":20900:20907   */\n      0x00\n        /* \"#utility.yul\":20929:20934   */\n      dup2\n        /* \"#utility.yul\":20918:20934   */\n      swap1\n      pop\n        /* \"#utility.yul\":20863:20940   */\n      swap2\n      swap1\n      pop\n      jump\t// out\n        /* \"#utility.yul\":20946:21072   */\n    tag_720:\n        /* \"#utility.yul\":20983:20990   */\n      0x00\n        /* \"#utility.yul\":21023:21065   */\n      0xffffffffffffffffffffffffffffffffffffffff\n        /* \"#utility.yul\":21016:21021   */\n      dup3\n        /* \"#utility.yul\":21012:21066   */\n      and\n        /* \"#utility.yul\":21001:21066   */\n      swap1\n      pop\n        /* \"#utility.yul\":20946:21072   */\n      swap2\n      swap1\n      pop\n      jump\t// out\n        /* \"#utility.yul\":21078:21155   */\n    tag_637:\n        /* \"#utility.yul\":21115:21122   */\n      0x00\n        /* \"#utility.yul\":21144:21149   */\n      dup2\n        /* \"#utility.yul\":21133:21149   */\n      swap1\n      pop\n        /* \"#utility.yul\":21078:21155   */\n      swap2\n      swap1\n      pop\n      jump\t// out\n        /* \"#utility.yul\":21161:21315   */\n    tag_472:\n        /* \"#utility.yul\":21245:21251   */\n      dup3\n        /* \"#utility.yul\":21240:21243   */\n      dup2\n        /* \"#utility.yul\":21235:21238   */\n      dup4\n        /* \"#utility.yul\":21222:21252   */\n      calldatacopy\n        /* \"#utility.yul\":21307:21308   */\n      0x00\n        /* \"#utility.yul\":21298:21304   */\n      dup4\n        /* \"#utility.yul\":21293:21296   */\n      dup4\n        /* \"#utility.yul\":21289:21305   */\n      add\n        /* \"#utility.yul\":21282:21309   */\n      mstore\n        /* \"#utility.yul\":21161:21315   */\n      pop\n      pop\n      pop\n      jump\t// out\n        /* \"#utility.yul\":21321:21628   */\n    tag_583:\n        /* \"#utility.yul\":21389:21390   */\n      0x00\n        /* \"#utility.yul\":21399:21512   */\n    tag_727:\n        /* \"#utility.yul\":21413:21419   */\n      dup4\n        /* \"#utility.yul\":21410:21411   */\n      dup2\n        /* \"#utility.yul\":21407:21420   */\n      lt\n        /* \"#utility.yul\":21399:21512   */\n      iszero\n      tag_729\n      jumpi\n        /* \"#utility.yul\":21498:21499   */\n      dup1\n        /* \"#utility.yul\":21493:21496   */\n      dup3\n        /* \"#utility.yul\":21489:21500   */\n      add\n        /* \"#utility.yul\":21483:21501   */\n      mload\n        /* \"#utility.yul\":21479:21480   */\n      dup2\n        /* \"#utility.yul\":21474:21477   */\n      dup5\n        /* \"#utility.yul\":21470:21481   */\n      add\n        /* \"#utility.yul\":21463:21502   */\n      mstore\n        /* \"#utility.yul\":21435:21437   */\n      0x20\n        /* \"#utility.yul\":21432:21433   */\n      dup2\n        /* \"#utility.yul\":21428:21438   */\n      add\n        /* \"#utility.yul\":21423:21438   */\n      swap1\n      pop\n        /* \"#utility.yul\":21399:21512   */\n      jump(tag_727)\n    tag_729:\n        /* \"#utility.yul\":21530:21536   */\n      dup4\n        /* \"#utility.yul\":21527:21528   */\n      dup2\n        /* \"#utility.yul\":21524:21537   */\n      gt\n        /* \"#utility.yul\":21521:21622   */\n      iszero\n      tag_730\n      jumpi\n        /* \"#utility.yul\":21610:21611   */\n      0x00\n        /* \"#utility.yul\":21601:21607   */\n      dup5\n        /* \"#utility.yul\":21596:21599   */\n      dup5\n        /* \"#utility.yul\":21592:21608   */\n      add\n        /* \"#utility.yul\":21585:21612   */\n      mstore\n        /* \"#utility.yul\":21521:21622   */\n    tag_730:\n        /* \"#utility.yul\":21370:21628   */\n      pop\n        /* \"#utility.yul\":21321:21628   */\n      pop\n      pop\n      pop\n      jump\t// out\n        /* \"#utility.yul\":21634:21954   */\n    tag_111:\n        /* \"#utility.yul\":21678:21684   */\n      0x00\n        /* \"#utility.yul\":21715:21716   */\n      0x02\n        /* \"#utility.yul\":21709:21713   */\n      dup3\n        /* \"#utility.yul\":21705:21717   */\n      div\n        /* \"#utility.yul\":21695:21717   */\n      swap1\n      pop\n        /* \"#utility.yul\":21762:21763   */\n      0x01\n        /* \"#utility.yul\":21756:21760   */\n      dup3\n        /* \"#utility.yul\":21752:21764   */\n      and\n        /* \"#utility.yul\":21783:21801   */\n      dup1\n        /* \"#utility.yul\":21773:21854   */\n      tag_732\n      jumpi\n        /* \"#utility.yul\":21839:21843   */\n      0x7f\n        /* \"#utility.yul\":21831:21837   */\n      dup3\n        /* \"#utility.yul\":21827:21844   */\n      and\n        /* \"#utility.yul\":21817:21844   */\n      swap2\n      pop\n        /* \"#utility.yul\":21773:21854   */\n    tag_732:\n        /* \"#utility.yul\":21901:21903   */\n      0x20\n        /* \"#utility.yul\":21893:21899   */\n      dup3\n        /* \"#utility.yul\":21890:21904   */\n      lt\n        /* \"#utility.yul\":21870:21888   */\n      dup2\n        /* \"#utility.yul\":21867:21905   */\n      eq\n        /* \"#utility.yul\":21864:21948   */\n      iszero\n      tag_733\n      jumpi\n        /* \"#utility.yul\":21920:21938   */\n      tag_734\n      tag_735\n      jump\t// in\n    tag_734:\n        /* \"#utility.yul\":21864:21948   */\n    tag_733:\n        /* \"#utility.yul\":21685:21954   */\n      pop\n        /* \"#utility.yul\":21634:21954   */\n      swap2\n      swap1\n      pop\n      jump\t// out\n        /* \"#utility.yul\":21960:22241   */\n    tag_683:\n        /* \"#utility.yul\":22043:22070   */\n      tag_737\n        /* \"#utility.yul\":22065:22069   */\n      dup3\n        /* \"#utility.yul\":22043:22070   */\n      tag_585\n      jump\t// in\n    tag_737:\n        /* \"#utility.yul\":22035:22041   */\n      dup2\n        /* \"#utility.yul\":22031:22071   */\n      add\n        /* \"#utility.yul\":22173:22179   */\n      dup2\n        /* \"#utility.yul\":22161:22171   */\n      dup2\n        /* \"#utility.yul\":22158:22180   */\n      lt\n        /* \"#utility.yul\":22137:22155   */\n      0xffffffffffffffff\n        /* \"#utility.yul\":22125:22135   */\n      dup3\n        /* \"#utility.yul\":22122:22156   */\n      gt\n        /* \"#utility.yul\":22119:22181   */\n      or\n        /* \"#utility.yul\":22116:22204   */\n      iszero\n      tag_738\n      jumpi\n        /* \"#utility.yul\":22184:22202   */\n      tag_739\n      tag_413\n      jump\t// in\n    tag_739:\n        /* \"#utility.yul\":22116:22204   */\n    tag_738:\n        /* \"#utility.yul\":22224:22234   */\n      dup1\n        /* \"#utility.yul\":22220:22222   */\n      0x40\n        /* \"#utility.yul\":22213:22235   */\n      mstore\n        /* \"#utility.yul\":22003:22241   */\n      pop\n        /* \"#utility.yul\":21960:22241   */\n      pop\n      pop\n      jump\t// out\n        /* \"#utility.yul\":22247:22480   */\n    tag_367:\n        /* \"#utility.yul\":22286:22289   */\n      0x00\n        /* \"#utility.yul\":22309:22333   */\n      tag_741\n        /* \"#utility.yul\":22327:22332   */\n      dup3\n        /* \"#utility.yul\":22309:22333   */\n      tag_637\n      jump\t// in\n    tag_741:\n        /* \"#utility.yul\":22300:22333   */\n      swap2\n      pop\n        /* \"#utility.yul\":22355:22421   */\n      0xffffffffffffffffffffffffffffffffffffffffffffffffffffffffffffffff\n        /* \"#utility.yul\":22348:22353   */\n      dup3\n        /* \"#utility.yul\":22345:22422   */\n      eq\n        /* \"#utility.yul\":22342:22445   */\n      iszero\n      tag_742\n      jumpi\n        /* \"#utility.yul\":22425:22443   */\n      tag_743\n      tag_701\n      jump\t// in\n    tag_743:\n        /* \"#utility.yul\":22342:22445   */\n    tag_742:\n        /* \"#utility.yul\":22472:22473   */\n      0x01\n        /* \"#utility.yul\":22465:22470   */\n      dup3\n        /* \"#utility.yul\":22461:22474   */\n      add\n        /* \"#utility.yul\":22454:22474   */\n      swap1\n      pop\n        /* \"#utility.yul\":22247:22480   */\n      swap2\n      swap1\n      pop\n      jump\t// out\n        /* \"#utility.yul\":22486:22565   */\n    tag_645:\n        /* \"#utility.yul\":22525:22532   */\n      0x00\n        /* \"#utility.yul\":22554:22559   */\n      dup2\n        /* \"#utility.yul\":22543:22559   */\n      swap1\n      pop\n        /* \"#utility.yul\":22486:22565   */\n      swap2\n      swap1\n      pop\n      jump\t// out\n        /* \"#utility.yul\":22571:22751   */\n    tag_701:\n        /* \"#utility.yul\":22619:22696   */\n      0x4e487b7100000000000000000000000000000000000000000000000000000000\n        /* \"#utility.yul\":22616:22617   */\n      0x00\n        /* \"#utility.yul\":22609:22697   */\n      mstore\n        /* \"#utility.yul\":22716:22720   */\n      0x11\n        /* \"#utility.yul\":22713:22714   */\n      0x04\n        /* \"#utility.yul\":22706:22721   */\n      mstore\n        /* \"#utility.yul\":22740:22744   */\n      0x24\n        /* \"#utility.yul\":22737:22738   */\n      0x00\n        /* \"#utility.yul\":22730:22745   */\n      revert\n        /* \"#utility.yul\":22757:22937   */\n    tag_707:\n        /* \"#utility.yul\":22805:22882   */\n      0x4e487b7100000000000000000000000000000000000000000000000000000000\n        /* \"#utility.yul\":22802:22803   */\n      0x00\n        /* \"#utility.yul\":22795:22883   */\n      mstore\n        /* \"#utility.yul\":22902:22906   */\n      0x12\n        /* \"#utility.yul\":22899:22900   */\n      0x04\n        /* \"#utility.yul\":22892:22907   */\n      mstore\n        /* \"#utility.yul\":22926:22930   */\n      0x24\n        /* \"#utility.yul\":22923:22924   */\n      0x00\n        /* \"#utility.yul\":22916:22931   */\n      revert\n        /* \"#utility.yul\":22943:23123   */\n    tag_735:\n        /* \"#utility.yul\":22991:23068   */\n      0x4e487b7100000000000000000000000000000000000000000000000000000000\n        /* \"#utility.yul\":22988:22989   */\n      0x00\n        /* \"#utility.yul\":22981:23069   */\n      mstore\n        /* \"#utility.yul\":23088:23092   */\n      0x22\n        /* \"#utility.yul\":23085:23086   */\n      0x04\n        /* \"#utility.yul\":23078:23093   */\n      mstore\n        /* \"#utility.yul\":23112:23116   */\n      0x24\n        /* \"#utility.yul\":23109:23110   */\n      0x00\n        /* \"#utility.yul\":23102:23117   */\n      revert\n        /* \"#utility.yul\":23129:23309   */\n    tag_304:\n        /* \"#utility.yul\":23177:23254   */\n      0x4e487b7100000000000000000000000000000000000000000000000000000000\n        /* \"#utility.yul\":23174:23175   */\n      0x00\n        /* \"#utility.yul\":23167:23255   */\n      mstore\n        /* \"#utility.yul\":23274:23278   */\n      0x32\n        /* \"#utility.yul\":23271:23272   */\n      0x04\n        /* \"#utility.yul\":23264:23279   */\n      mstore\n        /* \"#utility.yul\":23298:23302   */\n      0x24\n        /* \"#utility.yul\":23295:23296   */\n      0x00\n        /* \"#utility.yul\":23288:23303   */\n      revert\n        /* \"#utility.yul\":23315:23495   */\n    tag_413:\n        /* \"#utility.yul\":23363:23440   */\n      0x4e487b7100000000000000000000000000000000000000000000000000000000\n        /* \"#utility.yul\":23360:23361   */\n      0x00\n        /* \"#utility.yul\":23353:23441   */\n      mstore\n        /* \"#utility.yul\":23460:23464   */\n      0x41\n        /* \"#utility.yul\":23457:23458   */\n      0x04\n        /* \"#utility.yul\":23450:23465   */\n      mstore\n        /* \"#utility.yul\":23484:23488   */\n      0x24\n        /* \"#utility.yul\":23481:23482   */\n      0x00\n        /* \"#utility.yul\":23474:23489   */\n      revert\n        /* \"#utility.yul\":23501:23618   */\n    tag_489:\n        /* \"#utility.yul\":23610:23611   */\n      0x00\n        /* \"#utility.yul\":23607:23608   */\n      dup1\n        /* \"#utility.yul\":23600:23612   */\n      revert\n        /* \"#utility.yul\":23624:23741   */\n    tag_470:\n        /* \"#utility.yul\":23733:23734   */\n      0x00\n        /* \"#utility.yul\":23730:23731   */\n      dup1\n        /* \"#utility.yul\":23723:23735   */\n      revert\n        /* \"#utility.yul\":23747:23864   */\n    tag_535:\n        /* \"#utility.yul\":23856:23857   */\n      0x00\n        /* \"#utility.yul\":23853:23854   */\n      dup1\n        /* \"#utility.yul\":23846:23858   */\n      revert\n        /* \"#utility.yul\":23870:23987   */\n    tag_498:\n        /* \"#utility.yul\":23979:23980   */\n      0x00\n        /* \"#utility.yul\":23976:23977   */\n      dup1\n        /* \"#utility.yul\":23969:23981   */\n      revert\n        /* \"#utility.yul\":23993:24095   */\n    tag_585:\n        /* \"#utility.yul\":24034:24040   */\n      0x00\n        /* \"#utility.yul\":24085:24087   */\n      0x1f\n        /* \"#utility.yul\":24081:24088   */\n      not\n        /* \"#utility.yul\":24076:24078   */\n      0x1f\n        /* \"#utility.yul\":24069:24074   */\n      dup4\n        /* \"#utility.yul\":24065:24079   */\n      add\n        /* \"#utility.yul\":24061:24089   */\n      and\n        /* \"#utility.yul\":24051:24089   */\n      swap1\n      pop\n        /* \"#utility.yul\":23993:24095   */\n      swap2\n      swap1\n      pop\n      jump\t// out\n        /* \"#utility.yul\":24101:24276   */\n    tag_596:\n        /* \"#utility.yul\":24241:24268   */\n      0x4f6e6c79206f776e65722063616e2063616c6c20746869732e00000000000000\n        /* \"#utility.yul\":24237:24238   */\n      0x00\n        /* \"#utility.yul\":24229:24235   */\n      dup3\n        /* \"#utility.yul\":24225:24239   */\n      add\n        /* \"#utility.yul\":24218:24269   */\n      mstore\n        /* \"#utility.yul\":24101:24276   */\n      pop\n      jump\t// out\n        /* \"#utility.yul\":24282:24441   */\n    tag_601:\n        /* \"#utility.yul\":24422:24433   */\n      0x6e6f742065786973740000000000000000000000000000000000000000000000\n        /* \"#utility.yul\":24418:24419   */\n      0x00\n        /* \"#utility.yul\":24410:24416   */\n      dup3\n        /* \"#utility.yul\":24406:24420   */\n      add\n        /* \"#utility.yul\":24399:24434   */\n      mstore\n        /* \"#utility.yul\":24282:24441   */\n      pop\n      jump\t// out\n        /* \"#utility.yul\":24447:24611   */\n    tag_606:\n        /* \"#utility.yul\":24587:24603   */\n      0x706f6f6c206e6f74206578697374000000000000000000000000000000000000\n        /* \"#utility.yul\":24583:24584   */\n      0x00\n        /* \"#utility.yul\":24575:24581   */\n      dup3\n        /* \"#utility.yul\":24571:24585   */\n      add\n        /* \"#utility.yul\":24564:24604   */\n      mstore\n        /* \"#utility.yul\":24447:24611   */\n      pop\n      jump\t// out\n        /* \"#utility.yul\":24617:24777   */\n    tag_611:\n        /* \"#utility.yul\":24757:24769   */\n      0x7061697220657869737400000000000000000000000000000000000000000000\n        /* \"#utility.yul\":24753:24754   */\n      0x00\n        /* \"#utility.yul\":24745:24751   */\n      dup3\n        /* \"#utility.yul\":24741:24755   */\n      add\n        /* \"#utility.yul\":24734:24770   */\n      mstore\n        /* \"#utility.yul\":24617:24777   */\n      pop\n      jump\t// out\n        /* \"#utility.yul\":24783:24954   */\n    tag_616:\n        /* \"#utility.yul\":24923:24946   */\n      0x706f6f6c20686173206e6f742066696e69736865640000000000000000000000\n        /* \"#utility.yul\":24919:24920   */\n      0x00\n        /* \"#utility.yul\":24911:24917   */\n      dup3\n        /* \"#utility.yul\":24907:24921   */\n      add\n        /* \"#utility.yul\":24900:24947   */\n      mstore\n        /* \"#utility.yul\":24783:24954   */\n      pop\n      jump\t// out\n        /* \"#utility.yul\":24960:25131   */\n    tag_621:\n        /* \"#utility.yul\":25100:25123   */\n      0x6e6f7420656e6f75676820766f7465416d6f756e740000000000000000000000\n        /* \"#utility.yul\":25096:25097   */\n      0x00\n        /* \"#utility.yul\":25088:25094   */\n      dup3\n        /* \"#utility.yul\":25084:25098   */\n      add\n        /* \"#utility.yul\":25077:25124   */\n      mstore\n        /* \"#utility.yul\":24960:25131   */\n      pop\n      jump\t// out\n        /* \"#utility.yul\":25137:25304   */\n    tag_626:\n        /* \"#utility.yul\":25277:25296   */\n      0x706f6f6c206861732066696e6973686564000000000000000000000000000000\n        /* \"#utility.yul\":25273:25274   */\n      0x00\n        /* \"#utility.yul\":25265:25271   */\n      dup3\n        /* \"#utility.yul\":25261:25275   */\n      add\n        /* \"#utility.yul\":25254:25297   */\n      mstore\n        /* \"#utility.yul\":25137:25304   */\n      pop\n      jump\t// out\n        /* \"#utility.yul\":25310:25432   */\n    tag_476:\n        /* \"#utility.yul\":25383:25407   */\n      tag_763\n        /* \"#utility.yul\":25401:25406   */\n      dup2\n        /* \"#utility.yul\":25383:25407   */\n      tag_551\n      jump\t// in\n    tag_763:\n        /* \"#utility.yul\":25376:25381   */\n      dup2\n        /* \"#utility.yul\":25373:25408   */\n      eq\n        /* \"#utility.yul\":25363:25426   */\n      tag_764\n      jumpi\n        /* \"#utility.yul\":25422:25423   */\n      0x00\n        /* \"#utility.yul\":25419:25420   */\n      dup1\n        /* \"#utility.yul\":25412:25424   */\n      revert\n        /* \"#utility.yul\":25363:25426   */\n    tag_764:\n        /* \"#utility.yul\":25310:25432   */\n      pop\n      jump\t// out\n        /* \"#utility.yul\":25438:25554   */\n    tag_480:\n        /* \"#utility.yul\":25508:25529   */\n      tag_766\n        /* \"#utility.yul\":25523:25528   */\n      dup2\n        /* \"#utility.yul\":25508:25529   */\n      tag_569\n      jump\t// in\n    tag_766:\n        /* \"#utility.yul\":25501:25506   */\n      dup2\n        /* \"#utility.yul\":25498:25530   */\n      eq\n        /* \"#utility.yul\":25488:25548   */\n      tag_767\n      jumpi\n        /* \"#utility.yul\":25544:25545   */\n      0x00\n        /* \"#utility.yul\":25541:25542   */\n      dup1\n        /* \"#utility.yul\":25534:25546   */\n      revert\n        /* \"#utility.yul\":25488:25548   */\n    tag_767:\n        /* \"#utility.yul\":25438:25554   */\n      pop\n      jump\t// out\n        /* \"#utility.yul\":25560:25682   */\n    tag_484:\n        /* \"#utility.yul\":25633:25657   */\n      tag_769\n        /* \"#utility.yul\":25651:25656   */\n      dup2\n        /* \"#utility.yul\":25633:25657   */\n      tag_572\n      jump\t// in\n    tag_769:\n        /* \"#utility.yul\":25626:25631   */\n      dup2\n        /* \"#utility.yul\":25623:25658   */\n      eq\n        /* \"#utility.yul\":25613:25676   */\n      tag_770\n      jumpi\n        /* \"#utility.yul\":25672:25673   */\n      0x00\n        /* \"#utility.yul\":25669:25670   */\n      dup1\n        /* \"#utility.yul\":25662:25674   */\n      revert\n        /* \"#utility.yul\":25613:25676   */\n    tag_770:\n        /* \"#utility.yul\":25560:25682   */\n      pop\n      jump\t// out\n        /* \"#utility.yul\":25688:25810   */\n    tag_494:\n        /* \"#utility.yul\":25761:25785   */\n      tag_772\n        /* \"#utility.yul\":25779:25784   */\n      dup2\n        /* \"#utility.yul\":25761:25785   */\n      tag_637\n      jump\t// in\n    tag_772:\n        /* \"#utility.yul\":25754:25759   */\n      dup2\n        /* \"#utility.yul\":25751:25786   */\n      eq\n        /* \"#utility.yul\":25741:25804   */\n      tag_773\n      jumpi\n        /* \"#utility.yul\":25800:25801   */\n      0x00\n        /* \"#utility.yul\":25797:25798   */\n      dup1\n        /* \"#utility.yul\":25790:25802   */\n      revert\n        /* \"#utility.yul\":25741:25804   */\n    tag_773:\n        /* \"#utility.yul\":25688:25810   */\n      pop\n      jump\t// out\n\n    auxdata: 0xa2646970667358221220ee4df19bc02084b9343a2e0d0a0acdc71abc16648046bf1f32356f21b86eb31c64736f6c63430008070033\n}\n",
				"bytecode": {
					"linkReferences": {},
					"object": "60806040523480156200001157600080fd5b5060405162003e8738038062003e878339818101604052810190620000379190620000bc565b816000806101000a81548173ffffffffffffffffffffffffffffffffffffffff021916908373ffffffffffffffffffffffffffffffffffffffff16021790555060006003819055508060018190555050506200017a565b6000815190506200009f8162000146565b92915050565b600081519050620000b68162000160565b92915050565b60008060408385031215620000d657620000d562000141565b5b6000620000e6858286016200008e565b9250506020620000f985828601620000a5565b9150509250929050565b6000620001108262000117565b9050919050565b600073ffffffffffffffffffffffffffffffffffffffff82169050919050565b6000819050919050565b600080fd5b620001518162000103565b81146200015d57600080fd5b50565b6200016b8162000137565b81146200017757600080fd5b50565b613cfd806200018a6000396000f3fe6080604052600436106100ab5760003560e01c806347e4dd271161006457806347e4dd271461030157806374fe9bc21461033e5780639bd0abf11461036e578063baf412691461039e578063ea8870c0146103c9578063f6c00927146103f4576101cc565b80630c66b373146101d15780630ce49053146101fc5780632775e02c1461022c578063357965ba1461025c5780633e6ff1a2146102995780634121855f146102c4576101cc565b366101cc5760008054906101000a900473ffffffffffffffffffffffffffffffffffffffff1673ffffffffffffffffffffffffffffffffffffffff163373ffffffffffffffffffffffffffffffffffffffff16146101c95761011d662386f26fc100003461043390919063ffffffff16565b600460003373ffffffffffffffffffffffffffffffffffffffff1673ffffffffffffffffffffffffffffffffffffffff168152602001908152602001600020600082825461016b91906137dd565b92505081905550346003600082825461018491906137dd565b925050819055507f88a5966d370b9919b20f3e2c13ff65706f196a4e32cc2c12bf57088f8852587433346040516101bc929190613566565b60405180910390a16101ca565b5b005b600080fd5b3480156101dd57600080fd5b506101e661045b565b6040516101f3919061370c565b60405180910390f35b6102166004803603810190610211919061302a565b6104f4565b60405161022391906135b1565b60405180910390f35b61024660048036038101906102419190612ffd565b610930565b60405161025391906135b1565b60405180910390f35b34801561026857600080fd5b50610283600480360381019061027e91906131cb565b610a25565b60405161029091906135cc565b60405180910390f35b3480156102a557600080fd5b506102ae610dab565b6040516102bb919061370c565b60405180910390f35b3480156102d057600080fd5b506102eb60048036038101906102e69190613137565b610e44565b6040516102f8919061370c565b60405180910390f35b34801561030d57600080fd5b50610328600480360381019061032391906130aa565b6111e1565b60405161033591906135b1565b60405180910390f35b61035860048036038101906103539190613164565b611a60565b60405161036591906135b1565b60405180910390f35b6103886004803603810190610383919061306a565b6124d3565b60405161039591906135b1565b60405180910390f35b3480156103aa57600080fd5b506103b36126e7565b6040516103c0919061370c565b60405180910390f35b3480156103d557600080fd5b506103de61272e565b6040516103eb919061358f565b60405180910390f35b34801561040057600080fd5b5061041b60048036038101906104169190613137565b612786565b60405161042a939291906135e7565b60405180910390f35b600080821161044157600080fd5b6000828461044f9190613833565b90508091505092915050565b60008060009054906101000a900473ffffffffffffffffffffffffffffffffffffffff1673ffffffffffffffffffffffffffffffffffffffff163373ffffffffffffffffffffffffffffffffffffffff16146104ec576040517f08c379a00000000000000000000000000000000000000000000000000000000081526004016104e39061362c565b60405180910390fd5b600354905090565b60008060009054906101000a900473ffffffffffffffffffffffffffffffffffffffff1673ffffffffffffffffffffffffffffffffffffffff163373ffffffffffffffffffffffffffffffffffffffff1614610585576040517f08c379a000000000000000000000000000000000000000000000000000000000815260040161057c9061362c565b60405180910390fd5b61058e82612ab0565b6105cd576040517f08c379a00000000000000000000000000000000000000000000000000000000081526004016105c49061366c565b60405180910390fd5b600060056000848152602001908152602001600020604051806101600160405290816000820180546105fe90613986565b80601f016020809104026020016040519081016040528092919081815260200182805461062a90613986565b80156106775780601f1061064c57610100808354040283529160200191610677565b820191906000526020600020905b81548152906001019060200180831161065a57829003601f168201915b5050505050815260200160018201805461069090613986565b80601f01602080910402602001604051908101604052809291908181526020018280546106bc90613986565b80156107095780601f106106de57610100808354040283529160200191610709565b820191906000526020600020905b8154815290600101906020018083116106ec57829003601f168201915b5050505050815260200160028201805461072290613986565b80601f016020809104026020016040519081016040528092919081815260200182805461074e90613986565b801561079b5780601f106107705761010080835404028352916020019161079b565b820191906000526020600020905b81548152906001019060200180831161077e57829003601f168201915b5050505050815260200160038201548152602001600482015481526020016005820154815260200160068201548152602001600782015481526020016008820160009054906101000a900460ff161515151581526020016008820160019054906101000a900460ff161515151581526020016008820160029054906101000a900460ff1615151515815250509050600061087f600a8360e001518460c0015185608001518660a00151876060015161085391906137dd565b61085d91906137dd565b61086791906137dd565b61087191906137dd565b61043390919063ffffffff16565b90506001826101400190151590811515815250156108e95760008590508073ffffffffffffffffffffffffffffffffffffffff166108fc839081150290604051600060405180830381858888f193505050501580156108e2573d6000803e3d6000fd5b5050610924565b6040517f08c379a000000000000000000000000000000000000000000000000000000000815260040161091b906136ac565b60405180910390fd5b50506001905092915050565b60008060009054906101000a900473ffffffffffffffffffffffffffffffffffffffff1673ffffffffffffffffffffffffffffffffffffffff163373ffffffffffffffffffffffffffffffffffffffff16146109c1576040517f08c379a00000000000000000000000000000000000000000000000000000000081526004016109b89061362c565b60405180910390fd5b60008290508073ffffffffffffffffffffffffffffffffffffffff166108fc60016003546109ef91906138be565b9081150290604051600060405180830381858888f19350505050158015610a1a573d6000803e3d6000fd5b506001915050919050565b60008060009054906101000a900473ffffffffffffffffffffffffffffffffffffffff1673ffffffffffffffffffffffffffffffffffffffff163373ffffffffffffffffffffffffffffffffffffffff1614610ab6576040517f08c379a0000000000000000000000000000000000000000000000000000000008152600401610aad9061362c565b60405180910390fd5b6000610ac28686612add565b90506000610ad08286612add565b90506060600115158515151415610b1e576040518060400160405280600481526020017f74727565000000000000000000000000000000000000000000000000000000008152509050610b57565b6040518060400160405280600581526020017f66616c736500000000000000000000000000000000000000000000000000000081525090505b6000610b638383612add565b9050600081604051602001610b789190613534565b604051602081830303815290604052805190602001209050610b9981612ab0565b15610bd9576040517f08c379a0000000000000000000000000000000000000000000000000000000008152600401610bd09061368c565b60405180910390fd5b60016005600083815260200190815260200160002060080160016101000a81548160ff02191690831515021790555089600560008381526020019081526020016000206000019080519060200190610c32929190612e12565b5088600560008381526020019081526020016000206001019080519060200190610c5d929190612e12565b5087600560008381526020019081526020016000206002019080519060200190610c88929190612e12565b506000600560008381526020019081526020016000206003018190555060006005600083815260200190815260200160002060040181905550600060056000838152602001908152602001600020600501819055506000600560008381526020019081526020016000206006018190555060006005600083815260200190815260200160002060070181905550866005600083815260200190815260200160002060080160006101000a81548160ff02191690831515021790555060006005600083815260200190815260200160002060080160026101000a81548160ff02191690831515021790555060028190806001815401808255809150506001900390600052602060002001600090919091909150558095505050505050949350505050565b60008060009054906101000a900473ffffffffffffffffffffffffffffffffffffffff1673ffffffffffffffffffffffffffffffffffffffff163373ffffffffffffffffffffffffffffffffffffffff1614610e3c576040517f08c379a0000000000000000000000000000000000000000000000000000000008152600401610e339061362c565b60405180910390fd5b600154905090565b60008060009054906101000a900473ffffffffffffffffffffffffffffffffffffffff1673ffffffffffffffffffffffffffffffffffffffff163373ffffffffffffffffffffffffffffffffffffffff1614610ed5576040517f08c379a0000000000000000000000000000000000000000000000000000000008152600401610ecc9061362c565b60405180910390fd5b610ede82612ab0565b610f1d576040517f08c379a0000000000000000000000000000000000000000000000000000000008152600401610f149061366c565b60405180910390fd5b60006005600084815260200190815260200160002060405180610160016040529081600082018054610f4e90613986565b80601f0160208091040260200160405190810160405280929190818152602001828054610f7a90613986565b8015610fc75780601f10610f9c57610100808354040283529160200191610fc7565b820191906000526020600020905b815481529060010190602001808311610faa57829003601f168201915b50505050508152602001600182018054610fe090613986565b80601f016020809104026020016040519081016040528092919081815260200182805461100c90613986565b80156110595780601f1061102e57610100808354040283529160200191611059565b820191906000526020600020905b81548152906001019060200180831161103c57829003601f168201915b5050505050815260200160028201805461107290613986565b80601f016020809104026020016040519081016040528092919081815260200182805461109e90613986565b80156110eb5780601f106110c0576101008083540402835291602001916110eb565b820191906000526020600020905b8154815290600101906020018083116110ce57829003601f168201915b5050505050815260200160038201548152602001600482015481526020016005820154815260200160068201548152602001600782015481526020016008820160009054906101000a900460ff161515151581526020016008820160019054906101000a900460ff161515151581526020016008820160029054906101000a900460ff161515151581525050905060006111d566038d7ea4c680008360e001518460c0015185608001518660a0015187606001516111a991906137dd565b6111b391906137dd565b6111bd91906137dd565b6111c791906137dd565b612c7390919063ffffffff16565b90508092505050919050565b60006111ec85612ab0565b61122b576040517f08c379a00000000000000000000000000000000000000000000000000000000081526004016112229061366c565b60405180910390fd5b85600460008973ffffffffffffffffffffffffffffffffffffffff1673ffffffffffffffffffffffffffffffffffffffff1681526020019081526020016000205410156112ad576040517f08c379a00000000000000000000000000000000000000000000000000000000081526004016112a4906136cc565b60405180910390fd5b600060056000878152602001908152602001600020604051806101600160405290816000820180546112de90613986565b80601f016020809104026020016040519081016040528092919081815260200182805461130a90613986565b80156113575780601f1061132c57610100808354040283529160200191611357565b820191906000526020600020905b81548152906001019060200180831161133a57829003601f168201915b5050505050815260200160018201805461137090613986565b80601f016020809104026020016040519081016040528092919081815260200182805461139c90613986565b80156113e95780601f106113be576101008083540402835291602001916113e9565b820191906000526020600020905b8154815290600101906020018083116113cc57829003601f168201915b5050505050815260200160028201805461140290613986565b80601f016020809104026020016040519081016040528092919081815260200182805461142e90613986565b801561147b5780601f106114505761010080835404028352916020019161147b565b820191906000526020600020905b81548152906001019060200180831161145e57829003601f168201915b5050505050815260200160038201548152602001600482015481526020016005820154815260200160068201548152602001600782015481526020016008820160009054906101000a900460ff161515151581526020016008820160019054906101000a900460ff161515151581526020016008820160029054906101000a900460ff16151515158152505090506060600061152c61152284600001518560200151612add565b8460400151612add565b905060011515836101000151151514156115a8576115a1611582826040518060400160405280600481526020017f7472756500000000000000000000000000000000000000000000000000000000815250612add565b61159c61158e8a612cb8565b6115978a612cb8565b612add565b612add565b915061160c565b6116096115ea826040518060400160405280600581526020017f66616c7365000000000000000000000000000000000000000000000000000000815250612add565b6116046115f68a612cb8565b6115ff8a612cb8565b612add565b612add565b91505b611614612e98565b898160000181815250508581602001818152505087816040018181525050868160600181815250508a816080019073ffffffffffffffffffffffffffffffffffffffff16908173ffffffffffffffffffffffffffffffffffffffff1681525050828160a0018190525060008160c001901515908115158152505088600660008b815260200190815260200160002060010181905550600660008a81526020019081526020016000206000018190806001815401808255809150506001900390600052602060002090600702016000909190919091506000820151816000015560208201518160010155604082015181600201556060820151816003015560808201518160040160006101000a81548173ffffffffffffffffffffffffffffffffffffffff021916908373ffffffffffffffffffffffffffffffffffffffff16021790555060a0820151816005019080519060200190611774929190612e12565b5060c08201518160060160006101000a81548160ff02191690831515021790555050508a600860008d73ffffffffffffffffffffffffffffffffffffffff1673ffffffffffffffffffffffffffffffffffffffff16815260200190815260200160002060010160006101000a81548173ffffffffffffffffffffffffffffffffffffffff021916908373ffffffffffffffffffffffffffffffffffffffff160217905550600860008c73ffffffffffffffffffffffffffffffffffffffff1673ffffffffffffffffffffffffffffffffffffffff1681526020019081526020016000206000018190806001815401808255809150506001900390600052602060002090600702016000909190919091506000820151816000015560208201518160010155604082015181600201556060820151816003015560808201518160040160006101000a81548173ffffffffffffffffffffffffffffffffffffffff021916908373ffffffffffffffffffffffffffffffffffffffff16021790555060a082015181600501908051906020019061190f929190612e12565b5060c08201518160060160006101000a81548160ff0219169083151502179055505050600286141561198e57898460c00181815161194d91906137dd565b91508181525050896007846040516119659190613534565b9081526020016040518091039020600082825461198291906137dd565b925050819055506119f8565b60038614156119b55789846060018181516119a991906137dd565b915081815250506119f7565b60018614156119dc5789846080018181516119d091906137dd565b915081815250506119f6565b898460a0018181516119ee91906137dd565b915081815250505b5b5b89600460008d73ffffffffffffffffffffffffffffffffffffffff1673ffffffffffffffffffffffffffffffffffffffff1681526020019081526020016000206000828254611a4791906138be565b9250508190555050505050600190509695505050505050565b60008060009054906101000a900473ffffffffffffffffffffffffffffffffffffffff1673ffffffffffffffffffffffffffffffffffffffff163373ffffffffffffffffffffffffffffffffffffffff1614611af1576040517f08c379a0000000000000000000000000000000000000000000000000000000008152600401611ae89061362c565b60405180910390fd5b611afa85612ab0565b611b39576040517f08c379a0000000000000000000000000000000000000000000000000000000008152600401611b309061366c565b60405180910390fd5b60006005600087815260200190815260200160002060405180610160016040529081600082018054611b6a90613986565b80601f0160208091040260200160405190810160405280929190818152602001828054611b9690613986565b8015611be35780601f10611bb857610100808354040283529160200191611be3565b820191906000526020600020905b815481529060010190602001808311611bc657829003601f168201915b50505050508152602001600182018054611bfc90613986565b80601f0160208091040260200160405190810160405280929190818152602001828054611c2890613986565b8015611c755780601f10611c4a57610100808354040283529160200191611c75565b820191906000526020600020905b815481529060010190602001808311611c5857829003601f168201915b50505050508152602001600282018054611c8e90613986565b80601f0160208091040260200160405190810160405280929190818152602001828054611cba90613986565b8015611d075780601f10611cdc57610100808354040283529160200191611d07565b820191906000526020600020905b815481529060010190602001808311611cea57829003601f168201915b5050505050815260200160038201548152602001600482015481526020016005820154815260200160068201548152602001600782015481526020016008820160009054906101000a900460ff161515151581526020016008820160019054906101000a900460ff161515151581526020016008820160029054906101000a900460ff1615151515815250509050600181610140019015159081151581525015611de6576040517f08c379a0000000000000000000000000000000000000000000000000000000008152600401611ddd906136ec565b60405180910390fd5b600060066000888152602001908152602001600020600001805480602002602001604051908101604052809291908181526020016000905b82821015611f7b57838290600052602060002090600702016040518060e0016040529081600082015481526020016001820154815260200160028201548152602001600382015481526020016004820160009054906101000a900473ffffffffffffffffffffffffffffffffffffffff1673ffffffffffffffffffffffffffffffffffffffff1673ffffffffffffffffffffffffffffffffffffffff168152602001600582018054611ecf90613986565b80601f0160208091040260200160405190810160405280929190818152602001828054611efb90613986565b8015611f485780601f10611f1d57610100808354040283529160200191611f48565b820191906000526020600020905b815481529060010190602001808311611f2b57829003601f168201915b505050505081526020016006820160009054906101000a900460ff16151515158152505081526020019060010190611e1e565b5050505090506000611fea6014611fa060028660e0015161043390919063ffffffff16565b85608001518660a0015187606001518860c00151611fbe91906137dd565b611fc891906137dd565b611fd291906137dd565b611fdc91906137dd565b61043390919063ffffffff16565b60016000828254611ffb91906137dd565b9250508190555060005b6001835161201391906138be565b81116124b157600083828151811061202e5761202d613ac9565b5b602002602001015160c001901515908115158152501561249e57600283828151811061205d5761205c613ac9565b5b602002602001015160200151141561222e576120bc60646120ae605561209160028960e0015161043390919063ffffffff16565b8860c001516120a091906137dd565b612c7390919063ffffffff16565b61043390919063ffffffff16565b9150878382815181106120d2576120d1613ac9565b5b6020026020010151604001511480156121085750868382815181106120fa576120f9613ac9565b5b602002602001015160600151145b15612229576000600784838151811061212457612123613ac9565b5b602002602001015160a0015160405161213d9190613534565b908152602001604051809103902054905060008185848151811061216457612163613ac9565b5b6020026020010151600001518561217b9190613864565b6121859190613833565b9050806004600087868151811061219f5761219e613ac9565b5b60200260200101516080015173ffffffffffffffffffffffffffffffffffffffff1673ffffffffffffffffffffffffffffffffffffffff16815260200190815260200160002060008282546121f491906137dd565b9250508190555060018584815181106122105761220f613ac9565b5b602002602001015160c001901515908115158152505050505b61249d565b8583828151811061224257612241613ac9565b5b602002602001015160200151141561249c576122bf60646122b1605561227660028960e0015161043390919063ffffffff16565b88608001518960a001518a6060015161228f91906137dd565b61229991906137dd565b6122a391906137dd565b612c7390919063ffffffff16565b61043390919063ffffffff16565b91506000808483815181106122d7576122d6613ac9565b5b602002602001015160200151141561231757612314606461230660558860a00151612c7390919063ffffffff16565b61043390919063ffffffff16565b90505b600184838151811061232c5761232b613ac9565b5b602002602001015160200151141561236c57612369606461235b60558860800151612c7390919063ffffffff16565b61043390919063ffffffff16565b90505b600384838151811061238157612380613ac9565b5b60200260200101516020015114156123c1576123be60646123b060558860600151612c7390919063ffffffff16565b61043390919063ffffffff16565b90505b6000818584815181106123d7576123d6613ac9565b5b602002602001015160000151856123ee9190613864565b6123f89190613833565b9050806004600087868151811061241257612411613ac9565b5b60200260200101516080015173ffffffffffffffffffffffffffffffffffffffff1673ffffffffffffffffffffffffffffffffffffffff168152602001908152602001600020600082825461246791906137dd565b92505081905550600185848151811061248357612482613ac9565b5b602002602001015160c001901515908115158152505050505b5b5b80806124a9906139e9565b915050612005565b5060018361014001901515908115158152505050505060019050949350505050565b60008060009054906101000a900473ffffffffffffffffffffffffffffffffffffffff1673ffffffffffffffffffffffffffffffffffffffff163373ffffffffffffffffffffffffffffffffffffffff1614612564576040517f08c379a000000000000000000000000000000000000000000000000000000000815260040161255b9061362c565b60405180910390fd5b81600460008573ffffffffffffffffffffffffffffffffffffffff1673ffffffffffffffffffffffffffffffffffffffff16815260200190815260200160002054101580156125f357506000600460008573ffffffffffffffffffffffffffffffffffffffff1673ffffffffffffffffffffffffffffffffffffffff1681526020019081526020016000205410155b156126a25760008390508073ffffffffffffffffffffffffffffffffffffffff166108fc612670662386f26fc10000600460008973ffffffffffffffffffffffffffffffffffffffff1673ffffffffffffffffffffffffffffffffffffffff16815260200190815260200160002054612c7390919063ffffffff16565b9081150290604051600060405180830381858888f1935050505015801561269b573d6000803e3d6000fd5b50506126dd565b6040517f08c379a00000000000000000000000000000000000000000000000000000000081526004016126d4906136cc565b60405180910390fd5b6001905092915050565b6000600460003373ffffffffffffffffffffffffffffffffffffffff1673ffffffffffffffffffffffffffffffffffffffff16815260200190815260200160002054905090565b6060600280548060200260200160405190810160405280929190818152602001828054801561277c57602002820191906000526020600020905b815481526020019060010190808311612768575b5050505050905090565b606080612791612eed565b61279a84612ab0565b6127d9576040517f08c379a00000000000000000000000000000000000000000000000000000000081526004016127d09061364c565b60405180910390fd5b60006128b86005600087815260200190815260200160002060000180546127ff90613986565b80601f016020809104026020016040519081016040528092919081815260200182805461282b90613986565b80156128785780601f1061284d57610100808354040283529160200191612878565b820191906000526020600020905b81548152906001019060200180831161285b57829003601f168201915b50505050506040518060400160405280600481526020017f2076732000000000000000000000000000000000000000000000000000000000815250612add565b9050612962816005600088815260200190815260200160002060010180546128df90613986565b80601f016020809104026020016040519081016040528092919081815260200182805461290b90613986565b80156129585780601f1061292d57610100808354040283529160200191612958565b820191906000526020600020905b81548152906001019060200180831161293b57829003601f168201915b5050505050612add565b935060006040518060a001604052806005600089815260200190815260200160002060030154815260200160056000898152602001908152602001600020600401548152602001600560008981526020019081526020016000206005015481526020016005600089815260200190815260200160002060060154815260200160056000898152602001908152602001600020600701548152509050846005600088815260200190815260200160002060020182818054612a2190613986565b80601f0160208091040260200160405190810160405280929190818152602001828054612a4d90613986565b8015612a9a5780601f10612a6f57610100808354040283529160200191612a9a565b820191906000526020600020905b815481529060010190602001808311612a7d57829003601f168201915b5050505050915094509450945050509193909250565b60006005600083815260200190815260200160002060080160019054906101000a900460ff169050919050565b606060008390506000839050600081518351612af991906137dd565b67ffffffffffffffff811115612b1257612b11613af8565b5b6040519080825280601f01601f191660200182016040528015612b445781602001600182028036833780820191505090505b50905060008190506000805b8551811015612bd857858181518110612b6c57612b6b613ac9565b5b602001015160f81c60f81b838380612b83906139e9565b945081518110612b9657612b95613ac9565b5b60200101907effffffffffffffffffffffffffffffffffffffffffffffffffffffffffffff1916908160001a9053508080612bd0906139e9565b915050612b50565b5060005b8451811015612c6457848181518110612bf857612bf7613ac9565b5b602001015160f81c60f81b838380612c0f906139e9565b945081518110612c2257612c21613ac9565b5b60200101907effffffffffffffffffffffffffffffffffffffffffffffffffffffffffffff1916908160001a9053508080612c5c906139e9565b915050612bdc565b50829550505050505092915050565b600080831415612c865760009050612cb2565b60008284612c949190613864565b9050828482612ca39190613833565b14612cad57600080fd5b809150505b92915050565b606060006040518060400160405280601081526020017f30313233343536373839616263646566000000000000000000000000000000008152509050600083604051602001612d07919061354b565b60405160208183030381529060405290506000600167ffffffffffffffff811115612d3557612d34613af8565b5b6040519080825280601f01601f191660200182016040528015612d675781602001600182028036833780820191505090505b509050600060018351612d7a91906138be565b905083600f60f81b848381518110612d9557612d94613ac9565b5b602001015160f81c60f81b1660f81c60ff1681518110612db857612db7613ac9565b5b602001015160f81c60f81b82600081518110612dd757612dd6613ac9565b5b60200101907effffffffffffffffffffffffffffffffffffffffffffffffffffffffffffff1916908160001a90535081945050505050919050565b828054612e1e90613986565b90600052602060002090601f016020900481019282612e405760008555612e87565b82601f10612e5957805160ff1916838001178555612e87565b82800160010185558215612e87579182015b82811115612e86578251825591602001919060010190612e6b565b5b509050612e949190612f1c565b5090565b6040518060e0016040528060008152602001600081526020016000815260200160008152602001600073ffffffffffffffffffffffffffffffffffffffff168152602001606081526020016000151581525090565b6040518060a0016040528060008152602001600081526020016000815260200160008152602001600081525090565b5b80821115612f35576000816000905550600101612f1d565b5090565b6000612f4c612f478461374c565b613727565b905082815260208101848484011115612f6857612f67613b2c565b5b612f73848285613944565b509392505050565b600081359050612f8a81613c6b565b92915050565b600081359050612f9f81613c82565b92915050565b600081359050612fb481613c99565b92915050565b600082601f830112612fcf57612fce613b27565b5b8135612fdf848260208601612f39565b91505092915050565b600081359050612ff781613cb0565b92915050565b60006020828403121561301357613012613b36565b5b600061302184828501612f7b565b91505092915050565b6000806040838503121561304157613040613b36565b5b600061304f85828601612f7b565b925050602061306085828601612fa5565b9150509250929050565b6000806040838503121561308157613080613b36565b5b600061308f85828601612f7b565b92505060206130a085828601612fe8565b9150509250929050565b60008060008060008060c087890312156130c7576130c6613b36565b5b60006130d589828a01612f7b565b96505060206130e689828a01612fe8565b95505060406130f789828a01612fa5565b945050606061310889828a01612fe8565b935050608061311989828a01612fe8565b92505060a061312a89828a01612fe8565b9150509295509295509295565b60006020828403121561314d5761314c613b36565b5b600061315b84828501612fa5565b91505092915050565b6000806000806080858703121561317e5761317d613b36565b5b600061318c87828801612fa5565b945050602061319d87828801612fe8565b93505060406131ae87828801612fe8565b92505060606131bf87828801612fe8565b91505092959194509250565b600080600080608085870312156131e5576131e4613b36565b5b600085013567ffffffffffffffff81111561320357613202613b31565b5b61320f87828801612fba565b945050602085013567ffffffffffffffff8111156132305761322f613b31565b5b61323c87828801612fba565b935050604085013567ffffffffffffffff81111561325d5761325c613b31565b5b61326987828801612fba565b925050606061327a87828801612f90565b91505092959194509250565b6000613292838361331a565b60208301905092915050565b6132a7816138f2565b82525050565b60006132b88261378d565b6132c281856137b0565b93506132cd8361377d565b8060005b838110156132fe5781516132e58882613286565b97506132f0836137a3565b9250506001810190506132d1565b5085935050505092915050565b61331481613904565b82525050565b61332381613910565b82525050565b61333281613910565b82525050565b600061334382613798565b61334d81856137c1565b935061335d818560208601613953565b61336681613b3b565b840191505092915050565b600061337c82613798565b61338681856137d2565b9350613396818560208601613953565b80840191505092915050565b60006133af6019836137c1565b91506133ba82613b4c565b602082019050919050565b60006133d26009836137c1565b91506133dd82613b75565b602082019050919050565b60006133f5600e836137c1565b915061340082613b9e565b602082019050919050565b6000613418600a836137c1565b915061342382613bc7565b602082019050919050565b600061343b6015836137c1565b915061344682613bf0565b602082019050919050565b600061345e6015836137c1565b915061346982613c19565b602082019050919050565b60006134816011836137c1565b915061348c82613c42565b602082019050919050565b60a0820160008201516134ad60008501826134ff565b5060208201516134c060208501826134ff565b5060408201516134d360408501826134ff565b5060608201516134e660608501826134ff565b5060808201516134f960808501826134ff565b50505050565b6135088161393a565b82525050565b6135178161393a565b82525050565b61352e6135298261393a565b613a32565b82525050565b60006135408284613371565b915081905092915050565b6000613557828461351d565b60208201915081905092915050565b600060408201905061357b600083018561329e565b613588602083018461350e565b9392505050565b600060208201905081810360008301526135a981846132ad565b905092915050565b60006020820190506135c6600083018461330b565b92915050565b60006020820190506135e16000830184613329565b92915050565b600060e08201905081810360008301526136018186613338565b905081810360208301526136158185613338565b90506136246040830184613497565b949350505050565b60006020820190508181036000830152613645816133a2565b9050919050565b60006020820190508181036000830152613665816133c5565b9050919050565b60006020820190508181036000830152613685816133e8565b9050919050565b600060208201905081810360008301526136a58161340b565b9050919050565b600060208201905081810360008301526136c58161342e565b9050919050565b600060208201905081810360008301526136e581613451565b9050919050565b6000602082019050818103600083015261370581613474565b9050919050565b6000602082019050613721600083018461350e565b92915050565b6000613731613742565b905061373d82826139b8565b919050565b6000604051905090565b600067ffffffffffffffff82111561376757613766613af8565b5b61377082613b3b565b9050602081019050919050565b6000819050602082019050919050565b600081519050919050565b600081519050919050565b6000602082019050919050565b600082825260208201905092915050565b600082825260208201905092915050565b600081905092915050565b60006137e88261393a565b91506137f38361393a565b9250827fffffffffffffffffffffffffffffffffffffffffffffffffffffffffffffffff0382111561382857613827613a3c565b5b828201905092915050565b600061383e8261393a565b91506138498361393a565b92508261385957613858613a6b565b5b828204905092915050565b600061386f8261393a565b915061387a8361393a565b9250817fffffffffffffffffffffffffffffffffffffffffffffffffffffffffffffffff04831182151516156138b3576138b2613a3c565b5b828202905092915050565b60006138c98261393a565b91506138d48361393a565b9250828210156138e7576138e6613a3c565b5b828203905092915050565b60006138fd8261391a565b9050919050565b60008115159050919050565b6000819050919050565b600073ffffffffffffffffffffffffffffffffffffffff82169050919050565b6000819050919050565b82818337600083830152505050565b60005b83811015613971578082015181840152602081019050613956565b83811115613980576000848401525b50505050565b6000600282049050600182168061399e57607f821691505b602082108114156139b2576139b1613a9a565b5b50919050565b6139c182613b3b565b810181811067ffffffffffffffff821117156139e0576139df613af8565b5b80604052505050565b60006139f48261393a565b91507fffffffffffffffffffffffffffffffffffffffffffffffffffffffffffffffff821415613a2757613a26613a3c565b5b600182019050919050565b6000819050919050565b7f4e487b7100000000000000000000000000000000000000000000000000000000600052601160045260246000fd5b7f4e487b7100000000000000000000000000000000000000000000000000000000600052601260045260246000fd5b7f4e487b7100000000000000000000000000000000000000000000000000000000600052602260045260246000fd5b7f4e487b7100000000000000000000000000000000000000000000000000000000600052603260045260246000fd5b7f4e487b7100000000000000000000000000000000000000000000000000000000600052604160045260246000fd5b600080fd5b600080fd5b600080fd5b600080fd5b6000601f19601f8301169050919050565b7f4f6e6c79206f776e65722063616e2063616c6c20746869732e00000000000000600082015250565b7f6e6f742065786973740000000000000000000000000000000000000000000000600082015250565b7f706f6f6c206e6f74206578697374000000000000000000000000000000000000600082015250565b7f7061697220657869737400000000000000000000000000000000000000000000600082015250565b7f706f6f6c20686173206e6f742066696e69736865640000000000000000000000600082015250565b7f6e6f7420656e6f75676820766f7465416d6f756e740000000000000000000000600082015250565b7f706f6f6c206861732066696e6973686564000000000000000000000000000000600082015250565b613c74816138f2565b8114613c7f57600080fd5b50565b613c8b81613904565b8114613c9657600080fd5b50565b613ca281613910565b8114613cad57600080fd5b50565b613cb98161393a565b8114613cc457600080fd5b5056fea2646970667358221220ee4df19bc02084b9343a2e0d0a0acdc71abc16648046bf1f32356f21b86eb31c64736f6c63430008070033",
					"opcodes": "PUSH1 0x80 PUSH1 0x40 MSTORE CALLVALUE DUP1 ISZERO PUSH3 0x11 JUMPI PUSH1 0x0 DUP1 REVERT JUMPDEST POP PUSH1 0x40 MLOAD PUSH3 0x3E87 CODESIZE SUB DUP1 PUSH3 0x3E87 DUP4 CODECOPY DUP2 DUP2 ADD PUSH1 0x40 MSTORE DUP2 ADD SWAP1 PUSH3 0x37 SWAP2 SWAP1 PUSH3 0xBC JUMP JUMPDEST DUP2 PUSH1 0x0 DUP1 PUSH2 0x100 EXP DUP2 SLOAD DUP2 PUSH20 0xFFFFFFFFFFFFFFFFFFFFFFFFFFFFFFFFFFFFFFFF MUL NOT AND SWAP1 DUP4 PUSH20 0xFFFFFFFFFFFFFFFFFFFFFFFFFFFFFFFFFFFFFFFF AND MUL OR SWAP1 SSTORE POP PUSH1 0x0 PUSH1 0x3 DUP2 SWAP1 SSTORE POP DUP1 PUSH1 0x1 DUP2 SWAP1 SSTORE POP POP POP PUSH3 0x17A JUMP JUMPDEST PUSH1 0x0 DUP2 MLOAD SWAP1 POP PUSH3 0x9F DUP2 PUSH3 0x146 JUMP JUMPDEST SWAP3 SWAP2 POP POP JUMP JUMPDEST PUSH1 0x0 DUP2 MLOAD SWAP1 POP PUSH3 0xB6 DUP2 PUSH3 0x160 JUMP JUMPDEST SWAP3 SWAP2 POP POP JUMP JUMPDEST PUSH1 0x0 DUP1 PUSH1 0x40 DUP4 DUP6 SUB SLT ISZERO PUSH3 0xD6 JUMPI PUSH3 0xD5 PUSH3 0x141 JUMP JUMPDEST JUMPDEST PUSH1 0x0 PUSH3 0xE6 DUP6 DUP3 DUP7 ADD PUSH3 0x8E JUMP JUMPDEST SWAP3 POP POP PUSH1 0x20 PUSH3 0xF9 DUP6 DUP3 DUP7 ADD PUSH3 0xA5 JUMP JUMPDEST SWAP2 POP POP SWAP3 POP SWAP3 SWAP1 POP JUMP JUMPDEST PUSH1 0x0 PUSH3 0x110 DUP3 PUSH3 0x117 JUMP JUMPDEST SWAP1 POP SWAP2 SWAP1 POP JUMP JUMPDEST PUSH1 0x0 PUSH20 0xFFFFFFFFFFFFFFFFFFFFFFFFFFFFFFFFFFFFFFFF DUP3 AND SWAP1 POP SWAP2 SWAP1 POP JUMP JUMPDEST PUSH1 0x0 DUP2 SWAP1 POP SWAP2 SWAP1 POP JUMP JUMPDEST PUSH1 0x0 DUP1 REVERT JUMPDEST PUSH3 0x151 DUP2 PUSH3 0x103 JUMP JUMPDEST DUP2 EQ PUSH3 0x15D JUMPI PUSH1 0x0 DUP1 REVERT JUMPDEST POP JUMP JUMPDEST PUSH3 0x16B DUP2 PUSH3 0x137 JUMP JUMPDEST DUP2 EQ PUSH3 0x177 JUMPI PUSH1 0x0 DUP1 REVERT JUMPDEST POP JUMP JUMPDEST PUSH2 0x3CFD DUP1 PUSH3 0x18A PUSH1 0x0 CODECOPY PUSH1 0x0 RETURN INVALID PUSH1 0x80 PUSH1 0x40 MSTORE PUSH1 0x4 CALLDATASIZE LT PUSH2 0xAB JUMPI PUSH1 0x0 CALLDATALOAD PUSH1 0xE0 SHR DUP1 PUSH4 0x47E4DD27 GT PUSH2 0x64 JUMPI DUP1 PUSH4 0x47E4DD27 EQ PUSH2 0x301 JUMPI DUP1 PUSH4 0x74FE9BC2 EQ PUSH2 0x33E JUMPI DUP1 PUSH4 0x9BD0ABF1 EQ PUSH2 0x36E JUMPI DUP1 PUSH4 0xBAF41269 EQ PUSH2 0x39E JUMPI DUP1 PUSH4 0xEA8870C0 EQ PUSH2 0x3C9 JUMPI DUP1 PUSH4 0xF6C00927 EQ PUSH2 0x3F4 JUMPI PUSH2 0x1CC JUMP JUMPDEST DUP1 PUSH4 0xC66B373 EQ PUSH2 0x1D1 JUMPI DUP1 PUSH4 0xCE49053 EQ PUSH2 0x1FC JUMPI DUP1 PUSH4 0x2775E02C EQ PUSH2 0x22C JUMPI DUP1 PUSH4 0x357965BA EQ PUSH2 0x25C JUMPI DUP1 PUSH4 0x3E6FF1A2 EQ PUSH2 0x299 JUMPI DUP1 PUSH4 0x4121855F EQ PUSH2 0x2C4 JUMPI PUSH2 0x1CC JUMP JUMPDEST CALLDATASIZE PUSH2 0x1CC JUMPI PUSH1 0x0 DUP1 SLOAD SWAP1 PUSH2 0x100 EXP SWAP1 DIV PUSH20 0xFFFFFFFFFFFFFFFFFFFFFFFFFFFFFFFFFFFFFFFF AND PUSH20 0xFFFFFFFFFFFFFFFFFFFFFFFFFFFFFFFFFFFFFFFF AND CALLER PUSH20 0xFFFFFFFFFFFFFFFFFFFFFFFFFFFFFFFFFFFFFFFF AND EQ PUSH2 0x1C9 JUMPI PUSH2 0x11D PUSH7 0x2386F26FC10000 CALLVALUE PUSH2 0x433 SWAP1 SWAP2 SWAP1 PUSH4 0xFFFFFFFF AND JUMP JUMPDEST PUSH1 0x4 PUSH1 0x0 CALLER PUSH20 0xFFFFFFFFFFFFFFFFFFFFFFFFFFFFFFFFFFFFFFFF AND PUSH20 0xFFFFFFFFFFFFFFFFFFFFFFFFFFFFFFFFFFFFFFFF AND DUP2 MSTORE PUSH1 0x20 ADD SWAP1 DUP2 MSTORE PUSH1 0x20 ADD PUSH1 0x0 KECCAK256 PUSH1 0x0 DUP3 DUP3 SLOAD PUSH2 0x16B SWAP2 SWAP1 PUSH2 0x37DD JUMP JUMPDEST SWAP3 POP POP DUP2 SWAP1 SSTORE POP CALLVALUE PUSH1 0x3 PUSH1 0x0 DUP3 DUP3 SLOAD PUSH2 0x184 SWAP2 SWAP1 PUSH2 0x37DD JUMP JUMPDEST SWAP3 POP POP DUP2 SWAP1 SSTORE POP PUSH32 0x88A5966D370B9919B20F3E2C13FF65706F196A4E32CC2C12BF57088F88525874 CALLER CALLVALUE PUSH1 0x40 MLOAD PUSH2 0x1BC SWAP3 SWAP2 SWAP1 PUSH2 0x3566 JUMP JUMPDEST PUSH1 0x40 MLOAD DUP1 SWAP2 SUB SWAP1 LOG1 PUSH2 0x1CA JUMP JUMPDEST JUMPDEST STOP JUMPDEST PUSH1 0x0 DUP1 REVERT JUMPDEST CALLVALUE DUP1 ISZERO PUSH2 0x1DD JUMPI PUSH1 0x0 DUP1 REVERT JUMPDEST POP PUSH2 0x1E6 PUSH2 0x45B JUMP JUMPDEST PUSH1 0x40 MLOAD PUSH2 0x1F3 SWAP2 SWAP1 PUSH2 0x370C JUMP JUMPDEST PUSH1 0x40 MLOAD DUP1 SWAP2 SUB SWAP1 RETURN JUMPDEST PUSH2 0x216 PUSH1 0x4 DUP1 CALLDATASIZE SUB DUP2 ADD SWAP1 PUSH2 0x211 SWAP2 SWAP1 PUSH2 0x302A JUMP JUMPDEST PUSH2 0x4F4 JUMP JUMPDEST PUSH1 0x40 MLOAD PUSH2 0x223 SWAP2 SWAP1 PUSH2 0x35B1 JUMP JUMPDEST PUSH1 0x40 MLOAD DUP1 SWAP2 SUB SWAP1 RETURN JUMPDEST PUSH2 0x246 PUSH1 0x4 DUP1 CALLDATASIZE SUB DUP2 ADD SWAP1 PUSH2 0x241 SWAP2 SWAP1 PUSH2 0x2FFD JUMP JUMPDEST PUSH2 0x930 JUMP JUMPDEST PUSH1 0x40 MLOAD PUSH2 0x253 SWAP2 SWAP1 PUSH2 0x35B1 JUMP JUMPDEST PUSH1 0x40 MLOAD DUP1 SWAP2 SUB SWAP1 RETURN JUMPDEST CALLVALUE DUP1 ISZERO PUSH2 0x268 JUMPI PUSH1 0x0 DUP1 REVERT JUMPDEST POP PUSH2 0x283 PUSH1 0x4 DUP1 CALLDATASIZE SUB DUP2 ADD SWAP1 PUSH2 0x27E SWAP2 SWAP1 PUSH2 0x31CB JUMP JUMPDEST PUSH2 0xA25 JUMP JUMPDEST PUSH1 0x40 MLOAD PUSH2 0x290 SWAP2 SWAP1 PUSH2 0x35CC JUMP JUMPDEST PUSH1 0x40 MLOAD DUP1 SWAP2 SUB SWAP1 RETURN JUMPDEST CALLVALUE DUP1 ISZERO PUSH2 0x2A5 JUMPI PUSH1 0x0 DUP1 REVERT JUMPDEST POP PUSH2 0x2AE PUSH2 0xDAB JUMP JUMPDEST PUSH1 0x40 MLOAD PUSH2 0x2BB SWAP2 SWAP1 PUSH2 0x370C JUMP JUMPDEST PUSH1 0x40 MLOAD DUP1 SWAP2 SUB SWAP1 RETURN JUMPDEST CALLVALUE DUP1 ISZERO PUSH2 0x2D0 JUMPI PUSH1 0x0 DUP1 REVERT JUMPDEST POP PUSH2 0x2EB PUSH1 0x4 DUP1 CALLDATASIZE SUB DUP2 ADD SWAP1 PUSH2 0x2E6 SWAP2 SWAP1 PUSH2 0x3137 JUMP JUMPDEST PUSH2 0xE44 JUMP JUMPDEST PUSH1 0x40 MLOAD PUSH2 0x2F8 SWAP2 SWAP1 PUSH2 0x370C JUMP JUMPDEST PUSH1 0x40 MLOAD DUP1 SWAP2 SUB SWAP1 RETURN JUMPDEST CALLVALUE DUP1 ISZERO PUSH2 0x30D JUMPI PUSH1 0x0 DUP1 REVERT JUMPDEST POP PUSH2 0x328 PUSH1 0x4 DUP1 CALLDATASIZE SUB DUP2 ADD SWAP1 PUSH2 0x323 SWAP2 SWAP1 PUSH2 0x30AA JUMP JUMPDEST PUSH2 0x11E1 JUMP JUMPDEST PUSH1 0x40 MLOAD PUSH2 0x335 SWAP2 SWAP1 PUSH2 0x35B1 JUMP JUMPDEST PUSH1 0x40 MLOAD DUP1 SWAP2 SUB SWAP1 RETURN JUMPDEST PUSH2 0x358 PUSH1 0x4 DUP1 CALLDATASIZE SUB DUP2 ADD SWAP1 PUSH2 0x353 SWAP2 SWAP1 PUSH2 0x3164 JUMP JUMPDEST PUSH2 0x1A60 JUMP JUMPDEST PUSH1 0x40 MLOAD PUSH2 0x365 SWAP2 SWAP1 PUSH2 0x35B1 JUMP JUMPDEST PUSH1 0x40 MLOAD DUP1 SWAP2 SUB SWAP1 RETURN JUMPDEST PUSH2 0x388 PUSH1 0x4 DUP1 CALLDATASIZE SUB DUP2 ADD SWAP1 PUSH2 0x383 SWAP2 SWAP1 PUSH2 0x306A JUMP JUMPDEST PUSH2 0x24D3 JUMP JUMPDEST PUSH1 0x40 MLOAD PUSH2 0x395 SWAP2 SWAP1 PUSH2 0x35B1 JUMP JUMPDEST PUSH1 0x40 MLOAD DUP1 SWAP2 SUB SWAP1 RETURN JUMPDEST CALLVALUE DUP1 ISZERO PUSH2 0x3AA JUMPI PUSH1 0x0 DUP1 REVERT JUMPDEST POP PUSH2 0x3B3 PUSH2 0x26E7 JUMP JUMPDEST PUSH1 0x40 MLOAD PUSH2 0x3C0 SWAP2 SWAP1 PUSH2 0x370C JUMP JUMPDEST PUSH1 0x40 MLOAD DUP1 SWAP2 SUB SWAP1 RETURN JUMPDEST CALLVALUE DUP1 ISZERO PUSH2 0x3D5 JUMPI PUSH1 0x0 DUP1 REVERT JUMPDEST POP PUSH2 0x3DE PUSH2 0x272E JUMP JUMPDEST PUSH1 0x40 MLOAD PUSH2 0x3EB SWAP2 SWAP1 PUSH2 0x358F JUMP JUMPDEST PUSH1 0x40 MLOAD DUP1 SWAP2 SUB SWAP1 RETURN JUMPDEST CALLVALUE DUP1 ISZERO PUSH2 0x400 JUMPI PUSH1 0x0 DUP1 REVERT JUMPDEST POP PUSH2 0x41B PUSH1 0x4 DUP1 CALLDATASIZE SUB DUP2 ADD SWAP1 PUSH2 0x416 SWAP2 SWAP1 PUSH2 0x3137 JUMP JUMPDEST PUSH2 0x2786 JUMP JUMPDEST PUSH1 0x40 MLOAD PUSH2 0x42A SWAP4 SWAP3 SWAP2 SWAP1 PUSH2 0x35E7 JUMP JUMPDEST PUSH1 0x40 MLOAD DUP1 SWAP2 SUB SWAP1 RETURN JUMPDEST PUSH1 0x0 DUP1 DUP3 GT PUSH2 0x441 JUMPI PUSH1 0x0 DUP1 REVERT JUMPDEST PUSH1 0x0 DUP3 DUP5 PUSH2 0x44F SWAP2 SWAP1 PUSH2 0x3833 JUMP JUMPDEST SWAP1 POP DUP1 SWAP2 POP POP SWAP3 SWAP2 POP POP JUMP JUMPDEST PUSH1 0x0 DUP1 PUSH1 0x0 SWAP1 SLOAD SWAP1 PUSH2 0x100 EXP SWAP1 DIV PUSH20 0xFFFFFFFFFFFFFFFFFFFFFFFFFFFFFFFFFFFFFFFF AND PUSH20 0xFFFFFFFFFFFFFFFFFFFFFFFFFFFFFFFFFFFFFFFF AND CALLER PUSH20 0xFFFFFFFFFFFFFFFFFFFFFFFFFFFFFFFFFFFFFFFF AND EQ PUSH2 0x4EC JUMPI PUSH1 0x40 MLOAD PUSH32 0x8C379A000000000000000000000000000000000000000000000000000000000 DUP2 MSTORE PUSH1 0x4 ADD PUSH2 0x4E3 SWAP1 PUSH2 0x362C JUMP JUMPDEST PUSH1 0x40 MLOAD DUP1 SWAP2 SUB SWAP1 REVERT JUMPDEST PUSH1 0x3 SLOAD SWAP1 POP SWAP1 JUMP JUMPDEST PUSH1 0x0 DUP1 PUSH1 0x0 SWAP1 SLOAD SWAP1 PUSH2 0x100 EXP SWAP1 DIV PUSH20 0xFFFFFFFFFFFFFFFFFFFFFFFFFFFFFFFFFFFFFFFF AND PUSH20 0xFFFFFFFFFFFFFFFFFFFFFFFFFFFFFFFFFFFFFFFF AND CALLER PUSH20 0xFFFFFFFFFFFFFFFFFFFFFFFFFFFFFFFFFFFFFFFF AND EQ PUSH2 0x585 JUMPI PUSH1 0x40 MLOAD PUSH32 0x8C379A000000000000000000000000000000000000000000000000000000000 DUP2 MSTORE PUSH1 0x4 ADD PUSH2 0x57C SWAP1 PUSH2 0x362C JUMP JUMPDEST PUSH1 0x40 MLOAD DUP1 SWAP2 SUB SWAP1 REVERT JUMPDEST PUSH2 0x58E DUP3 PUSH2 0x2AB0 JUMP JUMPDEST PUSH2 0x5CD JUMPI PUSH1 0x40 MLOAD PUSH32 0x8C379A000000000000000000000000000000000000000000000000000000000 DUP2 MSTORE PUSH1 0x4 ADD PUSH2 0x5C4 SWAP1 PUSH2 0x366C JUMP JUMPDEST PUSH1 0x40 MLOAD DUP1 SWAP2 SUB SWAP1 REVERT JUMPDEST PUSH1 0x0 PUSH1 0x5 PUSH1 0x0 DUP5 DUP2 MSTORE PUSH1 0x20 ADD SWAP1 DUP2 MSTORE PUSH1 0x20 ADD PUSH1 0x0 KECCAK256 PUSH1 0x40 MLOAD DUP1 PUSH2 0x160 ADD PUSH1 0x40 MSTORE SWAP1 DUP2 PUSH1 0x0 DUP3 ADD DUP1 SLOAD PUSH2 0x5FE SWAP1 PUSH2 0x3986 JUMP JUMPDEST DUP1 PUSH1 0x1F ADD PUSH1 0x20 DUP1 SWAP2 DIV MUL PUSH1 0x20 ADD PUSH1 0x40 MLOAD SWAP1 DUP2 ADD PUSH1 0x40 MSTORE DUP1 SWAP3 SWAP2 SWAP1 DUP2 DUP2 MSTORE PUSH1 0x20 ADD DUP3 DUP1 SLOAD PUSH2 0x62A SWAP1 PUSH2 0x3986 JUMP JUMPDEST DUP1 ISZERO PUSH2 0x677 JUMPI DUP1 PUSH1 0x1F LT PUSH2 0x64C JUMPI PUSH2 0x100 DUP1 DUP4 SLOAD DIV MUL DUP4 MSTORE SWAP2 PUSH1 0x20 ADD SWAP2 PUSH2 0x677 JUMP JUMPDEST DUP3 ADD SWAP2 SWAP1 PUSH1 0x0 MSTORE PUSH1 0x20 PUSH1 0x0 KECCAK256 SWAP1 JUMPDEST DUP2 SLOAD DUP2 MSTORE SWAP1 PUSH1 0x1 ADD SWAP1 PUSH1 0x20 ADD DUP1 DUP4 GT PUSH2 0x65A JUMPI DUP3 SWAP1 SUB PUSH1 0x1F AND DUP3 ADD SWAP2 JUMPDEST POP POP POP POP POP DUP2 MSTORE PUSH1 0x20 ADD PUSH1 0x1 DUP3 ADD DUP1 SLOAD PUSH2 0x690 SWAP1 PUSH2 0x3986 JUMP JUMPDEST DUP1 PUSH1 0x1F ADD PUSH1 0x20 DUP1 SWAP2 DIV MUL PUSH1 0x20 ADD PUSH1 0x40 MLOAD SWAP1 DUP2 ADD PUSH1 0x40 MSTORE DUP1 SWAP3 SWAP2 SWAP1 DUP2 DUP2 MSTORE PUSH1 0x20 ADD DUP3 DUP1 SLOAD PUSH2 0x6BC SWAP1 PUSH2 0x3986 JUMP JUMPDEST DUP1 ISZERO PUSH2 0x709 JUMPI DUP1 PUSH1 0x1F LT PUSH2 0x6DE JUMPI PUSH2 0x100 DUP1 DUP4 SLOAD DIV MUL DUP4 MSTORE SWAP2 PUSH1 0x20 ADD SWAP2 PUSH2 0x709 JUMP JUMPDEST DUP3 ADD SWAP2 SWAP1 PUSH1 0x0 MSTORE PUSH1 0x20 PUSH1 0x0 KECCAK256 SWAP1 JUMPDEST DUP2 SLOAD DUP2 MSTORE SWAP1 PUSH1 0x1 ADD SWAP1 PUSH1 0x20 ADD DUP1 DUP4 GT PUSH2 0x6EC JUMPI DUP3 SWAP1 SUB PUSH1 0x1F AND DUP3 ADD SWAP2 JUMPDEST POP POP POP POP POP DUP2 MSTORE PUSH1 0x20 ADD PUSH1 0x2 DUP3 ADD DUP1 SLOAD PUSH2 0x722 SWAP1 PUSH2 0x3986 JUMP JUMPDEST DUP1 PUSH1 0x1F ADD PUSH1 0x20 DUP1 SWAP2 DIV MUL PUSH1 0x20 ADD PUSH1 0x40 MLOAD SWAP1 DUP2 ADD PUSH1 0x40 MSTORE DUP1 SWAP3 SWAP2 SWAP1 DUP2 DUP2 MSTORE PUSH1 0x20 ADD DUP3 DUP1 SLOAD PUSH2 0x74E SWAP1 PUSH2 0x3986 JUMP JUMPDEST DUP1 ISZERO PUSH2 0x79B JUMPI DUP1 PUSH1 0x1F LT PUSH2 0x770 JUMPI PUSH2 0x100 DUP1 DUP4 SLOAD DIV MUL DUP4 MSTORE SWAP2 PUSH1 0x20 ADD SWAP2 PUSH2 0x79B JUMP JUMPDEST DUP3 ADD SWAP2 SWAP1 PUSH1 0x0 MSTORE PUSH1 0x20 PUSH1 0x0 KECCAK256 SWAP1 JUMPDEST DUP2 SLOAD DUP2 MSTORE SWAP1 PUSH1 0x1 ADD SWAP1 PUSH1 0x20 ADD DUP1 DUP4 GT PUSH2 0x77E JUMPI DUP3 SWAP1 SUB PUSH1 0x1F AND DUP3 ADD SWAP2 JUMPDEST POP POP POP POP POP DUP2 MSTORE PUSH1 0x20 ADD PUSH1 0x3 DUP3 ADD SLOAD DUP2 MSTORE PUSH1 0x20 ADD PUSH1 0x4 DUP3 ADD SLOAD DUP2 MSTORE PUSH1 0x20 ADD PUSH1 0x5 DUP3 ADD SLOAD DUP2 MSTORE PUSH1 0x20 ADD PUSH1 0x6 DUP3 ADD SLOAD DUP2 MSTORE PUSH1 0x20 ADD PUSH1 0x7 DUP3 ADD SLOAD DUP2 MSTORE PUSH1 0x20 ADD PUSH1 0x8 DUP3 ADD PUSH1 0x0 SWAP1 SLOAD SWAP1 PUSH2 0x100 EXP SWAP1 DIV PUSH1 0xFF AND ISZERO ISZERO ISZERO ISZERO DUP2 MSTORE PUSH1 0x20 ADD PUSH1 0x8 DUP3 ADD PUSH1 0x1 SWAP1 SLOAD SWAP1 PUSH2 0x100 EXP SWAP1 DIV PUSH1 0xFF AND ISZERO ISZERO ISZERO ISZERO DUP2 MSTORE PUSH1 0x20 ADD PUSH1 0x8 DUP3 ADD PUSH1 0x2 SWAP1 SLOAD SWAP1 PUSH2 0x100 EXP SWAP1 DIV PUSH1 0xFF AND ISZERO ISZERO ISZERO ISZERO DUP2 MSTORE POP POP SWAP1 POP PUSH1 0x0 PUSH2 0x87F PUSH1 0xA DUP4 PUSH1 0xE0 ADD MLOAD DUP5 PUSH1 0xC0 ADD MLOAD DUP6 PUSH1 0x80 ADD MLOAD DUP7 PUSH1 0xA0 ADD MLOAD DUP8 PUSH1 0x60 ADD MLOAD PUSH2 0x853 SWAP2 SWAP1 PUSH2 0x37DD JUMP JUMPDEST PUSH2 0x85D SWAP2 SWAP1 PUSH2 0x37DD JUMP JUMPDEST PUSH2 0x867 SWAP2 SWAP1 PUSH2 0x37DD JUMP JUMPDEST PUSH2 0x871 SWAP2 SWAP1 PUSH2 0x37DD JUMP JUMPDEST PUSH2 0x433 SWAP1 SWAP2 SWAP1 PUSH4 0xFFFFFFFF AND JUMP JUMPDEST SWAP1 POP PUSH1 0x1 DUP3 PUSH2 0x140 ADD SWAP1 ISZERO ISZERO SWAP1 DUP2 ISZERO ISZERO DUP2 MSTORE POP ISZERO PUSH2 0x8E9 JUMPI PUSH1 0x0 DUP6 SWAP1 POP DUP1 PUSH20 0xFFFFFFFFFFFFFFFFFFFFFFFFFFFFFFFFFFFFFFFF AND PUSH2 0x8FC DUP4 SWAP1 DUP2 ISZERO MUL SWAP1 PUSH1 0x40 MLOAD PUSH1 0x0 PUSH1 0x40 MLOAD DUP1 DUP4 SUB DUP2 DUP6 DUP9 DUP9 CALL SWAP4 POP POP POP POP ISZERO DUP1 ISZERO PUSH2 0x8E2 JUMPI RETURNDATASIZE PUSH1 0x0 DUP1 RETURNDATACOPY RETURNDATASIZE PUSH1 0x0 REVERT JUMPDEST POP POP PUSH2 0x924 JUMP JUMPDEST PUSH1 0x40 MLOAD PUSH32 0x8C379A000000000000000000000000000000000000000000000000000000000 DUP2 MSTORE PUSH1 0x4 ADD PUSH2 0x91B SWAP1 PUSH2 0x36AC JUMP JUMPDEST PUSH1 0x40 MLOAD DUP1 SWAP2 SUB SWAP1 REVERT JUMPDEST POP POP PUSH1 0x1 SWAP1 POP SWAP3 SWAP2 POP POP JUMP JUMPDEST PUSH1 0x0 DUP1 PUSH1 0x0 SWAP1 SLOAD SWAP1 PUSH2 0x100 EXP SWAP1 DIV PUSH20 0xFFFFFFFFFFFFFFFFFFFFFFFFFFFFFFFFFFFFFFFF AND PUSH20 0xFFFFFFFFFFFFFFFFFFFFFFFFFFFFFFFFFFFFFFFF AND CALLER PUSH20 0xFFFFFFFFFFFFFFFFFFFFFFFFFFFFFFFFFFFFFFFF AND EQ PUSH2 0x9C1 JUMPI PUSH1 0x40 MLOAD PUSH32 0x8C379A000000000000000000000000000000000000000000000000000000000 DUP2 MSTORE PUSH1 0x4 ADD PUSH2 0x9B8 SWAP1 PUSH2 0x362C JUMP JUMPDEST PUSH1 0x40 MLOAD DUP1 SWAP2 SUB SWAP1 REVERT JUMPDEST PUSH1 0x0 DUP3 SWAP1 POP DUP1 PUSH20 0xFFFFFFFFFFFFFFFFFFFFFFFFFFFFFFFFFFFFFFFF AND PUSH2 0x8FC PUSH1 0x1 PUSH1 0x3 SLOAD PUSH2 0x9EF SWAP2 SWAP1 PUSH2 0x38BE JUMP JUMPDEST SWAP1 DUP2 ISZERO MUL SWAP1 PUSH1 0x40 MLOAD PUSH1 0x0 PUSH1 0x40 MLOAD DUP1 DUP4 SUB DUP2 DUP6 DUP9 DUP9 CALL SWAP4 POP POP POP POP ISZERO DUP1 ISZERO PUSH2 0xA1A JUMPI RETURNDATASIZE PUSH1 0x0 DUP1 RETURNDATACOPY RETURNDATASIZE PUSH1 0x0 REVERT JUMPDEST POP PUSH1 0x1 SWAP2 POP POP SWAP2 SWAP1 POP JUMP JUMPDEST PUSH1 0x0 DUP1 PUSH1 0x0 SWAP1 SLOAD SWAP1 PUSH2 0x100 EXP SWAP1 DIV PUSH20 0xFFFFFFFFFFFFFFFFFFFFFFFFFFFFFFFFFFFFFFFF AND PUSH20 0xFFFFFFFFFFFFFFFFFFFFFFFFFFFFFFFFFFFFFFFF AND CALLER PUSH20 0xFFFFFFFFFFFFFFFFFFFFFFFFFFFFFFFFFFFFFFFF AND EQ PUSH2 0xAB6 JUMPI PUSH1 0x40 MLOAD PUSH32 0x8C379A000000000000000000000000000000000000000000000000000000000 DUP2 MSTORE PUSH1 0x4 ADD PUSH2 0xAAD SWAP1 PUSH2 0x362C JUMP JUMPDEST PUSH1 0x40 MLOAD DUP1 SWAP2 SUB SWAP1 REVERT JUMPDEST PUSH1 0x0 PUSH2 0xAC2 DUP7 DUP7 PUSH2 0x2ADD JUMP JUMPDEST SWAP1 POP PUSH1 0x0 PUSH2 0xAD0 DUP3 DUP7 PUSH2 0x2ADD JUMP JUMPDEST SWAP1 POP PUSH1 0x60 PUSH1 0x1 ISZERO ISZERO DUP6 ISZERO ISZERO EQ ISZERO PUSH2 0xB1E JUMPI PUSH1 0x40 MLOAD DUP1 PUSH1 0x40 ADD PUSH1 0x40 MSTORE DUP1 PUSH1 0x4 DUP2 MSTORE PUSH1 0x20 ADD PUSH32 0x7472756500000000000000000000000000000000000000000000000000000000 DUP2 MSTORE POP SWAP1 POP PUSH2 0xB57 JUMP JUMPDEST PUSH1 0x40 MLOAD DUP1 PUSH1 0x40 ADD PUSH1 0x40 MSTORE DUP1 PUSH1 0x5 DUP2 MSTORE PUSH1 0x20 ADD PUSH32 0x66616C7365000000000000000000000000000000000000000000000000000000 DUP2 MSTORE POP SWAP1 POP JUMPDEST PUSH1 0x0 PUSH2 0xB63 DUP4 DUP4 PUSH2 0x2ADD JUMP JUMPDEST SWAP1 POP PUSH1 0x0 DUP2 PUSH1 0x40 MLOAD PUSH1 0x20 ADD PUSH2 0xB78 SWAP2 SWAP1 PUSH2 0x3534 JUMP JUMPDEST PUSH1 0x40 MLOAD PUSH1 0x20 DUP2 DUP4 SUB SUB DUP2 MSTORE SWAP1 PUSH1 0x40 MSTORE DUP1 MLOAD SWAP1 PUSH1 0x20 ADD KECCAK256 SWAP1 POP PUSH2 0xB99 DUP2 PUSH2 0x2AB0 JUMP JUMPDEST ISZERO PUSH2 0xBD9 JUMPI PUSH1 0x40 MLOAD PUSH32 0x8C379A000000000000000000000000000000000000000000000000000000000 DUP2 MSTORE PUSH1 0x4 ADD PUSH2 0xBD0 SWAP1 PUSH2 0x368C JUMP JUMPDEST PUSH1 0x40 MLOAD DUP1 SWAP2 SUB SWAP1 REVERT JUMPDEST PUSH1 0x1 PUSH1 0x5 PUSH1 0x0 DUP4 DUP2 MSTORE PUSH1 0x20 ADD SWAP1 DUP2 MSTORE PUSH1 0x20 ADD PUSH1 0x0 KECCAK256 PUSH1 0x8 ADD PUSH1 0x1 PUSH2 0x100 EXP DUP2 SLOAD DUP2 PUSH1 0xFF MUL NOT AND SWAP1 DUP4 ISZERO ISZERO MUL OR SWAP1 SSTORE POP DUP10 PUSH1 0x5 PUSH1 0x0 DUP4 DUP2 MSTORE PUSH1 0x20 ADD SWAP1 DUP2 MSTORE PUSH1 0x20 ADD PUSH1 0x0 KECCAK256 PUSH1 0x0 ADD SWAP1 DUP1 MLOAD SWAP1 PUSH1 0x20 ADD SWAP1 PUSH2 0xC32 SWAP3 SWAP2 SWAP1 PUSH2 0x2E12 JUMP JUMPDEST POP DUP9 PUSH1 0x5 PUSH1 0x0 DUP4 DUP2 MSTORE PUSH1 0x20 ADD SWAP1 DUP2 MSTORE PUSH1 0x20 ADD PUSH1 0x0 KECCAK256 PUSH1 0x1 ADD SWAP1 DUP1 MLOAD SWAP1 PUSH1 0x20 ADD SWAP1 PUSH2 0xC5D SWAP3 SWAP2 SWAP1 PUSH2 0x2E12 JUMP JUMPDEST POP DUP8 PUSH1 0x5 PUSH1 0x0 DUP4 DUP2 MSTORE PUSH1 0x20 ADD SWAP1 DUP2 MSTORE PUSH1 0x20 ADD PUSH1 0x0 KECCAK256 PUSH1 0x2 ADD SWAP1 DUP1 MLOAD SWAP1 PUSH1 0x20 ADD SWAP1 PUSH2 0xC88 SWAP3 SWAP2 SWAP1 PUSH2 0x2E12 JUMP JUMPDEST POP PUSH1 0x0 PUSH1 0x5 PUSH1 0x0 DUP4 DUP2 MSTORE PUSH1 0x20 ADD SWAP1 DUP2 MSTORE PUSH1 0x20 ADD PUSH1 0x0 KECCAK256 PUSH1 0x3 ADD DUP2 SWAP1 SSTORE POP PUSH1 0x0 PUSH1 0x5 PUSH1 0x0 DUP4 DUP2 MSTORE PUSH1 0x20 ADD SWAP1 DUP2 MSTORE PUSH1 0x20 ADD PUSH1 0x0 KECCAK256 PUSH1 0x4 ADD DUP2 SWAP1 SSTORE POP PUSH1 0x0 PUSH1 0x5 PUSH1 0x0 DUP4 DUP2 MSTORE PUSH1 0x20 ADD SWAP1 DUP2 MSTORE PUSH1 0x20 ADD PUSH1 0x0 KECCAK256 PUSH1 0x5 ADD DUP2 SWAP1 SSTORE POP PUSH1 0x0 PUSH1 0x5 PUSH1 0x0 DUP4 DUP2 MSTORE PUSH1 0x20 ADD SWAP1 DUP2 MSTORE PUSH1 0x20 ADD PUSH1 0x0 KECCAK256 PUSH1 0x6 ADD DUP2 SWAP1 SSTORE POP PUSH1 0x0 PUSH1 0x5 PUSH1 0x0 DUP4 DUP2 MSTORE PUSH1 0x20 ADD SWAP1 DUP2 MSTORE PUSH1 0x20 ADD PUSH1 0x0 KECCAK256 PUSH1 0x7 ADD DUP2 SWAP1 SSTORE POP DUP7 PUSH1 0x5 PUSH1 0x0 DUP4 DUP2 MSTORE PUSH1 0x20 ADD SWAP1 DUP2 MSTORE PUSH1 0x20 ADD PUSH1 0x0 KECCAK256 PUSH1 0x8 ADD PUSH1 0x0 PUSH2 0x100 EXP DUP2 SLOAD DUP2 PUSH1 0xFF MUL NOT AND SWAP1 DUP4 ISZERO ISZERO MUL OR SWAP1 SSTORE POP PUSH1 0x0 PUSH1 0x5 PUSH1 0x0 DUP4 DUP2 MSTORE PUSH1 0x20 ADD SWAP1 DUP2 MSTORE PUSH1 0x20 ADD PUSH1 0x0 KECCAK256 PUSH1 0x8 ADD PUSH1 0x2 PUSH2 0x100 EXP DUP2 SLOAD DUP2 PUSH1 0xFF MUL NOT AND SWAP1 DUP4 ISZERO ISZERO MUL OR SWAP1 SSTORE POP PUSH1 0x2 DUP2 SWAP1 DUP1 PUSH1 0x1 DUP2 SLOAD ADD DUP1 DUP3 SSTORE DUP1 SWAP2 POP POP PUSH1 0x1 SWAP1 SUB SWAP1 PUSH1 0x0 MSTORE PUSH1 0x20 PUSH1 0x0 KECCAK256 ADD PUSH1 0x0 SWAP1 SWAP2 SWAP1 SWAP2 SWAP1 SWAP2 POP SSTORE DUP1 SWAP6 POP POP POP POP POP POP SWAP5 SWAP4 POP POP POP POP JUMP JUMPDEST PUSH1 0x0 DUP1 PUSH1 0x0 SWAP1 SLOAD SWAP1 PUSH2 0x100 EXP SWAP1 DIV PUSH20 0xFFFFFFFFFFFFFFFFFFFFFFFFFFFFFFFFFFFFFFFF AND PUSH20 0xFFFFFFFFFFFFFFFFFFFFFFFFFFFFFFFFFFFFFFFF AND CALLER PUSH20 0xFFFFFFFFFFFFFFFFFFFFFFFFFFFFFFFFFFFFFFFF AND EQ PUSH2 0xE3C JUMPI PUSH1 0x40 MLOAD PUSH32 0x8C379A000000000000000000000000000000000000000000000000000000000 DUP2 MSTORE PUSH1 0x4 ADD PUSH2 0xE33 SWAP1 PUSH2 0x362C JUMP JUMPDEST PUSH1 0x40 MLOAD DUP1 SWAP2 SUB SWAP1 REVERT JUMPDEST PUSH1 0x1 SLOAD SWAP1 POP SWAP1 JUMP JUMPDEST PUSH1 0x0 DUP1 PUSH1 0x0 SWAP1 SLOAD SWAP1 PUSH2 0x100 EXP SWAP1 DIV PUSH20 0xFFFFFFFFFFFFFFFFFFFFFFFFFFFFFFFFFFFFFFFF AND PUSH20 0xFFFFFFFFFFFFFFFFFFFFFFFFFFFFFFFFFFFFFFFF AND CALLER PUSH20 0xFFFFFFFFFFFFFFFFFFFFFFFFFFFFFFFFFFFFFFFF AND EQ PUSH2 0xED5 JUMPI PUSH1 0x40 MLOAD PUSH32 0x8C379A000000000000000000000000000000000000000000000000000000000 DUP2 MSTORE PUSH1 0x4 ADD PUSH2 0xECC SWAP1 PUSH2 0x362C JUMP JUMPDEST PUSH1 0x40 MLOAD DUP1 SWAP2 SUB SWAP1 REVERT JUMPDEST PUSH2 0xEDE DUP3 PUSH2 0x2AB0 JUMP JUMPDEST PUSH2 0xF1D JUMPI PUSH1 0x40 MLOAD PUSH32 0x8C379A000000000000000000000000000000000000000000000000000000000 DUP2 MSTORE PUSH1 0x4 ADD PUSH2 0xF14 SWAP1 PUSH2 0x366C JUMP JUMPDEST PUSH1 0x40 MLOAD DUP1 SWAP2 SUB SWAP1 REVERT JUMPDEST PUSH1 0x0 PUSH1 0x5 PUSH1 0x0 DUP5 DUP2 MSTORE PUSH1 0x20 ADD SWAP1 DUP2 MSTORE PUSH1 0x20 ADD PUSH1 0x0 KECCAK256 PUSH1 0x40 MLOAD DUP1 PUSH2 0x160 ADD PUSH1 0x40 MSTORE SWAP1 DUP2 PUSH1 0x0 DUP3 ADD DUP1 SLOAD PUSH2 0xF4E SWAP1 PUSH2 0x3986 JUMP JUMPDEST DUP1 PUSH1 0x1F ADD PUSH1 0x20 DUP1 SWAP2 DIV MUL PUSH1 0x20 ADD PUSH1 0x40 MLOAD SWAP1 DUP2 ADD PUSH1 0x40 MSTORE DUP1 SWAP3 SWAP2 SWAP1 DUP2 DUP2 MSTORE PUSH1 0x20 ADD DUP3 DUP1 SLOAD PUSH2 0xF7A SWAP1 PUSH2 0x3986 JUMP JUMPDEST DUP1 ISZERO PUSH2 0xFC7 JUMPI DUP1 PUSH1 0x1F LT PUSH2 0xF9C JUMPI PUSH2 0x100 DUP1 DUP4 SLOAD DIV MUL DUP4 MSTORE SWAP2 PUSH1 0x20 ADD SWAP2 PUSH2 0xFC7 JUMP JUMPDEST DUP3 ADD SWAP2 SWAP1 PUSH1 0x0 MSTORE PUSH1 0x20 PUSH1 0x0 KECCAK256 SWAP1 JUMPDEST DUP2 SLOAD DUP2 MSTORE SWAP1 PUSH1 0x1 ADD SWAP1 PUSH1 0x20 ADD DUP1 DUP4 GT PUSH2 0xFAA JUMPI DUP3 SWAP1 SUB PUSH1 0x1F AND DUP3 ADD SWAP2 JUMPDEST POP POP POP POP POP DUP2 MSTORE PUSH1 0x20 ADD PUSH1 0x1 DUP3 ADD DUP1 SLOAD PUSH2 0xFE0 SWAP1 PUSH2 0x3986 JUMP JUMPDEST DUP1 PUSH1 0x1F ADD PUSH1 0x20 DUP1 SWAP2 DIV MUL PUSH1 0x20 ADD PUSH1 0x40 MLOAD SWAP1 DUP2 ADD PUSH1 0x40 MSTORE DUP1 SWAP3 SWAP2 SWAP1 DUP2 DUP2 MSTORE PUSH1 0x20 ADD DUP3 DUP1 SLOAD PUSH2 0x100C SWAP1 PUSH2 0x3986 JUMP JUMPDEST DUP1 ISZERO PUSH2 0x1059 JUMPI DUP1 PUSH1 0x1F LT PUSH2 0x102E JUMPI PUSH2 0x100 DUP1 DUP4 SLOAD DIV MUL DUP4 MSTORE SWAP2 PUSH1 0x20 ADD SWAP2 PUSH2 0x1059 JUMP JUMPDEST DUP3 ADD SWAP2 SWAP1 PUSH1 0x0 MSTORE PUSH1 0x20 PUSH1 0x0 KECCAK256 SWAP1 JUMPDEST DUP2 SLOAD DUP2 MSTORE SWAP1 PUSH1 0x1 ADD SWAP1 PUSH1 0x20 ADD DUP1 DUP4 GT PUSH2 0x103C JUMPI DUP3 SWAP1 SUB PUSH1 0x1F AND DUP3 ADD SWAP2 JUMPDEST POP POP POP POP POP DUP2 MSTORE PUSH1 0x20 ADD PUSH1 0x2 DUP3 ADD DUP1 SLOAD PUSH2 0x1072 SWAP1 PUSH2 0x3986 JUMP JUMPDEST DUP1 PUSH1 0x1F ADD PUSH1 0x20 DUP1 SWAP2 DIV MUL PUSH1 0x20 ADD PUSH1 0x40 MLOAD SWAP1 DUP2 ADD PUSH1 0x40 MSTORE DUP1 SWAP3 SWAP2 SWAP1 DUP2 DUP2 MSTORE PUSH1 0x20 ADD DUP3 DUP1 SLOAD PUSH2 0x109E SWAP1 PUSH2 0x3986 JUMP JUMPDEST DUP1 ISZERO PUSH2 0x10EB JUMPI DUP1 PUSH1 0x1F LT PUSH2 0x10C0 JUMPI PUSH2 0x100 DUP1 DUP4 SLOAD DIV MUL DUP4 MSTORE SWAP2 PUSH1 0x20 ADD SWAP2 PUSH2 0x10EB JUMP JUMPDEST DUP3 ADD SWAP2 SWAP1 PUSH1 0x0 MSTORE PUSH1 0x20 PUSH1 0x0 KECCAK256 SWAP1 JUMPDEST DUP2 SLOAD DUP2 MSTORE SWAP1 PUSH1 0x1 ADD SWAP1 PUSH1 0x20 ADD DUP1 DUP4 GT PUSH2 0x10CE JUMPI DUP3 SWAP1 SUB PUSH1 0x1F AND DUP3 ADD SWAP2 JUMPDEST POP POP POP POP POP DUP2 MSTORE PUSH1 0x20 ADD PUSH1 0x3 DUP3 ADD SLOAD DUP2 MSTORE PUSH1 0x20 ADD PUSH1 0x4 DUP3 ADD SLOAD DUP2 MSTORE PUSH1 0x20 ADD PUSH1 0x5 DUP3 ADD SLOAD DUP2 MSTORE PUSH1 0x20 ADD PUSH1 0x6 DUP3 ADD SLOAD DUP2 MSTORE PUSH1 0x20 ADD PUSH1 0x7 DUP3 ADD SLOAD DUP2 MSTORE PUSH1 0x20 ADD PUSH1 0x8 DUP3 ADD PUSH1 0x0 SWAP1 SLOAD SWAP1 PUSH2 0x100 EXP SWAP1 DIV PUSH1 0xFF AND ISZERO ISZERO ISZERO ISZERO DUP2 MSTORE PUSH1 0x20 ADD PUSH1 0x8 DUP3 ADD PUSH1 0x1 SWAP1 SLOAD SWAP1 PUSH2 0x100 EXP SWAP1 DIV PUSH1 0xFF AND ISZERO ISZERO ISZERO ISZERO DUP2 MSTORE PUSH1 0x20 ADD PUSH1 0x8 DUP3 ADD PUSH1 0x2 SWAP1 SLOAD SWAP1 PUSH2 0x100 EXP SWAP1 DIV PUSH1 0xFF AND ISZERO ISZERO ISZERO ISZERO DUP2 MSTORE POP POP SWAP1 POP PUSH1 0x0 PUSH2 0x11D5 PUSH7 0x38D7EA4C68000 DUP4 PUSH1 0xE0 ADD MLOAD DUP5 PUSH1 0xC0 ADD MLOAD DUP6 PUSH1 0x80 ADD MLOAD DUP7 PUSH1 0xA0 ADD MLOAD DUP8 PUSH1 0x60 ADD MLOAD PUSH2 0x11A9 SWAP2 SWAP1 PUSH2 0x37DD JUMP JUMPDEST PUSH2 0x11B3 SWAP2 SWAP1 PUSH2 0x37DD JUMP JUMPDEST PUSH2 0x11BD SWAP2 SWAP1 PUSH2 0x37DD JUMP JUMPDEST PUSH2 0x11C7 SWAP2 SWAP1 PUSH2 0x37DD JUMP JUMPDEST PUSH2 0x2C73 SWAP1 SWAP2 SWAP1 PUSH4 0xFFFFFFFF AND JUMP JUMPDEST SWAP1 POP DUP1 SWAP3 POP POP POP SWAP2 SWAP1 POP JUMP JUMPDEST PUSH1 0x0 PUSH2 0x11EC DUP6 PUSH2 0x2AB0 JUMP JUMPDEST PUSH2 0x122B JUMPI PUSH1 0x40 MLOAD PUSH32 0x8C379A000000000000000000000000000000000000000000000000000000000 DUP2 MSTORE PUSH1 0x4 ADD PUSH2 0x1222 SWAP1 PUSH2 0x366C JUMP JUMPDEST PUSH1 0x40 MLOAD DUP1 SWAP2 SUB SWAP1 REVERT JUMPDEST DUP6 PUSH1 0x4 PUSH1 0x0 DUP10 PUSH20 0xFFFFFFFFFFFFFFFFFFFFFFFFFFFFFFFFFFFFFFFF AND PUSH20 0xFFFFFFFFFFFFFFFFFFFFFFFFFFFFFFFFFFFFFFFF AND DUP2 MSTORE PUSH1 0x20 ADD SWAP1 DUP2 MSTORE PUSH1 0x20 ADD PUSH1 0x0 KECCAK256 SLOAD LT ISZERO PUSH2 0x12AD JUMPI PUSH1 0x40 MLOAD PUSH32 0x8C379A000000000000000000000000000000000000000000000000000000000 DUP2 MSTORE PUSH1 0x4 ADD PUSH2 0x12A4 SWAP1 PUSH2 0x36CC JUMP JUMPDEST PUSH1 0x40 MLOAD DUP1 SWAP2 SUB SWAP1 REVERT JUMPDEST PUSH1 0x0 PUSH1 0x5 PUSH1 0x0 DUP8 DUP2 MSTORE PUSH1 0x20 ADD SWAP1 DUP2 MSTORE PUSH1 0x20 ADD PUSH1 0x0 KECCAK256 PUSH1 0x40 MLOAD DUP1 PUSH2 0x160 ADD PUSH1 0x40 MSTORE SWAP1 DUP2 PUSH1 0x0 DUP3 ADD DUP1 SLOAD PUSH2 0x12DE SWAP1 PUSH2 0x3986 JUMP JUMPDEST DUP1 PUSH1 0x1F ADD PUSH1 0x20 DUP1 SWAP2 DIV MUL PUSH1 0x20 ADD PUSH1 0x40 MLOAD SWAP1 DUP2 ADD PUSH1 0x40 MSTORE DUP1 SWAP3 SWAP2 SWAP1 DUP2 DUP2 MSTORE PUSH1 0x20 ADD DUP3 DUP1 SLOAD PUSH2 0x130A SWAP1 PUSH2 0x3986 JUMP JUMPDEST DUP1 ISZERO PUSH2 0x1357 JUMPI DUP1 PUSH1 0x1F LT PUSH2 0x132C JUMPI PUSH2 0x100 DUP1 DUP4 SLOAD DIV MUL DUP4 MSTORE SWAP2 PUSH1 0x20 ADD SWAP2 PUSH2 0x1357 JUMP JUMPDEST DUP3 ADD SWAP2 SWAP1 PUSH1 0x0 MSTORE PUSH1 0x20 PUSH1 0x0 KECCAK256 SWAP1 JUMPDEST DUP2 SLOAD DUP2 MSTORE SWAP1 PUSH1 0x1 ADD SWAP1 PUSH1 0x20 ADD DUP1 DUP4 GT PUSH2 0x133A JUMPI DUP3 SWAP1 SUB PUSH1 0x1F AND DUP3 ADD SWAP2 JUMPDEST POP POP POP POP POP DUP2 MSTORE PUSH1 0x20 ADD PUSH1 0x1 DUP3 ADD DUP1 SLOAD PUSH2 0x1370 SWAP1 PUSH2 0x3986 JUMP JUMPDEST DUP1 PUSH1 0x1F ADD PUSH1 0x20 DUP1 SWAP2 DIV MUL PUSH1 0x20 ADD PUSH1 0x40 MLOAD SWAP1 DUP2 ADD PUSH1 0x40 MSTORE DUP1 SWAP3 SWAP2 SWAP1 DUP2 DUP2 MSTORE PUSH1 0x20 ADD DUP3 DUP1 SLOAD PUSH2 0x139C SWAP1 PUSH2 0x3986 JUMP JUMPDEST DUP1 ISZERO PUSH2 0x13E9 JUMPI DUP1 PUSH1 0x1F LT PUSH2 0x13BE JUMPI PUSH2 0x100 DUP1 DUP4 SLOAD DIV MUL DUP4 MSTORE SWAP2 PUSH1 0x20 ADD SWAP2 PUSH2 0x13E9 JUMP JUMPDEST DUP3 ADD SWAP2 SWAP1 PUSH1 0x0 MSTORE PUSH1 0x20 PUSH1 0x0 KECCAK256 SWAP1 JUMPDEST DUP2 SLOAD DUP2 MSTORE SWAP1 PUSH1 0x1 ADD SWAP1 PUSH1 0x20 ADD DUP1 DUP4 GT PUSH2 0x13CC JUMPI DUP3 SWAP1 SUB PUSH1 0x1F AND DUP3 ADD SWAP2 JUMPDEST POP POP POP POP POP DUP2 MSTORE PUSH1 0x20 ADD PUSH1 0x2 DUP3 ADD DUP1 SLOAD PUSH2 0x1402 SWAP1 PUSH2 0x3986 JUMP JUMPDEST DUP1 PUSH1 0x1F ADD PUSH1 0x20 DUP1 SWAP2 DIV MUL PUSH1 0x20 ADD PUSH1 0x40 MLOAD SWAP1 DUP2 ADD PUSH1 0x40 MSTORE DUP1 SWAP3 SWAP2 SWAP1 DUP2 DUP2 MSTORE PUSH1 0x20 ADD DUP3 DUP1 SLOAD PUSH2 0x142E SWAP1 PUSH2 0x3986 JUMP JUMPDEST DUP1 ISZERO PUSH2 0x147B JUMPI DUP1 PUSH1 0x1F LT PUSH2 0x1450 JUMPI PUSH2 0x100 DUP1 DUP4 SLOAD DIV MUL DUP4 MSTORE SWAP2 PUSH1 0x20 ADD SWAP2 PUSH2 0x147B JUMP JUMPDEST DUP3 ADD SWAP2 SWAP1 PUSH1 0x0 MSTORE PUSH1 0x20 PUSH1 0x0 KECCAK256 SWAP1 JUMPDEST DUP2 SLOAD DUP2 MSTORE SWAP1 PUSH1 0x1 ADD SWAP1 PUSH1 0x20 ADD DUP1 DUP4 GT PUSH2 0x145E JUMPI DUP3 SWAP1 SUB PUSH1 0x1F AND DUP3 ADD SWAP2 JUMPDEST POP POP POP POP POP DUP2 MSTORE PUSH1 0x20 ADD PUSH1 0x3 DUP3 ADD SLOAD DUP2 MSTORE PUSH1 0x20 ADD PUSH1 0x4 DUP3 ADD SLOAD DUP2 MSTORE PUSH1 0x20 ADD PUSH1 0x5 DUP3 ADD SLOAD DUP2 MSTORE PUSH1 0x20 ADD PUSH1 0x6 DUP3 ADD SLOAD DUP2 MSTORE PUSH1 0x20 ADD PUSH1 0x7 DUP3 ADD SLOAD DUP2 MSTORE PUSH1 0x20 ADD PUSH1 0x8 DUP3 ADD PUSH1 0x0 SWAP1 SLOAD SWAP1 PUSH2 0x100 EXP SWAP1 DIV PUSH1 0xFF AND ISZERO ISZERO ISZERO ISZERO DUP2 MSTORE PUSH1 0x20 ADD PUSH1 0x8 DUP3 ADD PUSH1 0x1 SWAP1 SLOAD SWAP1 PUSH2 0x100 EXP SWAP1 DIV PUSH1 0xFF AND ISZERO ISZERO ISZERO ISZERO DUP2 MSTORE PUSH1 0x20 ADD PUSH1 0x8 DUP3 ADD PUSH1 0x2 SWAP1 SLOAD SWAP1 PUSH2 0x100 EXP SWAP1 DIV PUSH1 0xFF AND ISZERO ISZERO ISZERO ISZERO DUP2 MSTORE POP POP SWAP1 POP PUSH1 0x60 PUSH1 0x0 PUSH2 0x152C PUSH2 0x1522 DUP5 PUSH1 0x0 ADD MLOAD DUP6 PUSH1 0x20 ADD MLOAD PUSH2 0x2ADD JUMP JUMPDEST DUP5 PUSH1 0x40 ADD MLOAD PUSH2 0x2ADD JUMP JUMPDEST SWAP1 POP PUSH1 0x1 ISZERO ISZERO DUP4 PUSH2 0x100 ADD MLOAD ISZERO ISZERO EQ ISZERO PUSH2 0x15A8 JUMPI PUSH2 0x15A1 PUSH2 0x1582 DUP3 PUSH1 0x40 MLOAD DUP1 PUSH1 0x40 ADD PUSH1 0x40 MSTORE DUP1 PUSH1 0x4 DUP2 MSTORE PUSH1 0x20 ADD PUSH32 0x7472756500000000000000000000000000000000000000000000000000000000 DUP2 MSTORE POP PUSH2 0x2ADD JUMP JUMPDEST PUSH2 0x159C PUSH2 0x158E DUP11 PUSH2 0x2CB8 JUMP JUMPDEST PUSH2 0x1597 DUP11 PUSH2 0x2CB8 JUMP JUMPDEST PUSH2 0x2ADD JUMP JUMPDEST PUSH2 0x2ADD JUMP JUMPDEST SWAP2 POP PUSH2 0x160C JUMP JUMPDEST PUSH2 0x1609 PUSH2 0x15EA DUP3 PUSH1 0x40 MLOAD DUP1 PUSH1 0x40 ADD PUSH1 0x40 MSTORE DUP1 PUSH1 0x5 DUP2 MSTORE PUSH1 0x20 ADD PUSH32 0x66616C7365000000000000000000000000000000000000000000000000000000 DUP2 MSTORE POP PUSH2 0x2ADD JUMP JUMPDEST PUSH2 0x1604 PUSH2 0x15F6 DUP11 PUSH2 0x2CB8 JUMP JUMPDEST PUSH2 0x15FF DUP11 PUSH2 0x2CB8 JUMP JUMPDEST PUSH2 0x2ADD JUMP JUMPDEST PUSH2 0x2ADD JUMP JUMPDEST SWAP2 POP JUMPDEST PUSH2 0x1614 PUSH2 0x2E98 JUMP JUMPDEST DUP10 DUP2 PUSH1 0x0 ADD DUP2 DUP2 MSTORE POP POP DUP6 DUP2 PUSH1 0x20 ADD DUP2 DUP2 MSTORE POP POP DUP8 DUP2 PUSH1 0x40 ADD DUP2 DUP2 MSTORE POP POP DUP7 DUP2 PUSH1 0x60 ADD DUP2 DUP2 MSTORE POP POP DUP11 DUP2 PUSH1 0x80 ADD SWAP1 PUSH20 0xFFFFFFFFFFFFFFFFFFFFFFFFFFFFFFFFFFFFFFFF AND SWAP1 DUP2 PUSH20 0xFFFFFFFFFFFFFFFFFFFFFFFFFFFFFFFFFFFFFFFF AND DUP2 MSTORE POP POP DUP3 DUP2 PUSH1 0xA0 ADD DUP2 SWAP1 MSTORE POP PUSH1 0x0 DUP2 PUSH1 0xC0 ADD SWAP1 ISZERO ISZERO SWAP1 DUP2 ISZERO ISZERO DUP2 MSTORE POP POP DUP9 PUSH1 0x6 PUSH1 0x0 DUP12 DUP2 MSTORE PUSH1 0x20 ADD SWAP1 DUP2 MSTORE PUSH1 0x20 ADD PUSH1 0x0 KECCAK256 PUSH1 0x1 ADD DUP2 SWAP1 SSTORE POP PUSH1 0x6 PUSH1 0x0 DUP11 DUP2 MSTORE PUSH1 0x20 ADD SWAP1 DUP2 MSTORE PUSH1 0x20 ADD PUSH1 0x0 KECCAK256 PUSH1 0x0 ADD DUP2 SWAP1 DUP1 PUSH1 0x1 DUP2 SLOAD ADD DUP1 DUP3 SSTORE DUP1 SWAP2 POP POP PUSH1 0x1 SWAP1 SUB SWAP1 PUSH1 0x0 MSTORE PUSH1 0x20 PUSH1 0x0 KECCAK256 SWAP1 PUSH1 0x7 MUL ADD PUSH1 0x0 SWAP1 SWAP2 SWAP1 SWAP2 SWAP1 SWAP2 POP PUSH1 0x0 DUP3 ADD MLOAD DUP2 PUSH1 0x0 ADD SSTORE PUSH1 0x20 DUP3 ADD MLOAD DUP2 PUSH1 0x1 ADD SSTORE PUSH1 0x40 DUP3 ADD MLOAD DUP2 PUSH1 0x2 ADD SSTORE PUSH1 0x60 DUP3 ADD MLOAD DUP2 PUSH1 0x3 ADD SSTORE PUSH1 0x80 DUP3 ADD MLOAD DUP2 PUSH1 0x4 ADD PUSH1 0x0 PUSH2 0x100 EXP DUP2 SLOAD DUP2 PUSH20 0xFFFFFFFFFFFFFFFFFFFFFFFFFFFFFFFFFFFFFFFF MUL NOT AND SWAP1 DUP4 PUSH20 0xFFFFFFFFFFFFFFFFFFFFFFFFFFFFFFFFFFFFFFFF AND MUL OR SWAP1 SSTORE POP PUSH1 0xA0 DUP3 ADD MLOAD DUP2 PUSH1 0x5 ADD SWAP1 DUP1 MLOAD SWAP1 PUSH1 0x20 ADD SWAP1 PUSH2 0x1774 SWAP3 SWAP2 SWAP1 PUSH2 0x2E12 JUMP JUMPDEST POP PUSH1 0xC0 DUP3 ADD MLOAD DUP2 PUSH1 0x6 ADD PUSH1 0x0 PUSH2 0x100 EXP DUP2 SLOAD DUP2 PUSH1 0xFF MUL NOT AND SWAP1 DUP4 ISZERO ISZERO MUL OR SWAP1 SSTORE POP POP POP DUP11 PUSH1 0x8 PUSH1 0x0 DUP14 PUSH20 0xFFFFFFFFFFFFFFFFFFFFFFFFFFFFFFFFFFFFFFFF AND PUSH20 0xFFFFFFFFFFFFFFFFFFFFFFFFFFFFFFFFFFFFFFFF AND DUP2 MSTORE PUSH1 0x20 ADD SWAP1 DUP2 MSTORE PUSH1 0x20 ADD PUSH1 0x0 KECCAK256 PUSH1 0x1 ADD PUSH1 0x0 PUSH2 0x100 EXP DUP2 SLOAD DUP2 PUSH20 0xFFFFFFFFFFFFFFFFFFFFFFFFFFFFFFFFFFFFFFFF MUL NOT AND SWAP1 DUP4 PUSH20 0xFFFFFFFFFFFFFFFFFFFFFFFFFFFFFFFFFFFFFFFF AND MUL OR SWAP1 SSTORE POP PUSH1 0x8 PUSH1 0x0 DUP13 PUSH20 0xFFFFFFFFFFFFFFFFFFFFFFFFFFFFFFFFFFFFFFFF AND PUSH20 0xFFFFFFFFFFFFFFFFFFFFFFFFFFFFFFFFFFFFFFFF AND DUP2 MSTORE PUSH1 0x20 ADD SWAP1 DUP2 MSTORE PUSH1 0x20 ADD PUSH1 0x0 KECCAK256 PUSH1 0x0 ADD DUP2 SWAP1 DUP1 PUSH1 0x1 DUP2 SLOAD ADD DUP1 DUP3 SSTORE DUP1 SWAP2 POP POP PUSH1 0x1 SWAP1 SUB SWAP1 PUSH1 0x0 MSTORE PUSH1 0x20 PUSH1 0x0 KECCAK256 SWAP1 PUSH1 0x7 MUL ADD PUSH1 0x0 SWAP1 SWAP2 SWAP1 SWAP2 SWAP1 SWAP2 POP PUSH1 0x0 DUP3 ADD MLOAD DUP2 PUSH1 0x0 ADD SSTORE PUSH1 0x20 DUP3 ADD MLOAD DUP2 PUSH1 0x1 ADD SSTORE PUSH1 0x40 DUP3 ADD MLOAD DUP2 PUSH1 0x2 ADD SSTORE PUSH1 0x60 DUP3 ADD MLOAD DUP2 PUSH1 0x3 ADD SSTORE PUSH1 0x80 DUP3 ADD MLOAD DUP2 PUSH1 0x4 ADD PUSH1 0x0 PUSH2 0x100 EXP DUP2 SLOAD DUP2 PUSH20 0xFFFFFFFFFFFFFFFFFFFFFFFFFFFFFFFFFFFFFFFF MUL NOT AND SWAP1 DUP4 PUSH20 0xFFFFFFFFFFFFFFFFFFFFFFFFFFFFFFFFFFFFFFFF AND MUL OR SWAP1 SSTORE POP PUSH1 0xA0 DUP3 ADD MLOAD DUP2 PUSH1 0x5 ADD SWAP1 DUP1 MLOAD SWAP1 PUSH1 0x20 ADD SWAP1 PUSH2 0x190F SWAP3 SWAP2 SWAP1 PUSH2 0x2E12 JUMP JUMPDEST POP PUSH1 0xC0 DUP3 ADD MLOAD DUP2 PUSH1 0x6 ADD PUSH1 0x0 PUSH2 0x100 EXP DUP2 SLOAD DUP2 PUSH1 0xFF MUL NOT AND SWAP1 DUP4 ISZERO ISZERO MUL OR SWAP1 SSTORE POP POP POP PUSH1 0x2 DUP7 EQ ISZERO PUSH2 0x198E JUMPI DUP10 DUP5 PUSH1 0xC0 ADD DUP2 DUP2 MLOAD PUSH2 0x194D SWAP2 SWAP1 PUSH2 0x37DD JUMP JUMPDEST SWAP2 POP DUP2 DUP2 MSTORE POP POP DUP10 PUSH1 0x7 DUP5 PUSH1 0x40 MLOAD PUSH2 0x1965 SWAP2 SWAP1 PUSH2 0x3534 JUMP JUMPDEST SWAP1 DUP2 MSTORE PUSH1 0x20 ADD PUSH1 0x40 MLOAD DUP1 SWAP2 SUB SWAP1 KECCAK256 PUSH1 0x0 DUP3 DUP3 SLOAD PUSH2 0x1982 SWAP2 SWAP1 PUSH2 0x37DD JUMP JUMPDEST SWAP3 POP POP DUP2 SWAP1 SSTORE POP PUSH2 0x19F8 JUMP JUMPDEST PUSH1 0x3 DUP7 EQ ISZERO PUSH2 0x19B5 JUMPI DUP10 DUP5 PUSH1 0x60 ADD DUP2 DUP2 MLOAD PUSH2 0x19A9 SWAP2 SWAP1 PUSH2 0x37DD JUMP JUMPDEST SWAP2 POP DUP2 DUP2 MSTORE POP POP PUSH2 0x19F7 JUMP JUMPDEST PUSH1 0x1 DUP7 EQ ISZERO PUSH2 0x19DC JUMPI DUP10 DUP5 PUSH1 0x80 ADD DUP2 DUP2 MLOAD PUSH2 0x19D0 SWAP2 SWAP1 PUSH2 0x37DD JUMP JUMPDEST SWAP2 POP DUP2 DUP2 MSTORE POP POP PUSH2 0x19F6 JUMP JUMPDEST DUP10 DUP5 PUSH1 0xA0 ADD DUP2 DUP2 MLOAD PUSH2 0x19EE SWAP2 SWAP1 PUSH2 0x37DD JUMP JUMPDEST SWAP2 POP DUP2 DUP2 MSTORE POP POP JUMPDEST JUMPDEST JUMPDEST DUP10 PUSH1 0x4 PUSH1 0x0 DUP14 PUSH20 0xFFFFFFFFFFFFFFFFFFFFFFFFFFFFFFFFFFFFFFFF AND PUSH20 0xFFFFFFFFFFFFFFFFFFFFFFFFFFFFFFFFFFFFFFFF AND DUP2 MSTORE PUSH1 0x20 ADD SWAP1 DUP2 MSTORE PUSH1 0x20 ADD PUSH1 0x0 KECCAK256 PUSH1 0x0 DUP3 DUP3 SLOAD PUSH2 0x1A47 SWAP2 SWAP1 PUSH2 0x38BE JUMP JUMPDEST SWAP3 POP POP DUP2 SWAP1 SSTORE POP POP POP POP POP PUSH1 0x1 SWAP1 POP SWAP7 SWAP6 POP POP POP POP POP POP JUMP JUMPDEST PUSH1 0x0 DUP1 PUSH1 0x0 SWAP1 SLOAD SWAP1 PUSH2 0x100 EXP SWAP1 DIV PUSH20 0xFFFFFFFFFFFFFFFFFFFFFFFFFFFFFFFFFFFFFFFF AND PUSH20 0xFFFFFFFFFFFFFFFFFFFFFFFFFFFFFFFFFFFFFFFF AND CALLER PUSH20 0xFFFFFFFFFFFFFFFFFFFFFFFFFFFFFFFFFFFFFFFF AND EQ PUSH2 0x1AF1 JUMPI PUSH1 0x40 MLOAD PUSH32 0x8C379A000000000000000000000000000000000000000000000000000000000 DUP2 MSTORE PUSH1 0x4 ADD PUSH2 0x1AE8 SWAP1 PUSH2 0x362C JUMP JUMPDEST PUSH1 0x40 MLOAD DUP1 SWAP2 SUB SWAP1 REVERT JUMPDEST PUSH2 0x1AFA DUP6 PUSH2 0x2AB0 JUMP JUMPDEST PUSH2 0x1B39 JUMPI PUSH1 0x40 MLOAD PUSH32 0x8C379A000000000000000000000000000000000000000000000000000000000 DUP2 MSTORE PUSH1 0x4 ADD PUSH2 0x1B30 SWAP1 PUSH2 0x366C JUMP JUMPDEST PUSH1 0x40 MLOAD DUP1 SWAP2 SUB SWAP1 REVERT JUMPDEST PUSH1 0x0 PUSH1 0x5 PUSH1 0x0 DUP8 DUP2 MSTORE PUSH1 0x20 ADD SWAP1 DUP2 MSTORE PUSH1 0x20 ADD PUSH1 0x0 KECCAK256 PUSH1 0x40 MLOAD DUP1 PUSH2 0x160 ADD PUSH1 0x40 MSTORE SWAP1 DUP2 PUSH1 0x0 DUP3 ADD DUP1 SLOAD PUSH2 0x1B6A SWAP1 PUSH2 0x3986 JUMP JUMPDEST DUP1 PUSH1 0x1F ADD PUSH1 0x20 DUP1 SWAP2 DIV MUL PUSH1 0x20 ADD PUSH1 0x40 MLOAD SWAP1 DUP2 ADD PUSH1 0x40 MSTORE DUP1 SWAP3 SWAP2 SWAP1 DUP2 DUP2 MSTORE PUSH1 0x20 ADD DUP3 DUP1 SLOAD PUSH2 0x1B96 SWAP1 PUSH2 0x3986 JUMP JUMPDEST DUP1 ISZERO PUSH2 0x1BE3 JUMPI DUP1 PUSH1 0x1F LT PUSH2 0x1BB8 JUMPI PUSH2 0x100 DUP1 DUP4 SLOAD DIV MUL DUP4 MSTORE SWAP2 PUSH1 0x20 ADD SWAP2 PUSH2 0x1BE3 JUMP JUMPDEST DUP3 ADD SWAP2 SWAP1 PUSH1 0x0 MSTORE PUSH1 0x20 PUSH1 0x0 KECCAK256 SWAP1 JUMPDEST DUP2 SLOAD DUP2 MSTORE SWAP1 PUSH1 0x1 ADD SWAP1 PUSH1 0x20 ADD DUP1 DUP4 GT PUSH2 0x1BC6 JUMPI DUP3 SWAP1 SUB PUSH1 0x1F AND DUP3 ADD SWAP2 JUMPDEST POP POP POP POP POP DUP2 MSTORE PUSH1 0x20 ADD PUSH1 0x1 DUP3 ADD DUP1 SLOAD PUSH2 0x1BFC SWAP1 PUSH2 0x3986 JUMP JUMPDEST DUP1 PUSH1 0x1F ADD PUSH1 0x20 DUP1 SWAP2 DIV MUL PUSH1 0x20 ADD PUSH1 0x40 MLOAD SWAP1 DUP2 ADD PUSH1 0x40 MSTORE DUP1 SWAP3 SWAP2 SWAP1 DUP2 DUP2 MSTORE PUSH1 0x20 ADD DUP3 DUP1 SLOAD PUSH2 0x1C28 SWAP1 PUSH2 0x3986 JUMP JUMPDEST DUP1 ISZERO PUSH2 0x1C75 JUMPI DUP1 PUSH1 0x1F LT PUSH2 0x1C4A JUMPI PUSH2 0x100 DUP1 DUP4 SLOAD DIV MUL DUP4 MSTORE SWAP2 PUSH1 0x20 ADD SWAP2 PUSH2 0x1C75 JUMP JUMPDEST DUP3 ADD SWAP2 SWAP1 PUSH1 0x0 MSTORE PUSH1 0x20 PUSH1 0x0 KECCAK256 SWAP1 JUMPDEST DUP2 SLOAD DUP2 MSTORE SWAP1 PUSH1 0x1 ADD SWAP1 PUSH1 0x20 ADD DUP1 DUP4 GT PUSH2 0x1C58 JUMPI DUP3 SWAP1 SUB PUSH1 0x1F AND DUP3 ADD SWAP2 JUMPDEST POP POP POP POP POP DUP2 MSTORE PUSH1 0x20 ADD PUSH1 0x2 DUP3 ADD DUP1 SLOAD PUSH2 0x1C8E SWAP1 PUSH2 0x3986 JUMP JUMPDEST DUP1 PUSH1 0x1F ADD PUSH1 0x20 DUP1 SWAP2 DIV MUL PUSH1 0x20 ADD PUSH1 0x40 MLOAD SWAP1 DUP2 ADD PUSH1 0x40 MSTORE DUP1 SWAP3 SWAP2 SWAP1 DUP2 DUP2 MSTORE PUSH1 0x20 ADD DUP3 DUP1 SLOAD PUSH2 0x1CBA SWAP1 PUSH2 0x3986 JUMP JUMPDEST DUP1 ISZERO PUSH2 0x1D07 JUMPI DUP1 PUSH1 0x1F LT PUSH2 0x1CDC JUMPI PUSH2 0x100 DUP1 DUP4 SLOAD DIV MUL DUP4 MSTORE SWAP2 PUSH1 0x20 ADD SWAP2 PUSH2 0x1D07 JUMP JUMPDEST DUP3 ADD SWAP2 SWAP1 PUSH1 0x0 MSTORE PUSH1 0x20 PUSH1 0x0 KECCAK256 SWAP1 JUMPDEST DUP2 SLOAD DUP2 MSTORE SWAP1 PUSH1 0x1 ADD SWAP1 PUSH1 0x20 ADD DUP1 DUP4 GT PUSH2 0x1CEA JUMPI DUP3 SWAP1 SUB PUSH1 0x1F AND DUP3 ADD SWAP2 JUMPDEST POP POP POP POP POP DUP2 MSTORE PUSH1 0x20 ADD PUSH1 0x3 DUP3 ADD SLOAD DUP2 MSTORE PUSH1 0x20 ADD PUSH1 0x4 DUP3 ADD SLOAD DUP2 MSTORE PUSH1 0x20 ADD PUSH1 0x5 DUP3 ADD SLOAD DUP2 MSTORE PUSH1 0x20 ADD PUSH1 0x6 DUP3 ADD SLOAD DUP2 MSTORE PUSH1 0x20 ADD PUSH1 0x7 DUP3 ADD SLOAD DUP2 MSTORE PUSH1 0x20 ADD PUSH1 0x8 DUP3 ADD PUSH1 0x0 SWAP1 SLOAD SWAP1 PUSH2 0x100 EXP SWAP1 DIV PUSH1 0xFF AND ISZERO ISZERO ISZERO ISZERO DUP2 MSTORE PUSH1 0x20 ADD PUSH1 0x8 DUP3 ADD PUSH1 0x1 SWAP1 SLOAD SWAP1 PUSH2 0x100 EXP SWAP1 DIV PUSH1 0xFF AND ISZERO ISZERO ISZERO ISZERO DUP2 MSTORE PUSH1 0x20 ADD PUSH1 0x8 DUP3 ADD PUSH1 0x2 SWAP1 SLOAD SWAP1 PUSH2 0x100 EXP SWAP1 DIV PUSH1 0xFF AND ISZERO ISZERO ISZERO ISZERO DUP2 MSTORE POP POP SWAP1 POP PUSH1 0x1 DUP2 PUSH2 0x140 ADD SWAP1 ISZERO ISZERO SWAP1 DUP2 ISZERO ISZERO DUP2 MSTORE POP ISZERO PUSH2 0x1DE6 JUMPI PUSH1 0x40 MLOAD PUSH32 0x8C379A000000000000000000000000000000000000000000000000000000000 DUP2 MSTORE PUSH1 0x4 ADD PUSH2 0x1DDD SWAP1 PUSH2 0x36EC JUMP JUMPDEST PUSH1 0x40 MLOAD DUP1 SWAP2 SUB SWAP1 REVERT JUMPDEST PUSH1 0x0 PUSH1 0x6 PUSH1 0x0 DUP9 DUP2 MSTORE PUSH1 0x20 ADD SWAP1 DUP2 MSTORE PUSH1 0x20 ADD PUSH1 0x0 KECCAK256 PUSH1 0x0 ADD DUP1 SLOAD DUP1 PUSH1 0x20 MUL PUSH1 0x20 ADD PUSH1 0x40 MLOAD SWAP1 DUP2 ADD PUSH1 0x40 MSTORE DUP1 SWAP3 SWAP2 SWAP1 DUP2 DUP2 MSTORE PUSH1 0x20 ADD PUSH1 0x0 SWAP1 JUMPDEST DUP3 DUP3 LT ISZERO PUSH2 0x1F7B JUMPI DUP4 DUP3 SWAP1 PUSH1 0x0 MSTORE PUSH1 0x20 PUSH1 0x0 KECCAK256 SWAP1 PUSH1 0x7 MUL ADD PUSH1 0x40 MLOAD DUP1 PUSH1 0xE0 ADD PUSH1 0x40 MSTORE SWAP1 DUP2 PUSH1 0x0 DUP3 ADD SLOAD DUP2 MSTORE PUSH1 0x20 ADD PUSH1 0x1 DUP3 ADD SLOAD DUP2 MSTORE PUSH1 0x20 ADD PUSH1 0x2 DUP3 ADD SLOAD DUP2 MSTORE PUSH1 0x20 ADD PUSH1 0x3 DUP3 ADD SLOAD DUP2 MSTORE PUSH1 0x20 ADD PUSH1 0x4 DUP3 ADD PUSH1 0x0 SWAP1 SLOAD SWAP1 PUSH2 0x100 EXP SWAP1 DIV PUSH20 0xFFFFFFFFFFFFFFFFFFFFFFFFFFFFFFFFFFFFFFFF AND PUSH20 0xFFFFFFFFFFFFFFFFFFFFFFFFFFFFFFFFFFFFFFFF AND PUSH20 0xFFFFFFFFFFFFFFFFFFFFFFFFFFFFFFFFFFFFFFFF AND DUP2 MSTORE PUSH1 0x20 ADD PUSH1 0x5 DUP3 ADD DUP1 SLOAD PUSH2 0x1ECF SWAP1 PUSH2 0x3986 JUMP JUMPDEST DUP1 PUSH1 0x1F ADD PUSH1 0x20 DUP1 SWAP2 DIV MUL PUSH1 0x20 ADD PUSH1 0x40 MLOAD SWAP1 DUP2 ADD PUSH1 0x40 MSTORE DUP1 SWAP3 SWAP2 SWAP1 DUP2 DUP2 MSTORE PUSH1 0x20 ADD DUP3 DUP1 SLOAD PUSH2 0x1EFB SWAP1 PUSH2 0x3986 JUMP JUMPDEST DUP1 ISZERO PUSH2 0x1F48 JUMPI DUP1 PUSH1 0x1F LT PUSH2 0x1F1D JUMPI PUSH2 0x100 DUP1 DUP4 SLOAD DIV MUL DUP4 MSTORE SWAP2 PUSH1 0x20 ADD SWAP2 PUSH2 0x1F48 JUMP JUMPDEST DUP3 ADD SWAP2 SWAP1 PUSH1 0x0 MSTORE PUSH1 0x20 PUSH1 0x0 KECCAK256 SWAP1 JUMPDEST DUP2 SLOAD DUP2 MSTORE SWAP1 PUSH1 0x1 ADD SWAP1 PUSH1 0x20 ADD DUP1 DUP4 GT PUSH2 0x1F2B JUMPI DUP3 SWAP1 SUB PUSH1 0x1F AND DUP3 ADD SWAP2 JUMPDEST POP POP POP POP POP DUP2 MSTORE PUSH1 0x20 ADD PUSH1 0x6 DUP3 ADD PUSH1 0x0 SWAP1 SLOAD SWAP1 PUSH2 0x100 EXP SWAP1 DIV PUSH1 0xFF AND ISZERO ISZERO ISZERO ISZERO DUP2 MSTORE POP POP DUP2 MSTORE PUSH1 0x20 ADD SWAP1 PUSH1 0x1 ADD SWAP1 PUSH2 0x1E1E JUMP JUMPDEST POP POP POP POP SWAP1 POP PUSH1 0x0 PUSH2 0x1FEA PUSH1 0x14 PUSH2 0x1FA0 PUSH1 0x2 DUP7 PUSH1 0xE0 ADD MLOAD PUSH2 0x433 SWAP1 SWAP2 SWAP1 PUSH4 0xFFFFFFFF AND JUMP JUMPDEST DUP6 PUSH1 0x80 ADD MLOAD DUP7 PUSH1 0xA0 ADD MLOAD DUP8 PUSH1 0x60 ADD MLOAD DUP9 PUSH1 0xC0 ADD MLOAD PUSH2 0x1FBE SWAP2 SWAP1 PUSH2 0x37DD JUMP JUMPDEST PUSH2 0x1FC8 SWAP2 SWAP1 PUSH2 0x37DD JUMP JUMPDEST PUSH2 0x1FD2 SWAP2 SWAP1 PUSH2 0x37DD JUMP JUMPDEST PUSH2 0x1FDC SWAP2 SWAP1 PUSH2 0x37DD JUMP JUMPDEST PUSH2 0x433 SWAP1 SWAP2 SWAP1 PUSH4 0xFFFFFFFF AND JUMP JUMPDEST PUSH1 0x1 PUSH1 0x0 DUP3 DUP3 SLOAD PUSH2 0x1FFB SWAP2 SWAP1 PUSH2 0x37DD JUMP JUMPDEST SWAP3 POP POP DUP2 SWAP1 SSTORE POP PUSH1 0x0 JUMPDEST PUSH1 0x1 DUP4 MLOAD PUSH2 0x2013 SWAP2 SWAP1 PUSH2 0x38BE JUMP JUMPDEST DUP2 GT PUSH2 0x24B1 JUMPI PUSH1 0x0 DUP4 DUP3 DUP2 MLOAD DUP2 LT PUSH2 0x202E JUMPI PUSH2 0x202D PUSH2 0x3AC9 JUMP JUMPDEST JUMPDEST PUSH1 0x20 MUL PUSH1 0x20 ADD ADD MLOAD PUSH1 0xC0 ADD SWAP1 ISZERO ISZERO SWAP1 DUP2 ISZERO ISZERO DUP2 MSTORE POP ISZERO PUSH2 0x249E JUMPI PUSH1 0x2 DUP4 DUP3 DUP2 MLOAD DUP2 LT PUSH2 0x205D JUMPI PUSH2 0x205C PUSH2 0x3AC9 JUMP JUMPDEST JUMPDEST PUSH1 0x20 MUL PUSH1 0x20 ADD ADD MLOAD PUSH1 0x20 ADD MLOAD EQ ISZERO PUSH2 0x222E JUMPI PUSH2 0x20BC PUSH1 0x64 PUSH2 0x20AE PUSH1 0x55 PUSH2 0x2091 PUSH1 0x2 DUP10 PUSH1 0xE0 ADD MLOAD PUSH2 0x433 SWAP1 SWAP2 SWAP1 PUSH4 0xFFFFFFFF AND JUMP JUMPDEST DUP9 PUSH1 0xC0 ADD MLOAD PUSH2 0x20A0 SWAP2 SWAP1 PUSH2 0x37DD JUMP JUMPDEST PUSH2 0x2C73 SWAP1 SWAP2 SWAP1 PUSH4 0xFFFFFFFF AND JUMP JUMPDEST PUSH2 0x433 SWAP1 SWAP2 SWAP1 PUSH4 0xFFFFFFFF AND JUMP JUMPDEST SWAP2 POP DUP8 DUP4 DUP3 DUP2 MLOAD DUP2 LT PUSH2 0x20D2 JUMPI PUSH2 0x20D1 PUSH2 0x3AC9 JUMP JUMPDEST JUMPDEST PUSH1 0x20 MUL PUSH1 0x20 ADD ADD MLOAD PUSH1 0x40 ADD MLOAD EQ DUP1 ISZERO PUSH2 0x2108 JUMPI POP DUP7 DUP4 DUP3 DUP2 MLOAD DUP2 LT PUSH2 0x20FA JUMPI PUSH2 0x20F9 PUSH2 0x3AC9 JUMP JUMPDEST JUMPDEST PUSH1 0x20 MUL PUSH1 0x20 ADD ADD MLOAD PUSH1 0x60 ADD MLOAD EQ JUMPDEST ISZERO PUSH2 0x2229 JUMPI PUSH1 0x0 PUSH1 0x7 DUP5 DUP4 DUP2 MLOAD DUP2 LT PUSH2 0x2124 JUMPI PUSH2 0x2123 PUSH2 0x3AC9 JUMP JUMPDEST JUMPDEST PUSH1 0x20 MUL PUSH1 0x20 ADD ADD MLOAD PUSH1 0xA0 ADD MLOAD PUSH1 0x40 MLOAD PUSH2 0x213D SWAP2 SWAP1 PUSH2 0x3534 JUMP JUMPDEST SWAP1 DUP2 MSTORE PUSH1 0x20 ADD PUSH1 0x40 MLOAD DUP1 SWAP2 SUB SWAP1 KECCAK256 SLOAD SWAP1 POP PUSH1 0x0 DUP2 DUP6 DUP5 DUP2 MLOAD DUP2 LT PUSH2 0x2164 JUMPI PUSH2 0x2163 PUSH2 0x3AC9 JUMP JUMPDEST JUMPDEST PUSH1 0x20 MUL PUSH1 0x20 ADD ADD MLOAD PUSH1 0x0 ADD MLOAD DUP6 PUSH2 0x217B SWAP2 SWAP1 PUSH2 0x3864 JUMP JUMPDEST PUSH2 0x2185 SWAP2 SWAP1 PUSH2 0x3833 JUMP JUMPDEST SWAP1 POP DUP1 PUSH1 0x4 PUSH1 0x0 DUP8 DUP7 DUP2 MLOAD DUP2 LT PUSH2 0x219F JUMPI PUSH2 0x219E PUSH2 0x3AC9 JUMP JUMPDEST JUMPDEST PUSH1 0x20 MUL PUSH1 0x20 ADD ADD MLOAD PUSH1 0x80 ADD MLOAD PUSH20 0xFFFFFFFFFFFFFFFFFFFFFFFFFFFFFFFFFFFFFFFF AND PUSH20 0xFFFFFFFFFFFFFFFFFFFFFFFFFFFFFFFFFFFFFFFF AND DUP2 MSTORE PUSH1 0x20 ADD SWAP1 DUP2 MSTORE PUSH1 0x20 ADD PUSH1 0x0 KECCAK256 PUSH1 0x0 DUP3 DUP3 SLOAD PUSH2 0x21F4 SWAP2 SWAP1 PUSH2 0x37DD JUMP JUMPDEST SWAP3 POP POP DUP2 SWAP1 SSTORE POP PUSH1 0x1 DUP6 DUP5 DUP2 MLOAD DUP2 LT PUSH2 0x2210 JUMPI PUSH2 0x220F PUSH2 0x3AC9 JUMP JUMPDEST JUMPDEST PUSH1 0x20 MUL PUSH1 0x20 ADD ADD MLOAD PUSH1 0xC0 ADD SWAP1 ISZERO ISZERO SWAP1 DUP2 ISZERO ISZERO DUP2 MSTORE POP POP POP POP JUMPDEST PUSH2 0x249D JUMP JUMPDEST DUP6 DUP4 DUP3 DUP2 MLOAD DUP2 LT PUSH2 0x2242 JUMPI PUSH2 0x2241 PUSH2 0x3AC9 JUMP JUMPDEST JUMPDEST PUSH1 0x20 MUL PUSH1 0x20 ADD ADD MLOAD PUSH1 0x20 ADD MLOAD EQ ISZERO PUSH2 0x249C JUMPI PUSH2 0x22BF PUSH1 0x64 PUSH2 0x22B1 PUSH1 0x55 PUSH2 0x2276 PUSH1 0x2 DUP10 PUSH1 0xE0 ADD MLOAD PUSH2 0x433 SWAP1 SWAP2 SWAP1 PUSH4 0xFFFFFFFF AND JUMP JUMPDEST DUP9 PUSH1 0x80 ADD MLOAD DUP10 PUSH1 0xA0 ADD MLOAD DUP11 PUSH1 0x60 ADD MLOAD PUSH2 0x228F SWAP2 SWAP1 PUSH2 0x37DD JUMP JUMPDEST PUSH2 0x2299 SWAP2 SWAP1 PUSH2 0x37DD JUMP JUMPDEST PUSH2 0x22A3 SWAP2 SWAP1 PUSH2 0x37DD JUMP JUMPDEST PUSH2 0x2C73 SWAP1 SWAP2 SWAP1 PUSH4 0xFFFFFFFF AND JUMP JUMPDEST PUSH2 0x433 SWAP1 SWAP2 SWAP1 PUSH4 0xFFFFFFFF AND JUMP JUMPDEST SWAP2 POP PUSH1 0x0 DUP1 DUP5 DUP4 DUP2 MLOAD DUP2 LT PUSH2 0x22D7 JUMPI PUSH2 0x22D6 PUSH2 0x3AC9 JUMP JUMPDEST JUMPDEST PUSH1 0x20 MUL PUSH1 0x20 ADD ADD MLOAD PUSH1 0x20 ADD MLOAD EQ ISZERO PUSH2 0x2317 JUMPI PUSH2 0x2314 PUSH1 0x64 PUSH2 0x2306 PUSH1 0x55 DUP9 PUSH1 0xA0 ADD MLOAD PUSH2 0x2C73 SWAP1 SWAP2 SWAP1 PUSH4 0xFFFFFFFF AND JUMP JUMPDEST PUSH2 0x433 SWAP1 SWAP2 SWAP1 PUSH4 0xFFFFFFFF AND JUMP JUMPDEST SWAP1 POP JUMPDEST PUSH1 0x1 DUP5 DUP4 DUP2 MLOAD DUP2 LT PUSH2 0x232C JUMPI PUSH2 0x232B PUSH2 0x3AC9 JUMP JUMPDEST JUMPDEST PUSH1 0x20 MUL PUSH1 0x20 ADD ADD MLOAD PUSH1 0x20 ADD MLOAD EQ ISZERO PUSH2 0x236C JUMPI PUSH2 0x2369 PUSH1 0x64 PUSH2 0x235B PUSH1 0x55 DUP9 PUSH1 0x80 ADD MLOAD PUSH2 0x2C73 SWAP1 SWAP2 SWAP1 PUSH4 0xFFFFFFFF AND JUMP JUMPDEST PUSH2 0x433 SWAP1 SWAP2 SWAP1 PUSH4 0xFFFFFFFF AND JUMP JUMPDEST SWAP1 POP JUMPDEST PUSH1 0x3 DUP5 DUP4 DUP2 MLOAD DUP2 LT PUSH2 0x2381 JUMPI PUSH2 0x2380 PUSH2 0x3AC9 JUMP JUMPDEST JUMPDEST PUSH1 0x20 MUL PUSH1 0x20 ADD ADD MLOAD PUSH1 0x20 ADD MLOAD EQ ISZERO PUSH2 0x23C1 JUMPI PUSH2 0x23BE PUSH1 0x64 PUSH2 0x23B0 PUSH1 0x55 DUP9 PUSH1 0x60 ADD MLOAD PUSH2 0x2C73 SWAP1 SWAP2 SWAP1 PUSH4 0xFFFFFFFF AND JUMP JUMPDEST PUSH2 0x433 SWAP1 SWAP2 SWAP1 PUSH4 0xFFFFFFFF AND JUMP JUMPDEST SWAP1 POP JUMPDEST PUSH1 0x0 DUP2 DUP6 DUP5 DUP2 MLOAD DUP2 LT PUSH2 0x23D7 JUMPI PUSH2 0x23D6 PUSH2 0x3AC9 JUMP JUMPDEST JUMPDEST PUSH1 0x20 MUL PUSH1 0x20 ADD ADD MLOAD PUSH1 0x0 ADD MLOAD DUP6 PUSH2 0x23EE SWAP2 SWAP1 PUSH2 0x3864 JUMP JUMPDEST PUSH2 0x23F8 SWAP2 SWAP1 PUSH2 0x3833 JUMP JUMPDEST SWAP1 POP DUP1 PUSH1 0x4 PUSH1 0x0 DUP8 DUP7 DUP2 MLOAD DUP2 LT PUSH2 0x2412 JUMPI PUSH2 0x2411 PUSH2 0x3AC9 JUMP JUMPDEST JUMPDEST PUSH1 0x20 MUL PUSH1 0x20 ADD ADD MLOAD PUSH1 0x80 ADD MLOAD PUSH20 0xFFFFFFFFFFFFFFFFFFFFFFFFFFFFFFFFFFFFFFFF AND PUSH20 0xFFFFFFFFFFFFFFFFFFFFFFFFFFFFFFFFFFFFFFFF AND DUP2 MSTORE PUSH1 0x20 ADD SWAP1 DUP2 MSTORE PUSH1 0x20 ADD PUSH1 0x0 KECCAK256 PUSH1 0x0 DUP3 DUP3 SLOAD PUSH2 0x2467 SWAP2 SWAP1 PUSH2 0x37DD JUMP JUMPDEST SWAP3 POP POP DUP2 SWAP1 SSTORE POP PUSH1 0x1 DUP6 DUP5 DUP2 MLOAD DUP2 LT PUSH2 0x2483 JUMPI PUSH2 0x2482 PUSH2 0x3AC9 JUMP JUMPDEST JUMPDEST PUSH1 0x20 MUL PUSH1 0x20 ADD ADD MLOAD PUSH1 0xC0 ADD SWAP1 ISZERO ISZERO SWAP1 DUP2 ISZERO ISZERO DUP2 MSTORE POP POP POP POP JUMPDEST JUMPDEST JUMPDEST DUP1 DUP1 PUSH2 0x24A9 SWAP1 PUSH2 0x39E9 JUMP JUMPDEST SWAP2 POP POP PUSH2 0x2005 JUMP JUMPDEST POP PUSH1 0x1 DUP4 PUSH2 0x140 ADD SWAP1 ISZERO ISZERO SWAP1 DUP2 ISZERO ISZERO DUP2 MSTORE POP POP POP POP POP PUSH1 0x1 SWAP1 POP SWAP5 SWAP4 POP POP POP POP JUMP JUMPDEST PUSH1 0x0 DUP1 PUSH1 0x0 SWAP1 SLOAD SWAP1 PUSH2 0x100 EXP SWAP1 DIV PUSH20 0xFFFFFFFFFFFFFFFFFFFFFFFFFFFFFFFFFFFFFFFF AND PUSH20 0xFFFFFFFFFFFFFFFFFFFFFFFFFFFFFFFFFFFFFFFF AND CALLER PUSH20 0xFFFFFFFFFFFFFFFFFFFFFFFFFFFFFFFFFFFFFFFF AND EQ PUSH2 0x2564 JUMPI PUSH1 0x40 MLOAD PUSH32 0x8C379A000000000000000000000000000000000000000000000000000000000 DUP2 MSTORE PUSH1 0x4 ADD PUSH2 0x255B SWAP1 PUSH2 0x362C JUMP JUMPDEST PUSH1 0x40 MLOAD DUP1 SWAP2 SUB SWAP1 REVERT JUMPDEST DUP2 PUSH1 0x4 PUSH1 0x0 DUP6 PUSH20 0xFFFFFFFFFFFFFFFFFFFFFFFFFFFFFFFFFFFFFFFF AND PUSH20 0xFFFFFFFFFFFFFFFFFFFFFFFFFFFFFFFFFFFFFFFF AND DUP2 MSTORE PUSH1 0x20 ADD SWAP1 DUP2 MSTORE PUSH1 0x20 ADD PUSH1 0x0 KECCAK256 SLOAD LT ISZERO DUP1 ISZERO PUSH2 0x25F3 JUMPI POP PUSH1 0x0 PUSH1 0x4 PUSH1 0x0 DUP6 PUSH20 0xFFFFFFFFFFFFFFFFFFFFFFFFFFFFFFFFFFFFFFFF AND PUSH20 0xFFFFFFFFFFFFFFFFFFFFFFFFFFFFFFFFFFFFFFFF AND DUP2 MSTORE PUSH1 0x20 ADD SWAP1 DUP2 MSTORE PUSH1 0x20 ADD PUSH1 0x0 KECCAK256 SLOAD LT ISZERO JUMPDEST ISZERO PUSH2 0x26A2 JUMPI PUSH1 0x0 DUP4 SWAP1 POP DUP1 PUSH20 0xFFFFFFFFFFFFFFFFFFFFFFFFFFFFFFFFFFFFFFFF AND PUSH2 0x8FC PUSH2 0x2670 PUSH7 0x2386F26FC10000 PUSH1 0x4 PUSH1 0x0 DUP10 PUSH20 0xFFFFFFFFFFFFFFFFFFFFFFFFFFFFFFFFFFFFFFFF AND PUSH20 0xFFFFFFFFFFFFFFFFFFFFFFFFFFFFFFFFFFFFFFFF AND DUP2 MSTORE PUSH1 0x20 ADD SWAP1 DUP2 MSTORE PUSH1 0x20 ADD PUSH1 0x0 KECCAK256 SLOAD PUSH2 0x2C73 SWAP1 SWAP2 SWAP1 PUSH4 0xFFFFFFFF AND JUMP JUMPDEST SWAP1 DUP2 ISZERO MUL SWAP1 PUSH1 0x40 MLOAD PUSH1 0x0 PUSH1 0x40 MLOAD DUP1 DUP4 SUB DUP2 DUP6 DUP9 DUP9 CALL SWAP4 POP POP POP POP ISZERO DUP1 ISZERO PUSH2 0x269B JUMPI RETURNDATASIZE PUSH1 0x0 DUP1 RETURNDATACOPY RETURNDATASIZE PUSH1 0x0 REVERT JUMPDEST POP POP PUSH2 0x26DD JUMP JUMPDEST PUSH1 0x40 MLOAD PUSH32 0x8C379A000000000000000000000000000000000000000000000000000000000 DUP2 MSTORE PUSH1 0x4 ADD PUSH2 0x26D4 SWAP1 PUSH2 0x36CC JUMP JUMPDEST PUSH1 0x40 MLOAD DUP1 SWAP2 SUB SWAP1 REVERT JUMPDEST PUSH1 0x1 SWAP1 POP SWAP3 SWAP2 POP POP JUMP JUMPDEST PUSH1 0x0 PUSH1 0x4 PUSH1 0x0 CALLER PUSH20 0xFFFFFFFFFFFFFFFFFFFFFFFFFFFFFFFFFFFFFFFF AND PUSH20 0xFFFFFFFFFFFFFFFFFFFFFFFFFFFFFFFFFFFFFFFF AND DUP2 MSTORE PUSH1 0x20 ADD SWAP1 DUP2 MSTORE PUSH1 0x20 ADD PUSH1 0x0 KECCAK256 SLOAD SWAP1 POP SWAP1 JUMP JUMPDEST PUSH1 0x60 PUSH1 0x2 DUP1 SLOAD DUP1 PUSH1 0x20 MUL PUSH1 0x20 ADD PUSH1 0x40 MLOAD SWAP1 DUP2 ADD PUSH1 0x40 MSTORE DUP1 SWAP3 SWAP2 SWAP1 DUP2 DUP2 MSTORE PUSH1 0x20 ADD DUP3 DUP1 SLOAD DUP1 ISZERO PUSH2 0x277C JUMPI PUSH1 0x20 MUL DUP3 ADD SWAP2 SWAP1 PUSH1 0x0 MSTORE PUSH1 0x20 PUSH1 0x0 KECCAK256 SWAP1 JUMPDEST DUP2 SLOAD DUP2 MSTORE PUSH1 0x20 ADD SWAP1 PUSH1 0x1 ADD SWAP1 DUP1 DUP4 GT PUSH2 0x2768 JUMPI JUMPDEST POP POP POP POP POP SWAP1 POP SWAP1 JUMP JUMPDEST PUSH1 0x60 DUP1 PUSH2 0x2791 PUSH2 0x2EED JUMP JUMPDEST PUSH2 0x279A DUP5 PUSH2 0x2AB0 JUMP JUMPDEST PUSH2 0x27D9 JUMPI PUSH1 0x40 MLOAD PUSH32 0x8C379A000000000000000000000000000000000000000000000000000000000 DUP2 MSTORE PUSH1 0x4 ADD PUSH2 0x27D0 SWAP1 PUSH2 0x364C JUMP JUMPDEST PUSH1 0x40 MLOAD DUP1 SWAP2 SUB SWAP1 REVERT JUMPDEST PUSH1 0x0 PUSH2 0x28B8 PUSH1 0x5 PUSH1 0x0 DUP8 DUP2 MSTORE PUSH1 0x20 ADD SWAP1 DUP2 MSTORE PUSH1 0x20 ADD PUSH1 0x0 KECCAK256 PUSH1 0x0 ADD DUP1 SLOAD PUSH2 0x27FF SWAP1 PUSH2 0x3986 JUMP JUMPDEST DUP1 PUSH1 0x1F ADD PUSH1 0x20 DUP1 SWAP2 DIV MUL PUSH1 0x20 ADD PUSH1 0x40 MLOAD SWAP1 DUP2 ADD PUSH1 0x40 MSTORE DUP1 SWAP3 SWAP2 SWAP1 DUP2 DUP2 MSTORE PUSH1 0x20 ADD DUP3 DUP1 SLOAD PUSH2 0x282B SWAP1 PUSH2 0x3986 JUMP JUMPDEST DUP1 ISZERO PUSH2 0x2878 JUMPI DUP1 PUSH1 0x1F LT PUSH2 0x284D JUMPI PUSH2 0x100 DUP1 DUP4 SLOAD DIV MUL DUP4 MSTORE SWAP2 PUSH1 0x20 ADD SWAP2 PUSH2 0x2878 JUMP JUMPDEST DUP3 ADD SWAP2 SWAP1 PUSH1 0x0 MSTORE PUSH1 0x20 PUSH1 0x0 KECCAK256 SWAP1 JUMPDEST DUP2 SLOAD DUP2 MSTORE SWAP1 PUSH1 0x1 ADD SWAP1 PUSH1 0x20 ADD DUP1 DUP4 GT PUSH2 0x285B JUMPI DUP3 SWAP1 SUB PUSH1 0x1F AND DUP3 ADD SWAP2 JUMPDEST POP POP POP POP POP PUSH1 0x40 MLOAD DUP1 PUSH1 0x40 ADD PUSH1 0x40 MSTORE DUP1 PUSH1 0x4 DUP2 MSTORE PUSH1 0x20 ADD PUSH32 0x2076732000000000000000000000000000000000000000000000000000000000 DUP2 MSTORE POP PUSH2 0x2ADD JUMP JUMPDEST SWAP1 POP PUSH2 0x2962 DUP2 PUSH1 0x5 PUSH1 0x0 DUP9 DUP2 MSTORE PUSH1 0x20 ADD SWAP1 DUP2 MSTORE PUSH1 0x20 ADD PUSH1 0x0 KECCAK256 PUSH1 0x1 ADD DUP1 SLOAD PUSH2 0x28DF SWAP1 PUSH2 0x3986 JUMP JUMPDEST DUP1 PUSH1 0x1F ADD PUSH1 0x20 DUP1 SWAP2 DIV MUL PUSH1 0x20 ADD PUSH1 0x40 MLOAD SWAP1 DUP2 ADD PUSH1 0x40 MSTORE DUP1 SWAP3 SWAP2 SWAP1 DUP2 DUP2 MSTORE PUSH1 0x20 ADD DUP3 DUP1 SLOAD PUSH2 0x290B SWAP1 PUSH2 0x3986 JUMP JUMPDEST DUP1 ISZERO PUSH2 0x2958 JUMPI DUP1 PUSH1 0x1F LT PUSH2 0x292D JUMPI PUSH2 0x100 DUP1 DUP4 SLOAD DIV MUL DUP4 MSTORE SWAP2 PUSH1 0x20 ADD SWAP2 PUSH2 0x2958 JUMP JUMPDEST DUP3 ADD SWAP2 SWAP1 PUSH1 0x0 MSTORE PUSH1 0x20 PUSH1 0x0 KECCAK256 SWAP1 JUMPDEST DUP2 SLOAD DUP2 MSTORE SWAP1 PUSH1 0x1 ADD SWAP1 PUSH1 0x20 ADD DUP1 DUP4 GT PUSH2 0x293B JUMPI DUP3 SWAP1 SUB PUSH1 0x1F AND DUP3 ADD SWAP2 JUMPDEST POP POP POP POP POP PUSH2 0x2ADD JUMP JUMPDEST SWAP4 POP PUSH1 0x0 PUSH1 0x40 MLOAD DUP1 PUSH1 0xA0 ADD PUSH1 0x40 MSTORE DUP1 PUSH1 0x5 PUSH1 0x0 DUP10 DUP2 MSTORE PUSH1 0x20 ADD SWAP1 DUP2 MSTORE PUSH1 0x20 ADD PUSH1 0x0 KECCAK256 PUSH1 0x3 ADD SLOAD DUP2 MSTORE PUSH1 0x20 ADD PUSH1 0x5 PUSH1 0x0 DUP10 DUP2 MSTORE PUSH1 0x20 ADD SWAP1 DUP2 MSTORE PUSH1 0x20 ADD PUSH1 0x0 KECCAK256 PUSH1 0x4 ADD SLOAD DUP2 MSTORE PUSH1 0x20 ADD PUSH1 0x5 PUSH1 0x0 DUP10 DUP2 MSTORE PUSH1 0x20 ADD SWAP1 DUP2 MSTORE PUSH1 0x20 ADD PUSH1 0x0 KECCAK256 PUSH1 0x5 ADD SLOAD DUP2 MSTORE PUSH1 0x20 ADD PUSH1 0x5 PUSH1 0x0 DUP10 DUP2 MSTORE PUSH1 0x20 ADD SWAP1 DUP2 MSTORE PUSH1 0x20 ADD PUSH1 0x0 KECCAK256 PUSH1 0x6 ADD SLOAD DUP2 MSTORE PUSH1 0x20 ADD PUSH1 0x5 PUSH1 0x0 DUP10 DUP2 MSTORE PUSH1 0x20 ADD SWAP1 DUP2 MSTORE PUSH1 0x20 ADD PUSH1 0x0 KECCAK256 PUSH1 0x7 ADD SLOAD DUP2 MSTORE POP SWAP1 POP DUP5 PUSH1 0x5 PUSH1 0x0 DUP9 DUP2 MSTORE PUSH1 0x20 ADD SWAP1 DUP2 MSTORE PUSH1 0x20 ADD PUSH1 0x0 KECCAK256 PUSH1 0x2 ADD DUP3 DUP2 DUP1 SLOAD PUSH2 0x2A21 SWAP1 PUSH2 0x3986 JUMP JUMPDEST DUP1 PUSH1 0x1F ADD PUSH1 0x20 DUP1 SWAP2 DIV MUL PUSH1 0x20 ADD PUSH1 0x40 MLOAD SWAP1 DUP2 ADD PUSH1 0x40 MSTORE DUP1 SWAP3 SWAP2 SWAP1 DUP2 DUP2 MSTORE PUSH1 0x20 ADD DUP3 DUP1 SLOAD PUSH2 0x2A4D SWAP1 PUSH2 0x3986 JUMP JUMPDEST DUP1 ISZERO PUSH2 0x2A9A JUMPI DUP1 PUSH1 0x1F LT PUSH2 0x2A6F JUMPI PUSH2 0x100 DUP1 DUP4 SLOAD DIV MUL DUP4 MSTORE SWAP2 PUSH1 0x20 ADD SWAP2 PUSH2 0x2A9A JUMP JUMPDEST DUP3 ADD SWAP2 SWAP1 PUSH1 0x0 MSTORE PUSH1 0x20 PUSH1 0x0 KECCAK256 SWAP1 JUMPDEST DUP2 SLOAD DUP2 MSTORE SWAP1 PUSH1 0x1 ADD SWAP1 PUSH1 0x20 ADD DUP1 DUP4 GT PUSH2 0x2A7D JUMPI DUP3 SWAP1 SUB PUSH1 0x1F AND DUP3 ADD SWAP2 JUMPDEST POP POP POP POP POP SWAP2 POP SWAP5 POP SWAP5 POP SWAP5 POP POP POP SWAP2 SWAP4 SWAP1 SWAP3 POP JUMP JUMPDEST PUSH1 0x0 PUSH1 0x5 PUSH1 0x0 DUP4 DUP2 MSTORE PUSH1 0x20 ADD SWAP1 DUP2 MSTORE PUSH1 0x20 ADD PUSH1 0x0 KECCAK256 PUSH1 0x8 ADD PUSH1 0x1 SWAP1 SLOAD SWAP1 PUSH2 0x100 EXP SWAP1 DIV PUSH1 0xFF AND SWAP1 POP SWAP2 SWAP1 POP JUMP JUMPDEST PUSH1 0x60 PUSH1 0x0 DUP4 SWAP1 POP PUSH1 0x0 DUP4 SWAP1 POP PUSH1 0x0 DUP2 MLOAD DUP4 MLOAD PUSH2 0x2AF9 SWAP2 SWAP1 PUSH2 0x37DD JUMP JUMPDEST PUSH8 0xFFFFFFFFFFFFFFFF DUP2 GT ISZERO PUSH2 0x2B12 JUMPI PUSH2 0x2B11 PUSH2 0x3AF8 JUMP JUMPDEST JUMPDEST PUSH1 0x40 MLOAD SWAP1 DUP1 DUP3 MSTORE DUP1 PUSH1 0x1F ADD PUSH1 0x1F NOT AND PUSH1 0x20 ADD DUP3 ADD PUSH1 0x40 MSTORE DUP1 ISZERO PUSH2 0x2B44 JUMPI DUP2 PUSH1 0x20 ADD PUSH1 0x1 DUP3 MUL DUP1 CALLDATASIZE DUP4 CALLDATACOPY DUP1 DUP3 ADD SWAP2 POP POP SWAP1 POP JUMPDEST POP SWAP1 POP PUSH1 0x0 DUP2 SWAP1 POP PUSH1 0x0 DUP1 JUMPDEST DUP6 MLOAD DUP2 LT ISZERO PUSH2 0x2BD8 JUMPI DUP6 DUP2 DUP2 MLOAD DUP2 LT PUSH2 0x2B6C JUMPI PUSH2 0x2B6B PUSH2 0x3AC9 JUMP JUMPDEST JUMPDEST PUSH1 0x20 ADD ADD MLOAD PUSH1 0xF8 SHR PUSH1 0xF8 SHL DUP4 DUP4 DUP1 PUSH2 0x2B83 SWAP1 PUSH2 0x39E9 JUMP JUMPDEST SWAP5 POP DUP2 MLOAD DUP2 LT PUSH2 0x2B96 JUMPI PUSH2 0x2B95 PUSH2 0x3AC9 JUMP JUMPDEST JUMPDEST PUSH1 0x20 ADD ADD SWAP1 PUSH31 0xFFFFFFFFFFFFFFFFFFFFFFFFFFFFFFFFFFFFFFFFFFFFFFFFFFFFFFFFFFFFFF NOT AND SWAP1 DUP2 PUSH1 0x0 BYTE SWAP1 MSTORE8 POP DUP1 DUP1 PUSH2 0x2BD0 SWAP1 PUSH2 0x39E9 JUMP JUMPDEST SWAP2 POP POP PUSH2 0x2B50 JUMP JUMPDEST POP PUSH1 0x0 JUMPDEST DUP5 MLOAD DUP2 LT ISZERO PUSH2 0x2C64 JUMPI DUP5 DUP2 DUP2 MLOAD DUP2 LT PUSH2 0x2BF8 JUMPI PUSH2 0x2BF7 PUSH2 0x3AC9 JUMP JUMPDEST JUMPDEST PUSH1 0x20 ADD ADD MLOAD PUSH1 0xF8 SHR PUSH1 0xF8 SHL DUP4 DUP4 DUP1 PUSH2 0x2C0F SWAP1 PUSH2 0x39E9 JUMP JUMPDEST SWAP5 POP DUP2 MLOAD DUP2 LT PUSH2 0x2C22 JUMPI PUSH2 0x2C21 PUSH2 0x3AC9 JUMP JUMPDEST JUMPDEST PUSH1 0x20 ADD ADD SWAP1 PUSH31 0xFFFFFFFFFFFFFFFFFFFFFFFFFFFFFFFFFFFFFFFFFFFFFFFFFFFFFFFFFFFFFF NOT AND SWAP1 DUP2 PUSH1 0x0 BYTE SWAP1 MSTORE8 POP DUP1 DUP1 PUSH2 0x2C5C SWAP1 PUSH2 0x39E9 JUMP JUMPDEST SWAP2 POP POP PUSH2 0x2BDC JUMP JUMPDEST POP DUP3 SWAP6 POP POP POP POP POP POP SWAP3 SWAP2 POP POP JUMP JUMPDEST PUSH1 0x0 DUP1 DUP4 EQ ISZERO PUSH2 0x2C86 JUMPI PUSH1 0x0 SWAP1 POP PUSH2 0x2CB2 JUMP JUMPDEST PUSH1 0x0 DUP3 DUP5 PUSH2 0x2C94 SWAP2 SWAP1 PUSH2 0x3864 JUMP JUMPDEST SWAP1 POP DUP3 DUP5 DUP3 PUSH2 0x2CA3 SWAP2 SWAP1 PUSH2 0x3833 JUMP JUMPDEST EQ PUSH2 0x2CAD JUMPI PUSH1 0x0 DUP1 REVERT JUMPDEST DUP1 SWAP2 POP POP JUMPDEST SWAP3 SWAP2 POP POP JUMP JUMPDEST PUSH1 0x60 PUSH1 0x0 PUSH1 0x40 MLOAD DUP1 PUSH1 0x40 ADD PUSH1 0x40 MSTORE DUP1 PUSH1 0x10 DUP2 MSTORE PUSH1 0x20 ADD PUSH32 0x3031323334353637383961626364656600000000000000000000000000000000 DUP2 MSTORE POP SWAP1 POP PUSH1 0x0 DUP4 PUSH1 0x40 MLOAD PUSH1 0x20 ADD PUSH2 0x2D07 SWAP2 SWAP1 PUSH2 0x354B JUMP JUMPDEST PUSH1 0x40 MLOAD PUSH1 0x20 DUP2 DUP4 SUB SUB DUP2 MSTORE SWAP1 PUSH1 0x40 MSTORE SWAP1 POP PUSH1 0x0 PUSH1 0x1 PUSH8 0xFFFFFFFFFFFFFFFF DUP2 GT ISZERO PUSH2 0x2D35 JUMPI PUSH2 0x2D34 PUSH2 0x3AF8 JUMP JUMPDEST JUMPDEST PUSH1 0x40 MLOAD SWAP1 DUP1 DUP3 MSTORE DUP1 PUSH1 0x1F ADD PUSH1 0x1F NOT AND PUSH1 0x20 ADD DUP3 ADD PUSH1 0x40 MSTORE DUP1 ISZERO PUSH2 0x2D67 JUMPI DUP2 PUSH1 0x20 ADD PUSH1 0x1 DUP3 MUL DUP1 CALLDATASIZE DUP4 CALLDATACOPY DUP1 DUP3 ADD SWAP2 POP POP SWAP1 POP JUMPDEST POP SWAP1 POP PUSH1 0x0 PUSH1 0x1 DUP4 MLOAD PUSH2 0x2D7A SWAP2 SWAP1 PUSH2 0x38BE JUMP JUMPDEST SWAP1 POP DUP4 PUSH1 0xF PUSH1 0xF8 SHL DUP5 DUP4 DUP2 MLOAD DUP2 LT PUSH2 0x2D95 JUMPI PUSH2 0x2D94 PUSH2 0x3AC9 JUMP JUMPDEST JUMPDEST PUSH1 0x20 ADD ADD MLOAD PUSH1 0xF8 SHR PUSH1 0xF8 SHL AND PUSH1 0xF8 SHR PUSH1 0xFF AND DUP2 MLOAD DUP2 LT PUSH2 0x2DB8 JUMPI PUSH2 0x2DB7 PUSH2 0x3AC9 JUMP JUMPDEST JUMPDEST PUSH1 0x20 ADD ADD MLOAD PUSH1 0xF8 SHR PUSH1 0xF8 SHL DUP3 PUSH1 0x0 DUP2 MLOAD DUP2 LT PUSH2 0x2DD7 JUMPI PUSH2 0x2DD6 PUSH2 0x3AC9 JUMP JUMPDEST JUMPDEST PUSH1 0x20 ADD ADD SWAP1 PUSH31 0xFFFFFFFFFFFFFFFFFFFFFFFFFFFFFFFFFFFFFFFFFFFFFFFFFFFFFFFFFFFFFF NOT AND SWAP1 DUP2 PUSH1 0x0 BYTE SWAP1 MSTORE8 POP DUP2 SWAP5 POP POP POP POP POP SWAP2 SWAP1 POP JUMP JUMPDEST DUP3 DUP1 SLOAD PUSH2 0x2E1E SWAP1 PUSH2 0x3986 JUMP JUMPDEST SWAP1 PUSH1 0x0 MSTORE PUSH1 0x20 PUSH1 0x0 KECCAK256 SWAP1 PUSH1 0x1F ADD PUSH1 0x20 SWAP1 DIV DUP2 ADD SWAP3 DUP3 PUSH2 0x2E40 JUMPI PUSH1 0x0 DUP6 SSTORE PUSH2 0x2E87 JUMP JUMPDEST DUP3 PUSH1 0x1F LT PUSH2 0x2E59 JUMPI DUP1 MLOAD PUSH1 0xFF NOT AND DUP4 DUP1 ADD OR DUP6 SSTORE PUSH2 0x2E87 JUMP JUMPDEST DUP3 DUP1 ADD PUSH1 0x1 ADD DUP6 SSTORE DUP3 ISZERO PUSH2 0x2E87 JUMPI SWAP2 DUP3 ADD JUMPDEST DUP3 DUP2 GT ISZERO PUSH2 0x2E86 JUMPI DUP3 MLOAD DUP3 SSTORE SWAP2 PUSH1 0x20 ADD SWAP2 SWAP1 PUSH1 0x1 ADD SWAP1 PUSH2 0x2E6B JUMP JUMPDEST JUMPDEST POP SWAP1 POP PUSH2 0x2E94 SWAP2 SWAP1 PUSH2 0x2F1C JUMP JUMPDEST POP SWAP1 JUMP JUMPDEST PUSH1 0x40 MLOAD DUP1 PUSH1 0xE0 ADD PUSH1 0x40 MSTORE DUP1 PUSH1 0x0 DUP2 MSTORE PUSH1 0x20 ADD PUSH1 0x0 DUP2 MSTORE PUSH1 0x20 ADD PUSH1 0x0 DUP2 MSTORE PUSH1 0x20 ADD PUSH1 0x0 DUP2 MSTORE PUSH1 0x20 ADD PUSH1 0x0 PUSH20 0xFFFFFFFFFFFFFFFFFFFFFFFFFFFFFFFFFFFFFFFF AND DUP2 MSTORE PUSH1 0x20 ADD PUSH1 0x60 DUP2 MSTORE PUSH1 0x20 ADD PUSH1 0x0 ISZERO ISZERO DUP2 MSTORE POP SWAP1 JUMP JUMPDEST PUSH1 0x40 MLOAD DUP1 PUSH1 0xA0 ADD PUSH1 0x40 MSTORE DUP1 PUSH1 0x0 DUP2 MSTORE PUSH1 0x20 ADD PUSH1 0x0 DUP2 MSTORE PUSH1 0x20 ADD PUSH1 0x0 DUP2 MSTORE PUSH1 0x20 ADD PUSH1 0x0 DUP2 MSTORE PUSH1 0x20 ADD PUSH1 0x0 DUP2 MSTORE POP SWAP1 JUMP JUMPDEST JUMPDEST DUP1 DUP3 GT ISZERO PUSH2 0x2F35 JUMPI PUSH1 0x0 DUP2 PUSH1 0x0 SWAP1 SSTORE POP PUSH1 0x1 ADD PUSH2 0x2F1D JUMP JUMPDEST POP SWAP1 JUMP JUMPDEST PUSH1 0x0 PUSH2 0x2F4C PUSH2 0x2F47 DUP5 PUSH2 0x374C JUMP JUMPDEST PUSH2 0x3727 JUMP JUMPDEST SWAP1 POP DUP3 DUP2 MSTORE PUSH1 0x20 DUP2 ADD DUP5 DUP5 DUP5 ADD GT ISZERO PUSH2 0x2F68 JUMPI PUSH2 0x2F67 PUSH2 0x3B2C JUMP JUMPDEST JUMPDEST PUSH2 0x2F73 DUP5 DUP3 DUP6 PUSH2 0x3944 JUMP JUMPDEST POP SWAP4 SWAP3 POP POP POP JUMP JUMPDEST PUSH1 0x0 DUP2 CALLDATALOAD SWAP1 POP PUSH2 0x2F8A DUP2 PUSH2 0x3C6B JUMP JUMPDEST SWAP3 SWAP2 POP POP JUMP JUMPDEST PUSH1 0x0 DUP2 CALLDATALOAD SWAP1 POP PUSH2 0x2F9F DUP2 PUSH2 0x3C82 JUMP JUMPDEST SWAP3 SWAP2 POP POP JUMP JUMPDEST PUSH1 0x0 DUP2 CALLDATALOAD SWAP1 POP PUSH2 0x2FB4 DUP2 PUSH2 0x3C99 JUMP JUMPDEST SWAP3 SWAP2 POP POP JUMP JUMPDEST PUSH1 0x0 DUP3 PUSH1 0x1F DUP4 ADD SLT PUSH2 0x2FCF JUMPI PUSH2 0x2FCE PUSH2 0x3B27 JUMP JUMPDEST JUMPDEST DUP2 CALLDATALOAD PUSH2 0x2FDF DUP5 DUP3 PUSH1 0x20 DUP7 ADD PUSH2 0x2F39 JUMP JUMPDEST SWAP2 POP POP SWAP3 SWAP2 POP POP JUMP JUMPDEST PUSH1 0x0 DUP2 CALLDATALOAD SWAP1 POP PUSH2 0x2FF7 DUP2 PUSH2 0x3CB0 JUMP JUMPDEST SWAP3 SWAP2 POP POP JUMP JUMPDEST PUSH1 0x0 PUSH1 0x20 DUP3 DUP5 SUB SLT ISZERO PUSH2 0x3013 JUMPI PUSH2 0x3012 PUSH2 0x3B36 JUMP JUMPDEST JUMPDEST PUSH1 0x0 PUSH2 0x3021 DUP5 DUP3 DUP6 ADD PUSH2 0x2F7B JUMP JUMPDEST SWAP2 POP POP SWAP3 SWAP2 POP POP JUMP JUMPDEST PUSH1 0x0 DUP1 PUSH1 0x40 DUP4 DUP6 SUB SLT ISZERO PUSH2 0x3041 JUMPI PUSH2 0x3040 PUSH2 0x3B36 JUMP JUMPDEST JUMPDEST PUSH1 0x0 PUSH2 0x304F DUP6 DUP3 DUP7 ADD PUSH2 0x2F7B JUMP JUMPDEST SWAP3 POP POP PUSH1 0x20 PUSH2 0x3060 DUP6 DUP3 DUP7 ADD PUSH2 0x2FA5 JUMP JUMPDEST SWAP2 POP POP SWAP3 POP SWAP3 SWAP1 POP JUMP JUMPDEST PUSH1 0x0 DUP1 PUSH1 0x40 DUP4 DUP6 SUB SLT ISZERO PUSH2 0x3081 JUMPI PUSH2 0x3080 PUSH2 0x3B36 JUMP JUMPDEST JUMPDEST PUSH1 0x0 PUSH2 0x308F DUP6 DUP3 DUP7 ADD PUSH2 0x2F7B JUMP JUMPDEST SWAP3 POP POP PUSH1 0x20 PUSH2 0x30A0 DUP6 DUP3 DUP7 ADD PUSH2 0x2FE8 JUMP JUMPDEST SWAP2 POP POP SWAP3 POP SWAP3 SWAP1 POP JUMP JUMPDEST PUSH1 0x0 DUP1 PUSH1 0x0 DUP1 PUSH1 0x0 DUP1 PUSH1 0xC0 DUP8 DUP10 SUB SLT ISZERO PUSH2 0x30C7 JUMPI PUSH2 0x30C6 PUSH2 0x3B36 JUMP JUMPDEST JUMPDEST PUSH1 0x0 PUSH2 0x30D5 DUP10 DUP3 DUP11 ADD PUSH2 0x2F7B JUMP JUMPDEST SWAP7 POP POP PUSH1 0x20 PUSH2 0x30E6 DUP10 DUP3 DUP11 ADD PUSH2 0x2FE8 JUMP JUMPDEST SWAP6 POP POP PUSH1 0x40 PUSH2 0x30F7 DUP10 DUP3 DUP11 ADD PUSH2 0x2FA5 JUMP JUMPDEST SWAP5 POP POP PUSH1 0x60 PUSH2 0x3108 DUP10 DUP3 DUP11 ADD PUSH2 0x2FE8 JUMP JUMPDEST SWAP4 POP POP PUSH1 0x80 PUSH2 0x3119 DUP10 DUP3 DUP11 ADD PUSH2 0x2FE8 JUMP JUMPDEST SWAP3 POP POP PUSH1 0xA0 PUSH2 0x312A DUP10 DUP3 DUP11 ADD PUSH2 0x2FE8 JUMP JUMPDEST SWAP2 POP POP SWAP3 SWAP6 POP SWAP3 SWAP6 POP SWAP3 SWAP6 JUMP JUMPDEST PUSH1 0x0 PUSH1 0x20 DUP3 DUP5 SUB SLT ISZERO PUSH2 0x314D JUMPI PUSH2 0x314C PUSH2 0x3B36 JUMP JUMPDEST JUMPDEST PUSH1 0x0 PUSH2 0x315B DUP5 DUP3 DUP6 ADD PUSH2 0x2FA5 JUMP JUMPDEST SWAP2 POP POP SWAP3 SWAP2 POP POP JUMP JUMPDEST PUSH1 0x0 DUP1 PUSH1 0x0 DUP1 PUSH1 0x80 DUP6 DUP8 SUB SLT ISZERO PUSH2 0x317E JUMPI PUSH2 0x317D PUSH2 0x3B36 JUMP JUMPDEST JUMPDEST PUSH1 0x0 PUSH2 0x318C DUP8 DUP3 DUP9 ADD PUSH2 0x2FA5 JUMP JUMPDEST SWAP5 POP POP PUSH1 0x20 PUSH2 0x319D DUP8 DUP3 DUP9 ADD PUSH2 0x2FE8 JUMP JUMPDEST SWAP4 POP POP PUSH1 0x40 PUSH2 0x31AE DUP8 DUP3 DUP9 ADD PUSH2 0x2FE8 JUMP JUMPDEST SWAP3 POP POP PUSH1 0x60 PUSH2 0x31BF DUP8 DUP3 DUP9 ADD PUSH2 0x2FE8 JUMP JUMPDEST SWAP2 POP POP SWAP3 SWAP6 SWAP2 SWAP5 POP SWAP3 POP JUMP JUMPDEST PUSH1 0x0 DUP1 PUSH1 0x0 DUP1 PUSH1 0x80 DUP6 DUP8 SUB SLT ISZERO PUSH2 0x31E5 JUMPI PUSH2 0x31E4 PUSH2 0x3B36 JUMP JUMPDEST JUMPDEST PUSH1 0x0 DUP6 ADD CALLDATALOAD PUSH8 0xFFFFFFFFFFFFFFFF DUP2 GT ISZERO PUSH2 0x3203 JUMPI PUSH2 0x3202 PUSH2 0x3B31 JUMP JUMPDEST JUMPDEST PUSH2 0x320F DUP8 DUP3 DUP9 ADD PUSH2 0x2FBA JUMP JUMPDEST SWAP5 POP POP PUSH1 0x20 DUP6 ADD CALLDATALOAD PUSH8 0xFFFFFFFFFFFFFFFF DUP2 GT ISZERO PUSH2 0x3230 JUMPI PUSH2 0x322F PUSH2 0x3B31 JUMP JUMPDEST JUMPDEST PUSH2 0x323C DUP8 DUP3 DUP9 ADD PUSH2 0x2FBA JUMP JUMPDEST SWAP4 POP POP PUSH1 0x40 DUP6 ADD CALLDATALOAD PUSH8 0xFFFFFFFFFFFFFFFF DUP2 GT ISZERO PUSH2 0x325D JUMPI PUSH2 0x325C PUSH2 0x3B31 JUMP JUMPDEST JUMPDEST PUSH2 0x3269 DUP8 DUP3 DUP9 ADD PUSH2 0x2FBA JUMP JUMPDEST SWAP3 POP POP PUSH1 0x60 PUSH2 0x327A DUP8 DUP3 DUP9 ADD PUSH2 0x2F90 JUMP JUMPDEST SWAP2 POP POP SWAP3 SWAP6 SWAP2 SWAP5 POP SWAP3 POP JUMP JUMPDEST PUSH1 0x0 PUSH2 0x3292 DUP4 DUP4 PUSH2 0x331A JUMP JUMPDEST PUSH1 0x20 DUP4 ADD SWAP1 POP SWAP3 SWAP2 POP POP JUMP JUMPDEST PUSH2 0x32A7 DUP2 PUSH2 0x38F2 JUMP JUMPDEST DUP3 MSTORE POP POP JUMP JUMPDEST PUSH1 0x0 PUSH2 0x32B8 DUP3 PUSH2 0x378D JUMP JUMPDEST PUSH2 0x32C2 DUP2 DUP6 PUSH2 0x37B0 JUMP JUMPDEST SWAP4 POP PUSH2 0x32CD DUP4 PUSH2 0x377D JUMP JUMPDEST DUP1 PUSH1 0x0 JUMPDEST DUP4 DUP2 LT ISZERO PUSH2 0x32FE JUMPI DUP2 MLOAD PUSH2 0x32E5 DUP9 DUP3 PUSH2 0x3286 JUMP JUMPDEST SWAP8 POP PUSH2 0x32F0 DUP4 PUSH2 0x37A3 JUMP JUMPDEST SWAP3 POP POP PUSH1 0x1 DUP2 ADD SWAP1 POP PUSH2 0x32D1 JUMP JUMPDEST POP DUP6 SWAP4 POP POP POP POP SWAP3 SWAP2 POP POP JUMP JUMPDEST PUSH2 0x3314 DUP2 PUSH2 0x3904 JUMP JUMPDEST DUP3 MSTORE POP POP JUMP JUMPDEST PUSH2 0x3323 DUP2 PUSH2 0x3910 JUMP JUMPDEST DUP3 MSTORE POP POP JUMP JUMPDEST PUSH2 0x3332 DUP2 PUSH2 0x3910 JUMP JUMPDEST DUP3 MSTORE POP POP JUMP JUMPDEST PUSH1 0x0 PUSH2 0x3343 DUP3 PUSH2 0x3798 JUMP JUMPDEST PUSH2 0x334D DUP2 DUP6 PUSH2 0x37C1 JUMP JUMPDEST SWAP4 POP PUSH2 0x335D DUP2 DUP6 PUSH1 0x20 DUP7 ADD PUSH2 0x3953 JUMP JUMPDEST PUSH2 0x3366 DUP2 PUSH2 0x3B3B JUMP JUMPDEST DUP5 ADD SWAP2 POP POP SWAP3 SWAP2 POP POP JUMP JUMPDEST PUSH1 0x0 PUSH2 0x337C DUP3 PUSH2 0x3798 JUMP JUMPDEST PUSH2 0x3386 DUP2 DUP6 PUSH2 0x37D2 JUMP JUMPDEST SWAP4 POP PUSH2 0x3396 DUP2 DUP6 PUSH1 0x20 DUP7 ADD PUSH2 0x3953 JUMP JUMPDEST DUP1 DUP5 ADD SWAP2 POP POP SWAP3 SWAP2 POP POP JUMP JUMPDEST PUSH1 0x0 PUSH2 0x33AF PUSH1 0x19 DUP4 PUSH2 0x37C1 JUMP JUMPDEST SWAP2 POP PUSH2 0x33BA DUP3 PUSH2 0x3B4C JUMP JUMPDEST PUSH1 0x20 DUP3 ADD SWAP1 POP SWAP2 SWAP1 POP JUMP JUMPDEST PUSH1 0x0 PUSH2 0x33D2 PUSH1 0x9 DUP4 PUSH2 0x37C1 JUMP JUMPDEST SWAP2 POP PUSH2 0x33DD DUP3 PUSH2 0x3B75 JUMP JUMPDEST PUSH1 0x20 DUP3 ADD SWAP1 POP SWAP2 SWAP1 POP JUMP JUMPDEST PUSH1 0x0 PUSH2 0x33F5 PUSH1 0xE DUP4 PUSH2 0x37C1 JUMP JUMPDEST SWAP2 POP PUSH2 0x3400 DUP3 PUSH2 0x3B9E JUMP JUMPDEST PUSH1 0x20 DUP3 ADD SWAP1 POP SWAP2 SWAP1 POP JUMP JUMPDEST PUSH1 0x0 PUSH2 0x3418 PUSH1 0xA DUP4 PUSH2 0x37C1 JUMP JUMPDEST SWAP2 POP PUSH2 0x3423 DUP3 PUSH2 0x3BC7 JUMP JUMPDEST PUSH1 0x20 DUP3 ADD SWAP1 POP SWAP2 SWAP1 POP JUMP JUMPDEST PUSH1 0x0 PUSH2 0x343B PUSH1 0x15 DUP4 PUSH2 0x37C1 JUMP JUMPDEST SWAP2 POP PUSH2 0x3446 DUP3 PUSH2 0x3BF0 JUMP JUMPDEST PUSH1 0x20 DUP3 ADD SWAP1 POP SWAP2 SWAP1 POP JUMP JUMPDEST PUSH1 0x0 PUSH2 0x345E PUSH1 0x15 DUP4 PUSH2 0x37C1 JUMP JUMPDEST SWAP2 POP PUSH2 0x3469 DUP3 PUSH2 0x3C19 JUMP JUMPDEST PUSH1 0x20 DUP3 ADD SWAP1 POP SWAP2 SWAP1 POP JUMP JUMPDEST PUSH1 0x0 PUSH2 0x3481 PUSH1 0x11 DUP4 PUSH2 0x37C1 JUMP JUMPDEST SWAP2 POP PUSH2 0x348C DUP3 PUSH2 0x3C42 JUMP JUMPDEST PUSH1 0x20 DUP3 ADD SWAP1 POP SWAP2 SWAP1 POP JUMP JUMPDEST PUSH1 0xA0 DUP3 ADD PUSH1 0x0 DUP3 ADD MLOAD PUSH2 0x34AD PUSH1 0x0 DUP6 ADD DUP3 PUSH2 0x34FF JUMP JUMPDEST POP PUSH1 0x20 DUP3 ADD MLOAD PUSH2 0x34C0 PUSH1 0x20 DUP6 ADD DUP3 PUSH2 0x34FF JUMP JUMPDEST POP PUSH1 0x40 DUP3 ADD MLOAD PUSH2 0x34D3 PUSH1 0x40 DUP6 ADD DUP3 PUSH2 0x34FF JUMP JUMPDEST POP PUSH1 0x60 DUP3 ADD MLOAD PUSH2 0x34E6 PUSH1 0x60 DUP6 ADD DUP3 PUSH2 0x34FF JUMP JUMPDEST POP PUSH1 0x80 DUP3 ADD MLOAD PUSH2 0x34F9 PUSH1 0x80 DUP6 ADD DUP3 PUSH2 0x34FF JUMP JUMPDEST POP POP POP POP JUMP JUMPDEST PUSH2 0x3508 DUP2 PUSH2 0x393A JUMP JUMPDEST DUP3 MSTORE POP POP JUMP JUMPDEST PUSH2 0x3517 DUP2 PUSH2 0x393A JUMP JUMPDEST DUP3 MSTORE POP POP JUMP JUMPDEST PUSH2 0x352E PUSH2 0x3529 DUP3 PUSH2 0x393A JUMP JUMPDEST PUSH2 0x3A32 JUMP JUMPDEST DUP3 MSTORE POP POP JUMP JUMPDEST PUSH1 0x0 PUSH2 0x3540 DUP3 DUP5 PUSH2 0x3371 JUMP JUMPDEST SWAP2 POP DUP2 SWAP1 POP SWAP3 SWAP2 POP POP JUMP JUMPDEST PUSH1 0x0 PUSH2 0x3557 DUP3 DUP5 PUSH2 0x351D JUMP JUMPDEST PUSH1 0x20 DUP3 ADD SWAP2 POP DUP2 SWAP1 POP SWAP3 SWAP2 POP POP JUMP JUMPDEST PUSH1 0x0 PUSH1 0x40 DUP3 ADD SWAP1 POP PUSH2 0x357B PUSH1 0x0 DUP4 ADD DUP6 PUSH2 0x329E JUMP JUMPDEST PUSH2 0x3588 PUSH1 0x20 DUP4 ADD DUP5 PUSH2 0x350E JUMP JUMPDEST SWAP4 SWAP3 POP POP POP JUMP JUMPDEST PUSH1 0x0 PUSH1 0x20 DUP3 ADD SWAP1 POP DUP2 DUP2 SUB PUSH1 0x0 DUP4 ADD MSTORE PUSH2 0x35A9 DUP2 DUP5 PUSH2 0x32AD JUMP JUMPDEST SWAP1 POP SWAP3 SWAP2 POP POP JUMP JUMPDEST PUSH1 0x0 PUSH1 0x20 DUP3 ADD SWAP1 POP PUSH2 0x35C6 PUSH1 0x0 DUP4 ADD DUP5 PUSH2 0x330B JUMP JUMPDEST SWAP3 SWAP2 POP POP JUMP JUMPDEST PUSH1 0x0 PUSH1 0x20 DUP3 ADD SWAP1 POP PUSH2 0x35E1 PUSH1 0x0 DUP4 ADD DUP5 PUSH2 0x3329 JUMP JUMPDEST SWAP3 SWAP2 POP POP JUMP JUMPDEST PUSH1 0x0 PUSH1 0xE0 DUP3 ADD SWAP1 POP DUP2 DUP2 SUB PUSH1 0x0 DUP4 ADD MSTORE PUSH2 0x3601 DUP2 DUP7 PUSH2 0x3338 JUMP JUMPDEST SWAP1 POP DUP2 DUP2 SUB PUSH1 0x20 DUP4 ADD MSTORE PUSH2 0x3615 DUP2 DUP6 PUSH2 0x3338 JUMP JUMPDEST SWAP1 POP PUSH2 0x3624 PUSH1 0x40 DUP4 ADD DUP5 PUSH2 0x3497 JUMP JUMPDEST SWAP5 SWAP4 POP POP POP POP JUMP JUMPDEST PUSH1 0x0 PUSH1 0x20 DUP3 ADD SWAP1 POP DUP2 DUP2 SUB PUSH1 0x0 DUP4 ADD MSTORE PUSH2 0x3645 DUP2 PUSH2 0x33A2 JUMP JUMPDEST SWAP1 POP SWAP2 SWAP1 POP JUMP JUMPDEST PUSH1 0x0 PUSH1 0x20 DUP3 ADD SWAP1 POP DUP2 DUP2 SUB PUSH1 0x0 DUP4 ADD MSTORE PUSH2 0x3665 DUP2 PUSH2 0x33C5 JUMP JUMPDEST SWAP1 POP SWAP2 SWAP1 POP JUMP JUMPDEST PUSH1 0x0 PUSH1 0x20 DUP3 ADD SWAP1 POP DUP2 DUP2 SUB PUSH1 0x0 DUP4 ADD MSTORE PUSH2 0x3685 DUP2 PUSH2 0x33E8 JUMP JUMPDEST SWAP1 POP SWAP2 SWAP1 POP JUMP JUMPDEST PUSH1 0x0 PUSH1 0x20 DUP3 ADD SWAP1 POP DUP2 DUP2 SUB PUSH1 0x0 DUP4 ADD MSTORE PUSH2 0x36A5 DUP2 PUSH2 0x340B JUMP JUMPDEST SWAP1 POP SWAP2 SWAP1 POP JUMP JUMPDEST PUSH1 0x0 PUSH1 0x20 DUP3 ADD SWAP1 POP DUP2 DUP2 SUB PUSH1 0x0 DUP4 ADD MSTORE PUSH2 0x36C5 DUP2 PUSH2 0x342E JUMP JUMPDEST SWAP1 POP SWAP2 SWAP1 POP JUMP JUMPDEST PUSH1 0x0 PUSH1 0x20 DUP3 ADD SWAP1 POP DUP2 DUP2 SUB PUSH1 0x0 DUP4 ADD MSTORE PUSH2 0x36E5 DUP2 PUSH2 0x3451 JUMP JUMPDEST SWAP1 POP SWAP2 SWAP1 POP JUMP JUMPDEST PUSH1 0x0 PUSH1 0x20 DUP3 ADD SWAP1 POP DUP2 DUP2 SUB PUSH1 0x0 DUP4 ADD MSTORE PUSH2 0x3705 DUP2 PUSH2 0x3474 JUMP JUMPDEST SWAP1 POP SWAP2 SWAP1 POP JUMP JUMPDEST PUSH1 0x0 PUSH1 0x20 DUP3 ADD SWAP1 POP PUSH2 0x3721 PUSH1 0x0 DUP4 ADD DUP5 PUSH2 0x350E JUMP JUMPDEST SWAP3 SWAP2 POP POP JUMP JUMPDEST PUSH1 0x0 PUSH2 0x3731 PUSH2 0x3742 JUMP JUMPDEST SWAP1 POP PUSH2 0x373D DUP3 DUP3 PUSH2 0x39B8 JUMP JUMPDEST SWAP2 SWAP1 POP JUMP JUMPDEST PUSH1 0x0 PUSH1 0x40 MLOAD SWAP1 POP SWAP1 JUMP JUMPDEST PUSH1 0x0 PUSH8 0xFFFFFFFFFFFFFFFF DUP3 GT ISZERO PUSH2 0x3767 JUMPI PUSH2 0x3766 PUSH2 0x3AF8 JUMP JUMPDEST JUMPDEST PUSH2 0x3770 DUP3 PUSH2 0x3B3B JUMP JUMPDEST SWAP1 POP PUSH1 0x20 DUP2 ADD SWAP1 POP SWAP2 SWAP1 POP JUMP JUMPDEST PUSH1 0x0 DUP2 SWAP1 POP PUSH1 0x20 DUP3 ADD SWAP1 POP SWAP2 SWAP1 POP JUMP JUMPDEST PUSH1 0x0 DUP2 MLOAD SWAP1 POP SWAP2 SWAP1 POP JUMP JUMPDEST PUSH1 0x0 DUP2 MLOAD SWAP1 POP SWAP2 SWAP1 POP JUMP JUMPDEST PUSH1 0x0 PUSH1 0x20 DUP3 ADD SWAP1 POP SWAP2 SWAP1 POP JUMP JUMPDEST PUSH1 0x0 DUP3 DUP3 MSTORE PUSH1 0x20 DUP3 ADD SWAP1 POP SWAP3 SWAP2 POP POP JUMP JUMPDEST PUSH1 0x0 DUP3 DUP3 MSTORE PUSH1 0x20 DUP3 ADD SWAP1 POP SWAP3 SWAP2 POP POP JUMP JUMPDEST PUSH1 0x0 DUP2 SWAP1 POP SWAP3 SWAP2 POP POP JUMP JUMPDEST PUSH1 0x0 PUSH2 0x37E8 DUP3 PUSH2 0x393A JUMP JUMPDEST SWAP2 POP PUSH2 0x37F3 DUP4 PUSH2 0x393A JUMP JUMPDEST SWAP3 POP DUP3 PUSH32 0xFFFFFFFFFFFFFFFFFFFFFFFFFFFFFFFFFFFFFFFFFFFFFFFFFFFFFFFFFFFFFFFF SUB DUP3 GT ISZERO PUSH2 0x3828 JUMPI PUSH2 0x3827 PUSH2 0x3A3C JUMP JUMPDEST JUMPDEST DUP3 DUP3 ADD SWAP1 POP SWAP3 SWAP2 POP POP JUMP JUMPDEST PUSH1 0x0 PUSH2 0x383E DUP3 PUSH2 0x393A JUMP JUMPDEST SWAP2 POP PUSH2 0x3849 DUP4 PUSH2 0x393A JUMP JUMPDEST SWAP3 POP DUP3 PUSH2 0x3859 JUMPI PUSH2 0x3858 PUSH2 0x3A6B JUMP JUMPDEST JUMPDEST DUP3 DUP3 DIV SWAP1 POP SWAP3 SWAP2 POP POP JUMP JUMPDEST PUSH1 0x0 PUSH2 0x386F DUP3 PUSH2 0x393A JUMP JUMPDEST SWAP2 POP PUSH2 0x387A DUP4 PUSH2 0x393A JUMP JUMPDEST SWAP3 POP DUP2 PUSH32 0xFFFFFFFFFFFFFFFFFFFFFFFFFFFFFFFFFFFFFFFFFFFFFFFFFFFFFFFFFFFFFFFF DIV DUP4 GT DUP3 ISZERO ISZERO AND ISZERO PUSH2 0x38B3 JUMPI PUSH2 0x38B2 PUSH2 0x3A3C JUMP JUMPDEST JUMPDEST DUP3 DUP3 MUL SWAP1 POP SWAP3 SWAP2 POP POP JUMP JUMPDEST PUSH1 0x0 PUSH2 0x38C9 DUP3 PUSH2 0x393A JUMP JUMPDEST SWAP2 POP PUSH2 0x38D4 DUP4 PUSH2 0x393A JUMP JUMPDEST SWAP3 POP DUP3 DUP3 LT ISZERO PUSH2 0x38E7 JUMPI PUSH2 0x38E6 PUSH2 0x3A3C JUMP JUMPDEST JUMPDEST DUP3 DUP3 SUB SWAP1 POP SWAP3 SWAP2 POP POP JUMP JUMPDEST PUSH1 0x0 PUSH2 0x38FD DUP3 PUSH2 0x391A JUMP JUMPDEST SWAP1 POP SWAP2 SWAP1 POP JUMP JUMPDEST PUSH1 0x0 DUP2 ISZERO ISZERO SWAP1 POP SWAP2 SWAP1 POP JUMP JUMPDEST PUSH1 0x0 DUP2 SWAP1 POP SWAP2 SWAP1 POP JUMP JUMPDEST PUSH1 0x0 PUSH20 0xFFFFFFFFFFFFFFFFFFFFFFFFFFFFFFFFFFFFFFFF DUP3 AND SWAP1 POP SWAP2 SWAP1 POP JUMP JUMPDEST PUSH1 0x0 DUP2 SWAP1 POP SWAP2 SWAP1 POP JUMP JUMPDEST DUP3 DUP2 DUP4 CALLDATACOPY PUSH1 0x0 DUP4 DUP4 ADD MSTORE POP POP POP JUMP JUMPDEST PUSH1 0x0 JUMPDEST DUP4 DUP2 LT ISZERO PUSH2 0x3971 JUMPI DUP1 DUP3 ADD MLOAD DUP2 DUP5 ADD MSTORE PUSH1 0x20 DUP2 ADD SWAP1 POP PUSH2 0x3956 JUMP JUMPDEST DUP4 DUP2 GT ISZERO PUSH2 0x3980 JUMPI PUSH1 0x0 DUP5 DUP5 ADD MSTORE JUMPDEST POP POP POP POP JUMP JUMPDEST PUSH1 0x0 PUSH1 0x2 DUP3 DIV SWAP1 POP PUSH1 0x1 DUP3 AND DUP1 PUSH2 0x399E JUMPI PUSH1 0x7F DUP3 AND SWAP2 POP JUMPDEST PUSH1 0x20 DUP3 LT DUP2 EQ ISZERO PUSH2 0x39B2 JUMPI PUSH2 0x39B1 PUSH2 0x3A9A JUMP JUMPDEST JUMPDEST POP SWAP2 SWAP1 POP JUMP JUMPDEST PUSH2 0x39C1 DUP3 PUSH2 0x3B3B JUMP JUMPDEST DUP2 ADD DUP2 DUP2 LT PUSH8 0xFFFFFFFFFFFFFFFF DUP3 GT OR ISZERO PUSH2 0x39E0 JUMPI PUSH2 0x39DF PUSH2 0x3AF8 JUMP JUMPDEST JUMPDEST DUP1 PUSH1 0x40 MSTORE POP POP POP JUMP JUMPDEST PUSH1 0x0 PUSH2 0x39F4 DUP3 PUSH2 0x393A JUMP JUMPDEST SWAP2 POP PUSH32 0xFFFFFFFFFFFFFFFFFFFFFFFFFFFFFFFFFFFFFFFFFFFFFFFFFFFFFFFFFFFFFFFF DUP3 EQ ISZERO PUSH2 0x3A27 JUMPI PUSH2 0x3A26 PUSH2 0x3A3C JUMP JUMPDEST JUMPDEST PUSH1 0x1 DUP3 ADD SWAP1 POP SWAP2 SWAP1 POP JUMP JUMPDEST PUSH1 0x0 DUP2 SWAP1 POP SWAP2 SWAP1 POP JUMP JUMPDEST PUSH32 0x4E487B7100000000000000000000000000000000000000000000000000000000 PUSH1 0x0 MSTORE PUSH1 0x11 PUSH1 0x4 MSTORE PUSH1 0x24 PUSH1 0x0 REVERT JUMPDEST PUSH32 0x4E487B7100000000000000000000000000000000000000000000000000000000 PUSH1 0x0 MSTORE PUSH1 0x12 PUSH1 0x4 MSTORE PUSH1 0x24 PUSH1 0x0 REVERT JUMPDEST PUSH32 0x4E487B7100000000000000000000000000000000000000000000000000000000 PUSH1 0x0 MSTORE PUSH1 0x22 PUSH1 0x4 MSTORE PUSH1 0x24 PUSH1 0x0 REVERT JUMPDEST PUSH32 0x4E487B7100000000000000000000000000000000000000000000000000000000 PUSH1 0x0 MSTORE PUSH1 0x32 PUSH1 0x4 MSTORE PUSH1 0x24 PUSH1 0x0 REVERT JUMPDEST PUSH32 0x4E487B7100000000000000000000000000000000000000000000000000000000 PUSH1 0x0 MSTORE PUSH1 0x41 PUSH1 0x4 MSTORE PUSH1 0x24 PUSH1 0x0 REVERT JUMPDEST PUSH1 0x0 DUP1 REVERT JUMPDEST PUSH1 0x0 DUP1 REVERT JUMPDEST PUSH1 0x0 DUP1 REVERT JUMPDEST PUSH1 0x0 DUP1 REVERT JUMPDEST PUSH1 0x0 PUSH1 0x1F NOT PUSH1 0x1F DUP4 ADD AND SWAP1 POP SWAP2 SWAP1 POP JUMP JUMPDEST PUSH32 0x4F6E6C79206F776E65722063616E2063616C6C20746869732E00000000000000 PUSH1 0x0 DUP3 ADD MSTORE POP JUMP JUMPDEST PUSH32 0x6E6F742065786973740000000000000000000000000000000000000000000000 PUSH1 0x0 DUP3 ADD MSTORE POP JUMP JUMPDEST PUSH32 0x706F6F6C206E6F74206578697374000000000000000000000000000000000000 PUSH1 0x0 DUP3 ADD MSTORE POP JUMP JUMPDEST PUSH32 0x7061697220657869737400000000000000000000000000000000000000000000 PUSH1 0x0 DUP3 ADD MSTORE POP JUMP JUMPDEST PUSH32 0x706F6F6C20686173206E6F742066696E69736865640000000000000000000000 PUSH1 0x0 DUP3 ADD MSTORE POP JUMP JUMPDEST PUSH32 0x6E6F7420656E6F75676820766F7465416D6F756E740000000000000000000000 PUSH1 0x0 DUP3 ADD MSTORE POP JUMP JUMPDEST PUSH32 0x706F6F6C206861732066696E6973686564000000000000000000000000000000 PUSH1 0x0 DUP3 ADD MSTORE POP JUMP JUMPDEST PUSH2 0x3C74 DUP2 PUSH2 0x38F2 JUMP JUMPDEST DUP2 EQ PUSH2 0x3C7F JUMPI PUSH1 0x0 DUP1 REVERT JUMPDEST POP JUMP JUMPDEST PUSH2 0x3C8B DUP2 PUSH2 0x3904 JUMP JUMPDEST DUP2 EQ PUSH2 0x3C96 JUMPI PUSH1 0x0 DUP1 REVERT JUMPDEST POP JUMP JUMPDEST PUSH2 0x3CA2 DUP2 PUSH2 0x3910 JUMP JUMPDEST DUP2 EQ PUSH2 0x3CAD JUMPI PUSH1 0x0 DUP1 REVERT JUMPDEST POP JUMP JUMPDEST PUSH2 0x3CB9 DUP2 PUSH2 0x393A JUMP JUMPDEST DUP2 EQ PUSH2 0x3CC4 JUMPI PUSH1 0x0 DUP1 REVERT JUMPDEST POP JUMP INVALID LOG2 PUSH5 0x6970667358 0x22 SLT KECCAK256 0xEE 0x4D CALL SWAP12 0xC0 KECCAK256 DUP5 0xB9 CALLVALUE GASPRICE 0x2E 0xD EXP EXP 0xCD 0xC7 BYTE 0xBC AND PUSH5 0x8046BF1F32 CALLDATALOAD PUSH16 0x21B86EB31C64736F6C63430008070033 "
				},
				"gasEstimates": {
					"creation": {
						"codeDepositCost": "3122600",
						"executionCost": "infinite",
						"totalCost": "infinite"
					},
					"external": {
						"Award(bytes32,uint256,uint256,uint256)": "infinite",
						"CheckBasal()": "4696",
						"CheckExpect(bytes32)": "infinite",
						"CheckVoteTickets()": "2592",
						"Picking(address,uint256,bytes32,uint256,uint256,uint256)": "infinite",
						"Set_Pool(string,string,string,bool)": "infinite",
						"Withdrawal(address,bytes32)": "infinite",
						"getAllPoolKeys()": "infinite",
						"getLastBNB()": "4608",
						"getPool(bytes32)": "infinite",
						"voteWithdrawal(address,uint256)": "infinite",
						"withdrawBNBInContract(address)": "infinite"
					},
					"internal": {
						"addressToString(address)": "infinite",
						"bytes32ToString(bytes32)": "infinite",
						"contains(bytes32)": "2304",
						"strConcat(string memory,string memory)": "infinite",
						"stringCompare(string memory,string memory)": "infinite",
						"toString(bytes memory)": "infinite",
						"uint256ToString(uint256)": "infinite"
					}
				},
				"methodIdentifiers": {
					"Award(bytes32,uint256,uint256,uint256)": "74fe9bc2",
					"CheckBasal()": "3e6ff1a2",
					"CheckExpect(bytes32)": "4121855f",
					"CheckVoteTickets()": "baf41269",
					"Picking(address,uint256,bytes32,uint256,uint256,uint256)": "47e4dd27",
					"Set_Pool(string,string,string,bool)": "357965ba",
					"Withdrawal(address,bytes32)": "0ce49053",
					"getAllPoolKeys()": "ea8870c0",
					"getLastBNB()": "0c66b373",
					"getPool(bytes32)": "f6c00927",
					"voteWithdrawal(address,uint256)": "9bd0abf1",
					"withdrawBNBInContract(address)": "2775e02c"
				}
			},
			"storageLayout": {
				"storage": [
					{
						"astId": 198,
						"contract": "wwcc-contracts/contracts/wwccPool.sol:WCPOOL",
						"label": "owner",
						"offset": 0,
						"slot": "0",
						"type": "t_address"
					},
					{
						"astId": 200,
						"contract": "wwcc-contracts/contracts/wwccPool.sol:WCPOOL",
						"label": "nextBasalLast",
						"offset": 0,
						"slot": "1",
						"type": "t_uint256"
					},
					{
						"astId": 203,
						"contract": "wwcc-contracts/contracts/wwccPool.sol:WCPOOL",
						"label": "poolKeys",
						"offset": 0,
						"slot": "2",
						"type": "t_array(t_bytes32)dyn_storage"
					},
					{
						"astId": 205,
						"contract": "wwcc-contracts/contracts/wwccPool.sol:WCPOOL",
						"label": "lastBNB",
						"offset": 0,
						"slot": "3",
						"type": "t_uint256"
					},
					{
						"astId": 209,
						"contract": "wwcc-contracts/contracts/wwccPool.sol:WCPOOL",
						"label": "voteAmount",
						"offset": 0,
						"slot": "4",
						"type": "t_mapping(t_address,t_uint256)"
					},
					{
						"astId": 214,
						"contract": "wwcc-contracts/contracts/wwccPool.sol:WCPOOL",
						"label": "WcPools",
						"offset": 0,
						"slot": "5",
						"type": "t_mapping(t_bytes32,t_struct(WcPool)153_storage)"
					},
					{
						"astId": 219,
						"contract": "wwcc-contracts/contracts/wwccPool.sol:WCPOOL",
						"label": "allScorePoolInfo",
						"offset": 0,
						"slot": "6",
						"type": "t_mapping(t_bytes32,t_struct(AllScorePool)171_storage)"
					},
					{
						"astId": 223,
						"contract": "wwcc-contracts/contracts/wwccPool.sol:WCPOOL",
						"label": "singleScorePool",
						"offset": 0,
						"slot": "7",
						"type": "t_mapping(t_string_memory_ptr,t_uint256)"
					},
					{
						"astId": 228,
						"contract": "wwcc-contracts/contracts/wwccPool.sol:WCPOOL",
						"label": "joinerAllPicking",
						"offset": 0,
						"slot": "8",
						"type": "t_mapping(t_address,t_struct(JoinerAllPicking)178_storage)"
					}
				],
				"types": {
					"t_address": {
						"encoding": "inplace",
						"label": "address",
						"numberOfBytes": "20"
					},
					"t_array(t_bytes32)dyn_storage": {
						"base": "t_bytes32",
						"encoding": "dynamic_array",
						"label": "bytes32[]",
						"numberOfBytes": "32"
					},
					"t_array(t_struct(JoinerPicking)193_storage)dyn_storage": {
						"base": "t_struct(JoinerPicking)193_storage",
						"encoding": "dynamic_array",
						"label": "struct WCPOOL.JoinerPicking[]",
						"numberOfBytes": "32"
					},
					"t_bool": {
						"encoding": "inplace",
						"label": "bool",
						"numberOfBytes": "1"
					},
					"t_bytes32": {
						"encoding": "inplace",
						"label": "bytes32",
						"numberOfBytes": "32"
					},
					"t_mapping(t_address,t_struct(JoinerAllPicking)178_storage)": {
						"encoding": "mapping",
						"key": "t_address",
						"label": "mapping(address => struct WCPOOL.JoinerAllPicking)",
						"numberOfBytes": "32",
						"value": "t_struct(JoinerAllPicking)178_storage"
					},
					"t_mapping(t_address,t_uint256)": {
						"encoding": "mapping",
						"key": "t_address",
						"label": "mapping(address => uint256)",
						"numberOfBytes": "32",
						"value": "t_uint256"
					},
					"t_mapping(t_bytes32,t_struct(AllScorePool)171_storage)": {
						"encoding": "mapping",
						"key": "t_bytes32",
						"label": "mapping(bytes32 => struct WCPOOL.AllScorePool)",
						"numberOfBytes": "32",
						"value": "t_struct(AllScorePool)171_storage"
					},
					"t_mapping(t_bytes32,t_struct(WcPool)153_storage)": {
						"encoding": "mapping",
						"key": "t_bytes32",
						"label": "mapping(bytes32 => struct WCPOOL.WcPool)",
						"numberOfBytes": "32",
						"value": "t_struct(WcPool)153_storage"
					},
					"t_mapping(t_string_memory_ptr,t_uint256)": {
						"encoding": "mapping",
						"key": "t_string_memory_ptr",
						"label": "mapping(string => uint256)",
						"numberOfBytes": "32",
						"value": "t_uint256"
					},
					"t_string_memory_ptr": {
						"encoding": "bytes",
						"label": "string",
						"numberOfBytes": "32"
					},
					"t_string_storage": {
						"encoding": "bytes",
						"label": "string",
						"numberOfBytes": "32"
					},
					"t_struct(AllScorePool)171_storage": {
						"encoding": "inplace",
						"label": "struct WCPOOL.AllScorePool",
						"members": [
							{
								"astId": 168,
								"contract": "wwcc-contracts/contracts/wwccPool.sol:WCPOOL",
								"label": "separateBet",
								"offset": 0,
								"slot": "0",
								"type": "t_array(t_struct(JoinerPicking)193_storage)dyn_storage"
							},
							{
								"astId": 170,
								"contract": "wwcc-contracts/contracts/wwccPool.sol:WCPOOL",
								"label": "poolKey",
								"offset": 0,
								"slot": "1",
								"type": "t_bytes32"
							}
						],
						"numberOfBytes": "64"
					},
					"t_struct(JoinerAllPicking)178_storage": {
						"encoding": "inplace",
						"label": "struct WCPOOL.JoinerAllPicking",
						"members": [
							{
								"astId": 175,
								"contract": "wwcc-contracts/contracts/wwccPool.sol:WCPOOL",
								"label": "separateBet",
								"offset": 0,
								"slot": "0",
								"type": "t_array(t_struct(JoinerPicking)193_storage)dyn_storage"
							},
							{
								"astId": 177,
								"contract": "wwcc-contracts/contracts/wwccPool.sol:WCPOOL",
								"label": "joiner",
								"offset": 0,
								"slot": "1",
								"type": "t_address"
							}
						],
						"numberOfBytes": "64"
					},
					"t_struct(JoinerPicking)193_storage": {
						"encoding": "inplace",
						"label": "struct WCPOOL.JoinerPicking",
						"members": [
							{
								"astId": 180,
								"contract": "wwcc-contracts/contracts/wwccPool.sol:WCPOOL",
								"label": "weight",
								"offset": 0,
								"slot": "0",
								"type": "t_uint256"
							},
							{
								"astId": 182,
								"contract": "wwcc-contracts/contracts/wwccPool.sol:WCPOOL",
								"label": "kind",
								"offset": 0,
								"slot": "1",
								"type": "t_uint256"
							},
							{
								"astId": 184,
								"contract": "wwcc-contracts/contracts/wwccPool.sol:WCPOOL",
								"label": "homeScore",
								"offset": 0,
								"slot": "2",
								"type": "t_uint256"
							},
							{
								"astId": 186,
								"contract": "wwcc-contracts/contracts/wwccPool.sol:WCPOOL",
								"label": "visitScore",
								"offset": 0,
								"slot": "3",
								"type": "t_uint256"
							},
							{
								"astId": 188,
								"contract": "wwcc-contracts/contracts/wwccPool.sol:WCPOOL",
								"label": "joiner",
								"offset": 0,
								"slot": "4",
								"type": "t_address"
							},
							{
								"astId": 190,
								"contract": "wwcc-contracts/contracts/wwccPool.sol:WCPOOL",
								"label": "pickingKey",
								"offset": 0,
								"slot": "5",
								"type": "t_string_storage"
							},
							{
								"astId": 192,
								"contract": "wwcc-contracts/contracts/wwccPool.sol:WCPOOL",
								"label": "finished",
								"offset": 0,
								"slot": "6",
								"type": "t_bool"
							}
						],
						"numberOfBytes": "224"
					},
					"t_struct(WcPool)153_storage": {
						"encoding": "inplace",
						"label": "struct WCPOOL.WcPool",
						"members": [
							{
								"astId": 132,
								"contract": "wwcc-contracts/contracts/wwccPool.sol:WCPOOL",
								"label": "home",
								"offset": 0,
								"slot": "0",
								"type": "t_string_storage"
							},
							{
								"astId": 134,
								"contract": "wwcc-contracts/contracts/wwccPool.sol:WCPOOL",
								"label": "visit",
								"offset": 0,
								"slot": "1",
								"type": "t_string_storage"
							},
							{
								"astId": 136,
								"contract": "wwcc-contracts/contracts/wwccPool.sol:WCPOOL",
								"label": "rounds",
								"offset": 0,
								"slot": "2",
								"type": "t_string_storage"
							},
							{
								"astId": 138,
								"contract": "wwcc-contracts/contracts/wwccPool.sol:WCPOOL",
								"label": "wPool",
								"offset": 0,
								"slot": "3",
								"type": "t_uint256"
							},
							{
								"astId": 140,
								"contract": "wwcc-contracts/contracts/wwccPool.sol:WCPOOL",
								"label": "dPool",
								"offset": 0,
								"slot": "4",
								"type": "t_uint256"
							},
							{
								"astId": 142,
								"contract": "wwcc-contracts/contracts/wwccPool.sol:WCPOOL",
								"label": "lPool",
								"offset": 0,
								"slot": "5",
								"type": "t_uint256"
							},
							{
								"astId": 144,
								"contract": "wwcc-contracts/contracts/wwccPool.sol:WCPOOL",
								"label": "sPool",
								"offset": 0,
								"slot": "6",
								"type": "t_uint256"
							},
							{
								"astId": 146,
								"contract": "wwcc-contracts/contracts/wwccPool.sol:WCPOOL",
								"label": "basal",
								"offset": 0,
								"slot": "7",
								"type": "t_uint256"
							},
							{
								"astId": 148,
								"contract": "wwcc-contracts/contracts/wwccPool.sol:WCPOOL",
								"label": "decided",
								"offset": 0,
								"slot": "8",
								"type": "t_bool"
							},
							{
								"astId": 150,
								"contract": "wwcc-contracts/contracts/wwccPool.sol:WCPOOL",
								"label": "used",
								"offset": 1,
								"slot": "8",
								"type": "t_bool"
							},
							{
								"astId": 152,
								"contract": "wwcc-contracts/contracts/wwccPool.sol:WCPOOL",
								"label": "finished",
								"offset": 2,
								"slot": "8",
								"type": "t_bool"
							}
						],
						"numberOfBytes": "288"
					},
					"t_uint256": {
						"encoding": "inplace",
						"label": "uint256",
						"numberOfBytes": "32"
					}
				}
			},
			"userdoc": {
				"kind": "user",
				"methods": {},
				"version": 1
			}
		}
	}
}